{
	"contracts/0525/Note.sol": {
		"AA": {
			"abi": [
				{
					"inputs": [],
					"name": "numbers",
					"outputs": [
						{
							"internalType": "uint256",
							"name": "",
							"type": "uint256"
						},
						{
							"internalType": "uint256",
							"name": "",
							"type": "uint256"
						},
						{
							"internalType": "uint256",
							"name": "",
							"type": "uint256"
						}
					],
					"stateMutability": "pure",
					"type": "function"
				},
				{
					"inputs": [],
					"name": "numbers2",
					"outputs": [
						{
							"internalType": "uint256",
							"name": "",
							"type": "uint256"
						},
						{
							"internalType": "uint256",
							"name": "",
							"type": "uint256"
						},
						{
							"internalType": "uint256",
							"name": "",
							"type": "uint256"
						}
					],
					"stateMutability": "view",
					"type": "function"
				},
				{
					"inputs": [],
					"name": "numbers3",
					"outputs": [
						{
							"internalType": "uint256",
							"name": "",
							"type": "uint256"
						},
						{
							"internalType": "uint256",
							"name": "",
							"type": "uint256"
						}
					],
					"stateMutability": "view",
					"type": "function"
				}
			],
			"devdoc": {
				"kind": "dev",
				"methods": {},
				"version": 1
			},
			"evm": {
				"assembly": "    /* \"contracts/0525/Note.sol\":5212:5606  contract AA {... */\n  mstore(0x40, 0x80)\n  callvalue\n  dup1\n  iszero\n  tag_1\n  jumpi\n  0x00\n  dup1\n  revert\ntag_1:\n  pop\n  dataSize(sub_0)\n  dup1\n  dataOffset(sub_0)\n  0x00\n  codecopy\n  0x00\n  return\nstop\n\nsub_0: assembly {\n        /* \"contracts/0525/Note.sol\":5212:5606  contract AA {... */\n      mstore(0x40, 0x80)\n      callvalue\n      dup1\n      iszero\n      tag_1\n      jumpi\n      0x00\n      dup1\n      revert\n    tag_1:\n      pop\n      jumpi(tag_2, lt(calldatasize, 0x04))\n      shr(0xe0, calldataload(0x00))\n      dup1\n      0x27722f6a\n      eq\n      tag_3\n      jumpi\n      dup1\n      0x3ba02c3f\n      eq\n      tag_4\n      jumpi\n      dup1\n      0x91ec2856\n      eq\n      tag_5\n      jumpi\n    tag_2:\n      0x00\n      dup1\n      revert\n        /* \"contracts/0525/Note.sol\":5231:5322  function numbers() public pure returns (uint, uint, uint) {... */\n    tag_3:\n      tag_6\n      tag_7\n      jump\t// in\n    tag_6:\n      mload(0x40)\n      tag_8\n      swap4\n      swap3\n      swap2\n      swap1\n      tag_9\n      jump\t// in\n    tag_8:\n      mload(0x40)\n      dup1\n      swap2\n      sub\n      swap1\n      return\n        /* \"contracts/0525/Note.sol\":5480:5603  function numbers3() public view returns(uint, uint) {... */\n    tag_4:\n      tag_10\n      tag_11\n      jump\t// in\n    tag_10:\n      mload(0x40)\n      tag_12\n      swap3\n      swap2\n      swap1\n      tag_13\n      jump\t// in\n    tag_12:\n      mload(0x40)\n      dup1\n      swap2\n      sub\n      swap1\n      return\n        /* \"contracts/0525/Note.sol\":5330:5472  function numbers2() public view returns (uint, uint, uint) {... */\n    tag_5:\n      tag_14\n      tag_15\n      jump\t// in\n    tag_14:\n      mload(0x40)\n      tag_16\n      swap4\n      swap3\n      swap2\n      swap1\n      tag_9\n      jump\t// in\n    tag_16:\n      mload(0x40)\n      dup1\n      swap2\n      sub\n      swap1\n      return\n        /* \"contracts/0525/Note.sol\":5231:5322  function numbers() public pure returns (uint, uint, uint) {... */\n    tag_7:\n        /* \"contracts/0525/Note.sol\":5271:5275  uint */\n      0x00\n        /* \"contracts/0525/Note.sol\":5277:5281  uint */\n      dup1\n        /* \"contracts/0525/Note.sol\":5283:5287  uint */\n      0x00\n        /* \"contracts/0525/Note.sol\":5308:5309  1 */\n      0x01\n        /* \"contracts/0525/Note.sol\":5310:5311  2 */\n      0x02\n        /* \"contracts/0525/Note.sol\":5312:5313  3 */\n      0x03\n        /* \"contracts/0525/Note.sol\":5300:5314  return (1,2,3) */\n      swap3\n      pop\n      swap3\n      pop\n      swap3\n      pop\n        /* \"contracts/0525/Note.sol\":5231:5322  function numbers() public pure returns (uint, uint, uint) {... */\n      swap1\n      swap2\n      swap3\n      jump\t// out\n        /* \"contracts/0525/Note.sol\":5480:5603  function numbers3() public view returns(uint, uint) {... */\n    tag_11:\n        /* \"contracts/0525/Note.sol\":5520:5524  uint */\n      0x00\n        /* \"contracts/0525/Note.sol\":5526:5530  uint */\n      dup1\n        /* \"contracts/0525/Note.sol\":5544:5550  uint a */\n      0x00\n        /* \"contracts/0525/Note.sol\":5553:5559  uint c */\n      dup1\n        /* \"contracts/0525/Note.sol\":5563:5572  numbers() */\n      tag_19\n        /* \"contracts/0525/Note.sol\":5563:5570  numbers */\n      tag_7\n        /* \"contracts/0525/Note.sol\":5563:5572  numbers() */\n      jump\t// in\n    tag_19:\n        /* \"contracts/0525/Note.sol\":5543:5572  (uint a, ,uint c) = numbers() */\n      swap3\n      pop\n      pop\n      swap2\n      pop\n        /* \"contracts/0525/Note.sol\":5591:5592  a */\n      dup2\n        /* \"contracts/0525/Note.sol\":5593:5594  c */\n      dup2\n        /* \"contracts/0525/Note.sol\":5583:5595  return (a,c) */\n      swap4\n      pop\n      swap4\n      pop\n      pop\n      pop\n        /* \"contracts/0525/Note.sol\":5480:5603  function numbers3() public view returns(uint, uint) {... */\n      swap1\n      swap2\n      jump\t// out\n        /* \"contracts/0525/Note.sol\":5330:5472  function numbers2() public view returns (uint, uint, uint) {... */\n    tag_15:\n        /* \"contracts/0525/Note.sol\":5371:5375  uint */\n      0x00\n        /* \"contracts/0525/Note.sol\":5377:5381  uint */\n      dup1\n        /* \"contracts/0525/Note.sol\":5383:5387  uint */\n      0x00\n        /* \"contracts/0525/Note.sol\":5401:5407  uint a */\n      dup1\n        /* \"contracts/0525/Note.sol\":5409:5415  uint b */\n      0x00\n        /* \"contracts/0525/Note.sol\":5417:5423  uint c */\n      dup1\n        /* \"contracts/0525/Note.sol\":5428:5437  numbers() */\n      tag_21\n        /* \"contracts/0525/Note.sol\":5428:5435  numbers */\n      tag_7\n        /* \"contracts/0525/Note.sol\":5428:5437  numbers() */\n      jump\t// in\n    tag_21:\n        /* \"contracts/0525/Note.sol\":5400:5437  (uint a, uint b, uint c ) = numbers() */\n      swap3\n      pop\n      swap3\n      pop\n      swap3\n      pop\n        /* \"contracts/0525/Note.sol\":5458:5459  a */\n      dup3\n        /* \"contracts/0525/Note.sol\":5460:5461  b */\n      dup3\n        /* \"contracts/0525/Note.sol\":5462:5463  c */\n      dup3\n        /* \"contracts/0525/Note.sol\":5450:5464  return (a,b,c) */\n      swap6\n      pop\n      swap6\n      pop\n      swap6\n      pop\n      pop\n      pop\n      pop\n        /* \"contracts/0525/Note.sol\":5330:5472  function numbers2() public view returns (uint, uint, uint) {... */\n      swap1\n      swap2\n      swap3\n      jump\t// out\n        /* \"#utility.yul\":7:84   */\n    tag_22:\n        /* \"#utility.yul\":44:51   */\n      0x00\n        /* \"#utility.yul\":73:78   */\n      dup2\n        /* \"#utility.yul\":62:78   */\n      swap1\n      pop\n        /* \"#utility.yul\":7:84   */\n      swap2\n      swap1\n      pop\n      jump\t// out\n        /* \"#utility.yul\":90:208   */\n    tag_23:\n        /* \"#utility.yul\":177:201   */\n      tag_27\n        /* \"#utility.yul\":195:200   */\n      dup2\n        /* \"#utility.yul\":177:201   */\n      tag_22\n      jump\t// in\n    tag_27:\n        /* \"#utility.yul\":172:175   */\n      dup3\n        /* \"#utility.yul\":165:202   */\n      mstore\n        /* \"#utility.yul\":90:208   */\n      pop\n      pop\n      jump\t// out\n        /* \"#utility.yul\":214:656   */\n    tag_9:\n        /* \"#utility.yul\":363:367   */\n      0x00\n        /* \"#utility.yul\":401:403   */\n      0x60\n        /* \"#utility.yul\":390:399   */\n      dup3\n        /* \"#utility.yul\":386:404   */\n      add\n        /* \"#utility.yul\":378:404   */\n      swap1\n      pop\n        /* \"#utility.yul\":414:485   */\n      tag_29\n        /* \"#utility.yul\":482:483   */\n      0x00\n        /* \"#utility.yul\":471:480   */\n      dup4\n        /* \"#utility.yul\":467:484   */\n      add\n        /* \"#utility.yul\":458:464   */\n      dup7\n        /* \"#utility.yul\":414:485   */\n      tag_23\n      jump\t// in\n    tag_29:\n        /* \"#utility.yul\":495:567   */\n      tag_30\n        /* \"#utility.yul\":563:565   */\n      0x20\n        /* \"#utility.yul\":552:561   */\n      dup4\n        /* \"#utility.yul\":548:566   */\n      add\n        /* \"#utility.yul\":539:545   */\n      dup6\n        /* \"#utility.yul\":495:567   */\n      tag_23\n      jump\t// in\n    tag_30:\n        /* \"#utility.yul\":577:649   */\n      tag_31\n        /* \"#utility.yul\":645:647   */\n      0x40\n        /* \"#utility.yul\":634:643   */\n      dup4\n        /* \"#utility.yul\":630:648   */\n      add\n        /* \"#utility.yul\":621:627   */\n      dup5\n        /* \"#utility.yul\":577:649   */\n      tag_23\n      jump\t// in\n    tag_31:\n        /* \"#utility.yul\":214:656   */\n      swap5\n      swap4\n      pop\n      pop\n      pop\n      pop\n      jump\t// out\n        /* \"#utility.yul\":662:994   */\n    tag_13:\n        /* \"#utility.yul\":783:787   */\n      0x00\n        /* \"#utility.yul\":821:823   */\n      0x40\n        /* \"#utility.yul\":810:819   */\n      dup3\n        /* \"#utility.yul\":806:824   */\n      add\n        /* \"#utility.yul\":798:824   */\n      swap1\n      pop\n        /* \"#utility.yul\":834:905   */\n      tag_33\n        /* \"#utility.yul\":902:903   */\n      0x00\n        /* \"#utility.yul\":891:900   */\n      dup4\n        /* \"#utility.yul\":887:904   */\n      add\n        /* \"#utility.yul\":878:884   */\n      dup6\n        /* \"#utility.yul\":834:905   */\n      tag_23\n      jump\t// in\n    tag_33:\n        /* \"#utility.yul\":915:987   */\n      tag_34\n        /* \"#utility.yul\":983:985   */\n      0x20\n        /* \"#utility.yul\":972:981   */\n      dup4\n        /* \"#utility.yul\":968:986   */\n      add\n        /* \"#utility.yul\":959:965   */\n      dup5\n        /* \"#utility.yul\":915:987   */\n      tag_23\n      jump\t// in\n    tag_34:\n        /* \"#utility.yul\":662:994   */\n      swap4\n      swap3\n      pop\n      pop\n      pop\n      jump\t// out\n\n    auxdata: 0xa264697066735822122028a8712bab59f1ec4804f6b9e5771351f1524a9282183fe29fa59aac1e84567864736f6c63430008120033\n}\n",
				"bytecode": {
					"linkReferences": {},
					"object": "608060405234801561001057600080fd5b506101b1806100206000396000f3fe608060405234801561001057600080fd5b50600436106100415760003560e01c806327722f6a146100465780633ba02c3f1461006657806391ec285614610085575b600080fd5b61004e6100a5565b60405161005d9392919061011b565b60405180910390f35b61006e6100bb565b60405161007c929190610152565b60405180910390f35b61008d6100da565b60405161009c9392919061011b565b60405180910390f35b6000806000600160026003925092509250909192565b6000806000806100c96100a5565b925050915081819350935050509091565b6000806000806000806100eb6100a5565b925092509250828282955095509550505050909192565b6000819050919050565b61011581610102565b82525050565b6000606082019050610130600083018661010c565b61013d602083018561010c565b61014a604083018461010c565b949350505050565b6000604082019050610167600083018561010c565b610174602083018461010c565b939250505056fea264697066735822122028a8712bab59f1ec4804f6b9e5771351f1524a9282183fe29fa59aac1e84567864736f6c63430008120033",
					"opcodes": "PUSH1 0x80 PUSH1 0x40 MSTORE CALLVALUE DUP1 ISZERO PUSH2 0x10 JUMPI PUSH1 0x0 DUP1 REVERT JUMPDEST POP PUSH2 0x1B1 DUP1 PUSH2 0x20 PUSH1 0x0 CODECOPY PUSH1 0x0 RETURN INVALID PUSH1 0x80 PUSH1 0x40 MSTORE CALLVALUE DUP1 ISZERO PUSH2 0x10 JUMPI PUSH1 0x0 DUP1 REVERT JUMPDEST POP PUSH1 0x4 CALLDATASIZE LT PUSH2 0x41 JUMPI PUSH1 0x0 CALLDATALOAD PUSH1 0xE0 SHR DUP1 PUSH4 0x27722F6A EQ PUSH2 0x46 JUMPI DUP1 PUSH4 0x3BA02C3F EQ PUSH2 0x66 JUMPI DUP1 PUSH4 0x91EC2856 EQ PUSH2 0x85 JUMPI JUMPDEST PUSH1 0x0 DUP1 REVERT JUMPDEST PUSH2 0x4E PUSH2 0xA5 JUMP JUMPDEST PUSH1 0x40 MLOAD PUSH2 0x5D SWAP4 SWAP3 SWAP2 SWAP1 PUSH2 0x11B JUMP JUMPDEST PUSH1 0x40 MLOAD DUP1 SWAP2 SUB SWAP1 RETURN JUMPDEST PUSH2 0x6E PUSH2 0xBB JUMP JUMPDEST PUSH1 0x40 MLOAD PUSH2 0x7C SWAP3 SWAP2 SWAP1 PUSH2 0x152 JUMP JUMPDEST PUSH1 0x40 MLOAD DUP1 SWAP2 SUB SWAP1 RETURN JUMPDEST PUSH2 0x8D PUSH2 0xDA JUMP JUMPDEST PUSH1 0x40 MLOAD PUSH2 0x9C SWAP4 SWAP3 SWAP2 SWAP1 PUSH2 0x11B JUMP JUMPDEST PUSH1 0x40 MLOAD DUP1 SWAP2 SUB SWAP1 RETURN JUMPDEST PUSH1 0x0 DUP1 PUSH1 0x0 PUSH1 0x1 PUSH1 0x2 PUSH1 0x3 SWAP3 POP SWAP3 POP SWAP3 POP SWAP1 SWAP2 SWAP3 JUMP JUMPDEST PUSH1 0x0 DUP1 PUSH1 0x0 DUP1 PUSH2 0xC9 PUSH2 0xA5 JUMP JUMPDEST SWAP3 POP POP SWAP2 POP DUP2 DUP2 SWAP4 POP SWAP4 POP POP POP SWAP1 SWAP2 JUMP JUMPDEST PUSH1 0x0 DUP1 PUSH1 0x0 DUP1 PUSH1 0x0 DUP1 PUSH2 0xEB PUSH2 0xA5 JUMP JUMPDEST SWAP3 POP SWAP3 POP SWAP3 POP DUP3 DUP3 DUP3 SWAP6 POP SWAP6 POP SWAP6 POP POP POP POP SWAP1 SWAP2 SWAP3 JUMP JUMPDEST PUSH1 0x0 DUP2 SWAP1 POP SWAP2 SWAP1 POP JUMP JUMPDEST PUSH2 0x115 DUP2 PUSH2 0x102 JUMP JUMPDEST DUP3 MSTORE POP POP JUMP JUMPDEST PUSH1 0x0 PUSH1 0x60 DUP3 ADD SWAP1 POP PUSH2 0x130 PUSH1 0x0 DUP4 ADD DUP7 PUSH2 0x10C JUMP JUMPDEST PUSH2 0x13D PUSH1 0x20 DUP4 ADD DUP6 PUSH2 0x10C JUMP JUMPDEST PUSH2 0x14A PUSH1 0x40 DUP4 ADD DUP5 PUSH2 0x10C JUMP JUMPDEST SWAP5 SWAP4 POP POP POP POP JUMP JUMPDEST PUSH1 0x0 PUSH1 0x40 DUP3 ADD SWAP1 POP PUSH2 0x167 PUSH1 0x0 DUP4 ADD DUP6 PUSH2 0x10C JUMP JUMPDEST PUSH2 0x174 PUSH1 0x20 DUP4 ADD DUP5 PUSH2 0x10C JUMP JUMPDEST SWAP4 SWAP3 POP POP POP JUMP INVALID LOG2 PUSH5 0x6970667358 0x22 SLT KECCAK256 0x28 0xA8 PUSH18 0x2BAB59F1EC4804F6B9E5771351F1524A9282 XOR EXTCODEHASH 0xE2 SWAP16 0xA5 SWAP11 0xAC 0x1E DUP5 JUMP PUSH25 0x64736F6C634300081200330000000000000000000000000000 "
				},
				"gasEstimates": {
					"creation": {
						"codeDepositCost": "86600",
						"executionCost": "135",
						"totalCost": "86735"
					},
					"external": {
						"numbers()": "infinite",
						"numbers2()": "infinite",
						"numbers3()": "infinite"
					}
				},
				"methodIdentifiers": {
					"numbers()": "27722f6a",
					"numbers2()": "91ec2856",
					"numbers3()": "3ba02c3f"
				}
			},
			"storageLayout": {
				"storage": [],
				"types": null
			},
			"userdoc": {
				"kind": "user",
				"methods": {},
				"version": 1
			}
		}
	}
}