{
	"contracts/0525/Note.sol": {
		"APP": {
			"abi": [
				{
					"inputs": [
						{
							"internalType": "address payable",
							"name": "_bank",
							"type": "address"
						},
						{
							"internalType": "address",
							"name": "_to",
							"type": "address"
						},
						{
							"internalType": "uint256",
							"name": "_amount",
							"type": "uint256"
						}
					],
					"name": "_depositToBank",
					"outputs": [],
					"stateMutability": "nonpayable",
					"type": "function"
				},
				{
					"inputs": [
						{
							"internalType": "address",
							"name": "",
							"type": "address"
						}
					],
					"name": "balance",
					"outputs": [
						{
							"internalType": "uint256",
							"name": "",
							"type": "uint256"
						}
					],
					"stateMutability": "view",
					"type": "function"
				},
				{
					"inputs": [],
					"name": "depositToApp",
					"outputs": [],
					"stateMutability": "payable",
					"type": "function"
				},
				{
					"inputs": [
						{
							"internalType": "address payable",
							"name": "_bank",
							"type": "address"
						},
						{
							"internalType": "uint256",
							"name": "_amount",
							"type": "uint256"
						}
					],
					"name": "depositToBank",
					"outputs": [],
					"stateMutability": "nonpayable",
					"type": "function"
				},
				{
					"inputs": [
						{
							"internalType": "address",
							"name": "_bAccount",
							"type": "address"
						},
						{
							"internalType": "uint256",
							"name": "_amount",
							"type": "uint256"
						}
					],
					"name": "transferTo",
					"outputs": [],
					"stateMutability": "nonpayable",
					"type": "function"
				},
				{
					"inputs": [
						{
							"internalType": "address payable",
							"name": "_aBank",
							"type": "address"
						},
						{
							"internalType": "address",
							"name": "_bAccount",
							"type": "address"
						},
						{
							"internalType": "address payable",
							"name": "_bBank",
							"type": "address"
						},
						{
							"internalType": "uint256",
							"name": "_amount",
							"type": "uint256"
						}
					],
					"name": "transferWire",
					"outputs": [],
					"stateMutability": "nonpayable",
					"type": "function"
				},
				{
					"inputs": [
						{
							"internalType": "uint256",
							"name": "_amount",
							"type": "uint256"
						}
					],
					"name": "withdrawFromApp",
					"outputs": [],
					"stateMutability": "nonpayable",
					"type": "function"
				},
				{
					"inputs": [
						{
							"internalType": "address payable",
							"name": "_bank",
							"type": "address"
						},
						{
							"internalType": "uint256",
							"name": "_amount",
							"type": "uint256"
						}
					],
					"name": "withdrawFromBank",
					"outputs": [],
					"stateMutability": "nonpayable",
					"type": "function"
				},
				{
					"stateMutability": "payable",
					"type": "receive"
				}
			],
			"devdoc": {
				"kind": "dev",
				"methods": {},
				"version": 1
			},
			"evm": {
				"assembly": "    /* \"contracts/0525/Note.sol\":135:2540  contract APP {... */\n  mstore(0x40, 0x80)\n  callvalue\n  dup1\n  iszero\n  tag_1\n  jumpi\n  0x00\n  dup1\n  revert\ntag_1:\n  pop\n  dataSize(sub_0)\n  dup1\n  dataOffset(sub_0)\n  0x00\n  codecopy\n  0x00\n  return\nstop\n\nsub_0: assembly {\n        /* \"contracts/0525/Note.sol\":135:2540  contract APP {... */\n      mstore(0x40, 0x80)\n      jumpi(tag_1, lt(calldatasize, 0x04))\n      shr(0xe0, calldataload(0x00))\n      dup1\n      0x8bf6146a\n      gt\n      tag_11\n      jumpi\n      dup1\n      0x8bf6146a\n      eq\n      tag_7\n      jumpi\n      dup1\n      0xbb85f016\n      eq\n      tag_8\n      jumpi\n      dup1\n      0xe3d670d7\n      eq\n      tag_9\n      jumpi\n      dup1\n      0xe473adc2\n      eq\n      tag_10\n      jumpi\n      jump(tag_2)\n    tag_11:\n      dup1\n      0x274956e9\n      eq\n      tag_3\n      jumpi\n      dup1\n      0x27b52dde\n      eq\n      tag_4\n      jumpi\n      dup1\n      0x2ccb1b30\n      eq\n      tag_5\n      jumpi\n      dup1\n      0x5d74f844\n      eq\n      tag_6\n      jumpi\n      jump(tag_2)\n    tag_1:\n      jumpi(tag_2, calldatasize)\n      stop\n    tag_2:\n      0x00\n      dup1\n      revert\n        /* \"contracts/0525/Note.sol\":2322:2537  function transferWire(address payable _aBank, address _bAccount, address payable _bBank, uint _amount) public {... */\n    tag_3:\n      callvalue\n      dup1\n      iszero\n      tag_14\n      jumpi\n      0x00\n      dup1\n      revert\n    tag_14:\n      pop\n      tag_15\n      0x04\n      dup1\n      calldatasize\n      sub\n      dup2\n      add\n      swap1\n      tag_16\n      swap2\n      swap1\n      tag_17\n      jump\t// in\n    tag_16:\n      tag_18\n      jump\t// in\n    tag_15:\n      stop\n        /* \"contracts/0525/Note.sol\":1457:1634  function withdrawFromApp(uint _amount) public balancecheck(msg.sender, _amount) {... */\n    tag_4:\n      callvalue\n      dup1\n      iszero\n      tag_19\n      jumpi\n      0x00\n      dup1\n      revert\n    tag_19:\n      pop\n      tag_20\n      0x04\n      dup1\n      calldatasize\n      sub\n      dup2\n      add\n      swap1\n      tag_21\n      swap2\n      swap1\n      tag_22\n      jump\t// in\n    tag_21:\n      tag_23\n      jump\t// in\n    tag_20:\n      stop\n        /* \"contracts/0525/Note.sol\":2036:2221  function transferTo(address _bAccount, uint _amount) public balancecheck(msg.sender, _amount) {... */\n    tag_5:\n      callvalue\n      dup1\n      iszero\n      tag_24\n      jumpi\n      0x00\n      dup1\n      revert\n    tag_24:\n      pop\n      tag_25\n      0x04\n      dup1\n      calldatasize\n      sub\n      dup2\n      add\n      swap1\n      tag_26\n      swap2\n      swap1\n      tag_27\n      jump\t// in\n    tag_26:\n      tag_28\n      jump\t// in\n    tag_25:\n      stop\n        /* \"contracts/0525/Note.sol\":1715:1959  function withdrawFromBank(address payable _bank, uint _amount) public balancecheck(msg.sender, _amount) {... */\n    tag_6:\n      callvalue\n      dup1\n      iszero\n      tag_29\n      jumpi\n      0x00\n      dup1\n      revert\n    tag_29:\n      pop\n      tag_30\n      0x04\n      dup1\n      calldatasize\n      sub\n      dup2\n      add\n      swap1\n      tag_31\n      swap2\n      swap1\n      tag_32\n      jump\t// in\n    tag_31:\n      tag_33\n      jump\t// in\n    tag_30:\n      stop\n        /* \"contracts/0525/Note.sol\":510:600  function depositToApp() public payable {... */\n    tag_7:\n      tag_34\n      tag_35\n      jump\t// in\n    tag_34:\n      stop\n        /* \"contracts/0525/Note.sol\":1032:1381  function _depositToBank(address payable _bank, address _to, uint _amount) public  {... */\n    tag_8:\n      callvalue\n      dup1\n      iszero\n      tag_36\n      jumpi\n      0x00\n      dup1\n      revert\n    tag_36:\n      pop\n      tag_37\n      0x04\n      dup1\n      calldatasize\n      sub\n      dup2\n      add\n      swap1\n      tag_38\n      swap2\n      swap1\n      tag_39\n      jump\t// in\n    tag_38:\n      tag_40\n      jump\t// in\n    tag_37:\n      stop\n        /* \"contracts/0525/Note.sol\":155:192  mapping(address=>uint) public balance */\n    tag_9:\n      callvalue\n      dup1\n      iszero\n      tag_41\n      jumpi\n      0x00\n      dup1\n      revert\n    tag_41:\n      pop\n      tag_42\n      0x04\n      dup1\n      calldatasize\n      sub\n      dup2\n      add\n      swap1\n      tag_43\n      swap2\n      swap1\n      tag_44\n      jump\t// in\n    tag_43:\n      tag_45\n      jump\t// in\n    tag_42:\n      mload(0x40)\n      tag_46\n      swap2\n      swap1\n      tag_47\n      jump\t// in\n    tag_46:\n      mload(0x40)\n      dup1\n      swap2\n      sub\n      swap1\n      return\n        /* \"contracts/0525/Note.sol\":681:1022  function depositToBank(address payable _bank, uint _amount) public {... */\n    tag_10:\n      callvalue\n      dup1\n      iszero\n      tag_48\n      jumpi\n      0x00\n      dup1\n      revert\n    tag_48:\n      pop\n      tag_49\n      0x04\n      dup1\n      calldatasize\n      sub\n      dup2\n      add\n      swap1\n      tag_50\n      swap2\n      swap1\n      tag_32\n      jump\t// in\n    tag_50:\n      tag_51\n      jump\t// in\n    tag_49:\n      stop\n        /* \"contracts/0525/Note.sol\":2322:2537  function transferWire(address payable _aBank, address _bAccount, address payable _bBank, uint _amount) public {... */\n    tag_18:\n        /* \"contracts/0525/Note.sol\":2443:2476  withdrawFromBank(_aBank, _amount) */\n      tag_53\n        /* \"contracts/0525/Note.sol\":2460:2466  _aBank */\n      dup5\n        /* \"contracts/0525/Note.sol\":2468:2475  _amount */\n      dup3\n        /* \"contracts/0525/Note.sol\":2443:2459  withdrawFromBank */\n      tag_33\n        /* \"contracts/0525/Note.sol\":2443:2476  withdrawFromBank(_aBank, _amount) */\n      jump\t// in\n    tag_53:\n        /* \"contracts/0525/Note.sol\":2487:2529  _depositToBank(_bBank, _bAccount, _amount) */\n      tag_54\n        /* \"contracts/0525/Note.sol\":2502:2508  _bBank */\n      dup3\n        /* \"contracts/0525/Note.sol\":2510:2519  _bAccount */\n      dup5\n        /* \"contracts/0525/Note.sol\":2521:2528  _amount */\n      dup4\n        /* \"contracts/0525/Note.sol\":2487:2501  _depositToBank */\n      tag_40\n        /* \"contracts/0525/Note.sol\":2487:2529  _depositToBank(_bBank, _bAccount, _amount) */\n      jump\t// in\n    tag_54:\n        /* \"contracts/0525/Note.sol\":2322:2537  function transferWire(address payable _aBank, address _bAccount, address payable _bBank, uint _amount) public {... */\n      pop\n      pop\n      pop\n      pop\n      jump\t// out\n        /* \"contracts/0525/Note.sol\":1457:1634  function withdrawFromApp(uint _amount) public balancecheck(msg.sender, _amount) {... */\n    tag_23:\n        /* \"contracts/0525/Note.sol\":1516:1526  msg.sender */\n      caller\n        /* \"contracts/0525/Note.sol\":1528:1535  _amount */\n      dup2\n        /* \"contracts/0525/Note.sol\":407:414  _amount */\n      dup1\n        /* \"contracts/0525/Note.sol\":392:399  balance */\n      0x00\n        /* \"contracts/0525/Note.sol\":392:403  balance[_a] */\n      dup1\n        /* \"contracts/0525/Note.sol\":400:402  _a */\n      dup5\n        /* \"contracts/0525/Note.sol\":392:403  balance[_a] */\n      0xffffffffffffffffffffffffffffffffffffffff\n      and\n      0xffffffffffffffffffffffffffffffffffffffff\n      and\n      dup2\n      mstore\n      0x20\n      add\n      swap1\n      dup2\n      mstore\n      0x20\n      add\n      0x00\n      keccak256\n      sload\n        /* \"contracts/0525/Note.sol\":392:414  balance[_a] >= _amount */\n      lt\n      iszero\n        /* \"contracts/0525/Note.sol\":384:415  require(balance[_a] >= _amount) */\n      tag_56\n      jumpi\n      0x00\n      dup1\n      revert\n    tag_56:\n        /* \"contracts/0525/Note.sol\":1571:1578  _amount */\n      dup3\n        /* \"contracts/0525/Note.sol\":1548:1555  balance */\n      0x00\n        /* \"contracts/0525/Note.sol\":1548:1567  balance[msg.sender] */\n      dup1\n        /* \"contracts/0525/Note.sol\":1556:1566  msg.sender */\n      caller\n        /* \"contracts/0525/Note.sol\":1548:1567  balance[msg.sender] */\n      0xffffffffffffffffffffffffffffffffffffffff\n      and\n      0xffffffffffffffffffffffffffffffffffffffff\n      and\n      dup2\n      mstore\n      0x20\n      add\n      swap1\n      dup2\n      mstore\n      0x20\n      add\n      0x00\n      keccak256\n      0x00\n        /* \"contracts/0525/Note.sol\":1548:1578  balance[msg.sender] -= _amount */\n      dup3\n      dup3\n      sload\n      tag_58\n      swap2\n      swap1\n      tag_59\n      jump\t// in\n    tag_58:\n      swap3\n      pop\n      pop\n      dup2\n      swap1\n      sstore\n      pop\n        /* \"contracts/0525/Note.sol\":1597:1607  msg.sender */\n      caller\n        /* \"contracts/0525/Note.sol\":1589:1617  payable(msg.sender).transfer */\n      0xffffffffffffffffffffffffffffffffffffffff\n      and\n        /* \"contracts/0525/Note.sol\":1589:1626  payable(msg.sender).transfer(_amount) */\n      0x08fc\n        /* \"contracts/0525/Note.sol\":1618:1625  _amount */\n      dup5\n        /* \"contracts/0525/Note.sol\":1589:1626  payable(msg.sender).transfer(_amount) */\n      swap1\n      dup2\n      iszero\n      mul\n      swap1\n      mload(0x40)\n      0x00\n      mload(0x40)\n      dup1\n      dup4\n      sub\n      dup2\n      dup6\n      dup9\n      dup9\n      call\n      swap4\n      pop\n      pop\n      pop\n      pop\n      iszero\n      dup1\n      iszero\n      tag_61\n      jumpi\n      returndatasize\n      0x00\n      dup1\n      returndatacopy\n      revert(0x00, returndatasize)\n    tag_61:\n      pop\n        /* \"contracts/0525/Note.sol\":1457:1634  function withdrawFromApp(uint _amount) public balancecheck(msg.sender, _amount) {... */\n      pop\n      pop\n      pop\n      jump\t// out\n        /* \"contracts/0525/Note.sol\":2036:2221  function transferTo(address _bAccount, uint _amount) public balancecheck(msg.sender, _amount) {... */\n    tag_28:\n        /* \"contracts/0525/Note.sol\":2109:2119  msg.sender */\n      caller\n        /* \"contracts/0525/Note.sol\":2121:2128  _amount */\n      dup2\n        /* \"contracts/0525/Note.sol\":407:414  _amount */\n      dup1\n        /* \"contracts/0525/Note.sol\":392:399  balance */\n      0x00\n        /* \"contracts/0525/Note.sol\":392:403  balance[_a] */\n      dup1\n        /* \"contracts/0525/Note.sol\":400:402  _a */\n      dup5\n        /* \"contracts/0525/Note.sol\":392:403  balance[_a] */\n      0xffffffffffffffffffffffffffffffffffffffff\n      and\n      0xffffffffffffffffffffffffffffffffffffffff\n      and\n      dup2\n      mstore\n      0x20\n      add\n      swap1\n      dup2\n      mstore\n      0x20\n      add\n      0x00\n      keccak256\n      sload\n        /* \"contracts/0525/Note.sol\":392:414  balance[_a] >= _amount */\n      lt\n      iszero\n        /* \"contracts/0525/Note.sol\":384:415  require(balance[_a] >= _amount) */\n      tag_63\n      jumpi\n      0x00\n      dup1\n      revert\n    tag_63:\n        /* \"contracts/0525/Note.sol\":2164:2171  _amount */\n      dup3\n        /* \"contracts/0525/Note.sol\":2141:2148  balance */\n      0x00\n        /* \"contracts/0525/Note.sol\":2141:2160  balance[msg.sender] */\n      dup1\n        /* \"contracts/0525/Note.sol\":2149:2159  msg.sender */\n      caller\n        /* \"contracts/0525/Note.sol\":2141:2160  balance[msg.sender] */\n      0xffffffffffffffffffffffffffffffffffffffff\n      and\n      0xffffffffffffffffffffffffffffffffffffffff\n      and\n      dup2\n      mstore\n      0x20\n      add\n      swap1\n      dup2\n      mstore\n      0x20\n      add\n      0x00\n      keccak256\n      0x00\n        /* \"contracts/0525/Note.sol\":2141:2171  balance[msg.sender] -= _amount */\n      dup3\n      dup3\n      sload\n      tag_65\n      swap2\n      swap1\n      tag_59\n      jump\t// in\n    tag_65:\n      swap3\n      pop\n      pop\n      dup2\n      swap1\n      sstore\n      pop\n        /* \"contracts/0525/Note.sol\":2204:2211  _amount */\n      dup3\n        /* \"contracts/0525/Note.sol\":2182:2189  balance */\n      0x00\n        /* \"contracts/0525/Note.sol\":2182:2200  balance[_bAccount] */\n      dup1\n        /* \"contracts/0525/Note.sol\":2190:2199  _bAccount */\n      dup7\n        /* \"contracts/0525/Note.sol\":2182:2200  balance[_bAccount] */\n      0xffffffffffffffffffffffffffffffffffffffff\n      and\n      0xffffffffffffffffffffffffffffffffffffffff\n      and\n      dup2\n      mstore\n      0x20\n      add\n      swap1\n      dup2\n      mstore\n      0x20\n      add\n      0x00\n      keccak256\n      0x00\n        /* \"contracts/0525/Note.sol\":2182:2211  balance[_bAccount] += _amount */\n      dup3\n      dup3\n      sload\n      tag_66\n      swap2\n      swap1\n      tag_67\n      jump\t// in\n    tag_66:\n      swap3\n      pop\n      pop\n      dup2\n      swap1\n      sstore\n      pop\n        /* \"contracts/0525/Note.sol\":2036:2221  function transferTo(address _bAccount, uint _amount) public balancecheck(msg.sender, _amount) {... */\n      pop\n      pop\n      pop\n      pop\n      jump\t// out\n        /* \"contracts/0525/Note.sol\":1715:1959  function withdrawFromBank(address payable _bank, uint _amount) public balancecheck(msg.sender, _amount) {... */\n    tag_33:\n        /* \"contracts/0525/Note.sol\":1798:1808  msg.sender */\n      caller\n        /* \"contracts/0525/Note.sol\":1810:1817  _amount */\n      dup2\n        /* \"contracts/0525/Note.sol\":407:414  _amount */\n      dup1\n        /* \"contracts/0525/Note.sol\":392:399  balance */\n      0x00\n        /* \"contracts/0525/Note.sol\":392:403  balance[_a] */\n      dup1\n        /* \"contracts/0525/Note.sol\":400:402  _a */\n      dup5\n        /* \"contracts/0525/Note.sol\":392:403  balance[_a] */\n      0xffffffffffffffffffffffffffffffffffffffff\n      and\n      0xffffffffffffffffffffffffffffffffffffffff\n      and\n      dup2\n      mstore\n      0x20\n      add\n      swap1\n      dup2\n      mstore\n      0x20\n      add\n      0x00\n      keccak256\n      sload\n        /* \"contracts/0525/Note.sol\":392:414  balance[_a] >= _amount */\n      lt\n      iszero\n        /* \"contracts/0525/Note.sol\":384:415  require(balance[_a] >= _amount) */\n      tag_69\n      jumpi\n      0x00\n      dup1\n      revert\n    tag_69:\n        /* \"contracts/0525/Note.sol\":1830:1845  Bank targetBank */\n      0x00\n        /* \"contracts/0525/Note.sol\":1853:1858  _bank */\n      dup5\n        /* \"contracts/0525/Note.sol\":1830:1859  Bank targetBank = Bank(_bank) */\n      swap1\n      pop\n        /* \"contracts/0525/Note.sol\":1870:1880  targetBank */\n      dup1\n        /* \"contracts/0525/Note.sol\":1870:1889  targetBank.Withdraw */\n      0xffffffffffffffffffffffffffffffffffffffff\n      and\n      0x884edad9\n        /* \"contracts/0525/Note.sol\":1890:1900  msg.sender */\n      caller\n        /* \"contracts/0525/Note.sol\":1902:1909  _amount */\n      dup7\n        /* \"contracts/0525/Note.sol\":1870:1910  targetBank.Withdraw(msg.sender, _amount) */\n      mload(0x40)\n      dup4\n      0xffffffff\n      and\n      0xe0\n      shl\n      dup2\n      mstore\n      0x04\n      add\n      tag_71\n      swap3\n      swap2\n      swap1\n      tag_72\n      jump\t// in\n    tag_71:\n      0x00\n      mload(0x40)\n      dup1\n      dup4\n      sub\n      dup2\n      0x00\n      dup8\n      dup1\n      extcodesize\n      iszero\n      dup1\n      iszero\n      tag_73\n      jumpi\n      0x00\n      dup1\n      revert\n    tag_73:\n      pop\n      gas\n      call\n      iszero\n      dup1\n      iszero\n      tag_75\n      jumpi\n      returndatasize\n      0x00\n      dup1\n      returndatacopy\n      revert(0x00, returndatasize)\n    tag_75:\n      pop\n      pop\n      pop\n      pop\n        /* \"contracts/0525/Note.sol\":1944:1951  _amount */\n      dup4\n        /* \"contracts/0525/Note.sol\":1921:1928  balance */\n      0x00\n        /* \"contracts/0525/Note.sol\":1921:1940  balance[msg.sender] */\n      dup1\n        /* \"contracts/0525/Note.sol\":1929:1939  msg.sender */\n      caller\n        /* \"contracts/0525/Note.sol\":1921:1940  balance[msg.sender] */\n      0xffffffffffffffffffffffffffffffffffffffff\n      and\n      0xffffffffffffffffffffffffffffffffffffffff\n      and\n      dup2\n      mstore\n      0x20\n      add\n      swap1\n      dup2\n      mstore\n      0x20\n      add\n      0x00\n      keccak256\n      0x00\n        /* \"contracts/0525/Note.sol\":1921:1951  balance[msg.sender] += _amount */\n      dup3\n      dup3\n      sload\n      tag_76\n      swap2\n      swap1\n      tag_67\n      jump\t// in\n    tag_76:\n      swap3\n      pop\n      pop\n      dup2\n      swap1\n      sstore\n      pop\n        /* \"contracts/0525/Note.sol\":1819:1959  {... */\n      pop\n        /* \"contracts/0525/Note.sol\":1715:1959  function withdrawFromBank(address payable _bank, uint _amount) public balancecheck(msg.sender, _amount) {... */\n      pop\n      pop\n      pop\n      pop\n      jump\t// out\n        /* \"contracts/0525/Note.sol\":510:600  function depositToApp() public payable {... */\n    tag_35:\n        /* \"contracts/0525/Note.sol\":583:592  msg.value */\n      callvalue\n        /* \"contracts/0525/Note.sol\":560:567  balance */\n      0x00\n        /* \"contracts/0525/Note.sol\":560:579  balance[msg.sender] */\n      dup1\n        /* \"contracts/0525/Note.sol\":568:578  msg.sender */\n      caller\n        /* \"contracts/0525/Note.sol\":560:579  balance[msg.sender] */\n      0xffffffffffffffffffffffffffffffffffffffff\n      and\n      0xffffffffffffffffffffffffffffffffffffffff\n      and\n      dup2\n      mstore\n      0x20\n      add\n      swap1\n      dup2\n      mstore\n      0x20\n      add\n      0x00\n      keccak256\n      0x00\n        /* \"contracts/0525/Note.sol\":560:592  balance[msg.sender] += msg.value */\n      dup3\n      dup3\n      sload\n      tag_78\n      swap2\n      swap1\n      tag_67\n      jump\t// in\n    tag_78:\n      swap3\n      pop\n      pop\n      dup2\n      swap1\n      sstore\n      pop\n        /* \"contracts/0525/Note.sol\":510:600  function depositToApp() public payable {... */\n      jump\t// out\n        /* \"contracts/0525/Note.sol\":1032:1381  function _depositToBank(address payable _bank, address _to, uint _amount) public  {... */\n    tag_40:\n        /* \"contracts/0525/Note.sol\":1125:1140  Bank targetBank */\n      0x00\n        /* \"contracts/0525/Note.sol\":1148:1153  _bank */\n      dup4\n        /* \"contracts/0525/Note.sol\":1125:1154  Bank targetBank = Bank(_bank) */\n      swap1\n      pop\n        /* \"contracts/0525/Note.sol\":1195:1202  _amount */\n      dup2\n        /* \"contracts/0525/Note.sol\":1173:1180  balance */\n      0x00\n        /* \"contracts/0525/Note.sol\":1173:1192  balance[msg.sender] */\n      dup1\n        /* \"contracts/0525/Note.sol\":1181:1191  msg.sender */\n      caller\n        /* \"contracts/0525/Note.sol\":1173:1192  balance[msg.sender] */\n      0xffffffffffffffffffffffffffffffffffffffff\n      and\n      0xffffffffffffffffffffffffffffffffffffffff\n      and\n      dup2\n      mstore\n      0x20\n      add\n      swap1\n      dup2\n      mstore\n      0x20\n      add\n      0x00\n      keccak256\n      sload\n        /* \"contracts/0525/Note.sol\":1173:1202  balance[msg.sender]>= _amount */\n      lt\n      iszero\n        /* \"contracts/0525/Note.sol\":1165:1203  require(balance[msg.sender]>= _amount) */\n      tag_80\n      jumpi\n      0x00\n      dup1\n      revert\n    tag_80:\n        /* \"contracts/0525/Note.sol\":1222:1232  targetBank */\n      dup1\n        /* \"contracts/0525/Note.sol\":1214:1242  payable(targetBank).transfer */\n      0xffffffffffffffffffffffffffffffffffffffff\n      and\n        /* \"contracts/0525/Note.sol\":1214:1251  payable(targetBank).transfer(_amount) */\n      0x08fc\n        /* \"contracts/0525/Note.sol\":1243:1250  _amount */\n      dup4\n        /* \"contracts/0525/Note.sol\":1214:1251  payable(targetBank).transfer(_amount) */\n      swap1\n      dup2\n      iszero\n      mul\n      swap1\n      mload(0x40)\n      0x00\n      mload(0x40)\n      dup1\n      dup4\n      sub\n      dup2\n      dup6\n      dup9\n      dup9\n      call\n      swap4\n      pop\n      pop\n      pop\n      pop\n      iszero\n      dup1\n      iszero\n      tag_82\n      jumpi\n      returndatasize\n      0x00\n      dup1\n      returndatacopy\n      revert(0x00, returndatasize)\n    tag_82:\n      pop\n        /* \"contracts/0525/Note.sol\":1285:1292  _amount */\n      dup2\n        /* \"contracts/0525/Note.sol\":1262:1269  balance */\n      0x00\n        /* \"contracts/0525/Note.sol\":1262:1281  balance[msg.sender] */\n      dup1\n        /* \"contracts/0525/Note.sol\":1270:1280  msg.sender */\n      caller\n        /* \"contracts/0525/Note.sol\":1262:1281  balance[msg.sender] */\n      0xffffffffffffffffffffffffffffffffffffffff\n      and\n      0xffffffffffffffffffffffffffffffffffffffff\n      and\n      dup2\n      mstore\n      0x20\n      add\n      swap1\n      dup2\n      mstore\n      0x20\n      add\n      0x00\n      keccak256\n      0x00\n        /* \"contracts/0525/Note.sol\":1262:1292  balance[msg.sender] -= _amount */\n      dup3\n      dup3\n      sload\n      tag_83\n      swap2\n      swap1\n      tag_59\n      jump\t// in\n    tag_83:\n      swap3\n      pop\n      pop\n      dup2\n      swap1\n      sstore\n      pop\n        /* \"contracts/0525/Note.sol\":1341:1351  targetBank */\n      dup1\n        /* \"contracts/0525/Note.sol\":1341:1359  targetBank.Deposit */\n      0xffffffffffffffffffffffffffffffffffffffff\n      and\n      0xe1fffcc4\n        /* \"contracts/0525/Note.sol\":1360:1363  _to */\n      dup5\n        /* \"contracts/0525/Note.sol\":1365:1372  _amount */\n      dup5\n        /* \"contracts/0525/Note.sol\":1341:1373  targetBank.Deposit(_to, _amount) */\n      mload(0x40)\n      dup4\n      0xffffffff\n      and\n      0xe0\n      shl\n      dup2\n      mstore\n      0x04\n      add\n      tag_84\n      swap3\n      swap2\n      swap1\n      tag_72\n      jump\t// in\n    tag_84:\n      0x00\n      mload(0x40)\n      dup1\n      dup4\n      sub\n      dup2\n      0x00\n      dup8\n      dup1\n      extcodesize\n      iszero\n      dup1\n      iszero\n      tag_85\n      jumpi\n      0x00\n      dup1\n      revert\n    tag_85:\n      pop\n      gas\n      call\n      iszero\n      dup1\n      iszero\n      tag_87\n      jumpi\n      returndatasize\n      0x00\n      dup1\n      returndatacopy\n      revert(0x00, returndatasize)\n    tag_87:\n      pop\n      pop\n      pop\n      pop\n        /* \"contracts/0525/Note.sol\":1114:1381  {... */\n      pop\n        /* \"contracts/0525/Note.sol\":1032:1381  function _depositToBank(address payable _bank, address _to, uint _amount) public  {... */\n      pop\n      pop\n      pop\n      jump\t// out\n        /* \"contracts/0525/Note.sol\":155:192  mapping(address=>uint) public balance */\n    tag_45:\n      mstore(0x20, 0x00)\n      dup1\n      0x00\n      mstore\n      keccak256(0x00, 0x40)\n      0x00\n      swap2\n      pop\n      swap1\n      pop\n      sload\n      dup2\n      jump\t// out\n        /* \"contracts/0525/Note.sol\":681:1022  function depositToBank(address payable _bank, uint _amount) public {... */\n    tag_51:\n        /* \"contracts/0525/Note.sol\":759:774  Bank targetBank */\n      0x00\n        /* \"contracts/0525/Note.sol\":782:787  _bank */\n      dup3\n        /* \"contracts/0525/Note.sol\":759:788  Bank targetBank = Bank(_bank) */\n      swap1\n      pop\n        /* \"contracts/0525/Note.sol\":829:836  _amount */\n      dup2\n        /* \"contracts/0525/Note.sol\":807:814  balance */\n      0x00\n        /* \"contracts/0525/Note.sol\":807:826  balance[msg.sender] */\n      dup1\n        /* \"contracts/0525/Note.sol\":815:825  msg.sender */\n      caller\n        /* \"contracts/0525/Note.sol\":807:826  balance[msg.sender] */\n      0xffffffffffffffffffffffffffffffffffffffff\n      and\n      0xffffffffffffffffffffffffffffffffffffffff\n      and\n      dup2\n      mstore\n      0x20\n      add\n      swap1\n      dup2\n      mstore\n      0x20\n      add\n      0x00\n      keccak256\n      sload\n        /* \"contracts/0525/Note.sol\":807:836  balance[msg.sender]>= _amount */\n      lt\n      iszero\n        /* \"contracts/0525/Note.sol\":799:837  require(balance[msg.sender]>= _amount) */\n      tag_89\n      jumpi\n      0x00\n      dup1\n      revert\n    tag_89:\n        /* \"contracts/0525/Note.sol\":856:866  targetBank */\n      dup1\n        /* \"contracts/0525/Note.sol\":848:876  payable(targetBank).transfer */\n      0xffffffffffffffffffffffffffffffffffffffff\n      and\n        /* \"contracts/0525/Note.sol\":848:885  payable(targetBank).transfer(_amount) */\n      0x08fc\n        /* \"contracts/0525/Note.sol\":877:884  _amount */\n      dup4\n        /* \"contracts/0525/Note.sol\":848:885  payable(targetBank).transfer(_amount) */\n      swap1\n      dup2\n      iszero\n      mul\n      swap1\n      mload(0x40)\n      0x00\n      mload(0x40)\n      dup1\n      dup4\n      sub\n      dup2\n      dup6\n      dup9\n      dup9\n      call\n      swap4\n      pop\n      pop\n      pop\n      pop\n      iszero\n      dup1\n      iszero\n      tag_91\n      jumpi\n      returndatasize\n      0x00\n      dup1\n      returndatacopy\n      revert(0x00, returndatasize)\n    tag_91:\n      pop\n        /* \"contracts/0525/Note.sol\":919:926  _amount */\n      dup2\n        /* \"contracts/0525/Note.sol\":896:903  balance */\n      0x00\n        /* \"contracts/0525/Note.sol\":896:915  balance[msg.sender] */\n      dup1\n        /* \"contracts/0525/Note.sol\":904:914  msg.sender */\n      caller\n        /* \"contracts/0525/Note.sol\":896:915  balance[msg.sender] */\n      0xffffffffffffffffffffffffffffffffffffffff\n      and\n      0xffffffffffffffffffffffffffffffffffffffff\n      and\n      dup2\n      mstore\n      0x20\n      add\n      swap1\n      dup2\n      mstore\n      0x20\n      add\n      0x00\n      keccak256\n      0x00\n        /* \"contracts/0525/Note.sol\":896:926  balance[msg.sender] -= _amount */\n      dup3\n      dup3\n      sload\n      tag_92\n      swap2\n      swap1\n      tag_59\n      jump\t// in\n    tag_92:\n      swap3\n      pop\n      pop\n      dup2\n      swap1\n      sstore\n      pop\n        /* \"contracts/0525/Note.sol\":975:985  targetBank */\n      dup1\n        /* \"contracts/0525/Note.sol\":975:993  targetBank.Deposit */\n      0xffffffffffffffffffffffffffffffffffffffff\n      and\n      0xe1fffcc4\n        /* \"contracts/0525/Note.sol\":994:1004  msg.sender */\n      caller\n        /* \"contracts/0525/Note.sol\":1006:1013  _amount */\n      dup5\n        /* \"contracts/0525/Note.sol\":975:1014  targetBank.Deposit(msg.sender, _amount) */\n      mload(0x40)\n      dup4\n      0xffffffff\n      and\n      0xe0\n      shl\n      dup2\n      mstore\n      0x04\n      add\n      tag_93\n      swap3\n      swap2\n      swap1\n      tag_72\n      jump\t// in\n    tag_93:\n      0x00\n      mload(0x40)\n      dup1\n      dup4\n      sub\n      dup2\n      0x00\n      dup8\n      dup1\n      extcodesize\n      iszero\n      dup1\n      iszero\n      tag_94\n      jumpi\n      0x00\n      dup1\n      revert\n    tag_94:\n      pop\n      gas\n      call\n      iszero\n      dup1\n      iszero\n      tag_96\n      jumpi\n      returndatasize\n      0x00\n      dup1\n      returndatacopy\n      revert(0x00, returndatasize)\n    tag_96:\n      pop\n      pop\n      pop\n      pop\n        /* \"contracts/0525/Note.sol\":748:1022  {... */\n      pop\n        /* \"contracts/0525/Note.sol\":681:1022  function depositToBank(address payable _bank, uint _amount) public {... */\n      pop\n      pop\n      jump\t// out\n        /* \"#utility.yul\":88:205   */\n    tag_98:\n        /* \"#utility.yul\":197:198   */\n      0x00\n        /* \"#utility.yul\":194:195   */\n      dup1\n        /* \"#utility.yul\":187:199   */\n      revert\n        /* \"#utility.yul\":334:460   */\n    tag_100:\n        /* \"#utility.yul\":371:378   */\n      0x00\n        /* \"#utility.yul\":411:453   */\n      0xffffffffffffffffffffffffffffffffffffffff\n        /* \"#utility.yul\":404:409   */\n      dup3\n        /* \"#utility.yul\":400:454   */\n      and\n        /* \"#utility.yul\":389:454   */\n      swap1\n      pop\n        /* \"#utility.yul\":334:460   */\n      swap2\n      swap1\n      pop\n      jump\t// out\n        /* \"#utility.yul\":466:570   */\n    tag_101:\n        /* \"#utility.yul\":511:518   */\n      0x00\n        /* \"#utility.yul\":540:564   */\n      tag_119\n        /* \"#utility.yul\":558:563   */\n      dup3\n        /* \"#utility.yul\":540:564   */\n      tag_100\n      jump\t// in\n    tag_119:\n        /* \"#utility.yul\":529:564   */\n      swap1\n      pop\n        /* \"#utility.yul\":466:570   */\n      swap2\n      swap1\n      pop\n      jump\t// out\n        /* \"#utility.yul\":576:714   */\n    tag_102:\n        /* \"#utility.yul\":657:689   */\n      tag_121\n        /* \"#utility.yul\":683:688   */\n      dup2\n        /* \"#utility.yul\":657:689   */\n      tag_101\n      jump\t// in\n    tag_121:\n        /* \"#utility.yul\":650:655   */\n      dup2\n        /* \"#utility.yul\":647:690   */\n      eq\n        /* \"#utility.yul\":637:708   */\n      tag_122\n      jumpi\n        /* \"#utility.yul\":704:705   */\n      0x00\n        /* \"#utility.yul\":701:702   */\n      dup1\n        /* \"#utility.yul\":694:706   */\n      revert\n        /* \"#utility.yul\":637:708   */\n    tag_122:\n        /* \"#utility.yul\":576:714   */\n      pop\n      jump\t// out\n        /* \"#utility.yul\":720:875   */\n    tag_103:\n        /* \"#utility.yul\":774:779   */\n      0x00\n        /* \"#utility.yul\":812:818   */\n      dup2\n        /* \"#utility.yul\":799:819   */\n      calldataload\n        /* \"#utility.yul\":790:819   */\n      swap1\n      pop\n        /* \"#utility.yul\":828:869   */\n      tag_124\n        /* \"#utility.yul\":863:868   */\n      dup2\n        /* \"#utility.yul\":828:869   */\n      tag_102\n      jump\t// in\n    tag_124:\n        /* \"#utility.yul\":720:875   */\n      swap3\n      swap2\n      pop\n      pop\n      jump\t// out\n        /* \"#utility.yul\":881:977   */\n    tag_104:\n        /* \"#utility.yul\":918:925   */\n      0x00\n        /* \"#utility.yul\":947:971   */\n      tag_126\n        /* \"#utility.yul\":965:970   */\n      dup3\n        /* \"#utility.yul\":947:971   */\n      tag_100\n      jump\t// in\n    tag_126:\n        /* \"#utility.yul\":936:971   */\n      swap1\n      pop\n        /* \"#utility.yul\":881:977   */\n      swap2\n      swap1\n      pop\n      jump\t// out\n        /* \"#utility.yul\":983:1105   */\n    tag_105:\n        /* \"#utility.yul\":1056:1080   */\n      tag_128\n        /* \"#utility.yul\":1074:1079   */\n      dup2\n        /* \"#utility.yul\":1056:1080   */\n      tag_104\n      jump\t// in\n    tag_128:\n        /* \"#utility.yul\":1049:1054   */\n      dup2\n        /* \"#utility.yul\":1046:1081   */\n      eq\n        /* \"#utility.yul\":1036:1099   */\n      tag_129\n      jumpi\n        /* \"#utility.yul\":1095:1096   */\n      0x00\n        /* \"#utility.yul\":1092:1093   */\n      dup1\n        /* \"#utility.yul\":1085:1097   */\n      revert\n        /* \"#utility.yul\":1036:1099   */\n    tag_129:\n        /* \"#utility.yul\":983:1105   */\n      pop\n      jump\t// out\n        /* \"#utility.yul\":1111:1250   */\n    tag_106:\n        /* \"#utility.yul\":1157:1162   */\n      0x00\n        /* \"#utility.yul\":1195:1201   */\n      dup2\n        /* \"#utility.yul\":1182:1202   */\n      calldataload\n        /* \"#utility.yul\":1173:1202   */\n      swap1\n      pop\n        /* \"#utility.yul\":1211:1244   */\n      tag_131\n        /* \"#utility.yul\":1238:1243   */\n      dup2\n        /* \"#utility.yul\":1211:1244   */\n      tag_105\n      jump\t// in\n    tag_131:\n        /* \"#utility.yul\":1111:1250   */\n      swap3\n      swap2\n      pop\n      pop\n      jump\t// out\n        /* \"#utility.yul\":1256:1333   */\n    tag_107:\n        /* \"#utility.yul\":1293:1300   */\n      0x00\n        /* \"#utility.yul\":1322:1327   */\n      dup2\n        /* \"#utility.yul\":1311:1327   */\n      swap1\n      pop\n        /* \"#utility.yul\":1256:1333   */\n      swap2\n      swap1\n      pop\n      jump\t// out\n        /* \"#utility.yul\":1339:1461   */\n    tag_108:\n        /* \"#utility.yul\":1412:1436   */\n      tag_134\n        /* \"#utility.yul\":1430:1435   */\n      dup2\n        /* \"#utility.yul\":1412:1436   */\n      tag_107\n      jump\t// in\n    tag_134:\n        /* \"#utility.yul\":1405:1410   */\n      dup2\n        /* \"#utility.yul\":1402:1437   */\n      eq\n        /* \"#utility.yul\":1392:1455   */\n      tag_135\n      jumpi\n        /* \"#utility.yul\":1451:1452   */\n      0x00\n        /* \"#utility.yul\":1448:1449   */\n      dup1\n        /* \"#utility.yul\":1441:1453   */\n      revert\n        /* \"#utility.yul\":1392:1455   */\n    tag_135:\n        /* \"#utility.yul\":1339:1461   */\n      pop\n      jump\t// out\n        /* \"#utility.yul\":1467:1606   */\n    tag_109:\n        /* \"#utility.yul\":1513:1518   */\n      0x00\n        /* \"#utility.yul\":1551:1557   */\n      dup2\n        /* \"#utility.yul\":1538:1558   */\n      calldataload\n        /* \"#utility.yul\":1529:1558   */\n      swap1\n      pop\n        /* \"#utility.yul\":1567:1600   */\n      tag_137\n        /* \"#utility.yul\":1594:1599   */\n      dup2\n        /* \"#utility.yul\":1567:1600   */\n      tag_108\n      jump\t// in\n    tag_137:\n        /* \"#utility.yul\":1467:1606   */\n      swap3\n      swap2\n      pop\n      pop\n      jump\t// out\n        /* \"#utility.yul\":1612:2409   */\n    tag_17:\n        /* \"#utility.yul\":1714:1720   */\n      0x00\n        /* \"#utility.yul\":1722:1728   */\n      dup1\n        /* \"#utility.yul\":1730:1736   */\n      0x00\n        /* \"#utility.yul\":1738:1744   */\n      dup1\n        /* \"#utility.yul\":1787:1790   */\n      0x80\n        /* \"#utility.yul\":1775:1784   */\n      dup6\n        /* \"#utility.yul\":1766:1773   */\n      dup8\n        /* \"#utility.yul\":1762:1785   */\n      sub\n        /* \"#utility.yul\":1758:1791   */\n      slt\n        /* \"#utility.yul\":1755:1875   */\n      iszero\n      tag_139\n      jumpi\n        /* \"#utility.yul\":1794:1873   */\n      tag_140\n      tag_98\n      jump\t// in\n    tag_140:\n        /* \"#utility.yul\":1755:1875   */\n    tag_139:\n        /* \"#utility.yul\":1914:1915   */\n      0x00\n        /* \"#utility.yul\":1939:2000   */\n      tag_141\n        /* \"#utility.yul\":1992:1999   */\n      dup8\n        /* \"#utility.yul\":1983:1989   */\n      dup3\n        /* \"#utility.yul\":1972:1981   */\n      dup9\n        /* \"#utility.yul\":1968:1990   */\n      add\n        /* \"#utility.yul\":1939:2000   */\n      tag_103\n      jump\t// in\n    tag_141:\n        /* \"#utility.yul\":1929:2000   */\n      swap5\n      pop\n        /* \"#utility.yul\":1885:2010   */\n      pop\n        /* \"#utility.yul\":2049:2051   */\n      0x20\n        /* \"#utility.yul\":2075:2128   */\n      tag_142\n        /* \"#utility.yul\":2120:2127   */\n      dup8\n        /* \"#utility.yul\":2111:2117   */\n      dup3\n        /* \"#utility.yul\":2100:2109   */\n      dup9\n        /* \"#utility.yul\":2096:2118   */\n      add\n        /* \"#utility.yul\":2075:2128   */\n      tag_106\n      jump\t// in\n    tag_142:\n        /* \"#utility.yul\":2065:2128   */\n      swap4\n      pop\n        /* \"#utility.yul\":2020:2138   */\n      pop\n        /* \"#utility.yul\":2177:2179   */\n      0x40\n        /* \"#utility.yul\":2203:2264   */\n      tag_143\n        /* \"#utility.yul\":2256:2263   */\n      dup8\n        /* \"#utility.yul\":2247:2253   */\n      dup3\n        /* \"#utility.yul\":2236:2245   */\n      dup9\n        /* \"#utility.yul\":2232:2254   */\n      add\n        /* \"#utility.yul\":2203:2264   */\n      tag_103\n      jump\t// in\n    tag_143:\n        /* \"#utility.yul\":2193:2264   */\n      swap3\n      pop\n        /* \"#utility.yul\":2148:2274   */\n      pop\n        /* \"#utility.yul\":2313:2315   */\n      0x60\n        /* \"#utility.yul\":2339:2392   */\n      tag_144\n        /* \"#utility.yul\":2384:2391   */\n      dup8\n        /* \"#utility.yul\":2375:2381   */\n      dup3\n        /* \"#utility.yul\":2364:2373   */\n      dup9\n        /* \"#utility.yul\":2360:2382   */\n      add\n        /* \"#utility.yul\":2339:2392   */\n      tag_109\n      jump\t// in\n    tag_144:\n        /* \"#utility.yul\":2329:2392   */\n      swap2\n      pop\n        /* \"#utility.yul\":2284:2402   */\n      pop\n        /* \"#utility.yul\":1612:2409   */\n      swap3\n      swap6\n      swap2\n      swap5\n      pop\n      swap3\n      pop\n      jump\t// out\n        /* \"#utility.yul\":2415:2744   */\n    tag_22:\n        /* \"#utility.yul\":2474:2480   */\n      0x00\n        /* \"#utility.yul\":2523:2525   */\n      0x20\n        /* \"#utility.yul\":2511:2520   */\n      dup3\n        /* \"#utility.yul\":2502:2509   */\n      dup5\n        /* \"#utility.yul\":2498:2521   */\n      sub\n        /* \"#utility.yul\":2494:2526   */\n      slt\n        /* \"#utility.yul\":2491:2610   */\n      iszero\n      tag_146\n      jumpi\n        /* \"#utility.yul\":2529:2608   */\n      tag_147\n      tag_98\n      jump\t// in\n    tag_147:\n        /* \"#utility.yul\":2491:2610   */\n    tag_146:\n        /* \"#utility.yul\":2649:2650   */\n      0x00\n        /* \"#utility.yul\":2674:2727   */\n      tag_148\n        /* \"#utility.yul\":2719:2726   */\n      dup5\n        /* \"#utility.yul\":2710:2716   */\n      dup3\n        /* \"#utility.yul\":2699:2708   */\n      dup6\n        /* \"#utility.yul\":2695:2717   */\n      add\n        /* \"#utility.yul\":2674:2727   */\n      tag_109\n      jump\t// in\n    tag_148:\n        /* \"#utility.yul\":2664:2727   */\n      swap2\n      pop\n        /* \"#utility.yul\":2620:2737   */\n      pop\n        /* \"#utility.yul\":2415:2744   */\n      swap3\n      swap2\n      pop\n      pop\n      jump\t// out\n        /* \"#utility.yul\":2750:3224   */\n    tag_27:\n        /* \"#utility.yul\":2818:2824   */\n      0x00\n        /* \"#utility.yul\":2826:2832   */\n      dup1\n        /* \"#utility.yul\":2875:2877   */\n      0x40\n        /* \"#utility.yul\":2863:2872   */\n      dup4\n        /* \"#utility.yul\":2854:2861   */\n      dup6\n        /* \"#utility.yul\":2850:2873   */\n      sub\n        /* \"#utility.yul\":2846:2878   */\n      slt\n        /* \"#utility.yul\":2843:2962   */\n      iszero\n      tag_150\n      jumpi\n        /* \"#utility.yul\":2881:2960   */\n      tag_151\n      tag_98\n      jump\t// in\n    tag_151:\n        /* \"#utility.yul\":2843:2962   */\n    tag_150:\n        /* \"#utility.yul\":3001:3002   */\n      0x00\n        /* \"#utility.yul\":3026:3079   */\n      tag_152\n        /* \"#utility.yul\":3071:3078   */\n      dup6\n        /* \"#utility.yul\":3062:3068   */\n      dup3\n        /* \"#utility.yul\":3051:3060   */\n      dup7\n        /* \"#utility.yul\":3047:3069   */\n      add\n        /* \"#utility.yul\":3026:3079   */\n      tag_106\n      jump\t// in\n    tag_152:\n        /* \"#utility.yul\":3016:3079   */\n      swap3\n      pop\n        /* \"#utility.yul\":2972:3089   */\n      pop\n        /* \"#utility.yul\":3128:3130   */\n      0x20\n        /* \"#utility.yul\":3154:3207   */\n      tag_153\n        /* \"#utility.yul\":3199:3206   */\n      dup6\n        /* \"#utility.yul\":3190:3196   */\n      dup3\n        /* \"#utility.yul\":3179:3188   */\n      dup7\n        /* \"#utility.yul\":3175:3197   */\n      add\n        /* \"#utility.yul\":3154:3207   */\n      tag_109\n      jump\t// in\n    tag_153:\n        /* \"#utility.yul\":3144:3207   */\n      swap2\n      pop\n        /* \"#utility.yul\":3099:3217   */\n      pop\n        /* \"#utility.yul\":2750:3224   */\n      swap3\n      pop\n      swap3\n      swap1\n      pop\n      jump\t// out\n        /* \"#utility.yul\":3230:3720   */\n    tag_32:\n        /* \"#utility.yul\":3306:3312   */\n      0x00\n        /* \"#utility.yul\":3314:3320   */\n      dup1\n        /* \"#utility.yul\":3363:3365   */\n      0x40\n        /* \"#utility.yul\":3351:3360   */\n      dup4\n        /* \"#utility.yul\":3342:3349   */\n      dup6\n        /* \"#utility.yul\":3338:3361   */\n      sub\n        /* \"#utility.yul\":3334:3366   */\n      slt\n        /* \"#utility.yul\":3331:3450   */\n      iszero\n      tag_155\n      jumpi\n        /* \"#utility.yul\":3369:3448   */\n      tag_156\n      tag_98\n      jump\t// in\n    tag_156:\n        /* \"#utility.yul\":3331:3450   */\n    tag_155:\n        /* \"#utility.yul\":3489:3490   */\n      0x00\n        /* \"#utility.yul\":3514:3575   */\n      tag_157\n        /* \"#utility.yul\":3567:3574   */\n      dup6\n        /* \"#utility.yul\":3558:3564   */\n      dup3\n        /* \"#utility.yul\":3547:3556   */\n      dup7\n        /* \"#utility.yul\":3543:3565   */\n      add\n        /* \"#utility.yul\":3514:3575   */\n      tag_103\n      jump\t// in\n    tag_157:\n        /* \"#utility.yul\":3504:3575   */\n      swap3\n      pop\n        /* \"#utility.yul\":3460:3585   */\n      pop\n        /* \"#utility.yul\":3624:3626   */\n      0x20\n        /* \"#utility.yul\":3650:3703   */\n      tag_158\n        /* \"#utility.yul\":3695:3702   */\n      dup6\n        /* \"#utility.yul\":3686:3692   */\n      dup3\n        /* \"#utility.yul\":3675:3684   */\n      dup7\n        /* \"#utility.yul\":3671:3693   */\n      add\n        /* \"#utility.yul\":3650:3703   */\n      tag_109\n      jump\t// in\n    tag_158:\n        /* \"#utility.yul\":3640:3703   */\n      swap2\n      pop\n        /* \"#utility.yul\":3595:3713   */\n      pop\n        /* \"#utility.yul\":3230:3720   */\n      swap3\n      pop\n      swap3\n      swap1\n      pop\n      jump\t// out\n        /* \"#utility.yul\":3726:4361   */\n    tag_39:\n        /* \"#utility.yul\":3811:3817   */\n      0x00\n        /* \"#utility.yul\":3819:3825   */\n      dup1\n        /* \"#utility.yul\":3827:3833   */\n      0x00\n        /* \"#utility.yul\":3876:3878   */\n      0x60\n        /* \"#utility.yul\":3864:3873   */\n      dup5\n        /* \"#utility.yul\":3855:3862   */\n      dup7\n        /* \"#utility.yul\":3851:3874   */\n      sub\n        /* \"#utility.yul\":3847:3879   */\n      slt\n        /* \"#utility.yul\":3844:3963   */\n      iszero\n      tag_160\n      jumpi\n        /* \"#utility.yul\":3882:3961   */\n      tag_161\n      tag_98\n      jump\t// in\n    tag_161:\n        /* \"#utility.yul\":3844:3963   */\n    tag_160:\n        /* \"#utility.yul\":4002:4003   */\n      0x00\n        /* \"#utility.yul\":4027:4088   */\n      tag_162\n        /* \"#utility.yul\":4080:4087   */\n      dup7\n        /* \"#utility.yul\":4071:4077   */\n      dup3\n        /* \"#utility.yul\":4060:4069   */\n      dup8\n        /* \"#utility.yul\":4056:4078   */\n      add\n        /* \"#utility.yul\":4027:4088   */\n      tag_103\n      jump\t// in\n    tag_162:\n        /* \"#utility.yul\":4017:4088   */\n      swap4\n      pop\n        /* \"#utility.yul\":3973:4098   */\n      pop\n        /* \"#utility.yul\":4137:4139   */\n      0x20\n        /* \"#utility.yul\":4163:4216   */\n      tag_163\n        /* \"#utility.yul\":4208:4215   */\n      dup7\n        /* \"#utility.yul\":4199:4205   */\n      dup3\n        /* \"#utility.yul\":4188:4197   */\n      dup8\n        /* \"#utility.yul\":4184:4206   */\n      add\n        /* \"#utility.yul\":4163:4216   */\n      tag_106\n      jump\t// in\n    tag_163:\n        /* \"#utility.yul\":4153:4216   */\n      swap3\n      pop\n        /* \"#utility.yul\":4108:4226   */\n      pop\n        /* \"#utility.yul\":4265:4267   */\n      0x40\n        /* \"#utility.yul\":4291:4344   */\n      tag_164\n        /* \"#utility.yul\":4336:4343   */\n      dup7\n        /* \"#utility.yul\":4327:4333   */\n      dup3\n        /* \"#utility.yul\":4316:4325   */\n      dup8\n        /* \"#utility.yul\":4312:4334   */\n      add\n        /* \"#utility.yul\":4291:4344   */\n      tag_109\n      jump\t// in\n    tag_164:\n        /* \"#utility.yul\":4281:4344   */\n      swap2\n      pop\n        /* \"#utility.yul\":4236:4354   */\n      pop\n        /* \"#utility.yul\":3726:4361   */\n      swap3\n      pop\n      swap3\n      pop\n      swap3\n      jump\t// out\n        /* \"#utility.yul\":4367:4696   */\n    tag_44:\n        /* \"#utility.yul\":4426:4432   */\n      0x00\n        /* \"#utility.yul\":4475:4477   */\n      0x20\n        /* \"#utility.yul\":4463:4472   */\n      dup3\n        /* \"#utility.yul\":4454:4461   */\n      dup5\n        /* \"#utility.yul\":4450:4473   */\n      sub\n        /* \"#utility.yul\":4446:4478   */\n      slt\n        /* \"#utility.yul\":4443:4562   */\n      iszero\n      tag_166\n      jumpi\n        /* \"#utility.yul\":4481:4560   */\n      tag_167\n      tag_98\n      jump\t// in\n    tag_167:\n        /* \"#utility.yul\":4443:4562   */\n    tag_166:\n        /* \"#utility.yul\":4601:4602   */\n      0x00\n        /* \"#utility.yul\":4626:4679   */\n      tag_168\n        /* \"#utility.yul\":4671:4678   */\n      dup5\n        /* \"#utility.yul\":4662:4668   */\n      dup3\n        /* \"#utility.yul\":4651:4660   */\n      dup6\n        /* \"#utility.yul\":4647:4669   */\n      add\n        /* \"#utility.yul\":4626:4679   */\n      tag_106\n      jump\t// in\n    tag_168:\n        /* \"#utility.yul\":4616:4679   */\n      swap2\n      pop\n        /* \"#utility.yul\":4572:4689   */\n      pop\n        /* \"#utility.yul\":4367:4696   */\n      swap3\n      swap2\n      pop\n      pop\n      jump\t// out\n        /* \"#utility.yul\":4702:4820   */\n    tag_110:\n        /* \"#utility.yul\":4789:4813   */\n      tag_170\n        /* \"#utility.yul\":4807:4812   */\n      dup2\n        /* \"#utility.yul\":4789:4813   */\n      tag_107\n      jump\t// in\n    tag_170:\n        /* \"#utility.yul\":4784:4787   */\n      dup3\n        /* \"#utility.yul\":4777:4814   */\n      mstore\n        /* \"#utility.yul\":4702:4820   */\n      pop\n      pop\n      jump\t// out\n        /* \"#utility.yul\":4826:5048   */\n    tag_47:\n        /* \"#utility.yul\":4919:4923   */\n      0x00\n        /* \"#utility.yul\":4957:4959   */\n      0x20\n        /* \"#utility.yul\":4946:4955   */\n      dup3\n        /* \"#utility.yul\":4942:4960   */\n      add\n        /* \"#utility.yul\":4934:4960   */\n      swap1\n      pop\n        /* \"#utility.yul\":4970:5041   */\n      tag_172\n        /* \"#utility.yul\":5038:5039   */\n      0x00\n        /* \"#utility.yul\":5027:5036   */\n      dup4\n        /* \"#utility.yul\":5023:5040   */\n      add\n        /* \"#utility.yul\":5014:5020   */\n      dup5\n        /* \"#utility.yul\":4970:5041   */\n      tag_110\n      jump\t// in\n    tag_172:\n        /* \"#utility.yul\":4826:5048   */\n      swap3\n      swap2\n      pop\n      pop\n      jump\t// out\n        /* \"#utility.yul\":5054:5234   */\n    tag_111:\n        /* \"#utility.yul\":5102:5179   */\n      0x4e487b7100000000000000000000000000000000000000000000000000000000\n        /* \"#utility.yul\":5099:5100   */\n      0x00\n        /* \"#utility.yul\":5092:5180   */\n      mstore\n        /* \"#utility.yul\":5199:5203   */\n      0x11\n        /* \"#utility.yul\":5196:5197   */\n      0x04\n        /* \"#utility.yul\":5189:5204   */\n      mstore\n        /* \"#utility.yul\":5223:5227   */\n      0x24\n        /* \"#utility.yul\":5220:5221   */\n      0x00\n        /* \"#utility.yul\":5213:5228   */\n      revert\n        /* \"#utility.yul\":5240:5434   */\n    tag_59:\n        /* \"#utility.yul\":5280:5284   */\n      0x00\n        /* \"#utility.yul\":5300:5320   */\n      tag_175\n        /* \"#utility.yul\":5318:5319   */\n      dup3\n        /* \"#utility.yul\":5300:5320   */\n      tag_107\n      jump\t// in\n    tag_175:\n        /* \"#utility.yul\":5295:5320   */\n      swap2\n      pop\n        /* \"#utility.yul\":5334:5354   */\n      tag_176\n        /* \"#utility.yul\":5352:5353   */\n      dup4\n        /* \"#utility.yul\":5334:5354   */\n      tag_107\n      jump\t// in\n    tag_176:\n        /* \"#utility.yul\":5329:5354   */\n      swap3\n      pop\n        /* \"#utility.yul\":5378:5379   */\n      dup3\n        /* \"#utility.yul\":5375:5376   */\n      dup3\n        /* \"#utility.yul\":5371:5380   */\n      sub\n        /* \"#utility.yul\":5363:5380   */\n      swap1\n      pop\n        /* \"#utility.yul\":5402:5403   */\n      dup2\n        /* \"#utility.yul\":5396:5400   */\n      dup2\n        /* \"#utility.yul\":5393:5404   */\n      gt\n        /* \"#utility.yul\":5390:5427   */\n      iszero\n      tag_177\n      jumpi\n        /* \"#utility.yul\":5407:5425   */\n      tag_178\n      tag_111\n      jump\t// in\n    tag_178:\n        /* \"#utility.yul\":5390:5427   */\n    tag_177:\n        /* \"#utility.yul\":5240:5434   */\n      swap3\n      swap2\n      pop\n      pop\n      jump\t// out\n        /* \"#utility.yul\":5440:5631   */\n    tag_67:\n        /* \"#utility.yul\":5480:5483   */\n      0x00\n        /* \"#utility.yul\":5499:5519   */\n      tag_180\n        /* \"#utility.yul\":5517:5518   */\n      dup3\n        /* \"#utility.yul\":5499:5519   */\n      tag_107\n      jump\t// in\n    tag_180:\n        /* \"#utility.yul\":5494:5519   */\n      swap2\n      pop\n        /* \"#utility.yul\":5533:5553   */\n      tag_181\n        /* \"#utility.yul\":5551:5552   */\n      dup4\n        /* \"#utility.yul\":5533:5553   */\n      tag_107\n      jump\t// in\n    tag_181:\n        /* \"#utility.yul\":5528:5553   */\n      swap3\n      pop\n        /* \"#utility.yul\":5576:5577   */\n      dup3\n        /* \"#utility.yul\":5573:5574   */\n      dup3\n        /* \"#utility.yul\":5569:5578   */\n      add\n        /* \"#utility.yul\":5562:5578   */\n      swap1\n      pop\n        /* \"#utility.yul\":5597:5600   */\n      dup1\n        /* \"#utility.yul\":5594:5595   */\n      dup3\n        /* \"#utility.yul\":5591:5601   */\n      gt\n        /* \"#utility.yul\":5588:5624   */\n      iszero\n      tag_182\n      jumpi\n        /* \"#utility.yul\":5604:5622   */\n      tag_183\n      tag_111\n      jump\t// in\n    tag_183:\n        /* \"#utility.yul\":5588:5624   */\n    tag_182:\n        /* \"#utility.yul\":5440:5631   */\n      swap3\n      swap2\n      pop\n      pop\n      jump\t// out\n        /* \"#utility.yul\":5637:5755   */\n    tag_112:\n        /* \"#utility.yul\":5724:5748   */\n      tag_185\n        /* \"#utility.yul\":5742:5747   */\n      dup2\n        /* \"#utility.yul\":5724:5748   */\n      tag_104\n      jump\t// in\n    tag_185:\n        /* \"#utility.yul\":5719:5722   */\n      dup3\n        /* \"#utility.yul\":5712:5749   */\n      mstore\n        /* \"#utility.yul\":5637:5755   */\n      pop\n      pop\n      jump\t// out\n        /* \"#utility.yul\":5761:6093   */\n    tag_72:\n        /* \"#utility.yul\":5882:5886   */\n      0x00\n        /* \"#utility.yul\":5920:5922   */\n      0x40\n        /* \"#utility.yul\":5909:5918   */\n      dup3\n        /* \"#utility.yul\":5905:5923   */\n      add\n        /* \"#utility.yul\":5897:5923   */\n      swap1\n      pop\n        /* \"#utility.yul\":5933:6004   */\n      tag_187\n        /* \"#utility.yul\":6001:6002   */\n      0x00\n        /* \"#utility.yul\":5990:5999   */\n      dup4\n        /* \"#utility.yul\":5986:6003   */\n      add\n        /* \"#utility.yul\":5977:5983   */\n      dup6\n        /* \"#utility.yul\":5933:6004   */\n      tag_112\n      jump\t// in\n    tag_187:\n        /* \"#utility.yul\":6014:6086   */\n      tag_188\n        /* \"#utility.yul\":6082:6084   */\n      0x20\n        /* \"#utility.yul\":6071:6080   */\n      dup4\n        /* \"#utility.yul\":6067:6085   */\n      add\n        /* \"#utility.yul\":6058:6064   */\n      dup5\n        /* \"#utility.yul\":6014:6086   */\n      tag_110\n      jump\t// in\n    tag_188:\n        /* \"#utility.yul\":5761:6093   */\n      swap4\n      swap3\n      pop\n      pop\n      pop\n      jump\t// out\n\n    auxdata: 0xa264697066735822122025150e53a0205480337c8d042cf2c9722ed6f9886a10bcc1d76e44ab5f6fbad264736f6c63430008120033\n}\n",
				"bytecode": {
					"linkReferences": {},
					"object": "608060405234801561001057600080fd5b50610baf806100206000396000f3fe60806040526004361061007f5760003560e01c80638bf6146a1161004e5780638bf6146a1461012f578063bb85f01614610139578063e3d670d714610162578063e473adc21461019f57610086565b8063274956e91461008b57806327b52dde146100b45780632ccb1b30146100dd5780635d74f8441461010657610086565b3661008657005b600080fd5b34801561009757600080fd5b506100b260048036038101906100ad91906108ec565b6101c8565b005b3480156100c057600080fd5b506100db60048036038101906100d69190610953565b6101e3565b005b3480156100e957600080fd5b5061010460048036038101906100ff9190610980565b6102d1565b005b34801561011257600080fd5b5061012d600480360381019061012891906109c0565b6103ce565b005b6101376104e9565b005b34801561014557600080fd5b50610160600480360381019061015b9190610a00565b610540565b005b34801561016e57600080fd5b5061018960048036038101906101849190610a53565b61069f565b6040516101969190610a8f565b60405180910390f35b3480156101ab57600080fd5b506101c660048036038101906101c191906109c0565b6106b7565b005b6101d284826103ce565b6101dd828483610540565b50505050565b3381806000808473ffffffffffffffffffffffffffffffffffffffff1673ffffffffffffffffffffffffffffffffffffffff16815260200190815260200160002054101561023057600080fd5b826000803373ffffffffffffffffffffffffffffffffffffffff1673ffffffffffffffffffffffffffffffffffffffff168152602001908152602001600020600082825461027e9190610ad9565b925050819055503373ffffffffffffffffffffffffffffffffffffffff166108fc849081150290604051600060405180830381858888f193505050501580156102cb573d6000803e3d6000fd5b50505050565b3381806000808473ffffffffffffffffffffffffffffffffffffffff1673ffffffffffffffffffffffffffffffffffffffff16815260200190815260200160002054101561031e57600080fd5b826000803373ffffffffffffffffffffffffffffffffffffffff1673ffffffffffffffffffffffffffffffffffffffff168152602001908152602001600020600082825461036c9190610ad9565b92505081905550826000808673ffffffffffffffffffffffffffffffffffffffff1673ffffffffffffffffffffffffffffffffffffffff16815260200190815260200160002060008282546103c19190610b0d565b9250508190555050505050565b3381806000808473ffffffffffffffffffffffffffffffffffffffff1673ffffffffffffffffffffffffffffffffffffffff16815260200190815260200160002054101561041b57600080fd5b60008490508073ffffffffffffffffffffffffffffffffffffffff1663884edad933866040518363ffffffff1660e01b815260040161045b929190610b50565b600060405180830381600087803b15801561047557600080fd5b505af1158015610489573d6000803e3d6000fd5b50505050836000803373ffffffffffffffffffffffffffffffffffffffff1673ffffffffffffffffffffffffffffffffffffffff16815260200190815260200160002060008282546104db9190610b0d565b925050819055505050505050565b346000803373ffffffffffffffffffffffffffffffffffffffff1673ffffffffffffffffffffffffffffffffffffffff16815260200190815260200160002060008282546105379190610b0d565b92505081905550565b6000839050816000803373ffffffffffffffffffffffffffffffffffffffff1673ffffffffffffffffffffffffffffffffffffffff16815260200190815260200160002054101561059057600080fd5b8073ffffffffffffffffffffffffffffffffffffffff166108fc839081150290604051600060405180830381858888f193505050501580156105d6573d6000803e3d6000fd5b50816000803373ffffffffffffffffffffffffffffffffffffffff1673ffffffffffffffffffffffffffffffffffffffff16815260200190815260200160002060008282546106259190610ad9565b925050819055508073ffffffffffffffffffffffffffffffffffffffff1663e1fffcc484846040518363ffffffff1660e01b8152600401610667929190610b50565b600060405180830381600087803b15801561068157600080fd5b505af1158015610695573d6000803e3d6000fd5b5050505050505050565b60006020528060005260406000206000915090505481565b6000829050816000803373ffffffffffffffffffffffffffffffffffffffff1673ffffffffffffffffffffffffffffffffffffffff16815260200190815260200160002054101561070757600080fd5b8073ffffffffffffffffffffffffffffffffffffffff166108fc839081150290604051600060405180830381858888f1935050505015801561074d573d6000803e3d6000fd5b50816000803373ffffffffffffffffffffffffffffffffffffffff1673ffffffffffffffffffffffffffffffffffffffff168152602001908152602001600020600082825461079c9190610ad9565b925050819055508073ffffffffffffffffffffffffffffffffffffffff1663e1fffcc433846040518363ffffffff1660e01b81526004016107de929190610b50565b600060405180830381600087803b1580156107f857600080fd5b505af115801561080c573d6000803e3d6000fd5b50505050505050565b600080fd5b600073ffffffffffffffffffffffffffffffffffffffff82169050919050565b60006108458261081a565b9050919050565b6108558161083a565b811461086057600080fd5b50565b6000813590506108728161084c565b92915050565b60006108838261081a565b9050919050565b61089381610878565b811461089e57600080fd5b50565b6000813590506108b08161088a565b92915050565b6000819050919050565b6108c9816108b6565b81146108d457600080fd5b50565b6000813590506108e6816108c0565b92915050565b6000806000806080858703121561090657610905610815565b5b600061091487828801610863565b9450506020610925878288016108a1565b935050604061093687828801610863565b9250506060610947878288016108d7565b91505092959194509250565b60006020828403121561096957610968610815565b5b6000610977848285016108d7565b91505092915050565b6000806040838503121561099757610996610815565b5b60006109a5858286016108a1565b92505060206109b6858286016108d7565b9150509250929050565b600080604083850312156109d7576109d6610815565b5b60006109e585828601610863565b92505060206109f6858286016108d7565b9150509250929050565b600080600060608486031215610a1957610a18610815565b5b6000610a2786828701610863565b9350506020610a38868287016108a1565b9250506040610a49868287016108d7565b9150509250925092565b600060208284031215610a6957610a68610815565b5b6000610a77848285016108a1565b91505092915050565b610a89816108b6565b82525050565b6000602082019050610aa46000830184610a80565b92915050565b7f4e487b7100000000000000000000000000000000000000000000000000000000600052601160045260246000fd5b6000610ae4826108b6565b9150610aef836108b6565b9250828203905081811115610b0757610b06610aaa565b5b92915050565b6000610b18826108b6565b9150610b23836108b6565b9250828201905080821115610b3b57610b3a610aaa565b5b92915050565b610b4a81610878565b82525050565b6000604082019050610b656000830185610b41565b610b726020830184610a80565b939250505056fea264697066735822122025150e53a0205480337c8d042cf2c9722ed6f9886a10bcc1d76e44ab5f6fbad264736f6c63430008120033",
					"opcodes": "PUSH1 0x80 PUSH1 0x40 MSTORE CALLVALUE DUP1 ISZERO PUSH2 0x10 JUMPI PUSH1 0x0 DUP1 REVERT JUMPDEST POP PUSH2 0xBAF DUP1 PUSH2 0x20 PUSH1 0x0 CODECOPY PUSH1 0x0 RETURN INVALID PUSH1 0x80 PUSH1 0x40 MSTORE PUSH1 0x4 CALLDATASIZE LT PUSH2 0x7F JUMPI PUSH1 0x0 CALLDATALOAD PUSH1 0xE0 SHR DUP1 PUSH4 0x8BF6146A GT PUSH2 0x4E JUMPI DUP1 PUSH4 0x8BF6146A EQ PUSH2 0x12F JUMPI DUP1 PUSH4 0xBB85F016 EQ PUSH2 0x139 JUMPI DUP1 PUSH4 0xE3D670D7 EQ PUSH2 0x162 JUMPI DUP1 PUSH4 0xE473ADC2 EQ PUSH2 0x19F JUMPI PUSH2 0x86 JUMP JUMPDEST DUP1 PUSH4 0x274956E9 EQ PUSH2 0x8B JUMPI DUP1 PUSH4 0x27B52DDE EQ PUSH2 0xB4 JUMPI DUP1 PUSH4 0x2CCB1B30 EQ PUSH2 0xDD JUMPI DUP1 PUSH4 0x5D74F844 EQ PUSH2 0x106 JUMPI PUSH2 0x86 JUMP JUMPDEST CALLDATASIZE PUSH2 0x86 JUMPI STOP JUMPDEST PUSH1 0x0 DUP1 REVERT JUMPDEST CALLVALUE DUP1 ISZERO PUSH2 0x97 JUMPI PUSH1 0x0 DUP1 REVERT JUMPDEST POP PUSH2 0xB2 PUSH1 0x4 DUP1 CALLDATASIZE SUB DUP2 ADD SWAP1 PUSH2 0xAD SWAP2 SWAP1 PUSH2 0x8EC JUMP JUMPDEST PUSH2 0x1C8 JUMP JUMPDEST STOP JUMPDEST CALLVALUE DUP1 ISZERO PUSH2 0xC0 JUMPI PUSH1 0x0 DUP1 REVERT JUMPDEST POP PUSH2 0xDB PUSH1 0x4 DUP1 CALLDATASIZE SUB DUP2 ADD SWAP1 PUSH2 0xD6 SWAP2 SWAP1 PUSH2 0x953 JUMP JUMPDEST PUSH2 0x1E3 JUMP JUMPDEST STOP JUMPDEST CALLVALUE DUP1 ISZERO PUSH2 0xE9 JUMPI PUSH1 0x0 DUP1 REVERT JUMPDEST POP PUSH2 0x104 PUSH1 0x4 DUP1 CALLDATASIZE SUB DUP2 ADD SWAP1 PUSH2 0xFF SWAP2 SWAP1 PUSH2 0x980 JUMP JUMPDEST PUSH2 0x2D1 JUMP JUMPDEST STOP JUMPDEST CALLVALUE DUP1 ISZERO PUSH2 0x112 JUMPI PUSH1 0x0 DUP1 REVERT JUMPDEST POP PUSH2 0x12D PUSH1 0x4 DUP1 CALLDATASIZE SUB DUP2 ADD SWAP1 PUSH2 0x128 SWAP2 SWAP1 PUSH2 0x9C0 JUMP JUMPDEST PUSH2 0x3CE JUMP JUMPDEST STOP JUMPDEST PUSH2 0x137 PUSH2 0x4E9 JUMP JUMPDEST STOP JUMPDEST CALLVALUE DUP1 ISZERO PUSH2 0x145 JUMPI PUSH1 0x0 DUP1 REVERT JUMPDEST POP PUSH2 0x160 PUSH1 0x4 DUP1 CALLDATASIZE SUB DUP2 ADD SWAP1 PUSH2 0x15B SWAP2 SWAP1 PUSH2 0xA00 JUMP JUMPDEST PUSH2 0x540 JUMP JUMPDEST STOP JUMPDEST CALLVALUE DUP1 ISZERO PUSH2 0x16E JUMPI PUSH1 0x0 DUP1 REVERT JUMPDEST POP PUSH2 0x189 PUSH1 0x4 DUP1 CALLDATASIZE SUB DUP2 ADD SWAP1 PUSH2 0x184 SWAP2 SWAP1 PUSH2 0xA53 JUMP JUMPDEST PUSH2 0x69F JUMP JUMPDEST PUSH1 0x40 MLOAD PUSH2 0x196 SWAP2 SWAP1 PUSH2 0xA8F JUMP JUMPDEST PUSH1 0x40 MLOAD DUP1 SWAP2 SUB SWAP1 RETURN JUMPDEST CALLVALUE DUP1 ISZERO PUSH2 0x1AB JUMPI PUSH1 0x0 DUP1 REVERT JUMPDEST POP PUSH2 0x1C6 PUSH1 0x4 DUP1 CALLDATASIZE SUB DUP2 ADD SWAP1 PUSH2 0x1C1 SWAP2 SWAP1 PUSH2 0x9C0 JUMP JUMPDEST PUSH2 0x6B7 JUMP JUMPDEST STOP JUMPDEST PUSH2 0x1D2 DUP5 DUP3 PUSH2 0x3CE JUMP JUMPDEST PUSH2 0x1DD DUP3 DUP5 DUP4 PUSH2 0x540 JUMP JUMPDEST POP POP POP POP JUMP JUMPDEST CALLER DUP2 DUP1 PUSH1 0x0 DUP1 DUP5 PUSH20 0xFFFFFFFFFFFFFFFFFFFFFFFFFFFFFFFFFFFFFFFF AND PUSH20 0xFFFFFFFFFFFFFFFFFFFFFFFFFFFFFFFFFFFFFFFF AND DUP2 MSTORE PUSH1 0x20 ADD SWAP1 DUP2 MSTORE PUSH1 0x20 ADD PUSH1 0x0 KECCAK256 SLOAD LT ISZERO PUSH2 0x230 JUMPI PUSH1 0x0 DUP1 REVERT JUMPDEST DUP3 PUSH1 0x0 DUP1 CALLER PUSH20 0xFFFFFFFFFFFFFFFFFFFFFFFFFFFFFFFFFFFFFFFF AND PUSH20 0xFFFFFFFFFFFFFFFFFFFFFFFFFFFFFFFFFFFFFFFF AND DUP2 MSTORE PUSH1 0x20 ADD SWAP1 DUP2 MSTORE PUSH1 0x20 ADD PUSH1 0x0 KECCAK256 PUSH1 0x0 DUP3 DUP3 SLOAD PUSH2 0x27E SWAP2 SWAP1 PUSH2 0xAD9 JUMP JUMPDEST SWAP3 POP POP DUP2 SWAP1 SSTORE POP CALLER PUSH20 0xFFFFFFFFFFFFFFFFFFFFFFFFFFFFFFFFFFFFFFFF AND PUSH2 0x8FC DUP5 SWAP1 DUP2 ISZERO MUL SWAP1 PUSH1 0x40 MLOAD PUSH1 0x0 PUSH1 0x40 MLOAD DUP1 DUP4 SUB DUP2 DUP6 DUP9 DUP9 CALL SWAP4 POP POP POP POP ISZERO DUP1 ISZERO PUSH2 0x2CB JUMPI RETURNDATASIZE PUSH1 0x0 DUP1 RETURNDATACOPY RETURNDATASIZE PUSH1 0x0 REVERT JUMPDEST POP POP POP POP JUMP JUMPDEST CALLER DUP2 DUP1 PUSH1 0x0 DUP1 DUP5 PUSH20 0xFFFFFFFFFFFFFFFFFFFFFFFFFFFFFFFFFFFFFFFF AND PUSH20 0xFFFFFFFFFFFFFFFFFFFFFFFFFFFFFFFFFFFFFFFF AND DUP2 MSTORE PUSH1 0x20 ADD SWAP1 DUP2 MSTORE PUSH1 0x20 ADD PUSH1 0x0 KECCAK256 SLOAD LT ISZERO PUSH2 0x31E JUMPI PUSH1 0x0 DUP1 REVERT JUMPDEST DUP3 PUSH1 0x0 DUP1 CALLER PUSH20 0xFFFFFFFFFFFFFFFFFFFFFFFFFFFFFFFFFFFFFFFF AND PUSH20 0xFFFFFFFFFFFFFFFFFFFFFFFFFFFFFFFFFFFFFFFF AND DUP2 MSTORE PUSH1 0x20 ADD SWAP1 DUP2 MSTORE PUSH1 0x20 ADD PUSH1 0x0 KECCAK256 PUSH1 0x0 DUP3 DUP3 SLOAD PUSH2 0x36C SWAP2 SWAP1 PUSH2 0xAD9 JUMP JUMPDEST SWAP3 POP POP DUP2 SWAP1 SSTORE POP DUP3 PUSH1 0x0 DUP1 DUP7 PUSH20 0xFFFFFFFFFFFFFFFFFFFFFFFFFFFFFFFFFFFFFFFF AND PUSH20 0xFFFFFFFFFFFFFFFFFFFFFFFFFFFFFFFFFFFFFFFF AND DUP2 MSTORE PUSH1 0x20 ADD SWAP1 DUP2 MSTORE PUSH1 0x20 ADD PUSH1 0x0 KECCAK256 PUSH1 0x0 DUP3 DUP3 SLOAD PUSH2 0x3C1 SWAP2 SWAP1 PUSH2 0xB0D JUMP JUMPDEST SWAP3 POP POP DUP2 SWAP1 SSTORE POP POP POP POP POP JUMP JUMPDEST CALLER DUP2 DUP1 PUSH1 0x0 DUP1 DUP5 PUSH20 0xFFFFFFFFFFFFFFFFFFFFFFFFFFFFFFFFFFFFFFFF AND PUSH20 0xFFFFFFFFFFFFFFFFFFFFFFFFFFFFFFFFFFFFFFFF AND DUP2 MSTORE PUSH1 0x20 ADD SWAP1 DUP2 MSTORE PUSH1 0x20 ADD PUSH1 0x0 KECCAK256 SLOAD LT ISZERO PUSH2 0x41B JUMPI PUSH1 0x0 DUP1 REVERT JUMPDEST PUSH1 0x0 DUP5 SWAP1 POP DUP1 PUSH20 0xFFFFFFFFFFFFFFFFFFFFFFFFFFFFFFFFFFFFFFFF AND PUSH4 0x884EDAD9 CALLER DUP7 PUSH1 0x40 MLOAD DUP4 PUSH4 0xFFFFFFFF AND PUSH1 0xE0 SHL DUP2 MSTORE PUSH1 0x4 ADD PUSH2 0x45B SWAP3 SWAP2 SWAP1 PUSH2 0xB50 JUMP JUMPDEST PUSH1 0x0 PUSH1 0x40 MLOAD DUP1 DUP4 SUB DUP2 PUSH1 0x0 DUP8 DUP1 EXTCODESIZE ISZERO DUP1 ISZERO PUSH2 0x475 JUMPI PUSH1 0x0 DUP1 REVERT JUMPDEST POP GAS CALL ISZERO DUP1 ISZERO PUSH2 0x489 JUMPI RETURNDATASIZE PUSH1 0x0 DUP1 RETURNDATACOPY RETURNDATASIZE PUSH1 0x0 REVERT JUMPDEST POP POP POP POP DUP4 PUSH1 0x0 DUP1 CALLER PUSH20 0xFFFFFFFFFFFFFFFFFFFFFFFFFFFFFFFFFFFFFFFF AND PUSH20 0xFFFFFFFFFFFFFFFFFFFFFFFFFFFFFFFFFFFFFFFF AND DUP2 MSTORE PUSH1 0x20 ADD SWAP1 DUP2 MSTORE PUSH1 0x20 ADD PUSH1 0x0 KECCAK256 PUSH1 0x0 DUP3 DUP3 SLOAD PUSH2 0x4DB SWAP2 SWAP1 PUSH2 0xB0D JUMP JUMPDEST SWAP3 POP POP DUP2 SWAP1 SSTORE POP POP POP POP POP POP JUMP JUMPDEST CALLVALUE PUSH1 0x0 DUP1 CALLER PUSH20 0xFFFFFFFFFFFFFFFFFFFFFFFFFFFFFFFFFFFFFFFF AND PUSH20 0xFFFFFFFFFFFFFFFFFFFFFFFFFFFFFFFFFFFFFFFF AND DUP2 MSTORE PUSH1 0x20 ADD SWAP1 DUP2 MSTORE PUSH1 0x20 ADD PUSH1 0x0 KECCAK256 PUSH1 0x0 DUP3 DUP3 SLOAD PUSH2 0x537 SWAP2 SWAP1 PUSH2 0xB0D JUMP JUMPDEST SWAP3 POP POP DUP2 SWAP1 SSTORE POP JUMP JUMPDEST PUSH1 0x0 DUP4 SWAP1 POP DUP2 PUSH1 0x0 DUP1 CALLER PUSH20 0xFFFFFFFFFFFFFFFFFFFFFFFFFFFFFFFFFFFFFFFF AND PUSH20 0xFFFFFFFFFFFFFFFFFFFFFFFFFFFFFFFFFFFFFFFF AND DUP2 MSTORE PUSH1 0x20 ADD SWAP1 DUP2 MSTORE PUSH1 0x20 ADD PUSH1 0x0 KECCAK256 SLOAD LT ISZERO PUSH2 0x590 JUMPI PUSH1 0x0 DUP1 REVERT JUMPDEST DUP1 PUSH20 0xFFFFFFFFFFFFFFFFFFFFFFFFFFFFFFFFFFFFFFFF AND PUSH2 0x8FC DUP4 SWAP1 DUP2 ISZERO MUL SWAP1 PUSH1 0x40 MLOAD PUSH1 0x0 PUSH1 0x40 MLOAD DUP1 DUP4 SUB DUP2 DUP6 DUP9 DUP9 CALL SWAP4 POP POP POP POP ISZERO DUP1 ISZERO PUSH2 0x5D6 JUMPI RETURNDATASIZE PUSH1 0x0 DUP1 RETURNDATACOPY RETURNDATASIZE PUSH1 0x0 REVERT JUMPDEST POP DUP2 PUSH1 0x0 DUP1 CALLER PUSH20 0xFFFFFFFFFFFFFFFFFFFFFFFFFFFFFFFFFFFFFFFF AND PUSH20 0xFFFFFFFFFFFFFFFFFFFFFFFFFFFFFFFFFFFFFFFF AND DUP2 MSTORE PUSH1 0x20 ADD SWAP1 DUP2 MSTORE PUSH1 0x20 ADD PUSH1 0x0 KECCAK256 PUSH1 0x0 DUP3 DUP3 SLOAD PUSH2 0x625 SWAP2 SWAP1 PUSH2 0xAD9 JUMP JUMPDEST SWAP3 POP POP DUP2 SWAP1 SSTORE POP DUP1 PUSH20 0xFFFFFFFFFFFFFFFFFFFFFFFFFFFFFFFFFFFFFFFF AND PUSH4 0xE1FFFCC4 DUP5 DUP5 PUSH1 0x40 MLOAD DUP4 PUSH4 0xFFFFFFFF AND PUSH1 0xE0 SHL DUP2 MSTORE PUSH1 0x4 ADD PUSH2 0x667 SWAP3 SWAP2 SWAP1 PUSH2 0xB50 JUMP JUMPDEST PUSH1 0x0 PUSH1 0x40 MLOAD DUP1 DUP4 SUB DUP2 PUSH1 0x0 DUP8 DUP1 EXTCODESIZE ISZERO DUP1 ISZERO PUSH2 0x681 JUMPI PUSH1 0x0 DUP1 REVERT JUMPDEST POP GAS CALL ISZERO DUP1 ISZERO PUSH2 0x695 JUMPI RETURNDATASIZE PUSH1 0x0 DUP1 RETURNDATACOPY RETURNDATASIZE PUSH1 0x0 REVERT JUMPDEST POP POP POP POP POP POP POP POP JUMP JUMPDEST PUSH1 0x0 PUSH1 0x20 MSTORE DUP1 PUSH1 0x0 MSTORE PUSH1 0x40 PUSH1 0x0 KECCAK256 PUSH1 0x0 SWAP2 POP SWAP1 POP SLOAD DUP2 JUMP JUMPDEST PUSH1 0x0 DUP3 SWAP1 POP DUP2 PUSH1 0x0 DUP1 CALLER PUSH20 0xFFFFFFFFFFFFFFFFFFFFFFFFFFFFFFFFFFFFFFFF AND PUSH20 0xFFFFFFFFFFFFFFFFFFFFFFFFFFFFFFFFFFFFFFFF AND DUP2 MSTORE PUSH1 0x20 ADD SWAP1 DUP2 MSTORE PUSH1 0x20 ADD PUSH1 0x0 KECCAK256 SLOAD LT ISZERO PUSH2 0x707 JUMPI PUSH1 0x0 DUP1 REVERT JUMPDEST DUP1 PUSH20 0xFFFFFFFFFFFFFFFFFFFFFFFFFFFFFFFFFFFFFFFF AND PUSH2 0x8FC DUP4 SWAP1 DUP2 ISZERO MUL SWAP1 PUSH1 0x40 MLOAD PUSH1 0x0 PUSH1 0x40 MLOAD DUP1 DUP4 SUB DUP2 DUP6 DUP9 DUP9 CALL SWAP4 POP POP POP POP ISZERO DUP1 ISZERO PUSH2 0x74D JUMPI RETURNDATASIZE PUSH1 0x0 DUP1 RETURNDATACOPY RETURNDATASIZE PUSH1 0x0 REVERT JUMPDEST POP DUP2 PUSH1 0x0 DUP1 CALLER PUSH20 0xFFFFFFFFFFFFFFFFFFFFFFFFFFFFFFFFFFFFFFFF AND PUSH20 0xFFFFFFFFFFFFFFFFFFFFFFFFFFFFFFFFFFFFFFFF AND DUP2 MSTORE PUSH1 0x20 ADD SWAP1 DUP2 MSTORE PUSH1 0x20 ADD PUSH1 0x0 KECCAK256 PUSH1 0x0 DUP3 DUP3 SLOAD PUSH2 0x79C SWAP2 SWAP1 PUSH2 0xAD9 JUMP JUMPDEST SWAP3 POP POP DUP2 SWAP1 SSTORE POP DUP1 PUSH20 0xFFFFFFFFFFFFFFFFFFFFFFFFFFFFFFFFFFFFFFFF AND PUSH4 0xE1FFFCC4 CALLER DUP5 PUSH1 0x40 MLOAD DUP4 PUSH4 0xFFFFFFFF AND PUSH1 0xE0 SHL DUP2 MSTORE PUSH1 0x4 ADD PUSH2 0x7DE SWAP3 SWAP2 SWAP1 PUSH2 0xB50 JUMP JUMPDEST PUSH1 0x0 PUSH1 0x40 MLOAD DUP1 DUP4 SUB DUP2 PUSH1 0x0 DUP8 DUP1 EXTCODESIZE ISZERO DUP1 ISZERO PUSH2 0x7F8 JUMPI PUSH1 0x0 DUP1 REVERT JUMPDEST POP GAS CALL ISZERO DUP1 ISZERO PUSH2 0x80C JUMPI RETURNDATASIZE PUSH1 0x0 DUP1 RETURNDATACOPY RETURNDATASIZE PUSH1 0x0 REVERT JUMPDEST POP POP POP POP POP POP POP JUMP JUMPDEST PUSH1 0x0 DUP1 REVERT JUMPDEST PUSH1 0x0 PUSH20 0xFFFFFFFFFFFFFFFFFFFFFFFFFFFFFFFFFFFFFFFF DUP3 AND SWAP1 POP SWAP2 SWAP1 POP JUMP JUMPDEST PUSH1 0x0 PUSH2 0x845 DUP3 PUSH2 0x81A JUMP JUMPDEST SWAP1 POP SWAP2 SWAP1 POP JUMP JUMPDEST PUSH2 0x855 DUP2 PUSH2 0x83A JUMP JUMPDEST DUP2 EQ PUSH2 0x860 JUMPI PUSH1 0x0 DUP1 REVERT JUMPDEST POP JUMP JUMPDEST PUSH1 0x0 DUP2 CALLDATALOAD SWAP1 POP PUSH2 0x872 DUP2 PUSH2 0x84C JUMP JUMPDEST SWAP3 SWAP2 POP POP JUMP JUMPDEST PUSH1 0x0 PUSH2 0x883 DUP3 PUSH2 0x81A JUMP JUMPDEST SWAP1 POP SWAP2 SWAP1 POP JUMP JUMPDEST PUSH2 0x893 DUP2 PUSH2 0x878 JUMP JUMPDEST DUP2 EQ PUSH2 0x89E JUMPI PUSH1 0x0 DUP1 REVERT JUMPDEST POP JUMP JUMPDEST PUSH1 0x0 DUP2 CALLDATALOAD SWAP1 POP PUSH2 0x8B0 DUP2 PUSH2 0x88A JUMP JUMPDEST SWAP3 SWAP2 POP POP JUMP JUMPDEST PUSH1 0x0 DUP2 SWAP1 POP SWAP2 SWAP1 POP JUMP JUMPDEST PUSH2 0x8C9 DUP2 PUSH2 0x8B6 JUMP JUMPDEST DUP2 EQ PUSH2 0x8D4 JUMPI PUSH1 0x0 DUP1 REVERT JUMPDEST POP JUMP JUMPDEST PUSH1 0x0 DUP2 CALLDATALOAD SWAP1 POP PUSH2 0x8E6 DUP2 PUSH2 0x8C0 JUMP JUMPDEST SWAP3 SWAP2 POP POP JUMP JUMPDEST PUSH1 0x0 DUP1 PUSH1 0x0 DUP1 PUSH1 0x80 DUP6 DUP8 SUB SLT ISZERO PUSH2 0x906 JUMPI PUSH2 0x905 PUSH2 0x815 JUMP JUMPDEST JUMPDEST PUSH1 0x0 PUSH2 0x914 DUP8 DUP3 DUP9 ADD PUSH2 0x863 JUMP JUMPDEST SWAP5 POP POP PUSH1 0x20 PUSH2 0x925 DUP8 DUP3 DUP9 ADD PUSH2 0x8A1 JUMP JUMPDEST SWAP4 POP POP PUSH1 0x40 PUSH2 0x936 DUP8 DUP3 DUP9 ADD PUSH2 0x863 JUMP JUMPDEST SWAP3 POP POP PUSH1 0x60 PUSH2 0x947 DUP8 DUP3 DUP9 ADD PUSH2 0x8D7 JUMP JUMPDEST SWAP2 POP POP SWAP3 SWAP6 SWAP2 SWAP5 POP SWAP3 POP JUMP JUMPDEST PUSH1 0x0 PUSH1 0x20 DUP3 DUP5 SUB SLT ISZERO PUSH2 0x969 JUMPI PUSH2 0x968 PUSH2 0x815 JUMP JUMPDEST JUMPDEST PUSH1 0x0 PUSH2 0x977 DUP5 DUP3 DUP6 ADD PUSH2 0x8D7 JUMP JUMPDEST SWAP2 POP POP SWAP3 SWAP2 POP POP JUMP JUMPDEST PUSH1 0x0 DUP1 PUSH1 0x40 DUP4 DUP6 SUB SLT ISZERO PUSH2 0x997 JUMPI PUSH2 0x996 PUSH2 0x815 JUMP JUMPDEST JUMPDEST PUSH1 0x0 PUSH2 0x9A5 DUP6 DUP3 DUP7 ADD PUSH2 0x8A1 JUMP JUMPDEST SWAP3 POP POP PUSH1 0x20 PUSH2 0x9B6 DUP6 DUP3 DUP7 ADD PUSH2 0x8D7 JUMP JUMPDEST SWAP2 POP POP SWAP3 POP SWAP3 SWAP1 POP JUMP JUMPDEST PUSH1 0x0 DUP1 PUSH1 0x40 DUP4 DUP6 SUB SLT ISZERO PUSH2 0x9D7 JUMPI PUSH2 0x9D6 PUSH2 0x815 JUMP JUMPDEST JUMPDEST PUSH1 0x0 PUSH2 0x9E5 DUP6 DUP3 DUP7 ADD PUSH2 0x863 JUMP JUMPDEST SWAP3 POP POP PUSH1 0x20 PUSH2 0x9F6 DUP6 DUP3 DUP7 ADD PUSH2 0x8D7 JUMP JUMPDEST SWAP2 POP POP SWAP3 POP SWAP3 SWAP1 POP JUMP JUMPDEST PUSH1 0x0 DUP1 PUSH1 0x0 PUSH1 0x60 DUP5 DUP7 SUB SLT ISZERO PUSH2 0xA19 JUMPI PUSH2 0xA18 PUSH2 0x815 JUMP JUMPDEST JUMPDEST PUSH1 0x0 PUSH2 0xA27 DUP7 DUP3 DUP8 ADD PUSH2 0x863 JUMP JUMPDEST SWAP4 POP POP PUSH1 0x20 PUSH2 0xA38 DUP7 DUP3 DUP8 ADD PUSH2 0x8A1 JUMP JUMPDEST SWAP3 POP POP PUSH1 0x40 PUSH2 0xA49 DUP7 DUP3 DUP8 ADD PUSH2 0x8D7 JUMP JUMPDEST SWAP2 POP POP SWAP3 POP SWAP3 POP SWAP3 JUMP JUMPDEST PUSH1 0x0 PUSH1 0x20 DUP3 DUP5 SUB SLT ISZERO PUSH2 0xA69 JUMPI PUSH2 0xA68 PUSH2 0x815 JUMP JUMPDEST JUMPDEST PUSH1 0x0 PUSH2 0xA77 DUP5 DUP3 DUP6 ADD PUSH2 0x8A1 JUMP JUMPDEST SWAP2 POP POP SWAP3 SWAP2 POP POP JUMP JUMPDEST PUSH2 0xA89 DUP2 PUSH2 0x8B6 JUMP JUMPDEST DUP3 MSTORE POP POP JUMP JUMPDEST PUSH1 0x0 PUSH1 0x20 DUP3 ADD SWAP1 POP PUSH2 0xAA4 PUSH1 0x0 DUP4 ADD DUP5 PUSH2 0xA80 JUMP JUMPDEST SWAP3 SWAP2 POP POP JUMP JUMPDEST PUSH32 0x4E487B7100000000000000000000000000000000000000000000000000000000 PUSH1 0x0 MSTORE PUSH1 0x11 PUSH1 0x4 MSTORE PUSH1 0x24 PUSH1 0x0 REVERT JUMPDEST PUSH1 0x0 PUSH2 0xAE4 DUP3 PUSH2 0x8B6 JUMP JUMPDEST SWAP2 POP PUSH2 0xAEF DUP4 PUSH2 0x8B6 JUMP JUMPDEST SWAP3 POP DUP3 DUP3 SUB SWAP1 POP DUP2 DUP2 GT ISZERO PUSH2 0xB07 JUMPI PUSH2 0xB06 PUSH2 0xAAA JUMP JUMPDEST JUMPDEST SWAP3 SWAP2 POP POP JUMP JUMPDEST PUSH1 0x0 PUSH2 0xB18 DUP3 PUSH2 0x8B6 JUMP JUMPDEST SWAP2 POP PUSH2 0xB23 DUP4 PUSH2 0x8B6 JUMP JUMPDEST SWAP3 POP DUP3 DUP3 ADD SWAP1 POP DUP1 DUP3 GT ISZERO PUSH2 0xB3B JUMPI PUSH2 0xB3A PUSH2 0xAAA JUMP JUMPDEST JUMPDEST SWAP3 SWAP2 POP POP JUMP JUMPDEST PUSH2 0xB4A DUP2 PUSH2 0x878 JUMP JUMPDEST DUP3 MSTORE POP POP JUMP JUMPDEST PUSH1 0x0 PUSH1 0x40 DUP3 ADD SWAP1 POP PUSH2 0xB65 PUSH1 0x0 DUP4 ADD DUP6 PUSH2 0xB41 JUMP JUMPDEST PUSH2 0xB72 PUSH1 0x20 DUP4 ADD DUP5 PUSH2 0xA80 JUMP JUMPDEST SWAP4 SWAP3 POP POP POP JUMP INVALID LOG2 PUSH5 0x6970667358 0x22 SLT KECCAK256 0x25 ISZERO 0xE MSTORE8 LOG0 KECCAK256 SLOAD DUP1 CALLER PUSH29 0x8D042CF2C9722ED6F9886A10BCC1D76E44AB5F6FBAD264736F6C634300 ADDMOD SLT STOP CALLER "
				},
				"gasEstimates": {
					"creation": {
						"codeDepositCost": "598200",
						"executionCost": "632",
						"totalCost": "598832"
					},
					"external": {
						"_depositToBank(address,address,uint256)": "infinite",
						"balance(address)": "2858",
						"depositToApp()": "infinite",
						"depositToBank(address,uint256)": "infinite",
						"transferTo(address,uint256)": "infinite",
						"transferWire(address,address,address,uint256)": "infinite",
						"withdrawFromApp(uint256)": "infinite",
						"withdrawFromBank(address,uint256)": "infinite"
					}
				},
				"methodIdentifiers": {
					"_depositToBank(address,address,uint256)": "bb85f016",
					"balance(address)": "e3d670d7",
					"depositToApp()": "8bf6146a",
					"depositToBank(address,uint256)": "e473adc2",
					"transferTo(address,uint256)": "2ccb1b30",
					"transferWire(address,address,address,uint256)": "274956e9",
					"withdrawFromApp(uint256)": "27b52dde",
					"withdrawFromBank(address,uint256)": "5d74f844"
				}
			},
			"storageLayout": {
				"storage": [
					{
						"astId": 5,
						"contract": "contracts/0525/Note.sol:APP",
						"label": "balance",
						"offset": 0,
						"slot": "0",
						"type": "t_mapping(t_address,t_uint256)"
					},
					{
						"astId": 11,
						"contract": "contracts/0525/Note.sol:APP",
						"label": "bankAccounts",
						"offset": 0,
						"slot": "1",
						"type": "t_mapping(t_address,t_mapping(t_address,t_uint256))"
					}
				],
				"types": {
					"t_address": {
						"encoding": "inplace",
						"label": "address",
						"numberOfBytes": "20"
					},
					"t_mapping(t_address,t_mapping(t_address,t_uint256))": {
						"encoding": "mapping",
						"key": "t_address",
						"label": "mapping(address => mapping(address => uint256))",
						"numberOfBytes": "32",
						"value": "t_mapping(t_address,t_uint256)"
					},
					"t_mapping(t_address,t_uint256)": {
						"encoding": "mapping",
						"key": "t_address",
						"label": "mapping(address => uint256)",
						"numberOfBytes": "32",
						"value": "t_uint256"
					},
					"t_uint256": {
						"encoding": "inplace",
						"label": "uint256",
						"numberOfBytes": "32"
					}
				}
			},
			"userdoc": {
				"kind": "user",
				"methods": {},
				"version": 1
			}
		}
	}
}