{
	"contracts/0525/Note.sol": {
		"Bank": {
			"abi": [
				{
					"inputs": [
						{
							"internalType": "address",
							"name": "_account",
							"type": "address"
						},
						{
							"internalType": "uint256",
							"name": "_amount",
							"type": "uint256"
						}
					],
					"name": "Deposit",
					"outputs": [],
					"stateMutability": "nonpayable",
					"type": "function"
				},
				{
					"inputs": [
						{
							"internalType": "address",
							"name": "_account",
							"type": "address"
						},
						{
							"internalType": "uint256",
							"name": "_amount",
							"type": "uint256"
						}
					],
					"name": "Withdraw",
					"outputs": [],
					"stateMutability": "nonpayable",
					"type": "function"
				},
				{
					"inputs": [
						{
							"internalType": "address",
							"name": "",
							"type": "address"
						}
					],
					"name": "balance",
					"outputs": [
						{
							"internalType": "uint256",
							"name": "",
							"type": "uint256"
						}
					],
					"stateMutability": "view",
					"type": "function"
				},
				{
					"inputs": [],
					"name": "balanceOf",
					"outputs": [
						{
							"internalType": "uint256",
							"name": "",
							"type": "uint256"
						}
					],
					"stateMutability": "view",
					"type": "function"
				},
				{
					"inputs": [],
					"name": "deposit",
					"outputs": [],
					"stateMutability": "payable",
					"type": "function"
				},
				{
					"inputs": [
						{
							"internalType": "address",
							"name": "_bAccount",
							"type": "address"
						},
						{
							"internalType": "uint256",
							"name": "_amount",
							"type": "uint256"
						}
					],
					"name": "transferTo",
					"outputs": [],
					"stateMutability": "nonpayable",
					"type": "function"
				},
				{
					"inputs": [
						{
							"internalType": "address",
							"name": "_bAccount",
							"type": "address"
						},
						{
							"internalType": "address payable",
							"name": "bBank",
							"type": "address"
						},
						{
							"internalType": "uint256",
							"name": "_amount",
							"type": "uint256"
						}
					],
					"name": "transferWire",
					"outputs": [],
					"stateMutability": "nonpayable",
					"type": "function"
				},
				{
					"inputs": [
						{
							"internalType": "uint256",
							"name": "_amount",
							"type": "uint256"
						}
					],
					"name": "withdraw",
					"outputs": [],
					"stateMutability": "nonpayable",
					"type": "function"
				},
				{
					"stateMutability": "payable",
					"type": "receive"
				}
			],
			"devdoc": {
				"kind": "dev",
				"methods": {},
				"version": 1
			},
			"evm": {
				"assembly": "    /* \"contracts/0525/Note.sol\":2544:4513  contract Bank{... */\n  mstore(0x40, 0x80)\n  callvalue\n  dup1\n  iszero\n  tag_1\n  jumpi\n  0x00\n  dup1\n  revert\ntag_1:\n  pop\n  dataSize(sub_0)\n  dup1\n  dataOffset(sub_0)\n  0x00\n  codecopy\n  0x00\n  return\nstop\n\nsub_0: assembly {\n        /* \"contracts/0525/Note.sol\":2544:4513  contract Bank{... */\n      mstore(0x40, 0x80)\n      jumpi(tag_1, lt(calldatasize, 0x04))\n      shr(0xe0, calldataload(0x00))\n      dup1\n      0x884edad9\n      gt\n      tag_11\n      jumpi\n      dup1\n      0x884edad9\n      eq\n      tag_7\n      jumpi\n      dup1\n      0xd0e30db0\n      eq\n      tag_8\n      jumpi\n      dup1\n      0xe1fffcc4\n      eq\n      tag_9\n      jumpi\n      dup1\n      0xe3d670d7\n      eq\n      tag_10\n      jumpi\n      jump(tag_2)\n    tag_11:\n      dup1\n      0x0ebeb29d\n      eq\n      tag_3\n      jumpi\n      dup1\n      0x2ccb1b30\n      eq\n      tag_4\n      jumpi\n      dup1\n      0x2e1a7d4d\n      eq\n      tag_5\n      jumpi\n      dup1\n      0x722713f7\n      eq\n      tag_6\n      jumpi\n      jump(tag_2)\n    tag_1:\n      jumpi(tag_2, calldatasize)\n      stop\n    tag_2:\n      0x00\n      dup1\n      revert\n        /* \"contracts/0525/Note.sol\":4296:4510  function transferWire(address _bAccount, address payable bBank, uint _amount) public {... */\n    tag_3:\n      callvalue\n      dup1\n      iszero\n      tag_14\n      jumpi\n      0x00\n      dup1\n      revert\n    tag_14:\n      pop\n      tag_15\n      0x04\n      dup1\n      calldatasize\n      sub\n      dup2\n      add\n      swap1\n      tag_16\n      swap2\n      swap1\n      tag_17\n      jump\t// in\n    tag_16:\n      tag_18\n      jump\t// in\n    tag_15:\n      stop\n        /* \"contracts/0525/Note.sol\":4005:4206  function transferTo(address _bAccount, uint _amount) public {... */\n    tag_4:\n      callvalue\n      dup1\n      iszero\n      tag_19\n      jumpi\n      0x00\n      dup1\n      revert\n    tag_19:\n      pop\n      tag_20\n      0x04\n      dup1\n      calldatasize\n      sub\n      dup2\n      add\n      swap1\n      tag_21\n      swap2\n      swap1\n      tag_22\n      jump\t// in\n    tag_21:\n      tag_23\n      jump\t// in\n    tag_20:\n      stop\n        /* \"contracts/0525/Note.sol\":3298:3437  function withdraw(uint _amount) public  {... */\n    tag_5:\n      callvalue\n      dup1\n      iszero\n      tag_24\n      jumpi\n      0x00\n      dup1\n      revert\n    tag_24:\n      pop\n      tag_25\n      0x04\n      dup1\n      calldatasize\n      sub\n      dup2\n      add\n      swap1\n      tag_26\n      swap2\n      swap1\n      tag_27\n      jump\t// in\n    tag_26:\n      tag_28\n      jump\t// in\n    tag_25:\n      stop\n        /* \"contracts/0525/Note.sol\":2666:2803  function balanceOf() public view returns(uint) {... */\n    tag_6:\n      callvalue\n      dup1\n      iszero\n      tag_29\n      jumpi\n      0x00\n      dup1\n      revert\n    tag_29:\n      pop\n      tag_30\n      tag_31\n      jump\t// in\n    tag_30:\n      mload(0x40)\n      tag_32\n      swap2\n      swap1\n      tag_33\n      jump\t// in\n    tag_32:\n      mload(0x40)\n      dup1\n      swap2\n      sub\n      swap1\n      return\n        /* \"contracts/0525/Note.sol\":3786:3938  function Withdraw(address _account, uint _amount) public {... */\n    tag_7:\n      callvalue\n      dup1\n      iszero\n      tag_34\n      jumpi\n      0x00\n      dup1\n      revert\n    tag_34:\n      pop\n      tag_35\n      0x04\n      dup1\n      calldatasize\n      sub\n      dup2\n      add\n      swap1\n      tag_36\n      swap2\n      swap1\n      tag_22\n      jump\t// in\n    tag_36:\n      tag_37\n      jump\t// in\n    tag_35:\n      stop\n        /* \"contracts/0525/Note.sol\":2866:2952  function deposit() public payable{... */\n    tag_8:\n      tag_38\n      tag_39\n      jump\t// in\n    tag_38:\n      stop\n        /* \"contracts/0525/Note.sol\":3073:3236  function Deposit(address _account, uint _amount) public {... */\n    tag_9:\n      callvalue\n      dup1\n      iszero\n      tag_40\n      jumpi\n      0x00\n      dup1\n      revert\n    tag_40:\n      pop\n      tag_41\n      0x04\n      dup1\n      calldatasize\n      sub\n      dup2\n      add\n      swap1\n      tag_42\n      swap2\n      swap1\n      tag_22\n      jump\t// in\n    tag_42:\n      tag_43\n      jump\t// in\n    tag_41:\n      stop\n        /* \"contracts/0525/Note.sol\":2564:2601  mapping(address=>uint) public balance */\n    tag_10:\n      callvalue\n      dup1\n      iszero\n      tag_44\n      jumpi\n      0x00\n      dup1\n      revert\n    tag_44:\n      pop\n      tag_45\n      0x04\n      dup1\n      calldatasize\n      sub\n      dup2\n      add\n      swap1\n      tag_46\n      swap2\n      swap1\n      tag_47\n      jump\t// in\n    tag_46:\n      tag_48\n      jump\t// in\n    tag_45:\n      mload(0x40)\n      tag_49\n      swap2\n      swap1\n      tag_33\n      jump\t// in\n    tag_49:\n      mload(0x40)\n      dup1\n      swap2\n      sub\n      swap1\n      return\n        /* \"contracts/0525/Note.sol\":4296:4510  function transferWire(address _bAccount, address payable bBank, uint _amount) public {... */\n    tag_18:\n        /* \"contracts/0525/Note.sol\":4392:4398  Bank B */\n      0x00\n        /* \"contracts/0525/Note.sol\":4406:4411  bBank */\n      dup3\n        /* \"contracts/0525/Note.sol\":4392:4412  Bank B = Bank(bBank) */\n      swap1\n      pop\n        /* \"contracts/0525/Note.sol\":4446:4453  _amount */\n      dup2\n        /* \"contracts/0525/Note.sol\":4423:4430  balance */\n      0x00\n        /* \"contracts/0525/Note.sol\":4423:4442  balance[msg.sender] */\n      dup1\n        /* \"contracts/0525/Note.sol\":4431:4441  msg.sender */\n      caller\n        /* \"contracts/0525/Note.sol\":4423:4442  balance[msg.sender] */\n      0xffffffffffffffffffffffffffffffffffffffff\n      and\n      0xffffffffffffffffffffffffffffffffffffffff\n      and\n      dup2\n      mstore\n      0x20\n      add\n      swap1\n      dup2\n      mstore\n      0x20\n      add\n      0x00\n      keccak256\n      0x00\n        /* \"contracts/0525/Note.sol\":4423:4453  balance[msg.sender] -= _amount */\n      dup3\n      dup3\n      sload\n      tag_51\n      swap2\n      swap1\n      tag_52\n      jump\t// in\n    tag_51:\n      swap3\n      pop\n      pop\n      dup2\n      swap1\n      sstore\n      pop\n        /* \"contracts/0525/Note.sol\":4472:4473  B */\n      dup1\n        /* \"contracts/0525/Note.sol\":4464:4483  payable(B).transfer */\n      0xffffffffffffffffffffffffffffffffffffffff\n      and\n        /* \"contracts/0525/Note.sol\":4464:4492  payable(B).transfer(_amount) */\n      0x08fc\n        /* \"contracts/0525/Note.sol\":4484:4491  _amount */\n      dup4\n        /* \"contracts/0525/Note.sol\":4464:4492  payable(B).transfer(_amount) */\n      swap1\n      dup2\n      iszero\n      mul\n      swap1\n      mload(0x40)\n      0x00\n      mload(0x40)\n      dup1\n      dup4\n      sub\n      dup2\n      dup6\n      dup9\n      dup9\n      call\n      swap4\n      pop\n      pop\n      pop\n      pop\n      iszero\n      dup1\n      iszero\n      tag_54\n      jumpi\n      returndatasize\n      0x00\n      dup1\n      returndatacopy\n      revert(0x00, returndatasize)\n    tag_54:\n      pop\n        /* \"contracts/0525/Note.sol\":4381:4510  {... */\n      pop\n        /* \"contracts/0525/Note.sol\":4296:4510  function transferWire(address _bAccount, address payable bBank, uint _amount) public {... */\n      pop\n      pop\n      pop\n      jump\t// out\n        /* \"contracts/0525/Note.sol\":4005:4206  function transferTo(address _bAccount, uint _amount) public {... */\n    tag_23:\n        /* \"contracts/0525/Note.sol\":4149:4156  _amount */\n      dup1\n        /* \"contracts/0525/Note.sol\":4126:4133  balance */\n      0x00\n        /* \"contracts/0525/Note.sol\":4126:4145  balance[msg.sender] */\n      dup1\n        /* \"contracts/0525/Note.sol\":4134:4144  msg.sender */\n      caller\n        /* \"contracts/0525/Note.sol\":4126:4145  balance[msg.sender] */\n      0xffffffffffffffffffffffffffffffffffffffff\n      and\n      0xffffffffffffffffffffffffffffffffffffffff\n      and\n      dup2\n      mstore\n      0x20\n      add\n      swap1\n      dup2\n      mstore\n      0x20\n      add\n      0x00\n      keccak256\n      0x00\n        /* \"contracts/0525/Note.sol\":4126:4156  balance[msg.sender] -= _amount */\n      dup3\n      dup3\n      sload\n      tag_56\n      swap2\n      swap1\n      tag_52\n      jump\t// in\n    tag_56:\n      swap3\n      pop\n      pop\n      dup2\n      swap1\n      sstore\n      pop\n        /* \"contracts/0525/Note.sol\":4189:4196  _amount */\n      dup1\n        /* \"contracts/0525/Note.sol\":4167:4174  balance */\n      0x00\n        /* \"contracts/0525/Note.sol\":4167:4185  balance[_bAccount] */\n      dup1\n        /* \"contracts/0525/Note.sol\":4175:4184  _bAccount */\n      dup5\n        /* \"contracts/0525/Note.sol\":4167:4185  balance[_bAccount] */\n      0xffffffffffffffffffffffffffffffffffffffff\n      and\n      0xffffffffffffffffffffffffffffffffffffffff\n      and\n      dup2\n      mstore\n      0x20\n      add\n      swap1\n      dup2\n      mstore\n      0x20\n      add\n      0x00\n      keccak256\n      0x00\n        /* \"contracts/0525/Note.sol\":4167:4196  balance[_bAccount] += _amount */\n      dup3\n      dup3\n      sload\n      tag_57\n      swap2\n      swap1\n      tag_58\n      jump\t// in\n    tag_57:\n      swap3\n      pop\n      pop\n      dup2\n      swap1\n      sstore\n      pop\n        /* \"contracts/0525/Note.sol\":4005:4206  function transferTo(address _bAccount, uint _amount) public {... */\n      pop\n      pop\n      jump\t// out\n        /* \"contracts/0525/Note.sol\":3298:3437  function withdraw(uint _amount) public  {... */\n    tag_28:\n        /* \"contracts/0525/Note.sol\":3374:3381  _amount */\n      dup1\n        /* \"contracts/0525/Note.sol\":3349:3356  balance */\n      0x00\n        /* \"contracts/0525/Note.sol\":3349:3370  balance[ msg.sender ] */\n      dup1\n        /* \"contracts/0525/Note.sol\":3358:3368  msg.sender */\n      caller\n        /* \"contracts/0525/Note.sol\":3349:3370  balance[ msg.sender ] */\n      0xffffffffffffffffffffffffffffffffffffffff\n      and\n      0xffffffffffffffffffffffffffffffffffffffff\n      and\n      dup2\n      mstore\n      0x20\n      add\n      swap1\n      dup2\n      mstore\n      0x20\n      add\n      0x00\n      keccak256\n      0x00\n        /* \"contracts/0525/Note.sol\":3349:3381  balance[ msg.sender ] -= _amount */\n      dup3\n      dup3\n      sload\n      tag_60\n      swap2\n      swap1\n      tag_52\n      jump\t// in\n    tag_60:\n      swap3\n      pop\n      pop\n      dup2\n      swap1\n      sstore\n      pop\n        /* \"contracts/0525/Note.sol\":3400:3410  msg.sender */\n      caller\n        /* \"contracts/0525/Note.sol\":3392:3420  payable(msg.sender).transfer */\n      0xffffffffffffffffffffffffffffffffffffffff\n      and\n        /* \"contracts/0525/Note.sol\":3392:3429  payable(msg.sender).transfer(_amount) */\n      0x08fc\n        /* \"contracts/0525/Note.sol\":3421:3428  _amount */\n      dup3\n        /* \"contracts/0525/Note.sol\":3392:3429  payable(msg.sender).transfer(_amount) */\n      swap1\n      dup2\n      iszero\n      mul\n      swap1\n      mload(0x40)\n      0x00\n      mload(0x40)\n      dup1\n      dup4\n      sub\n      dup2\n      dup6\n      dup9\n      dup9\n      call\n      swap4\n      pop\n      pop\n      pop\n      pop\n      iszero\n      dup1\n      iszero\n      tag_62\n      jumpi\n      returndatasize\n      0x00\n      dup1\n      returndatacopy\n      revert(0x00, returndatasize)\n    tag_62:\n      pop\n        /* \"contracts/0525/Note.sol\":3298:3437  function withdraw(uint _amount) public  {... */\n      pop\n      jump\t// out\n        /* \"contracts/0525/Note.sol\":2666:2803  function balanceOf() public view returns(uint) {... */\n    tag_31:\n        /* \"contracts/0525/Note.sol\":2707:2711  uint */\n      0x00\n        /* \"contracts/0525/Note.sol\":2776:2783  balance */\n      dup1\n        /* \"contracts/0525/Note.sol\":2776:2795  balance[msg.sender] */\n      0x00\n        /* \"contracts/0525/Note.sol\":2784:2794  msg.sender */\n      caller\n        /* \"contracts/0525/Note.sol\":2776:2795  balance[msg.sender] */\n      0xffffffffffffffffffffffffffffffffffffffff\n      and\n      0xffffffffffffffffffffffffffffffffffffffff\n      and\n      dup2\n      mstore\n      0x20\n      add\n      swap1\n      dup2\n      mstore\n      0x20\n      add\n      0x00\n      keccak256\n      sload\n        /* \"contracts/0525/Note.sol\":2769:2795  return balance[msg.sender] */\n      swap1\n      pop\n        /* \"contracts/0525/Note.sol\":2666:2803  function balanceOf() public view returns(uint) {... */\n      swap1\n      jump\t// out\n        /* \"contracts/0525/Note.sol\":3786:3938  function Withdraw(address _account, uint _amount) public {... */\n    tag_37:\n        /* \"contracts/0525/Note.sol\":3883:3890  _amount */\n      dup1\n        /* \"contracts/0525/Note.sol\":3862:3869  balance */\n      0x00\n        /* \"contracts/0525/Note.sol\":3862:3879  balance[_account] */\n      dup1\n        /* \"contracts/0525/Note.sol\":3870:3878  _account */\n      dup5\n        /* \"contracts/0525/Note.sol\":3862:3879  balance[_account] */\n      0xffffffffffffffffffffffffffffffffffffffff\n      and\n      0xffffffffffffffffffffffffffffffffffffffff\n      and\n      dup2\n      mstore\n      0x20\n      add\n      swap1\n      dup2\n      mstore\n      0x20\n      add\n      0x00\n      keccak256\n      sload\n        /* \"contracts/0525/Note.sol\":3862:3890  balance[_account] >= _amount */\n      lt\n      iszero\n        /* \"contracts/0525/Note.sol\":3854:3891  require(balance[_account] >= _amount) */\n      tag_65\n      jumpi\n      0x00\n      dup1\n      revert\n    tag_65:\n        /* \"contracts/0525/Note.sol\":3902:3930  _withdraw(_account, _amount) */\n      tag_66\n        /* \"contracts/0525/Note.sol\":3912:3920  _account */\n      dup3\n        /* \"contracts/0525/Note.sol\":3922:3929  _amount */\n      dup3\n        /* \"contracts/0525/Note.sol\":3902:3911  _withdraw */\n      tag_67\n        /* \"contracts/0525/Note.sol\":3902:3930  _withdraw(_account, _amount) */\n      jump\t// in\n    tag_66:\n        /* \"contracts/0525/Note.sol\":3786:3938  function Withdraw(address _account, uint _amount) public {... */\n      pop\n      pop\n      jump\t// out\n        /* \"contracts/0525/Note.sol\":2866:2952  function deposit() public payable{... */\n    tag_39:\n        /* \"contracts/0525/Note.sol\":2935:2944  msg.value */\n      callvalue\n        /* \"contracts/0525/Note.sol\":2910:2917  balance */\n      0x00\n        /* \"contracts/0525/Note.sol\":2910:2931  balance[ msg.sender ] */\n      dup1\n        /* \"contracts/0525/Note.sol\":2919:2929  msg.sender */\n      caller\n        /* \"contracts/0525/Note.sol\":2910:2931  balance[ msg.sender ] */\n      0xffffffffffffffffffffffffffffffffffffffff\n      and\n      0xffffffffffffffffffffffffffffffffffffffff\n      and\n      dup2\n      mstore\n      0x20\n      add\n      swap1\n      dup2\n      mstore\n      0x20\n      add\n      0x00\n      keccak256\n      0x00\n        /* \"contracts/0525/Note.sol\":2910:2944  balance[ msg.sender ] += msg.value */\n      dup3\n      dup3\n      sload\n      tag_69\n      swap2\n      swap1\n      tag_58\n      jump\t// in\n    tag_69:\n      swap3\n      pop\n      pop\n      dup2\n      swap1\n      sstore\n      pop\n        /* \"contracts/0525/Note.sol\":2866:2952  function deposit() public payable{... */\n      jump\t// out\n        /* \"contracts/0525/Note.sol\":3073:3236  function Deposit(address _account, uint _amount) public {... */\n    tag_43:\n        /* \"contracts/0525/Note.sol\":3159:3160  0 */\n      0x00\n        /* \"contracts/0525/Note.sol\":3148:3155  _amount */\n      dup2\n        /* \"contracts/0525/Note.sol\":3148:3160  _amount != 0 */\n      sub\n        /* \"contracts/0525/Note.sol\":3140:3190  require(_amount != 0, \"Amount should not be zero\") */\n      tag_71\n      jumpi\n      mload(0x40)\n      0x08c379a000000000000000000000000000000000000000000000000000000000\n      dup2\n      mstore\n      0x04\n      add\n      tag_72\n      swap1\n      tag_73\n      jump\t// in\n    tag_72:\n      mload(0x40)\n      dup1\n      swap2\n      sub\n      swap1\n      revert\n    tag_71:\n        /* \"contracts/0525/Note.sol\":3201:3228  _deposit(_account, _amount) */\n      tag_74\n        /* \"contracts/0525/Note.sol\":3210:3218  _account */\n      dup3\n        /* \"contracts/0525/Note.sol\":3220:3227  _amount */\n      dup3\n        /* \"contracts/0525/Note.sol\":3201:3209  _deposit */\n      tag_75\n        /* \"contracts/0525/Note.sol\":3201:3228  _deposit(_account, _amount) */\n      jump\t// in\n    tag_74:\n        /* \"contracts/0525/Note.sol\":3073:3236  function Deposit(address _account, uint _amount) public {... */\n      pop\n      pop\n      jump\t// out\n        /* \"contracts/0525/Note.sol\":2564:2601  mapping(address=>uint) public balance */\n    tag_48:\n      mstore(0x20, 0x00)\n      dup1\n      0x00\n      mstore\n      keccak256(0x00, 0x40)\n      0x00\n      swap2\n      pop\n      swap1\n      pop\n      sload\n      dup2\n      jump\t// out\n        /* \"contracts/0525/Note.sol\":3445:3601  function _withdraw(address _account, uint _amount) internal {... */\n    tag_67:\n        /* \"contracts/0525/Note.sol\":3537:3544  _amount */\n      dup1\n        /* \"contracts/0525/Note.sol\":3516:3523  balance */\n      0x00\n        /* \"contracts/0525/Note.sol\":3516:3533  balance[_account] */\n      dup1\n        /* \"contracts/0525/Note.sol\":3524:3532  _account */\n      dup5\n        /* \"contracts/0525/Note.sol\":3516:3533  balance[_account] */\n      0xffffffffffffffffffffffffffffffffffffffff\n      and\n      0xffffffffffffffffffffffffffffffffffffffff\n      and\n      dup2\n      mstore\n      0x20\n      add\n      swap1\n      dup2\n      mstore\n      0x20\n      add\n      0x00\n      keccak256\n      0x00\n        /* \"contracts/0525/Note.sol\":3516:3544  balance[_account] -= _amount */\n      dup3\n      dup3\n      sload\n      tag_77\n      swap2\n      swap1\n      tag_52\n      jump\t// in\n    tag_77:\n      swap3\n      pop\n      pop\n      dup2\n      swap1\n      sstore\n      pop\n        /* \"contracts/0525/Note.sol\":3563:3573  msg.sender */\n      caller\n        /* \"contracts/0525/Note.sol\":3555:3583  payable(msg.sender).transfer */\n      0xffffffffffffffffffffffffffffffffffffffff\n      and\n        /* \"contracts/0525/Note.sol\":3555:3592  payable(msg.sender).transfer(_amount) */\n      0x08fc\n        /* \"contracts/0525/Note.sol\":3584:3591  _amount */\n      dup3\n        /* \"contracts/0525/Note.sol\":3555:3592  payable(msg.sender).transfer(_amount) */\n      swap1\n      dup2\n      iszero\n      mul\n      swap1\n      mload(0x40)\n      0x00\n      mload(0x40)\n      dup1\n      dup4\n      sub\n      dup2\n      dup6\n      dup9\n      dup9\n      call\n      swap4\n      pop\n      pop\n      pop\n      pop\n      iszero\n      dup1\n      iszero\n      tag_79\n      jumpi\n      returndatasize\n      0x00\n      dup1\n      returndatacopy\n      revert(0x00, returndatasize)\n    tag_79:\n      pop\n        /* \"contracts/0525/Note.sol\":3445:3601  function _withdraw(address _account, uint _amount) internal {... */\n      pop\n      pop\n      jump\t// out\n        /* \"contracts/0525/Note.sol\":2960:3065  function _deposit(address _account, uint _amount) internal{... */\n    tag_75:\n        /* \"contracts/0525/Note.sol\":3050:3057  _amount */\n      dup1\n        /* \"contracts/0525/Note.sol\":3029:3036  balance */\n      0x00\n        /* \"contracts/0525/Note.sol\":3029:3046  balance[_account] */\n      dup1\n        /* \"contracts/0525/Note.sol\":3037:3045  _account */\n      dup5\n        /* \"contracts/0525/Note.sol\":3029:3046  balance[_account] */\n      0xffffffffffffffffffffffffffffffffffffffff\n      and\n      0xffffffffffffffffffffffffffffffffffffffff\n      and\n      dup2\n      mstore\n      0x20\n      add\n      swap1\n      dup2\n      mstore\n      0x20\n      add\n      0x00\n      keccak256\n      0x00\n        /* \"contracts/0525/Note.sol\":3029:3057  balance[_account] += _amount */\n      dup3\n      dup3\n      sload\n      tag_81\n      swap2\n      swap1\n      tag_58\n      jump\t// in\n    tag_81:\n      swap3\n      pop\n      pop\n      dup2\n      swap1\n      sstore\n      pop\n        /* \"contracts/0525/Note.sol\":2960:3065  function _deposit(address _account, uint _amount) internal{... */\n      pop\n      pop\n      jump\t// out\n        /* \"#utility.yul\":88:205   */\n    tag_83:\n        /* \"#utility.yul\":197:198   */\n      0x00\n        /* \"#utility.yul\":194:195   */\n      dup1\n        /* \"#utility.yul\":187:199   */\n      revert\n        /* \"#utility.yul\":334:460   */\n    tag_85:\n        /* \"#utility.yul\":371:378   */\n      0x00\n        /* \"#utility.yul\":411:453   */\n      0xffffffffffffffffffffffffffffffffffffffff\n        /* \"#utility.yul\":404:409   */\n      dup3\n        /* \"#utility.yul\":400:454   */\n      and\n        /* \"#utility.yul\":389:454   */\n      swap1\n      pop\n        /* \"#utility.yul\":334:460   */\n      swap2\n      swap1\n      pop\n      jump\t// out\n        /* \"#utility.yul\":466:562   */\n    tag_86:\n        /* \"#utility.yul\":503:510   */\n      0x00\n        /* \"#utility.yul\":532:556   */\n      tag_106\n        /* \"#utility.yul\":550:555   */\n      dup3\n        /* \"#utility.yul\":532:556   */\n      tag_85\n      jump\t// in\n    tag_106:\n        /* \"#utility.yul\":521:556   */\n      swap1\n      pop\n        /* \"#utility.yul\":466:562   */\n      swap2\n      swap1\n      pop\n      jump\t// out\n        /* \"#utility.yul\":568:690   */\n    tag_87:\n        /* \"#utility.yul\":641:665   */\n      tag_108\n        /* \"#utility.yul\":659:664   */\n      dup2\n        /* \"#utility.yul\":641:665   */\n      tag_86\n      jump\t// in\n    tag_108:\n        /* \"#utility.yul\":634:639   */\n      dup2\n        /* \"#utility.yul\":631:666   */\n      eq\n        /* \"#utility.yul\":621:684   */\n      tag_109\n      jumpi\n        /* \"#utility.yul\":680:681   */\n      0x00\n        /* \"#utility.yul\":677:678   */\n      dup1\n        /* \"#utility.yul\":670:682   */\n      revert\n        /* \"#utility.yul\":621:684   */\n    tag_109:\n        /* \"#utility.yul\":568:690   */\n      pop\n      jump\t// out\n        /* \"#utility.yul\":696:835   */\n    tag_88:\n        /* \"#utility.yul\":742:747   */\n      0x00\n        /* \"#utility.yul\":780:786   */\n      dup2\n        /* \"#utility.yul\":767:787   */\n      calldataload\n        /* \"#utility.yul\":758:787   */\n      swap1\n      pop\n        /* \"#utility.yul\":796:829   */\n      tag_111\n        /* \"#utility.yul\":823:828   */\n      dup2\n        /* \"#utility.yul\":796:829   */\n      tag_87\n      jump\t// in\n    tag_111:\n        /* \"#utility.yul\":696:835   */\n      swap3\n      swap2\n      pop\n      pop\n      jump\t// out\n        /* \"#utility.yul\":841:945   */\n    tag_89:\n        /* \"#utility.yul\":886:893   */\n      0x00\n        /* \"#utility.yul\":915:939   */\n      tag_113\n        /* \"#utility.yul\":933:938   */\n      dup3\n        /* \"#utility.yul\":915:939   */\n      tag_85\n      jump\t// in\n    tag_113:\n        /* \"#utility.yul\":904:939   */\n      swap1\n      pop\n        /* \"#utility.yul\":841:945   */\n      swap2\n      swap1\n      pop\n      jump\t// out\n        /* \"#utility.yul\":951:1089   */\n    tag_90:\n        /* \"#utility.yul\":1032:1064   */\n      tag_115\n        /* \"#utility.yul\":1058:1063   */\n      dup2\n        /* \"#utility.yul\":1032:1064   */\n      tag_89\n      jump\t// in\n    tag_115:\n        /* \"#utility.yul\":1025:1030   */\n      dup2\n        /* \"#utility.yul\":1022:1065   */\n      eq\n        /* \"#utility.yul\":1012:1083   */\n      tag_116\n      jumpi\n        /* \"#utility.yul\":1079:1080   */\n      0x00\n        /* \"#utility.yul\":1076:1077   */\n      dup1\n        /* \"#utility.yul\":1069:1081   */\n      revert\n        /* \"#utility.yul\":1012:1083   */\n    tag_116:\n        /* \"#utility.yul\":951:1089   */\n      pop\n      jump\t// out\n        /* \"#utility.yul\":1095:1250   */\n    tag_91:\n        /* \"#utility.yul\":1149:1154   */\n      0x00\n        /* \"#utility.yul\":1187:1193   */\n      dup2\n        /* \"#utility.yul\":1174:1194   */\n      calldataload\n        /* \"#utility.yul\":1165:1194   */\n      swap1\n      pop\n        /* \"#utility.yul\":1203:1244   */\n      tag_118\n        /* \"#utility.yul\":1238:1243   */\n      dup2\n        /* \"#utility.yul\":1203:1244   */\n      tag_90\n      jump\t// in\n    tag_118:\n        /* \"#utility.yul\":1095:1250   */\n      swap3\n      swap2\n      pop\n      pop\n      jump\t// out\n        /* \"#utility.yul\":1256:1333   */\n    tag_92:\n        /* \"#utility.yul\":1293:1300   */\n      0x00\n        /* \"#utility.yul\":1322:1327   */\n      dup2\n        /* \"#utility.yul\":1311:1327   */\n      swap1\n      pop\n        /* \"#utility.yul\":1256:1333   */\n      swap2\n      swap1\n      pop\n      jump\t// out\n        /* \"#utility.yul\":1339:1461   */\n    tag_93:\n        /* \"#utility.yul\":1412:1436   */\n      tag_121\n        /* \"#utility.yul\":1430:1435   */\n      dup2\n        /* \"#utility.yul\":1412:1436   */\n      tag_92\n      jump\t// in\n    tag_121:\n        /* \"#utility.yul\":1405:1410   */\n      dup2\n        /* \"#utility.yul\":1402:1437   */\n      eq\n        /* \"#utility.yul\":1392:1455   */\n      tag_122\n      jumpi\n        /* \"#utility.yul\":1451:1452   */\n      0x00\n        /* \"#utility.yul\":1448:1449   */\n      dup1\n        /* \"#utility.yul\":1441:1453   */\n      revert\n        /* \"#utility.yul\":1392:1455   */\n    tag_122:\n        /* \"#utility.yul\":1339:1461   */\n      pop\n      jump\t// out\n        /* \"#utility.yul\":1467:1606   */\n    tag_94:\n        /* \"#utility.yul\":1513:1518   */\n      0x00\n        /* \"#utility.yul\":1551:1557   */\n      dup2\n        /* \"#utility.yul\":1538:1558   */\n      calldataload\n        /* \"#utility.yul\":1529:1558   */\n      swap1\n      pop\n        /* \"#utility.yul\":1567:1600   */\n      tag_124\n        /* \"#utility.yul\":1594:1599   */\n      dup2\n        /* \"#utility.yul\":1567:1600   */\n      tag_93\n      jump\t// in\n    tag_124:\n        /* \"#utility.yul\":1467:1606   */\n      swap3\n      swap2\n      pop\n      pop\n      jump\t// out\n        /* \"#utility.yul\":1612:2247   */\n    tag_17:\n        /* \"#utility.yul\":1697:1703   */\n      0x00\n        /* \"#utility.yul\":1705:1711   */\n      dup1\n        /* \"#utility.yul\":1713:1719   */\n      0x00\n        /* \"#utility.yul\":1762:1764   */\n      0x60\n        /* \"#utility.yul\":1750:1759   */\n      dup5\n        /* \"#utility.yul\":1741:1748   */\n      dup7\n        /* \"#utility.yul\":1737:1760   */\n      sub\n        /* \"#utility.yul\":1733:1765   */\n      slt\n        /* \"#utility.yul\":1730:1849   */\n      iszero\n      tag_126\n      jumpi\n        /* \"#utility.yul\":1768:1847   */\n      tag_127\n      tag_83\n      jump\t// in\n    tag_127:\n        /* \"#utility.yul\":1730:1849   */\n    tag_126:\n        /* \"#utility.yul\":1888:1889   */\n      0x00\n        /* \"#utility.yul\":1913:1966   */\n      tag_128\n        /* \"#utility.yul\":1958:1965   */\n      dup7\n        /* \"#utility.yul\":1949:1955   */\n      dup3\n        /* \"#utility.yul\":1938:1947   */\n      dup8\n        /* \"#utility.yul\":1934:1956   */\n      add\n        /* \"#utility.yul\":1913:1966   */\n      tag_88\n      jump\t// in\n    tag_128:\n        /* \"#utility.yul\":1903:1966   */\n      swap4\n      pop\n        /* \"#utility.yul\":1859:1976   */\n      pop\n        /* \"#utility.yul\":2015:2017   */\n      0x20\n        /* \"#utility.yul\":2041:2102   */\n      tag_129\n        /* \"#utility.yul\":2094:2101   */\n      dup7\n        /* \"#utility.yul\":2085:2091   */\n      dup3\n        /* \"#utility.yul\":2074:2083   */\n      dup8\n        /* \"#utility.yul\":2070:2092   */\n      add\n        /* \"#utility.yul\":2041:2102   */\n      tag_91\n      jump\t// in\n    tag_129:\n        /* \"#utility.yul\":2031:2102   */\n      swap3\n      pop\n        /* \"#utility.yul\":1986:2112   */\n      pop\n        /* \"#utility.yul\":2151:2153   */\n      0x40\n        /* \"#utility.yul\":2177:2230   */\n      tag_130\n        /* \"#utility.yul\":2222:2229   */\n      dup7\n        /* \"#utility.yul\":2213:2219   */\n      dup3\n        /* \"#utility.yul\":2202:2211   */\n      dup8\n        /* \"#utility.yul\":2198:2220   */\n      add\n        /* \"#utility.yul\":2177:2230   */\n      tag_94\n      jump\t// in\n    tag_130:\n        /* \"#utility.yul\":2167:2230   */\n      swap2\n      pop\n        /* \"#utility.yul\":2122:2240   */\n      pop\n        /* \"#utility.yul\":1612:2247   */\n      swap3\n      pop\n      swap3\n      pop\n      swap3\n      jump\t// out\n        /* \"#utility.yul\":2253:2727   */\n    tag_22:\n        /* \"#utility.yul\":2321:2327   */\n      0x00\n        /* \"#utility.yul\":2329:2335   */\n      dup1\n        /* \"#utility.yul\":2378:2380   */\n      0x40\n        /* \"#utility.yul\":2366:2375   */\n      dup4\n        /* \"#utility.yul\":2357:2364   */\n      dup6\n        /* \"#utility.yul\":2353:2376   */\n      sub\n        /* \"#utility.yul\":2349:2381   */\n      slt\n        /* \"#utility.yul\":2346:2465   */\n      iszero\n      tag_132\n      jumpi\n        /* \"#utility.yul\":2384:2463   */\n      tag_133\n      tag_83\n      jump\t// in\n    tag_133:\n        /* \"#utility.yul\":2346:2465   */\n    tag_132:\n        /* \"#utility.yul\":2504:2505   */\n      0x00\n        /* \"#utility.yul\":2529:2582   */\n      tag_134\n        /* \"#utility.yul\":2574:2581   */\n      dup6\n        /* \"#utility.yul\":2565:2571   */\n      dup3\n        /* \"#utility.yul\":2554:2563   */\n      dup7\n        /* \"#utility.yul\":2550:2572   */\n      add\n        /* \"#utility.yul\":2529:2582   */\n      tag_88\n      jump\t// in\n    tag_134:\n        /* \"#utility.yul\":2519:2582   */\n      swap3\n      pop\n        /* \"#utility.yul\":2475:2592   */\n      pop\n        /* \"#utility.yul\":2631:2633   */\n      0x20\n        /* \"#utility.yul\":2657:2710   */\n      tag_135\n        /* \"#utility.yul\":2702:2709   */\n      dup6\n        /* \"#utility.yul\":2693:2699   */\n      dup3\n        /* \"#utility.yul\":2682:2691   */\n      dup7\n        /* \"#utility.yul\":2678:2700   */\n      add\n        /* \"#utility.yul\":2657:2710   */\n      tag_94\n      jump\t// in\n    tag_135:\n        /* \"#utility.yul\":2647:2710   */\n      swap2\n      pop\n        /* \"#utility.yul\":2602:2720   */\n      pop\n        /* \"#utility.yul\":2253:2727   */\n      swap3\n      pop\n      swap3\n      swap1\n      pop\n      jump\t// out\n        /* \"#utility.yul\":2733:3062   */\n    tag_27:\n        /* \"#utility.yul\":2792:2798   */\n      0x00\n        /* \"#utility.yul\":2841:2843   */\n      0x20\n        /* \"#utility.yul\":2829:2838   */\n      dup3\n        /* \"#utility.yul\":2820:2827   */\n      dup5\n        /* \"#utility.yul\":2816:2839   */\n      sub\n        /* \"#utility.yul\":2812:2844   */\n      slt\n        /* \"#utility.yul\":2809:2928   */\n      iszero\n      tag_137\n      jumpi\n        /* \"#utility.yul\":2847:2926   */\n      tag_138\n      tag_83\n      jump\t// in\n    tag_138:\n        /* \"#utility.yul\":2809:2928   */\n    tag_137:\n        /* \"#utility.yul\":2967:2968   */\n      0x00\n        /* \"#utility.yul\":2992:3045   */\n      tag_139\n        /* \"#utility.yul\":3037:3044   */\n      dup5\n        /* \"#utility.yul\":3028:3034   */\n      dup3\n        /* \"#utility.yul\":3017:3026   */\n      dup6\n        /* \"#utility.yul\":3013:3035   */\n      add\n        /* \"#utility.yul\":2992:3045   */\n      tag_94\n      jump\t// in\n    tag_139:\n        /* \"#utility.yul\":2982:3045   */\n      swap2\n      pop\n        /* \"#utility.yul\":2938:3055   */\n      pop\n        /* \"#utility.yul\":2733:3062   */\n      swap3\n      swap2\n      pop\n      pop\n      jump\t// out\n        /* \"#utility.yul\":3068:3186   */\n    tag_95:\n        /* \"#utility.yul\":3155:3179   */\n      tag_141\n        /* \"#utility.yul\":3173:3178   */\n      dup2\n        /* \"#utility.yul\":3155:3179   */\n      tag_92\n      jump\t// in\n    tag_141:\n        /* \"#utility.yul\":3150:3153   */\n      dup3\n        /* \"#utility.yul\":3143:3180   */\n      mstore\n        /* \"#utility.yul\":3068:3186   */\n      pop\n      pop\n      jump\t// out\n        /* \"#utility.yul\":3192:3414   */\n    tag_33:\n        /* \"#utility.yul\":3285:3289   */\n      0x00\n        /* \"#utility.yul\":3323:3325   */\n      0x20\n        /* \"#utility.yul\":3312:3321   */\n      dup3\n        /* \"#utility.yul\":3308:3326   */\n      add\n        /* \"#utility.yul\":3300:3326   */\n      swap1\n      pop\n        /* \"#utility.yul\":3336:3407   */\n      tag_143\n        /* \"#utility.yul\":3404:3405   */\n      0x00\n        /* \"#utility.yul\":3393:3402   */\n      dup4\n        /* \"#utility.yul\":3389:3406   */\n      add\n        /* \"#utility.yul\":3380:3386   */\n      dup5\n        /* \"#utility.yul\":3336:3407   */\n      tag_95\n      jump\t// in\n    tag_143:\n        /* \"#utility.yul\":3192:3414   */\n      swap3\n      swap2\n      pop\n      pop\n      jump\t// out\n        /* \"#utility.yul\":3420:3749   */\n    tag_47:\n        /* \"#utility.yul\":3479:3485   */\n      0x00\n        /* \"#utility.yul\":3528:3530   */\n      0x20\n        /* \"#utility.yul\":3516:3525   */\n      dup3\n        /* \"#utility.yul\":3507:3514   */\n      dup5\n        /* \"#utility.yul\":3503:3526   */\n      sub\n        /* \"#utility.yul\":3499:3531   */\n      slt\n        /* \"#utility.yul\":3496:3615   */\n      iszero\n      tag_145\n      jumpi\n        /* \"#utility.yul\":3534:3613   */\n      tag_146\n      tag_83\n      jump\t// in\n    tag_146:\n        /* \"#utility.yul\":3496:3615   */\n    tag_145:\n        /* \"#utility.yul\":3654:3655   */\n      0x00\n        /* \"#utility.yul\":3679:3732   */\n      tag_147\n        /* \"#utility.yul\":3724:3731   */\n      dup5\n        /* \"#utility.yul\":3715:3721   */\n      dup3\n        /* \"#utility.yul\":3704:3713   */\n      dup6\n        /* \"#utility.yul\":3700:3722   */\n      add\n        /* \"#utility.yul\":3679:3732   */\n      tag_88\n      jump\t// in\n    tag_147:\n        /* \"#utility.yul\":3669:3732   */\n      swap2\n      pop\n        /* \"#utility.yul\":3625:3742   */\n      pop\n        /* \"#utility.yul\":3420:3749   */\n      swap3\n      swap2\n      pop\n      pop\n      jump\t// out\n        /* \"#utility.yul\":3755:3935   */\n    tag_96:\n        /* \"#utility.yul\":3803:3880   */\n      0x4e487b7100000000000000000000000000000000000000000000000000000000\n        /* \"#utility.yul\":3800:3801   */\n      0x00\n        /* \"#utility.yul\":3793:3881   */\n      mstore\n        /* \"#utility.yul\":3900:3904   */\n      0x11\n        /* \"#utility.yul\":3897:3898   */\n      0x04\n        /* \"#utility.yul\":3890:3905   */\n      mstore\n        /* \"#utility.yul\":3924:3928   */\n      0x24\n        /* \"#utility.yul\":3921:3922   */\n      0x00\n        /* \"#utility.yul\":3914:3929   */\n      revert\n        /* \"#utility.yul\":3941:4135   */\n    tag_52:\n        /* \"#utility.yul\":3981:3985   */\n      0x00\n        /* \"#utility.yul\":4001:4021   */\n      tag_150\n        /* \"#utility.yul\":4019:4020   */\n      dup3\n        /* \"#utility.yul\":4001:4021   */\n      tag_92\n      jump\t// in\n    tag_150:\n        /* \"#utility.yul\":3996:4021   */\n      swap2\n      pop\n        /* \"#utility.yul\":4035:4055   */\n      tag_151\n        /* \"#utility.yul\":4053:4054   */\n      dup4\n        /* \"#utility.yul\":4035:4055   */\n      tag_92\n      jump\t// in\n    tag_151:\n        /* \"#utility.yul\":4030:4055   */\n      swap3\n      pop\n        /* \"#utility.yul\":4079:4080   */\n      dup3\n        /* \"#utility.yul\":4076:4077   */\n      dup3\n        /* \"#utility.yul\":4072:4081   */\n      sub\n        /* \"#utility.yul\":4064:4081   */\n      swap1\n      pop\n        /* \"#utility.yul\":4103:4104   */\n      dup2\n        /* \"#utility.yul\":4097:4101   */\n      dup2\n        /* \"#utility.yul\":4094:4105   */\n      gt\n        /* \"#utility.yul\":4091:4128   */\n      iszero\n      tag_152\n      jumpi\n        /* \"#utility.yul\":4108:4126   */\n      tag_153\n      tag_96\n      jump\t// in\n    tag_153:\n        /* \"#utility.yul\":4091:4128   */\n    tag_152:\n        /* \"#utility.yul\":3941:4135   */\n      swap3\n      swap2\n      pop\n      pop\n      jump\t// out\n        /* \"#utility.yul\":4141:4332   */\n    tag_58:\n        /* \"#utility.yul\":4181:4184   */\n      0x00\n        /* \"#utility.yul\":4200:4220   */\n      tag_155\n        /* \"#utility.yul\":4218:4219   */\n      dup3\n        /* \"#utility.yul\":4200:4220   */\n      tag_92\n      jump\t// in\n    tag_155:\n        /* \"#utility.yul\":4195:4220   */\n      swap2\n      pop\n        /* \"#utility.yul\":4234:4254   */\n      tag_156\n        /* \"#utility.yul\":4252:4253   */\n      dup4\n        /* \"#utility.yul\":4234:4254   */\n      tag_92\n      jump\t// in\n    tag_156:\n        /* \"#utility.yul\":4229:4254   */\n      swap3\n      pop\n        /* \"#utility.yul\":4277:4278   */\n      dup3\n        /* \"#utility.yul\":4274:4275   */\n      dup3\n        /* \"#utility.yul\":4270:4279   */\n      add\n        /* \"#utility.yul\":4263:4279   */\n      swap1\n      pop\n        /* \"#utility.yul\":4298:4301   */\n      dup1\n        /* \"#utility.yul\":4295:4296   */\n      dup3\n        /* \"#utility.yul\":4292:4302   */\n      gt\n        /* \"#utility.yul\":4289:4325   */\n      iszero\n      tag_157\n      jumpi\n        /* \"#utility.yul\":4305:4323   */\n      tag_158\n      tag_96\n      jump\t// in\n    tag_158:\n        /* \"#utility.yul\":4289:4325   */\n    tag_157:\n        /* \"#utility.yul\":4141:4332   */\n      swap3\n      swap2\n      pop\n      pop\n      jump\t// out\n        /* \"#utility.yul\":4338:4507   */\n    tag_97:\n        /* \"#utility.yul\":4422:4433   */\n      0x00\n        /* \"#utility.yul\":4456:4462   */\n      dup3\n        /* \"#utility.yul\":4451:4454   */\n      dup3\n        /* \"#utility.yul\":4444:4463   */\n      mstore\n        /* \"#utility.yul\":4496:4500   */\n      0x20\n        /* \"#utility.yul\":4491:4494   */\n      dup3\n        /* \"#utility.yul\":4487:4501   */\n      add\n        /* \"#utility.yul\":4472:4501   */\n      swap1\n      pop\n        /* \"#utility.yul\":4338:4507   */\n      swap3\n      swap2\n      pop\n      pop\n      jump\t// out\n        /* \"#utility.yul\":4513:4688   */\n    tag_98:\n        /* \"#utility.yul\":4653:4680   */\n      0x416d6f756e742073686f756c64206e6f74206265207a65726f00000000000000\n        /* \"#utility.yul\":4649:4650   */\n      0x00\n        /* \"#utility.yul\":4641:4647   */\n      dup3\n        /* \"#utility.yul\":4637:4651   */\n      add\n        /* \"#utility.yul\":4630:4681   */\n      mstore\n        /* \"#utility.yul\":4513:4688   */\n      pop\n      jump\t// out\n        /* \"#utility.yul\":4694:5060   */\n    tag_99:\n        /* \"#utility.yul\":4836:4839   */\n      0x00\n        /* \"#utility.yul\":4857:4924   */\n      tag_162\n        /* \"#utility.yul\":4921:4923   */\n      0x19\n        /* \"#utility.yul\":4916:4919   */\n      dup4\n        /* \"#utility.yul\":4857:4924   */\n      tag_97\n      jump\t// in\n    tag_162:\n        /* \"#utility.yul\":4850:4924   */\n      swap2\n      pop\n        /* \"#utility.yul\":4933:5026   */\n      tag_163\n        /* \"#utility.yul\":5022:5025   */\n      dup3\n        /* \"#utility.yul\":4933:5026   */\n      tag_98\n      jump\t// in\n    tag_163:\n        /* \"#utility.yul\":5051:5053   */\n      0x20\n        /* \"#utility.yul\":5046:5049   */\n      dup3\n        /* \"#utility.yul\":5042:5054   */\n      add\n        /* \"#utility.yul\":5035:5054   */\n      swap1\n      pop\n        /* \"#utility.yul\":4694:5060   */\n      swap2\n      swap1\n      pop\n      jump\t// out\n        /* \"#utility.yul\":5066:5485   */\n    tag_73:\n        /* \"#utility.yul\":5232:5236   */\n      0x00\n        /* \"#utility.yul\":5270:5272   */\n      0x20\n        /* \"#utility.yul\":5259:5268   */\n      dup3\n        /* \"#utility.yul\":5255:5273   */\n      add\n        /* \"#utility.yul\":5247:5273   */\n      swap1\n      pop\n        /* \"#utility.yul\":5319:5328   */\n      dup2\n        /* \"#utility.yul\":5313:5317   */\n      dup2\n        /* \"#utility.yul\":5309:5329   */\n      sub\n        /* \"#utility.yul\":5305:5306   */\n      0x00\n        /* \"#utility.yul\":5294:5303   */\n      dup4\n        /* \"#utility.yul\":5290:5307   */\n      add\n        /* \"#utility.yul\":5283:5330   */\n      mstore\n        /* \"#utility.yul\":5347:5478   */\n      tag_165\n        /* \"#utility.yul\":5473:5477   */\n      dup2\n        /* \"#utility.yul\":5347:5478   */\n      tag_99\n      jump\t// in\n    tag_165:\n        /* \"#utility.yul\":5339:5478   */\n      swap1\n      pop\n        /* \"#utility.yul\":5066:5485   */\n      swap2\n      swap1\n      pop\n      jump\t// out\n\n    auxdata: 0xa2646970667358221220fadb93369d83099bd0482949c0df33b20ae4de53bec10d2b02d3b22d94db3f2964736f6c63430008120033\n}\n",
				"bytecode": {
					"linkReferences": {},
					"object": "608060405234801561001057600080fd5b5061094e806100206000396000f3fe60806040526004361061007f5760003560e01c8063884edad91161004e578063884edad914610131578063d0e30db01461015a578063e1fffcc414610164578063e3d670d71461018d57610086565b80630ebeb29d1461008b5780632ccb1b30146100b45780632e1a7d4d146100dd578063722713f71461010657610086565b3661008657005b600080fd5b34801561009757600080fd5b506100b260048036038101906100ad91906106ed565b6101ca565b005b3480156100c057600080fd5b506100db60048036038101906100d69190610740565b610271565b005b3480156100e957600080fd5b5061010460048036038101906100ff9190610780565b61031f565b005b34801561011257600080fd5b5061011b6103be565b60405161012891906107bc565b60405180910390f35b34801561013d57600080fd5b5061015860048036038101906101539190610740565b610404565b005b61016261045d565b005b34801561017057600080fd5b5061018b60048036038101906101869190610740565b6104b4565b005b34801561019957600080fd5b506101b460048036038101906101af91906107d7565b610505565b6040516101c191906107bc565b60405180910390f35b6000829050816000803373ffffffffffffffffffffffffffffffffffffffff1673ffffffffffffffffffffffffffffffffffffffff168152602001908152602001600020600082825461021d9190610833565b925050819055508073ffffffffffffffffffffffffffffffffffffffff166108fc839081150290604051600060405180830381858888f1935050505015801561026a573d6000803e3d6000fd5b5050505050565b806000803373ffffffffffffffffffffffffffffffffffffffff1673ffffffffffffffffffffffffffffffffffffffff16815260200190815260200160002060008282546102bf9190610833565b92505081905550806000808473ffffffffffffffffffffffffffffffffffffffff1673ffffffffffffffffffffffffffffffffffffffff16815260200190815260200160002060008282546103149190610867565b925050819055505050565b806000803373ffffffffffffffffffffffffffffffffffffffff1673ffffffffffffffffffffffffffffffffffffffff168152602001908152602001600020600082825461036d9190610833565b925050819055503373ffffffffffffffffffffffffffffffffffffffff166108fc829081150290604051600060405180830381858888f193505050501580156103ba573d6000803e3d6000fd5b5050565b60008060003373ffffffffffffffffffffffffffffffffffffffff1673ffffffffffffffffffffffffffffffffffffffff16815260200190815260200160002054905090565b806000808473ffffffffffffffffffffffffffffffffffffffff1673ffffffffffffffffffffffffffffffffffffffff16815260200190815260200160002054101561044f57600080fd5b610459828261051d565b5050565b346000803373ffffffffffffffffffffffffffffffffffffffff1673ffffffffffffffffffffffffffffffffffffffff16815260200190815260200160002060008282546104ab9190610867565b92505081905550565b600081036104f7576040517f08c379a00000000000000000000000000000000000000000000000000000000081526004016104ee906108f8565b60405180910390fd5b61050182826105bd565b5050565b60006020528060005260406000206000915090505481565b806000808473ffffffffffffffffffffffffffffffffffffffff1673ffffffffffffffffffffffffffffffffffffffff168152602001908152602001600020600082825461056b9190610833565b925050819055503373ffffffffffffffffffffffffffffffffffffffff166108fc829081150290604051600060405180830381858888f193505050501580156105b8573d6000803e3d6000fd5b505050565b806000808473ffffffffffffffffffffffffffffffffffffffff1673ffffffffffffffffffffffffffffffffffffffff168152602001908152602001600020600082825461060b9190610867565b925050819055505050565b600080fd5b600073ffffffffffffffffffffffffffffffffffffffff82169050919050565b60006106468261061b565b9050919050565b6106568161063b565b811461066157600080fd5b50565b6000813590506106738161064d565b92915050565b60006106848261061b565b9050919050565b61069481610679565b811461069f57600080fd5b50565b6000813590506106b18161068b565b92915050565b6000819050919050565b6106ca816106b7565b81146106d557600080fd5b50565b6000813590506106e7816106c1565b92915050565b60008060006060848603121561070657610705610616565b5b600061071486828701610664565b9350506020610725868287016106a2565b9250506040610736868287016106d8565b9150509250925092565b6000806040838503121561075757610756610616565b5b600061076585828601610664565b9250506020610776858286016106d8565b9150509250929050565b60006020828403121561079657610795610616565b5b60006107a4848285016106d8565b91505092915050565b6107b6816106b7565b82525050565b60006020820190506107d160008301846107ad565b92915050565b6000602082840312156107ed576107ec610616565b5b60006107fb84828501610664565b91505092915050565b7f4e487b7100000000000000000000000000000000000000000000000000000000600052601160045260246000fd5b600061083e826106b7565b9150610849836106b7565b925082820390508181111561086157610860610804565b5b92915050565b6000610872826106b7565b915061087d836106b7565b925082820190508082111561089557610894610804565b5b92915050565b600082825260208201905092915050565b7f416d6f756e742073686f756c64206e6f74206265207a65726f00000000000000600082015250565b60006108e260198361089b565b91506108ed826108ac565b602082019050919050565b60006020820190508181036000830152610911816108d5565b905091905056fea2646970667358221220fadb93369d83099bd0482949c0df33b20ae4de53bec10d2b02d3b22d94db3f2964736f6c63430008120033",
					"opcodes": "PUSH1 0x80 PUSH1 0x40 MSTORE CALLVALUE DUP1 ISZERO PUSH2 0x10 JUMPI PUSH1 0x0 DUP1 REVERT JUMPDEST POP PUSH2 0x94E DUP1 PUSH2 0x20 PUSH1 0x0 CODECOPY PUSH1 0x0 RETURN INVALID PUSH1 0x80 PUSH1 0x40 MSTORE PUSH1 0x4 CALLDATASIZE LT PUSH2 0x7F JUMPI PUSH1 0x0 CALLDATALOAD PUSH1 0xE0 SHR DUP1 PUSH4 0x884EDAD9 GT PUSH2 0x4E JUMPI DUP1 PUSH4 0x884EDAD9 EQ PUSH2 0x131 JUMPI DUP1 PUSH4 0xD0E30DB0 EQ PUSH2 0x15A JUMPI DUP1 PUSH4 0xE1FFFCC4 EQ PUSH2 0x164 JUMPI DUP1 PUSH4 0xE3D670D7 EQ PUSH2 0x18D JUMPI PUSH2 0x86 JUMP JUMPDEST DUP1 PUSH4 0xEBEB29D EQ PUSH2 0x8B JUMPI DUP1 PUSH4 0x2CCB1B30 EQ PUSH2 0xB4 JUMPI DUP1 PUSH4 0x2E1A7D4D EQ PUSH2 0xDD JUMPI DUP1 PUSH4 0x722713F7 EQ PUSH2 0x106 JUMPI PUSH2 0x86 JUMP JUMPDEST CALLDATASIZE PUSH2 0x86 JUMPI STOP JUMPDEST PUSH1 0x0 DUP1 REVERT JUMPDEST CALLVALUE DUP1 ISZERO PUSH2 0x97 JUMPI PUSH1 0x0 DUP1 REVERT JUMPDEST POP PUSH2 0xB2 PUSH1 0x4 DUP1 CALLDATASIZE SUB DUP2 ADD SWAP1 PUSH2 0xAD SWAP2 SWAP1 PUSH2 0x6ED JUMP JUMPDEST PUSH2 0x1CA JUMP JUMPDEST STOP JUMPDEST CALLVALUE DUP1 ISZERO PUSH2 0xC0 JUMPI PUSH1 0x0 DUP1 REVERT JUMPDEST POP PUSH2 0xDB PUSH1 0x4 DUP1 CALLDATASIZE SUB DUP2 ADD SWAP1 PUSH2 0xD6 SWAP2 SWAP1 PUSH2 0x740 JUMP JUMPDEST PUSH2 0x271 JUMP JUMPDEST STOP JUMPDEST CALLVALUE DUP1 ISZERO PUSH2 0xE9 JUMPI PUSH1 0x0 DUP1 REVERT JUMPDEST POP PUSH2 0x104 PUSH1 0x4 DUP1 CALLDATASIZE SUB DUP2 ADD SWAP1 PUSH2 0xFF SWAP2 SWAP1 PUSH2 0x780 JUMP JUMPDEST PUSH2 0x31F JUMP JUMPDEST STOP JUMPDEST CALLVALUE DUP1 ISZERO PUSH2 0x112 JUMPI PUSH1 0x0 DUP1 REVERT JUMPDEST POP PUSH2 0x11B PUSH2 0x3BE JUMP JUMPDEST PUSH1 0x40 MLOAD PUSH2 0x128 SWAP2 SWAP1 PUSH2 0x7BC JUMP JUMPDEST PUSH1 0x40 MLOAD DUP1 SWAP2 SUB SWAP1 RETURN JUMPDEST CALLVALUE DUP1 ISZERO PUSH2 0x13D JUMPI PUSH1 0x0 DUP1 REVERT JUMPDEST POP PUSH2 0x158 PUSH1 0x4 DUP1 CALLDATASIZE SUB DUP2 ADD SWAP1 PUSH2 0x153 SWAP2 SWAP1 PUSH2 0x740 JUMP JUMPDEST PUSH2 0x404 JUMP JUMPDEST STOP JUMPDEST PUSH2 0x162 PUSH2 0x45D JUMP JUMPDEST STOP JUMPDEST CALLVALUE DUP1 ISZERO PUSH2 0x170 JUMPI PUSH1 0x0 DUP1 REVERT JUMPDEST POP PUSH2 0x18B PUSH1 0x4 DUP1 CALLDATASIZE SUB DUP2 ADD SWAP1 PUSH2 0x186 SWAP2 SWAP1 PUSH2 0x740 JUMP JUMPDEST PUSH2 0x4B4 JUMP JUMPDEST STOP JUMPDEST CALLVALUE DUP1 ISZERO PUSH2 0x199 JUMPI PUSH1 0x0 DUP1 REVERT JUMPDEST POP PUSH2 0x1B4 PUSH1 0x4 DUP1 CALLDATASIZE SUB DUP2 ADD SWAP1 PUSH2 0x1AF SWAP2 SWAP1 PUSH2 0x7D7 JUMP JUMPDEST PUSH2 0x505 JUMP JUMPDEST PUSH1 0x40 MLOAD PUSH2 0x1C1 SWAP2 SWAP1 PUSH2 0x7BC JUMP JUMPDEST PUSH1 0x40 MLOAD DUP1 SWAP2 SUB SWAP1 RETURN JUMPDEST PUSH1 0x0 DUP3 SWAP1 POP DUP2 PUSH1 0x0 DUP1 CALLER PUSH20 0xFFFFFFFFFFFFFFFFFFFFFFFFFFFFFFFFFFFFFFFF AND PUSH20 0xFFFFFFFFFFFFFFFFFFFFFFFFFFFFFFFFFFFFFFFF AND DUP2 MSTORE PUSH1 0x20 ADD SWAP1 DUP2 MSTORE PUSH1 0x20 ADD PUSH1 0x0 KECCAK256 PUSH1 0x0 DUP3 DUP3 SLOAD PUSH2 0x21D SWAP2 SWAP1 PUSH2 0x833 JUMP JUMPDEST SWAP3 POP POP DUP2 SWAP1 SSTORE POP DUP1 PUSH20 0xFFFFFFFFFFFFFFFFFFFFFFFFFFFFFFFFFFFFFFFF AND PUSH2 0x8FC DUP4 SWAP1 DUP2 ISZERO MUL SWAP1 PUSH1 0x40 MLOAD PUSH1 0x0 PUSH1 0x40 MLOAD DUP1 DUP4 SUB DUP2 DUP6 DUP9 DUP9 CALL SWAP4 POP POP POP POP ISZERO DUP1 ISZERO PUSH2 0x26A JUMPI RETURNDATASIZE PUSH1 0x0 DUP1 RETURNDATACOPY RETURNDATASIZE PUSH1 0x0 REVERT JUMPDEST POP POP POP POP POP JUMP JUMPDEST DUP1 PUSH1 0x0 DUP1 CALLER PUSH20 0xFFFFFFFFFFFFFFFFFFFFFFFFFFFFFFFFFFFFFFFF AND PUSH20 0xFFFFFFFFFFFFFFFFFFFFFFFFFFFFFFFFFFFFFFFF AND DUP2 MSTORE PUSH1 0x20 ADD SWAP1 DUP2 MSTORE PUSH1 0x20 ADD PUSH1 0x0 KECCAK256 PUSH1 0x0 DUP3 DUP3 SLOAD PUSH2 0x2BF SWAP2 SWAP1 PUSH2 0x833 JUMP JUMPDEST SWAP3 POP POP DUP2 SWAP1 SSTORE POP DUP1 PUSH1 0x0 DUP1 DUP5 PUSH20 0xFFFFFFFFFFFFFFFFFFFFFFFFFFFFFFFFFFFFFFFF AND PUSH20 0xFFFFFFFFFFFFFFFFFFFFFFFFFFFFFFFFFFFFFFFF AND DUP2 MSTORE PUSH1 0x20 ADD SWAP1 DUP2 MSTORE PUSH1 0x20 ADD PUSH1 0x0 KECCAK256 PUSH1 0x0 DUP3 DUP3 SLOAD PUSH2 0x314 SWAP2 SWAP1 PUSH2 0x867 JUMP JUMPDEST SWAP3 POP POP DUP2 SWAP1 SSTORE POP POP POP JUMP JUMPDEST DUP1 PUSH1 0x0 DUP1 CALLER PUSH20 0xFFFFFFFFFFFFFFFFFFFFFFFFFFFFFFFFFFFFFFFF AND PUSH20 0xFFFFFFFFFFFFFFFFFFFFFFFFFFFFFFFFFFFFFFFF AND DUP2 MSTORE PUSH1 0x20 ADD SWAP1 DUP2 MSTORE PUSH1 0x20 ADD PUSH1 0x0 KECCAK256 PUSH1 0x0 DUP3 DUP3 SLOAD PUSH2 0x36D SWAP2 SWAP1 PUSH2 0x833 JUMP JUMPDEST SWAP3 POP POP DUP2 SWAP1 SSTORE POP CALLER PUSH20 0xFFFFFFFFFFFFFFFFFFFFFFFFFFFFFFFFFFFFFFFF AND PUSH2 0x8FC DUP3 SWAP1 DUP2 ISZERO MUL SWAP1 PUSH1 0x40 MLOAD PUSH1 0x0 PUSH1 0x40 MLOAD DUP1 DUP4 SUB DUP2 DUP6 DUP9 DUP9 CALL SWAP4 POP POP POP POP ISZERO DUP1 ISZERO PUSH2 0x3BA JUMPI RETURNDATASIZE PUSH1 0x0 DUP1 RETURNDATACOPY RETURNDATASIZE PUSH1 0x0 REVERT JUMPDEST POP POP JUMP JUMPDEST PUSH1 0x0 DUP1 PUSH1 0x0 CALLER PUSH20 0xFFFFFFFFFFFFFFFFFFFFFFFFFFFFFFFFFFFFFFFF AND PUSH20 0xFFFFFFFFFFFFFFFFFFFFFFFFFFFFFFFFFFFFFFFF AND DUP2 MSTORE PUSH1 0x20 ADD SWAP1 DUP2 MSTORE PUSH1 0x20 ADD PUSH1 0x0 KECCAK256 SLOAD SWAP1 POP SWAP1 JUMP JUMPDEST DUP1 PUSH1 0x0 DUP1 DUP5 PUSH20 0xFFFFFFFFFFFFFFFFFFFFFFFFFFFFFFFFFFFFFFFF AND PUSH20 0xFFFFFFFFFFFFFFFFFFFFFFFFFFFFFFFFFFFFFFFF AND DUP2 MSTORE PUSH1 0x20 ADD SWAP1 DUP2 MSTORE PUSH1 0x20 ADD PUSH1 0x0 KECCAK256 SLOAD LT ISZERO PUSH2 0x44F JUMPI PUSH1 0x0 DUP1 REVERT JUMPDEST PUSH2 0x459 DUP3 DUP3 PUSH2 0x51D JUMP JUMPDEST POP POP JUMP JUMPDEST CALLVALUE PUSH1 0x0 DUP1 CALLER PUSH20 0xFFFFFFFFFFFFFFFFFFFFFFFFFFFFFFFFFFFFFFFF AND PUSH20 0xFFFFFFFFFFFFFFFFFFFFFFFFFFFFFFFFFFFFFFFF AND DUP2 MSTORE PUSH1 0x20 ADD SWAP1 DUP2 MSTORE PUSH1 0x20 ADD PUSH1 0x0 KECCAK256 PUSH1 0x0 DUP3 DUP3 SLOAD PUSH2 0x4AB SWAP2 SWAP1 PUSH2 0x867 JUMP JUMPDEST SWAP3 POP POP DUP2 SWAP1 SSTORE POP JUMP JUMPDEST PUSH1 0x0 DUP2 SUB PUSH2 0x4F7 JUMPI PUSH1 0x40 MLOAD PUSH32 0x8C379A000000000000000000000000000000000000000000000000000000000 DUP2 MSTORE PUSH1 0x4 ADD PUSH2 0x4EE SWAP1 PUSH2 0x8F8 JUMP JUMPDEST PUSH1 0x40 MLOAD DUP1 SWAP2 SUB SWAP1 REVERT JUMPDEST PUSH2 0x501 DUP3 DUP3 PUSH2 0x5BD JUMP JUMPDEST POP POP JUMP JUMPDEST PUSH1 0x0 PUSH1 0x20 MSTORE DUP1 PUSH1 0x0 MSTORE PUSH1 0x40 PUSH1 0x0 KECCAK256 PUSH1 0x0 SWAP2 POP SWAP1 POP SLOAD DUP2 JUMP JUMPDEST DUP1 PUSH1 0x0 DUP1 DUP5 PUSH20 0xFFFFFFFFFFFFFFFFFFFFFFFFFFFFFFFFFFFFFFFF AND PUSH20 0xFFFFFFFFFFFFFFFFFFFFFFFFFFFFFFFFFFFFFFFF AND DUP2 MSTORE PUSH1 0x20 ADD SWAP1 DUP2 MSTORE PUSH1 0x20 ADD PUSH1 0x0 KECCAK256 PUSH1 0x0 DUP3 DUP3 SLOAD PUSH2 0x56B SWAP2 SWAP1 PUSH2 0x833 JUMP JUMPDEST SWAP3 POP POP DUP2 SWAP1 SSTORE POP CALLER PUSH20 0xFFFFFFFFFFFFFFFFFFFFFFFFFFFFFFFFFFFFFFFF AND PUSH2 0x8FC DUP3 SWAP1 DUP2 ISZERO MUL SWAP1 PUSH1 0x40 MLOAD PUSH1 0x0 PUSH1 0x40 MLOAD DUP1 DUP4 SUB DUP2 DUP6 DUP9 DUP9 CALL SWAP4 POP POP POP POP ISZERO DUP1 ISZERO PUSH2 0x5B8 JUMPI RETURNDATASIZE PUSH1 0x0 DUP1 RETURNDATACOPY RETURNDATASIZE PUSH1 0x0 REVERT JUMPDEST POP POP POP JUMP JUMPDEST DUP1 PUSH1 0x0 DUP1 DUP5 PUSH20 0xFFFFFFFFFFFFFFFFFFFFFFFFFFFFFFFFFFFFFFFF AND PUSH20 0xFFFFFFFFFFFFFFFFFFFFFFFFFFFFFFFFFFFFFFFF AND DUP2 MSTORE PUSH1 0x20 ADD SWAP1 DUP2 MSTORE PUSH1 0x20 ADD PUSH1 0x0 KECCAK256 PUSH1 0x0 DUP3 DUP3 SLOAD PUSH2 0x60B SWAP2 SWAP1 PUSH2 0x867 JUMP JUMPDEST SWAP3 POP POP DUP2 SWAP1 SSTORE POP POP POP JUMP JUMPDEST PUSH1 0x0 DUP1 REVERT JUMPDEST PUSH1 0x0 PUSH20 0xFFFFFFFFFFFFFFFFFFFFFFFFFFFFFFFFFFFFFFFF DUP3 AND SWAP1 POP SWAP2 SWAP1 POP JUMP JUMPDEST PUSH1 0x0 PUSH2 0x646 DUP3 PUSH2 0x61B JUMP JUMPDEST SWAP1 POP SWAP2 SWAP1 POP JUMP JUMPDEST PUSH2 0x656 DUP2 PUSH2 0x63B JUMP JUMPDEST DUP2 EQ PUSH2 0x661 JUMPI PUSH1 0x0 DUP1 REVERT JUMPDEST POP JUMP JUMPDEST PUSH1 0x0 DUP2 CALLDATALOAD SWAP1 POP PUSH2 0x673 DUP2 PUSH2 0x64D JUMP JUMPDEST SWAP3 SWAP2 POP POP JUMP JUMPDEST PUSH1 0x0 PUSH2 0x684 DUP3 PUSH2 0x61B JUMP JUMPDEST SWAP1 POP SWAP2 SWAP1 POP JUMP JUMPDEST PUSH2 0x694 DUP2 PUSH2 0x679 JUMP JUMPDEST DUP2 EQ PUSH2 0x69F JUMPI PUSH1 0x0 DUP1 REVERT JUMPDEST POP JUMP JUMPDEST PUSH1 0x0 DUP2 CALLDATALOAD SWAP1 POP PUSH2 0x6B1 DUP2 PUSH2 0x68B JUMP JUMPDEST SWAP3 SWAP2 POP POP JUMP JUMPDEST PUSH1 0x0 DUP2 SWAP1 POP SWAP2 SWAP1 POP JUMP JUMPDEST PUSH2 0x6CA DUP2 PUSH2 0x6B7 JUMP JUMPDEST DUP2 EQ PUSH2 0x6D5 JUMPI PUSH1 0x0 DUP1 REVERT JUMPDEST POP JUMP JUMPDEST PUSH1 0x0 DUP2 CALLDATALOAD SWAP1 POP PUSH2 0x6E7 DUP2 PUSH2 0x6C1 JUMP JUMPDEST SWAP3 SWAP2 POP POP JUMP JUMPDEST PUSH1 0x0 DUP1 PUSH1 0x0 PUSH1 0x60 DUP5 DUP7 SUB SLT ISZERO PUSH2 0x706 JUMPI PUSH2 0x705 PUSH2 0x616 JUMP JUMPDEST JUMPDEST PUSH1 0x0 PUSH2 0x714 DUP7 DUP3 DUP8 ADD PUSH2 0x664 JUMP JUMPDEST SWAP4 POP POP PUSH1 0x20 PUSH2 0x725 DUP7 DUP3 DUP8 ADD PUSH2 0x6A2 JUMP JUMPDEST SWAP3 POP POP PUSH1 0x40 PUSH2 0x736 DUP7 DUP3 DUP8 ADD PUSH2 0x6D8 JUMP JUMPDEST SWAP2 POP POP SWAP3 POP SWAP3 POP SWAP3 JUMP JUMPDEST PUSH1 0x0 DUP1 PUSH1 0x40 DUP4 DUP6 SUB SLT ISZERO PUSH2 0x757 JUMPI PUSH2 0x756 PUSH2 0x616 JUMP JUMPDEST JUMPDEST PUSH1 0x0 PUSH2 0x765 DUP6 DUP3 DUP7 ADD PUSH2 0x664 JUMP JUMPDEST SWAP3 POP POP PUSH1 0x20 PUSH2 0x776 DUP6 DUP3 DUP7 ADD PUSH2 0x6D8 JUMP JUMPDEST SWAP2 POP POP SWAP3 POP SWAP3 SWAP1 POP JUMP JUMPDEST PUSH1 0x0 PUSH1 0x20 DUP3 DUP5 SUB SLT ISZERO PUSH2 0x796 JUMPI PUSH2 0x795 PUSH2 0x616 JUMP JUMPDEST JUMPDEST PUSH1 0x0 PUSH2 0x7A4 DUP5 DUP3 DUP6 ADD PUSH2 0x6D8 JUMP JUMPDEST SWAP2 POP POP SWAP3 SWAP2 POP POP JUMP JUMPDEST PUSH2 0x7B6 DUP2 PUSH2 0x6B7 JUMP JUMPDEST DUP3 MSTORE POP POP JUMP JUMPDEST PUSH1 0x0 PUSH1 0x20 DUP3 ADD SWAP1 POP PUSH2 0x7D1 PUSH1 0x0 DUP4 ADD DUP5 PUSH2 0x7AD JUMP JUMPDEST SWAP3 SWAP2 POP POP JUMP JUMPDEST PUSH1 0x0 PUSH1 0x20 DUP3 DUP5 SUB SLT ISZERO PUSH2 0x7ED JUMPI PUSH2 0x7EC PUSH2 0x616 JUMP JUMPDEST JUMPDEST PUSH1 0x0 PUSH2 0x7FB DUP5 DUP3 DUP6 ADD PUSH2 0x664 JUMP JUMPDEST SWAP2 POP POP SWAP3 SWAP2 POP POP JUMP JUMPDEST PUSH32 0x4E487B7100000000000000000000000000000000000000000000000000000000 PUSH1 0x0 MSTORE PUSH1 0x11 PUSH1 0x4 MSTORE PUSH1 0x24 PUSH1 0x0 REVERT JUMPDEST PUSH1 0x0 PUSH2 0x83E DUP3 PUSH2 0x6B7 JUMP JUMPDEST SWAP2 POP PUSH2 0x849 DUP4 PUSH2 0x6B7 JUMP JUMPDEST SWAP3 POP DUP3 DUP3 SUB SWAP1 POP DUP2 DUP2 GT ISZERO PUSH2 0x861 JUMPI PUSH2 0x860 PUSH2 0x804 JUMP JUMPDEST JUMPDEST SWAP3 SWAP2 POP POP JUMP JUMPDEST PUSH1 0x0 PUSH2 0x872 DUP3 PUSH2 0x6B7 JUMP JUMPDEST SWAP2 POP PUSH2 0x87D DUP4 PUSH2 0x6B7 JUMP JUMPDEST SWAP3 POP DUP3 DUP3 ADD SWAP1 POP DUP1 DUP3 GT ISZERO PUSH2 0x895 JUMPI PUSH2 0x894 PUSH2 0x804 JUMP JUMPDEST JUMPDEST SWAP3 SWAP2 POP POP JUMP JUMPDEST PUSH1 0x0 DUP3 DUP3 MSTORE PUSH1 0x20 DUP3 ADD SWAP1 POP SWAP3 SWAP2 POP POP JUMP JUMPDEST PUSH32 0x416D6F756E742073686F756C64206E6F74206265207A65726F00000000000000 PUSH1 0x0 DUP3 ADD MSTORE POP JUMP JUMPDEST PUSH1 0x0 PUSH2 0x8E2 PUSH1 0x19 DUP4 PUSH2 0x89B JUMP JUMPDEST SWAP2 POP PUSH2 0x8ED DUP3 PUSH2 0x8AC JUMP JUMPDEST PUSH1 0x20 DUP3 ADD SWAP1 POP SWAP2 SWAP1 POP JUMP JUMPDEST PUSH1 0x0 PUSH1 0x20 DUP3 ADD SWAP1 POP DUP2 DUP2 SUB PUSH1 0x0 DUP4 ADD MSTORE PUSH2 0x911 DUP2 PUSH2 0x8D5 JUMP JUMPDEST SWAP1 POP SWAP2 SWAP1 POP JUMP INVALID LOG2 PUSH5 0x6970667358 0x22 SLT KECCAK256 STATICCALL 0xDB SWAP4 CALLDATASIZE SWAP14 DUP4 MULMOD SWAP12 0xD0 BASEFEE 0x29 0x49 0xC0 0xDF CALLER 0xB2 EXP 0xE4 0xDE MSTORE8 0xBE 0xC1 0xD 0x2B MUL 0xD3 0xB2 0x2D SWAP5 0xDB EXTCODEHASH 0x29 PUSH5 0x736F6C6343 STOP ADDMOD SLT STOP CALLER "
				},
				"gasEstimates": {
					"creation": {
						"codeDepositCost": "476400",
						"executionCost": "511",
						"totalCost": "476911"
					},
					"external": {
						"Deposit(address,uint256)": "infinite",
						"Withdraw(address,uint256)": "infinite",
						"balance(address)": "2880",
						"balanceOf()": "2593",
						"deposit()": "infinite",
						"transferTo(address,uint256)": "infinite",
						"transferWire(address,address,uint256)": "infinite",
						"withdraw(uint256)": "infinite"
					},
					"internal": {
						"_deposit(address,uint256)": "infinite",
						"_withdraw(address,uint256)": "infinite",
						"_withdraw2(address,uint256)": "infinite"
					}
				},
				"methodIdentifiers": {
					"Deposit(address,uint256)": "e1fffcc4",
					"Withdraw(address,uint256)": "884edad9",
					"balance(address)": "e3d670d7",
					"balanceOf()": "722713f7",
					"deposit()": "d0e30db0",
					"transferTo(address,uint256)": "2ccb1b30",
					"transferWire(address,address,uint256)": "0ebeb29d",
					"withdraw(uint256)": "2e1a7d4d"
				}
			},
			"storageLayout": {
				"storage": [
					{
						"astId": 254,
						"contract": "contracts/0525/Note.sol:Bank",
						"label": "balance",
						"offset": 0,
						"slot": "0",
						"type": "t_mapping(t_address,t_uint256)"
					}
				],
				"types": {
					"t_address": {
						"encoding": "inplace",
						"label": "address",
						"numberOfBytes": "20"
					},
					"t_mapping(t_address,t_uint256)": {
						"encoding": "mapping",
						"key": "t_address",
						"label": "mapping(address => uint256)",
						"numberOfBytes": "32",
						"value": "t_uint256"
					},
					"t_uint256": {
						"encoding": "inplace",
						"label": "uint256",
						"numberOfBytes": "32"
					}
				}
			},
			"userdoc": {
				"kind": "user",
				"methods": {},
				"version": 1
			}
		}
	}
}