{
	"contracts/0509/note.sol": {
		"Note2": {
			"abi": [
				{
					"inputs": [],
					"name": "forLoop",
					"outputs": [
						{
							"internalType": "uint256",
							"name": "",
							"type": "uint256"
						}
					],
					"stateMutability": "pure",
					"type": "function"
				},
				{
					"inputs": [],
					"name": "forLoop2",
					"outputs": [
						{
							"internalType": "uint256",
							"name": "",
							"type": "uint256"
						},
						{
							"internalType": "uint256",
							"name": "",
							"type": "uint256"
						}
					],
					"stateMutability": "pure",
					"type": "function"
				},
				{
					"inputs": [],
					"name": "forLoop3",
					"outputs": [
						{
							"internalType": "uint256",
							"name": "",
							"type": "uint256"
						},
						{
							"internalType": "uint256",
							"name": "",
							"type": "uint256"
						}
					],
					"stateMutability": "pure",
					"type": "function"
				},
				{
					"inputs": [],
					"name": "forLoop4",
					"outputs": [
						{
							"internalType": "uint256",
							"name": "",
							"type": "uint256"
						}
					],
					"stateMutability": "view",
					"type": "function"
				},
				{
					"inputs": [],
					"name": "forLoop5",
					"outputs": [
						{
							"internalType": "uint256",
							"name": "",
							"type": "uint256"
						}
					],
					"stateMutability": "view",
					"type": "function"
				},
				{
					"inputs": [],
					"name": "forLoop6",
					"outputs": [
						{
							"internalType": "uint256",
							"name": "",
							"type": "uint256"
						}
					],
					"stateMutability": "view",
					"type": "function"
				},
				{
					"inputs": [],
					"name": "getC",
					"outputs": [
						{
							"internalType": "uint256[4]",
							"name": "",
							"type": "uint256[4]"
						}
					],
					"stateMutability": "view",
					"type": "function"
				},
				{
					"inputs": [],
					"name": "getD",
					"outputs": [
						{
							"internalType": "uint256[]",
							"name": "",
							"type": "uint256[]"
						}
					],
					"stateMutability": "view",
					"type": "function"
				},
				{
					"inputs": [
						{
							"internalType": "uint256",
							"name": "_n",
							"type": "uint256"
						}
					],
					"name": "pushA",
					"outputs": [],
					"stateMutability": "nonpayable",
					"type": "function"
				},
				{
					"inputs": [
						{
							"internalType": "uint256",
							"name": "_n",
							"type": "uint256"
						}
					],
					"name": "pushd",
					"outputs": [],
					"stateMutability": "nonpayable",
					"type": "function"
				}
			],
			"devdoc": {
				"kind": "dev",
				"methods": {},
				"version": 1
			},
			"evm": {
				"assembly": "    /* \"contracts/0509/note.sol\":2689:4156  contract Note2{... */\n  mstore(0x40, 0x80)\n  callvalue\n  dup1\n  iszero\n  tag_1\n  jumpi\n  0x00\n  dup1\n  revert\ntag_1:\n  pop\n  dataSize(sub_0)\n  dup1\n  dataOffset(sub_0)\n  0x00\n  codecopy\n  0x00\n  return\nstop\n\nsub_0: assembly {\n        /* \"contracts/0509/note.sol\":2689:4156  contract Note2{... */\n      mstore(0x40, 0x80)\n      callvalue\n      dup1\n      iszero\n      tag_1\n      jumpi\n      0x00\n      dup1\n      revert\n    tag_1:\n      pop\n      jumpi(tag_2, lt(calldatasize, 0x04))\n      shr(0xe0, calldataload(0x00))\n      dup1\n      0x4e744db2\n      gt\n      tag_13\n      jumpi\n      dup1\n      0x4e744db2\n      eq\n      tag_8\n      jumpi\n      dup1\n      0xa2375d1e\n      eq\n      tag_9\n      jumpi\n      dup1\n      0xd469d3f6\n      eq\n      tag_10\n      jumpi\n      dup1\n      0xde438f5c\n      eq\n      tag_11\n      jumpi\n      dup1\n      0xfc0e6008\n      eq\n      tag_12\n      jumpi\n      jump(tag_2)\n    tag_13:\n      dup1\n      0x1a14ff7a\n      eq\n      tag_3\n      jumpi\n      dup1\n      0x317e84d5\n      eq\n      tag_4\n      jumpi\n      dup1\n      0x40bb882d\n      eq\n      tag_5\n      jumpi\n      dup1\n      0x448381b2\n      eq\n      tag_6\n      jumpi\n      dup1\n      0x4c9262b4\n      eq\n      tag_7\n      jumpi\n    tag_2:\n      0x00\n      dup1\n      revert\n        /* \"contracts/0509/note.sol\":3893:3972  function getD() public view returns (uint[] memory) {... */\n    tag_3:\n      tag_14\n      tag_15\n      jump\t// in\n    tag_14:\n      mload(0x40)\n      tag_16\n      swap2\n      swap1\n      tag_17\n      jump\t// in\n    tag_16:\n      mload(0x40)\n      dup1\n      swap2\n      sub\n      swap1\n      return\n        /* \"contracts/0509/note.sol\":3469:3626  function forLoop4() public view returns(uint){... */\n    tag_4:\n      tag_18\n      tag_19\n      jump\t// in\n    tag_18:\n      mload(0x40)\n      tag_20\n      swap2\n      swap1\n      tag_21\n      jump\t// in\n    tag_20:\n      mload(0x40)\n      dup1\n      swap2\n      sub\n      swap1\n      return\n        /* \"contracts/0509/note.sol\":3306:3371  function pushA(uint _n) public {... */\n    tag_5:\n      tag_22\n      0x04\n      dup1\n      calldatasize\n      sub\n      dup2\n      add\n      swap1\n      tag_23\n      swap2\n      swap1\n      tag_24\n      jump\t// in\n    tag_23:\n      tag_25\n      jump\t// in\n    tag_22:\n      stop\n        /* \"contracts/0509/note.sol\":3827:3885  function pushd(uint _n)public{... */\n    tag_6:\n      tag_26\n      0x04\n      dup1\n      calldatasize\n      sub\n      dup2\n      add\n      swap1\n      tag_27\n      swap2\n      swap1\n      tag_24\n      jump\t// in\n    tag_27:\n      tag_28\n      jump\t// in\n    tag_26:\n      stop\n        /* \"contracts/0509/note.sol\":3634:3798  function forLoop5() public view returns(uint){... */\n    tag_7:\n      tag_29\n      tag_30\n      jump\t// in\n    tag_29:\n      mload(0x40)\n      tag_31\n      swap2\n      swap1\n      tag_21\n      jump\t// in\n    tag_31:\n      mload(0x40)\n      dup1\n      swap2\n      sub\n      swap1\n      return\n        /* \"contracts/0509/note.sol\":2878:3061  function forLoop2() public pure returns(uint,uint) {... */\n    tag_8:\n      tag_32\n      tag_33\n      jump\t// in\n    tag_32:\n      mload(0x40)\n      tag_34\n      swap3\n      swap2\n      swap1\n      tag_35\n      jump\t// in\n    tag_34:\n      mload(0x40)\n      dup1\n      swap2\n      sub\n      swap1\n      return\n        /* \"contracts/0509/note.sol\":3379:3461  function getC() public view returns (uint[4] memory) {... */\n    tag_9:\n      tag_36\n      tag_37\n      jump\t// in\n    tag_36:\n      mload(0x40)\n      tag_38\n      swap2\n      swap1\n      tag_39\n      jump\t// in\n    tag_38:\n      mload(0x40)\n      dup1\n      swap2\n      sub\n      swap1\n      return\n        /* \"contracts/0509/note.sol\":3980:4145  function forLoop6() public view returns(uint) {... */\n    tag_10:\n      tag_40\n      tag_41\n      jump\t// in\n    tag_40:\n      mload(0x40)\n      tag_42\n      swap2\n      swap1\n      tag_21\n      jump\t// in\n    tag_42:\n      mload(0x40)\n      dup1\n      swap2\n      sub\n      swap1\n      return\n        /* \"contracts/0509/note.sol\":3069:3253  function forLoop3() public pure returns(uint,uint) {... */\n    tag_11:\n      tag_43\n      tag_44\n      jump\t// in\n    tag_43:\n      mload(0x40)\n      tag_45\n      swap3\n      swap2\n      swap1\n      tag_35\n      jump\t// in\n    tag_45:\n      mload(0x40)\n      dup1\n      swap2\n      sub\n      swap1\n      return\n        /* \"contracts/0509/note.sol\":2710:2870  function forLoop() public pure returns(uint) {... */\n    tag_12:\n      tag_46\n      tag_47\n      jump\t// in\n    tag_46:\n      mload(0x40)\n      tag_48\n      swap2\n      swap1\n      tag_21\n      jump\t// in\n    tag_48:\n      mload(0x40)\n      dup1\n      swap2\n      sub\n      swap1\n      return\n        /* \"contracts/0509/note.sol\":3893:3972  function getD() public view returns (uint[] memory) {... */\n    tag_15:\n        /* \"contracts/0509/note.sol\":3930:3943  uint[] memory */\n      0x60\n        /* \"contracts/0509/note.sol\":3963:3964  d */\n      0x05\n        /* \"contracts/0509/note.sol\":3956:3964  return d */\n      dup1\n      sload\n      dup1\n      0x20\n      mul\n      0x20\n      add\n      mload(0x40)\n      swap1\n      dup2\n      add\n      0x40\n      mstore\n      dup1\n      swap3\n      swap2\n      swap1\n      dup2\n      dup2\n      mstore\n      0x20\n      add\n      dup3\n      dup1\n      sload\n      dup1\n      iszero\n      tag_50\n      jumpi\n      0x20\n      mul\n      dup3\n      add\n      swap2\n      swap1\n      0x00\n      mstore\n      keccak256(0x00, 0x20)\n      swap1\n    tag_51:\n      dup2\n      sload\n      dup2\n      mstore\n      0x20\n      add\n      swap1\n      0x01\n      add\n      swap1\n      dup1\n      dup4\n      gt\n      tag_51\n      jumpi\n    tag_50:\n      pop\n      pop\n      pop\n      pop\n      pop\n      swap1\n      pop\n        /* \"contracts/0509/note.sol\":3893:3972  function getD() public view returns (uint[] memory) {... */\n      swap1\n      jump\t// out\n        /* \"contracts/0509/note.sol\":3469:3626  function forLoop4() public view returns(uint){... */\n    tag_19:\n        /* \"contracts/0509/note.sol\":3509:3513  uint */\n      0x00\n        /* \"contracts/0509/note.sol\":3525:3531  uint a */\n      dup1\n        /* \"contracts/0509/note.sol\":3546:3552  uint i */\n      0x00\n        /* \"contracts/0509/note.sol\":3542:3600  for(uint i=0; i<4; i++){... */\n    tag_53:\n        /* \"contracts/0509/note.sol\":3558:3559  4 */\n      0x04\n        /* \"contracts/0509/note.sol\":3556:3557  i */\n      dup2\n        /* \"contracts/0509/note.sol\":3556:3559  i<4 */\n      lt\n        /* \"contracts/0509/note.sol\":3542:3600  for(uint i=0; i<4; i++){... */\n      iszero\n      tag_54\n      jumpi\n        /* \"contracts/0509/note.sol\":3584:3585  c */\n      0x00\n        /* \"contracts/0509/note.sol\":3586:3587  i */\n      dup2\n        /* \"contracts/0509/note.sol\":3584:3588  c[i] */\n      0x04\n      dup2\n      lt\n      tag_56\n      jumpi\n      tag_57\n      tag_58\n      jump\t// in\n    tag_57:\n    tag_56:\n      add\n      sload\n        /* \"contracts/0509/note.sol\":3582:3583  a */\n      dup3\n        /* \"contracts/0509/note.sol\":3582:3588  a+c[i] */\n      tag_60\n      swap2\n      swap1\n      tag_61\n      jump\t// in\n    tag_60:\n        /* \"contracts/0509/note.sol\":3580:3588  a=a+c[i] */\n      swap2\n      pop\n        /* \"contracts/0509/note.sol\":3561:3564  i++ */\n      dup1\n      dup1\n      tag_62\n      swap1\n      tag_63\n      jump\t// in\n    tag_62:\n      swap2\n      pop\n      pop\n        /* \"contracts/0509/note.sol\":3542:3600  for(uint i=0; i<4; i++){... */\n      jump(tag_53)\n    tag_54:\n      pop\n        /* \"contracts/0509/note.sol\":3617:3618  a */\n      dup1\n        /* \"contracts/0509/note.sol\":3610:3618  return a */\n      swap2\n      pop\n      pop\n        /* \"contracts/0509/note.sol\":3469:3626  function forLoop4() public view returns(uint){... */\n      swap1\n      jump\t// out\n        /* \"contracts/0509/note.sol\":3306:3371  function pushA(uint _n) public {... */\n    tag_25:\n        /* \"contracts/0509/note.sol\":3361:3363  _n */\n      dup1\n        /* \"contracts/0509/note.sol\":3348:3349  c */\n      0x00\n        /* \"contracts/0509/note.sol\":3350:3355  count */\n      0x04\n      0x00\n        /* \"contracts/0509/note.sol\":3350:3357  count++ */\n      dup2\n      sload\n      dup1\n      swap3\n      swap2\n      swap1\n      tag_65\n      swap1\n      tag_63\n      jump\t// in\n    tag_65:\n      swap2\n      swap1\n      pop\n      sstore\n        /* \"contracts/0509/note.sol\":3348:3358  c[count++] */\n      0x04\n      dup2\n      lt\n      tag_66\n      jumpi\n      tag_67\n      tag_58\n      jump\t// in\n    tag_67:\n    tag_66:\n      add\n        /* \"contracts/0509/note.sol\":3348:3363  c[count++] = _n */\n      dup2\n      swap1\n      sstore\n      pop\n        /* \"contracts/0509/note.sol\":3306:3371  function pushA(uint _n) public {... */\n      pop\n      jump\t// out\n        /* \"contracts/0509/note.sol\":3827:3885  function pushd(uint _n)public{... */\n    tag_28:\n        /* \"contracts/0509/note.sol\":3867:3868  d */\n      0x05\n        /* \"contracts/0509/note.sol\":3874:3876  _n */\n      dup2\n        /* \"contracts/0509/note.sol\":3867:3877  d.push(_n) */\n      swap1\n      dup1\n      0x01\n      dup2\n      sload\n      add\n      dup1\n      dup3\n      sstore\n      dup1\n      swap2\n      pop\n      pop\n      0x01\n      swap1\n      sub\n      swap1\n      0x00\n      mstore\n      keccak256(0x00, 0x20)\n      add\n      0x00\n      swap1\n      swap2\n      swap1\n      swap2\n      swap1\n      swap2\n      pop\n      sstore\n        /* \"contracts/0509/note.sol\":3827:3885  function pushd(uint _n)public{... */\n      pop\n      jump\t// out\n        /* \"contracts/0509/note.sol\":3634:3798  function forLoop5() public view returns(uint){... */\n    tag_30:\n        /* \"contracts/0509/note.sol\":3674:3678  uint */\n      0x00\n        /* \"contracts/0509/note.sol\":3690:3696  uint a */\n      dup1\n        /* \"contracts/0509/note.sol\":3711:3717  uint i */\n      0x00\n        /* \"contracts/0509/note.sol\":3707:3772  for(uint i=0; i<c.length; i++){... */\n    tag_72:\n        /* \"contracts/0509/note.sol\":3723:3731  c.length */\n      0x04\n        /* \"contracts/0509/note.sol\":3721:3722  i */\n      dup2\n        /* \"contracts/0509/note.sol\":3721:3731  i<c.length */\n      lt\n        /* \"contracts/0509/note.sol\":3707:3772  for(uint i=0; i<c.length; i++){... */\n      iszero\n      tag_73\n      jumpi\n        /* \"contracts/0509/note.sol\":3756:3757  c */\n      0x00\n        /* \"contracts/0509/note.sol\":3758:3759  i */\n      dup2\n        /* \"contracts/0509/note.sol\":3756:3760  c[i] */\n      0x04\n      dup2\n      lt\n      tag_75\n      jumpi\n      tag_76\n      tag_58\n      jump\t// in\n    tag_76:\n    tag_75:\n      add\n      sload\n        /* \"contracts/0509/note.sol\":3754:3755  a */\n      dup3\n        /* \"contracts/0509/note.sol\":3754:3760  a+c[i] */\n      tag_78\n      swap2\n      swap1\n      tag_61\n      jump\t// in\n    tag_78:\n        /* \"contracts/0509/note.sol\":3752:3760  a=a+c[i] */\n      swap2\n      pop\n        /* \"contracts/0509/note.sol\":3733:3736  i++ */\n      dup1\n      dup1\n      tag_79\n      swap1\n      tag_63\n      jump\t// in\n    tag_79:\n      swap2\n      pop\n      pop\n        /* \"contracts/0509/note.sol\":3707:3772  for(uint i=0; i<c.length; i++){... */\n      jump(tag_72)\n    tag_73:\n      pop\n        /* \"contracts/0509/note.sol\":3789:3790  a */\n      dup1\n        /* \"contracts/0509/note.sol\":3782:3790  return a */\n      swap2\n      pop\n      pop\n        /* \"contracts/0509/note.sol\":3634:3798  function forLoop5() public view returns(uint){... */\n      swap1\n      jump\t// out\n        /* \"contracts/0509/note.sol\":2878:3061  function forLoop2() public pure returns(uint,uint) {... */\n    tag_33:\n        /* \"contracts/0509/note.sol\":2918:2922  uint */\n      0x00\n        /* \"contracts/0509/note.sol\":2923:2927  uint */\n      dup1\n        /* \"contracts/0509/note.sol\":2940:2946  uint a */\n      0x00\n        /* \"contracts/0509/note.sol\":2957:2963  uint i */\n      dup1\n        /* \"contracts/0509/note.sol\":2983:2984  1 */\n      0x01\n        /* \"contracts/0509/note.sol\":2981:2984  i=1 */\n      swap1\n      pop\n        /* \"contracts/0509/note.sol\":2976:3029  for( i=1; i<6; i++){... */\n    tag_81:\n        /* \"contracts/0509/note.sol\":2988:2989  6 */\n      0x06\n        /* \"contracts/0509/note.sol\":2986:2987  i */\n      dup2\n        /* \"contracts/0509/note.sol\":2986:2989  i<6 */\n      lt\n        /* \"contracts/0509/note.sol\":2976:3029  for( i=1; i<6; i++){... */\n      iszero\n      tag_82\n      jumpi\n        /* \"contracts/0509/note.sol\":3016:3017  i */\n      dup1\n        /* \"contracts/0509/note.sol\":3014:3015  a */\n      dup3\n        /* \"contracts/0509/note.sol\":3014:3017  a+i */\n      tag_84\n      swap2\n      swap1\n      tag_61\n      jump\t// in\n    tag_84:\n        /* \"contracts/0509/note.sol\":3010:3017  a = a+i */\n      swap2\n      pop\n        /* \"contracts/0509/note.sol\":2991:2994  i++ */\n      dup1\n      dup1\n      tag_85\n      swap1\n      tag_63\n      jump\t// in\n    tag_85:\n      swap2\n      pop\n      pop\n        /* \"contracts/0509/note.sol\":2976:3029  for( i=1; i<6; i++){... */\n      jump(tag_81)\n    tag_82:\n        /* \"contracts/0509/note.sol\":3049:3050  a */\n      dup2\n        /* \"contracts/0509/note.sol\":3051:3052  i */\n      dup2\n        /* \"contracts/0509/note.sol\":3041:3053  return (a,i) */\n      swap4\n      pop\n      swap4\n      pop\n      pop\n      pop\n        /* \"contracts/0509/note.sol\":2878:3061  function forLoop2() public pure returns(uint,uint) {... */\n      swap1\n      swap2\n      jump\t// out\n        /* \"contracts/0509/note.sol\":3379:3461  function getC() public view returns (uint[4] memory) {... */\n    tag_37:\n        /* \"contracts/0509/note.sol\":3416:3430  uint[4] memory */\n      tag_86\n      tag_87\n      jump\t// in\n    tag_86:\n        /* \"contracts/0509/note.sol\":3450:3451  c */\n      0x00\n        /* \"contracts/0509/note.sol\":3443:3451  return c */\n      0x04\n      dup1\n      0x20\n      mul\n      mload(0x40)\n      swap1\n      dup2\n      add\n      0x40\n      mstore\n      dup1\n      swap3\n      swap2\n      swap1\n      dup3\n      0x04\n      dup1\n      iszero\n      tag_89\n      jumpi\n      0x20\n      mul\n      dup3\n      add\n      swap2\n    tag_90:\n      dup2\n      sload\n      dup2\n      mstore\n      0x20\n      add\n      swap1\n      0x01\n      add\n      swap1\n      dup1\n      dup4\n      gt\n      tag_90\n      jumpi\n    tag_89:\n      pop\n      pop\n      pop\n      pop\n      pop\n      swap1\n      pop\n        /* \"contracts/0509/note.sol\":3379:3461  function getC() public view returns (uint[4] memory) {... */\n      swap1\n      jump\t// out\n        /* \"contracts/0509/note.sol\":3980:4145  function forLoop6() public view returns(uint) {... */\n    tag_41:\n        /* \"contracts/0509/note.sol\":4020:4024  uint */\n      0x00\n        /* \"contracts/0509/note.sol\":4037:4043  uint a */\n      dup1\n        /* \"contracts/0509/note.sol\":4058:4064  uint i */\n      0x00\n        /* \"contracts/0509/note.sol\":4054:4119  for(uint i=0; i<d.length; i++){... */\n    tag_92:\n        /* \"contracts/0509/note.sol\":4070:4071  d */\n      0x05\n        /* \"contracts/0509/note.sol\":4070:4078  d.length */\n      dup1\n      sload\n      swap1\n      pop\n        /* \"contracts/0509/note.sol\":4068:4069  i */\n      dup2\n        /* \"contracts/0509/note.sol\":4068:4078  i<d.length */\n      lt\n        /* \"contracts/0509/note.sol\":4054:4119  for(uint i=0; i<d.length; i++){... */\n      iszero\n      tag_93\n      jumpi\n        /* \"contracts/0509/note.sol\":4103:4104  d */\n      0x05\n        /* \"contracts/0509/note.sol\":4105:4106  i */\n      dup2\n        /* \"contracts/0509/note.sol\":4103:4107  d[i] */\n      dup2\n      sload\n      dup2\n      lt\n      tag_95\n      jumpi\n      tag_96\n      tag_58\n      jump\t// in\n    tag_96:\n    tag_95:\n      swap1\n      0x00\n      mstore\n      keccak256(0x00, 0x20)\n      add\n      sload\n        /* \"contracts/0509/note.sol\":4101:4102  a */\n      dup3\n        /* \"contracts/0509/note.sol\":4101:4107  a+d[i] */\n      tag_98\n      swap2\n      swap1\n      tag_61\n      jump\t// in\n    tag_98:\n        /* \"contracts/0509/note.sol\":4099:4107  a=a+d[i] */\n      swap2\n      pop\n        /* \"contracts/0509/note.sol\":4080:4083  i++ */\n      dup1\n      dup1\n      tag_99\n      swap1\n      tag_63\n      jump\t// in\n    tag_99:\n      swap2\n      pop\n      pop\n        /* \"contracts/0509/note.sol\":4054:4119  for(uint i=0; i<d.length; i++){... */\n      jump(tag_92)\n    tag_93:\n      pop\n        /* \"contracts/0509/note.sol\":4136:4137  a */\n      dup1\n        /* \"contracts/0509/note.sol\":4129:4137  return a */\n      swap2\n      pop\n      pop\n        /* \"contracts/0509/note.sol\":3980:4145  function forLoop6() public view returns(uint) {... */\n      swap1\n      jump\t// out\n        /* \"contracts/0509/note.sol\":3069:3253  function forLoop3() public pure returns(uint,uint) {... */\n    tag_44:\n        /* \"contracts/0509/note.sol\":3109:3113  uint */\n      0x00\n        /* \"contracts/0509/note.sol\":3114:3118  uint */\n      dup1\n        /* \"contracts/0509/note.sol\":3131:3137  uint a */\n      0x00\n        /* \"contracts/0509/note.sol\":3148:3154  uint i */\n      dup1\n        /* \"contracts/0509/note.sol\":3174:3175  1 */\n      0x01\n        /* \"contracts/0509/note.sol\":3172:3175  i=1 */\n      swap1\n      pop\n        /* \"contracts/0509/note.sol\":3167:3221  for( i=1; i<=6; i++){... */\n    tag_101:\n        /* \"contracts/0509/note.sol\":3180:3181  6 */\n      0x06\n        /* \"contracts/0509/note.sol\":3177:3178  i */\n      dup2\n        /* \"contracts/0509/note.sol\":3177:3181  i<=6 */\n      gt\n        /* \"contracts/0509/note.sol\":3167:3221  for( i=1; i<=6; i++){... */\n      tag_102\n      jumpi\n        /* \"contracts/0509/note.sol\":3208:3209  i */\n      dup1\n        /* \"contracts/0509/note.sol\":3206:3207  a */\n      dup3\n        /* \"contracts/0509/note.sol\":3206:3209  a+i */\n      tag_104\n      swap2\n      swap1\n      tag_61\n      jump\t// in\n    tag_104:\n        /* \"contracts/0509/note.sol\":3202:3209  a = a+i */\n      swap2\n      pop\n        /* \"contracts/0509/note.sol\":3183:3186  i++ */\n      dup1\n      dup1\n      tag_105\n      swap1\n      tag_63\n      jump\t// in\n    tag_105:\n      swap2\n      pop\n      pop\n        /* \"contracts/0509/note.sol\":3167:3221  for( i=1; i<=6; i++){... */\n      jump(tag_101)\n    tag_102:\n        /* \"contracts/0509/note.sol\":3241:3242  a */\n      dup2\n        /* \"contracts/0509/note.sol\":3243:3244  i */\n      dup2\n        /* \"contracts/0509/note.sol\":3233:3245  return (a,i) */\n      swap4\n      pop\n      swap4\n      pop\n      pop\n      pop\n        /* \"contracts/0509/note.sol\":3069:3253  function forLoop3() public pure returns(uint,uint) {... */\n      swap1\n      swap2\n      jump\t// out\n        /* \"contracts/0509/note.sol\":2710:2870  function forLoop() public pure returns(uint) {... */\n    tag_47:\n        /* \"contracts/0509/note.sol\":2749:2753  uint */\n      0x00\n        /* \"contracts/0509/note.sol\":2766:2772  uint a */\n      dup1\n        /* \"contracts/0509/note.sol\":2789:2795  uint i */\n      0x00\n        /* \"contracts/0509/note.sol\":2796:2797  1 */\n      0x01\n        /* \"contracts/0509/note.sol\":2789:2797  uint i=1 */\n      swap1\n      pop\n        /* \"contracts/0509/note.sol\":2785:2842  for(uint i=1; i<6; i++){... */\n    tag_107:\n        /* \"contracts/0509/note.sol\":2801:2802  6 */\n      0x06\n        /* \"contracts/0509/note.sol\":2799:2800  i */\n      dup2\n        /* \"contracts/0509/note.sol\":2799:2802  i<6 */\n      lt\n        /* \"contracts/0509/note.sol\":2785:2842  for(uint i=1; i<6; i++){... */\n      iszero\n      tag_108\n      jumpi\n        /* \"contracts/0509/note.sol\":2829:2830  i */\n      dup1\n        /* \"contracts/0509/note.sol\":2827:2828  a */\n      dup3\n        /* \"contracts/0509/note.sol\":2827:2830  a+i */\n      tag_110\n      swap2\n      swap1\n      tag_61\n      jump\t// in\n    tag_110:\n        /* \"contracts/0509/note.sol\":2823:2830  a = a+i */\n      swap2\n      pop\n        /* \"contracts/0509/note.sol\":2804:2807  i++ */\n      dup1\n      dup1\n      tag_111\n      swap1\n      tag_63\n      jump\t// in\n    tag_111:\n      swap2\n      pop\n      pop\n        /* \"contracts/0509/note.sol\":2785:2842  for(uint i=1; i<6; i++){... */\n      jump(tag_107)\n    tag_108:\n      pop\n        /* \"contracts/0509/note.sol\":2861:2862  a */\n      dup1\n        /* \"contracts/0509/note.sol\":2854:2862  return a */\n      swap2\n      pop\n      pop\n        /* \"contracts/0509/note.sol\":2710:2870  function forLoop() public pure returns(uint) {... */\n      swap1\n      jump\t// out\n    tag_87:\n      mload(0x40)\n      dup1\n      0x80\n      add\n      0x40\n      mstore\n      dup1\n      0x04\n      swap1\n      0x20\n      dup3\n      mul\n      dup1\n      calldatasize\n      dup4\n      calldatacopy\n      dup1\n      dup3\n      add\n      swap2\n      pop\n      pop\n      swap1\n      pop\n      pop\n      swap1\n      jump\t// out\n        /* \"#utility.yul\":7:121   */\n    tag_112:\n        /* \"#utility.yul\":74:80   */\n      0x00\n        /* \"#utility.yul\":108:113   */\n      dup2\n        /* \"#utility.yul\":102:114   */\n      mload\n        /* \"#utility.yul\":92:114   */\n      swap1\n      pop\n        /* \"#utility.yul\":7:121   */\n      swap2\n      swap1\n      pop\n      jump\t// out\n        /* \"#utility.yul\":127:311   */\n    tag_113:\n        /* \"#utility.yul\":226:237   */\n      0x00\n        /* \"#utility.yul\":260:266   */\n      dup3\n        /* \"#utility.yul\":255:258   */\n      dup3\n        /* \"#utility.yul\":248:267   */\n      mstore\n        /* \"#utility.yul\":300:304   */\n      0x20\n        /* \"#utility.yul\":295:298   */\n      dup3\n        /* \"#utility.yul\":291:305   */\n      add\n        /* \"#utility.yul\":276:305   */\n      swap1\n      pop\n        /* \"#utility.yul\":127:311   */\n      swap3\n      swap2\n      pop\n      pop\n      jump\t// out\n        /* \"#utility.yul\":317:449   */\n    tag_114:\n        /* \"#utility.yul\":384:388   */\n      0x00\n        /* \"#utility.yul\":407:410   */\n      dup2\n        /* \"#utility.yul\":399:410   */\n      swap1\n      pop\n        /* \"#utility.yul\":437:441   */\n      0x20\n        /* \"#utility.yul\":432:435   */\n      dup3\n        /* \"#utility.yul\":428:442   */\n      add\n        /* \"#utility.yul\":420:442   */\n      swap1\n      pop\n        /* \"#utility.yul\":317:449   */\n      swap2\n      swap1\n      pop\n      jump\t// out\n        /* \"#utility.yul\":455:532   */\n    tag_115:\n        /* \"#utility.yul\":492:499   */\n      0x00\n        /* \"#utility.yul\":521:526   */\n      dup2\n        /* \"#utility.yul\":510:526   */\n      swap1\n      pop\n        /* \"#utility.yul\":455:532   */\n      swap2\n      swap1\n      pop\n      jump\t// out\n        /* \"#utility.yul\":538:646   */\n    tag_116:\n        /* \"#utility.yul\":615:639   */\n      tag_138\n        /* \"#utility.yul\":633:638   */\n      dup2\n        /* \"#utility.yul\":615:639   */\n      tag_115\n      jump\t// in\n    tag_138:\n        /* \"#utility.yul\":610:613   */\n      dup3\n        /* \"#utility.yul\":603:640   */\n      mstore\n        /* \"#utility.yul\":538:646   */\n      pop\n      pop\n      jump\t// out\n        /* \"#utility.yul\":652:831   */\n    tag_117:\n        /* \"#utility.yul\":721:731   */\n      0x00\n        /* \"#utility.yul\":742:788   */\n      tag_140\n        /* \"#utility.yul\":784:787   */\n      dup4\n        /* \"#utility.yul\":776:782   */\n      dup4\n        /* \"#utility.yul\":742:788   */\n      tag_116\n      jump\t// in\n    tag_140:\n        /* \"#utility.yul\":820:824   */\n      0x20\n        /* \"#utility.yul\":815:818   */\n      dup4\n        /* \"#utility.yul\":811:825   */\n      add\n        /* \"#utility.yul\":797:825   */\n      swap1\n      pop\n        /* \"#utility.yul\":652:831   */\n      swap3\n      swap2\n      pop\n      pop\n      jump\t// out\n        /* \"#utility.yul\":837:950   */\n    tag_118:\n        /* \"#utility.yul\":907:911   */\n      0x00\n        /* \"#utility.yul\":939:943   */\n      0x20\n        /* \"#utility.yul\":934:937   */\n      dup3\n        /* \"#utility.yul\":930:944   */\n      add\n        /* \"#utility.yul\":922:944   */\n      swap1\n      pop\n        /* \"#utility.yul\":837:950   */\n      swap2\n      swap1\n      pop\n      jump\t// out\n        /* \"#utility.yul\":986:1718   */\n    tag_119:\n        /* \"#utility.yul\":1105:1108   */\n      0x00\n        /* \"#utility.yul\":1134:1188   */\n      tag_143\n        /* \"#utility.yul\":1182:1187   */\n      dup3\n        /* \"#utility.yul\":1134:1188   */\n      tag_112\n      jump\t// in\n    tag_143:\n        /* \"#utility.yul\":1204:1290   */\n      tag_144\n        /* \"#utility.yul\":1283:1289   */\n      dup2\n        /* \"#utility.yul\":1278:1281   */\n      dup6\n        /* \"#utility.yul\":1204:1290   */\n      tag_113\n      jump\t// in\n    tag_144:\n        /* \"#utility.yul\":1197:1290   */\n      swap4\n      pop\n        /* \"#utility.yul\":1314:1370   */\n      tag_145\n        /* \"#utility.yul\":1364:1369   */\n      dup4\n        /* \"#utility.yul\":1314:1370   */\n      tag_114\n      jump\t// in\n    tag_145:\n        /* \"#utility.yul\":1393:1400   */\n      dup1\n        /* \"#utility.yul\":1424:1425   */\n      0x00\n        /* \"#utility.yul\":1409:1693   */\n    tag_146:\n        /* \"#utility.yul\":1434:1440   */\n      dup4\n        /* \"#utility.yul\":1431:1432   */\n      dup2\n        /* \"#utility.yul\":1428:1441   */\n      lt\n        /* \"#utility.yul\":1409:1693   */\n      iszero\n      tag_148\n      jumpi\n        /* \"#utility.yul\":1510:1516   */\n      dup2\n        /* \"#utility.yul\":1504:1517   */\n      mload\n        /* \"#utility.yul\":1537:1600   */\n      tag_149\n        /* \"#utility.yul\":1596:1599   */\n      dup9\n        /* \"#utility.yul\":1581:1594   */\n      dup3\n        /* \"#utility.yul\":1537:1600   */\n      tag_117\n      jump\t// in\n    tag_149:\n        /* \"#utility.yul\":1530:1600   */\n      swap8\n      pop\n        /* \"#utility.yul\":1623:1683   */\n      tag_150\n        /* \"#utility.yul\":1676:1682   */\n      dup4\n        /* \"#utility.yul\":1623:1683   */\n      tag_118\n      jump\t// in\n    tag_150:\n        /* \"#utility.yul\":1613:1683   */\n      swap3\n      pop\n        /* \"#utility.yul\":1469:1693   */\n      pop\n        /* \"#utility.yul\":1456:1457   */\n      0x01\n        /* \"#utility.yul\":1453:1454   */\n      dup2\n        /* \"#utility.yul\":1449:1458   */\n      add\n        /* \"#utility.yul\":1444:1458   */\n      swap1\n      pop\n        /* \"#utility.yul\":1409:1693   */\n      jump(tag_146)\n    tag_148:\n        /* \"#utility.yul\":1413:1427   */\n      pop\n        /* \"#utility.yul\":1709:1712   */\n      dup6\n        /* \"#utility.yul\":1702:1712   */\n      swap4\n      pop\n        /* \"#utility.yul\":1110:1718   */\n      pop\n      pop\n      pop\n        /* \"#utility.yul\":986:1718   */\n      swap3\n      swap2\n      pop\n      pop\n      jump\t// out\n        /* \"#utility.yul\":1724:2097   */\n    tag_17:\n        /* \"#utility.yul\":1867:1871   */\n      0x00\n        /* \"#utility.yul\":1905:1907   */\n      0x20\n        /* \"#utility.yul\":1894:1903   */\n      dup3\n        /* \"#utility.yul\":1890:1908   */\n      add\n        /* \"#utility.yul\":1882:1908   */\n      swap1\n      pop\n        /* \"#utility.yul\":1954:1963   */\n      dup2\n        /* \"#utility.yul\":1948:1952   */\n      dup2\n        /* \"#utility.yul\":1944:1964   */\n      sub\n        /* \"#utility.yul\":1940:1941   */\n      0x00\n        /* \"#utility.yul\":1929:1938   */\n      dup4\n        /* \"#utility.yul\":1925:1942   */\n      add\n        /* \"#utility.yul\":1918:1965   */\n      mstore\n        /* \"#utility.yul\":1982:2090   */\n      tag_152\n        /* \"#utility.yul\":2085:2089   */\n      dup2\n        /* \"#utility.yul\":2076:2082   */\n      dup5\n        /* \"#utility.yul\":1982:2090   */\n      tag_119\n      jump\t// in\n    tag_152:\n        /* \"#utility.yul\":1974:2090   */\n      swap1\n      pop\n        /* \"#utility.yul\":1724:2097   */\n      swap3\n      swap2\n      pop\n      pop\n      jump\t// out\n        /* \"#utility.yul\":2103:2221   */\n    tag_120:\n        /* \"#utility.yul\":2190:2214   */\n      tag_154\n        /* \"#utility.yul\":2208:2213   */\n      dup2\n        /* \"#utility.yul\":2190:2214   */\n      tag_115\n      jump\t// in\n    tag_154:\n        /* \"#utility.yul\":2185:2188   */\n      dup3\n        /* \"#utility.yul\":2178:2215   */\n      mstore\n        /* \"#utility.yul\":2103:2221   */\n      pop\n      pop\n      jump\t// out\n        /* \"#utility.yul\":2227:2449   */\n    tag_21:\n        /* \"#utility.yul\":2320:2324   */\n      0x00\n        /* \"#utility.yul\":2358:2360   */\n      0x20\n        /* \"#utility.yul\":2347:2356   */\n      dup3\n        /* \"#utility.yul\":2343:2361   */\n      add\n        /* \"#utility.yul\":2335:2361   */\n      swap1\n      pop\n        /* \"#utility.yul\":2371:2442   */\n      tag_156\n        /* \"#utility.yul\":2439:2440   */\n      0x00\n        /* \"#utility.yul\":2428:2437   */\n      dup4\n        /* \"#utility.yul\":2424:2441   */\n      add\n        /* \"#utility.yul\":2415:2421   */\n      dup5\n        /* \"#utility.yul\":2371:2442   */\n      tag_120\n      jump\t// in\n    tag_156:\n        /* \"#utility.yul\":2227:2449   */\n      swap3\n      swap2\n      pop\n      pop\n      jump\t// out\n        /* \"#utility.yul\":2536:2653   */\n    tag_122:\n        /* \"#utility.yul\":2645:2646   */\n      0x00\n        /* \"#utility.yul\":2642:2643   */\n      dup1\n        /* \"#utility.yul\":2635:2647   */\n      revert\n        /* \"#utility.yul\":2782:2904   */\n    tag_124:\n        /* \"#utility.yul\":2855:2879   */\n      tag_161\n        /* \"#utility.yul\":2873:2878   */\n      dup2\n        /* \"#utility.yul\":2855:2879   */\n      tag_115\n      jump\t// in\n    tag_161:\n        /* \"#utility.yul\":2848:2853   */\n      dup2\n        /* \"#utility.yul\":2845:2880   */\n      eq\n        /* \"#utility.yul\":2835:2898   */\n      tag_162\n      jumpi\n        /* \"#utility.yul\":2894:2895   */\n      0x00\n        /* \"#utility.yul\":2891:2892   */\n      dup1\n        /* \"#utility.yul\":2884:2896   */\n      revert\n        /* \"#utility.yul\":2835:2898   */\n    tag_162:\n        /* \"#utility.yul\":2782:2904   */\n      pop\n      jump\t// out\n        /* \"#utility.yul\":2910:3049   */\n    tag_125:\n        /* \"#utility.yul\":2956:2961   */\n      0x00\n        /* \"#utility.yul\":2994:3000   */\n      dup2\n        /* \"#utility.yul\":2981:3001   */\n      calldataload\n        /* \"#utility.yul\":2972:3001   */\n      swap1\n      pop\n        /* \"#utility.yul\":3010:3043   */\n      tag_164\n        /* \"#utility.yul\":3037:3042   */\n      dup2\n        /* \"#utility.yul\":3010:3043   */\n      tag_124\n      jump\t// in\n    tag_164:\n        /* \"#utility.yul\":2910:3049   */\n      swap3\n      swap2\n      pop\n      pop\n      jump\t// out\n        /* \"#utility.yul\":3055:3384   */\n    tag_24:\n        /* \"#utility.yul\":3114:3120   */\n      0x00\n        /* \"#utility.yul\":3163:3165   */\n      0x20\n        /* \"#utility.yul\":3151:3160   */\n      dup3\n        /* \"#utility.yul\":3142:3149   */\n      dup5\n        /* \"#utility.yul\":3138:3161   */\n      sub\n        /* \"#utility.yul\":3134:3166   */\n      slt\n        /* \"#utility.yul\":3131:3250   */\n      iszero\n      tag_166\n      jumpi\n        /* \"#utility.yul\":3169:3248   */\n      tag_167\n      tag_122\n      jump\t// in\n    tag_167:\n        /* \"#utility.yul\":3131:3250   */\n    tag_166:\n        /* \"#utility.yul\":3289:3290   */\n      0x00\n        /* \"#utility.yul\":3314:3367   */\n      tag_168\n        /* \"#utility.yul\":3359:3366   */\n      dup5\n        /* \"#utility.yul\":3350:3356   */\n      dup3\n        /* \"#utility.yul\":3339:3348   */\n      dup6\n        /* \"#utility.yul\":3335:3357   */\n      add\n        /* \"#utility.yul\":3314:3367   */\n      tag_125\n      jump\t// in\n    tag_168:\n        /* \"#utility.yul\":3304:3367   */\n      swap2\n      pop\n        /* \"#utility.yul\":3260:3377   */\n      pop\n        /* \"#utility.yul\":3055:3384   */\n      swap3\n      swap2\n      pop\n      pop\n      jump\t// out\n        /* \"#utility.yul\":3390:3722   */\n    tag_35:\n        /* \"#utility.yul\":3511:3515   */\n      0x00\n        /* \"#utility.yul\":3549:3551   */\n      0x40\n        /* \"#utility.yul\":3538:3547   */\n      dup3\n        /* \"#utility.yul\":3534:3552   */\n      add\n        /* \"#utility.yul\":3526:3552   */\n      swap1\n      pop\n        /* \"#utility.yul\":3562:3633   */\n      tag_170\n        /* \"#utility.yul\":3630:3631   */\n      0x00\n        /* \"#utility.yul\":3619:3628   */\n      dup4\n        /* \"#utility.yul\":3615:3632   */\n      add\n        /* \"#utility.yul\":3606:3612   */\n      dup6\n        /* \"#utility.yul\":3562:3633   */\n      tag_120\n      jump\t// in\n    tag_170:\n        /* \"#utility.yul\":3643:3715   */\n      tag_171\n        /* \"#utility.yul\":3711:3713   */\n      0x20\n        /* \"#utility.yul\":3700:3709   */\n      dup4\n        /* \"#utility.yul\":3696:3714   */\n      add\n        /* \"#utility.yul\":3687:3693   */\n      dup5\n        /* \"#utility.yul\":3643:3715   */\n      tag_120\n      jump\t// in\n    tag_171:\n        /* \"#utility.yul\":3390:3722   */\n      swap4\n      swap3\n      pop\n      pop\n      pop\n      jump\t// out\n        /* \"#utility.yul\":3728:3832   */\n    tag_126:\n        /* \"#utility.yul\":3793:3799   */\n      0x00\n        /* \"#utility.yul\":3821:3825   */\n      0x04\n        /* \"#utility.yul\":3811:3825   */\n      swap1\n      pop\n        /* \"#utility.yul\":3728:3832   */\n      swap2\n      swap1\n      pop\n      jump\t// out\n        /* \"#utility.yul\":3838:3981   */\n    tag_127:\n        /* \"#utility.yul\":3935:3946   */\n      0x00\n        /* \"#utility.yul\":3972:3975   */\n      dup2\n        /* \"#utility.yul\":3957:3975   */\n      swap1\n      pop\n        /* \"#utility.yul\":3838:3981   */\n      swap3\n      swap2\n      pop\n      pop\n      jump\t// out\n        /* \"#utility.yul\":3987:4085   */\n    tag_128:\n        /* \"#utility.yul\":4052:4056   */\n      0x00\n        /* \"#utility.yul\":4075:4078   */\n      dup2\n        /* \"#utility.yul\":4067:4078   */\n      swap1\n      pop\n        /* \"#utility.yul\":3987:4085   */\n      swap2\n      swap1\n      pop\n      jump\t// out\n        /* \"#utility.yul\":4091:4202   */\n    tag_129:\n        /* \"#utility.yul\":4159:4163   */\n      0x00\n        /* \"#utility.yul\":4191:4195   */\n      0x20\n        /* \"#utility.yul\":4186:4189   */\n      dup3\n        /* \"#utility.yul\":4182:4196   */\n      add\n        /* \"#utility.yul\":4174:4196   */\n      swap1\n      pop\n        /* \"#utility.yul\":4091:4202   */\n      swap2\n      swap1\n      pop\n      jump\t// out\n        /* \"#utility.yul\":4240:4934   */\n    tag_130:\n        /* \"#utility.yul\":4376:4428   */\n      tag_177\n        /* \"#utility.yul\":4422:4427   */\n      dup2\n        /* \"#utility.yul\":4376:4428   */\n      tag_126\n      jump\t// in\n    tag_177:\n        /* \"#utility.yul\":4444:4528   */\n      tag_178\n        /* \"#utility.yul\":4521:4527   */\n      dup2\n        /* \"#utility.yul\":4516:4519   */\n      dup5\n        /* \"#utility.yul\":4444:4528   */\n      tag_127\n      jump\t// in\n    tag_178:\n        /* \"#utility.yul\":4437:4528   */\n      swap3\n      pop\n        /* \"#utility.yul\":4552:4606   */\n      tag_179\n        /* \"#utility.yul\":4600:4605   */\n      dup3\n        /* \"#utility.yul\":4552:4606   */\n      tag_128\n      jump\t// in\n    tag_179:\n        /* \"#utility.yul\":4629:4636   */\n      dup1\n        /* \"#utility.yul\":4660:4661   */\n      0x00\n        /* \"#utility.yul\":4645:4927   */\n    tag_180:\n        /* \"#utility.yul\":4670:4676   */\n      dup4\n        /* \"#utility.yul\":4667:4668   */\n      dup2\n        /* \"#utility.yul\":4664:4677   */\n      lt\n        /* \"#utility.yul\":4645:4927   */\n      iszero\n      tag_182\n      jumpi\n        /* \"#utility.yul\":4746:4752   */\n      dup2\n        /* \"#utility.yul\":4740:4753   */\n      mload\n        /* \"#utility.yul\":4773:4836   */\n      tag_183\n        /* \"#utility.yul\":4832:4835   */\n      dup8\n        /* \"#utility.yul\":4817:4830   */\n      dup3\n        /* \"#utility.yul\":4773:4836   */\n      tag_117\n      jump\t// in\n    tag_183:\n        /* \"#utility.yul\":4766:4836   */\n      swap7\n      pop\n        /* \"#utility.yul\":4859:4917   */\n      tag_184\n        /* \"#utility.yul\":4910:4916   */\n      dup4\n        /* \"#utility.yul\":4859:4917   */\n      tag_129\n      jump\t// in\n    tag_184:\n        /* \"#utility.yul\":4849:4917   */\n      swap3\n      pop\n        /* \"#utility.yul\":4705:4927   */\n      pop\n        /* \"#utility.yul\":4692:4693   */\n      0x01\n        /* \"#utility.yul\":4689:4690   */\n      dup2\n        /* \"#utility.yul\":4685:4694   */\n      add\n        /* \"#utility.yul\":4680:4694   */\n      swap1\n      pop\n        /* \"#utility.yul\":4645:4927   */\n      jump(tag_180)\n    tag_182:\n        /* \"#utility.yul\":4649:4663   */\n      pop\n        /* \"#utility.yul\":4352:4934   */\n      pop\n      pop\n      pop\n        /* \"#utility.yul\":4240:4934   */\n      pop\n      pop\n      jump\t// out\n        /* \"#utility.yul\":4940:5255   */\n    tag_39:\n        /* \"#utility.yul\":5079:5083   */\n      0x00\n        /* \"#utility.yul\":5117:5120   */\n      0x80\n        /* \"#utility.yul\":5106:5115   */\n      dup3\n        /* \"#utility.yul\":5102:5121   */\n      add\n        /* \"#utility.yul\":5094:5121   */\n      swap1\n      pop\n        /* \"#utility.yul\":5131:5248   */\n      tag_186\n        /* \"#utility.yul\":5245:5246   */\n      0x00\n        /* \"#utility.yul\":5234:5243   */\n      dup4\n        /* \"#utility.yul\":5230:5247   */\n      add\n        /* \"#utility.yul\":5221:5227   */\n      dup5\n        /* \"#utility.yul\":5131:5248   */\n      tag_130\n      jump\t// in\n    tag_186:\n        /* \"#utility.yul\":4940:5255   */\n      swap3\n      swap2\n      pop\n      pop\n      jump\t// out\n        /* \"#utility.yul\":5261:5441   */\n    tag_58:\n        /* \"#utility.yul\":5309:5386   */\n      0x4e487b7100000000000000000000000000000000000000000000000000000000\n        /* \"#utility.yul\":5306:5307   */\n      0x00\n        /* \"#utility.yul\":5299:5387   */\n      mstore\n        /* \"#utility.yul\":5406:5410   */\n      0x32\n        /* \"#utility.yul\":5403:5404   */\n      0x04\n        /* \"#utility.yul\":5396:5411   */\n      mstore\n        /* \"#utility.yul\":5430:5434   */\n      0x24\n        /* \"#utility.yul\":5427:5428   */\n      0x00\n        /* \"#utility.yul\":5420:5435   */\n      revert\n        /* \"#utility.yul\":5447:5627   */\n    tag_131:\n        /* \"#utility.yul\":5495:5572   */\n      0x4e487b7100000000000000000000000000000000000000000000000000000000\n        /* \"#utility.yul\":5492:5493   */\n      0x00\n        /* \"#utility.yul\":5485:5573   */\n      mstore\n        /* \"#utility.yul\":5592:5596   */\n      0x11\n        /* \"#utility.yul\":5589:5590   */\n      0x04\n        /* \"#utility.yul\":5582:5597   */\n      mstore\n        /* \"#utility.yul\":5616:5620   */\n      0x24\n        /* \"#utility.yul\":5613:5614   */\n      0x00\n        /* \"#utility.yul\":5606:5621   */\n      revert\n        /* \"#utility.yul\":5633:5824   */\n    tag_61:\n        /* \"#utility.yul\":5673:5676   */\n      0x00\n        /* \"#utility.yul\":5692:5712   */\n      tag_190\n        /* \"#utility.yul\":5710:5711   */\n      dup3\n        /* \"#utility.yul\":5692:5712   */\n      tag_115\n      jump\t// in\n    tag_190:\n        /* \"#utility.yul\":5687:5712   */\n      swap2\n      pop\n        /* \"#utility.yul\":5726:5746   */\n      tag_191\n        /* \"#utility.yul\":5744:5745   */\n      dup4\n        /* \"#utility.yul\":5726:5746   */\n      tag_115\n      jump\t// in\n    tag_191:\n        /* \"#utility.yul\":5721:5746   */\n      swap3\n      pop\n        /* \"#utility.yul\":5769:5770   */\n      dup3\n        /* \"#utility.yul\":5766:5767   */\n      dup3\n        /* \"#utility.yul\":5762:5771   */\n      add\n        /* \"#utility.yul\":5755:5771   */\n      swap1\n      pop\n        /* \"#utility.yul\":5790:5793   */\n      dup1\n        /* \"#utility.yul\":5787:5788   */\n      dup3\n        /* \"#utility.yul\":5784:5794   */\n      gt\n        /* \"#utility.yul\":5781:5817   */\n      iszero\n      tag_192\n      jumpi\n        /* \"#utility.yul\":5797:5815   */\n      tag_193\n      tag_131\n      jump\t// in\n    tag_193:\n        /* \"#utility.yul\":5781:5817   */\n    tag_192:\n        /* \"#utility.yul\":5633:5824   */\n      swap3\n      swap2\n      pop\n      pop\n      jump\t// out\n        /* \"#utility.yul\":5830:6063   */\n    tag_63:\n        /* \"#utility.yul\":5869:5872   */\n      0x00\n        /* \"#utility.yul\":5892:5916   */\n      tag_195\n        /* \"#utility.yul\":5910:5915   */\n      dup3\n        /* \"#utility.yul\":5892:5916   */\n      tag_115\n      jump\t// in\n    tag_195:\n        /* \"#utility.yul\":5883:5916   */\n      swap2\n      pop\n        /* \"#utility.yul\":5938:6004   */\n      0xffffffffffffffffffffffffffffffffffffffffffffffffffffffffffffffff\n        /* \"#utility.yul\":5931:5936   */\n      dup3\n        /* \"#utility.yul\":5928:6005   */\n      sub\n        /* \"#utility.yul\":5925:6028   */\n      tag_196\n      jumpi\n        /* \"#utility.yul\":6008:6026   */\n      tag_197\n      tag_131\n      jump\t// in\n    tag_197:\n        /* \"#utility.yul\":5925:6028   */\n    tag_196:\n        /* \"#utility.yul\":6055:6056   */\n      0x01\n        /* \"#utility.yul\":6048:6053   */\n      dup3\n        /* \"#utility.yul\":6044:6057   */\n      add\n        /* \"#utility.yul\":6037:6057   */\n      swap1\n      pop\n        /* \"#utility.yul\":5830:6063   */\n      swap2\n      swap1\n      pop\n      jump\t// out\n\n    auxdata: 0xa264697066735822122047a43852bfdaebd13c6aa344e054b3428ca5c44d6a48213d1f1723d8a1c637ac64736f6c63430008120033\n}\n",
				"bytecode": {
					"linkReferences": {},
					"object": "608060405234801561001057600080fd5b506107ec806100206000396000f3fe608060405234801561001057600080fd5b506004361061009e5760003560e01c80634e744db2116100665780634e744db214610135578063a2375d1e14610154578063d469d3f614610172578063de438f5c14610190578063fc0e6008146101af5761009e565b80631a14ff7a146100a3578063317e84d5146100c157806340bb882d146100df578063448381b2146100fb5780634c9262b414610117575b600080fd5b6100ab6101cd565b6040516100b8919061056a565b60405180910390f35b6100c9610225565b6040516100d6919061059b565b60405180910390f35b6100f960048036038101906100f491906105e7565b610272565b005b610115600480360381019061011091906105e7565b6102a5565b005b61011f6102d1565b60405161012c919061059b565b60405180910390f35b61013d61031e565b60405161014b929190610614565b60405180910390f35b61015c61035f565b60405161016991906106c1565b60405180910390f35b61017a6103aa565b604051610187919061059b565b60405180910390f35b610198610404565b6040516101a6929190610614565b60405180910390f35b6101b7610444565b6040516101c4919061059b565b60405180910390f35b6060600580548060200260200160405190810160405280929190818152602001828054801561021b57602002820191906000526020600020905b815481526020019060010190808311610207575b5050505050905090565b60008060005b600481101561026a5760008160048110610248576102476106dc565b5b015482610255919061073a565b915080806102629061076e565b91505061022b565b508091505090565b806000600460008154809291906102889061076e565b919050556004811061029d5761029c6106dc565b5b018190555050565b600581908060018154018082558091505060019003906000526020600020016000909190919091505550565b60008060005b600481101561031657600081600481106102f4576102f36106dc565b5b015482610301919061073a565b9150808061030e9061076e565b9150506102d7565b508091505090565b600080600080600190505b600681101561035357808261033e919061073a565b9150808061034b9061076e565b915050610329565b81819350935050509091565b610367610480565b60006004806020026040519081016040528092919082600480156103a0576020028201915b81548152602001906001019080831161038c575b5050505050905090565b60008060005b6005805490508110156103fc57600581815481106103d1576103d06106dc565b5b9060005260206000200154826103e7919061073a565b915080806103f49061076e565b9150506103b0565b508091505090565b600080600080600190505b60068111610438578082610423919061073a565b915080806104309061076e565b91505061040f565b81819350935050509091565b6000806000600190505b6006811015610478578082610463919061073a565b915080806104709061076e565b91505061044e565b508091505090565b6040518060800160405280600490602082028036833780820191505090505090565b600081519050919050565b600082825260208201905092915050565b6000819050602082019050919050565b6000819050919050565b6104e1816104ce565b82525050565b60006104f383836104d8565b60208301905092915050565b6000602082019050919050565b6000610517826104a2565b61052181856104ad565b935061052c836104be565b8060005b8381101561055d57815161054488826104e7565b975061054f836104ff565b925050600181019050610530565b5085935050505092915050565b60006020820190508181036000830152610584818461050c565b905092915050565b610595816104ce565b82525050565b60006020820190506105b0600083018461058c565b92915050565b600080fd5b6105c4816104ce565b81146105cf57600080fd5b50565b6000813590506105e1816105bb565b92915050565b6000602082840312156105fd576105fc6105b6565b5b600061060b848285016105d2565b91505092915050565b6000604082019050610629600083018561058c565b610636602083018461058c565b9392505050565b600060049050919050565b600081905092915050565b6000819050919050565b6000602082019050919050565b6106738161063d565b61067d8184610648565b925061068882610653565b8060005b838110156106b95781516106a087826104e7565b96506106ab8361065d565b92505060018101905061068c565b505050505050565b60006080820190506106d6600083018461066a565b92915050565b7f4e487b7100000000000000000000000000000000000000000000000000000000600052603260045260246000fd5b7f4e487b7100000000000000000000000000000000000000000000000000000000600052601160045260246000fd5b6000610745826104ce565b9150610750836104ce565b92508282019050808211156107685761076761070b565b5b92915050565b6000610779826104ce565b91507fffffffffffffffffffffffffffffffffffffffffffffffffffffffffffffffff82036107ab576107aa61070b565b5b60018201905091905056fea264697066735822122047a43852bfdaebd13c6aa344e054b3428ca5c44d6a48213d1f1723d8a1c637ac64736f6c63430008120033",
					"opcodes": "PUSH1 0x80 PUSH1 0x40 MSTORE CALLVALUE DUP1 ISZERO PUSH2 0x10 JUMPI PUSH1 0x0 DUP1 REVERT JUMPDEST POP PUSH2 0x7EC DUP1 PUSH2 0x20 PUSH1 0x0 CODECOPY PUSH1 0x0 RETURN INVALID PUSH1 0x80 PUSH1 0x40 MSTORE CALLVALUE DUP1 ISZERO PUSH2 0x10 JUMPI PUSH1 0x0 DUP1 REVERT JUMPDEST POP PUSH1 0x4 CALLDATASIZE LT PUSH2 0x9E JUMPI PUSH1 0x0 CALLDATALOAD PUSH1 0xE0 SHR DUP1 PUSH4 0x4E744DB2 GT PUSH2 0x66 JUMPI DUP1 PUSH4 0x4E744DB2 EQ PUSH2 0x135 JUMPI DUP1 PUSH4 0xA2375D1E EQ PUSH2 0x154 JUMPI DUP1 PUSH4 0xD469D3F6 EQ PUSH2 0x172 JUMPI DUP1 PUSH4 0xDE438F5C EQ PUSH2 0x190 JUMPI DUP1 PUSH4 0xFC0E6008 EQ PUSH2 0x1AF JUMPI PUSH2 0x9E JUMP JUMPDEST DUP1 PUSH4 0x1A14FF7A EQ PUSH2 0xA3 JUMPI DUP1 PUSH4 0x317E84D5 EQ PUSH2 0xC1 JUMPI DUP1 PUSH4 0x40BB882D EQ PUSH2 0xDF JUMPI DUP1 PUSH4 0x448381B2 EQ PUSH2 0xFB JUMPI DUP1 PUSH4 0x4C9262B4 EQ PUSH2 0x117 JUMPI JUMPDEST PUSH1 0x0 DUP1 REVERT JUMPDEST PUSH2 0xAB PUSH2 0x1CD JUMP JUMPDEST PUSH1 0x40 MLOAD PUSH2 0xB8 SWAP2 SWAP1 PUSH2 0x56A JUMP JUMPDEST PUSH1 0x40 MLOAD DUP1 SWAP2 SUB SWAP1 RETURN JUMPDEST PUSH2 0xC9 PUSH2 0x225 JUMP JUMPDEST PUSH1 0x40 MLOAD PUSH2 0xD6 SWAP2 SWAP1 PUSH2 0x59B JUMP JUMPDEST PUSH1 0x40 MLOAD DUP1 SWAP2 SUB SWAP1 RETURN JUMPDEST PUSH2 0xF9 PUSH1 0x4 DUP1 CALLDATASIZE SUB DUP2 ADD SWAP1 PUSH2 0xF4 SWAP2 SWAP1 PUSH2 0x5E7 JUMP JUMPDEST PUSH2 0x272 JUMP JUMPDEST STOP JUMPDEST PUSH2 0x115 PUSH1 0x4 DUP1 CALLDATASIZE SUB DUP2 ADD SWAP1 PUSH2 0x110 SWAP2 SWAP1 PUSH2 0x5E7 JUMP JUMPDEST PUSH2 0x2A5 JUMP JUMPDEST STOP JUMPDEST PUSH2 0x11F PUSH2 0x2D1 JUMP JUMPDEST PUSH1 0x40 MLOAD PUSH2 0x12C SWAP2 SWAP1 PUSH2 0x59B JUMP JUMPDEST PUSH1 0x40 MLOAD DUP1 SWAP2 SUB SWAP1 RETURN JUMPDEST PUSH2 0x13D PUSH2 0x31E JUMP JUMPDEST PUSH1 0x40 MLOAD PUSH2 0x14B SWAP3 SWAP2 SWAP1 PUSH2 0x614 JUMP JUMPDEST PUSH1 0x40 MLOAD DUP1 SWAP2 SUB SWAP1 RETURN JUMPDEST PUSH2 0x15C PUSH2 0x35F JUMP JUMPDEST PUSH1 0x40 MLOAD PUSH2 0x169 SWAP2 SWAP1 PUSH2 0x6C1 JUMP JUMPDEST PUSH1 0x40 MLOAD DUP1 SWAP2 SUB SWAP1 RETURN JUMPDEST PUSH2 0x17A PUSH2 0x3AA JUMP JUMPDEST PUSH1 0x40 MLOAD PUSH2 0x187 SWAP2 SWAP1 PUSH2 0x59B JUMP JUMPDEST PUSH1 0x40 MLOAD DUP1 SWAP2 SUB SWAP1 RETURN JUMPDEST PUSH2 0x198 PUSH2 0x404 JUMP JUMPDEST PUSH1 0x40 MLOAD PUSH2 0x1A6 SWAP3 SWAP2 SWAP1 PUSH2 0x614 JUMP JUMPDEST PUSH1 0x40 MLOAD DUP1 SWAP2 SUB SWAP1 RETURN JUMPDEST PUSH2 0x1B7 PUSH2 0x444 JUMP JUMPDEST PUSH1 0x40 MLOAD PUSH2 0x1C4 SWAP2 SWAP1 PUSH2 0x59B JUMP JUMPDEST PUSH1 0x40 MLOAD DUP1 SWAP2 SUB SWAP1 RETURN JUMPDEST PUSH1 0x60 PUSH1 0x5 DUP1 SLOAD DUP1 PUSH1 0x20 MUL PUSH1 0x20 ADD PUSH1 0x40 MLOAD SWAP1 DUP2 ADD PUSH1 0x40 MSTORE DUP1 SWAP3 SWAP2 SWAP1 DUP2 DUP2 MSTORE PUSH1 0x20 ADD DUP3 DUP1 SLOAD DUP1 ISZERO PUSH2 0x21B JUMPI PUSH1 0x20 MUL DUP3 ADD SWAP2 SWAP1 PUSH1 0x0 MSTORE PUSH1 0x20 PUSH1 0x0 KECCAK256 SWAP1 JUMPDEST DUP2 SLOAD DUP2 MSTORE PUSH1 0x20 ADD SWAP1 PUSH1 0x1 ADD SWAP1 DUP1 DUP4 GT PUSH2 0x207 JUMPI JUMPDEST POP POP POP POP POP SWAP1 POP SWAP1 JUMP JUMPDEST PUSH1 0x0 DUP1 PUSH1 0x0 JUMPDEST PUSH1 0x4 DUP2 LT ISZERO PUSH2 0x26A JUMPI PUSH1 0x0 DUP2 PUSH1 0x4 DUP2 LT PUSH2 0x248 JUMPI PUSH2 0x247 PUSH2 0x6DC JUMP JUMPDEST JUMPDEST ADD SLOAD DUP3 PUSH2 0x255 SWAP2 SWAP1 PUSH2 0x73A JUMP JUMPDEST SWAP2 POP DUP1 DUP1 PUSH2 0x262 SWAP1 PUSH2 0x76E JUMP JUMPDEST SWAP2 POP POP PUSH2 0x22B JUMP JUMPDEST POP DUP1 SWAP2 POP POP SWAP1 JUMP JUMPDEST DUP1 PUSH1 0x0 PUSH1 0x4 PUSH1 0x0 DUP2 SLOAD DUP1 SWAP3 SWAP2 SWAP1 PUSH2 0x288 SWAP1 PUSH2 0x76E JUMP JUMPDEST SWAP2 SWAP1 POP SSTORE PUSH1 0x4 DUP2 LT PUSH2 0x29D JUMPI PUSH2 0x29C PUSH2 0x6DC JUMP JUMPDEST JUMPDEST ADD DUP2 SWAP1 SSTORE POP POP JUMP JUMPDEST PUSH1 0x5 DUP2 SWAP1 DUP1 PUSH1 0x1 DUP2 SLOAD ADD DUP1 DUP3 SSTORE DUP1 SWAP2 POP POP PUSH1 0x1 SWAP1 SUB SWAP1 PUSH1 0x0 MSTORE PUSH1 0x20 PUSH1 0x0 KECCAK256 ADD PUSH1 0x0 SWAP1 SWAP2 SWAP1 SWAP2 SWAP1 SWAP2 POP SSTORE POP JUMP JUMPDEST PUSH1 0x0 DUP1 PUSH1 0x0 JUMPDEST PUSH1 0x4 DUP2 LT ISZERO PUSH2 0x316 JUMPI PUSH1 0x0 DUP2 PUSH1 0x4 DUP2 LT PUSH2 0x2F4 JUMPI PUSH2 0x2F3 PUSH2 0x6DC JUMP JUMPDEST JUMPDEST ADD SLOAD DUP3 PUSH2 0x301 SWAP2 SWAP1 PUSH2 0x73A JUMP JUMPDEST SWAP2 POP DUP1 DUP1 PUSH2 0x30E SWAP1 PUSH2 0x76E JUMP JUMPDEST SWAP2 POP POP PUSH2 0x2D7 JUMP JUMPDEST POP DUP1 SWAP2 POP POP SWAP1 JUMP JUMPDEST PUSH1 0x0 DUP1 PUSH1 0x0 DUP1 PUSH1 0x1 SWAP1 POP JUMPDEST PUSH1 0x6 DUP2 LT ISZERO PUSH2 0x353 JUMPI DUP1 DUP3 PUSH2 0x33E SWAP2 SWAP1 PUSH2 0x73A JUMP JUMPDEST SWAP2 POP DUP1 DUP1 PUSH2 0x34B SWAP1 PUSH2 0x76E JUMP JUMPDEST SWAP2 POP POP PUSH2 0x329 JUMP JUMPDEST DUP2 DUP2 SWAP4 POP SWAP4 POP POP POP SWAP1 SWAP2 JUMP JUMPDEST PUSH2 0x367 PUSH2 0x480 JUMP JUMPDEST PUSH1 0x0 PUSH1 0x4 DUP1 PUSH1 0x20 MUL PUSH1 0x40 MLOAD SWAP1 DUP2 ADD PUSH1 0x40 MSTORE DUP1 SWAP3 SWAP2 SWAP1 DUP3 PUSH1 0x4 DUP1 ISZERO PUSH2 0x3A0 JUMPI PUSH1 0x20 MUL DUP3 ADD SWAP2 JUMPDEST DUP2 SLOAD DUP2 MSTORE PUSH1 0x20 ADD SWAP1 PUSH1 0x1 ADD SWAP1 DUP1 DUP4 GT PUSH2 0x38C JUMPI JUMPDEST POP POP POP POP POP SWAP1 POP SWAP1 JUMP JUMPDEST PUSH1 0x0 DUP1 PUSH1 0x0 JUMPDEST PUSH1 0x5 DUP1 SLOAD SWAP1 POP DUP2 LT ISZERO PUSH2 0x3FC JUMPI PUSH1 0x5 DUP2 DUP2 SLOAD DUP2 LT PUSH2 0x3D1 JUMPI PUSH2 0x3D0 PUSH2 0x6DC JUMP JUMPDEST JUMPDEST SWAP1 PUSH1 0x0 MSTORE PUSH1 0x20 PUSH1 0x0 KECCAK256 ADD SLOAD DUP3 PUSH2 0x3E7 SWAP2 SWAP1 PUSH2 0x73A JUMP JUMPDEST SWAP2 POP DUP1 DUP1 PUSH2 0x3F4 SWAP1 PUSH2 0x76E JUMP JUMPDEST SWAP2 POP POP PUSH2 0x3B0 JUMP JUMPDEST POP DUP1 SWAP2 POP POP SWAP1 JUMP JUMPDEST PUSH1 0x0 DUP1 PUSH1 0x0 DUP1 PUSH1 0x1 SWAP1 POP JUMPDEST PUSH1 0x6 DUP2 GT PUSH2 0x438 JUMPI DUP1 DUP3 PUSH2 0x423 SWAP2 SWAP1 PUSH2 0x73A JUMP JUMPDEST SWAP2 POP DUP1 DUP1 PUSH2 0x430 SWAP1 PUSH2 0x76E JUMP JUMPDEST SWAP2 POP POP PUSH2 0x40F JUMP JUMPDEST DUP2 DUP2 SWAP4 POP SWAP4 POP POP POP SWAP1 SWAP2 JUMP JUMPDEST PUSH1 0x0 DUP1 PUSH1 0x0 PUSH1 0x1 SWAP1 POP JUMPDEST PUSH1 0x6 DUP2 LT ISZERO PUSH2 0x478 JUMPI DUP1 DUP3 PUSH2 0x463 SWAP2 SWAP1 PUSH2 0x73A JUMP JUMPDEST SWAP2 POP DUP1 DUP1 PUSH2 0x470 SWAP1 PUSH2 0x76E JUMP JUMPDEST SWAP2 POP POP PUSH2 0x44E JUMP JUMPDEST POP DUP1 SWAP2 POP POP SWAP1 JUMP JUMPDEST PUSH1 0x40 MLOAD DUP1 PUSH1 0x80 ADD PUSH1 0x40 MSTORE DUP1 PUSH1 0x4 SWAP1 PUSH1 0x20 DUP3 MUL DUP1 CALLDATASIZE DUP4 CALLDATACOPY DUP1 DUP3 ADD SWAP2 POP POP SWAP1 POP POP SWAP1 JUMP JUMPDEST PUSH1 0x0 DUP2 MLOAD SWAP1 POP SWAP2 SWAP1 POP JUMP JUMPDEST PUSH1 0x0 DUP3 DUP3 MSTORE PUSH1 0x20 DUP3 ADD SWAP1 POP SWAP3 SWAP2 POP POP JUMP JUMPDEST PUSH1 0x0 DUP2 SWAP1 POP PUSH1 0x20 DUP3 ADD SWAP1 POP SWAP2 SWAP1 POP JUMP JUMPDEST PUSH1 0x0 DUP2 SWAP1 POP SWAP2 SWAP1 POP JUMP JUMPDEST PUSH2 0x4E1 DUP2 PUSH2 0x4CE JUMP JUMPDEST DUP3 MSTORE POP POP JUMP JUMPDEST PUSH1 0x0 PUSH2 0x4F3 DUP4 DUP4 PUSH2 0x4D8 JUMP JUMPDEST PUSH1 0x20 DUP4 ADD SWAP1 POP SWAP3 SWAP2 POP POP JUMP JUMPDEST PUSH1 0x0 PUSH1 0x20 DUP3 ADD SWAP1 POP SWAP2 SWAP1 POP JUMP JUMPDEST PUSH1 0x0 PUSH2 0x517 DUP3 PUSH2 0x4A2 JUMP JUMPDEST PUSH2 0x521 DUP2 DUP6 PUSH2 0x4AD JUMP JUMPDEST SWAP4 POP PUSH2 0x52C DUP4 PUSH2 0x4BE JUMP JUMPDEST DUP1 PUSH1 0x0 JUMPDEST DUP4 DUP2 LT ISZERO PUSH2 0x55D JUMPI DUP2 MLOAD PUSH2 0x544 DUP9 DUP3 PUSH2 0x4E7 JUMP JUMPDEST SWAP8 POP PUSH2 0x54F DUP4 PUSH2 0x4FF JUMP JUMPDEST SWAP3 POP POP PUSH1 0x1 DUP2 ADD SWAP1 POP PUSH2 0x530 JUMP JUMPDEST POP DUP6 SWAP4 POP POP POP POP SWAP3 SWAP2 POP POP JUMP JUMPDEST PUSH1 0x0 PUSH1 0x20 DUP3 ADD SWAP1 POP DUP2 DUP2 SUB PUSH1 0x0 DUP4 ADD MSTORE PUSH2 0x584 DUP2 DUP5 PUSH2 0x50C JUMP JUMPDEST SWAP1 POP SWAP3 SWAP2 POP POP JUMP JUMPDEST PUSH2 0x595 DUP2 PUSH2 0x4CE JUMP JUMPDEST DUP3 MSTORE POP POP JUMP JUMPDEST PUSH1 0x0 PUSH1 0x20 DUP3 ADD SWAP1 POP PUSH2 0x5B0 PUSH1 0x0 DUP4 ADD DUP5 PUSH2 0x58C JUMP JUMPDEST SWAP3 SWAP2 POP POP JUMP JUMPDEST PUSH1 0x0 DUP1 REVERT JUMPDEST PUSH2 0x5C4 DUP2 PUSH2 0x4CE JUMP JUMPDEST DUP2 EQ PUSH2 0x5CF JUMPI PUSH1 0x0 DUP1 REVERT JUMPDEST POP JUMP JUMPDEST PUSH1 0x0 DUP2 CALLDATALOAD SWAP1 POP PUSH2 0x5E1 DUP2 PUSH2 0x5BB JUMP JUMPDEST SWAP3 SWAP2 POP POP JUMP JUMPDEST PUSH1 0x0 PUSH1 0x20 DUP3 DUP5 SUB SLT ISZERO PUSH2 0x5FD JUMPI PUSH2 0x5FC PUSH2 0x5B6 JUMP JUMPDEST JUMPDEST PUSH1 0x0 PUSH2 0x60B DUP5 DUP3 DUP6 ADD PUSH2 0x5D2 JUMP JUMPDEST SWAP2 POP POP SWAP3 SWAP2 POP POP JUMP JUMPDEST PUSH1 0x0 PUSH1 0x40 DUP3 ADD SWAP1 POP PUSH2 0x629 PUSH1 0x0 DUP4 ADD DUP6 PUSH2 0x58C JUMP JUMPDEST PUSH2 0x636 PUSH1 0x20 DUP4 ADD DUP5 PUSH2 0x58C JUMP JUMPDEST SWAP4 SWAP3 POP POP POP JUMP JUMPDEST PUSH1 0x0 PUSH1 0x4 SWAP1 POP SWAP2 SWAP1 POP JUMP JUMPDEST PUSH1 0x0 DUP2 SWAP1 POP SWAP3 SWAP2 POP POP JUMP JUMPDEST PUSH1 0x0 DUP2 SWAP1 POP SWAP2 SWAP1 POP JUMP JUMPDEST PUSH1 0x0 PUSH1 0x20 DUP3 ADD SWAP1 POP SWAP2 SWAP1 POP JUMP JUMPDEST PUSH2 0x673 DUP2 PUSH2 0x63D JUMP JUMPDEST PUSH2 0x67D DUP2 DUP5 PUSH2 0x648 JUMP JUMPDEST SWAP3 POP PUSH2 0x688 DUP3 PUSH2 0x653 JUMP JUMPDEST DUP1 PUSH1 0x0 JUMPDEST DUP4 DUP2 LT ISZERO PUSH2 0x6B9 JUMPI DUP2 MLOAD PUSH2 0x6A0 DUP8 DUP3 PUSH2 0x4E7 JUMP JUMPDEST SWAP7 POP PUSH2 0x6AB DUP4 PUSH2 0x65D JUMP JUMPDEST SWAP3 POP POP PUSH1 0x1 DUP2 ADD SWAP1 POP PUSH2 0x68C JUMP JUMPDEST POP POP POP POP POP POP JUMP JUMPDEST PUSH1 0x0 PUSH1 0x80 DUP3 ADD SWAP1 POP PUSH2 0x6D6 PUSH1 0x0 DUP4 ADD DUP5 PUSH2 0x66A JUMP JUMPDEST SWAP3 SWAP2 POP POP JUMP JUMPDEST PUSH32 0x4E487B7100000000000000000000000000000000000000000000000000000000 PUSH1 0x0 MSTORE PUSH1 0x32 PUSH1 0x4 MSTORE PUSH1 0x24 PUSH1 0x0 REVERT JUMPDEST PUSH32 0x4E487B7100000000000000000000000000000000000000000000000000000000 PUSH1 0x0 MSTORE PUSH1 0x11 PUSH1 0x4 MSTORE PUSH1 0x24 PUSH1 0x0 REVERT JUMPDEST PUSH1 0x0 PUSH2 0x745 DUP3 PUSH2 0x4CE JUMP JUMPDEST SWAP2 POP PUSH2 0x750 DUP4 PUSH2 0x4CE JUMP JUMPDEST SWAP3 POP DUP3 DUP3 ADD SWAP1 POP DUP1 DUP3 GT ISZERO PUSH2 0x768 JUMPI PUSH2 0x767 PUSH2 0x70B JUMP JUMPDEST JUMPDEST SWAP3 SWAP2 POP POP JUMP JUMPDEST PUSH1 0x0 PUSH2 0x779 DUP3 PUSH2 0x4CE JUMP JUMPDEST SWAP2 POP PUSH32 0xFFFFFFFFFFFFFFFFFFFFFFFFFFFFFFFFFFFFFFFFFFFFFFFFFFFFFFFFFFFFFFFF DUP3 SUB PUSH2 0x7AB JUMPI PUSH2 0x7AA PUSH2 0x70B JUMP JUMPDEST JUMPDEST PUSH1 0x1 DUP3 ADD SWAP1 POP SWAP2 SWAP1 POP JUMP INVALID LOG2 PUSH5 0x6970667358 0x22 SLT KECCAK256 SELFBALANCE LOG4 CODESIZE MSTORE 0xBF 0xDA 0xEB 0xD1 EXTCODECOPY PUSH11 0xA344E054B3428CA5C44D6A BASEFEE 0x21 RETURNDATASIZE 0x1F OR 0x23 0xD8 LOG1 0xC6 CALLDATACOPY 0xAC PUSH5 0x736F6C6343 STOP ADDMOD SLT STOP CALLER "
				},
				"gasEstimates": {
					"creation": {
						"codeDepositCost": "405600",
						"executionCost": "443",
						"totalCost": "406043"
					},
					"external": {
						"forLoop()": "infinite",
						"forLoop2()": "infinite",
						"forLoop3()": "infinite",
						"forLoop4()": "infinite",
						"forLoop5()": "infinite",
						"forLoop6()": "infinite",
						"getC()": "infinite",
						"getD()": "infinite",
						"pushA(uint256)": "infinite",
						"pushd(uint256)": "46896"
					}
				},
				"methodIdentifiers": {
					"forLoop()": "fc0e6008",
					"forLoop2()": "4e744db2",
					"forLoop3()": "de438f5c",
					"forLoop4()": "317e84d5",
					"forLoop5()": "4c9262b4",
					"forLoop6()": "d469d3f6",
					"getC()": "a2375d1e",
					"getD()": "1a14ff7a",
					"pushA(uint256)": "40bb882d",
					"pushd(uint256)": "448381b2"
				}
			},
			"storageLayout": {
				"storage": [
					{
						"astId": 359,
						"contract": "contracts/0509/note.sol:Note2",
						"label": "c",
						"offset": 0,
						"slot": "0",
						"type": "t_array(t_uint256)4_storage"
					},
					{
						"astId": 361,
						"contract": "contracts/0509/note.sol:Note2",
						"label": "count",
						"offset": 0,
						"slot": "4",
						"type": "t_uint256"
					},
					{
						"astId": 450,
						"contract": "contracts/0509/note.sol:Note2",
						"label": "d",
						"offset": 0,
						"slot": "5",
						"type": "t_array(t_uint256)dyn_storage"
					}
				],
				"types": {
					"t_array(t_uint256)4_storage": {
						"base": "t_uint256",
						"encoding": "inplace",
						"label": "uint256[4]",
						"numberOfBytes": "128"
					},
					"t_array(t_uint256)dyn_storage": {
						"base": "t_uint256",
						"encoding": "dynamic_array",
						"label": "uint256[]",
						"numberOfBytes": "32"
					},
					"t_uint256": {
						"encoding": "inplace",
						"label": "uint256",
						"numberOfBytes": "32"
					}
				}
			},
			"userdoc": {
				"kind": "user",
				"methods": {},
				"version": 1
			}
		}
	}
}