{
	"contracts/0509/note.sol": {
		"Mapping": {
			"abi": [
				{
					"inputs": [
						{
							"internalType": "string",
							"name": "_b",
							"type": "string"
						}
					],
					"name": "getB",
					"outputs": [
						{
							"internalType": "uint256",
							"name": "",
							"type": "uint256"
						}
					],
					"stateMutability": "view",
					"type": "function"
				},
				{
					"inputs": [
						{
							"internalType": "string",
							"name": "_Teacher",
							"type": "string"
						}
					],
					"name": "getTeacher_Student",
					"outputs": [
						{
							"components": [
								{
									"internalType": "uint256",
									"name": "number",
									"type": "uint256"
								},
								{
									"internalType": "string",
									"name": "name",
									"type": "string"
								},
								{
									"internalType": "string[]",
									"name": "classes",
									"type": "string[]"
								}
							],
							"internalType": "struct Mapping.Student",
							"name": "",
							"type": "tuple"
						}
					],
					"stateMutability": "view",
					"type": "function"
				},
				{
					"inputs": [
						{
							"internalType": "string",
							"name": "_b",
							"type": "string"
						},
						{
							"internalType": "uint256",
							"name": "_num",
							"type": "uint256"
						}
					],
					"name": "setB",
					"outputs": [],
					"stateMutability": "nonpayable",
					"type": "function"
				},
				{
					"inputs": [
						{
							"internalType": "string",
							"name": "_Teacher",
							"type": "string"
						},
						{
							"internalType": "uint256",
							"name": "_number",
							"type": "uint256"
						},
						{
							"internalType": "string",
							"name": "_name",
							"type": "string"
						},
						{
							"internalType": "string[]",
							"name": "_classes",
							"type": "string[]"
						}
					],
					"name": "setStudent",
					"outputs": [],
					"stateMutability": "nonpayable",
					"type": "function"
				}
			],
			"devdoc": {
				"kind": "dev",
				"methods": {},
				"version": 1
			},
			"evm": {
				"assembly": "    /* \"contracts/0509/note.sol\":967:1749  contract Mapping{... */\n  mstore(0x40, 0x80)\n  callvalue\n  dup1\n  iszero\n  tag_1\n  jumpi\n  0x00\n  dup1\n  revert\ntag_1:\n  pop\n  dataSize(sub_0)\n  dup1\n  dataOffset(sub_0)\n  0x00\n  codecopy\n  0x00\n  return\nstop\n\nsub_0: assembly {\n        /* \"contracts/0509/note.sol\":967:1749  contract Mapping{... */\n      mstore(0x40, 0x80)\n      callvalue\n      dup1\n      iszero\n      tag_1\n      jumpi\n      0x00\n      dup1\n      revert\n    tag_1:\n      pop\n      jumpi(tag_2, lt(calldatasize, 0x04))\n      shr(0xe0, calldataload(0x00))\n      dup1\n      0xad33ed\n      eq\n      tag_3\n      jumpi\n      dup1\n      0x13465f12\n      eq\n      tag_4\n      jumpi\n      dup1\n      0xbf8ec6ae\n      eq\n      tag_5\n      jumpi\n      dup1\n      0xc013118f\n      eq\n      tag_6\n      jumpi\n    tag_2:\n      0x00\n      dup1\n      revert\n        /* \"contracts/0509/note.sol\":1146:1236  function getB(string memory _b) public view returns (uint) {... */\n    tag_3:\n      tag_7\n      0x04\n      dup1\n      calldatasize\n      sub\n      dup2\n      add\n      swap1\n      tag_8\n      swap2\n      swap1\n      tag_9\n      jump\t// in\n    tag_8:\n      tag_10\n      jump\t// in\n    tag_7:\n      mload(0x40)\n      tag_11\n      swap2\n      swap1\n      tag_12\n      jump\t// in\n    tag_11:\n      mload(0x40)\n      dup1\n      swap2\n      sub\n      swap1\n      return\n        /* \"contracts/0509/note.sol\":1057:1138  function setB(string memory _b, uint _num) public {... */\n    tag_4:\n      tag_13\n      0x04\n      dup1\n      calldatasize\n      sub\n      dup2\n      add\n      swap1\n      tag_14\n      swap2\n      swap1\n      tag_15\n      jump\t// in\n    tag_14:\n      tag_16\n      jump\t// in\n    tag_13:\n      stop\n        /* \"contracts/0509/note.sol\":1397:1598  function setStudent(string memory _Teacher, uint _number, string memory _name, string[] memory _classes) public{... */\n    tag_5:\n      tag_17\n      0x04\n      dup1\n      calldatasize\n      sub\n      dup2\n      add\n      swap1\n      tag_18\n      swap2\n      swap1\n      tag_19\n      jump\t// in\n    tag_18:\n      tag_20\n      jump\t// in\n    tag_17:\n      stop\n        /* \"contracts/0509/note.sol\":1606:1746  function getTeacher_Student(string memory _Teacher) public view returns (Student memory){... */\n    tag_6:\n      tag_21\n      0x04\n      dup1\n      calldatasize\n      sub\n      dup2\n      add\n      swap1\n      tag_22\n      swap2\n      swap1\n      tag_9\n      jump\t// in\n    tag_22:\n      tag_23\n      jump\t// in\n    tag_21:\n      mload(0x40)\n      tag_24\n      swap2\n      swap1\n      tag_25\n      jump\t// in\n    tag_24:\n      mload(0x40)\n      dup1\n      swap2\n      sub\n      swap1\n      return\n        /* \"contracts/0509/note.sol\":1146:1236  function getB(string memory _b) public view returns (uint) {... */\n    tag_10:\n        /* \"contracts/0509/note.sol\":1199:1203  uint */\n      0x00\n        /* \"contracts/0509/note.sol\":1223:1224  b */\n      0x01\n        /* \"contracts/0509/note.sol\":1225:1227  _b */\n      dup3\n        /* \"contracts/0509/note.sol\":1223:1228  b[_b] */\n      mload(0x40)\n      tag_27\n      swap2\n      swap1\n      tag_28\n      jump\t// in\n    tag_27:\n      swap1\n      dup2\n      mstore\n      0x20\n      add\n      mload(0x40)\n      dup1\n      swap2\n      sub\n      swap1\n      keccak256\n      sload\n        /* \"contracts/0509/note.sol\":1216:1228  return b[_b] */\n      swap1\n      pop\n        /* \"contracts/0509/note.sol\":1146:1236  function getB(string memory _b) public view returns (uint) {... */\n      swap2\n      swap1\n      pop\n      jump\t// out\n        /* \"contracts/0509/note.sol\":1057:1138  function setB(string memory _b, uint _num) public {... */\n    tag_16:\n        /* \"contracts/0509/note.sol\":1126:1130  _num */\n      dup1\n        /* \"contracts/0509/note.sol\":1118:1119  b */\n      0x01\n        /* \"contracts/0509/note.sol\":1120:1122  _b */\n      dup4\n        /* \"contracts/0509/note.sol\":1118:1123  b[_b] */\n      mload(0x40)\n      tag_30\n      swap2\n      swap1\n      tag_28\n      jump\t// in\n    tag_30:\n      swap1\n      dup2\n      mstore\n      0x20\n      add\n      mload(0x40)\n      dup1\n      swap2\n      sub\n      swap1\n      keccak256\n        /* \"contracts/0509/note.sol\":1118:1130  b[_b] = _num */\n      dup2\n      swap1\n      sstore\n      pop\n        /* \"contracts/0509/note.sol\":1057:1138  function setB(string memory _b, uint _num) public {... */\n      pop\n      pop\n      jump\t// out\n        /* \"contracts/0509/note.sol\":1397:1598  function setStudent(string memory _Teacher, uint _number, string memory _name, string[] memory _classes) public{... */\n    tag_20:\n        /* \"contracts/0509/note.sol\":1547:1580  Student(_number, _name, _classes) */\n      mload(0x40)\n      dup1\n      0x60\n      add\n      0x40\n      mstore\n      dup1\n        /* \"contracts/0509/note.sol\":1555:1562  _number */\n      dup5\n        /* \"contracts/0509/note.sol\":1547:1580  Student(_number, _name, _classes) */\n      dup2\n      mstore\n      0x20\n      add\n        /* \"contracts/0509/note.sol\":1564:1569  _name */\n      dup4\n        /* \"contracts/0509/note.sol\":1547:1580  Student(_number, _name, _classes) */\n      dup2\n      mstore\n      0x20\n      add\n        /* \"contracts/0509/note.sol\":1571:1579  _classes */\n      dup3\n        /* \"contracts/0509/note.sol\":1547:1580  Student(_number, _name, _classes) */\n      dup2\n      mstore\n      pop\n        /* \"contracts/0509/note.sol\":1519:1534  Teacher_Student */\n      0x02\n        /* \"contracts/0509/note.sol\":1535:1543  _Teacher */\n      dup6\n        /* \"contracts/0509/note.sol\":1519:1544  Teacher_Student[_Teacher] */\n      mload(0x40)\n      tag_32\n      swap2\n      swap1\n      tag_28\n      jump\t// in\n    tag_32:\n      swap1\n      dup2\n      mstore\n      0x20\n      add\n      mload(0x40)\n      dup1\n      swap2\n      sub\n      swap1\n      keccak256\n        /* \"contracts/0509/note.sol\":1519:1580  Teacher_Student[_Teacher] = Student(_number, _name, _classes) */\n      0x00\n      dup3\n      add\n      mload\n      dup2\n      0x00\n      add\n      sstore\n      0x20\n      dup3\n      add\n      mload\n      dup2\n      0x01\n      add\n      swap1\n      dup2\n      tag_33\n      swap2\n      swap1\n      tag_34\n      jump\t// in\n    tag_33:\n      pop\n      0x40\n      dup3\n      add\n      mload\n      dup2\n      0x02\n      add\n      swap1\n      dup1\n      mload\n      swap1\n      0x20\n      add\n      swap1\n      tag_35\n      swap3\n      swap2\n      swap1\n      tag_36\n      jump\t// in\n    tag_35:\n      pop\n      swap1\n      pop\n      pop\n        /* \"contracts/0509/note.sol\":1397:1598  function setStudent(string memory _Teacher, uint _number, string memory _name, string[] memory _classes) public{... */\n      pop\n      pop\n      pop\n      pop\n      jump\t// out\n        /* \"contracts/0509/note.sol\":1606:1746  function getTeacher_Student(string memory _Teacher) public view returns (Student memory){... */\n    tag_23:\n        /* \"contracts/0509/note.sol\":1679:1693  Student memory */\n      tag_37\n      tag_38\n      jump\t// in\n    tag_37:\n        /* \"contracts/0509/note.sol\":1713:1728  Teacher_Student */\n      0x02\n        /* \"contracts/0509/note.sol\":1729:1737  _Teacher */\n      dup3\n        /* \"contracts/0509/note.sol\":1713:1738  Teacher_Student[_Teacher] */\n      mload(0x40)\n      tag_40\n      swap2\n      swap1\n      tag_28\n      jump\t// in\n    tag_40:\n      swap1\n      dup2\n      mstore\n      0x20\n      add\n      mload(0x40)\n      dup1\n      swap2\n      sub\n      swap1\n      keccak256\n        /* \"contracts/0509/note.sol\":1705:1738  return  Teacher_Student[_Teacher] */\n      mload(0x40)\n      dup1\n      0x60\n      add\n      0x40\n      mstore\n      swap1\n      dup2\n      0x00\n      dup3\n      add\n      sload\n      dup2\n      mstore\n      0x20\n      add\n      0x01\n      dup3\n      add\n      dup1\n      sload\n      tag_41\n      swap1\n      tag_42\n      jump\t// in\n    tag_41:\n      dup1\n      0x1f\n      add\n      0x20\n      dup1\n      swap2\n      div\n      mul\n      0x20\n      add\n      mload(0x40)\n      swap1\n      dup2\n      add\n      0x40\n      mstore\n      dup1\n      swap3\n      swap2\n      swap1\n      dup2\n      dup2\n      mstore\n      0x20\n      add\n      dup3\n      dup1\n      sload\n      tag_43\n      swap1\n      tag_42\n      jump\t// in\n    tag_43:\n      dup1\n      iszero\n      tag_44\n      jumpi\n      dup1\n      0x1f\n      lt\n      tag_45\n      jumpi\n      0x0100\n      dup1\n      dup4\n      sload\n      div\n      mul\n      dup4\n      mstore\n      swap2\n      0x20\n      add\n      swap2\n      jump(tag_44)\n    tag_45:\n      dup3\n      add\n      swap2\n      swap1\n      0x00\n      mstore\n      keccak256(0x00, 0x20)\n      swap1\n    tag_46:\n      dup2\n      sload\n      dup2\n      mstore\n      swap1\n      0x01\n      add\n      swap1\n      0x20\n      add\n      dup1\n      dup4\n      gt\n      tag_46\n      jumpi\n      dup3\n      swap1\n      sub\n      0x1f\n      and\n      dup3\n      add\n      swap2\n    tag_44:\n      pop\n      pop\n      pop\n      pop\n      pop\n      dup2\n      mstore\n      0x20\n      add\n      0x02\n      dup3\n      add\n      dup1\n      sload\n      dup1\n      0x20\n      mul\n      0x20\n      add\n      mload(0x40)\n      swap1\n      dup2\n      add\n      0x40\n      mstore\n      dup1\n      swap3\n      swap2\n      swap1\n      dup2\n      dup2\n      mstore\n      0x20\n      add\n      0x00\n      swap1\n    tag_47:\n      dup3\n      dup3\n      lt\n      iszero\n      tag_48\n      jumpi\n      dup4\n      dup3\n      swap1\n      0x00\n      mstore\n      keccak256(0x00, 0x20)\n      add\n      dup1\n      sload\n      tag_50\n      swap1\n      tag_42\n      jump\t// in\n    tag_50:\n      dup1\n      0x1f\n      add\n      0x20\n      dup1\n      swap2\n      div\n      mul\n      0x20\n      add\n      mload(0x40)\n      swap1\n      dup2\n      add\n      0x40\n      mstore\n      dup1\n      swap3\n      swap2\n      swap1\n      dup2\n      dup2\n      mstore\n      0x20\n      add\n      dup3\n      dup1\n      sload\n      tag_51\n      swap1\n      tag_42\n      jump\t// in\n    tag_51:\n      dup1\n      iszero\n      tag_52\n      jumpi\n      dup1\n      0x1f\n      lt\n      tag_53\n      jumpi\n      0x0100\n      dup1\n      dup4\n      sload\n      div\n      mul\n      dup4\n      mstore\n      swap2\n      0x20\n      add\n      swap2\n      jump(tag_52)\n    tag_53:\n      dup3\n      add\n      swap2\n      swap1\n      0x00\n      mstore\n      keccak256(0x00, 0x20)\n      swap1\n    tag_54:\n      dup2\n      sload\n      dup2\n      mstore\n      swap1\n      0x01\n      add\n      swap1\n      0x20\n      add\n      dup1\n      dup4\n      gt\n      tag_54\n      jumpi\n      dup3\n      swap1\n      sub\n      0x1f\n      and\n      dup3\n      add\n      swap2\n    tag_52:\n      pop\n      pop\n      pop\n      pop\n      pop\n      dup2\n      mstore\n      0x20\n      add\n      swap1\n      0x01\n      add\n      swap1\n      jump(tag_47)\n    tag_48:\n      pop\n      pop\n      pop\n      pop\n      dup2\n      mstore\n      pop\n      pop\n      swap1\n      pop\n        /* \"contracts/0509/note.sol\":1606:1746  function getTeacher_Student(string memory _Teacher) public view returns (Student memory){... */\n      swap2\n      swap1\n      pop\n      jump\t// out\n    tag_36:\n      dup3\n      dup1\n      sload\n      dup3\n      dup3\n      sstore\n      swap1\n      0x00\n      mstore\n      keccak256(0x00, 0x20)\n      swap1\n      dup2\n      add\n      swap3\n      dup3\n      iszero\n      tag_55\n      jumpi\n      swap2\n      0x20\n      mul\n      dup3\n      add\n    tag_56:\n      dup3\n      dup2\n      gt\n      iszero\n      tag_57\n      jumpi\n      dup3\n      mload\n      dup3\n      swap1\n      dup2\n      tag_58\n      swap2\n      swap1\n      tag_34\n      jump\t// in\n    tag_58:\n      pop\n      swap2\n      0x20\n      add\n      swap2\n      swap1\n      0x01\n      add\n      swap1\n      jump(tag_56)\n    tag_57:\n    tag_55:\n      pop\n      swap1\n      pop\n      tag_59\n      swap2\n      swap1\n      tag_60\n      jump\t// in\n    tag_59:\n      pop\n      swap1\n      jump\t// out\n    tag_38:\n      mload(0x40)\n      dup1\n      0x60\n      add\n      0x40\n      mstore\n      dup1\n      0x00\n      dup2\n      mstore\n      0x20\n      add\n      0x60\n      dup2\n      mstore\n      0x20\n      add\n      0x60\n      dup2\n      mstore\n      pop\n      swap1\n      jump\t// out\n    tag_60:\n    tag_61:\n      dup1\n      dup3\n      gt\n      iszero\n      tag_62\n      jumpi\n      0x00\n      dup2\n      dup2\n      tag_63\n      swap2\n      swap1\n      tag_64\n      jump\t// in\n    tag_63:\n      pop\n      0x01\n      add\n      jump(tag_61)\n    tag_62:\n      pop\n      swap1\n      jump\t// out\n    tag_64:\n      pop\n      dup1\n      sload\n      tag_65\n      swap1\n      tag_42\n      jump\t// in\n    tag_65:\n      0x00\n      dup3\n      sstore\n      dup1\n      0x1f\n      lt\n      tag_67\n      jumpi\n      pop\n      jump(tag_66)\n    tag_67:\n      0x1f\n      add\n      0x20\n      swap1\n      div\n      swap1\n      0x00\n      mstore\n      keccak256(0x00, 0x20)\n      swap1\n      dup2\n      add\n      swap1\n      tag_68\n      swap2\n      swap1\n      tag_69\n      jump\t// in\n    tag_68:\n    tag_66:\n      pop\n      jump\t// out\n    tag_69:\n    tag_70:\n      dup1\n      dup3\n      gt\n      iszero\n      tag_71\n      jumpi\n      0x00\n      dup2\n      0x00\n      swap1\n      sstore\n      pop\n      0x01\n      add\n      jump(tag_70)\n    tag_71:\n      pop\n      swap1\n      jump\t// out\n        /* \"#utility.yul\":7:82   */\n    tag_72:\n        /* \"#utility.yul\":40:46   */\n      0x00\n        /* \"#utility.yul\":73:75   */\n      0x40\n        /* \"#utility.yul\":67:76   */\n      mload\n        /* \"#utility.yul\":57:76   */\n      swap1\n      pop\n        /* \"#utility.yul\":7:82   */\n      swap1\n      jump\t// out\n        /* \"#utility.yul\":88:205   */\n    tag_73:\n        /* \"#utility.yul\":197:198   */\n      0x00\n        /* \"#utility.yul\":194:195   */\n      dup1\n        /* \"#utility.yul\":187:199   */\n      revert\n        /* \"#utility.yul\":211:328   */\n    tag_74:\n        /* \"#utility.yul\":320:321   */\n      0x00\n        /* \"#utility.yul\":317:318   */\n      dup1\n        /* \"#utility.yul\":310:322   */\n      revert\n        /* \"#utility.yul\":334:451   */\n    tag_75:\n        /* \"#utility.yul\":443:444   */\n      0x00\n        /* \"#utility.yul\":440:441   */\n      dup1\n        /* \"#utility.yul\":433:445   */\n      revert\n        /* \"#utility.yul\":457:574   */\n    tag_76:\n        /* \"#utility.yul\":566:567   */\n      0x00\n        /* \"#utility.yul\":563:564   */\n      dup1\n        /* \"#utility.yul\":556:568   */\n      revert\n        /* \"#utility.yul\":580:682   */\n    tag_77:\n        /* \"#utility.yul\":621:627   */\n      0x00\n        /* \"#utility.yul\":672:674   */\n      0x1f\n        /* \"#utility.yul\":668:675   */\n      not\n        /* \"#utility.yul\":663:665   */\n      0x1f\n        /* \"#utility.yul\":656:661   */\n      dup4\n        /* \"#utility.yul\":652:666   */\n      add\n        /* \"#utility.yul\":648:676   */\n      and\n        /* \"#utility.yul\":638:676   */\n      swap1\n      pop\n        /* \"#utility.yul\":580:682   */\n      swap2\n      swap1\n      pop\n      jump\t// out\n        /* \"#utility.yul\":688:868   */\n    tag_78:\n        /* \"#utility.yul\":736:813   */\n      0x4e487b7100000000000000000000000000000000000000000000000000000000\n        /* \"#utility.yul\":733:734   */\n      0x00\n        /* \"#utility.yul\":726:814   */\n      mstore\n        /* \"#utility.yul\":833:837   */\n      0x41\n        /* \"#utility.yul\":830:831   */\n      0x04\n        /* \"#utility.yul\":823:838   */\n      mstore\n        /* \"#utility.yul\":857:861   */\n      0x24\n        /* \"#utility.yul\":854:855   */\n      0x00\n        /* \"#utility.yul\":847:862   */\n      revert\n        /* \"#utility.yul\":874:1155   */\n    tag_79:\n        /* \"#utility.yul\":957:984   */\n      tag_132\n        /* \"#utility.yul\":979:983   */\n      dup3\n        /* \"#utility.yul\":957:984   */\n      tag_77\n      jump\t// in\n    tag_132:\n        /* \"#utility.yul\":949:955   */\n      dup2\n        /* \"#utility.yul\":945:985   */\n      add\n        /* \"#utility.yul\":1087:1093   */\n      dup2\n        /* \"#utility.yul\":1075:1085   */\n      dup2\n        /* \"#utility.yul\":1072:1094   */\n      lt\n        /* \"#utility.yul\":1051:1069   */\n      0xffffffffffffffff\n        /* \"#utility.yul\":1039:1049   */\n      dup3\n        /* \"#utility.yul\":1036:1070   */\n      gt\n        /* \"#utility.yul\":1033:1095   */\n      or\n        /* \"#utility.yul\":1030:1118   */\n      iszero\n      tag_133\n      jumpi\n        /* \"#utility.yul\":1098:1116   */\n      tag_134\n      tag_78\n      jump\t// in\n    tag_134:\n        /* \"#utility.yul\":1030:1118   */\n    tag_133:\n        /* \"#utility.yul\":1138:1148   */\n      dup1\n        /* \"#utility.yul\":1134:1136   */\n      0x40\n        /* \"#utility.yul\":1127:1149   */\n      mstore\n        /* \"#utility.yul\":917:1155   */\n      pop\n        /* \"#utility.yul\":874:1155   */\n      pop\n      pop\n      jump\t// out\n        /* \"#utility.yul\":1161:1290   */\n    tag_80:\n        /* \"#utility.yul\":1195:1201   */\n      0x00\n        /* \"#utility.yul\":1222:1242   */\n      tag_136\n      tag_72\n      jump\t// in\n    tag_136:\n        /* \"#utility.yul\":1212:1242   */\n      swap1\n      pop\n        /* \"#utility.yul\":1251:1284   */\n      tag_137\n        /* \"#utility.yul\":1279:1283   */\n      dup3\n        /* \"#utility.yul\":1271:1277   */\n      dup3\n        /* \"#utility.yul\":1251:1284   */\n      tag_79\n      jump\t// in\n    tag_137:\n        /* \"#utility.yul\":1161:1290   */\n      swap2\n      swap1\n      pop\n      jump\t// out\n        /* \"#utility.yul\":1296:1604   */\n    tag_81:\n        /* \"#utility.yul\":1358:1362   */\n      0x00\n        /* \"#utility.yul\":1448:1466   */\n      0xffffffffffffffff\n        /* \"#utility.yul\":1440:1446   */\n      dup3\n        /* \"#utility.yul\":1437:1467   */\n      gt\n        /* \"#utility.yul\":1434:1490   */\n      iszero\n      tag_139\n      jumpi\n        /* \"#utility.yul\":1470:1488   */\n      tag_140\n      tag_78\n      jump\t// in\n    tag_140:\n        /* \"#utility.yul\":1434:1490   */\n    tag_139:\n        /* \"#utility.yul\":1508:1537   */\n      tag_141\n        /* \"#utility.yul\":1530:1536   */\n      dup3\n        /* \"#utility.yul\":1508:1537   */\n      tag_77\n      jump\t// in\n    tag_141:\n        /* \"#utility.yul\":1500:1537   */\n      swap1\n      pop\n        /* \"#utility.yul\":1592:1596   */\n      0x20\n        /* \"#utility.yul\":1586:1590   */\n      dup2\n        /* \"#utility.yul\":1582:1597   */\n      add\n        /* \"#utility.yul\":1574:1597   */\n      swap1\n      pop\n        /* \"#utility.yul\":1296:1604   */\n      swap2\n      swap1\n      pop\n      jump\t// out\n        /* \"#utility.yul\":1610:1756   */\n    tag_82:\n        /* \"#utility.yul\":1707:1713   */\n      dup3\n        /* \"#utility.yul\":1702:1705   */\n      dup2\n        /* \"#utility.yul\":1697:1700   */\n      dup4\n        /* \"#utility.yul\":1684:1714   */\n      calldatacopy\n        /* \"#utility.yul\":1748:1749   */\n      0x00\n        /* \"#utility.yul\":1739:1745   */\n      dup4\n        /* \"#utility.yul\":1734:1737   */\n      dup4\n        /* \"#utility.yul\":1730:1746   */\n      add\n        /* \"#utility.yul\":1723:1750   */\n      mstore\n        /* \"#utility.yul\":1610:1756   */\n      pop\n      pop\n      pop\n      jump\t// out\n        /* \"#utility.yul\":1762:2187   */\n    tag_83:\n        /* \"#utility.yul\":1840:1845   */\n      0x00\n        /* \"#utility.yul\":1865:1931   */\n      tag_144\n        /* \"#utility.yul\":1881:1930   */\n      tag_145\n        /* \"#utility.yul\":1923:1929   */\n      dup5\n        /* \"#utility.yul\":1881:1930   */\n      tag_81\n      jump\t// in\n    tag_145:\n        /* \"#utility.yul\":1865:1931   */\n      tag_80\n      jump\t// in\n    tag_144:\n        /* \"#utility.yul\":1856:1931   */\n      swap1\n      pop\n        /* \"#utility.yul\":1954:1960   */\n      dup3\n        /* \"#utility.yul\":1947:1952   */\n      dup2\n        /* \"#utility.yul\":1940:1961   */\n      mstore\n        /* \"#utility.yul\":1992:1996   */\n      0x20\n        /* \"#utility.yul\":1985:1990   */\n      dup2\n        /* \"#utility.yul\":1981:1997   */\n      add\n        /* \"#utility.yul\":2030:2033   */\n      dup5\n        /* \"#utility.yul\":2021:2027   */\n      dup5\n        /* \"#utility.yul\":2016:2019   */\n      dup5\n        /* \"#utility.yul\":2012:2028   */\n      add\n        /* \"#utility.yul\":2009:2034   */\n      gt\n        /* \"#utility.yul\":2006:2118   */\n      iszero\n      tag_146\n      jumpi\n        /* \"#utility.yul\":2037:2116   */\n      tag_147\n      tag_76\n      jump\t// in\n    tag_147:\n        /* \"#utility.yul\":2006:2118   */\n    tag_146:\n        /* \"#utility.yul\":2127:2181   */\n      tag_148\n        /* \"#utility.yul\":2174:2180   */\n      dup5\n        /* \"#utility.yul\":2169:2172   */\n      dup3\n        /* \"#utility.yul\":2164:2167   */\n      dup6\n        /* \"#utility.yul\":2127:2181   */\n      tag_82\n      jump\t// in\n    tag_148:\n        /* \"#utility.yul\":1846:2187   */\n      pop\n        /* \"#utility.yul\":1762:2187   */\n      swap4\n      swap3\n      pop\n      pop\n      pop\n      jump\t// out\n        /* \"#utility.yul\":2207:2547   */\n    tag_84:\n        /* \"#utility.yul\":2263:2268   */\n      0x00\n        /* \"#utility.yul\":2312:2315   */\n      dup3\n        /* \"#utility.yul\":2305:2309   */\n      0x1f\n        /* \"#utility.yul\":2297:2303   */\n      dup4\n        /* \"#utility.yul\":2293:2310   */\n      add\n        /* \"#utility.yul\":2289:2316   */\n      slt\n        /* \"#utility.yul\":2279:2401   */\n      tag_150\n      jumpi\n        /* \"#utility.yul\":2320:2399   */\n      tag_151\n      tag_75\n      jump\t// in\n    tag_151:\n        /* \"#utility.yul\":2279:2401   */\n    tag_150:\n        /* \"#utility.yul\":2437:2443   */\n      dup2\n        /* \"#utility.yul\":2424:2444   */\n      calldataload\n        /* \"#utility.yul\":2462:2541   */\n      tag_152\n        /* \"#utility.yul\":2537:2540   */\n      dup5\n        /* \"#utility.yul\":2529:2535   */\n      dup3\n        /* \"#utility.yul\":2522:2526   */\n      0x20\n        /* \"#utility.yul\":2514:2520   */\n      dup7\n        /* \"#utility.yul\":2510:2527   */\n      add\n        /* \"#utility.yul\":2462:2541   */\n      tag_83\n      jump\t// in\n    tag_152:\n        /* \"#utility.yul\":2453:2541   */\n      swap2\n      pop\n        /* \"#utility.yul\":2269:2547   */\n      pop\n        /* \"#utility.yul\":2207:2547   */\n      swap3\n      swap2\n      pop\n      pop\n      jump\t// out\n        /* \"#utility.yul\":2553:3062   */\n    tag_9:\n        /* \"#utility.yul\":2622:2628   */\n      0x00\n        /* \"#utility.yul\":2671:2673   */\n      0x20\n        /* \"#utility.yul\":2659:2668   */\n      dup3\n        /* \"#utility.yul\":2650:2657   */\n      dup5\n        /* \"#utility.yul\":2646:2669   */\n      sub\n        /* \"#utility.yul\":2642:2674   */\n      slt\n        /* \"#utility.yul\":2639:2758   */\n      iszero\n      tag_154\n      jumpi\n        /* \"#utility.yul\":2677:2756   */\n      tag_155\n      tag_73\n      jump\t// in\n    tag_155:\n        /* \"#utility.yul\":2639:2758   */\n    tag_154:\n        /* \"#utility.yul\":2825:2826   */\n      0x00\n        /* \"#utility.yul\":2814:2823   */\n      dup3\n        /* \"#utility.yul\":2810:2827   */\n      add\n        /* \"#utility.yul\":2797:2828   */\n      calldataload\n        /* \"#utility.yul\":2855:2873   */\n      0xffffffffffffffff\n        /* \"#utility.yul\":2847:2853   */\n      dup2\n        /* \"#utility.yul\":2844:2874   */\n      gt\n        /* \"#utility.yul\":2841:2958   */\n      iszero\n      tag_156\n      jumpi\n        /* \"#utility.yul\":2877:2956   */\n      tag_157\n      tag_74\n      jump\t// in\n    tag_157:\n        /* \"#utility.yul\":2841:2958   */\n    tag_156:\n        /* \"#utility.yul\":2982:3045   */\n      tag_158\n        /* \"#utility.yul\":3037:3044   */\n      dup5\n        /* \"#utility.yul\":3028:3034   */\n      dup3\n        /* \"#utility.yul\":3017:3026   */\n      dup6\n        /* \"#utility.yul\":3013:3035   */\n      add\n        /* \"#utility.yul\":2982:3045   */\n      tag_84\n      jump\t// in\n    tag_158:\n        /* \"#utility.yul\":2972:3045   */\n      swap2\n      pop\n        /* \"#utility.yul\":2768:3055   */\n      pop\n        /* \"#utility.yul\":2553:3062   */\n      swap3\n      swap2\n      pop\n      pop\n      jump\t// out\n        /* \"#utility.yul\":3068:3145   */\n    tag_85:\n        /* \"#utility.yul\":3105:3112   */\n      0x00\n        /* \"#utility.yul\":3134:3139   */\n      dup2\n        /* \"#utility.yul\":3123:3139   */\n      swap1\n      pop\n        /* \"#utility.yul\":3068:3145   */\n      swap2\n      swap1\n      pop\n      jump\t// out\n        /* \"#utility.yul\":3151:3269   */\n    tag_86:\n        /* \"#utility.yul\":3238:3262   */\n      tag_161\n        /* \"#utility.yul\":3256:3261   */\n      dup2\n        /* \"#utility.yul\":3238:3262   */\n      tag_85\n      jump\t// in\n    tag_161:\n        /* \"#utility.yul\":3233:3236   */\n      dup3\n        /* \"#utility.yul\":3226:3263   */\n      mstore\n        /* \"#utility.yul\":3151:3269   */\n      pop\n      pop\n      jump\t// out\n        /* \"#utility.yul\":3275:3497   */\n    tag_12:\n        /* \"#utility.yul\":3368:3372   */\n      0x00\n        /* \"#utility.yul\":3406:3408   */\n      0x20\n        /* \"#utility.yul\":3395:3404   */\n      dup3\n        /* \"#utility.yul\":3391:3409   */\n      add\n        /* \"#utility.yul\":3383:3409   */\n      swap1\n      pop\n        /* \"#utility.yul\":3419:3490   */\n      tag_163\n        /* \"#utility.yul\":3487:3488   */\n      0x00\n        /* \"#utility.yul\":3476:3485   */\n      dup4\n        /* \"#utility.yul\":3472:3489   */\n      add\n        /* \"#utility.yul\":3463:3469   */\n      dup5\n        /* \"#utility.yul\":3419:3490   */\n      tag_86\n      jump\t// in\n    tag_163:\n        /* \"#utility.yul\":3275:3497   */\n      swap3\n      swap2\n      pop\n      pop\n      jump\t// out\n        /* \"#utility.yul\":3503:3625   */\n    tag_87:\n        /* \"#utility.yul\":3576:3600   */\n      tag_165\n        /* \"#utility.yul\":3594:3599   */\n      dup2\n        /* \"#utility.yul\":3576:3600   */\n      tag_85\n      jump\t// in\n    tag_165:\n        /* \"#utility.yul\":3569:3574   */\n      dup2\n        /* \"#utility.yul\":3566:3601   */\n      eq\n        /* \"#utility.yul\":3556:3619   */\n      tag_166\n      jumpi\n        /* \"#utility.yul\":3615:3616   */\n      0x00\n        /* \"#utility.yul\":3612:3613   */\n      dup1\n        /* \"#utility.yul\":3605:3617   */\n      revert\n        /* \"#utility.yul\":3556:3619   */\n    tag_166:\n        /* \"#utility.yul\":3503:3625   */\n      pop\n      jump\t// out\n        /* \"#utility.yul\":3631:3770   */\n    tag_88:\n        /* \"#utility.yul\":3677:3682   */\n      0x00\n        /* \"#utility.yul\":3715:3721   */\n      dup2\n        /* \"#utility.yul\":3702:3722   */\n      calldataload\n        /* \"#utility.yul\":3693:3722   */\n      swap1\n      pop\n        /* \"#utility.yul\":3731:3764   */\n      tag_168\n        /* \"#utility.yul\":3758:3763   */\n      dup2\n        /* \"#utility.yul\":3731:3764   */\n      tag_87\n      jump\t// in\n    tag_168:\n        /* \"#utility.yul\":3631:3770   */\n      swap3\n      swap2\n      pop\n      pop\n      jump\t// out\n        /* \"#utility.yul\":3776:4430   */\n    tag_15:\n        /* \"#utility.yul\":3854:3860   */\n      0x00\n        /* \"#utility.yul\":3862:3868   */\n      dup1\n        /* \"#utility.yul\":3911:3913   */\n      0x40\n        /* \"#utility.yul\":3899:3908   */\n      dup4\n        /* \"#utility.yul\":3890:3897   */\n      dup6\n        /* \"#utility.yul\":3886:3909   */\n      sub\n        /* \"#utility.yul\":3882:3914   */\n      slt\n        /* \"#utility.yul\":3879:3998   */\n      iszero\n      tag_170\n      jumpi\n        /* \"#utility.yul\":3917:3996   */\n      tag_171\n      tag_73\n      jump\t// in\n    tag_171:\n        /* \"#utility.yul\":3879:3998   */\n    tag_170:\n        /* \"#utility.yul\":4065:4066   */\n      0x00\n        /* \"#utility.yul\":4054:4063   */\n      dup4\n        /* \"#utility.yul\":4050:4067   */\n      add\n        /* \"#utility.yul\":4037:4068   */\n      calldataload\n        /* \"#utility.yul\":4095:4113   */\n      0xffffffffffffffff\n        /* \"#utility.yul\":4087:4093   */\n      dup2\n        /* \"#utility.yul\":4084:4114   */\n      gt\n        /* \"#utility.yul\":4081:4198   */\n      iszero\n      tag_172\n      jumpi\n        /* \"#utility.yul\":4117:4196   */\n      tag_173\n      tag_74\n      jump\t// in\n    tag_173:\n        /* \"#utility.yul\":4081:4198   */\n    tag_172:\n        /* \"#utility.yul\":4222:4285   */\n      tag_174\n        /* \"#utility.yul\":4277:4284   */\n      dup6\n        /* \"#utility.yul\":4268:4274   */\n      dup3\n        /* \"#utility.yul\":4257:4266   */\n      dup7\n        /* \"#utility.yul\":4253:4275   */\n      add\n        /* \"#utility.yul\":4222:4285   */\n      tag_84\n      jump\t// in\n    tag_174:\n        /* \"#utility.yul\":4212:4285   */\n      swap3\n      pop\n        /* \"#utility.yul\":4008:4295   */\n      pop\n        /* \"#utility.yul\":4334:4336   */\n      0x20\n        /* \"#utility.yul\":4360:4413   */\n      tag_175\n        /* \"#utility.yul\":4405:4412   */\n      dup6\n        /* \"#utility.yul\":4396:4402   */\n      dup3\n        /* \"#utility.yul\":4385:4394   */\n      dup7\n        /* \"#utility.yul\":4381:4403   */\n      add\n        /* \"#utility.yul\":4360:4413   */\n      tag_88\n      jump\t// in\n    tag_175:\n        /* \"#utility.yul\":4350:4413   */\n      swap2\n      pop\n        /* \"#utility.yul\":4305:4423   */\n      pop\n        /* \"#utility.yul\":3776:4430   */\n      swap3\n      pop\n      swap3\n      swap1\n      pop\n      jump\t// out\n        /* \"#utility.yul\":4436:4757   */\n    tag_89:\n        /* \"#utility.yul\":4523:4527   */\n      0x00\n        /* \"#utility.yul\":4613:4631   */\n      0xffffffffffffffff\n        /* \"#utility.yul\":4605:4611   */\n      dup3\n        /* \"#utility.yul\":4602:4632   */\n      gt\n        /* \"#utility.yul\":4599:4655   */\n      iszero\n      tag_177\n      jumpi\n        /* \"#utility.yul\":4635:4653   */\n      tag_178\n      tag_78\n      jump\t// in\n    tag_178:\n        /* \"#utility.yul\":4599:4655   */\n    tag_177:\n        /* \"#utility.yul\":4685:4689   */\n      0x20\n        /* \"#utility.yul\":4677:4683   */\n      dup3\n        /* \"#utility.yul\":4673:4690   */\n      mul\n        /* \"#utility.yul\":4665:4690   */\n      swap1\n      pop\n        /* \"#utility.yul\":4745:4749   */\n      0x20\n        /* \"#utility.yul\":4739:4743   */\n      dup2\n        /* \"#utility.yul\":4735:4750   */\n      add\n        /* \"#utility.yul\":4727:4750   */\n      swap1\n      pop\n        /* \"#utility.yul\":4436:4757   */\n      swap2\n      swap1\n      pop\n      jump\t// out\n        /* \"#utility.yul\":4763:4880   */\n    tag_90:\n        /* \"#utility.yul\":4872:4873   */\n      0x00\n        /* \"#utility.yul\":4869:4870   */\n      dup1\n        /* \"#utility.yul\":4862:4874   */\n      revert\n        /* \"#utility.yul\":4902:5847   */\n    tag_91:\n        /* \"#utility.yul\":5008:5013   */\n      0x00\n        /* \"#utility.yul\":5033:5124   */\n      tag_181\n        /* \"#utility.yul\":5049:5123   */\n      tag_182\n        /* \"#utility.yul\":5116:5122   */\n      dup5\n        /* \"#utility.yul\":5049:5123   */\n      tag_89\n      jump\t// in\n    tag_182:\n        /* \"#utility.yul\":5033:5124   */\n      tag_80\n      jump\t// in\n    tag_181:\n        /* \"#utility.yul\":5024:5124   */\n      swap1\n      pop\n        /* \"#utility.yul\":5144:5149   */\n      dup1\n        /* \"#utility.yul\":5173:5179   */\n      dup4\n        /* \"#utility.yul\":5166:5171   */\n      dup3\n        /* \"#utility.yul\":5159:5180   */\n      mstore\n        /* \"#utility.yul\":5207:5211   */\n      0x20\n        /* \"#utility.yul\":5200:5205   */\n      dup3\n        /* \"#utility.yul\":5196:5212   */\n      add\n        /* \"#utility.yul\":5189:5212   */\n      swap1\n      pop\n        /* \"#utility.yul\":5260:5264   */\n      0x20\n        /* \"#utility.yul\":5252:5258   */\n      dup5\n        /* \"#utility.yul\":5248:5265   */\n      mul\n        /* \"#utility.yul\":5240:5246   */\n      dup4\n        /* \"#utility.yul\":5236:5266   */\n      add\n        /* \"#utility.yul\":5289:5292   */\n      dup6\n        /* \"#utility.yul\":5281:5287   */\n      dup2\n        /* \"#utility.yul\":5278:5293   */\n      gt\n        /* \"#utility.yul\":5275:5397   */\n      iszero\n      tag_183\n      jumpi\n        /* \"#utility.yul\":5308:5387   */\n      tag_184\n      tag_90\n      jump\t// in\n    tag_184:\n        /* \"#utility.yul\":5275:5397   */\n    tag_183:\n        /* \"#utility.yul\":5423:5429   */\n      dup4\n        /* \"#utility.yul\":5406:5841   */\n    tag_185:\n        /* \"#utility.yul\":5440:5446   */\n      dup2\n        /* \"#utility.yul\":5435:5438   */\n      dup2\n        /* \"#utility.yul\":5432:5447   */\n      lt\n        /* \"#utility.yul\":5406:5841   */\n      iszero\n      tag_187\n      jumpi\n        /* \"#utility.yul\":5529:5532   */\n      dup1\n        /* \"#utility.yul\":5516:5533   */\n      calldataload\n        /* \"#utility.yul\":5565:5583   */\n      0xffffffffffffffff\n        /* \"#utility.yul\":5552:5563   */\n      dup2\n        /* \"#utility.yul\":5549:5584   */\n      gt\n        /* \"#utility.yul\":5546:5668   */\n      iszero\n      tag_188\n      jumpi\n        /* \"#utility.yul\":5587:5666   */\n      tag_189\n      tag_75\n      jump\t// in\n    tag_189:\n        /* \"#utility.yul\":5546:5668   */\n    tag_188:\n        /* \"#utility.yul\":5711:5722   */\n      dup1\n        /* \"#utility.yul\":5703:5709   */\n      dup7\n        /* \"#utility.yul\":5699:5723   */\n      add\n        /* \"#utility.yul\":5749:5796   */\n      tag_190\n        /* \"#utility.yul\":5792:5795   */\n      dup10\n        /* \"#utility.yul\":5780:5790   */\n      dup3\n        /* \"#utility.yul\":5749:5796   */\n      tag_84\n      jump\t// in\n    tag_190:\n        /* \"#utility.yul\":5744:5747   */\n      dup6\n        /* \"#utility.yul\":5737:5797   */\n      mstore\n        /* \"#utility.yul\":5826:5830   */\n      0x20\n        /* \"#utility.yul\":5821:5824   */\n      dup6\n        /* \"#utility.yul\":5817:5831   */\n      add\n        /* \"#utility.yul\":5810:5831   */\n      swap5\n      pop\n        /* \"#utility.yul\":5482:5841   */\n      pop\n      pop\n        /* \"#utility.yul\":5466:5470   */\n      0x20\n        /* \"#utility.yul\":5461:5464   */\n      dup2\n        /* \"#utility.yul\":5457:5471   */\n      add\n        /* \"#utility.yul\":5450:5471   */\n      swap1\n      pop\n        /* \"#utility.yul\":5406:5841   */\n      jump(tag_185)\n    tag_187:\n        /* \"#utility.yul\":5410:5431   */\n      pop\n        /* \"#utility.yul\":5014:5847   */\n      pop\n      pop\n        /* \"#utility.yul\":4902:5847   */\n      swap4\n      swap3\n      pop\n      pop\n      pop\n      jump\t// out\n        /* \"#utility.yul\":5869:6259   */\n    tag_92:\n        /* \"#utility.yul\":5950:5955   */\n      0x00\n        /* \"#utility.yul\":5999:6002   */\n      dup3\n        /* \"#utility.yul\":5992:5996   */\n      0x1f\n        /* \"#utility.yul\":5984:5990   */\n      dup4\n        /* \"#utility.yul\":5980:5997   */\n      add\n        /* \"#utility.yul\":5976:6003   */\n      slt\n        /* \"#utility.yul\":5966:6088   */\n      tag_192\n      jumpi\n        /* \"#utility.yul\":6007:6086   */\n      tag_193\n      tag_75\n      jump\t// in\n    tag_193:\n        /* \"#utility.yul\":5966:6088   */\n    tag_192:\n        /* \"#utility.yul\":6124:6130   */\n      dup2\n        /* \"#utility.yul\":6111:6131   */\n      calldataload\n        /* \"#utility.yul\":6149:6253   */\n      tag_194\n        /* \"#utility.yul\":6249:6252   */\n      dup5\n        /* \"#utility.yul\":6241:6247   */\n      dup3\n        /* \"#utility.yul\":6234:6238   */\n      0x20\n        /* \"#utility.yul\":6226:6232   */\n      dup7\n        /* \"#utility.yul\":6222:6239   */\n      add\n        /* \"#utility.yul\":6149:6253   */\n      tag_91\n      jump\t// in\n    tag_194:\n        /* \"#utility.yul\":6140:6253   */\n      swap2\n      pop\n        /* \"#utility.yul\":5956:6259   */\n      pop\n        /* \"#utility.yul\":5869:6259   */\n      swap3\n      swap2\n      pop\n      pop\n      jump\t// out\n        /* \"#utility.yul\":6265:7620   */\n    tag_19:\n        /* \"#utility.yul\":6406:6412   */\n      0x00\n        /* \"#utility.yul\":6414:6420   */\n      dup1\n        /* \"#utility.yul\":6422:6428   */\n      0x00\n        /* \"#utility.yul\":6430:6436   */\n      dup1\n        /* \"#utility.yul\":6479:6482   */\n      0x80\n        /* \"#utility.yul\":6467:6476   */\n      dup6\n        /* \"#utility.yul\":6458:6465   */\n      dup8\n        /* \"#utility.yul\":6454:6477   */\n      sub\n        /* \"#utility.yul\":6450:6483   */\n      slt\n        /* \"#utility.yul\":6447:6567   */\n      iszero\n      tag_196\n      jumpi\n        /* \"#utility.yul\":6486:6565   */\n      tag_197\n      tag_73\n      jump\t// in\n    tag_197:\n        /* \"#utility.yul\":6447:6567   */\n    tag_196:\n        /* \"#utility.yul\":6634:6635   */\n      0x00\n        /* \"#utility.yul\":6623:6632   */\n      dup6\n        /* \"#utility.yul\":6619:6636   */\n      add\n        /* \"#utility.yul\":6606:6637   */\n      calldataload\n        /* \"#utility.yul\":6664:6682   */\n      0xffffffffffffffff\n        /* \"#utility.yul\":6656:6662   */\n      dup2\n        /* \"#utility.yul\":6653:6683   */\n      gt\n        /* \"#utility.yul\":6650:6767   */\n      iszero\n      tag_198\n      jumpi\n        /* \"#utility.yul\":6686:6765   */\n      tag_199\n      tag_74\n      jump\t// in\n    tag_199:\n        /* \"#utility.yul\":6650:6767   */\n    tag_198:\n        /* \"#utility.yul\":6791:6854   */\n      tag_200\n        /* \"#utility.yul\":6846:6853   */\n      dup8\n        /* \"#utility.yul\":6837:6843   */\n      dup3\n        /* \"#utility.yul\":6826:6835   */\n      dup9\n        /* \"#utility.yul\":6822:6844   */\n      add\n        /* \"#utility.yul\":6791:6854   */\n      tag_84\n      jump\t// in\n    tag_200:\n        /* \"#utility.yul\":6781:6854   */\n      swap5\n      pop\n        /* \"#utility.yul\":6577:6864   */\n      pop\n        /* \"#utility.yul\":6903:6905   */\n      0x20\n        /* \"#utility.yul\":6929:6982   */\n      tag_201\n        /* \"#utility.yul\":6974:6981   */\n      dup8\n        /* \"#utility.yul\":6965:6971   */\n      dup3\n        /* \"#utility.yul\":6954:6963   */\n      dup9\n        /* \"#utility.yul\":6950:6972   */\n      add\n        /* \"#utility.yul\":6929:6982   */\n      tag_88\n      jump\t// in\n    tag_201:\n        /* \"#utility.yul\":6919:6982   */\n      swap4\n      pop\n        /* \"#utility.yul\":6874:6992   */\n      pop\n        /* \"#utility.yul\":7059:7061   */\n      0x40\n        /* \"#utility.yul\":7048:7057   */\n      dup6\n        /* \"#utility.yul\":7044:7062   */\n      add\n        /* \"#utility.yul\":7031:7063   */\n      calldataload\n        /* \"#utility.yul\":7090:7108   */\n      0xffffffffffffffff\n        /* \"#utility.yul\":7082:7088   */\n      dup2\n        /* \"#utility.yul\":7079:7109   */\n      gt\n        /* \"#utility.yul\":7076:7193   */\n      iszero\n      tag_202\n      jumpi\n        /* \"#utility.yul\":7112:7191   */\n      tag_203\n      tag_74\n      jump\t// in\n    tag_203:\n        /* \"#utility.yul\":7076:7193   */\n    tag_202:\n        /* \"#utility.yul\":7217:7280   */\n      tag_204\n        /* \"#utility.yul\":7272:7279   */\n      dup8\n        /* \"#utility.yul\":7263:7269   */\n      dup3\n        /* \"#utility.yul\":7252:7261   */\n      dup9\n        /* \"#utility.yul\":7248:7270   */\n      add\n        /* \"#utility.yul\":7217:7280   */\n      tag_84\n      jump\t// in\n    tag_204:\n        /* \"#utility.yul\":7207:7280   */\n      swap3\n      pop\n        /* \"#utility.yul\":7002:7290   */\n      pop\n        /* \"#utility.yul\":7357:7359   */\n      0x60\n        /* \"#utility.yul\":7346:7355   */\n      dup6\n        /* \"#utility.yul\":7342:7360   */\n      add\n        /* \"#utility.yul\":7329:7361   */\n      calldataload\n        /* \"#utility.yul\":7388:7406   */\n      0xffffffffffffffff\n        /* \"#utility.yul\":7380:7386   */\n      dup2\n        /* \"#utility.yul\":7377:7407   */\n      gt\n        /* \"#utility.yul\":7374:7491   */\n      iszero\n      tag_205\n      jumpi\n        /* \"#utility.yul\":7410:7489   */\n      tag_206\n      tag_74\n      jump\t// in\n    tag_206:\n        /* \"#utility.yul\":7374:7491   */\n    tag_205:\n        /* \"#utility.yul\":7515:7603   */\n      tag_207\n        /* \"#utility.yul\":7595:7602   */\n      dup8\n        /* \"#utility.yul\":7586:7592   */\n      dup3\n        /* \"#utility.yul\":7575:7584   */\n      dup9\n        /* \"#utility.yul\":7571:7593   */\n      add\n        /* \"#utility.yul\":7515:7603   */\n      tag_92\n      jump\t// in\n    tag_207:\n        /* \"#utility.yul\":7505:7603   */\n      swap2\n      pop\n        /* \"#utility.yul\":7300:7613   */\n      pop\n        /* \"#utility.yul\":6265:7620   */\n      swap3\n      swap6\n      swap2\n      swap5\n      pop\n      swap3\n      pop\n      jump\t// out\n        /* \"#utility.yul\":7626:7734   */\n    tag_93:\n        /* \"#utility.yul\":7703:7727   */\n      tag_209\n        /* \"#utility.yul\":7721:7726   */\n      dup2\n        /* \"#utility.yul\":7703:7727   */\n      tag_85\n      jump\t// in\n    tag_209:\n        /* \"#utility.yul\":7698:7701   */\n      dup3\n        /* \"#utility.yul\":7691:7728   */\n      mstore\n        /* \"#utility.yul\":7626:7734   */\n      pop\n      pop\n      jump\t// out\n        /* \"#utility.yul\":7740:7839   */\n    tag_94:\n        /* \"#utility.yul\":7792:7798   */\n      0x00\n        /* \"#utility.yul\":7826:7831   */\n      dup2\n        /* \"#utility.yul\":7820:7832   */\n      mload\n        /* \"#utility.yul\":7810:7832   */\n      swap1\n      pop\n        /* \"#utility.yul\":7740:7839   */\n      swap2\n      swap1\n      pop\n      jump\t// out\n        /* \"#utility.yul\":7845:8004   */\n    tag_95:\n        /* \"#utility.yul\":7919:7930   */\n      0x00\n        /* \"#utility.yul\":7953:7959   */\n      dup3\n        /* \"#utility.yul\":7948:7951   */\n      dup3\n        /* \"#utility.yul\":7941:7960   */\n      mstore\n        /* \"#utility.yul\":7993:7997   */\n      0x20\n        /* \"#utility.yul\":7988:7991   */\n      dup3\n        /* \"#utility.yul\":7984:7998   */\n      add\n        /* \"#utility.yul\":7969:7998   */\n      swap1\n      pop\n        /* \"#utility.yul\":7845:8004   */\n      swap3\n      swap2\n      pop\n      pop\n      jump\t// out\n        /* \"#utility.yul\":8010:8256   */\n    tag_96:\n        /* \"#utility.yul\":8091:8092   */\n      0x00\n        /* \"#utility.yul\":8101:8214   */\n    tag_213:\n        /* \"#utility.yul\":8115:8121   */\n      dup4\n        /* \"#utility.yul\":8112:8113   */\n      dup2\n        /* \"#utility.yul\":8109:8122   */\n      lt\n        /* \"#utility.yul\":8101:8214   */\n      iszero\n      tag_215\n      jumpi\n        /* \"#utility.yul\":8200:8201   */\n      dup1\n        /* \"#utility.yul\":8195:8198   */\n      dup3\n        /* \"#utility.yul\":8191:8202   */\n      add\n        /* \"#utility.yul\":8185:8203   */\n      mload\n        /* \"#utility.yul\":8181:8182   */\n      dup2\n        /* \"#utility.yul\":8176:8179   */\n      dup5\n        /* \"#utility.yul\":8172:8183   */\n      add\n        /* \"#utility.yul\":8165:8204   */\n      mstore\n        /* \"#utility.yul\":8137:8139   */\n      0x20\n        /* \"#utility.yul\":8134:8135   */\n      dup2\n        /* \"#utility.yul\":8130:8140   */\n      add\n        /* \"#utility.yul\":8125:8140   */\n      swap1\n      pop\n        /* \"#utility.yul\":8101:8214   */\n      jump(tag_213)\n    tag_215:\n        /* \"#utility.yul\":8248:8249   */\n      0x00\n        /* \"#utility.yul\":8239:8245   */\n      dup5\n        /* \"#utility.yul\":8234:8237   */\n      dup5\n        /* \"#utility.yul\":8230:8246   */\n      add\n        /* \"#utility.yul\":8223:8250   */\n      mstore\n        /* \"#utility.yul\":8072:8256   */\n      pop\n        /* \"#utility.yul\":8010:8256   */\n      pop\n      pop\n      pop\n      jump\t// out\n        /* \"#utility.yul\":8262:8619   */\n    tag_97:\n        /* \"#utility.yul\":8340:8343   */\n      0x00\n        /* \"#utility.yul\":8368:8407   */\n      tag_217\n        /* \"#utility.yul\":8401:8406   */\n      dup3\n        /* \"#utility.yul\":8368:8407   */\n      tag_94\n      jump\t// in\n    tag_217:\n        /* \"#utility.yul\":8423:8484   */\n      tag_218\n        /* \"#utility.yul\":8477:8483   */\n      dup2\n        /* \"#utility.yul\":8472:8475   */\n      dup6\n        /* \"#utility.yul\":8423:8484   */\n      tag_95\n      jump\t// in\n    tag_218:\n        /* \"#utility.yul\":8416:8484   */\n      swap4\n      pop\n        /* \"#utility.yul\":8493:8558   */\n      tag_219\n        /* \"#utility.yul\":8551:8557   */\n      dup2\n        /* \"#utility.yul\":8546:8549   */\n      dup6\n        /* \"#utility.yul\":8539:8543   */\n      0x20\n        /* \"#utility.yul\":8532:8537   */\n      dup7\n        /* \"#utility.yul\":8528:8544   */\n      add\n        /* \"#utility.yul\":8493:8558   */\n      tag_96\n      jump\t// in\n    tag_219:\n        /* \"#utility.yul\":8583:8612   */\n      tag_220\n        /* \"#utility.yul\":8605:8611   */\n      dup2\n        /* \"#utility.yul\":8583:8612   */\n      tag_77\n      jump\t// in\n    tag_220:\n        /* \"#utility.yul\":8578:8581   */\n      dup5\n        /* \"#utility.yul\":8574:8613   */\n      add\n        /* \"#utility.yul\":8567:8613   */\n      swap2\n      pop\n        /* \"#utility.yul\":8344:8619   */\n      pop\n        /* \"#utility.yul\":8262:8619   */\n      swap3\n      swap2\n      pop\n      pop\n      jump\t// out\n        /* \"#utility.yul\":8625:8749   */\n    tag_98:\n        /* \"#utility.yul\":8702:8708   */\n      0x00\n        /* \"#utility.yul\":8736:8741   */\n      dup2\n        /* \"#utility.yul\":8730:8742   */\n      mload\n        /* \"#utility.yul\":8720:8742   */\n      swap1\n      pop\n        /* \"#utility.yul\":8625:8749   */\n      swap2\n      swap1\n      pop\n      jump\t// out\n        /* \"#utility.yul\":8755:8939   */\n    tag_99:\n        /* \"#utility.yul\":8854:8865   */\n      0x00\n        /* \"#utility.yul\":8888:8894   */\n      dup3\n        /* \"#utility.yul\":8883:8886   */\n      dup3\n        /* \"#utility.yul\":8876:8895   */\n      mstore\n        /* \"#utility.yul\":8928:8932   */\n      0x20\n        /* \"#utility.yul\":8923:8926   */\n      dup3\n        /* \"#utility.yul\":8919:8933   */\n      add\n        /* \"#utility.yul\":8904:8933   */\n      swap1\n      pop\n        /* \"#utility.yul\":8755:8939   */\n      swap3\n      swap2\n      pop\n      pop\n      jump\t// out\n        /* \"#utility.yul\":8945:9087   */\n    tag_100:\n        /* \"#utility.yul\":9022:9026   */\n      0x00\n        /* \"#utility.yul\":9045:9048   */\n      dup2\n        /* \"#utility.yul\":9037:9048   */\n      swap1\n      pop\n        /* \"#utility.yul\":9075:9079   */\n      0x20\n        /* \"#utility.yul\":9070:9073   */\n      dup3\n        /* \"#utility.yul\":9066:9080   */\n      add\n        /* \"#utility.yul\":9058:9080   */\n      swap1\n      pop\n        /* \"#utility.yul\":8945:9087   */\n      swap2\n      swap1\n      pop\n      jump\t// out\n        /* \"#utility.yul\":9093:9289   */\n    tag_101:\n        /* \"#utility.yul\":9182:9192   */\n      0x00\n        /* \"#utility.yul\":9217:9283   */\n      tag_225\n        /* \"#utility.yul\":9279:9282   */\n      dup4\n        /* \"#utility.yul\":9271:9277   */\n      dup4\n        /* \"#utility.yul\":9217:9283   */\n      tag_97\n      jump\t// in\n    tag_225:\n        /* \"#utility.yul\":9203:9283   */\n      swap1\n      pop\n        /* \"#utility.yul\":9093:9289   */\n      swap3\n      swap2\n      pop\n      pop\n      jump\t// out\n        /* \"#utility.yul\":9295:9418   */\n    tag_102:\n        /* \"#utility.yul\":9375:9379   */\n      0x00\n        /* \"#utility.yul\":9407:9411   */\n      0x20\n        /* \"#utility.yul\":9402:9405   */\n      dup3\n        /* \"#utility.yul\":9398:9412   */\n      add\n        /* \"#utility.yul\":9390:9412   */\n      swap1\n      pop\n        /* \"#utility.yul\":9295:9418   */\n      swap2\n      swap1\n      pop\n      jump\t// out\n        /* \"#utility.yul\":9452:10423   */\n    tag_103:\n        /* \"#utility.yul\":9581:9584   */\n      0x00\n        /* \"#utility.yul\":9610:9674   */\n      tag_228\n        /* \"#utility.yul\":9668:9673   */\n      dup3\n        /* \"#utility.yul\":9610:9674   */\n      tag_98\n      jump\t// in\n    tag_228:\n        /* \"#utility.yul\":9690:9776   */\n      tag_229\n        /* \"#utility.yul\":9769:9775   */\n      dup2\n        /* \"#utility.yul\":9764:9767   */\n      dup6\n        /* \"#utility.yul\":9690:9776   */\n      tag_99\n      jump\t// in\n    tag_229:\n        /* \"#utility.yul\":9683:9776   */\n      swap4\n      pop\n        /* \"#utility.yul\":9802:9805   */\n      dup4\n        /* \"#utility.yul\":9847:9851   */\n      0x20\n        /* \"#utility.yul\":9839:9845   */\n      dup3\n        /* \"#utility.yul\":9835:9852   */\n      mul\n        /* \"#utility.yul\":9830:9833   */\n      dup6\n        /* \"#utility.yul\":9826:9853   */\n      add\n        /* \"#utility.yul\":9877:9943   */\n      tag_230\n        /* \"#utility.yul\":9937:9942   */\n      dup6\n        /* \"#utility.yul\":9877:9943   */\n      tag_100\n      jump\t// in\n    tag_230:\n        /* \"#utility.yul\":9966:9973   */\n      dup1\n        /* \"#utility.yul\":9997:9998   */\n      0x00\n        /* \"#utility.yul\":9982:10378   */\n    tag_231:\n        /* \"#utility.yul\":10007:10013   */\n      dup6\n        /* \"#utility.yul\":10004:10005   */\n      dup2\n        /* \"#utility.yul\":10001:10014   */\n      lt\n        /* \"#utility.yul\":9982:10378   */\n      iszero\n      tag_233\n      jumpi\n        /* \"#utility.yul\":10078:10087   */\n      dup5\n        /* \"#utility.yul\":10072:10076   */\n      dup5\n        /* \"#utility.yul\":10068:10088   */\n      sub\n        /* \"#utility.yul\":10063:10066   */\n      dup10\n        /* \"#utility.yul\":10056:10089   */\n      mstore\n        /* \"#utility.yul\":10129:10135   */\n      dup2\n        /* \"#utility.yul\":10123:10136   */\n      mload\n        /* \"#utility.yul\":10157:10241   */\n      tag_234\n        /* \"#utility.yul\":10236:10240   */\n      dup6\n        /* \"#utility.yul\":10221:10234   */\n      dup3\n        /* \"#utility.yul\":10157:10241   */\n      tag_101\n      jump\t// in\n    tag_234:\n        /* \"#utility.yul\":10149:10241   */\n      swap5\n      pop\n        /* \"#utility.yul\":10264:10334   */\n      tag_235\n        /* \"#utility.yul\":10327:10333   */\n      dup4\n        /* \"#utility.yul\":10264:10334   */\n      tag_102\n      jump\t// in\n    tag_235:\n        /* \"#utility.yul\":10254:10334   */\n      swap3\n      pop\n        /* \"#utility.yul\":10363:10367   */\n      0x20\n        /* \"#utility.yul\":10358:10361   */\n      dup11\n        /* \"#utility.yul\":10354:10368   */\n      add\n        /* \"#utility.yul\":10347:10368   */\n      swap10\n      pop\n        /* \"#utility.yul\":10042:10378   */\n      pop\n        /* \"#utility.yul\":10029:10030   */\n      0x01\n        /* \"#utility.yul\":10026:10027   */\n      dup2\n        /* \"#utility.yul\":10022:10031   */\n      add\n        /* \"#utility.yul\":10017:10031   */\n      swap1\n      pop\n        /* \"#utility.yul\":9982:10378   */\n      jump(tag_231)\n    tag_233:\n        /* \"#utility.yul\":9986:10000   */\n      pop\n        /* \"#utility.yul\":10394:10398   */\n      dup3\n        /* \"#utility.yul\":10387:10398   */\n      swap8\n      pop\n        /* \"#utility.yul\":10414:10417   */\n      dup8\n        /* \"#utility.yul\":10407:10417   */\n      swap6\n      pop\n        /* \"#utility.yul\":9586:10423   */\n      pop\n      pop\n      pop\n      pop\n      pop\n        /* \"#utility.yul\":9452:10423   */\n      swap3\n      swap2\n      pop\n      pop\n      jump\t// out\n        /* \"#utility.yul\":10485:11389   */\n    tag_104:\n        /* \"#utility.yul\":10602:10605   */\n      0x00\n        /* \"#utility.yul\":10638:10642   */\n      0x60\n        /* \"#utility.yul\":10633:10636   */\n      dup4\n        /* \"#utility.yul\":10629:10643   */\n      add\n        /* \"#utility.yul\":10727:10731   */\n      0x00\n        /* \"#utility.yul\":10720:10725   */\n      dup4\n        /* \"#utility.yul\":10716:10732   */\n      add\n        /* \"#utility.yul\":10710:10733   */\n      mload\n        /* \"#utility.yul\":10746:10809   */\n      tag_237\n        /* \"#utility.yul\":10803:10807   */\n      0x00\n        /* \"#utility.yul\":10798:10801   */\n      dup7\n        /* \"#utility.yul\":10794:10808   */\n      add\n        /* \"#utility.yul\":10780:10792   */\n      dup3\n        /* \"#utility.yul\":10746:10809   */\n      tag_93\n      jump\t// in\n    tag_237:\n        /* \"#utility.yul\":10653:10819   */\n      pop\n        /* \"#utility.yul\":10901:10905   */\n      0x20\n        /* \"#utility.yul\":10894:10899   */\n      dup4\n        /* \"#utility.yul\":10890:10906   */\n      add\n        /* \"#utility.yul\":10884:10907   */\n      mload\n        /* \"#utility.yul\":10954:10957   */\n      dup5\n        /* \"#utility.yul\":10948:10952   */\n      dup3\n        /* \"#utility.yul\":10944:10958   */\n      sub\n        /* \"#utility.yul\":10937:10941   */\n      0x20\n        /* \"#utility.yul\":10932:10935   */\n      dup7\n        /* \"#utility.yul\":10928:10942   */\n      add\n        /* \"#utility.yul\":10921:10959   */\n      mstore\n        /* \"#utility.yul\":10980:11053   */\n      tag_238\n        /* \"#utility.yul\":11048:11052   */\n      dup3\n        /* \"#utility.yul\":11034:11046   */\n      dup3\n        /* \"#utility.yul\":10980:11053   */\n      tag_97\n      jump\t// in\n    tag_238:\n        /* \"#utility.yul\":10972:11053   */\n      swap2\n      pop\n        /* \"#utility.yul\":10829:11064   */\n      pop\n        /* \"#utility.yul\":11149:11153   */\n      0x40\n        /* \"#utility.yul\":11142:11147   */\n      dup4\n        /* \"#utility.yul\":11138:11154   */\n      add\n        /* \"#utility.yul\":11132:11155   */\n      mload\n        /* \"#utility.yul\":11202:11205   */\n      dup5\n        /* \"#utility.yul\":11196:11200   */\n      dup3\n        /* \"#utility.yul\":11192:11206   */\n      sub\n        /* \"#utility.yul\":11185:11189   */\n      0x40\n        /* \"#utility.yul\":11180:11183   */\n      dup7\n        /* \"#utility.yul\":11176:11190   */\n      add\n        /* \"#utility.yul\":11169:11207   */\n      mstore\n        /* \"#utility.yul\":11228:11351   */\n      tag_239\n        /* \"#utility.yul\":11346:11350   */\n      dup3\n        /* \"#utility.yul\":11332:11344   */\n      dup3\n        /* \"#utility.yul\":11228:11351   */\n      tag_103\n      jump\t// in\n    tag_239:\n        /* \"#utility.yul\":11220:11351   */\n      swap2\n      pop\n        /* \"#utility.yul\":11074:11362   */\n      pop\n        /* \"#utility.yul\":11379:11383   */\n      dup1\n        /* \"#utility.yul\":11372:11383   */\n      swap2\n      pop\n        /* \"#utility.yul\":10607:11389   */\n      pop\n        /* \"#utility.yul\":10485:11389   */\n      swap3\n      swap2\n      pop\n      pop\n      jump\t// out\n        /* \"#utility.yul\":11395:11764   */\n    tag_25:\n        /* \"#utility.yul\":11536:11540   */\n      0x00\n        /* \"#utility.yul\":11574:11576   */\n      0x20\n        /* \"#utility.yul\":11563:11572   */\n      dup3\n        /* \"#utility.yul\":11559:11577   */\n      add\n        /* \"#utility.yul\":11551:11577   */\n      swap1\n      pop\n        /* \"#utility.yul\":11623:11632   */\n      dup2\n        /* \"#utility.yul\":11617:11621   */\n      dup2\n        /* \"#utility.yul\":11613:11633   */\n      sub\n        /* \"#utility.yul\":11609:11610   */\n      0x00\n        /* \"#utility.yul\":11598:11607   */\n      dup4\n        /* \"#utility.yul\":11594:11611   */\n      add\n        /* \"#utility.yul\":11587:11634   */\n      mstore\n        /* \"#utility.yul\":11651:11757   */\n      tag_241\n        /* \"#utility.yul\":11752:11756   */\n      dup2\n        /* \"#utility.yul\":11743:11749   */\n      dup5\n        /* \"#utility.yul\":11651:11757   */\n      tag_104\n      jump\t// in\n    tag_241:\n        /* \"#utility.yul\":11643:11757   */\n      swap1\n      pop\n        /* \"#utility.yul\":11395:11764   */\n      swap3\n      swap2\n      pop\n      pop\n      jump\t// out\n        /* \"#utility.yul\":11770:11918   */\n    tag_105:\n        /* \"#utility.yul\":11872:11883   */\n      0x00\n        /* \"#utility.yul\":11909:11912   */\n      dup2\n        /* \"#utility.yul\":11894:11912   */\n      swap1\n      pop\n        /* \"#utility.yul\":11770:11918   */\n      swap3\n      swap2\n      pop\n      pop\n      jump\t// out\n        /* \"#utility.yul\":11924:12314   */\n    tag_106:\n        /* \"#utility.yul\":12030:12033   */\n      0x00\n        /* \"#utility.yul\":12058:12097   */\n      tag_244\n        /* \"#utility.yul\":12091:12096   */\n      dup3\n        /* \"#utility.yul\":12058:12097   */\n      tag_94\n      jump\t// in\n    tag_244:\n        /* \"#utility.yul\":12113:12202   */\n      tag_245\n        /* \"#utility.yul\":12195:12201   */\n      dup2\n        /* \"#utility.yul\":12190:12193   */\n      dup6\n        /* \"#utility.yul\":12113:12202   */\n      tag_105\n      jump\t// in\n    tag_245:\n        /* \"#utility.yul\":12106:12202   */\n      swap4\n      pop\n        /* \"#utility.yul\":12211:12276   */\n      tag_246\n        /* \"#utility.yul\":12269:12275   */\n      dup2\n        /* \"#utility.yul\":12264:12267   */\n      dup6\n        /* \"#utility.yul\":12257:12261   */\n      0x20\n        /* \"#utility.yul\":12250:12255   */\n      dup7\n        /* \"#utility.yul\":12246:12262   */\n      add\n        /* \"#utility.yul\":12211:12276   */\n      tag_96\n      jump\t// in\n    tag_246:\n        /* \"#utility.yul\":12301:12307   */\n      dup1\n        /* \"#utility.yul\":12296:12299   */\n      dup5\n        /* \"#utility.yul\":12292:12308   */\n      add\n        /* \"#utility.yul\":12285:12308   */\n      swap2\n      pop\n        /* \"#utility.yul\":12034:12314   */\n      pop\n        /* \"#utility.yul\":11924:12314   */\n      swap3\n      swap2\n      pop\n      pop\n      jump\t// out\n        /* \"#utility.yul\":12320:12595   */\n    tag_28:\n        /* \"#utility.yul\":12452:12455   */\n      0x00\n        /* \"#utility.yul\":12474:12569   */\n      tag_248\n        /* \"#utility.yul\":12565:12568   */\n      dup3\n        /* \"#utility.yul\":12556:12562   */\n      dup5\n        /* \"#utility.yul\":12474:12569   */\n      tag_106\n      jump\t// in\n    tag_248:\n        /* \"#utility.yul\":12467:12569   */\n      swap2\n      pop\n        /* \"#utility.yul\":12586:12589   */\n      dup2\n        /* \"#utility.yul\":12579:12589   */\n      swap1\n      pop\n        /* \"#utility.yul\":12320:12595   */\n      swap3\n      swap2\n      pop\n      pop\n      jump\t// out\n        /* \"#utility.yul\":12601:12781   */\n    tag_107:\n        /* \"#utility.yul\":12649:12726   */\n      0x4e487b7100000000000000000000000000000000000000000000000000000000\n        /* \"#utility.yul\":12646:12647   */\n      0x00\n        /* \"#utility.yul\":12639:12727   */\n      mstore\n        /* \"#utility.yul\":12746:12750   */\n      0x22\n        /* \"#utility.yul\":12743:12744   */\n      0x04\n        /* \"#utility.yul\":12736:12751   */\n      mstore\n        /* \"#utility.yul\":12770:12774   */\n      0x24\n        /* \"#utility.yul\":12767:12768   */\n      0x00\n        /* \"#utility.yul\":12760:12775   */\n      revert\n        /* \"#utility.yul\":12787:13107   */\n    tag_42:\n        /* \"#utility.yul\":12831:12837   */\n      0x00\n        /* \"#utility.yul\":12868:12869   */\n      0x02\n        /* \"#utility.yul\":12862:12866   */\n      dup3\n        /* \"#utility.yul\":12858:12870   */\n      div\n        /* \"#utility.yul\":12848:12870   */\n      swap1\n      pop\n        /* \"#utility.yul\":12915:12916   */\n      0x01\n        /* \"#utility.yul\":12909:12913   */\n      dup3\n        /* \"#utility.yul\":12905:12917   */\n      and\n        /* \"#utility.yul\":12936:12954   */\n      dup1\n        /* \"#utility.yul\":12926:13007   */\n      tag_251\n      jumpi\n        /* \"#utility.yul\":12992:12996   */\n      0x7f\n        /* \"#utility.yul\":12984:12990   */\n      dup3\n        /* \"#utility.yul\":12980:12997   */\n      and\n        /* \"#utility.yul\":12970:12997   */\n      swap2\n      pop\n        /* \"#utility.yul\":12926:13007   */\n    tag_251:\n        /* \"#utility.yul\":13054:13056   */\n      0x20\n        /* \"#utility.yul\":13046:13052   */\n      dup3\n        /* \"#utility.yul\":13043:13057   */\n      lt\n        /* \"#utility.yul\":13023:13041   */\n      dup2\n        /* \"#utility.yul\":13020:13058   */\n      sub\n        /* \"#utility.yul\":13017:13101   */\n      tag_252\n      jumpi\n        /* \"#utility.yul\":13073:13091   */\n      tag_253\n      tag_107\n      jump\t// in\n    tag_253:\n        /* \"#utility.yul\":13017:13101   */\n    tag_252:\n        /* \"#utility.yul\":12838:13107   */\n      pop\n        /* \"#utility.yul\":12787:13107   */\n      swap2\n      swap1\n      pop\n      jump\t// out\n        /* \"#utility.yul\":13113:13254   */\n    tag_108:\n        /* \"#utility.yul\":13162:13166   */\n      0x00\n        /* \"#utility.yul\":13185:13188   */\n      dup2\n        /* \"#utility.yul\":13177:13188   */\n      swap1\n      pop\n        /* \"#utility.yul\":13208:13211   */\n      dup2\n        /* \"#utility.yul\":13205:13206   */\n      0x00\n        /* \"#utility.yul\":13198:13212   */\n      mstore\n        /* \"#utility.yul\":13242:13246   */\n      0x20\n        /* \"#utility.yul\":13239:13240   */\n      0x00\n        /* \"#utility.yul\":13229:13247   */\n      keccak256\n        /* \"#utility.yul\":13221:13247   */\n      swap1\n      pop\n        /* \"#utility.yul\":13113:13254   */\n      swap2\n      swap1\n      pop\n      jump\t// out\n        /* \"#utility.yul\":13260:13353   */\n    tag_109:\n        /* \"#utility.yul\":13297:13303   */\n      0x00\n        /* \"#utility.yul\":13344:13346   */\n      0x20\n        /* \"#utility.yul\":13339:13341   */\n      0x1f\n        /* \"#utility.yul\":13332:13337   */\n      dup4\n        /* \"#utility.yul\":13328:13342   */\n      add\n        /* \"#utility.yul\":13324:13347   */\n      div\n        /* \"#utility.yul\":13314:13347   */\n      swap1\n      pop\n        /* \"#utility.yul\":13260:13353   */\n      swap2\n      swap1\n      pop\n      jump\t// out\n        /* \"#utility.yul\":13359:13466   */\n    tag_110:\n        /* \"#utility.yul\":13403:13411   */\n      0x00\n        /* \"#utility.yul\":13453:13458   */\n      dup3\n        /* \"#utility.yul\":13447:13451   */\n      dup3\n        /* \"#utility.yul\":13443:13459   */\n      shl\n        /* \"#utility.yul\":13422:13459   */\n      swap1\n      pop\n        /* \"#utility.yul\":13359:13466   */\n      swap3\n      swap2\n      pop\n      pop\n      jump\t// out\n        /* \"#utility.yul\":13472:13865   */\n    tag_111:\n        /* \"#utility.yul\":13541:13547   */\n      0x00\n        /* \"#utility.yul\":13591:13592   */\n      0x08\n        /* \"#utility.yul\":13579:13589   */\n      dup4\n        /* \"#utility.yul\":13575:13593   */\n      mul\n        /* \"#utility.yul\":13614:13711   */\n      tag_258\n        /* \"#utility.yul\":13644:13710   */\n      0xffffffffffffffffffffffffffffffffffffffffffffffffffffffffffffffff\n        /* \"#utility.yul\":13633:13642   */\n      dup3\n        /* \"#utility.yul\":13614:13711   */\n      tag_110\n      jump\t// in\n    tag_258:\n        /* \"#utility.yul\":13732:13771   */\n      tag_259\n        /* \"#utility.yul\":13762:13770   */\n      dup7\n        /* \"#utility.yul\":13751:13760   */\n      dup4\n        /* \"#utility.yul\":13732:13771   */\n      tag_110\n      jump\t// in\n    tag_259:\n        /* \"#utility.yul\":13720:13771   */\n      swap6\n      pop\n        /* \"#utility.yul\":13804:13808   */\n      dup1\n        /* \"#utility.yul\":13800:13809   */\n      not\n        /* \"#utility.yul\":13793:13798   */\n      dup5\n        /* \"#utility.yul\":13789:13810   */\n      and\n        /* \"#utility.yul\":13780:13810   */\n      swap4\n      pop\n        /* \"#utility.yul\":13853:13857   */\n      dup1\n        /* \"#utility.yul\":13843:13851   */\n      dup7\n        /* \"#utility.yul\":13839:13858   */\n      and\n        /* \"#utility.yul\":13832:13837   */\n      dup5\n        /* \"#utility.yul\":13829:13859   */\n      or\n        /* \"#utility.yul\":13819:13859   */\n      swap3\n      pop\n        /* \"#utility.yul\":13548:13865   */\n      pop\n      pop\n        /* \"#utility.yul\":13472:13865   */\n      swap4\n      swap3\n      pop\n      pop\n      pop\n      jump\t// out\n        /* \"#utility.yul\":13871:13931   */\n    tag_112:\n        /* \"#utility.yul\":13899:13902   */\n      0x00\n        /* \"#utility.yul\":13920:13925   */\n      dup2\n        /* \"#utility.yul\":13913:13925   */\n      swap1\n      pop\n        /* \"#utility.yul\":13871:13931   */\n      swap2\n      swap1\n      pop\n      jump\t// out\n        /* \"#utility.yul\":13937:14079   */\n    tag_113:\n        /* \"#utility.yul\":13987:13996   */\n      0x00\n        /* \"#utility.yul\":14020:14073   */\n      tag_262\n        /* \"#utility.yul\":14038:14072   */\n      tag_263\n        /* \"#utility.yul\":14047:14071   */\n      tag_264\n        /* \"#utility.yul\":14065:14070   */\n      dup5\n        /* \"#utility.yul\":14047:14071   */\n      tag_85\n      jump\t// in\n    tag_264:\n        /* \"#utility.yul\":14038:14072   */\n      tag_112\n      jump\t// in\n    tag_263:\n        /* \"#utility.yul\":14020:14073   */\n      tag_85\n      jump\t// in\n    tag_262:\n        /* \"#utility.yul\":14007:14073   */\n      swap1\n      pop\n        /* \"#utility.yul\":13937:14079   */\n      swap2\n      swap1\n      pop\n      jump\t// out\n        /* \"#utility.yul\":14085:14160   */\n    tag_114:\n        /* \"#utility.yul\":14128:14131   */\n      0x00\n        /* \"#utility.yul\":14149:14154   */\n      dup2\n        /* \"#utility.yul\":14142:14154   */\n      swap1\n      pop\n        /* \"#utility.yul\":14085:14160   */\n      swap2\n      swap1\n      pop\n      jump\t// out\n        /* \"#utility.yul\":14166:14435   */\n    tag_115:\n        /* \"#utility.yul\":14276:14315   */\n      tag_267\n        /* \"#utility.yul\":14307:14314   */\n      dup4\n        /* \"#utility.yul\":14276:14315   */\n      tag_113\n      jump\t// in\n    tag_267:\n        /* \"#utility.yul\":14337:14428   */\n      tag_268\n        /* \"#utility.yul\":14386:14427   */\n      tag_269\n        /* \"#utility.yul\":14410:14426   */\n      dup3\n        /* \"#utility.yul\":14386:14427   */\n      tag_114\n      jump\t// in\n    tag_269:\n        /* \"#utility.yul\":14378:14384   */\n      dup5\n        /* \"#utility.yul\":14371:14375   */\n      dup5\n        /* \"#utility.yul\":14365:14376   */\n      sload\n        /* \"#utility.yul\":14337:14428   */\n      tag_111\n      jump\t// in\n    tag_268:\n        /* \"#utility.yul\":14331:14335   */\n      dup3\n        /* \"#utility.yul\":14324:14429   */\n      sstore\n        /* \"#utility.yul\":14242:14435   */\n      pop\n        /* \"#utility.yul\":14166:14435   */\n      pop\n      pop\n      pop\n      jump\t// out\n        /* \"#utility.yul\":14441:14514   */\n    tag_116:\n        /* \"#utility.yul\":14486:14489   */\n      0x00\n        /* \"#utility.yul\":14441:14514   */\n      swap1\n      jump\t// out\n        /* \"#utility.yul\":14520:14709   */\n    tag_117:\n        /* \"#utility.yul\":14597:14629   */\n      tag_272\n      tag_116\n      jump\t// in\n    tag_272:\n        /* \"#utility.yul\":14638:14703   */\n      tag_273\n        /* \"#utility.yul\":14696:14702   */\n      dup2\n        /* \"#utility.yul\":14688:14694   */\n      dup5\n        /* \"#utility.yul\":14682:14686   */\n      dup5\n        /* \"#utility.yul\":14638:14703   */\n      tag_115\n      jump\t// in\n    tag_273:\n        /* \"#utility.yul\":14573:14709   */\n      pop\n        /* \"#utility.yul\":14520:14709   */\n      pop\n      pop\n      jump\t// out\n        /* \"#utility.yul\":14715:14901   */\n    tag_118:\n        /* \"#utility.yul\":14775:14895   */\n    tag_275:\n        /* \"#utility.yul\":14792:14795   */\n      dup2\n        /* \"#utility.yul\":14785:14790   */\n      dup2\n        /* \"#utility.yul\":14782:14796   */\n      lt\n        /* \"#utility.yul\":14775:14895   */\n      iszero\n      tag_277\n      jumpi\n        /* \"#utility.yul\":14846:14885   */\n      tag_278\n        /* \"#utility.yul\":14883:14884   */\n      0x00\n        /* \"#utility.yul\":14876:14881   */\n      dup3\n        /* \"#utility.yul\":14846:14885   */\n      tag_117\n      jump\t// in\n    tag_278:\n        /* \"#utility.yul\":14819:14820   */\n      0x01\n        /* \"#utility.yul\":14812:14817   */\n      dup2\n        /* \"#utility.yul\":14808:14821   */\n      add\n        /* \"#utility.yul\":14799:14821   */\n      swap1\n      pop\n        /* \"#utility.yul\":14775:14895   */\n      jump(tag_275)\n    tag_277:\n        /* \"#utility.yul\":14715:14901   */\n      pop\n      pop\n      jump\t// out\n        /* \"#utility.yul\":14907:15450   */\n    tag_119:\n        /* \"#utility.yul\":15008:15010   */\n      0x1f\n        /* \"#utility.yul\":15003:15006   */\n      dup3\n        /* \"#utility.yul\":15000:15011   */\n      gt\n        /* \"#utility.yul\":14997:15443   */\n      iszero\n      tag_280\n      jumpi\n        /* \"#utility.yul\":15042:15080   */\n      tag_281\n        /* \"#utility.yul\":15074:15079   */\n      dup2\n        /* \"#utility.yul\":15042:15080   */\n      tag_108\n      jump\t// in\n    tag_281:\n        /* \"#utility.yul\":15126:15155   */\n      tag_282\n        /* \"#utility.yul\":15144:15154   */\n      dup5\n        /* \"#utility.yul\":15126:15155   */\n      tag_109\n      jump\t// in\n    tag_282:\n        /* \"#utility.yul\":15116:15124   */\n      dup2\n        /* \"#utility.yul\":15112:15156   */\n      add\n        /* \"#utility.yul\":15309:15311   */\n      0x20\n        /* \"#utility.yul\":15297:15307   */\n      dup6\n        /* \"#utility.yul\":15294:15312   */\n      lt\n        /* \"#utility.yul\":15291:15340   */\n      iszero\n      tag_283\n      jumpi\n        /* \"#utility.yul\":15330:15338   */\n      dup2\n        /* \"#utility.yul\":15315:15338   */\n      swap1\n      pop\n        /* \"#utility.yul\":15291:15340   */\n    tag_283:\n        /* \"#utility.yul\":15353:15433   */\n      tag_284\n        /* \"#utility.yul\":15409:15431   */\n      tag_285\n        /* \"#utility.yul\":15427:15430   */\n      dup6\n        /* \"#utility.yul\":15409:15431   */\n      tag_109\n      jump\t// in\n    tag_285:\n        /* \"#utility.yul\":15399:15407   */\n      dup4\n        /* \"#utility.yul\":15395:15432   */\n      add\n        /* \"#utility.yul\":15382:15393   */\n      dup3\n        /* \"#utility.yul\":15353:15433   */\n      tag_118\n      jump\t// in\n    tag_284:\n        /* \"#utility.yul\":15012:15443   */\n      pop\n      pop\n        /* \"#utility.yul\":14997:15443   */\n    tag_280:\n        /* \"#utility.yul\":14907:15450   */\n      pop\n      pop\n      pop\n      jump\t// out\n        /* \"#utility.yul\":15456:15573   */\n    tag_120:\n        /* \"#utility.yul\":15510:15518   */\n      0x00\n        /* \"#utility.yul\":15560:15565   */\n      dup3\n        /* \"#utility.yul\":15554:15558   */\n      dup3\n        /* \"#utility.yul\":15550:15566   */\n      shr\n        /* \"#utility.yul\":15529:15566   */\n      swap1\n      pop\n        /* \"#utility.yul\":15456:15573   */\n      swap3\n      swap2\n      pop\n      pop\n      jump\t// out\n        /* \"#utility.yul\":15579:15748   */\n    tag_121:\n        /* \"#utility.yul\":15623:15629   */\n      0x00\n        /* \"#utility.yul\":15656:15707   */\n      tag_288\n        /* \"#utility.yul\":15704:15705   */\n      0x00\n        /* \"#utility.yul\":15700:15706   */\n      not\n        /* \"#utility.yul\":15692:15697   */\n      dup5\n        /* \"#utility.yul\":15689:15690   */\n      0x08\n        /* \"#utility.yul\":15685:15698   */\n      mul\n        /* \"#utility.yul\":15656:15707   */\n      tag_120\n      jump\t// in\n    tag_288:\n        /* \"#utility.yul\":15652:15708   */\n      not\n        /* \"#utility.yul\":15737:15741   */\n      dup1\n        /* \"#utility.yul\":15731:15735   */\n      dup4\n        /* \"#utility.yul\":15727:15742   */\n      and\n        /* \"#utility.yul\":15717:15742   */\n      swap2\n      pop\n        /* \"#utility.yul\":15630:15748   */\n      pop\n        /* \"#utility.yul\":15579:15748   */\n      swap3\n      swap2\n      pop\n      pop\n      jump\t// out\n        /* \"#utility.yul\":15753:16048   */\n    tag_122:\n        /* \"#utility.yul\":15829:15833   */\n      0x00\n        /* \"#utility.yul\":15975:16004   */\n      tag_290\n        /* \"#utility.yul\":16000:16003   */\n      dup4\n        /* \"#utility.yul\":15994:15998   */\n      dup4\n        /* \"#utility.yul\":15975:16004   */\n      tag_121\n      jump\t// in\n    tag_290:\n        /* \"#utility.yul\":15967:16004   */\n      swap2\n      pop\n        /* \"#utility.yul\":16037:16040   */\n      dup3\n        /* \"#utility.yul\":16034:16035   */\n      0x02\n        /* \"#utility.yul\":16030:16041   */\n      mul\n        /* \"#utility.yul\":16024:16028   */\n      dup3\n        /* \"#utility.yul\":16021:16042   */\n      or\n        /* \"#utility.yul\":16013:16042   */\n      swap1\n      pop\n        /* \"#utility.yul\":15753:16048   */\n      swap3\n      swap2\n      pop\n      pop\n      jump\t// out\n        /* \"#utility.yul\":16053:17448   */\n    tag_34:\n        /* \"#utility.yul\":16170:16207   */\n      tag_292\n        /* \"#utility.yul\":16203:16206   */\n      dup3\n        /* \"#utility.yul\":16170:16207   */\n      tag_94\n      jump\t// in\n    tag_292:\n        /* \"#utility.yul\":16272:16290   */\n      0xffffffffffffffff\n        /* \"#utility.yul\":16264:16270   */\n      dup2\n        /* \"#utility.yul\":16261:16291   */\n      gt\n        /* \"#utility.yul\":16258:16314   */\n      iszero\n      tag_293\n      jumpi\n        /* \"#utility.yul\":16294:16312   */\n      tag_294\n      tag_78\n      jump\t// in\n    tag_294:\n        /* \"#utility.yul\":16258:16314   */\n    tag_293:\n        /* \"#utility.yul\":16338:16376   */\n      tag_295\n        /* \"#utility.yul\":16370:16374   */\n      dup3\n        /* \"#utility.yul\":16364:16375   */\n      sload\n        /* \"#utility.yul\":16338:16376   */\n      tag_42\n      jump\t// in\n    tag_295:\n        /* \"#utility.yul\":16423:16490   */\n      tag_296\n        /* \"#utility.yul\":16483:16489   */\n      dup3\n        /* \"#utility.yul\":16475:16481   */\n      dup3\n        /* \"#utility.yul\":16469:16473   */\n      dup6\n        /* \"#utility.yul\":16423:16490   */\n      tag_119\n      jump\t// in\n    tag_296:\n        /* \"#utility.yul\":16517:16518   */\n      0x00\n        /* \"#utility.yul\":16541:16545   */\n      0x20\n        /* \"#utility.yul\":16528:16545   */\n      swap1\n      pop\n        /* \"#utility.yul\":16573:16575   */\n      0x1f\n        /* \"#utility.yul\":16565:16571   */\n      dup4\n        /* \"#utility.yul\":16562:16576   */\n      gt\n        /* \"#utility.yul\":16590:16591   */\n      0x01\n        /* \"#utility.yul\":16585:17203   */\n      dup2\n      eq\n      tag_298\n      jumpi\n        /* \"#utility.yul\":17247:17248   */\n      0x00\n        /* \"#utility.yul\":17264:17270   */\n      dup5\n        /* \"#utility.yul\":17261:17338   */\n      iszero\n      tag_299\n      jumpi\n        /* \"#utility.yul\":17313:17322   */\n      dup3\n        /* \"#utility.yul\":17308:17311   */\n      dup8\n        /* \"#utility.yul\":17304:17323   */\n      add\n        /* \"#utility.yul\":17298:17324   */\n      mload\n        /* \"#utility.yul\":17289:17324   */\n      swap1\n      pop\n        /* \"#utility.yul\":17261:17338   */\n    tag_299:\n        /* \"#utility.yul\":17364:17431   */\n      tag_300\n        /* \"#utility.yul\":17424:17430   */\n      dup6\n        /* \"#utility.yul\":17417:17422   */\n      dup3\n        /* \"#utility.yul\":17364:17431   */\n      tag_122\n      jump\t// in\n    tag_300:\n        /* \"#utility.yul\":17358:17362   */\n      dup7\n        /* \"#utility.yul\":17351:17432   */\n      sstore\n        /* \"#utility.yul\":17220:17442   */\n      pop\n        /* \"#utility.yul\":16555:17442   */\n      jump(tag_297)\n        /* \"#utility.yul\":16585:17203   */\n    tag_298:\n        /* \"#utility.yul\":16637:16641   */\n      0x1f\n        /* \"#utility.yul\":16633:16642   */\n      not\n        /* \"#utility.yul\":16625:16631   */\n      dup5\n        /* \"#utility.yul\":16621:16643   */\n      and\n        /* \"#utility.yul\":16671:16708   */\n      tag_301\n        /* \"#utility.yul\":16703:16707   */\n      dup7\n        /* \"#utility.yul\":16671:16708   */\n      tag_108\n      jump\t// in\n    tag_301:\n        /* \"#utility.yul\":16730:16731   */\n      0x00\n        /* \"#utility.yul\":16744:16952   */\n    tag_302:\n        /* \"#utility.yul\":16758:16765   */\n      dup3\n        /* \"#utility.yul\":16755:16756   */\n      dup2\n        /* \"#utility.yul\":16752:16766   */\n      lt\n        /* \"#utility.yul\":16744:16952   */\n      iszero\n      tag_304\n      jumpi\n        /* \"#utility.yul\":16837:16846   */\n      dup5\n        /* \"#utility.yul\":16832:16835   */\n      dup10\n        /* \"#utility.yul\":16828:16847   */\n      add\n        /* \"#utility.yul\":16822:16848   */\n      mload\n        /* \"#utility.yul\":16814:16820   */\n      dup3\n        /* \"#utility.yul\":16807:16849   */\n      sstore\n        /* \"#utility.yul\":16888:16889   */\n      0x01\n        /* \"#utility.yul\":16880:16886   */\n      dup3\n        /* \"#utility.yul\":16876:16890   */\n      add\n        /* \"#utility.yul\":16866:16890   */\n      swap2\n      pop\n        /* \"#utility.yul\":16935:16937   */\n      0x20\n        /* \"#utility.yul\":16924:16933   */\n      dup6\n        /* \"#utility.yul\":16920:16938   */\n      add\n        /* \"#utility.yul\":16907:16938   */\n      swap5\n      pop\n        /* \"#utility.yul\":16781:16785   */\n      0x20\n        /* \"#utility.yul\":16778:16779   */\n      dup2\n        /* \"#utility.yul\":16774:16786   */\n      add\n        /* \"#utility.yul\":16769:16786   */\n      swap1\n      pop\n        /* \"#utility.yul\":16744:16952   */\n      jump(tag_302)\n    tag_304:\n        /* \"#utility.yul\":16980:16986   */\n      dup7\n        /* \"#utility.yul\":16971:16978   */\n      dup4\n        /* \"#utility.yul\":16968:16987   */\n      lt\n        /* \"#utility.yul\":16965:17144   */\n      iszero\n      tag_305\n      jumpi\n        /* \"#utility.yul\":17038:17047   */\n      dup5\n        /* \"#utility.yul\":17033:17036   */\n      dup10\n        /* \"#utility.yul\":17029:17048   */\n      add\n        /* \"#utility.yul\":17023:17049   */\n      mload\n        /* \"#utility.yul\":17081:17129   */\n      tag_306\n        /* \"#utility.yul\":17123:17127   */\n      0x1f\n        /* \"#utility.yul\":17115:17121   */\n      dup10\n        /* \"#utility.yul\":17111:17128   */\n      and\n        /* \"#utility.yul\":17100:17109   */\n      dup3\n        /* \"#utility.yul\":17081:17129   */\n      tag_121\n      jump\t// in\n    tag_306:\n        /* \"#utility.yul\":17073:17079   */\n      dup4\n        /* \"#utility.yul\":17066:17130   */\n      sstore\n        /* \"#utility.yul\":16988:17144   */\n      pop\n        /* \"#utility.yul\":16965:17144   */\n    tag_305:\n        /* \"#utility.yul\":17190:17191   */\n      0x01\n        /* \"#utility.yul\":17186:17187   */\n      0x02\n        /* \"#utility.yul\":17178:17184   */\n      dup9\n        /* \"#utility.yul\":17174:17188   */\n      mul\n        /* \"#utility.yul\":17170:17192   */\n      add\n        /* \"#utility.yul\":17164:17168   */\n      dup9\n        /* \"#utility.yul\":17157:17193   */\n      sstore\n        /* \"#utility.yul\":16592:17203   */\n      pop\n      pop\n      pop\n        /* \"#utility.yul\":16555:17442   */\n    tag_297:\n      pop\n        /* \"#utility.yul\":16145:17448   */\n      pop\n      pop\n      pop\n        /* \"#utility.yul\":16053:17448   */\n      pop\n      pop\n      jump\t// out\n\n    auxdata: 0xa264697066735822122044079c1ea8486e43ab2f59379df24baca66e6267ddc5a684248c4819e201a54064736f6c63430008120033\n}\n",
				"bytecode": {
					"linkReferences": {},
					"object": "608060405234801561001057600080fd5b50610d8e806100206000396000f3fe608060405234801561001057600080fd5b506004361061004b5760003560e01c8062ad33ed1461005057806313465f1214610080578063bf8ec6ae1461009c578063c013118f146100b8575b600080fd5b61006a600480360381019061006591906105b8565b6100e8565b604051610077919061061a565b60405180910390f35b61009a60048036038101906100959190610661565b610110565b005b6100b660048036038101906100b191906107a3565b610137565b005b6100d260048036038101906100cd91906105b8565b6101b6565b6040516100df9190610a05565b60405180910390f35b60006001826040516100fa9190610a63565b9081526020016040518091039020549050919050565b806001836040516101219190610a63565b9081526020016040518091039020819055505050565b6040518060600160405280848152602001838152602001828152506002856040516101629190610a63565b908152602001604051809103902060008201518160000155602082015181600101908161018f9190610c86565b5060408201518160020190805190602001906101ac929190610363565b5090505050505050565b6101be6103bc565b6002826040516101ce9190610a63565b90815260200160405180910390206040518060600160405290816000820154815260200160018201805461020190610aa9565b80601f016020809104026020016040519081016040528092919081815260200182805461022d90610aa9565b801561027a5780601f1061024f5761010080835404028352916020019161027a565b820191906000526020600020905b81548152906001019060200180831161025d57829003601f168201915b5050505050815260200160028201805480602002602001604051908101604052809291908181526020016000905b828210156103545783829060005260206000200180546102c790610aa9565b80601f01602080910402602001604051908101604052809291908181526020018280546102f390610aa9565b80156103405780601f1061031557610100808354040283529160200191610340565b820191906000526020600020905b81548152906001019060200180831161032357829003601f168201915b5050505050815260200190600101906102a8565b50505050815250509050919050565b8280548282559060005260206000209081019282156103ab579160200282015b828111156103aa57825182908161039a9190610c86565b5091602001919060010190610383565b5b5090506103b891906103dd565b5090565b60405180606001604052806000815260200160608152602001606081525090565b5b808211156103fd57600081816103f49190610401565b506001016103de565b5090565b50805461040d90610aa9565b6000825580601f1061041f575061043e565b601f01602090049060005260206000209081019061043d9190610441565b5b50565b5b8082111561045a576000816000905550600101610442565b5090565b6000604051905090565b600080fd5b600080fd5b600080fd5b600080fd5b6000601f19601f8301169050919050565b7f4e487b7100000000000000000000000000000000000000000000000000000000600052604160045260246000fd5b6104c58261047c565b810181811067ffffffffffffffff821117156104e4576104e361048d565b5b80604052505050565b60006104f761045e565b905061050382826104bc565b919050565b600067ffffffffffffffff8211156105235761052261048d565b5b61052c8261047c565b9050602081019050919050565b82818337600083830152505050565b600061055b61055684610508565b6104ed565b90508281526020810184848401111561057757610576610477565b5b610582848285610539565b509392505050565b600082601f83011261059f5761059e610472565b5b81356105af848260208601610548565b91505092915050565b6000602082840312156105ce576105cd610468565b5b600082013567ffffffffffffffff8111156105ec576105eb61046d565b5b6105f88482850161058a565b91505092915050565b6000819050919050565b61061481610601565b82525050565b600060208201905061062f600083018461060b565b92915050565b61063e81610601565b811461064957600080fd5b50565b60008135905061065b81610635565b92915050565b6000806040838503121561067857610677610468565b5b600083013567ffffffffffffffff8111156106965761069561046d565b5b6106a28582860161058a565b92505060206106b38582860161064c565b9150509250929050565b600067ffffffffffffffff8211156106d8576106d761048d565b5b602082029050602081019050919050565b600080fd5b60006107016106fc846106bd565b6104ed565b90508083825260208201905060208402830185811115610724576107236106e9565b5b835b8181101561076b57803567ffffffffffffffff81111561074957610748610472565b5b808601610756898261058a565b85526020850194505050602081019050610726565b5050509392505050565b600082601f83011261078a57610789610472565b5b813561079a8482602086016106ee565b91505092915050565b600080600080608085870312156107bd576107bc610468565b5b600085013567ffffffffffffffff8111156107db576107da61046d565b5b6107e78782880161058a565b94505060206107f88782880161064c565b935050604085013567ffffffffffffffff8111156108195761081861046d565b5b6108258782880161058a565b925050606085013567ffffffffffffffff8111156108465761084561046d565b5b61085287828801610775565b91505092959194509250565b61086781610601565b82525050565b600081519050919050565b600082825260208201905092915050565b60005b838110156108a757808201518184015260208101905061088c565b60008484015250505050565b60006108be8261086d565b6108c88185610878565b93506108d8818560208601610889565b6108e18161047c565b840191505092915050565b600081519050919050565b600082825260208201905092915050565b6000819050602082019050919050565b600061092483836108b3565b905092915050565b6000602082019050919050565b6000610944826108ec565b61094e81856108f7565b93508360208202850161096085610908565b8060005b8581101561099c578484038952815161097d8582610918565b94506109888361092c565b925060208a01995050600181019050610964565b50829750879550505050505092915050565b60006060830160008301516109c6600086018261085e565b50602083015184820360208601526109de82826108b3565b915050604083015184820360408601526109f88282610939565b9150508091505092915050565b60006020820190508181036000830152610a1f81846109ae565b905092915050565b600081905092915050565b6000610a3d8261086d565b610a478185610a27565b9350610a57818560208601610889565b80840191505092915050565b6000610a6f8284610a32565b915081905092915050565b7f4e487b7100000000000000000000000000000000000000000000000000000000600052602260045260246000fd5b60006002820490506001821680610ac157607f821691505b602082108103610ad457610ad3610a7a565b5b50919050565b60008190508160005260206000209050919050565b60006020601f8301049050919050565b600082821b905092915050565b600060088302610b3c7fffffffffffffffffffffffffffffffffffffffffffffffffffffffffffffffff82610aff565b610b468683610aff565b95508019841693508086168417925050509392505050565b6000819050919050565b6000610b83610b7e610b7984610601565b610b5e565b610601565b9050919050565b6000819050919050565b610b9d83610b68565b610bb1610ba982610b8a565b848454610b0c565b825550505050565b600090565b610bc6610bb9565b610bd1818484610b94565b505050565b5b81811015610bf557610bea600082610bbe565b600181019050610bd7565b5050565b601f821115610c3a57610c0b81610ada565b610c1484610aef565b81016020851015610c23578190505b610c37610c2f85610aef565b830182610bd6565b50505b505050565b600082821c905092915050565b6000610c5d60001984600802610c3f565b1980831691505092915050565b6000610c768383610c4c565b9150826002028217905092915050565b610c8f8261086d565b67ffffffffffffffff811115610ca857610ca761048d565b5b610cb28254610aa9565b610cbd828285610bf9565b600060209050601f831160018114610cf05760008415610cde578287015190505b610ce88582610c6a565b865550610d50565b601f198416610cfe86610ada565b60005b82811015610d2657848901518255600182019150602085019450602081019050610d01565b86831015610d435784890151610d3f601f891682610c4c565b8355505b6001600288020188555050505b50505050505056fea264697066735822122044079c1ea8486e43ab2f59379df24baca66e6267ddc5a684248c4819e201a54064736f6c63430008120033",
					"opcodes": "PUSH1 0x80 PUSH1 0x40 MSTORE CALLVALUE DUP1 ISZERO PUSH2 0x10 JUMPI PUSH1 0x0 DUP1 REVERT JUMPDEST POP PUSH2 0xD8E DUP1 PUSH2 0x20 PUSH1 0x0 CODECOPY PUSH1 0x0 RETURN INVALID PUSH1 0x80 PUSH1 0x40 MSTORE CALLVALUE DUP1 ISZERO PUSH2 0x10 JUMPI PUSH1 0x0 DUP1 REVERT JUMPDEST POP PUSH1 0x4 CALLDATASIZE LT PUSH2 0x4B JUMPI PUSH1 0x0 CALLDATALOAD PUSH1 0xE0 SHR DUP1 PUSH3 0xAD33ED EQ PUSH2 0x50 JUMPI DUP1 PUSH4 0x13465F12 EQ PUSH2 0x80 JUMPI DUP1 PUSH4 0xBF8EC6AE EQ PUSH2 0x9C JUMPI DUP1 PUSH4 0xC013118F EQ PUSH2 0xB8 JUMPI JUMPDEST PUSH1 0x0 DUP1 REVERT JUMPDEST PUSH2 0x6A PUSH1 0x4 DUP1 CALLDATASIZE SUB DUP2 ADD SWAP1 PUSH2 0x65 SWAP2 SWAP1 PUSH2 0x5B8 JUMP JUMPDEST PUSH2 0xE8 JUMP JUMPDEST PUSH1 0x40 MLOAD PUSH2 0x77 SWAP2 SWAP1 PUSH2 0x61A JUMP JUMPDEST PUSH1 0x40 MLOAD DUP1 SWAP2 SUB SWAP1 RETURN JUMPDEST PUSH2 0x9A PUSH1 0x4 DUP1 CALLDATASIZE SUB DUP2 ADD SWAP1 PUSH2 0x95 SWAP2 SWAP1 PUSH2 0x661 JUMP JUMPDEST PUSH2 0x110 JUMP JUMPDEST STOP JUMPDEST PUSH2 0xB6 PUSH1 0x4 DUP1 CALLDATASIZE SUB DUP2 ADD SWAP1 PUSH2 0xB1 SWAP2 SWAP1 PUSH2 0x7A3 JUMP JUMPDEST PUSH2 0x137 JUMP JUMPDEST STOP JUMPDEST PUSH2 0xD2 PUSH1 0x4 DUP1 CALLDATASIZE SUB DUP2 ADD SWAP1 PUSH2 0xCD SWAP2 SWAP1 PUSH2 0x5B8 JUMP JUMPDEST PUSH2 0x1B6 JUMP JUMPDEST PUSH1 0x40 MLOAD PUSH2 0xDF SWAP2 SWAP1 PUSH2 0xA05 JUMP JUMPDEST PUSH1 0x40 MLOAD DUP1 SWAP2 SUB SWAP1 RETURN JUMPDEST PUSH1 0x0 PUSH1 0x1 DUP3 PUSH1 0x40 MLOAD PUSH2 0xFA SWAP2 SWAP1 PUSH2 0xA63 JUMP JUMPDEST SWAP1 DUP2 MSTORE PUSH1 0x20 ADD PUSH1 0x40 MLOAD DUP1 SWAP2 SUB SWAP1 KECCAK256 SLOAD SWAP1 POP SWAP2 SWAP1 POP JUMP JUMPDEST DUP1 PUSH1 0x1 DUP4 PUSH1 0x40 MLOAD PUSH2 0x121 SWAP2 SWAP1 PUSH2 0xA63 JUMP JUMPDEST SWAP1 DUP2 MSTORE PUSH1 0x20 ADD PUSH1 0x40 MLOAD DUP1 SWAP2 SUB SWAP1 KECCAK256 DUP2 SWAP1 SSTORE POP POP POP JUMP JUMPDEST PUSH1 0x40 MLOAD DUP1 PUSH1 0x60 ADD PUSH1 0x40 MSTORE DUP1 DUP5 DUP2 MSTORE PUSH1 0x20 ADD DUP4 DUP2 MSTORE PUSH1 0x20 ADD DUP3 DUP2 MSTORE POP PUSH1 0x2 DUP6 PUSH1 0x40 MLOAD PUSH2 0x162 SWAP2 SWAP1 PUSH2 0xA63 JUMP JUMPDEST SWAP1 DUP2 MSTORE PUSH1 0x20 ADD PUSH1 0x40 MLOAD DUP1 SWAP2 SUB SWAP1 KECCAK256 PUSH1 0x0 DUP3 ADD MLOAD DUP2 PUSH1 0x0 ADD SSTORE PUSH1 0x20 DUP3 ADD MLOAD DUP2 PUSH1 0x1 ADD SWAP1 DUP2 PUSH2 0x18F SWAP2 SWAP1 PUSH2 0xC86 JUMP JUMPDEST POP PUSH1 0x40 DUP3 ADD MLOAD DUP2 PUSH1 0x2 ADD SWAP1 DUP1 MLOAD SWAP1 PUSH1 0x20 ADD SWAP1 PUSH2 0x1AC SWAP3 SWAP2 SWAP1 PUSH2 0x363 JUMP JUMPDEST POP SWAP1 POP POP POP POP POP POP JUMP JUMPDEST PUSH2 0x1BE PUSH2 0x3BC JUMP JUMPDEST PUSH1 0x2 DUP3 PUSH1 0x40 MLOAD PUSH2 0x1CE SWAP2 SWAP1 PUSH2 0xA63 JUMP JUMPDEST SWAP1 DUP2 MSTORE PUSH1 0x20 ADD PUSH1 0x40 MLOAD DUP1 SWAP2 SUB SWAP1 KECCAK256 PUSH1 0x40 MLOAD DUP1 PUSH1 0x60 ADD PUSH1 0x40 MSTORE SWAP1 DUP2 PUSH1 0x0 DUP3 ADD SLOAD DUP2 MSTORE PUSH1 0x20 ADD PUSH1 0x1 DUP3 ADD DUP1 SLOAD PUSH2 0x201 SWAP1 PUSH2 0xAA9 JUMP JUMPDEST DUP1 PUSH1 0x1F ADD PUSH1 0x20 DUP1 SWAP2 DIV MUL PUSH1 0x20 ADD PUSH1 0x40 MLOAD SWAP1 DUP2 ADD PUSH1 0x40 MSTORE DUP1 SWAP3 SWAP2 SWAP1 DUP2 DUP2 MSTORE PUSH1 0x20 ADD DUP3 DUP1 SLOAD PUSH2 0x22D SWAP1 PUSH2 0xAA9 JUMP JUMPDEST DUP1 ISZERO PUSH2 0x27A JUMPI DUP1 PUSH1 0x1F LT PUSH2 0x24F JUMPI PUSH2 0x100 DUP1 DUP4 SLOAD DIV MUL DUP4 MSTORE SWAP2 PUSH1 0x20 ADD SWAP2 PUSH2 0x27A JUMP JUMPDEST DUP3 ADD SWAP2 SWAP1 PUSH1 0x0 MSTORE PUSH1 0x20 PUSH1 0x0 KECCAK256 SWAP1 JUMPDEST DUP2 SLOAD DUP2 MSTORE SWAP1 PUSH1 0x1 ADD SWAP1 PUSH1 0x20 ADD DUP1 DUP4 GT PUSH2 0x25D JUMPI DUP3 SWAP1 SUB PUSH1 0x1F AND DUP3 ADD SWAP2 JUMPDEST POP POP POP POP POP DUP2 MSTORE PUSH1 0x20 ADD PUSH1 0x2 DUP3 ADD DUP1 SLOAD DUP1 PUSH1 0x20 MUL PUSH1 0x20 ADD PUSH1 0x40 MLOAD SWAP1 DUP2 ADD PUSH1 0x40 MSTORE DUP1 SWAP3 SWAP2 SWAP1 DUP2 DUP2 MSTORE PUSH1 0x20 ADD PUSH1 0x0 SWAP1 JUMPDEST DUP3 DUP3 LT ISZERO PUSH2 0x354 JUMPI DUP4 DUP3 SWAP1 PUSH1 0x0 MSTORE PUSH1 0x20 PUSH1 0x0 KECCAK256 ADD DUP1 SLOAD PUSH2 0x2C7 SWAP1 PUSH2 0xAA9 JUMP JUMPDEST DUP1 PUSH1 0x1F ADD PUSH1 0x20 DUP1 SWAP2 DIV MUL PUSH1 0x20 ADD PUSH1 0x40 MLOAD SWAP1 DUP2 ADD PUSH1 0x40 MSTORE DUP1 SWAP3 SWAP2 SWAP1 DUP2 DUP2 MSTORE PUSH1 0x20 ADD DUP3 DUP1 SLOAD PUSH2 0x2F3 SWAP1 PUSH2 0xAA9 JUMP JUMPDEST DUP1 ISZERO PUSH2 0x340 JUMPI DUP1 PUSH1 0x1F LT PUSH2 0x315 JUMPI PUSH2 0x100 DUP1 DUP4 SLOAD DIV MUL DUP4 MSTORE SWAP2 PUSH1 0x20 ADD SWAP2 PUSH2 0x340 JUMP JUMPDEST DUP3 ADD SWAP2 SWAP1 PUSH1 0x0 MSTORE PUSH1 0x20 PUSH1 0x0 KECCAK256 SWAP1 JUMPDEST DUP2 SLOAD DUP2 MSTORE SWAP1 PUSH1 0x1 ADD SWAP1 PUSH1 0x20 ADD DUP1 DUP4 GT PUSH2 0x323 JUMPI DUP3 SWAP1 SUB PUSH1 0x1F AND DUP3 ADD SWAP2 JUMPDEST POP POP POP POP POP DUP2 MSTORE PUSH1 0x20 ADD SWAP1 PUSH1 0x1 ADD SWAP1 PUSH2 0x2A8 JUMP JUMPDEST POP POP POP POP DUP2 MSTORE POP POP SWAP1 POP SWAP2 SWAP1 POP JUMP JUMPDEST DUP3 DUP1 SLOAD DUP3 DUP3 SSTORE SWAP1 PUSH1 0x0 MSTORE PUSH1 0x20 PUSH1 0x0 KECCAK256 SWAP1 DUP2 ADD SWAP3 DUP3 ISZERO PUSH2 0x3AB JUMPI SWAP2 PUSH1 0x20 MUL DUP3 ADD JUMPDEST DUP3 DUP2 GT ISZERO PUSH2 0x3AA JUMPI DUP3 MLOAD DUP3 SWAP1 DUP2 PUSH2 0x39A SWAP2 SWAP1 PUSH2 0xC86 JUMP JUMPDEST POP SWAP2 PUSH1 0x20 ADD SWAP2 SWAP1 PUSH1 0x1 ADD SWAP1 PUSH2 0x383 JUMP JUMPDEST JUMPDEST POP SWAP1 POP PUSH2 0x3B8 SWAP2 SWAP1 PUSH2 0x3DD JUMP JUMPDEST POP SWAP1 JUMP JUMPDEST PUSH1 0x40 MLOAD DUP1 PUSH1 0x60 ADD PUSH1 0x40 MSTORE DUP1 PUSH1 0x0 DUP2 MSTORE PUSH1 0x20 ADD PUSH1 0x60 DUP2 MSTORE PUSH1 0x20 ADD PUSH1 0x60 DUP2 MSTORE POP SWAP1 JUMP JUMPDEST JUMPDEST DUP1 DUP3 GT ISZERO PUSH2 0x3FD JUMPI PUSH1 0x0 DUP2 DUP2 PUSH2 0x3F4 SWAP2 SWAP1 PUSH2 0x401 JUMP JUMPDEST POP PUSH1 0x1 ADD PUSH2 0x3DE JUMP JUMPDEST POP SWAP1 JUMP JUMPDEST POP DUP1 SLOAD PUSH2 0x40D SWAP1 PUSH2 0xAA9 JUMP JUMPDEST PUSH1 0x0 DUP3 SSTORE DUP1 PUSH1 0x1F LT PUSH2 0x41F JUMPI POP PUSH2 0x43E JUMP JUMPDEST PUSH1 0x1F ADD PUSH1 0x20 SWAP1 DIV SWAP1 PUSH1 0x0 MSTORE PUSH1 0x20 PUSH1 0x0 KECCAK256 SWAP1 DUP2 ADD SWAP1 PUSH2 0x43D SWAP2 SWAP1 PUSH2 0x441 JUMP JUMPDEST JUMPDEST POP JUMP JUMPDEST JUMPDEST DUP1 DUP3 GT ISZERO PUSH2 0x45A JUMPI PUSH1 0x0 DUP2 PUSH1 0x0 SWAP1 SSTORE POP PUSH1 0x1 ADD PUSH2 0x442 JUMP JUMPDEST POP SWAP1 JUMP JUMPDEST PUSH1 0x0 PUSH1 0x40 MLOAD SWAP1 POP SWAP1 JUMP JUMPDEST PUSH1 0x0 DUP1 REVERT JUMPDEST PUSH1 0x0 DUP1 REVERT JUMPDEST PUSH1 0x0 DUP1 REVERT JUMPDEST PUSH1 0x0 DUP1 REVERT JUMPDEST PUSH1 0x0 PUSH1 0x1F NOT PUSH1 0x1F DUP4 ADD AND SWAP1 POP SWAP2 SWAP1 POP JUMP JUMPDEST PUSH32 0x4E487B7100000000000000000000000000000000000000000000000000000000 PUSH1 0x0 MSTORE PUSH1 0x41 PUSH1 0x4 MSTORE PUSH1 0x24 PUSH1 0x0 REVERT JUMPDEST PUSH2 0x4C5 DUP3 PUSH2 0x47C JUMP JUMPDEST DUP2 ADD DUP2 DUP2 LT PUSH8 0xFFFFFFFFFFFFFFFF DUP3 GT OR ISZERO PUSH2 0x4E4 JUMPI PUSH2 0x4E3 PUSH2 0x48D JUMP JUMPDEST JUMPDEST DUP1 PUSH1 0x40 MSTORE POP POP POP JUMP JUMPDEST PUSH1 0x0 PUSH2 0x4F7 PUSH2 0x45E JUMP JUMPDEST SWAP1 POP PUSH2 0x503 DUP3 DUP3 PUSH2 0x4BC JUMP JUMPDEST SWAP2 SWAP1 POP JUMP JUMPDEST PUSH1 0x0 PUSH8 0xFFFFFFFFFFFFFFFF DUP3 GT ISZERO PUSH2 0x523 JUMPI PUSH2 0x522 PUSH2 0x48D JUMP JUMPDEST JUMPDEST PUSH2 0x52C DUP3 PUSH2 0x47C JUMP JUMPDEST SWAP1 POP PUSH1 0x20 DUP2 ADD SWAP1 POP SWAP2 SWAP1 POP JUMP JUMPDEST DUP3 DUP2 DUP4 CALLDATACOPY PUSH1 0x0 DUP4 DUP4 ADD MSTORE POP POP POP JUMP JUMPDEST PUSH1 0x0 PUSH2 0x55B PUSH2 0x556 DUP5 PUSH2 0x508 JUMP JUMPDEST PUSH2 0x4ED JUMP JUMPDEST SWAP1 POP DUP3 DUP2 MSTORE PUSH1 0x20 DUP2 ADD DUP5 DUP5 DUP5 ADD GT ISZERO PUSH2 0x577 JUMPI PUSH2 0x576 PUSH2 0x477 JUMP JUMPDEST JUMPDEST PUSH2 0x582 DUP5 DUP3 DUP6 PUSH2 0x539 JUMP JUMPDEST POP SWAP4 SWAP3 POP POP POP JUMP JUMPDEST PUSH1 0x0 DUP3 PUSH1 0x1F DUP4 ADD SLT PUSH2 0x59F JUMPI PUSH2 0x59E PUSH2 0x472 JUMP JUMPDEST JUMPDEST DUP2 CALLDATALOAD PUSH2 0x5AF DUP5 DUP3 PUSH1 0x20 DUP7 ADD PUSH2 0x548 JUMP JUMPDEST SWAP2 POP POP SWAP3 SWAP2 POP POP JUMP JUMPDEST PUSH1 0x0 PUSH1 0x20 DUP3 DUP5 SUB SLT ISZERO PUSH2 0x5CE JUMPI PUSH2 0x5CD PUSH2 0x468 JUMP JUMPDEST JUMPDEST PUSH1 0x0 DUP3 ADD CALLDATALOAD PUSH8 0xFFFFFFFFFFFFFFFF DUP2 GT ISZERO PUSH2 0x5EC JUMPI PUSH2 0x5EB PUSH2 0x46D JUMP JUMPDEST JUMPDEST PUSH2 0x5F8 DUP5 DUP3 DUP6 ADD PUSH2 0x58A JUMP JUMPDEST SWAP2 POP POP SWAP3 SWAP2 POP POP JUMP JUMPDEST PUSH1 0x0 DUP2 SWAP1 POP SWAP2 SWAP1 POP JUMP JUMPDEST PUSH2 0x614 DUP2 PUSH2 0x601 JUMP JUMPDEST DUP3 MSTORE POP POP JUMP JUMPDEST PUSH1 0x0 PUSH1 0x20 DUP3 ADD SWAP1 POP PUSH2 0x62F PUSH1 0x0 DUP4 ADD DUP5 PUSH2 0x60B JUMP JUMPDEST SWAP3 SWAP2 POP POP JUMP JUMPDEST PUSH2 0x63E DUP2 PUSH2 0x601 JUMP JUMPDEST DUP2 EQ PUSH2 0x649 JUMPI PUSH1 0x0 DUP1 REVERT JUMPDEST POP JUMP JUMPDEST PUSH1 0x0 DUP2 CALLDATALOAD SWAP1 POP PUSH2 0x65B DUP2 PUSH2 0x635 JUMP JUMPDEST SWAP3 SWAP2 POP POP JUMP JUMPDEST PUSH1 0x0 DUP1 PUSH1 0x40 DUP4 DUP6 SUB SLT ISZERO PUSH2 0x678 JUMPI PUSH2 0x677 PUSH2 0x468 JUMP JUMPDEST JUMPDEST PUSH1 0x0 DUP4 ADD CALLDATALOAD PUSH8 0xFFFFFFFFFFFFFFFF DUP2 GT ISZERO PUSH2 0x696 JUMPI PUSH2 0x695 PUSH2 0x46D JUMP JUMPDEST JUMPDEST PUSH2 0x6A2 DUP6 DUP3 DUP7 ADD PUSH2 0x58A JUMP JUMPDEST SWAP3 POP POP PUSH1 0x20 PUSH2 0x6B3 DUP6 DUP3 DUP7 ADD PUSH2 0x64C JUMP JUMPDEST SWAP2 POP POP SWAP3 POP SWAP3 SWAP1 POP JUMP JUMPDEST PUSH1 0x0 PUSH8 0xFFFFFFFFFFFFFFFF DUP3 GT ISZERO PUSH2 0x6D8 JUMPI PUSH2 0x6D7 PUSH2 0x48D JUMP JUMPDEST JUMPDEST PUSH1 0x20 DUP3 MUL SWAP1 POP PUSH1 0x20 DUP2 ADD SWAP1 POP SWAP2 SWAP1 POP JUMP JUMPDEST PUSH1 0x0 DUP1 REVERT JUMPDEST PUSH1 0x0 PUSH2 0x701 PUSH2 0x6FC DUP5 PUSH2 0x6BD JUMP JUMPDEST PUSH2 0x4ED JUMP JUMPDEST SWAP1 POP DUP1 DUP4 DUP3 MSTORE PUSH1 0x20 DUP3 ADD SWAP1 POP PUSH1 0x20 DUP5 MUL DUP4 ADD DUP6 DUP2 GT ISZERO PUSH2 0x724 JUMPI PUSH2 0x723 PUSH2 0x6E9 JUMP JUMPDEST JUMPDEST DUP4 JUMPDEST DUP2 DUP2 LT ISZERO PUSH2 0x76B JUMPI DUP1 CALLDATALOAD PUSH8 0xFFFFFFFFFFFFFFFF DUP2 GT ISZERO PUSH2 0x749 JUMPI PUSH2 0x748 PUSH2 0x472 JUMP JUMPDEST JUMPDEST DUP1 DUP7 ADD PUSH2 0x756 DUP10 DUP3 PUSH2 0x58A JUMP JUMPDEST DUP6 MSTORE PUSH1 0x20 DUP6 ADD SWAP5 POP POP POP PUSH1 0x20 DUP2 ADD SWAP1 POP PUSH2 0x726 JUMP JUMPDEST POP POP POP SWAP4 SWAP3 POP POP POP JUMP JUMPDEST PUSH1 0x0 DUP3 PUSH1 0x1F DUP4 ADD SLT PUSH2 0x78A JUMPI PUSH2 0x789 PUSH2 0x472 JUMP JUMPDEST JUMPDEST DUP2 CALLDATALOAD PUSH2 0x79A DUP5 DUP3 PUSH1 0x20 DUP7 ADD PUSH2 0x6EE JUMP JUMPDEST SWAP2 POP POP SWAP3 SWAP2 POP POP JUMP JUMPDEST PUSH1 0x0 DUP1 PUSH1 0x0 DUP1 PUSH1 0x80 DUP6 DUP8 SUB SLT ISZERO PUSH2 0x7BD JUMPI PUSH2 0x7BC PUSH2 0x468 JUMP JUMPDEST JUMPDEST PUSH1 0x0 DUP6 ADD CALLDATALOAD PUSH8 0xFFFFFFFFFFFFFFFF DUP2 GT ISZERO PUSH2 0x7DB JUMPI PUSH2 0x7DA PUSH2 0x46D JUMP JUMPDEST JUMPDEST PUSH2 0x7E7 DUP8 DUP3 DUP9 ADD PUSH2 0x58A JUMP JUMPDEST SWAP5 POP POP PUSH1 0x20 PUSH2 0x7F8 DUP8 DUP3 DUP9 ADD PUSH2 0x64C JUMP JUMPDEST SWAP4 POP POP PUSH1 0x40 DUP6 ADD CALLDATALOAD PUSH8 0xFFFFFFFFFFFFFFFF DUP2 GT ISZERO PUSH2 0x819 JUMPI PUSH2 0x818 PUSH2 0x46D JUMP JUMPDEST JUMPDEST PUSH2 0x825 DUP8 DUP3 DUP9 ADD PUSH2 0x58A JUMP JUMPDEST SWAP3 POP POP PUSH1 0x60 DUP6 ADD CALLDATALOAD PUSH8 0xFFFFFFFFFFFFFFFF DUP2 GT ISZERO PUSH2 0x846 JUMPI PUSH2 0x845 PUSH2 0x46D JUMP JUMPDEST JUMPDEST PUSH2 0x852 DUP8 DUP3 DUP9 ADD PUSH2 0x775 JUMP JUMPDEST SWAP2 POP POP SWAP3 SWAP6 SWAP2 SWAP5 POP SWAP3 POP JUMP JUMPDEST PUSH2 0x867 DUP2 PUSH2 0x601 JUMP JUMPDEST DUP3 MSTORE POP POP JUMP JUMPDEST PUSH1 0x0 DUP2 MLOAD SWAP1 POP SWAP2 SWAP1 POP JUMP JUMPDEST PUSH1 0x0 DUP3 DUP3 MSTORE PUSH1 0x20 DUP3 ADD SWAP1 POP SWAP3 SWAP2 POP POP JUMP JUMPDEST PUSH1 0x0 JUMPDEST DUP4 DUP2 LT ISZERO PUSH2 0x8A7 JUMPI DUP1 DUP3 ADD MLOAD DUP2 DUP5 ADD MSTORE PUSH1 0x20 DUP2 ADD SWAP1 POP PUSH2 0x88C JUMP JUMPDEST PUSH1 0x0 DUP5 DUP5 ADD MSTORE POP POP POP POP JUMP JUMPDEST PUSH1 0x0 PUSH2 0x8BE DUP3 PUSH2 0x86D JUMP JUMPDEST PUSH2 0x8C8 DUP2 DUP6 PUSH2 0x878 JUMP JUMPDEST SWAP4 POP PUSH2 0x8D8 DUP2 DUP6 PUSH1 0x20 DUP7 ADD PUSH2 0x889 JUMP JUMPDEST PUSH2 0x8E1 DUP2 PUSH2 0x47C JUMP JUMPDEST DUP5 ADD SWAP2 POP POP SWAP3 SWAP2 POP POP JUMP JUMPDEST PUSH1 0x0 DUP2 MLOAD SWAP1 POP SWAP2 SWAP1 POP JUMP JUMPDEST PUSH1 0x0 DUP3 DUP3 MSTORE PUSH1 0x20 DUP3 ADD SWAP1 POP SWAP3 SWAP2 POP POP JUMP JUMPDEST PUSH1 0x0 DUP2 SWAP1 POP PUSH1 0x20 DUP3 ADD SWAP1 POP SWAP2 SWAP1 POP JUMP JUMPDEST PUSH1 0x0 PUSH2 0x924 DUP4 DUP4 PUSH2 0x8B3 JUMP JUMPDEST SWAP1 POP SWAP3 SWAP2 POP POP JUMP JUMPDEST PUSH1 0x0 PUSH1 0x20 DUP3 ADD SWAP1 POP SWAP2 SWAP1 POP JUMP JUMPDEST PUSH1 0x0 PUSH2 0x944 DUP3 PUSH2 0x8EC JUMP JUMPDEST PUSH2 0x94E DUP2 DUP6 PUSH2 0x8F7 JUMP JUMPDEST SWAP4 POP DUP4 PUSH1 0x20 DUP3 MUL DUP6 ADD PUSH2 0x960 DUP6 PUSH2 0x908 JUMP JUMPDEST DUP1 PUSH1 0x0 JUMPDEST DUP6 DUP2 LT ISZERO PUSH2 0x99C JUMPI DUP5 DUP5 SUB DUP10 MSTORE DUP2 MLOAD PUSH2 0x97D DUP6 DUP3 PUSH2 0x918 JUMP JUMPDEST SWAP5 POP PUSH2 0x988 DUP4 PUSH2 0x92C JUMP JUMPDEST SWAP3 POP PUSH1 0x20 DUP11 ADD SWAP10 POP POP PUSH1 0x1 DUP2 ADD SWAP1 POP PUSH2 0x964 JUMP JUMPDEST POP DUP3 SWAP8 POP DUP8 SWAP6 POP POP POP POP POP POP SWAP3 SWAP2 POP POP JUMP JUMPDEST PUSH1 0x0 PUSH1 0x60 DUP4 ADD PUSH1 0x0 DUP4 ADD MLOAD PUSH2 0x9C6 PUSH1 0x0 DUP7 ADD DUP3 PUSH2 0x85E JUMP JUMPDEST POP PUSH1 0x20 DUP4 ADD MLOAD DUP5 DUP3 SUB PUSH1 0x20 DUP7 ADD MSTORE PUSH2 0x9DE DUP3 DUP3 PUSH2 0x8B3 JUMP JUMPDEST SWAP2 POP POP PUSH1 0x40 DUP4 ADD MLOAD DUP5 DUP3 SUB PUSH1 0x40 DUP7 ADD MSTORE PUSH2 0x9F8 DUP3 DUP3 PUSH2 0x939 JUMP JUMPDEST SWAP2 POP POP DUP1 SWAP2 POP POP SWAP3 SWAP2 POP POP JUMP JUMPDEST PUSH1 0x0 PUSH1 0x20 DUP3 ADD SWAP1 POP DUP2 DUP2 SUB PUSH1 0x0 DUP4 ADD MSTORE PUSH2 0xA1F DUP2 DUP5 PUSH2 0x9AE JUMP JUMPDEST SWAP1 POP SWAP3 SWAP2 POP POP JUMP JUMPDEST PUSH1 0x0 DUP2 SWAP1 POP SWAP3 SWAP2 POP POP JUMP JUMPDEST PUSH1 0x0 PUSH2 0xA3D DUP3 PUSH2 0x86D JUMP JUMPDEST PUSH2 0xA47 DUP2 DUP6 PUSH2 0xA27 JUMP JUMPDEST SWAP4 POP PUSH2 0xA57 DUP2 DUP6 PUSH1 0x20 DUP7 ADD PUSH2 0x889 JUMP JUMPDEST DUP1 DUP5 ADD SWAP2 POP POP SWAP3 SWAP2 POP POP JUMP JUMPDEST PUSH1 0x0 PUSH2 0xA6F DUP3 DUP5 PUSH2 0xA32 JUMP JUMPDEST SWAP2 POP DUP2 SWAP1 POP SWAP3 SWAP2 POP POP JUMP JUMPDEST PUSH32 0x4E487B7100000000000000000000000000000000000000000000000000000000 PUSH1 0x0 MSTORE PUSH1 0x22 PUSH1 0x4 MSTORE PUSH1 0x24 PUSH1 0x0 REVERT JUMPDEST PUSH1 0x0 PUSH1 0x2 DUP3 DIV SWAP1 POP PUSH1 0x1 DUP3 AND DUP1 PUSH2 0xAC1 JUMPI PUSH1 0x7F DUP3 AND SWAP2 POP JUMPDEST PUSH1 0x20 DUP3 LT DUP2 SUB PUSH2 0xAD4 JUMPI PUSH2 0xAD3 PUSH2 0xA7A JUMP JUMPDEST JUMPDEST POP SWAP2 SWAP1 POP JUMP JUMPDEST PUSH1 0x0 DUP2 SWAP1 POP DUP2 PUSH1 0x0 MSTORE PUSH1 0x20 PUSH1 0x0 KECCAK256 SWAP1 POP SWAP2 SWAP1 POP JUMP JUMPDEST PUSH1 0x0 PUSH1 0x20 PUSH1 0x1F DUP4 ADD DIV SWAP1 POP SWAP2 SWAP1 POP JUMP JUMPDEST PUSH1 0x0 DUP3 DUP3 SHL SWAP1 POP SWAP3 SWAP2 POP POP JUMP JUMPDEST PUSH1 0x0 PUSH1 0x8 DUP4 MUL PUSH2 0xB3C PUSH32 0xFFFFFFFFFFFFFFFFFFFFFFFFFFFFFFFFFFFFFFFFFFFFFFFFFFFFFFFFFFFFFFFF DUP3 PUSH2 0xAFF JUMP JUMPDEST PUSH2 0xB46 DUP7 DUP4 PUSH2 0xAFF JUMP JUMPDEST SWAP6 POP DUP1 NOT DUP5 AND SWAP4 POP DUP1 DUP7 AND DUP5 OR SWAP3 POP POP POP SWAP4 SWAP3 POP POP POP JUMP JUMPDEST PUSH1 0x0 DUP2 SWAP1 POP SWAP2 SWAP1 POP JUMP JUMPDEST PUSH1 0x0 PUSH2 0xB83 PUSH2 0xB7E PUSH2 0xB79 DUP5 PUSH2 0x601 JUMP JUMPDEST PUSH2 0xB5E JUMP JUMPDEST PUSH2 0x601 JUMP JUMPDEST SWAP1 POP SWAP2 SWAP1 POP JUMP JUMPDEST PUSH1 0x0 DUP2 SWAP1 POP SWAP2 SWAP1 POP JUMP JUMPDEST PUSH2 0xB9D DUP4 PUSH2 0xB68 JUMP JUMPDEST PUSH2 0xBB1 PUSH2 0xBA9 DUP3 PUSH2 0xB8A JUMP JUMPDEST DUP5 DUP5 SLOAD PUSH2 0xB0C JUMP JUMPDEST DUP3 SSTORE POP POP POP POP JUMP JUMPDEST PUSH1 0x0 SWAP1 JUMP JUMPDEST PUSH2 0xBC6 PUSH2 0xBB9 JUMP JUMPDEST PUSH2 0xBD1 DUP2 DUP5 DUP5 PUSH2 0xB94 JUMP JUMPDEST POP POP POP JUMP JUMPDEST JUMPDEST DUP2 DUP2 LT ISZERO PUSH2 0xBF5 JUMPI PUSH2 0xBEA PUSH1 0x0 DUP3 PUSH2 0xBBE JUMP JUMPDEST PUSH1 0x1 DUP2 ADD SWAP1 POP PUSH2 0xBD7 JUMP JUMPDEST POP POP JUMP JUMPDEST PUSH1 0x1F DUP3 GT ISZERO PUSH2 0xC3A JUMPI PUSH2 0xC0B DUP2 PUSH2 0xADA JUMP JUMPDEST PUSH2 0xC14 DUP5 PUSH2 0xAEF JUMP JUMPDEST DUP2 ADD PUSH1 0x20 DUP6 LT ISZERO PUSH2 0xC23 JUMPI DUP2 SWAP1 POP JUMPDEST PUSH2 0xC37 PUSH2 0xC2F DUP6 PUSH2 0xAEF JUMP JUMPDEST DUP4 ADD DUP3 PUSH2 0xBD6 JUMP JUMPDEST POP POP JUMPDEST POP POP POP JUMP JUMPDEST PUSH1 0x0 DUP3 DUP3 SHR SWAP1 POP SWAP3 SWAP2 POP POP JUMP JUMPDEST PUSH1 0x0 PUSH2 0xC5D PUSH1 0x0 NOT DUP5 PUSH1 0x8 MUL PUSH2 0xC3F JUMP JUMPDEST NOT DUP1 DUP4 AND SWAP2 POP POP SWAP3 SWAP2 POP POP JUMP JUMPDEST PUSH1 0x0 PUSH2 0xC76 DUP4 DUP4 PUSH2 0xC4C JUMP JUMPDEST SWAP2 POP DUP3 PUSH1 0x2 MUL DUP3 OR SWAP1 POP SWAP3 SWAP2 POP POP JUMP JUMPDEST PUSH2 0xC8F DUP3 PUSH2 0x86D JUMP JUMPDEST PUSH8 0xFFFFFFFFFFFFFFFF DUP2 GT ISZERO PUSH2 0xCA8 JUMPI PUSH2 0xCA7 PUSH2 0x48D JUMP JUMPDEST JUMPDEST PUSH2 0xCB2 DUP3 SLOAD PUSH2 0xAA9 JUMP JUMPDEST PUSH2 0xCBD DUP3 DUP3 DUP6 PUSH2 0xBF9 JUMP JUMPDEST PUSH1 0x0 PUSH1 0x20 SWAP1 POP PUSH1 0x1F DUP4 GT PUSH1 0x1 DUP2 EQ PUSH2 0xCF0 JUMPI PUSH1 0x0 DUP5 ISZERO PUSH2 0xCDE JUMPI DUP3 DUP8 ADD MLOAD SWAP1 POP JUMPDEST PUSH2 0xCE8 DUP6 DUP3 PUSH2 0xC6A JUMP JUMPDEST DUP7 SSTORE POP PUSH2 0xD50 JUMP JUMPDEST PUSH1 0x1F NOT DUP5 AND PUSH2 0xCFE DUP7 PUSH2 0xADA JUMP JUMPDEST PUSH1 0x0 JUMPDEST DUP3 DUP2 LT ISZERO PUSH2 0xD26 JUMPI DUP5 DUP10 ADD MLOAD DUP3 SSTORE PUSH1 0x1 DUP3 ADD SWAP2 POP PUSH1 0x20 DUP6 ADD SWAP5 POP PUSH1 0x20 DUP2 ADD SWAP1 POP PUSH2 0xD01 JUMP JUMPDEST DUP7 DUP4 LT ISZERO PUSH2 0xD43 JUMPI DUP5 DUP10 ADD MLOAD PUSH2 0xD3F PUSH1 0x1F DUP10 AND DUP3 PUSH2 0xC4C JUMP JUMPDEST DUP4 SSTORE POP JUMPDEST PUSH1 0x1 PUSH1 0x2 DUP9 MUL ADD DUP9 SSTORE POP POP POP JUMPDEST POP POP POP POP POP POP JUMP INVALID LOG2 PUSH5 0x6970667358 0x22 SLT KECCAK256 PREVRANDAO SMOD SWAP13 0x1E 0xA8 BASEFEE PUSH15 0x43AB2F59379DF24BACA66E6267DDC5 0xA6 DUP5 0x24 DUP13 BASEFEE NOT 0xE2 ADD 0xA5 BLOCKHASH PUSH5 0x736F6C6343 STOP ADDMOD SLT STOP CALLER "
				},
				"gasEstimates": {
					"creation": {
						"codeDepositCost": "694000",
						"executionCost": "728",
						"totalCost": "694728"
					},
					"external": {
						"getB(string)": "infinite",
						"getTeacher_Student(string)": "infinite",
						"setB(string,uint256)": "infinite",
						"setStudent(string,uint256,string,string[])": "infinite"
					}
				},
				"methodIdentifiers": {
					"getB(string)": "00ad33ed",
					"getTeacher_Student(string)": "c013118f",
					"setB(string,uint256)": "13465f12",
					"setStudent(string,uint256,string,string[])": "bf8ec6ae"
				}
			},
			"storageLayout": {
				"storage": [
					{
						"astId": 80,
						"contract": "contracts/0509/note.sol:Mapping",
						"label": "a",
						"offset": 0,
						"slot": "0",
						"type": "t_mapping(t_uint256,t_uint256)"
					},
					{
						"astId": 84,
						"contract": "contracts/0509/note.sol:Mapping",
						"label": "b",
						"offset": 0,
						"slot": "1",
						"type": "t_mapping(t_string_memory_ptr,t_uint256)"
					},
					{
						"astId": 123,
						"contract": "contracts/0509/note.sol:Mapping",
						"label": "Teacher_Student",
						"offset": 0,
						"slot": "2",
						"type": "t_mapping(t_string_memory_ptr,t_struct(Student)118_storage)"
					}
				],
				"types": {
					"t_array(t_string_storage)dyn_storage": {
						"base": "t_string_storage",
						"encoding": "dynamic_array",
						"label": "string[]",
						"numberOfBytes": "32"
					},
					"t_mapping(t_string_memory_ptr,t_struct(Student)118_storage)": {
						"encoding": "mapping",
						"key": "t_string_memory_ptr",
						"label": "mapping(string => struct Mapping.Student)",
						"numberOfBytes": "32",
						"value": "t_struct(Student)118_storage"
					},
					"t_mapping(t_string_memory_ptr,t_uint256)": {
						"encoding": "mapping",
						"key": "t_string_memory_ptr",
						"label": "mapping(string => uint256)",
						"numberOfBytes": "32",
						"value": "t_uint256"
					},
					"t_mapping(t_uint256,t_uint256)": {
						"encoding": "mapping",
						"key": "t_uint256",
						"label": "mapping(uint256 => uint256)",
						"numberOfBytes": "32",
						"value": "t_uint256"
					},
					"t_string_memory_ptr": {
						"encoding": "bytes",
						"label": "string",
						"numberOfBytes": "32"
					},
					"t_string_storage": {
						"encoding": "bytes",
						"label": "string",
						"numberOfBytes": "32"
					},
					"t_struct(Student)118_storage": {
						"encoding": "inplace",
						"label": "struct Mapping.Student",
						"members": [
							{
								"astId": 112,
								"contract": "contracts/0509/note.sol:Mapping",
								"label": "number",
								"offset": 0,
								"slot": "0",
								"type": "t_uint256"
							},
							{
								"astId": 114,
								"contract": "contracts/0509/note.sol:Mapping",
								"label": "name",
								"offset": 0,
								"slot": "1",
								"type": "t_string_storage"
							},
							{
								"astId": 117,
								"contract": "contracts/0509/note.sol:Mapping",
								"label": "classes",
								"offset": 0,
								"slot": "2",
								"type": "t_array(t_string_storage)dyn_storage"
							}
						],
						"numberOfBytes": "96"
					},
					"t_uint256": {
						"encoding": "inplace",
						"label": "uint256",
						"numberOfBytes": "32"
					}
				}
			},
			"userdoc": {
				"kind": "user",
				"methods": {},
				"version": 1
			}
		}
	}
}