{
	"contracts/0515/constructor.sol": {
		"CONSTRUCTOR": {
			"abi": [
				{
					"inputs": [],
					"stateMutability": "nonpayable",
					"type": "constructor"
				},
				{
					"inputs": [],
					"name": "getA",
					"outputs": [
						{
							"internalType": "uint256",
							"name": "",
							"type": "uint256"
						}
					],
					"stateMutability": "view",
					"type": "function"
				},
				{
					"inputs": [],
					"name": "getB",
					"outputs": [
						{
							"internalType": "uint256",
							"name": "",
							"type": "uint256"
						}
					],
					"stateMutability": "view",
					"type": "function"
				},
				{
					"inputs": [],
					"name": "setA",
					"outputs": [],
					"stateMutability": "nonpayable",
					"type": "function"
				}
			],
			"devdoc": {
				"kind": "dev",
				"methods": {},
				"version": 1
			},
			"evm": {
				"assembly": "    /* \"contracts/0515/constructor.sol\":71:380  contract CONSTRUCTOR{... */\n  mstore(0x40, 0x80)\n    /* \"contracts/0515/constructor.sol\":126:162  constructor() {... */\n  callvalue\n  dup1\n  iszero\n  tag_1\n  jumpi\n  0x00\n  dup1\n  revert\ntag_1:\n  pop\n    /* \"contracts/0515/constructor.sol\":153:154  4 */\n  0x04\n    /* \"contracts/0515/constructor.sol\":151:152  b */\n  0x01\n    /* \"contracts/0515/constructor.sol\":151:154  b=4 */\n  dup2\n  swap1\n  sstore\n  pop\n    /* \"contracts/0515/constructor.sol\":71:380  contract CONSTRUCTOR{... */\n  dataSize(sub_0)\n  dup1\n  dataOffset(sub_0)\n  0x00\n  codecopy\n  0x00\n  return\nstop\n\nsub_0: assembly {\n        /* \"contracts/0515/constructor.sol\":71:380  contract CONSTRUCTOR{... */\n      mstore(0x40, 0x80)\n      callvalue\n      dup1\n      iszero\n      tag_1\n      jumpi\n      0x00\n      dup1\n      revert\n    tag_1:\n      pop\n      jumpi(tag_2, lt(calldatasize, 0x04))\n      shr(0xe0, calldataload(0x00))\n      dup1\n      0x1fc376f7\n      eq\n      tag_3\n      jumpi\n      dup1\n      0xa1c51915\n      eq\n      tag_4\n      jumpi\n      dup1\n      0xd46300fd\n      eq\n      tag_5\n      jumpi\n    tag_2:\n      0x00\n      dup1\n      revert\n        /* \"contracts/0515/constructor.sol\":170:217  function setA() public {... */\n    tag_3:\n      tag_6\n      tag_7\n      jump\t// in\n    tag_6:\n      stop\n        /* \"contracts/0515/constructor.sol\":306:375  function getB() public view returns(uint) {... */\n    tag_4:\n      tag_8\n      tag_9\n      jump\t// in\n    tag_8:\n      mload(0x40)\n      tag_10\n      swap2\n      swap1\n      tag_11\n      jump\t// in\n    tag_10:\n      mload(0x40)\n      dup1\n      swap2\n      sub\n      swap1\n      return\n        /* \"contracts/0515/constructor.sol\":225:298  function getA() public view returns (uint) {... */\n    tag_5:\n      tag_12\n      tag_13\n      jump\t// in\n    tag_12:\n      mload(0x40)\n      tag_14\n      swap2\n      swap1\n      tag_11\n      jump\t// in\n    tag_14:\n      mload(0x40)\n      dup1\n      swap2\n      sub\n      swap1\n      return\n        /* \"contracts/0515/constructor.sol\":170:217  function setA() public {... */\n    tag_7:\n        /* \"contracts/0515/constructor.sol\":208:209  5 */\n      0x05\n        /* \"contracts/0515/constructor.sol\":204:205  a */\n      0x00\n        /* \"contracts/0515/constructor.sol\":204:209  a = 5 */\n      dup2\n      swap1\n      sstore\n      pop\n        /* \"contracts/0515/constructor.sol\":170:217  function setA() public {... */\n      jump\t// out\n        /* \"contracts/0515/constructor.sol\":306:375  function getB() public view returns(uint) {... */\n    tag_9:\n        /* \"contracts/0515/constructor.sol\":342:346  uint */\n      0x00\n        /* \"contracts/0515/constructor.sol\":366:367  b */\n      sload(0x01)\n        /* \"contracts/0515/constructor.sol\":359:367  return b */\n      swap1\n      pop\n        /* \"contracts/0515/constructor.sol\":306:375  function getB() public view returns(uint) {... */\n      swap1\n      jump\t// out\n        /* \"contracts/0515/constructor.sol\":225:298  function getA() public view returns (uint) {... */\n    tag_13:\n        /* \"contracts/0515/constructor.sol\":262:266  uint */\n      0x00\n        /* \"contracts/0515/constructor.sol\":286:287  a */\n      dup1\n      sload\n        /* \"contracts/0515/constructor.sol\":279:287  return a */\n      swap1\n      pop\n        /* \"contracts/0515/constructor.sol\":225:298  function getA() public view returns (uint) {... */\n      swap1\n      jump\t// out\n        /* \"#utility.yul\":7:84   */\n    tag_18:\n        /* \"#utility.yul\":44:51   */\n      0x00\n        /* \"#utility.yul\":73:78   */\n      dup2\n        /* \"#utility.yul\":62:78   */\n      swap1\n      pop\n        /* \"#utility.yul\":7:84   */\n      swap2\n      swap1\n      pop\n      jump\t// out\n        /* \"#utility.yul\":90:208   */\n    tag_19:\n        /* \"#utility.yul\":177:201   */\n      tag_23\n        /* \"#utility.yul\":195:200   */\n      dup2\n        /* \"#utility.yul\":177:201   */\n      tag_18\n      jump\t// in\n    tag_23:\n        /* \"#utility.yul\":172:175   */\n      dup3\n        /* \"#utility.yul\":165:202   */\n      mstore\n        /* \"#utility.yul\":90:208   */\n      pop\n      pop\n      jump\t// out\n        /* \"#utility.yul\":214:436   */\n    tag_11:\n        /* \"#utility.yul\":307:311   */\n      0x00\n        /* \"#utility.yul\":345:347   */\n      0x20\n        /* \"#utility.yul\":334:343   */\n      dup3\n        /* \"#utility.yul\":330:348   */\n      add\n        /* \"#utility.yul\":322:348   */\n      swap1\n      pop\n        /* \"#utility.yul\":358:429   */\n      tag_25\n        /* \"#utility.yul\":426:427   */\n      0x00\n        /* \"#utility.yul\":415:424   */\n      dup4\n        /* \"#utility.yul\":411:428   */\n      add\n        /* \"#utility.yul\":402:408   */\n      dup5\n        /* \"#utility.yul\":358:429   */\n      tag_19\n      jump\t// in\n    tag_25:\n        /* \"#utility.yul\":214:436   */\n      swap3\n      swap2\n      pop\n      pop\n      jump\t// out\n\n    auxdata: 0xa2646970667358221220f6d40a36d433647f23072b28616ef883cb839e1d25849f1109acd7d116e9d6f264736f6c63430008120033\n}\n",
				"bytecode": {
					"linkReferences": {},
					"object": "608060405234801561001057600080fd5b506004600181905550610100806100286000396000f3fe6080604052348015600f57600080fd5b5060043610603c5760003560e01c80631fc376f7146041578063a1c51915146049578063d46300fd146063575b600080fd5b6047607d565b005b604f6087565b604051605a919060b1565b60405180910390f35b60696091565b6040516074919060b1565b60405180910390f35b6005600081905550565b6000600154905090565b60008054905090565b6000819050919050565b60ab81609a565b82525050565b600060208201905060c4600083018460a4565b9291505056fea2646970667358221220f6d40a36d433647f23072b28616ef883cb839e1d25849f1109acd7d116e9d6f264736f6c63430008120033",
					"opcodes": "PUSH1 0x80 PUSH1 0x40 MSTORE CALLVALUE DUP1 ISZERO PUSH2 0x10 JUMPI PUSH1 0x0 DUP1 REVERT JUMPDEST POP PUSH1 0x4 PUSH1 0x1 DUP2 SWAP1 SSTORE POP PUSH2 0x100 DUP1 PUSH2 0x28 PUSH1 0x0 CODECOPY PUSH1 0x0 RETURN INVALID PUSH1 0x80 PUSH1 0x40 MSTORE CALLVALUE DUP1 ISZERO PUSH1 0xF JUMPI PUSH1 0x0 DUP1 REVERT JUMPDEST POP PUSH1 0x4 CALLDATASIZE LT PUSH1 0x3C JUMPI PUSH1 0x0 CALLDATALOAD PUSH1 0xE0 SHR DUP1 PUSH4 0x1FC376F7 EQ PUSH1 0x41 JUMPI DUP1 PUSH4 0xA1C51915 EQ PUSH1 0x49 JUMPI DUP1 PUSH4 0xD46300FD EQ PUSH1 0x63 JUMPI JUMPDEST PUSH1 0x0 DUP1 REVERT JUMPDEST PUSH1 0x47 PUSH1 0x7D JUMP JUMPDEST STOP JUMPDEST PUSH1 0x4F PUSH1 0x87 JUMP JUMPDEST PUSH1 0x40 MLOAD PUSH1 0x5A SWAP2 SWAP1 PUSH1 0xB1 JUMP JUMPDEST PUSH1 0x40 MLOAD DUP1 SWAP2 SUB SWAP1 RETURN JUMPDEST PUSH1 0x69 PUSH1 0x91 JUMP JUMPDEST PUSH1 0x40 MLOAD PUSH1 0x74 SWAP2 SWAP1 PUSH1 0xB1 JUMP JUMPDEST PUSH1 0x40 MLOAD DUP1 SWAP2 SUB SWAP1 RETURN JUMPDEST PUSH1 0x5 PUSH1 0x0 DUP2 SWAP1 SSTORE POP JUMP JUMPDEST PUSH1 0x0 PUSH1 0x1 SLOAD SWAP1 POP SWAP1 JUMP JUMPDEST PUSH1 0x0 DUP1 SLOAD SWAP1 POP SWAP1 JUMP JUMPDEST PUSH1 0x0 DUP2 SWAP1 POP SWAP2 SWAP1 POP JUMP JUMPDEST PUSH1 0xAB DUP2 PUSH1 0x9A JUMP JUMPDEST DUP3 MSTORE POP POP JUMP JUMPDEST PUSH1 0x0 PUSH1 0x20 DUP3 ADD SWAP1 POP PUSH1 0xC4 PUSH1 0x0 DUP4 ADD DUP5 PUSH1 0xA4 JUMP JUMPDEST SWAP3 SWAP2 POP POP JUMP INVALID LOG2 PUSH5 0x6970667358 0x22 SLT KECCAK256 0xF6 0xD4 EXP CALLDATASIZE 0xD4 CALLER PUSH5 0x7F23072B28 PUSH2 0x6EF8 DUP4 0xCB DUP4 SWAP15 SAR 0x25 DUP5 SWAP16 GT MULMOD 0xAC 0xD7 0xD1 AND 0xE9 0xD6 CALLCODE PUSH5 0x736F6C6343 STOP ADDMOD SLT STOP CALLER "
				},
				"gasEstimates": {
					"creation": {
						"codeDepositCost": "51200",
						"executionCost": "22213",
						"totalCost": "73413"
					},
					"external": {
						"getA()": "2459",
						"getB()": "2437",
						"setA()": "22236"
					}
				},
				"methodIdentifiers": {
					"getA()": "d46300fd",
					"getB()": "a1c51915",
					"setA()": "1fc376f7"
				}
			},
			"storageLayout": {
				"storage": [
					{
						"astId": 3,
						"contract": "contracts/0515/constructor.sol:CONSTRUCTOR",
						"label": "a",
						"offset": 0,
						"slot": "0",
						"type": "t_uint256"
					},
					{
						"astId": 5,
						"contract": "contracts/0515/constructor.sol:CONSTRUCTOR",
						"label": "b",
						"offset": 0,
						"slot": "1",
						"type": "t_uint256"
					}
				],
				"types": {
					"t_uint256": {
						"encoding": "inplace",
						"label": "uint256",
						"numberOfBytes": "32"
					}
				}
			},
			"userdoc": {
				"kind": "user",
				"methods": {},
				"version": 1
			}
		}
	}
}