{
	"contracts/0515/Quiz.sol": {
		"Solution": {
			"abi": [
				{
					"inputs": [
						{
							"internalType": "address payable",
							"name": "_a",
							"type": "address"
						}
					],
					"stateMutability": "nonpayable",
					"type": "constructor"
				},
				{
					"inputs": [],
					"name": "accel",
					"outputs": [],
					"stateMutability": "nonpayable",
					"type": "function"
				},
				{
					"inputs": [],
					"name": "brakeCar",
					"outputs": [],
					"stateMutability": "nonpayable",
					"type": "function"
				},
				{
					"inputs": [],
					"name": "deposit",
					"outputs": [],
					"stateMutability": "payable",
					"type": "function"
				},
				{
					"inputs": [
						{
							"internalType": "uint256",
							"name": "_a",
							"type": "uint256"
						}
					],
					"name": "depositToGS",
					"outputs": [],
					"stateMutability": "nonpayable",
					"type": "function"
				},
				{
					"inputs": [],
					"name": "getPrePaid",
					"outputs": [
						{
							"internalType": "uint256",
							"name": "",
							"type": "uint256"
						}
					],
					"stateMutability": "nonpayable",
					"type": "function"
				},
				{
					"inputs": [],
					"name": "gs",
					"outputs": [
						{
							"internalType": "contract GASSTATION",
							"name": "",
							"type": "address"
						}
					],
					"stateMutability": "view",
					"type": "function"
				},
				{
					"inputs": [],
					"name": "myCar",
					"outputs": [
						{
							"internalType": "enum Solution.carStatus",
							"name": "status",
							"type": "uint8"
						},
						{
							"internalType": "uint256",
							"name": "fuelGauge",
							"type": "uint256"
						},
						{
							"internalType": "uint256",
							"name": "speed",
							"type": "uint256"
						}
					],
					"stateMutability": "view",
					"type": "function"
				},
				{
					"inputs": [],
					"name": "reCharge",
					"outputs": [],
					"stateMutability": "payable",
					"type": "function"
				},
				{
					"inputs": [],
					"name": "turnOff",
					"outputs": [],
					"stateMutability": "nonpayable",
					"type": "function"
				},
				{
					"inputs": [],
					"name": "turnOn",
					"outputs": [],
					"stateMutability": "nonpayable",
					"type": "function"
				}
			],
			"devdoc": {
				"kind": "dev",
				"methods": {},
				"version": 1
			},
			"evm": {
				"assembly": "    /* \"contracts/0515/Quiz.sol\":2835:6491  contract Solution {... */\n  mstore(0x40, 0x80)\n    /* \"contracts/0515/Quiz.sol\":5141:5221  constructor(address payable  _a) {... */\n  callvalue\n  dup1\n  iszero\n  tag_1\n  jumpi\n  0x00\n  dup1\n  revert\ntag_1:\n  pop\n  mload(0x40)\n  sub(codesize, bytecodeSize)\n  dup1\n  bytecodeSize\n  dup4\n  codecopy\n  dup2\n  dup2\n  add\n  0x40\n  mstore\n  dup2\n  add\n  swap1\n  tag_2\n  swap2\n  swap1\n  tag_3\n  jump\t// in\ntag_2:\n    /* \"contracts/0515/Quiz.sol\":5206:5208  _a */\n  dup1\n    /* \"contracts/0515/Quiz.sol\":5190:5192  gs */\n  0x03\n  0x00\n    /* \"contracts/0515/Quiz.sol\":5190:5209  gs = GASSTATION(_a) */\n  0x0100\n  exp\n  dup2\n  sload\n  dup2\n  0xffffffffffffffffffffffffffffffffffffffff\n  mul\n  not\n  and\n  swap1\n  dup4\n  0xffffffffffffffffffffffffffffffffffffffff\n  and\n  mul\n  or\n  swap1\n  sstore\n  pop\n    /* \"contracts/0515/Quiz.sol\":5141:5221  constructor(address payable  _a) {... */\n  pop\n    /* \"contracts/0515/Quiz.sol\":2835:6491  contract Solution {... */\n  jump(tag_6)\n    /* \"#utility.yul\":88:205   */\ntag_8:\n    /* \"#utility.yul\":197:198   */\n  0x00\n    /* \"#utility.yul\":194:195   */\n  dup1\n    /* \"#utility.yul\":187:199   */\n  revert\n    /* \"#utility.yul\":334:460   */\ntag_10:\n    /* \"#utility.yul\":371:378   */\n  0x00\n    /* \"#utility.yul\":411:453   */\n  0xffffffffffffffffffffffffffffffffffffffff\n    /* \"#utility.yul\":404:409   */\n  dup3\n    /* \"#utility.yul\":400:454   */\n  and\n    /* \"#utility.yul\":389:454   */\n  swap1\n  pop\n    /* \"#utility.yul\":334:460   */\n  swap2\n  swap1\n  pop\n  jump\t// out\n    /* \"#utility.yul\":466:570   */\ntag_11:\n    /* \"#utility.yul\":511:518   */\n  0x00\n    /* \"#utility.yul\":540:564   */\n  tag_20\n    /* \"#utility.yul\":558:563   */\n  dup3\n    /* \"#utility.yul\":540:564   */\n  tag_10\n  jump\t// in\ntag_20:\n    /* \"#utility.yul\":529:564   */\n  swap1\n  pop\n    /* \"#utility.yul\":466:570   */\n  swap2\n  swap1\n  pop\n  jump\t// out\n    /* \"#utility.yul\":576:714   */\ntag_12:\n    /* \"#utility.yul\":657:689   */\n  tag_22\n    /* \"#utility.yul\":683:688   */\n  dup2\n    /* \"#utility.yul\":657:689   */\n  tag_11\n  jump\t// in\ntag_22:\n    /* \"#utility.yul\":650:655   */\n  dup2\n    /* \"#utility.yul\":647:690   */\n  eq\n    /* \"#utility.yul\":637:708   */\n  tag_23\n  jumpi\n    /* \"#utility.yul\":704:705   */\n  0x00\n    /* \"#utility.yul\":701:702   */\n  dup1\n    /* \"#utility.yul\":694:706   */\n  revert\n    /* \"#utility.yul\":637:708   */\ntag_23:\n    /* \"#utility.yul\":576:714   */\n  pop\n  jump\t// out\n    /* \"#utility.yul\":720:879   */\ntag_13:\n    /* \"#utility.yul\":785:790   */\n  0x00\n    /* \"#utility.yul\":816:822   */\n  dup2\n    /* \"#utility.yul\":810:823   */\n  mload\n    /* \"#utility.yul\":801:823   */\n  swap1\n  pop\n    /* \"#utility.yul\":832:873   */\n  tag_25\n    /* \"#utility.yul\":867:872   */\n  dup2\n    /* \"#utility.yul\":832:873   */\n  tag_12\n  jump\t// in\ntag_25:\n    /* \"#utility.yul\":720:879   */\n  swap3\n  swap2\n  pop\n  pop\n  jump\t// out\n    /* \"#utility.yul\":885:1252   */\ntag_3:\n    /* \"#utility.yul\":963:969   */\n  0x00\n    /* \"#utility.yul\":1012:1014   */\n  0x20\n    /* \"#utility.yul\":1000:1009   */\n  dup3\n    /* \"#utility.yul\":991:998   */\n  dup5\n    /* \"#utility.yul\":987:1010   */\n  sub\n    /* \"#utility.yul\":983:1015   */\n  slt\n    /* \"#utility.yul\":980:1099   */\n  iszero\n  tag_27\n  jumpi\n    /* \"#utility.yul\":1018:1097   */\n  tag_28\n  tag_8\n  jump\t// in\ntag_28:\n    /* \"#utility.yul\":980:1099   */\ntag_27:\n    /* \"#utility.yul\":1138:1139   */\n  0x00\n    /* \"#utility.yul\":1163:1235   */\n  tag_29\n    /* \"#utility.yul\":1227:1234   */\n  dup5\n    /* \"#utility.yul\":1218:1224   */\n  dup3\n    /* \"#utility.yul\":1207:1216   */\n  dup6\n    /* \"#utility.yul\":1203:1225   */\n  add\n    /* \"#utility.yul\":1163:1235   */\n  tag_13\n  jump\t// in\ntag_29:\n    /* \"#utility.yul\":1153:1235   */\n  swap2\n  pop\n    /* \"#utility.yul\":1109:1245   */\n  pop\n    /* \"#utility.yul\":885:1252   */\n  swap3\n  swap2\n  pop\n  pop\n  jump\t// out\n    /* \"contracts/0515/Quiz.sol\":2835:6491  contract Solution {... */\ntag_6:\n  dataSize(sub_0)\n  dup1\n  dataOffset(sub_0)\n  0x00\n  codecopy\n  0x00\n  return\nstop\n\nsub_0: assembly {\n        /* \"contracts/0515/Quiz.sol\":2835:6491  contract Solution {... */\n      mstore(0x40, 0x80)\n      jumpi(tag_1, lt(calldatasize, 0x04))\n      shr(0xe0, calldataload(0x00))\n      dup1\n      0xaf10c810\n      gt\n      tag_12\n      jumpi\n      dup1\n      0xaf10c810\n      eq\n      tag_7\n      jumpi\n      dup1\n      0xba33ed7d\n      eq\n      tag_8\n      jumpi\n      dup1\n      0xd0e30db0\n      eq\n      tag_9\n      jumpi\n      dup1\n      0xe35575d2\n      eq\n      tag_10\n      jumpi\n      dup1\n      0xf282df78\n      eq\n      tag_11\n      jumpi\n      jump(tag_1)\n    tag_12:\n      dup1\n      0xe71aaf\n      eq\n      tag_2\n      jumpi\n      dup1\n      0x075c478a\n      eq\n      tag_3\n      jumpi\n      dup1\n      0x3446136a\n      eq\n      tag_4\n      jumpi\n      dup1\n      0x37de45f8\n      eq\n      tag_5\n      jumpi\n      dup1\n      0x9cdde813\n      eq\n      tag_6\n      jumpi\n    tag_1:\n      0x00\n      dup1\n      revert\n        /* \"contracts/0515/Quiz.sol\":5108:5128  GASSTATION public gs */\n    tag_2:\n      callvalue\n      dup1\n      iszero\n      tag_13\n      jumpi\n      0x00\n      dup1\n      revert\n    tag_13:\n      pop\n      tag_14\n      tag_15\n      jump\t// in\n    tag_14:\n      mload(0x40)\n      tag_16\n      swap2\n      swap1\n      tag_17\n      jump\t// in\n    tag_16:\n      mload(0x40)\n      dup1\n      swap2\n      sub\n      swap1\n      return\n        /* \"contracts/0515/Quiz.sol\":6333:6488  function depositToGS(uint _a) public {... */\n    tag_3:\n      callvalue\n      dup1\n      iszero\n      tag_18\n      jumpi\n      0x00\n      dup1\n      revert\n    tag_18:\n      pop\n      tag_19\n      0x04\n      dup1\n      calldatasize\n      sub\n      dup2\n      add\n      swap1\n      tag_20\n      swap2\n      swap1\n      tag_21\n      jump\t// in\n    tag_20:\n      tag_22\n      jump\t// in\n    tag_19:\n      stop\n        /* \"contracts/0515/Quiz.sol\":5495:5832  function reCharge() public payable {... */\n    tag_4:\n      tag_23\n      tag_24\n      jump\t// in\n    tag_23:\n      stop\n        /* \"contracts/0515/Quiz.sol\":5233:5375  function getPrePaid() public returns(uint){... */\n    tag_5:\n      callvalue\n      dup1\n      iszero\n      tag_25\n      jumpi\n      0x00\n      dup1\n      revert\n    tag_25:\n      pop\n      tag_26\n      tag_27\n      jump\t// in\n    tag_26:\n      mload(0x40)\n      tag_28\n      swap2\n      swap1\n      tag_29\n      jump\t// in\n    tag_28:\n      mload(0x40)\n      dup1\n      swap2\n      sub\n      swap1\n      return\n        /* \"contracts/0515/Quiz.sol\":3302:3318  car public myCar */\n    tag_6:\n      callvalue\n      dup1\n      iszero\n      tag_30\n      jumpi\n      0x00\n      dup1\n      revert\n    tag_30:\n      pop\n      tag_31\n      tag_32\n      jump\t// in\n    tag_31:\n      mload(0x40)\n      tag_33\n      swap4\n      swap3\n      swap2\n      swap1\n      tag_34\n      jump\t// in\n    tag_33:\n      mload(0x40)\n      dup1\n      swap2\n      sub\n      swap1\n      return\n        /* \"contracts/0515/Quiz.sol\":4648:4802  function turnOff() public {... */\n    tag_7:\n      callvalue\n      dup1\n      iszero\n      tag_35\n      jumpi\n      0x00\n      dup1\n      revert\n    tag_35:\n      pop\n      tag_36\n      tag_37\n      jump\t// in\n    tag_36:\n      stop\n        /* \"contracts/0515/Quiz.sol\":4910:5063  function turnOn() public {... */\n    tag_8:\n      callvalue\n      dup1\n      iszero\n      tag_38\n      jumpi\n      0x00\n      dup1\n      revert\n    tag_38:\n      pop\n      tag_39\n      tag_40\n      jump\t// in\n    tag_39:\n      stop\n        /* \"contracts/0515/Quiz.sol\":6277:6327  function deposit() public  payable {       ... */\n    tag_9:\n      tag_41\n      tag_42\n      jump\t// in\n    tag_41:\n      stop\n        /* \"contracts/0515/Quiz.sol\":4153:4531  function brakeCar() public {... */\n    tag_10:\n      callvalue\n      dup1\n      iszero\n      tag_43\n      jumpi\n      0x00\n      dup1\n      revert\n    tag_43:\n      pop\n      tag_44\n      tag_45\n      jump\t// in\n    tag_44:\n      stop\n        /* \"contracts/0515/Quiz.sol\":3651:3942  function accel() public {... */\n    tag_11:\n      callvalue\n      dup1\n      iszero\n      tag_46\n      jumpi\n      0x00\n      dup1\n      revert\n    tag_46:\n      pop\n      tag_47\n      tag_48\n      jump\t// in\n    tag_47:\n      stop\n        /* \"contracts/0515/Quiz.sol\":5108:5128  GASSTATION public gs */\n    tag_15:\n      0x03\n      0x00\n      swap1\n      sload\n      swap1\n      0x0100\n      exp\n      swap1\n      div\n      0xffffffffffffffffffffffffffffffffffffffff\n      and\n      dup2\n      jump\t// out\n        /* \"contracts/0515/Quiz.sol\":6333:6488  function depositToGS(uint _a) public {... */\n    tag_22:\n        /* \"contracts/0515/Quiz.sol\":6390:6397  10 **18 */\n      0x0de0b6b3a7640000\n        /* \"contracts/0515/Quiz.sol\":6386:6388  _a */\n      dup2\n        /* \"contracts/0515/Quiz.sol\":6386:6397  _a *10 **18 */\n      tag_50\n      swap2\n      swap1\n      tag_51\n      jump\t// in\n    tag_50:\n        /* \"contracts/0515/Quiz.sol\":6381:6397  _a = _a *10 **18 */\n      swap1\n      pop\n        /* \"contracts/0515/Quiz.sol\":6416:6418  gs */\n      0x03\n      0x00\n      swap1\n      sload\n      swap1\n      0x0100\n      exp\n      swap1\n      div\n      0xffffffffffffffffffffffffffffffffffffffff\n      and\n        /* \"contracts/0515/Quiz.sol\":6408:6428  payable(gs).transfer */\n      0xffffffffffffffffffffffffffffffffffffffff\n      and\n        /* \"contracts/0515/Quiz.sol\":6408:6432  payable(gs).transfer(_a) */\n      0x08fc\n        /* \"contracts/0515/Quiz.sol\":6429:6431  _a */\n      dup3\n        /* \"contracts/0515/Quiz.sol\":6408:6432  payable(gs).transfer(_a) */\n      swap1\n      dup2\n      iszero\n      mul\n      swap1\n      mload(0x40)\n      0x00\n      mload(0x40)\n      dup1\n      dup4\n      sub\n      dup2\n      dup6\n      dup9\n      dup9\n      call\n      swap4\n      pop\n      pop\n      pop\n      pop\n      iszero\n      dup1\n      iszero\n      tag_53\n      jumpi\n      returndatasize\n      0x00\n      dup1\n      returndatacopy\n      revert(0x00, returndatasize)\n    tag_53:\n      pop\n        /* \"contracts/0515/Quiz.sol\":6443:6445  gs */\n      0x03\n      0x00\n      swap1\n      sload\n      swap1\n      0x0100\n      exp\n      swap1\n      div\n      0xffffffffffffffffffffffffffffffffffffffff\n      and\n        /* \"contracts/0515/Quiz.sol\":6443:6462  gs.renewprePaidList */\n      0xffffffffffffffffffffffffffffffffffffffff\n      and\n      0x0500255f\n        /* \"contracts/0515/Quiz.sol\":6471:6475  this */\n      address\n        /* \"contracts/0515/Quiz.sol\":6477:6479  _a */\n      dup4\n        /* \"contracts/0515/Quiz.sol\":6443:6480  gs.renewprePaidList(address(this),_a) */\n      mload(0x40)\n      dup4\n      0xffffffff\n      and\n      0xe0\n      shl\n      dup2\n      mstore\n      0x04\n      add\n      tag_54\n      swap3\n      swap2\n      swap1\n      tag_55\n      jump\t// in\n    tag_54:\n      0x00\n      mload(0x40)\n      dup1\n      dup4\n      sub\n      dup2\n      0x00\n      dup8\n      dup1\n      extcodesize\n      iszero\n      dup1\n      iszero\n      tag_56\n      jumpi\n      0x00\n      dup1\n      revert\n    tag_56:\n      pop\n      gas\n      call\n      iszero\n      dup1\n      iszero\n      tag_58\n      jumpi\n      returndatasize\n      0x00\n      dup1\n      returndatacopy\n      revert(0x00, returndatasize)\n    tag_58:\n      pop\n      pop\n      pop\n      pop\n        /* \"contracts/0515/Quiz.sol\":6333:6488  function depositToGS(uint _a) public {... */\n      pop\n      jump\t// out\n        /* \"contracts/0515/Quiz.sol\":5495:5832  function reCharge() public payable {... */\n    tag_24:\n        /* \"contracts/0515/Quiz.sol\":5541:5553  uint prePaid */\n      0x00\n        /* \"contracts/0515/Quiz.sol\":5556:5568  getPrePaid() */\n      tag_60\n        /* \"contracts/0515/Quiz.sol\":5556:5566  getPrePaid */\n      tag_27\n        /* \"contracts/0515/Quiz.sol\":5556:5568  getPrePaid() */\n      jump\t// in\n    tag_60:\n        /* \"contracts/0515/Quiz.sol\":5541:5568  uint prePaid = getPrePaid() */\n      swap1\n      pop\n        /* \"contracts/0515/Quiz.sol\":5600:5606  10**18 */\n      0x0de0b6b3a7640000\n        /* \"contracts/0515/Quiz.sol\":5589:5596  prePaid */\n      dup2\n        /* \"contracts/0515/Quiz.sol\":5589:5606  prePaid >= 10**18 */\n      lt\n      iszero\n        /* \"contracts/0515/Quiz.sol\":5589:5623  prePaid >= 10**18 && msg.value ==0 */\n      dup1\n      iszero\n      tag_61\n      jumpi\n      pop\n        /* \"contracts/0515/Quiz.sol\":5622:5623  0 */\n      0x00\n        /* \"contracts/0515/Quiz.sol\":5610:5619  msg.value */\n      callvalue\n        /* \"contracts/0515/Quiz.sol\":5610:5623  msg.value ==0 */\n      eq\n        /* \"contracts/0515/Quiz.sol\":5589:5623  prePaid >= 10**18 && msg.value ==0 */\n    tag_61:\n        /* \"contracts/0515/Quiz.sol\":5588:5648  (prePaid >= 10**18 && msg.value ==0 )||  msg.value == 10**18 */\n      dup1\n      tag_62\n      jumpi\n      pop\n        /* \"contracts/0515/Quiz.sol\":5642:5648  10**18 */\n      0x0de0b6b3a7640000\n        /* \"contracts/0515/Quiz.sol\":5629:5638  msg.value */\n      callvalue\n        /* \"contracts/0515/Quiz.sol\":5629:5648  msg.value == 10**18 */\n      eq\n        /* \"contracts/0515/Quiz.sol\":5588:5648  (prePaid >= 10**18 && msg.value ==0 )||  msg.value == 10**18 */\n    tag_62:\n        /* \"contracts/0515/Quiz.sol\":5587:5687  ((prePaid >= 10**18 && msg.value ==0 )||  msg.value == 10**18) && myCar.status == carStatus.PowerOff */\n      dup1\n      iszero\n      tag_63\n      jumpi\n      pop\n        /* \"contracts/0515/Quiz.sol\":5669:5687  carStatus.PowerOff */\n      0x02\n        /* \"contracts/0515/Quiz.sol\":5653:5687  myCar.status == carStatus.PowerOff */\n      0x03\n      dup2\n      gt\n      iszero\n      tag_64\n      jumpi\n      tag_65\n      tag_66\n      jump\t// in\n    tag_65:\n    tag_64:\n        /* \"contracts/0515/Quiz.sol\":5653:5658  myCar */\n      0x00\n        /* \"contracts/0515/Quiz.sol\":5653:5665  myCar.status */\n      dup1\n      add\n      0x00\n      swap1\n      sload\n      swap1\n      0x0100\n      exp\n      swap1\n      div\n      0xff\n      and\n        /* \"contracts/0515/Quiz.sol\":5653:5687  myCar.status == carStatus.PowerOff */\n      0x03\n      dup2\n      gt\n      iszero\n      tag_67\n      jumpi\n      tag_68\n      tag_66\n      jump\t// in\n    tag_68:\n    tag_67:\n      eq\n        /* \"contracts/0515/Quiz.sol\":5587:5687  ((prePaid >= 10**18 && msg.value ==0 )||  msg.value == 10**18) && myCar.status == carStatus.PowerOff */\n    tag_63:\n        /* \"contracts/0515/Quiz.sol\":5579:5689  require(((prePaid >= 10**18 && msg.value ==0 )||  msg.value == 10**18) && myCar.status == carStatus.PowerOff ) */\n      tag_69\n      jumpi\n      0x00\n      dup1\n      revert\n    tag_69:\n        /* \"contracts/0515/Quiz.sol\":5720:5726  10**18 */\n      0x0de0b6b3a7640000\n        /* \"contracts/0515/Quiz.sol\":5707:5716  msg.value */\n      callvalue\n        /* \"contracts/0515/Quiz.sol\":5707:5726  msg.value != 10**18 */\n      eq\n        /* \"contracts/0515/Quiz.sol\":5704:5791  if(msg.value != 10**18){... */\n      tag_70\n      jumpi\n        /* \"contracts/0515/Quiz.sol\":5742:5744  gs */\n      0x03\n      0x00\n      swap1\n      sload\n      swap1\n      0x0100\n      exp\n      swap1\n      div\n      0xffffffffffffffffffffffffffffffffffffffff\n      and\n        /* \"contracts/0515/Quiz.sol\":5742:5757  gs.reChargeFuel */\n      0xffffffffffffffffffffffffffffffffffffffff\n      and\n      0xf701034e\n        /* \"contracts/0515/Quiz.sol\":5766:5770  this */\n      address\n        /* \"contracts/0515/Quiz.sol\":5772:5778  10**18 */\n      0x0de0b6b3a7640000\n        /* \"contracts/0515/Quiz.sol\":5742:5779  gs.reChargeFuel(address(this),10**18) */\n      mload(0x40)\n      dup4\n      0xffffffff\n      and\n      0xe0\n      shl\n      dup2\n      mstore\n      0x04\n      add\n      tag_71\n      swap3\n      swap2\n      swap1\n      tag_72\n      jump\t// in\n    tag_71:\n      0x00\n      mload(0x40)\n      dup1\n      dup4\n      sub\n      dup2\n      0x00\n      dup8\n      dup1\n      extcodesize\n      iszero\n      dup1\n      iszero\n      tag_73\n      jumpi\n      0x00\n      dup1\n      revert\n    tag_73:\n      pop\n      gas\n      call\n      iszero\n      dup1\n      iszero\n      tag_75\n      jumpi\n      returndatasize\n      0x00\n      dup1\n      returndatacopy\n      revert(0x00, returndatasize)\n    tag_75:\n      pop\n      pop\n      pop\n      pop\n        /* \"contracts/0515/Quiz.sol\":5704:5791  if(msg.value != 10**18){... */\n    tag_70:\n        /* \"contracts/0515/Quiz.sol\":5821:5824  100 */\n      0x64\n        /* \"contracts/0515/Quiz.sol\":5803:5808  myCar */\n      0x00\n        /* \"contracts/0515/Quiz.sol\":5803:5818  myCar.fuelGauge */\n      0x01\n      add\n        /* \"contracts/0515/Quiz.sol\":5803:5824  myCar.fuelGauge = 100 */\n      dup2\n      swap1\n      sstore\n      pop\n        /* \"contracts/0515/Quiz.sol\":5530:5832  {... */\n      pop\n        /* \"contracts/0515/Quiz.sol\":5495:5832  function reCharge() public payable {... */\n      jump\t// out\n        /* \"contracts/0515/Quiz.sol\":5233:5375  function getPrePaid() public returns(uint){... */\n    tag_27:\n        /* \"contracts/0515/Quiz.sol\":5270:5274  uint */\n      0x00\n        /* \"contracts/0515/Quiz.sol\":5290:5302  uint prePaid */\n      dup1\n        /* \"contracts/0515/Quiz.sol\":5305:5307  gs */\n      0x03\n      0x00\n      swap1\n      sload\n      swap1\n      0x0100\n      exp\n      swap1\n      div\n      0xffffffffffffffffffffffffffffffffffffffff\n      and\n        /* \"contracts/0515/Quiz.sol\":5305:5319  gs.prePaidList */\n      0xffffffffffffffffffffffffffffffffffffffff\n      and\n      0x4639a55a\n        /* \"contracts/0515/Quiz.sol\":5328:5332  this */\n      address\n        /* \"contracts/0515/Quiz.sol\":5305:5334  gs.prePaidList(address(this)) */\n      mload(0x40)\n      dup3\n      0xffffffff\n      and\n      0xe0\n      shl\n      dup2\n      mstore\n      0x04\n      add\n      tag_77\n      swap2\n      swap1\n      tag_78\n      jump\t// in\n    tag_77:\n      0x20\n      mload(0x40)\n      dup1\n      dup4\n      sub\n      dup2\n      dup7\n      gas\n      staticcall\n      iszero\n      dup1\n      iszero\n      tag_80\n      jumpi\n      returndatasize\n      0x00\n      dup1\n      returndatacopy\n      revert(0x00, returndatasize)\n    tag_80:\n      pop\n      pop\n      pop\n      pop\n      mload(0x40)\n      returndatasize\n      not(0x1f)\n      0x1f\n      dup3\n      add\n      and\n      dup3\n      add\n      dup1\n      0x40\n      mstore\n      pop\n      dup2\n      add\n      swap1\n      tag_81\n      swap2\n      swap1\n      tag_82\n      jump\t// in\n    tag_81:\n        /* \"contracts/0515/Quiz.sol\":5290:5334  uint prePaid = gs.prePaidList(address(this)) */\n      swap1\n      pop\n        /* \"contracts/0515/Quiz.sol\":5356:5363  prePaid */\n      dup1\n        /* \"contracts/0515/Quiz.sol\":5349:5363  return prePaid */\n      swap2\n      pop\n      pop\n        /* \"contracts/0515/Quiz.sol\":5233:5375  function getPrePaid() public returns(uint){... */\n      swap1\n      jump\t// out\n        /* \"contracts/0515/Quiz.sol\":3302:3318  car public myCar */\n    tag_32:\n      0x00\n      dup1\n      0x00\n      add\n      0x00\n      swap1\n      sload\n      swap1\n      0x0100\n      exp\n      swap1\n      div\n      0xff\n      and\n      swap1\n      dup1\n      0x01\n      add\n      sload\n      swap1\n      dup1\n      0x02\n      add\n      sload\n      swap1\n      pop\n      dup4\n      jump\t// out\n        /* \"contracts/0515/Quiz.sol\":4648:4802  function turnOff() public {... */\n    tag_37:\n        /* \"contracts/0515/Quiz.sol\":4708:4709  0 */\n      0x00\n        /* \"contracts/0515/Quiz.sol\":4693:4698  myCar */\n      dup1\n        /* \"contracts/0515/Quiz.sol\":4693:4704  myCar.speed */\n      0x02\n      add\n      sload\n        /* \"contracts/0515/Quiz.sol\":4693:4709  myCar.speed == 0 */\n      eq\n        /* \"contracts/0515/Quiz.sol\":4693:4747  myCar.speed == 0 && myCar.status != carStatus.PowerOff */\n      dup1\n      iszero\n      tag_84\n      jumpi\n      pop\n        /* \"contracts/0515/Quiz.sol\":4729:4747  carStatus.PowerOff */\n      0x02\n        /* \"contracts/0515/Quiz.sol\":4713:4747  myCar.status != carStatus.PowerOff */\n      0x03\n      dup2\n      gt\n      iszero\n      tag_85\n      jumpi\n      tag_86\n      tag_66\n      jump\t// in\n    tag_86:\n    tag_85:\n        /* \"contracts/0515/Quiz.sol\":4713:4718  myCar */\n      0x00\n        /* \"contracts/0515/Quiz.sol\":4713:4725  myCar.status */\n      dup1\n      add\n      0x00\n      swap1\n      sload\n      swap1\n      0x0100\n      exp\n      swap1\n      div\n      0xff\n      and\n        /* \"contracts/0515/Quiz.sol\":4713:4747  myCar.status != carStatus.PowerOff */\n      0x03\n      dup2\n      gt\n      iszero\n      tag_87\n      jumpi\n      tag_88\n      tag_66\n      jump\t// in\n    tag_88:\n    tag_87:\n      eq\n      iszero\n        /* \"contracts/0515/Quiz.sol\":4693:4747  myCar.speed == 0 && myCar.status != carStatus.PowerOff */\n    tag_84:\n        /* \"contracts/0515/Quiz.sol\":4685:4748  require(myCar.speed == 0 && myCar.status != carStatus.PowerOff) */\n      tag_89\n      jumpi\n      0x00\n      dup1\n      revert\n    tag_89:\n        /* \"contracts/0515/Quiz.sol\":4774:4792  carStatus.PowerOff */\n      0x02\n        /* \"contracts/0515/Quiz.sol\":4759:4764  myCar */\n      0x00\n        /* \"contracts/0515/Quiz.sol\":4759:4771  myCar.status */\n      dup1\n      add\n      0x00\n        /* \"contracts/0515/Quiz.sol\":4759:4792  myCar.status = carStatus.PowerOff */\n      0x0100\n      exp\n      dup2\n      sload\n      dup2\n      0xff\n      mul\n      not\n      and\n      swap1\n      dup4\n      0x03\n      dup2\n      gt\n      iszero\n      tag_90\n      jumpi\n      tag_91\n      tag_66\n      jump\t// in\n    tag_91:\n    tag_90:\n      mul\n      or\n      swap1\n      sstore\n      pop\n        /* \"contracts/0515/Quiz.sol\":4648:4802  function turnOff() public {... */\n      jump\t// out\n        /* \"contracts/0515/Quiz.sol\":4910:5063  function turnOn() public {... */\n    tag_40:\n        /* \"contracts/0515/Quiz.sol\":4973:4974  0 */\n      0x00\n        /* \"contracts/0515/Quiz.sol\":4954:4959  myCar */\n      dup1\n        /* \"contracts/0515/Quiz.sol\":4954:4969  myCar.fuelGauge */\n      0x01\n      add\n      sload\n        /* \"contracts/0515/Quiz.sol\":4954:4974  myCar.fuelGauge != 0 */\n      eq\n      iszero\n        /* \"contracts/0515/Quiz.sol\":4954:5012  myCar.fuelGauge != 0 && myCar.status == carStatus.PowerOff */\n      dup1\n      iszero\n      tag_93\n      jumpi\n      pop\n        /* \"contracts/0515/Quiz.sol\":4994:5012  carStatus.PowerOff */\n      0x02\n        /* \"contracts/0515/Quiz.sol\":4978:5012  myCar.status == carStatus.PowerOff */\n      0x03\n      dup2\n      gt\n      iszero\n      tag_94\n      jumpi\n      tag_95\n      tag_66\n      jump\t// in\n    tag_95:\n    tag_94:\n        /* \"contracts/0515/Quiz.sol\":4978:4983  myCar */\n      0x00\n        /* \"contracts/0515/Quiz.sol\":4978:4990  myCar.status */\n      dup1\n      add\n      0x00\n      swap1\n      sload\n      swap1\n      0x0100\n      exp\n      swap1\n      div\n      0xff\n      and\n        /* \"contracts/0515/Quiz.sol\":4978:5012  myCar.status == carStatus.PowerOff */\n      0x03\n      dup2\n      gt\n      iszero\n      tag_96\n      jumpi\n      tag_97\n      tag_66\n      jump\t// in\n    tag_97:\n    tag_96:\n      eq\n        /* \"contracts/0515/Quiz.sol\":4954:5012  myCar.fuelGauge != 0 && myCar.status == carStatus.PowerOff */\n    tag_93:\n        /* \"contracts/0515/Quiz.sol\":4946:5013  require(myCar.fuelGauge != 0 && myCar.status == carStatus.PowerOff) */\n      tag_98\n      jumpi\n      0x00\n      dup1\n      revert\n    tag_98:\n        /* \"contracts/0515/Quiz.sol\":5039:5053  carStatus.Stop */\n      0x00\n        /* \"contracts/0515/Quiz.sol\":5024:5029  myCar */\n      dup1\n        /* \"contracts/0515/Quiz.sol\":5024:5036  myCar.status */\n      0x00\n      add\n      0x00\n        /* \"contracts/0515/Quiz.sol\":5024:5053  myCar.status = carStatus.Stop */\n      0x0100\n      exp\n      dup2\n      sload\n      dup2\n      0xff\n      mul\n      not\n      and\n      swap1\n      dup4\n      0x03\n      dup2\n      gt\n      iszero\n      tag_99\n      jumpi\n      tag_100\n      tag_66\n      jump\t// in\n    tag_100:\n    tag_99:\n      mul\n      or\n      swap1\n      sstore\n      pop\n        /* \"contracts/0515/Quiz.sol\":4910:5063  function turnOn() public {... */\n      jump\t// out\n        /* \"contracts/0515/Quiz.sol\":6277:6327  function deposit() public  payable {       ... */\n    tag_42:\n      jump\t// out\n        /* \"contracts/0515/Quiz.sol\":4153:4531  function brakeCar() public {... */\n    tag_45:\n        /* \"contracts/0515/Quiz.sol\":4239:4257  carStatus.PowerOff */\n      0x02\n        /* \"contracts/0515/Quiz.sol\":4223:4257  myCar.status != carStatus.PowerOff */\n      0x03\n      dup2\n      gt\n      iszero\n      tag_103\n      jumpi\n      tag_104\n      tag_66\n      jump\t// in\n    tag_104:\n    tag_103:\n        /* \"contracts/0515/Quiz.sol\":4223:4228  myCar */\n      0x00\n        /* \"contracts/0515/Quiz.sol\":4223:4235  myCar.status */\n      dup1\n      add\n      0x00\n      swap1\n      sload\n      swap1\n      0x0100\n      exp\n      swap1\n      div\n      0xff\n      and\n        /* \"contracts/0515/Quiz.sol\":4223:4257  myCar.status != carStatus.PowerOff */\n      0x03\n      dup2\n      gt\n      iszero\n      tag_105\n      jumpi\n      tag_106\n      tag_66\n      jump\t// in\n    tag_106:\n    tag_105:\n      eq\n      iszero\n        /* \"contracts/0515/Quiz.sol\":4223:4291  myCar.status != carStatus.PowerOff && myCar.status != carStatus.Stop */\n      dup1\n      iszero\n      tag_107\n      jumpi\n      pop\n        /* \"contracts/0515/Quiz.sol\":4277:4291  carStatus.Stop */\n      0x00\n        /* \"contracts/0515/Quiz.sol\":4261:4291  myCar.status != carStatus.Stop */\n      0x03\n      dup2\n      gt\n      iszero\n      tag_108\n      jumpi\n      tag_109\n      tag_66\n      jump\t// in\n    tag_109:\n    tag_108:\n        /* \"contracts/0515/Quiz.sol\":4261:4266  myCar */\n      0x00\n        /* \"contracts/0515/Quiz.sol\":4261:4273  myCar.status */\n      dup1\n      add\n      0x00\n      swap1\n      sload\n      swap1\n      0x0100\n      exp\n      swap1\n      div\n      0xff\n      and\n        /* \"contracts/0515/Quiz.sol\":4261:4291  myCar.status != carStatus.Stop */\n      0x03\n      dup2\n      gt\n      iszero\n      tag_110\n      jumpi\n      tag_111\n      tag_66\n      jump\t// in\n    tag_111:\n    tag_110:\n      eq\n      iszero\n        /* \"contracts/0515/Quiz.sol\":4223:4291  myCar.status != carStatus.PowerOff && myCar.status != carStatus.Stop */\n    tag_107:\n        /* \"contracts/0515/Quiz.sol\":4191:4292  require(/*myCar.speed != 0 &&*/ myCar.status != carStatus.PowerOff && myCar.status != carStatus.Stop) */\n      tag_112\n      jumpi\n      0x00\n      dup1\n      revert\n    tag_112:\n        /* \"contracts/0515/Quiz.sol\":4303:4308  myCar */\n      0x00\n        /* \"contracts/0515/Quiz.sol\":4303:4314  myCar.speed */\n      0x02\n      add\n      0x00\n        /* \"contracts/0515/Quiz.sol\":4303:4316  myCar.speed-- */\n      dup2\n      sload\n      dup1\n      swap3\n      swap2\n      swap1\n      tag_113\n      swap1\n      tag_114\n      jump\t// in\n    tag_113:\n      swap2\n      swap1\n      pop\n      sstore\n      pop\n        /* \"contracts/0515/Quiz.sol\":4346:4347  1 */\n      0x01\n        /* \"contracts/0515/Quiz.sol\":4327:4332  myCar */\n      0x00\n        /* \"contracts/0515/Quiz.sol\":4327:4342  myCar.fuelGauge */\n      0x01\n      add\n      0x00\n        /* \"contracts/0515/Quiz.sol\":4327:4347  myCar.fuelGauge -= 1 */\n      dup3\n      dup3\n      sload\n      tag_115\n      swap2\n      swap1\n      tag_116\n      jump\t// in\n    tag_115:\n      swap3\n      pop\n      pop\n      dup2\n      swap1\n      sstore\n      pop\n        /* \"contracts/0515/Quiz.sol\":4376:4377  0 */\n      0x00\n        /* \"contracts/0515/Quiz.sol\":4361:4366  myCar */\n      dup1\n        /* \"contracts/0515/Quiz.sol\":4361:4372  myCar.speed */\n      0x02\n      add\n      sload\n        /* \"contracts/0515/Quiz.sol\":4361:4377  myCar.speed == 0 */\n      sub\n        /* \"contracts/0515/Quiz.sol\":4358:4433  if(myCar.speed == 0){... */\n      tag_117\n      jumpi\n        /* \"contracts/0515/Quiz.sol\":4407:4421  carStatus.Stop */\n      0x00\n        /* \"contracts/0515/Quiz.sol\":4393:4398  myCar */\n      dup1\n        /* \"contracts/0515/Quiz.sol\":4393:4405  myCar.status */\n      0x00\n      add\n      0x00\n        /* \"contracts/0515/Quiz.sol\":4393:4421  myCar.status =carStatus.Stop */\n      0x0100\n      exp\n      dup2\n      sload\n      dup2\n      0xff\n      mul\n      not\n      and\n      swap1\n      dup4\n      0x03\n      dup2\n      gt\n      iszero\n      tag_118\n      jumpi\n      tag_119\n      tag_66\n      jump\t// in\n    tag_119:\n    tag_118:\n      mul\n      or\n      swap1\n      sstore\n      pop\n        /* \"contracts/0515/Quiz.sol\":4358:4433  if(myCar.speed == 0){... */\n    tag_117:\n        /* \"contracts/0515/Quiz.sol\":4465:4466  0 */\n      0x00\n        /* \"contracts/0515/Quiz.sol\":4446:4451  myCar */\n      dup1\n        /* \"contracts/0515/Quiz.sol\":4446:4461  myCar.fuelGauge */\n      0x01\n      add\n      sload\n        /* \"contracts/0515/Quiz.sol\":4446:4466  myCar.fuelGauge == 0 */\n      sub\n        /* \"contracts/0515/Quiz.sol\":4443:4524  if(myCar.fuelGauge == 0){... */\n      tag_120\n      jumpi\n        /* \"contracts/0515/Quiz.sol\":4497:4512  carStatus.NoGas */\n      0x03\n        /* \"contracts/0515/Quiz.sol\":4482:4487  myCar */\n      0x00\n        /* \"contracts/0515/Quiz.sol\":4482:4494  myCar.status */\n      dup1\n      add\n      0x00\n        /* \"contracts/0515/Quiz.sol\":4482:4512  myCar.status = carStatus.NoGas */\n      0x0100\n      exp\n      dup2\n      sload\n      dup2\n      0xff\n      mul\n      not\n      and\n      swap1\n      dup4\n      0x03\n      dup2\n      gt\n      iszero\n      tag_121\n      jumpi\n      tag_122\n      tag_66\n      jump\t// in\n    tag_122:\n    tag_121:\n      mul\n      or\n      swap1\n      sstore\n      pop\n        /* \"contracts/0515/Quiz.sol\":4443:4524  if(myCar.fuelGauge == 0){... */\n    tag_120:\n        /* \"contracts/0515/Quiz.sol\":4153:4531  function brakeCar() public {... */\n      jump\t// out\n        /* \"contracts/0515/Quiz.sol\":3651:3942  function accel() public {... */\n    tag_48:\n        /* \"contracts/0515/Quiz.sol\":3712:3714  30 */\n      0x1e\n        /* \"contracts/0515/Quiz.sol\":3694:3699  myCar */\n      0x00\n        /* \"contracts/0515/Quiz.sol\":3694:3709  myCar.fuelGauge */\n      0x01\n      add\n      sload\n        /* \"contracts/0515/Quiz.sol\":3694:3714  myCar.fuelGauge > 30 */\n      gt\n        /* \"contracts/0515/Quiz.sol\":3694:3733  myCar.fuelGauge > 30 && myCar.speed <70 */\n      dup1\n      iszero\n      tag_124\n      jumpi\n      pop\n        /* \"contracts/0515/Quiz.sol\":3731:3733  70 */\n      0x46\n        /* \"contracts/0515/Quiz.sol\":3718:3723  myCar */\n      0x00\n        /* \"contracts/0515/Quiz.sol\":3718:3729  myCar.speed */\n      0x02\n      add\n      sload\n        /* \"contracts/0515/Quiz.sol\":3718:3733  myCar.speed <70 */\n      lt\n        /* \"contracts/0515/Quiz.sol\":3694:3733  myCar.fuelGauge > 30 && myCar.speed <70 */\n    tag_124:\n        /* \"contracts/0515/Quiz.sol\":3694:3772  myCar.fuelGauge > 30 && myCar.speed <70 && myCar.status !=  carStatus.PowerOff */\n      dup1\n      iszero\n      tag_125\n      jumpi\n      pop\n        /* \"contracts/0515/Quiz.sol\":3754:3772  carStatus.PowerOff */\n      0x02\n        /* \"contracts/0515/Quiz.sol\":3737:3772  myCar.status !=  carStatus.PowerOff */\n      0x03\n      dup2\n      gt\n      iszero\n      tag_126\n      jumpi\n      tag_127\n      tag_66\n      jump\t// in\n    tag_127:\n    tag_126:\n        /* \"contracts/0515/Quiz.sol\":3737:3742  myCar */\n      0x00\n        /* \"contracts/0515/Quiz.sol\":3737:3749  myCar.status */\n      dup1\n      add\n      0x00\n      swap1\n      sload\n      swap1\n      0x0100\n      exp\n      swap1\n      div\n      0xff\n      and\n        /* \"contracts/0515/Quiz.sol\":3737:3772  myCar.status !=  carStatus.PowerOff */\n      0x03\n      dup2\n      gt\n      iszero\n      tag_128\n      jumpi\n      tag_129\n      tag_66\n      jump\t// in\n    tag_129:\n    tag_128:\n      eq\n      iszero\n        /* \"contracts/0515/Quiz.sol\":3694:3772  myCar.fuelGauge > 30 && myCar.speed <70 && myCar.status !=  carStatus.PowerOff */\n    tag_125:\n        /* \"contracts/0515/Quiz.sol\":3686:3773  require(myCar.fuelGauge > 30 && myCar.speed <70 && myCar.status !=  carStatus.PowerOff) */\n      tag_130\n      jumpi\n      0x00\n      dup1\n      revert\n    tag_130:\n        /* \"contracts/0515/Quiz.sol\":3803:3820  carStatus.Driving */\n      0x01\n        /* \"contracts/0515/Quiz.sol\":3787:3820  myCar.status != carStatus.Driving */\n      0x03\n      dup2\n      gt\n      iszero\n      tag_131\n      jumpi\n      tag_132\n      tag_66\n      jump\t// in\n    tag_132:\n    tag_131:\n        /* \"contracts/0515/Quiz.sol\":3787:3792  myCar */\n      0x00\n        /* \"contracts/0515/Quiz.sol\":3787:3799  myCar.status */\n      dup1\n      add\n      0x00\n      swap1\n      sload\n      swap1\n      0x0100\n      exp\n      swap1\n      div\n      0xff\n      and\n        /* \"contracts/0515/Quiz.sol\":3787:3820  myCar.status != carStatus.Driving */\n      0x03\n      dup2\n      gt\n      iszero\n      tag_133\n      jumpi\n      tag_134\n      tag_66\n      jump\t// in\n    tag_134:\n    tag_133:\n      eq\n        /* \"contracts/0515/Quiz.sol\":3784:3880  if(myCar.status != carStatus.Driving){... */\n      tag_135\n      jumpi\n        /* \"contracts/0515/Quiz.sol\":3851:3868  carStatus.Driving */\n      0x01\n        /* \"contracts/0515/Quiz.sol\":3836:3841  myCar */\n      0x00\n        /* \"contracts/0515/Quiz.sol\":3836:3848  myCar.status */\n      dup1\n      add\n      0x00\n        /* \"contracts/0515/Quiz.sol\":3836:3868  myCar.status = carStatus.Driving */\n      0x0100\n      exp\n      dup2\n      sload\n      dup2\n      0xff\n      mul\n      not\n      and\n      swap1\n      dup4\n      0x03\n      dup2\n      gt\n      iszero\n      tag_136\n      jumpi\n      tag_137\n      tag_66\n      jump\t// in\n    tag_137:\n    tag_136:\n      mul\n      or\n      swap1\n      sstore\n      pop\n        /* \"contracts/0515/Quiz.sol\":3784:3880  if(myCar.status != carStatus.Driving){... */\n    tag_135:\n        /* \"contracts/0515/Quiz.sol\":3890:3895  myCar */\n      0x00\n        /* \"contracts/0515/Quiz.sol\":3890:3901  myCar.speed */\n      0x02\n      add\n      0x00\n        /* \"contracts/0515/Quiz.sol\":3890:3903  myCar.speed++ */\n      dup2\n      sload\n      dup1\n      swap3\n      swap2\n      swap1\n      tag_138\n      swap1\n      tag_139\n      jump\t// in\n    tag_138:\n      swap2\n      swap1\n      pop\n      sstore\n      pop\n        /* \"contracts/0515/Quiz.sol\":3933:3934  2 */\n      0x02\n        /* \"contracts/0515/Quiz.sol\":3914:3919  myCar */\n      0x00\n        /* \"contracts/0515/Quiz.sol\":3914:3929  myCar.fuelGauge */\n      0x01\n      add\n      0x00\n        /* \"contracts/0515/Quiz.sol\":3914:3934  myCar.fuelGauge -= 2 */\n      dup3\n      dup3\n      sload\n      tag_140\n      swap2\n      swap1\n      tag_116\n      jump\t// in\n    tag_140:\n      swap3\n      pop\n      pop\n      dup2\n      swap1\n      sstore\n      pop\n        /* \"contracts/0515/Quiz.sol\":3651:3942  function accel() public {... */\n      jump\t// out\n        /* \"#utility.yul\":7:133   */\n    tag_141:\n        /* \"#utility.yul\":44:51   */\n      0x00\n        /* \"#utility.yul\":84:126   */\n      0xffffffffffffffffffffffffffffffffffffffff\n        /* \"#utility.yul\":77:82   */\n      dup3\n        /* \"#utility.yul\":73:127   */\n      and\n        /* \"#utility.yul\":62:127   */\n      swap1\n      pop\n        /* \"#utility.yul\":7:133   */\n      swap2\n      swap1\n      pop\n      jump\t// out\n        /* \"#utility.yul\":139:199   */\n    tag_142:\n        /* \"#utility.yul\":167:170   */\n      0x00\n        /* \"#utility.yul\":188:193   */\n      dup2\n        /* \"#utility.yul\":181:193   */\n      swap1\n      pop\n        /* \"#utility.yul\":139:199   */\n      swap2\n      swap1\n      pop\n      jump\t// out\n        /* \"#utility.yul\":205:347   */\n    tag_143:\n        /* \"#utility.yul\":255:264   */\n      0x00\n        /* \"#utility.yul\":288:341   */\n      tag_169\n        /* \"#utility.yul\":306:340   */\n      tag_170\n        /* \"#utility.yul\":315:339   */\n      tag_171\n        /* \"#utility.yul\":333:338   */\n      dup5\n        /* \"#utility.yul\":315:339   */\n      tag_141\n      jump\t// in\n    tag_171:\n        /* \"#utility.yul\":306:340   */\n      tag_142\n      jump\t// in\n    tag_170:\n        /* \"#utility.yul\":288:341   */\n      tag_141\n      jump\t// in\n    tag_169:\n        /* \"#utility.yul\":275:341   */\n      swap1\n      pop\n        /* \"#utility.yul\":205:347   */\n      swap2\n      swap1\n      pop\n      jump\t// out\n        /* \"#utility.yul\":353:487   */\n    tag_144:\n        /* \"#utility.yul\":411:420   */\n      0x00\n        /* \"#utility.yul\":444:481   */\n      tag_173\n        /* \"#utility.yul\":475:480   */\n      dup3\n        /* \"#utility.yul\":444:481   */\n      tag_143\n      jump\t// in\n    tag_173:\n        /* \"#utility.yul\":431:481   */\n      swap1\n      pop\n        /* \"#utility.yul\":353:487   */\n      swap2\n      swap1\n      pop\n      jump\t// out\n        /* \"#utility.yul\":493:653   */\n    tag_145:\n        /* \"#utility.yul\":569:578   */\n      0x00\n        /* \"#utility.yul\":602:647   */\n      tag_175\n        /* \"#utility.yul\":641:646   */\n      dup3\n        /* \"#utility.yul\":602:647   */\n      tag_144\n      jump\t// in\n    tag_175:\n        /* \"#utility.yul\":589:647   */\n      swap1\n      pop\n        /* \"#utility.yul\":493:653   */\n      swap2\n      swap1\n      pop\n      jump\t// out\n        /* \"#utility.yul\":659:842   */\n    tag_146:\n        /* \"#utility.yul\":772:835   */\n      tag_177\n        /* \"#utility.yul\":829:834   */\n      dup2\n        /* \"#utility.yul\":772:835   */\n      tag_145\n      jump\t// in\n    tag_177:\n        /* \"#utility.yul\":767:770   */\n      dup3\n        /* \"#utility.yul\":760:836   */\n      mstore\n        /* \"#utility.yul\":659:842   */\n      pop\n      pop\n      jump\t// out\n        /* \"#utility.yul\":848:1122   */\n    tag_17:\n        /* \"#utility.yul\":967:971   */\n      0x00\n        /* \"#utility.yul\":1005:1007   */\n      0x20\n        /* \"#utility.yul\":994:1003   */\n      dup3\n        /* \"#utility.yul\":990:1008   */\n      add\n        /* \"#utility.yul\":982:1008   */\n      swap1\n      pop\n        /* \"#utility.yul\":1018:1115   */\n      tag_179\n        /* \"#utility.yul\":1112:1113   */\n      0x00\n        /* \"#utility.yul\":1101:1110   */\n      dup4\n        /* \"#utility.yul\":1097:1114   */\n      add\n        /* \"#utility.yul\":1088:1094   */\n      dup5\n        /* \"#utility.yul\":1018:1115   */\n      tag_146\n      jump\t// in\n    tag_179:\n        /* \"#utility.yul\":848:1122   */\n      swap3\n      swap2\n      pop\n      pop\n      jump\t// out\n        /* \"#utility.yul\":1209:1326   */\n    tag_148:\n        /* \"#utility.yul\":1318:1319   */\n      0x00\n        /* \"#utility.yul\":1315:1316   */\n      dup1\n        /* \"#utility.yul\":1308:1320   */\n      revert\n        /* \"#utility.yul\":1455:1532   */\n    tag_150:\n        /* \"#utility.yul\":1492:1499   */\n      0x00\n        /* \"#utility.yul\":1521:1526   */\n      dup2\n        /* \"#utility.yul\":1510:1526   */\n      swap1\n      pop\n        /* \"#utility.yul\":1455:1532   */\n      swap2\n      swap1\n      pop\n      jump\t// out\n        /* \"#utility.yul\":1538:1660   */\n    tag_151:\n        /* \"#utility.yul\":1611:1635   */\n      tag_185\n        /* \"#utility.yul\":1629:1634   */\n      dup2\n        /* \"#utility.yul\":1611:1635   */\n      tag_150\n      jump\t// in\n    tag_185:\n        /* \"#utility.yul\":1604:1609   */\n      dup2\n        /* \"#utility.yul\":1601:1636   */\n      eq\n        /* \"#utility.yul\":1591:1654   */\n      tag_186\n      jumpi\n        /* \"#utility.yul\":1650:1651   */\n      0x00\n        /* \"#utility.yul\":1647:1648   */\n      dup1\n        /* \"#utility.yul\":1640:1652   */\n      revert\n        /* \"#utility.yul\":1591:1654   */\n    tag_186:\n        /* \"#utility.yul\":1538:1660   */\n      pop\n      jump\t// out\n        /* \"#utility.yul\":1666:1805   */\n    tag_152:\n        /* \"#utility.yul\":1712:1717   */\n      0x00\n        /* \"#utility.yul\":1750:1756   */\n      dup2\n        /* \"#utility.yul\":1737:1757   */\n      calldataload\n        /* \"#utility.yul\":1728:1757   */\n      swap1\n      pop\n        /* \"#utility.yul\":1766:1799   */\n      tag_188\n        /* \"#utility.yul\":1793:1798   */\n      dup2\n        /* \"#utility.yul\":1766:1799   */\n      tag_151\n      jump\t// in\n    tag_188:\n        /* \"#utility.yul\":1666:1805   */\n      swap3\n      swap2\n      pop\n      pop\n      jump\t// out\n        /* \"#utility.yul\":1811:2140   */\n    tag_21:\n        /* \"#utility.yul\":1870:1876   */\n      0x00\n        /* \"#utility.yul\":1919:1921   */\n      0x20\n        /* \"#utility.yul\":1907:1916   */\n      dup3\n        /* \"#utility.yul\":1898:1905   */\n      dup5\n        /* \"#utility.yul\":1894:1917   */\n      sub\n        /* \"#utility.yul\":1890:1922   */\n      slt\n        /* \"#utility.yul\":1887:2006   */\n      iszero\n      tag_190\n      jumpi\n        /* \"#utility.yul\":1925:2004   */\n      tag_191\n      tag_148\n      jump\t// in\n    tag_191:\n        /* \"#utility.yul\":1887:2006   */\n    tag_190:\n        /* \"#utility.yul\":2045:2046   */\n      0x00\n        /* \"#utility.yul\":2070:2123   */\n      tag_192\n        /* \"#utility.yul\":2115:2122   */\n      dup5\n        /* \"#utility.yul\":2106:2112   */\n      dup3\n        /* \"#utility.yul\":2095:2104   */\n      dup6\n        /* \"#utility.yul\":2091:2113   */\n      add\n        /* \"#utility.yul\":2070:2123   */\n      tag_152\n      jump\t// in\n    tag_192:\n        /* \"#utility.yul\":2060:2123   */\n      swap2\n      pop\n        /* \"#utility.yul\":2016:2133   */\n      pop\n        /* \"#utility.yul\":1811:2140   */\n      swap3\n      swap2\n      pop\n      pop\n      jump\t// out\n        /* \"#utility.yul\":2146:2264   */\n    tag_153:\n        /* \"#utility.yul\":2233:2257   */\n      tag_194\n        /* \"#utility.yul\":2251:2256   */\n      dup2\n        /* \"#utility.yul\":2233:2257   */\n      tag_150\n      jump\t// in\n    tag_194:\n        /* \"#utility.yul\":2228:2231   */\n      dup3\n        /* \"#utility.yul\":2221:2258   */\n      mstore\n        /* \"#utility.yul\":2146:2264   */\n      pop\n      pop\n      jump\t// out\n        /* \"#utility.yul\":2270:2492   */\n    tag_29:\n        /* \"#utility.yul\":2363:2367   */\n      0x00\n        /* \"#utility.yul\":2401:2403   */\n      0x20\n        /* \"#utility.yul\":2390:2399   */\n      dup3\n        /* \"#utility.yul\":2386:2404   */\n      add\n        /* \"#utility.yul\":2378:2404   */\n      swap1\n      pop\n        /* \"#utility.yul\":2414:2485   */\n      tag_196\n        /* \"#utility.yul\":2482:2483   */\n      0x00\n        /* \"#utility.yul\":2471:2480   */\n      dup4\n        /* \"#utility.yul\":2467:2484   */\n      add\n        /* \"#utility.yul\":2458:2464   */\n      dup5\n        /* \"#utility.yul\":2414:2485   */\n      tag_153\n      jump\t// in\n    tag_196:\n        /* \"#utility.yul\":2270:2492   */\n      swap3\n      swap2\n      pop\n      pop\n      jump\t// out\n        /* \"#utility.yul\":2498:2678   */\n    tag_66:\n        /* \"#utility.yul\":2546:2623   */\n      0x4e487b7100000000000000000000000000000000000000000000000000000000\n        /* \"#utility.yul\":2543:2544   */\n      0x00\n        /* \"#utility.yul\":2536:2624   */\n      mstore\n        /* \"#utility.yul\":2643:2647   */\n      0x21\n        /* \"#utility.yul\":2640:2641   */\n      0x04\n        /* \"#utility.yul\":2633:2648   */\n      mstore\n        /* \"#utility.yul\":2667:2671   */\n      0x24\n        /* \"#utility.yul\":2664:2665   */\n      0x00\n        /* \"#utility.yul\":2657:2672   */\n      revert\n        /* \"#utility.yul\":2684:2802   */\n    tag_154:\n        /* \"#utility.yul\":2770:2771   */\n      0x04\n        /* \"#utility.yul\":2763:2768   */\n      dup2\n        /* \"#utility.yul\":2760:2772   */\n      lt\n        /* \"#utility.yul\":2750:2796   */\n      tag_199\n      jumpi\n        /* \"#utility.yul\":2776:2794   */\n      tag_200\n      tag_66\n      jump\t// in\n    tag_200:\n        /* \"#utility.yul\":2750:2796   */\n    tag_199:\n        /* \"#utility.yul\":2684:2802   */\n      pop\n      jump\t// out\n        /* \"#utility.yul\":2808:2945   */\n    tag_155:\n        /* \"#utility.yul\":2858:2865   */\n      0x00\n        /* \"#utility.yul\":2887:2892   */\n      dup2\n        /* \"#utility.yul\":2876:2892   */\n      swap1\n      pop\n        /* \"#utility.yul\":2893:2939   */\n      tag_202\n        /* \"#utility.yul\":2933:2938   */\n      dup3\n        /* \"#utility.yul\":2893:2939   */\n      tag_154\n      jump\t// in\n    tag_202:\n        /* \"#utility.yul\":2808:2945   */\n      swap2\n      swap1\n      pop\n      jump\t// out\n        /* \"#utility.yul\":2951:3088   */\n    tag_156:\n        /* \"#utility.yul\":3012:3021   */\n      0x00\n        /* \"#utility.yul\":3045:3082   */\n      tag_204\n        /* \"#utility.yul\":3076:3081   */\n      dup3\n        /* \"#utility.yul\":3045:3082   */\n      tag_155\n      jump\t// in\n    tag_204:\n        /* \"#utility.yul\":3032:3082   */\n      swap1\n      pop\n        /* \"#utility.yul\":2951:3088   */\n      swap2\n      swap1\n      pop\n      jump\t// out\n        /* \"#utility.yul\":3094:3247   */\n    tag_157:\n        /* \"#utility.yul\":3192:3240   */\n      tag_206\n        /* \"#utility.yul\":3234:3239   */\n      dup2\n        /* \"#utility.yul\":3192:3240   */\n      tag_156\n      jump\t// in\n    tag_206:\n        /* \"#utility.yul\":3187:3190   */\n      dup3\n        /* \"#utility.yul\":3180:3241   */\n      mstore\n        /* \"#utility.yul\":3094:3247   */\n      pop\n      pop\n      jump\t// out\n        /* \"#utility.yul\":3253:3717   */\n    tag_34:\n        /* \"#utility.yul\":3413:3417   */\n      0x00\n        /* \"#utility.yul\":3451:3453   */\n      0x60\n        /* \"#utility.yul\":3440:3449   */\n      dup3\n        /* \"#utility.yul\":3436:3454   */\n      add\n        /* \"#utility.yul\":3428:3454   */\n      swap1\n      pop\n        /* \"#utility.yul\":3464:3546   */\n      tag_208\n        /* \"#utility.yul\":3543:3544   */\n      0x00\n        /* \"#utility.yul\":3532:3541   */\n      dup4\n        /* \"#utility.yul\":3528:3545   */\n      add\n        /* \"#utility.yul\":3519:3525   */\n      dup7\n        /* \"#utility.yul\":3464:3546   */\n      tag_157\n      jump\t// in\n    tag_208:\n        /* \"#utility.yul\":3556:3628   */\n      tag_209\n        /* \"#utility.yul\":3624:3626   */\n      0x20\n        /* \"#utility.yul\":3613:3622   */\n      dup4\n        /* \"#utility.yul\":3609:3627   */\n      add\n        /* \"#utility.yul\":3600:3606   */\n      dup6\n        /* \"#utility.yul\":3556:3628   */\n      tag_153\n      jump\t// in\n    tag_209:\n        /* \"#utility.yul\":3638:3710   */\n      tag_210\n        /* \"#utility.yul\":3706:3708   */\n      0x40\n        /* \"#utility.yul\":3695:3704   */\n      dup4\n        /* \"#utility.yul\":3691:3709   */\n      add\n        /* \"#utility.yul\":3682:3688   */\n      dup5\n        /* \"#utility.yul\":3638:3710   */\n      tag_153\n      jump\t// in\n    tag_210:\n        /* \"#utility.yul\":3253:3717   */\n      swap5\n      swap4\n      pop\n      pop\n      pop\n      pop\n      jump\t// out\n        /* \"#utility.yul\":3723:3903   */\n    tag_158:\n        /* \"#utility.yul\":3771:3848   */\n      0x4e487b7100000000000000000000000000000000000000000000000000000000\n        /* \"#utility.yul\":3768:3769   */\n      0x00\n        /* \"#utility.yul\":3761:3849   */\n      mstore\n        /* \"#utility.yul\":3868:3872   */\n      0x11\n        /* \"#utility.yul\":3865:3866   */\n      0x04\n        /* \"#utility.yul\":3858:3873   */\n      mstore\n        /* \"#utility.yul\":3892:3896   */\n      0x24\n        /* \"#utility.yul\":3889:3890   */\n      0x00\n        /* \"#utility.yul\":3882:3897   */\n      revert\n        /* \"#utility.yul\":3909:4319   */\n    tag_51:\n        /* \"#utility.yul\":3949:3956   */\n      0x00\n        /* \"#utility.yul\":3972:3992   */\n      tag_213\n        /* \"#utility.yul\":3990:3991   */\n      dup3\n        /* \"#utility.yul\":3972:3992   */\n      tag_150\n      jump\t// in\n    tag_213:\n        /* \"#utility.yul\":3967:3992   */\n      swap2\n      pop\n        /* \"#utility.yul\":4006:4026   */\n      tag_214\n        /* \"#utility.yul\":4024:4025   */\n      dup4\n        /* \"#utility.yul\":4006:4026   */\n      tag_150\n      jump\t// in\n    tag_214:\n        /* \"#utility.yul\":4001:4026   */\n      swap3\n      pop\n        /* \"#utility.yul\":4061:4062   */\n      dup3\n        /* \"#utility.yul\":4058:4059   */\n      dup3\n        /* \"#utility.yul\":4054:4063   */\n      mul\n        /* \"#utility.yul\":4083:4113   */\n      tag_215\n        /* \"#utility.yul\":4101:4112   */\n      dup2\n        /* \"#utility.yul\":4083:4113   */\n      tag_150\n      jump\t// in\n    tag_215:\n        /* \"#utility.yul\":4072:4113   */\n      swap2\n      pop\n        /* \"#utility.yul\":4262:4263   */\n      dup3\n        /* \"#utility.yul\":4253:4260   */\n      dup3\n        /* \"#utility.yul\":4249:4264   */\n      div\n        /* \"#utility.yul\":4246:4247   */\n      dup5\n        /* \"#utility.yul\":4243:4265   */\n      eq\n        /* \"#utility.yul\":4223:4224   */\n      dup4\n        /* \"#utility.yul\":4216:4225   */\n      iszero\n        /* \"#utility.yul\":4196:4279   */\n      or\n        /* \"#utility.yul\":4173:4312   */\n      tag_216\n      jumpi\n        /* \"#utility.yul\":4292:4310   */\n      tag_217\n      tag_158\n      jump\t// in\n    tag_217:\n        /* \"#utility.yul\":4173:4312   */\n    tag_216:\n        /* \"#utility.yul\":3957:4319   */\n      pop\n        /* \"#utility.yul\":3909:4319   */\n      swap3\n      swap2\n      pop\n      pop\n      jump\t// out\n        /* \"#utility.yul\":4325:4421   */\n    tag_159:\n        /* \"#utility.yul\":4362:4369   */\n      0x00\n        /* \"#utility.yul\":4391:4415   */\n      tag_219\n        /* \"#utility.yul\":4409:4414   */\n      dup3\n        /* \"#utility.yul\":4391:4415   */\n      tag_141\n      jump\t// in\n    tag_219:\n        /* \"#utility.yul\":4380:4415   */\n      swap1\n      pop\n        /* \"#utility.yul\":4325:4421   */\n      swap2\n      swap1\n      pop\n      jump\t// out\n        /* \"#utility.yul\":4427:4545   */\n    tag_160:\n        /* \"#utility.yul\":4514:4538   */\n      tag_221\n        /* \"#utility.yul\":4532:4537   */\n      dup2\n        /* \"#utility.yul\":4514:4538   */\n      tag_159\n      jump\t// in\n    tag_221:\n        /* \"#utility.yul\":4509:4512   */\n      dup3\n        /* \"#utility.yul\":4502:4539   */\n      mstore\n        /* \"#utility.yul\":4427:4545   */\n      pop\n      pop\n      jump\t// out\n        /* \"#utility.yul\":4551:4883   */\n    tag_55:\n        /* \"#utility.yul\":4672:4676   */\n      0x00\n        /* \"#utility.yul\":4710:4712   */\n      0x40\n        /* \"#utility.yul\":4699:4708   */\n      dup3\n        /* \"#utility.yul\":4695:4713   */\n      add\n        /* \"#utility.yul\":4687:4713   */\n      swap1\n      pop\n        /* \"#utility.yul\":4723:4794   */\n      tag_223\n        /* \"#utility.yul\":4791:4792   */\n      0x00\n        /* \"#utility.yul\":4780:4789   */\n      dup4\n        /* \"#utility.yul\":4776:4793   */\n      add\n        /* \"#utility.yul\":4767:4773   */\n      dup6\n        /* \"#utility.yul\":4723:4794   */\n      tag_160\n      jump\t// in\n    tag_223:\n        /* \"#utility.yul\":4804:4876   */\n      tag_224\n        /* \"#utility.yul\":4872:4874   */\n      0x20\n        /* \"#utility.yul\":4861:4870   */\n      dup4\n        /* \"#utility.yul\":4857:4875   */\n      add\n        /* \"#utility.yul\":4848:4854   */\n      dup5\n        /* \"#utility.yul\":4804:4876   */\n      tag_153\n      jump\t// in\n    tag_224:\n        /* \"#utility.yul\":4551:4883   */\n      swap4\n      swap3\n      pop\n      pop\n      pop\n      jump\t// out\n        /* \"#utility.yul\":4889:4992   */\n    tag_161:\n        /* \"#utility.yul\":4952:4959   */\n      0x00\n        /* \"#utility.yul\":4981:4986   */\n      dup2\n        /* \"#utility.yul\":4970:4986   */\n      swap1\n      pop\n        /* \"#utility.yul\":4889:4992   */\n      swap2\n      swap1\n      pop\n      jump\t// out\n        /* \"#utility.yul\":4998:5192   */\n    tag_162:\n        /* \"#utility.yul\":5074:5083   */\n      0x00\n        /* \"#utility.yul\":5107:5186   */\n      tag_227\n        /* \"#utility.yul\":5125:5185   */\n      tag_228\n        /* \"#utility.yul\":5134:5184   */\n      tag_229\n        /* \"#utility.yul\":5178:5183   */\n      dup5\n        /* \"#utility.yul\":5134:5184   */\n      tag_161\n      jump\t// in\n    tag_229:\n        /* \"#utility.yul\":5125:5185   */\n      tag_142\n      jump\t// in\n    tag_228:\n        /* \"#utility.yul\":5107:5186   */\n      tag_150\n      jump\t// in\n    tag_227:\n        /* \"#utility.yul\":5094:5186   */\n      swap1\n      pop\n        /* \"#utility.yul\":4998:5192   */\n      swap2\n      swap1\n      pop\n      jump\t// out\n        /* \"#utility.yul\":5198:5381   */\n    tag_163:\n        /* \"#utility.yul\":5311:5374   */\n      tag_231\n        /* \"#utility.yul\":5368:5373   */\n      dup2\n        /* \"#utility.yul\":5311:5374   */\n      tag_162\n      jump\t// in\n    tag_231:\n        /* \"#utility.yul\":5306:5309   */\n      dup3\n        /* \"#utility.yul\":5299:5375   */\n      mstore\n        /* \"#utility.yul\":5198:5381   */\n      pop\n      pop\n      jump\t// out\n        /* \"#utility.yul\":5387:5771   */\n    tag_72:\n        /* \"#utility.yul\":5534:5538   */\n      0x00\n        /* \"#utility.yul\":5572:5574   */\n      0x40\n        /* \"#utility.yul\":5561:5570   */\n      dup3\n        /* \"#utility.yul\":5557:5575   */\n      add\n        /* \"#utility.yul\":5549:5575   */\n      swap1\n      pop\n        /* \"#utility.yul\":5585:5656   */\n      tag_233\n        /* \"#utility.yul\":5653:5654   */\n      0x00\n        /* \"#utility.yul\":5642:5651   */\n      dup4\n        /* \"#utility.yul\":5638:5655   */\n      add\n        /* \"#utility.yul\":5629:5635   */\n      dup6\n        /* \"#utility.yul\":5585:5656   */\n      tag_160\n      jump\t// in\n    tag_233:\n        /* \"#utility.yul\":5666:5764   */\n      tag_234\n        /* \"#utility.yul\":5760:5762   */\n      0x20\n        /* \"#utility.yul\":5749:5758   */\n      dup4\n        /* \"#utility.yul\":5745:5763   */\n      add\n        /* \"#utility.yul\":5736:5742   */\n      dup5\n        /* \"#utility.yul\":5666:5764   */\n      tag_163\n      jump\t// in\n    tag_234:\n        /* \"#utility.yul\":5387:5771   */\n      swap4\n      swap3\n      pop\n      pop\n      pop\n      jump\t// out\n        /* \"#utility.yul\":5777:5999   */\n    tag_78:\n        /* \"#utility.yul\":5870:5874   */\n      0x00\n        /* \"#utility.yul\":5908:5910   */\n      0x20\n        /* \"#utility.yul\":5897:5906   */\n      dup3\n        /* \"#utility.yul\":5893:5911   */\n      add\n        /* \"#utility.yul\":5885:5911   */\n      swap1\n      pop\n        /* \"#utility.yul\":5921:5992   */\n      tag_236\n        /* \"#utility.yul\":5989:5990   */\n      0x00\n        /* \"#utility.yul\":5978:5987   */\n      dup4\n        /* \"#utility.yul\":5974:5991   */\n      add\n        /* \"#utility.yul\":5965:5971   */\n      dup5\n        /* \"#utility.yul\":5921:5992   */\n      tag_160\n      jump\t// in\n    tag_236:\n        /* \"#utility.yul\":5777:5999   */\n      swap3\n      swap2\n      pop\n      pop\n      jump\t// out\n        /* \"#utility.yul\":6005:6148   */\n    tag_164:\n        /* \"#utility.yul\":6062:6067   */\n      0x00\n        /* \"#utility.yul\":6093:6099   */\n      dup2\n        /* \"#utility.yul\":6087:6100   */\n      mload\n        /* \"#utility.yul\":6078:6100   */\n      swap1\n      pop\n        /* \"#utility.yul\":6109:6142   */\n      tag_238\n        /* \"#utility.yul\":6136:6141   */\n      dup2\n        /* \"#utility.yul\":6109:6142   */\n      tag_151\n      jump\t// in\n    tag_238:\n        /* \"#utility.yul\":6005:6148   */\n      swap3\n      swap2\n      pop\n      pop\n      jump\t// out\n        /* \"#utility.yul\":6154:6505   */\n    tag_82:\n        /* \"#utility.yul\":6224:6230   */\n      0x00\n        /* \"#utility.yul\":6273:6275   */\n      0x20\n        /* \"#utility.yul\":6261:6270   */\n      dup3\n        /* \"#utility.yul\":6252:6259   */\n      dup5\n        /* \"#utility.yul\":6248:6271   */\n      sub\n        /* \"#utility.yul\":6244:6276   */\n      slt\n        /* \"#utility.yul\":6241:6360   */\n      iszero\n      tag_240\n      jumpi\n        /* \"#utility.yul\":6279:6358   */\n      tag_241\n      tag_148\n      jump\t// in\n    tag_241:\n        /* \"#utility.yul\":6241:6360   */\n    tag_240:\n        /* \"#utility.yul\":6399:6400   */\n      0x00\n        /* \"#utility.yul\":6424:6488   */\n      tag_242\n        /* \"#utility.yul\":6480:6487   */\n      dup5\n        /* \"#utility.yul\":6471:6477   */\n      dup3\n        /* \"#utility.yul\":6460:6469   */\n      dup6\n        /* \"#utility.yul\":6456:6478   */\n      add\n        /* \"#utility.yul\":6424:6488   */\n      tag_164\n      jump\t// in\n    tag_242:\n        /* \"#utility.yul\":6414:6488   */\n      swap2\n      pop\n        /* \"#utility.yul\":6370:6498   */\n      pop\n        /* \"#utility.yul\":6154:6505   */\n      swap3\n      swap2\n      pop\n      pop\n      jump\t// out\n        /* \"#utility.yul\":6511:6682   */\n    tag_114:\n        /* \"#utility.yul\":6550:6553   */\n      0x00\n        /* \"#utility.yul\":6573:6597   */\n      tag_244\n        /* \"#utility.yul\":6591:6596   */\n      dup3\n        /* \"#utility.yul\":6573:6597   */\n      tag_150\n      jump\t// in\n    tag_244:\n        /* \"#utility.yul\":6564:6597   */\n      swap2\n      pop\n        /* \"#utility.yul\":6619:6623   */\n      0x00\n        /* \"#utility.yul\":6612:6617   */\n      dup3\n        /* \"#utility.yul\":6609:6624   */\n      sub\n        /* \"#utility.yul\":6606:6647   */\n      tag_245\n      jumpi\n        /* \"#utility.yul\":6627:6645   */\n      tag_246\n      tag_158\n      jump\t// in\n    tag_246:\n        /* \"#utility.yul\":6606:6647   */\n    tag_245:\n        /* \"#utility.yul\":6674:6675   */\n      0x01\n        /* \"#utility.yul\":6667:6672   */\n      dup3\n        /* \"#utility.yul\":6663:6676   */\n      sub\n        /* \"#utility.yul\":6656:6676   */\n      swap1\n      pop\n        /* \"#utility.yul\":6511:6682   */\n      swap2\n      swap1\n      pop\n      jump\t// out\n        /* \"#utility.yul\":6688:6882   */\n    tag_116:\n        /* \"#utility.yul\":6728:6732   */\n      0x00\n        /* \"#utility.yul\":6748:6768   */\n      tag_248\n        /* \"#utility.yul\":6766:6767   */\n      dup3\n        /* \"#utility.yul\":6748:6768   */\n      tag_150\n      jump\t// in\n    tag_248:\n        /* \"#utility.yul\":6743:6768   */\n      swap2\n      pop\n        /* \"#utility.yul\":6782:6802   */\n      tag_249\n        /* \"#utility.yul\":6800:6801   */\n      dup4\n        /* \"#utility.yul\":6782:6802   */\n      tag_150\n      jump\t// in\n    tag_249:\n        /* \"#utility.yul\":6777:6802   */\n      swap3\n      pop\n        /* \"#utility.yul\":6826:6827   */\n      dup3\n        /* \"#utility.yul\":6823:6824   */\n      dup3\n        /* \"#utility.yul\":6819:6828   */\n      sub\n        /* \"#utility.yul\":6811:6828   */\n      swap1\n      pop\n        /* \"#utility.yul\":6850:6851   */\n      dup2\n        /* \"#utility.yul\":6844:6848   */\n      dup2\n        /* \"#utility.yul\":6841:6852   */\n      gt\n        /* \"#utility.yul\":6838:6875   */\n      iszero\n      tag_250\n      jumpi\n        /* \"#utility.yul\":6855:6873   */\n      tag_251\n      tag_158\n      jump\t// in\n    tag_251:\n        /* \"#utility.yul\":6838:6875   */\n    tag_250:\n        /* \"#utility.yul\":6688:6882   */\n      swap3\n      swap2\n      pop\n      pop\n      jump\t// out\n        /* \"#utility.yul\":6888:7121   */\n    tag_139:\n        /* \"#utility.yul\":6927:6930   */\n      0x00\n        /* \"#utility.yul\":6950:6974   */\n      tag_253\n        /* \"#utility.yul\":6968:6973   */\n      dup3\n        /* \"#utility.yul\":6950:6974   */\n      tag_150\n      jump\t// in\n    tag_253:\n        /* \"#utility.yul\":6941:6974   */\n      swap2\n      pop\n        /* \"#utility.yul\":6996:7062   */\n      0xffffffffffffffffffffffffffffffffffffffffffffffffffffffffffffffff\n        /* \"#utility.yul\":6989:6994   */\n      dup3\n        /* \"#utility.yul\":6986:7063   */\n      sub\n        /* \"#utility.yul\":6983:7086   */\n      tag_254\n      jumpi\n        /* \"#utility.yul\":7066:7084   */\n      tag_255\n      tag_158\n      jump\t// in\n    tag_255:\n        /* \"#utility.yul\":6983:7086   */\n    tag_254:\n        /* \"#utility.yul\":7113:7114   */\n      0x01\n        /* \"#utility.yul\":7106:7111   */\n      dup3\n        /* \"#utility.yul\":7102:7115   */\n      add\n        /* \"#utility.yul\":7095:7115   */\n      swap1\n      pop\n        /* \"#utility.yul\":6888:7121   */\n      swap2\n      swap1\n      pop\n      jump\t// out\n\n    auxdata: 0xa26469706673582212205f59c8f00ff0b2d1d9968d79fe84dcbf84f385507e8534cf119419181fe9121a64736f6c63430008120033\n}\n",
				"bytecode": {
					"linkReferences": {},
					"object": "608060405234801561001057600080fd5b50604051610d76380380610d76833981810160405281019061003291906100dc565b80600360006101000a81548173ffffffffffffffffffffffffffffffffffffffff021916908373ffffffffffffffffffffffffffffffffffffffff16021790555050610109565b600080fd5b600073ffffffffffffffffffffffffffffffffffffffff82169050919050565b60006100a98261007e565b9050919050565b6100b98161009e565b81146100c457600080fd5b50565b6000815190506100d6816100b0565b92915050565b6000602082840312156100f2576100f1610079565b5b6000610100848285016100c7565b91505092915050565b610c5e806101186000396000f3fe6080604052600436106100905760003560e01c8063af10c81011610059578063af10c8101461014b578063ba33ed7d14610162578063d0e30db014610179578063e35575d214610183578063f282df781461019a57610090565b8062e71aaf14610095578063075c478a146100c05780633446136a146100e957806337de45f8146100f35780639cdde8131461011e575b600080fd5b3480156100a157600080fd5b506100aa6101b1565b6040516100b791906108ac565b60405180910390f35b3480156100cc57600080fd5b506100e760048036038101906100e29190610902565b6101d7565b005b6100f16102e8565b005b3480156100ff57600080fd5b5061010861041d565b604051610115919061093e565b60405180910390f35b34801561012a57600080fd5b506101336104c5565b604051610142939291906109d0565b60405180910390f35b34801561015757600080fd5b506101606104ea565b005b34801561016e57600080fd5b5061017761056c565b005b6101816105ee565b005b34801561018f57600080fd5b506101986105f0565b005b3480156101a657600080fd5b506101af610723565b005b600360009054906101000a900473ffffffffffffffffffffffffffffffffffffffff1681565b670de0b6b3a7640000816101eb9190610a36565b9050600360009054906101000a900473ffffffffffffffffffffffffffffffffffffffff1673ffffffffffffffffffffffffffffffffffffffff166108fc829081150290604051600060405180830381858888f19350505050158015610255573d6000803e3d6000fd5b50600360009054906101000a900473ffffffffffffffffffffffffffffffffffffffff1673ffffffffffffffffffffffffffffffffffffffff16630500255f30836040518363ffffffff1660e01b81526004016102b3929190610a99565b600060405180830381600087803b1580156102cd57600080fd5b505af11580156102e1573d6000803e3d6000fd5b5050505050565b60006102f261041d565b9050670de0b6b3a7640000811015801561030c5750600034145b8061031e5750670de0b6b3a764000034145b801561035f57506002600381111561033957610338610959565b5b6000800160009054906101000a900460ff16600381111561035d5761035c610959565b5b145b61036857600080fd5b670de0b6b3a7640000341461040f57600360009054906101000a900473ffffffffffffffffffffffffffffffffffffffff1673ffffffffffffffffffffffffffffffffffffffff1663f701034e30670de0b6b3a76400006040518363ffffffff1660e01b81526004016103dc929190610afd565b600060405180830381600087803b1580156103f657600080fd5b505af115801561040a573d6000803e3d6000fd5b505050505b606460006001018190555050565b600080600360009054906101000a900473ffffffffffffffffffffffffffffffffffffffff1673ffffffffffffffffffffffffffffffffffffffff16634639a55a306040518263ffffffff1660e01b815260040161047b9190610b26565b602060405180830381865afa158015610498573d6000803e3d6000fd5b505050506040513d601f19601f820116820180604052508101906104bc9190610b56565b90508091505090565b60008060000160009054906101000a900460ff16908060010154908060020154905083565b6000806002015414801561053457506002600381111561050d5761050c610959565b5b6000800160009054906101000a900460ff16600381111561053157610530610959565b5b14155b61053d57600080fd5b60026000800160006101000a81548160ff0219169083600381111561056557610564610959565b5b0217905550565b60008060010154141580156105b65750600260038111156105905761058f610959565b5b6000800160009054906101000a900460ff1660038111156105b4576105b3610959565b5b145b6105bf57600080fd5b60008060000160006101000a81548160ff021916908360038111156105e7576105e6610959565b5b0217905550565b565b6002600381111561060457610603610959565b5b6000800160009054906101000a900460ff16600381111561062857610627610959565b5b1415801561066c57506000600381111561064557610644610959565b5b6000800160009054906101000a900460ff16600381111561066957610668610959565b5b14155b61067557600080fd5b6000600201600081548092919061068b90610b83565b91905055506001600060010160008282546106a69190610bac565b9250508190555060008060020154036106e75760008060000160006101000a81548160ff021916908360038111156106e1576106e0610959565b5b02179055505b60008060010154036107215760036000800160006101000a81548160ff0219169083600381111561071b5761071a610959565b5b02179055505b565b601e60006001015411801561073d57506046600060020154105b801561077f57506002600381111561075857610757610959565b5b6000800160009054906101000a900460ff16600381111561077c5761077b610959565b5b14155b61078857600080fd5b6001600381111561079c5761079b610959565b5b6000800160009054906101000a900460ff1660038111156107c0576107bf610959565b5b146107f35760016000800160006101000a81548160ff021916908360038111156107ed576107ec610959565b5b02179055505b6000600201600081548092919061080990610be0565b91905055506002600060010160008282546108249190610bac565b92505081905550565b600073ffffffffffffffffffffffffffffffffffffffff82169050919050565b6000819050919050565b600061087261086d6108688461082d565b61084d565b61082d565b9050919050565b600061088482610857565b9050919050565b600061089682610879565b9050919050565b6108a68161088b565b82525050565b60006020820190506108c1600083018461089d565b92915050565b600080fd5b6000819050919050565b6108df816108cc565b81146108ea57600080fd5b50565b6000813590506108fc816108d6565b92915050565b600060208284031215610918576109176108c7565b5b6000610926848285016108ed565b91505092915050565b610938816108cc565b82525050565b6000602082019050610953600083018461092f565b92915050565b7f4e487b7100000000000000000000000000000000000000000000000000000000600052602160045260246000fd5b6004811061099957610998610959565b5b50565b60008190506109aa82610988565b919050565b60006109ba8261099c565b9050919050565b6109ca816109af565b82525050565b60006060820190506109e560008301866109c1565b6109f2602083018561092f565b6109ff604083018461092f565b949350505050565b7f4e487b7100000000000000000000000000000000000000000000000000000000600052601160045260246000fd5b6000610a41826108cc565b9150610a4c836108cc565b9250828202610a5a816108cc565b91508282048414831517610a7157610a70610a07565b5b5092915050565b6000610a838261082d565b9050919050565b610a9381610a78565b82525050565b6000604082019050610aae6000830185610a8a565b610abb602083018461092f565b9392505050565b6000819050919050565b6000610ae7610ae2610add84610ac2565b61084d565b6108cc565b9050919050565b610af781610acc565b82525050565b6000604082019050610b126000830185610a8a565b610b1f6020830184610aee565b9392505050565b6000602082019050610b3b6000830184610a8a565b92915050565b600081519050610b50816108d6565b92915050565b600060208284031215610b6c57610b6b6108c7565b5b6000610b7a84828501610b41565b91505092915050565b6000610b8e826108cc565b915060008203610ba157610ba0610a07565b5b600182039050919050565b6000610bb7826108cc565b9150610bc2836108cc565b9250828203905081811115610bda57610bd9610a07565b5b92915050565b6000610beb826108cc565b91507fffffffffffffffffffffffffffffffffffffffffffffffffffffffffffffffff8203610c1d57610c1c610a07565b5b60018201905091905056fea26469706673582212205f59c8f00ff0b2d1d9968d79fe84dcbf84f385507e8534cf119419181fe9121a64736f6c63430008120033",
					"opcodes": "PUSH1 0x80 PUSH1 0x40 MSTORE CALLVALUE DUP1 ISZERO PUSH2 0x10 JUMPI PUSH1 0x0 DUP1 REVERT JUMPDEST POP PUSH1 0x40 MLOAD PUSH2 0xD76 CODESIZE SUB DUP1 PUSH2 0xD76 DUP4 CODECOPY DUP2 DUP2 ADD PUSH1 0x40 MSTORE DUP2 ADD SWAP1 PUSH2 0x32 SWAP2 SWAP1 PUSH2 0xDC JUMP JUMPDEST DUP1 PUSH1 0x3 PUSH1 0x0 PUSH2 0x100 EXP DUP2 SLOAD DUP2 PUSH20 0xFFFFFFFFFFFFFFFFFFFFFFFFFFFFFFFFFFFFFFFF MUL NOT AND SWAP1 DUP4 PUSH20 0xFFFFFFFFFFFFFFFFFFFFFFFFFFFFFFFFFFFFFFFF AND MUL OR SWAP1 SSTORE POP POP PUSH2 0x109 JUMP JUMPDEST PUSH1 0x0 DUP1 REVERT JUMPDEST PUSH1 0x0 PUSH20 0xFFFFFFFFFFFFFFFFFFFFFFFFFFFFFFFFFFFFFFFF DUP3 AND SWAP1 POP SWAP2 SWAP1 POP JUMP JUMPDEST PUSH1 0x0 PUSH2 0xA9 DUP3 PUSH2 0x7E JUMP JUMPDEST SWAP1 POP SWAP2 SWAP1 POP JUMP JUMPDEST PUSH2 0xB9 DUP2 PUSH2 0x9E JUMP JUMPDEST DUP2 EQ PUSH2 0xC4 JUMPI PUSH1 0x0 DUP1 REVERT JUMPDEST POP JUMP JUMPDEST PUSH1 0x0 DUP2 MLOAD SWAP1 POP PUSH2 0xD6 DUP2 PUSH2 0xB0 JUMP JUMPDEST SWAP3 SWAP2 POP POP JUMP JUMPDEST PUSH1 0x0 PUSH1 0x20 DUP3 DUP5 SUB SLT ISZERO PUSH2 0xF2 JUMPI PUSH2 0xF1 PUSH2 0x79 JUMP JUMPDEST JUMPDEST PUSH1 0x0 PUSH2 0x100 DUP5 DUP3 DUP6 ADD PUSH2 0xC7 JUMP JUMPDEST SWAP2 POP POP SWAP3 SWAP2 POP POP JUMP JUMPDEST PUSH2 0xC5E DUP1 PUSH2 0x118 PUSH1 0x0 CODECOPY PUSH1 0x0 RETURN INVALID PUSH1 0x80 PUSH1 0x40 MSTORE PUSH1 0x4 CALLDATASIZE LT PUSH2 0x90 JUMPI PUSH1 0x0 CALLDATALOAD PUSH1 0xE0 SHR DUP1 PUSH4 0xAF10C810 GT PUSH2 0x59 JUMPI DUP1 PUSH4 0xAF10C810 EQ PUSH2 0x14B JUMPI DUP1 PUSH4 0xBA33ED7D EQ PUSH2 0x162 JUMPI DUP1 PUSH4 0xD0E30DB0 EQ PUSH2 0x179 JUMPI DUP1 PUSH4 0xE35575D2 EQ PUSH2 0x183 JUMPI DUP1 PUSH4 0xF282DF78 EQ PUSH2 0x19A JUMPI PUSH2 0x90 JUMP JUMPDEST DUP1 PUSH3 0xE71AAF EQ PUSH2 0x95 JUMPI DUP1 PUSH4 0x75C478A EQ PUSH2 0xC0 JUMPI DUP1 PUSH4 0x3446136A EQ PUSH2 0xE9 JUMPI DUP1 PUSH4 0x37DE45F8 EQ PUSH2 0xF3 JUMPI DUP1 PUSH4 0x9CDDE813 EQ PUSH2 0x11E JUMPI JUMPDEST PUSH1 0x0 DUP1 REVERT JUMPDEST CALLVALUE DUP1 ISZERO PUSH2 0xA1 JUMPI PUSH1 0x0 DUP1 REVERT JUMPDEST POP PUSH2 0xAA PUSH2 0x1B1 JUMP JUMPDEST PUSH1 0x40 MLOAD PUSH2 0xB7 SWAP2 SWAP1 PUSH2 0x8AC JUMP JUMPDEST PUSH1 0x40 MLOAD DUP1 SWAP2 SUB SWAP1 RETURN JUMPDEST CALLVALUE DUP1 ISZERO PUSH2 0xCC JUMPI PUSH1 0x0 DUP1 REVERT JUMPDEST POP PUSH2 0xE7 PUSH1 0x4 DUP1 CALLDATASIZE SUB DUP2 ADD SWAP1 PUSH2 0xE2 SWAP2 SWAP1 PUSH2 0x902 JUMP JUMPDEST PUSH2 0x1D7 JUMP JUMPDEST STOP JUMPDEST PUSH2 0xF1 PUSH2 0x2E8 JUMP JUMPDEST STOP JUMPDEST CALLVALUE DUP1 ISZERO PUSH2 0xFF JUMPI PUSH1 0x0 DUP1 REVERT JUMPDEST POP PUSH2 0x108 PUSH2 0x41D JUMP JUMPDEST PUSH1 0x40 MLOAD PUSH2 0x115 SWAP2 SWAP1 PUSH2 0x93E JUMP JUMPDEST PUSH1 0x40 MLOAD DUP1 SWAP2 SUB SWAP1 RETURN JUMPDEST CALLVALUE DUP1 ISZERO PUSH2 0x12A JUMPI PUSH1 0x0 DUP1 REVERT JUMPDEST POP PUSH2 0x133 PUSH2 0x4C5 JUMP JUMPDEST PUSH1 0x40 MLOAD PUSH2 0x142 SWAP4 SWAP3 SWAP2 SWAP1 PUSH2 0x9D0 JUMP JUMPDEST PUSH1 0x40 MLOAD DUP1 SWAP2 SUB SWAP1 RETURN JUMPDEST CALLVALUE DUP1 ISZERO PUSH2 0x157 JUMPI PUSH1 0x0 DUP1 REVERT JUMPDEST POP PUSH2 0x160 PUSH2 0x4EA JUMP JUMPDEST STOP JUMPDEST CALLVALUE DUP1 ISZERO PUSH2 0x16E JUMPI PUSH1 0x0 DUP1 REVERT JUMPDEST POP PUSH2 0x177 PUSH2 0x56C JUMP JUMPDEST STOP JUMPDEST PUSH2 0x181 PUSH2 0x5EE JUMP JUMPDEST STOP JUMPDEST CALLVALUE DUP1 ISZERO PUSH2 0x18F JUMPI PUSH1 0x0 DUP1 REVERT JUMPDEST POP PUSH2 0x198 PUSH2 0x5F0 JUMP JUMPDEST STOP JUMPDEST CALLVALUE DUP1 ISZERO PUSH2 0x1A6 JUMPI PUSH1 0x0 DUP1 REVERT JUMPDEST POP PUSH2 0x1AF PUSH2 0x723 JUMP JUMPDEST STOP JUMPDEST PUSH1 0x3 PUSH1 0x0 SWAP1 SLOAD SWAP1 PUSH2 0x100 EXP SWAP1 DIV PUSH20 0xFFFFFFFFFFFFFFFFFFFFFFFFFFFFFFFFFFFFFFFF AND DUP2 JUMP JUMPDEST PUSH8 0xDE0B6B3A7640000 DUP2 PUSH2 0x1EB SWAP2 SWAP1 PUSH2 0xA36 JUMP JUMPDEST SWAP1 POP PUSH1 0x3 PUSH1 0x0 SWAP1 SLOAD SWAP1 PUSH2 0x100 EXP SWAP1 DIV PUSH20 0xFFFFFFFFFFFFFFFFFFFFFFFFFFFFFFFFFFFFFFFF AND PUSH20 0xFFFFFFFFFFFFFFFFFFFFFFFFFFFFFFFFFFFFFFFF AND PUSH2 0x8FC DUP3 SWAP1 DUP2 ISZERO MUL SWAP1 PUSH1 0x40 MLOAD PUSH1 0x0 PUSH1 0x40 MLOAD DUP1 DUP4 SUB DUP2 DUP6 DUP9 DUP9 CALL SWAP4 POP POP POP POP ISZERO DUP1 ISZERO PUSH2 0x255 JUMPI RETURNDATASIZE PUSH1 0x0 DUP1 RETURNDATACOPY RETURNDATASIZE PUSH1 0x0 REVERT JUMPDEST POP PUSH1 0x3 PUSH1 0x0 SWAP1 SLOAD SWAP1 PUSH2 0x100 EXP SWAP1 DIV PUSH20 0xFFFFFFFFFFFFFFFFFFFFFFFFFFFFFFFFFFFFFFFF AND PUSH20 0xFFFFFFFFFFFFFFFFFFFFFFFFFFFFFFFFFFFFFFFF AND PUSH4 0x500255F ADDRESS DUP4 PUSH1 0x40 MLOAD DUP4 PUSH4 0xFFFFFFFF AND PUSH1 0xE0 SHL DUP2 MSTORE PUSH1 0x4 ADD PUSH2 0x2B3 SWAP3 SWAP2 SWAP1 PUSH2 0xA99 JUMP JUMPDEST PUSH1 0x0 PUSH1 0x40 MLOAD DUP1 DUP4 SUB DUP2 PUSH1 0x0 DUP8 DUP1 EXTCODESIZE ISZERO DUP1 ISZERO PUSH2 0x2CD JUMPI PUSH1 0x0 DUP1 REVERT JUMPDEST POP GAS CALL ISZERO DUP1 ISZERO PUSH2 0x2E1 JUMPI RETURNDATASIZE PUSH1 0x0 DUP1 RETURNDATACOPY RETURNDATASIZE PUSH1 0x0 REVERT JUMPDEST POP POP POP POP POP JUMP JUMPDEST PUSH1 0x0 PUSH2 0x2F2 PUSH2 0x41D JUMP JUMPDEST SWAP1 POP PUSH8 0xDE0B6B3A7640000 DUP2 LT ISZERO DUP1 ISZERO PUSH2 0x30C JUMPI POP PUSH1 0x0 CALLVALUE EQ JUMPDEST DUP1 PUSH2 0x31E JUMPI POP PUSH8 0xDE0B6B3A7640000 CALLVALUE EQ JUMPDEST DUP1 ISZERO PUSH2 0x35F JUMPI POP PUSH1 0x2 PUSH1 0x3 DUP2 GT ISZERO PUSH2 0x339 JUMPI PUSH2 0x338 PUSH2 0x959 JUMP JUMPDEST JUMPDEST PUSH1 0x0 DUP1 ADD PUSH1 0x0 SWAP1 SLOAD SWAP1 PUSH2 0x100 EXP SWAP1 DIV PUSH1 0xFF AND PUSH1 0x3 DUP2 GT ISZERO PUSH2 0x35D JUMPI PUSH2 0x35C PUSH2 0x959 JUMP JUMPDEST JUMPDEST EQ JUMPDEST PUSH2 0x368 JUMPI PUSH1 0x0 DUP1 REVERT JUMPDEST PUSH8 0xDE0B6B3A7640000 CALLVALUE EQ PUSH2 0x40F JUMPI PUSH1 0x3 PUSH1 0x0 SWAP1 SLOAD SWAP1 PUSH2 0x100 EXP SWAP1 DIV PUSH20 0xFFFFFFFFFFFFFFFFFFFFFFFFFFFFFFFFFFFFFFFF AND PUSH20 0xFFFFFFFFFFFFFFFFFFFFFFFFFFFFFFFFFFFFFFFF AND PUSH4 0xF701034E ADDRESS PUSH8 0xDE0B6B3A7640000 PUSH1 0x40 MLOAD DUP4 PUSH4 0xFFFFFFFF AND PUSH1 0xE0 SHL DUP2 MSTORE PUSH1 0x4 ADD PUSH2 0x3DC SWAP3 SWAP2 SWAP1 PUSH2 0xAFD JUMP JUMPDEST PUSH1 0x0 PUSH1 0x40 MLOAD DUP1 DUP4 SUB DUP2 PUSH1 0x0 DUP8 DUP1 EXTCODESIZE ISZERO DUP1 ISZERO PUSH2 0x3F6 JUMPI PUSH1 0x0 DUP1 REVERT JUMPDEST POP GAS CALL ISZERO DUP1 ISZERO PUSH2 0x40A JUMPI RETURNDATASIZE PUSH1 0x0 DUP1 RETURNDATACOPY RETURNDATASIZE PUSH1 0x0 REVERT JUMPDEST POP POP POP POP JUMPDEST PUSH1 0x64 PUSH1 0x0 PUSH1 0x1 ADD DUP2 SWAP1 SSTORE POP POP JUMP JUMPDEST PUSH1 0x0 DUP1 PUSH1 0x3 PUSH1 0x0 SWAP1 SLOAD SWAP1 PUSH2 0x100 EXP SWAP1 DIV PUSH20 0xFFFFFFFFFFFFFFFFFFFFFFFFFFFFFFFFFFFFFFFF AND PUSH20 0xFFFFFFFFFFFFFFFFFFFFFFFFFFFFFFFFFFFFFFFF AND PUSH4 0x4639A55A ADDRESS PUSH1 0x40 MLOAD DUP3 PUSH4 0xFFFFFFFF AND PUSH1 0xE0 SHL DUP2 MSTORE PUSH1 0x4 ADD PUSH2 0x47B SWAP2 SWAP1 PUSH2 0xB26 JUMP JUMPDEST PUSH1 0x20 PUSH1 0x40 MLOAD DUP1 DUP4 SUB DUP2 DUP7 GAS STATICCALL ISZERO DUP1 ISZERO PUSH2 0x498 JUMPI RETURNDATASIZE PUSH1 0x0 DUP1 RETURNDATACOPY RETURNDATASIZE PUSH1 0x0 REVERT JUMPDEST POP POP POP POP PUSH1 0x40 MLOAD RETURNDATASIZE PUSH1 0x1F NOT PUSH1 0x1F DUP3 ADD AND DUP3 ADD DUP1 PUSH1 0x40 MSTORE POP DUP2 ADD SWAP1 PUSH2 0x4BC SWAP2 SWAP1 PUSH2 0xB56 JUMP JUMPDEST SWAP1 POP DUP1 SWAP2 POP POP SWAP1 JUMP JUMPDEST PUSH1 0x0 DUP1 PUSH1 0x0 ADD PUSH1 0x0 SWAP1 SLOAD SWAP1 PUSH2 0x100 EXP SWAP1 DIV PUSH1 0xFF AND SWAP1 DUP1 PUSH1 0x1 ADD SLOAD SWAP1 DUP1 PUSH1 0x2 ADD SLOAD SWAP1 POP DUP4 JUMP JUMPDEST PUSH1 0x0 DUP1 PUSH1 0x2 ADD SLOAD EQ DUP1 ISZERO PUSH2 0x534 JUMPI POP PUSH1 0x2 PUSH1 0x3 DUP2 GT ISZERO PUSH2 0x50D JUMPI PUSH2 0x50C PUSH2 0x959 JUMP JUMPDEST JUMPDEST PUSH1 0x0 DUP1 ADD PUSH1 0x0 SWAP1 SLOAD SWAP1 PUSH2 0x100 EXP SWAP1 DIV PUSH1 0xFF AND PUSH1 0x3 DUP2 GT ISZERO PUSH2 0x531 JUMPI PUSH2 0x530 PUSH2 0x959 JUMP JUMPDEST JUMPDEST EQ ISZERO JUMPDEST PUSH2 0x53D JUMPI PUSH1 0x0 DUP1 REVERT JUMPDEST PUSH1 0x2 PUSH1 0x0 DUP1 ADD PUSH1 0x0 PUSH2 0x100 EXP DUP2 SLOAD DUP2 PUSH1 0xFF MUL NOT AND SWAP1 DUP4 PUSH1 0x3 DUP2 GT ISZERO PUSH2 0x565 JUMPI PUSH2 0x564 PUSH2 0x959 JUMP JUMPDEST JUMPDEST MUL OR SWAP1 SSTORE POP JUMP JUMPDEST PUSH1 0x0 DUP1 PUSH1 0x1 ADD SLOAD EQ ISZERO DUP1 ISZERO PUSH2 0x5B6 JUMPI POP PUSH1 0x2 PUSH1 0x3 DUP2 GT ISZERO PUSH2 0x590 JUMPI PUSH2 0x58F PUSH2 0x959 JUMP JUMPDEST JUMPDEST PUSH1 0x0 DUP1 ADD PUSH1 0x0 SWAP1 SLOAD SWAP1 PUSH2 0x100 EXP SWAP1 DIV PUSH1 0xFF AND PUSH1 0x3 DUP2 GT ISZERO PUSH2 0x5B4 JUMPI PUSH2 0x5B3 PUSH2 0x959 JUMP JUMPDEST JUMPDEST EQ JUMPDEST PUSH2 0x5BF JUMPI PUSH1 0x0 DUP1 REVERT JUMPDEST PUSH1 0x0 DUP1 PUSH1 0x0 ADD PUSH1 0x0 PUSH2 0x100 EXP DUP2 SLOAD DUP2 PUSH1 0xFF MUL NOT AND SWAP1 DUP4 PUSH1 0x3 DUP2 GT ISZERO PUSH2 0x5E7 JUMPI PUSH2 0x5E6 PUSH2 0x959 JUMP JUMPDEST JUMPDEST MUL OR SWAP1 SSTORE POP JUMP JUMPDEST JUMP JUMPDEST PUSH1 0x2 PUSH1 0x3 DUP2 GT ISZERO PUSH2 0x604 JUMPI PUSH2 0x603 PUSH2 0x959 JUMP JUMPDEST JUMPDEST PUSH1 0x0 DUP1 ADD PUSH1 0x0 SWAP1 SLOAD SWAP1 PUSH2 0x100 EXP SWAP1 DIV PUSH1 0xFF AND PUSH1 0x3 DUP2 GT ISZERO PUSH2 0x628 JUMPI PUSH2 0x627 PUSH2 0x959 JUMP JUMPDEST JUMPDEST EQ ISZERO DUP1 ISZERO PUSH2 0x66C JUMPI POP PUSH1 0x0 PUSH1 0x3 DUP2 GT ISZERO PUSH2 0x645 JUMPI PUSH2 0x644 PUSH2 0x959 JUMP JUMPDEST JUMPDEST PUSH1 0x0 DUP1 ADD PUSH1 0x0 SWAP1 SLOAD SWAP1 PUSH2 0x100 EXP SWAP1 DIV PUSH1 0xFF AND PUSH1 0x3 DUP2 GT ISZERO PUSH2 0x669 JUMPI PUSH2 0x668 PUSH2 0x959 JUMP JUMPDEST JUMPDEST EQ ISZERO JUMPDEST PUSH2 0x675 JUMPI PUSH1 0x0 DUP1 REVERT JUMPDEST PUSH1 0x0 PUSH1 0x2 ADD PUSH1 0x0 DUP2 SLOAD DUP1 SWAP3 SWAP2 SWAP1 PUSH2 0x68B SWAP1 PUSH2 0xB83 JUMP JUMPDEST SWAP2 SWAP1 POP SSTORE POP PUSH1 0x1 PUSH1 0x0 PUSH1 0x1 ADD PUSH1 0x0 DUP3 DUP3 SLOAD PUSH2 0x6A6 SWAP2 SWAP1 PUSH2 0xBAC JUMP JUMPDEST SWAP3 POP POP DUP2 SWAP1 SSTORE POP PUSH1 0x0 DUP1 PUSH1 0x2 ADD SLOAD SUB PUSH2 0x6E7 JUMPI PUSH1 0x0 DUP1 PUSH1 0x0 ADD PUSH1 0x0 PUSH2 0x100 EXP DUP2 SLOAD DUP2 PUSH1 0xFF MUL NOT AND SWAP1 DUP4 PUSH1 0x3 DUP2 GT ISZERO PUSH2 0x6E1 JUMPI PUSH2 0x6E0 PUSH2 0x959 JUMP JUMPDEST JUMPDEST MUL OR SWAP1 SSTORE POP JUMPDEST PUSH1 0x0 DUP1 PUSH1 0x1 ADD SLOAD SUB PUSH2 0x721 JUMPI PUSH1 0x3 PUSH1 0x0 DUP1 ADD PUSH1 0x0 PUSH2 0x100 EXP DUP2 SLOAD DUP2 PUSH1 0xFF MUL NOT AND SWAP1 DUP4 PUSH1 0x3 DUP2 GT ISZERO PUSH2 0x71B JUMPI PUSH2 0x71A PUSH2 0x959 JUMP JUMPDEST JUMPDEST MUL OR SWAP1 SSTORE POP JUMPDEST JUMP JUMPDEST PUSH1 0x1E PUSH1 0x0 PUSH1 0x1 ADD SLOAD GT DUP1 ISZERO PUSH2 0x73D JUMPI POP PUSH1 0x46 PUSH1 0x0 PUSH1 0x2 ADD SLOAD LT JUMPDEST DUP1 ISZERO PUSH2 0x77F JUMPI POP PUSH1 0x2 PUSH1 0x3 DUP2 GT ISZERO PUSH2 0x758 JUMPI PUSH2 0x757 PUSH2 0x959 JUMP JUMPDEST JUMPDEST PUSH1 0x0 DUP1 ADD PUSH1 0x0 SWAP1 SLOAD SWAP1 PUSH2 0x100 EXP SWAP1 DIV PUSH1 0xFF AND PUSH1 0x3 DUP2 GT ISZERO PUSH2 0x77C JUMPI PUSH2 0x77B PUSH2 0x959 JUMP JUMPDEST JUMPDEST EQ ISZERO JUMPDEST PUSH2 0x788 JUMPI PUSH1 0x0 DUP1 REVERT JUMPDEST PUSH1 0x1 PUSH1 0x3 DUP2 GT ISZERO PUSH2 0x79C JUMPI PUSH2 0x79B PUSH2 0x959 JUMP JUMPDEST JUMPDEST PUSH1 0x0 DUP1 ADD PUSH1 0x0 SWAP1 SLOAD SWAP1 PUSH2 0x100 EXP SWAP1 DIV PUSH1 0xFF AND PUSH1 0x3 DUP2 GT ISZERO PUSH2 0x7C0 JUMPI PUSH2 0x7BF PUSH2 0x959 JUMP JUMPDEST JUMPDEST EQ PUSH2 0x7F3 JUMPI PUSH1 0x1 PUSH1 0x0 DUP1 ADD PUSH1 0x0 PUSH2 0x100 EXP DUP2 SLOAD DUP2 PUSH1 0xFF MUL NOT AND SWAP1 DUP4 PUSH1 0x3 DUP2 GT ISZERO PUSH2 0x7ED JUMPI PUSH2 0x7EC PUSH2 0x959 JUMP JUMPDEST JUMPDEST MUL OR SWAP1 SSTORE POP JUMPDEST PUSH1 0x0 PUSH1 0x2 ADD PUSH1 0x0 DUP2 SLOAD DUP1 SWAP3 SWAP2 SWAP1 PUSH2 0x809 SWAP1 PUSH2 0xBE0 JUMP JUMPDEST SWAP2 SWAP1 POP SSTORE POP PUSH1 0x2 PUSH1 0x0 PUSH1 0x1 ADD PUSH1 0x0 DUP3 DUP3 SLOAD PUSH2 0x824 SWAP2 SWAP1 PUSH2 0xBAC JUMP JUMPDEST SWAP3 POP POP DUP2 SWAP1 SSTORE POP JUMP JUMPDEST PUSH1 0x0 PUSH20 0xFFFFFFFFFFFFFFFFFFFFFFFFFFFFFFFFFFFFFFFF DUP3 AND SWAP1 POP SWAP2 SWAP1 POP JUMP JUMPDEST PUSH1 0x0 DUP2 SWAP1 POP SWAP2 SWAP1 POP JUMP JUMPDEST PUSH1 0x0 PUSH2 0x872 PUSH2 0x86D PUSH2 0x868 DUP5 PUSH2 0x82D JUMP JUMPDEST PUSH2 0x84D JUMP JUMPDEST PUSH2 0x82D JUMP JUMPDEST SWAP1 POP SWAP2 SWAP1 POP JUMP JUMPDEST PUSH1 0x0 PUSH2 0x884 DUP3 PUSH2 0x857 JUMP JUMPDEST SWAP1 POP SWAP2 SWAP1 POP JUMP JUMPDEST PUSH1 0x0 PUSH2 0x896 DUP3 PUSH2 0x879 JUMP JUMPDEST SWAP1 POP SWAP2 SWAP1 POP JUMP JUMPDEST PUSH2 0x8A6 DUP2 PUSH2 0x88B JUMP JUMPDEST DUP3 MSTORE POP POP JUMP JUMPDEST PUSH1 0x0 PUSH1 0x20 DUP3 ADD SWAP1 POP PUSH2 0x8C1 PUSH1 0x0 DUP4 ADD DUP5 PUSH2 0x89D JUMP JUMPDEST SWAP3 SWAP2 POP POP JUMP JUMPDEST PUSH1 0x0 DUP1 REVERT JUMPDEST PUSH1 0x0 DUP2 SWAP1 POP SWAP2 SWAP1 POP JUMP JUMPDEST PUSH2 0x8DF DUP2 PUSH2 0x8CC JUMP JUMPDEST DUP2 EQ PUSH2 0x8EA JUMPI PUSH1 0x0 DUP1 REVERT JUMPDEST POP JUMP JUMPDEST PUSH1 0x0 DUP2 CALLDATALOAD SWAP1 POP PUSH2 0x8FC DUP2 PUSH2 0x8D6 JUMP JUMPDEST SWAP3 SWAP2 POP POP JUMP JUMPDEST PUSH1 0x0 PUSH1 0x20 DUP3 DUP5 SUB SLT ISZERO PUSH2 0x918 JUMPI PUSH2 0x917 PUSH2 0x8C7 JUMP JUMPDEST JUMPDEST PUSH1 0x0 PUSH2 0x926 DUP5 DUP3 DUP6 ADD PUSH2 0x8ED JUMP JUMPDEST SWAP2 POP POP SWAP3 SWAP2 POP POP JUMP JUMPDEST PUSH2 0x938 DUP2 PUSH2 0x8CC JUMP JUMPDEST DUP3 MSTORE POP POP JUMP JUMPDEST PUSH1 0x0 PUSH1 0x20 DUP3 ADD SWAP1 POP PUSH2 0x953 PUSH1 0x0 DUP4 ADD DUP5 PUSH2 0x92F JUMP JUMPDEST SWAP3 SWAP2 POP POP JUMP JUMPDEST PUSH32 0x4E487B7100000000000000000000000000000000000000000000000000000000 PUSH1 0x0 MSTORE PUSH1 0x21 PUSH1 0x4 MSTORE PUSH1 0x24 PUSH1 0x0 REVERT JUMPDEST PUSH1 0x4 DUP2 LT PUSH2 0x999 JUMPI PUSH2 0x998 PUSH2 0x959 JUMP JUMPDEST JUMPDEST POP JUMP JUMPDEST PUSH1 0x0 DUP2 SWAP1 POP PUSH2 0x9AA DUP3 PUSH2 0x988 JUMP JUMPDEST SWAP2 SWAP1 POP JUMP JUMPDEST PUSH1 0x0 PUSH2 0x9BA DUP3 PUSH2 0x99C JUMP JUMPDEST SWAP1 POP SWAP2 SWAP1 POP JUMP JUMPDEST PUSH2 0x9CA DUP2 PUSH2 0x9AF JUMP JUMPDEST DUP3 MSTORE POP POP JUMP JUMPDEST PUSH1 0x0 PUSH1 0x60 DUP3 ADD SWAP1 POP PUSH2 0x9E5 PUSH1 0x0 DUP4 ADD DUP7 PUSH2 0x9C1 JUMP JUMPDEST PUSH2 0x9F2 PUSH1 0x20 DUP4 ADD DUP6 PUSH2 0x92F JUMP JUMPDEST PUSH2 0x9FF PUSH1 0x40 DUP4 ADD DUP5 PUSH2 0x92F JUMP JUMPDEST SWAP5 SWAP4 POP POP POP POP JUMP JUMPDEST PUSH32 0x4E487B7100000000000000000000000000000000000000000000000000000000 PUSH1 0x0 MSTORE PUSH1 0x11 PUSH1 0x4 MSTORE PUSH1 0x24 PUSH1 0x0 REVERT JUMPDEST PUSH1 0x0 PUSH2 0xA41 DUP3 PUSH2 0x8CC JUMP JUMPDEST SWAP2 POP PUSH2 0xA4C DUP4 PUSH2 0x8CC JUMP JUMPDEST SWAP3 POP DUP3 DUP3 MUL PUSH2 0xA5A DUP2 PUSH2 0x8CC JUMP JUMPDEST SWAP2 POP DUP3 DUP3 DIV DUP5 EQ DUP4 ISZERO OR PUSH2 0xA71 JUMPI PUSH2 0xA70 PUSH2 0xA07 JUMP JUMPDEST JUMPDEST POP SWAP3 SWAP2 POP POP JUMP JUMPDEST PUSH1 0x0 PUSH2 0xA83 DUP3 PUSH2 0x82D JUMP JUMPDEST SWAP1 POP SWAP2 SWAP1 POP JUMP JUMPDEST PUSH2 0xA93 DUP2 PUSH2 0xA78 JUMP JUMPDEST DUP3 MSTORE POP POP JUMP JUMPDEST PUSH1 0x0 PUSH1 0x40 DUP3 ADD SWAP1 POP PUSH2 0xAAE PUSH1 0x0 DUP4 ADD DUP6 PUSH2 0xA8A JUMP JUMPDEST PUSH2 0xABB PUSH1 0x20 DUP4 ADD DUP5 PUSH2 0x92F JUMP JUMPDEST SWAP4 SWAP3 POP POP POP JUMP JUMPDEST PUSH1 0x0 DUP2 SWAP1 POP SWAP2 SWAP1 POP JUMP JUMPDEST PUSH1 0x0 PUSH2 0xAE7 PUSH2 0xAE2 PUSH2 0xADD DUP5 PUSH2 0xAC2 JUMP JUMPDEST PUSH2 0x84D JUMP JUMPDEST PUSH2 0x8CC JUMP JUMPDEST SWAP1 POP SWAP2 SWAP1 POP JUMP JUMPDEST PUSH2 0xAF7 DUP2 PUSH2 0xACC JUMP JUMPDEST DUP3 MSTORE POP POP JUMP JUMPDEST PUSH1 0x0 PUSH1 0x40 DUP3 ADD SWAP1 POP PUSH2 0xB12 PUSH1 0x0 DUP4 ADD DUP6 PUSH2 0xA8A JUMP JUMPDEST PUSH2 0xB1F PUSH1 0x20 DUP4 ADD DUP5 PUSH2 0xAEE JUMP JUMPDEST SWAP4 SWAP3 POP POP POP JUMP JUMPDEST PUSH1 0x0 PUSH1 0x20 DUP3 ADD SWAP1 POP PUSH2 0xB3B PUSH1 0x0 DUP4 ADD DUP5 PUSH2 0xA8A JUMP JUMPDEST SWAP3 SWAP2 POP POP JUMP JUMPDEST PUSH1 0x0 DUP2 MLOAD SWAP1 POP PUSH2 0xB50 DUP2 PUSH2 0x8D6 JUMP JUMPDEST SWAP3 SWAP2 POP POP JUMP JUMPDEST PUSH1 0x0 PUSH1 0x20 DUP3 DUP5 SUB SLT ISZERO PUSH2 0xB6C JUMPI PUSH2 0xB6B PUSH2 0x8C7 JUMP JUMPDEST JUMPDEST PUSH1 0x0 PUSH2 0xB7A DUP5 DUP3 DUP6 ADD PUSH2 0xB41 JUMP JUMPDEST SWAP2 POP POP SWAP3 SWAP2 POP POP JUMP JUMPDEST PUSH1 0x0 PUSH2 0xB8E DUP3 PUSH2 0x8CC JUMP JUMPDEST SWAP2 POP PUSH1 0x0 DUP3 SUB PUSH2 0xBA1 JUMPI PUSH2 0xBA0 PUSH2 0xA07 JUMP JUMPDEST JUMPDEST PUSH1 0x1 DUP3 SUB SWAP1 POP SWAP2 SWAP1 POP JUMP JUMPDEST PUSH1 0x0 PUSH2 0xBB7 DUP3 PUSH2 0x8CC JUMP JUMPDEST SWAP2 POP PUSH2 0xBC2 DUP4 PUSH2 0x8CC JUMP JUMPDEST SWAP3 POP DUP3 DUP3 SUB SWAP1 POP DUP2 DUP2 GT ISZERO PUSH2 0xBDA JUMPI PUSH2 0xBD9 PUSH2 0xA07 JUMP JUMPDEST JUMPDEST SWAP3 SWAP2 POP POP JUMP JUMPDEST PUSH1 0x0 PUSH2 0xBEB DUP3 PUSH2 0x8CC JUMP JUMPDEST SWAP2 POP PUSH32 0xFFFFFFFFFFFFFFFFFFFFFFFFFFFFFFFFFFFFFFFFFFFFFFFFFFFFFFFFFFFFFFFF DUP3 SUB PUSH2 0xC1D JUMPI PUSH2 0xC1C PUSH2 0xA07 JUMP JUMPDEST JUMPDEST PUSH1 0x1 DUP3 ADD SWAP1 POP SWAP2 SWAP1 POP JUMP INVALID LOG2 PUSH5 0x6970667358 0x22 SLT KECCAK256 0x5F MSIZE 0xC8 CREATE 0xF CREATE 0xB2 0xD1 0xD9 SWAP7 DUP14 PUSH26 0xFE84DCBF84F385507E8534CF119419181FE9121A64736F6C6343 STOP ADDMOD SLT STOP CALLER "
				},
				"gasEstimates": {
					"creation": {
						"codeDepositCost": "633200",
						"executionCost": "infinite",
						"totalCost": "infinite"
					},
					"external": {
						"accel()": "infinite",
						"brakeCar()": "infinite",
						"deposit()": "164",
						"depositToGS(uint256)": "infinite",
						"getPrePaid()": "infinite",
						"gs()": "infinite",
						"myCar()": "infinite",
						"reCharge()": "infinite",
						"turnOff()": "28794",
						"turnOn()": "28816"
					}
				},
				"methodIdentifiers": {
					"accel()": "f282df78",
					"brakeCar()": "e35575d2",
					"deposit()": "d0e30db0",
					"depositToGS(uint256)": "075c478a",
					"getPrePaid()": "37de45f8",
					"gs()": "00e71aaf",
					"myCar()": "9cdde813",
					"reCharge()": "3446136a",
					"turnOff()": "af10c810",
					"turnOn()": "ba33ed7d"
				}
			},
			"storageLayout": {
				"storage": [
					{
						"astId": 178,
						"contract": "contracts/0515/Quiz.sol:Solution",
						"label": "myCar",
						"offset": 0,
						"slot": "0",
						"type": "t_struct(car)175_storage"
					},
					{
						"astId": 331,
						"contract": "contracts/0515/Quiz.sol:Solution",
						"label": "gs",
						"offset": 0,
						"slot": "3",
						"type": "t_contract(GASSTATION)533"
					}
				],
				"types": {
					"t_contract(GASSTATION)533": {
						"encoding": "inplace",
						"label": "contract GASSTATION",
						"numberOfBytes": "20"
					},
					"t_enum(carStatus)167": {
						"encoding": "inplace",
						"label": "enum Solution.carStatus",
						"numberOfBytes": "1"
					},
					"t_struct(car)175_storage": {
						"encoding": "inplace",
						"label": "struct Solution.car",
						"members": [
							{
								"astId": 170,
								"contract": "contracts/0515/Quiz.sol:Solution",
								"label": "status",
								"offset": 0,
								"slot": "0",
								"type": "t_enum(carStatus)167"
							},
							{
								"astId": 172,
								"contract": "contracts/0515/Quiz.sol:Solution",
								"label": "fuelGauge",
								"offset": 0,
								"slot": "1",
								"type": "t_uint256"
							},
							{
								"astId": 174,
								"contract": "contracts/0515/Quiz.sol:Solution",
								"label": "speed",
								"offset": 0,
								"slot": "2",
								"type": "t_uint256"
							}
						],
						"numberOfBytes": "96"
					},
					"t_uint256": {
						"encoding": "inplace",
						"label": "uint256",
						"numberOfBytes": "32"
					}
				}
			},
			"userdoc": {
				"kind": "user",
				"methods": {},
				"version": 1
			}
		}
	}
}