{
	"contracts/0515/Quiz.sol": {
		"Quiz": {
			"abi": [
				{
					"inputs": [],
					"name": "Accel",
					"outputs": [],
					"stateMutability": "nonpayable",
					"type": "function"
				},
				{
					"inputs": [],
					"name": "PowerOff",
					"outputs": [],
					"stateMutability": "nonpayable",
					"type": "function"
				},
				{
					"inputs": [],
					"name": "PowerOn",
					"outputs": [],
					"stateMutability": "nonpayable",
					"type": "function"
				},
				{
					"inputs": [],
					"name": "Refuel",
					"outputs": [],
					"stateMutability": "payable",
					"type": "function"
				},
				{
					"inputs": [],
					"name": "brake",
					"outputs": [],
					"stateMutability": "nonpayable",
					"type": "function"
				},
				{
					"inputs": [],
					"name": "getSt",
					"outputs": [
						{
							"internalType": "enum Quiz.Status",
							"name": "",
							"type": "uint8"
						}
					],
					"stateMutability": "view",
					"type": "function"
				},
				{
					"inputs": [],
					"name": "setSt",
					"outputs": [],
					"stateMutability": "nonpayable",
					"type": "function"
				},
				{
					"inputs": [
						{
							"internalType": "uint256",
							"name": "_amount",
							"type": "uint256"
						}
					],
					"name": "withdraw",
					"outputs": [],
					"stateMutability": "nonpayable",
					"type": "function"
				},
				{
					"stateMutability": "payable",
					"type": "receive"
				}
			],
			"devdoc": {
				"kind": "dev",
				"methods": {},
				"version": 1
			},
			"evm": {
				"assembly": "    /* \"contracts/0515/Quiz.sol\":69:2831  contract Quiz{... */\n  mstore(0x40, 0x80)\n    /* \"contracts/0515/Quiz.sol\":453:454  0 */\n  0x00\n    /* \"contracts/0515/Quiz.sol\":440:454  uint speed = 0 */\n  0x01\n  sstore\n    /* \"contracts/0515/Quiz.sol\":472:475  100 */\n  0x64\n    /* \"contracts/0515/Quiz.sol\":461:475  uint gas = 100 */\n  0x02\n  sstore\n    /* \"contracts/0515/Quiz.sol\":2503:2545  0xAb8483F64d9C6d1EcF9b849Ae677dD3315835cb2 */\n  0xab8483f64d9c6d1ecf9b849ae677dd3315835cb2\n    /* \"contracts/0515/Quiz.sol\":2482:2545  address GasStation = 0xAb8483F64d9C6d1EcF9b849Ae677dD3315835cb2 */\n  0x03\n  exp(0x0100, 0x00)\n  dup2\n  sload\n  dup2\n  0xffffffffffffffffffffffffffffffffffffffff\n  mul\n  not\n  and\n  swap1\n  dup4\n  0xffffffffffffffffffffffffffffffffffffffff\n  and\n  mul\n  or\n  swap1\n  sstore\n  pop\n    /* \"contracts/0515/Quiz.sol\":69:2831  contract Quiz{... */\n  callvalue\n  dup1\n  iszero\n  tag_1\n  jumpi\n  0x00\n  dup1\n  revert\ntag_1:\n  pop\n  dataSize(sub_0)\n  dup1\n  dataOffset(sub_0)\n  0x00\n  codecopy\n  0x00\n  return\nstop\n\nsub_0: assembly {\n        /* \"contracts/0515/Quiz.sol\":69:2831  contract Quiz{... */\n      mstore(0x40, 0x80)\n      jumpi(tag_1, lt(calldatasize, 0x04))\n      shr(0xe0, calldataload(0x00))\n      dup1\n      0x8a9baaa9\n      gt\n      tag_11\n      jumpi\n      dup1\n      0x8a9baaa9\n      eq\n      tag_7\n      jumpi\n      dup1\n      0xd2ccdbf8\n      eq\n      tag_8\n      jumpi\n      dup1\n      0xecdcf87f\n      eq\n      tag_9\n      jumpi\n      dup1\n      0xf56df7c6\n      eq\n      tag_10\n      jumpi\n      jump(tag_2)\n    tag_11:\n      dup1\n      0x2e1a7d4d\n      eq\n      tag_3\n      jumpi\n      dup1\n      0x34d65946\n      eq\n      tag_4\n      jumpi\n      dup1\n      0x3f10cc67\n      eq\n      tag_5\n      jumpi\n      dup1\n      0x5642e2dc\n      eq\n      tag_6\n      jumpi\n      jump(tag_2)\n    tag_1:\n      jumpi(tag_2, calldatasize)\n      stop\n    tag_2:\n      0x00\n      dup1\n      revert\n        /* \"contracts/0515/Quiz.sol\":2552:2712  function withdraw(uint _amount) public {... */\n    tag_3:\n      callvalue\n      dup1\n      iszero\n      tag_14\n      jumpi\n      0x00\n      dup1\n      revert\n    tag_14:\n      pop\n      tag_15\n      0x04\n      dup1\n      calldatasize\n      sub\n      dup2\n      add\n      swap1\n      tag_16\n      swap2\n      swap1\n      tag_17\n      jump\t// in\n    tag_16:\n      tag_18\n      jump\t// in\n    tag_15:\n      stop\n        /* \"contracts/0515/Quiz.sol\":1033:1153  function Accel () public {... */\n    tag_4:\n      callvalue\n      dup1\n      iszero\n      tag_19\n      jumpi\n      0x00\n      dup1\n      revert\n    tag_19:\n      pop\n      tag_20\n      tag_21\n      jump\t// in\n    tag_20:\n      stop\n        /* \"contracts/0515/Quiz.sol\":1595:1708  function PowerOff () public {... */\n    tag_5:\n      callvalue\n      dup1\n      iszero\n      tag_22\n      jumpi\n      0x00\n      dup1\n      revert\n    tag_22:\n      pop\n      tag_23\n      tag_24\n      jump\t// in\n    tag_23:\n      stop\n        /* \"contracts/0515/Quiz.sol\":1364:1478  function brake () public {... */\n    tag_6:\n      callvalue\n      dup1\n      iszero\n      tag_25\n      jumpi\n      0x00\n      dup1\n      revert\n    tag_25:\n      pop\n      tag_26\n      tag_27\n      jump\t// in\n    tag_26:\n      stop\n        /* \"contracts/0515/Quiz.sol\":569:712  function setSt() public {... */\n    tag_7:\n      callvalue\n      dup1\n      iszero\n      tag_28\n      jumpi\n      0x00\n      dup1\n      revert\n    tag_28:\n      pop\n      tag_29\n      tag_30\n      jump\t// in\n    tag_29:\n      stop\n        /* \"contracts/0515/Quiz.sol\":1816:1932  function PowerOn () public{... */\n    tag_8:\n      callvalue\n      dup1\n      iszero\n      tag_31\n      jumpi\n      0x00\n      dup1\n      revert\n    tag_31:\n      pop\n      tag_32\n      tag_33\n      jump\t// in\n    tag_32:\n      stop\n        /* \"contracts/0515/Quiz.sol\":720:794  function getSt() public view returns (Status ){... */\n    tag_9:\n      callvalue\n      dup1\n      iszero\n      tag_34\n      jumpi\n      0x00\n      dup1\n      revert\n    tag_34:\n      pop\n      tag_35\n      tag_36\n      jump\t// in\n    tag_35:\n      mload(0x40)\n      tag_37\n      swap2\n      swap1\n      tag_38\n      jump\t// in\n    tag_37:\n      mload(0x40)\n      dup1\n      swap2\n      sub\n      swap1\n      return\n        /* \"contracts/0515/Quiz.sol\":2050:2182  function Refuel() payable public {... */\n    tag_10:\n      tag_39\n      tag_40\n      jump\t// in\n    tag_39:\n      stop\n        /* \"contracts/0515/Quiz.sol\":2552:2712  function withdraw(uint _amount) public {... */\n    tag_18:\n        /* \"contracts/0515/Quiz.sol\":2624:2634  GasStation */\n      0x03\n      0x00\n      swap1\n      sload\n      swap1\n      0x0100\n      exp\n      swap1\n      div\n      0xffffffffffffffffffffffffffffffffffffffff\n      and\n        /* \"contracts/0515/Quiz.sol\":2610:2634  msg.sender == GasStation */\n      0xffffffffffffffffffffffffffffffffffffffff\n      and\n        /* \"contracts/0515/Quiz.sol\":2610:2620  msg.sender */\n      caller\n        /* \"contracts/0515/Quiz.sol\":2610:2634  msg.sender == GasStation */\n      0xffffffffffffffffffffffffffffffffffffffff\n      and\n      eq\n        /* \"contracts/0515/Quiz.sol\":2602:2662  require(msg.sender == GasStation, \"Sender isn't GasStation\") */\n      tag_42\n      jumpi\n      mload(0x40)\n      0x08c379a000000000000000000000000000000000000000000000000000000000\n      dup2\n      mstore\n      0x04\n      add\n      tag_43\n      swap1\n      tag_44\n      jump\t// in\n    tag_43:\n      mload(0x40)\n      dup1\n      swap2\n      sub\n      swap1\n      revert\n    tag_42:\n        /* \"contracts/0515/Quiz.sol\":2681:2685  this */\n      address\n        /* \"contracts/0515/Quiz.sol\":2673:2695  payable(this).transfer */\n      0xffffffffffffffffffffffffffffffffffffffff\n      and\n        /* \"contracts/0515/Quiz.sol\":2673:2704  payable(this).transfer(_amount) */\n      0x08fc\n        /* \"contracts/0515/Quiz.sol\":2696:2703  _amount */\n      dup3\n        /* \"contracts/0515/Quiz.sol\":2673:2704  payable(this).transfer(_amount) */\n      swap1\n      dup2\n      iszero\n      mul\n      swap1\n      mload(0x40)\n      0x00\n      mload(0x40)\n      dup1\n      dup4\n      sub\n      dup2\n      dup6\n      dup9\n      dup9\n      call\n      swap4\n      pop\n      pop\n      pop\n      pop\n      iszero\n      dup1\n      iszero\n      tag_46\n      jumpi\n      returndatasize\n      0x00\n      dup1\n      returndatacopy\n      revert(0x00, returndatasize)\n    tag_46:\n      pop\n        /* \"contracts/0515/Quiz.sol\":2552:2712  function withdraw(uint _amount) public {... */\n      pop\n      jump\t// out\n        /* \"contracts/0515/Quiz.sol\":1033:1153  function Accel () public {... */\n    tag_21:\n        /* \"contracts/0515/Quiz.sol\":1082:1084  30 */\n      0x1e\n        /* \"contracts/0515/Quiz.sol\":1077:1080  gas */\n      sload(0x02)\n        /* \"contracts/0515/Quiz.sol\":1077:1084  gas>=30 */\n      lt\n      iszero\n        /* \"contracts/0515/Quiz.sol\":1077:1095  gas>=30 && gas<=70 */\n      dup1\n      iszero\n      tag_48\n      jumpi\n      pop\n        /* \"contracts/0515/Quiz.sol\":1093:1095  70 */\n      0x46\n        /* \"contracts/0515/Quiz.sol\":1088:1091  gas */\n      sload(0x02)\n        /* \"contracts/0515/Quiz.sol\":1088:1095  gas<=70 */\n      gt\n      iszero\n        /* \"contracts/0515/Quiz.sol\":1077:1095  gas>=30 && gas<=70 */\n    tag_48:\n        /* \"contracts/0515/Quiz.sol\":1069:1096  require(gas>=30 && gas<=70) */\n      tag_49\n      jumpi\n      0x00\n      dup1\n      revert\n    tag_49:\n        /* \"contracts/0515/Quiz.sol\":1115:1120  speed */\n      0x01\n      0x00\n        /* \"contracts/0515/Quiz.sol\":1115:1122  speed++ */\n      dup2\n      sload\n      dup1\n      swap3\n      swap2\n      swap1\n      tag_50\n      swap1\n      tag_51\n      jump\t// in\n    tag_50:\n      swap2\n      swap1\n      pop\n      sstore\n      pop\n        /* \"contracts/0515/Quiz.sol\":1144:1145  2 */\n      0x02\n        /* \"contracts/0515/Quiz.sol\":1139:1142  gas */\n      dup1\n      sload\n        /* \"contracts/0515/Quiz.sol\":1139:1145  gas -2 */\n      tag_52\n      swap2\n      swap1\n      tag_53\n      jump\t// in\n    tag_52:\n        /* \"contracts/0515/Quiz.sol\":1133:1136  gas */\n      0x02\n        /* \"contracts/0515/Quiz.sol\":1133:1145  gas = gas -2 */\n      dup2\n      swap1\n      sstore\n      pop\n        /* \"contracts/0515/Quiz.sol\":1033:1153  function Accel () public {... */\n      jump\t// out\n        /* \"contracts/0515/Quiz.sol\":1595:1708  function PowerOff () public {... */\n    tag_24:\n        /* \"contracts/0515/Quiz.sol\":1651:1652  0 */\n      0x00\n        /* \"contracts/0515/Quiz.sol\":1642:1647  speed */\n      sload(0x01)\n        /* \"contracts/0515/Quiz.sol\":1642:1652  speed == 0 */\n      eq\n        /* \"contracts/0515/Quiz.sol\":1634:1674  require(speed == 0, \"Speed is not zero\") */\n      tag_55\n      jumpi\n      mload(0x40)\n      0x08c379a000000000000000000000000000000000000000000000000000000000\n      dup2\n      mstore\n      0x04\n      add\n      tag_56\n      swap1\n      tag_57\n      jump\t// in\n    tag_56:\n      mload(0x40)\n      dup1\n      swap2\n      sub\n      swap1\n      revert\n    tag_55:\n        /* \"contracts/0515/Quiz.sol\":1690:1700  Status.End */\n      0x02\n        /* \"contracts/0515/Quiz.sol\":1685:1687  st */\n      0x00\n      dup1\n        /* \"contracts/0515/Quiz.sol\":1685:1700  st = Status.End */\n      0x0100\n      exp\n      dup2\n      sload\n      dup2\n      0xff\n      mul\n      not\n      and\n      swap1\n      dup4\n      0x03\n      dup2\n      gt\n      iszero\n      tag_58\n      jumpi\n      tag_59\n      tag_60\n      jump\t// in\n    tag_59:\n    tag_58:\n      mul\n      or\n      swap1\n      sstore\n      pop\n        /* \"contracts/0515/Quiz.sol\":1595:1708  function PowerOff () public {... */\n      jump\t// out\n        /* \"contracts/0515/Quiz.sol\":1364:1478  function brake () public {... */\n    tag_27:\n        /* \"contracts/0515/Quiz.sol\":1415:1416  0 */\n      0x00\n        /* \"contracts/0515/Quiz.sol\":1408:1413  speed */\n      sload(0x01)\n        /* \"contracts/0515/Quiz.sol\":1408:1416  speed!=0 */\n      sub\n        /* \"contracts/0515/Quiz.sol\":1400:1417  require(speed!=0) */\n      tag_62\n      jumpi\n      0x00\n      dup1\n      revert\n    tag_62:\n        /* \"contracts/0515/Quiz.sol\":1432:1437  speed */\n      0x01\n      0x00\n        /* \"contracts/0515/Quiz.sol\":1432:1439  speed-- */\n      dup2\n      sload\n      dup1\n      swap3\n      swap2\n      swap1\n      tag_63\n      swap1\n      tag_64\n      jump\t// in\n    tag_63:\n      swap2\n      swap1\n      pop\n      sstore\n      pop\n        /* \"contracts/0515/Quiz.sol\":1454:1457  gas */\n      0x02\n      0x00\n        /* \"contracts/0515/Quiz.sol\":1454:1460  gas -- */\n      dup2\n      sload\n      dup1\n      swap3\n      swap2\n      swap1\n      tag_65\n      swap1\n      tag_64\n      jump\t// in\n    tag_65:\n      swap2\n      swap1\n      pop\n      sstore\n      pop\n        /* \"contracts/0515/Quiz.sol\":1364:1478  function brake () public {... */\n      jump\t// out\n        /* \"contracts/0515/Quiz.sol\":569:712  function setSt() public {... */\n    tag_30:\n        /* \"contracts/0515/Quiz.sol\":616:617  0 */\n      0x00\n        /* \"contracts/0515/Quiz.sol\":607:612  speed */\n      sload(0x01)\n        /* \"contracts/0515/Quiz.sol\":607:617  speed == 0 */\n      sub\n        /* \"contracts/0515/Quiz.sol\":604:705  if(speed == 0) {... */\n      tag_67\n      jumpi\n        /* \"contracts/0515/Quiz.sol\":636:647  Status.Stop */\n      0x00\n        /* \"contracts/0515/Quiz.sol\":631:633  st */\n      dup1\n      0x00\n        /* \"contracts/0515/Quiz.sol\":631:647  st = Status.Stop */\n      0x0100\n      exp\n      dup2\n      sload\n      dup2\n      0xff\n      mul\n      not\n      and\n      swap1\n      dup4\n      0x03\n      dup2\n      gt\n      iszero\n      tag_68\n      jumpi\n      tag_69\n      tag_60\n      jump\t// in\n    tag_69:\n    tag_68:\n      mul\n      or\n      swap1\n      sstore\n      pop\n        /* \"contracts/0515/Quiz.sol\":604:705  if(speed == 0) {... */\n      jump(tag_70)\n    tag_67:\n        /* \"contracts/0515/Quiz.sol\":681:695  Status.Driving */\n      0x01\n        /* \"contracts/0515/Quiz.sol\":676:678  st */\n      0x00\n      dup1\n        /* \"contracts/0515/Quiz.sol\":676:695  st = Status.Driving */\n      0x0100\n      exp\n      dup2\n      sload\n      dup2\n      0xff\n      mul\n      not\n      and\n      swap1\n      dup4\n      0x03\n      dup2\n      gt\n      iszero\n      tag_71\n      jumpi\n      tag_72\n      tag_60\n      jump\t// in\n    tag_72:\n    tag_71:\n      mul\n      or\n      swap1\n      sstore\n      pop\n        /* \"contracts/0515/Quiz.sol\":604:705  if(speed == 0) {... */\n    tag_70:\n        /* \"contracts/0515/Quiz.sol\":569:712  function setSt() public {... */\n      jump\t// out\n        /* \"contracts/0515/Quiz.sol\":1816:1932  function PowerOn () public{... */\n    tag_33:\n        /* \"contracts/0515/Quiz.sol\":1867:1877  Status.End */\n      0x02\n        /* \"contracts/0515/Quiz.sol\":1861:1877  st == Status.End */\n      0x03\n      dup2\n      gt\n      iszero\n      tag_74\n      jumpi\n      tag_75\n      tag_60\n      jump\t// in\n    tag_75:\n    tag_74:\n        /* \"contracts/0515/Quiz.sol\":1861:1863  st */\n      0x00\n      dup1\n      sload\n      swap1\n      0x0100\n      exp\n      swap1\n      div\n      0xff\n      and\n        /* \"contracts/0515/Quiz.sol\":1861:1877  st == Status.End */\n      0x03\n      dup2\n      gt\n      iszero\n      tag_76\n      jumpi\n      tag_77\n      tag_60\n      jump\t// in\n    tag_77:\n    tag_76:\n      eq\n        /* \"contracts/0515/Quiz.sol\":1853:1895  require(st == Status.End, \"Not Power Off\") */\n      tag_78\n      jumpi\n      mload(0x40)\n      0x08c379a000000000000000000000000000000000000000000000000000000000\n      dup2\n      mstore\n      0x04\n      add\n      tag_79\n      swap1\n      tag_80\n      jump\t// in\n    tag_79:\n      mload(0x40)\n      dup1\n      swap2\n      sub\n      swap1\n      revert\n    tag_78:\n        /* \"contracts/0515/Quiz.sol\":1911:1922  Status.Stop */\n      0x00\n        /* \"contracts/0515/Quiz.sol\":1906:1908  st */\n      dup1\n      0x00\n        /* \"contracts/0515/Quiz.sol\":1906:1922  st = Status.Stop */\n      0x0100\n      exp\n      dup2\n      sload\n      dup2\n      0xff\n      mul\n      not\n      and\n      swap1\n      dup4\n      0x03\n      dup2\n      gt\n      iszero\n      tag_81\n      jumpi\n      tag_82\n      tag_60\n      jump\t// in\n    tag_82:\n    tag_81:\n      mul\n      or\n      swap1\n      sstore\n      pop\n        /* \"contracts/0515/Quiz.sol\":1816:1932  function PowerOn () public{... */\n      jump\t// out\n        /* \"contracts/0515/Quiz.sol\":720:794  function getSt() public view returns (Status ){... */\n    tag_36:\n        /* \"contracts/0515/Quiz.sol\":758:764  Status */\n      0x00\n        /* \"contracts/0515/Quiz.sol\":784:786  st */\n      dup1\n      0x00\n      swap1\n      sload\n      swap1\n      0x0100\n      exp\n      swap1\n      div\n      0xff\n      and\n        /* \"contracts/0515/Quiz.sol\":777:786  return st */\n      swap1\n      pop\n        /* \"contracts/0515/Quiz.sol\":720:794  function getSt() public view returns (Status ){... */\n      swap1\n      jump\t// out\n        /* \"contracts/0515/Quiz.sol\":2050:2182  function Refuel() payable public {... */\n    tag_40:\n        /* \"contracts/0515/Quiz.sol\":2116:2123  1 ether */\n      0x0de0b6b3a7640000\n        /* \"contracts/0515/Quiz.sol\":2103:2112  msg.value */\n      callvalue\n        /* \"contracts/0515/Quiz.sol\":2103:2123  msg.value == 1 ether */\n      eq\n        /* \"contracts/0515/Quiz.sol\":2095:2153  require(msg.value == 1 ether, \"Please send exactly 1 ETH\") */\n      tag_85\n      jumpi\n      mload(0x40)\n      0x08c379a000000000000000000000000000000000000000000000000000000000\n      dup2\n      mstore\n      0x04\n      add\n      tag_86\n      swap1\n      tag_87\n      jump\t// in\n    tag_86:\n      mload(0x40)\n      dup1\n      swap2\n      sub\n      swap1\n      revert\n    tag_85:\n        /* \"contracts/0515/Quiz.sol\":2171:2174  100 */\n      0x64\n        /* \"contracts/0515/Quiz.sol\":2165:2168  gas */\n      0x02\n        /* \"contracts/0515/Quiz.sol\":2165:2174  gas = 100 */\n      dup2\n      swap1\n      sstore\n      pop\n        /* \"contracts/0515/Quiz.sol\":2050:2182  function Refuel() payable public {... */\n      jump\t// out\n        /* \"#utility.yul\":88:205   */\n    tag_89:\n        /* \"#utility.yul\":197:198   */\n      0x00\n        /* \"#utility.yul\":194:195   */\n      dup1\n        /* \"#utility.yul\":187:199   */\n      revert\n        /* \"#utility.yul\":334:411   */\n    tag_91:\n        /* \"#utility.yul\":371:378   */\n      0x00\n        /* \"#utility.yul\":400:405   */\n      dup2\n        /* \"#utility.yul\":389:405   */\n      swap1\n      pop\n        /* \"#utility.yul\":334:411   */\n      swap2\n      swap1\n      pop\n      jump\t// out\n        /* \"#utility.yul\":417:539   */\n    tag_92:\n        /* \"#utility.yul\":490:514   */\n      tag_114\n        /* \"#utility.yul\":508:513   */\n      dup2\n        /* \"#utility.yul\":490:514   */\n      tag_91\n      jump\t// in\n    tag_114:\n        /* \"#utility.yul\":483:488   */\n      dup2\n        /* \"#utility.yul\":480:515   */\n      eq\n        /* \"#utility.yul\":470:533   */\n      tag_115\n      jumpi\n        /* \"#utility.yul\":529:530   */\n      0x00\n        /* \"#utility.yul\":526:527   */\n      dup1\n        /* \"#utility.yul\":519:531   */\n      revert\n        /* \"#utility.yul\":470:533   */\n    tag_115:\n        /* \"#utility.yul\":417:539   */\n      pop\n      jump\t// out\n        /* \"#utility.yul\":545:684   */\n    tag_93:\n        /* \"#utility.yul\":591:596   */\n      0x00\n        /* \"#utility.yul\":629:635   */\n      dup2\n        /* \"#utility.yul\":616:636   */\n      calldataload\n        /* \"#utility.yul\":607:636   */\n      swap1\n      pop\n        /* \"#utility.yul\":645:678   */\n      tag_117\n        /* \"#utility.yul\":672:677   */\n      dup2\n        /* \"#utility.yul\":645:678   */\n      tag_92\n      jump\t// in\n    tag_117:\n        /* \"#utility.yul\":545:684   */\n      swap3\n      swap2\n      pop\n      pop\n      jump\t// out\n        /* \"#utility.yul\":690:1019   */\n    tag_17:\n        /* \"#utility.yul\":749:755   */\n      0x00\n        /* \"#utility.yul\":798:800   */\n      0x20\n        /* \"#utility.yul\":786:795   */\n      dup3\n        /* \"#utility.yul\":777:784   */\n      dup5\n        /* \"#utility.yul\":773:796   */\n      sub\n        /* \"#utility.yul\":769:801   */\n      slt\n        /* \"#utility.yul\":766:885   */\n      iszero\n      tag_119\n      jumpi\n        /* \"#utility.yul\":804:883   */\n      tag_120\n      tag_89\n      jump\t// in\n    tag_120:\n        /* \"#utility.yul\":766:885   */\n    tag_119:\n        /* \"#utility.yul\":924:925   */\n      0x00\n        /* \"#utility.yul\":949:1002   */\n      tag_121\n        /* \"#utility.yul\":994:1001   */\n      dup5\n        /* \"#utility.yul\":985:991   */\n      dup3\n        /* \"#utility.yul\":974:983   */\n      dup6\n        /* \"#utility.yul\":970:992   */\n      add\n        /* \"#utility.yul\":949:1002   */\n      tag_93\n      jump\t// in\n    tag_121:\n        /* \"#utility.yul\":939:1002   */\n      swap2\n      pop\n        /* \"#utility.yul\":895:1012   */\n      pop\n        /* \"#utility.yul\":690:1019   */\n      swap3\n      swap2\n      pop\n      pop\n      jump\t// out\n        /* \"#utility.yul\":1025:1205   */\n    tag_60:\n        /* \"#utility.yul\":1073:1150   */\n      0x4e487b7100000000000000000000000000000000000000000000000000000000\n        /* \"#utility.yul\":1070:1071   */\n      0x00\n        /* \"#utility.yul\":1063:1151   */\n      mstore\n        /* \"#utility.yul\":1170:1174   */\n      0x21\n        /* \"#utility.yul\":1167:1168   */\n      0x04\n        /* \"#utility.yul\":1160:1175   */\n      mstore\n        /* \"#utility.yul\":1194:1198   */\n      0x24\n        /* \"#utility.yul\":1191:1192   */\n      0x00\n        /* \"#utility.yul\":1184:1199   */\n      revert\n        /* \"#utility.yul\":1211:1324   */\n    tag_94:\n        /* \"#utility.yul\":1292:1293   */\n      0x04\n        /* \"#utility.yul\":1285:1290   */\n      dup2\n        /* \"#utility.yul\":1282:1294   */\n      lt\n        /* \"#utility.yul\":1272:1318   */\n      tag_124\n      jumpi\n        /* \"#utility.yul\":1298:1316   */\n      tag_125\n      tag_60\n      jump\t// in\n    tag_125:\n        /* \"#utility.yul\":1272:1318   */\n    tag_124:\n        /* \"#utility.yul\":1211:1324   */\n      pop\n      jump\t// out\n        /* \"#utility.yul\":1330:1457   */\n    tag_95:\n        /* \"#utility.yul\":1375:1382   */\n      0x00\n        /* \"#utility.yul\":1404:1409   */\n      dup2\n        /* \"#utility.yul\":1393:1409   */\n      swap1\n      pop\n        /* \"#utility.yul\":1410:1451   */\n      tag_127\n        /* \"#utility.yul\":1445:1450   */\n      dup3\n        /* \"#utility.yul\":1410:1451   */\n      tag_94\n      jump\t// in\n    tag_127:\n        /* \"#utility.yul\":1330:1457   */\n      swap2\n      swap1\n      pop\n      jump\t// out\n        /* \"#utility.yul\":1463:1590   */\n    tag_96:\n        /* \"#utility.yul\":1519:1528   */\n      0x00\n        /* \"#utility.yul\":1552:1584   */\n      tag_129\n        /* \"#utility.yul\":1578:1583   */\n      dup3\n        /* \"#utility.yul\":1552:1584   */\n      tag_95\n      jump\t// in\n    tag_129:\n        /* \"#utility.yul\":1539:1584   */\n      swap1\n      pop\n        /* \"#utility.yul\":1463:1590   */\n      swap2\n      swap1\n      pop\n      jump\t// out\n        /* \"#utility.yul\":1596:1739   */\n    tag_97:\n        /* \"#utility.yul\":1689:1732   */\n      tag_131\n        /* \"#utility.yul\":1726:1731   */\n      dup2\n        /* \"#utility.yul\":1689:1732   */\n      tag_96\n      jump\t// in\n    tag_131:\n        /* \"#utility.yul\":1684:1687   */\n      dup3\n        /* \"#utility.yul\":1677:1733   */\n      mstore\n        /* \"#utility.yul\":1596:1739   */\n      pop\n      pop\n      jump\t// out\n        /* \"#utility.yul\":1745:1979   */\n    tag_38:\n        /* \"#utility.yul\":1844:1848   */\n      0x00\n        /* \"#utility.yul\":1882:1884   */\n      0x20\n        /* \"#utility.yul\":1871:1880   */\n      dup3\n        /* \"#utility.yul\":1867:1885   */\n      add\n        /* \"#utility.yul\":1859:1885   */\n      swap1\n      pop\n        /* \"#utility.yul\":1895:1972   */\n      tag_133\n        /* \"#utility.yul\":1969:1970   */\n      0x00\n        /* \"#utility.yul\":1958:1967   */\n      dup4\n        /* \"#utility.yul\":1954:1971   */\n      add\n        /* \"#utility.yul\":1945:1951   */\n      dup5\n        /* \"#utility.yul\":1895:1972   */\n      tag_97\n      jump\t// in\n    tag_133:\n        /* \"#utility.yul\":1745:1979   */\n      swap3\n      swap2\n      pop\n      pop\n      jump\t// out\n        /* \"#utility.yul\":1985:2154   */\n    tag_98:\n        /* \"#utility.yul\":2069:2080   */\n      0x00\n        /* \"#utility.yul\":2103:2109   */\n      dup3\n        /* \"#utility.yul\":2098:2101   */\n      dup3\n        /* \"#utility.yul\":2091:2110   */\n      mstore\n        /* \"#utility.yul\":2143:2147   */\n      0x20\n        /* \"#utility.yul\":2138:2141   */\n      dup3\n        /* \"#utility.yul\":2134:2148   */\n      add\n        /* \"#utility.yul\":2119:2148   */\n      swap1\n      pop\n        /* \"#utility.yul\":1985:2154   */\n      swap3\n      swap2\n      pop\n      pop\n      jump\t// out\n        /* \"#utility.yul\":2160:2333   */\n    tag_99:\n        /* \"#utility.yul\":2300:2325   */\n      0x53656e6465722069736e27742047617353746174696f6e000000000000000000\n        /* \"#utility.yul\":2296:2297   */\n      0x00\n        /* \"#utility.yul\":2288:2294   */\n      dup3\n        /* \"#utility.yul\":2284:2298   */\n      add\n        /* \"#utility.yul\":2277:2326   */\n      mstore\n        /* \"#utility.yul\":2160:2333   */\n      pop\n      jump\t// out\n        /* \"#utility.yul\":2339:2705   */\n    tag_100:\n        /* \"#utility.yul\":2481:2484   */\n      0x00\n        /* \"#utility.yul\":2502:2569   */\n      tag_137\n        /* \"#utility.yul\":2566:2568   */\n      0x17\n        /* \"#utility.yul\":2561:2564   */\n      dup4\n        /* \"#utility.yul\":2502:2569   */\n      tag_98\n      jump\t// in\n    tag_137:\n        /* \"#utility.yul\":2495:2569   */\n      swap2\n      pop\n        /* \"#utility.yul\":2578:2671   */\n      tag_138\n        /* \"#utility.yul\":2667:2670   */\n      dup3\n        /* \"#utility.yul\":2578:2671   */\n      tag_99\n      jump\t// in\n    tag_138:\n        /* \"#utility.yul\":2696:2698   */\n      0x20\n        /* \"#utility.yul\":2691:2694   */\n      dup3\n        /* \"#utility.yul\":2687:2699   */\n      add\n        /* \"#utility.yul\":2680:2699   */\n      swap1\n      pop\n        /* \"#utility.yul\":2339:2705   */\n      swap2\n      swap1\n      pop\n      jump\t// out\n        /* \"#utility.yul\":2711:3130   */\n    tag_44:\n        /* \"#utility.yul\":2877:2881   */\n      0x00\n        /* \"#utility.yul\":2915:2917   */\n      0x20\n        /* \"#utility.yul\":2904:2913   */\n      dup3\n        /* \"#utility.yul\":2900:2918   */\n      add\n        /* \"#utility.yul\":2892:2918   */\n      swap1\n      pop\n        /* \"#utility.yul\":2964:2973   */\n      dup2\n        /* \"#utility.yul\":2958:2962   */\n      dup2\n        /* \"#utility.yul\":2954:2974   */\n      sub\n        /* \"#utility.yul\":2950:2951   */\n      0x00\n        /* \"#utility.yul\":2939:2948   */\n      dup4\n        /* \"#utility.yul\":2935:2952   */\n      add\n        /* \"#utility.yul\":2928:2975   */\n      mstore\n        /* \"#utility.yul\":2992:3123   */\n      tag_140\n        /* \"#utility.yul\":3118:3122   */\n      dup2\n        /* \"#utility.yul\":2992:3123   */\n      tag_100\n      jump\t// in\n    tag_140:\n        /* \"#utility.yul\":2984:3123   */\n      swap1\n      pop\n        /* \"#utility.yul\":2711:3130   */\n      swap2\n      swap1\n      pop\n      jump\t// out\n        /* \"#utility.yul\":3136:3316   */\n    tag_101:\n        /* \"#utility.yul\":3184:3261   */\n      0x4e487b7100000000000000000000000000000000000000000000000000000000\n        /* \"#utility.yul\":3181:3182   */\n      0x00\n        /* \"#utility.yul\":3174:3262   */\n      mstore\n        /* \"#utility.yul\":3281:3285   */\n      0x11\n        /* \"#utility.yul\":3278:3279   */\n      0x04\n        /* \"#utility.yul\":3271:3286   */\n      mstore\n        /* \"#utility.yul\":3305:3309   */\n      0x24\n        /* \"#utility.yul\":3302:3303   */\n      0x00\n        /* \"#utility.yul\":3295:3310   */\n      revert\n        /* \"#utility.yul\":3322:3555   */\n    tag_51:\n        /* \"#utility.yul\":3361:3364   */\n      0x00\n        /* \"#utility.yul\":3384:3408   */\n      tag_143\n        /* \"#utility.yul\":3402:3407   */\n      dup3\n        /* \"#utility.yul\":3384:3408   */\n      tag_91\n      jump\t// in\n    tag_143:\n        /* \"#utility.yul\":3375:3408   */\n      swap2\n      pop\n        /* \"#utility.yul\":3430:3496   */\n      0xffffffffffffffffffffffffffffffffffffffffffffffffffffffffffffffff\n        /* \"#utility.yul\":3423:3428   */\n      dup3\n        /* \"#utility.yul\":3420:3497   */\n      sub\n        /* \"#utility.yul\":3417:3520   */\n      tag_144\n      jumpi\n        /* \"#utility.yul\":3500:3518   */\n      tag_145\n      tag_101\n      jump\t// in\n    tag_145:\n        /* \"#utility.yul\":3417:3520   */\n    tag_144:\n        /* \"#utility.yul\":3547:3548   */\n      0x01\n        /* \"#utility.yul\":3540:3545   */\n      dup3\n        /* \"#utility.yul\":3536:3549   */\n      add\n        /* \"#utility.yul\":3529:3549   */\n      swap1\n      pop\n        /* \"#utility.yul\":3322:3555   */\n      swap2\n      swap1\n      pop\n      jump\t// out\n        /* \"#utility.yul\":3561:3755   */\n    tag_53:\n        /* \"#utility.yul\":3601:3605   */\n      0x00\n        /* \"#utility.yul\":3621:3641   */\n      tag_147\n        /* \"#utility.yul\":3639:3640   */\n      dup3\n        /* \"#utility.yul\":3621:3641   */\n      tag_91\n      jump\t// in\n    tag_147:\n        /* \"#utility.yul\":3616:3641   */\n      swap2\n      pop\n        /* \"#utility.yul\":3655:3675   */\n      tag_148\n        /* \"#utility.yul\":3673:3674   */\n      dup4\n        /* \"#utility.yul\":3655:3675   */\n      tag_91\n      jump\t// in\n    tag_148:\n        /* \"#utility.yul\":3650:3675   */\n      swap3\n      pop\n        /* \"#utility.yul\":3699:3700   */\n      dup3\n        /* \"#utility.yul\":3696:3697   */\n      dup3\n        /* \"#utility.yul\":3692:3701   */\n      sub\n        /* \"#utility.yul\":3684:3701   */\n      swap1\n      pop\n        /* \"#utility.yul\":3723:3724   */\n      dup2\n        /* \"#utility.yul\":3717:3721   */\n      dup2\n        /* \"#utility.yul\":3714:3725   */\n      gt\n        /* \"#utility.yul\":3711:3748   */\n      iszero\n      tag_149\n      jumpi\n        /* \"#utility.yul\":3728:3746   */\n      tag_150\n      tag_101\n      jump\t// in\n    tag_150:\n        /* \"#utility.yul\":3711:3748   */\n    tag_149:\n        /* \"#utility.yul\":3561:3755   */\n      swap3\n      swap2\n      pop\n      pop\n      jump\t// out\n        /* \"#utility.yul\":3761:3928   */\n    tag_102:\n        /* \"#utility.yul\":3901:3920   */\n      0x5370656564206973206e6f74207a65726f000000000000000000000000000000\n        /* \"#utility.yul\":3897:3898   */\n      0x00\n        /* \"#utility.yul\":3889:3895   */\n      dup3\n        /* \"#utility.yul\":3885:3899   */\n      add\n        /* \"#utility.yul\":3878:3921   */\n      mstore\n        /* \"#utility.yul\":3761:3928   */\n      pop\n      jump\t// out\n        /* \"#utility.yul\":3934:4300   */\n    tag_103:\n        /* \"#utility.yul\":4076:4079   */\n      0x00\n        /* \"#utility.yul\":4097:4164   */\n      tag_153\n        /* \"#utility.yul\":4161:4163   */\n      0x11\n        /* \"#utility.yul\":4156:4159   */\n      dup4\n        /* \"#utility.yul\":4097:4164   */\n      tag_98\n      jump\t// in\n    tag_153:\n        /* \"#utility.yul\":4090:4164   */\n      swap2\n      pop\n        /* \"#utility.yul\":4173:4266   */\n      tag_154\n        /* \"#utility.yul\":4262:4265   */\n      dup3\n        /* \"#utility.yul\":4173:4266   */\n      tag_102\n      jump\t// in\n    tag_154:\n        /* \"#utility.yul\":4291:4293   */\n      0x20\n        /* \"#utility.yul\":4286:4289   */\n      dup3\n        /* \"#utility.yul\":4282:4294   */\n      add\n        /* \"#utility.yul\":4275:4294   */\n      swap1\n      pop\n        /* \"#utility.yul\":3934:4300   */\n      swap2\n      swap1\n      pop\n      jump\t// out\n        /* \"#utility.yul\":4306:4725   */\n    tag_57:\n        /* \"#utility.yul\":4472:4476   */\n      0x00\n        /* \"#utility.yul\":4510:4512   */\n      0x20\n        /* \"#utility.yul\":4499:4508   */\n      dup3\n        /* \"#utility.yul\":4495:4513   */\n      add\n        /* \"#utility.yul\":4487:4513   */\n      swap1\n      pop\n        /* \"#utility.yul\":4559:4568   */\n      dup2\n        /* \"#utility.yul\":4553:4557   */\n      dup2\n        /* \"#utility.yul\":4549:4569   */\n      sub\n        /* \"#utility.yul\":4545:4546   */\n      0x00\n        /* \"#utility.yul\":4534:4543   */\n      dup4\n        /* \"#utility.yul\":4530:4547   */\n      add\n        /* \"#utility.yul\":4523:4570   */\n      mstore\n        /* \"#utility.yul\":4587:4718   */\n      tag_156\n        /* \"#utility.yul\":4713:4717   */\n      dup2\n        /* \"#utility.yul\":4587:4718   */\n      tag_103\n      jump\t// in\n    tag_156:\n        /* \"#utility.yul\":4579:4718   */\n      swap1\n      pop\n        /* \"#utility.yul\":4306:4725   */\n      swap2\n      swap1\n      pop\n      jump\t// out\n        /* \"#utility.yul\":4731:4902   */\n    tag_64:\n        /* \"#utility.yul\":4770:4773   */\n      0x00\n        /* \"#utility.yul\":4793:4817   */\n      tag_158\n        /* \"#utility.yul\":4811:4816   */\n      dup3\n        /* \"#utility.yul\":4793:4817   */\n      tag_91\n      jump\t// in\n    tag_158:\n        /* \"#utility.yul\":4784:4817   */\n      swap2\n      pop\n        /* \"#utility.yul\":4839:4843   */\n      0x00\n        /* \"#utility.yul\":4832:4837   */\n      dup3\n        /* \"#utility.yul\":4829:4844   */\n      sub\n        /* \"#utility.yul\":4826:4867   */\n      tag_159\n      jumpi\n        /* \"#utility.yul\":4847:4865   */\n      tag_160\n      tag_101\n      jump\t// in\n    tag_160:\n        /* \"#utility.yul\":4826:4867   */\n    tag_159:\n        /* \"#utility.yul\":4894:4895   */\n      0x01\n        /* \"#utility.yul\":4887:4892   */\n      dup3\n        /* \"#utility.yul\":4883:4896   */\n      sub\n        /* \"#utility.yul\":4876:4896   */\n      swap1\n      pop\n        /* \"#utility.yul\":4731:4902   */\n      swap2\n      swap1\n      pop\n      jump\t// out\n        /* \"#utility.yul\":4908:5071   */\n    tag_104:\n        /* \"#utility.yul\":5048:5063   */\n      0x4e6f7420506f776572204f666600000000000000000000000000000000000000\n        /* \"#utility.yul\":5044:5045   */\n      0x00\n        /* \"#utility.yul\":5036:5042   */\n      dup3\n        /* \"#utility.yul\":5032:5046   */\n      add\n        /* \"#utility.yul\":5025:5064   */\n      mstore\n        /* \"#utility.yul\":4908:5071   */\n      pop\n      jump\t// out\n        /* \"#utility.yul\":5077:5443   */\n    tag_105:\n        /* \"#utility.yul\":5219:5222   */\n      0x00\n        /* \"#utility.yul\":5240:5307   */\n      tag_163\n        /* \"#utility.yul\":5304:5306   */\n      0x0d\n        /* \"#utility.yul\":5299:5302   */\n      dup4\n        /* \"#utility.yul\":5240:5307   */\n      tag_98\n      jump\t// in\n    tag_163:\n        /* \"#utility.yul\":5233:5307   */\n      swap2\n      pop\n        /* \"#utility.yul\":5316:5409   */\n      tag_164\n        /* \"#utility.yul\":5405:5408   */\n      dup3\n        /* \"#utility.yul\":5316:5409   */\n      tag_104\n      jump\t// in\n    tag_164:\n        /* \"#utility.yul\":5434:5436   */\n      0x20\n        /* \"#utility.yul\":5429:5432   */\n      dup3\n        /* \"#utility.yul\":5425:5437   */\n      add\n        /* \"#utility.yul\":5418:5437   */\n      swap1\n      pop\n        /* \"#utility.yul\":5077:5443   */\n      swap2\n      swap1\n      pop\n      jump\t// out\n        /* \"#utility.yul\":5449:5868   */\n    tag_80:\n        /* \"#utility.yul\":5615:5619   */\n      0x00\n        /* \"#utility.yul\":5653:5655   */\n      0x20\n        /* \"#utility.yul\":5642:5651   */\n      dup3\n        /* \"#utility.yul\":5638:5656   */\n      add\n        /* \"#utility.yul\":5630:5656   */\n      swap1\n      pop\n        /* \"#utility.yul\":5702:5711   */\n      dup2\n        /* \"#utility.yul\":5696:5700   */\n      dup2\n        /* \"#utility.yul\":5692:5712   */\n      sub\n        /* \"#utility.yul\":5688:5689   */\n      0x00\n        /* \"#utility.yul\":5677:5686   */\n      dup4\n        /* \"#utility.yul\":5673:5690   */\n      add\n        /* \"#utility.yul\":5666:5713   */\n      mstore\n        /* \"#utility.yul\":5730:5861   */\n      tag_166\n        /* \"#utility.yul\":5856:5860   */\n      dup2\n        /* \"#utility.yul\":5730:5861   */\n      tag_105\n      jump\t// in\n    tag_166:\n        /* \"#utility.yul\":5722:5861   */\n      swap1\n      pop\n        /* \"#utility.yul\":5449:5868   */\n      swap2\n      swap1\n      pop\n      jump\t// out\n        /* \"#utility.yul\":5874:6049   */\n    tag_106:\n        /* \"#utility.yul\":6014:6041   */\n      0x506c656173652073656e642065786163746c7920312045544800000000000000\n        /* \"#utility.yul\":6010:6011   */\n      0x00\n        /* \"#utility.yul\":6002:6008   */\n      dup3\n        /* \"#utility.yul\":5998:6012   */\n      add\n        /* \"#utility.yul\":5991:6042   */\n      mstore\n        /* \"#utility.yul\":5874:6049   */\n      pop\n      jump\t// out\n        /* \"#utility.yul\":6055:6421   */\n    tag_107:\n        /* \"#utility.yul\":6197:6200   */\n      0x00\n        /* \"#utility.yul\":6218:6285   */\n      tag_169\n        /* \"#utility.yul\":6282:6284   */\n      0x19\n        /* \"#utility.yul\":6277:6280   */\n      dup4\n        /* \"#utility.yul\":6218:6285   */\n      tag_98\n      jump\t// in\n    tag_169:\n        /* \"#utility.yul\":6211:6285   */\n      swap2\n      pop\n        /* \"#utility.yul\":6294:6387   */\n      tag_170\n        /* \"#utility.yul\":6383:6386   */\n      dup3\n        /* \"#utility.yul\":6294:6387   */\n      tag_106\n      jump\t// in\n    tag_170:\n        /* \"#utility.yul\":6412:6414   */\n      0x20\n        /* \"#utility.yul\":6407:6410   */\n      dup3\n        /* \"#utility.yul\":6403:6415   */\n      add\n        /* \"#utility.yul\":6396:6415   */\n      swap1\n      pop\n        /* \"#utility.yul\":6055:6421   */\n      swap2\n      swap1\n      pop\n      jump\t// out\n        /* \"#utility.yul\":6427:6846   */\n    tag_87:\n        /* \"#utility.yul\":6593:6597   */\n      0x00\n        /* \"#utility.yul\":6631:6633   */\n      0x20\n        /* \"#utility.yul\":6620:6629   */\n      dup3\n        /* \"#utility.yul\":6616:6634   */\n      add\n        /* \"#utility.yul\":6608:6634   */\n      swap1\n      pop\n        /* \"#utility.yul\":6680:6689   */\n      dup2\n        /* \"#utility.yul\":6674:6678   */\n      dup2\n        /* \"#utility.yul\":6670:6690   */\n      sub\n        /* \"#utility.yul\":6666:6667   */\n      0x00\n        /* \"#utility.yul\":6655:6664   */\n      dup4\n        /* \"#utility.yul\":6651:6668   */\n      add\n        /* \"#utility.yul\":6644:6691   */\n      mstore\n        /* \"#utility.yul\":6708:6839   */\n      tag_172\n        /* \"#utility.yul\":6834:6838   */\n      dup2\n        /* \"#utility.yul\":6708:6839   */\n      tag_107\n      jump\t// in\n    tag_172:\n        /* \"#utility.yul\":6700:6839   */\n      swap1\n      pop\n        /* \"#utility.yul\":6427:6846   */\n      swap2\n      swap1\n      pop\n      jump\t// out\n\n    auxdata: 0xa26469706673582212205413128cb84e1d7e1fa5b1b08e3daa370f0cc30631b8687340425c6906c874a764736f6c63430008120033\n}\n",
				"bytecode": {
					"linkReferences": {},
					"object": "60806040526000600155606460025573ab8483f64d9c6d1ecf9b849ae677dd3315835cb2600360006101000a81548173ffffffffffffffffffffffffffffffffffffffff021916908373ffffffffffffffffffffffffffffffffffffffff16021790555034801561006f57600080fd5b5061086a8061007f6000396000f3fe60806040526004361061007f5760003560e01c80638a9baaa91161004e5780638a9baaa9146100f9578063d2ccdbf814610110578063ecdcf87f14610127578063f56df7c61461015257610086565b80632e1a7d4d1461008b57806334d65946146100b45780633f10cc67146100cb5780635642e2dc146100e257610086565b3661008657005b600080fd5b34801561009757600080fd5b506100b260048036038101906100ad91906104e0565b61015c565b005b3480156100c057600080fd5b506100c9610236565b005b3480156100d757600080fd5b506100e0610283565b005b3480156100ee57600080fd5b506100f76102f4565b005b34801561010557600080fd5b5061010e610335565b005b34801561011c57600080fd5b5061012561039b565b005b34801561013357600080fd5b5061013c61043b565b6040516101499190610584565b60405180910390f35b61015a610451565b005b600360009054906101000a900473ffffffffffffffffffffffffffffffffffffffff1673ffffffffffffffffffffffffffffffffffffffff163373ffffffffffffffffffffffffffffffffffffffff16146101ec576040517f08c379a00000000000000000000000000000000000000000000000000000000081526004016101e3906105fc565b60405180910390fd5b3073ffffffffffffffffffffffffffffffffffffffff166108fc829081150290604051600060405180830381858888f19350505050158015610232573d6000803e3d6000fd5b5050565b601e6002541015801561024c5750604660025411155b61025557600080fd5b600160008154809291906102689061064b565b91905055506002805461027b9190610693565b600281905550565b6000600154146102c8576040517f08c379a00000000000000000000000000000000000000000000000000000000081526004016102bf90610713565b60405180910390fd5b60026000806101000a81548160ff021916908360038111156102ed576102ec61050d565b5b0217905550565b60006001540361030357600080fd5b6001600081548092919061031690610733565b91905055506002600081548092919061032e90610733565b9190505550565b60006001540361036e5760008060006101000a81548160ff021916908360038111156103645761036361050d565b5b0217905550610399565b60016000806101000a81548160ff021916908360038111156103935761039261050d565b5b02179055505b565b600260038111156103af576103ae61050d565b5b60008054906101000a900460ff1660038111156103cf576103ce61050d565b5b1461040f576040517f08c379a0000000000000000000000000000000000000000000000000000000008152600401610406906107a8565b60405180910390fd5b60008060006101000a81548160ff021916908360038111156104345761043361050d565b5b0217905550565b60008060009054906101000a900460ff16905090565b670de0b6b3a7640000341461049b576040517f08c379a000000000000000000000000000000000000000000000000000000000815260040161049290610814565b60405180910390fd5b6064600281905550565b600080fd5b6000819050919050565b6104bd816104aa565b81146104c857600080fd5b50565b6000813590506104da816104b4565b92915050565b6000602082840312156104f6576104f56104a5565b5b6000610504848285016104cb565b91505092915050565b7f4e487b7100000000000000000000000000000000000000000000000000000000600052602160045260246000fd5b6004811061054d5761054c61050d565b5b50565b600081905061055e8261053c565b919050565b600061056e82610550565b9050919050565b61057e81610563565b82525050565b60006020820190506105996000830184610575565b92915050565b600082825260208201905092915050565b7f53656e6465722069736e27742047617353746174696f6e000000000000000000600082015250565b60006105e660178361059f565b91506105f1826105b0565b602082019050919050565b60006020820190508181036000830152610615816105d9565b9050919050565b7f4e487b7100000000000000000000000000000000000000000000000000000000600052601160045260246000fd5b6000610656826104aa565b91507fffffffffffffffffffffffffffffffffffffffffffffffffffffffffffffffff82036106885761068761061c565b5b600182019050919050565b600061069e826104aa565b91506106a9836104aa565b92508282039050818111156106c1576106c061061c565b5b92915050565b7f5370656564206973206e6f74207a65726f000000000000000000000000000000600082015250565b60006106fd60118361059f565b9150610708826106c7565b602082019050919050565b6000602082019050818103600083015261072c816106f0565b9050919050565b600061073e826104aa565b9150600082036107515761075061061c565b5b600182039050919050565b7f4e6f7420506f776572204f666600000000000000000000000000000000000000600082015250565b6000610792600d8361059f565b915061079d8261075c565b602082019050919050565b600060208201905081810360008301526107c181610785565b9050919050565b7f506c656173652073656e642065786163746c7920312045544800000000000000600082015250565b60006107fe60198361059f565b9150610809826107c8565b602082019050919050565b6000602082019050818103600083015261082d816107f1565b905091905056fea26469706673582212205413128cb84e1d7e1fa5b1b08e3daa370f0cc30631b8687340425c6906c874a764736f6c63430008120033",
					"opcodes": "PUSH1 0x80 PUSH1 0x40 MSTORE PUSH1 0x0 PUSH1 0x1 SSTORE PUSH1 0x64 PUSH1 0x2 SSTORE PUSH20 0xAB8483F64D9C6D1ECF9B849AE677DD3315835CB2 PUSH1 0x3 PUSH1 0x0 PUSH2 0x100 EXP DUP2 SLOAD DUP2 PUSH20 0xFFFFFFFFFFFFFFFFFFFFFFFFFFFFFFFFFFFFFFFF MUL NOT AND SWAP1 DUP4 PUSH20 0xFFFFFFFFFFFFFFFFFFFFFFFFFFFFFFFFFFFFFFFF AND MUL OR SWAP1 SSTORE POP CALLVALUE DUP1 ISZERO PUSH2 0x6F JUMPI PUSH1 0x0 DUP1 REVERT JUMPDEST POP PUSH2 0x86A DUP1 PUSH2 0x7F PUSH1 0x0 CODECOPY PUSH1 0x0 RETURN INVALID PUSH1 0x80 PUSH1 0x40 MSTORE PUSH1 0x4 CALLDATASIZE LT PUSH2 0x7F JUMPI PUSH1 0x0 CALLDATALOAD PUSH1 0xE0 SHR DUP1 PUSH4 0x8A9BAAA9 GT PUSH2 0x4E JUMPI DUP1 PUSH4 0x8A9BAAA9 EQ PUSH2 0xF9 JUMPI DUP1 PUSH4 0xD2CCDBF8 EQ PUSH2 0x110 JUMPI DUP1 PUSH4 0xECDCF87F EQ PUSH2 0x127 JUMPI DUP1 PUSH4 0xF56DF7C6 EQ PUSH2 0x152 JUMPI PUSH2 0x86 JUMP JUMPDEST DUP1 PUSH4 0x2E1A7D4D EQ PUSH2 0x8B JUMPI DUP1 PUSH4 0x34D65946 EQ PUSH2 0xB4 JUMPI DUP1 PUSH4 0x3F10CC67 EQ PUSH2 0xCB JUMPI DUP1 PUSH4 0x5642E2DC EQ PUSH2 0xE2 JUMPI PUSH2 0x86 JUMP JUMPDEST CALLDATASIZE PUSH2 0x86 JUMPI STOP JUMPDEST PUSH1 0x0 DUP1 REVERT JUMPDEST CALLVALUE DUP1 ISZERO PUSH2 0x97 JUMPI PUSH1 0x0 DUP1 REVERT JUMPDEST POP PUSH2 0xB2 PUSH1 0x4 DUP1 CALLDATASIZE SUB DUP2 ADD SWAP1 PUSH2 0xAD SWAP2 SWAP1 PUSH2 0x4E0 JUMP JUMPDEST PUSH2 0x15C JUMP JUMPDEST STOP JUMPDEST CALLVALUE DUP1 ISZERO PUSH2 0xC0 JUMPI PUSH1 0x0 DUP1 REVERT JUMPDEST POP PUSH2 0xC9 PUSH2 0x236 JUMP JUMPDEST STOP JUMPDEST CALLVALUE DUP1 ISZERO PUSH2 0xD7 JUMPI PUSH1 0x0 DUP1 REVERT JUMPDEST POP PUSH2 0xE0 PUSH2 0x283 JUMP JUMPDEST STOP JUMPDEST CALLVALUE DUP1 ISZERO PUSH2 0xEE JUMPI PUSH1 0x0 DUP1 REVERT JUMPDEST POP PUSH2 0xF7 PUSH2 0x2F4 JUMP JUMPDEST STOP JUMPDEST CALLVALUE DUP1 ISZERO PUSH2 0x105 JUMPI PUSH1 0x0 DUP1 REVERT JUMPDEST POP PUSH2 0x10E PUSH2 0x335 JUMP JUMPDEST STOP JUMPDEST CALLVALUE DUP1 ISZERO PUSH2 0x11C JUMPI PUSH1 0x0 DUP1 REVERT JUMPDEST POP PUSH2 0x125 PUSH2 0x39B JUMP JUMPDEST STOP JUMPDEST CALLVALUE DUP1 ISZERO PUSH2 0x133 JUMPI PUSH1 0x0 DUP1 REVERT JUMPDEST POP PUSH2 0x13C PUSH2 0x43B JUMP JUMPDEST PUSH1 0x40 MLOAD PUSH2 0x149 SWAP2 SWAP1 PUSH2 0x584 JUMP JUMPDEST PUSH1 0x40 MLOAD DUP1 SWAP2 SUB SWAP1 RETURN JUMPDEST PUSH2 0x15A PUSH2 0x451 JUMP JUMPDEST STOP JUMPDEST PUSH1 0x3 PUSH1 0x0 SWAP1 SLOAD SWAP1 PUSH2 0x100 EXP SWAP1 DIV PUSH20 0xFFFFFFFFFFFFFFFFFFFFFFFFFFFFFFFFFFFFFFFF AND PUSH20 0xFFFFFFFFFFFFFFFFFFFFFFFFFFFFFFFFFFFFFFFF AND CALLER PUSH20 0xFFFFFFFFFFFFFFFFFFFFFFFFFFFFFFFFFFFFFFFF AND EQ PUSH2 0x1EC JUMPI PUSH1 0x40 MLOAD PUSH32 0x8C379A000000000000000000000000000000000000000000000000000000000 DUP2 MSTORE PUSH1 0x4 ADD PUSH2 0x1E3 SWAP1 PUSH2 0x5FC JUMP JUMPDEST PUSH1 0x40 MLOAD DUP1 SWAP2 SUB SWAP1 REVERT JUMPDEST ADDRESS PUSH20 0xFFFFFFFFFFFFFFFFFFFFFFFFFFFFFFFFFFFFFFFF AND PUSH2 0x8FC DUP3 SWAP1 DUP2 ISZERO MUL SWAP1 PUSH1 0x40 MLOAD PUSH1 0x0 PUSH1 0x40 MLOAD DUP1 DUP4 SUB DUP2 DUP6 DUP9 DUP9 CALL SWAP4 POP POP POP POP ISZERO DUP1 ISZERO PUSH2 0x232 JUMPI RETURNDATASIZE PUSH1 0x0 DUP1 RETURNDATACOPY RETURNDATASIZE PUSH1 0x0 REVERT JUMPDEST POP POP JUMP JUMPDEST PUSH1 0x1E PUSH1 0x2 SLOAD LT ISZERO DUP1 ISZERO PUSH2 0x24C JUMPI POP PUSH1 0x46 PUSH1 0x2 SLOAD GT ISZERO JUMPDEST PUSH2 0x255 JUMPI PUSH1 0x0 DUP1 REVERT JUMPDEST PUSH1 0x1 PUSH1 0x0 DUP2 SLOAD DUP1 SWAP3 SWAP2 SWAP1 PUSH2 0x268 SWAP1 PUSH2 0x64B JUMP JUMPDEST SWAP2 SWAP1 POP SSTORE POP PUSH1 0x2 DUP1 SLOAD PUSH2 0x27B SWAP2 SWAP1 PUSH2 0x693 JUMP JUMPDEST PUSH1 0x2 DUP2 SWAP1 SSTORE POP JUMP JUMPDEST PUSH1 0x0 PUSH1 0x1 SLOAD EQ PUSH2 0x2C8 JUMPI PUSH1 0x40 MLOAD PUSH32 0x8C379A000000000000000000000000000000000000000000000000000000000 DUP2 MSTORE PUSH1 0x4 ADD PUSH2 0x2BF SWAP1 PUSH2 0x713 JUMP JUMPDEST PUSH1 0x40 MLOAD DUP1 SWAP2 SUB SWAP1 REVERT JUMPDEST PUSH1 0x2 PUSH1 0x0 DUP1 PUSH2 0x100 EXP DUP2 SLOAD DUP2 PUSH1 0xFF MUL NOT AND SWAP1 DUP4 PUSH1 0x3 DUP2 GT ISZERO PUSH2 0x2ED JUMPI PUSH2 0x2EC PUSH2 0x50D JUMP JUMPDEST JUMPDEST MUL OR SWAP1 SSTORE POP JUMP JUMPDEST PUSH1 0x0 PUSH1 0x1 SLOAD SUB PUSH2 0x303 JUMPI PUSH1 0x0 DUP1 REVERT JUMPDEST PUSH1 0x1 PUSH1 0x0 DUP2 SLOAD DUP1 SWAP3 SWAP2 SWAP1 PUSH2 0x316 SWAP1 PUSH2 0x733 JUMP JUMPDEST SWAP2 SWAP1 POP SSTORE POP PUSH1 0x2 PUSH1 0x0 DUP2 SLOAD DUP1 SWAP3 SWAP2 SWAP1 PUSH2 0x32E SWAP1 PUSH2 0x733 JUMP JUMPDEST SWAP2 SWAP1 POP SSTORE POP JUMP JUMPDEST PUSH1 0x0 PUSH1 0x1 SLOAD SUB PUSH2 0x36E JUMPI PUSH1 0x0 DUP1 PUSH1 0x0 PUSH2 0x100 EXP DUP2 SLOAD DUP2 PUSH1 0xFF MUL NOT AND SWAP1 DUP4 PUSH1 0x3 DUP2 GT ISZERO PUSH2 0x364 JUMPI PUSH2 0x363 PUSH2 0x50D JUMP JUMPDEST JUMPDEST MUL OR SWAP1 SSTORE POP PUSH2 0x399 JUMP JUMPDEST PUSH1 0x1 PUSH1 0x0 DUP1 PUSH2 0x100 EXP DUP2 SLOAD DUP2 PUSH1 0xFF MUL NOT AND SWAP1 DUP4 PUSH1 0x3 DUP2 GT ISZERO PUSH2 0x393 JUMPI PUSH2 0x392 PUSH2 0x50D JUMP JUMPDEST JUMPDEST MUL OR SWAP1 SSTORE POP JUMPDEST JUMP JUMPDEST PUSH1 0x2 PUSH1 0x3 DUP2 GT ISZERO PUSH2 0x3AF JUMPI PUSH2 0x3AE PUSH2 0x50D JUMP JUMPDEST JUMPDEST PUSH1 0x0 DUP1 SLOAD SWAP1 PUSH2 0x100 EXP SWAP1 DIV PUSH1 0xFF AND PUSH1 0x3 DUP2 GT ISZERO PUSH2 0x3CF JUMPI PUSH2 0x3CE PUSH2 0x50D JUMP JUMPDEST JUMPDEST EQ PUSH2 0x40F JUMPI PUSH1 0x40 MLOAD PUSH32 0x8C379A000000000000000000000000000000000000000000000000000000000 DUP2 MSTORE PUSH1 0x4 ADD PUSH2 0x406 SWAP1 PUSH2 0x7A8 JUMP JUMPDEST PUSH1 0x40 MLOAD DUP1 SWAP2 SUB SWAP1 REVERT JUMPDEST PUSH1 0x0 DUP1 PUSH1 0x0 PUSH2 0x100 EXP DUP2 SLOAD DUP2 PUSH1 0xFF MUL NOT AND SWAP1 DUP4 PUSH1 0x3 DUP2 GT ISZERO PUSH2 0x434 JUMPI PUSH2 0x433 PUSH2 0x50D JUMP JUMPDEST JUMPDEST MUL OR SWAP1 SSTORE POP JUMP JUMPDEST PUSH1 0x0 DUP1 PUSH1 0x0 SWAP1 SLOAD SWAP1 PUSH2 0x100 EXP SWAP1 DIV PUSH1 0xFF AND SWAP1 POP SWAP1 JUMP JUMPDEST PUSH8 0xDE0B6B3A7640000 CALLVALUE EQ PUSH2 0x49B JUMPI PUSH1 0x40 MLOAD PUSH32 0x8C379A000000000000000000000000000000000000000000000000000000000 DUP2 MSTORE PUSH1 0x4 ADD PUSH2 0x492 SWAP1 PUSH2 0x814 JUMP JUMPDEST PUSH1 0x40 MLOAD DUP1 SWAP2 SUB SWAP1 REVERT JUMPDEST PUSH1 0x64 PUSH1 0x2 DUP2 SWAP1 SSTORE POP JUMP JUMPDEST PUSH1 0x0 DUP1 REVERT JUMPDEST PUSH1 0x0 DUP2 SWAP1 POP SWAP2 SWAP1 POP JUMP JUMPDEST PUSH2 0x4BD DUP2 PUSH2 0x4AA JUMP JUMPDEST DUP2 EQ PUSH2 0x4C8 JUMPI PUSH1 0x0 DUP1 REVERT JUMPDEST POP JUMP JUMPDEST PUSH1 0x0 DUP2 CALLDATALOAD SWAP1 POP PUSH2 0x4DA DUP2 PUSH2 0x4B4 JUMP JUMPDEST SWAP3 SWAP2 POP POP JUMP JUMPDEST PUSH1 0x0 PUSH1 0x20 DUP3 DUP5 SUB SLT ISZERO PUSH2 0x4F6 JUMPI PUSH2 0x4F5 PUSH2 0x4A5 JUMP JUMPDEST JUMPDEST PUSH1 0x0 PUSH2 0x504 DUP5 DUP3 DUP6 ADD PUSH2 0x4CB JUMP JUMPDEST SWAP2 POP POP SWAP3 SWAP2 POP POP JUMP JUMPDEST PUSH32 0x4E487B7100000000000000000000000000000000000000000000000000000000 PUSH1 0x0 MSTORE PUSH1 0x21 PUSH1 0x4 MSTORE PUSH1 0x24 PUSH1 0x0 REVERT JUMPDEST PUSH1 0x4 DUP2 LT PUSH2 0x54D JUMPI PUSH2 0x54C PUSH2 0x50D JUMP JUMPDEST JUMPDEST POP JUMP JUMPDEST PUSH1 0x0 DUP2 SWAP1 POP PUSH2 0x55E DUP3 PUSH2 0x53C JUMP JUMPDEST SWAP2 SWAP1 POP JUMP JUMPDEST PUSH1 0x0 PUSH2 0x56E DUP3 PUSH2 0x550 JUMP JUMPDEST SWAP1 POP SWAP2 SWAP1 POP JUMP JUMPDEST PUSH2 0x57E DUP2 PUSH2 0x563 JUMP JUMPDEST DUP3 MSTORE POP POP JUMP JUMPDEST PUSH1 0x0 PUSH1 0x20 DUP3 ADD SWAP1 POP PUSH2 0x599 PUSH1 0x0 DUP4 ADD DUP5 PUSH2 0x575 JUMP JUMPDEST SWAP3 SWAP2 POP POP JUMP JUMPDEST PUSH1 0x0 DUP3 DUP3 MSTORE PUSH1 0x20 DUP3 ADD SWAP1 POP SWAP3 SWAP2 POP POP JUMP JUMPDEST PUSH32 0x53656E6465722069736E27742047617353746174696F6E000000000000000000 PUSH1 0x0 DUP3 ADD MSTORE POP JUMP JUMPDEST PUSH1 0x0 PUSH2 0x5E6 PUSH1 0x17 DUP4 PUSH2 0x59F JUMP JUMPDEST SWAP2 POP PUSH2 0x5F1 DUP3 PUSH2 0x5B0 JUMP JUMPDEST PUSH1 0x20 DUP3 ADD SWAP1 POP SWAP2 SWAP1 POP JUMP JUMPDEST PUSH1 0x0 PUSH1 0x20 DUP3 ADD SWAP1 POP DUP2 DUP2 SUB PUSH1 0x0 DUP4 ADD MSTORE PUSH2 0x615 DUP2 PUSH2 0x5D9 JUMP JUMPDEST SWAP1 POP SWAP2 SWAP1 POP JUMP JUMPDEST PUSH32 0x4E487B7100000000000000000000000000000000000000000000000000000000 PUSH1 0x0 MSTORE PUSH1 0x11 PUSH1 0x4 MSTORE PUSH1 0x24 PUSH1 0x0 REVERT JUMPDEST PUSH1 0x0 PUSH2 0x656 DUP3 PUSH2 0x4AA JUMP JUMPDEST SWAP2 POP PUSH32 0xFFFFFFFFFFFFFFFFFFFFFFFFFFFFFFFFFFFFFFFFFFFFFFFFFFFFFFFFFFFFFFFF DUP3 SUB PUSH2 0x688 JUMPI PUSH2 0x687 PUSH2 0x61C JUMP JUMPDEST JUMPDEST PUSH1 0x1 DUP3 ADD SWAP1 POP SWAP2 SWAP1 POP JUMP JUMPDEST PUSH1 0x0 PUSH2 0x69E DUP3 PUSH2 0x4AA JUMP JUMPDEST SWAP2 POP PUSH2 0x6A9 DUP4 PUSH2 0x4AA JUMP JUMPDEST SWAP3 POP DUP3 DUP3 SUB SWAP1 POP DUP2 DUP2 GT ISZERO PUSH2 0x6C1 JUMPI PUSH2 0x6C0 PUSH2 0x61C JUMP JUMPDEST JUMPDEST SWAP3 SWAP2 POP POP JUMP JUMPDEST PUSH32 0x5370656564206973206E6F74207A65726F000000000000000000000000000000 PUSH1 0x0 DUP3 ADD MSTORE POP JUMP JUMPDEST PUSH1 0x0 PUSH2 0x6FD PUSH1 0x11 DUP4 PUSH2 0x59F JUMP JUMPDEST SWAP2 POP PUSH2 0x708 DUP3 PUSH2 0x6C7 JUMP JUMPDEST PUSH1 0x20 DUP3 ADD SWAP1 POP SWAP2 SWAP1 POP JUMP JUMPDEST PUSH1 0x0 PUSH1 0x20 DUP3 ADD SWAP1 POP DUP2 DUP2 SUB PUSH1 0x0 DUP4 ADD MSTORE PUSH2 0x72C DUP2 PUSH2 0x6F0 JUMP JUMPDEST SWAP1 POP SWAP2 SWAP1 POP JUMP JUMPDEST PUSH1 0x0 PUSH2 0x73E DUP3 PUSH2 0x4AA JUMP JUMPDEST SWAP2 POP PUSH1 0x0 DUP3 SUB PUSH2 0x751 JUMPI PUSH2 0x750 PUSH2 0x61C JUMP JUMPDEST JUMPDEST PUSH1 0x1 DUP3 SUB SWAP1 POP SWAP2 SWAP1 POP JUMP JUMPDEST PUSH32 0x4E6F7420506F776572204F666600000000000000000000000000000000000000 PUSH1 0x0 DUP3 ADD MSTORE POP JUMP JUMPDEST PUSH1 0x0 PUSH2 0x792 PUSH1 0xD DUP4 PUSH2 0x59F JUMP JUMPDEST SWAP2 POP PUSH2 0x79D DUP3 PUSH2 0x75C JUMP JUMPDEST PUSH1 0x20 DUP3 ADD SWAP1 POP SWAP2 SWAP1 POP JUMP JUMPDEST PUSH1 0x0 PUSH1 0x20 DUP3 ADD SWAP1 POP DUP2 DUP2 SUB PUSH1 0x0 DUP4 ADD MSTORE PUSH2 0x7C1 DUP2 PUSH2 0x785 JUMP JUMPDEST SWAP1 POP SWAP2 SWAP1 POP JUMP JUMPDEST PUSH32 0x506C656173652073656E642065786163746C7920312045544800000000000000 PUSH1 0x0 DUP3 ADD MSTORE POP JUMP JUMPDEST PUSH1 0x0 PUSH2 0x7FE PUSH1 0x19 DUP4 PUSH2 0x59F JUMP JUMPDEST SWAP2 POP PUSH2 0x809 DUP3 PUSH2 0x7C8 JUMP JUMPDEST PUSH1 0x20 DUP3 ADD SWAP1 POP SWAP2 SWAP1 POP JUMP JUMPDEST PUSH1 0x0 PUSH1 0x20 DUP3 ADD SWAP1 POP DUP2 DUP2 SUB PUSH1 0x0 DUP4 ADD MSTORE PUSH2 0x82D DUP2 PUSH2 0x7F1 JUMP JUMPDEST SWAP1 POP SWAP2 SWAP1 POP JUMP INVALID LOG2 PUSH5 0x6970667358 0x22 SLT KECCAK256 SLOAD SGT SLT DUP13 0xB8 0x4E SAR PUSH31 0x1FA5B1B08E3DAA370F0CC30631B8687340425C6906C874A764736F6C634300 ADDMOD SLT STOP CALLER "
				},
				"gasEstimates": {
					"creation": {
						"codeDepositCost": "430800",
						"executionCost": "51847",
						"totalCost": "482647"
					},
					"external": {
						"Accel()": "infinite",
						"PowerOff()": "26599",
						"PowerOn()": "26661",
						"Refuel()": "22322",
						"brake()": "infinite",
						"getSt()": "2612",
						"setSt()": "26565",
						"withdraw(uint256)": "infinite"
					}
				},
				"methodIdentifiers": {
					"Accel()": "34d65946",
					"PowerOff()": "3f10cc67",
					"PowerOn()": "d2ccdbf8",
					"Refuel()": "f56df7c6",
					"brake()": "5642e2dc",
					"getSt()": "ecdcf87f",
					"setSt()": "8a9baaa9",
					"withdraw(uint256)": "2e1a7d4d"
				}
			},
			"storageLayout": {
				"storage": [
					{
						"astId": 9,
						"contract": "contracts/0515/Quiz.sol:Quiz",
						"label": "st",
						"offset": 0,
						"slot": "0",
						"type": "t_enum(Status)6"
					},
					{
						"astId": 12,
						"contract": "contracts/0515/Quiz.sol:Quiz",
						"label": "speed",
						"offset": 0,
						"slot": "1",
						"type": "t_uint256"
					},
					{
						"astId": 15,
						"contract": "contracts/0515/Quiz.sol:Quiz",
						"label": "gas",
						"offset": 0,
						"slot": "2",
						"type": "t_uint256"
					},
					{
						"astId": 139,
						"contract": "contracts/0515/Quiz.sol:Quiz",
						"label": "GasStation",
						"offset": 0,
						"slot": "3",
						"type": "t_address"
					}
				],
				"types": {
					"t_address": {
						"encoding": "inplace",
						"label": "address",
						"numberOfBytes": "20"
					},
					"t_enum(Status)6": {
						"encoding": "inplace",
						"label": "enum Quiz.Status",
						"numberOfBytes": "1"
					},
					"t_uint256": {
						"encoding": "inplace",
						"label": "uint256",
						"numberOfBytes": "32"
					}
				}
			},
			"userdoc": {
				"kind": "user",
				"methods": {},
				"version": 1
			}
		}
	}
}