{
	"contracts/0515/modifier.sol": {
		"MODIFIER5": {
			"abi": [
				{
					"inputs": [],
					"name": "inAndOut",
					"outputs": [
						{
							"internalType": "string",
							"name": "",
							"type": "string"
						}
					],
					"stateMutability": "nonpayable",
					"type": "function"
				},
				{
					"inputs": [],
					"name": "inAndOut2",
					"outputs": [
						{
							"internalType": "string",
							"name": "",
							"type": "string"
						}
					],
					"stateMutability": "nonpayable",
					"type": "function"
				},
				{
					"inputs": [],
					"name": "inAndOut2_2",
					"outputs": [
						{
							"internalType": "string",
							"name": "",
							"type": "string"
						}
					],
					"stateMutability": "nonpayable",
					"type": "function"
				},
				{
					"inputs": [],
					"name": "inAndOut2_3",
					"outputs": [
						{
							"internalType": "string",
							"name": "",
							"type": "string"
						}
					],
					"stateMutability": "nonpayable",
					"type": "function"
				},
				{
					"inputs": [],
					"name": "inAndOut2_4",
					"outputs": [
						{
							"internalType": "string",
							"name": "",
							"type": "string"
						}
					],
					"stateMutability": "nonpayable",
					"type": "function"
				},
				{
					"inputs": [],
					"name": "inAndOut2_5",
					"outputs": [
						{
							"internalType": "string",
							"name": "",
							"type": "string"
						}
					],
					"stateMutability": "nonpayable",
					"type": "function"
				},
				{
					"inputs": [],
					"name": "inAndOut2_6",
					"outputs": [
						{
							"internalType": "string",
							"name": "",
							"type": "string"
						}
					],
					"stateMutability": "nonpayable",
					"type": "function"
				},
				{
					"inputs": [],
					"name": "inAndOut3",
					"outputs": [
						{
							"internalType": "string",
							"name": "",
							"type": "string"
						}
					],
					"stateMutability": "nonpayable",
					"type": "function"
				},
				{
					"inputs": [],
					"name": "occupy",
					"outputs": [],
					"stateMutability": "nonpayable",
					"type": "function"
				},
				{
					"inputs": [],
					"name": "vacancy",
					"outputs": [],
					"stateMutability": "nonpayable",
					"type": "function"
				}
			],
			"devdoc": {
				"kind": "dev",
				"methods": {},
				"version": 1
			},
			"evm": {
				"assembly": "    /* \"contracts/0515/modifier.sol\":3561:5169  contract MODIFIER5 {... */\n  mstore(0x40, 0x80)\n    /* \"contracts/0515/modifier.sol\":3598:3599  0 */\n  0x00\n    /* \"contracts/0515/modifier.sol\":3587:3599  uint mutex=0 */\n  dup1\n  sstore\n    /* \"contracts/0515/modifier.sol\":3561:5169  contract MODIFIER5 {... */\n  callvalue\n  dup1\n  iszero\n  tag_1\n  jumpi\n  0x00\n  dup1\n  revert\ntag_1:\n  pop\n  dataSize(sub_0)\n  dup1\n  dataOffset(sub_0)\n  0x00\n  codecopy\n  0x00\n  return\nstop\n\nsub_0: assembly {\n        /* \"contracts/0515/modifier.sol\":3561:5169  contract MODIFIER5 {... */\n      mstore(0x40, 0x80)\n      callvalue\n      dup1\n      iszero\n      tag_1\n      jumpi\n      0x00\n      dup1\n      revert\n    tag_1:\n      pop\n      jumpi(tag_2, lt(calldatasize, 0x04))\n      shr(0xe0, calldataload(0x00))\n      dup1\n      0x8cc85df7\n      gt\n      tag_13\n      jumpi\n      dup1\n      0x8cc85df7\n      eq\n      tag_8\n      jumpi\n      dup1\n      0x8d32c63d\n      eq\n      tag_9\n      jumpi\n      dup1\n      0xa85a86f4\n      eq\n      tag_10\n      jumpi\n      dup1\n      0xb3d3ec23\n      eq\n      tag_11\n      jumpi\n      dup1\n      0xc717a12d\n      eq\n      tag_12\n      jumpi\n      jump(tag_2)\n    tag_13:\n      dup1\n      0x0c3e3170\n      eq\n      tag_3\n      jumpi\n      dup1\n      0x0c9eb5b8\n      eq\n      tag_4\n      jumpi\n      dup1\n      0x128c93e0\n      eq\n      tag_5\n      jumpi\n      dup1\n      0x45145d7e\n      eq\n      tag_6\n      jumpi\n      dup1\n      0x57a525a5\n      eq\n      tag_7\n      jumpi\n    tag_2:\n      0x00\n      dup1\n      revert\n        /* \"contracts/0515/modifier.sol\":4636:4766  function inAndOut2_5() public  m_check  shouldBeZero2 returns(string memory) {... */\n    tag_3:\n      tag_14\n      tag_15\n      jump\t// in\n    tag_14:\n      mload(0x40)\n      tag_16\n      swap2\n      swap1\n      tag_17\n      jump\t// in\n    tag_16:\n      mload(0x40)\n      dup1\n      swap2\n      sub\n      swap1\n      return\n        /* \"contracts/0515/modifier.sol\":4406:4511  function inAndOut2_3() public shouldBeOne m_check returns(string memory) {... */\n    tag_4:\n      tag_18\n      tag_19\n      jump\t// in\n    tag_18:\n      mload(0x40)\n      tag_20\n      swap2\n      swap1\n      tag_17\n      jump\t// in\n    tag_20:\n      mload(0x40)\n      dup1\n      swap2\n      sub\n      swap1\n      return\n        /* \"contracts/0515/modifier.sol\":4177:4283  function inAndOut2() public  m_check  shouldBeZero returns(string memory) {... */\n    tag_5:\n      tag_21\n      tag_22\n      jump\t// in\n    tag_21:\n      mload(0x40)\n      tag_23\n      swap2\n      swap1\n      tag_17\n      jump\t// in\n    tag_23:\n      mload(0x40)\n      dup1\n      swap2\n      sub\n      swap1\n      return\n        /* \"contracts/0515/modifier.sol\":5112:5164  function vacancy() public {... */\n    tag_6:\n      tag_24\n      tag_25\n      jump\t// in\n    tag_24:\n      stop\n        /* \"contracts/0515/modifier.sol\":4078:4169  function inAndOut() public  m_check returns(string memory) {... */\n    tag_7:\n      tag_26\n      tag_27\n      jump\t// in\n    tag_26:\n      mload(0x40)\n      tag_28\n      swap2\n      swap1\n      tag_17\n      jump\t// in\n    tag_28:\n      mload(0x40)\n      dup1\n      swap2\n      sub\n      swap1\n      return\n        /* \"contracts/0515/modifier.sol\":4774:4920  function inAndOut2_6() public  m_check  shouldBeOne2 returns(string memory) {... */\n    tag_8:\n      tag_29\n      tag_30\n      jump\t// in\n    tag_29:\n      mload(0x40)\n      tag_31\n      swap2\n      swap1\n      tag_17\n      jump\t// in\n    tag_31:\n      mload(0x40)\n      dup1\n      swap2\n      sub\n      swap1\n      return\n        /* \"contracts/0515/modifier.sol\":4291:4398  function inAndOut2_2() public  m_check  shouldBeOne returns(string memory) {... */\n    tag_9:\n      tag_32\n      tag_33\n      jump\t// in\n    tag_32:\n      mload(0x40)\n      tag_34\n      swap2\n      swap1\n      tag_17\n      jump\t// in\n    tag_34:\n      mload(0x40)\n      dup1\n      swap2\n      sub\n      swap1\n      return\n        /* \"contracts/0515/modifier.sol\":4928:5032  function inAndOut3() public shouldBeZero m_check returns(string memory) {... */\n    tag_10:\n      tag_35\n      tag_36\n      jump\t// in\n    tag_35:\n      mload(0x40)\n      tag_37\n      swap2\n      swap1\n      tag_17\n      jump\t// in\n    tag_37:\n      mload(0x40)\n      dup1\n      swap2\n      sub\n      swap1\n      return\n        /* \"contracts/0515/modifier.sol\":4519:4628  function inAndOut2_4() public  m_check  shouldBeZero2 returns(string memory) {... */\n    tag_11:\n      tag_38\n      tag_39\n      jump\t// in\n    tag_38:\n      mload(0x40)\n      tag_40\n      swap2\n      swap1\n      tag_17\n      jump\t// in\n    tag_40:\n      mload(0x40)\n      dup1\n      swap2\n      sub\n      swap1\n      return\n        /* \"contracts/0515/modifier.sol\":5040:5104  function occupy() shouldBeZero public {... */\n    tag_12:\n      tag_41\n      tag_42\n      jump\t// in\n    tag_41:\n      stop\n        /* \"contracts/0515/modifier.sol\":4636:4766  function inAndOut2_5() public  m_check  shouldBeZero2 returns(string memory) {... */\n    tag_15:\n        /* \"contracts/0515/modifier.sol\":4698:4711  string memory */\n      0x60\n        /* \"contracts/0515/modifier.sol\":3636:3641  mutex */\n      0x00\n      dup1\n        /* \"contracts/0515/modifier.sol\":3636:3643  mutex++ */\n      dup2\n      sload\n      dup1\n      swap3\n      swap2\n      swap1\n      tag_44\n      swap1\n      tag_45\n      jump\t// in\n    tag_44:\n      swap2\n      swap1\n      pop\n      sstore\n      pop\n        /* \"contracts/0515/modifier.sol\":4725:4730  mutex */\n      0x00\n      dup1\n        /* \"contracts/0515/modifier.sol\":4725:4732  mutex-- */\n      dup2\n      sload\n      dup1\n      swap3\n      swap2\n      swap1\n      tag_48\n      swap1\n      tag_49\n      jump\t// in\n    tag_48:\n      swap2\n      swap1\n      pop\n      sstore\n      pop\n        /* \"contracts/0515/modifier.sol\":4745:4758  return \"Done\" */\n      mload(0x40)\n      dup1\n      0x40\n      add\n      0x40\n      mstore\n      dup1\n      0x04\n      dup2\n      mstore\n      0x20\n      add\n      0x446f6e6500000000000000000000000000000000000000000000000000000000\n      dup2\n      mstore\n      pop\n      swap1\n      pop\n        /* \"contracts/0515/modifier.sol\":3850:3851  0 */\n      0x00\n        /* \"contracts/0515/modifier.sol\":3843:3848  mutex */\n      dup1\n      sload\n        /* \"contracts/0515/modifier.sol\":3843:3851  mutex==0 */\n      eq\n        /* \"contracts/0515/modifier.sol\":3835:3872  require(mutex==0, \"someone is using\") */\n      tag_50\n      jumpi\n      mload(0x40)\n      0x08c379a000000000000000000000000000000000000000000000000000000000\n      dup2\n      mstore\n      0x04\n      add\n      tag_51\n      swap1\n      tag_52\n      jump\t// in\n    tag_51:\n      mload(0x40)\n      dup1\n      swap2\n      sub\n      swap1\n      revert\n    tag_50:\n        /* \"contracts/0515/modifier.sol\":3666:3671  mutex */\n      0x00\n      dup1\n        /* \"contracts/0515/modifier.sol\":3666:3673  mutex-- */\n      dup2\n      sload\n      dup1\n      swap3\n      swap2\n      swap1\n      tag_53\n      swap1\n      tag_49\n      jump\t// in\n    tag_53:\n      swap2\n      swap1\n      pop\n      sstore\n      pop\n        /* \"contracts/0515/modifier.sol\":4636:4766  function inAndOut2_5() public  m_check  shouldBeZero2 returns(string memory) {... */\n      swap1\n      jump\t// out\n        /* \"contracts/0515/modifier.sol\":4406:4511  function inAndOut2_3() public shouldBeOne m_check returns(string memory) {... */\n    tag_19:\n        /* \"contracts/0515/modifier.sol\":4464:4477  string memory */\n      0x60\n        /* \"contracts/0515/modifier.sol\":3935:3936  1 */\n      0x01\n        /* \"contracts/0515/modifier.sol\":3928:3933  mutex */\n      sload(0x00)\n        /* \"contracts/0515/modifier.sol\":3928:3936  mutex==1 */\n      eq\n        /* \"contracts/0515/modifier.sol\":3920:3954  require(mutex==1, \"should be one\") */\n      tag_55\n      jumpi\n      mload(0x40)\n      0x08c379a000000000000000000000000000000000000000000000000000000000\n      dup2\n      mstore\n      0x04\n      add\n      tag_56\n      swap1\n      tag_57\n      jump\t// in\n    tag_56:\n      mload(0x40)\n      dup1\n      swap2\n      sub\n      swap1\n      revert\n    tag_55:\n        /* \"contracts/0515/modifier.sol\":3636:3641  mutex */\n      0x00\n      dup1\n        /* \"contracts/0515/modifier.sol\":3636:3643  mutex++ */\n      dup2\n      sload\n      dup1\n      swap3\n      swap2\n      swap1\n      tag_59\n      swap1\n      tag_45\n      jump\t// in\n    tag_59:\n      swap2\n      swap1\n      pop\n      sstore\n      pop\n        /* \"contracts/0515/modifier.sol\":4490:4503  return \"Done\" */\n      mload(0x40)\n      dup1\n      0x40\n      add\n      0x40\n      mstore\n      dup1\n      0x04\n      dup2\n      mstore\n      0x20\n      add\n      0x446f6e6500000000000000000000000000000000000000000000000000000000\n      dup2\n      mstore\n      pop\n      swap1\n      pop\n        /* \"contracts/0515/modifier.sol\":3666:3671  mutex */\n      0x00\n      dup1\n        /* \"contracts/0515/modifier.sol\":3666:3673  mutex-- */\n      dup2\n      sload\n      dup1\n      swap3\n      swap2\n      swap1\n      tag_61\n      swap1\n      tag_49\n      jump\t// in\n    tag_61:\n      swap2\n      swap1\n      pop\n      sstore\n      pop\n        /* \"contracts/0515/modifier.sol\":4406:4511  function inAndOut2_3() public shouldBeOne m_check returns(string memory) {... */\n      swap1\n      jump\t// out\n        /* \"contracts/0515/modifier.sol\":4177:4283  function inAndOut2() public  m_check  shouldBeZero returns(string memory) {... */\n    tag_22:\n        /* \"contracts/0515/modifier.sol\":4236:4249  string memory */\n      0x60\n        /* \"contracts/0515/modifier.sol\":3636:3641  mutex */\n      0x00\n      dup1\n        /* \"contracts/0515/modifier.sol\":3636:3643  mutex++ */\n      dup2\n      sload\n      dup1\n      swap3\n      swap2\n      swap1\n      tag_63\n      swap1\n      tag_45\n      jump\t// in\n    tag_63:\n      swap2\n      swap1\n      pop\n      sstore\n      pop\n        /* \"contracts/0515/modifier.sol\":3737:3738  0 */\n      0x00\n        /* \"contracts/0515/modifier.sol\":3730:3735  mutex */\n      dup1\n      sload\n        /* \"contracts/0515/modifier.sol\":3730:3738  mutex==0 */\n      eq\n        /* \"contracts/0515/modifier.sol\":3722:3759  require(mutex==0, \"someone is using\") */\n      tag_65\n      jumpi\n      mload(0x40)\n      0x08c379a000000000000000000000000000000000000000000000000000000000\n      dup2\n      mstore\n      0x04\n      add\n      tag_66\n      swap1\n      tag_52\n      jump\t// in\n    tag_66:\n      mload(0x40)\n      dup1\n      swap2\n      sub\n      swap1\n      revert\n    tag_65:\n        /* \"contracts/0515/modifier.sol\":4262:4275  return \"Done\" */\n      mload(0x40)\n      dup1\n      0x40\n      add\n      0x40\n      mstore\n      dup1\n      0x04\n      dup2\n      mstore\n      0x20\n      add\n      0x446f6e6500000000000000000000000000000000000000000000000000000000\n      dup2\n      mstore\n      pop\n      swap1\n      pop\n        /* \"contracts/0515/modifier.sol\":3666:3671  mutex */\n      0x00\n      dup1\n        /* \"contracts/0515/modifier.sol\":3666:3673  mutex-- */\n      dup2\n      sload\n      dup1\n      swap3\n      swap2\n      swap1\n      tag_68\n      swap1\n      tag_49\n      jump\t// in\n    tag_68:\n      swap2\n      swap1\n      pop\n      sstore\n      pop\n        /* \"contracts/0515/modifier.sol\":4177:4283  function inAndOut2() public  m_check  shouldBeZero returns(string memory) {... */\n      swap1\n      jump\t// out\n        /* \"contracts/0515/modifier.sol\":5112:5164  function vacancy() public {... */\n    tag_25:\n        /* \"contracts/0515/modifier.sol\":5149:5154  mutex */\n      0x00\n      dup1\n        /* \"contracts/0515/modifier.sol\":5149:5156  mutex-- */\n      dup2\n      sload\n      dup1\n      swap3\n      swap2\n      swap1\n      tag_70\n      swap1\n      tag_49\n      jump\t// in\n    tag_70:\n      swap2\n      swap1\n      pop\n      sstore\n      pop\n        /* \"contracts/0515/modifier.sol\":5112:5164  function vacancy() public {... */\n      jump\t// out\n        /* \"contracts/0515/modifier.sol\":4078:4169  function inAndOut() public  m_check returns(string memory) {... */\n    tag_27:\n        /* \"contracts/0515/modifier.sol\":4122:4135  string memory */\n      0x60\n        /* \"contracts/0515/modifier.sol\":3636:3641  mutex */\n      0x00\n      dup1\n        /* \"contracts/0515/modifier.sol\":3636:3643  mutex++ */\n      dup2\n      sload\n      dup1\n      swap3\n      swap2\n      swap1\n      tag_72\n      swap1\n      tag_45\n      jump\t// in\n    tag_72:\n      swap2\n      swap1\n      pop\n      sstore\n      pop\n        /* \"contracts/0515/modifier.sol\":4148:4161  return \"Done\" */\n      mload(0x40)\n      dup1\n      0x40\n      add\n      0x40\n      mstore\n      dup1\n      0x04\n      dup2\n      mstore\n      0x20\n      add\n      0x446f6e6500000000000000000000000000000000000000000000000000000000\n      dup2\n      mstore\n      pop\n      swap1\n      pop\n        /* \"contracts/0515/modifier.sol\":3666:3671  mutex */\n      0x00\n      dup1\n        /* \"contracts/0515/modifier.sol\":3666:3673  mutex-- */\n      dup2\n      sload\n      dup1\n      swap3\n      swap2\n      swap1\n      tag_74\n      swap1\n      tag_49\n      jump\t// in\n    tag_74:\n      swap2\n      swap1\n      pop\n      sstore\n      pop\n        /* \"contracts/0515/modifier.sol\":4078:4169  function inAndOut() public  m_check returns(string memory) {... */\n      swap1\n      jump\t// out\n        /* \"contracts/0515/modifier.sol\":4774:4920  function inAndOut2_6() public  m_check  shouldBeOne2 returns(string memory) {... */\n    tag_30:\n        /* \"contracts/0515/modifier.sol\":4835:4848  string memory */\n      0x60\n        /* \"contracts/0515/modifier.sol\":3636:3641  mutex */\n      0x00\n      dup1\n        /* \"contracts/0515/modifier.sol\":3636:3643  mutex++ */\n      dup2\n      sload\n      dup1\n      swap3\n      swap2\n      swap1\n      tag_76\n      swap1\n      tag_45\n      jump\t// in\n    tag_76:\n      swap2\n      swap1\n      pop\n      sstore\n      pop\n        /* \"contracts/0515/modifier.sol\":4861:4869  occupy() */\n      tag_79\n        /* \"contracts/0515/modifier.sol\":4861:4867  occupy */\n      tag_42\n        /* \"contracts/0515/modifier.sol\":4861:4869  occupy() */\n      jump\t// in\n    tag_79:\n        /* \"contracts/0515/modifier.sol\":4881:4886  mutex */\n      0x00\n      dup1\n        /* \"contracts/0515/modifier.sol\":4881:4888  mutex-- */\n      dup2\n      sload\n      dup1\n      swap3\n      swap2\n      swap1\n      tag_80\n      swap1\n      tag_49\n      jump\t// in\n    tag_80:\n      swap2\n      swap1\n      pop\n      sstore\n      pop\n        /* \"contracts/0515/modifier.sol\":4899:4912  return \"Done\" */\n      mload(0x40)\n      dup1\n      0x40\n      add\n      0x40\n      mstore\n      dup1\n      0x04\n      dup2\n      mstore\n      0x20\n      add\n      0x446f6e6500000000000000000000000000000000000000000000000000000000\n      dup2\n      mstore\n      pop\n      swap1\n      pop\n        /* \"contracts/0515/modifier.sol\":4043:4044  1 */\n      0x01\n        /* \"contracts/0515/modifier.sol\":4036:4041  mutex */\n      sload(0x00)\n        /* \"contracts/0515/modifier.sol\":4036:4044  mutex==1 */\n      eq\n        /* \"contracts/0515/modifier.sol\":4028:4062  require(mutex==1, \"should be one\") */\n      tag_81\n      jumpi\n      mload(0x40)\n      0x08c379a000000000000000000000000000000000000000000000000000000000\n      dup2\n      mstore\n      0x04\n      add\n      tag_82\n      swap1\n      tag_57\n      jump\t// in\n    tag_82:\n      mload(0x40)\n      dup1\n      swap2\n      sub\n      swap1\n      revert\n    tag_81:\n        /* \"contracts/0515/modifier.sol\":3666:3671  mutex */\n      0x00\n      dup1\n        /* \"contracts/0515/modifier.sol\":3666:3673  mutex-- */\n      dup2\n      sload\n      dup1\n      swap3\n      swap2\n      swap1\n      tag_83\n      swap1\n      tag_49\n      jump\t// in\n    tag_83:\n      swap2\n      swap1\n      pop\n      sstore\n      pop\n        /* \"contracts/0515/modifier.sol\":4774:4920  function inAndOut2_6() public  m_check  shouldBeOne2 returns(string memory) {... */\n      swap1\n      jump\t// out\n        /* \"contracts/0515/modifier.sol\":4291:4398  function inAndOut2_2() public  m_check  shouldBeOne returns(string memory) {... */\n    tag_33:\n        /* \"contracts/0515/modifier.sol\":4351:4364  string memory */\n      0x60\n        /* \"contracts/0515/modifier.sol\":3636:3641  mutex */\n      0x00\n      dup1\n        /* \"contracts/0515/modifier.sol\":3636:3643  mutex++ */\n      dup2\n      sload\n      dup1\n      swap3\n      swap2\n      swap1\n      tag_85\n      swap1\n      tag_45\n      jump\t// in\n    tag_85:\n      swap2\n      swap1\n      pop\n      sstore\n      pop\n        /* \"contracts/0515/modifier.sol\":3935:3936  1 */\n      0x01\n        /* \"contracts/0515/modifier.sol\":3928:3933  mutex */\n      sload(0x00)\n        /* \"contracts/0515/modifier.sol\":3928:3936  mutex==1 */\n      eq\n        /* \"contracts/0515/modifier.sol\":3920:3954  require(mutex==1, \"should be one\") */\n      tag_87\n      jumpi\n      mload(0x40)\n      0x08c379a000000000000000000000000000000000000000000000000000000000\n      dup2\n      mstore\n      0x04\n      add\n      tag_88\n      swap1\n      tag_57\n      jump\t// in\n    tag_88:\n      mload(0x40)\n      dup1\n      swap2\n      sub\n      swap1\n      revert\n    tag_87:\n        /* \"contracts/0515/modifier.sol\":4377:4390  return \"Done\" */\n      mload(0x40)\n      dup1\n      0x40\n      add\n      0x40\n      mstore\n      dup1\n      0x04\n      dup2\n      mstore\n      0x20\n      add\n      0x446f6e6500000000000000000000000000000000000000000000000000000000\n      dup2\n      mstore\n      pop\n      swap1\n      pop\n        /* \"contracts/0515/modifier.sol\":3666:3671  mutex */\n      0x00\n      dup1\n        /* \"contracts/0515/modifier.sol\":3666:3673  mutex-- */\n      dup2\n      sload\n      dup1\n      swap3\n      swap2\n      swap1\n      tag_90\n      swap1\n      tag_49\n      jump\t// in\n    tag_90:\n      swap2\n      swap1\n      pop\n      sstore\n      pop\n        /* \"contracts/0515/modifier.sol\":4291:4398  function inAndOut2_2() public  m_check  shouldBeOne returns(string memory) {... */\n      swap1\n      jump\t// out\n        /* \"contracts/0515/modifier.sol\":4928:5032  function inAndOut3() public shouldBeZero m_check returns(string memory) {... */\n    tag_36:\n        /* \"contracts/0515/modifier.sol\":4985:4998  string memory */\n      0x60\n        /* \"contracts/0515/modifier.sol\":3737:3738  0 */\n      0x00\n        /* \"contracts/0515/modifier.sol\":3730:3735  mutex */\n      dup1\n      sload\n        /* \"contracts/0515/modifier.sol\":3730:3738  mutex==0 */\n      eq\n        /* \"contracts/0515/modifier.sol\":3722:3759  require(mutex==0, \"someone is using\") */\n      tag_92\n      jumpi\n      mload(0x40)\n      0x08c379a000000000000000000000000000000000000000000000000000000000\n      dup2\n      mstore\n      0x04\n      add\n      tag_93\n      swap1\n      tag_52\n      jump\t// in\n    tag_93:\n      mload(0x40)\n      dup1\n      swap2\n      sub\n      swap1\n      revert\n    tag_92:\n        /* \"contracts/0515/modifier.sol\":3636:3641  mutex */\n      0x00\n      dup1\n        /* \"contracts/0515/modifier.sol\":3636:3643  mutex++ */\n      dup2\n      sload\n      dup1\n      swap3\n      swap2\n      swap1\n      tag_95\n      swap1\n      tag_45\n      jump\t// in\n    tag_95:\n      swap2\n      swap1\n      pop\n      sstore\n      pop\n        /* \"contracts/0515/modifier.sol\":5011:5024  return \"Done\" */\n      mload(0x40)\n      dup1\n      0x40\n      add\n      0x40\n      mstore\n      dup1\n      0x04\n      dup2\n      mstore\n      0x20\n      add\n      0x446f6e6500000000000000000000000000000000000000000000000000000000\n      dup2\n      mstore\n      pop\n      swap1\n      pop\n        /* \"contracts/0515/modifier.sol\":3666:3671  mutex */\n      0x00\n      dup1\n        /* \"contracts/0515/modifier.sol\":3666:3673  mutex-- */\n      dup2\n      sload\n      dup1\n      swap3\n      swap2\n      swap1\n      tag_97\n      swap1\n      tag_49\n      jump\t// in\n    tag_97:\n      swap2\n      swap1\n      pop\n      sstore\n      pop\n        /* \"contracts/0515/modifier.sol\":4928:5032  function inAndOut3() public shouldBeZero m_check returns(string memory) {... */\n      swap1\n      jump\t// out\n        /* \"contracts/0515/modifier.sol\":4519:4628  function inAndOut2_4() public  m_check  shouldBeZero2 returns(string memory) {... */\n    tag_39:\n        /* \"contracts/0515/modifier.sol\":4581:4594  string memory */\n      0x60\n        /* \"contracts/0515/modifier.sol\":3636:3641  mutex */\n      0x00\n      dup1\n        /* \"contracts/0515/modifier.sol\":3636:3643  mutex++ */\n      dup2\n      sload\n      dup1\n      swap3\n      swap2\n      swap1\n      tag_99\n      swap1\n      tag_45\n      jump\t// in\n    tag_99:\n      swap2\n      swap1\n      pop\n      sstore\n      pop\n        /* \"contracts/0515/modifier.sol\":4607:4620  return \"Done\" */\n      mload(0x40)\n      dup1\n      0x40\n      add\n      0x40\n      mstore\n      dup1\n      0x04\n      dup2\n      mstore\n      0x20\n      add\n      0x446f6e6500000000000000000000000000000000000000000000000000000000\n      dup2\n      mstore\n      pop\n      swap1\n      pop\n        /* \"contracts/0515/modifier.sol\":3850:3851  0 */\n      0x00\n        /* \"contracts/0515/modifier.sol\":3843:3848  mutex */\n      dup1\n      sload\n        /* \"contracts/0515/modifier.sol\":3843:3851  mutex==0 */\n      eq\n        /* \"contracts/0515/modifier.sol\":3835:3872  require(mutex==0, \"someone is using\") */\n      tag_102\n      jumpi\n      mload(0x40)\n      0x08c379a000000000000000000000000000000000000000000000000000000000\n      dup2\n      mstore\n      0x04\n      add\n      tag_103\n      swap1\n      tag_52\n      jump\t// in\n    tag_103:\n      mload(0x40)\n      dup1\n      swap2\n      sub\n      swap1\n      revert\n    tag_102:\n        /* \"contracts/0515/modifier.sol\":3666:3671  mutex */\n      0x00\n      dup1\n        /* \"contracts/0515/modifier.sol\":3666:3673  mutex-- */\n      dup2\n      sload\n      dup1\n      swap3\n      swap2\n      swap1\n      tag_104\n      swap1\n      tag_49\n      jump\t// in\n    tag_104:\n      swap2\n      swap1\n      pop\n      sstore\n      pop\n        /* \"contracts/0515/modifier.sol\":4519:4628  function inAndOut2_4() public  m_check  shouldBeZero2 returns(string memory) {... */\n      swap1\n      jump\t// out\n        /* \"contracts/0515/modifier.sol\":5040:5104  function occupy() shouldBeZero public {... */\n    tag_42:\n        /* \"contracts/0515/modifier.sol\":3737:3738  0 */\n      0x00\n        /* \"contracts/0515/modifier.sol\":3730:3735  mutex */\n      dup1\n      sload\n        /* \"contracts/0515/modifier.sol\":3730:3738  mutex==0 */\n      eq\n        /* \"contracts/0515/modifier.sol\":3722:3759  require(mutex==0, \"someone is using\") */\n      tag_106\n      jumpi\n      mload(0x40)\n      0x08c379a000000000000000000000000000000000000000000000000000000000\n      dup2\n      mstore\n      0x04\n      add\n      tag_107\n      swap1\n      tag_52\n      jump\t// in\n    tag_107:\n      mload(0x40)\n      dup1\n      swap2\n      sub\n      swap1\n      revert\n    tag_106:\n        /* \"contracts/0515/modifier.sol\":5089:5094  mutex */\n      0x00\n      dup1\n        /* \"contracts/0515/modifier.sol\":5089:5096  mutex++ */\n      dup2\n      sload\n      dup1\n      swap3\n      swap2\n      swap1\n      tag_109\n      swap1\n      tag_45\n      jump\t// in\n    tag_109:\n      swap2\n      swap1\n      pop\n      sstore\n      pop\n        /* \"contracts/0515/modifier.sol\":5040:5104  function occupy() shouldBeZero public {... */\n      jump\t// out\n        /* \"#utility.yul\":7:106   */\n    tag_110:\n        /* \"#utility.yul\":59:65   */\n      0x00\n        /* \"#utility.yul\":93:98   */\n      dup2\n        /* \"#utility.yul\":87:99   */\n      mload\n        /* \"#utility.yul\":77:99   */\n      swap1\n      pop\n        /* \"#utility.yul\":7:106   */\n      swap2\n      swap1\n      pop\n      jump\t// out\n        /* \"#utility.yul\":112:281   */\n    tag_111:\n        /* \"#utility.yul\":196:207   */\n      0x00\n        /* \"#utility.yul\":230:236   */\n      dup3\n        /* \"#utility.yul\":225:228   */\n      dup3\n        /* \"#utility.yul\":218:237   */\n      mstore\n        /* \"#utility.yul\":270:274   */\n      0x20\n        /* \"#utility.yul\":265:268   */\n      dup3\n        /* \"#utility.yul\":261:275   */\n      add\n        /* \"#utility.yul\":246:275   */\n      swap1\n      pop\n        /* \"#utility.yul\":112:281   */\n      swap3\n      swap2\n      pop\n      pop\n      jump\t// out\n        /* \"#utility.yul\":287:533   */\n    tag_112:\n        /* \"#utility.yul\":368:369   */\n      0x00\n        /* \"#utility.yul\":378:491   */\n    tag_125:\n        /* \"#utility.yul\":392:398   */\n      dup4\n        /* \"#utility.yul\":389:390   */\n      dup2\n        /* \"#utility.yul\":386:399   */\n      lt\n        /* \"#utility.yul\":378:491   */\n      iszero\n      tag_127\n      jumpi\n        /* \"#utility.yul\":477:478   */\n      dup1\n        /* \"#utility.yul\":472:475   */\n      dup3\n        /* \"#utility.yul\":468:479   */\n      add\n        /* \"#utility.yul\":462:480   */\n      mload\n        /* \"#utility.yul\":458:459   */\n      dup2\n        /* \"#utility.yul\":453:456   */\n      dup5\n        /* \"#utility.yul\":449:460   */\n      add\n        /* \"#utility.yul\":442:481   */\n      mstore\n        /* \"#utility.yul\":414:416   */\n      0x20\n        /* \"#utility.yul\":411:412   */\n      dup2\n        /* \"#utility.yul\":407:417   */\n      add\n        /* \"#utility.yul\":402:417   */\n      swap1\n      pop\n        /* \"#utility.yul\":378:491   */\n      jump(tag_125)\n    tag_127:\n        /* \"#utility.yul\":525:526   */\n      0x00\n        /* \"#utility.yul\":516:522   */\n      dup5\n        /* \"#utility.yul\":511:514   */\n      dup5\n        /* \"#utility.yul\":507:523   */\n      add\n        /* \"#utility.yul\":500:527   */\n      mstore\n        /* \"#utility.yul\":349:533   */\n      pop\n        /* \"#utility.yul\":287:533   */\n      pop\n      pop\n      pop\n      jump\t// out\n        /* \"#utility.yul\":539:641   */\n    tag_113:\n        /* \"#utility.yul\":580:586   */\n      0x00\n        /* \"#utility.yul\":631:633   */\n      0x1f\n        /* \"#utility.yul\":627:634   */\n      not\n        /* \"#utility.yul\":622:624   */\n      0x1f\n        /* \"#utility.yul\":615:620   */\n      dup4\n        /* \"#utility.yul\":611:625   */\n      add\n        /* \"#utility.yul\":607:635   */\n      and\n        /* \"#utility.yul\":597:635   */\n      swap1\n      pop\n        /* \"#utility.yul\":539:641   */\n      swap2\n      swap1\n      pop\n      jump\t// out\n        /* \"#utility.yul\":647:1024   */\n    tag_114:\n        /* \"#utility.yul\":735:738   */\n      0x00\n        /* \"#utility.yul\":763:802   */\n      tag_130\n        /* \"#utility.yul\":796:801   */\n      dup3\n        /* \"#utility.yul\":763:802   */\n      tag_110\n      jump\t// in\n    tag_130:\n        /* \"#utility.yul\":818:889   */\n      tag_131\n        /* \"#utility.yul\":882:888   */\n      dup2\n        /* \"#utility.yul\":877:880   */\n      dup6\n        /* \"#utility.yul\":818:889   */\n      tag_111\n      jump\t// in\n    tag_131:\n        /* \"#utility.yul\":811:889   */\n      swap4\n      pop\n        /* \"#utility.yul\":898:963   */\n      tag_132\n        /* \"#utility.yul\":956:962   */\n      dup2\n        /* \"#utility.yul\":951:954   */\n      dup6\n        /* \"#utility.yul\":944:948   */\n      0x20\n        /* \"#utility.yul\":937:942   */\n      dup7\n        /* \"#utility.yul\":933:949   */\n      add\n        /* \"#utility.yul\":898:963   */\n      tag_112\n      jump\t// in\n    tag_132:\n        /* \"#utility.yul\":988:1017   */\n      tag_133\n        /* \"#utility.yul\":1010:1016   */\n      dup2\n        /* \"#utility.yul\":988:1017   */\n      tag_113\n      jump\t// in\n    tag_133:\n        /* \"#utility.yul\":983:986   */\n      dup5\n        /* \"#utility.yul\":979:1018   */\n      add\n        /* \"#utility.yul\":972:1018   */\n      swap2\n      pop\n        /* \"#utility.yul\":739:1024   */\n      pop\n        /* \"#utility.yul\":647:1024   */\n      swap3\n      swap2\n      pop\n      pop\n      jump\t// out\n        /* \"#utility.yul\":1030:1343   */\n    tag_17:\n        /* \"#utility.yul\":1143:1147   */\n      0x00\n        /* \"#utility.yul\":1181:1183   */\n      0x20\n        /* \"#utility.yul\":1170:1179   */\n      dup3\n        /* \"#utility.yul\":1166:1184   */\n      add\n        /* \"#utility.yul\":1158:1184   */\n      swap1\n      pop\n        /* \"#utility.yul\":1230:1239   */\n      dup2\n        /* \"#utility.yul\":1224:1228   */\n      dup2\n        /* \"#utility.yul\":1220:1240   */\n      sub\n        /* \"#utility.yul\":1216:1217   */\n      0x00\n        /* \"#utility.yul\":1205:1214   */\n      dup4\n        /* \"#utility.yul\":1201:1218   */\n      add\n        /* \"#utility.yul\":1194:1241   */\n      mstore\n        /* \"#utility.yul\":1258:1336   */\n      tag_135\n        /* \"#utility.yul\":1331:1335   */\n      dup2\n        /* \"#utility.yul\":1322:1328   */\n      dup5\n        /* \"#utility.yul\":1258:1336   */\n      tag_114\n      jump\t// in\n    tag_135:\n        /* \"#utility.yul\":1250:1336   */\n      swap1\n      pop\n        /* \"#utility.yul\":1030:1343   */\n      swap3\n      swap2\n      pop\n      pop\n      jump\t// out\n        /* \"#utility.yul\":1349:1529   */\n    tag_115:\n        /* \"#utility.yul\":1397:1474   */\n      0x4e487b7100000000000000000000000000000000000000000000000000000000\n        /* \"#utility.yul\":1394:1395   */\n      0x00\n        /* \"#utility.yul\":1387:1475   */\n      mstore\n        /* \"#utility.yul\":1494:1498   */\n      0x11\n        /* \"#utility.yul\":1491:1492   */\n      0x04\n        /* \"#utility.yul\":1484:1499   */\n      mstore\n        /* \"#utility.yul\":1518:1522   */\n      0x24\n        /* \"#utility.yul\":1515:1516   */\n      0x00\n        /* \"#utility.yul\":1508:1523   */\n      revert\n        /* \"#utility.yul\":1535:1612   */\n    tag_116:\n        /* \"#utility.yul\":1572:1579   */\n      0x00\n        /* \"#utility.yul\":1601:1606   */\n      dup2\n        /* \"#utility.yul\":1590:1606   */\n      swap1\n      pop\n        /* \"#utility.yul\":1535:1612   */\n      swap2\n      swap1\n      pop\n      jump\t// out\n        /* \"#utility.yul\":1618:1851   */\n    tag_45:\n        /* \"#utility.yul\":1657:1660   */\n      0x00\n        /* \"#utility.yul\":1680:1704   */\n      tag_139\n        /* \"#utility.yul\":1698:1703   */\n      dup3\n        /* \"#utility.yul\":1680:1704   */\n      tag_116\n      jump\t// in\n    tag_139:\n        /* \"#utility.yul\":1671:1704   */\n      swap2\n      pop\n        /* \"#utility.yul\":1726:1792   */\n      0xffffffffffffffffffffffffffffffffffffffffffffffffffffffffffffffff\n        /* \"#utility.yul\":1719:1724   */\n      dup3\n        /* \"#utility.yul\":1716:1793   */\n      sub\n        /* \"#utility.yul\":1713:1816   */\n      tag_140\n      jumpi\n        /* \"#utility.yul\":1796:1814   */\n      tag_141\n      tag_115\n      jump\t// in\n    tag_141:\n        /* \"#utility.yul\":1713:1816   */\n    tag_140:\n        /* \"#utility.yul\":1843:1844   */\n      0x01\n        /* \"#utility.yul\":1836:1841   */\n      dup3\n        /* \"#utility.yul\":1832:1845   */\n      add\n        /* \"#utility.yul\":1825:1845   */\n      swap1\n      pop\n        /* \"#utility.yul\":1618:1851   */\n      swap2\n      swap1\n      pop\n      jump\t// out\n        /* \"#utility.yul\":1857:2028   */\n    tag_49:\n        /* \"#utility.yul\":1896:1899   */\n      0x00\n        /* \"#utility.yul\":1919:1943   */\n      tag_143\n        /* \"#utility.yul\":1937:1942   */\n      dup3\n        /* \"#utility.yul\":1919:1943   */\n      tag_116\n      jump\t// in\n    tag_143:\n        /* \"#utility.yul\":1910:1943   */\n      swap2\n      pop\n        /* \"#utility.yul\":1965:1969   */\n      0x00\n        /* \"#utility.yul\":1958:1963   */\n      dup3\n        /* \"#utility.yul\":1955:1970   */\n      sub\n        /* \"#utility.yul\":1952:1993   */\n      tag_144\n      jumpi\n        /* \"#utility.yul\":1973:1991   */\n      tag_145\n      tag_115\n      jump\t// in\n    tag_145:\n        /* \"#utility.yul\":1952:1993   */\n    tag_144:\n        /* \"#utility.yul\":2020:2021   */\n      0x01\n        /* \"#utility.yul\":2013:2018   */\n      dup3\n        /* \"#utility.yul\":2009:2022   */\n      sub\n        /* \"#utility.yul\":2002:2022   */\n      swap1\n      pop\n        /* \"#utility.yul\":1857:2028   */\n      swap2\n      swap1\n      pop\n      jump\t// out\n        /* \"#utility.yul\":2034:2200   */\n    tag_117:\n        /* \"#utility.yul\":2174:2192   */\n      0x736f6d656f6e65206973207573696e6700000000000000000000000000000000\n        /* \"#utility.yul\":2170:2171   */\n      0x00\n        /* \"#utility.yul\":2162:2168   */\n      dup3\n        /* \"#utility.yul\":2158:2172   */\n      add\n        /* \"#utility.yul\":2151:2193   */\n      mstore\n        /* \"#utility.yul\":2034:2200   */\n      pop\n      jump\t// out\n        /* \"#utility.yul\":2206:2572   */\n    tag_118:\n        /* \"#utility.yul\":2348:2351   */\n      0x00\n        /* \"#utility.yul\":2369:2436   */\n      tag_148\n        /* \"#utility.yul\":2433:2435   */\n      0x10\n        /* \"#utility.yul\":2428:2431   */\n      dup4\n        /* \"#utility.yul\":2369:2436   */\n      tag_111\n      jump\t// in\n    tag_148:\n        /* \"#utility.yul\":2362:2436   */\n      swap2\n      pop\n        /* \"#utility.yul\":2445:2538   */\n      tag_149\n        /* \"#utility.yul\":2534:2537   */\n      dup3\n        /* \"#utility.yul\":2445:2538   */\n      tag_117\n      jump\t// in\n    tag_149:\n        /* \"#utility.yul\":2563:2565   */\n      0x20\n        /* \"#utility.yul\":2558:2561   */\n      dup3\n        /* \"#utility.yul\":2554:2566   */\n      add\n        /* \"#utility.yul\":2547:2566   */\n      swap1\n      pop\n        /* \"#utility.yul\":2206:2572   */\n      swap2\n      swap1\n      pop\n      jump\t// out\n        /* \"#utility.yul\":2578:2997   */\n    tag_52:\n        /* \"#utility.yul\":2744:2748   */\n      0x00\n        /* \"#utility.yul\":2782:2784   */\n      0x20\n        /* \"#utility.yul\":2771:2780   */\n      dup3\n        /* \"#utility.yul\":2767:2785   */\n      add\n        /* \"#utility.yul\":2759:2785   */\n      swap1\n      pop\n        /* \"#utility.yul\":2831:2840   */\n      dup2\n        /* \"#utility.yul\":2825:2829   */\n      dup2\n        /* \"#utility.yul\":2821:2841   */\n      sub\n        /* \"#utility.yul\":2817:2818   */\n      0x00\n        /* \"#utility.yul\":2806:2815   */\n      dup4\n        /* \"#utility.yul\":2802:2819   */\n      add\n        /* \"#utility.yul\":2795:2842   */\n      mstore\n        /* \"#utility.yul\":2859:2990   */\n      tag_151\n        /* \"#utility.yul\":2985:2989   */\n      dup2\n        /* \"#utility.yul\":2859:2990   */\n      tag_118\n      jump\t// in\n    tag_151:\n        /* \"#utility.yul\":2851:2990   */\n      swap1\n      pop\n        /* \"#utility.yul\":2578:2997   */\n      swap2\n      swap1\n      pop\n      jump\t// out\n        /* \"#utility.yul\":3003:3166   */\n    tag_119:\n        /* \"#utility.yul\":3143:3158   */\n      0x73686f756c64206265206f6e6500000000000000000000000000000000000000\n        /* \"#utility.yul\":3139:3140   */\n      0x00\n        /* \"#utility.yul\":3131:3137   */\n      dup3\n        /* \"#utility.yul\":3127:3141   */\n      add\n        /* \"#utility.yul\":3120:3159   */\n      mstore\n        /* \"#utility.yul\":3003:3166   */\n      pop\n      jump\t// out\n        /* \"#utility.yul\":3172:3538   */\n    tag_120:\n        /* \"#utility.yul\":3314:3317   */\n      0x00\n        /* \"#utility.yul\":3335:3402   */\n      tag_154\n        /* \"#utility.yul\":3399:3401   */\n      0x0d\n        /* \"#utility.yul\":3394:3397   */\n      dup4\n        /* \"#utility.yul\":3335:3402   */\n      tag_111\n      jump\t// in\n    tag_154:\n        /* \"#utility.yul\":3328:3402   */\n      swap2\n      pop\n        /* \"#utility.yul\":3411:3504   */\n      tag_155\n        /* \"#utility.yul\":3500:3503   */\n      dup3\n        /* \"#utility.yul\":3411:3504   */\n      tag_119\n      jump\t// in\n    tag_155:\n        /* \"#utility.yul\":3529:3531   */\n      0x20\n        /* \"#utility.yul\":3524:3527   */\n      dup3\n        /* \"#utility.yul\":3520:3532   */\n      add\n        /* \"#utility.yul\":3513:3532   */\n      swap1\n      pop\n        /* \"#utility.yul\":3172:3538   */\n      swap2\n      swap1\n      pop\n      jump\t// out\n        /* \"#utility.yul\":3544:3963   */\n    tag_57:\n        /* \"#utility.yul\":3710:3714   */\n      0x00\n        /* \"#utility.yul\":3748:3750   */\n      0x20\n        /* \"#utility.yul\":3737:3746   */\n      dup3\n        /* \"#utility.yul\":3733:3751   */\n      add\n        /* \"#utility.yul\":3725:3751   */\n      swap1\n      pop\n        /* \"#utility.yul\":3797:3806   */\n      dup2\n        /* \"#utility.yul\":3791:3795   */\n      dup2\n        /* \"#utility.yul\":3787:3807   */\n      sub\n        /* \"#utility.yul\":3783:3784   */\n      0x00\n        /* \"#utility.yul\":3772:3781   */\n      dup4\n        /* \"#utility.yul\":3768:3785   */\n      add\n        /* \"#utility.yul\":3761:3808   */\n      mstore\n        /* \"#utility.yul\":3825:3956   */\n      tag_157\n        /* \"#utility.yul\":3951:3955   */\n      dup2\n        /* \"#utility.yul\":3825:3956   */\n      tag_120\n      jump\t// in\n    tag_157:\n        /* \"#utility.yul\":3817:3956   */\n      swap1\n      pop\n        /* \"#utility.yul\":3544:3963   */\n      swap2\n      swap1\n      pop\n      jump\t// out\n\n    auxdata: 0xa26469706673582212204e63d341d727c8c153ecba5f79ea1b274fecc2b67da5c1f28eec557b20a9603564736f6c63430008120033\n}\n",
				"bytecode": {
					"linkReferences": {},
					"object": "60806040526000805534801561001457600080fd5b506109f4806100246000396000f3fe608060405234801561001057600080fd5b506004361061009e5760003560e01c80638cc85df7116100665780638cc85df7146101255780638d32c63d14610143578063a85a86f414610161578063b3d3ec231461017f578063c717a12d1461019d5761009e565b80630c3e3170146100a35780630c9eb5b8146100c1578063128c93e0146100df57806345145d7e146100fd57806357a525a514610107575b600080fd5b6100ab6101a7565b6040516100b8919061081a565b60405180910390f35b6100c961026d565b6040516100d6919061081a565b60405180910390f35b6100e761031d565b6040516100f4919061081a565b60405180910390f35b6101056103cc565b005b61010f6103e5565b60405161011c919061081a565b60405180910390f35b61012d610450565b60405161013a919061081a565b60405180910390f35b61014b61051f565b604051610158919061081a565b60405180910390f35b6101696105cf565b604051610176919061081a565b60405180910390f35b61018761067e565b604051610194919061081a565b60405180910390f35b6101a561072d565b005b60606000808154809291906101bb90610875565b91905055506000808154809291906101d2906108bd565b91905055506040518060400160405280600481526020017f446f6e650000000000000000000000000000000000000000000000000000000081525090506000805414610253576040517f08c379a000000000000000000000000000000000000000000000000000000000815260040161024a90610932565b60405180910390fd5b600080815480929190610265906108bd565b919050555090565b60606001600054146102b4576040517f08c379a00000000000000000000000000000000000000000000000000000000081526004016102ab9061099e565b60405180910390fd5b6000808154809291906102c690610875565b91905055506040518060400160405280600481526020017f446f6e65000000000000000000000000000000000000000000000000000000008152509050600080815480929190610315906108bd565b919050555090565b606060008081548092919061033190610875565b9190505550600080541461037a576040517f08c379a000000000000000000000000000000000000000000000000000000000815260040161037190610932565b60405180910390fd5b6040518060400160405280600481526020017f446f6e650000000000000000000000000000000000000000000000000000000081525090506000808154809291906103c4906108bd565b919050555090565b6000808154809291906103de906108bd565b9190505550565b60606000808154809291906103f990610875565b91905055506040518060400160405280600481526020017f446f6e65000000000000000000000000000000000000000000000000000000008152509050600080815480929190610448906108bd565b919050555090565b606060008081548092919061046490610875565b919050555061047161072d565b600080815480929190610483906108bd565b91905055506040518060400160405280600481526020017f446f6e65000000000000000000000000000000000000000000000000000000008152509050600160005414610505576040517f08c379a00000000000000000000000000000000000000000000000000000000081526004016104fc9061099e565b60405180910390fd5b600080815480929190610517906108bd565b919050555090565b606060008081548092919061053390610875565b919050555060016000541461057d576040517f08c379a00000000000000000000000000000000000000000000000000000000081526004016105749061099e565b60405180910390fd5b6040518060400160405280600481526020017f446f6e650000000000000000000000000000000000000000000000000000000081525090506000808154809291906105c7906108bd565b919050555090565b60606000805414610615576040517f08c379a000000000000000000000000000000000000000000000000000000000815260040161060c90610932565b60405180910390fd5b60008081548092919061062790610875565b91905055506040518060400160405280600481526020017f446f6e65000000000000000000000000000000000000000000000000000000008152509050600080815480929190610676906108bd565b919050555090565b606060008081548092919061069290610875565b91905055506040518060400160405280600481526020017f446f6e650000000000000000000000000000000000000000000000000000000081525090506000805414610713576040517f08c379a000000000000000000000000000000000000000000000000000000000815260040161070a90610932565b60405180910390fd5b600080815480929190610725906108bd565b919050555090565b6000805414610771576040517f08c379a000000000000000000000000000000000000000000000000000000000815260040161076890610932565b60405180910390fd5b60008081548092919061078390610875565b9190505550565b600081519050919050565b600082825260208201905092915050565b60005b838110156107c45780820151818401526020810190506107a9565b60008484015250505050565b6000601f19601f8301169050919050565b60006107ec8261078a565b6107f68185610795565b93506108068185602086016107a6565b61080f816107d0565b840191505092915050565b6000602082019050818103600083015261083481846107e1565b905092915050565b7f4e487b7100000000000000000000000000000000000000000000000000000000600052601160045260246000fd5b6000819050919050565b60006108808261086b565b91507fffffffffffffffffffffffffffffffffffffffffffffffffffffffffffffffff82036108b2576108b161083c565b5b600182019050919050565b60006108c88261086b565b9150600082036108db576108da61083c565b5b600182039050919050565b7f736f6d656f6e65206973207573696e6700000000000000000000000000000000600082015250565b600061091c601083610795565b9150610927826108e6565b602082019050919050565b6000602082019050818103600083015261094b8161090f565b9050919050565b7f73686f756c64206265206f6e6500000000000000000000000000000000000000600082015250565b6000610988600d83610795565b915061099382610952565b602082019050919050565b600060208201905081810360008301526109b78161097b565b905091905056fea26469706673582212204e63d341d727c8c153ecba5f79ea1b274fecc2b67da5c1f28eec557b20a9603564736f6c63430008120033",
					"opcodes": "PUSH1 0x80 PUSH1 0x40 MSTORE PUSH1 0x0 DUP1 SSTORE CALLVALUE DUP1 ISZERO PUSH2 0x14 JUMPI PUSH1 0x0 DUP1 REVERT JUMPDEST POP PUSH2 0x9F4 DUP1 PUSH2 0x24 PUSH1 0x0 CODECOPY PUSH1 0x0 RETURN INVALID PUSH1 0x80 PUSH1 0x40 MSTORE CALLVALUE DUP1 ISZERO PUSH2 0x10 JUMPI PUSH1 0x0 DUP1 REVERT JUMPDEST POP PUSH1 0x4 CALLDATASIZE LT PUSH2 0x9E JUMPI PUSH1 0x0 CALLDATALOAD PUSH1 0xE0 SHR DUP1 PUSH4 0x8CC85DF7 GT PUSH2 0x66 JUMPI DUP1 PUSH4 0x8CC85DF7 EQ PUSH2 0x125 JUMPI DUP1 PUSH4 0x8D32C63D EQ PUSH2 0x143 JUMPI DUP1 PUSH4 0xA85A86F4 EQ PUSH2 0x161 JUMPI DUP1 PUSH4 0xB3D3EC23 EQ PUSH2 0x17F JUMPI DUP1 PUSH4 0xC717A12D EQ PUSH2 0x19D JUMPI PUSH2 0x9E JUMP JUMPDEST DUP1 PUSH4 0xC3E3170 EQ PUSH2 0xA3 JUMPI DUP1 PUSH4 0xC9EB5B8 EQ PUSH2 0xC1 JUMPI DUP1 PUSH4 0x128C93E0 EQ PUSH2 0xDF JUMPI DUP1 PUSH4 0x45145D7E EQ PUSH2 0xFD JUMPI DUP1 PUSH4 0x57A525A5 EQ PUSH2 0x107 JUMPI JUMPDEST PUSH1 0x0 DUP1 REVERT JUMPDEST PUSH2 0xAB PUSH2 0x1A7 JUMP JUMPDEST PUSH1 0x40 MLOAD PUSH2 0xB8 SWAP2 SWAP1 PUSH2 0x81A JUMP JUMPDEST PUSH1 0x40 MLOAD DUP1 SWAP2 SUB SWAP1 RETURN JUMPDEST PUSH2 0xC9 PUSH2 0x26D JUMP JUMPDEST PUSH1 0x40 MLOAD PUSH2 0xD6 SWAP2 SWAP1 PUSH2 0x81A JUMP JUMPDEST PUSH1 0x40 MLOAD DUP1 SWAP2 SUB SWAP1 RETURN JUMPDEST PUSH2 0xE7 PUSH2 0x31D JUMP JUMPDEST PUSH1 0x40 MLOAD PUSH2 0xF4 SWAP2 SWAP1 PUSH2 0x81A JUMP JUMPDEST PUSH1 0x40 MLOAD DUP1 SWAP2 SUB SWAP1 RETURN JUMPDEST PUSH2 0x105 PUSH2 0x3CC JUMP JUMPDEST STOP JUMPDEST PUSH2 0x10F PUSH2 0x3E5 JUMP JUMPDEST PUSH1 0x40 MLOAD PUSH2 0x11C SWAP2 SWAP1 PUSH2 0x81A JUMP JUMPDEST PUSH1 0x40 MLOAD DUP1 SWAP2 SUB SWAP1 RETURN JUMPDEST PUSH2 0x12D PUSH2 0x450 JUMP JUMPDEST PUSH1 0x40 MLOAD PUSH2 0x13A SWAP2 SWAP1 PUSH2 0x81A JUMP JUMPDEST PUSH1 0x40 MLOAD DUP1 SWAP2 SUB SWAP1 RETURN JUMPDEST PUSH2 0x14B PUSH2 0x51F JUMP JUMPDEST PUSH1 0x40 MLOAD PUSH2 0x158 SWAP2 SWAP1 PUSH2 0x81A JUMP JUMPDEST PUSH1 0x40 MLOAD DUP1 SWAP2 SUB SWAP1 RETURN JUMPDEST PUSH2 0x169 PUSH2 0x5CF JUMP JUMPDEST PUSH1 0x40 MLOAD PUSH2 0x176 SWAP2 SWAP1 PUSH2 0x81A JUMP JUMPDEST PUSH1 0x40 MLOAD DUP1 SWAP2 SUB SWAP1 RETURN JUMPDEST PUSH2 0x187 PUSH2 0x67E JUMP JUMPDEST PUSH1 0x40 MLOAD PUSH2 0x194 SWAP2 SWAP1 PUSH2 0x81A JUMP JUMPDEST PUSH1 0x40 MLOAD DUP1 SWAP2 SUB SWAP1 RETURN JUMPDEST PUSH2 0x1A5 PUSH2 0x72D JUMP JUMPDEST STOP JUMPDEST PUSH1 0x60 PUSH1 0x0 DUP1 DUP2 SLOAD DUP1 SWAP3 SWAP2 SWAP1 PUSH2 0x1BB SWAP1 PUSH2 0x875 JUMP JUMPDEST SWAP2 SWAP1 POP SSTORE POP PUSH1 0x0 DUP1 DUP2 SLOAD DUP1 SWAP3 SWAP2 SWAP1 PUSH2 0x1D2 SWAP1 PUSH2 0x8BD JUMP JUMPDEST SWAP2 SWAP1 POP SSTORE POP PUSH1 0x40 MLOAD DUP1 PUSH1 0x40 ADD PUSH1 0x40 MSTORE DUP1 PUSH1 0x4 DUP2 MSTORE PUSH1 0x20 ADD PUSH32 0x446F6E6500000000000000000000000000000000000000000000000000000000 DUP2 MSTORE POP SWAP1 POP PUSH1 0x0 DUP1 SLOAD EQ PUSH2 0x253 JUMPI PUSH1 0x40 MLOAD PUSH32 0x8C379A000000000000000000000000000000000000000000000000000000000 DUP2 MSTORE PUSH1 0x4 ADD PUSH2 0x24A SWAP1 PUSH2 0x932 JUMP JUMPDEST PUSH1 0x40 MLOAD DUP1 SWAP2 SUB SWAP1 REVERT JUMPDEST PUSH1 0x0 DUP1 DUP2 SLOAD DUP1 SWAP3 SWAP2 SWAP1 PUSH2 0x265 SWAP1 PUSH2 0x8BD JUMP JUMPDEST SWAP2 SWAP1 POP SSTORE POP SWAP1 JUMP JUMPDEST PUSH1 0x60 PUSH1 0x1 PUSH1 0x0 SLOAD EQ PUSH2 0x2B4 JUMPI PUSH1 0x40 MLOAD PUSH32 0x8C379A000000000000000000000000000000000000000000000000000000000 DUP2 MSTORE PUSH1 0x4 ADD PUSH2 0x2AB SWAP1 PUSH2 0x99E JUMP JUMPDEST PUSH1 0x40 MLOAD DUP1 SWAP2 SUB SWAP1 REVERT JUMPDEST PUSH1 0x0 DUP1 DUP2 SLOAD DUP1 SWAP3 SWAP2 SWAP1 PUSH2 0x2C6 SWAP1 PUSH2 0x875 JUMP JUMPDEST SWAP2 SWAP1 POP SSTORE POP PUSH1 0x40 MLOAD DUP1 PUSH1 0x40 ADD PUSH1 0x40 MSTORE DUP1 PUSH1 0x4 DUP2 MSTORE PUSH1 0x20 ADD PUSH32 0x446F6E6500000000000000000000000000000000000000000000000000000000 DUP2 MSTORE POP SWAP1 POP PUSH1 0x0 DUP1 DUP2 SLOAD DUP1 SWAP3 SWAP2 SWAP1 PUSH2 0x315 SWAP1 PUSH2 0x8BD JUMP JUMPDEST SWAP2 SWAP1 POP SSTORE POP SWAP1 JUMP JUMPDEST PUSH1 0x60 PUSH1 0x0 DUP1 DUP2 SLOAD DUP1 SWAP3 SWAP2 SWAP1 PUSH2 0x331 SWAP1 PUSH2 0x875 JUMP JUMPDEST SWAP2 SWAP1 POP SSTORE POP PUSH1 0x0 DUP1 SLOAD EQ PUSH2 0x37A JUMPI PUSH1 0x40 MLOAD PUSH32 0x8C379A000000000000000000000000000000000000000000000000000000000 DUP2 MSTORE PUSH1 0x4 ADD PUSH2 0x371 SWAP1 PUSH2 0x932 JUMP JUMPDEST PUSH1 0x40 MLOAD DUP1 SWAP2 SUB SWAP1 REVERT JUMPDEST PUSH1 0x40 MLOAD DUP1 PUSH1 0x40 ADD PUSH1 0x40 MSTORE DUP1 PUSH1 0x4 DUP2 MSTORE PUSH1 0x20 ADD PUSH32 0x446F6E6500000000000000000000000000000000000000000000000000000000 DUP2 MSTORE POP SWAP1 POP PUSH1 0x0 DUP1 DUP2 SLOAD DUP1 SWAP3 SWAP2 SWAP1 PUSH2 0x3C4 SWAP1 PUSH2 0x8BD JUMP JUMPDEST SWAP2 SWAP1 POP SSTORE POP SWAP1 JUMP JUMPDEST PUSH1 0x0 DUP1 DUP2 SLOAD DUP1 SWAP3 SWAP2 SWAP1 PUSH2 0x3DE SWAP1 PUSH2 0x8BD JUMP JUMPDEST SWAP2 SWAP1 POP SSTORE POP JUMP JUMPDEST PUSH1 0x60 PUSH1 0x0 DUP1 DUP2 SLOAD DUP1 SWAP3 SWAP2 SWAP1 PUSH2 0x3F9 SWAP1 PUSH2 0x875 JUMP JUMPDEST SWAP2 SWAP1 POP SSTORE POP PUSH1 0x40 MLOAD DUP1 PUSH1 0x40 ADD PUSH1 0x40 MSTORE DUP1 PUSH1 0x4 DUP2 MSTORE PUSH1 0x20 ADD PUSH32 0x446F6E6500000000000000000000000000000000000000000000000000000000 DUP2 MSTORE POP SWAP1 POP PUSH1 0x0 DUP1 DUP2 SLOAD DUP1 SWAP3 SWAP2 SWAP1 PUSH2 0x448 SWAP1 PUSH2 0x8BD JUMP JUMPDEST SWAP2 SWAP1 POP SSTORE POP SWAP1 JUMP JUMPDEST PUSH1 0x60 PUSH1 0x0 DUP1 DUP2 SLOAD DUP1 SWAP3 SWAP2 SWAP1 PUSH2 0x464 SWAP1 PUSH2 0x875 JUMP JUMPDEST SWAP2 SWAP1 POP SSTORE POP PUSH2 0x471 PUSH2 0x72D JUMP JUMPDEST PUSH1 0x0 DUP1 DUP2 SLOAD DUP1 SWAP3 SWAP2 SWAP1 PUSH2 0x483 SWAP1 PUSH2 0x8BD JUMP JUMPDEST SWAP2 SWAP1 POP SSTORE POP PUSH1 0x40 MLOAD DUP1 PUSH1 0x40 ADD PUSH1 0x40 MSTORE DUP1 PUSH1 0x4 DUP2 MSTORE PUSH1 0x20 ADD PUSH32 0x446F6E6500000000000000000000000000000000000000000000000000000000 DUP2 MSTORE POP SWAP1 POP PUSH1 0x1 PUSH1 0x0 SLOAD EQ PUSH2 0x505 JUMPI PUSH1 0x40 MLOAD PUSH32 0x8C379A000000000000000000000000000000000000000000000000000000000 DUP2 MSTORE PUSH1 0x4 ADD PUSH2 0x4FC SWAP1 PUSH2 0x99E JUMP JUMPDEST PUSH1 0x40 MLOAD DUP1 SWAP2 SUB SWAP1 REVERT JUMPDEST PUSH1 0x0 DUP1 DUP2 SLOAD DUP1 SWAP3 SWAP2 SWAP1 PUSH2 0x517 SWAP1 PUSH2 0x8BD JUMP JUMPDEST SWAP2 SWAP1 POP SSTORE POP SWAP1 JUMP JUMPDEST PUSH1 0x60 PUSH1 0x0 DUP1 DUP2 SLOAD DUP1 SWAP3 SWAP2 SWAP1 PUSH2 0x533 SWAP1 PUSH2 0x875 JUMP JUMPDEST SWAP2 SWAP1 POP SSTORE POP PUSH1 0x1 PUSH1 0x0 SLOAD EQ PUSH2 0x57D JUMPI PUSH1 0x40 MLOAD PUSH32 0x8C379A000000000000000000000000000000000000000000000000000000000 DUP2 MSTORE PUSH1 0x4 ADD PUSH2 0x574 SWAP1 PUSH2 0x99E JUMP JUMPDEST PUSH1 0x40 MLOAD DUP1 SWAP2 SUB SWAP1 REVERT JUMPDEST PUSH1 0x40 MLOAD DUP1 PUSH1 0x40 ADD PUSH1 0x40 MSTORE DUP1 PUSH1 0x4 DUP2 MSTORE PUSH1 0x20 ADD PUSH32 0x446F6E6500000000000000000000000000000000000000000000000000000000 DUP2 MSTORE POP SWAP1 POP PUSH1 0x0 DUP1 DUP2 SLOAD DUP1 SWAP3 SWAP2 SWAP1 PUSH2 0x5C7 SWAP1 PUSH2 0x8BD JUMP JUMPDEST SWAP2 SWAP1 POP SSTORE POP SWAP1 JUMP JUMPDEST PUSH1 0x60 PUSH1 0x0 DUP1 SLOAD EQ PUSH2 0x615 JUMPI PUSH1 0x40 MLOAD PUSH32 0x8C379A000000000000000000000000000000000000000000000000000000000 DUP2 MSTORE PUSH1 0x4 ADD PUSH2 0x60C SWAP1 PUSH2 0x932 JUMP JUMPDEST PUSH1 0x40 MLOAD DUP1 SWAP2 SUB SWAP1 REVERT JUMPDEST PUSH1 0x0 DUP1 DUP2 SLOAD DUP1 SWAP3 SWAP2 SWAP1 PUSH2 0x627 SWAP1 PUSH2 0x875 JUMP JUMPDEST SWAP2 SWAP1 POP SSTORE POP PUSH1 0x40 MLOAD DUP1 PUSH1 0x40 ADD PUSH1 0x40 MSTORE DUP1 PUSH1 0x4 DUP2 MSTORE PUSH1 0x20 ADD PUSH32 0x446F6E6500000000000000000000000000000000000000000000000000000000 DUP2 MSTORE POP SWAP1 POP PUSH1 0x0 DUP1 DUP2 SLOAD DUP1 SWAP3 SWAP2 SWAP1 PUSH2 0x676 SWAP1 PUSH2 0x8BD JUMP JUMPDEST SWAP2 SWAP1 POP SSTORE POP SWAP1 JUMP JUMPDEST PUSH1 0x60 PUSH1 0x0 DUP1 DUP2 SLOAD DUP1 SWAP3 SWAP2 SWAP1 PUSH2 0x692 SWAP1 PUSH2 0x875 JUMP JUMPDEST SWAP2 SWAP1 POP SSTORE POP PUSH1 0x40 MLOAD DUP1 PUSH1 0x40 ADD PUSH1 0x40 MSTORE DUP1 PUSH1 0x4 DUP2 MSTORE PUSH1 0x20 ADD PUSH32 0x446F6E6500000000000000000000000000000000000000000000000000000000 DUP2 MSTORE POP SWAP1 POP PUSH1 0x0 DUP1 SLOAD EQ PUSH2 0x713 JUMPI PUSH1 0x40 MLOAD PUSH32 0x8C379A000000000000000000000000000000000000000000000000000000000 DUP2 MSTORE PUSH1 0x4 ADD PUSH2 0x70A SWAP1 PUSH2 0x932 JUMP JUMPDEST PUSH1 0x40 MLOAD DUP1 SWAP2 SUB SWAP1 REVERT JUMPDEST PUSH1 0x0 DUP1 DUP2 SLOAD DUP1 SWAP3 SWAP2 SWAP1 PUSH2 0x725 SWAP1 PUSH2 0x8BD JUMP JUMPDEST SWAP2 SWAP1 POP SSTORE POP SWAP1 JUMP JUMPDEST PUSH1 0x0 DUP1 SLOAD EQ PUSH2 0x771 JUMPI PUSH1 0x40 MLOAD PUSH32 0x8C379A000000000000000000000000000000000000000000000000000000000 DUP2 MSTORE PUSH1 0x4 ADD PUSH2 0x768 SWAP1 PUSH2 0x932 JUMP JUMPDEST PUSH1 0x40 MLOAD DUP1 SWAP2 SUB SWAP1 REVERT JUMPDEST PUSH1 0x0 DUP1 DUP2 SLOAD DUP1 SWAP3 SWAP2 SWAP1 PUSH2 0x783 SWAP1 PUSH2 0x875 JUMP JUMPDEST SWAP2 SWAP1 POP SSTORE POP JUMP JUMPDEST PUSH1 0x0 DUP2 MLOAD SWAP1 POP SWAP2 SWAP1 POP JUMP JUMPDEST PUSH1 0x0 DUP3 DUP3 MSTORE PUSH1 0x20 DUP3 ADD SWAP1 POP SWAP3 SWAP2 POP POP JUMP JUMPDEST PUSH1 0x0 JUMPDEST DUP4 DUP2 LT ISZERO PUSH2 0x7C4 JUMPI DUP1 DUP3 ADD MLOAD DUP2 DUP5 ADD MSTORE PUSH1 0x20 DUP2 ADD SWAP1 POP PUSH2 0x7A9 JUMP JUMPDEST PUSH1 0x0 DUP5 DUP5 ADD MSTORE POP POP POP POP JUMP JUMPDEST PUSH1 0x0 PUSH1 0x1F NOT PUSH1 0x1F DUP4 ADD AND SWAP1 POP SWAP2 SWAP1 POP JUMP JUMPDEST PUSH1 0x0 PUSH2 0x7EC DUP3 PUSH2 0x78A JUMP JUMPDEST PUSH2 0x7F6 DUP2 DUP6 PUSH2 0x795 JUMP JUMPDEST SWAP4 POP PUSH2 0x806 DUP2 DUP6 PUSH1 0x20 DUP7 ADD PUSH2 0x7A6 JUMP JUMPDEST PUSH2 0x80F DUP2 PUSH2 0x7D0 JUMP JUMPDEST DUP5 ADD SWAP2 POP POP SWAP3 SWAP2 POP POP JUMP JUMPDEST PUSH1 0x0 PUSH1 0x20 DUP3 ADD SWAP1 POP DUP2 DUP2 SUB PUSH1 0x0 DUP4 ADD MSTORE PUSH2 0x834 DUP2 DUP5 PUSH2 0x7E1 JUMP JUMPDEST SWAP1 POP SWAP3 SWAP2 POP POP JUMP JUMPDEST PUSH32 0x4E487B7100000000000000000000000000000000000000000000000000000000 PUSH1 0x0 MSTORE PUSH1 0x11 PUSH1 0x4 MSTORE PUSH1 0x24 PUSH1 0x0 REVERT JUMPDEST PUSH1 0x0 DUP2 SWAP1 POP SWAP2 SWAP1 POP JUMP JUMPDEST PUSH1 0x0 PUSH2 0x880 DUP3 PUSH2 0x86B JUMP JUMPDEST SWAP2 POP PUSH32 0xFFFFFFFFFFFFFFFFFFFFFFFFFFFFFFFFFFFFFFFFFFFFFFFFFFFFFFFFFFFFFFFF DUP3 SUB PUSH2 0x8B2 JUMPI PUSH2 0x8B1 PUSH2 0x83C JUMP JUMPDEST JUMPDEST PUSH1 0x1 DUP3 ADD SWAP1 POP SWAP2 SWAP1 POP JUMP JUMPDEST PUSH1 0x0 PUSH2 0x8C8 DUP3 PUSH2 0x86B JUMP JUMPDEST SWAP2 POP PUSH1 0x0 DUP3 SUB PUSH2 0x8DB JUMPI PUSH2 0x8DA PUSH2 0x83C JUMP JUMPDEST JUMPDEST PUSH1 0x1 DUP3 SUB SWAP1 POP SWAP2 SWAP1 POP JUMP JUMPDEST PUSH32 0x736F6D656F6E65206973207573696E6700000000000000000000000000000000 PUSH1 0x0 DUP3 ADD MSTORE POP JUMP JUMPDEST PUSH1 0x0 PUSH2 0x91C PUSH1 0x10 DUP4 PUSH2 0x795 JUMP JUMPDEST SWAP2 POP PUSH2 0x927 DUP3 PUSH2 0x8E6 JUMP JUMPDEST PUSH1 0x20 DUP3 ADD SWAP1 POP SWAP2 SWAP1 POP JUMP JUMPDEST PUSH1 0x0 PUSH1 0x20 DUP3 ADD SWAP1 POP DUP2 DUP2 SUB PUSH1 0x0 DUP4 ADD MSTORE PUSH2 0x94B DUP2 PUSH2 0x90F JUMP JUMPDEST SWAP1 POP SWAP2 SWAP1 POP JUMP JUMPDEST PUSH32 0x73686F756C64206265206F6E6500000000000000000000000000000000000000 PUSH1 0x0 DUP3 ADD MSTORE POP JUMP JUMPDEST PUSH1 0x0 PUSH2 0x988 PUSH1 0xD DUP4 PUSH2 0x795 JUMP JUMPDEST SWAP2 POP PUSH2 0x993 DUP3 PUSH2 0x952 JUMP JUMPDEST PUSH1 0x20 DUP3 ADD SWAP1 POP SWAP2 SWAP1 POP JUMP JUMPDEST PUSH1 0x0 PUSH1 0x20 DUP3 ADD SWAP1 POP DUP2 DUP2 SUB PUSH1 0x0 DUP4 ADD MSTORE PUSH2 0x9B7 DUP2 PUSH2 0x97B JUMP JUMPDEST SWAP1 POP SWAP2 SWAP1 POP JUMP INVALID LOG2 PUSH5 0x6970667358 0x22 SLT KECCAK256 0x4E PUSH4 0xD341D727 0xC8 0xC1 MSTORE8 0xEC 0xBA 0x5F PUSH26 0xEA1B274FECC2B67DA5C1F28EEC557B20A9603564736F6C634300 ADDMOD SLT STOP CALLER "
				},
				"gasEstimates": {
					"creation": {
						"codeDepositCost": "509600",
						"executionCost": "5549",
						"totalCost": "515149"
					},
					"external": {
						"inAndOut()": "infinite",
						"inAndOut2()": "infinite",
						"inAndOut2_2()": "infinite",
						"inAndOut2_3()": "infinite",
						"inAndOut2_4()": "infinite",
						"inAndOut2_5()": "infinite",
						"inAndOut2_6()": "infinite",
						"inAndOut3()": "infinite",
						"occupy()": "26712",
						"vacancy()": "24568"
					}
				},
				"methodIdentifiers": {
					"inAndOut()": "57a525a5",
					"inAndOut2()": "128c93e0",
					"inAndOut2_2()": "8d32c63d",
					"inAndOut2_3()": "0c9eb5b8",
					"inAndOut2_4()": "b3d3ec23",
					"inAndOut2_5()": "0c3e3170",
					"inAndOut2_6()": "8cc85df7",
					"inAndOut3()": "a85a86f4",
					"occupy()": "c717a12d",
					"vacancy()": "45145d7e"
				}
			},
			"storageLayout": {
				"storage": [
					{
						"astId": 367,
						"contract": "contracts/0515/modifier.sol:MODIFIER5",
						"label": "mutex",
						"offset": 0,
						"slot": "0",
						"type": "t_uint256"
					}
				],
				"types": {
					"t_uint256": {
						"encoding": "inplace",
						"label": "uint256",
						"numberOfBytes": "32"
					}
				}
			},
			"userdoc": {
				"kind": "user",
				"methods": {},
				"version": 1
			}
		}
	}
}