{
	"contracts/0515/modifier.sol": {
		"MODIFIER4": {
			"abi": [
				{
					"inputs": [
						{
							"internalType": "uint256",
							"name": "_a",
							"type": "uint256"
						},
						{
							"internalType": "string",
							"name": "_name",
							"type": "string"
						}
					],
					"name": "buyAlcho",
					"outputs": [
						{
							"internalType": "string",
							"name": "",
							"type": "string"
						}
					],
					"stateMutability": "pure",
					"type": "function"
				},
				{
					"inputs": [],
					"name": "buyAlcho2",
					"outputs": [
						{
							"internalType": "string",
							"name": "",
							"type": "string"
						}
					],
					"stateMutability": "view",
					"type": "function"
				},
				{
					"inputs": [
						{
							"internalType": "uint256",
							"name": "_a",
							"type": "uint256"
						},
						{
							"internalType": "string",
							"name": "_name",
							"type": "string"
						}
					],
					"name": "buyCigar",
					"outputs": [
						{
							"internalType": "string",
							"name": "",
							"type": "string"
						}
					],
					"stateMutability": "pure",
					"type": "function"
				},
				{
					"inputs": [],
					"name": "buyCigar2",
					"outputs": [
						{
							"internalType": "string",
							"name": "",
							"type": "string"
						}
					],
					"stateMutability": "view",
					"type": "function"
				},
				{
					"inputs": [
						{
							"internalType": "uint256",
							"name": "_a",
							"type": "uint256"
						},
						{
							"internalType": "string",
							"name": "_name",
							"type": "string"
						}
					],
					"name": "buyGu",
					"outputs": [
						{
							"internalType": "string",
							"name": "",
							"type": "string"
						}
					],
					"stateMutability": "pure",
					"type": "function"
				},
				{
					"inputs": [],
					"name": "buyGu2",
					"outputs": [
						{
							"internalType": "string",
							"name": "",
							"type": "string"
						}
					],
					"stateMutability": "view",
					"type": "function"
				},
				{
					"inputs": [],
					"name": "getP",
					"outputs": [
						{
							"components": [
								{
									"internalType": "uint256",
									"name": "age",
									"type": "uint256"
								},
								{
									"internalType": "string",
									"name": "name",
									"type": "string"
								}
							],
							"internalType": "struct MODIFIER4.Person",
							"name": "",
							"type": "tuple"
						}
					],
					"stateMutability": "view",
					"type": "function"
				},
				{
					"inputs": [
						{
							"internalType": "uint256",
							"name": "_age",
							"type": "uint256"
						},
						{
							"internalType": "string",
							"name": "_name",
							"type": "string"
						}
					],
					"name": "setP",
					"outputs": [],
					"stateMutability": "nonpayable",
					"type": "function"
				}
			],
			"devdoc": {
				"kind": "dev",
				"methods": {},
				"version": 1
			},
			"evm": {
				"assembly": "    /* \"contracts/0515/modifier.sol\":2186:3559  contract MODIFIER4 {... */\n  mstore(0x40, 0x80)\n  callvalue\n  dup1\n  iszero\n  tag_1\n  jumpi\n  0x00\n  dup1\n  revert\ntag_1:\n  pop\n  dataSize(sub_0)\n  dup1\n  dataOffset(sub_0)\n  0x00\n  codecopy\n  0x00\n  return\nstop\n\nsub_0: assembly {\n        /* \"contracts/0515/modifier.sol\":2186:3559  contract MODIFIER4 {... */\n      mstore(0x40, 0x80)\n      callvalue\n      dup1\n      iszero\n      tag_1\n      jumpi\n      0x00\n      dup1\n      revert\n    tag_1:\n      pop\n      jumpi(tag_2, lt(calldatasize, 0x04))\n      shr(0xe0, calldataload(0x00))\n      dup1\n      0x92a71612\n      gt\n      tag_11\n      jumpi\n      dup1\n      0x92a71612\n      eq\n      tag_7\n      jumpi\n      dup1\n      0x99211d25\n      eq\n      tag_8\n      jumpi\n      dup1\n      0xb5725fec\n      eq\n      tag_9\n      jumpi\n      dup1\n      0xe6a8d869\n      eq\n      tag_10\n      jumpi\n      jump(tag_2)\n    tag_11:\n      dup1\n      0x0c4c67b2\n      eq\n      tag_3\n      jumpi\n      dup1\n      0x1dee29d7\n      eq\n      tag_4\n      jumpi\n      dup1\n      0x3d0801cc\n      eq\n      tag_5\n      jumpi\n      dup1\n      0x5fa96654\n      eq\n      tag_6\n      jumpi\n    tag_2:\n      0x00\n      dup1\n      revert\n        /* \"contracts/0515/modifier.sol\":3195:3311  function buyCigar2() public overTwenty(P.age, P.name) view returns(string memory) {... */\n    tag_3:\n      tag_12\n      tag_13\n      jump\t// in\n    tag_12:\n      mload(0x40)\n      tag_14\n      swap2\n      swap1\n      tag_15\n      jump\t// in\n    tag_14:\n      mload(0x40)\n      dup1\n      swap2\n      sub\n      swap1\n      return\n        /* \"contracts/0515/modifier.sol\":3443:3556  function buyGu2() public overTwenty(P.age, P.name) view returns(string memory) {... */\n    tag_4:\n      tag_16\n      tag_17\n      jump\t// in\n    tag_16:\n      mload(0x40)\n      tag_18\n      swap2\n      swap1\n      tag_15\n      jump\t// in\n    tag_18:\n      mload(0x40)\n      dup1\n      swap2\n      sub\n      swap1\n      return\n        /* \"contracts/0515/modifier.sol\":3319:3435  function buyAlcho2() public overTwenty(P.age, P.name) view returns(string memory) {... */\n    tag_5:\n      tag_19\n      tag_20\n      jump\t// in\n    tag_19:\n      mload(0x40)\n      tag_21\n      swap2\n      swap1\n      tag_15\n      jump\t// in\n    tag_21:\n      mload(0x40)\n      dup1\n      swap2\n      sub\n      swap1\n      return\n        /* \"contracts/0515/modifier.sol\":3109:3187  function getP() public view returns(Person memory) {... */\n    tag_6:\n      tag_22\n      tag_23\n      jump\t// in\n    tag_22:\n      mload(0x40)\n      tag_24\n      swap2\n      swap1\n      tag_25\n      jump\t// in\n    tag_24:\n      mload(0x40)\n      dup1\n      swap2\n      sub\n      swap1\n      return\n        /* \"contracts/0515/modifier.sol\":2715:2854  function buyAlcho(uint _a, string memory _name) public pure overTwenty(_a, _name) returns(string memory) {... */\n    tag_7:\n      tag_26\n      0x04\n      dup1\n      calldatasize\n      sub\n      dup2\n      add\n      swap1\n      tag_27\n      swap2\n      swap1\n      tag_28\n      jump\t// in\n    tag_27:\n      tag_29\n      jump\t// in\n    tag_26:\n      mload(0x40)\n      tag_30\n      swap2\n      swap1\n      tag_15\n      jump\t// in\n    tag_30:\n      mload(0x40)\n      dup1\n      swap2\n      sub\n      swap1\n      return\n        /* \"contracts/0515/modifier.sol\":2862:2998  function buyGu(uint _a, string memory _name) public pure overTwenty(_a, _name) returns(string memory) {... */\n    tag_8:\n      tag_31\n      0x04\n      dup1\n      calldatasize\n      sub\n      dup2\n      add\n      swap1\n      tag_32\n      swap2\n      swap1\n      tag_28\n      jump\t// in\n    tag_32:\n      tag_33\n      jump\t// in\n    tag_31:\n      mload(0x40)\n      tag_34\n      swap2\n      swap1\n      tag_15\n      jump\t// in\n    tag_34:\n      mload(0x40)\n      dup1\n      swap2\n      sub\n      swap1\n      return\n        /* \"contracts/0515/modifier.sol\":3006:3101  function setP(uint _age, string memory _name) public {... */\n    tag_9:\n      tag_35\n      0x04\n      dup1\n      calldatasize\n      sub\n      dup2\n      add\n      swap1\n      tag_36\n      swap2\n      swap1\n      tag_28\n      jump\t// in\n    tag_36:\n      tag_37\n      jump\t// in\n    tag_35:\n      stop\n        /* \"contracts/0515/modifier.sol\":2568:2707  function buyCigar(uint _a, string memory _name) public pure overTwenty(_a, _name) returns(string memory) {... */\n    tag_10:\n      tag_38\n      0x04\n      dup1\n      calldatasize\n      sub\n      dup2\n      add\n      swap1\n      tag_39\n      swap2\n      swap1\n      tag_28\n      jump\t// in\n    tag_39:\n      tag_40\n      jump\t// in\n    tag_38:\n      mload(0x40)\n      tag_41\n      swap2\n      swap1\n      tag_15\n      jump\t// in\n    tag_41:\n      mload(0x40)\n      dup1\n      swap2\n      sub\n      swap1\n      return\n        /* \"contracts/0515/modifier.sol\":3195:3311  function buyCigar2() public overTwenty(P.age, P.name) view returns(string memory) {... */\n    tag_13:\n        /* \"contracts/0515/modifier.sol\":3262:3275  string memory */\n      0x60\n        /* \"contracts/0515/modifier.sol\":3234:3235  P */\n      0x00\n        /* \"contracts/0515/modifier.sol\":3234:3239  P.age */\n      dup1\n      add\n      sload\n        /* \"contracts/0515/modifier.sol\":3241:3242  P */\n      0x00\n        /* \"contracts/0515/modifier.sol\":3241:3247  P.name */\n      0x01\n      add\n        /* \"contracts/0515/modifier.sol\":2308:2558  modifier overTwenty(uint _age, string memory _criminal) {... */\n      dup1\n      sload\n      tag_42\n      swap1\n      tag_43\n      jump\t// in\n    tag_42:\n      dup1\n      0x1f\n      add\n      0x20\n      dup1\n      swap2\n      div\n      mul\n      0x20\n      add\n      mload(0x40)\n      swap1\n      dup2\n      add\n      0x40\n      mstore\n      dup1\n      swap3\n      swap2\n      swap1\n      dup2\n      dup2\n      mstore\n      0x20\n      add\n      dup3\n      dup1\n      sload\n      tag_44\n      swap1\n      tag_43\n      jump\t// in\n    tag_44:\n      dup1\n      iszero\n      tag_45\n      jumpi\n      dup1\n      0x1f\n      lt\n      tag_46\n      jumpi\n      0x0100\n      dup1\n      dup4\n      sload\n      div\n      mul\n      dup4\n      mstore\n      swap2\n      0x20\n      add\n      swap2\n      jump(tag_45)\n    tag_46:\n      dup3\n      add\n      swap2\n      swap1\n      0x00\n      mstore\n      keccak256(0x00, 0x20)\n      swap1\n    tag_47:\n      dup2\n      sload\n      dup2\n      mstore\n      swap1\n      0x01\n      add\n      swap1\n      0x20\n      add\n      dup1\n      dup4\n      gt\n      tag_47\n      jumpi\n      dup3\n      swap1\n      sub\n      0x1f\n      and\n      dup3\n      add\n      swap2\n    tag_45:\n      pop\n      pop\n      pop\n      pop\n      pop\n        /* \"contracts/0515/modifier.sol\":2389:2391  20 */\n      0x14\n        /* \"contracts/0515/modifier.sol\":2383:2387  _age */\n      dup3\n        /* \"contracts/0515/modifier.sol\":2383:2391  _age >20 */\n      gt\n        /* \"contracts/0515/modifier.sol\":2375:2405  require(_age >20, \"Too young\") */\n      tag_49\n      jumpi\n      mload(0x40)\n      0x08c379a000000000000000000000000000000000000000000000000000000000\n      dup2\n      mstore\n      0x04\n      add\n      tag_50\n      swap1\n      tag_51\n      jump\t// in\n    tag_50:\n      mload(0x40)\n      dup1\n      swap2\n      sub\n      swap1\n      revert\n    tag_49:\n        /* \"contracts/0515/modifier.sol\":2476:2499  abi.encodePacked(\"Bob\") */\n      add(0x20, mload(0x40))\n      tag_52\n      swap1\n      tag_53\n      jump\t// in\n    tag_52:\n      mload(0x40)\n      0x20\n      dup2\n      dup4\n      sub\n      sub\n      dup2\n      mstore\n      swap1\n      0x40\n      mstore\n        /* \"contracts/0515/modifier.sol\":2466:2500  keccak256(abi.encodePacked(\"Bob\")) */\n      dup1\n      mload\n      swap1\n      0x20\n      add\n      keccak256\n        /* \"contracts/0515/modifier.sol\":2451:2460  _criminal */\n      dup2\n        /* \"contracts/0515/modifier.sol\":2434:2461  abi.encodePacked(_criminal) */\n      add(0x20, mload(0x40))\n      tag_54\n      swap2\n      swap1\n      tag_55\n      jump\t// in\n    tag_54:\n      mload(0x40)\n      0x20\n      dup2\n      dup4\n      sub\n      sub\n      dup2\n      mstore\n      swap1\n      0x40\n      mstore\n        /* \"contracts/0515/modifier.sol\":2424:2462  keccak256(abi.encodePacked(_criminal)) */\n      dup1\n      mload\n      swap1\n      0x20\n      add\n      keccak256\n        /* \"contracts/0515/modifier.sol\":2424:2500  keccak256(abi.encodePacked(_criminal)) == keccak256(abi.encodePacked(\"Bob\")) */\n      eq\n        /* \"contracts/0515/modifier.sol\":2416:2538  require(keccak256(abi.encodePacked(_criminal)) == keccak256(abi.encodePacked(\"Bob\")), \"Bob is criminal. She can't buy it\") */\n      tag_56\n      jumpi\n      mload(0x40)\n      0x08c379a000000000000000000000000000000000000000000000000000000000\n      dup2\n      mstore\n      0x04\n      add\n      tag_57\n      swap1\n      tag_58\n      jump\t// in\n    tag_57:\n      mload(0x40)\n      dup1\n      swap2\n      sub\n      swap1\n      revert\n    tag_56:\n        /* \"contracts/0515/modifier.sol\":3288:3303  return \"Passed\" */\n      mload(0x40)\n      dup1\n      0x40\n      add\n      0x40\n      mstore\n      dup1\n      0x06\n      dup2\n      mstore\n      0x20\n      add\n      0x5061737365640000000000000000000000000000000000000000000000000000\n      dup2\n      mstore\n      pop\n      swap3\n      pop\n        /* \"contracts/0515/modifier.sol\":3195:3311  function buyCigar2() public overTwenty(P.age, P.name) view returns(string memory) {... */\n      pop\n      pop\n      swap1\n      jump\t// out\n        /* \"contracts/0515/modifier.sol\":3443:3556  function buyGu2() public overTwenty(P.age, P.name) view returns(string memory) {... */\n    tag_17:\n        /* \"contracts/0515/modifier.sol\":3507:3520  string memory */\n      0x60\n        /* \"contracts/0515/modifier.sol\":3479:3480  P */\n      0x00\n        /* \"contracts/0515/modifier.sol\":3479:3484  P.age */\n      dup1\n      add\n      sload\n        /* \"contracts/0515/modifier.sol\":3486:3487  P */\n      0x00\n        /* \"contracts/0515/modifier.sol\":3486:3492  P.name */\n      0x01\n      add\n        /* \"contracts/0515/modifier.sol\":2308:2558  modifier overTwenty(uint _age, string memory _criminal) {... */\n      dup1\n      sload\n      tag_60\n      swap1\n      tag_43\n      jump\t// in\n    tag_60:\n      dup1\n      0x1f\n      add\n      0x20\n      dup1\n      swap2\n      div\n      mul\n      0x20\n      add\n      mload(0x40)\n      swap1\n      dup2\n      add\n      0x40\n      mstore\n      dup1\n      swap3\n      swap2\n      swap1\n      dup2\n      dup2\n      mstore\n      0x20\n      add\n      dup3\n      dup1\n      sload\n      tag_61\n      swap1\n      tag_43\n      jump\t// in\n    tag_61:\n      dup1\n      iszero\n      tag_62\n      jumpi\n      dup1\n      0x1f\n      lt\n      tag_63\n      jumpi\n      0x0100\n      dup1\n      dup4\n      sload\n      div\n      mul\n      dup4\n      mstore\n      swap2\n      0x20\n      add\n      swap2\n      jump(tag_62)\n    tag_63:\n      dup3\n      add\n      swap2\n      swap1\n      0x00\n      mstore\n      keccak256(0x00, 0x20)\n      swap1\n    tag_64:\n      dup2\n      sload\n      dup2\n      mstore\n      swap1\n      0x01\n      add\n      swap1\n      0x20\n      add\n      dup1\n      dup4\n      gt\n      tag_64\n      jumpi\n      dup3\n      swap1\n      sub\n      0x1f\n      and\n      dup3\n      add\n      swap2\n    tag_62:\n      pop\n      pop\n      pop\n      pop\n      pop\n        /* \"contracts/0515/modifier.sol\":2389:2391  20 */\n      0x14\n        /* \"contracts/0515/modifier.sol\":2383:2387  _age */\n      dup3\n        /* \"contracts/0515/modifier.sol\":2383:2391  _age >20 */\n      gt\n        /* \"contracts/0515/modifier.sol\":2375:2405  require(_age >20, \"Too young\") */\n      tag_66\n      jumpi\n      mload(0x40)\n      0x08c379a000000000000000000000000000000000000000000000000000000000\n      dup2\n      mstore\n      0x04\n      add\n      tag_67\n      swap1\n      tag_51\n      jump\t// in\n    tag_67:\n      mload(0x40)\n      dup1\n      swap2\n      sub\n      swap1\n      revert\n    tag_66:\n        /* \"contracts/0515/modifier.sol\":2476:2499  abi.encodePacked(\"Bob\") */\n      add(0x20, mload(0x40))\n      tag_68\n      swap1\n      tag_53\n      jump\t// in\n    tag_68:\n      mload(0x40)\n      0x20\n      dup2\n      dup4\n      sub\n      sub\n      dup2\n      mstore\n      swap1\n      0x40\n      mstore\n        /* \"contracts/0515/modifier.sol\":2466:2500  keccak256(abi.encodePacked(\"Bob\")) */\n      dup1\n      mload\n      swap1\n      0x20\n      add\n      keccak256\n        /* \"contracts/0515/modifier.sol\":2451:2460  _criminal */\n      dup2\n        /* \"contracts/0515/modifier.sol\":2434:2461  abi.encodePacked(_criminal) */\n      add(0x20, mload(0x40))\n      tag_69\n      swap2\n      swap1\n      tag_55\n      jump\t// in\n    tag_69:\n      mload(0x40)\n      0x20\n      dup2\n      dup4\n      sub\n      sub\n      dup2\n      mstore\n      swap1\n      0x40\n      mstore\n        /* \"contracts/0515/modifier.sol\":2424:2462  keccak256(abi.encodePacked(_criminal)) */\n      dup1\n      mload\n      swap1\n      0x20\n      add\n      keccak256\n        /* \"contracts/0515/modifier.sol\":2424:2500  keccak256(abi.encodePacked(_criminal)) == keccak256(abi.encodePacked(\"Bob\")) */\n      eq\n        /* \"contracts/0515/modifier.sol\":2416:2538  require(keccak256(abi.encodePacked(_criminal)) == keccak256(abi.encodePacked(\"Bob\")), \"Bob is criminal. She can't buy it\") */\n      tag_70\n      jumpi\n      mload(0x40)\n      0x08c379a000000000000000000000000000000000000000000000000000000000\n      dup2\n      mstore\n      0x04\n      add\n      tag_71\n      swap1\n      tag_58\n      jump\t// in\n    tag_71:\n      mload(0x40)\n      dup1\n      swap2\n      sub\n      swap1\n      revert\n    tag_70:\n        /* \"contracts/0515/modifier.sol\":3533:3548  return \"Passed\" */\n      mload(0x40)\n      dup1\n      0x40\n      add\n      0x40\n      mstore\n      dup1\n      0x06\n      dup2\n      mstore\n      0x20\n      add\n      0x5061737365640000000000000000000000000000000000000000000000000000\n      dup2\n      mstore\n      pop\n      swap3\n      pop\n        /* \"contracts/0515/modifier.sol\":3443:3556  function buyGu2() public overTwenty(P.age, P.name) view returns(string memory) {... */\n      pop\n      pop\n      swap1\n      jump\t// out\n        /* \"contracts/0515/modifier.sol\":3319:3435  function buyAlcho2() public overTwenty(P.age, P.name) view returns(string memory) {... */\n    tag_20:\n        /* \"contracts/0515/modifier.sol\":3386:3399  string memory */\n      0x60\n        /* \"contracts/0515/modifier.sol\":3358:3359  P */\n      0x00\n        /* \"contracts/0515/modifier.sol\":3358:3363  P.age */\n      dup1\n      add\n      sload\n        /* \"contracts/0515/modifier.sol\":3365:3366  P */\n      0x00\n        /* \"contracts/0515/modifier.sol\":3365:3371  P.name */\n      0x01\n      add\n        /* \"contracts/0515/modifier.sol\":2308:2558  modifier overTwenty(uint _age, string memory _criminal) {... */\n      dup1\n      sload\n      tag_73\n      swap1\n      tag_43\n      jump\t// in\n    tag_73:\n      dup1\n      0x1f\n      add\n      0x20\n      dup1\n      swap2\n      div\n      mul\n      0x20\n      add\n      mload(0x40)\n      swap1\n      dup2\n      add\n      0x40\n      mstore\n      dup1\n      swap3\n      swap2\n      swap1\n      dup2\n      dup2\n      mstore\n      0x20\n      add\n      dup3\n      dup1\n      sload\n      tag_74\n      swap1\n      tag_43\n      jump\t// in\n    tag_74:\n      dup1\n      iszero\n      tag_75\n      jumpi\n      dup1\n      0x1f\n      lt\n      tag_76\n      jumpi\n      0x0100\n      dup1\n      dup4\n      sload\n      div\n      mul\n      dup4\n      mstore\n      swap2\n      0x20\n      add\n      swap2\n      jump(tag_75)\n    tag_76:\n      dup3\n      add\n      swap2\n      swap1\n      0x00\n      mstore\n      keccak256(0x00, 0x20)\n      swap1\n    tag_77:\n      dup2\n      sload\n      dup2\n      mstore\n      swap1\n      0x01\n      add\n      swap1\n      0x20\n      add\n      dup1\n      dup4\n      gt\n      tag_77\n      jumpi\n      dup3\n      swap1\n      sub\n      0x1f\n      and\n      dup3\n      add\n      swap2\n    tag_75:\n      pop\n      pop\n      pop\n      pop\n      pop\n        /* \"contracts/0515/modifier.sol\":2389:2391  20 */\n      0x14\n        /* \"contracts/0515/modifier.sol\":2383:2387  _age */\n      dup3\n        /* \"contracts/0515/modifier.sol\":2383:2391  _age >20 */\n      gt\n        /* \"contracts/0515/modifier.sol\":2375:2405  require(_age >20, \"Too young\") */\n      tag_79\n      jumpi\n      mload(0x40)\n      0x08c379a000000000000000000000000000000000000000000000000000000000\n      dup2\n      mstore\n      0x04\n      add\n      tag_80\n      swap1\n      tag_51\n      jump\t// in\n    tag_80:\n      mload(0x40)\n      dup1\n      swap2\n      sub\n      swap1\n      revert\n    tag_79:\n        /* \"contracts/0515/modifier.sol\":2476:2499  abi.encodePacked(\"Bob\") */\n      add(0x20, mload(0x40))\n      tag_81\n      swap1\n      tag_53\n      jump\t// in\n    tag_81:\n      mload(0x40)\n      0x20\n      dup2\n      dup4\n      sub\n      sub\n      dup2\n      mstore\n      swap1\n      0x40\n      mstore\n        /* \"contracts/0515/modifier.sol\":2466:2500  keccak256(abi.encodePacked(\"Bob\")) */\n      dup1\n      mload\n      swap1\n      0x20\n      add\n      keccak256\n        /* \"contracts/0515/modifier.sol\":2451:2460  _criminal */\n      dup2\n        /* \"contracts/0515/modifier.sol\":2434:2461  abi.encodePacked(_criminal) */\n      add(0x20, mload(0x40))\n      tag_82\n      swap2\n      swap1\n      tag_55\n      jump\t// in\n    tag_82:\n      mload(0x40)\n      0x20\n      dup2\n      dup4\n      sub\n      sub\n      dup2\n      mstore\n      swap1\n      0x40\n      mstore\n        /* \"contracts/0515/modifier.sol\":2424:2462  keccak256(abi.encodePacked(_criminal)) */\n      dup1\n      mload\n      swap1\n      0x20\n      add\n      keccak256\n        /* \"contracts/0515/modifier.sol\":2424:2500  keccak256(abi.encodePacked(_criminal)) == keccak256(abi.encodePacked(\"Bob\")) */\n      eq\n        /* \"contracts/0515/modifier.sol\":2416:2538  require(keccak256(abi.encodePacked(_criminal)) == keccak256(abi.encodePacked(\"Bob\")), \"Bob is criminal. She can't buy it\") */\n      tag_83\n      jumpi\n      mload(0x40)\n      0x08c379a000000000000000000000000000000000000000000000000000000000\n      dup2\n      mstore\n      0x04\n      add\n      tag_84\n      swap1\n      tag_58\n      jump\t// in\n    tag_84:\n      mload(0x40)\n      dup1\n      swap2\n      sub\n      swap1\n      revert\n    tag_83:\n        /* \"contracts/0515/modifier.sol\":3412:3427  return \"Passed\" */\n      mload(0x40)\n      dup1\n      0x40\n      add\n      0x40\n      mstore\n      dup1\n      0x06\n      dup2\n      mstore\n      0x20\n      add\n      0x5061737365640000000000000000000000000000000000000000000000000000\n      dup2\n      mstore\n      pop\n      swap3\n      pop\n        /* \"contracts/0515/modifier.sol\":3319:3435  function buyAlcho2() public overTwenty(P.age, P.name) view returns(string memory) {... */\n      pop\n      pop\n      swap1\n      jump\t// out\n        /* \"contracts/0515/modifier.sol\":3109:3187  function getP() public view returns(Person memory) {... */\n    tag_23:\n        /* \"contracts/0515/modifier.sol\":3145:3158  Person memory */\n      tag_86\n      tag_87\n      jump\t// in\n    tag_86:\n        /* \"contracts/0515/modifier.sol\":3178:3179  P */\n      0x00\n        /* \"contracts/0515/modifier.sol\":3171:3179  return P */\n      mload(0x40)\n      dup1\n      0x40\n      add\n      0x40\n      mstore\n      swap1\n      dup2\n      0x00\n      dup3\n      add\n      sload\n      dup2\n      mstore\n      0x20\n      add\n      0x01\n      dup3\n      add\n      dup1\n      sload\n      tag_89\n      swap1\n      tag_43\n      jump\t// in\n    tag_89:\n      dup1\n      0x1f\n      add\n      0x20\n      dup1\n      swap2\n      div\n      mul\n      0x20\n      add\n      mload(0x40)\n      swap1\n      dup2\n      add\n      0x40\n      mstore\n      dup1\n      swap3\n      swap2\n      swap1\n      dup2\n      dup2\n      mstore\n      0x20\n      add\n      dup3\n      dup1\n      sload\n      tag_90\n      swap1\n      tag_43\n      jump\t// in\n    tag_90:\n      dup1\n      iszero\n      tag_91\n      jumpi\n      dup1\n      0x1f\n      lt\n      tag_92\n      jumpi\n      0x0100\n      dup1\n      dup4\n      sload\n      div\n      mul\n      dup4\n      mstore\n      swap2\n      0x20\n      add\n      swap2\n      jump(tag_91)\n    tag_92:\n      dup3\n      add\n      swap2\n      swap1\n      0x00\n      mstore\n      keccak256(0x00, 0x20)\n      swap1\n    tag_93:\n      dup2\n      sload\n      dup2\n      mstore\n      swap1\n      0x01\n      add\n      swap1\n      0x20\n      add\n      dup1\n      dup4\n      gt\n      tag_93\n      jumpi\n      dup3\n      swap1\n      sub\n      0x1f\n      and\n      dup3\n      add\n      swap2\n    tag_91:\n      pop\n      pop\n      pop\n      pop\n      pop\n      dup2\n      mstore\n      pop\n      pop\n      swap1\n      pop\n        /* \"contracts/0515/modifier.sol\":3109:3187  function getP() public view returns(Person memory) {... */\n      swap1\n      jump\t// out\n        /* \"contracts/0515/modifier.sol\":2715:2854  function buyAlcho(uint _a, string memory _name) public pure overTwenty(_a, _name) returns(string memory) {... */\n    tag_29:\n        /* \"contracts/0515/modifier.sol\":2805:2818  string memory */\n      0x60\n        /* \"contracts/0515/modifier.sol\":2786:2788  _a */\n      dup3\n        /* \"contracts/0515/modifier.sol\":2790:2795  _name */\n      dup3\n        /* \"contracts/0515/modifier.sol\":2389:2391  20 */\n      0x14\n        /* \"contracts/0515/modifier.sol\":2383:2387  _age */\n      dup3\n        /* \"contracts/0515/modifier.sol\":2383:2391  _age >20 */\n      gt\n        /* \"contracts/0515/modifier.sol\":2375:2405  require(_age >20, \"Too young\") */\n      tag_95\n      jumpi\n      mload(0x40)\n      0x08c379a000000000000000000000000000000000000000000000000000000000\n      dup2\n      mstore\n      0x04\n      add\n      tag_96\n      swap1\n      tag_51\n      jump\t// in\n    tag_96:\n      mload(0x40)\n      dup1\n      swap2\n      sub\n      swap1\n      revert\n    tag_95:\n        /* \"contracts/0515/modifier.sol\":2476:2499  abi.encodePacked(\"Bob\") */\n      add(0x20, mload(0x40))\n      tag_97\n      swap1\n      tag_53\n      jump\t// in\n    tag_97:\n      mload(0x40)\n      0x20\n      dup2\n      dup4\n      sub\n      sub\n      dup2\n      mstore\n      swap1\n      0x40\n      mstore\n        /* \"contracts/0515/modifier.sol\":2466:2500  keccak256(abi.encodePacked(\"Bob\")) */\n      dup1\n      mload\n      swap1\n      0x20\n      add\n      keccak256\n        /* \"contracts/0515/modifier.sol\":2451:2460  _criminal */\n      dup2\n        /* \"contracts/0515/modifier.sol\":2434:2461  abi.encodePacked(_criminal) */\n      add(0x20, mload(0x40))\n      tag_98\n      swap2\n      swap1\n      tag_55\n      jump\t// in\n    tag_98:\n      mload(0x40)\n      0x20\n      dup2\n      dup4\n      sub\n      sub\n      dup2\n      mstore\n      swap1\n      0x40\n      mstore\n        /* \"contracts/0515/modifier.sol\":2424:2462  keccak256(abi.encodePacked(_criminal)) */\n      dup1\n      mload\n      swap1\n      0x20\n      add\n      keccak256\n        /* \"contracts/0515/modifier.sol\":2424:2500  keccak256(abi.encodePacked(_criminal)) == keccak256(abi.encodePacked(\"Bob\")) */\n      eq\n        /* \"contracts/0515/modifier.sol\":2416:2538  require(keccak256(abi.encodePacked(_criminal)) == keccak256(abi.encodePacked(\"Bob\")), \"Bob is criminal. She can't buy it\") */\n      tag_99\n      jumpi\n      mload(0x40)\n      0x08c379a000000000000000000000000000000000000000000000000000000000\n      dup2\n      mstore\n      0x04\n      add\n      tag_100\n      swap1\n      tag_58\n      jump\t// in\n    tag_100:\n      mload(0x40)\n      dup1\n      swap2\n      sub\n      swap1\n      revert\n    tag_99:\n        /* \"contracts/0515/modifier.sol\":2831:2846  return \"Passed\" */\n      mload(0x40)\n      dup1\n      0x40\n      add\n      0x40\n      mstore\n      dup1\n      0x06\n      dup2\n      mstore\n      0x20\n      add\n      0x5061737365640000000000000000000000000000000000000000000000000000\n      dup2\n      mstore\n      pop\n      swap3\n      pop\n        /* \"contracts/0515/modifier.sol\":2715:2854  function buyAlcho(uint _a, string memory _name) public pure overTwenty(_a, _name) returns(string memory) {... */\n      pop\n      pop\n      swap3\n      swap2\n      pop\n      pop\n      jump\t// out\n        /* \"contracts/0515/modifier.sol\":2862:2998  function buyGu(uint _a, string memory _name) public pure overTwenty(_a, _name) returns(string memory) {... */\n    tag_33:\n        /* \"contracts/0515/modifier.sol\":2949:2962  string memory */\n      0x60\n        /* \"contracts/0515/modifier.sol\":2930:2932  _a */\n      dup3\n        /* \"contracts/0515/modifier.sol\":2934:2939  _name */\n      dup3\n        /* \"contracts/0515/modifier.sol\":2389:2391  20 */\n      0x14\n        /* \"contracts/0515/modifier.sol\":2383:2387  _age */\n      dup3\n        /* \"contracts/0515/modifier.sol\":2383:2391  _age >20 */\n      gt\n        /* \"contracts/0515/modifier.sol\":2375:2405  require(_age >20, \"Too young\") */\n      tag_103\n      jumpi\n      mload(0x40)\n      0x08c379a000000000000000000000000000000000000000000000000000000000\n      dup2\n      mstore\n      0x04\n      add\n      tag_104\n      swap1\n      tag_51\n      jump\t// in\n    tag_104:\n      mload(0x40)\n      dup1\n      swap2\n      sub\n      swap1\n      revert\n    tag_103:\n        /* \"contracts/0515/modifier.sol\":2476:2499  abi.encodePacked(\"Bob\") */\n      add(0x20, mload(0x40))\n      tag_105\n      swap1\n      tag_53\n      jump\t// in\n    tag_105:\n      mload(0x40)\n      0x20\n      dup2\n      dup4\n      sub\n      sub\n      dup2\n      mstore\n      swap1\n      0x40\n      mstore\n        /* \"contracts/0515/modifier.sol\":2466:2500  keccak256(abi.encodePacked(\"Bob\")) */\n      dup1\n      mload\n      swap1\n      0x20\n      add\n      keccak256\n        /* \"contracts/0515/modifier.sol\":2451:2460  _criminal */\n      dup2\n        /* \"contracts/0515/modifier.sol\":2434:2461  abi.encodePacked(_criminal) */\n      add(0x20, mload(0x40))\n      tag_106\n      swap2\n      swap1\n      tag_55\n      jump\t// in\n    tag_106:\n      mload(0x40)\n      0x20\n      dup2\n      dup4\n      sub\n      sub\n      dup2\n      mstore\n      swap1\n      0x40\n      mstore\n        /* \"contracts/0515/modifier.sol\":2424:2462  keccak256(abi.encodePacked(_criminal)) */\n      dup1\n      mload\n      swap1\n      0x20\n      add\n      keccak256\n        /* \"contracts/0515/modifier.sol\":2424:2500  keccak256(abi.encodePacked(_criminal)) == keccak256(abi.encodePacked(\"Bob\")) */\n      eq\n        /* \"contracts/0515/modifier.sol\":2416:2538  require(keccak256(abi.encodePacked(_criminal)) == keccak256(abi.encodePacked(\"Bob\")), \"Bob is criminal. She can't buy it\") */\n      tag_107\n      jumpi\n      mload(0x40)\n      0x08c379a000000000000000000000000000000000000000000000000000000000\n      dup2\n      mstore\n      0x04\n      add\n      tag_108\n      swap1\n      tag_58\n      jump\t// in\n    tag_108:\n      mload(0x40)\n      dup1\n      swap2\n      sub\n      swap1\n      revert\n    tag_107:\n        /* \"contracts/0515/modifier.sol\":2975:2990  return \"Passed\" */\n      mload(0x40)\n      dup1\n      0x40\n      add\n      0x40\n      mstore\n      dup1\n      0x06\n      dup2\n      mstore\n      0x20\n      add\n      0x5061737365640000000000000000000000000000000000000000000000000000\n      dup2\n      mstore\n      pop\n      swap3\n      pop\n        /* \"contracts/0515/modifier.sol\":2862:2998  function buyGu(uint _a, string memory _name) public pure overTwenty(_a, _name) returns(string memory) {... */\n      pop\n      pop\n      swap3\n      swap2\n      pop\n      pop\n      jump\t// out\n        /* \"contracts/0515/modifier.sol\":3006:3101  function setP(uint _age, string memory _name) public {... */\n    tag_37:\n        /* \"contracts/0515/modifier.sol\":3074:3093  Person(_age, _name) */\n      mload(0x40)\n      dup1\n      0x40\n      add\n      0x40\n      mstore\n      dup1\n        /* \"contracts/0515/modifier.sol\":3081:3085  _age */\n      dup4\n        /* \"contracts/0515/modifier.sol\":3074:3093  Person(_age, _name) */\n      dup2\n      mstore\n      0x20\n      add\n        /* \"contracts/0515/modifier.sol\":3087:3092  _name */\n      dup3\n        /* \"contracts/0515/modifier.sol\":3074:3093  Person(_age, _name) */\n      dup2\n      mstore\n      pop\n        /* \"contracts/0515/modifier.sol\":3070:3071  P */\n      0x00\n        /* \"contracts/0515/modifier.sol\":3070:3093  P = Person(_age, _name) */\n      dup1\n      dup3\n      add\n      mload\n      dup2\n      0x00\n      add\n      sstore\n      0x20\n      dup3\n      add\n      mload\n      dup2\n      0x01\n      add\n      swap1\n      dup2\n      tag_111\n      swap2\n      swap1\n      tag_112\n      jump\t// in\n    tag_111:\n      pop\n      swap1\n      pop\n      pop\n        /* \"contracts/0515/modifier.sol\":3006:3101  function setP(uint _age, string memory _name) public {... */\n      pop\n      pop\n      jump\t// out\n        /* \"contracts/0515/modifier.sol\":2568:2707  function buyCigar(uint _a, string memory _name) public pure overTwenty(_a, _name) returns(string memory) {... */\n    tag_40:\n        /* \"contracts/0515/modifier.sol\":2658:2671  string memory */\n      0x60\n        /* \"contracts/0515/modifier.sol\":2639:2641  _a */\n      dup3\n        /* \"contracts/0515/modifier.sol\":2643:2648  _name */\n      dup3\n        /* \"contracts/0515/modifier.sol\":2389:2391  20 */\n      0x14\n        /* \"contracts/0515/modifier.sol\":2383:2387  _age */\n      dup3\n        /* \"contracts/0515/modifier.sol\":2383:2391  _age >20 */\n      gt\n        /* \"contracts/0515/modifier.sol\":2375:2405  require(_age >20, \"Too young\") */\n      tag_114\n      jumpi\n      mload(0x40)\n      0x08c379a000000000000000000000000000000000000000000000000000000000\n      dup2\n      mstore\n      0x04\n      add\n      tag_115\n      swap1\n      tag_51\n      jump\t// in\n    tag_115:\n      mload(0x40)\n      dup1\n      swap2\n      sub\n      swap1\n      revert\n    tag_114:\n        /* \"contracts/0515/modifier.sol\":2476:2499  abi.encodePacked(\"Bob\") */\n      add(0x20, mload(0x40))\n      tag_116\n      swap1\n      tag_53\n      jump\t// in\n    tag_116:\n      mload(0x40)\n      0x20\n      dup2\n      dup4\n      sub\n      sub\n      dup2\n      mstore\n      swap1\n      0x40\n      mstore\n        /* \"contracts/0515/modifier.sol\":2466:2500  keccak256(abi.encodePacked(\"Bob\")) */\n      dup1\n      mload\n      swap1\n      0x20\n      add\n      keccak256\n        /* \"contracts/0515/modifier.sol\":2451:2460  _criminal */\n      dup2\n        /* \"contracts/0515/modifier.sol\":2434:2461  abi.encodePacked(_criminal) */\n      add(0x20, mload(0x40))\n      tag_117\n      swap2\n      swap1\n      tag_55\n      jump\t// in\n    tag_117:\n      mload(0x40)\n      0x20\n      dup2\n      dup4\n      sub\n      sub\n      dup2\n      mstore\n      swap1\n      0x40\n      mstore\n        /* \"contracts/0515/modifier.sol\":2424:2462  keccak256(abi.encodePacked(_criminal)) */\n      dup1\n      mload\n      swap1\n      0x20\n      add\n      keccak256\n        /* \"contracts/0515/modifier.sol\":2424:2500  keccak256(abi.encodePacked(_criminal)) == keccak256(abi.encodePacked(\"Bob\")) */\n      eq\n        /* \"contracts/0515/modifier.sol\":2416:2538  require(keccak256(abi.encodePacked(_criminal)) == keccak256(abi.encodePacked(\"Bob\")), \"Bob is criminal. She can't buy it\") */\n      tag_118\n      jumpi\n      mload(0x40)\n      0x08c379a000000000000000000000000000000000000000000000000000000000\n      dup2\n      mstore\n      0x04\n      add\n      tag_119\n      swap1\n      tag_58\n      jump\t// in\n    tag_119:\n      mload(0x40)\n      dup1\n      swap2\n      sub\n      swap1\n      revert\n    tag_118:\n        /* \"contracts/0515/modifier.sol\":2684:2699  return \"Passed\" */\n      mload(0x40)\n      dup1\n      0x40\n      add\n      0x40\n      mstore\n      dup1\n      0x06\n      dup2\n      mstore\n      0x20\n      add\n      0x5061737365640000000000000000000000000000000000000000000000000000\n      dup2\n      mstore\n      pop\n      swap3\n      pop\n        /* \"contracts/0515/modifier.sol\":2568:2707  function buyCigar(uint _a, string memory _name) public pure overTwenty(_a, _name) returns(string memory) {... */\n      pop\n      pop\n      swap3\n      swap2\n      pop\n      pop\n      jump\t// out\n    tag_87:\n      mload(0x40)\n      dup1\n      0x40\n      add\n      0x40\n      mstore\n      dup1\n      0x00\n      dup2\n      mstore\n      0x20\n      add\n      0x60\n      dup2\n      mstore\n      pop\n      swap1\n      jump\t// out\n        /* \"#utility.yul\":7:106   */\n    tag_121:\n        /* \"#utility.yul\":59:65   */\n      0x00\n        /* \"#utility.yul\":93:98   */\n      dup2\n        /* \"#utility.yul\":87:99   */\n      mload\n        /* \"#utility.yul\":77:99   */\n      swap1\n      pop\n        /* \"#utility.yul\":7:106   */\n      swap2\n      swap1\n      pop\n      jump\t// out\n        /* \"#utility.yul\":112:281   */\n    tag_122:\n        /* \"#utility.yul\":196:207   */\n      0x00\n        /* \"#utility.yul\":230:236   */\n      dup3\n        /* \"#utility.yul\":225:228   */\n      dup3\n        /* \"#utility.yul\":218:237   */\n      mstore\n        /* \"#utility.yul\":270:274   */\n      0x20\n        /* \"#utility.yul\":265:268   */\n      dup3\n        /* \"#utility.yul\":261:275   */\n      add\n        /* \"#utility.yul\":246:275   */\n      swap1\n      pop\n        /* \"#utility.yul\":112:281   */\n      swap3\n      swap2\n      pop\n      pop\n      jump\t// out\n        /* \"#utility.yul\":287:533   */\n    tag_123:\n        /* \"#utility.yul\":368:369   */\n      0x00\n        /* \"#utility.yul\":378:491   */\n    tag_173:\n        /* \"#utility.yul\":392:398   */\n      dup4\n        /* \"#utility.yul\":389:390   */\n      dup2\n        /* \"#utility.yul\":386:399   */\n      lt\n        /* \"#utility.yul\":378:491   */\n      iszero\n      tag_175\n      jumpi\n        /* \"#utility.yul\":477:478   */\n      dup1\n        /* \"#utility.yul\":472:475   */\n      dup3\n        /* \"#utility.yul\":468:479   */\n      add\n        /* \"#utility.yul\":462:480   */\n      mload\n        /* \"#utility.yul\":458:459   */\n      dup2\n        /* \"#utility.yul\":453:456   */\n      dup5\n        /* \"#utility.yul\":449:460   */\n      add\n        /* \"#utility.yul\":442:481   */\n      mstore\n        /* \"#utility.yul\":414:416   */\n      0x20\n        /* \"#utility.yul\":411:412   */\n      dup2\n        /* \"#utility.yul\":407:417   */\n      add\n        /* \"#utility.yul\":402:417   */\n      swap1\n      pop\n        /* \"#utility.yul\":378:491   */\n      jump(tag_173)\n    tag_175:\n        /* \"#utility.yul\":525:526   */\n      0x00\n        /* \"#utility.yul\":516:522   */\n      dup5\n        /* \"#utility.yul\":511:514   */\n      dup5\n        /* \"#utility.yul\":507:523   */\n      add\n        /* \"#utility.yul\":500:527   */\n      mstore\n        /* \"#utility.yul\":349:533   */\n      pop\n        /* \"#utility.yul\":287:533   */\n      pop\n      pop\n      pop\n      jump\t// out\n        /* \"#utility.yul\":539:641   */\n    tag_124:\n        /* \"#utility.yul\":580:586   */\n      0x00\n        /* \"#utility.yul\":631:633   */\n      0x1f\n        /* \"#utility.yul\":627:634   */\n      not\n        /* \"#utility.yul\":622:624   */\n      0x1f\n        /* \"#utility.yul\":615:620   */\n      dup4\n        /* \"#utility.yul\":611:625   */\n      add\n        /* \"#utility.yul\":607:635   */\n      and\n        /* \"#utility.yul\":597:635   */\n      swap1\n      pop\n        /* \"#utility.yul\":539:641   */\n      swap2\n      swap1\n      pop\n      jump\t// out\n        /* \"#utility.yul\":647:1024   */\n    tag_125:\n        /* \"#utility.yul\":735:738   */\n      0x00\n        /* \"#utility.yul\":763:802   */\n      tag_178\n        /* \"#utility.yul\":796:801   */\n      dup3\n        /* \"#utility.yul\":763:802   */\n      tag_121\n      jump\t// in\n    tag_178:\n        /* \"#utility.yul\":818:889   */\n      tag_179\n        /* \"#utility.yul\":882:888   */\n      dup2\n        /* \"#utility.yul\":877:880   */\n      dup6\n        /* \"#utility.yul\":818:889   */\n      tag_122\n      jump\t// in\n    tag_179:\n        /* \"#utility.yul\":811:889   */\n      swap4\n      pop\n        /* \"#utility.yul\":898:963   */\n      tag_180\n        /* \"#utility.yul\":956:962   */\n      dup2\n        /* \"#utility.yul\":951:954   */\n      dup6\n        /* \"#utility.yul\":944:948   */\n      0x20\n        /* \"#utility.yul\":937:942   */\n      dup7\n        /* \"#utility.yul\":933:949   */\n      add\n        /* \"#utility.yul\":898:963   */\n      tag_123\n      jump\t// in\n    tag_180:\n        /* \"#utility.yul\":988:1017   */\n      tag_181\n        /* \"#utility.yul\":1010:1016   */\n      dup2\n        /* \"#utility.yul\":988:1017   */\n      tag_124\n      jump\t// in\n    tag_181:\n        /* \"#utility.yul\":983:986   */\n      dup5\n        /* \"#utility.yul\":979:1018   */\n      add\n        /* \"#utility.yul\":972:1018   */\n      swap2\n      pop\n        /* \"#utility.yul\":739:1024   */\n      pop\n        /* \"#utility.yul\":647:1024   */\n      swap3\n      swap2\n      pop\n      pop\n      jump\t// out\n        /* \"#utility.yul\":1030:1343   */\n    tag_15:\n        /* \"#utility.yul\":1143:1147   */\n      0x00\n        /* \"#utility.yul\":1181:1183   */\n      0x20\n        /* \"#utility.yul\":1170:1179   */\n      dup3\n        /* \"#utility.yul\":1166:1184   */\n      add\n        /* \"#utility.yul\":1158:1184   */\n      swap1\n      pop\n        /* \"#utility.yul\":1230:1239   */\n      dup2\n        /* \"#utility.yul\":1224:1228   */\n      dup2\n        /* \"#utility.yul\":1220:1240   */\n      sub\n        /* \"#utility.yul\":1216:1217   */\n      0x00\n        /* \"#utility.yul\":1205:1214   */\n      dup4\n        /* \"#utility.yul\":1201:1218   */\n      add\n        /* \"#utility.yul\":1194:1241   */\n      mstore\n        /* \"#utility.yul\":1258:1336   */\n      tag_183\n        /* \"#utility.yul\":1331:1335   */\n      dup2\n        /* \"#utility.yul\":1322:1328   */\n      dup5\n        /* \"#utility.yul\":1258:1336   */\n      tag_125\n      jump\t// in\n    tag_183:\n        /* \"#utility.yul\":1250:1336   */\n      swap1\n      pop\n        /* \"#utility.yul\":1030:1343   */\n      swap3\n      swap2\n      pop\n      pop\n      jump\t// out\n        /* \"#utility.yul\":1349:1426   */\n    tag_126:\n        /* \"#utility.yul\":1386:1393   */\n      0x00\n        /* \"#utility.yul\":1415:1420   */\n      dup2\n        /* \"#utility.yul\":1404:1420   */\n      swap1\n      pop\n        /* \"#utility.yul\":1349:1426   */\n      swap2\n      swap1\n      pop\n      jump\t// out\n        /* \"#utility.yul\":1432:1540   */\n    tag_127:\n        /* \"#utility.yul\":1509:1533   */\n      tag_186\n        /* \"#utility.yul\":1527:1532   */\n      dup2\n        /* \"#utility.yul\":1509:1533   */\n      tag_126\n      jump\t// in\n    tag_186:\n        /* \"#utility.yul\":1504:1507   */\n      dup3\n        /* \"#utility.yul\":1497:1534   */\n      mstore\n        /* \"#utility.yul\":1432:1540   */\n      pop\n      pop\n      jump\t// out\n        /* \"#utility.yul\":1546:1705   */\n    tag_128:\n        /* \"#utility.yul\":1620:1631   */\n      0x00\n        /* \"#utility.yul\":1654:1660   */\n      dup3\n        /* \"#utility.yul\":1649:1652   */\n      dup3\n        /* \"#utility.yul\":1642:1661   */\n      mstore\n        /* \"#utility.yul\":1694:1698   */\n      0x20\n        /* \"#utility.yul\":1689:1692   */\n      dup3\n        /* \"#utility.yul\":1685:1699   */\n      add\n        /* \"#utility.yul\":1670:1699   */\n      swap1\n      pop\n        /* \"#utility.yul\":1546:1705   */\n      swap3\n      swap2\n      pop\n      pop\n      jump\t// out\n        /* \"#utility.yul\":1711:2068   */\n    tag_129:\n        /* \"#utility.yul\":1789:1792   */\n      0x00\n        /* \"#utility.yul\":1817:1856   */\n      tag_189\n        /* \"#utility.yul\":1850:1855   */\n      dup3\n        /* \"#utility.yul\":1817:1856   */\n      tag_121\n      jump\t// in\n    tag_189:\n        /* \"#utility.yul\":1872:1933   */\n      tag_190\n        /* \"#utility.yul\":1926:1932   */\n      dup2\n        /* \"#utility.yul\":1921:1924   */\n      dup6\n        /* \"#utility.yul\":1872:1933   */\n      tag_128\n      jump\t// in\n    tag_190:\n        /* \"#utility.yul\":1865:1933   */\n      swap4\n      pop\n        /* \"#utility.yul\":1942:2007   */\n      tag_191\n        /* \"#utility.yul\":2000:2006   */\n      dup2\n        /* \"#utility.yul\":1995:1998   */\n      dup6\n        /* \"#utility.yul\":1988:1992   */\n      0x20\n        /* \"#utility.yul\":1981:1986   */\n      dup7\n        /* \"#utility.yul\":1977:1993   */\n      add\n        /* \"#utility.yul\":1942:2007   */\n      tag_123\n      jump\t// in\n    tag_191:\n        /* \"#utility.yul\":2032:2061   */\n      tag_192\n        /* \"#utility.yul\":2054:2060   */\n      dup2\n        /* \"#utility.yul\":2032:2061   */\n      tag_124\n      jump\t// in\n    tag_192:\n        /* \"#utility.yul\":2027:2030   */\n      dup5\n        /* \"#utility.yul\":2023:2062   */\n      add\n        /* \"#utility.yul\":2016:2062   */\n      swap2\n      pop\n        /* \"#utility.yul\":1793:2068   */\n      pop\n        /* \"#utility.yul\":1711:2068   */\n      swap3\n      swap2\n      pop\n      pop\n      jump\t// out\n        /* \"#utility.yul\":2132:2733   */\n    tag_130:\n        /* \"#utility.yul\":2247:2250   */\n      0x00\n        /* \"#utility.yul\":2283:2287   */\n      0x40\n        /* \"#utility.yul\":2278:2281   */\n      dup4\n        /* \"#utility.yul\":2274:2288   */\n      add\n        /* \"#utility.yul\":2369:2373   */\n      0x00\n        /* \"#utility.yul\":2362:2367   */\n      dup4\n        /* \"#utility.yul\":2358:2374   */\n      add\n        /* \"#utility.yul\":2352:2375   */\n      mload\n        /* \"#utility.yul\":2388:2451   */\n      tag_194\n        /* \"#utility.yul\":2445:2449   */\n      0x00\n        /* \"#utility.yul\":2440:2443   */\n      dup7\n        /* \"#utility.yul\":2436:2450   */\n      add\n        /* \"#utility.yul\":2422:2434   */\n      dup3\n        /* \"#utility.yul\":2388:2451   */\n      tag_127\n      jump\t// in\n    tag_194:\n        /* \"#utility.yul\":2298:2461   */\n      pop\n        /* \"#utility.yul\":2543:2547   */\n      0x20\n        /* \"#utility.yul\":2536:2541   */\n      dup4\n        /* \"#utility.yul\":2532:2548   */\n      add\n        /* \"#utility.yul\":2526:2549   */\n      mload\n        /* \"#utility.yul\":2596:2599   */\n      dup5\n        /* \"#utility.yul\":2590:2594   */\n      dup3\n        /* \"#utility.yul\":2586:2600   */\n      sub\n        /* \"#utility.yul\":2579:2583   */\n      0x20\n        /* \"#utility.yul\":2574:2577   */\n      dup7\n        /* \"#utility.yul\":2570:2584   */\n      add\n        /* \"#utility.yul\":2563:2601   */\n      mstore\n        /* \"#utility.yul\":2622:2695   */\n      tag_195\n        /* \"#utility.yul\":2690:2694   */\n      dup3\n        /* \"#utility.yul\":2676:2688   */\n      dup3\n        /* \"#utility.yul\":2622:2695   */\n      tag_129\n      jump\t// in\n    tag_195:\n        /* \"#utility.yul\":2614:2695   */\n      swap2\n      pop\n        /* \"#utility.yul\":2471:2706   */\n      pop\n        /* \"#utility.yul\":2723:2727   */\n      dup1\n        /* \"#utility.yul\":2716:2727   */\n      swap2\n      pop\n        /* \"#utility.yul\":2252:2733   */\n      pop\n        /* \"#utility.yul\":2132:2733   */\n      swap3\n      swap2\n      pop\n      pop\n      jump\t// out\n        /* \"#utility.yul\":2739:3104   */\n    tag_25:\n        /* \"#utility.yul\":2878:2882   */\n      0x00\n        /* \"#utility.yul\":2916:2918   */\n      0x20\n        /* \"#utility.yul\":2905:2914   */\n      dup3\n        /* \"#utility.yul\":2901:2919   */\n      add\n        /* \"#utility.yul\":2893:2919   */\n      swap1\n      pop\n        /* \"#utility.yul\":2965:2974   */\n      dup2\n        /* \"#utility.yul\":2959:2963   */\n      dup2\n        /* \"#utility.yul\":2955:2975   */\n      sub\n        /* \"#utility.yul\":2951:2952   */\n      0x00\n        /* \"#utility.yul\":2940:2949   */\n      dup4\n        /* \"#utility.yul\":2936:2953   */\n      add\n        /* \"#utility.yul\":2929:2976   */\n      mstore\n        /* \"#utility.yul\":2993:3097   */\n      tag_197\n        /* \"#utility.yul\":3092:3096   */\n      dup2\n        /* \"#utility.yul\":3083:3089   */\n      dup5\n        /* \"#utility.yul\":2993:3097   */\n      tag_130\n      jump\t// in\n    tag_197:\n        /* \"#utility.yul\":2985:3097   */\n      swap1\n      pop\n        /* \"#utility.yul\":2739:3104   */\n      swap3\n      swap2\n      pop\n      pop\n      jump\t// out\n        /* \"#utility.yul\":3110:3185   */\n    tag_131:\n        /* \"#utility.yul\":3143:3149   */\n      0x00\n        /* \"#utility.yul\":3176:3178   */\n      0x40\n        /* \"#utility.yul\":3170:3179   */\n      mload\n        /* \"#utility.yul\":3160:3179   */\n      swap1\n      pop\n        /* \"#utility.yul\":3110:3185   */\n      swap1\n      jump\t// out\n        /* \"#utility.yul\":3191:3308   */\n    tag_132:\n        /* \"#utility.yul\":3300:3301   */\n      0x00\n        /* \"#utility.yul\":3297:3298   */\n      dup1\n        /* \"#utility.yul\":3290:3302   */\n      revert\n        /* \"#utility.yul\":3314:3431   */\n    tag_133:\n        /* \"#utility.yul\":3423:3424   */\n      0x00\n        /* \"#utility.yul\":3420:3421   */\n      dup1\n        /* \"#utility.yul\":3413:3425   */\n      revert\n        /* \"#utility.yul\":3437:3559   */\n    tag_134:\n        /* \"#utility.yul\":3510:3534   */\n      tag_202\n        /* \"#utility.yul\":3528:3533   */\n      dup2\n        /* \"#utility.yul\":3510:3534   */\n      tag_126\n      jump\t// in\n    tag_202:\n        /* \"#utility.yul\":3503:3508   */\n      dup2\n        /* \"#utility.yul\":3500:3535   */\n      eq\n        /* \"#utility.yul\":3490:3553   */\n      tag_203\n      jumpi\n        /* \"#utility.yul\":3549:3550   */\n      0x00\n        /* \"#utility.yul\":3546:3547   */\n      dup1\n        /* \"#utility.yul\":3539:3551   */\n      revert\n        /* \"#utility.yul\":3490:3553   */\n    tag_203:\n        /* \"#utility.yul\":3437:3559   */\n      pop\n      jump\t// out\n        /* \"#utility.yul\":3565:3704   */\n    tag_135:\n        /* \"#utility.yul\":3611:3616   */\n      0x00\n        /* \"#utility.yul\":3649:3655   */\n      dup2\n        /* \"#utility.yul\":3636:3656   */\n      calldataload\n        /* \"#utility.yul\":3627:3656   */\n      swap1\n      pop\n        /* \"#utility.yul\":3665:3698   */\n      tag_205\n        /* \"#utility.yul\":3692:3697   */\n      dup2\n        /* \"#utility.yul\":3665:3698   */\n      tag_134\n      jump\t// in\n    tag_205:\n        /* \"#utility.yul\":3565:3704   */\n      swap3\n      swap2\n      pop\n      pop\n      jump\t// out\n        /* \"#utility.yul\":3710:3827   */\n    tag_136:\n        /* \"#utility.yul\":3819:3820   */\n      0x00\n        /* \"#utility.yul\":3816:3817   */\n      dup1\n        /* \"#utility.yul\":3809:3821   */\n      revert\n        /* \"#utility.yul\":3833:3950   */\n    tag_137:\n        /* \"#utility.yul\":3942:3943   */\n      0x00\n        /* \"#utility.yul\":3939:3940   */\n      dup1\n        /* \"#utility.yul\":3932:3944   */\n      revert\n        /* \"#utility.yul\":3956:4136   */\n    tag_138:\n        /* \"#utility.yul\":4004:4081   */\n      0x4e487b7100000000000000000000000000000000000000000000000000000000\n        /* \"#utility.yul\":4001:4002   */\n      0x00\n        /* \"#utility.yul\":3994:4082   */\n      mstore\n        /* \"#utility.yul\":4101:4105   */\n      0x41\n        /* \"#utility.yul\":4098:4099   */\n      0x04\n        /* \"#utility.yul\":4091:4106   */\n      mstore\n        /* \"#utility.yul\":4125:4129   */\n      0x24\n        /* \"#utility.yul\":4122:4123   */\n      0x00\n        /* \"#utility.yul\":4115:4130   */\n      revert\n        /* \"#utility.yul\":4142:4423   */\n    tag_139:\n        /* \"#utility.yul\":4225:4252   */\n      tag_210\n        /* \"#utility.yul\":4247:4251   */\n      dup3\n        /* \"#utility.yul\":4225:4252   */\n      tag_124\n      jump\t// in\n    tag_210:\n        /* \"#utility.yul\":4217:4223   */\n      dup2\n        /* \"#utility.yul\":4213:4253   */\n      add\n        /* \"#utility.yul\":4355:4361   */\n      dup2\n        /* \"#utility.yul\":4343:4353   */\n      dup2\n        /* \"#utility.yul\":4340:4362   */\n      lt\n        /* \"#utility.yul\":4319:4337   */\n      0xffffffffffffffff\n        /* \"#utility.yul\":4307:4317   */\n      dup3\n        /* \"#utility.yul\":4304:4338   */\n      gt\n        /* \"#utility.yul\":4301:4363   */\n      or\n        /* \"#utility.yul\":4298:4386   */\n      iszero\n      tag_211\n      jumpi\n        /* \"#utility.yul\":4366:4384   */\n      tag_212\n      tag_138\n      jump\t// in\n    tag_212:\n        /* \"#utility.yul\":4298:4386   */\n    tag_211:\n        /* \"#utility.yul\":4406:4416   */\n      dup1\n        /* \"#utility.yul\":4402:4404   */\n      0x40\n        /* \"#utility.yul\":4395:4417   */\n      mstore\n        /* \"#utility.yul\":4185:4423   */\n      pop\n        /* \"#utility.yul\":4142:4423   */\n      pop\n      pop\n      jump\t// out\n        /* \"#utility.yul\":4429:4558   */\n    tag_140:\n        /* \"#utility.yul\":4463:4469   */\n      0x00\n        /* \"#utility.yul\":4490:4510   */\n      tag_214\n      tag_131\n      jump\t// in\n    tag_214:\n        /* \"#utility.yul\":4480:4510   */\n      swap1\n      pop\n        /* \"#utility.yul\":4519:4552   */\n      tag_215\n        /* \"#utility.yul\":4547:4551   */\n      dup3\n        /* \"#utility.yul\":4539:4545   */\n      dup3\n        /* \"#utility.yul\":4519:4552   */\n      tag_139\n      jump\t// in\n    tag_215:\n        /* \"#utility.yul\":4429:4558   */\n      swap2\n      swap1\n      pop\n      jump\t// out\n        /* \"#utility.yul\":4564:4872   */\n    tag_141:\n        /* \"#utility.yul\":4626:4630   */\n      0x00\n        /* \"#utility.yul\":4716:4734   */\n      0xffffffffffffffff\n        /* \"#utility.yul\":4708:4714   */\n      dup3\n        /* \"#utility.yul\":4705:4735   */\n      gt\n        /* \"#utility.yul\":4702:4758   */\n      iszero\n      tag_217\n      jumpi\n        /* \"#utility.yul\":4738:4756   */\n      tag_218\n      tag_138\n      jump\t// in\n    tag_218:\n        /* \"#utility.yul\":4702:4758   */\n    tag_217:\n        /* \"#utility.yul\":4776:4805   */\n      tag_219\n        /* \"#utility.yul\":4798:4804   */\n      dup3\n        /* \"#utility.yul\":4776:4805   */\n      tag_124\n      jump\t// in\n    tag_219:\n        /* \"#utility.yul\":4768:4805   */\n      swap1\n      pop\n        /* \"#utility.yul\":4860:4864   */\n      0x20\n        /* \"#utility.yul\":4854:4858   */\n      dup2\n        /* \"#utility.yul\":4850:4865   */\n      add\n        /* \"#utility.yul\":4842:4865   */\n      swap1\n      pop\n        /* \"#utility.yul\":4564:4872   */\n      swap2\n      swap1\n      pop\n      jump\t// out\n        /* \"#utility.yul\":4878:5024   */\n    tag_142:\n        /* \"#utility.yul\":4975:4981   */\n      dup3\n        /* \"#utility.yul\":4970:4973   */\n      dup2\n        /* \"#utility.yul\":4965:4968   */\n      dup4\n        /* \"#utility.yul\":4952:4982   */\n      calldatacopy\n        /* \"#utility.yul\":5016:5017   */\n      0x00\n        /* \"#utility.yul\":5007:5013   */\n      dup4\n        /* \"#utility.yul\":5002:5005   */\n      dup4\n        /* \"#utility.yul\":4998:5014   */\n      add\n        /* \"#utility.yul\":4991:5018   */\n      mstore\n        /* \"#utility.yul\":4878:5024   */\n      pop\n      pop\n      pop\n      jump\t// out\n        /* \"#utility.yul\":5030:5455   */\n    tag_143:\n        /* \"#utility.yul\":5108:5113   */\n      0x00\n        /* \"#utility.yul\":5133:5199   */\n      tag_222\n        /* \"#utility.yul\":5149:5198   */\n      tag_223\n        /* \"#utility.yul\":5191:5197   */\n      dup5\n        /* \"#utility.yul\":5149:5198   */\n      tag_141\n      jump\t// in\n    tag_223:\n        /* \"#utility.yul\":5133:5199   */\n      tag_140\n      jump\t// in\n    tag_222:\n        /* \"#utility.yul\":5124:5199   */\n      swap1\n      pop\n        /* \"#utility.yul\":5222:5228   */\n      dup3\n        /* \"#utility.yul\":5215:5220   */\n      dup2\n        /* \"#utility.yul\":5208:5229   */\n      mstore\n        /* \"#utility.yul\":5260:5264   */\n      0x20\n        /* \"#utility.yul\":5253:5258   */\n      dup2\n        /* \"#utility.yul\":5249:5265   */\n      add\n        /* \"#utility.yul\":5298:5301   */\n      dup5\n        /* \"#utility.yul\":5289:5295   */\n      dup5\n        /* \"#utility.yul\":5284:5287   */\n      dup5\n        /* \"#utility.yul\":5280:5296   */\n      add\n        /* \"#utility.yul\":5277:5302   */\n      gt\n        /* \"#utility.yul\":5274:5386   */\n      iszero\n      tag_224\n      jumpi\n        /* \"#utility.yul\":5305:5384   */\n      tag_225\n      tag_137\n      jump\t// in\n    tag_225:\n        /* \"#utility.yul\":5274:5386   */\n    tag_224:\n        /* \"#utility.yul\":5395:5449   */\n      tag_226\n        /* \"#utility.yul\":5442:5448   */\n      dup5\n        /* \"#utility.yul\":5437:5440   */\n      dup3\n        /* \"#utility.yul\":5432:5435   */\n      dup6\n        /* \"#utility.yul\":5395:5449   */\n      tag_142\n      jump\t// in\n    tag_226:\n        /* \"#utility.yul\":5114:5455   */\n      pop\n        /* \"#utility.yul\":5030:5455   */\n      swap4\n      swap3\n      pop\n      pop\n      pop\n      jump\t// out\n        /* \"#utility.yul\":5475:5815   */\n    tag_144:\n        /* \"#utility.yul\":5531:5536   */\n      0x00\n        /* \"#utility.yul\":5580:5583   */\n      dup3\n        /* \"#utility.yul\":5573:5577   */\n      0x1f\n        /* \"#utility.yul\":5565:5571   */\n      dup4\n        /* \"#utility.yul\":5561:5578   */\n      add\n        /* \"#utility.yul\":5557:5584   */\n      slt\n        /* \"#utility.yul\":5547:5669   */\n      tag_228\n      jumpi\n        /* \"#utility.yul\":5588:5667   */\n      tag_229\n      tag_136\n      jump\t// in\n    tag_229:\n        /* \"#utility.yul\":5547:5669   */\n    tag_228:\n        /* \"#utility.yul\":5705:5711   */\n      dup2\n        /* \"#utility.yul\":5692:5712   */\n      calldataload\n        /* \"#utility.yul\":5730:5809   */\n      tag_230\n        /* \"#utility.yul\":5805:5808   */\n      dup5\n        /* \"#utility.yul\":5797:5803   */\n      dup3\n        /* \"#utility.yul\":5790:5794   */\n      0x20\n        /* \"#utility.yul\":5782:5788   */\n      dup7\n        /* \"#utility.yul\":5778:5795   */\n      add\n        /* \"#utility.yul\":5730:5809   */\n      tag_143\n      jump\t// in\n    tag_230:\n        /* \"#utility.yul\":5721:5809   */\n      swap2\n      pop\n        /* \"#utility.yul\":5537:5815   */\n      pop\n        /* \"#utility.yul\":5475:5815   */\n      swap3\n      swap2\n      pop\n      pop\n      jump\t// out\n        /* \"#utility.yul\":5821:6475   */\n    tag_28:\n        /* \"#utility.yul\":5899:5905   */\n      0x00\n        /* \"#utility.yul\":5907:5913   */\n      dup1\n        /* \"#utility.yul\":5956:5958   */\n      0x40\n        /* \"#utility.yul\":5944:5953   */\n      dup4\n        /* \"#utility.yul\":5935:5942   */\n      dup6\n        /* \"#utility.yul\":5931:5954   */\n      sub\n        /* \"#utility.yul\":5927:5959   */\n      slt\n        /* \"#utility.yul\":5924:6043   */\n      iszero\n      tag_232\n      jumpi\n        /* \"#utility.yul\":5962:6041   */\n      tag_233\n      tag_132\n      jump\t// in\n    tag_233:\n        /* \"#utility.yul\":5924:6043   */\n    tag_232:\n        /* \"#utility.yul\":6082:6083   */\n      0x00\n        /* \"#utility.yul\":6107:6160   */\n      tag_234\n        /* \"#utility.yul\":6152:6159   */\n      dup6\n        /* \"#utility.yul\":6143:6149   */\n      dup3\n        /* \"#utility.yul\":6132:6141   */\n      dup7\n        /* \"#utility.yul\":6128:6150   */\n      add\n        /* \"#utility.yul\":6107:6160   */\n      tag_135\n      jump\t// in\n    tag_234:\n        /* \"#utility.yul\":6097:6160   */\n      swap3\n      pop\n        /* \"#utility.yul\":6053:6170   */\n      pop\n        /* \"#utility.yul\":6237:6239   */\n      0x20\n        /* \"#utility.yul\":6226:6235   */\n      dup4\n        /* \"#utility.yul\":6222:6240   */\n      add\n        /* \"#utility.yul\":6209:6241   */\n      calldataload\n        /* \"#utility.yul\":6268:6286   */\n      0xffffffffffffffff\n        /* \"#utility.yul\":6260:6266   */\n      dup2\n        /* \"#utility.yul\":6257:6287   */\n      gt\n        /* \"#utility.yul\":6254:6371   */\n      iszero\n      tag_235\n      jumpi\n        /* \"#utility.yul\":6290:6369   */\n      tag_236\n      tag_133\n      jump\t// in\n    tag_236:\n        /* \"#utility.yul\":6254:6371   */\n    tag_235:\n        /* \"#utility.yul\":6395:6458   */\n      tag_237\n        /* \"#utility.yul\":6450:6457   */\n      dup6\n        /* \"#utility.yul\":6441:6447   */\n      dup3\n        /* \"#utility.yul\":6430:6439   */\n      dup7\n        /* \"#utility.yul\":6426:6448   */\n      add\n        /* \"#utility.yul\":6395:6458   */\n      tag_144\n      jump\t// in\n    tag_237:\n        /* \"#utility.yul\":6385:6458   */\n      swap2\n      pop\n        /* \"#utility.yul\":6180:6468   */\n      pop\n        /* \"#utility.yul\":5821:6475   */\n      swap3\n      pop\n      swap3\n      swap1\n      pop\n      jump\t// out\n        /* \"#utility.yul\":6481:6661   */\n    tag_145:\n        /* \"#utility.yul\":6529:6606   */\n      0x4e487b7100000000000000000000000000000000000000000000000000000000\n        /* \"#utility.yul\":6526:6527   */\n      0x00\n        /* \"#utility.yul\":6519:6607   */\n      mstore\n        /* \"#utility.yul\":6626:6630   */\n      0x22\n        /* \"#utility.yul\":6623:6624   */\n      0x04\n        /* \"#utility.yul\":6616:6631   */\n      mstore\n        /* \"#utility.yul\":6650:6654   */\n      0x24\n        /* \"#utility.yul\":6647:6648   */\n      0x00\n        /* \"#utility.yul\":6640:6655   */\n      revert\n        /* \"#utility.yul\":6667:6987   */\n    tag_43:\n        /* \"#utility.yul\":6711:6717   */\n      0x00\n        /* \"#utility.yul\":6748:6749   */\n      0x02\n        /* \"#utility.yul\":6742:6746   */\n      dup3\n        /* \"#utility.yul\":6738:6750   */\n      div\n        /* \"#utility.yul\":6728:6750   */\n      swap1\n      pop\n        /* \"#utility.yul\":6795:6796   */\n      0x01\n        /* \"#utility.yul\":6789:6793   */\n      dup3\n        /* \"#utility.yul\":6785:6797   */\n      and\n        /* \"#utility.yul\":6816:6834   */\n      dup1\n        /* \"#utility.yul\":6806:6887   */\n      tag_240\n      jumpi\n        /* \"#utility.yul\":6872:6876   */\n      0x7f\n        /* \"#utility.yul\":6864:6870   */\n      dup3\n        /* \"#utility.yul\":6860:6877   */\n      and\n        /* \"#utility.yul\":6850:6877   */\n      swap2\n      pop\n        /* \"#utility.yul\":6806:6887   */\n    tag_240:\n        /* \"#utility.yul\":6934:6936   */\n      0x20\n        /* \"#utility.yul\":6926:6932   */\n      dup3\n        /* \"#utility.yul\":6923:6937   */\n      lt\n        /* \"#utility.yul\":6903:6921   */\n      dup2\n        /* \"#utility.yul\":6900:6938   */\n      sub\n        /* \"#utility.yul\":6897:6981   */\n      tag_241\n      jumpi\n        /* \"#utility.yul\":6953:6971   */\n      tag_242\n      tag_145\n      jump\t// in\n    tag_242:\n        /* \"#utility.yul\":6897:6981   */\n    tag_241:\n        /* \"#utility.yul\":6718:6987   */\n      pop\n        /* \"#utility.yul\":6667:6987   */\n      swap2\n      swap1\n      pop\n      jump\t// out\n        /* \"#utility.yul\":6993:7152   */\n    tag_146:\n        /* \"#utility.yul\":7133:7144   */\n      0x546f6f20796f756e670000000000000000000000000000000000000000000000\n        /* \"#utility.yul\":7129:7130   */\n      0x00\n        /* \"#utility.yul\":7121:7127   */\n      dup3\n        /* \"#utility.yul\":7117:7131   */\n      add\n        /* \"#utility.yul\":7110:7145   */\n      mstore\n        /* \"#utility.yul\":6993:7152   */\n      pop\n      jump\t// out\n        /* \"#utility.yul\":7158:7523   */\n    tag_147:\n        /* \"#utility.yul\":7300:7303   */\n      0x00\n        /* \"#utility.yul\":7321:7387   */\n      tag_245\n        /* \"#utility.yul\":7385:7386   */\n      0x09\n        /* \"#utility.yul\":7380:7383   */\n      dup4\n        /* \"#utility.yul\":7321:7387   */\n      tag_122\n      jump\t// in\n    tag_245:\n        /* \"#utility.yul\":7314:7387   */\n      swap2\n      pop\n        /* \"#utility.yul\":7396:7489   */\n      tag_246\n        /* \"#utility.yul\":7485:7488   */\n      dup3\n        /* \"#utility.yul\":7396:7489   */\n      tag_146\n      jump\t// in\n    tag_246:\n        /* \"#utility.yul\":7514:7516   */\n      0x20\n        /* \"#utility.yul\":7509:7512   */\n      dup3\n        /* \"#utility.yul\":7505:7517   */\n      add\n        /* \"#utility.yul\":7498:7517   */\n      swap1\n      pop\n        /* \"#utility.yul\":7158:7523   */\n      swap2\n      swap1\n      pop\n      jump\t// out\n        /* \"#utility.yul\":7529:7948   */\n    tag_51:\n        /* \"#utility.yul\":7695:7699   */\n      0x00\n        /* \"#utility.yul\":7733:7735   */\n      0x20\n        /* \"#utility.yul\":7722:7731   */\n      dup3\n        /* \"#utility.yul\":7718:7736   */\n      add\n        /* \"#utility.yul\":7710:7736   */\n      swap1\n      pop\n        /* \"#utility.yul\":7782:7791   */\n      dup2\n        /* \"#utility.yul\":7776:7780   */\n      dup2\n        /* \"#utility.yul\":7772:7792   */\n      sub\n        /* \"#utility.yul\":7768:7769   */\n      0x00\n        /* \"#utility.yul\":7757:7766   */\n      dup4\n        /* \"#utility.yul\":7753:7770   */\n      add\n        /* \"#utility.yul\":7746:7793   */\n      mstore\n        /* \"#utility.yul\":7810:7941   */\n      tag_248\n        /* \"#utility.yul\":7936:7940   */\n      dup2\n        /* \"#utility.yul\":7810:7941   */\n      tag_147\n      jump\t// in\n    tag_248:\n        /* \"#utility.yul\":7802:7941   */\n      swap1\n      pop\n        /* \"#utility.yul\":7529:7948   */\n      swap2\n      swap1\n      pop\n      jump\t// out\n        /* \"#utility.yul\":7954:8102   */\n    tag_148:\n        /* \"#utility.yul\":8056:8067   */\n      0x00\n        /* \"#utility.yul\":8093:8096   */\n      dup2\n        /* \"#utility.yul\":8078:8096   */\n      swap1\n      pop\n        /* \"#utility.yul\":7954:8102   */\n      swap3\n      swap2\n      pop\n      pop\n      jump\t// out\n        /* \"#utility.yul\":8108:8261   */\n    tag_149:\n        /* \"#utility.yul\":8248:8253   */\n      0x426f620000000000000000000000000000000000000000000000000000000000\n        /* \"#utility.yul\":8244:8245   */\n      0x00\n        /* \"#utility.yul\":8236:8242   */\n      dup3\n        /* \"#utility.yul\":8232:8246   */\n      add\n        /* \"#utility.yul\":8225:8254   */\n      mstore\n        /* \"#utility.yul\":8108:8261   */\n      pop\n      jump\t// out\n        /* \"#utility.yul\":8267:8667   */\n    tag_150:\n        /* \"#utility.yul\":8427:8430   */\n      0x00\n        /* \"#utility.yul\":8448:8532   */\n      tag_252\n        /* \"#utility.yul\":8530:8531   */\n      0x03\n        /* \"#utility.yul\":8525:8528   */\n      dup4\n        /* \"#utility.yul\":8448:8532   */\n      tag_148\n      jump\t// in\n    tag_252:\n        /* \"#utility.yul\":8441:8532   */\n      swap2\n      pop\n        /* \"#utility.yul\":8541:8634   */\n      tag_253\n        /* \"#utility.yul\":8630:8633   */\n      dup3\n        /* \"#utility.yul\":8541:8634   */\n      tag_149\n      jump\t// in\n    tag_253:\n        /* \"#utility.yul\":8659:8660   */\n      0x03\n        /* \"#utility.yul\":8654:8657   */\n      dup3\n        /* \"#utility.yul\":8650:8661   */\n      add\n        /* \"#utility.yul\":8643:8661   */\n      swap1\n      pop\n        /* \"#utility.yul\":8267:8667   */\n      swap2\n      swap1\n      pop\n      jump\t// out\n        /* \"#utility.yul\":8673:9054   */\n    tag_53:\n        /* \"#utility.yul\":8858:8861   */\n      0x00\n        /* \"#utility.yul\":8880:9028   */\n      tag_255\n        /* \"#utility.yul\":9024:9027   */\n      dup3\n        /* \"#utility.yul\":8880:9028   */\n      tag_150\n      jump\t// in\n    tag_255:\n        /* \"#utility.yul\":8873:9028   */\n      swap2\n      pop\n        /* \"#utility.yul\":9045:9048   */\n      dup2\n        /* \"#utility.yul\":9038:9048   */\n      swap1\n      pop\n        /* \"#utility.yul\":8673:9054   */\n      swap2\n      swap1\n      pop\n      jump\t// out\n        /* \"#utility.yul\":9060:9450   */\n    tag_151:\n        /* \"#utility.yul\":9166:9169   */\n      0x00\n        /* \"#utility.yul\":9194:9233   */\n      tag_257\n        /* \"#utility.yul\":9227:9232   */\n      dup3\n        /* \"#utility.yul\":9194:9233   */\n      tag_121\n      jump\t// in\n    tag_257:\n        /* \"#utility.yul\":9249:9338   */\n      tag_258\n        /* \"#utility.yul\":9331:9337   */\n      dup2\n        /* \"#utility.yul\":9326:9329   */\n      dup6\n        /* \"#utility.yul\":9249:9338   */\n      tag_148\n      jump\t// in\n    tag_258:\n        /* \"#utility.yul\":9242:9338   */\n      swap4\n      pop\n        /* \"#utility.yul\":9347:9412   */\n      tag_259\n        /* \"#utility.yul\":9405:9411   */\n      dup2\n        /* \"#utility.yul\":9400:9403   */\n      dup6\n        /* \"#utility.yul\":9393:9397   */\n      0x20\n        /* \"#utility.yul\":9386:9391   */\n      dup7\n        /* \"#utility.yul\":9382:9398   */\n      add\n        /* \"#utility.yul\":9347:9412   */\n      tag_123\n      jump\t// in\n    tag_259:\n        /* \"#utility.yul\":9437:9443   */\n      dup1\n        /* \"#utility.yul\":9432:9435   */\n      dup5\n        /* \"#utility.yul\":9428:9444   */\n      add\n        /* \"#utility.yul\":9421:9444   */\n      swap2\n      pop\n        /* \"#utility.yul\":9170:9450   */\n      pop\n        /* \"#utility.yul\":9060:9450   */\n      swap3\n      swap2\n      pop\n      pop\n      jump\t// out\n        /* \"#utility.yul\":9456:9731   */\n    tag_55:\n        /* \"#utility.yul\":9588:9591   */\n      0x00\n        /* \"#utility.yul\":9610:9705   */\n      tag_261\n        /* \"#utility.yul\":9701:9704   */\n      dup3\n        /* \"#utility.yul\":9692:9698   */\n      dup5\n        /* \"#utility.yul\":9610:9705   */\n      tag_151\n      jump\t// in\n    tag_261:\n        /* \"#utility.yul\":9603:9705   */\n      swap2\n      pop\n        /* \"#utility.yul\":9722:9725   */\n      dup2\n        /* \"#utility.yul\":9715:9725   */\n      swap1\n      pop\n        /* \"#utility.yul\":9456:9731   */\n      swap3\n      swap2\n      pop\n      pop\n      jump\t// out\n        /* \"#utility.yul\":9737:9957   */\n    tag_152:\n        /* \"#utility.yul\":9877:9911   */\n      0x426f62206973206372696d696e616c2e205368652063616e2774206275792069\n        /* \"#utility.yul\":9873:9874   */\n      0x00\n        /* \"#utility.yul\":9865:9871   */\n      dup3\n        /* \"#utility.yul\":9861:9875   */\n      add\n        /* \"#utility.yul\":9854:9912   */\n      mstore\n        /* \"#utility.yul\":9946:9949   */\n      0x7400000000000000000000000000000000000000000000000000000000000000\n        /* \"#utility.yul\":9941:9943   */\n      0x20\n        /* \"#utility.yul\":9933:9939   */\n      dup3\n        /* \"#utility.yul\":9929:9944   */\n      add\n        /* \"#utility.yul\":9922:9950   */\n      mstore\n        /* \"#utility.yul\":9737:9957   */\n      pop\n      jump\t// out\n        /* \"#utility.yul\":9963:10329   */\n    tag_153:\n        /* \"#utility.yul\":10105:10108   */\n      0x00\n        /* \"#utility.yul\":10126:10193   */\n      tag_264\n        /* \"#utility.yul\":10190:10192   */\n      0x21\n        /* \"#utility.yul\":10185:10188   */\n      dup4\n        /* \"#utility.yul\":10126:10193   */\n      tag_122\n      jump\t// in\n    tag_264:\n        /* \"#utility.yul\":10119:10193   */\n      swap2\n      pop\n        /* \"#utility.yul\":10202:10295   */\n      tag_265\n        /* \"#utility.yul\":10291:10294   */\n      dup3\n        /* \"#utility.yul\":10202:10295   */\n      tag_152\n      jump\t// in\n    tag_265:\n        /* \"#utility.yul\":10320:10322   */\n      0x40\n        /* \"#utility.yul\":10315:10318   */\n      dup3\n        /* \"#utility.yul\":10311:10323   */\n      add\n        /* \"#utility.yul\":10304:10323   */\n      swap1\n      pop\n        /* \"#utility.yul\":9963:10329   */\n      swap2\n      swap1\n      pop\n      jump\t// out\n        /* \"#utility.yul\":10335:10754   */\n    tag_58:\n        /* \"#utility.yul\":10501:10505   */\n      0x00\n        /* \"#utility.yul\":10539:10541   */\n      0x20\n        /* \"#utility.yul\":10528:10537   */\n      dup3\n        /* \"#utility.yul\":10524:10542   */\n      add\n        /* \"#utility.yul\":10516:10542   */\n      swap1\n      pop\n        /* \"#utility.yul\":10588:10597   */\n      dup2\n        /* \"#utility.yul\":10582:10586   */\n      dup2\n        /* \"#utility.yul\":10578:10598   */\n      sub\n        /* \"#utility.yul\":10574:10575   */\n      0x00\n        /* \"#utility.yul\":10563:10572   */\n      dup4\n        /* \"#utility.yul\":10559:10576   */\n      add\n        /* \"#utility.yul\":10552:10599   */\n      mstore\n        /* \"#utility.yul\":10616:10747   */\n      tag_267\n        /* \"#utility.yul\":10742:10746   */\n      dup2\n        /* \"#utility.yul\":10616:10747   */\n      tag_153\n      jump\t// in\n    tag_267:\n        /* \"#utility.yul\":10608:10747   */\n      swap1\n      pop\n        /* \"#utility.yul\":10335:10754   */\n      swap2\n      swap1\n      pop\n      jump\t// out\n        /* \"#utility.yul\":10760:10901   */\n    tag_154:\n        /* \"#utility.yul\":10809:10813   */\n      0x00\n        /* \"#utility.yul\":10832:10835   */\n      dup2\n        /* \"#utility.yul\":10824:10835   */\n      swap1\n      pop\n        /* \"#utility.yul\":10855:10858   */\n      dup2\n        /* \"#utility.yul\":10852:10853   */\n      0x00\n        /* \"#utility.yul\":10845:10859   */\n      mstore\n        /* \"#utility.yul\":10889:10893   */\n      0x20\n        /* \"#utility.yul\":10886:10887   */\n      0x00\n        /* \"#utility.yul\":10876:10894   */\n      keccak256\n        /* \"#utility.yul\":10868:10894   */\n      swap1\n      pop\n        /* \"#utility.yul\":10760:10901   */\n      swap2\n      swap1\n      pop\n      jump\t// out\n        /* \"#utility.yul\":10907:11000   */\n    tag_155:\n        /* \"#utility.yul\":10944:10950   */\n      0x00\n        /* \"#utility.yul\":10991:10993   */\n      0x20\n        /* \"#utility.yul\":10986:10988   */\n      0x1f\n        /* \"#utility.yul\":10979:10984   */\n      dup4\n        /* \"#utility.yul\":10975:10989   */\n      add\n        /* \"#utility.yul\":10971:10994   */\n      div\n        /* \"#utility.yul\":10961:10994   */\n      swap1\n      pop\n        /* \"#utility.yul\":10907:11000   */\n      swap2\n      swap1\n      pop\n      jump\t// out\n        /* \"#utility.yul\":11006:11113   */\n    tag_156:\n        /* \"#utility.yul\":11050:11058   */\n      0x00\n        /* \"#utility.yul\":11100:11105   */\n      dup3\n        /* \"#utility.yul\":11094:11098   */\n      dup3\n        /* \"#utility.yul\":11090:11106   */\n      shl\n        /* \"#utility.yul\":11069:11106   */\n      swap1\n      pop\n        /* \"#utility.yul\":11006:11113   */\n      swap3\n      swap2\n      pop\n      pop\n      jump\t// out\n        /* \"#utility.yul\":11119:11512   */\n    tag_157:\n        /* \"#utility.yul\":11188:11194   */\n      0x00\n        /* \"#utility.yul\":11238:11239   */\n      0x08\n        /* \"#utility.yul\":11226:11236   */\n      dup4\n        /* \"#utility.yul\":11222:11240   */\n      mul\n        /* \"#utility.yul\":11261:11358   */\n      tag_272\n        /* \"#utility.yul\":11291:11357   */\n      0xffffffffffffffffffffffffffffffffffffffffffffffffffffffffffffffff\n        /* \"#utility.yul\":11280:11289   */\n      dup3\n        /* \"#utility.yul\":11261:11358   */\n      tag_156\n      jump\t// in\n    tag_272:\n        /* \"#utility.yul\":11379:11418   */\n      tag_273\n        /* \"#utility.yul\":11409:11417   */\n      dup7\n        /* \"#utility.yul\":11398:11407   */\n      dup4\n        /* \"#utility.yul\":11379:11418   */\n      tag_156\n      jump\t// in\n    tag_273:\n        /* \"#utility.yul\":11367:11418   */\n      swap6\n      pop\n        /* \"#utility.yul\":11451:11455   */\n      dup1\n        /* \"#utility.yul\":11447:11456   */\n      not\n        /* \"#utility.yul\":11440:11445   */\n      dup5\n        /* \"#utility.yul\":11436:11457   */\n      and\n        /* \"#utility.yul\":11427:11457   */\n      swap4\n      pop\n        /* \"#utility.yul\":11500:11504   */\n      dup1\n        /* \"#utility.yul\":11490:11498   */\n      dup7\n        /* \"#utility.yul\":11486:11505   */\n      and\n        /* \"#utility.yul\":11479:11484   */\n      dup5\n        /* \"#utility.yul\":11476:11506   */\n      or\n        /* \"#utility.yul\":11466:11506   */\n      swap3\n      pop\n        /* \"#utility.yul\":11195:11512   */\n      pop\n      pop\n        /* \"#utility.yul\":11119:11512   */\n      swap4\n      swap3\n      pop\n      pop\n      pop\n      jump\t// out\n        /* \"#utility.yul\":11518:11578   */\n    tag_158:\n        /* \"#utility.yul\":11546:11549   */\n      0x00\n        /* \"#utility.yul\":11567:11572   */\n      dup2\n        /* \"#utility.yul\":11560:11572   */\n      swap1\n      pop\n        /* \"#utility.yul\":11518:11578   */\n      swap2\n      swap1\n      pop\n      jump\t// out\n        /* \"#utility.yul\":11584:11726   */\n    tag_159:\n        /* \"#utility.yul\":11634:11643   */\n      0x00\n        /* \"#utility.yul\":11667:11720   */\n      tag_276\n        /* \"#utility.yul\":11685:11719   */\n      tag_277\n        /* \"#utility.yul\":11694:11718   */\n      tag_278\n        /* \"#utility.yul\":11712:11717   */\n      dup5\n        /* \"#utility.yul\":11694:11718   */\n      tag_126\n      jump\t// in\n    tag_278:\n        /* \"#utility.yul\":11685:11719   */\n      tag_158\n      jump\t// in\n    tag_277:\n        /* \"#utility.yul\":11667:11720   */\n      tag_126\n      jump\t// in\n    tag_276:\n        /* \"#utility.yul\":11654:11720   */\n      swap1\n      pop\n        /* \"#utility.yul\":11584:11726   */\n      swap2\n      swap1\n      pop\n      jump\t// out\n        /* \"#utility.yul\":11732:11807   */\n    tag_160:\n        /* \"#utility.yul\":11775:11778   */\n      0x00\n        /* \"#utility.yul\":11796:11801   */\n      dup2\n        /* \"#utility.yul\":11789:11801   */\n      swap1\n      pop\n        /* \"#utility.yul\":11732:11807   */\n      swap2\n      swap1\n      pop\n      jump\t// out\n        /* \"#utility.yul\":11813:12082   */\n    tag_161:\n        /* \"#utility.yul\":11923:11962   */\n      tag_281\n        /* \"#utility.yul\":11954:11961   */\n      dup4\n        /* \"#utility.yul\":11923:11962   */\n      tag_159\n      jump\t// in\n    tag_281:\n        /* \"#utility.yul\":11984:12075   */\n      tag_282\n        /* \"#utility.yul\":12033:12074   */\n      tag_283\n        /* \"#utility.yul\":12057:12073   */\n      dup3\n        /* \"#utility.yul\":12033:12074   */\n      tag_160\n      jump\t// in\n    tag_283:\n        /* \"#utility.yul\":12025:12031   */\n      dup5\n        /* \"#utility.yul\":12018:12022   */\n      dup5\n        /* \"#utility.yul\":12012:12023   */\n      sload\n        /* \"#utility.yul\":11984:12075   */\n      tag_157\n      jump\t// in\n    tag_282:\n        /* \"#utility.yul\":11978:11982   */\n      dup3\n        /* \"#utility.yul\":11971:12076   */\n      sstore\n        /* \"#utility.yul\":11889:12082   */\n      pop\n        /* \"#utility.yul\":11813:12082   */\n      pop\n      pop\n      pop\n      jump\t// out\n        /* \"#utility.yul\":12088:12161   */\n    tag_162:\n        /* \"#utility.yul\":12133:12136   */\n      0x00\n        /* \"#utility.yul\":12088:12161   */\n      swap1\n      jump\t// out\n        /* \"#utility.yul\":12167:12356   */\n    tag_163:\n        /* \"#utility.yul\":12244:12276   */\n      tag_286\n      tag_162\n      jump\t// in\n    tag_286:\n        /* \"#utility.yul\":12285:12350   */\n      tag_287\n        /* \"#utility.yul\":12343:12349   */\n      dup2\n        /* \"#utility.yul\":12335:12341   */\n      dup5\n        /* \"#utility.yul\":12329:12333   */\n      dup5\n        /* \"#utility.yul\":12285:12350   */\n      tag_161\n      jump\t// in\n    tag_287:\n        /* \"#utility.yul\":12220:12356   */\n      pop\n        /* \"#utility.yul\":12167:12356   */\n      pop\n      pop\n      jump\t// out\n        /* \"#utility.yul\":12362:12548   */\n    tag_164:\n        /* \"#utility.yul\":12422:12542   */\n    tag_289:\n        /* \"#utility.yul\":12439:12442   */\n      dup2\n        /* \"#utility.yul\":12432:12437   */\n      dup2\n        /* \"#utility.yul\":12429:12443   */\n      lt\n        /* \"#utility.yul\":12422:12542   */\n      iszero\n      tag_291\n      jumpi\n        /* \"#utility.yul\":12493:12532   */\n      tag_292\n        /* \"#utility.yul\":12530:12531   */\n      0x00\n        /* \"#utility.yul\":12523:12528   */\n      dup3\n        /* \"#utility.yul\":12493:12532   */\n      tag_163\n      jump\t// in\n    tag_292:\n        /* \"#utility.yul\":12466:12467   */\n      0x01\n        /* \"#utility.yul\":12459:12464   */\n      dup2\n        /* \"#utility.yul\":12455:12468   */\n      add\n        /* \"#utility.yul\":12446:12468   */\n      swap1\n      pop\n        /* \"#utility.yul\":12422:12542   */\n      jump(tag_289)\n    tag_291:\n        /* \"#utility.yul\":12362:12548   */\n      pop\n      pop\n      jump\t// out\n        /* \"#utility.yul\":12554:13097   */\n    tag_165:\n        /* \"#utility.yul\":12655:12657   */\n      0x1f\n        /* \"#utility.yul\":12650:12653   */\n      dup3\n        /* \"#utility.yul\":12647:12658   */\n      gt\n        /* \"#utility.yul\":12644:13090   */\n      iszero\n      tag_294\n      jumpi\n        /* \"#utility.yul\":12689:12727   */\n      tag_295\n        /* \"#utility.yul\":12721:12726   */\n      dup2\n        /* \"#utility.yul\":12689:12727   */\n      tag_154\n      jump\t// in\n    tag_295:\n        /* \"#utility.yul\":12773:12802   */\n      tag_296\n        /* \"#utility.yul\":12791:12801   */\n      dup5\n        /* \"#utility.yul\":12773:12802   */\n      tag_155\n      jump\t// in\n    tag_296:\n        /* \"#utility.yul\":12763:12771   */\n      dup2\n        /* \"#utility.yul\":12759:12803   */\n      add\n        /* \"#utility.yul\":12956:12958   */\n      0x20\n        /* \"#utility.yul\":12944:12954   */\n      dup6\n        /* \"#utility.yul\":12941:12959   */\n      lt\n        /* \"#utility.yul\":12938:12987   */\n      iszero\n      tag_297\n      jumpi\n        /* \"#utility.yul\":12977:12985   */\n      dup2\n        /* \"#utility.yul\":12962:12985   */\n      swap1\n      pop\n        /* \"#utility.yul\":12938:12987   */\n    tag_297:\n        /* \"#utility.yul\":13000:13080   */\n      tag_298\n        /* \"#utility.yul\":13056:13078   */\n      tag_299\n        /* \"#utility.yul\":13074:13077   */\n      dup6\n        /* \"#utility.yul\":13056:13078   */\n      tag_155\n      jump\t// in\n    tag_299:\n        /* \"#utility.yul\":13046:13054   */\n      dup4\n        /* \"#utility.yul\":13042:13079   */\n      add\n        /* \"#utility.yul\":13029:13040   */\n      dup3\n        /* \"#utility.yul\":13000:13080   */\n      tag_164\n      jump\t// in\n    tag_298:\n        /* \"#utility.yul\":12659:13090   */\n      pop\n      pop\n        /* \"#utility.yul\":12644:13090   */\n    tag_294:\n        /* \"#utility.yul\":12554:13097   */\n      pop\n      pop\n      pop\n      jump\t// out\n        /* \"#utility.yul\":13103:13220   */\n    tag_166:\n        /* \"#utility.yul\":13157:13165   */\n      0x00\n        /* \"#utility.yul\":13207:13212   */\n      dup3\n        /* \"#utility.yul\":13201:13205   */\n      dup3\n        /* \"#utility.yul\":13197:13213   */\n      shr\n        /* \"#utility.yul\":13176:13213   */\n      swap1\n      pop\n        /* \"#utility.yul\":13103:13220   */\n      swap3\n      swap2\n      pop\n      pop\n      jump\t// out\n        /* \"#utility.yul\":13226:13395   */\n    tag_167:\n        /* \"#utility.yul\":13270:13276   */\n      0x00\n        /* \"#utility.yul\":13303:13354   */\n      tag_302\n        /* \"#utility.yul\":13351:13352   */\n      0x00\n        /* \"#utility.yul\":13347:13353   */\n      not\n        /* \"#utility.yul\":13339:13344   */\n      dup5\n        /* \"#utility.yul\":13336:13337   */\n      0x08\n        /* \"#utility.yul\":13332:13345   */\n      mul\n        /* \"#utility.yul\":13303:13354   */\n      tag_166\n      jump\t// in\n    tag_302:\n        /* \"#utility.yul\":13299:13355   */\n      not\n        /* \"#utility.yul\":13384:13388   */\n      dup1\n        /* \"#utility.yul\":13378:13382   */\n      dup4\n        /* \"#utility.yul\":13374:13389   */\n      and\n        /* \"#utility.yul\":13364:13389   */\n      swap2\n      pop\n        /* \"#utility.yul\":13277:13395   */\n      pop\n        /* \"#utility.yul\":13226:13395   */\n      swap3\n      swap2\n      pop\n      pop\n      jump\t// out\n        /* \"#utility.yul\":13400:13695   */\n    tag_168:\n        /* \"#utility.yul\":13476:13480   */\n      0x00\n        /* \"#utility.yul\":13622:13651   */\n      tag_304\n        /* \"#utility.yul\":13647:13650   */\n      dup4\n        /* \"#utility.yul\":13641:13645   */\n      dup4\n        /* \"#utility.yul\":13622:13651   */\n      tag_167\n      jump\t// in\n    tag_304:\n        /* \"#utility.yul\":13614:13651   */\n      swap2\n      pop\n        /* \"#utility.yul\":13684:13687   */\n      dup3\n        /* \"#utility.yul\":13681:13682   */\n      0x02\n        /* \"#utility.yul\":13677:13688   */\n      mul\n        /* \"#utility.yul\":13671:13675   */\n      dup3\n        /* \"#utility.yul\":13668:13689   */\n      or\n        /* \"#utility.yul\":13660:13689   */\n      swap1\n      pop\n        /* \"#utility.yul\":13400:13695   */\n      swap3\n      swap2\n      pop\n      pop\n      jump\t// out\n        /* \"#utility.yul\":13700:15095   */\n    tag_112:\n        /* \"#utility.yul\":13817:13854   */\n      tag_306\n        /* \"#utility.yul\":13850:13853   */\n      dup3\n        /* \"#utility.yul\":13817:13854   */\n      tag_121\n      jump\t// in\n    tag_306:\n        /* \"#utility.yul\":13919:13937   */\n      0xffffffffffffffff\n        /* \"#utility.yul\":13911:13917   */\n      dup2\n        /* \"#utility.yul\":13908:13938   */\n      gt\n        /* \"#utility.yul\":13905:13961   */\n      iszero\n      tag_307\n      jumpi\n        /* \"#utility.yul\":13941:13959   */\n      tag_308\n      tag_138\n      jump\t// in\n    tag_308:\n        /* \"#utility.yul\":13905:13961   */\n    tag_307:\n        /* \"#utility.yul\":13985:14023   */\n      tag_309\n        /* \"#utility.yul\":14017:14021   */\n      dup3\n        /* \"#utility.yul\":14011:14022   */\n      sload\n        /* \"#utility.yul\":13985:14023   */\n      tag_43\n      jump\t// in\n    tag_309:\n        /* \"#utility.yul\":14070:14137   */\n      tag_310\n        /* \"#utility.yul\":14130:14136   */\n      dup3\n        /* \"#utility.yul\":14122:14128   */\n      dup3\n        /* \"#utility.yul\":14116:14120   */\n      dup6\n        /* \"#utility.yul\":14070:14137   */\n      tag_165\n      jump\t// in\n    tag_310:\n        /* \"#utility.yul\":14164:14165   */\n      0x00\n        /* \"#utility.yul\":14188:14192   */\n      0x20\n        /* \"#utility.yul\":14175:14192   */\n      swap1\n      pop\n        /* \"#utility.yul\":14220:14222   */\n      0x1f\n        /* \"#utility.yul\":14212:14218   */\n      dup4\n        /* \"#utility.yul\":14209:14223   */\n      gt\n        /* \"#utility.yul\":14237:14238   */\n      0x01\n        /* \"#utility.yul\":14232:14850   */\n      dup2\n      eq\n      tag_312\n      jumpi\n        /* \"#utility.yul\":14894:14895   */\n      0x00\n        /* \"#utility.yul\":14911:14917   */\n      dup5\n        /* \"#utility.yul\":14908:14985   */\n      iszero\n      tag_313\n      jumpi\n        /* \"#utility.yul\":14960:14969   */\n      dup3\n        /* \"#utility.yul\":14955:14958   */\n      dup8\n        /* \"#utility.yul\":14951:14970   */\n      add\n        /* \"#utility.yul\":14945:14971   */\n      mload\n        /* \"#utility.yul\":14936:14971   */\n      swap1\n      pop\n        /* \"#utility.yul\":14908:14985   */\n    tag_313:\n        /* \"#utility.yul\":15011:15078   */\n      tag_314\n        /* \"#utility.yul\":15071:15077   */\n      dup6\n        /* \"#utility.yul\":15064:15069   */\n      dup3\n        /* \"#utility.yul\":15011:15078   */\n      tag_168\n      jump\t// in\n    tag_314:\n        /* \"#utility.yul\":15005:15009   */\n      dup7\n        /* \"#utility.yul\":14998:15079   */\n      sstore\n        /* \"#utility.yul\":14867:15089   */\n      pop\n        /* \"#utility.yul\":14202:15089   */\n      jump(tag_311)\n        /* \"#utility.yul\":14232:14850   */\n    tag_312:\n        /* \"#utility.yul\":14284:14288   */\n      0x1f\n        /* \"#utility.yul\":14280:14289   */\n      not\n        /* \"#utility.yul\":14272:14278   */\n      dup5\n        /* \"#utility.yul\":14268:14290   */\n      and\n        /* \"#utility.yul\":14318:14355   */\n      tag_315\n        /* \"#utility.yul\":14350:14354   */\n      dup7\n        /* \"#utility.yul\":14318:14355   */\n      tag_154\n      jump\t// in\n    tag_315:\n        /* \"#utility.yul\":14377:14378   */\n      0x00\n        /* \"#utility.yul\":14391:14599   */\n    tag_316:\n        /* \"#utility.yul\":14405:14412   */\n      dup3\n        /* \"#utility.yul\":14402:14403   */\n      dup2\n        /* \"#utility.yul\":14399:14413   */\n      lt\n        /* \"#utility.yul\":14391:14599   */\n      iszero\n      tag_318\n      jumpi\n        /* \"#utility.yul\":14484:14493   */\n      dup5\n        /* \"#utility.yul\":14479:14482   */\n      dup10\n        /* \"#utility.yul\":14475:14494   */\n      add\n        /* \"#utility.yul\":14469:14495   */\n      mload\n        /* \"#utility.yul\":14461:14467   */\n      dup3\n        /* \"#utility.yul\":14454:14496   */\n      sstore\n        /* \"#utility.yul\":14535:14536   */\n      0x01\n        /* \"#utility.yul\":14527:14533   */\n      dup3\n        /* \"#utility.yul\":14523:14537   */\n      add\n        /* \"#utility.yul\":14513:14537   */\n      swap2\n      pop\n        /* \"#utility.yul\":14582:14584   */\n      0x20\n        /* \"#utility.yul\":14571:14580   */\n      dup6\n        /* \"#utility.yul\":14567:14585   */\n      add\n        /* \"#utility.yul\":14554:14585   */\n      swap5\n      pop\n        /* \"#utility.yul\":14428:14432   */\n      0x20\n        /* \"#utility.yul\":14425:14426   */\n      dup2\n        /* \"#utility.yul\":14421:14433   */\n      add\n        /* \"#utility.yul\":14416:14433   */\n      swap1\n      pop\n        /* \"#utility.yul\":14391:14599   */\n      jump(tag_316)\n    tag_318:\n        /* \"#utility.yul\":14627:14633   */\n      dup7\n        /* \"#utility.yul\":14618:14625   */\n      dup4\n        /* \"#utility.yul\":14615:14634   */\n      lt\n        /* \"#utility.yul\":14612:14791   */\n      iszero\n      tag_319\n      jumpi\n        /* \"#utility.yul\":14685:14694   */\n      dup5\n        /* \"#utility.yul\":14680:14683   */\n      dup10\n        /* \"#utility.yul\":14676:14695   */\n      add\n        /* \"#utility.yul\":14670:14696   */\n      mload\n        /* \"#utility.yul\":14728:14776   */\n      tag_320\n        /* \"#utility.yul\":14770:14774   */\n      0x1f\n        /* \"#utility.yul\":14762:14768   */\n      dup10\n        /* \"#utility.yul\":14758:14775   */\n      and\n        /* \"#utility.yul\":14747:14756   */\n      dup3\n        /* \"#utility.yul\":14728:14776   */\n      tag_167\n      jump\t// in\n    tag_320:\n        /* \"#utility.yul\":14720:14726   */\n      dup4\n        /* \"#utility.yul\":14713:14777   */\n      sstore\n        /* \"#utility.yul\":14635:14791   */\n      pop\n        /* \"#utility.yul\":14612:14791   */\n    tag_319:\n        /* \"#utility.yul\":14837:14838   */\n      0x01\n        /* \"#utility.yul\":14833:14834   */\n      0x02\n        /* \"#utility.yul\":14825:14831   */\n      dup9\n        /* \"#utility.yul\":14821:14835   */\n      mul\n        /* \"#utility.yul\":14817:14839   */\n      add\n        /* \"#utility.yul\":14811:14815   */\n      dup9\n        /* \"#utility.yul\":14804:14840   */\n      sstore\n        /* \"#utility.yul\":14239:14850   */\n      pop\n      pop\n      pop\n        /* \"#utility.yul\":14202:15089   */\n    tag_311:\n      pop\n        /* \"#utility.yul\":13792:15095   */\n      pop\n      pop\n      pop\n        /* \"#utility.yul\":13700:15095   */\n      pop\n      pop\n      jump\t// out\n\n    auxdata: 0xa264697066735822122006bf42c8d6d4bc81aa4529414794548738d2bfc92cb2a6d570f7b0b81a829b0c64736f6c63430008120033\n}\n",
				"bytecode": {
					"linkReferences": {},
					"object": "608060405234801561001057600080fd5b506112e5806100206000396000f3fe608060405234801561001057600080fd5b50600436106100885760003560e01c806392a716121161005b57806392a716121461010557806399211d2514610135578063b5725fec14610165578063e6a8d8691461018157610088565b80630c4c67b21461008d5780631dee29d7146100ab5780633d0801cc146100c95780635fa96654146100e7575b600080fd5b6100956101b1565b6040516100a29190610b6a565b60405180910390f35b6100b3610352565b6040516100c09190610b6a565b60405180910390f35b6100d16104f3565b6040516100de9190610b6a565b60405180910390f35b6100ef610694565b6040516100fc9190610c2c565b60405180910390f35b61011f600480360381019061011a9190610dc3565b61074a565b60405161012c9190610b6a565b60405180910390f35b61014f600480360381019061014a9190610dc3565b61085d565b60405161015c9190610b6a565b60405180910390f35b61017f600480360381019061017a9190610dc3565b610970565b005b61019b60048036038101906101969190610dc3565b6109ad565b6040516101a89190610b6a565b60405180910390f35b60606000800154600060010180546101c890610e4e565b80601f01602080910402602001604051908101604052809291908181526020018280546101f490610e4e565b80156102415780601f1061021657610100808354040283529160200191610241565b820191906000526020600020905b81548152906001019060200180831161022457829003601f168201915b505050505060148211610289576040517f08c379a000000000000000000000000000000000000000000000000000000000815260040161028090610ecb565b60405180910390fd5b60405160200161029890610f42565b60405160208183030381529060405280519060200120816040516020016102bf9190610f88565b6040516020818303038152906040528051906020012014610315576040517f08c379a000000000000000000000000000000000000000000000000000000000815260040161030c90611011565b60405180910390fd5b6040518060400160405280600681526020017f50617373656400000000000000000000000000000000000000000000000000008152509250505090565b606060008001546000600101805461036990610e4e565b80601f016020809104026020016040519081016040528092919081815260200182805461039590610e4e565b80156103e25780601f106103b7576101008083540402835291602001916103e2565b820191906000526020600020905b8154815290600101906020018083116103c557829003601f168201915b50505050506014821161042a576040517f08c379a000000000000000000000000000000000000000000000000000000000815260040161042190610ecb565b60405180910390fd5b60405160200161043990610f42565b60405160208183030381529060405280519060200120816040516020016104609190610f88565b60405160208183030381529060405280519060200120146104b6576040517f08c379a00000000000000000000000000000000000000000000000000000000081526004016104ad90611011565b60405180910390fd5b6040518060400160405280600681526020017f50617373656400000000000000000000000000000000000000000000000000008152509250505090565b606060008001546000600101805461050a90610e4e565b80601f016020809104026020016040519081016040528092919081815260200182805461053690610e4e565b80156105835780601f1061055857610100808354040283529160200191610583565b820191906000526020600020905b81548152906001019060200180831161056657829003601f168201915b5050505050601482116105cb576040517f08c379a00000000000000000000000000000000000000000000000000000000081526004016105c290610ecb565b60405180910390fd5b6040516020016105da90610f42565b60405160208183030381529060405280519060200120816040516020016106019190610f88565b6040516020818303038152906040528051906020012014610657576040517f08c379a000000000000000000000000000000000000000000000000000000000815260040161064e90611011565b60405180910390fd5b6040518060400160405280600681526020017f50617373656400000000000000000000000000000000000000000000000000008152509250505090565b61069c610ac0565b6000604051806040016040529081600082015481526020016001820180546106c390610e4e565b80601f01602080910402602001604051908101604052809291908181526020018280546106ef90610e4e565b801561073c5780601f106107115761010080835404028352916020019161073c565b820191906000526020600020905b81548152906001019060200180831161071f57829003601f168201915b505050505081525050905090565b6060828260148211610791576040517f08c379a000000000000000000000000000000000000000000000000000000000815260040161078890610ecb565b60405180910390fd5b6040516020016107a090610f42565b60405160208183030381529060405280519060200120816040516020016107c79190610f88565b604051602081830303815290604052805190602001201461081d576040517f08c379a000000000000000000000000000000000000000000000000000000000815260040161081490611011565b60405180910390fd5b6040518060400160405280600681526020017f50617373656400000000000000000000000000000000000000000000000000008152509250505092915050565b60608282601482116108a4576040517f08c379a000000000000000000000000000000000000000000000000000000000815260040161089b90610ecb565b60405180910390fd5b6040516020016108b390610f42565b60405160208183030381529060405280519060200120816040516020016108da9190610f88565b6040516020818303038152906040528051906020012014610930576040517f08c379a000000000000000000000000000000000000000000000000000000000815260040161092790611011565b60405180910390fd5b6040518060400160405280600681526020017f50617373656400000000000000000000000000000000000000000000000000008152509250505092915050565b604051806040016040528083815260200182815250600080820151816000015560208201518160010190816109a591906111dd565b509050505050565b60608282601482116109f4576040517f08c379a00000000000000000000000000000000000000000000000000000000081526004016109eb90610ecb565b60405180910390fd5b604051602001610a0390610f42565b6040516020818303038152906040528051906020012081604051602001610a2a9190610f88565b6040516020818303038152906040528051906020012014610a80576040517f08c379a0000000000000000000000000000000000000000000000000000000008152600401610a7790611011565b60405180910390fd5b6040518060400160405280600681526020017f50617373656400000000000000000000000000000000000000000000000000008152509250505092915050565b604051806040016040528060008152602001606081525090565b600081519050919050565b600082825260208201905092915050565b60005b83811015610b14578082015181840152602081019050610af9565b60008484015250505050565b6000601f19601f8301169050919050565b6000610b3c82610ada565b610b468185610ae5565b9350610b56818560208601610af6565b610b5f81610b20565b840191505092915050565b60006020820190508181036000830152610b848184610b31565b905092915050565b6000819050919050565b610b9f81610b8c565b82525050565b600082825260208201905092915050565b6000610bc182610ada565b610bcb8185610ba5565b9350610bdb818560208601610af6565b610be481610b20565b840191505092915050565b6000604083016000830151610c076000860182610b96565b5060208301518482036020860152610c1f8282610bb6565b9150508091505092915050565b60006020820190508181036000830152610c468184610bef565b905092915050565b6000604051905090565b600080fd5b600080fd5b610c6b81610b8c565b8114610c7657600080fd5b50565b600081359050610c8881610c62565b92915050565b600080fd5b600080fd5b7f4e487b7100000000000000000000000000000000000000000000000000000000600052604160045260246000fd5b610cd082610b20565b810181811067ffffffffffffffff82111715610cef57610cee610c98565b5b80604052505050565b6000610d02610c4e565b9050610d0e8282610cc7565b919050565b600067ffffffffffffffff821115610d2e57610d2d610c98565b5b610d3782610b20565b9050602081019050919050565b82818337600083830152505050565b6000610d66610d6184610d13565b610cf8565b905082815260208101848484011115610d8257610d81610c93565b5b610d8d848285610d44565b509392505050565b600082601f830112610daa57610da9610c8e565b5b8135610dba848260208601610d53565b91505092915050565b60008060408385031215610dda57610dd9610c58565b5b6000610de885828601610c79565b925050602083013567ffffffffffffffff811115610e0957610e08610c5d565b5b610e1585828601610d95565b9150509250929050565b7f4e487b7100000000000000000000000000000000000000000000000000000000600052602260045260246000fd5b60006002820490506001821680610e6657607f821691505b602082108103610e7957610e78610e1f565b5b50919050565b7f546f6f20796f756e670000000000000000000000000000000000000000000000600082015250565b6000610eb5600983610ae5565b9150610ec082610e7f565b602082019050919050565b60006020820190508181036000830152610ee481610ea8565b9050919050565b600081905092915050565b7f426f620000000000000000000000000000000000000000000000000000000000600082015250565b6000610f2c600383610eeb565b9150610f3782610ef6565b600382019050919050565b6000610f4d82610f1f565b9150819050919050565b6000610f6282610ada565b610f6c8185610eeb565b9350610f7c818560208601610af6565b80840191505092915050565b6000610f948284610f57565b915081905092915050565b7f426f62206973206372696d696e616c2e205368652063616e277420627579206960008201527f7400000000000000000000000000000000000000000000000000000000000000602082015250565b6000610ffb602183610ae5565b915061100682610f9f565b604082019050919050565b6000602082019050818103600083015261102a81610fee565b9050919050565b60008190508160005260206000209050919050565b60006020601f8301049050919050565b600082821b905092915050565b6000600883026110937fffffffffffffffffffffffffffffffffffffffffffffffffffffffffffffffff82611056565b61109d8683611056565b95508019841693508086168417925050509392505050565b6000819050919050565b60006110da6110d56110d084610b8c565b6110b5565b610b8c565b9050919050565b6000819050919050565b6110f4836110bf565b611108611100826110e1565b848454611063565b825550505050565b600090565b61111d611110565b6111288184846110eb565b505050565b5b8181101561114c57611141600082611115565b60018101905061112e565b5050565b601f8211156111915761116281611031565b61116b84611046565b8101602085101561117a578190505b61118e61118685611046565b83018261112d565b50505b505050565b600082821c905092915050565b60006111b460001984600802611196565b1980831691505092915050565b60006111cd83836111a3565b9150826002028217905092915050565b6111e682610ada565b67ffffffffffffffff8111156111ff576111fe610c98565b5b6112098254610e4e565b611214828285611150565b600060209050601f8311600181146112475760008415611235578287015190505b61123f85826111c1565b8655506112a7565b601f19841661125586611031565b60005b8281101561127d57848901518255600182019150602085019450602081019050611258565b8683101561129a5784890151611296601f8916826111a3565b8355505b6001600288020188555050505b50505050505056fea264697066735822122006bf42c8d6d4bc81aa4529414794548738d2bfc92cb2a6d570f7b0b81a829b0c64736f6c63430008120033",
					"opcodes": "PUSH1 0x80 PUSH1 0x40 MSTORE CALLVALUE DUP1 ISZERO PUSH2 0x10 JUMPI PUSH1 0x0 DUP1 REVERT JUMPDEST POP PUSH2 0x12E5 DUP1 PUSH2 0x20 PUSH1 0x0 CODECOPY PUSH1 0x0 RETURN INVALID PUSH1 0x80 PUSH1 0x40 MSTORE CALLVALUE DUP1 ISZERO PUSH2 0x10 JUMPI PUSH1 0x0 DUP1 REVERT JUMPDEST POP PUSH1 0x4 CALLDATASIZE LT PUSH2 0x88 JUMPI PUSH1 0x0 CALLDATALOAD PUSH1 0xE0 SHR DUP1 PUSH4 0x92A71612 GT PUSH2 0x5B JUMPI DUP1 PUSH4 0x92A71612 EQ PUSH2 0x105 JUMPI DUP1 PUSH4 0x99211D25 EQ PUSH2 0x135 JUMPI DUP1 PUSH4 0xB5725FEC EQ PUSH2 0x165 JUMPI DUP1 PUSH4 0xE6A8D869 EQ PUSH2 0x181 JUMPI PUSH2 0x88 JUMP JUMPDEST DUP1 PUSH4 0xC4C67B2 EQ PUSH2 0x8D JUMPI DUP1 PUSH4 0x1DEE29D7 EQ PUSH2 0xAB JUMPI DUP1 PUSH4 0x3D0801CC EQ PUSH2 0xC9 JUMPI DUP1 PUSH4 0x5FA96654 EQ PUSH2 0xE7 JUMPI JUMPDEST PUSH1 0x0 DUP1 REVERT JUMPDEST PUSH2 0x95 PUSH2 0x1B1 JUMP JUMPDEST PUSH1 0x40 MLOAD PUSH2 0xA2 SWAP2 SWAP1 PUSH2 0xB6A JUMP JUMPDEST PUSH1 0x40 MLOAD DUP1 SWAP2 SUB SWAP1 RETURN JUMPDEST PUSH2 0xB3 PUSH2 0x352 JUMP JUMPDEST PUSH1 0x40 MLOAD PUSH2 0xC0 SWAP2 SWAP1 PUSH2 0xB6A JUMP JUMPDEST PUSH1 0x40 MLOAD DUP1 SWAP2 SUB SWAP1 RETURN JUMPDEST PUSH2 0xD1 PUSH2 0x4F3 JUMP JUMPDEST PUSH1 0x40 MLOAD PUSH2 0xDE SWAP2 SWAP1 PUSH2 0xB6A JUMP JUMPDEST PUSH1 0x40 MLOAD DUP1 SWAP2 SUB SWAP1 RETURN JUMPDEST PUSH2 0xEF PUSH2 0x694 JUMP JUMPDEST PUSH1 0x40 MLOAD PUSH2 0xFC SWAP2 SWAP1 PUSH2 0xC2C JUMP JUMPDEST PUSH1 0x40 MLOAD DUP1 SWAP2 SUB SWAP1 RETURN JUMPDEST PUSH2 0x11F PUSH1 0x4 DUP1 CALLDATASIZE SUB DUP2 ADD SWAP1 PUSH2 0x11A SWAP2 SWAP1 PUSH2 0xDC3 JUMP JUMPDEST PUSH2 0x74A JUMP JUMPDEST PUSH1 0x40 MLOAD PUSH2 0x12C SWAP2 SWAP1 PUSH2 0xB6A JUMP JUMPDEST PUSH1 0x40 MLOAD DUP1 SWAP2 SUB SWAP1 RETURN JUMPDEST PUSH2 0x14F PUSH1 0x4 DUP1 CALLDATASIZE SUB DUP2 ADD SWAP1 PUSH2 0x14A SWAP2 SWAP1 PUSH2 0xDC3 JUMP JUMPDEST PUSH2 0x85D JUMP JUMPDEST PUSH1 0x40 MLOAD PUSH2 0x15C SWAP2 SWAP1 PUSH2 0xB6A JUMP JUMPDEST PUSH1 0x40 MLOAD DUP1 SWAP2 SUB SWAP1 RETURN JUMPDEST PUSH2 0x17F PUSH1 0x4 DUP1 CALLDATASIZE SUB DUP2 ADD SWAP1 PUSH2 0x17A SWAP2 SWAP1 PUSH2 0xDC3 JUMP JUMPDEST PUSH2 0x970 JUMP JUMPDEST STOP JUMPDEST PUSH2 0x19B PUSH1 0x4 DUP1 CALLDATASIZE SUB DUP2 ADD SWAP1 PUSH2 0x196 SWAP2 SWAP1 PUSH2 0xDC3 JUMP JUMPDEST PUSH2 0x9AD JUMP JUMPDEST PUSH1 0x40 MLOAD PUSH2 0x1A8 SWAP2 SWAP1 PUSH2 0xB6A JUMP JUMPDEST PUSH1 0x40 MLOAD DUP1 SWAP2 SUB SWAP1 RETURN JUMPDEST PUSH1 0x60 PUSH1 0x0 DUP1 ADD SLOAD PUSH1 0x0 PUSH1 0x1 ADD DUP1 SLOAD PUSH2 0x1C8 SWAP1 PUSH2 0xE4E JUMP JUMPDEST DUP1 PUSH1 0x1F ADD PUSH1 0x20 DUP1 SWAP2 DIV MUL PUSH1 0x20 ADD PUSH1 0x40 MLOAD SWAP1 DUP2 ADD PUSH1 0x40 MSTORE DUP1 SWAP3 SWAP2 SWAP1 DUP2 DUP2 MSTORE PUSH1 0x20 ADD DUP3 DUP1 SLOAD PUSH2 0x1F4 SWAP1 PUSH2 0xE4E JUMP JUMPDEST DUP1 ISZERO PUSH2 0x241 JUMPI DUP1 PUSH1 0x1F LT PUSH2 0x216 JUMPI PUSH2 0x100 DUP1 DUP4 SLOAD DIV MUL DUP4 MSTORE SWAP2 PUSH1 0x20 ADD SWAP2 PUSH2 0x241 JUMP JUMPDEST DUP3 ADD SWAP2 SWAP1 PUSH1 0x0 MSTORE PUSH1 0x20 PUSH1 0x0 KECCAK256 SWAP1 JUMPDEST DUP2 SLOAD DUP2 MSTORE SWAP1 PUSH1 0x1 ADD SWAP1 PUSH1 0x20 ADD DUP1 DUP4 GT PUSH2 0x224 JUMPI DUP3 SWAP1 SUB PUSH1 0x1F AND DUP3 ADD SWAP2 JUMPDEST POP POP POP POP POP PUSH1 0x14 DUP3 GT PUSH2 0x289 JUMPI PUSH1 0x40 MLOAD PUSH32 0x8C379A000000000000000000000000000000000000000000000000000000000 DUP2 MSTORE PUSH1 0x4 ADD PUSH2 0x280 SWAP1 PUSH2 0xECB JUMP JUMPDEST PUSH1 0x40 MLOAD DUP1 SWAP2 SUB SWAP1 REVERT JUMPDEST PUSH1 0x40 MLOAD PUSH1 0x20 ADD PUSH2 0x298 SWAP1 PUSH2 0xF42 JUMP JUMPDEST PUSH1 0x40 MLOAD PUSH1 0x20 DUP2 DUP4 SUB SUB DUP2 MSTORE SWAP1 PUSH1 0x40 MSTORE DUP1 MLOAD SWAP1 PUSH1 0x20 ADD KECCAK256 DUP2 PUSH1 0x40 MLOAD PUSH1 0x20 ADD PUSH2 0x2BF SWAP2 SWAP1 PUSH2 0xF88 JUMP JUMPDEST PUSH1 0x40 MLOAD PUSH1 0x20 DUP2 DUP4 SUB SUB DUP2 MSTORE SWAP1 PUSH1 0x40 MSTORE DUP1 MLOAD SWAP1 PUSH1 0x20 ADD KECCAK256 EQ PUSH2 0x315 JUMPI PUSH1 0x40 MLOAD PUSH32 0x8C379A000000000000000000000000000000000000000000000000000000000 DUP2 MSTORE PUSH1 0x4 ADD PUSH2 0x30C SWAP1 PUSH2 0x1011 JUMP JUMPDEST PUSH1 0x40 MLOAD DUP1 SWAP2 SUB SWAP1 REVERT JUMPDEST PUSH1 0x40 MLOAD DUP1 PUSH1 0x40 ADD PUSH1 0x40 MSTORE DUP1 PUSH1 0x6 DUP2 MSTORE PUSH1 0x20 ADD PUSH32 0x5061737365640000000000000000000000000000000000000000000000000000 DUP2 MSTORE POP SWAP3 POP POP POP SWAP1 JUMP JUMPDEST PUSH1 0x60 PUSH1 0x0 DUP1 ADD SLOAD PUSH1 0x0 PUSH1 0x1 ADD DUP1 SLOAD PUSH2 0x369 SWAP1 PUSH2 0xE4E JUMP JUMPDEST DUP1 PUSH1 0x1F ADD PUSH1 0x20 DUP1 SWAP2 DIV MUL PUSH1 0x20 ADD PUSH1 0x40 MLOAD SWAP1 DUP2 ADD PUSH1 0x40 MSTORE DUP1 SWAP3 SWAP2 SWAP1 DUP2 DUP2 MSTORE PUSH1 0x20 ADD DUP3 DUP1 SLOAD PUSH2 0x395 SWAP1 PUSH2 0xE4E JUMP JUMPDEST DUP1 ISZERO PUSH2 0x3E2 JUMPI DUP1 PUSH1 0x1F LT PUSH2 0x3B7 JUMPI PUSH2 0x100 DUP1 DUP4 SLOAD DIV MUL DUP4 MSTORE SWAP2 PUSH1 0x20 ADD SWAP2 PUSH2 0x3E2 JUMP JUMPDEST DUP3 ADD SWAP2 SWAP1 PUSH1 0x0 MSTORE PUSH1 0x20 PUSH1 0x0 KECCAK256 SWAP1 JUMPDEST DUP2 SLOAD DUP2 MSTORE SWAP1 PUSH1 0x1 ADD SWAP1 PUSH1 0x20 ADD DUP1 DUP4 GT PUSH2 0x3C5 JUMPI DUP3 SWAP1 SUB PUSH1 0x1F AND DUP3 ADD SWAP2 JUMPDEST POP POP POP POP POP PUSH1 0x14 DUP3 GT PUSH2 0x42A JUMPI PUSH1 0x40 MLOAD PUSH32 0x8C379A000000000000000000000000000000000000000000000000000000000 DUP2 MSTORE PUSH1 0x4 ADD PUSH2 0x421 SWAP1 PUSH2 0xECB JUMP JUMPDEST PUSH1 0x40 MLOAD DUP1 SWAP2 SUB SWAP1 REVERT JUMPDEST PUSH1 0x40 MLOAD PUSH1 0x20 ADD PUSH2 0x439 SWAP1 PUSH2 0xF42 JUMP JUMPDEST PUSH1 0x40 MLOAD PUSH1 0x20 DUP2 DUP4 SUB SUB DUP2 MSTORE SWAP1 PUSH1 0x40 MSTORE DUP1 MLOAD SWAP1 PUSH1 0x20 ADD KECCAK256 DUP2 PUSH1 0x40 MLOAD PUSH1 0x20 ADD PUSH2 0x460 SWAP2 SWAP1 PUSH2 0xF88 JUMP JUMPDEST PUSH1 0x40 MLOAD PUSH1 0x20 DUP2 DUP4 SUB SUB DUP2 MSTORE SWAP1 PUSH1 0x40 MSTORE DUP1 MLOAD SWAP1 PUSH1 0x20 ADD KECCAK256 EQ PUSH2 0x4B6 JUMPI PUSH1 0x40 MLOAD PUSH32 0x8C379A000000000000000000000000000000000000000000000000000000000 DUP2 MSTORE PUSH1 0x4 ADD PUSH2 0x4AD SWAP1 PUSH2 0x1011 JUMP JUMPDEST PUSH1 0x40 MLOAD DUP1 SWAP2 SUB SWAP1 REVERT JUMPDEST PUSH1 0x40 MLOAD DUP1 PUSH1 0x40 ADD PUSH1 0x40 MSTORE DUP1 PUSH1 0x6 DUP2 MSTORE PUSH1 0x20 ADD PUSH32 0x5061737365640000000000000000000000000000000000000000000000000000 DUP2 MSTORE POP SWAP3 POP POP POP SWAP1 JUMP JUMPDEST PUSH1 0x60 PUSH1 0x0 DUP1 ADD SLOAD PUSH1 0x0 PUSH1 0x1 ADD DUP1 SLOAD PUSH2 0x50A SWAP1 PUSH2 0xE4E JUMP JUMPDEST DUP1 PUSH1 0x1F ADD PUSH1 0x20 DUP1 SWAP2 DIV MUL PUSH1 0x20 ADD PUSH1 0x40 MLOAD SWAP1 DUP2 ADD PUSH1 0x40 MSTORE DUP1 SWAP3 SWAP2 SWAP1 DUP2 DUP2 MSTORE PUSH1 0x20 ADD DUP3 DUP1 SLOAD PUSH2 0x536 SWAP1 PUSH2 0xE4E JUMP JUMPDEST DUP1 ISZERO PUSH2 0x583 JUMPI DUP1 PUSH1 0x1F LT PUSH2 0x558 JUMPI PUSH2 0x100 DUP1 DUP4 SLOAD DIV MUL DUP4 MSTORE SWAP2 PUSH1 0x20 ADD SWAP2 PUSH2 0x583 JUMP JUMPDEST DUP3 ADD SWAP2 SWAP1 PUSH1 0x0 MSTORE PUSH1 0x20 PUSH1 0x0 KECCAK256 SWAP1 JUMPDEST DUP2 SLOAD DUP2 MSTORE SWAP1 PUSH1 0x1 ADD SWAP1 PUSH1 0x20 ADD DUP1 DUP4 GT PUSH2 0x566 JUMPI DUP3 SWAP1 SUB PUSH1 0x1F AND DUP3 ADD SWAP2 JUMPDEST POP POP POP POP POP PUSH1 0x14 DUP3 GT PUSH2 0x5CB JUMPI PUSH1 0x40 MLOAD PUSH32 0x8C379A000000000000000000000000000000000000000000000000000000000 DUP2 MSTORE PUSH1 0x4 ADD PUSH2 0x5C2 SWAP1 PUSH2 0xECB JUMP JUMPDEST PUSH1 0x40 MLOAD DUP1 SWAP2 SUB SWAP1 REVERT JUMPDEST PUSH1 0x40 MLOAD PUSH1 0x20 ADD PUSH2 0x5DA SWAP1 PUSH2 0xF42 JUMP JUMPDEST PUSH1 0x40 MLOAD PUSH1 0x20 DUP2 DUP4 SUB SUB DUP2 MSTORE SWAP1 PUSH1 0x40 MSTORE DUP1 MLOAD SWAP1 PUSH1 0x20 ADD KECCAK256 DUP2 PUSH1 0x40 MLOAD PUSH1 0x20 ADD PUSH2 0x601 SWAP2 SWAP1 PUSH2 0xF88 JUMP JUMPDEST PUSH1 0x40 MLOAD PUSH1 0x20 DUP2 DUP4 SUB SUB DUP2 MSTORE SWAP1 PUSH1 0x40 MSTORE DUP1 MLOAD SWAP1 PUSH1 0x20 ADD KECCAK256 EQ PUSH2 0x657 JUMPI PUSH1 0x40 MLOAD PUSH32 0x8C379A000000000000000000000000000000000000000000000000000000000 DUP2 MSTORE PUSH1 0x4 ADD PUSH2 0x64E SWAP1 PUSH2 0x1011 JUMP JUMPDEST PUSH1 0x40 MLOAD DUP1 SWAP2 SUB SWAP1 REVERT JUMPDEST PUSH1 0x40 MLOAD DUP1 PUSH1 0x40 ADD PUSH1 0x40 MSTORE DUP1 PUSH1 0x6 DUP2 MSTORE PUSH1 0x20 ADD PUSH32 0x5061737365640000000000000000000000000000000000000000000000000000 DUP2 MSTORE POP SWAP3 POP POP POP SWAP1 JUMP JUMPDEST PUSH2 0x69C PUSH2 0xAC0 JUMP JUMPDEST PUSH1 0x0 PUSH1 0x40 MLOAD DUP1 PUSH1 0x40 ADD PUSH1 0x40 MSTORE SWAP1 DUP2 PUSH1 0x0 DUP3 ADD SLOAD DUP2 MSTORE PUSH1 0x20 ADD PUSH1 0x1 DUP3 ADD DUP1 SLOAD PUSH2 0x6C3 SWAP1 PUSH2 0xE4E JUMP JUMPDEST DUP1 PUSH1 0x1F ADD PUSH1 0x20 DUP1 SWAP2 DIV MUL PUSH1 0x20 ADD PUSH1 0x40 MLOAD SWAP1 DUP2 ADD PUSH1 0x40 MSTORE DUP1 SWAP3 SWAP2 SWAP1 DUP2 DUP2 MSTORE PUSH1 0x20 ADD DUP3 DUP1 SLOAD PUSH2 0x6EF SWAP1 PUSH2 0xE4E JUMP JUMPDEST DUP1 ISZERO PUSH2 0x73C JUMPI DUP1 PUSH1 0x1F LT PUSH2 0x711 JUMPI PUSH2 0x100 DUP1 DUP4 SLOAD DIV MUL DUP4 MSTORE SWAP2 PUSH1 0x20 ADD SWAP2 PUSH2 0x73C JUMP JUMPDEST DUP3 ADD SWAP2 SWAP1 PUSH1 0x0 MSTORE PUSH1 0x20 PUSH1 0x0 KECCAK256 SWAP1 JUMPDEST DUP2 SLOAD DUP2 MSTORE SWAP1 PUSH1 0x1 ADD SWAP1 PUSH1 0x20 ADD DUP1 DUP4 GT PUSH2 0x71F JUMPI DUP3 SWAP1 SUB PUSH1 0x1F AND DUP3 ADD SWAP2 JUMPDEST POP POP POP POP POP DUP2 MSTORE POP POP SWAP1 POP SWAP1 JUMP JUMPDEST PUSH1 0x60 DUP3 DUP3 PUSH1 0x14 DUP3 GT PUSH2 0x791 JUMPI PUSH1 0x40 MLOAD PUSH32 0x8C379A000000000000000000000000000000000000000000000000000000000 DUP2 MSTORE PUSH1 0x4 ADD PUSH2 0x788 SWAP1 PUSH2 0xECB JUMP JUMPDEST PUSH1 0x40 MLOAD DUP1 SWAP2 SUB SWAP1 REVERT JUMPDEST PUSH1 0x40 MLOAD PUSH1 0x20 ADD PUSH2 0x7A0 SWAP1 PUSH2 0xF42 JUMP JUMPDEST PUSH1 0x40 MLOAD PUSH1 0x20 DUP2 DUP4 SUB SUB DUP2 MSTORE SWAP1 PUSH1 0x40 MSTORE DUP1 MLOAD SWAP1 PUSH1 0x20 ADD KECCAK256 DUP2 PUSH1 0x40 MLOAD PUSH1 0x20 ADD PUSH2 0x7C7 SWAP2 SWAP1 PUSH2 0xF88 JUMP JUMPDEST PUSH1 0x40 MLOAD PUSH1 0x20 DUP2 DUP4 SUB SUB DUP2 MSTORE SWAP1 PUSH1 0x40 MSTORE DUP1 MLOAD SWAP1 PUSH1 0x20 ADD KECCAK256 EQ PUSH2 0x81D JUMPI PUSH1 0x40 MLOAD PUSH32 0x8C379A000000000000000000000000000000000000000000000000000000000 DUP2 MSTORE PUSH1 0x4 ADD PUSH2 0x814 SWAP1 PUSH2 0x1011 JUMP JUMPDEST PUSH1 0x40 MLOAD DUP1 SWAP2 SUB SWAP1 REVERT JUMPDEST PUSH1 0x40 MLOAD DUP1 PUSH1 0x40 ADD PUSH1 0x40 MSTORE DUP1 PUSH1 0x6 DUP2 MSTORE PUSH1 0x20 ADD PUSH32 0x5061737365640000000000000000000000000000000000000000000000000000 DUP2 MSTORE POP SWAP3 POP POP POP SWAP3 SWAP2 POP POP JUMP JUMPDEST PUSH1 0x60 DUP3 DUP3 PUSH1 0x14 DUP3 GT PUSH2 0x8A4 JUMPI PUSH1 0x40 MLOAD PUSH32 0x8C379A000000000000000000000000000000000000000000000000000000000 DUP2 MSTORE PUSH1 0x4 ADD PUSH2 0x89B SWAP1 PUSH2 0xECB JUMP JUMPDEST PUSH1 0x40 MLOAD DUP1 SWAP2 SUB SWAP1 REVERT JUMPDEST PUSH1 0x40 MLOAD PUSH1 0x20 ADD PUSH2 0x8B3 SWAP1 PUSH2 0xF42 JUMP JUMPDEST PUSH1 0x40 MLOAD PUSH1 0x20 DUP2 DUP4 SUB SUB DUP2 MSTORE SWAP1 PUSH1 0x40 MSTORE DUP1 MLOAD SWAP1 PUSH1 0x20 ADD KECCAK256 DUP2 PUSH1 0x40 MLOAD PUSH1 0x20 ADD PUSH2 0x8DA SWAP2 SWAP1 PUSH2 0xF88 JUMP JUMPDEST PUSH1 0x40 MLOAD PUSH1 0x20 DUP2 DUP4 SUB SUB DUP2 MSTORE SWAP1 PUSH1 0x40 MSTORE DUP1 MLOAD SWAP1 PUSH1 0x20 ADD KECCAK256 EQ PUSH2 0x930 JUMPI PUSH1 0x40 MLOAD PUSH32 0x8C379A000000000000000000000000000000000000000000000000000000000 DUP2 MSTORE PUSH1 0x4 ADD PUSH2 0x927 SWAP1 PUSH2 0x1011 JUMP JUMPDEST PUSH1 0x40 MLOAD DUP1 SWAP2 SUB SWAP1 REVERT JUMPDEST PUSH1 0x40 MLOAD DUP1 PUSH1 0x40 ADD PUSH1 0x40 MSTORE DUP1 PUSH1 0x6 DUP2 MSTORE PUSH1 0x20 ADD PUSH32 0x5061737365640000000000000000000000000000000000000000000000000000 DUP2 MSTORE POP SWAP3 POP POP POP SWAP3 SWAP2 POP POP JUMP JUMPDEST PUSH1 0x40 MLOAD DUP1 PUSH1 0x40 ADD PUSH1 0x40 MSTORE DUP1 DUP4 DUP2 MSTORE PUSH1 0x20 ADD DUP3 DUP2 MSTORE POP PUSH1 0x0 DUP1 DUP3 ADD MLOAD DUP2 PUSH1 0x0 ADD SSTORE PUSH1 0x20 DUP3 ADD MLOAD DUP2 PUSH1 0x1 ADD SWAP1 DUP2 PUSH2 0x9A5 SWAP2 SWAP1 PUSH2 0x11DD JUMP JUMPDEST POP SWAP1 POP POP POP POP JUMP JUMPDEST PUSH1 0x60 DUP3 DUP3 PUSH1 0x14 DUP3 GT PUSH2 0x9F4 JUMPI PUSH1 0x40 MLOAD PUSH32 0x8C379A000000000000000000000000000000000000000000000000000000000 DUP2 MSTORE PUSH1 0x4 ADD PUSH2 0x9EB SWAP1 PUSH2 0xECB JUMP JUMPDEST PUSH1 0x40 MLOAD DUP1 SWAP2 SUB SWAP1 REVERT JUMPDEST PUSH1 0x40 MLOAD PUSH1 0x20 ADD PUSH2 0xA03 SWAP1 PUSH2 0xF42 JUMP JUMPDEST PUSH1 0x40 MLOAD PUSH1 0x20 DUP2 DUP4 SUB SUB DUP2 MSTORE SWAP1 PUSH1 0x40 MSTORE DUP1 MLOAD SWAP1 PUSH1 0x20 ADD KECCAK256 DUP2 PUSH1 0x40 MLOAD PUSH1 0x20 ADD PUSH2 0xA2A SWAP2 SWAP1 PUSH2 0xF88 JUMP JUMPDEST PUSH1 0x40 MLOAD PUSH1 0x20 DUP2 DUP4 SUB SUB DUP2 MSTORE SWAP1 PUSH1 0x40 MSTORE DUP1 MLOAD SWAP1 PUSH1 0x20 ADD KECCAK256 EQ PUSH2 0xA80 JUMPI PUSH1 0x40 MLOAD PUSH32 0x8C379A000000000000000000000000000000000000000000000000000000000 DUP2 MSTORE PUSH1 0x4 ADD PUSH2 0xA77 SWAP1 PUSH2 0x1011 JUMP JUMPDEST PUSH1 0x40 MLOAD DUP1 SWAP2 SUB SWAP1 REVERT JUMPDEST PUSH1 0x40 MLOAD DUP1 PUSH1 0x40 ADD PUSH1 0x40 MSTORE DUP1 PUSH1 0x6 DUP2 MSTORE PUSH1 0x20 ADD PUSH32 0x5061737365640000000000000000000000000000000000000000000000000000 DUP2 MSTORE POP SWAP3 POP POP POP SWAP3 SWAP2 POP POP JUMP JUMPDEST PUSH1 0x40 MLOAD DUP1 PUSH1 0x40 ADD PUSH1 0x40 MSTORE DUP1 PUSH1 0x0 DUP2 MSTORE PUSH1 0x20 ADD PUSH1 0x60 DUP2 MSTORE POP SWAP1 JUMP JUMPDEST PUSH1 0x0 DUP2 MLOAD SWAP1 POP SWAP2 SWAP1 POP JUMP JUMPDEST PUSH1 0x0 DUP3 DUP3 MSTORE PUSH1 0x20 DUP3 ADD SWAP1 POP SWAP3 SWAP2 POP POP JUMP JUMPDEST PUSH1 0x0 JUMPDEST DUP4 DUP2 LT ISZERO PUSH2 0xB14 JUMPI DUP1 DUP3 ADD MLOAD DUP2 DUP5 ADD MSTORE PUSH1 0x20 DUP2 ADD SWAP1 POP PUSH2 0xAF9 JUMP JUMPDEST PUSH1 0x0 DUP5 DUP5 ADD MSTORE POP POP POP POP JUMP JUMPDEST PUSH1 0x0 PUSH1 0x1F NOT PUSH1 0x1F DUP4 ADD AND SWAP1 POP SWAP2 SWAP1 POP JUMP JUMPDEST PUSH1 0x0 PUSH2 0xB3C DUP3 PUSH2 0xADA JUMP JUMPDEST PUSH2 0xB46 DUP2 DUP6 PUSH2 0xAE5 JUMP JUMPDEST SWAP4 POP PUSH2 0xB56 DUP2 DUP6 PUSH1 0x20 DUP7 ADD PUSH2 0xAF6 JUMP JUMPDEST PUSH2 0xB5F DUP2 PUSH2 0xB20 JUMP JUMPDEST DUP5 ADD SWAP2 POP POP SWAP3 SWAP2 POP POP JUMP JUMPDEST PUSH1 0x0 PUSH1 0x20 DUP3 ADD SWAP1 POP DUP2 DUP2 SUB PUSH1 0x0 DUP4 ADD MSTORE PUSH2 0xB84 DUP2 DUP5 PUSH2 0xB31 JUMP JUMPDEST SWAP1 POP SWAP3 SWAP2 POP POP JUMP JUMPDEST PUSH1 0x0 DUP2 SWAP1 POP SWAP2 SWAP1 POP JUMP JUMPDEST PUSH2 0xB9F DUP2 PUSH2 0xB8C JUMP JUMPDEST DUP3 MSTORE POP POP JUMP JUMPDEST PUSH1 0x0 DUP3 DUP3 MSTORE PUSH1 0x20 DUP3 ADD SWAP1 POP SWAP3 SWAP2 POP POP JUMP JUMPDEST PUSH1 0x0 PUSH2 0xBC1 DUP3 PUSH2 0xADA JUMP JUMPDEST PUSH2 0xBCB DUP2 DUP6 PUSH2 0xBA5 JUMP JUMPDEST SWAP4 POP PUSH2 0xBDB DUP2 DUP6 PUSH1 0x20 DUP7 ADD PUSH2 0xAF6 JUMP JUMPDEST PUSH2 0xBE4 DUP2 PUSH2 0xB20 JUMP JUMPDEST DUP5 ADD SWAP2 POP POP SWAP3 SWAP2 POP POP JUMP JUMPDEST PUSH1 0x0 PUSH1 0x40 DUP4 ADD PUSH1 0x0 DUP4 ADD MLOAD PUSH2 0xC07 PUSH1 0x0 DUP7 ADD DUP3 PUSH2 0xB96 JUMP JUMPDEST POP PUSH1 0x20 DUP4 ADD MLOAD DUP5 DUP3 SUB PUSH1 0x20 DUP7 ADD MSTORE PUSH2 0xC1F DUP3 DUP3 PUSH2 0xBB6 JUMP JUMPDEST SWAP2 POP POP DUP1 SWAP2 POP POP SWAP3 SWAP2 POP POP JUMP JUMPDEST PUSH1 0x0 PUSH1 0x20 DUP3 ADD SWAP1 POP DUP2 DUP2 SUB PUSH1 0x0 DUP4 ADD MSTORE PUSH2 0xC46 DUP2 DUP5 PUSH2 0xBEF JUMP JUMPDEST SWAP1 POP SWAP3 SWAP2 POP POP JUMP JUMPDEST PUSH1 0x0 PUSH1 0x40 MLOAD SWAP1 POP SWAP1 JUMP JUMPDEST PUSH1 0x0 DUP1 REVERT JUMPDEST PUSH1 0x0 DUP1 REVERT JUMPDEST PUSH2 0xC6B DUP2 PUSH2 0xB8C JUMP JUMPDEST DUP2 EQ PUSH2 0xC76 JUMPI PUSH1 0x0 DUP1 REVERT JUMPDEST POP JUMP JUMPDEST PUSH1 0x0 DUP2 CALLDATALOAD SWAP1 POP PUSH2 0xC88 DUP2 PUSH2 0xC62 JUMP JUMPDEST SWAP3 SWAP2 POP POP JUMP JUMPDEST PUSH1 0x0 DUP1 REVERT JUMPDEST PUSH1 0x0 DUP1 REVERT JUMPDEST PUSH32 0x4E487B7100000000000000000000000000000000000000000000000000000000 PUSH1 0x0 MSTORE PUSH1 0x41 PUSH1 0x4 MSTORE PUSH1 0x24 PUSH1 0x0 REVERT JUMPDEST PUSH2 0xCD0 DUP3 PUSH2 0xB20 JUMP JUMPDEST DUP2 ADD DUP2 DUP2 LT PUSH8 0xFFFFFFFFFFFFFFFF DUP3 GT OR ISZERO PUSH2 0xCEF JUMPI PUSH2 0xCEE PUSH2 0xC98 JUMP JUMPDEST JUMPDEST DUP1 PUSH1 0x40 MSTORE POP POP POP JUMP JUMPDEST PUSH1 0x0 PUSH2 0xD02 PUSH2 0xC4E JUMP JUMPDEST SWAP1 POP PUSH2 0xD0E DUP3 DUP3 PUSH2 0xCC7 JUMP JUMPDEST SWAP2 SWAP1 POP JUMP JUMPDEST PUSH1 0x0 PUSH8 0xFFFFFFFFFFFFFFFF DUP3 GT ISZERO PUSH2 0xD2E JUMPI PUSH2 0xD2D PUSH2 0xC98 JUMP JUMPDEST JUMPDEST PUSH2 0xD37 DUP3 PUSH2 0xB20 JUMP JUMPDEST SWAP1 POP PUSH1 0x20 DUP2 ADD SWAP1 POP SWAP2 SWAP1 POP JUMP JUMPDEST DUP3 DUP2 DUP4 CALLDATACOPY PUSH1 0x0 DUP4 DUP4 ADD MSTORE POP POP POP JUMP JUMPDEST PUSH1 0x0 PUSH2 0xD66 PUSH2 0xD61 DUP5 PUSH2 0xD13 JUMP JUMPDEST PUSH2 0xCF8 JUMP JUMPDEST SWAP1 POP DUP3 DUP2 MSTORE PUSH1 0x20 DUP2 ADD DUP5 DUP5 DUP5 ADD GT ISZERO PUSH2 0xD82 JUMPI PUSH2 0xD81 PUSH2 0xC93 JUMP JUMPDEST JUMPDEST PUSH2 0xD8D DUP5 DUP3 DUP6 PUSH2 0xD44 JUMP JUMPDEST POP SWAP4 SWAP3 POP POP POP JUMP JUMPDEST PUSH1 0x0 DUP3 PUSH1 0x1F DUP4 ADD SLT PUSH2 0xDAA JUMPI PUSH2 0xDA9 PUSH2 0xC8E JUMP JUMPDEST JUMPDEST DUP2 CALLDATALOAD PUSH2 0xDBA DUP5 DUP3 PUSH1 0x20 DUP7 ADD PUSH2 0xD53 JUMP JUMPDEST SWAP2 POP POP SWAP3 SWAP2 POP POP JUMP JUMPDEST PUSH1 0x0 DUP1 PUSH1 0x40 DUP4 DUP6 SUB SLT ISZERO PUSH2 0xDDA JUMPI PUSH2 0xDD9 PUSH2 0xC58 JUMP JUMPDEST JUMPDEST PUSH1 0x0 PUSH2 0xDE8 DUP6 DUP3 DUP7 ADD PUSH2 0xC79 JUMP JUMPDEST SWAP3 POP POP PUSH1 0x20 DUP4 ADD CALLDATALOAD PUSH8 0xFFFFFFFFFFFFFFFF DUP2 GT ISZERO PUSH2 0xE09 JUMPI PUSH2 0xE08 PUSH2 0xC5D JUMP JUMPDEST JUMPDEST PUSH2 0xE15 DUP6 DUP3 DUP7 ADD PUSH2 0xD95 JUMP JUMPDEST SWAP2 POP POP SWAP3 POP SWAP3 SWAP1 POP JUMP JUMPDEST PUSH32 0x4E487B7100000000000000000000000000000000000000000000000000000000 PUSH1 0x0 MSTORE PUSH1 0x22 PUSH1 0x4 MSTORE PUSH1 0x24 PUSH1 0x0 REVERT JUMPDEST PUSH1 0x0 PUSH1 0x2 DUP3 DIV SWAP1 POP PUSH1 0x1 DUP3 AND DUP1 PUSH2 0xE66 JUMPI PUSH1 0x7F DUP3 AND SWAP2 POP JUMPDEST PUSH1 0x20 DUP3 LT DUP2 SUB PUSH2 0xE79 JUMPI PUSH2 0xE78 PUSH2 0xE1F JUMP JUMPDEST JUMPDEST POP SWAP2 SWAP1 POP JUMP JUMPDEST PUSH32 0x546F6F20796F756E670000000000000000000000000000000000000000000000 PUSH1 0x0 DUP3 ADD MSTORE POP JUMP JUMPDEST PUSH1 0x0 PUSH2 0xEB5 PUSH1 0x9 DUP4 PUSH2 0xAE5 JUMP JUMPDEST SWAP2 POP PUSH2 0xEC0 DUP3 PUSH2 0xE7F JUMP JUMPDEST PUSH1 0x20 DUP3 ADD SWAP1 POP SWAP2 SWAP1 POP JUMP JUMPDEST PUSH1 0x0 PUSH1 0x20 DUP3 ADD SWAP1 POP DUP2 DUP2 SUB PUSH1 0x0 DUP4 ADD MSTORE PUSH2 0xEE4 DUP2 PUSH2 0xEA8 JUMP JUMPDEST SWAP1 POP SWAP2 SWAP1 POP JUMP JUMPDEST PUSH1 0x0 DUP2 SWAP1 POP SWAP3 SWAP2 POP POP JUMP JUMPDEST PUSH32 0x426F620000000000000000000000000000000000000000000000000000000000 PUSH1 0x0 DUP3 ADD MSTORE POP JUMP JUMPDEST PUSH1 0x0 PUSH2 0xF2C PUSH1 0x3 DUP4 PUSH2 0xEEB JUMP JUMPDEST SWAP2 POP PUSH2 0xF37 DUP3 PUSH2 0xEF6 JUMP JUMPDEST PUSH1 0x3 DUP3 ADD SWAP1 POP SWAP2 SWAP1 POP JUMP JUMPDEST PUSH1 0x0 PUSH2 0xF4D DUP3 PUSH2 0xF1F JUMP JUMPDEST SWAP2 POP DUP2 SWAP1 POP SWAP2 SWAP1 POP JUMP JUMPDEST PUSH1 0x0 PUSH2 0xF62 DUP3 PUSH2 0xADA JUMP JUMPDEST PUSH2 0xF6C DUP2 DUP6 PUSH2 0xEEB JUMP JUMPDEST SWAP4 POP PUSH2 0xF7C DUP2 DUP6 PUSH1 0x20 DUP7 ADD PUSH2 0xAF6 JUMP JUMPDEST DUP1 DUP5 ADD SWAP2 POP POP SWAP3 SWAP2 POP POP JUMP JUMPDEST PUSH1 0x0 PUSH2 0xF94 DUP3 DUP5 PUSH2 0xF57 JUMP JUMPDEST SWAP2 POP DUP2 SWAP1 POP SWAP3 SWAP2 POP POP JUMP JUMPDEST PUSH32 0x426F62206973206372696D696E616C2E205368652063616E2774206275792069 PUSH1 0x0 DUP3 ADD MSTORE PUSH32 0x7400000000000000000000000000000000000000000000000000000000000000 PUSH1 0x20 DUP3 ADD MSTORE POP JUMP JUMPDEST PUSH1 0x0 PUSH2 0xFFB PUSH1 0x21 DUP4 PUSH2 0xAE5 JUMP JUMPDEST SWAP2 POP PUSH2 0x1006 DUP3 PUSH2 0xF9F JUMP JUMPDEST PUSH1 0x40 DUP3 ADD SWAP1 POP SWAP2 SWAP1 POP JUMP JUMPDEST PUSH1 0x0 PUSH1 0x20 DUP3 ADD SWAP1 POP DUP2 DUP2 SUB PUSH1 0x0 DUP4 ADD MSTORE PUSH2 0x102A DUP2 PUSH2 0xFEE JUMP JUMPDEST SWAP1 POP SWAP2 SWAP1 POP JUMP JUMPDEST PUSH1 0x0 DUP2 SWAP1 POP DUP2 PUSH1 0x0 MSTORE PUSH1 0x20 PUSH1 0x0 KECCAK256 SWAP1 POP SWAP2 SWAP1 POP JUMP JUMPDEST PUSH1 0x0 PUSH1 0x20 PUSH1 0x1F DUP4 ADD DIV SWAP1 POP SWAP2 SWAP1 POP JUMP JUMPDEST PUSH1 0x0 DUP3 DUP3 SHL SWAP1 POP SWAP3 SWAP2 POP POP JUMP JUMPDEST PUSH1 0x0 PUSH1 0x8 DUP4 MUL PUSH2 0x1093 PUSH32 0xFFFFFFFFFFFFFFFFFFFFFFFFFFFFFFFFFFFFFFFFFFFFFFFFFFFFFFFFFFFFFFFF DUP3 PUSH2 0x1056 JUMP JUMPDEST PUSH2 0x109D DUP7 DUP4 PUSH2 0x1056 JUMP JUMPDEST SWAP6 POP DUP1 NOT DUP5 AND SWAP4 POP DUP1 DUP7 AND DUP5 OR SWAP3 POP POP POP SWAP4 SWAP3 POP POP POP JUMP JUMPDEST PUSH1 0x0 DUP2 SWAP1 POP SWAP2 SWAP1 POP JUMP JUMPDEST PUSH1 0x0 PUSH2 0x10DA PUSH2 0x10D5 PUSH2 0x10D0 DUP5 PUSH2 0xB8C JUMP JUMPDEST PUSH2 0x10B5 JUMP JUMPDEST PUSH2 0xB8C JUMP JUMPDEST SWAP1 POP SWAP2 SWAP1 POP JUMP JUMPDEST PUSH1 0x0 DUP2 SWAP1 POP SWAP2 SWAP1 POP JUMP JUMPDEST PUSH2 0x10F4 DUP4 PUSH2 0x10BF JUMP JUMPDEST PUSH2 0x1108 PUSH2 0x1100 DUP3 PUSH2 0x10E1 JUMP JUMPDEST DUP5 DUP5 SLOAD PUSH2 0x1063 JUMP JUMPDEST DUP3 SSTORE POP POP POP POP JUMP JUMPDEST PUSH1 0x0 SWAP1 JUMP JUMPDEST PUSH2 0x111D PUSH2 0x1110 JUMP JUMPDEST PUSH2 0x1128 DUP2 DUP5 DUP5 PUSH2 0x10EB JUMP JUMPDEST POP POP POP JUMP JUMPDEST JUMPDEST DUP2 DUP2 LT ISZERO PUSH2 0x114C JUMPI PUSH2 0x1141 PUSH1 0x0 DUP3 PUSH2 0x1115 JUMP JUMPDEST PUSH1 0x1 DUP2 ADD SWAP1 POP PUSH2 0x112E JUMP JUMPDEST POP POP JUMP JUMPDEST PUSH1 0x1F DUP3 GT ISZERO PUSH2 0x1191 JUMPI PUSH2 0x1162 DUP2 PUSH2 0x1031 JUMP JUMPDEST PUSH2 0x116B DUP5 PUSH2 0x1046 JUMP JUMPDEST DUP2 ADD PUSH1 0x20 DUP6 LT ISZERO PUSH2 0x117A JUMPI DUP2 SWAP1 POP JUMPDEST PUSH2 0x118E PUSH2 0x1186 DUP6 PUSH2 0x1046 JUMP JUMPDEST DUP4 ADD DUP3 PUSH2 0x112D JUMP JUMPDEST POP POP JUMPDEST POP POP POP JUMP JUMPDEST PUSH1 0x0 DUP3 DUP3 SHR SWAP1 POP SWAP3 SWAP2 POP POP JUMP JUMPDEST PUSH1 0x0 PUSH2 0x11B4 PUSH1 0x0 NOT DUP5 PUSH1 0x8 MUL PUSH2 0x1196 JUMP JUMPDEST NOT DUP1 DUP4 AND SWAP2 POP POP SWAP3 SWAP2 POP POP JUMP JUMPDEST PUSH1 0x0 PUSH2 0x11CD DUP4 DUP4 PUSH2 0x11A3 JUMP JUMPDEST SWAP2 POP DUP3 PUSH1 0x2 MUL DUP3 OR SWAP1 POP SWAP3 SWAP2 POP POP JUMP JUMPDEST PUSH2 0x11E6 DUP3 PUSH2 0xADA JUMP JUMPDEST PUSH8 0xFFFFFFFFFFFFFFFF DUP2 GT ISZERO PUSH2 0x11FF JUMPI PUSH2 0x11FE PUSH2 0xC98 JUMP JUMPDEST JUMPDEST PUSH2 0x1209 DUP3 SLOAD PUSH2 0xE4E JUMP JUMPDEST PUSH2 0x1214 DUP3 DUP3 DUP6 PUSH2 0x1150 JUMP JUMPDEST PUSH1 0x0 PUSH1 0x20 SWAP1 POP PUSH1 0x1F DUP4 GT PUSH1 0x1 DUP2 EQ PUSH2 0x1247 JUMPI PUSH1 0x0 DUP5 ISZERO PUSH2 0x1235 JUMPI DUP3 DUP8 ADD MLOAD SWAP1 POP JUMPDEST PUSH2 0x123F DUP6 DUP3 PUSH2 0x11C1 JUMP JUMPDEST DUP7 SSTORE POP PUSH2 0x12A7 JUMP JUMPDEST PUSH1 0x1F NOT DUP5 AND PUSH2 0x1255 DUP7 PUSH2 0x1031 JUMP JUMPDEST PUSH1 0x0 JUMPDEST DUP3 DUP2 LT ISZERO PUSH2 0x127D JUMPI DUP5 DUP10 ADD MLOAD DUP3 SSTORE PUSH1 0x1 DUP3 ADD SWAP2 POP PUSH1 0x20 DUP6 ADD SWAP5 POP PUSH1 0x20 DUP2 ADD SWAP1 POP PUSH2 0x1258 JUMP JUMPDEST DUP7 DUP4 LT ISZERO PUSH2 0x129A JUMPI DUP5 DUP10 ADD MLOAD PUSH2 0x1296 PUSH1 0x1F DUP10 AND DUP3 PUSH2 0x11A3 JUMP JUMPDEST DUP4 SSTORE POP JUMPDEST PUSH1 0x1 PUSH1 0x2 DUP9 MUL ADD DUP9 SSTORE POP POP POP JUMPDEST POP POP POP POP POP POP JUMP INVALID LOG2 PUSH5 0x6970667358 0x22 SLT KECCAK256 MOD 0xBF TIMESTAMP 0xC8 0xD6 0xD4 0xBC DUP2 0xAA GASLIMIT 0x29 COINBASE SELFBALANCE SWAP5 SLOAD DUP8 CODESIZE 0xD2 0xBF 0xC9 0x2C 0xB2 0xA6 0xD5 PUSH17 0xF7B0B81A829B0C64736F6C634300081200 CALLER "
				},
				"gasEstimates": {
					"creation": {
						"codeDepositCost": "967400",
						"executionCost": "1008",
						"totalCost": "968408"
					},
					"external": {
						"buyAlcho(uint256,string)": "infinite",
						"buyAlcho2()": "infinite",
						"buyCigar(uint256,string)": "infinite",
						"buyCigar2()": "infinite",
						"buyGu(uint256,string)": "infinite",
						"buyGu2()": "infinite",
						"getP()": "infinite",
						"setP(uint256,string)": "infinite"
					}
				},
				"methodIdentifiers": {
					"buyAlcho(uint256,string)": "92a71612",
					"buyAlcho2()": "3d0801cc",
					"buyCigar(uint256,string)": "e6a8d869",
					"buyCigar2()": "0c4c67b2",
					"buyGu(uint256,string)": "99211d25",
					"buyGu2()": "1dee29d7",
					"getP()": "5fa96654",
					"setP(uint256,string)": "b5725fec"
				}
			},
			"storageLayout": {
				"storage": [
					{
						"astId": 217,
						"contract": "contracts/0515/modifier.sol:MODIFIER4",
						"label": "P",
						"offset": 0,
						"slot": "0",
						"type": "t_struct(Person)214_storage"
					}
				],
				"types": {
					"t_string_storage": {
						"encoding": "bytes",
						"label": "string",
						"numberOfBytes": "32"
					},
					"t_struct(Person)214_storage": {
						"encoding": "inplace",
						"label": "struct MODIFIER4.Person",
						"members": [
							{
								"astId": 211,
								"contract": "contracts/0515/modifier.sol:MODIFIER4",
								"label": "age",
								"offset": 0,
								"slot": "0",
								"type": "t_uint256"
							},
							{
								"astId": 213,
								"contract": "contracts/0515/modifier.sol:MODIFIER4",
								"label": "name",
								"offset": 0,
								"slot": "1",
								"type": "t_string_storage"
							}
						],
						"numberOfBytes": "64"
					},
					"t_uint256": {
						"encoding": "inplace",
						"label": "uint256",
						"numberOfBytes": "32"
					}
				}
			},
			"userdoc": {
				"kind": "user",
				"methods": {},
				"version": 1
			}
		}
	}
}