{
	"data": {
		"bytecode": {
			"linkReferences": {},
			"object": "608060405234801561001057600080fd5b506108b7806100206000396000f3fe608060405234801561001057600080fd5b50600436106100365760003560e01c80638edd6eb61461003b578063d6e7699014610059575b600080fd5b610043610075565b604051610050919061036d565b60405180910390f35b610073600480360381019061006e9190610504565b6101c7565b005b61007d610232565b600060405180608001604052908160008201805461009a906105d2565b80601f01602080910402602001604051908101604052809291908181526020018280546100c6906105d2565b80156101135780601f106100e857610100808354040283529160200191610113565b820191906000526020600020905b8154815290600101906020018083116100f657829003601f168201915b505050505081526020016001820154815260200160028201548152602001600382018054610140906105d2565b80601f016020809104026020016040519081016040528092919081815260200182805461016c906105d2565b80156101b95780601f1061018e576101008083540402835291602001916101b9565b820191906000526020600020905b81548152906001019060200180831161019c57829003601f168201915b505050505081525050905090565b6040518060800160405280858152602001848152602001838152602001828152506000808201518160000190816101fe91906107af565b506020820151816001015560408201518160020155606082015181600301908161022891906107af565b5090505050505050565b6040518060800160405280606081526020016000815260200160008152602001606081525090565b600081519050919050565b600082825260208201905092915050565b60005b83811015610294578082015181840152602081019050610279565b60008484015250505050565b6000601f19601f8301169050919050565b60006102bc8261025a565b6102c68185610265565b93506102d6818560208601610276565b6102df816102a0565b840191505092915050565b6000819050919050565b6102fd816102ea565b82525050565b6000608083016000830151848203600086015261032082826102b1565b915050602083015161033560208601826102f4565b50604083015161034860408601826102f4565b506060830151848203606086015261036082826102b1565b9150508091505092915050565b600060208201905081810360008301526103878184610303565b905092915050565b6000604051905090565b600080fd5b600080fd5b600080fd5b600080fd5b7f4e487b7100000000000000000000000000000000000000000000000000000000600052604160045260246000fd5b6103e5826102a0565b810181811067ffffffffffffffff82111715610404576104036103ad565b5b80604052505050565b600061041761038f565b905061042382826103dc565b919050565b600067ffffffffffffffff821115610443576104426103ad565b5b61044c826102a0565b9050602081019050919050565b82818337600083830152505050565b600061047b61047684610428565b61040d565b905082815260208101848484011115610497576104966103a8565b5b6104a2848285610459565b509392505050565b600082601f8301126104bf576104be6103a3565b5b81356104cf848260208601610468565b91505092915050565b6104e1816102ea565b81146104ec57600080fd5b50565b6000813590506104fe816104d8565b92915050565b6000806000806080858703121561051e5761051d610399565b5b600085013567ffffffffffffffff81111561053c5761053b61039e565b5b610548878288016104aa565b9450506020610559878288016104ef565b935050604061056a878288016104ef565b925050606085013567ffffffffffffffff81111561058b5761058a61039e565b5b610597878288016104aa565b91505092959194509250565b7f4e487b7100000000000000000000000000000000000000000000000000000000600052602260045260246000fd5b600060028204905060018216806105ea57607f821691505b6020821081036105fd576105fc6105a3565b5b50919050565b60008190508160005260206000209050919050565b60006020601f8301049050919050565b600082821b905092915050565b6000600883026106657fffffffffffffffffffffffffffffffffffffffffffffffffffffffffffffffff82610628565b61066f8683610628565b95508019841693508086168417925050509392505050565b6000819050919050565b60006106ac6106a76106a2846102ea565b610687565b6102ea565b9050919050565b6000819050919050565b6106c683610691565b6106da6106d2826106b3565b848454610635565b825550505050565b600090565b6106ef6106e2565b6106fa8184846106bd565b505050565b5b8181101561071e576107136000826106e7565b600181019050610700565b5050565b601f8211156107635761073481610603565b61073d84610618565b8101602085101561074c578190505b61076061075885610618565b8301826106ff565b50505b505050565b600082821c905092915050565b600061078660001984600802610768565b1980831691505092915050565b600061079f8383610775565b9150826002028217905092915050565b6107b88261025a565b67ffffffffffffffff8111156107d1576107d06103ad565b5b6107db82546105d2565b6107e6828285610722565b600060209050601f8311600181146108195760008415610807578287015190505b6108118582610793565b865550610879565b601f19841661082786610603565b60005b8281101561084f5784890151825560018201915060208501945060208101905061082a565b8683101561086c5784890151610868601f891682610775565b8355505b6001600288020188555050505b50505050505056fea26469706673582212203fade8a2745001e43471818cd44e26f4a2246ee11bb3ef41e1aafadd84c0f16b64736f6c63430008120033",
			"opcodes": "PUSH1 0x80 PUSH1 0x40 MSTORE CALLVALUE DUP1 ISZERO PUSH2 0x10 JUMPI PUSH1 0x0 DUP1 REVERT JUMPDEST POP PUSH2 0x8B7 DUP1 PUSH2 0x20 PUSH1 0x0 CODECOPY PUSH1 0x0 RETURN INVALID PUSH1 0x80 PUSH1 0x40 MSTORE CALLVALUE DUP1 ISZERO PUSH2 0x10 JUMPI PUSH1 0x0 DUP1 REVERT JUMPDEST POP PUSH1 0x4 CALLDATASIZE LT PUSH2 0x36 JUMPI PUSH1 0x0 CALLDATALOAD PUSH1 0xE0 SHR DUP1 PUSH4 0x8EDD6EB6 EQ PUSH2 0x3B JUMPI DUP1 PUSH4 0xD6E76990 EQ PUSH2 0x59 JUMPI JUMPDEST PUSH1 0x0 DUP1 REVERT JUMPDEST PUSH2 0x43 PUSH2 0x75 JUMP JUMPDEST PUSH1 0x40 MLOAD PUSH2 0x50 SWAP2 SWAP1 PUSH2 0x36D JUMP JUMPDEST PUSH1 0x40 MLOAD DUP1 SWAP2 SUB SWAP1 RETURN JUMPDEST PUSH2 0x73 PUSH1 0x4 DUP1 CALLDATASIZE SUB DUP2 ADD SWAP1 PUSH2 0x6E SWAP2 SWAP1 PUSH2 0x504 JUMP JUMPDEST PUSH2 0x1C7 JUMP JUMPDEST STOP JUMPDEST PUSH2 0x7D PUSH2 0x232 JUMP JUMPDEST PUSH1 0x0 PUSH1 0x40 MLOAD DUP1 PUSH1 0x80 ADD PUSH1 0x40 MSTORE SWAP1 DUP2 PUSH1 0x0 DUP3 ADD DUP1 SLOAD PUSH2 0x9A SWAP1 PUSH2 0x5D2 JUMP JUMPDEST DUP1 PUSH1 0x1F ADD PUSH1 0x20 DUP1 SWAP2 DIV MUL PUSH1 0x20 ADD PUSH1 0x40 MLOAD SWAP1 DUP2 ADD PUSH1 0x40 MSTORE DUP1 SWAP3 SWAP2 SWAP1 DUP2 DUP2 MSTORE PUSH1 0x20 ADD DUP3 DUP1 SLOAD PUSH2 0xC6 SWAP1 PUSH2 0x5D2 JUMP JUMPDEST DUP1 ISZERO PUSH2 0x113 JUMPI DUP1 PUSH1 0x1F LT PUSH2 0xE8 JUMPI PUSH2 0x100 DUP1 DUP4 SLOAD DIV MUL DUP4 MSTORE SWAP2 PUSH1 0x20 ADD SWAP2 PUSH2 0x113 JUMP JUMPDEST DUP3 ADD SWAP2 SWAP1 PUSH1 0x0 MSTORE PUSH1 0x20 PUSH1 0x0 KECCAK256 SWAP1 JUMPDEST DUP2 SLOAD DUP2 MSTORE SWAP1 PUSH1 0x1 ADD SWAP1 PUSH1 0x20 ADD DUP1 DUP4 GT PUSH2 0xF6 JUMPI DUP3 SWAP1 SUB PUSH1 0x1F AND DUP3 ADD SWAP2 JUMPDEST POP POP POP POP POP DUP2 MSTORE PUSH1 0x20 ADD PUSH1 0x1 DUP3 ADD SLOAD DUP2 MSTORE PUSH1 0x20 ADD PUSH1 0x2 DUP3 ADD SLOAD DUP2 MSTORE PUSH1 0x20 ADD PUSH1 0x3 DUP3 ADD DUP1 SLOAD PUSH2 0x140 SWAP1 PUSH2 0x5D2 JUMP JUMPDEST DUP1 PUSH1 0x1F ADD PUSH1 0x20 DUP1 SWAP2 DIV MUL PUSH1 0x20 ADD PUSH1 0x40 MLOAD SWAP1 DUP2 ADD PUSH1 0x40 MSTORE DUP1 SWAP3 SWAP2 SWAP1 DUP2 DUP2 MSTORE PUSH1 0x20 ADD DUP3 DUP1 SLOAD PUSH2 0x16C SWAP1 PUSH2 0x5D2 JUMP JUMPDEST DUP1 ISZERO PUSH2 0x1B9 JUMPI DUP1 PUSH1 0x1F LT PUSH2 0x18E JUMPI PUSH2 0x100 DUP1 DUP4 SLOAD DIV MUL DUP4 MSTORE SWAP2 PUSH1 0x20 ADD SWAP2 PUSH2 0x1B9 JUMP JUMPDEST DUP3 ADD SWAP2 SWAP1 PUSH1 0x0 MSTORE PUSH1 0x20 PUSH1 0x0 KECCAK256 SWAP1 JUMPDEST DUP2 SLOAD DUP2 MSTORE SWAP1 PUSH1 0x1 ADD SWAP1 PUSH1 0x20 ADD DUP1 DUP4 GT PUSH2 0x19C JUMPI DUP3 SWAP1 SUB PUSH1 0x1F AND DUP3 ADD SWAP2 JUMPDEST POP POP POP POP POP DUP2 MSTORE POP POP SWAP1 POP SWAP1 JUMP JUMPDEST PUSH1 0x40 MLOAD DUP1 PUSH1 0x80 ADD PUSH1 0x40 MSTORE DUP1 DUP6 DUP2 MSTORE PUSH1 0x20 ADD DUP5 DUP2 MSTORE PUSH1 0x20 ADD DUP4 DUP2 MSTORE PUSH1 0x20 ADD DUP3 DUP2 MSTORE POP PUSH1 0x0 DUP1 DUP3 ADD MLOAD DUP2 PUSH1 0x0 ADD SWAP1 DUP2 PUSH2 0x1FE SWAP2 SWAP1 PUSH2 0x7AF JUMP JUMPDEST POP PUSH1 0x20 DUP3 ADD MLOAD DUP2 PUSH1 0x1 ADD SSTORE PUSH1 0x40 DUP3 ADD MLOAD DUP2 PUSH1 0x2 ADD SSTORE PUSH1 0x60 DUP3 ADD MLOAD DUP2 PUSH1 0x3 ADD SWAP1 DUP2 PUSH2 0x228 SWAP2 SWAP1 PUSH2 0x7AF JUMP JUMPDEST POP SWAP1 POP POP POP POP POP POP JUMP JUMPDEST PUSH1 0x40 MLOAD DUP1 PUSH1 0x80 ADD PUSH1 0x40 MSTORE DUP1 PUSH1 0x60 DUP2 MSTORE PUSH1 0x20 ADD PUSH1 0x0 DUP2 MSTORE PUSH1 0x20 ADD PUSH1 0x0 DUP2 MSTORE PUSH1 0x20 ADD PUSH1 0x60 DUP2 MSTORE POP SWAP1 JUMP JUMPDEST PUSH1 0x0 DUP2 MLOAD SWAP1 POP SWAP2 SWAP1 POP JUMP JUMPDEST PUSH1 0x0 DUP3 DUP3 MSTORE PUSH1 0x20 DUP3 ADD SWAP1 POP SWAP3 SWAP2 POP POP JUMP JUMPDEST PUSH1 0x0 JUMPDEST DUP4 DUP2 LT ISZERO PUSH2 0x294 JUMPI DUP1 DUP3 ADD MLOAD DUP2 DUP5 ADD MSTORE PUSH1 0x20 DUP2 ADD SWAP1 POP PUSH2 0x279 JUMP JUMPDEST PUSH1 0x0 DUP5 DUP5 ADD MSTORE POP POP POP POP JUMP JUMPDEST PUSH1 0x0 PUSH1 0x1F NOT PUSH1 0x1F DUP4 ADD AND SWAP1 POP SWAP2 SWAP1 POP JUMP JUMPDEST PUSH1 0x0 PUSH2 0x2BC DUP3 PUSH2 0x25A JUMP JUMPDEST PUSH2 0x2C6 DUP2 DUP6 PUSH2 0x265 JUMP JUMPDEST SWAP4 POP PUSH2 0x2D6 DUP2 DUP6 PUSH1 0x20 DUP7 ADD PUSH2 0x276 JUMP JUMPDEST PUSH2 0x2DF DUP2 PUSH2 0x2A0 JUMP JUMPDEST DUP5 ADD SWAP2 POP POP SWAP3 SWAP2 POP POP JUMP JUMPDEST PUSH1 0x0 DUP2 SWAP1 POP SWAP2 SWAP1 POP JUMP JUMPDEST PUSH2 0x2FD DUP2 PUSH2 0x2EA JUMP JUMPDEST DUP3 MSTORE POP POP JUMP JUMPDEST PUSH1 0x0 PUSH1 0x80 DUP4 ADD PUSH1 0x0 DUP4 ADD MLOAD DUP5 DUP3 SUB PUSH1 0x0 DUP7 ADD MSTORE PUSH2 0x320 DUP3 DUP3 PUSH2 0x2B1 JUMP JUMPDEST SWAP2 POP POP PUSH1 0x20 DUP4 ADD MLOAD PUSH2 0x335 PUSH1 0x20 DUP7 ADD DUP3 PUSH2 0x2F4 JUMP JUMPDEST POP PUSH1 0x40 DUP4 ADD MLOAD PUSH2 0x348 PUSH1 0x40 DUP7 ADD DUP3 PUSH2 0x2F4 JUMP JUMPDEST POP PUSH1 0x60 DUP4 ADD MLOAD DUP5 DUP3 SUB PUSH1 0x60 DUP7 ADD MSTORE PUSH2 0x360 DUP3 DUP3 PUSH2 0x2B1 JUMP JUMPDEST SWAP2 POP POP DUP1 SWAP2 POP POP SWAP3 SWAP2 POP POP JUMP JUMPDEST PUSH1 0x0 PUSH1 0x20 DUP3 ADD SWAP1 POP DUP2 DUP2 SUB PUSH1 0x0 DUP4 ADD MSTORE PUSH2 0x387 DUP2 DUP5 PUSH2 0x303 JUMP JUMPDEST SWAP1 POP SWAP3 SWAP2 POP POP JUMP JUMPDEST PUSH1 0x0 PUSH1 0x40 MLOAD SWAP1 POP SWAP1 JUMP JUMPDEST PUSH1 0x0 DUP1 REVERT JUMPDEST PUSH1 0x0 DUP1 REVERT JUMPDEST PUSH1 0x0 DUP1 REVERT JUMPDEST PUSH1 0x0 DUP1 REVERT JUMPDEST PUSH32 0x4E487B7100000000000000000000000000000000000000000000000000000000 PUSH1 0x0 MSTORE PUSH1 0x41 PUSH1 0x4 MSTORE PUSH1 0x24 PUSH1 0x0 REVERT JUMPDEST PUSH2 0x3E5 DUP3 PUSH2 0x2A0 JUMP JUMPDEST DUP2 ADD DUP2 DUP2 LT PUSH8 0xFFFFFFFFFFFFFFFF DUP3 GT OR ISZERO PUSH2 0x404 JUMPI PUSH2 0x403 PUSH2 0x3AD JUMP JUMPDEST JUMPDEST DUP1 PUSH1 0x40 MSTORE POP POP POP JUMP JUMPDEST PUSH1 0x0 PUSH2 0x417 PUSH2 0x38F JUMP JUMPDEST SWAP1 POP PUSH2 0x423 DUP3 DUP3 PUSH2 0x3DC JUMP JUMPDEST SWAP2 SWAP1 POP JUMP JUMPDEST PUSH1 0x0 PUSH8 0xFFFFFFFFFFFFFFFF DUP3 GT ISZERO PUSH2 0x443 JUMPI PUSH2 0x442 PUSH2 0x3AD JUMP JUMPDEST JUMPDEST PUSH2 0x44C DUP3 PUSH2 0x2A0 JUMP JUMPDEST SWAP1 POP PUSH1 0x20 DUP2 ADD SWAP1 POP SWAP2 SWAP1 POP JUMP JUMPDEST DUP3 DUP2 DUP4 CALLDATACOPY PUSH1 0x0 DUP4 DUP4 ADD MSTORE POP POP POP JUMP JUMPDEST PUSH1 0x0 PUSH2 0x47B PUSH2 0x476 DUP5 PUSH2 0x428 JUMP JUMPDEST PUSH2 0x40D JUMP JUMPDEST SWAP1 POP DUP3 DUP2 MSTORE PUSH1 0x20 DUP2 ADD DUP5 DUP5 DUP5 ADD GT ISZERO PUSH2 0x497 JUMPI PUSH2 0x496 PUSH2 0x3A8 JUMP JUMPDEST JUMPDEST PUSH2 0x4A2 DUP5 DUP3 DUP6 PUSH2 0x459 JUMP JUMPDEST POP SWAP4 SWAP3 POP POP POP JUMP JUMPDEST PUSH1 0x0 DUP3 PUSH1 0x1F DUP4 ADD SLT PUSH2 0x4BF JUMPI PUSH2 0x4BE PUSH2 0x3A3 JUMP JUMPDEST JUMPDEST DUP2 CALLDATALOAD PUSH2 0x4CF DUP5 DUP3 PUSH1 0x20 DUP7 ADD PUSH2 0x468 JUMP JUMPDEST SWAP2 POP POP SWAP3 SWAP2 POP POP JUMP JUMPDEST PUSH2 0x4E1 DUP2 PUSH2 0x2EA JUMP JUMPDEST DUP2 EQ PUSH2 0x4EC JUMPI PUSH1 0x0 DUP1 REVERT JUMPDEST POP JUMP JUMPDEST PUSH1 0x0 DUP2 CALLDATALOAD SWAP1 POP PUSH2 0x4FE DUP2 PUSH2 0x4D8 JUMP JUMPDEST SWAP3 SWAP2 POP POP JUMP JUMPDEST PUSH1 0x0 DUP1 PUSH1 0x0 DUP1 PUSH1 0x80 DUP6 DUP8 SUB SLT ISZERO PUSH2 0x51E JUMPI PUSH2 0x51D PUSH2 0x399 JUMP JUMPDEST JUMPDEST PUSH1 0x0 DUP6 ADD CALLDATALOAD PUSH8 0xFFFFFFFFFFFFFFFF DUP2 GT ISZERO PUSH2 0x53C JUMPI PUSH2 0x53B PUSH2 0x39E JUMP JUMPDEST JUMPDEST PUSH2 0x548 DUP8 DUP3 DUP9 ADD PUSH2 0x4AA JUMP JUMPDEST SWAP5 POP POP PUSH1 0x20 PUSH2 0x559 DUP8 DUP3 DUP9 ADD PUSH2 0x4EF JUMP JUMPDEST SWAP4 POP POP PUSH1 0x40 PUSH2 0x56A DUP8 DUP3 DUP9 ADD PUSH2 0x4EF JUMP JUMPDEST SWAP3 POP POP PUSH1 0x60 DUP6 ADD CALLDATALOAD PUSH8 0xFFFFFFFFFFFFFFFF DUP2 GT ISZERO PUSH2 0x58B JUMPI PUSH2 0x58A PUSH2 0x39E JUMP JUMPDEST JUMPDEST PUSH2 0x597 DUP8 DUP3 DUP9 ADD PUSH2 0x4AA JUMP JUMPDEST SWAP2 POP POP SWAP3 SWAP6 SWAP2 SWAP5 POP SWAP3 POP JUMP JUMPDEST PUSH32 0x4E487B7100000000000000000000000000000000000000000000000000000000 PUSH1 0x0 MSTORE PUSH1 0x22 PUSH1 0x4 MSTORE PUSH1 0x24 PUSH1 0x0 REVERT JUMPDEST PUSH1 0x0 PUSH1 0x2 DUP3 DIV SWAP1 POP PUSH1 0x1 DUP3 AND DUP1 PUSH2 0x5EA JUMPI PUSH1 0x7F DUP3 AND SWAP2 POP JUMPDEST PUSH1 0x20 DUP3 LT DUP2 SUB PUSH2 0x5FD JUMPI PUSH2 0x5FC PUSH2 0x5A3 JUMP JUMPDEST JUMPDEST POP SWAP2 SWAP1 POP JUMP JUMPDEST PUSH1 0x0 DUP2 SWAP1 POP DUP2 PUSH1 0x0 MSTORE PUSH1 0x20 PUSH1 0x0 KECCAK256 SWAP1 POP SWAP2 SWAP1 POP JUMP JUMPDEST PUSH1 0x0 PUSH1 0x20 PUSH1 0x1F DUP4 ADD DIV SWAP1 POP SWAP2 SWAP1 POP JUMP JUMPDEST PUSH1 0x0 DUP3 DUP3 SHL SWAP1 POP SWAP3 SWAP2 POP POP JUMP JUMPDEST PUSH1 0x0 PUSH1 0x8 DUP4 MUL PUSH2 0x665 PUSH32 0xFFFFFFFFFFFFFFFFFFFFFFFFFFFFFFFFFFFFFFFFFFFFFFFFFFFFFFFFFFFFFFFF DUP3 PUSH2 0x628 JUMP JUMPDEST PUSH2 0x66F DUP7 DUP4 PUSH2 0x628 JUMP JUMPDEST SWAP6 POP DUP1 NOT DUP5 AND SWAP4 POP DUP1 DUP7 AND DUP5 OR SWAP3 POP POP POP SWAP4 SWAP3 POP POP POP JUMP JUMPDEST PUSH1 0x0 DUP2 SWAP1 POP SWAP2 SWAP1 POP JUMP JUMPDEST PUSH1 0x0 PUSH2 0x6AC PUSH2 0x6A7 PUSH2 0x6A2 DUP5 PUSH2 0x2EA JUMP JUMPDEST PUSH2 0x687 JUMP JUMPDEST PUSH2 0x2EA JUMP JUMPDEST SWAP1 POP SWAP2 SWAP1 POP JUMP JUMPDEST PUSH1 0x0 DUP2 SWAP1 POP SWAP2 SWAP1 POP JUMP JUMPDEST PUSH2 0x6C6 DUP4 PUSH2 0x691 JUMP JUMPDEST PUSH2 0x6DA PUSH2 0x6D2 DUP3 PUSH2 0x6B3 JUMP JUMPDEST DUP5 DUP5 SLOAD PUSH2 0x635 JUMP JUMPDEST DUP3 SSTORE POP POP POP POP JUMP JUMPDEST PUSH1 0x0 SWAP1 JUMP JUMPDEST PUSH2 0x6EF PUSH2 0x6E2 JUMP JUMPDEST PUSH2 0x6FA DUP2 DUP5 DUP5 PUSH2 0x6BD JUMP JUMPDEST POP POP POP JUMP JUMPDEST JUMPDEST DUP2 DUP2 LT ISZERO PUSH2 0x71E JUMPI PUSH2 0x713 PUSH1 0x0 DUP3 PUSH2 0x6E7 JUMP JUMPDEST PUSH1 0x1 DUP2 ADD SWAP1 POP PUSH2 0x700 JUMP JUMPDEST POP POP JUMP JUMPDEST PUSH1 0x1F DUP3 GT ISZERO PUSH2 0x763 JUMPI PUSH2 0x734 DUP2 PUSH2 0x603 JUMP JUMPDEST PUSH2 0x73D DUP5 PUSH2 0x618 JUMP JUMPDEST DUP2 ADD PUSH1 0x20 DUP6 LT ISZERO PUSH2 0x74C JUMPI DUP2 SWAP1 POP JUMPDEST PUSH2 0x760 PUSH2 0x758 DUP6 PUSH2 0x618 JUMP JUMPDEST DUP4 ADD DUP3 PUSH2 0x6FF JUMP JUMPDEST POP POP JUMPDEST POP POP POP JUMP JUMPDEST PUSH1 0x0 DUP3 DUP3 SHR SWAP1 POP SWAP3 SWAP2 POP POP JUMP JUMPDEST PUSH1 0x0 PUSH2 0x786 PUSH1 0x0 NOT DUP5 PUSH1 0x8 MUL PUSH2 0x768 JUMP JUMPDEST NOT DUP1 DUP4 AND SWAP2 POP POP SWAP3 SWAP2 POP POP JUMP JUMPDEST PUSH1 0x0 PUSH2 0x79F DUP4 DUP4 PUSH2 0x775 JUMP JUMPDEST SWAP2 POP DUP3 PUSH1 0x2 MUL DUP3 OR SWAP1 POP SWAP3 SWAP2 POP POP JUMP JUMPDEST PUSH2 0x7B8 DUP3 PUSH2 0x25A JUMP JUMPDEST PUSH8 0xFFFFFFFFFFFFFFFF DUP2 GT ISZERO PUSH2 0x7D1 JUMPI PUSH2 0x7D0 PUSH2 0x3AD JUMP JUMPDEST JUMPDEST PUSH2 0x7DB DUP3 SLOAD PUSH2 0x5D2 JUMP JUMPDEST PUSH2 0x7E6 DUP3 DUP3 DUP6 PUSH2 0x722 JUMP JUMPDEST PUSH1 0x0 PUSH1 0x20 SWAP1 POP PUSH1 0x1F DUP4 GT PUSH1 0x1 DUP2 EQ PUSH2 0x819 JUMPI PUSH1 0x0 DUP5 ISZERO PUSH2 0x807 JUMPI DUP3 DUP8 ADD MLOAD SWAP1 POP JUMPDEST PUSH2 0x811 DUP6 DUP3 PUSH2 0x793 JUMP JUMPDEST DUP7 SSTORE POP PUSH2 0x879 JUMP JUMPDEST PUSH1 0x1F NOT DUP5 AND PUSH2 0x827 DUP7 PUSH2 0x603 JUMP JUMPDEST PUSH1 0x0 JUMPDEST DUP3 DUP2 LT ISZERO PUSH2 0x84F JUMPI DUP5 DUP10 ADD MLOAD DUP3 SSTORE PUSH1 0x1 DUP3 ADD SWAP2 POP PUSH1 0x20 DUP6 ADD SWAP5 POP PUSH1 0x20 DUP2 ADD SWAP1 POP PUSH2 0x82A JUMP JUMPDEST DUP7 DUP4 LT ISZERO PUSH2 0x86C JUMPI DUP5 DUP10 ADD MLOAD PUSH2 0x868 PUSH1 0x1F DUP10 AND DUP3 PUSH2 0x775 JUMP JUMPDEST DUP4 SSTORE POP JUMPDEST PUSH1 0x1 PUSH1 0x2 DUP9 MUL ADD DUP9 SSTORE POP POP POP JUMPDEST POP POP POP POP POP POP JUMP INVALID LOG2 PUSH5 0x6970667358 0x22 SLT KECCAK256 EXTCODEHASH 0xAD 0xE8 LOG2 PUSH21 0x5001E43471818CD44E26F4A2246EE11BB3EF41E1AA STATICCALL 0xDD DUP5 0xC0 CALL PUSH12 0x64736F6C6343000812003300 "
		},
		"gasEstimates": {
			"creation": {
				"codeDepositCost": "446200",
				"executionCost": "480",
				"totalCost": "446680"
			},
			"external": {
				"getFund()": "infinite",
				"setFund(string,uint256,uint256,string)": "infinite"
			}
		},
		"methodIdentifiers": {
			"getFund()": "8edd6eb6",
			"setFund(string,uint256,uint256,string)": "d6e76990"
		}
	},
	"abi": [
		{
			"inputs": [],
			"name": "getFund",
			"outputs": [
				{
					"components": [
						{
							"internalType": "string",
							"name": "name",
							"type": "string"
						},
						{
							"internalType": "uint256",
							"name": "startDay",
							"type": "uint256"
						},
						{
							"internalType": "uint256",
							"name": "endDay",
							"type": "uint256"
						},
						{
							"internalType": "string",
							"name": "FundingID",
							"type": "string"
						}
					],
					"internalType": "struct FUND.funding",
					"name": "",
					"type": "tuple"
				}
			],
			"stateMutability": "view",
			"type": "function"
		},
		{
			"inputs": [
				{
					"internalType": "string",
					"name": "_name",
					"type": "string"
				},
				{
					"internalType": "uint256",
					"name": "_startDay",
					"type": "uint256"
				},
				{
					"internalType": "uint256",
					"name": "_endDay",
					"type": "uint256"
				},
				{
					"internalType": "string",
					"name": "_FundingID",
					"type": "string"
				}
			],
			"name": "setFund",
			"outputs": [],
			"stateMutability": "nonpayable",
			"type": "function"
		}
	]
}