{
	"contracts/0510/Note.sol": {
		"ENUM2": {
			"abi": [
				{
					"inputs": [],
					"name": "getC",
					"outputs": [
						{
							"internalType": "enum ENUM2.color",
							"name": "",
							"type": "uint8"
						}
					],
					"stateMutability": "view",
					"type": "function"
				},
				{
					"inputs": [],
					"name": "setC",
					"outputs": [],
					"stateMutability": "nonpayable",
					"type": "function"
				},
				{
					"inputs": [
						{
							"internalType": "uint256",
							"name": "_n",
							"type": "uint256"
						}
					],
					"name": "setC2",
					"outputs": [],
					"stateMutability": "nonpayable",
					"type": "function"
				}
			],
			"devdoc": {
				"kind": "dev",
				"methods": {},
				"version": 1
			},
			"evm": {
				"assembly": "    /* \"contracts/0510/Note.sol\":6427:6810  contract ENUM2 {... */\n  mstore(0x40, 0x80)\n  callvalue\n  dup1\n  iszero\n  tag_1\n  jumpi\n  0x00\n  dup1\n  revert\ntag_1:\n  pop\n  dataSize(sub_0)\n  dup1\n  dataOffset(sub_0)\n  0x00\n  codecopy\n  0x00\n  return\nstop\n\nsub_0: assembly {\n        /* \"contracts/0510/Note.sol\":6427:6810  contract ENUM2 {... */\n      mstore(0x40, 0x80)\n      callvalue\n      dup1\n      iszero\n      tag_1\n      jumpi\n      0x00\n      dup1\n      revert\n    tag_1:\n      pop\n      jumpi(tag_2, lt(calldatasize, 0x04))\n      shr(0xe0, calldataload(0x00))\n      dup1\n      0x2231742e\n      eq\n      tag_3\n      jumpi\n      dup1\n      0x73af6082\n      eq\n      tag_4\n      jumpi\n      dup1\n      0xa2375d1e\n      eq\n      tag_5\n      jumpi\n    tag_2:\n      0x00\n      dup1\n      revert\n        /* \"contracts/0510/Note.sol\":6661:6726  function setC2(uint _n) public {... */\n    tag_3:\n      tag_6\n      0x04\n      dup1\n      calldatasize\n      sub\n      dup2\n      add\n      swap1\n      tag_7\n      swap2\n      swap1\n      tag_8\n      jump\t// in\n    tag_7:\n      tag_9\n      jump\t// in\n    tag_6:\n      stop\n        /* \"contracts/0510/Note.sol\":6594:6652  function setC() public {... */\n    tag_4:\n      tag_10\n      tag_11\n      jump\t// in\n    tag_10:\n      stop\n        /* \"contracts/0510/Note.sol\":6735:6807  function getC() public view returns (color){... */\n    tag_5:\n      tag_12\n      tag_13\n      jump\t// in\n    tag_12:\n      mload(0x40)\n      tag_14\n      swap2\n      swap1\n      tag_15\n      jump\t// in\n    tag_14:\n      mload(0x40)\n      dup1\n      swap2\n      sub\n      swap1\n      return\n        /* \"contracts/0510/Note.sol\":6661:6726  function setC2(uint _n) public {... */\n    tag_9:\n        /* \"contracts/0510/Note.sol\":6714:6716  _n */\n      dup1\n        /* \"contracts/0510/Note.sol\":6708:6717  color(_n) */\n      0x05\n      dup2\n      gt\n      iszero\n      tag_17\n      jumpi\n      tag_18\n      tag_19\n      jump\t// in\n    tag_18:\n    tag_17:\n        /* \"contracts/0510/Note.sol\":6704:6705  c */\n      0x00\n      dup1\n        /* \"contracts/0510/Note.sol\":6704:6717  c = color(_n) */\n      0x0100\n      exp\n      dup2\n      sload\n      dup2\n      0xff\n      mul\n      not\n      and\n      swap1\n      dup4\n      0x05\n      dup2\n      gt\n      iszero\n      tag_20\n      jumpi\n      tag_21\n      tag_19\n      jump\t// in\n    tag_21:\n    tag_20:\n      mul\n      or\n      swap1\n      sstore\n      pop\n        /* \"contracts/0510/Note.sol\":6661:6726  function setC2(uint _n) public {... */\n      pop\n      jump\t// out\n        /* \"contracts/0510/Note.sol\":6594:6652  function setC() public {... */\n    tag_11:\n        /* \"contracts/0510/Note.sol\":6633:6643  color.blue */\n      0x03\n        /* \"contracts/0510/Note.sol\":6629:6630  c */\n      0x00\n      dup1\n        /* \"contracts/0510/Note.sol\":6629:6643  c = color.blue */\n      0x0100\n      exp\n      dup2\n      sload\n      dup2\n      0xff\n      mul\n      not\n      and\n      swap1\n      dup4\n      0x05\n      dup2\n      gt\n      iszero\n      tag_23\n      jumpi\n      tag_24\n      tag_19\n      jump\t// in\n    tag_24:\n    tag_23:\n      mul\n      or\n      swap1\n      sstore\n      pop\n        /* \"contracts/0510/Note.sol\":6594:6652  function setC() public {... */\n      jump\t// out\n        /* \"contracts/0510/Note.sol\":6735:6807  function getC() public view returns (color){... */\n    tag_13:\n        /* \"contracts/0510/Note.sol\":6772:6777  color */\n      0x00\n        /* \"contracts/0510/Note.sol\":6797:6798  c */\n      dup1\n      0x00\n      swap1\n      sload\n      swap1\n      0x0100\n      exp\n      swap1\n      div\n      0xff\n      and\n        /* \"contracts/0510/Note.sol\":6790:6798  return c */\n      swap1\n      pop\n        /* \"contracts/0510/Note.sol\":6735:6807  function getC() public view returns (color){... */\n      swap1\n      jump\t// out\n        /* \"#utility.yul\":88:205   */\n    tag_27:\n        /* \"#utility.yul\":197:198   */\n      0x00\n        /* \"#utility.yul\":194:195   */\n      dup1\n        /* \"#utility.yul\":187:199   */\n      revert\n        /* \"#utility.yul\":334:411   */\n    tag_29:\n        /* \"#utility.yul\":371:378   */\n      0x00\n        /* \"#utility.yul\":400:405   */\n      dup2\n        /* \"#utility.yul\":389:405   */\n      swap1\n      pop\n        /* \"#utility.yul\":334:411   */\n      swap2\n      swap1\n      pop\n      jump\t// out\n        /* \"#utility.yul\":417:539   */\n    tag_30:\n        /* \"#utility.yul\":490:514   */\n      tag_42\n        /* \"#utility.yul\":508:513   */\n      dup2\n        /* \"#utility.yul\":490:514   */\n      tag_29\n      jump\t// in\n    tag_42:\n        /* \"#utility.yul\":483:488   */\n      dup2\n        /* \"#utility.yul\":480:515   */\n      eq\n        /* \"#utility.yul\":470:533   */\n      tag_43\n      jumpi\n        /* \"#utility.yul\":529:530   */\n      0x00\n        /* \"#utility.yul\":526:527   */\n      dup1\n        /* \"#utility.yul\":519:531   */\n      revert\n        /* \"#utility.yul\":470:533   */\n    tag_43:\n        /* \"#utility.yul\":417:539   */\n      pop\n      jump\t// out\n        /* \"#utility.yul\":545:684   */\n    tag_31:\n        /* \"#utility.yul\":591:596   */\n      0x00\n        /* \"#utility.yul\":629:635   */\n      dup2\n        /* \"#utility.yul\":616:636   */\n      calldataload\n        /* \"#utility.yul\":607:636   */\n      swap1\n      pop\n        /* \"#utility.yul\":645:678   */\n      tag_45\n        /* \"#utility.yul\":672:677   */\n      dup2\n        /* \"#utility.yul\":645:678   */\n      tag_30\n      jump\t// in\n    tag_45:\n        /* \"#utility.yul\":545:684   */\n      swap3\n      swap2\n      pop\n      pop\n      jump\t// out\n        /* \"#utility.yul\":690:1019   */\n    tag_8:\n        /* \"#utility.yul\":749:755   */\n      0x00\n        /* \"#utility.yul\":798:800   */\n      0x20\n        /* \"#utility.yul\":786:795   */\n      dup3\n        /* \"#utility.yul\":777:784   */\n      dup5\n        /* \"#utility.yul\":773:796   */\n      sub\n        /* \"#utility.yul\":769:801   */\n      slt\n        /* \"#utility.yul\":766:885   */\n      iszero\n      tag_47\n      jumpi\n        /* \"#utility.yul\":804:883   */\n      tag_48\n      tag_27\n      jump\t// in\n    tag_48:\n        /* \"#utility.yul\":766:885   */\n    tag_47:\n        /* \"#utility.yul\":924:925   */\n      0x00\n        /* \"#utility.yul\":949:1002   */\n      tag_49\n        /* \"#utility.yul\":994:1001   */\n      dup5\n        /* \"#utility.yul\":985:991   */\n      dup3\n        /* \"#utility.yul\":974:983   */\n      dup6\n        /* \"#utility.yul\":970:992   */\n      add\n        /* \"#utility.yul\":949:1002   */\n      tag_31\n      jump\t// in\n    tag_49:\n        /* \"#utility.yul\":939:1002   */\n      swap2\n      pop\n        /* \"#utility.yul\":895:1012   */\n      pop\n        /* \"#utility.yul\":690:1019   */\n      swap3\n      swap2\n      pop\n      pop\n      jump\t// out\n        /* \"#utility.yul\":1025:1205   */\n    tag_19:\n        /* \"#utility.yul\":1073:1150   */\n      0x4e487b7100000000000000000000000000000000000000000000000000000000\n        /* \"#utility.yul\":1070:1071   */\n      0x00\n        /* \"#utility.yul\":1063:1151   */\n      mstore\n        /* \"#utility.yul\":1170:1174   */\n      0x21\n        /* \"#utility.yul\":1167:1168   */\n      0x04\n        /* \"#utility.yul\":1160:1175   */\n      mstore\n        /* \"#utility.yul\":1194:1198   */\n      0x24\n        /* \"#utility.yul\":1191:1192   */\n      0x00\n        /* \"#utility.yul\":1184:1199   */\n      revert\n        /* \"#utility.yul\":1211:1325   */\n    tag_32:\n        /* \"#utility.yul\":1293:1294   */\n      0x06\n        /* \"#utility.yul\":1286:1291   */\n      dup2\n        /* \"#utility.yul\":1283:1295   */\n      lt\n        /* \"#utility.yul\":1273:1319   */\n      tag_52\n      jumpi\n        /* \"#utility.yul\":1299:1317   */\n      tag_53\n      tag_19\n      jump\t// in\n    tag_53:\n        /* \"#utility.yul\":1273:1319   */\n    tag_52:\n        /* \"#utility.yul\":1211:1325   */\n      pop\n      jump\t// out\n        /* \"#utility.yul\":1331:1460   */\n    tag_33:\n        /* \"#utility.yul\":1377:1384   */\n      0x00\n        /* \"#utility.yul\":1406:1411   */\n      dup2\n        /* \"#utility.yul\":1395:1411   */\n      swap1\n      pop\n        /* \"#utility.yul\":1412:1454   */\n      tag_55\n        /* \"#utility.yul\":1448:1453   */\n      dup3\n        /* \"#utility.yul\":1412:1454   */\n      tag_32\n      jump\t// in\n    tag_55:\n        /* \"#utility.yul\":1331:1460   */\n      swap2\n      swap1\n      pop\n      jump\t// out\n        /* \"#utility.yul\":1466:1595   */\n    tag_34:\n        /* \"#utility.yul\":1523:1532   */\n      0x00\n        /* \"#utility.yul\":1556:1589   */\n      tag_57\n        /* \"#utility.yul\":1583:1588   */\n      dup3\n        /* \"#utility.yul\":1556:1589   */\n      tag_33\n      jump\t// in\n    tag_57:\n        /* \"#utility.yul\":1543:1589   */\n      swap1\n      pop\n        /* \"#utility.yul\":1466:1595   */\n      swap2\n      swap1\n      pop\n      jump\t// out\n        /* \"#utility.yul\":1601:1746   */\n    tag_35:\n        /* \"#utility.yul\":1695:1739   */\n      tag_59\n        /* \"#utility.yul\":1733:1738   */\n      dup2\n        /* \"#utility.yul\":1695:1739   */\n      tag_34\n      jump\t// in\n    tag_59:\n        /* \"#utility.yul\":1690:1693   */\n      dup3\n        /* \"#utility.yul\":1683:1740   */\n      mstore\n        /* \"#utility.yul\":1601:1746   */\n      pop\n      pop\n      jump\t// out\n        /* \"#utility.yul\":1752:1988   */\n    tag_15:\n        /* \"#utility.yul\":1852:1856   */\n      0x00\n        /* \"#utility.yul\":1890:1892   */\n      0x20\n        /* \"#utility.yul\":1879:1888   */\n      dup3\n        /* \"#utility.yul\":1875:1893   */\n      add\n        /* \"#utility.yul\":1867:1893   */\n      swap1\n      pop\n        /* \"#utility.yul\":1903:1981   */\n      tag_61\n        /* \"#utility.yul\":1978:1979   */\n      0x00\n        /* \"#utility.yul\":1967:1976   */\n      dup4\n        /* \"#utility.yul\":1963:1980   */\n      add\n        /* \"#utility.yul\":1954:1960   */\n      dup5\n        /* \"#utility.yul\":1903:1981   */\n      tag_35\n      jump\t// in\n    tag_61:\n        /* \"#utility.yul\":1752:1988   */\n      swap3\n      swap2\n      pop\n      pop\n      jump\t// out\n\n    auxdata: 0xa2646970667358221220e2b9023466fcecdaac18c42eec846871c073eed8b6495e76ed01e5edde52f9ee64736f6c63430008120033\n}\n",
				"bytecode": {
					"linkReferences": {},
					"object": "608060405234801561001057600080fd5b5061023a806100206000396000f3fe608060405234801561001057600080fd5b50600436106100415760003560e01c80632231742e1461004657806373af608214610062578063a2375d1e1461006c575b600080fd5b610060600480360381019061005b9190610145565b61008a565b005b61006a6100c8565b005b6100746100f4565b60405161008191906101e9565b60405180910390f35b80600581111561009d5761009c610172565b5b6000806101000a81548160ff021916908360058111156100c0576100bf610172565b5b021790555050565b60036000806101000a81548160ff021916908360058111156100ed576100ec610172565b5b0217905550565b60008060009054906101000a900460ff16905090565b600080fd5b6000819050919050565b6101228161010f565b811461012d57600080fd5b50565b60008135905061013f81610119565b92915050565b60006020828403121561015b5761015a61010a565b5b600061016984828501610130565b91505092915050565b7f4e487b7100000000000000000000000000000000000000000000000000000000600052602160045260246000fd5b600681106101b2576101b1610172565b5b50565b60008190506101c3826101a1565b919050565b60006101d3826101b5565b9050919050565b6101e3816101c8565b82525050565b60006020820190506101fe60008301846101da565b9291505056fea2646970667358221220e2b9023466fcecdaac18c42eec846871c073eed8b6495e76ed01e5edde52f9ee64736f6c63430008120033",
					"opcodes": "PUSH1 0x80 PUSH1 0x40 MSTORE CALLVALUE DUP1 ISZERO PUSH2 0x10 JUMPI PUSH1 0x0 DUP1 REVERT JUMPDEST POP PUSH2 0x23A DUP1 PUSH2 0x20 PUSH1 0x0 CODECOPY PUSH1 0x0 RETURN INVALID PUSH1 0x80 PUSH1 0x40 MSTORE CALLVALUE DUP1 ISZERO PUSH2 0x10 JUMPI PUSH1 0x0 DUP1 REVERT JUMPDEST POP PUSH1 0x4 CALLDATASIZE LT PUSH2 0x41 JUMPI PUSH1 0x0 CALLDATALOAD PUSH1 0xE0 SHR DUP1 PUSH4 0x2231742E EQ PUSH2 0x46 JUMPI DUP1 PUSH4 0x73AF6082 EQ PUSH2 0x62 JUMPI DUP1 PUSH4 0xA2375D1E EQ PUSH2 0x6C JUMPI JUMPDEST PUSH1 0x0 DUP1 REVERT JUMPDEST PUSH2 0x60 PUSH1 0x4 DUP1 CALLDATASIZE SUB DUP2 ADD SWAP1 PUSH2 0x5B SWAP2 SWAP1 PUSH2 0x145 JUMP JUMPDEST PUSH2 0x8A JUMP JUMPDEST STOP JUMPDEST PUSH2 0x6A PUSH2 0xC8 JUMP JUMPDEST STOP JUMPDEST PUSH2 0x74 PUSH2 0xF4 JUMP JUMPDEST PUSH1 0x40 MLOAD PUSH2 0x81 SWAP2 SWAP1 PUSH2 0x1E9 JUMP JUMPDEST PUSH1 0x40 MLOAD DUP1 SWAP2 SUB SWAP1 RETURN JUMPDEST DUP1 PUSH1 0x5 DUP2 GT ISZERO PUSH2 0x9D JUMPI PUSH2 0x9C PUSH2 0x172 JUMP JUMPDEST JUMPDEST PUSH1 0x0 DUP1 PUSH2 0x100 EXP DUP2 SLOAD DUP2 PUSH1 0xFF MUL NOT AND SWAP1 DUP4 PUSH1 0x5 DUP2 GT ISZERO PUSH2 0xC0 JUMPI PUSH2 0xBF PUSH2 0x172 JUMP JUMPDEST JUMPDEST MUL OR SWAP1 SSTORE POP POP JUMP JUMPDEST PUSH1 0x3 PUSH1 0x0 DUP1 PUSH2 0x100 EXP DUP2 SLOAD DUP2 PUSH1 0xFF MUL NOT AND SWAP1 DUP4 PUSH1 0x5 DUP2 GT ISZERO PUSH2 0xED JUMPI PUSH2 0xEC PUSH2 0x172 JUMP JUMPDEST JUMPDEST MUL OR SWAP1 SSTORE POP JUMP JUMPDEST PUSH1 0x0 DUP1 PUSH1 0x0 SWAP1 SLOAD SWAP1 PUSH2 0x100 EXP SWAP1 DIV PUSH1 0xFF AND SWAP1 POP SWAP1 JUMP JUMPDEST PUSH1 0x0 DUP1 REVERT JUMPDEST PUSH1 0x0 DUP2 SWAP1 POP SWAP2 SWAP1 POP JUMP JUMPDEST PUSH2 0x122 DUP2 PUSH2 0x10F JUMP JUMPDEST DUP2 EQ PUSH2 0x12D JUMPI PUSH1 0x0 DUP1 REVERT JUMPDEST POP JUMP JUMPDEST PUSH1 0x0 DUP2 CALLDATALOAD SWAP1 POP PUSH2 0x13F DUP2 PUSH2 0x119 JUMP JUMPDEST SWAP3 SWAP2 POP POP JUMP JUMPDEST PUSH1 0x0 PUSH1 0x20 DUP3 DUP5 SUB SLT ISZERO PUSH2 0x15B JUMPI PUSH2 0x15A PUSH2 0x10A JUMP JUMPDEST JUMPDEST PUSH1 0x0 PUSH2 0x169 DUP5 DUP3 DUP6 ADD PUSH2 0x130 JUMP JUMPDEST SWAP2 POP POP SWAP3 SWAP2 POP POP JUMP JUMPDEST PUSH32 0x4E487B7100000000000000000000000000000000000000000000000000000000 PUSH1 0x0 MSTORE PUSH1 0x21 PUSH1 0x4 MSTORE PUSH1 0x24 PUSH1 0x0 REVERT JUMPDEST PUSH1 0x6 DUP2 LT PUSH2 0x1B2 JUMPI PUSH2 0x1B1 PUSH2 0x172 JUMP JUMPDEST JUMPDEST POP JUMP JUMPDEST PUSH1 0x0 DUP2 SWAP1 POP PUSH2 0x1C3 DUP3 PUSH2 0x1A1 JUMP JUMPDEST SWAP2 SWAP1 POP JUMP JUMPDEST PUSH1 0x0 PUSH2 0x1D3 DUP3 PUSH2 0x1B5 JUMP JUMPDEST SWAP1 POP SWAP2 SWAP1 POP JUMP JUMPDEST PUSH2 0x1E3 DUP2 PUSH2 0x1C8 JUMP JUMPDEST DUP3 MSTORE POP POP JUMP JUMPDEST PUSH1 0x0 PUSH1 0x20 DUP3 ADD SWAP1 POP PUSH2 0x1FE PUSH1 0x0 DUP4 ADD DUP5 PUSH2 0x1DA JUMP JUMPDEST SWAP3 SWAP2 POP POP JUMP INVALID LOG2 PUSH5 0x6970667358 0x22 SLT KECCAK256 0xE2 0xB9 MUL CALLVALUE PUSH7 0xFCECDAAC18C42E 0xEC DUP5 PUSH9 0x71C073EED8B6495E76 0xED ADD 0xE5 0xED 0xDE MSTORE 0xF9 0xEE PUSH5 0x736F6C6343 STOP ADDMOD SLT STOP CALLER "
				},
				"gasEstimates": {
					"creation": {
						"codeDepositCost": "114000",
						"executionCost": "159",
						"totalCost": "114159"
					},
					"external": {
						"getC()": "2590",
						"setC()": "24431",
						"setC2(uint256)": "24697"
					}
				},
				"methodIdentifiers": {
					"getC()": "a2375d1e",
					"setC()": "73af6082",
					"setC2(uint256)": "2231742e"
				}
			},
			"storageLayout": {
				"storage": [
					{
						"astId": 703,
						"contract": "contracts/0510/Note.sol:ENUM2",
						"label": "c",
						"offset": 0,
						"slot": "0",
						"type": "t_enum(color)700"
					}
				],
				"types": {
					"t_enum(color)700": {
						"encoding": "inplace",
						"label": "enum ENUM2.color",
						"numberOfBytes": "1"
					}
				}
			},
			"userdoc": {
				"kind": "user",
				"methods": {},
				"version": 1
			}
		}
	}
}