{
	"contracts/0510/Note.sol": {
		"ENUM": {
			"abi": [
				{
					"inputs": [],
					"name": "getABC",
					"outputs": [
						{
							"internalType": "enum ENUM.Food",
							"name": "",
							"type": "uint8"
						},
						{
							"internalType": "enum ENUM.Food",
							"name": "",
							"type": "uint8"
						},
						{
							"internalType": "enum ENUM.Food",
							"name": "",
							"type": "uint8"
						}
					],
					"stateMutability": "view",
					"type": "function"
				},
				{
					"inputs": [],
					"name": "getABC2",
					"outputs": [
						{
							"internalType": "uint8",
							"name": "",
							"type": "uint8"
						},
						{
							"internalType": "uint8",
							"name": "",
							"type": "uint8"
						},
						{
							"internalType": "uint8",
							"name": "",
							"type": "uint8"
						}
					],
					"stateMutability": "view",
					"type": "function"
				},
				{
					"inputs": [],
					"name": "setA",
					"outputs": [],
					"stateMutability": "nonpayable",
					"type": "function"
				},
				{
					"inputs": [],
					"name": "setB",
					"outputs": [],
					"stateMutability": "nonpayable",
					"type": "function"
				},
				{
					"inputs": [],
					"name": "setC",
					"outputs": [],
					"stateMutability": "nonpayable",
					"type": "function"
				}
			],
			"devdoc": {
				"kind": "dev",
				"methods": {},
				"version": 1
			},
			"evm": {
				"assembly": "    /* \"contracts/0510/Note.sol\":5845:6423  contract ENUM {... */\n  mstore(0x40, 0x80)\n  callvalue\n  dup1\n  iszero\n  tag_1\n  jumpi\n  0x00\n  dup1\n  revert\ntag_1:\n  pop\n  dataSize(sub_0)\n  dup1\n  dataOffset(sub_0)\n  0x00\n  codecopy\n  0x00\n  return\nstop\n\nsub_0: assembly {\n        /* \"contracts/0510/Note.sol\":5845:6423  contract ENUM {... */\n      mstore(0x40, 0x80)\n      callvalue\n      dup1\n      iszero\n      tag_1\n      jumpi\n      0x00\n      dup1\n      revert\n    tag_1:\n      pop\n      jumpi(tag_2, lt(calldatasize, 0x04))\n      shr(0xe0, calldataload(0x00))\n      dup1\n      0x1fc376f7\n      eq\n      tag_3\n      jumpi\n      dup1\n      0x2b59115b\n      eq\n      tag_4\n      jumpi\n      dup1\n      0x73af6082\n      eq\n      tag_5\n      jumpi\n      dup1\n      0x87522f79\n      eq\n      tag_6\n      jumpi\n      dup1\n      0xd1f4ba82\n      eq\n      tag_7\n      jumpi\n    tag_2:\n      0x00\n      dup1\n      revert\n        /* \"contracts/0510/Note.sol\":6028:6086  function setA() public {... */\n    tag_3:\n      tag_8\n      tag_9\n      jump\t// in\n    tag_8:\n      stop\n        /* \"contracts/0510/Note.sol\":6306:6420  function getABC2() public view returns (uint8, uint8, uint8){... */\n    tag_4:\n      tag_10\n      tag_11\n      jump\t// in\n    tag_10:\n      mload(0x40)\n      tag_12\n      swap4\n      swap3\n      swap2\n      swap1\n      tag_13\n      jump\t// in\n    tag_12:\n      mload(0x40)\n      dup1\n      swap2\n      sub\n      swap1\n      return\n        /* \"contracts/0510/Note.sol\":6153:6206  function setC() public {... */\n    tag_5:\n      tag_14\n      tag_15\n      jump\t// in\n    tag_14:\n      stop\n        /* \"contracts/0510/Note.sol\":6213:6299  function getABC() public view returns(Food, Food, Food) {... */\n    tag_6:\n      tag_16\n      tag_17\n      jump\t// in\n    tag_16:\n      mload(0x40)\n      tag_18\n      swap4\n      swap3\n      swap2\n      swap1\n      tag_19\n      jump\t// in\n    tag_18:\n      mload(0x40)\n      dup1\n      swap2\n      sub\n      swap1\n      return\n        /* \"contracts/0510/Note.sol\":6093:6146  function setB() public {... */\n    tag_7:\n      tag_20\n      tag_21\n      jump\t// in\n    tag_20:\n      stop\n        /* \"contracts/0510/Note.sol\":6028:6086  function setA() public {... */\n    tag_9:\n        /* \"contracts/0510/Note.sol\":6066:6078  Food.Coconut */\n      0x03\n        /* \"contracts/0510/Note.sol\":6062:6063  a */\n      0x00\n      dup1\n        /* \"contracts/0510/Note.sol\":6062:6078  a = Food.Coconut */\n      0x0100\n      exp\n      dup2\n      sload\n      dup2\n      0xff\n      mul\n      not\n      and\n      swap1\n      dup4\n      0x03\n      dup2\n      gt\n      iszero\n      tag_23\n      jumpi\n      tag_24\n      tag_25\n      jump\t// in\n    tag_24:\n    tag_23:\n      mul\n      or\n      swap1\n      sstore\n      pop\n        /* \"contracts/0510/Note.sol\":6028:6086  function setA() public {... */\n      jump\t// out\n        /* \"contracts/0510/Note.sol\":6306:6420  function getABC2() public view returns (uint8, uint8, uint8){... */\n    tag_11:\n        /* \"contracts/0510/Note.sol\":6346:6351  uint8 */\n      0x00\n        /* \"contracts/0510/Note.sol\":6353:6358  uint8 */\n      dup1\n        /* \"contracts/0510/Note.sol\":6360:6365  uint8 */\n      0x00\n        /* \"contracts/0510/Note.sol\":6390:6391  a */\n      dup1\n      0x00\n      swap1\n      sload\n      swap1\n      0x0100\n      exp\n      swap1\n      div\n      0xff\n      and\n        /* \"contracts/0510/Note.sol\":6384:6392  uint8(a) */\n      0x03\n      dup2\n      gt\n      iszero\n      tag_27\n      jumpi\n      tag_28\n      tag_25\n      jump\t// in\n    tag_28:\n    tag_27:\n        /* \"contracts/0510/Note.sol\":6400:6401  b */\n      0x00\n      0x01\n      swap1\n      sload\n      swap1\n      0x0100\n      exp\n      swap1\n      div\n      0xff\n      and\n        /* \"contracts/0510/Note.sol\":6394:6402  uint8(b) */\n      0x03\n      dup2\n      gt\n      iszero\n      tag_29\n      jumpi\n      tag_30\n      tag_25\n      jump\t// in\n    tag_30:\n    tag_29:\n        /* \"contracts/0510/Note.sol\":6410:6411  c */\n      0x00\n      0x02\n      swap1\n      sload\n      swap1\n      0x0100\n      exp\n      swap1\n      div\n      0xff\n      and\n        /* \"contracts/0510/Note.sol\":6404:6412  uint8(c) */\n      0x03\n      dup2\n      gt\n      iszero\n      tag_31\n      jumpi\n      tag_32\n      tag_25\n      jump\t// in\n    tag_32:\n    tag_31:\n        /* \"contracts/0510/Note.sol\":6376:6413  return (uint8(a), uint8(b), uint8(c)) */\n      swap3\n      pop\n      swap3\n      pop\n      swap3\n      pop\n        /* \"contracts/0510/Note.sol\":6306:6420  function getABC2() public view returns (uint8, uint8, uint8){... */\n      swap1\n      swap2\n      swap3\n      jump\t// out\n        /* \"contracts/0510/Note.sol\":6153:6206  function setC() public {... */\n    tag_15:\n        /* \"contracts/0510/Note.sol\":6189:6199  Food.Bread */\n      0x02\n        /* \"contracts/0510/Note.sol\":6185:6186  c */\n      0x00\n      0x02\n        /* \"contracts/0510/Note.sol\":6185:6199  c = Food.Bread */\n      0x0100\n      exp\n      dup2\n      sload\n      dup2\n      0xff\n      mul\n      not\n      and\n      swap1\n      dup4\n      0x03\n      dup2\n      gt\n      iszero\n      tag_34\n      jumpi\n      tag_35\n      tag_25\n      jump\t// in\n    tag_35:\n    tag_34:\n      mul\n      or\n      swap1\n      sstore\n      pop\n        /* \"contracts/0510/Note.sol\":6153:6206  function setC() public {... */\n      jump\t// out\n        /* \"contracts/0510/Note.sol\":6213:6299  function getABC() public view returns(Food, Food, Food) {... */\n    tag_17:\n        /* \"contracts/0510/Note.sol\":6251:6255  Food */\n      0x00\n        /* \"contracts/0510/Note.sol\":6257:6261  Food */\n      dup1\n        /* \"contracts/0510/Note.sol\":6263:6267  Food */\n      0x00\n        /* \"contracts/0510/Note.sol\":6286:6287  a */\n      dup1\n      0x00\n      swap1\n      sload\n      swap1\n      0x0100\n      exp\n      swap1\n      div\n      0xff\n      and\n        /* \"contracts/0510/Note.sol\":6288:6289  b */\n      0x00\n      0x01\n      swap1\n      sload\n      swap1\n      0x0100\n      exp\n      swap1\n      div\n      0xff\n      and\n        /* \"contracts/0510/Note.sol\":6290:6291  c */\n      0x00\n      0x02\n      swap1\n      sload\n      swap1\n      0x0100\n      exp\n      swap1\n      div\n      0xff\n      and\n        /* \"contracts/0510/Note.sol\":6278:6292  return (a,b,c) */\n      swap3\n      pop\n      swap3\n      pop\n      swap3\n      pop\n        /* \"contracts/0510/Note.sol\":6213:6299  function getABC() public view returns(Food, Food, Food) {... */\n      swap1\n      swap2\n      swap3\n      jump\t// out\n        /* \"contracts/0510/Note.sol\":6093:6146  function setB() public {... */\n    tag_21:\n        /* \"contracts/0510/Note.sol\":6129:6139  Food.Suish */\n      0x01\n        /* \"contracts/0510/Note.sol\":6125:6126  b */\n      0x00\n      0x01\n        /* \"contracts/0510/Note.sol\":6125:6139  b = Food.Suish */\n      0x0100\n      exp\n      dup2\n      sload\n      dup2\n      0xff\n      mul\n      not\n      and\n      swap1\n      dup4\n      0x03\n      dup2\n      gt\n      iszero\n      tag_38\n      jumpi\n      tag_39\n      tag_25\n      jump\t// in\n    tag_39:\n    tag_38:\n      mul\n      or\n      swap1\n      sstore\n      pop\n        /* \"contracts/0510/Note.sol\":6093:6146  function setB() public {... */\n      jump\t// out\n        /* \"#utility.yul\":7:93   */\n    tag_40:\n        /* \"#utility.yul\":42:49   */\n      0x00\n        /* \"#utility.yul\":82:86   */\n      0xff\n        /* \"#utility.yul\":75:80   */\n      dup3\n        /* \"#utility.yul\":71:87   */\n      and\n        /* \"#utility.yul\":60:87   */\n      swap1\n      pop\n        /* \"#utility.yul\":7:93   */\n      swap2\n      swap1\n      pop\n      jump\t// out\n        /* \"#utility.yul\":99:211   */\n    tag_41:\n        /* \"#utility.yul\":182:204   */\n      tag_49\n        /* \"#utility.yul\":198:203   */\n      dup2\n        /* \"#utility.yul\":182:204   */\n      tag_40\n      jump\t// in\n    tag_49:\n        /* \"#utility.yul\":177:180   */\n      dup3\n        /* \"#utility.yul\":170:205   */\n      mstore\n        /* \"#utility.yul\":99:211   */\n      pop\n      pop\n      jump\t// out\n        /* \"#utility.yul\":217:635   */\n    tag_13:\n        /* \"#utility.yul\":354:358   */\n      0x00\n        /* \"#utility.yul\":392:394   */\n      0x60\n        /* \"#utility.yul\":381:390   */\n      dup3\n        /* \"#utility.yul\":377:395   */\n      add\n        /* \"#utility.yul\":369:395   */\n      swap1\n      pop\n        /* \"#utility.yul\":405:472   */\n      tag_51\n        /* \"#utility.yul\":469:470   */\n      0x00\n        /* \"#utility.yul\":458:467   */\n      dup4\n        /* \"#utility.yul\":454:471   */\n      add\n        /* \"#utility.yul\":445:451   */\n      dup7\n        /* \"#utility.yul\":405:472   */\n      tag_41\n      jump\t// in\n    tag_51:\n        /* \"#utility.yul\":482:550   */\n      tag_52\n        /* \"#utility.yul\":546:548   */\n      0x20\n        /* \"#utility.yul\":535:544   */\n      dup4\n        /* \"#utility.yul\":531:549   */\n      add\n        /* \"#utility.yul\":522:528   */\n      dup6\n        /* \"#utility.yul\":482:550   */\n      tag_41\n      jump\t// in\n    tag_52:\n        /* \"#utility.yul\":560:628   */\n      tag_53\n        /* \"#utility.yul\":624:626   */\n      0x40\n        /* \"#utility.yul\":613:622   */\n      dup4\n        /* \"#utility.yul\":609:627   */\n      add\n        /* \"#utility.yul\":600:606   */\n      dup5\n        /* \"#utility.yul\":560:628   */\n      tag_41\n      jump\t// in\n    tag_53:\n        /* \"#utility.yul\":217:635   */\n      swap5\n      swap4\n      pop\n      pop\n      pop\n      pop\n      jump\t// out\n        /* \"#utility.yul\":641:821   */\n    tag_25:\n        /* \"#utility.yul\":689:766   */\n      0x4e487b7100000000000000000000000000000000000000000000000000000000\n        /* \"#utility.yul\":686:687   */\n      0x00\n        /* \"#utility.yul\":679:767   */\n      mstore\n        /* \"#utility.yul\":786:790   */\n      0x21\n        /* \"#utility.yul\":783:784   */\n      0x04\n        /* \"#utility.yul\":776:791   */\n      mstore\n        /* \"#utility.yul\":810:814   */\n      0x24\n        /* \"#utility.yul\":807:808   */\n      0x00\n        /* \"#utility.yul\":800:815   */\n      revert\n        /* \"#utility.yul\":827:940   */\n    tag_42:\n        /* \"#utility.yul\":908:909   */\n      0x04\n        /* \"#utility.yul\":901:906   */\n      dup2\n        /* \"#utility.yul\":898:910   */\n      lt\n        /* \"#utility.yul\":888:934   */\n      tag_56\n      jumpi\n        /* \"#utility.yul\":914:932   */\n      tag_57\n      tag_25\n      jump\t// in\n    tag_57:\n        /* \"#utility.yul\":888:934   */\n    tag_56:\n        /* \"#utility.yul\":827:940   */\n      pop\n      jump\t// out\n        /* \"#utility.yul\":946:1073   */\n    tag_43:\n        /* \"#utility.yul\":991:998   */\n      0x00\n        /* \"#utility.yul\":1020:1025   */\n      dup2\n        /* \"#utility.yul\":1009:1025   */\n      swap1\n      pop\n        /* \"#utility.yul\":1026:1067   */\n      tag_59\n        /* \"#utility.yul\":1061:1066   */\n      dup3\n        /* \"#utility.yul\":1026:1067   */\n      tag_42\n      jump\t// in\n    tag_59:\n        /* \"#utility.yul\":946:1073   */\n      swap2\n      swap1\n      pop\n      jump\t// out\n        /* \"#utility.yul\":1079:1206   */\n    tag_44:\n        /* \"#utility.yul\":1135:1144   */\n      0x00\n        /* \"#utility.yul\":1168:1200   */\n      tag_61\n        /* \"#utility.yul\":1194:1199   */\n      dup3\n        /* \"#utility.yul\":1168:1200   */\n      tag_43\n      jump\t// in\n    tag_61:\n        /* \"#utility.yul\":1155:1200   */\n      swap1\n      pop\n        /* \"#utility.yul\":1079:1206   */\n      swap2\n      swap1\n      pop\n      jump\t// out\n        /* \"#utility.yul\":1212:1355   */\n    tag_45:\n        /* \"#utility.yul\":1305:1348   */\n      tag_63\n        /* \"#utility.yul\":1342:1347   */\n      dup2\n        /* \"#utility.yul\":1305:1348   */\n      tag_44\n      jump\t// in\n    tag_63:\n        /* \"#utility.yul\":1300:1303   */\n      dup3\n        /* \"#utility.yul\":1293:1349   */\n      mstore\n        /* \"#utility.yul\":1212:1355   */\n      pop\n      pop\n      jump\t// out\n        /* \"#utility.yul\":1361:1839   */\n    tag_19:\n        /* \"#utility.yul\":1528:1532   */\n      0x00\n        /* \"#utility.yul\":1566:1568   */\n      0x60\n        /* \"#utility.yul\":1555:1564   */\n      dup3\n        /* \"#utility.yul\":1551:1569   */\n      add\n        /* \"#utility.yul\":1543:1569   */\n      swap1\n      pop\n        /* \"#utility.yul\":1579:1656   */\n      tag_65\n        /* \"#utility.yul\":1653:1654   */\n      0x00\n        /* \"#utility.yul\":1642:1651   */\n      dup4\n        /* \"#utility.yul\":1638:1655   */\n      add\n        /* \"#utility.yul\":1629:1635   */\n      dup7\n        /* \"#utility.yul\":1579:1656   */\n      tag_45\n      jump\t// in\n    tag_65:\n        /* \"#utility.yul\":1666:1744   */\n      tag_66\n        /* \"#utility.yul\":1740:1742   */\n      0x20\n        /* \"#utility.yul\":1729:1738   */\n      dup4\n        /* \"#utility.yul\":1725:1743   */\n      add\n        /* \"#utility.yul\":1716:1722   */\n      dup6\n        /* \"#utility.yul\":1666:1744   */\n      tag_45\n      jump\t// in\n    tag_66:\n        /* \"#utility.yul\":1754:1832   */\n      tag_67\n        /* \"#utility.yul\":1828:1830   */\n      0x40\n        /* \"#utility.yul\":1817:1826   */\n      dup4\n        /* \"#utility.yul\":1813:1831   */\n      add\n        /* \"#utility.yul\":1804:1810   */\n      dup5\n        /* \"#utility.yul\":1754:1832   */\n      tag_45\n      jump\t// in\n    tag_67:\n        /* \"#utility.yul\":1361:1839   */\n      swap5\n      swap4\n      pop\n      pop\n      pop\n      pop\n      jump\t// out\n\n    auxdata: 0xa264697066735822122048b24e43818edbe8b62c59a30c36c8062b224d4dedc6892cba5a1ea19255367364736f6c63430008120033\n}\n",
				"bytecode": {
					"linkReferences": {},
					"object": "608060405234801561001057600080fd5b5061032b806100206000396000f3fe608060405234801561001057600080fd5b50600436106100575760003560e01c80631fc376f71461005c5780632b59115b1461006657806373af60821461008657806387522f7914610090578063d1f4ba82146100b0575b600080fd5b6100646100ba565b005b61006e6100e6565b60405161007d93929190610210565b60405180910390f35b61008e61015b565b005b610098610188565b6040516100a7939291906102be565b60405180910390f35b6100b86101c7565b005b60036000806101000a81548160ff021916908360038111156100df576100de610247565b5b0217905550565b60008060008060009054906101000a900460ff16600381111561010c5761010b610247565b5b600060019054906101000a900460ff16600381111561012e5761012d610247565b5b600060029054906101000a900460ff1660038111156101505761014f610247565b5b925092509250909192565b6002600060026101000a81548160ff0219169083600381111561018157610180610247565b5b0217905550565b60008060008060009054906101000a900460ff16600060019054906101000a900460ff16600060029054906101000a900460ff16925092509250909192565b6001600060016101000a81548160ff021916908360038111156101ed576101ec610247565b5b0217905550565b600060ff82169050919050565b61020a816101f4565b82525050565b60006060820190506102256000830186610201565b6102326020830185610201565b61023f6040830184610201565b949350505050565b7f4e487b7100000000000000000000000000000000000000000000000000000000600052602160045260246000fd5b6004811061028757610286610247565b5b50565b600081905061029882610276565b919050565b60006102a88261028a565b9050919050565b6102b88161029d565b82525050565b60006060820190506102d360008301866102af565b6102e060208301856102af565b6102ed60408301846102af565b94935050505056fea264697066735822122048b24e43818edbe8b62c59a30c36c8062b224d4dedc6892cba5a1ea19255367364736f6c63430008120033",
					"opcodes": "PUSH1 0x80 PUSH1 0x40 MSTORE CALLVALUE DUP1 ISZERO PUSH2 0x10 JUMPI PUSH1 0x0 DUP1 REVERT JUMPDEST POP PUSH2 0x32B DUP1 PUSH2 0x20 PUSH1 0x0 CODECOPY PUSH1 0x0 RETURN INVALID PUSH1 0x80 PUSH1 0x40 MSTORE CALLVALUE DUP1 ISZERO PUSH2 0x10 JUMPI PUSH1 0x0 DUP1 REVERT JUMPDEST POP PUSH1 0x4 CALLDATASIZE LT PUSH2 0x57 JUMPI PUSH1 0x0 CALLDATALOAD PUSH1 0xE0 SHR DUP1 PUSH4 0x1FC376F7 EQ PUSH2 0x5C JUMPI DUP1 PUSH4 0x2B59115B EQ PUSH2 0x66 JUMPI DUP1 PUSH4 0x73AF6082 EQ PUSH2 0x86 JUMPI DUP1 PUSH4 0x87522F79 EQ PUSH2 0x90 JUMPI DUP1 PUSH4 0xD1F4BA82 EQ PUSH2 0xB0 JUMPI JUMPDEST PUSH1 0x0 DUP1 REVERT JUMPDEST PUSH2 0x64 PUSH2 0xBA JUMP JUMPDEST STOP JUMPDEST PUSH2 0x6E PUSH2 0xE6 JUMP JUMPDEST PUSH1 0x40 MLOAD PUSH2 0x7D SWAP4 SWAP3 SWAP2 SWAP1 PUSH2 0x210 JUMP JUMPDEST PUSH1 0x40 MLOAD DUP1 SWAP2 SUB SWAP1 RETURN JUMPDEST PUSH2 0x8E PUSH2 0x15B JUMP JUMPDEST STOP JUMPDEST PUSH2 0x98 PUSH2 0x188 JUMP JUMPDEST PUSH1 0x40 MLOAD PUSH2 0xA7 SWAP4 SWAP3 SWAP2 SWAP1 PUSH2 0x2BE JUMP JUMPDEST PUSH1 0x40 MLOAD DUP1 SWAP2 SUB SWAP1 RETURN JUMPDEST PUSH2 0xB8 PUSH2 0x1C7 JUMP JUMPDEST STOP JUMPDEST PUSH1 0x3 PUSH1 0x0 DUP1 PUSH2 0x100 EXP DUP2 SLOAD DUP2 PUSH1 0xFF MUL NOT AND SWAP1 DUP4 PUSH1 0x3 DUP2 GT ISZERO PUSH2 0xDF JUMPI PUSH2 0xDE PUSH2 0x247 JUMP JUMPDEST JUMPDEST MUL OR SWAP1 SSTORE POP JUMP JUMPDEST PUSH1 0x0 DUP1 PUSH1 0x0 DUP1 PUSH1 0x0 SWAP1 SLOAD SWAP1 PUSH2 0x100 EXP SWAP1 DIV PUSH1 0xFF AND PUSH1 0x3 DUP2 GT ISZERO PUSH2 0x10C JUMPI PUSH2 0x10B PUSH2 0x247 JUMP JUMPDEST JUMPDEST PUSH1 0x0 PUSH1 0x1 SWAP1 SLOAD SWAP1 PUSH2 0x100 EXP SWAP1 DIV PUSH1 0xFF AND PUSH1 0x3 DUP2 GT ISZERO PUSH2 0x12E JUMPI PUSH2 0x12D PUSH2 0x247 JUMP JUMPDEST JUMPDEST PUSH1 0x0 PUSH1 0x2 SWAP1 SLOAD SWAP1 PUSH2 0x100 EXP SWAP1 DIV PUSH1 0xFF AND PUSH1 0x3 DUP2 GT ISZERO PUSH2 0x150 JUMPI PUSH2 0x14F PUSH2 0x247 JUMP JUMPDEST JUMPDEST SWAP3 POP SWAP3 POP SWAP3 POP SWAP1 SWAP2 SWAP3 JUMP JUMPDEST PUSH1 0x2 PUSH1 0x0 PUSH1 0x2 PUSH2 0x100 EXP DUP2 SLOAD DUP2 PUSH1 0xFF MUL NOT AND SWAP1 DUP4 PUSH1 0x3 DUP2 GT ISZERO PUSH2 0x181 JUMPI PUSH2 0x180 PUSH2 0x247 JUMP JUMPDEST JUMPDEST MUL OR SWAP1 SSTORE POP JUMP JUMPDEST PUSH1 0x0 DUP1 PUSH1 0x0 DUP1 PUSH1 0x0 SWAP1 SLOAD SWAP1 PUSH2 0x100 EXP SWAP1 DIV PUSH1 0xFF AND PUSH1 0x0 PUSH1 0x1 SWAP1 SLOAD SWAP1 PUSH2 0x100 EXP SWAP1 DIV PUSH1 0xFF AND PUSH1 0x0 PUSH1 0x2 SWAP1 SLOAD SWAP1 PUSH2 0x100 EXP SWAP1 DIV PUSH1 0xFF AND SWAP3 POP SWAP3 POP SWAP3 POP SWAP1 SWAP2 SWAP3 JUMP JUMPDEST PUSH1 0x1 PUSH1 0x0 PUSH1 0x1 PUSH2 0x100 EXP DUP2 SLOAD DUP2 PUSH1 0xFF MUL NOT AND SWAP1 DUP4 PUSH1 0x3 DUP2 GT ISZERO PUSH2 0x1ED JUMPI PUSH2 0x1EC PUSH2 0x247 JUMP JUMPDEST JUMPDEST MUL OR SWAP1 SSTORE POP JUMP JUMPDEST PUSH1 0x0 PUSH1 0xFF DUP3 AND SWAP1 POP SWAP2 SWAP1 POP JUMP JUMPDEST PUSH2 0x20A DUP2 PUSH2 0x1F4 JUMP JUMPDEST DUP3 MSTORE POP POP JUMP JUMPDEST PUSH1 0x0 PUSH1 0x60 DUP3 ADD SWAP1 POP PUSH2 0x225 PUSH1 0x0 DUP4 ADD DUP7 PUSH2 0x201 JUMP JUMPDEST PUSH2 0x232 PUSH1 0x20 DUP4 ADD DUP6 PUSH2 0x201 JUMP JUMPDEST PUSH2 0x23F PUSH1 0x40 DUP4 ADD DUP5 PUSH2 0x201 JUMP JUMPDEST SWAP5 SWAP4 POP POP POP POP JUMP JUMPDEST PUSH32 0x4E487B7100000000000000000000000000000000000000000000000000000000 PUSH1 0x0 MSTORE PUSH1 0x21 PUSH1 0x4 MSTORE PUSH1 0x24 PUSH1 0x0 REVERT JUMPDEST PUSH1 0x4 DUP2 LT PUSH2 0x287 JUMPI PUSH2 0x286 PUSH2 0x247 JUMP JUMPDEST JUMPDEST POP JUMP JUMPDEST PUSH1 0x0 DUP2 SWAP1 POP PUSH2 0x298 DUP3 PUSH2 0x276 JUMP JUMPDEST SWAP2 SWAP1 POP JUMP JUMPDEST PUSH1 0x0 PUSH2 0x2A8 DUP3 PUSH2 0x28A JUMP JUMPDEST SWAP1 POP SWAP2 SWAP1 POP JUMP JUMPDEST PUSH2 0x2B8 DUP2 PUSH2 0x29D JUMP JUMPDEST DUP3 MSTORE POP POP JUMP JUMPDEST PUSH1 0x0 PUSH1 0x60 DUP3 ADD SWAP1 POP PUSH2 0x2D3 PUSH1 0x0 DUP4 ADD DUP7 PUSH2 0x2AF JUMP JUMPDEST PUSH2 0x2E0 PUSH1 0x20 DUP4 ADD DUP6 PUSH2 0x2AF JUMP JUMPDEST PUSH2 0x2ED PUSH1 0x40 DUP4 ADD DUP5 PUSH2 0x2AF JUMP JUMPDEST SWAP5 SWAP4 POP POP POP POP JUMP INVALID LOG2 PUSH5 0x6970667358 0x22 SLT KECCAK256 BASEFEE 0xB2 0x4E NUMBER DUP2 DUP15 0xDB 0xE8 0xB6 0x2C MSIZE LOG3 0xC CALLDATASIZE 0xC8 MOD 0x2B 0x22 0x4D 0x4D 0xED 0xC6 DUP10 0x2C 0xBA GAS 0x1E LOG1 SWAP3 SSTORE CALLDATASIZE PUSH20 0x64736F6C63430008120033000000000000000000 "
				},
				"gasEstimates": {
					"creation": {
						"codeDepositCost": "162200",
						"executionCost": "208",
						"totalCost": "162408"
					},
					"external": {
						"getABC()": "infinite",
						"getABC2()": "infinite",
						"setA()": "24409",
						"setB()": "24547",
						"setC()": "24503"
					}
				},
				"methodIdentifiers": {
					"getABC()": "87522f79",
					"getABC2()": "2b59115b",
					"setA()": "1fc376f7",
					"setB()": "d1f4ba82",
					"setC()": "73af6082"
				}
			},
			"storageLayout": {
				"storage": [
					{
						"astId": 617,
						"contract": "contracts/0510/Note.sol:ENUM",
						"label": "a",
						"offset": 0,
						"slot": "0",
						"type": "t_enum(Food)614"
					},
					{
						"astId": 620,
						"contract": "contracts/0510/Note.sol:ENUM",
						"label": "b",
						"offset": 1,
						"slot": "0",
						"type": "t_enum(Food)614"
					},
					{
						"astId": 623,
						"contract": "contracts/0510/Note.sol:ENUM",
						"label": "c",
						"offset": 2,
						"slot": "0",
						"type": "t_enum(Food)614"
					}
				],
				"types": {
					"t_enum(Food)614": {
						"encoding": "inplace",
						"label": "enum ENUM.Food",
						"numberOfBytes": "1"
					}
				}
			},
			"userdoc": {
				"kind": "user",
				"methods": {},
				"version": 1
			}
		}
	}
}