{
	"data": {
		"bytecode": {
			"linkReferences": {},
			"object": "608060405234801561001057600080fd5b50610ec8806100206000396000f3fe608060405234801561001057600080fd5b506004361061010b5760003560e01c80636e8eb222116100a2578063ac3afa4311610071578063ac3afa43146102cc578063c056b522146102d6578063e090dde714610306578063eee9720614610336578063f3358ac4146103525761010b565b80636e8eb2221461021f5780637afbe4f11461023b5780639a03fe1d1461026b578063ab78e68b1461029b5761010b565b806348d50799116100de57806348d50799146101985780634ca19cd9146101c957806360953744146101d35780636cbcea13146102035761010b565b80631ec9c2c01461011057806322554f341461014057806322cc65c61461015e57806339da68e31461017c575b600080fd5b61012a60048036038101906101259190610790565b610382565b60405161013791906107df565b60405180910390f35b610148610398565b60405161015591906107df565b60405180910390f35b6101666103a2565b60405161017391906107df565b60405180910390f35b610196600480360381019061019191906107fa565b610421565b005b6101b260048036038101906101ad9190610790565b610451565b6040516101c0929190610827565b60405180910390f35b6101d1610479565b005b6101ed60048036038101906101e89190610790565b6104a3565b6040516101fa91906107df565b60405180910390f35b61021d600480360381019061021891906107fa565b6104b9565b005b610239600480360381019061023491906107fa565b6104e5565b005b61025560048036038101906102509190610790565b610513565b60405161026291906107df565b60405180910390f35b61028560048036038101906102809190610790565b610529565b60405161029291906107df565b60405180910390f35b6102b560048036038101906102b09190610790565b61053f565b6040516102c3929190610827565b60405180910390f35b6102d4610565565b005b6102f060048036038101906102eb9190610996565b6105b0565b6040516102fd9190610a5e565b60405180910390f35b610320600480360381019061031b91906107fa565b6105ba565b60405161032d9190610ad5565b60405180910390f35b610350600480360381019061034b91906107fa565b6106f0565b005b61036c600480360381019061036791906107fa565b61071e565b60405161037991906107df565b60405180910390f35b600081836103909190610b26565b905092915050565b6000600154905090565b60008060005b6005811015610419576002819080600181540180825580915050600190039060005260206000200160009091909190915055600281815481106103ee576103ed610b5a565b5b9060005260206000200154826104049190610b89565b9150808061041190610bbd565b9150506103a8565b508091505090565b600154600010801561043557506004600154105b1561044e576002816104479190610d45565b6001819055505b50565b6000806003846104619190610d45565b60038461046e9190610d45565b915091509250929050565b600380548061048b5761048a610d90565b5b60019003818190600052602060002001600090559055565b600081836104b19190610dbf565b905092915050565b600381908060018154018082558091505060019003906000526020600020016000909190919091505550565b8060061080156104f75750600a600154105b15610510576003816105099190610e30565b6001819055505b50565b600081836105219190610b89565b905092915050565b600081836105379190610e61565b905092915050565b600080838461054e9190610dbf565b838461055a9190610dbf565b915091509250929050565b60005b600a8110156105ad57600281908060018154018082558091505060019003906000526020600020016000909190919091505580806105a590610bbd565b915050610568565b50565b6060819050919050565b60608160001080156105cc5750600b82105b1561060e576040518060400160405280600181526020017f410000000000000000000000000000000000000000000000000000000000000081525090506106eb565b81600a10801561061e5750601582105b15610660576040518060400160405280600181526020017f420000000000000000000000000000000000000000000000000000000000000081525090506106eb565b8160141080156106705750601f82105b156106b2576040518060400160405280600181526020017f430000000000000000000000000000000000000000000000000000000000000081525090506106eb565b6040518060400160405280600181526020017f440000000000000000000000000000000000000000000000000000000000000081525090505b919050565b80600310801561070257506007600154105b1561071b576002816107149190610dbf565b6001819055505b50565b60006003828154811061073457610733610b5a565b5b90600052602060002001549050919050565b6000604051905090565b600080fd5b600080fd5b6000819050919050565b61076d8161075a565b811461077857600080fd5b50565b60008135905061078a81610764565b92915050565b600080604083850312156107a7576107a6610750565b5b60006107b58582860161077b565b92505060206107c68582860161077b565b9150509250929050565b6107d98161075a565b82525050565b60006020820190506107f460008301846107d0565b92915050565b6000602082840312156108105761080f610750565b5b600061081e8482850161077b565b91505092915050565b600060408201905061083c60008301856107d0565b61084960208301846107d0565b9392505050565b600080fd5b600080fd5b6000601f19601f8301169050919050565b7f4e487b7100000000000000000000000000000000000000000000000000000000600052604160045260246000fd5b6108a38261085a565b810181811067ffffffffffffffff821117156108c2576108c161086b565b5b80604052505050565b60006108d5610746565b90506108e1828261089a565b919050565b600067ffffffffffffffff8211156109015761090061086b565b5b61090a8261085a565b9050602081019050919050565b82818337600083830152505050565b6000610939610934846108e6565b6108cb565b90508281526020810184848401111561095557610954610855565b5b610960848285610917565b509392505050565b600082601f83011261097d5761097c610850565b5b813561098d848260208601610926565b91505092915050565b6000602082840312156109ac576109ab610750565b5b600082013567ffffffffffffffff8111156109ca576109c9610755565b5b6109d684828501610968565b91505092915050565b600081519050919050565b600082825260208201905092915050565b60005b83811015610a195780820151818401526020810190506109fe565b60008484015250505050565b6000610a30826109df565b610a3a81856109ea565b9350610a4a8185602086016109fb565b610a538161085a565b840191505092915050565b60006020820190508181036000830152610a788184610a25565b905092915050565b600081519050919050565b600082825260208201905092915050565b6000610aa782610a80565b610ab18185610a8b565b9350610ac18185602086016109fb565b610aca8161085a565b840191505092915050565b60006020820190508181036000830152610aef8184610a9c565b905092915050565b7f4e487b7100000000000000000000000000000000000000000000000000000000600052601160045260246000fd5b6000610b318261075a565b9150610b3c8361075a565b9250828203905081811115610b5457610b53610af7565b5b92915050565b7f4e487b7100000000000000000000000000000000000000000000000000000000600052603260045260246000fd5b6000610b948261075a565b9150610b9f8361075a565b9250828201905080821115610bb757610bb6610af7565b5b92915050565b6000610bc88261075a565b91507fffffffffffffffffffffffffffffffffffffffffffffffffffffffffffffffff8203610bfa57610bf9610af7565b5b600182019050919050565b60008160011c9050919050565b6000808291508390505b6001851115610c5c57808604811115610c3857610c37610af7565b5b6001851615610c475780820291505b8081029050610c5585610c05565b9450610c1c565b94509492505050565b600082610c755760019050610d31565b81610c835760009050610d31565b8160018114610c995760028114610ca357610cd2565b6001915050610d31565b60ff841115610cb557610cb4610af7565b5b8360020a915084821115610ccc57610ccb610af7565b5b50610d31565b5060208310610133831016604e8410600b8410161715610d075782820a905083811115610d0257610d01610af7565b5b610d31565b610d148484846001610c12565b92509050818404811115610d2b57610d2a610af7565b5b81810290505b9392505050565b600060ff82169050919050565b6000610d508261075a565b9150610d5b83610d38565b9250610d887fffffffffffffffffffffffffffffffffffffffffffffffffffffffffffffffff8484610c65565b905092915050565b7f4e487b7100000000000000000000000000000000000000000000000000000000600052603160045260246000fd5b6000610dca8261075a565b9150610dd58361075a565b9250828202610de38161075a565b91508282048414831517610dfa57610df9610af7565b5b5092915050565b7f4e487b7100000000000000000000000000000000000000000000000000000000600052601260045260246000fd5b6000610e3b8261075a565b9150610e468361075a565b925082610e5657610e55610e01565b5b828206905092915050565b6000610e6c8261075a565b9150610e778361075a565b925082610e8757610e86610e01565b5b82820490509291505056fea26469706673582212205df39bc59b61272158e11c6ee7e9452a89b1dca5f9631d6625e66b1df52746bc64736f6c63430008120033",
			"opcodes": "PUSH1 0x80 PUSH1 0x40 MSTORE CALLVALUE DUP1 ISZERO PUSH2 0x10 JUMPI PUSH1 0x0 DUP1 REVERT JUMPDEST POP PUSH2 0xEC8 DUP1 PUSH2 0x20 PUSH1 0x0 CODECOPY PUSH1 0x0 RETURN INVALID PUSH1 0x80 PUSH1 0x40 MSTORE CALLVALUE DUP1 ISZERO PUSH2 0x10 JUMPI PUSH1 0x0 DUP1 REVERT JUMPDEST POP PUSH1 0x4 CALLDATASIZE LT PUSH2 0x10B JUMPI PUSH1 0x0 CALLDATALOAD PUSH1 0xE0 SHR DUP1 PUSH4 0x6E8EB222 GT PUSH2 0xA2 JUMPI DUP1 PUSH4 0xAC3AFA43 GT PUSH2 0x71 JUMPI DUP1 PUSH4 0xAC3AFA43 EQ PUSH2 0x2CC JUMPI DUP1 PUSH4 0xC056B522 EQ PUSH2 0x2D6 JUMPI DUP1 PUSH4 0xE090DDE7 EQ PUSH2 0x306 JUMPI DUP1 PUSH4 0xEEE97206 EQ PUSH2 0x336 JUMPI DUP1 PUSH4 0xF3358AC4 EQ PUSH2 0x352 JUMPI PUSH2 0x10B JUMP JUMPDEST DUP1 PUSH4 0x6E8EB222 EQ PUSH2 0x21F JUMPI DUP1 PUSH4 0x7AFBE4F1 EQ PUSH2 0x23B JUMPI DUP1 PUSH4 0x9A03FE1D EQ PUSH2 0x26B JUMPI DUP1 PUSH4 0xAB78E68B EQ PUSH2 0x29B JUMPI PUSH2 0x10B JUMP JUMPDEST DUP1 PUSH4 0x48D50799 GT PUSH2 0xDE JUMPI DUP1 PUSH4 0x48D50799 EQ PUSH2 0x198 JUMPI DUP1 PUSH4 0x4CA19CD9 EQ PUSH2 0x1C9 JUMPI DUP1 PUSH4 0x60953744 EQ PUSH2 0x1D3 JUMPI DUP1 PUSH4 0x6CBCEA13 EQ PUSH2 0x203 JUMPI PUSH2 0x10B JUMP JUMPDEST DUP1 PUSH4 0x1EC9C2C0 EQ PUSH2 0x110 JUMPI DUP1 PUSH4 0x22554F34 EQ PUSH2 0x140 JUMPI DUP1 PUSH4 0x22CC65C6 EQ PUSH2 0x15E JUMPI DUP1 PUSH4 0x39DA68E3 EQ PUSH2 0x17C JUMPI JUMPDEST PUSH1 0x0 DUP1 REVERT JUMPDEST PUSH2 0x12A PUSH1 0x4 DUP1 CALLDATASIZE SUB DUP2 ADD SWAP1 PUSH2 0x125 SWAP2 SWAP1 PUSH2 0x790 JUMP JUMPDEST PUSH2 0x382 JUMP JUMPDEST PUSH1 0x40 MLOAD PUSH2 0x137 SWAP2 SWAP1 PUSH2 0x7DF JUMP JUMPDEST PUSH1 0x40 MLOAD DUP1 SWAP2 SUB SWAP1 RETURN JUMPDEST PUSH2 0x148 PUSH2 0x398 JUMP JUMPDEST PUSH1 0x40 MLOAD PUSH2 0x155 SWAP2 SWAP1 PUSH2 0x7DF JUMP JUMPDEST PUSH1 0x40 MLOAD DUP1 SWAP2 SUB SWAP1 RETURN JUMPDEST PUSH2 0x166 PUSH2 0x3A2 JUMP JUMPDEST PUSH1 0x40 MLOAD PUSH2 0x173 SWAP2 SWAP1 PUSH2 0x7DF JUMP JUMPDEST PUSH1 0x40 MLOAD DUP1 SWAP2 SUB SWAP1 RETURN JUMPDEST PUSH2 0x196 PUSH1 0x4 DUP1 CALLDATASIZE SUB DUP2 ADD SWAP1 PUSH2 0x191 SWAP2 SWAP1 PUSH2 0x7FA JUMP JUMPDEST PUSH2 0x421 JUMP JUMPDEST STOP JUMPDEST PUSH2 0x1B2 PUSH1 0x4 DUP1 CALLDATASIZE SUB DUP2 ADD SWAP1 PUSH2 0x1AD SWAP2 SWAP1 PUSH2 0x790 JUMP JUMPDEST PUSH2 0x451 JUMP JUMPDEST PUSH1 0x40 MLOAD PUSH2 0x1C0 SWAP3 SWAP2 SWAP1 PUSH2 0x827 JUMP JUMPDEST PUSH1 0x40 MLOAD DUP1 SWAP2 SUB SWAP1 RETURN JUMPDEST PUSH2 0x1D1 PUSH2 0x479 JUMP JUMPDEST STOP JUMPDEST PUSH2 0x1ED PUSH1 0x4 DUP1 CALLDATASIZE SUB DUP2 ADD SWAP1 PUSH2 0x1E8 SWAP2 SWAP1 PUSH2 0x790 JUMP JUMPDEST PUSH2 0x4A3 JUMP JUMPDEST PUSH1 0x40 MLOAD PUSH2 0x1FA SWAP2 SWAP1 PUSH2 0x7DF JUMP JUMPDEST PUSH1 0x40 MLOAD DUP1 SWAP2 SUB SWAP1 RETURN JUMPDEST PUSH2 0x21D PUSH1 0x4 DUP1 CALLDATASIZE SUB DUP2 ADD SWAP1 PUSH2 0x218 SWAP2 SWAP1 PUSH2 0x7FA JUMP JUMPDEST PUSH2 0x4B9 JUMP JUMPDEST STOP JUMPDEST PUSH2 0x239 PUSH1 0x4 DUP1 CALLDATASIZE SUB DUP2 ADD SWAP1 PUSH2 0x234 SWAP2 SWAP1 PUSH2 0x7FA JUMP JUMPDEST PUSH2 0x4E5 JUMP JUMPDEST STOP JUMPDEST PUSH2 0x255 PUSH1 0x4 DUP1 CALLDATASIZE SUB DUP2 ADD SWAP1 PUSH2 0x250 SWAP2 SWAP1 PUSH2 0x790 JUMP JUMPDEST PUSH2 0x513 JUMP JUMPDEST PUSH1 0x40 MLOAD PUSH2 0x262 SWAP2 SWAP1 PUSH2 0x7DF JUMP JUMPDEST PUSH1 0x40 MLOAD DUP1 SWAP2 SUB SWAP1 RETURN JUMPDEST PUSH2 0x285 PUSH1 0x4 DUP1 CALLDATASIZE SUB DUP2 ADD SWAP1 PUSH2 0x280 SWAP2 SWAP1 PUSH2 0x790 JUMP JUMPDEST PUSH2 0x529 JUMP JUMPDEST PUSH1 0x40 MLOAD PUSH2 0x292 SWAP2 SWAP1 PUSH2 0x7DF JUMP JUMPDEST PUSH1 0x40 MLOAD DUP1 SWAP2 SUB SWAP1 RETURN JUMPDEST PUSH2 0x2B5 PUSH1 0x4 DUP1 CALLDATASIZE SUB DUP2 ADD SWAP1 PUSH2 0x2B0 SWAP2 SWAP1 PUSH2 0x790 JUMP JUMPDEST PUSH2 0x53F JUMP JUMPDEST PUSH1 0x40 MLOAD PUSH2 0x2C3 SWAP3 SWAP2 SWAP1 PUSH2 0x827 JUMP JUMPDEST PUSH1 0x40 MLOAD DUP1 SWAP2 SUB SWAP1 RETURN JUMPDEST PUSH2 0x2D4 PUSH2 0x565 JUMP JUMPDEST STOP JUMPDEST PUSH2 0x2F0 PUSH1 0x4 DUP1 CALLDATASIZE SUB DUP2 ADD SWAP1 PUSH2 0x2EB SWAP2 SWAP1 PUSH2 0x996 JUMP JUMPDEST PUSH2 0x5B0 JUMP JUMPDEST PUSH1 0x40 MLOAD PUSH2 0x2FD SWAP2 SWAP1 PUSH2 0xA5E JUMP JUMPDEST PUSH1 0x40 MLOAD DUP1 SWAP2 SUB SWAP1 RETURN JUMPDEST PUSH2 0x320 PUSH1 0x4 DUP1 CALLDATASIZE SUB DUP2 ADD SWAP1 PUSH2 0x31B SWAP2 SWAP1 PUSH2 0x7FA JUMP JUMPDEST PUSH2 0x5BA JUMP JUMPDEST PUSH1 0x40 MLOAD PUSH2 0x32D SWAP2 SWAP1 PUSH2 0xAD5 JUMP JUMPDEST PUSH1 0x40 MLOAD DUP1 SWAP2 SUB SWAP1 RETURN JUMPDEST PUSH2 0x350 PUSH1 0x4 DUP1 CALLDATASIZE SUB DUP2 ADD SWAP1 PUSH2 0x34B SWAP2 SWAP1 PUSH2 0x7FA JUMP JUMPDEST PUSH2 0x6F0 JUMP JUMPDEST STOP JUMPDEST PUSH2 0x36C PUSH1 0x4 DUP1 CALLDATASIZE SUB DUP2 ADD SWAP1 PUSH2 0x367 SWAP2 SWAP1 PUSH2 0x7FA JUMP JUMPDEST PUSH2 0x71E JUMP JUMPDEST PUSH1 0x40 MLOAD PUSH2 0x379 SWAP2 SWAP1 PUSH2 0x7DF JUMP JUMPDEST PUSH1 0x40 MLOAD DUP1 SWAP2 SUB SWAP1 RETURN JUMPDEST PUSH1 0x0 DUP2 DUP4 PUSH2 0x390 SWAP2 SWAP1 PUSH2 0xB26 JUMP JUMPDEST SWAP1 POP SWAP3 SWAP2 POP POP JUMP JUMPDEST PUSH1 0x0 PUSH1 0x1 SLOAD SWAP1 POP SWAP1 JUMP JUMPDEST PUSH1 0x0 DUP1 PUSH1 0x0 JUMPDEST PUSH1 0x5 DUP2 LT ISZERO PUSH2 0x419 JUMPI PUSH1 0x2 DUP2 SWAP1 DUP1 PUSH1 0x1 DUP2 SLOAD ADD DUP1 DUP3 SSTORE DUP1 SWAP2 POP POP PUSH1 0x1 SWAP1 SUB SWAP1 PUSH1 0x0 MSTORE PUSH1 0x20 PUSH1 0x0 KECCAK256 ADD PUSH1 0x0 SWAP1 SWAP2 SWAP1 SWAP2 SWAP1 SWAP2 POP SSTORE PUSH1 0x2 DUP2 DUP2 SLOAD DUP2 LT PUSH2 0x3EE JUMPI PUSH2 0x3ED PUSH2 0xB5A JUMP JUMPDEST JUMPDEST SWAP1 PUSH1 0x0 MSTORE PUSH1 0x20 PUSH1 0x0 KECCAK256 ADD SLOAD DUP3 PUSH2 0x404 SWAP2 SWAP1 PUSH2 0xB89 JUMP JUMPDEST SWAP2 POP DUP1 DUP1 PUSH2 0x411 SWAP1 PUSH2 0xBBD JUMP JUMPDEST SWAP2 POP POP PUSH2 0x3A8 JUMP JUMPDEST POP DUP1 SWAP2 POP POP SWAP1 JUMP JUMPDEST PUSH1 0x1 SLOAD PUSH1 0x0 LT DUP1 ISZERO PUSH2 0x435 JUMPI POP PUSH1 0x4 PUSH1 0x1 SLOAD LT JUMPDEST ISZERO PUSH2 0x44E JUMPI PUSH1 0x2 DUP2 PUSH2 0x447 SWAP2 SWAP1 PUSH2 0xD45 JUMP JUMPDEST PUSH1 0x1 DUP2 SWAP1 SSTORE POP JUMPDEST POP JUMP JUMPDEST PUSH1 0x0 DUP1 PUSH1 0x3 DUP5 PUSH2 0x461 SWAP2 SWAP1 PUSH2 0xD45 JUMP JUMPDEST PUSH1 0x3 DUP5 PUSH2 0x46E SWAP2 SWAP1 PUSH2 0xD45 JUMP JUMPDEST SWAP2 POP SWAP2 POP SWAP3 POP SWAP3 SWAP1 POP JUMP JUMPDEST PUSH1 0x3 DUP1 SLOAD DUP1 PUSH2 0x48B JUMPI PUSH2 0x48A PUSH2 0xD90 JUMP JUMPDEST JUMPDEST PUSH1 0x1 SWAP1 SUB DUP2 DUP2 SWAP1 PUSH1 0x0 MSTORE PUSH1 0x20 PUSH1 0x0 KECCAK256 ADD PUSH1 0x0 SWAP1 SSTORE SWAP1 SSTORE JUMP JUMPDEST PUSH1 0x0 DUP2 DUP4 PUSH2 0x4B1 SWAP2 SWAP1 PUSH2 0xDBF JUMP JUMPDEST SWAP1 POP SWAP3 SWAP2 POP POP JUMP JUMPDEST PUSH1 0x3 DUP2 SWAP1 DUP1 PUSH1 0x1 DUP2 SLOAD ADD DUP1 DUP3 SSTORE DUP1 SWAP2 POP POP PUSH1 0x1 SWAP1 SUB SWAP1 PUSH1 0x0 MSTORE PUSH1 0x20 PUSH1 0x0 KECCAK256 ADD PUSH1 0x0 SWAP1 SWAP2 SWAP1 SWAP2 SWAP1 SWAP2 POP SSTORE POP JUMP JUMPDEST DUP1 PUSH1 0x6 LT DUP1 ISZERO PUSH2 0x4F7 JUMPI POP PUSH1 0xA PUSH1 0x1 SLOAD LT JUMPDEST ISZERO PUSH2 0x510 JUMPI PUSH1 0x3 DUP2 PUSH2 0x509 SWAP2 SWAP1 PUSH2 0xE30 JUMP JUMPDEST PUSH1 0x1 DUP2 SWAP1 SSTORE POP JUMPDEST POP JUMP JUMPDEST PUSH1 0x0 DUP2 DUP4 PUSH2 0x521 SWAP2 SWAP1 PUSH2 0xB89 JUMP JUMPDEST SWAP1 POP SWAP3 SWAP2 POP POP JUMP JUMPDEST PUSH1 0x0 DUP2 DUP4 PUSH2 0x537 SWAP2 SWAP1 PUSH2 0xE61 JUMP JUMPDEST SWAP1 POP SWAP3 SWAP2 POP POP JUMP JUMPDEST PUSH1 0x0 DUP1 DUP4 DUP5 PUSH2 0x54E SWAP2 SWAP1 PUSH2 0xDBF JUMP JUMPDEST DUP4 DUP5 PUSH2 0x55A SWAP2 SWAP1 PUSH2 0xDBF JUMP JUMPDEST SWAP2 POP SWAP2 POP SWAP3 POP SWAP3 SWAP1 POP JUMP JUMPDEST PUSH1 0x0 JUMPDEST PUSH1 0xA DUP2 LT ISZERO PUSH2 0x5AD JUMPI PUSH1 0x2 DUP2 SWAP1 DUP1 PUSH1 0x1 DUP2 SLOAD ADD DUP1 DUP3 SSTORE DUP1 SWAP2 POP POP PUSH1 0x1 SWAP1 SUB SWAP1 PUSH1 0x0 MSTORE PUSH1 0x20 PUSH1 0x0 KECCAK256 ADD PUSH1 0x0 SWAP1 SWAP2 SWAP1 SWAP2 SWAP1 SWAP2 POP SSTORE DUP1 DUP1 PUSH2 0x5A5 SWAP1 PUSH2 0xBBD JUMP JUMPDEST SWAP2 POP POP PUSH2 0x568 JUMP JUMPDEST POP JUMP JUMPDEST PUSH1 0x60 DUP2 SWAP1 POP SWAP2 SWAP1 POP JUMP JUMPDEST PUSH1 0x60 DUP2 PUSH1 0x0 LT DUP1 ISZERO PUSH2 0x5CC JUMPI POP PUSH1 0xB DUP3 LT JUMPDEST ISZERO PUSH2 0x60E JUMPI PUSH1 0x40 MLOAD DUP1 PUSH1 0x40 ADD PUSH1 0x40 MSTORE DUP1 PUSH1 0x1 DUP2 MSTORE PUSH1 0x20 ADD PUSH32 0x4100000000000000000000000000000000000000000000000000000000000000 DUP2 MSTORE POP SWAP1 POP PUSH2 0x6EB JUMP JUMPDEST DUP2 PUSH1 0xA LT DUP1 ISZERO PUSH2 0x61E JUMPI POP PUSH1 0x15 DUP3 LT JUMPDEST ISZERO PUSH2 0x660 JUMPI PUSH1 0x40 MLOAD DUP1 PUSH1 0x40 ADD PUSH1 0x40 MSTORE DUP1 PUSH1 0x1 DUP2 MSTORE PUSH1 0x20 ADD PUSH32 0x4200000000000000000000000000000000000000000000000000000000000000 DUP2 MSTORE POP SWAP1 POP PUSH2 0x6EB JUMP JUMPDEST DUP2 PUSH1 0x14 LT DUP1 ISZERO PUSH2 0x670 JUMPI POP PUSH1 0x1F DUP3 LT JUMPDEST ISZERO PUSH2 0x6B2 JUMPI PUSH1 0x40 MLOAD DUP1 PUSH1 0x40 ADD PUSH1 0x40 MSTORE DUP1 PUSH1 0x1 DUP2 MSTORE PUSH1 0x20 ADD PUSH32 0x4300000000000000000000000000000000000000000000000000000000000000 DUP2 MSTORE POP SWAP1 POP PUSH2 0x6EB JUMP JUMPDEST PUSH1 0x40 MLOAD DUP1 PUSH1 0x40 ADD PUSH1 0x40 MSTORE DUP1 PUSH1 0x1 DUP2 MSTORE PUSH1 0x20 ADD PUSH32 0x4400000000000000000000000000000000000000000000000000000000000000 DUP2 MSTORE POP SWAP1 POP JUMPDEST SWAP2 SWAP1 POP JUMP JUMPDEST DUP1 PUSH1 0x3 LT DUP1 ISZERO PUSH2 0x702 JUMPI POP PUSH1 0x7 PUSH1 0x1 SLOAD LT JUMPDEST ISZERO PUSH2 0x71B JUMPI PUSH1 0x2 DUP2 PUSH2 0x714 SWAP2 SWAP1 PUSH2 0xDBF JUMP JUMPDEST PUSH1 0x1 DUP2 SWAP1 SSTORE POP JUMPDEST POP JUMP JUMPDEST PUSH1 0x0 PUSH1 0x3 DUP3 DUP2 SLOAD DUP2 LT PUSH2 0x734 JUMPI PUSH2 0x733 PUSH2 0xB5A JUMP JUMPDEST JUMPDEST SWAP1 PUSH1 0x0 MSTORE PUSH1 0x20 PUSH1 0x0 KECCAK256 ADD SLOAD SWAP1 POP SWAP2 SWAP1 POP JUMP JUMPDEST PUSH1 0x0 PUSH1 0x40 MLOAD SWAP1 POP SWAP1 JUMP JUMPDEST PUSH1 0x0 DUP1 REVERT JUMPDEST PUSH1 0x0 DUP1 REVERT JUMPDEST PUSH1 0x0 DUP2 SWAP1 POP SWAP2 SWAP1 POP JUMP JUMPDEST PUSH2 0x76D DUP2 PUSH2 0x75A JUMP JUMPDEST DUP2 EQ PUSH2 0x778 JUMPI PUSH1 0x0 DUP1 REVERT JUMPDEST POP JUMP JUMPDEST PUSH1 0x0 DUP2 CALLDATALOAD SWAP1 POP PUSH2 0x78A DUP2 PUSH2 0x764 JUMP JUMPDEST SWAP3 SWAP2 POP POP JUMP JUMPDEST PUSH1 0x0 DUP1 PUSH1 0x40 DUP4 DUP6 SUB SLT ISZERO PUSH2 0x7A7 JUMPI PUSH2 0x7A6 PUSH2 0x750 JUMP JUMPDEST JUMPDEST PUSH1 0x0 PUSH2 0x7B5 DUP6 DUP3 DUP7 ADD PUSH2 0x77B JUMP JUMPDEST SWAP3 POP POP PUSH1 0x20 PUSH2 0x7C6 DUP6 DUP3 DUP7 ADD PUSH2 0x77B JUMP JUMPDEST SWAP2 POP POP SWAP3 POP SWAP3 SWAP1 POP JUMP JUMPDEST PUSH2 0x7D9 DUP2 PUSH2 0x75A JUMP JUMPDEST DUP3 MSTORE POP POP JUMP JUMPDEST PUSH1 0x0 PUSH1 0x20 DUP3 ADD SWAP1 POP PUSH2 0x7F4 PUSH1 0x0 DUP4 ADD DUP5 PUSH2 0x7D0 JUMP JUMPDEST SWAP3 SWAP2 POP POP JUMP JUMPDEST PUSH1 0x0 PUSH1 0x20 DUP3 DUP5 SUB SLT ISZERO PUSH2 0x810 JUMPI PUSH2 0x80F PUSH2 0x750 JUMP JUMPDEST JUMPDEST PUSH1 0x0 PUSH2 0x81E DUP5 DUP3 DUP6 ADD PUSH2 0x77B JUMP JUMPDEST SWAP2 POP POP SWAP3 SWAP2 POP POP JUMP JUMPDEST PUSH1 0x0 PUSH1 0x40 DUP3 ADD SWAP1 POP PUSH2 0x83C PUSH1 0x0 DUP4 ADD DUP6 PUSH2 0x7D0 JUMP JUMPDEST PUSH2 0x849 PUSH1 0x20 DUP4 ADD DUP5 PUSH2 0x7D0 JUMP JUMPDEST SWAP4 SWAP3 POP POP POP JUMP JUMPDEST PUSH1 0x0 DUP1 REVERT JUMPDEST PUSH1 0x0 DUP1 REVERT JUMPDEST PUSH1 0x0 PUSH1 0x1F NOT PUSH1 0x1F DUP4 ADD AND SWAP1 POP SWAP2 SWAP1 POP JUMP JUMPDEST PUSH32 0x4E487B7100000000000000000000000000000000000000000000000000000000 PUSH1 0x0 MSTORE PUSH1 0x41 PUSH1 0x4 MSTORE PUSH1 0x24 PUSH1 0x0 REVERT JUMPDEST PUSH2 0x8A3 DUP3 PUSH2 0x85A JUMP JUMPDEST DUP2 ADD DUP2 DUP2 LT PUSH8 0xFFFFFFFFFFFFFFFF DUP3 GT OR ISZERO PUSH2 0x8C2 JUMPI PUSH2 0x8C1 PUSH2 0x86B JUMP JUMPDEST JUMPDEST DUP1 PUSH1 0x40 MSTORE POP POP POP JUMP JUMPDEST PUSH1 0x0 PUSH2 0x8D5 PUSH2 0x746 JUMP JUMPDEST SWAP1 POP PUSH2 0x8E1 DUP3 DUP3 PUSH2 0x89A JUMP JUMPDEST SWAP2 SWAP1 POP JUMP JUMPDEST PUSH1 0x0 PUSH8 0xFFFFFFFFFFFFFFFF DUP3 GT ISZERO PUSH2 0x901 JUMPI PUSH2 0x900 PUSH2 0x86B JUMP JUMPDEST JUMPDEST PUSH2 0x90A DUP3 PUSH2 0x85A JUMP JUMPDEST SWAP1 POP PUSH1 0x20 DUP2 ADD SWAP1 POP SWAP2 SWAP1 POP JUMP JUMPDEST DUP3 DUP2 DUP4 CALLDATACOPY PUSH1 0x0 DUP4 DUP4 ADD MSTORE POP POP POP JUMP JUMPDEST PUSH1 0x0 PUSH2 0x939 PUSH2 0x934 DUP5 PUSH2 0x8E6 JUMP JUMPDEST PUSH2 0x8CB JUMP JUMPDEST SWAP1 POP DUP3 DUP2 MSTORE PUSH1 0x20 DUP2 ADD DUP5 DUP5 DUP5 ADD GT ISZERO PUSH2 0x955 JUMPI PUSH2 0x954 PUSH2 0x855 JUMP JUMPDEST JUMPDEST PUSH2 0x960 DUP5 DUP3 DUP6 PUSH2 0x917 JUMP JUMPDEST POP SWAP4 SWAP3 POP POP POP JUMP JUMPDEST PUSH1 0x0 DUP3 PUSH1 0x1F DUP4 ADD SLT PUSH2 0x97D JUMPI PUSH2 0x97C PUSH2 0x850 JUMP JUMPDEST JUMPDEST DUP2 CALLDATALOAD PUSH2 0x98D DUP5 DUP3 PUSH1 0x20 DUP7 ADD PUSH2 0x926 JUMP JUMPDEST SWAP2 POP POP SWAP3 SWAP2 POP POP JUMP JUMPDEST PUSH1 0x0 PUSH1 0x20 DUP3 DUP5 SUB SLT ISZERO PUSH2 0x9AC JUMPI PUSH2 0x9AB PUSH2 0x750 JUMP JUMPDEST JUMPDEST PUSH1 0x0 DUP3 ADD CALLDATALOAD PUSH8 0xFFFFFFFFFFFFFFFF DUP2 GT ISZERO PUSH2 0x9CA JUMPI PUSH2 0x9C9 PUSH2 0x755 JUMP JUMPDEST JUMPDEST PUSH2 0x9D6 DUP5 DUP3 DUP6 ADD PUSH2 0x968 JUMP JUMPDEST SWAP2 POP POP SWAP3 SWAP2 POP POP JUMP JUMPDEST PUSH1 0x0 DUP2 MLOAD SWAP1 POP SWAP2 SWAP1 POP JUMP JUMPDEST PUSH1 0x0 DUP3 DUP3 MSTORE PUSH1 0x20 DUP3 ADD SWAP1 POP SWAP3 SWAP2 POP POP JUMP JUMPDEST PUSH1 0x0 JUMPDEST DUP4 DUP2 LT ISZERO PUSH2 0xA19 JUMPI DUP1 DUP3 ADD MLOAD DUP2 DUP5 ADD MSTORE PUSH1 0x20 DUP2 ADD SWAP1 POP PUSH2 0x9FE JUMP JUMPDEST PUSH1 0x0 DUP5 DUP5 ADD MSTORE POP POP POP POP JUMP JUMPDEST PUSH1 0x0 PUSH2 0xA30 DUP3 PUSH2 0x9DF JUMP JUMPDEST PUSH2 0xA3A DUP2 DUP6 PUSH2 0x9EA JUMP JUMPDEST SWAP4 POP PUSH2 0xA4A DUP2 DUP6 PUSH1 0x20 DUP7 ADD PUSH2 0x9FB JUMP JUMPDEST PUSH2 0xA53 DUP2 PUSH2 0x85A JUMP JUMPDEST DUP5 ADD SWAP2 POP POP SWAP3 SWAP2 POP POP JUMP JUMPDEST PUSH1 0x0 PUSH1 0x20 DUP3 ADD SWAP1 POP DUP2 DUP2 SUB PUSH1 0x0 DUP4 ADD MSTORE PUSH2 0xA78 DUP2 DUP5 PUSH2 0xA25 JUMP JUMPDEST SWAP1 POP SWAP3 SWAP2 POP POP JUMP JUMPDEST PUSH1 0x0 DUP2 MLOAD SWAP1 POP SWAP2 SWAP1 POP JUMP JUMPDEST PUSH1 0x0 DUP3 DUP3 MSTORE PUSH1 0x20 DUP3 ADD SWAP1 POP SWAP3 SWAP2 POP POP JUMP JUMPDEST PUSH1 0x0 PUSH2 0xAA7 DUP3 PUSH2 0xA80 JUMP JUMPDEST PUSH2 0xAB1 DUP2 DUP6 PUSH2 0xA8B JUMP JUMPDEST SWAP4 POP PUSH2 0xAC1 DUP2 DUP6 PUSH1 0x20 DUP7 ADD PUSH2 0x9FB JUMP JUMPDEST PUSH2 0xACA DUP2 PUSH2 0x85A JUMP JUMPDEST DUP5 ADD SWAP2 POP POP SWAP3 SWAP2 POP POP JUMP JUMPDEST PUSH1 0x0 PUSH1 0x20 DUP3 ADD SWAP1 POP DUP2 DUP2 SUB PUSH1 0x0 DUP4 ADD MSTORE PUSH2 0xAEF DUP2 DUP5 PUSH2 0xA9C JUMP JUMPDEST SWAP1 POP SWAP3 SWAP2 POP POP JUMP JUMPDEST PUSH32 0x4E487B7100000000000000000000000000000000000000000000000000000000 PUSH1 0x0 MSTORE PUSH1 0x11 PUSH1 0x4 MSTORE PUSH1 0x24 PUSH1 0x0 REVERT JUMPDEST PUSH1 0x0 PUSH2 0xB31 DUP3 PUSH2 0x75A JUMP JUMPDEST SWAP2 POP PUSH2 0xB3C DUP4 PUSH2 0x75A JUMP JUMPDEST SWAP3 POP DUP3 DUP3 SUB SWAP1 POP DUP2 DUP2 GT ISZERO PUSH2 0xB54 JUMPI PUSH2 0xB53 PUSH2 0xAF7 JUMP JUMPDEST JUMPDEST SWAP3 SWAP2 POP POP JUMP JUMPDEST PUSH32 0x4E487B7100000000000000000000000000000000000000000000000000000000 PUSH1 0x0 MSTORE PUSH1 0x32 PUSH1 0x4 MSTORE PUSH1 0x24 PUSH1 0x0 REVERT JUMPDEST PUSH1 0x0 PUSH2 0xB94 DUP3 PUSH2 0x75A JUMP JUMPDEST SWAP2 POP PUSH2 0xB9F DUP4 PUSH2 0x75A JUMP JUMPDEST SWAP3 POP DUP3 DUP3 ADD SWAP1 POP DUP1 DUP3 GT ISZERO PUSH2 0xBB7 JUMPI PUSH2 0xBB6 PUSH2 0xAF7 JUMP JUMPDEST JUMPDEST SWAP3 SWAP2 POP POP JUMP JUMPDEST PUSH1 0x0 PUSH2 0xBC8 DUP3 PUSH2 0x75A JUMP JUMPDEST SWAP2 POP PUSH32 0xFFFFFFFFFFFFFFFFFFFFFFFFFFFFFFFFFFFFFFFFFFFFFFFFFFFFFFFFFFFFFFFF DUP3 SUB PUSH2 0xBFA JUMPI PUSH2 0xBF9 PUSH2 0xAF7 JUMP JUMPDEST JUMPDEST PUSH1 0x1 DUP3 ADD SWAP1 POP SWAP2 SWAP1 POP JUMP JUMPDEST PUSH1 0x0 DUP2 PUSH1 0x1 SHR SWAP1 POP SWAP2 SWAP1 POP JUMP JUMPDEST PUSH1 0x0 DUP1 DUP3 SWAP2 POP DUP4 SWAP1 POP JUMPDEST PUSH1 0x1 DUP6 GT ISZERO PUSH2 0xC5C JUMPI DUP1 DUP7 DIV DUP2 GT ISZERO PUSH2 0xC38 JUMPI PUSH2 0xC37 PUSH2 0xAF7 JUMP JUMPDEST JUMPDEST PUSH1 0x1 DUP6 AND ISZERO PUSH2 0xC47 JUMPI DUP1 DUP3 MUL SWAP2 POP JUMPDEST DUP1 DUP2 MUL SWAP1 POP PUSH2 0xC55 DUP6 PUSH2 0xC05 JUMP JUMPDEST SWAP5 POP PUSH2 0xC1C JUMP JUMPDEST SWAP5 POP SWAP5 SWAP3 POP POP POP JUMP JUMPDEST PUSH1 0x0 DUP3 PUSH2 0xC75 JUMPI PUSH1 0x1 SWAP1 POP PUSH2 0xD31 JUMP JUMPDEST DUP2 PUSH2 0xC83 JUMPI PUSH1 0x0 SWAP1 POP PUSH2 0xD31 JUMP JUMPDEST DUP2 PUSH1 0x1 DUP2 EQ PUSH2 0xC99 JUMPI PUSH1 0x2 DUP2 EQ PUSH2 0xCA3 JUMPI PUSH2 0xCD2 JUMP JUMPDEST PUSH1 0x1 SWAP2 POP POP PUSH2 0xD31 JUMP JUMPDEST PUSH1 0xFF DUP5 GT ISZERO PUSH2 0xCB5 JUMPI PUSH2 0xCB4 PUSH2 0xAF7 JUMP JUMPDEST JUMPDEST DUP4 PUSH1 0x2 EXP SWAP2 POP DUP5 DUP3 GT ISZERO PUSH2 0xCCC JUMPI PUSH2 0xCCB PUSH2 0xAF7 JUMP JUMPDEST JUMPDEST POP PUSH2 0xD31 JUMP JUMPDEST POP PUSH1 0x20 DUP4 LT PUSH2 0x133 DUP4 LT AND PUSH1 0x4E DUP5 LT PUSH1 0xB DUP5 LT AND OR ISZERO PUSH2 0xD07 JUMPI DUP3 DUP3 EXP SWAP1 POP DUP4 DUP2 GT ISZERO PUSH2 0xD02 JUMPI PUSH2 0xD01 PUSH2 0xAF7 JUMP JUMPDEST JUMPDEST PUSH2 0xD31 JUMP JUMPDEST PUSH2 0xD14 DUP5 DUP5 DUP5 PUSH1 0x1 PUSH2 0xC12 JUMP JUMPDEST SWAP3 POP SWAP1 POP DUP2 DUP5 DIV DUP2 GT ISZERO PUSH2 0xD2B JUMPI PUSH2 0xD2A PUSH2 0xAF7 JUMP JUMPDEST JUMPDEST DUP2 DUP2 MUL SWAP1 POP JUMPDEST SWAP4 SWAP3 POP POP POP JUMP JUMPDEST PUSH1 0x0 PUSH1 0xFF DUP3 AND SWAP1 POP SWAP2 SWAP1 POP JUMP JUMPDEST PUSH1 0x0 PUSH2 0xD50 DUP3 PUSH2 0x75A JUMP JUMPDEST SWAP2 POP PUSH2 0xD5B DUP4 PUSH2 0xD38 JUMP JUMPDEST SWAP3 POP PUSH2 0xD88 PUSH32 0xFFFFFFFFFFFFFFFFFFFFFFFFFFFFFFFFFFFFFFFFFFFFFFFFFFFFFFFFFFFFFFFF DUP5 DUP5 PUSH2 0xC65 JUMP JUMPDEST SWAP1 POP SWAP3 SWAP2 POP POP JUMP JUMPDEST PUSH32 0x4E487B7100000000000000000000000000000000000000000000000000000000 PUSH1 0x0 MSTORE PUSH1 0x31 PUSH1 0x4 MSTORE PUSH1 0x24 PUSH1 0x0 REVERT JUMPDEST PUSH1 0x0 PUSH2 0xDCA DUP3 PUSH2 0x75A JUMP JUMPDEST SWAP2 POP PUSH2 0xDD5 DUP4 PUSH2 0x75A JUMP JUMPDEST SWAP3 POP DUP3 DUP3 MUL PUSH2 0xDE3 DUP2 PUSH2 0x75A JUMP JUMPDEST SWAP2 POP DUP3 DUP3 DIV DUP5 EQ DUP4 ISZERO OR PUSH2 0xDFA JUMPI PUSH2 0xDF9 PUSH2 0xAF7 JUMP JUMPDEST JUMPDEST POP SWAP3 SWAP2 POP POP JUMP JUMPDEST PUSH32 0x4E487B7100000000000000000000000000000000000000000000000000000000 PUSH1 0x0 MSTORE PUSH1 0x12 PUSH1 0x4 MSTORE PUSH1 0x24 PUSH1 0x0 REVERT JUMPDEST PUSH1 0x0 PUSH2 0xE3B DUP3 PUSH2 0x75A JUMP JUMPDEST SWAP2 POP PUSH2 0xE46 DUP4 PUSH2 0x75A JUMP JUMPDEST SWAP3 POP DUP3 PUSH2 0xE56 JUMPI PUSH2 0xE55 PUSH2 0xE01 JUMP JUMPDEST JUMPDEST DUP3 DUP3 MOD SWAP1 POP SWAP3 SWAP2 POP POP JUMP JUMPDEST PUSH1 0x0 PUSH2 0xE6C DUP3 PUSH2 0x75A JUMP JUMPDEST SWAP2 POP PUSH2 0xE77 DUP4 PUSH2 0x75A JUMP JUMPDEST SWAP3 POP DUP3 PUSH2 0xE87 JUMPI PUSH2 0xE86 PUSH2 0xE01 JUMP JUMPDEST JUMPDEST DUP3 DUP3 DIV SWAP1 POP SWAP3 SWAP2 POP POP JUMP INVALID LOG2 PUSH5 0x6970667358 0x22 SLT KECCAK256 0x5D RETURN SWAP12 0xC5 SWAP12 PUSH2 0x2721 PC 0xE1 SHR PUSH15 0xE7E9452A89B1DCA5F9631D6625E66B SAR CREATE2 0x27 CHAINID 0xBC PUSH5 0x736F6C6343 STOP ADDMOD SLT STOP CALLER "
		},
		"gasEstimates": {
			"creation": {
				"codeDepositCost": "756800",
				"executionCost": "792",
				"totalCost": "757592"
			},
			"external": {
				"Add(uint256,uint256)": "infinite",
				"Div(uint256,uint256)": "infinite",
				"Mul(uint256,uint256)": "infinite",
				"Sub(uint256,uint256)": "infinite",
				"double(uint256)": "infinite",
				"getNum(uint256)": "infinite",
				"getPop()": "29490",
				"getPush(uint256)": "46918",
				"getT()": "2483",
				"rest(uint256)": "infinite",
				"setABC(uint256)": "infinite",
				"setAdd()": "infinite",
				"setNum()": "infinite",
				"square(uint256,uint256)": "infinite",
				"square2(uint256)": "infinite",
				"stringtoBytes(string)": "infinite",
				"triple(uint256,uint256)": "infinite"
			}
		},
		"methodIdentifiers": {
			"Add(uint256,uint256)": "7afbe4f1",
			"Div(uint256,uint256)": "9a03fe1d",
			"Mul(uint256,uint256)": "60953744",
			"Sub(uint256,uint256)": "1ec9c2c0",
			"double(uint256)": "eee97206",
			"getNum(uint256)": "f3358ac4",
			"getPop()": "4ca19cd9",
			"getPush(uint256)": "6cbcea13",
			"getT()": "22554f34",
			"rest(uint256)": "6e8eb222",
			"setABC(uint256)": "e090dde7",
			"setAdd()": "22cc65c6",
			"setNum()": "ac3afa43",
			"square(uint256,uint256)": "ab78e68b",
			"square2(uint256)": "39da68e3",
			"stringtoBytes(string)": "c056b522",
			"triple(uint256,uint256)": "48d50799"
		}
	},
	"abi": [
		{
			"inputs": [
				{
					"internalType": "uint256",
					"name": "a",
					"type": "uint256"
				},
				{
					"internalType": "uint256",
					"name": "b",
					"type": "uint256"
				}
			],
			"name": "Add",
			"outputs": [
				{
					"internalType": "uint256",
					"name": "",
					"type": "uint256"
				}
			],
			"stateMutability": "pure",
			"type": "function"
		},
		{
			"inputs": [
				{
					"internalType": "uint256",
					"name": "a",
					"type": "uint256"
				},
				{
					"internalType": "uint256",
					"name": "b",
					"type": "uint256"
				}
			],
			"name": "Div",
			"outputs": [
				{
					"internalType": "uint256",
					"name": "",
					"type": "uint256"
				}
			],
			"stateMutability": "pure",
			"type": "function"
		},
		{
			"inputs": [
				{
					"internalType": "uint256",
					"name": "a",
					"type": "uint256"
				},
				{
					"internalType": "uint256",
					"name": "b",
					"type": "uint256"
				}
			],
			"name": "Mul",
			"outputs": [
				{
					"internalType": "uint256",
					"name": "",
					"type": "uint256"
				}
			],
			"stateMutability": "pure",
			"type": "function"
		},
		{
			"inputs": [
				{
					"internalType": "uint256",
					"name": "a",
					"type": "uint256"
				},
				{
					"internalType": "uint256",
					"name": "b",
					"type": "uint256"
				}
			],
			"name": "Sub",
			"outputs": [
				{
					"internalType": "uint256",
					"name": "",
					"type": "uint256"
				}
			],
			"stateMutability": "pure",
			"type": "function"
		},
		{
			"inputs": [
				{
					"internalType": "uint256",
					"name": "_t",
					"type": "uint256"
				}
			],
			"name": "double",
			"outputs": [],
			"stateMutability": "nonpayable",
			"type": "function"
		},
		{
			"inputs": [
				{
					"internalType": "uint256",
					"name": "_n",
					"type": "uint256"
				}
			],
			"name": "getNum",
			"outputs": [
				{
					"internalType": "uint256",
					"name": "",
					"type": "uint256"
				}
			],
			"stateMutability": "view",
			"type": "function"
		},
		{
			"inputs": [],
			"name": "getPop",
			"outputs": [],
			"stateMutability": "nonpayable",
			"type": "function"
		},
		{
			"inputs": [
				{
					"internalType": "uint256",
					"name": "_a",
					"type": "uint256"
				}
			],
			"name": "getPush",
			"outputs": [],
			"stateMutability": "nonpayable",
			"type": "function"
		},
		{
			"inputs": [],
			"name": "getT",
			"outputs": [
				{
					"internalType": "uint256",
					"name": "",
					"type": "uint256"
				}
			],
			"stateMutability": "view",
			"type": "function"
		},
		{
			"inputs": [
				{
					"internalType": "uint256",
					"name": "_t",
					"type": "uint256"
				}
			],
			"name": "rest",
			"outputs": [],
			"stateMutability": "nonpayable",
			"type": "function"
		},
		{
			"inputs": [
				{
					"internalType": "uint256",
					"name": "x",
					"type": "uint256"
				}
			],
			"name": "setABC",
			"outputs": [
				{
					"internalType": "string",
					"name": "",
					"type": "string"
				}
			],
			"stateMutability": "pure",
			"type": "function"
		},
		{
			"inputs": [],
			"name": "setAdd",
			"outputs": [
				{
					"internalType": "uint256",
					"name": "",
					"type": "uint256"
				}
			],
			"stateMutability": "nonpayable",
			"type": "function"
		},
		{
			"inputs": [],
			"name": "setNum",
			"outputs": [],
			"stateMutability": "nonpayable",
			"type": "function"
		},
		{
			"inputs": [
				{
					"internalType": "uint256",
					"name": "a",
					"type": "uint256"
				},
				{
					"internalType": "uint256",
					"name": "b",
					"type": "uint256"
				}
			],
			"name": "square",
			"outputs": [
				{
					"internalType": "uint256",
					"name": "",
					"type": "uint256"
				},
				{
					"internalType": "uint256",
					"name": "",
					"type": "uint256"
				}
			],
			"stateMutability": "pure",
			"type": "function"
		},
		{
			"inputs": [
				{
					"internalType": "uint256",
					"name": "_t",
					"type": "uint256"
				}
			],
			"name": "square2",
			"outputs": [],
			"stateMutability": "nonpayable",
			"type": "function"
		},
		{
			"inputs": [
				{
					"internalType": "string",
					"name": "_a",
					"type": "string"
				}
			],
			"name": "stringtoBytes",
			"outputs": [
				{
					"internalType": "bytes",
					"name": "",
					"type": "bytes"
				}
			],
			"stateMutability": "pure",
			"type": "function"
		},
		{
			"inputs": [
				{
					"internalType": "uint256",
					"name": "a",
					"type": "uint256"
				},
				{
					"internalType": "uint256",
					"name": "b",
					"type": "uint256"
				}
			],
			"name": "triple",
			"outputs": [
				{
					"internalType": "uint256",
					"name": "",
					"type": "uint256"
				},
				{
					"internalType": "uint256",
					"name": "",
					"type": "uint256"
				}
			],
			"stateMutability": "pure",
			"type": "function"
		}
	]
}