{
	"data": {
		"bytecode": {
			"linkReferences": {},
			"object": "6080604052600160005534801561001557600080fd5b506106d7806100256000396000f3fe608060405234801561001057600080fd5b50600436106100935760003560e01c806395f05c781161006657806395f05c781461010e578063b357e2cd14610118578063d46300fd14610136578063dcbf774614610154578063fdc4dd0b1461015e57610093565b806312a7b914146100985780636f89b4c5146100b65780637938d4c0146100d45780637a72b90314610104575b600080fd5b6100a061018e565b6040516100ad91906103d3565b60405180910390f35b6100be610198565b6040516100cb9190610407565b60405180910390f35b6100ee60048036038101906100e99190610453565b6101a9565b6040516100fb9190610407565b60405180910390f35b61010c610254565b005b61011661025e565b005b6101206102ab565b60405161012d9190610407565b60405180910390f35b61013e6102fc565b60405161014b9190610407565b60405180910390f35b61015c610305565b005b61017860048036038101906101739190610453565b610353565b60405161018591906103d3565b60405180910390f35b6000808091505090565b600080600190506000819250505090565b6000806003836101b9919061052c565b036102125760006003836101cd919061052c565b0361020d576040517f08c379a0000000000000000000000000000000000000000000000000000000008152600401610204906105a9565b60405180910390fd5b61024e565b6001600383610221919061052c565b0361023a57600382610233919061052c565b905061024f565b600382610247919061052c565b905061024f565b5b919050565b6005600081905550565b60006005600081905550806102a8576040517f08c379a000000000000000000000000000000000000000000000000000000000815260040161029f90610615565b60405180910390fd5b50565b600080600190506000806102f4576040517f08c379a00000000000000000000000000000000000000000000000000000000081526004016102eb906104dd565b60405180910390fd5b819250505090565b60008054905090565b600061030f610254565b8015610350576040517f08c379a000000000000000000000000000000000000000000000000000000000815260040161034790610615565b60405180910390fd5b50565b600080600583610363919061052c565b1480156103705750600a82115b6103af576040517f08c379a00000000000000000000000000000000000000000000000000000000081526004016103a690610681565b60405180910390fd5b60019050919050565b60008115159050919050565b6103cd816103b8565b82525050565b60006020820190506103e860008301846103c4565b92915050565b6000819050919050565b610401816103ee565b82525050565b600060208201905061041c60008301846103f8565b92915050565b600080fd5b610430816103ee565b811461043b57600080fd5b50565b60008135905061044d81610427565b92915050565b60006020828403121561046957610468610422565b5b60006104778482850161043e565b91505092915050565b600082825260208201905092915050565b7f4572726f72000000000000000000000000000000000000000000000000000000600082015250565b60006104c7600583610480565b91506104d282610491565b602082019050919050565b600060208201905081810360008301526104f6816104ba565b9050919050565b7f4e487b7100000000000000000000000000000000000000000000000000000000600052601260045260246000fd5b6000610537826103ee565b9150610542836103ee565b925082610552576105516104fd565b5b828206905092915050565b7f6e6f706500000000000000000000000000000000000000000000000000000000600082015250565b6000610593600483610480565b915061059e8261055d565b602082019050919050565b600060208201905081810360008301526105c281610586565b9050919050565b7f6572726f72000000000000000000000000000000000000000000000000000000600082015250565b60006105ff600583610480565b915061060a826105c9565b602082019050919050565b6000602082019050818103600083015261062e816105f2565b9050919050565b7f4e6f706500000000000000000000000000000000000000000000000000000000600082015250565b600061066b600483610480565b915061067682610635565b602082019050919050565b6000602082019050818103600083015261069a8161065e565b905091905056fea2646970667358221220d81c210de120de9ddea482aea320d264b7d35327174877330893133145498d6a64736f6c63430008120033",
			"opcodes": "PUSH1 0x80 PUSH1 0x40 MSTORE PUSH1 0x1 PUSH1 0x0 SSTORE CALLVALUE DUP1 ISZERO PUSH2 0x15 JUMPI PUSH1 0x0 DUP1 REVERT JUMPDEST POP PUSH2 0x6D7 DUP1 PUSH2 0x25 PUSH1 0x0 CODECOPY PUSH1 0x0 RETURN INVALID PUSH1 0x80 PUSH1 0x40 MSTORE CALLVALUE DUP1 ISZERO PUSH2 0x10 JUMPI PUSH1 0x0 DUP1 REVERT JUMPDEST POP PUSH1 0x4 CALLDATASIZE LT PUSH2 0x93 JUMPI PUSH1 0x0 CALLDATALOAD PUSH1 0xE0 SHR DUP1 PUSH4 0x95F05C78 GT PUSH2 0x66 JUMPI DUP1 PUSH4 0x95F05C78 EQ PUSH2 0x10E JUMPI DUP1 PUSH4 0xB357E2CD EQ PUSH2 0x118 JUMPI DUP1 PUSH4 0xD46300FD EQ PUSH2 0x136 JUMPI DUP1 PUSH4 0xDCBF7746 EQ PUSH2 0x154 JUMPI DUP1 PUSH4 0xFDC4DD0B EQ PUSH2 0x15E JUMPI PUSH2 0x93 JUMP JUMPDEST DUP1 PUSH4 0x12A7B914 EQ PUSH2 0x98 JUMPI DUP1 PUSH4 0x6F89B4C5 EQ PUSH2 0xB6 JUMPI DUP1 PUSH4 0x7938D4C0 EQ PUSH2 0xD4 JUMPI DUP1 PUSH4 0x7A72B903 EQ PUSH2 0x104 JUMPI JUMPDEST PUSH1 0x0 DUP1 REVERT JUMPDEST PUSH2 0xA0 PUSH2 0x18E JUMP JUMPDEST PUSH1 0x40 MLOAD PUSH2 0xAD SWAP2 SWAP1 PUSH2 0x3D3 JUMP JUMPDEST PUSH1 0x40 MLOAD DUP1 SWAP2 SUB SWAP1 RETURN JUMPDEST PUSH2 0xBE PUSH2 0x198 JUMP JUMPDEST PUSH1 0x40 MLOAD PUSH2 0xCB SWAP2 SWAP1 PUSH2 0x407 JUMP JUMPDEST PUSH1 0x40 MLOAD DUP1 SWAP2 SUB SWAP1 RETURN JUMPDEST PUSH2 0xEE PUSH1 0x4 DUP1 CALLDATASIZE SUB DUP2 ADD SWAP1 PUSH2 0xE9 SWAP2 SWAP1 PUSH2 0x453 JUMP JUMPDEST PUSH2 0x1A9 JUMP JUMPDEST PUSH1 0x40 MLOAD PUSH2 0xFB SWAP2 SWAP1 PUSH2 0x407 JUMP JUMPDEST PUSH1 0x40 MLOAD DUP1 SWAP2 SUB SWAP1 RETURN JUMPDEST PUSH2 0x10C PUSH2 0x254 JUMP JUMPDEST STOP JUMPDEST PUSH2 0x116 PUSH2 0x25E JUMP JUMPDEST STOP JUMPDEST PUSH2 0x120 PUSH2 0x2AB JUMP JUMPDEST PUSH1 0x40 MLOAD PUSH2 0x12D SWAP2 SWAP1 PUSH2 0x407 JUMP JUMPDEST PUSH1 0x40 MLOAD DUP1 SWAP2 SUB SWAP1 RETURN JUMPDEST PUSH2 0x13E PUSH2 0x2FC JUMP JUMPDEST PUSH1 0x40 MLOAD PUSH2 0x14B SWAP2 SWAP1 PUSH2 0x407 JUMP JUMPDEST PUSH1 0x40 MLOAD DUP1 SWAP2 SUB SWAP1 RETURN JUMPDEST PUSH2 0x15C PUSH2 0x305 JUMP JUMPDEST STOP JUMPDEST PUSH2 0x178 PUSH1 0x4 DUP1 CALLDATASIZE SUB DUP2 ADD SWAP1 PUSH2 0x173 SWAP2 SWAP1 PUSH2 0x453 JUMP JUMPDEST PUSH2 0x353 JUMP JUMPDEST PUSH1 0x40 MLOAD PUSH2 0x185 SWAP2 SWAP1 PUSH2 0x3D3 JUMP JUMPDEST PUSH1 0x40 MLOAD DUP1 SWAP2 SUB SWAP1 RETURN JUMPDEST PUSH1 0x0 DUP1 DUP1 SWAP2 POP POP SWAP1 JUMP JUMPDEST PUSH1 0x0 DUP1 PUSH1 0x1 SWAP1 POP PUSH1 0x0 DUP2 SWAP3 POP POP POP SWAP1 JUMP JUMPDEST PUSH1 0x0 DUP1 PUSH1 0x3 DUP4 PUSH2 0x1B9 SWAP2 SWAP1 PUSH2 0x52C JUMP JUMPDEST SUB PUSH2 0x212 JUMPI PUSH1 0x0 PUSH1 0x3 DUP4 PUSH2 0x1CD SWAP2 SWAP1 PUSH2 0x52C JUMP JUMPDEST SUB PUSH2 0x20D JUMPI PUSH1 0x40 MLOAD PUSH32 0x8C379A000000000000000000000000000000000000000000000000000000000 DUP2 MSTORE PUSH1 0x4 ADD PUSH2 0x204 SWAP1 PUSH2 0x5A9 JUMP JUMPDEST PUSH1 0x40 MLOAD DUP1 SWAP2 SUB SWAP1 REVERT JUMPDEST PUSH2 0x24E JUMP JUMPDEST PUSH1 0x1 PUSH1 0x3 DUP4 PUSH2 0x221 SWAP2 SWAP1 PUSH2 0x52C JUMP JUMPDEST SUB PUSH2 0x23A JUMPI PUSH1 0x3 DUP3 PUSH2 0x233 SWAP2 SWAP1 PUSH2 0x52C JUMP JUMPDEST SWAP1 POP PUSH2 0x24F JUMP JUMPDEST PUSH1 0x3 DUP3 PUSH2 0x247 SWAP2 SWAP1 PUSH2 0x52C JUMP JUMPDEST SWAP1 POP PUSH2 0x24F JUMP JUMPDEST JUMPDEST SWAP2 SWAP1 POP JUMP JUMPDEST PUSH1 0x5 PUSH1 0x0 DUP2 SWAP1 SSTORE POP JUMP JUMPDEST PUSH1 0x0 PUSH1 0x5 PUSH1 0x0 DUP2 SWAP1 SSTORE POP DUP1 PUSH2 0x2A8 JUMPI PUSH1 0x40 MLOAD PUSH32 0x8C379A000000000000000000000000000000000000000000000000000000000 DUP2 MSTORE PUSH1 0x4 ADD PUSH2 0x29F SWAP1 PUSH2 0x615 JUMP JUMPDEST PUSH1 0x40 MLOAD DUP1 SWAP2 SUB SWAP1 REVERT JUMPDEST POP JUMP JUMPDEST PUSH1 0x0 DUP1 PUSH1 0x1 SWAP1 POP PUSH1 0x0 DUP1 PUSH2 0x2F4 JUMPI PUSH1 0x40 MLOAD PUSH32 0x8C379A000000000000000000000000000000000000000000000000000000000 DUP2 MSTORE PUSH1 0x4 ADD PUSH2 0x2EB SWAP1 PUSH2 0x4DD JUMP JUMPDEST PUSH1 0x40 MLOAD DUP1 SWAP2 SUB SWAP1 REVERT JUMPDEST DUP2 SWAP3 POP POP POP SWAP1 JUMP JUMPDEST PUSH1 0x0 DUP1 SLOAD SWAP1 POP SWAP1 JUMP JUMPDEST PUSH1 0x0 PUSH2 0x30F PUSH2 0x254 JUMP JUMPDEST DUP1 ISZERO PUSH2 0x350 JUMPI PUSH1 0x40 MLOAD PUSH32 0x8C379A000000000000000000000000000000000000000000000000000000000 DUP2 MSTORE PUSH1 0x4 ADD PUSH2 0x347 SWAP1 PUSH2 0x615 JUMP JUMPDEST PUSH1 0x40 MLOAD DUP1 SWAP2 SUB SWAP1 REVERT JUMPDEST POP JUMP JUMPDEST PUSH1 0x0 DUP1 PUSH1 0x5 DUP4 PUSH2 0x363 SWAP2 SWAP1 PUSH2 0x52C JUMP JUMPDEST EQ DUP1 ISZERO PUSH2 0x370 JUMPI POP PUSH1 0xA DUP3 GT JUMPDEST PUSH2 0x3AF JUMPI PUSH1 0x40 MLOAD PUSH32 0x8C379A000000000000000000000000000000000000000000000000000000000 DUP2 MSTORE PUSH1 0x4 ADD PUSH2 0x3A6 SWAP1 PUSH2 0x681 JUMP JUMPDEST PUSH1 0x40 MLOAD DUP1 SWAP2 SUB SWAP1 REVERT JUMPDEST PUSH1 0x1 SWAP1 POP SWAP2 SWAP1 POP JUMP JUMPDEST PUSH1 0x0 DUP2 ISZERO ISZERO SWAP1 POP SWAP2 SWAP1 POP JUMP JUMPDEST PUSH2 0x3CD DUP2 PUSH2 0x3B8 JUMP JUMPDEST DUP3 MSTORE POP POP JUMP JUMPDEST PUSH1 0x0 PUSH1 0x20 DUP3 ADD SWAP1 POP PUSH2 0x3E8 PUSH1 0x0 DUP4 ADD DUP5 PUSH2 0x3C4 JUMP JUMPDEST SWAP3 SWAP2 POP POP JUMP JUMPDEST PUSH1 0x0 DUP2 SWAP1 POP SWAP2 SWAP1 POP JUMP JUMPDEST PUSH2 0x401 DUP2 PUSH2 0x3EE JUMP JUMPDEST DUP3 MSTORE POP POP JUMP JUMPDEST PUSH1 0x0 PUSH1 0x20 DUP3 ADD SWAP1 POP PUSH2 0x41C PUSH1 0x0 DUP4 ADD DUP5 PUSH2 0x3F8 JUMP JUMPDEST SWAP3 SWAP2 POP POP JUMP JUMPDEST PUSH1 0x0 DUP1 REVERT JUMPDEST PUSH2 0x430 DUP2 PUSH2 0x3EE JUMP JUMPDEST DUP2 EQ PUSH2 0x43B JUMPI PUSH1 0x0 DUP1 REVERT JUMPDEST POP JUMP JUMPDEST PUSH1 0x0 DUP2 CALLDATALOAD SWAP1 POP PUSH2 0x44D DUP2 PUSH2 0x427 JUMP JUMPDEST SWAP3 SWAP2 POP POP JUMP JUMPDEST PUSH1 0x0 PUSH1 0x20 DUP3 DUP5 SUB SLT ISZERO PUSH2 0x469 JUMPI PUSH2 0x468 PUSH2 0x422 JUMP JUMPDEST JUMPDEST PUSH1 0x0 PUSH2 0x477 DUP5 DUP3 DUP6 ADD PUSH2 0x43E JUMP JUMPDEST SWAP2 POP POP SWAP3 SWAP2 POP POP JUMP JUMPDEST PUSH1 0x0 DUP3 DUP3 MSTORE PUSH1 0x20 DUP3 ADD SWAP1 POP SWAP3 SWAP2 POP POP JUMP JUMPDEST PUSH32 0x4572726F72000000000000000000000000000000000000000000000000000000 PUSH1 0x0 DUP3 ADD MSTORE POP JUMP JUMPDEST PUSH1 0x0 PUSH2 0x4C7 PUSH1 0x5 DUP4 PUSH2 0x480 JUMP JUMPDEST SWAP2 POP PUSH2 0x4D2 DUP3 PUSH2 0x491 JUMP JUMPDEST PUSH1 0x20 DUP3 ADD SWAP1 POP SWAP2 SWAP1 POP JUMP JUMPDEST PUSH1 0x0 PUSH1 0x20 DUP3 ADD SWAP1 POP DUP2 DUP2 SUB PUSH1 0x0 DUP4 ADD MSTORE PUSH2 0x4F6 DUP2 PUSH2 0x4BA JUMP JUMPDEST SWAP1 POP SWAP2 SWAP1 POP JUMP JUMPDEST PUSH32 0x4E487B7100000000000000000000000000000000000000000000000000000000 PUSH1 0x0 MSTORE PUSH1 0x12 PUSH1 0x4 MSTORE PUSH1 0x24 PUSH1 0x0 REVERT JUMPDEST PUSH1 0x0 PUSH2 0x537 DUP3 PUSH2 0x3EE JUMP JUMPDEST SWAP2 POP PUSH2 0x542 DUP4 PUSH2 0x3EE JUMP JUMPDEST SWAP3 POP DUP3 PUSH2 0x552 JUMPI PUSH2 0x551 PUSH2 0x4FD JUMP JUMPDEST JUMPDEST DUP3 DUP3 MOD SWAP1 POP SWAP3 SWAP2 POP POP JUMP JUMPDEST PUSH32 0x6E6F706500000000000000000000000000000000000000000000000000000000 PUSH1 0x0 DUP3 ADD MSTORE POP JUMP JUMPDEST PUSH1 0x0 PUSH2 0x593 PUSH1 0x4 DUP4 PUSH2 0x480 JUMP JUMPDEST SWAP2 POP PUSH2 0x59E DUP3 PUSH2 0x55D JUMP JUMPDEST PUSH1 0x20 DUP3 ADD SWAP1 POP SWAP2 SWAP1 POP JUMP JUMPDEST PUSH1 0x0 PUSH1 0x20 DUP3 ADD SWAP1 POP DUP2 DUP2 SUB PUSH1 0x0 DUP4 ADD MSTORE PUSH2 0x5C2 DUP2 PUSH2 0x586 JUMP JUMPDEST SWAP1 POP SWAP2 SWAP1 POP JUMP JUMPDEST PUSH32 0x6572726F72000000000000000000000000000000000000000000000000000000 PUSH1 0x0 DUP3 ADD MSTORE POP JUMP JUMPDEST PUSH1 0x0 PUSH2 0x5FF PUSH1 0x5 DUP4 PUSH2 0x480 JUMP JUMPDEST SWAP2 POP PUSH2 0x60A DUP3 PUSH2 0x5C9 JUMP JUMPDEST PUSH1 0x20 DUP3 ADD SWAP1 POP SWAP2 SWAP1 POP JUMP JUMPDEST PUSH1 0x0 PUSH1 0x20 DUP3 ADD SWAP1 POP DUP2 DUP2 SUB PUSH1 0x0 DUP4 ADD MSTORE PUSH2 0x62E DUP2 PUSH2 0x5F2 JUMP JUMPDEST SWAP1 POP SWAP2 SWAP1 POP JUMP JUMPDEST PUSH32 0x4E6F706500000000000000000000000000000000000000000000000000000000 PUSH1 0x0 DUP3 ADD MSTORE POP JUMP JUMPDEST PUSH1 0x0 PUSH2 0x66B PUSH1 0x4 DUP4 PUSH2 0x480 JUMP JUMPDEST SWAP2 POP PUSH2 0x676 DUP3 PUSH2 0x635 JUMP JUMPDEST PUSH1 0x20 DUP3 ADD SWAP1 POP SWAP2 SWAP1 POP JUMP JUMPDEST PUSH1 0x0 PUSH1 0x20 DUP3 ADD SWAP1 POP DUP2 DUP2 SUB PUSH1 0x0 DUP4 ADD MSTORE PUSH2 0x69A DUP2 PUSH2 0x65E JUMP JUMPDEST SWAP1 POP SWAP2 SWAP1 POP JUMP INVALID LOG2 PUSH5 0x6970667358 0x22 SLT KECCAK256 0xD8 SHR 0x21 0xD 0xE1 KECCAK256 0xDE SWAP14 0xDE LOG4 DUP3 0xAE LOG3 KECCAK256 0xD2 PUSH5 0xB7D3532717 BASEFEE PUSH24 0x330893133145498D6A64736F6C6343000812003300000000 "
		},
		"gasEstimates": {
			"creation": {
				"codeDepositCost": "350200",
				"executionCost": "22492",
				"totalCost": "372692"
			},
			"external": {
				"Require()": "489",
				"Require2()": "378",
				"Require3()": "22567",
				"Require4()": "22373",
				"Require5(uint256)": "infinite",
				"Require6(uint256)": "infinite",
				"getA()": "2481",
				"getBool()": "349",
				"setAasFive()": "22325"
			}
		},
		"methodIdentifiers": {
			"Require()": "b357e2cd",
			"Require2()": "6f89b4c5",
			"Require3()": "95f05c78",
			"Require4()": "dcbf7746",
			"Require5(uint256)": "fdc4dd0b",
			"Require6(uint256)": "7938d4c0",
			"getA()": "d46300fd",
			"getBool()": "12a7b914",
			"setAasFive()": "7a72b903"
		}
	},
	"abi": [
		{
			"inputs": [],
			"name": "Require",
			"outputs": [
				{
					"internalType": "uint256",
					"name": "",
					"type": "uint256"
				}
			],
			"stateMutability": "pure",
			"type": "function"
		},
		{
			"inputs": [],
			"name": "Require2",
			"outputs": [
				{
					"internalType": "uint256",
					"name": "",
					"type": "uint256"
				}
			],
			"stateMutability": "pure",
			"type": "function"
		},
		{
			"inputs": [],
			"name": "Require3",
			"outputs": [],
			"stateMutability": "nonpayable",
			"type": "function"
		},
		{
			"inputs": [],
			"name": "Require4",
			"outputs": [],
			"stateMutability": "nonpayable",
			"type": "function"
		},
		{
			"inputs": [
				{
					"internalType": "uint256",
					"name": "_n",
					"type": "uint256"
				}
			],
			"name": "Require5",
			"outputs": [
				{
					"internalType": "bool",
					"name": "",
					"type": "bool"
				}
			],
			"stateMutability": "pure",
			"type": "function"
		},
		{
			"inputs": [
				{
					"internalType": "uint256",
					"name": "_a",
					"type": "uint256"
				}
			],
			"name": "Require6",
			"outputs": [
				{
					"internalType": "uint256",
					"name": "",
					"type": "uint256"
				}
			],
			"stateMutability": "pure",
			"type": "function"
		},
		{
			"inputs": [],
			"name": "getA",
			"outputs": [
				{
					"internalType": "uint256",
					"name": "",
					"type": "uint256"
				}
			],
			"stateMutability": "view",
			"type": "function"
		},
		{
			"inputs": [],
			"name": "getBool",
			"outputs": [
				{
					"internalType": "bool",
					"name": "",
					"type": "bool"
				}
			],
			"stateMutability": "pure",
			"type": "function"
		},
		{
			"inputs": [],
			"name": "setAasFive",
			"outputs": [],
			"stateMutability": "nonpayable",
			"type": "function"
		}
	]
}