{
	"data": {
		"bytecode": {
			"linkReferences": {},
			"object": "608060405260646002556103e860035561271060045534801561002157600080fd5b50610169806100316000396000f3fe608060405234801561001057600080fd5b50600436106100365760003560e01c80634df7e3d01461003b578063521eb27314610059575b600080fd5b610043610077565b60405161005091906100e4565b60405180910390f35b61006161009d565b60405161006e9190610118565b60405180910390f35b600160009054906101000a900473ffffffffffffffffffffffffffffffffffffffff1681565b60025481565b600073ffffffffffffffffffffffffffffffffffffffff82169050919050565b60006100ce826100a3565b9050919050565b6100de816100c3565b82525050565b60006020820190506100f960008301846100d5565b92915050565b6000819050919050565b610112816100ff565b82525050565b600060208201905061012d6000830184610109565b9291505056fea264697066735822122064138f76a9b5f20d2b02040448bb2e7ddbf1b0996c3519800b5547b5bd75a32e64736f6c63430008120033",
			"opcodes": "PUSH1 0x80 PUSH1 0x40 MSTORE PUSH1 0x64 PUSH1 0x2 SSTORE PUSH2 0x3E8 PUSH1 0x3 SSTORE PUSH2 0x2710 PUSH1 0x4 SSTORE CALLVALUE DUP1 ISZERO PUSH2 0x21 JUMPI PUSH1 0x0 DUP1 REVERT JUMPDEST POP PUSH2 0x169 DUP1 PUSH2 0x31 PUSH1 0x0 CODECOPY PUSH1 0x0 RETURN INVALID PUSH1 0x80 PUSH1 0x40 MSTORE CALLVALUE DUP1 ISZERO PUSH2 0x10 JUMPI PUSH1 0x0 DUP1 REVERT JUMPDEST POP PUSH1 0x4 CALLDATASIZE LT PUSH2 0x36 JUMPI PUSH1 0x0 CALLDATALOAD PUSH1 0xE0 SHR DUP1 PUSH4 0x4DF7E3D0 EQ PUSH2 0x3B JUMPI DUP1 PUSH4 0x521EB273 EQ PUSH2 0x59 JUMPI JUMPDEST PUSH1 0x0 DUP1 REVERT JUMPDEST PUSH2 0x43 PUSH2 0x77 JUMP JUMPDEST PUSH1 0x40 MLOAD PUSH2 0x50 SWAP2 SWAP1 PUSH2 0xE4 JUMP JUMPDEST PUSH1 0x40 MLOAD DUP1 SWAP2 SUB SWAP1 RETURN JUMPDEST PUSH2 0x61 PUSH2 0x9D JUMP JUMPDEST PUSH1 0x40 MLOAD PUSH2 0x6E SWAP2 SWAP1 PUSH2 0x118 JUMP JUMPDEST PUSH1 0x40 MLOAD DUP1 SWAP2 SUB SWAP1 RETURN JUMPDEST PUSH1 0x1 PUSH1 0x0 SWAP1 SLOAD SWAP1 PUSH2 0x100 EXP SWAP1 DIV PUSH20 0xFFFFFFFFFFFFFFFFFFFFFFFFFFFFFFFFFFFFFFFF AND DUP2 JUMP JUMPDEST PUSH1 0x2 SLOAD DUP2 JUMP JUMPDEST PUSH1 0x0 PUSH20 0xFFFFFFFFFFFFFFFFFFFFFFFFFFFFFFFFFFFFFFFF DUP3 AND SWAP1 POP SWAP2 SWAP1 POP JUMP JUMPDEST PUSH1 0x0 PUSH2 0xCE DUP3 PUSH2 0xA3 JUMP JUMPDEST SWAP1 POP SWAP2 SWAP1 POP JUMP JUMPDEST PUSH2 0xDE DUP2 PUSH2 0xC3 JUMP JUMPDEST DUP3 MSTORE POP POP JUMP JUMPDEST PUSH1 0x0 PUSH1 0x20 DUP3 ADD SWAP1 POP PUSH2 0xF9 PUSH1 0x0 DUP4 ADD DUP5 PUSH2 0xD5 JUMP JUMPDEST SWAP3 SWAP2 POP POP JUMP JUMPDEST PUSH1 0x0 DUP2 SWAP1 POP SWAP2 SWAP1 POP JUMP JUMPDEST PUSH2 0x112 DUP2 PUSH2 0xFF JUMP JUMPDEST DUP3 MSTORE POP POP JUMP JUMPDEST PUSH1 0x0 PUSH1 0x20 DUP3 ADD SWAP1 POP PUSH2 0x12D PUSH1 0x0 DUP4 ADD DUP5 PUSH2 0x109 JUMP JUMPDEST SWAP3 SWAP2 POP POP JUMP INVALID LOG2 PUSH5 0x6970667358 0x22 SLT KECCAK256 PUSH5 0x138F76A9B5 CALLCODE 0xD 0x2B MUL DIV DIV BASEFEE 0xBB 0x2E PUSH30 0xDBF1B0996C3519800B5547B5BD75A32E64736F6C63430008120033000000 "
		},
		"gasEstimates": {
			"creation": {
				"codeDepositCost": "72200",
				"executionCost": "66441",
				"totalCost": "138641"
			},
			"external": {
				"b()": "2492",
				"wallet()": "2429"
			},
			"internal": {
				"changeWallet(uint256)": "infinite",
				"password()": "infinite"
			}
		},
		"methodIdentifiers": {
			"b()": "4df7e3d0",
			"wallet()": "521eb273"
		}
	},
	"abi": [
		{
			"inputs": [],
			"name": "b",
			"outputs": [
				{
					"internalType": "address",
					"name": "",
					"type": "address"
				}
			],
			"stateMutability": "view",
			"type": "function"
		},
		{
			"inputs": [],
			"name": "wallet",
			"outputs": [
				{
					"internalType": "uint256",
					"name": "",
					"type": "uint256"
				}
			],
			"stateMutability": "view",
			"type": "function"
		}
	]
}