{
	"contracts/0512/Quiz.sol": {
		"Quiz": {
			"abi": [
				{
					"inputs": [
						{
							"internalType": "uint256",
							"name": "a",
							"type": "uint256"
						},
						{
							"internalType": "uint256",
							"name": "b",
							"type": "uint256"
						}
					],
					"name": "Add",
					"outputs": [
						{
							"internalType": "uint256",
							"name": "",
							"type": "uint256"
						}
					],
					"stateMutability": "pure",
					"type": "function"
				},
				{
					"inputs": [
						{
							"internalType": "uint256",
							"name": "a",
							"type": "uint256"
						},
						{
							"internalType": "uint256",
							"name": "b",
							"type": "uint256"
						}
					],
					"name": "Div",
					"outputs": [
						{
							"internalType": "uint256",
							"name": "",
							"type": "uint256"
						}
					],
					"stateMutability": "pure",
					"type": "function"
				},
				{
					"inputs": [
						{
							"internalType": "uint256",
							"name": "a",
							"type": "uint256"
						},
						{
							"internalType": "uint256",
							"name": "b",
							"type": "uint256"
						}
					],
					"name": "Mul",
					"outputs": [
						{
							"internalType": "uint256",
							"name": "",
							"type": "uint256"
						}
					],
					"stateMutability": "pure",
					"type": "function"
				},
				{
					"inputs": [
						{
							"internalType": "uint256",
							"name": "a",
							"type": "uint256"
						},
						{
							"internalType": "uint256",
							"name": "b",
							"type": "uint256"
						}
					],
					"name": "Sub",
					"outputs": [
						{
							"internalType": "uint256",
							"name": "",
							"type": "uint256"
						}
					],
					"stateMutability": "pure",
					"type": "function"
				},
				{
					"inputs": [
						{
							"internalType": "uint256",
							"name": "_t",
							"type": "uint256"
						}
					],
					"name": "double",
					"outputs": [],
					"stateMutability": "nonpayable",
					"type": "function"
				},
				{
					"inputs": [
						{
							"internalType": "uint256",
							"name": "_n",
							"type": "uint256"
						}
					],
					"name": "getNum",
					"outputs": [
						{
							"internalType": "uint256",
							"name": "",
							"type": "uint256"
						}
					],
					"stateMutability": "view",
					"type": "function"
				},
				{
					"inputs": [],
					"name": "getPop",
					"outputs": [],
					"stateMutability": "nonpayable",
					"type": "function"
				},
				{
					"inputs": [
						{
							"internalType": "uint256",
							"name": "_a",
							"type": "uint256"
						}
					],
					"name": "getPush",
					"outputs": [],
					"stateMutability": "nonpayable",
					"type": "function"
				},
				{
					"inputs": [],
					"name": "getT",
					"outputs": [
						{
							"internalType": "uint256",
							"name": "",
							"type": "uint256"
						}
					],
					"stateMutability": "view",
					"type": "function"
				},
				{
					"inputs": [
						{
							"internalType": "uint256",
							"name": "_t",
							"type": "uint256"
						}
					],
					"name": "rest",
					"outputs": [],
					"stateMutability": "nonpayable",
					"type": "function"
				},
				{
					"inputs": [
						{
							"internalType": "uint256",
							"name": "x",
							"type": "uint256"
						}
					],
					"name": "setABC",
					"outputs": [
						{
							"internalType": "string",
							"name": "",
							"type": "string"
						}
					],
					"stateMutability": "pure",
					"type": "function"
				},
				{
					"inputs": [],
					"name": "setAdd",
					"outputs": [
						{
							"internalType": "uint256",
							"name": "",
							"type": "uint256"
						}
					],
					"stateMutability": "nonpayable",
					"type": "function"
				},
				{
					"inputs": [],
					"name": "setNum",
					"outputs": [],
					"stateMutability": "nonpayable",
					"type": "function"
				},
				{
					"inputs": [
						{
							"internalType": "uint256",
							"name": "a",
							"type": "uint256"
						},
						{
							"internalType": "uint256",
							"name": "b",
							"type": "uint256"
						}
					],
					"name": "square",
					"outputs": [
						{
							"internalType": "uint256",
							"name": "",
							"type": "uint256"
						},
						{
							"internalType": "uint256",
							"name": "",
							"type": "uint256"
						}
					],
					"stateMutability": "pure",
					"type": "function"
				},
				{
					"inputs": [
						{
							"internalType": "uint256",
							"name": "_t",
							"type": "uint256"
						}
					],
					"name": "square2",
					"outputs": [],
					"stateMutability": "nonpayable",
					"type": "function"
				},
				{
					"inputs": [
						{
							"internalType": "string",
							"name": "_a",
							"type": "string"
						}
					],
					"name": "stringtoBytes",
					"outputs": [
						{
							"internalType": "bytes",
							"name": "",
							"type": "bytes"
						}
					],
					"stateMutability": "pure",
					"type": "function"
				},
				{
					"inputs": [
						{
							"internalType": "uint256",
							"name": "a",
							"type": "uint256"
						},
						{
							"internalType": "uint256",
							"name": "b",
							"type": "uint256"
						}
					],
					"name": "triple",
					"outputs": [
						{
							"internalType": "uint256",
							"name": "",
							"type": "uint256"
						},
						{
							"internalType": "uint256",
							"name": "",
							"type": "uint256"
						}
					],
					"stateMutability": "pure",
					"type": "function"
				}
			],
			"devdoc": {
				"kind": "dev",
				"methods": {},
				"version": 1
			},
			"evm": {
				"assembly": "    /* \"contracts/0512/Quiz.sol\":69:4443  contract Quiz{... */\n  mstore(0x40, 0x80)\n  callvalue\n  dup1\n  iszero\n  tag_1\n  jumpi\n  0x00\n  dup1\n  revert\ntag_1:\n  pop\n  dataSize(sub_0)\n  dup1\n  dataOffset(sub_0)\n  0x00\n  codecopy\n  0x00\n  return\nstop\n\nsub_0: assembly {\n        /* \"contracts/0512/Quiz.sol\":69:4443  contract Quiz{... */\n      mstore(0x40, 0x80)\n      callvalue\n      dup1\n      iszero\n      tag_1\n      jumpi\n      0x00\n      dup1\n      revert\n    tag_1:\n      pop\n      jumpi(tag_2, lt(calldatasize, 0x04))\n      shr(0xe0, calldataload(0x00))\n      dup1\n      0x6e8eb222\n      gt\n      tag_20\n      jumpi\n      dup1\n      0xac3afa43\n      gt\n      tag_21\n      jumpi\n      dup1\n      0xac3afa43\n      eq\n      tag_15\n      jumpi\n      dup1\n      0xc056b522\n      eq\n      tag_16\n      jumpi\n      dup1\n      0xe090dde7\n      eq\n      tag_17\n      jumpi\n      dup1\n      0xeee97206\n      eq\n      tag_18\n      jumpi\n      dup1\n      0xf3358ac4\n      eq\n      tag_19\n      jumpi\n      jump(tag_2)\n    tag_21:\n      dup1\n      0x6e8eb222\n      eq\n      tag_11\n      jumpi\n      dup1\n      0x7afbe4f1\n      eq\n      tag_12\n      jumpi\n      dup1\n      0x9a03fe1d\n      eq\n      tag_13\n      jumpi\n      dup1\n      0xab78e68b\n      eq\n      tag_14\n      jumpi\n      jump(tag_2)\n    tag_20:\n      dup1\n      0x48d50799\n      gt\n      tag_22\n      jumpi\n      dup1\n      0x48d50799\n      eq\n      tag_7\n      jumpi\n      dup1\n      0x4ca19cd9\n      eq\n      tag_8\n      jumpi\n      dup1\n      0x60953744\n      eq\n      tag_9\n      jumpi\n      dup1\n      0x6cbcea13\n      eq\n      tag_10\n      jumpi\n      jump(tag_2)\n    tag_22:\n      dup1\n      0x1ec9c2c0\n      eq\n      tag_3\n      jumpi\n      dup1\n      0x22554f34\n      eq\n      tag_4\n      jumpi\n      dup1\n      0x22cc65c6\n      eq\n      tag_5\n      jumpi\n      dup1\n      0x39da68e3\n      eq\n      tag_6\n      jumpi\n    tag_2:\n      0x00\n      dup1\n      revert\n        /* \"contracts/0512/Quiz.sol\":555:647  function Sub (uint a, uint b) public pure returns(uint){... */\n    tag_3:\n      tag_23\n      0x04\n      dup1\n      calldatasize\n      sub\n      dup2\n      add\n      swap1\n      tag_24\n      swap2\n      swap1\n      tag_25\n      jump\t// in\n    tag_24:\n      tag_26\n      jump\t// in\n    tag_23:\n      mload(0x40)\n      tag_27\n      swap2\n      swap1\n      tag_28\n      jump\t// in\n    tag_27:\n      mload(0x40)\n      dup1\n      swap2\n      sub\n      swap1\n      return\n        /* \"contracts/0512/Quiz.sol\":2347:2417  function getT() public view returns (uint) {... */\n    tag_4:\n      tag_29\n      tag_30\n      jump\t// in\n    tag_29:\n      mload(0x40)\n      tag_31\n      swap2\n      swap1\n      tag_28\n      jump\t// in\n    tag_31:\n      mload(0x40)\n      dup1\n      swap2\n      sub\n      swap1\n      return\n        /* \"contracts/0512/Quiz.sol\":2961:3150  function setAdd() public returns(uint) {... */\n    tag_5:\n      tag_32\n      tag_33\n      jump\t// in\n    tag_32:\n      mload(0x40)\n      tag_34\n      swap2\n      swap1\n      tag_28\n      jump\t// in\n    tag_34:\n      mload(0x40)\n      dup1\n      swap2\n      sub\n      swap1\n      return\n        /* \"contracts/0512/Quiz.sol\":1764:1886  function square2(uint _t) public  {... */\n    tag_6:\n      tag_35\n      0x04\n      dup1\n      calldatasize\n      sub\n      dup2\n      add\n      swap1\n      tag_36\n      swap2\n      swap1\n      tag_37\n      jump\t// in\n    tag_36:\n      tag_38\n      jump\t// in\n    tag_35:\n      stop\n        /* \"contracts/0512/Quiz.sol\":1146:1254  function triple(uint a, uint b) public pure returns(uint , uint)... */\n    tag_7:\n      tag_39\n      0x04\n      dup1\n      calldatasize\n      sub\n      dup2\n      add\n      swap1\n      tag_40\n      swap2\n      swap1\n      tag_25\n      jump\t// in\n    tag_40:\n      tag_41\n      jump\t// in\n    tag_39:\n      mload(0x40)\n      tag_42\n      swap3\n      swap2\n      swap1\n      tag_43\n      jump\t// in\n    tag_42:\n      mload(0x40)\n      dup1\n      swap2\n      sub\n      swap1\n      return\n        /* \"contracts/0512/Quiz.sol\":4276:4333  function getPop() public{... */\n    tag_8:\n      tag_44\n      tag_45\n      jump\t// in\n    tag_44:\n      stop\n        /* \"contracts/0512/Quiz.sol\":657:749  function Mul (uint a, uint b) public pure returns(uint){... */\n    tag_9:\n      tag_46\n      0x04\n      dup1\n      calldatasize\n      sub\n      dup2\n      add\n      swap1\n      tag_47\n      swap2\n      swap1\n      tag_25\n      jump\t// in\n    tag_47:\n      tag_48\n      jump\t// in\n    tag_46:\n      mload(0x40)\n      tag_49\n      swap2\n      swap1\n      tag_28\n      jump\t// in\n    tag_49:\n      mload(0x40)\n      dup1\n      swap2\n      sub\n      swap1\n      return\n        /* \"contracts/0512/Quiz.sol\":4199:4268  function getPush(uint _a) public {... */\n    tag_10:\n      tag_50\n      0x04\n      dup1\n      calldatasize\n      sub\n      dup2\n      add\n      swap1\n      tag_51\n      swap2\n      swap1\n      tag_37\n      jump\t// in\n    tag_51:\n      tag_52\n      jump\t// in\n    tag_50:\n      stop\n        /* \"contracts/0512/Quiz.sol\":2217:2335  function rest(uint _t) public {... */\n    tag_11:\n      tag_53\n      0x04\n      dup1\n      calldatasize\n      sub\n      dup2\n      add\n      swap1\n      tag_54\n      swap2\n      swap1\n      tag_37\n      jump\t// in\n    tag_54:\n      tag_55\n      jump\t// in\n    tag_53:\n      stop\n        /* \"contracts/0512/Quiz.sol\":453:545  function Add (uint a, uint b) public pure returns(uint){... */\n    tag_12:\n      tag_56\n      0x04\n      dup1\n      calldatasize\n      sub\n      dup2\n      add\n      swap1\n      tag_57\n      swap2\n      swap1\n      tag_25\n      jump\t// in\n    tag_57:\n      tag_58\n      jump\t// in\n    tag_56:\n      mload(0x40)\n      tag_59\n      swap2\n      swap1\n      tag_28\n      jump\t// in\n    tag_59:\n      mload(0x40)\n      dup1\n      swap2\n      sub\n      swap1\n      return\n        /* \"contracts/0512/Quiz.sol\":759:851  function Div (uint a, uint b) public pure returns(uint){... */\n    tag_13:\n      tag_60\n      0x04\n      dup1\n      calldatasize\n      sub\n      dup2\n      add\n      swap1\n      tag_61\n      swap2\n      swap1\n      tag_25\n      jump\t// in\n    tag_61:\n      tag_62\n      jump\t// in\n    tag_60:\n      mload(0x40)\n      tag_63\n      swap2\n      swap1\n      tag_28\n      jump\t// in\n    tag_63:\n      mload(0x40)\n      dup1\n      swap2\n      sub\n      swap1\n      return\n        /* \"contracts/0512/Quiz.sol\":1029:1135  function square(uint a, uint b) public pure returns(uint, uint)... */\n    tag_14:\n      tag_64\n      0x04\n      dup1\n      calldatasize\n      sub\n      dup2\n      add\n      swap1\n      tag_65\n      swap2\n      swap1\n      tag_25\n      jump\t// in\n    tag_65:\n      tag_66\n      jump\t// in\n    tag_64:\n      mload(0x40)\n      tag_67\n      swap3\n      swap2\n      swap1\n      tag_43\n      jump\t// in\n    tag_67:\n      mload(0x40)\n      dup1\n      swap2\n      sub\n      swap1\n      return\n        /* \"contracts/0512/Quiz.sol\":2606:2712  function setNum() public {... */\n    tag_15:\n      tag_68\n      tag_69\n      jump\t// in\n    tag_68:\n      stop\n        /* \"contracts/0512/Quiz.sol\":3870:3980  function stringtoBytes(string memory _a) public pure returns (bytes memory){... */\n    tag_16:\n      tag_70\n      0x04\n      dup1\n      calldatasize\n      sub\n      dup2\n      add\n      swap1\n      tag_71\n      swap2\n      swap1\n      tag_72\n      jump\t// in\n    tag_71:\n      tag_73\n      jump\t// in\n    tag_70:\n      mload(0x40)\n      tag_74\n      swap2\n      swap1\n      tag_75\n      jump\t// in\n    tag_74:\n      mload(0x40)\n      dup1\n      swap2\n      sub\n      swap1\n      return\n        /* \"contracts/0512/Quiz.sol\":3421:3748  function setABC(uint x) public pure returns(string memory)... */\n    tag_17:\n      tag_76\n      0x04\n      dup1\n      calldatasize\n      sub\n      dup2\n      add\n      swap1\n      tag_77\n      swap2\n      swap1\n      tag_37\n      jump\t// in\n    tag_77:\n      tag_78\n      jump\t// in\n    tag_76:\n      mload(0x40)\n      tag_79\n      swap2\n      swap1\n      tag_80\n      jump\t// in\n    tag_79:\n      mload(0x40)\n      dup1\n      swap2\n      sub\n      swap1\n      return\n        /* \"contracts/0512/Quiz.sol\":1985:2104  function double(uint _t) public {... */\n    tag_18:\n      tag_81\n      0x04\n      dup1\n      calldatasize\n      sub\n      dup2\n      add\n      swap1\n      tag_82\n      swap2\n      swap1\n      tag_37\n      jump\t// in\n    tag_82:\n      tag_83\n      jump\t// in\n    tag_81:\n      stop\n        /* \"contracts/0512/Quiz.sol\":4341:4431  function getNum(uint _n) public view returns (uint) {... */\n    tag_19:\n      tag_84\n      0x04\n      dup1\n      calldatasize\n      sub\n      dup2\n      add\n      swap1\n      tag_85\n      swap2\n      swap1\n      tag_37\n      jump\t// in\n    tag_85:\n      tag_86\n      jump\t// in\n    tag_84:\n      mload(0x40)\n      tag_87\n      swap2\n      swap1\n      tag_28\n      jump\t// in\n    tag_87:\n      mload(0x40)\n      dup1\n      swap2\n      sub\n      swap1\n      return\n        /* \"contracts/0512/Quiz.sol\":555:647  function Sub (uint a, uint b) public pure returns(uint){... */\n    tag_26:\n        /* \"contracts/0512/Quiz.sol\":605:609  uint */\n      0x00\n        /* \"contracts/0512/Quiz.sol\":634:635  b */\n      dup2\n        /* \"contracts/0512/Quiz.sol\":632:633  a */\n      dup4\n        /* \"contracts/0512/Quiz.sol\":632:635  a-b */\n      tag_89\n      swap2\n      swap1\n      tag_90\n      jump\t// in\n    tag_89:\n        /* \"contracts/0512/Quiz.sol\":625:635  return a-b */\n      swap1\n      pop\n        /* \"contracts/0512/Quiz.sol\":555:647  function Sub (uint a, uint b) public pure returns(uint){... */\n      swap3\n      swap2\n      pop\n      pop\n      jump\t// out\n        /* \"contracts/0512/Quiz.sol\":2347:2417  function getT() public view returns (uint) {... */\n    tag_30:\n        /* \"contracts/0512/Quiz.sol\":2384:2388  uint */\n      0x00\n        /* \"contracts/0512/Quiz.sol\":2408:2409  t */\n      sload(0x01)\n        /* \"contracts/0512/Quiz.sol\":2401:2409  return t */\n      swap1\n      pop\n        /* \"contracts/0512/Quiz.sol\":2347:2417  function getT() public view returns (uint) {... */\n      swap1\n      jump\t// out\n        /* \"contracts/0512/Quiz.sol\":2961:3150  function setAdd() public returns(uint) {... */\n    tag_33:\n        /* \"contracts/0512/Quiz.sol\":2994:2998  uint */\n      0x00\n        /* \"contracts/0512/Quiz.sol\":3011:3017  uint u */\n      dup1\n        /* \"contracts/0512/Quiz.sol\":3032:3038  uint i */\n      0x00\n        /* \"contracts/0512/Quiz.sol\":3028:3124  for(uint i=0; i<5; i++){... */\n    tag_93:\n        /* \"contracts/0512/Quiz.sol\":3044:3045  5 */\n      0x05\n        /* \"contracts/0512/Quiz.sol\":3042:3043  i */\n      dup2\n        /* \"contracts/0512/Quiz.sol\":3042:3045  i<5 */\n      lt\n        /* \"contracts/0512/Quiz.sol\":3028:3124  for(uint i=0; i<5; i++){... */\n      iszero\n      tag_94\n      jumpi\n        /* \"contracts/0512/Quiz.sol\":3066:3073  numbers */\n      0x02\n        /* \"contracts/0512/Quiz.sol\":3079:3080  i */\n      dup2\n        /* \"contracts/0512/Quiz.sol\":3066:3081  numbers.push(i) */\n      swap1\n      dup1\n      0x01\n      dup2\n      sload\n      add\n      dup1\n      dup3\n      sstore\n      dup1\n      swap2\n      pop\n      pop\n      0x01\n      swap1\n      sub\n      swap1\n      0x00\n      mstore\n      keccak256(0x00, 0x20)\n      add\n      0x00\n      swap1\n      swap2\n      swap1\n      swap2\n      swap1\n      swap2\n      pop\n      sstore\n        /* \"contracts/0512/Quiz.sol\":3102:3109  numbers */\n      0x02\n        /* \"contracts/0512/Quiz.sol\":3110:3111  i */\n      dup2\n        /* \"contracts/0512/Quiz.sol\":3102:3112  numbers[i] */\n      dup2\n      sload\n      dup2\n      lt\n      tag_97\n      jumpi\n      tag_98\n      tag_99\n      jump\t// in\n    tag_98:\n    tag_97:\n      swap1\n      0x00\n      mstore\n      keccak256(0x00, 0x20)\n      add\n      sload\n        /* \"contracts/0512/Quiz.sol\":3099:3100  u */\n      dup3\n        /* \"contracts/0512/Quiz.sol\":3099:3112  u+ numbers[i] */\n      tag_101\n      swap2\n      swap1\n      tag_102\n      jump\t// in\n    tag_101:\n        /* \"contracts/0512/Quiz.sol\":3096:3112  u= u+ numbers[i] */\n      swap2\n      pop\n        /* \"contracts/0512/Quiz.sol\":3047:3050  i++ */\n      dup1\n      dup1\n      tag_103\n      swap1\n      tag_104\n      jump\t// in\n    tag_103:\n      swap2\n      pop\n      pop\n        /* \"contracts/0512/Quiz.sol\":3028:3124  for(uint i=0; i<5; i++){... */\n      jump(tag_93)\n    tag_94:\n      pop\n        /* \"contracts/0512/Quiz.sol\":3141:3142  u */\n      dup1\n        /* \"contracts/0512/Quiz.sol\":3134:3142  return u */\n      swap2\n      pop\n      pop\n        /* \"contracts/0512/Quiz.sol\":2961:3150  function setAdd() public returns(uint) {... */\n      swap1\n      jump\t// out\n        /* \"contracts/0512/Quiz.sol\":1764:1886  function square2(uint _t) public  {... */\n    tag_38:\n        /* \"contracts/0512/Quiz.sol\":1818:1819  t */\n      sload(0x01)\n        /* \"contracts/0512/Quiz.sol\":1816:1817  0 */\n      0x00\n        /* \"contracts/0512/Quiz.sol\":1816:1819  0<t */\n      lt\n        /* \"contracts/0512/Quiz.sol\":1816:1826  0<t && t<4 */\n      dup1\n      iszero\n      tag_106\n      jumpi\n      pop\n        /* \"contracts/0512/Quiz.sol\":1825:1826  4 */\n      0x04\n        /* \"contracts/0512/Quiz.sol\":1823:1824  t */\n      sload(0x01)\n        /* \"contracts/0512/Quiz.sol\":1823:1826  t<4 */\n      lt\n        /* \"contracts/0512/Quiz.sol\":1816:1826  0<t && t<4 */\n    tag_106:\n        /* \"contracts/0512/Quiz.sol\":1813:1875  if(0<t && t<4){... */\n      iszero\n      tag_107\n      jumpi\n        /* \"contracts/0512/Quiz.sol\":1857:1858  2 */\n      0x02\n        /* \"contracts/0512/Quiz.sol\":1851:1853  _t */\n      dup2\n        /* \"contracts/0512/Quiz.sol\":1851:1858  _t ** 2 */\n      tag_108\n      swap2\n      swap1\n      tag_109\n      jump\t// in\n    tag_108:\n        /* \"contracts/0512/Quiz.sol\":1846:1847  t */\n      0x01\n        /* \"contracts/0512/Quiz.sol\":1846:1859  t = (_t ** 2) */\n      dup2\n      swap1\n      sstore\n      pop\n        /* \"contracts/0512/Quiz.sol\":1813:1875  if(0<t && t<4){... */\n    tag_107:\n        /* \"contracts/0512/Quiz.sol\":1764:1886  function square2(uint _t) public  {... */\n      pop\n      jump\t// out\n        /* \"contracts/0512/Quiz.sol\":1146:1254  function triple(uint a, uint b) public pure returns(uint , uint)... */\n    tag_41:\n        /* \"contracts/0512/Quiz.sol\":1198:1202  uint */\n      0x00\n        /* \"contracts/0512/Quiz.sol\":1205:1209  uint */\n      dup1\n        /* \"contracts/0512/Quiz.sol\":1238:1239  3 */\n      0x03\n        /* \"contracts/0512/Quiz.sol\":1235:1236  a */\n      dup5\n        /* \"contracts/0512/Quiz.sol\":1235:1239  a**3 */\n      tag_111\n      swap2\n      swap1\n      tag_109\n      jump\t// in\n    tag_111:\n        /* \"contracts/0512/Quiz.sol\":1244:1245  3 */\n      0x03\n        /* \"contracts/0512/Quiz.sol\":1241:1242  b */\n      dup5\n        /* \"contracts/0512/Quiz.sol\":1241:1245  b**3 */\n      tag_112\n      swap2\n      swap1\n      tag_109\n      jump\t// in\n    tag_112:\n        /* \"contracts/0512/Quiz.sol\":1227:1246  return (a**3, b**3) */\n      swap2\n      pop\n      swap2\n      pop\n        /* \"contracts/0512/Quiz.sol\":1146:1254  function triple(uint a, uint b) public pure returns(uint , uint)... */\n      swap3\n      pop\n      swap3\n      swap1\n      pop\n      jump\t// out\n        /* \"contracts/0512/Quiz.sol\":4276:4333  function getPop() public{... */\n    tag_45:\n        /* \"contracts/0512/Quiz.sol\":4311:4319  numbers2 */\n      0x03\n        /* \"contracts/0512/Quiz.sol\":4311:4325  numbers2.pop() */\n      dup1\n      sload\n      dup1\n      tag_114\n      jumpi\n      tag_115\n      tag_116\n      jump\t// in\n    tag_115:\n    tag_114:\n      0x01\n      swap1\n      sub\n      dup2\n      dup2\n      swap1\n      0x00\n      mstore\n      keccak256(0x00, 0x20)\n      add\n      0x00\n      swap1\n      sstore\n      swap1\n      sstore\n        /* \"contracts/0512/Quiz.sol\":4276:4333  function getPop() public{... */\n      jump\t// out\n        /* \"contracts/0512/Quiz.sol\":657:749  function Mul (uint a, uint b) public pure returns(uint){... */\n    tag_48:\n        /* \"contracts/0512/Quiz.sol\":707:711  uint */\n      0x00\n        /* \"contracts/0512/Quiz.sol\":736:737  b */\n      dup2\n        /* \"contracts/0512/Quiz.sol\":734:735  a */\n      dup4\n        /* \"contracts/0512/Quiz.sol\":734:737  a*b */\n      tag_119\n      swap2\n      swap1\n      tag_120\n      jump\t// in\n    tag_119:\n        /* \"contracts/0512/Quiz.sol\":727:737  return a*b */\n      swap1\n      pop\n        /* \"contracts/0512/Quiz.sol\":657:749  function Mul (uint a, uint b) public pure returns(uint){... */\n      swap3\n      swap2\n      pop\n      pop\n      jump\t// out\n        /* \"contracts/0512/Quiz.sol\":4199:4268  function getPush(uint _a) public {... */\n    tag_52:\n        /* \"contracts/0512/Quiz.sol\":4243:4251  numbers2 */\n      0x03\n        /* \"contracts/0512/Quiz.sol\":4257:4259  _a */\n      dup2\n        /* \"contracts/0512/Quiz.sol\":4243:4260  numbers2.push(_a) */\n      swap1\n      dup1\n      0x01\n      dup2\n      sload\n      add\n      dup1\n      dup3\n      sstore\n      dup1\n      swap2\n      pop\n      pop\n      0x01\n      swap1\n      sub\n      swap1\n      0x00\n      mstore\n      keccak256(0x00, 0x20)\n      add\n      0x00\n      swap1\n      swap2\n      swap1\n      swap2\n      swap1\n      swap2\n      pop\n      sstore\n        /* \"contracts/0512/Quiz.sol\":4199:4268  function getPush(uint _a) public {... */\n      pop\n      jump\t// out\n        /* \"contracts/0512/Quiz.sol\":2217:2335  function rest(uint _t) public {... */\n    tag_55:\n        /* \"contracts/0512/Quiz.sol\":2267:2269  _t */\n      dup1\n        /* \"contracts/0512/Quiz.sol\":2265:2266  6 */\n      0x06\n        /* \"contracts/0512/Quiz.sol\":2265:2269  6<_t */\n      lt\n        /* \"contracts/0512/Quiz.sol\":2265:2277  6<_t && t<10 */\n      dup1\n      iszero\n      tag_124\n      jumpi\n      pop\n        /* \"contracts/0512/Quiz.sol\":2275:2277  10 */\n      0x0a\n        /* \"contracts/0512/Quiz.sol\":2273:2274  t */\n      sload(0x01)\n        /* \"contracts/0512/Quiz.sol\":2273:2277  t<10 */\n      lt\n        /* \"contracts/0512/Quiz.sol\":2265:2277  6<_t && t<10 */\n    tag_124:\n        /* \"contracts/0512/Quiz.sol\":2262:2324  if(6<_t && t<10){... */\n      iszero\n      tag_125\n      jumpi\n        /* \"contracts/0512/Quiz.sol\":2306:2307  3 */\n      0x03\n        /* \"contracts/0512/Quiz.sol\":2302:2304  _t */\n      dup2\n        /* \"contracts/0512/Quiz.sol\":2302:2307  _t %3 */\n      tag_126\n      swap2\n      swap1\n      tag_127\n      jump\t// in\n    tag_126:\n        /* \"contracts/0512/Quiz.sol\":2297:2298  t */\n      0x01\n        /* \"contracts/0512/Quiz.sol\":2297:2308  t = (_t %3) */\n      dup2\n      swap1\n      sstore\n      pop\n        /* \"contracts/0512/Quiz.sol\":2262:2324  if(6<_t && t<10){... */\n    tag_125:\n        /* \"contracts/0512/Quiz.sol\":2217:2335  function rest(uint _t) public {... */\n      pop\n      jump\t// out\n        /* \"contracts/0512/Quiz.sol\":453:545  function Add (uint a, uint b) public pure returns(uint){... */\n    tag_58:\n        /* \"contracts/0512/Quiz.sol\":503:507  uint */\n      0x00\n        /* \"contracts/0512/Quiz.sol\":532:533  b */\n      dup2\n        /* \"contracts/0512/Quiz.sol\":530:531  a */\n      dup4\n        /* \"contracts/0512/Quiz.sol\":530:533  a+b */\n      tag_129\n      swap2\n      swap1\n      tag_102\n      jump\t// in\n    tag_129:\n        /* \"contracts/0512/Quiz.sol\":523:533  return a+b */\n      swap1\n      pop\n        /* \"contracts/0512/Quiz.sol\":453:545  function Add (uint a, uint b) public pure returns(uint){... */\n      swap3\n      swap2\n      pop\n      pop\n      jump\t// out\n        /* \"contracts/0512/Quiz.sol\":759:851  function Div (uint a, uint b) public pure returns(uint){... */\n    tag_62:\n        /* \"contracts/0512/Quiz.sol\":809:813  uint */\n      0x00\n        /* \"contracts/0512/Quiz.sol\":838:839  b */\n      dup2\n        /* \"contracts/0512/Quiz.sol\":836:837  a */\n      dup4\n        /* \"contracts/0512/Quiz.sol\":836:839  a/b */\n      tag_131\n      swap2\n      swap1\n      tag_132\n      jump\t// in\n    tag_131:\n        /* \"contracts/0512/Quiz.sol\":829:839  return a/b */\n      swap1\n      pop\n        /* \"contracts/0512/Quiz.sol\":759:851  function Div (uint a, uint b) public pure returns(uint){... */\n      swap3\n      swap2\n      pop\n      pop\n      jump\t// out\n        /* \"contracts/0512/Quiz.sol\":1029:1135  function square(uint a, uint b) public pure returns(uint, uint)... */\n    tag_66:\n        /* \"contracts/0512/Quiz.sol\":1081:1085  uint */\n      0x00\n        /* \"contracts/0512/Quiz.sol\":1087:1091  uint */\n      dup1\n        /* \"contracts/0512/Quiz.sol\":1120:1121  a */\n      dup4\n        /* \"contracts/0512/Quiz.sol\":1117:1118  a */\n      dup5\n        /* \"contracts/0512/Quiz.sol\":1117:1121  a *a */\n      tag_134\n      swap2\n      swap1\n      tag_120\n      jump\t// in\n    tag_134:\n        /* \"contracts/0512/Quiz.sol\":1125:1126  b */\n      dup4\n        /* \"contracts/0512/Quiz.sol\":1123:1124  b */\n      dup5\n        /* \"contracts/0512/Quiz.sol\":1123:1126  b*b */\n      tag_135\n      swap2\n      swap1\n      tag_120\n      jump\t// in\n    tag_135:\n        /* \"contracts/0512/Quiz.sol\":1109:1127  return (a *a, b*b) */\n      swap2\n      pop\n      swap2\n      pop\n        /* \"contracts/0512/Quiz.sol\":1029:1135  function square(uint a, uint b) public pure returns(uint, uint)... */\n      swap3\n      pop\n      swap3\n      swap1\n      pop\n      jump\t// out\n        /* \"contracts/0512/Quiz.sol\":2606:2712  function setNum() public {... */\n    tag_69:\n        /* \"contracts/0512/Quiz.sol\":2647:2653  uint i */\n      0x00\n        /* \"contracts/0512/Quiz.sol\":2642:2705  for( uint i=0; i<10; i++){... */\n    tag_137:\n        /* \"contracts/0512/Quiz.sol\":2659:2661  10 */\n      0x0a\n        /* \"contracts/0512/Quiz.sol\":2657:2658  i */\n      dup2\n        /* \"contracts/0512/Quiz.sol\":2657:2661  i<10 */\n      lt\n        /* \"contracts/0512/Quiz.sol\":2642:2705  for( uint i=0; i<10; i++){... */\n      iszero\n      tag_138\n      jumpi\n        /* \"contracts/0512/Quiz.sol\":2678:2685  numbers */\n      0x02\n        /* \"contracts/0512/Quiz.sol\":2691:2692  i */\n      dup2\n        /* \"contracts/0512/Quiz.sol\":2678:2693  numbers.push(i) */\n      swap1\n      dup1\n      0x01\n      dup2\n      sload\n      add\n      dup1\n      dup3\n      sstore\n      dup1\n      swap2\n      pop\n      pop\n      0x01\n      swap1\n      sub\n      swap1\n      0x00\n      mstore\n      keccak256(0x00, 0x20)\n      add\n      0x00\n      swap1\n      swap2\n      swap1\n      swap2\n      swap1\n      swap2\n      pop\n      sstore\n        /* \"contracts/0512/Quiz.sol\":2663:2666  i++ */\n      dup1\n      dup1\n      tag_141\n      swap1\n      tag_104\n      jump\t// in\n    tag_141:\n      swap2\n      pop\n      pop\n        /* \"contracts/0512/Quiz.sol\":2642:2705  for( uint i=0; i<10; i++){... */\n      jump(tag_137)\n    tag_138:\n      pop\n        /* \"contracts/0512/Quiz.sol\":2606:2712  function setNum() public {... */\n      jump\t// out\n        /* \"contracts/0512/Quiz.sol\":3870:3980  function stringtoBytes(string memory _a) public pure returns (bytes memory){... */\n    tag_73:\n        /* \"contracts/0512/Quiz.sol\":3932:3944  bytes memory */\n      0x60\n        /* \"contracts/0512/Quiz.sol\":3969:3971  _a */\n      dup2\n        /* \"contracts/0512/Quiz.sol\":3956:3972  return bytes(_a) */\n      swap1\n      pop\n        /* \"contracts/0512/Quiz.sol\":3870:3980  function stringtoBytes(string memory _a) public pure returns (bytes memory){... */\n      swap2\n      swap1\n      pop\n      jump\t// out\n        /* \"contracts/0512/Quiz.sol\":3421:3748  function setABC(uint x) public pure returns(string memory)... */\n    tag_78:\n        /* \"contracts/0512/Quiz.sol\":3465:3478  string memory */\n      0x60\n        /* \"contracts/0512/Quiz.sol\":3503:3504  x */\n      dup2\n        /* \"contracts/0512/Quiz.sol\":3501:3502  0 */\n      0x00\n        /* \"contracts/0512/Quiz.sol\":3501:3504  0<x */\n      lt\n        /* \"contracts/0512/Quiz.sol\":3501:3512  0<x && x<11 */\n      dup1\n      iszero\n      tag_144\n      jumpi\n      pop\n        /* \"contracts/0512/Quiz.sol\":3510:3512  11 */\n      0x0b\n        /* \"contracts/0512/Quiz.sol\":3508:3509  x */\n      dup3\n        /* \"contracts/0512/Quiz.sol\":3508:3512  x<11 */\n      lt\n        /* \"contracts/0512/Quiz.sol\":3501:3512  0<x && x<11 */\n    tag_144:\n        /* \"contracts/0512/Quiz.sol\":3498:3740  if(0<x && x<11){... */\n      iszero\n      tag_145\n      jumpi\n        /* \"contracts/0512/Quiz.sol\":3529:3539  return \"A\" */\n      mload(0x40)\n      dup1\n      0x40\n      add\n      0x40\n      mstore\n      dup1\n      0x01\n      dup2\n      mstore\n      0x20\n      add\n      0x4100000000000000000000000000000000000000000000000000000000000000\n      dup2\n      mstore\n      pop\n      swap1\n      pop\n      jump(tag_143)\n        /* \"contracts/0512/Quiz.sol\":3498:3740  if(0<x && x<11){... */\n    tag_145:\n        /* \"contracts/0512/Quiz.sol\":3575:3576  x */\n      dup2\n        /* \"contracts/0512/Quiz.sol\":3572:3574  10 */\n      0x0a\n        /* \"contracts/0512/Quiz.sol\":3572:3576  10<x */\n      lt\n        /* \"contracts/0512/Quiz.sol\":3572:3584  10<x && x<21 */\n      dup1\n      iszero\n      tag_147\n      jumpi\n      pop\n        /* \"contracts/0512/Quiz.sol\":3582:3584  21 */\n      0x15\n        /* \"contracts/0512/Quiz.sol\":3580:3581  x */\n      dup3\n        /* \"contracts/0512/Quiz.sol\":3580:3584  x<21 */\n      lt\n        /* \"contracts/0512/Quiz.sol\":3572:3584  10<x && x<21 */\n    tag_147:\n        /* \"contracts/0512/Quiz.sol\":3569:3740  if(10<x && x<21){... */\n      iszero\n      tag_148\n      jumpi\n        /* \"contracts/0512/Quiz.sol\":3601:3611  return \"B\" */\n      mload(0x40)\n      dup1\n      0x40\n      add\n      0x40\n      mstore\n      dup1\n      0x01\n      dup2\n      mstore\n      0x20\n      add\n      0x4200000000000000000000000000000000000000000000000000000000000000\n      dup2\n      mstore\n      pop\n      swap1\n      pop\n      jump(tag_143)\n        /* \"contracts/0512/Quiz.sol\":3569:3740  if(10<x && x<21){... */\n    tag_148:\n        /* \"contracts/0512/Quiz.sol\":3647:3648  x */\n      dup2\n        /* \"contracts/0512/Quiz.sol\":3644:3646  20 */\n      0x14\n        /* \"contracts/0512/Quiz.sol\":3644:3648  20<x */\n      lt\n        /* \"contracts/0512/Quiz.sol\":3644:3656  20<x && x<31 */\n      dup1\n      iszero\n      tag_150\n      jumpi\n      pop\n        /* \"contracts/0512/Quiz.sol\":3654:3656  31 */\n      0x1f\n        /* \"contracts/0512/Quiz.sol\":3652:3653  x */\n      dup3\n        /* \"contracts/0512/Quiz.sol\":3652:3656  x<31 */\n      lt\n        /* \"contracts/0512/Quiz.sol\":3644:3656  20<x && x<31 */\n    tag_150:\n        /* \"contracts/0512/Quiz.sol\":3641:3740  if(20<x && x<31){... */\n      iszero\n      tag_151\n      jumpi\n        /* \"contracts/0512/Quiz.sol\":3673:3683  return \"C\" */\n      mload(0x40)\n      dup1\n      0x40\n      add\n      0x40\n      mstore\n      dup1\n      0x01\n      dup2\n      mstore\n      0x20\n      add\n      0x4300000000000000000000000000000000000000000000000000000000000000\n      dup2\n      mstore\n      pop\n      swap1\n      pop\n      jump(tag_143)\n        /* \"contracts/0512/Quiz.sol\":3641:3740  if(20<x && x<31){... */\n    tag_151:\n        /* \"contracts/0512/Quiz.sol\":3717:3727  return \"D\" */\n      mload(0x40)\n      dup1\n      0x40\n      add\n      0x40\n      mstore\n      dup1\n      0x01\n      dup2\n      mstore\n      0x20\n      add\n      0x4400000000000000000000000000000000000000000000000000000000000000\n      dup2\n      mstore\n      pop\n      swap1\n      pop\n        /* \"contracts/0512/Quiz.sol\":3421:3748  function setABC(uint x) public pure returns(string memory)... */\n    tag_143:\n      swap2\n      swap1\n      pop\n      jump\t// out\n        /* \"contracts/0512/Quiz.sol\":1985:2104  function double(uint _t) public {... */\n    tag_83:\n        /* \"contracts/0512/Quiz.sol\":2037:2039  _t */\n      dup1\n        /* \"contracts/0512/Quiz.sol\":2035:2036  3 */\n      0x03\n        /* \"contracts/0512/Quiz.sol\":2035:2039  3<_t */\n      lt\n        /* \"contracts/0512/Quiz.sol\":2035:2046  3<_t && t<7 */\n      dup1\n      iszero\n      tag_154\n      jumpi\n      pop\n        /* \"contracts/0512/Quiz.sol\":2045:2046  7 */\n      0x07\n        /* \"contracts/0512/Quiz.sol\":2043:2044  t */\n      sload(0x01)\n        /* \"contracts/0512/Quiz.sol\":2043:2046  t<7 */\n      lt\n        /* \"contracts/0512/Quiz.sol\":2035:2046  3<_t && t<7 */\n    tag_154:\n        /* \"contracts/0512/Quiz.sol\":2032:2093  if(3<_t && t<7){... */\n      iszero\n      tag_155\n      jumpi\n        /* \"contracts/0512/Quiz.sol\":2075:2076  2 */\n      0x02\n        /* \"contracts/0512/Quiz.sol\":2071:2073  _t */\n      dup2\n        /* \"contracts/0512/Quiz.sol\":2071:2076  _t *2 */\n      tag_156\n      swap2\n      swap1\n      tag_120\n      jump\t// in\n    tag_156:\n        /* \"contracts/0512/Quiz.sol\":2066:2067  t */\n      0x01\n        /* \"contracts/0512/Quiz.sol\":2066:2077  t = (_t *2) */\n      dup2\n      swap1\n      sstore\n      pop\n        /* \"contracts/0512/Quiz.sol\":2032:2093  if(3<_t && t<7){... */\n    tag_155:\n        /* \"contracts/0512/Quiz.sol\":1985:2104  function double(uint _t) public {... */\n      pop\n      jump\t// out\n        /* \"contracts/0512/Quiz.sol\":4341:4431  function getNum(uint _n) public view returns (uint) {... */\n    tag_86:\n        /* \"contracts/0512/Quiz.sol\":4387:4391  uint */\n      0x00\n        /* \"contracts/0512/Quiz.sol\":4411:4419  numbers2 */\n      0x03\n        /* \"contracts/0512/Quiz.sol\":4420:4422  _n */\n      dup3\n        /* \"contracts/0512/Quiz.sol\":4411:4423  numbers2[_n] */\n      dup2\n      sload\n      dup2\n      lt\n      tag_158\n      jumpi\n      tag_159\n      tag_99\n      jump\t// in\n    tag_159:\n    tag_158:\n      swap1\n      0x00\n      mstore\n      keccak256(0x00, 0x20)\n      add\n      sload\n        /* \"contracts/0512/Quiz.sol\":4404:4423  return numbers2[_n] */\n      swap1\n      pop\n        /* \"contracts/0512/Quiz.sol\":4341:4431  function getNum(uint _n) public view returns (uint) {... */\n      swap2\n      swap1\n      pop\n      jump\t// out\n        /* \"#utility.yul\":7:82   */\n    tag_161:\n        /* \"#utility.yul\":40:46   */\n      0x00\n        /* \"#utility.yul\":73:75   */\n      0x40\n        /* \"#utility.yul\":67:76   */\n      mload\n        /* \"#utility.yul\":57:76   */\n      swap1\n      pop\n        /* \"#utility.yul\":7:82   */\n      swap1\n      jump\t// out\n        /* \"#utility.yul\":88:205   */\n    tag_162:\n        /* \"#utility.yul\":197:198   */\n      0x00\n        /* \"#utility.yul\":194:195   */\n      dup1\n        /* \"#utility.yul\":187:199   */\n      revert\n        /* \"#utility.yul\":211:328   */\n    tag_163:\n        /* \"#utility.yul\":320:321   */\n      0x00\n        /* \"#utility.yul\":317:318   */\n      dup1\n        /* \"#utility.yul\":310:322   */\n      revert\n        /* \"#utility.yul\":334:411   */\n    tag_164:\n        /* \"#utility.yul\":371:378   */\n      0x00\n        /* \"#utility.yul\":400:405   */\n      dup2\n        /* \"#utility.yul\":389:405   */\n      swap1\n      pop\n        /* \"#utility.yul\":334:411   */\n      swap2\n      swap1\n      pop\n      jump\t// out\n        /* \"#utility.yul\":417:539   */\n    tag_165:\n        /* \"#utility.yul\":490:514   */\n      tag_197\n        /* \"#utility.yul\":508:513   */\n      dup2\n        /* \"#utility.yul\":490:514   */\n      tag_164\n      jump\t// in\n    tag_197:\n        /* \"#utility.yul\":483:488   */\n      dup2\n        /* \"#utility.yul\":480:515   */\n      eq\n        /* \"#utility.yul\":470:533   */\n      tag_198\n      jumpi\n        /* \"#utility.yul\":529:530   */\n      0x00\n        /* \"#utility.yul\":526:527   */\n      dup1\n        /* \"#utility.yul\":519:531   */\n      revert\n        /* \"#utility.yul\":470:533   */\n    tag_198:\n        /* \"#utility.yul\":417:539   */\n      pop\n      jump\t// out\n        /* \"#utility.yul\":545:684   */\n    tag_166:\n        /* \"#utility.yul\":591:596   */\n      0x00\n        /* \"#utility.yul\":629:635   */\n      dup2\n        /* \"#utility.yul\":616:636   */\n      calldataload\n        /* \"#utility.yul\":607:636   */\n      swap1\n      pop\n        /* \"#utility.yul\":645:678   */\n      tag_200\n        /* \"#utility.yul\":672:677   */\n      dup2\n        /* \"#utility.yul\":645:678   */\n      tag_165\n      jump\t// in\n    tag_200:\n        /* \"#utility.yul\":545:684   */\n      swap3\n      swap2\n      pop\n      pop\n      jump\t// out\n        /* \"#utility.yul\":690:1164   */\n    tag_25:\n        /* \"#utility.yul\":758:764   */\n      0x00\n        /* \"#utility.yul\":766:772   */\n      dup1\n        /* \"#utility.yul\":815:817   */\n      0x40\n        /* \"#utility.yul\":803:812   */\n      dup4\n        /* \"#utility.yul\":794:801   */\n      dup6\n        /* \"#utility.yul\":790:813   */\n      sub\n        /* \"#utility.yul\":786:818   */\n      slt\n        /* \"#utility.yul\":783:902   */\n      iszero\n      tag_202\n      jumpi\n        /* \"#utility.yul\":821:900   */\n      tag_203\n      tag_162\n      jump\t// in\n    tag_203:\n        /* \"#utility.yul\":783:902   */\n    tag_202:\n        /* \"#utility.yul\":941:942   */\n      0x00\n        /* \"#utility.yul\":966:1019   */\n      tag_204\n        /* \"#utility.yul\":1011:1018   */\n      dup6\n        /* \"#utility.yul\":1002:1008   */\n      dup3\n        /* \"#utility.yul\":991:1000   */\n      dup7\n        /* \"#utility.yul\":987:1009   */\n      add\n        /* \"#utility.yul\":966:1019   */\n      tag_166\n      jump\t// in\n    tag_204:\n        /* \"#utility.yul\":956:1019   */\n      swap3\n      pop\n        /* \"#utility.yul\":912:1029   */\n      pop\n        /* \"#utility.yul\":1068:1070   */\n      0x20\n        /* \"#utility.yul\":1094:1147   */\n      tag_205\n        /* \"#utility.yul\":1139:1146   */\n      dup6\n        /* \"#utility.yul\":1130:1136   */\n      dup3\n        /* \"#utility.yul\":1119:1128   */\n      dup7\n        /* \"#utility.yul\":1115:1137   */\n      add\n        /* \"#utility.yul\":1094:1147   */\n      tag_166\n      jump\t// in\n    tag_205:\n        /* \"#utility.yul\":1084:1147   */\n      swap2\n      pop\n        /* \"#utility.yul\":1039:1157   */\n      pop\n        /* \"#utility.yul\":690:1164   */\n      swap3\n      pop\n      swap3\n      swap1\n      pop\n      jump\t// out\n        /* \"#utility.yul\":1170:1288   */\n    tag_167:\n        /* \"#utility.yul\":1257:1281   */\n      tag_207\n        /* \"#utility.yul\":1275:1280   */\n      dup2\n        /* \"#utility.yul\":1257:1281   */\n      tag_164\n      jump\t// in\n    tag_207:\n        /* \"#utility.yul\":1252:1255   */\n      dup3\n        /* \"#utility.yul\":1245:1282   */\n      mstore\n        /* \"#utility.yul\":1170:1288   */\n      pop\n      pop\n      jump\t// out\n        /* \"#utility.yul\":1294:1516   */\n    tag_28:\n        /* \"#utility.yul\":1387:1391   */\n      0x00\n        /* \"#utility.yul\":1425:1427   */\n      0x20\n        /* \"#utility.yul\":1414:1423   */\n      dup3\n        /* \"#utility.yul\":1410:1428   */\n      add\n        /* \"#utility.yul\":1402:1428   */\n      swap1\n      pop\n        /* \"#utility.yul\":1438:1509   */\n      tag_209\n        /* \"#utility.yul\":1506:1507   */\n      0x00\n        /* \"#utility.yul\":1495:1504   */\n      dup4\n        /* \"#utility.yul\":1491:1508   */\n      add\n        /* \"#utility.yul\":1482:1488   */\n      dup5\n        /* \"#utility.yul\":1438:1509   */\n      tag_167\n      jump\t// in\n    tag_209:\n        /* \"#utility.yul\":1294:1516   */\n      swap3\n      swap2\n      pop\n      pop\n      jump\t// out\n        /* \"#utility.yul\":1522:1851   */\n    tag_37:\n        /* \"#utility.yul\":1581:1587   */\n      0x00\n        /* \"#utility.yul\":1630:1632   */\n      0x20\n        /* \"#utility.yul\":1618:1627   */\n      dup3\n        /* \"#utility.yul\":1609:1616   */\n      dup5\n        /* \"#utility.yul\":1605:1628   */\n      sub\n        /* \"#utility.yul\":1601:1633   */\n      slt\n        /* \"#utility.yul\":1598:1717   */\n      iszero\n      tag_211\n      jumpi\n        /* \"#utility.yul\":1636:1715   */\n      tag_212\n      tag_162\n      jump\t// in\n    tag_212:\n        /* \"#utility.yul\":1598:1717   */\n    tag_211:\n        /* \"#utility.yul\":1756:1757   */\n      0x00\n        /* \"#utility.yul\":1781:1834   */\n      tag_213\n        /* \"#utility.yul\":1826:1833   */\n      dup5\n        /* \"#utility.yul\":1817:1823   */\n      dup3\n        /* \"#utility.yul\":1806:1815   */\n      dup6\n        /* \"#utility.yul\":1802:1824   */\n      add\n        /* \"#utility.yul\":1781:1834   */\n      tag_166\n      jump\t// in\n    tag_213:\n        /* \"#utility.yul\":1771:1834   */\n      swap2\n      pop\n        /* \"#utility.yul\":1727:1844   */\n      pop\n        /* \"#utility.yul\":1522:1851   */\n      swap3\n      swap2\n      pop\n      pop\n      jump\t// out\n        /* \"#utility.yul\":1857:2189   */\n    tag_43:\n        /* \"#utility.yul\":1978:1982   */\n      0x00\n        /* \"#utility.yul\":2016:2018   */\n      0x40\n        /* \"#utility.yul\":2005:2014   */\n      dup3\n        /* \"#utility.yul\":2001:2019   */\n      add\n        /* \"#utility.yul\":1993:2019   */\n      swap1\n      pop\n        /* \"#utility.yul\":2029:2100   */\n      tag_215\n        /* \"#utility.yul\":2097:2098   */\n      0x00\n        /* \"#utility.yul\":2086:2095   */\n      dup4\n        /* \"#utility.yul\":2082:2099   */\n      add\n        /* \"#utility.yul\":2073:2079   */\n      dup6\n        /* \"#utility.yul\":2029:2100   */\n      tag_167\n      jump\t// in\n    tag_215:\n        /* \"#utility.yul\":2110:2182   */\n      tag_216\n        /* \"#utility.yul\":2178:2180   */\n      0x20\n        /* \"#utility.yul\":2167:2176   */\n      dup4\n        /* \"#utility.yul\":2163:2181   */\n      add\n        /* \"#utility.yul\":2154:2160   */\n      dup5\n        /* \"#utility.yul\":2110:2182   */\n      tag_167\n      jump\t// in\n    tag_216:\n        /* \"#utility.yul\":1857:2189   */\n      swap4\n      swap3\n      pop\n      pop\n      pop\n      jump\t// out\n        /* \"#utility.yul\":2195:2312   */\n    tag_168:\n        /* \"#utility.yul\":2304:2305   */\n      0x00\n        /* \"#utility.yul\":2301:2302   */\n      dup1\n        /* \"#utility.yul\":2294:2306   */\n      revert\n        /* \"#utility.yul\":2318:2435   */\n    tag_169:\n        /* \"#utility.yul\":2427:2428   */\n      0x00\n        /* \"#utility.yul\":2424:2425   */\n      dup1\n        /* \"#utility.yul\":2417:2429   */\n      revert\n        /* \"#utility.yul\":2441:2543   */\n    tag_170:\n        /* \"#utility.yul\":2482:2488   */\n      0x00\n        /* \"#utility.yul\":2533:2535   */\n      0x1f\n        /* \"#utility.yul\":2529:2536   */\n      not\n        /* \"#utility.yul\":2524:2526   */\n      0x1f\n        /* \"#utility.yul\":2517:2522   */\n      dup4\n        /* \"#utility.yul\":2513:2527   */\n      add\n        /* \"#utility.yul\":2509:2537   */\n      and\n        /* \"#utility.yul\":2499:2537   */\n      swap1\n      pop\n        /* \"#utility.yul\":2441:2543   */\n      swap2\n      swap1\n      pop\n      jump\t// out\n        /* \"#utility.yul\":2549:2729   */\n    tag_171:\n        /* \"#utility.yul\":2597:2674   */\n      0x4e487b7100000000000000000000000000000000000000000000000000000000\n        /* \"#utility.yul\":2594:2595   */\n      0x00\n        /* \"#utility.yul\":2587:2675   */\n      mstore\n        /* \"#utility.yul\":2694:2698   */\n      0x41\n        /* \"#utility.yul\":2691:2692   */\n      0x04\n        /* \"#utility.yul\":2684:2699   */\n      mstore\n        /* \"#utility.yul\":2718:2722   */\n      0x24\n        /* \"#utility.yul\":2715:2716   */\n      0x00\n        /* \"#utility.yul\":2708:2723   */\n      revert\n        /* \"#utility.yul\":2735:3016   */\n    tag_172:\n        /* \"#utility.yul\":2818:2845   */\n      tag_222\n        /* \"#utility.yul\":2840:2844   */\n      dup3\n        /* \"#utility.yul\":2818:2845   */\n      tag_170\n      jump\t// in\n    tag_222:\n        /* \"#utility.yul\":2810:2816   */\n      dup2\n        /* \"#utility.yul\":2806:2846   */\n      add\n        /* \"#utility.yul\":2948:2954   */\n      dup2\n        /* \"#utility.yul\":2936:2946   */\n      dup2\n        /* \"#utility.yul\":2933:2955   */\n      lt\n        /* \"#utility.yul\":2912:2930   */\n      0xffffffffffffffff\n        /* \"#utility.yul\":2900:2910   */\n      dup3\n        /* \"#utility.yul\":2897:2931   */\n      gt\n        /* \"#utility.yul\":2894:2956   */\n      or\n        /* \"#utility.yul\":2891:2979   */\n      iszero\n      tag_223\n      jumpi\n        /* \"#utility.yul\":2959:2977   */\n      tag_224\n      tag_171\n      jump\t// in\n    tag_224:\n        /* \"#utility.yul\":2891:2979   */\n    tag_223:\n        /* \"#utility.yul\":2999:3009   */\n      dup1\n        /* \"#utility.yul\":2995:2997   */\n      0x40\n        /* \"#utility.yul\":2988:3010   */\n      mstore\n        /* \"#utility.yul\":2778:3016   */\n      pop\n        /* \"#utility.yul\":2735:3016   */\n      pop\n      pop\n      jump\t// out\n        /* \"#utility.yul\":3022:3151   */\n    tag_173:\n        /* \"#utility.yul\":3056:3062   */\n      0x00\n        /* \"#utility.yul\":3083:3103   */\n      tag_226\n      tag_161\n      jump\t// in\n    tag_226:\n        /* \"#utility.yul\":3073:3103   */\n      swap1\n      pop\n        /* \"#utility.yul\":3112:3145   */\n      tag_227\n        /* \"#utility.yul\":3140:3144   */\n      dup3\n        /* \"#utility.yul\":3132:3138   */\n      dup3\n        /* \"#utility.yul\":3112:3145   */\n      tag_172\n      jump\t// in\n    tag_227:\n        /* \"#utility.yul\":3022:3151   */\n      swap2\n      swap1\n      pop\n      jump\t// out\n        /* \"#utility.yul\":3157:3465   */\n    tag_174:\n        /* \"#utility.yul\":3219:3223   */\n      0x00\n        /* \"#utility.yul\":3309:3327   */\n      0xffffffffffffffff\n        /* \"#utility.yul\":3301:3307   */\n      dup3\n        /* \"#utility.yul\":3298:3328   */\n      gt\n        /* \"#utility.yul\":3295:3351   */\n      iszero\n      tag_229\n      jumpi\n        /* \"#utility.yul\":3331:3349   */\n      tag_230\n      tag_171\n      jump\t// in\n    tag_230:\n        /* \"#utility.yul\":3295:3351   */\n    tag_229:\n        /* \"#utility.yul\":3369:3398   */\n      tag_231\n        /* \"#utility.yul\":3391:3397   */\n      dup3\n        /* \"#utility.yul\":3369:3398   */\n      tag_170\n      jump\t// in\n    tag_231:\n        /* \"#utility.yul\":3361:3398   */\n      swap1\n      pop\n        /* \"#utility.yul\":3453:3457   */\n      0x20\n        /* \"#utility.yul\":3447:3451   */\n      dup2\n        /* \"#utility.yul\":3443:3458   */\n      add\n        /* \"#utility.yul\":3435:3458   */\n      swap1\n      pop\n        /* \"#utility.yul\":3157:3465   */\n      swap2\n      swap1\n      pop\n      jump\t// out\n        /* \"#utility.yul\":3471:3617   */\n    tag_175:\n        /* \"#utility.yul\":3568:3574   */\n      dup3\n        /* \"#utility.yul\":3563:3566   */\n      dup2\n        /* \"#utility.yul\":3558:3561   */\n      dup4\n        /* \"#utility.yul\":3545:3575   */\n      calldatacopy\n        /* \"#utility.yul\":3609:3610   */\n      0x00\n        /* \"#utility.yul\":3600:3606   */\n      dup4\n        /* \"#utility.yul\":3595:3598   */\n      dup4\n        /* \"#utility.yul\":3591:3607   */\n      add\n        /* \"#utility.yul\":3584:3611   */\n      mstore\n        /* \"#utility.yul\":3471:3617   */\n      pop\n      pop\n      pop\n      jump\t// out\n        /* \"#utility.yul\":3623:4048   */\n    tag_176:\n        /* \"#utility.yul\":3701:3706   */\n      0x00\n        /* \"#utility.yul\":3726:3792   */\n      tag_234\n        /* \"#utility.yul\":3742:3791   */\n      tag_235\n        /* \"#utility.yul\":3784:3790   */\n      dup5\n        /* \"#utility.yul\":3742:3791   */\n      tag_174\n      jump\t// in\n    tag_235:\n        /* \"#utility.yul\":3726:3792   */\n      tag_173\n      jump\t// in\n    tag_234:\n        /* \"#utility.yul\":3717:3792   */\n      swap1\n      pop\n        /* \"#utility.yul\":3815:3821   */\n      dup3\n        /* \"#utility.yul\":3808:3813   */\n      dup2\n        /* \"#utility.yul\":3801:3822   */\n      mstore\n        /* \"#utility.yul\":3853:3857   */\n      0x20\n        /* \"#utility.yul\":3846:3851   */\n      dup2\n        /* \"#utility.yul\":3842:3858   */\n      add\n        /* \"#utility.yul\":3891:3894   */\n      dup5\n        /* \"#utility.yul\":3882:3888   */\n      dup5\n        /* \"#utility.yul\":3877:3880   */\n      dup5\n        /* \"#utility.yul\":3873:3889   */\n      add\n        /* \"#utility.yul\":3870:3895   */\n      gt\n        /* \"#utility.yul\":3867:3979   */\n      iszero\n      tag_236\n      jumpi\n        /* \"#utility.yul\":3898:3977   */\n      tag_237\n      tag_169\n      jump\t// in\n    tag_237:\n        /* \"#utility.yul\":3867:3979   */\n    tag_236:\n        /* \"#utility.yul\":3988:4042   */\n      tag_238\n        /* \"#utility.yul\":4035:4041   */\n      dup5\n        /* \"#utility.yul\":4030:4033   */\n      dup3\n        /* \"#utility.yul\":4025:4028   */\n      dup6\n        /* \"#utility.yul\":3988:4042   */\n      tag_175\n      jump\t// in\n    tag_238:\n        /* \"#utility.yul\":3707:4048   */\n      pop\n        /* \"#utility.yul\":3623:4048   */\n      swap4\n      swap3\n      pop\n      pop\n      pop\n      jump\t// out\n        /* \"#utility.yul\":4068:4408   */\n    tag_177:\n        /* \"#utility.yul\":4124:4129   */\n      0x00\n        /* \"#utility.yul\":4173:4176   */\n      dup3\n        /* \"#utility.yul\":4166:4170   */\n      0x1f\n        /* \"#utility.yul\":4158:4164   */\n      dup4\n        /* \"#utility.yul\":4154:4171   */\n      add\n        /* \"#utility.yul\":4150:4177   */\n      slt\n        /* \"#utility.yul\":4140:4262   */\n      tag_240\n      jumpi\n        /* \"#utility.yul\":4181:4260   */\n      tag_241\n      tag_168\n      jump\t// in\n    tag_241:\n        /* \"#utility.yul\":4140:4262   */\n    tag_240:\n        /* \"#utility.yul\":4298:4304   */\n      dup2\n        /* \"#utility.yul\":4285:4305   */\n      calldataload\n        /* \"#utility.yul\":4323:4402   */\n      tag_242\n        /* \"#utility.yul\":4398:4401   */\n      dup5\n        /* \"#utility.yul\":4390:4396   */\n      dup3\n        /* \"#utility.yul\":4383:4387   */\n      0x20\n        /* \"#utility.yul\":4375:4381   */\n      dup7\n        /* \"#utility.yul\":4371:4388   */\n      add\n        /* \"#utility.yul\":4323:4402   */\n      tag_176\n      jump\t// in\n    tag_242:\n        /* \"#utility.yul\":4314:4402   */\n      swap2\n      pop\n        /* \"#utility.yul\":4130:4408   */\n      pop\n        /* \"#utility.yul\":4068:4408   */\n      swap3\n      swap2\n      pop\n      pop\n      jump\t// out\n        /* \"#utility.yul\":4414:4923   */\n    tag_72:\n        /* \"#utility.yul\":4483:4489   */\n      0x00\n        /* \"#utility.yul\":4532:4534   */\n      0x20\n        /* \"#utility.yul\":4520:4529   */\n      dup3\n        /* \"#utility.yul\":4511:4518   */\n      dup5\n        /* \"#utility.yul\":4507:4530   */\n      sub\n        /* \"#utility.yul\":4503:4535   */\n      slt\n        /* \"#utility.yul\":4500:4619   */\n      iszero\n      tag_244\n      jumpi\n        /* \"#utility.yul\":4538:4617   */\n      tag_245\n      tag_162\n      jump\t// in\n    tag_245:\n        /* \"#utility.yul\":4500:4619   */\n    tag_244:\n        /* \"#utility.yul\":4686:4687   */\n      0x00\n        /* \"#utility.yul\":4675:4684   */\n      dup3\n        /* \"#utility.yul\":4671:4688   */\n      add\n        /* \"#utility.yul\":4658:4689   */\n      calldataload\n        /* \"#utility.yul\":4716:4734   */\n      0xffffffffffffffff\n        /* \"#utility.yul\":4708:4714   */\n      dup2\n        /* \"#utility.yul\":4705:4735   */\n      gt\n        /* \"#utility.yul\":4702:4819   */\n      iszero\n      tag_246\n      jumpi\n        /* \"#utility.yul\":4738:4817   */\n      tag_247\n      tag_163\n      jump\t// in\n    tag_247:\n        /* \"#utility.yul\":4702:4819   */\n    tag_246:\n        /* \"#utility.yul\":4843:4906   */\n      tag_248\n        /* \"#utility.yul\":4898:4905   */\n      dup5\n        /* \"#utility.yul\":4889:4895   */\n      dup3\n        /* \"#utility.yul\":4878:4887   */\n      dup6\n        /* \"#utility.yul\":4874:4896   */\n      add\n        /* \"#utility.yul\":4843:4906   */\n      tag_177\n      jump\t// in\n    tag_248:\n        /* \"#utility.yul\":4833:4906   */\n      swap2\n      pop\n        /* \"#utility.yul\":4629:4916   */\n      pop\n        /* \"#utility.yul\":4414:4923   */\n      swap3\n      swap2\n      pop\n      pop\n      jump\t// out\n        /* \"#utility.yul\":4929:5027   */\n    tag_178:\n        /* \"#utility.yul\":4980:4986   */\n      0x00\n        /* \"#utility.yul\":5014:5019   */\n      dup2\n        /* \"#utility.yul\":5008:5020   */\n      mload\n        /* \"#utility.yul\":4998:5020   */\n      swap1\n      pop\n        /* \"#utility.yul\":4929:5027   */\n      swap2\n      swap1\n      pop\n      jump\t// out\n        /* \"#utility.yul\":5033:5201   */\n    tag_179:\n        /* \"#utility.yul\":5116:5127   */\n      0x00\n        /* \"#utility.yul\":5150:5156   */\n      dup3\n        /* \"#utility.yul\":5145:5148   */\n      dup3\n        /* \"#utility.yul\":5138:5157   */\n      mstore\n        /* \"#utility.yul\":5190:5194   */\n      0x20\n        /* \"#utility.yul\":5185:5188   */\n      dup3\n        /* \"#utility.yul\":5181:5195   */\n      add\n        /* \"#utility.yul\":5166:5195   */\n      swap1\n      pop\n        /* \"#utility.yul\":5033:5201   */\n      swap3\n      swap2\n      pop\n      pop\n      jump\t// out\n        /* \"#utility.yul\":5207:5453   */\n    tag_180:\n        /* \"#utility.yul\":5288:5289   */\n      0x00\n        /* \"#utility.yul\":5298:5411   */\n    tag_252:\n        /* \"#utility.yul\":5312:5318   */\n      dup4\n        /* \"#utility.yul\":5309:5310   */\n      dup2\n        /* \"#utility.yul\":5306:5319   */\n      lt\n        /* \"#utility.yul\":5298:5411   */\n      iszero\n      tag_254\n      jumpi\n        /* \"#utility.yul\":5397:5398   */\n      dup1\n        /* \"#utility.yul\":5392:5395   */\n      dup3\n        /* \"#utility.yul\":5388:5399   */\n      add\n        /* \"#utility.yul\":5382:5400   */\n      mload\n        /* \"#utility.yul\":5378:5379   */\n      dup2\n        /* \"#utility.yul\":5373:5376   */\n      dup5\n        /* \"#utility.yul\":5369:5380   */\n      add\n        /* \"#utility.yul\":5362:5401   */\n      mstore\n        /* \"#utility.yul\":5334:5336   */\n      0x20\n        /* \"#utility.yul\":5331:5332   */\n      dup2\n        /* \"#utility.yul\":5327:5337   */\n      add\n        /* \"#utility.yul\":5322:5337   */\n      swap1\n      pop\n        /* \"#utility.yul\":5298:5411   */\n      jump(tag_252)\n    tag_254:\n        /* \"#utility.yul\":5445:5446   */\n      0x00\n        /* \"#utility.yul\":5436:5442   */\n      dup5\n        /* \"#utility.yul\":5431:5434   */\n      dup5\n        /* \"#utility.yul\":5427:5443   */\n      add\n        /* \"#utility.yul\":5420:5447   */\n      mstore\n        /* \"#utility.yul\":5269:5453   */\n      pop\n        /* \"#utility.yul\":5207:5453   */\n      pop\n      pop\n      pop\n      jump\t// out\n        /* \"#utility.yul\":5459:5832   */\n    tag_181:\n        /* \"#utility.yul\":5545:5548   */\n      0x00\n        /* \"#utility.yul\":5573:5611   */\n      tag_256\n        /* \"#utility.yul\":5605:5610   */\n      dup3\n        /* \"#utility.yul\":5573:5611   */\n      tag_178\n      jump\t// in\n    tag_256:\n        /* \"#utility.yul\":5627:5697   */\n      tag_257\n        /* \"#utility.yul\":5690:5696   */\n      dup2\n        /* \"#utility.yul\":5685:5688   */\n      dup6\n        /* \"#utility.yul\":5627:5697   */\n      tag_179\n      jump\t// in\n    tag_257:\n        /* \"#utility.yul\":5620:5697   */\n      swap4\n      pop\n        /* \"#utility.yul\":5706:5771   */\n      tag_258\n        /* \"#utility.yul\":5764:5770   */\n      dup2\n        /* \"#utility.yul\":5759:5762   */\n      dup6\n        /* \"#utility.yul\":5752:5756   */\n      0x20\n        /* \"#utility.yul\":5745:5750   */\n      dup7\n        /* \"#utility.yul\":5741:5757   */\n      add\n        /* \"#utility.yul\":5706:5771   */\n      tag_180\n      jump\t// in\n    tag_258:\n        /* \"#utility.yul\":5796:5825   */\n      tag_259\n        /* \"#utility.yul\":5818:5824   */\n      dup2\n        /* \"#utility.yul\":5796:5825   */\n      tag_170\n      jump\t// in\n    tag_259:\n        /* \"#utility.yul\":5791:5794   */\n      dup5\n        /* \"#utility.yul\":5787:5826   */\n      add\n        /* \"#utility.yul\":5780:5826   */\n      swap2\n      pop\n        /* \"#utility.yul\":5549:5832   */\n      pop\n        /* \"#utility.yul\":5459:5832   */\n      swap3\n      swap2\n      pop\n      pop\n      jump\t// out\n        /* \"#utility.yul\":5838:6147   */\n    tag_75:\n        /* \"#utility.yul\":5949:5953   */\n      0x00\n        /* \"#utility.yul\":5987:5989   */\n      0x20\n        /* \"#utility.yul\":5976:5985   */\n      dup3\n        /* \"#utility.yul\":5972:5990   */\n      add\n        /* \"#utility.yul\":5964:5990   */\n      swap1\n      pop\n        /* \"#utility.yul\":6036:6045   */\n      dup2\n        /* \"#utility.yul\":6030:6034   */\n      dup2\n        /* \"#utility.yul\":6026:6046   */\n      sub\n        /* \"#utility.yul\":6022:6023   */\n      0x00\n        /* \"#utility.yul\":6011:6020   */\n      dup4\n        /* \"#utility.yul\":6007:6024   */\n      add\n        /* \"#utility.yul\":6000:6047   */\n      mstore\n        /* \"#utility.yul\":6064:6140   */\n      tag_261\n        /* \"#utility.yul\":6135:6139   */\n      dup2\n        /* \"#utility.yul\":6126:6132   */\n      dup5\n        /* \"#utility.yul\":6064:6140   */\n      tag_181\n      jump\t// in\n    tag_261:\n        /* \"#utility.yul\":6056:6140   */\n      swap1\n      pop\n        /* \"#utility.yul\":5838:6147   */\n      swap3\n      swap2\n      pop\n      pop\n      jump\t// out\n        /* \"#utility.yul\":6153:6252   */\n    tag_182:\n        /* \"#utility.yul\":6205:6211   */\n      0x00\n        /* \"#utility.yul\":6239:6244   */\n      dup2\n        /* \"#utility.yul\":6233:6245   */\n      mload\n        /* \"#utility.yul\":6223:6245   */\n      swap1\n      pop\n        /* \"#utility.yul\":6153:6252   */\n      swap2\n      swap1\n      pop\n      jump\t// out\n        /* \"#utility.yul\":6258:6427   */\n    tag_183:\n        /* \"#utility.yul\":6342:6353   */\n      0x00\n        /* \"#utility.yul\":6376:6382   */\n      dup3\n        /* \"#utility.yul\":6371:6374   */\n      dup3\n        /* \"#utility.yul\":6364:6383   */\n      mstore\n        /* \"#utility.yul\":6416:6420   */\n      0x20\n        /* \"#utility.yul\":6411:6414   */\n      dup3\n        /* \"#utility.yul\":6407:6421   */\n      add\n        /* \"#utility.yul\":6392:6421   */\n      swap1\n      pop\n        /* \"#utility.yul\":6258:6427   */\n      swap3\n      swap2\n      pop\n      pop\n      jump\t// out\n        /* \"#utility.yul\":6433:6810   */\n    tag_184:\n        /* \"#utility.yul\":6521:6524   */\n      0x00\n        /* \"#utility.yul\":6549:6588   */\n      tag_265\n        /* \"#utility.yul\":6582:6587   */\n      dup3\n        /* \"#utility.yul\":6549:6588   */\n      tag_182\n      jump\t// in\n    tag_265:\n        /* \"#utility.yul\":6604:6675   */\n      tag_266\n        /* \"#utility.yul\":6668:6674   */\n      dup2\n        /* \"#utility.yul\":6663:6666   */\n      dup6\n        /* \"#utility.yul\":6604:6675   */\n      tag_183\n      jump\t// in\n    tag_266:\n        /* \"#utility.yul\":6597:6675   */\n      swap4\n      pop\n        /* \"#utility.yul\":6684:6749   */\n      tag_267\n        /* \"#utility.yul\":6742:6748   */\n      dup2\n        /* \"#utility.yul\":6737:6740   */\n      dup6\n        /* \"#utility.yul\":6730:6734   */\n      0x20\n        /* \"#utility.yul\":6723:6728   */\n      dup7\n        /* \"#utility.yul\":6719:6735   */\n      add\n        /* \"#utility.yul\":6684:6749   */\n      tag_180\n      jump\t// in\n    tag_267:\n        /* \"#utility.yul\":6774:6803   */\n      tag_268\n        /* \"#utility.yul\":6796:6802   */\n      dup2\n        /* \"#utility.yul\":6774:6803   */\n      tag_170\n      jump\t// in\n    tag_268:\n        /* \"#utility.yul\":6769:6772   */\n      dup5\n        /* \"#utility.yul\":6765:6804   */\n      add\n        /* \"#utility.yul\":6758:6804   */\n      swap2\n      pop\n        /* \"#utility.yul\":6525:6810   */\n      pop\n        /* \"#utility.yul\":6433:6810   */\n      swap3\n      swap2\n      pop\n      pop\n      jump\t// out\n        /* \"#utility.yul\":6816:7129   */\n    tag_80:\n        /* \"#utility.yul\":6929:6933   */\n      0x00\n        /* \"#utility.yul\":6967:6969   */\n      0x20\n        /* \"#utility.yul\":6956:6965   */\n      dup3\n        /* \"#utility.yul\":6952:6970   */\n      add\n        /* \"#utility.yul\":6944:6970   */\n      swap1\n      pop\n        /* \"#utility.yul\":7016:7025   */\n      dup2\n        /* \"#utility.yul\":7010:7014   */\n      dup2\n        /* \"#utility.yul\":7006:7026   */\n      sub\n        /* \"#utility.yul\":7002:7003   */\n      0x00\n        /* \"#utility.yul\":6991:7000   */\n      dup4\n        /* \"#utility.yul\":6987:7004   */\n      add\n        /* \"#utility.yul\":6980:7027   */\n      mstore\n        /* \"#utility.yul\":7044:7122   */\n      tag_270\n        /* \"#utility.yul\":7117:7121   */\n      dup2\n        /* \"#utility.yul\":7108:7114   */\n      dup5\n        /* \"#utility.yul\":7044:7122   */\n      tag_184\n      jump\t// in\n    tag_270:\n        /* \"#utility.yul\":7036:7122   */\n      swap1\n      pop\n        /* \"#utility.yul\":6816:7129   */\n      swap3\n      swap2\n      pop\n      pop\n      jump\t// out\n        /* \"#utility.yul\":7135:7315   */\n    tag_185:\n        /* \"#utility.yul\":7183:7260   */\n      0x4e487b7100000000000000000000000000000000000000000000000000000000\n        /* \"#utility.yul\":7180:7181   */\n      0x00\n        /* \"#utility.yul\":7173:7261   */\n      mstore\n        /* \"#utility.yul\":7280:7284   */\n      0x11\n        /* \"#utility.yul\":7277:7278   */\n      0x04\n        /* \"#utility.yul\":7270:7285   */\n      mstore\n        /* \"#utility.yul\":7304:7308   */\n      0x24\n        /* \"#utility.yul\":7301:7302   */\n      0x00\n        /* \"#utility.yul\":7294:7309   */\n      revert\n        /* \"#utility.yul\":7321:7515   */\n    tag_90:\n        /* \"#utility.yul\":7361:7365   */\n      0x00\n        /* \"#utility.yul\":7381:7401   */\n      tag_273\n        /* \"#utility.yul\":7399:7400   */\n      dup3\n        /* \"#utility.yul\":7381:7401   */\n      tag_164\n      jump\t// in\n    tag_273:\n        /* \"#utility.yul\":7376:7401   */\n      swap2\n      pop\n        /* \"#utility.yul\":7415:7435   */\n      tag_274\n        /* \"#utility.yul\":7433:7434   */\n      dup4\n        /* \"#utility.yul\":7415:7435   */\n      tag_164\n      jump\t// in\n    tag_274:\n        /* \"#utility.yul\":7410:7435   */\n      swap3\n      pop\n        /* \"#utility.yul\":7459:7460   */\n      dup3\n        /* \"#utility.yul\":7456:7457   */\n      dup3\n        /* \"#utility.yul\":7452:7461   */\n      sub\n        /* \"#utility.yul\":7444:7461   */\n      swap1\n      pop\n        /* \"#utility.yul\":7483:7484   */\n      dup2\n        /* \"#utility.yul\":7477:7481   */\n      dup2\n        /* \"#utility.yul\":7474:7485   */\n      gt\n        /* \"#utility.yul\":7471:7508   */\n      iszero\n      tag_275\n      jumpi\n        /* \"#utility.yul\":7488:7506   */\n      tag_276\n      tag_185\n      jump\t// in\n    tag_276:\n        /* \"#utility.yul\":7471:7508   */\n    tag_275:\n        /* \"#utility.yul\":7321:7515   */\n      swap3\n      swap2\n      pop\n      pop\n      jump\t// out\n        /* \"#utility.yul\":7521:7701   */\n    tag_99:\n        /* \"#utility.yul\":7569:7646   */\n      0x4e487b7100000000000000000000000000000000000000000000000000000000\n        /* \"#utility.yul\":7566:7567   */\n      0x00\n        /* \"#utility.yul\":7559:7647   */\n      mstore\n        /* \"#utility.yul\":7666:7670   */\n      0x32\n        /* \"#utility.yul\":7663:7664   */\n      0x04\n        /* \"#utility.yul\":7656:7671   */\n      mstore\n        /* \"#utility.yul\":7690:7694   */\n      0x24\n        /* \"#utility.yul\":7687:7688   */\n      0x00\n        /* \"#utility.yul\":7680:7695   */\n      revert\n        /* \"#utility.yul\":7707:7898   */\n    tag_102:\n        /* \"#utility.yul\":7747:7750   */\n      0x00\n        /* \"#utility.yul\":7766:7786   */\n      tag_279\n        /* \"#utility.yul\":7784:7785   */\n      dup3\n        /* \"#utility.yul\":7766:7786   */\n      tag_164\n      jump\t// in\n    tag_279:\n        /* \"#utility.yul\":7761:7786   */\n      swap2\n      pop\n        /* \"#utility.yul\":7800:7820   */\n      tag_280\n        /* \"#utility.yul\":7818:7819   */\n      dup4\n        /* \"#utility.yul\":7800:7820   */\n      tag_164\n      jump\t// in\n    tag_280:\n        /* \"#utility.yul\":7795:7820   */\n      swap3\n      pop\n        /* \"#utility.yul\":7843:7844   */\n      dup3\n        /* \"#utility.yul\":7840:7841   */\n      dup3\n        /* \"#utility.yul\":7836:7845   */\n      add\n        /* \"#utility.yul\":7829:7845   */\n      swap1\n      pop\n        /* \"#utility.yul\":7864:7867   */\n      dup1\n        /* \"#utility.yul\":7861:7862   */\n      dup3\n        /* \"#utility.yul\":7858:7868   */\n      gt\n        /* \"#utility.yul\":7855:7891   */\n      iszero\n      tag_281\n      jumpi\n        /* \"#utility.yul\":7871:7889   */\n      tag_282\n      tag_185\n      jump\t// in\n    tag_282:\n        /* \"#utility.yul\":7855:7891   */\n    tag_281:\n        /* \"#utility.yul\":7707:7898   */\n      swap3\n      swap2\n      pop\n      pop\n      jump\t// out\n        /* \"#utility.yul\":7904:8137   */\n    tag_104:\n        /* \"#utility.yul\":7943:7946   */\n      0x00\n        /* \"#utility.yul\":7966:7990   */\n      tag_284\n        /* \"#utility.yul\":7984:7989   */\n      dup3\n        /* \"#utility.yul\":7966:7990   */\n      tag_164\n      jump\t// in\n    tag_284:\n        /* \"#utility.yul\":7957:7990   */\n      swap2\n      pop\n        /* \"#utility.yul\":8012:8078   */\n      0xffffffffffffffffffffffffffffffffffffffffffffffffffffffffffffffff\n        /* \"#utility.yul\":8005:8010   */\n      dup3\n        /* \"#utility.yul\":8002:8079   */\n      sub\n        /* \"#utility.yul\":7999:8102   */\n      tag_285\n      jumpi\n        /* \"#utility.yul\":8082:8100   */\n      tag_286\n      tag_185\n      jump\t// in\n    tag_286:\n        /* \"#utility.yul\":7999:8102   */\n    tag_285:\n        /* \"#utility.yul\":8129:8130   */\n      0x01\n        /* \"#utility.yul\":8122:8127   */\n      dup3\n        /* \"#utility.yul\":8118:8131   */\n      add\n        /* \"#utility.yul\":8111:8131   */\n      swap1\n      pop\n        /* \"#utility.yul\":7904:8137   */\n      swap2\n      swap1\n      pop\n      jump\t// out\n        /* \"#utility.yul\":8143:8245   */\n    tag_186:\n        /* \"#utility.yul\":8185:8193   */\n      0x00\n        /* \"#utility.yul\":8232:8237   */\n      dup2\n        /* \"#utility.yul\":8229:8230   */\n      0x01\n        /* \"#utility.yul\":8225:8238   */\n      shr\n        /* \"#utility.yul\":8204:8238   */\n      swap1\n      pop\n        /* \"#utility.yul\":8143:8245   */\n      swap2\n      swap1\n      pop\n      jump\t// out\n        /* \"#utility.yul\":8251:9099   */\n    tag_187:\n        /* \"#utility.yul\":8312:8317   */\n      0x00\n        /* \"#utility.yul\":8319:8323   */\n      dup1\n        /* \"#utility.yul\":8343:8349   */\n      dup3\n        /* \"#utility.yul\":8334:8349   */\n      swap2\n      pop\n        /* \"#utility.yul\":8367:8372   */\n      dup4\n        /* \"#utility.yul\":8358:8372   */\n      swap1\n      pop\n        /* \"#utility.yul\":8381:9093   */\n    tag_289:\n        /* \"#utility.yul\":8402:8403   */\n      0x01\n        /* \"#utility.yul\":8392:8400   */\n      dup6\n        /* \"#utility.yul\":8389:8404   */\n      gt\n        /* \"#utility.yul\":8381:9093   */\n      iszero\n      tag_291\n      jumpi\n        /* \"#utility.yul\":8497:8501   */\n      dup1\n        /* \"#utility.yul\":8492:8495   */\n      dup7\n        /* \"#utility.yul\":8488:8502   */\n      div\n        /* \"#utility.yul\":8482:8486   */\n      dup2\n        /* \"#utility.yul\":8479:8503   */\n      gt\n        /* \"#utility.yul\":8476:8526   */\n      iszero\n      tag_292\n      jumpi\n        /* \"#utility.yul\":8506:8524   */\n      tag_293\n      tag_185\n      jump\t// in\n    tag_293:\n        /* \"#utility.yul\":8476:8526   */\n    tag_292:\n        /* \"#utility.yul\":8556:8557   */\n      0x01\n        /* \"#utility.yul\":8546:8554   */\n      dup6\n        /* \"#utility.yul\":8542:8558   */\n      and\n        /* \"#utility.yul\":8539:8990   */\n      iszero\n      tag_294\n      jumpi\n        /* \"#utility.yul\":8971:8975   */\n      dup1\n        /* \"#utility.yul\":8964:8969   */\n      dup3\n        /* \"#utility.yul\":8960:8976   */\n      mul\n        /* \"#utility.yul\":8951:8976   */\n      swap2\n      pop\n        /* \"#utility.yul\":8539:8990   */\n    tag_294:\n        /* \"#utility.yul\":9021:9025   */\n      dup1\n        /* \"#utility.yul\":9015:9019   */\n      dup2\n        /* \"#utility.yul\":9011:9026   */\n      mul\n        /* \"#utility.yul\":9003:9026   */\n      swap1\n      pop\n        /* \"#utility.yul\":9051:9083   */\n      tag_295\n        /* \"#utility.yul\":9074:9082   */\n      dup6\n        /* \"#utility.yul\":9051:9083   */\n      tag_186\n      jump\t// in\n    tag_295:\n        /* \"#utility.yul\":9039:9083   */\n      swap5\n      pop\n        /* \"#utility.yul\":8381:9093   */\n      jump(tag_289)\n    tag_291:\n        /* \"#utility.yul\":8251:9099   */\n      swap5\n      pop\n      swap5\n      swap3\n      pop\n      pop\n      pop\n      jump\t// out\n        /* \"#utility.yul\":9105:10178   */\n    tag_188:\n        /* \"#utility.yul\":9159:9164   */\n      0x00\n        /* \"#utility.yul\":9350:9358   */\n      dup3\n        /* \"#utility.yul\":9340:9380   */\n      tag_297\n      jumpi\n        /* \"#utility.yul\":9371:9372   */\n      0x01\n        /* \"#utility.yul\":9362:9372   */\n      swap1\n      pop\n        /* \"#utility.yul\":9373:9378   */\n      jump(tag_296)\n        /* \"#utility.yul\":9340:9380   */\n    tag_297:\n        /* \"#utility.yul\":9399:9403   */\n      dup2\n        /* \"#utility.yul\":9389:9425   */\n      tag_298\n      jumpi\n        /* \"#utility.yul\":9416:9417   */\n      0x00\n        /* \"#utility.yul\":9407:9417   */\n      swap1\n      pop\n        /* \"#utility.yul\":9418:9423   */\n      jump(tag_296)\n        /* \"#utility.yul\":9389:9425   */\n    tag_298:\n        /* \"#utility.yul\":9485:9489   */\n      dup2\n        /* \"#utility.yul\":9533:9534   */\n      0x01\n        /* \"#utility.yul\":9528:9555   */\n      dup2\n      eq\n      tag_300\n      jumpi\n        /* \"#utility.yul\":9569:9570   */\n      0x02\n        /* \"#utility.yul\":9564:9755   */\n      dup2\n      eq\n      tag_301\n      jumpi\n        /* \"#utility.yul\":9478:9755   */\n      jump(tag_299)\n        /* \"#utility.yul\":9528:9555   */\n    tag_300:\n        /* \"#utility.yul\":9546:9547   */\n      0x01\n        /* \"#utility.yul\":9537:9547   */\n      swap2\n      pop\n        /* \"#utility.yul\":9548:9553   */\n      pop\n      jump(tag_296)\n        /* \"#utility.yul\":9564:9755   */\n    tag_301:\n        /* \"#utility.yul\":9609:9612   */\n      0xff\n        /* \"#utility.yul\":9599:9607   */\n      dup5\n        /* \"#utility.yul\":9596:9613   */\n      gt\n        /* \"#utility.yul\":9593:9636   */\n      iszero\n      tag_302\n      jumpi\n        /* \"#utility.yul\":9616:9634   */\n      tag_303\n      tag_185\n      jump\t// in\n    tag_303:\n        /* \"#utility.yul\":9593:9636   */\n    tag_302:\n        /* \"#utility.yul\":9665:9673   */\n      dup4\n        /* \"#utility.yul\":9662:9663   */\n      0x02\n        /* \"#utility.yul\":9658:9674   */\n      exp\n        /* \"#utility.yul\":9649:9674   */\n      swap2\n      pop\n        /* \"#utility.yul\":9700:9703   */\n      dup5\n        /* \"#utility.yul\":9693:9698   */\n      dup3\n        /* \"#utility.yul\":9690:9704   */\n      gt\n        /* \"#utility.yul\":9687:9727   */\n      iszero\n      tag_304\n      jumpi\n        /* \"#utility.yul\":9707:9725   */\n      tag_305\n      tag_185\n      jump\t// in\n    tag_305:\n        /* \"#utility.yul\":9687:9727   */\n    tag_304:\n        /* \"#utility.yul\":9740:9745   */\n      pop\n      jump(tag_296)\n        /* \"#utility.yul\":9478:9755   */\n    tag_299:\n      pop\n        /* \"#utility.yul\":9864:9866   */\n      0x20\n        /* \"#utility.yul\":9854:9862   */\n      dup4\n        /* \"#utility.yul\":9851:9867   */\n      lt\n        /* \"#utility.yul\":9845:9848   */\n      0x0133\n        /* \"#utility.yul\":9839:9843   */\n      dup4\n        /* \"#utility.yul\":9836:9849   */\n      lt\n        /* \"#utility.yul\":9832:9868   */\n      and\n        /* \"#utility.yul\":9814:9816   */\n      0x4e\n        /* \"#utility.yul\":9804:9812   */\n      dup5\n        /* \"#utility.yul\":9801:9817   */\n      lt\n        /* \"#utility.yul\":9796:9798   */\n      0x0b\n        /* \"#utility.yul\":9790:9794   */\n      dup5\n        /* \"#utility.yul\":9787:9799   */\n      lt\n        /* \"#utility.yul\":9783:9818   */\n      and\n        /* \"#utility.yul\":9767:9878   */\n      or\n        /* \"#utility.yul\":9764:10010   */\n      iszero\n      tag_306\n      jumpi\n        /* \"#utility.yul\":9920:9928   */\n      dup3\n        /* \"#utility.yul\":9914:9918   */\n      dup3\n        /* \"#utility.yul\":9910:9929   */\n      exp\n        /* \"#utility.yul\":9901:9929   */\n      swap1\n      pop\n        /* \"#utility.yul\":9955:9958   */\n      dup4\n        /* \"#utility.yul\":9948:9953   */\n      dup2\n        /* \"#utility.yul\":9945:9959   */\n      gt\n        /* \"#utility.yul\":9942:9982   */\n      iszero\n      tag_307\n      jumpi\n        /* \"#utility.yul\":9962:9980   */\n      tag_308\n      tag_185\n      jump\t// in\n    tag_308:\n        /* \"#utility.yul\":9942:9982   */\n    tag_307:\n        /* \"#utility.yul\":9995:10000   */\n      jump(tag_296)\n        /* \"#utility.yul\":9764:10010   */\n    tag_306:\n        /* \"#utility.yul\":10035:10077   */\n      tag_309\n        /* \"#utility.yul\":10073:10076   */\n      dup5\n        /* \"#utility.yul\":10063:10071   */\n      dup5\n        /* \"#utility.yul\":10057:10061   */\n      dup5\n        /* \"#utility.yul\":10054:10055   */\n      0x01\n        /* \"#utility.yul\":10035:10077   */\n      tag_187\n      jump\t// in\n    tag_309:\n        /* \"#utility.yul\":10020:10077   */\n      swap3\n      pop\n      swap1\n      pop\n        /* \"#utility.yul\":10109:10113   */\n      dup2\n        /* \"#utility.yul\":10104:10107   */\n      dup5\n        /* \"#utility.yul\":10100:10114   */\n      div\n        /* \"#utility.yul\":10093:10098   */\n      dup2\n        /* \"#utility.yul\":10090:10115   */\n      gt\n        /* \"#utility.yul\":10087:10138   */\n      iszero\n      tag_310\n      jumpi\n        /* \"#utility.yul\":10118:10136   */\n      tag_311\n      tag_185\n      jump\t// in\n    tag_311:\n        /* \"#utility.yul\":10087:10138   */\n    tag_310:\n        /* \"#utility.yul\":10167:10171   */\n      dup2\n        /* \"#utility.yul\":10160:10165   */\n      dup2\n        /* \"#utility.yul\":10156:10172   */\n      mul\n        /* \"#utility.yul\":10147:10172   */\n      swap1\n      pop\n        /* \"#utility.yul\":9105:10178   */\n    tag_296:\n      swap4\n      swap3\n      pop\n      pop\n      pop\n      jump\t// out\n        /* \"#utility.yul\":10184:10270   */\n    tag_189:\n        /* \"#utility.yul\":10219:10226   */\n      0x00\n        /* \"#utility.yul\":10259:10263   */\n      0xff\n        /* \"#utility.yul\":10252:10257   */\n      dup3\n        /* \"#utility.yul\":10248:10264   */\n      and\n        /* \"#utility.yul\":10237:10264   */\n      swap1\n      pop\n        /* \"#utility.yul\":10184:10270   */\n      swap2\n      swap1\n      pop\n      jump\t// out\n        /* \"#utility.yul\":10276:10557   */\n    tag_109:\n        /* \"#utility.yul\":10334:10339   */\n      0x00\n        /* \"#utility.yul\":10358:10381   */\n      tag_314\n        /* \"#utility.yul\":10376:10380   */\n      dup3\n        /* \"#utility.yul\":10358:10381   */\n      tag_164\n      jump\t// in\n    tag_314:\n        /* \"#utility.yul\":10350:10381   */\n      swap2\n      pop\n        /* \"#utility.yul\":10402:10427   */\n      tag_315\n        /* \"#utility.yul\":10418:10426   */\n      dup4\n        /* \"#utility.yul\":10402:10427   */\n      tag_189\n      jump\t// in\n    tag_315:\n        /* \"#utility.yul\":10390:10427   */\n      swap3\n      pop\n        /* \"#utility.yul\":10446:10550   */\n      tag_316\n        /* \"#utility.yul\":10483:10549   */\n      0xffffffffffffffffffffffffffffffffffffffffffffffffffffffffffffffff\n        /* \"#utility.yul\":10473:10481   */\n      dup5\n        /* \"#utility.yul\":10467:10471   */\n      dup5\n        /* \"#utility.yul\":10446:10550   */\n      tag_188\n      jump\t// in\n    tag_316:\n        /* \"#utility.yul\":10437:10550   */\n      swap1\n      pop\n        /* \"#utility.yul\":10276:10557   */\n      swap3\n      swap2\n      pop\n      pop\n      jump\t// out\n        /* \"#utility.yul\":10563:10743   */\n    tag_116:\n        /* \"#utility.yul\":10611:10688   */\n      0x4e487b7100000000000000000000000000000000000000000000000000000000\n        /* \"#utility.yul\":10608:10609   */\n      0x00\n        /* \"#utility.yul\":10601:10689   */\n      mstore\n        /* \"#utility.yul\":10708:10712   */\n      0x31\n        /* \"#utility.yul\":10705:10706   */\n      0x04\n        /* \"#utility.yul\":10698:10713   */\n      mstore\n        /* \"#utility.yul\":10732:10736   */\n      0x24\n        /* \"#utility.yul\":10729:10730   */\n      0x00\n        /* \"#utility.yul\":10722:10737   */\n      revert\n        /* \"#utility.yul\":10749:11159   */\n    tag_120:\n        /* \"#utility.yul\":10789:10796   */\n      0x00\n        /* \"#utility.yul\":10812:10832   */\n      tag_319\n        /* \"#utility.yul\":10830:10831   */\n      dup3\n        /* \"#utility.yul\":10812:10832   */\n      tag_164\n      jump\t// in\n    tag_319:\n        /* \"#utility.yul\":10807:10832   */\n      swap2\n      pop\n        /* \"#utility.yul\":10846:10866   */\n      tag_320\n        /* \"#utility.yul\":10864:10865   */\n      dup4\n        /* \"#utility.yul\":10846:10866   */\n      tag_164\n      jump\t// in\n    tag_320:\n        /* \"#utility.yul\":10841:10866   */\n      swap3\n      pop\n        /* \"#utility.yul\":10901:10902   */\n      dup3\n        /* \"#utility.yul\":10898:10899   */\n      dup3\n        /* \"#utility.yul\":10894:10903   */\n      mul\n        /* \"#utility.yul\":10923:10953   */\n      tag_321\n        /* \"#utility.yul\":10941:10952   */\n      dup2\n        /* \"#utility.yul\":10923:10953   */\n      tag_164\n      jump\t// in\n    tag_321:\n        /* \"#utility.yul\":10912:10953   */\n      swap2\n      pop\n        /* \"#utility.yul\":11102:11103   */\n      dup3\n        /* \"#utility.yul\":11093:11100   */\n      dup3\n        /* \"#utility.yul\":11089:11104   */\n      div\n        /* \"#utility.yul\":11086:11087   */\n      dup5\n        /* \"#utility.yul\":11083:11105   */\n      eq\n        /* \"#utility.yul\":11063:11064   */\n      dup4\n        /* \"#utility.yul\":11056:11065   */\n      iszero\n        /* \"#utility.yul\":11036:11119   */\n      or\n        /* \"#utility.yul\":11013:11152   */\n      tag_322\n      jumpi\n        /* \"#utility.yul\":11132:11150   */\n      tag_323\n      tag_185\n      jump\t// in\n    tag_323:\n        /* \"#utility.yul\":11013:11152   */\n    tag_322:\n        /* \"#utility.yul\":10797:11159   */\n      pop\n        /* \"#utility.yul\":10749:11159   */\n      swap3\n      swap2\n      pop\n      pop\n      jump\t// out\n        /* \"#utility.yul\":11165:11345   */\n    tag_190:\n        /* \"#utility.yul\":11213:11290   */\n      0x4e487b7100000000000000000000000000000000000000000000000000000000\n        /* \"#utility.yul\":11210:11211   */\n      0x00\n        /* \"#utility.yul\":11203:11291   */\n      mstore\n        /* \"#utility.yul\":11310:11314   */\n      0x12\n        /* \"#utility.yul\":11307:11308   */\n      0x04\n        /* \"#utility.yul\":11300:11315   */\n      mstore\n        /* \"#utility.yul\":11334:11338   */\n      0x24\n        /* \"#utility.yul\":11331:11332   */\n      0x00\n        /* \"#utility.yul\":11324:11339   */\n      revert\n        /* \"#utility.yul\":11351:11527   */\n    tag_127:\n        /* \"#utility.yul\":11383:11384   */\n      0x00\n        /* \"#utility.yul\":11400:11420   */\n      tag_326\n        /* \"#utility.yul\":11418:11419   */\n      dup3\n        /* \"#utility.yul\":11400:11420   */\n      tag_164\n      jump\t// in\n    tag_326:\n        /* \"#utility.yul\":11395:11420   */\n      swap2\n      pop\n        /* \"#utility.yul\":11434:11454   */\n      tag_327\n        /* \"#utility.yul\":11452:11453   */\n      dup4\n        /* \"#utility.yul\":11434:11454   */\n      tag_164\n      jump\t// in\n    tag_327:\n        /* \"#utility.yul\":11429:11454   */\n      swap3\n      pop\n        /* \"#utility.yul\":11473:11474   */\n      dup3\n        /* \"#utility.yul\":11463:11498   */\n      tag_328\n      jumpi\n        /* \"#utility.yul\":11478:11496   */\n      tag_329\n      tag_190\n      jump\t// in\n    tag_329:\n        /* \"#utility.yul\":11463:11498   */\n    tag_328:\n        /* \"#utility.yul\":11519:11520   */\n      dup3\n        /* \"#utility.yul\":11516:11517   */\n      dup3\n        /* \"#utility.yul\":11512:11521   */\n      mod\n        /* \"#utility.yul\":11507:11521   */\n      swap1\n      pop\n        /* \"#utility.yul\":11351:11527   */\n      swap3\n      swap2\n      pop\n      pop\n      jump\t// out\n        /* \"#utility.yul\":11533:11718   */\n    tag_132:\n        /* \"#utility.yul\":11573:11574   */\n      0x00\n        /* \"#utility.yul\":11590:11610   */\n      tag_331\n        /* \"#utility.yul\":11608:11609   */\n      dup3\n        /* \"#utility.yul\":11590:11610   */\n      tag_164\n      jump\t// in\n    tag_331:\n        /* \"#utility.yul\":11585:11610   */\n      swap2\n      pop\n        /* \"#utility.yul\":11624:11644   */\n      tag_332\n        /* \"#utility.yul\":11642:11643   */\n      dup4\n        /* \"#utility.yul\":11624:11644   */\n      tag_164\n      jump\t// in\n    tag_332:\n        /* \"#utility.yul\":11619:11644   */\n      swap3\n      pop\n        /* \"#utility.yul\":11663:11664   */\n      dup3\n        /* \"#utility.yul\":11653:11688   */\n      tag_333\n      jumpi\n        /* \"#utility.yul\":11668:11686   */\n      tag_334\n      tag_190\n      jump\t// in\n    tag_334:\n        /* \"#utility.yul\":11653:11688   */\n    tag_333:\n        /* \"#utility.yul\":11710:11711   */\n      dup3\n        /* \"#utility.yul\":11707:11708   */\n      dup3\n        /* \"#utility.yul\":11703:11712   */\n      div\n        /* \"#utility.yul\":11698:11712   */\n      swap1\n      pop\n        /* \"#utility.yul\":11533:11718   */\n      swap3\n      swap2\n      pop\n      pop\n      jump\t// out\n\n    auxdata: 0xa26469706673582212205df39bc59b61272158e11c6ee7e9452a89b1dca5f9631d6625e66b1df52746bc64736f6c63430008120033\n}\n",
				"bytecode": {
					"linkReferences": {},
					"object": "608060405234801561001057600080fd5b50610ec8806100206000396000f3fe608060405234801561001057600080fd5b506004361061010b5760003560e01c80636e8eb222116100a2578063ac3afa4311610071578063ac3afa43146102cc578063c056b522146102d6578063e090dde714610306578063eee9720614610336578063f3358ac4146103525761010b565b80636e8eb2221461021f5780637afbe4f11461023b5780639a03fe1d1461026b578063ab78e68b1461029b5761010b565b806348d50799116100de57806348d50799146101985780634ca19cd9146101c957806360953744146101d35780636cbcea13146102035761010b565b80631ec9c2c01461011057806322554f341461014057806322cc65c61461015e57806339da68e31461017c575b600080fd5b61012a60048036038101906101259190610790565b610382565b60405161013791906107df565b60405180910390f35b610148610398565b60405161015591906107df565b60405180910390f35b6101666103a2565b60405161017391906107df565b60405180910390f35b610196600480360381019061019191906107fa565b610421565b005b6101b260048036038101906101ad9190610790565b610451565b6040516101c0929190610827565b60405180910390f35b6101d1610479565b005b6101ed60048036038101906101e89190610790565b6104a3565b6040516101fa91906107df565b60405180910390f35b61021d600480360381019061021891906107fa565b6104b9565b005b610239600480360381019061023491906107fa565b6104e5565b005b61025560048036038101906102509190610790565b610513565b60405161026291906107df565b60405180910390f35b61028560048036038101906102809190610790565b610529565b60405161029291906107df565b60405180910390f35b6102b560048036038101906102b09190610790565b61053f565b6040516102c3929190610827565b60405180910390f35b6102d4610565565b005b6102f060048036038101906102eb9190610996565b6105b0565b6040516102fd9190610a5e565b60405180910390f35b610320600480360381019061031b91906107fa565b6105ba565b60405161032d9190610ad5565b60405180910390f35b610350600480360381019061034b91906107fa565b6106f0565b005b61036c600480360381019061036791906107fa565b61071e565b60405161037991906107df565b60405180910390f35b600081836103909190610b26565b905092915050565b6000600154905090565b60008060005b6005811015610419576002819080600181540180825580915050600190039060005260206000200160009091909190915055600281815481106103ee576103ed610b5a565b5b9060005260206000200154826104049190610b89565b9150808061041190610bbd565b9150506103a8565b508091505090565b600154600010801561043557506004600154105b1561044e576002816104479190610d45565b6001819055505b50565b6000806003846104619190610d45565b60038461046e9190610d45565b915091509250929050565b600380548061048b5761048a610d90565b5b60019003818190600052602060002001600090559055565b600081836104b19190610dbf565b905092915050565b600381908060018154018082558091505060019003906000526020600020016000909190919091505550565b8060061080156104f75750600a600154105b15610510576003816105099190610e30565b6001819055505b50565b600081836105219190610b89565b905092915050565b600081836105379190610e61565b905092915050565b600080838461054e9190610dbf565b838461055a9190610dbf565b915091509250929050565b60005b600a8110156105ad57600281908060018154018082558091505060019003906000526020600020016000909190919091505580806105a590610bbd565b915050610568565b50565b6060819050919050565b60608160001080156105cc5750600b82105b1561060e576040518060400160405280600181526020017f410000000000000000000000000000000000000000000000000000000000000081525090506106eb565b81600a10801561061e5750601582105b15610660576040518060400160405280600181526020017f420000000000000000000000000000000000000000000000000000000000000081525090506106eb565b8160141080156106705750601f82105b156106b2576040518060400160405280600181526020017f430000000000000000000000000000000000000000000000000000000000000081525090506106eb565b6040518060400160405280600181526020017f440000000000000000000000000000000000000000000000000000000000000081525090505b919050565b80600310801561070257506007600154105b1561071b576002816107149190610dbf565b6001819055505b50565b60006003828154811061073457610733610b5a565b5b90600052602060002001549050919050565b6000604051905090565b600080fd5b600080fd5b6000819050919050565b61076d8161075a565b811461077857600080fd5b50565b60008135905061078a81610764565b92915050565b600080604083850312156107a7576107a6610750565b5b60006107b58582860161077b565b92505060206107c68582860161077b565b9150509250929050565b6107d98161075a565b82525050565b60006020820190506107f460008301846107d0565b92915050565b6000602082840312156108105761080f610750565b5b600061081e8482850161077b565b91505092915050565b600060408201905061083c60008301856107d0565b61084960208301846107d0565b9392505050565b600080fd5b600080fd5b6000601f19601f8301169050919050565b7f4e487b7100000000000000000000000000000000000000000000000000000000600052604160045260246000fd5b6108a38261085a565b810181811067ffffffffffffffff821117156108c2576108c161086b565b5b80604052505050565b60006108d5610746565b90506108e1828261089a565b919050565b600067ffffffffffffffff8211156109015761090061086b565b5b61090a8261085a565b9050602081019050919050565b82818337600083830152505050565b6000610939610934846108e6565b6108cb565b90508281526020810184848401111561095557610954610855565b5b610960848285610917565b509392505050565b600082601f83011261097d5761097c610850565b5b813561098d848260208601610926565b91505092915050565b6000602082840312156109ac576109ab610750565b5b600082013567ffffffffffffffff8111156109ca576109c9610755565b5b6109d684828501610968565b91505092915050565b600081519050919050565b600082825260208201905092915050565b60005b83811015610a195780820151818401526020810190506109fe565b60008484015250505050565b6000610a30826109df565b610a3a81856109ea565b9350610a4a8185602086016109fb565b610a538161085a565b840191505092915050565b60006020820190508181036000830152610a788184610a25565b905092915050565b600081519050919050565b600082825260208201905092915050565b6000610aa782610a80565b610ab18185610a8b565b9350610ac18185602086016109fb565b610aca8161085a565b840191505092915050565b60006020820190508181036000830152610aef8184610a9c565b905092915050565b7f4e487b7100000000000000000000000000000000000000000000000000000000600052601160045260246000fd5b6000610b318261075a565b9150610b3c8361075a565b9250828203905081811115610b5457610b53610af7565b5b92915050565b7f4e487b7100000000000000000000000000000000000000000000000000000000600052603260045260246000fd5b6000610b948261075a565b9150610b9f8361075a565b9250828201905080821115610bb757610bb6610af7565b5b92915050565b6000610bc88261075a565b91507fffffffffffffffffffffffffffffffffffffffffffffffffffffffffffffffff8203610bfa57610bf9610af7565b5b600182019050919050565b60008160011c9050919050565b6000808291508390505b6001851115610c5c57808604811115610c3857610c37610af7565b5b6001851615610c475780820291505b8081029050610c5585610c05565b9450610c1c565b94509492505050565b600082610c755760019050610d31565b81610c835760009050610d31565b8160018114610c995760028114610ca357610cd2565b6001915050610d31565b60ff841115610cb557610cb4610af7565b5b8360020a915084821115610ccc57610ccb610af7565b5b50610d31565b5060208310610133831016604e8410600b8410161715610d075782820a905083811115610d0257610d01610af7565b5b610d31565b610d148484846001610c12565b92509050818404811115610d2b57610d2a610af7565b5b81810290505b9392505050565b600060ff82169050919050565b6000610d508261075a565b9150610d5b83610d38565b9250610d887fffffffffffffffffffffffffffffffffffffffffffffffffffffffffffffffff8484610c65565b905092915050565b7f4e487b7100000000000000000000000000000000000000000000000000000000600052603160045260246000fd5b6000610dca8261075a565b9150610dd58361075a565b9250828202610de38161075a565b91508282048414831517610dfa57610df9610af7565b5b5092915050565b7f4e487b7100000000000000000000000000000000000000000000000000000000600052601260045260246000fd5b6000610e3b8261075a565b9150610e468361075a565b925082610e5657610e55610e01565b5b828206905092915050565b6000610e6c8261075a565b9150610e778361075a565b925082610e8757610e86610e01565b5b82820490509291505056fea26469706673582212205df39bc59b61272158e11c6ee7e9452a89b1dca5f9631d6625e66b1df52746bc64736f6c63430008120033",
					"opcodes": "PUSH1 0x80 PUSH1 0x40 MSTORE CALLVALUE DUP1 ISZERO PUSH2 0x10 JUMPI PUSH1 0x0 DUP1 REVERT JUMPDEST POP PUSH2 0xEC8 DUP1 PUSH2 0x20 PUSH1 0x0 CODECOPY PUSH1 0x0 RETURN INVALID PUSH1 0x80 PUSH1 0x40 MSTORE CALLVALUE DUP1 ISZERO PUSH2 0x10 JUMPI PUSH1 0x0 DUP1 REVERT JUMPDEST POP PUSH1 0x4 CALLDATASIZE LT PUSH2 0x10B JUMPI PUSH1 0x0 CALLDATALOAD PUSH1 0xE0 SHR DUP1 PUSH4 0x6E8EB222 GT PUSH2 0xA2 JUMPI DUP1 PUSH4 0xAC3AFA43 GT PUSH2 0x71 JUMPI DUP1 PUSH4 0xAC3AFA43 EQ PUSH2 0x2CC JUMPI DUP1 PUSH4 0xC056B522 EQ PUSH2 0x2D6 JUMPI DUP1 PUSH4 0xE090DDE7 EQ PUSH2 0x306 JUMPI DUP1 PUSH4 0xEEE97206 EQ PUSH2 0x336 JUMPI DUP1 PUSH4 0xF3358AC4 EQ PUSH2 0x352 JUMPI PUSH2 0x10B JUMP JUMPDEST DUP1 PUSH4 0x6E8EB222 EQ PUSH2 0x21F JUMPI DUP1 PUSH4 0x7AFBE4F1 EQ PUSH2 0x23B JUMPI DUP1 PUSH4 0x9A03FE1D EQ PUSH2 0x26B JUMPI DUP1 PUSH4 0xAB78E68B EQ PUSH2 0x29B JUMPI PUSH2 0x10B JUMP JUMPDEST DUP1 PUSH4 0x48D50799 GT PUSH2 0xDE JUMPI DUP1 PUSH4 0x48D50799 EQ PUSH2 0x198 JUMPI DUP1 PUSH4 0x4CA19CD9 EQ PUSH2 0x1C9 JUMPI DUP1 PUSH4 0x60953744 EQ PUSH2 0x1D3 JUMPI DUP1 PUSH4 0x6CBCEA13 EQ PUSH2 0x203 JUMPI PUSH2 0x10B JUMP JUMPDEST DUP1 PUSH4 0x1EC9C2C0 EQ PUSH2 0x110 JUMPI DUP1 PUSH4 0x22554F34 EQ PUSH2 0x140 JUMPI DUP1 PUSH4 0x22CC65C6 EQ PUSH2 0x15E JUMPI DUP1 PUSH4 0x39DA68E3 EQ PUSH2 0x17C JUMPI JUMPDEST PUSH1 0x0 DUP1 REVERT JUMPDEST PUSH2 0x12A PUSH1 0x4 DUP1 CALLDATASIZE SUB DUP2 ADD SWAP1 PUSH2 0x125 SWAP2 SWAP1 PUSH2 0x790 JUMP JUMPDEST PUSH2 0x382 JUMP JUMPDEST PUSH1 0x40 MLOAD PUSH2 0x137 SWAP2 SWAP1 PUSH2 0x7DF JUMP JUMPDEST PUSH1 0x40 MLOAD DUP1 SWAP2 SUB SWAP1 RETURN JUMPDEST PUSH2 0x148 PUSH2 0x398 JUMP JUMPDEST PUSH1 0x40 MLOAD PUSH2 0x155 SWAP2 SWAP1 PUSH2 0x7DF JUMP JUMPDEST PUSH1 0x40 MLOAD DUP1 SWAP2 SUB SWAP1 RETURN JUMPDEST PUSH2 0x166 PUSH2 0x3A2 JUMP JUMPDEST PUSH1 0x40 MLOAD PUSH2 0x173 SWAP2 SWAP1 PUSH2 0x7DF JUMP JUMPDEST PUSH1 0x40 MLOAD DUP1 SWAP2 SUB SWAP1 RETURN JUMPDEST PUSH2 0x196 PUSH1 0x4 DUP1 CALLDATASIZE SUB DUP2 ADD SWAP1 PUSH2 0x191 SWAP2 SWAP1 PUSH2 0x7FA JUMP JUMPDEST PUSH2 0x421 JUMP JUMPDEST STOP JUMPDEST PUSH2 0x1B2 PUSH1 0x4 DUP1 CALLDATASIZE SUB DUP2 ADD SWAP1 PUSH2 0x1AD SWAP2 SWAP1 PUSH2 0x790 JUMP JUMPDEST PUSH2 0x451 JUMP JUMPDEST PUSH1 0x40 MLOAD PUSH2 0x1C0 SWAP3 SWAP2 SWAP1 PUSH2 0x827 JUMP JUMPDEST PUSH1 0x40 MLOAD DUP1 SWAP2 SUB SWAP1 RETURN JUMPDEST PUSH2 0x1D1 PUSH2 0x479 JUMP JUMPDEST STOP JUMPDEST PUSH2 0x1ED PUSH1 0x4 DUP1 CALLDATASIZE SUB DUP2 ADD SWAP1 PUSH2 0x1E8 SWAP2 SWAP1 PUSH2 0x790 JUMP JUMPDEST PUSH2 0x4A3 JUMP JUMPDEST PUSH1 0x40 MLOAD PUSH2 0x1FA SWAP2 SWAP1 PUSH2 0x7DF JUMP JUMPDEST PUSH1 0x40 MLOAD DUP1 SWAP2 SUB SWAP1 RETURN JUMPDEST PUSH2 0x21D PUSH1 0x4 DUP1 CALLDATASIZE SUB DUP2 ADD SWAP1 PUSH2 0x218 SWAP2 SWAP1 PUSH2 0x7FA JUMP JUMPDEST PUSH2 0x4B9 JUMP JUMPDEST STOP JUMPDEST PUSH2 0x239 PUSH1 0x4 DUP1 CALLDATASIZE SUB DUP2 ADD SWAP1 PUSH2 0x234 SWAP2 SWAP1 PUSH2 0x7FA JUMP JUMPDEST PUSH2 0x4E5 JUMP JUMPDEST STOP JUMPDEST PUSH2 0x255 PUSH1 0x4 DUP1 CALLDATASIZE SUB DUP2 ADD SWAP1 PUSH2 0x250 SWAP2 SWAP1 PUSH2 0x790 JUMP JUMPDEST PUSH2 0x513 JUMP JUMPDEST PUSH1 0x40 MLOAD PUSH2 0x262 SWAP2 SWAP1 PUSH2 0x7DF JUMP JUMPDEST PUSH1 0x40 MLOAD DUP1 SWAP2 SUB SWAP1 RETURN JUMPDEST PUSH2 0x285 PUSH1 0x4 DUP1 CALLDATASIZE SUB DUP2 ADD SWAP1 PUSH2 0x280 SWAP2 SWAP1 PUSH2 0x790 JUMP JUMPDEST PUSH2 0x529 JUMP JUMPDEST PUSH1 0x40 MLOAD PUSH2 0x292 SWAP2 SWAP1 PUSH2 0x7DF JUMP JUMPDEST PUSH1 0x40 MLOAD DUP1 SWAP2 SUB SWAP1 RETURN JUMPDEST PUSH2 0x2B5 PUSH1 0x4 DUP1 CALLDATASIZE SUB DUP2 ADD SWAP1 PUSH2 0x2B0 SWAP2 SWAP1 PUSH2 0x790 JUMP JUMPDEST PUSH2 0x53F JUMP JUMPDEST PUSH1 0x40 MLOAD PUSH2 0x2C3 SWAP3 SWAP2 SWAP1 PUSH2 0x827 JUMP JUMPDEST PUSH1 0x40 MLOAD DUP1 SWAP2 SUB SWAP1 RETURN JUMPDEST PUSH2 0x2D4 PUSH2 0x565 JUMP JUMPDEST STOP JUMPDEST PUSH2 0x2F0 PUSH1 0x4 DUP1 CALLDATASIZE SUB DUP2 ADD SWAP1 PUSH2 0x2EB SWAP2 SWAP1 PUSH2 0x996 JUMP JUMPDEST PUSH2 0x5B0 JUMP JUMPDEST PUSH1 0x40 MLOAD PUSH2 0x2FD SWAP2 SWAP1 PUSH2 0xA5E JUMP JUMPDEST PUSH1 0x40 MLOAD DUP1 SWAP2 SUB SWAP1 RETURN JUMPDEST PUSH2 0x320 PUSH1 0x4 DUP1 CALLDATASIZE SUB DUP2 ADD SWAP1 PUSH2 0x31B SWAP2 SWAP1 PUSH2 0x7FA JUMP JUMPDEST PUSH2 0x5BA JUMP JUMPDEST PUSH1 0x40 MLOAD PUSH2 0x32D SWAP2 SWAP1 PUSH2 0xAD5 JUMP JUMPDEST PUSH1 0x40 MLOAD DUP1 SWAP2 SUB SWAP1 RETURN JUMPDEST PUSH2 0x350 PUSH1 0x4 DUP1 CALLDATASIZE SUB DUP2 ADD SWAP1 PUSH2 0x34B SWAP2 SWAP1 PUSH2 0x7FA JUMP JUMPDEST PUSH2 0x6F0 JUMP JUMPDEST STOP JUMPDEST PUSH2 0x36C PUSH1 0x4 DUP1 CALLDATASIZE SUB DUP2 ADD SWAP1 PUSH2 0x367 SWAP2 SWAP1 PUSH2 0x7FA JUMP JUMPDEST PUSH2 0x71E JUMP JUMPDEST PUSH1 0x40 MLOAD PUSH2 0x379 SWAP2 SWAP1 PUSH2 0x7DF JUMP JUMPDEST PUSH1 0x40 MLOAD DUP1 SWAP2 SUB SWAP1 RETURN JUMPDEST PUSH1 0x0 DUP2 DUP4 PUSH2 0x390 SWAP2 SWAP1 PUSH2 0xB26 JUMP JUMPDEST SWAP1 POP SWAP3 SWAP2 POP POP JUMP JUMPDEST PUSH1 0x0 PUSH1 0x1 SLOAD SWAP1 POP SWAP1 JUMP JUMPDEST PUSH1 0x0 DUP1 PUSH1 0x0 JUMPDEST PUSH1 0x5 DUP2 LT ISZERO PUSH2 0x419 JUMPI PUSH1 0x2 DUP2 SWAP1 DUP1 PUSH1 0x1 DUP2 SLOAD ADD DUP1 DUP3 SSTORE DUP1 SWAP2 POP POP PUSH1 0x1 SWAP1 SUB SWAP1 PUSH1 0x0 MSTORE PUSH1 0x20 PUSH1 0x0 KECCAK256 ADD PUSH1 0x0 SWAP1 SWAP2 SWAP1 SWAP2 SWAP1 SWAP2 POP SSTORE PUSH1 0x2 DUP2 DUP2 SLOAD DUP2 LT PUSH2 0x3EE JUMPI PUSH2 0x3ED PUSH2 0xB5A JUMP JUMPDEST JUMPDEST SWAP1 PUSH1 0x0 MSTORE PUSH1 0x20 PUSH1 0x0 KECCAK256 ADD SLOAD DUP3 PUSH2 0x404 SWAP2 SWAP1 PUSH2 0xB89 JUMP JUMPDEST SWAP2 POP DUP1 DUP1 PUSH2 0x411 SWAP1 PUSH2 0xBBD JUMP JUMPDEST SWAP2 POP POP PUSH2 0x3A8 JUMP JUMPDEST POP DUP1 SWAP2 POP POP SWAP1 JUMP JUMPDEST PUSH1 0x1 SLOAD PUSH1 0x0 LT DUP1 ISZERO PUSH2 0x435 JUMPI POP PUSH1 0x4 PUSH1 0x1 SLOAD LT JUMPDEST ISZERO PUSH2 0x44E JUMPI PUSH1 0x2 DUP2 PUSH2 0x447 SWAP2 SWAP1 PUSH2 0xD45 JUMP JUMPDEST PUSH1 0x1 DUP2 SWAP1 SSTORE POP JUMPDEST POP JUMP JUMPDEST PUSH1 0x0 DUP1 PUSH1 0x3 DUP5 PUSH2 0x461 SWAP2 SWAP1 PUSH2 0xD45 JUMP JUMPDEST PUSH1 0x3 DUP5 PUSH2 0x46E SWAP2 SWAP1 PUSH2 0xD45 JUMP JUMPDEST SWAP2 POP SWAP2 POP SWAP3 POP SWAP3 SWAP1 POP JUMP JUMPDEST PUSH1 0x3 DUP1 SLOAD DUP1 PUSH2 0x48B JUMPI PUSH2 0x48A PUSH2 0xD90 JUMP JUMPDEST JUMPDEST PUSH1 0x1 SWAP1 SUB DUP2 DUP2 SWAP1 PUSH1 0x0 MSTORE PUSH1 0x20 PUSH1 0x0 KECCAK256 ADD PUSH1 0x0 SWAP1 SSTORE SWAP1 SSTORE JUMP JUMPDEST PUSH1 0x0 DUP2 DUP4 PUSH2 0x4B1 SWAP2 SWAP1 PUSH2 0xDBF JUMP JUMPDEST SWAP1 POP SWAP3 SWAP2 POP POP JUMP JUMPDEST PUSH1 0x3 DUP2 SWAP1 DUP1 PUSH1 0x1 DUP2 SLOAD ADD DUP1 DUP3 SSTORE DUP1 SWAP2 POP POP PUSH1 0x1 SWAP1 SUB SWAP1 PUSH1 0x0 MSTORE PUSH1 0x20 PUSH1 0x0 KECCAK256 ADD PUSH1 0x0 SWAP1 SWAP2 SWAP1 SWAP2 SWAP1 SWAP2 POP SSTORE POP JUMP JUMPDEST DUP1 PUSH1 0x6 LT DUP1 ISZERO PUSH2 0x4F7 JUMPI POP PUSH1 0xA PUSH1 0x1 SLOAD LT JUMPDEST ISZERO PUSH2 0x510 JUMPI PUSH1 0x3 DUP2 PUSH2 0x509 SWAP2 SWAP1 PUSH2 0xE30 JUMP JUMPDEST PUSH1 0x1 DUP2 SWAP1 SSTORE POP JUMPDEST POP JUMP JUMPDEST PUSH1 0x0 DUP2 DUP4 PUSH2 0x521 SWAP2 SWAP1 PUSH2 0xB89 JUMP JUMPDEST SWAP1 POP SWAP3 SWAP2 POP POP JUMP JUMPDEST PUSH1 0x0 DUP2 DUP4 PUSH2 0x537 SWAP2 SWAP1 PUSH2 0xE61 JUMP JUMPDEST SWAP1 POP SWAP3 SWAP2 POP POP JUMP JUMPDEST PUSH1 0x0 DUP1 DUP4 DUP5 PUSH2 0x54E SWAP2 SWAP1 PUSH2 0xDBF JUMP JUMPDEST DUP4 DUP5 PUSH2 0x55A SWAP2 SWAP1 PUSH2 0xDBF JUMP JUMPDEST SWAP2 POP SWAP2 POP SWAP3 POP SWAP3 SWAP1 POP JUMP JUMPDEST PUSH1 0x0 JUMPDEST PUSH1 0xA DUP2 LT ISZERO PUSH2 0x5AD JUMPI PUSH1 0x2 DUP2 SWAP1 DUP1 PUSH1 0x1 DUP2 SLOAD ADD DUP1 DUP3 SSTORE DUP1 SWAP2 POP POP PUSH1 0x1 SWAP1 SUB SWAP1 PUSH1 0x0 MSTORE PUSH1 0x20 PUSH1 0x0 KECCAK256 ADD PUSH1 0x0 SWAP1 SWAP2 SWAP1 SWAP2 SWAP1 SWAP2 POP SSTORE DUP1 DUP1 PUSH2 0x5A5 SWAP1 PUSH2 0xBBD JUMP JUMPDEST SWAP2 POP POP PUSH2 0x568 JUMP JUMPDEST POP JUMP JUMPDEST PUSH1 0x60 DUP2 SWAP1 POP SWAP2 SWAP1 POP JUMP JUMPDEST PUSH1 0x60 DUP2 PUSH1 0x0 LT DUP1 ISZERO PUSH2 0x5CC JUMPI POP PUSH1 0xB DUP3 LT JUMPDEST ISZERO PUSH2 0x60E JUMPI PUSH1 0x40 MLOAD DUP1 PUSH1 0x40 ADD PUSH1 0x40 MSTORE DUP1 PUSH1 0x1 DUP2 MSTORE PUSH1 0x20 ADD PUSH32 0x4100000000000000000000000000000000000000000000000000000000000000 DUP2 MSTORE POP SWAP1 POP PUSH2 0x6EB JUMP JUMPDEST DUP2 PUSH1 0xA LT DUP1 ISZERO PUSH2 0x61E JUMPI POP PUSH1 0x15 DUP3 LT JUMPDEST ISZERO PUSH2 0x660 JUMPI PUSH1 0x40 MLOAD DUP1 PUSH1 0x40 ADD PUSH1 0x40 MSTORE DUP1 PUSH1 0x1 DUP2 MSTORE PUSH1 0x20 ADD PUSH32 0x4200000000000000000000000000000000000000000000000000000000000000 DUP2 MSTORE POP SWAP1 POP PUSH2 0x6EB JUMP JUMPDEST DUP2 PUSH1 0x14 LT DUP1 ISZERO PUSH2 0x670 JUMPI POP PUSH1 0x1F DUP3 LT JUMPDEST ISZERO PUSH2 0x6B2 JUMPI PUSH1 0x40 MLOAD DUP1 PUSH1 0x40 ADD PUSH1 0x40 MSTORE DUP1 PUSH1 0x1 DUP2 MSTORE PUSH1 0x20 ADD PUSH32 0x4300000000000000000000000000000000000000000000000000000000000000 DUP2 MSTORE POP SWAP1 POP PUSH2 0x6EB JUMP JUMPDEST PUSH1 0x40 MLOAD DUP1 PUSH1 0x40 ADD PUSH1 0x40 MSTORE DUP1 PUSH1 0x1 DUP2 MSTORE PUSH1 0x20 ADD PUSH32 0x4400000000000000000000000000000000000000000000000000000000000000 DUP2 MSTORE POP SWAP1 POP JUMPDEST SWAP2 SWAP1 POP JUMP JUMPDEST DUP1 PUSH1 0x3 LT DUP1 ISZERO PUSH2 0x702 JUMPI POP PUSH1 0x7 PUSH1 0x1 SLOAD LT JUMPDEST ISZERO PUSH2 0x71B JUMPI PUSH1 0x2 DUP2 PUSH2 0x714 SWAP2 SWAP1 PUSH2 0xDBF JUMP JUMPDEST PUSH1 0x1 DUP2 SWAP1 SSTORE POP JUMPDEST POP JUMP JUMPDEST PUSH1 0x0 PUSH1 0x3 DUP3 DUP2 SLOAD DUP2 LT PUSH2 0x734 JUMPI PUSH2 0x733 PUSH2 0xB5A JUMP JUMPDEST JUMPDEST SWAP1 PUSH1 0x0 MSTORE PUSH1 0x20 PUSH1 0x0 KECCAK256 ADD SLOAD SWAP1 POP SWAP2 SWAP1 POP JUMP JUMPDEST PUSH1 0x0 PUSH1 0x40 MLOAD SWAP1 POP SWAP1 JUMP JUMPDEST PUSH1 0x0 DUP1 REVERT JUMPDEST PUSH1 0x0 DUP1 REVERT JUMPDEST PUSH1 0x0 DUP2 SWAP1 POP SWAP2 SWAP1 POP JUMP JUMPDEST PUSH2 0x76D DUP2 PUSH2 0x75A JUMP JUMPDEST DUP2 EQ PUSH2 0x778 JUMPI PUSH1 0x0 DUP1 REVERT JUMPDEST POP JUMP JUMPDEST PUSH1 0x0 DUP2 CALLDATALOAD SWAP1 POP PUSH2 0x78A DUP2 PUSH2 0x764 JUMP JUMPDEST SWAP3 SWAP2 POP POP JUMP JUMPDEST PUSH1 0x0 DUP1 PUSH1 0x40 DUP4 DUP6 SUB SLT ISZERO PUSH2 0x7A7 JUMPI PUSH2 0x7A6 PUSH2 0x750 JUMP JUMPDEST JUMPDEST PUSH1 0x0 PUSH2 0x7B5 DUP6 DUP3 DUP7 ADD PUSH2 0x77B JUMP JUMPDEST SWAP3 POP POP PUSH1 0x20 PUSH2 0x7C6 DUP6 DUP3 DUP7 ADD PUSH2 0x77B JUMP JUMPDEST SWAP2 POP POP SWAP3 POP SWAP3 SWAP1 POP JUMP JUMPDEST PUSH2 0x7D9 DUP2 PUSH2 0x75A JUMP JUMPDEST DUP3 MSTORE POP POP JUMP JUMPDEST PUSH1 0x0 PUSH1 0x20 DUP3 ADD SWAP1 POP PUSH2 0x7F4 PUSH1 0x0 DUP4 ADD DUP5 PUSH2 0x7D0 JUMP JUMPDEST SWAP3 SWAP2 POP POP JUMP JUMPDEST PUSH1 0x0 PUSH1 0x20 DUP3 DUP5 SUB SLT ISZERO PUSH2 0x810 JUMPI PUSH2 0x80F PUSH2 0x750 JUMP JUMPDEST JUMPDEST PUSH1 0x0 PUSH2 0x81E DUP5 DUP3 DUP6 ADD PUSH2 0x77B JUMP JUMPDEST SWAP2 POP POP SWAP3 SWAP2 POP POP JUMP JUMPDEST PUSH1 0x0 PUSH1 0x40 DUP3 ADD SWAP1 POP PUSH2 0x83C PUSH1 0x0 DUP4 ADD DUP6 PUSH2 0x7D0 JUMP JUMPDEST PUSH2 0x849 PUSH1 0x20 DUP4 ADD DUP5 PUSH2 0x7D0 JUMP JUMPDEST SWAP4 SWAP3 POP POP POP JUMP JUMPDEST PUSH1 0x0 DUP1 REVERT JUMPDEST PUSH1 0x0 DUP1 REVERT JUMPDEST PUSH1 0x0 PUSH1 0x1F NOT PUSH1 0x1F DUP4 ADD AND SWAP1 POP SWAP2 SWAP1 POP JUMP JUMPDEST PUSH32 0x4E487B7100000000000000000000000000000000000000000000000000000000 PUSH1 0x0 MSTORE PUSH1 0x41 PUSH1 0x4 MSTORE PUSH1 0x24 PUSH1 0x0 REVERT JUMPDEST PUSH2 0x8A3 DUP3 PUSH2 0x85A JUMP JUMPDEST DUP2 ADD DUP2 DUP2 LT PUSH8 0xFFFFFFFFFFFFFFFF DUP3 GT OR ISZERO PUSH2 0x8C2 JUMPI PUSH2 0x8C1 PUSH2 0x86B JUMP JUMPDEST JUMPDEST DUP1 PUSH1 0x40 MSTORE POP POP POP JUMP JUMPDEST PUSH1 0x0 PUSH2 0x8D5 PUSH2 0x746 JUMP JUMPDEST SWAP1 POP PUSH2 0x8E1 DUP3 DUP3 PUSH2 0x89A JUMP JUMPDEST SWAP2 SWAP1 POP JUMP JUMPDEST PUSH1 0x0 PUSH8 0xFFFFFFFFFFFFFFFF DUP3 GT ISZERO PUSH2 0x901 JUMPI PUSH2 0x900 PUSH2 0x86B JUMP JUMPDEST JUMPDEST PUSH2 0x90A DUP3 PUSH2 0x85A JUMP JUMPDEST SWAP1 POP PUSH1 0x20 DUP2 ADD SWAP1 POP SWAP2 SWAP1 POP JUMP JUMPDEST DUP3 DUP2 DUP4 CALLDATACOPY PUSH1 0x0 DUP4 DUP4 ADD MSTORE POP POP POP JUMP JUMPDEST PUSH1 0x0 PUSH2 0x939 PUSH2 0x934 DUP5 PUSH2 0x8E6 JUMP JUMPDEST PUSH2 0x8CB JUMP JUMPDEST SWAP1 POP DUP3 DUP2 MSTORE PUSH1 0x20 DUP2 ADD DUP5 DUP5 DUP5 ADD GT ISZERO PUSH2 0x955 JUMPI PUSH2 0x954 PUSH2 0x855 JUMP JUMPDEST JUMPDEST PUSH2 0x960 DUP5 DUP3 DUP6 PUSH2 0x917 JUMP JUMPDEST POP SWAP4 SWAP3 POP POP POP JUMP JUMPDEST PUSH1 0x0 DUP3 PUSH1 0x1F DUP4 ADD SLT PUSH2 0x97D JUMPI PUSH2 0x97C PUSH2 0x850 JUMP JUMPDEST JUMPDEST DUP2 CALLDATALOAD PUSH2 0x98D DUP5 DUP3 PUSH1 0x20 DUP7 ADD PUSH2 0x926 JUMP JUMPDEST SWAP2 POP POP SWAP3 SWAP2 POP POP JUMP JUMPDEST PUSH1 0x0 PUSH1 0x20 DUP3 DUP5 SUB SLT ISZERO PUSH2 0x9AC JUMPI PUSH2 0x9AB PUSH2 0x750 JUMP JUMPDEST JUMPDEST PUSH1 0x0 DUP3 ADD CALLDATALOAD PUSH8 0xFFFFFFFFFFFFFFFF DUP2 GT ISZERO PUSH2 0x9CA JUMPI PUSH2 0x9C9 PUSH2 0x755 JUMP JUMPDEST JUMPDEST PUSH2 0x9D6 DUP5 DUP3 DUP6 ADD PUSH2 0x968 JUMP JUMPDEST SWAP2 POP POP SWAP3 SWAP2 POP POP JUMP JUMPDEST PUSH1 0x0 DUP2 MLOAD SWAP1 POP SWAP2 SWAP1 POP JUMP JUMPDEST PUSH1 0x0 DUP3 DUP3 MSTORE PUSH1 0x20 DUP3 ADD SWAP1 POP SWAP3 SWAP2 POP POP JUMP JUMPDEST PUSH1 0x0 JUMPDEST DUP4 DUP2 LT ISZERO PUSH2 0xA19 JUMPI DUP1 DUP3 ADD MLOAD DUP2 DUP5 ADD MSTORE PUSH1 0x20 DUP2 ADD SWAP1 POP PUSH2 0x9FE JUMP JUMPDEST PUSH1 0x0 DUP5 DUP5 ADD MSTORE POP POP POP POP JUMP JUMPDEST PUSH1 0x0 PUSH2 0xA30 DUP3 PUSH2 0x9DF JUMP JUMPDEST PUSH2 0xA3A DUP2 DUP6 PUSH2 0x9EA JUMP JUMPDEST SWAP4 POP PUSH2 0xA4A DUP2 DUP6 PUSH1 0x20 DUP7 ADD PUSH2 0x9FB JUMP JUMPDEST PUSH2 0xA53 DUP2 PUSH2 0x85A JUMP JUMPDEST DUP5 ADD SWAP2 POP POP SWAP3 SWAP2 POP POP JUMP JUMPDEST PUSH1 0x0 PUSH1 0x20 DUP3 ADD SWAP1 POP DUP2 DUP2 SUB PUSH1 0x0 DUP4 ADD MSTORE PUSH2 0xA78 DUP2 DUP5 PUSH2 0xA25 JUMP JUMPDEST SWAP1 POP SWAP3 SWAP2 POP POP JUMP JUMPDEST PUSH1 0x0 DUP2 MLOAD SWAP1 POP SWAP2 SWAP1 POP JUMP JUMPDEST PUSH1 0x0 DUP3 DUP3 MSTORE PUSH1 0x20 DUP3 ADD SWAP1 POP SWAP3 SWAP2 POP POP JUMP JUMPDEST PUSH1 0x0 PUSH2 0xAA7 DUP3 PUSH2 0xA80 JUMP JUMPDEST PUSH2 0xAB1 DUP2 DUP6 PUSH2 0xA8B JUMP JUMPDEST SWAP4 POP PUSH2 0xAC1 DUP2 DUP6 PUSH1 0x20 DUP7 ADD PUSH2 0x9FB JUMP JUMPDEST PUSH2 0xACA DUP2 PUSH2 0x85A JUMP JUMPDEST DUP5 ADD SWAP2 POP POP SWAP3 SWAP2 POP POP JUMP JUMPDEST PUSH1 0x0 PUSH1 0x20 DUP3 ADD SWAP1 POP DUP2 DUP2 SUB PUSH1 0x0 DUP4 ADD MSTORE PUSH2 0xAEF DUP2 DUP5 PUSH2 0xA9C JUMP JUMPDEST SWAP1 POP SWAP3 SWAP2 POP POP JUMP JUMPDEST PUSH32 0x4E487B7100000000000000000000000000000000000000000000000000000000 PUSH1 0x0 MSTORE PUSH1 0x11 PUSH1 0x4 MSTORE PUSH1 0x24 PUSH1 0x0 REVERT JUMPDEST PUSH1 0x0 PUSH2 0xB31 DUP3 PUSH2 0x75A JUMP JUMPDEST SWAP2 POP PUSH2 0xB3C DUP4 PUSH2 0x75A JUMP JUMPDEST SWAP3 POP DUP3 DUP3 SUB SWAP1 POP DUP2 DUP2 GT ISZERO PUSH2 0xB54 JUMPI PUSH2 0xB53 PUSH2 0xAF7 JUMP JUMPDEST JUMPDEST SWAP3 SWAP2 POP POP JUMP JUMPDEST PUSH32 0x4E487B7100000000000000000000000000000000000000000000000000000000 PUSH1 0x0 MSTORE PUSH1 0x32 PUSH1 0x4 MSTORE PUSH1 0x24 PUSH1 0x0 REVERT JUMPDEST PUSH1 0x0 PUSH2 0xB94 DUP3 PUSH2 0x75A JUMP JUMPDEST SWAP2 POP PUSH2 0xB9F DUP4 PUSH2 0x75A JUMP JUMPDEST SWAP3 POP DUP3 DUP3 ADD SWAP1 POP DUP1 DUP3 GT ISZERO PUSH2 0xBB7 JUMPI PUSH2 0xBB6 PUSH2 0xAF7 JUMP JUMPDEST JUMPDEST SWAP3 SWAP2 POP POP JUMP JUMPDEST PUSH1 0x0 PUSH2 0xBC8 DUP3 PUSH2 0x75A JUMP JUMPDEST SWAP2 POP PUSH32 0xFFFFFFFFFFFFFFFFFFFFFFFFFFFFFFFFFFFFFFFFFFFFFFFFFFFFFFFFFFFFFFFF DUP3 SUB PUSH2 0xBFA JUMPI PUSH2 0xBF9 PUSH2 0xAF7 JUMP JUMPDEST JUMPDEST PUSH1 0x1 DUP3 ADD SWAP1 POP SWAP2 SWAP1 POP JUMP JUMPDEST PUSH1 0x0 DUP2 PUSH1 0x1 SHR SWAP1 POP SWAP2 SWAP1 POP JUMP JUMPDEST PUSH1 0x0 DUP1 DUP3 SWAP2 POP DUP4 SWAP1 POP JUMPDEST PUSH1 0x1 DUP6 GT ISZERO PUSH2 0xC5C JUMPI DUP1 DUP7 DIV DUP2 GT ISZERO PUSH2 0xC38 JUMPI PUSH2 0xC37 PUSH2 0xAF7 JUMP JUMPDEST JUMPDEST PUSH1 0x1 DUP6 AND ISZERO PUSH2 0xC47 JUMPI DUP1 DUP3 MUL SWAP2 POP JUMPDEST DUP1 DUP2 MUL SWAP1 POP PUSH2 0xC55 DUP6 PUSH2 0xC05 JUMP JUMPDEST SWAP5 POP PUSH2 0xC1C JUMP JUMPDEST SWAP5 POP SWAP5 SWAP3 POP POP POP JUMP JUMPDEST PUSH1 0x0 DUP3 PUSH2 0xC75 JUMPI PUSH1 0x1 SWAP1 POP PUSH2 0xD31 JUMP JUMPDEST DUP2 PUSH2 0xC83 JUMPI PUSH1 0x0 SWAP1 POP PUSH2 0xD31 JUMP JUMPDEST DUP2 PUSH1 0x1 DUP2 EQ PUSH2 0xC99 JUMPI PUSH1 0x2 DUP2 EQ PUSH2 0xCA3 JUMPI PUSH2 0xCD2 JUMP JUMPDEST PUSH1 0x1 SWAP2 POP POP PUSH2 0xD31 JUMP JUMPDEST PUSH1 0xFF DUP5 GT ISZERO PUSH2 0xCB5 JUMPI PUSH2 0xCB4 PUSH2 0xAF7 JUMP JUMPDEST JUMPDEST DUP4 PUSH1 0x2 EXP SWAP2 POP DUP5 DUP3 GT ISZERO PUSH2 0xCCC JUMPI PUSH2 0xCCB PUSH2 0xAF7 JUMP JUMPDEST JUMPDEST POP PUSH2 0xD31 JUMP JUMPDEST POP PUSH1 0x20 DUP4 LT PUSH2 0x133 DUP4 LT AND PUSH1 0x4E DUP5 LT PUSH1 0xB DUP5 LT AND OR ISZERO PUSH2 0xD07 JUMPI DUP3 DUP3 EXP SWAP1 POP DUP4 DUP2 GT ISZERO PUSH2 0xD02 JUMPI PUSH2 0xD01 PUSH2 0xAF7 JUMP JUMPDEST JUMPDEST PUSH2 0xD31 JUMP JUMPDEST PUSH2 0xD14 DUP5 DUP5 DUP5 PUSH1 0x1 PUSH2 0xC12 JUMP JUMPDEST SWAP3 POP SWAP1 POP DUP2 DUP5 DIV DUP2 GT ISZERO PUSH2 0xD2B JUMPI PUSH2 0xD2A PUSH2 0xAF7 JUMP JUMPDEST JUMPDEST DUP2 DUP2 MUL SWAP1 POP JUMPDEST SWAP4 SWAP3 POP POP POP JUMP JUMPDEST PUSH1 0x0 PUSH1 0xFF DUP3 AND SWAP1 POP SWAP2 SWAP1 POP JUMP JUMPDEST PUSH1 0x0 PUSH2 0xD50 DUP3 PUSH2 0x75A JUMP JUMPDEST SWAP2 POP PUSH2 0xD5B DUP4 PUSH2 0xD38 JUMP JUMPDEST SWAP3 POP PUSH2 0xD88 PUSH32 0xFFFFFFFFFFFFFFFFFFFFFFFFFFFFFFFFFFFFFFFFFFFFFFFFFFFFFFFFFFFFFFFF DUP5 DUP5 PUSH2 0xC65 JUMP JUMPDEST SWAP1 POP SWAP3 SWAP2 POP POP JUMP JUMPDEST PUSH32 0x4E487B7100000000000000000000000000000000000000000000000000000000 PUSH1 0x0 MSTORE PUSH1 0x31 PUSH1 0x4 MSTORE PUSH1 0x24 PUSH1 0x0 REVERT JUMPDEST PUSH1 0x0 PUSH2 0xDCA DUP3 PUSH2 0x75A JUMP JUMPDEST SWAP2 POP PUSH2 0xDD5 DUP4 PUSH2 0x75A JUMP JUMPDEST SWAP3 POP DUP3 DUP3 MUL PUSH2 0xDE3 DUP2 PUSH2 0x75A JUMP JUMPDEST SWAP2 POP DUP3 DUP3 DIV DUP5 EQ DUP4 ISZERO OR PUSH2 0xDFA JUMPI PUSH2 0xDF9 PUSH2 0xAF7 JUMP JUMPDEST JUMPDEST POP SWAP3 SWAP2 POP POP JUMP JUMPDEST PUSH32 0x4E487B7100000000000000000000000000000000000000000000000000000000 PUSH1 0x0 MSTORE PUSH1 0x12 PUSH1 0x4 MSTORE PUSH1 0x24 PUSH1 0x0 REVERT JUMPDEST PUSH1 0x0 PUSH2 0xE3B DUP3 PUSH2 0x75A JUMP JUMPDEST SWAP2 POP PUSH2 0xE46 DUP4 PUSH2 0x75A JUMP JUMPDEST SWAP3 POP DUP3 PUSH2 0xE56 JUMPI PUSH2 0xE55 PUSH2 0xE01 JUMP JUMPDEST JUMPDEST DUP3 DUP3 MOD SWAP1 POP SWAP3 SWAP2 POP POP JUMP JUMPDEST PUSH1 0x0 PUSH2 0xE6C DUP3 PUSH2 0x75A JUMP JUMPDEST SWAP2 POP PUSH2 0xE77 DUP4 PUSH2 0x75A JUMP JUMPDEST SWAP3 POP DUP3 PUSH2 0xE87 JUMPI PUSH2 0xE86 PUSH2 0xE01 JUMP JUMPDEST JUMPDEST DUP3 DUP3 DIV SWAP1 POP SWAP3 SWAP2 POP POP JUMP INVALID LOG2 PUSH5 0x6970667358 0x22 SLT KECCAK256 0x5D RETURN SWAP12 0xC5 SWAP12 PUSH2 0x2721 PC 0xE1 SHR PUSH15 0xE7E9452A89B1DCA5F9631D6625E66B SAR CREATE2 0x27 CHAINID 0xBC PUSH5 0x736F6C6343 STOP ADDMOD SLT STOP CALLER "
				},
				"gasEstimates": {
					"creation": {
						"codeDepositCost": "756800",
						"executionCost": "792",
						"totalCost": "757592"
					},
					"external": {
						"Add(uint256,uint256)": "infinite",
						"Div(uint256,uint256)": "infinite",
						"Mul(uint256,uint256)": "infinite",
						"Sub(uint256,uint256)": "infinite",
						"double(uint256)": "infinite",
						"getNum(uint256)": "infinite",
						"getPop()": "29490",
						"getPush(uint256)": "46918",
						"getT()": "2483",
						"rest(uint256)": "infinite",
						"setABC(uint256)": "infinite",
						"setAdd()": "infinite",
						"setNum()": "infinite",
						"square(uint256,uint256)": "infinite",
						"square2(uint256)": "infinite",
						"stringtoBytes(string)": "infinite",
						"triple(uint256,uint256)": "infinite"
					}
				},
				"methodIdentifiers": {
					"Add(uint256,uint256)": "7afbe4f1",
					"Div(uint256,uint256)": "9a03fe1d",
					"Mul(uint256,uint256)": "60953744",
					"Sub(uint256,uint256)": "1ec9c2c0",
					"double(uint256)": "eee97206",
					"getNum(uint256)": "f3358ac4",
					"getPop()": "4ca19cd9",
					"getPush(uint256)": "6cbcea13",
					"getT()": "22554f34",
					"rest(uint256)": "6e8eb222",
					"setABC(uint256)": "e090dde7",
					"setAdd()": "22cc65c6",
					"setNum()": "ac3afa43",
					"square(uint256,uint256)": "ab78e68b",
					"square2(uint256)": "39da68e3",
					"stringtoBytes(string)": "c056b522",
					"triple(uint256,uint256)": "48d50799"
				}
			},
			"storageLayout": {
				"storage": [
					{
						"astId": 109,
						"contract": "contracts/0512/Quiz.sol:Quiz",
						"label": "students",
						"offset": 0,
						"slot": "0",
						"type": "t_array(t_struct(student)105_storage)dyn_storage"
					},
					{
						"astId": 111,
						"contract": "contracts/0512/Quiz.sol:Quiz",
						"label": "t",
						"offset": 0,
						"slot": "1",
						"type": "t_uint256"
					},
					{
						"astId": 188,
						"contract": "contracts/0512/Quiz.sol:Quiz",
						"label": "numbers",
						"offset": 0,
						"slot": "2",
						"type": "t_array(t_uint256)dyn_storage"
					},
					{
						"astId": 307,
						"contract": "contracts/0512/Quiz.sol:Quiz",
						"label": "numbers2",
						"offset": 0,
						"slot": "3",
						"type": "t_array(t_uint256)dyn_storage"
					}
				],
				"types": {
					"t_array(t_string_storage)dyn_storage": {
						"base": "t_string_storage",
						"encoding": "dynamic_array",
						"label": "string[]",
						"numberOfBytes": "32"
					},
					"t_array(t_struct(student)105_storage)dyn_storage": {
						"base": "t_struct(student)105_storage",
						"encoding": "dynamic_array",
						"label": "struct Quiz.student[]",
						"numberOfBytes": "32"
					},
					"t_array(t_uint256)dyn_storage": {
						"base": "t_uint256",
						"encoding": "dynamic_array",
						"label": "uint256[]",
						"numberOfBytes": "32"
					},
					"t_string_storage": {
						"encoding": "bytes",
						"label": "string",
						"numberOfBytes": "32"
					},
					"t_struct(student)105_storage": {
						"encoding": "inplace",
						"label": "struct Quiz.student",
						"members": [
							{
								"astId": 99,
								"contract": "contracts/0512/Quiz.sol:Quiz",
								"label": "name",
								"offset": 0,
								"slot": "0",
								"type": "t_string_storage"
							},
							{
								"astId": 101,
								"contract": "contracts/0512/Quiz.sol:Quiz",
								"label": "number",
								"offset": 0,
								"slot": "1",
								"type": "t_uint256"
							},
							{
								"astId": 104,
								"contract": "contracts/0512/Quiz.sol:Quiz",
								"label": "classes",
								"offset": 0,
								"slot": "2",
								"type": "t_array(t_string_storage)dyn_storage"
							}
						],
						"numberOfBytes": "96"
					},
					"t_uint256": {
						"encoding": "inplace",
						"label": "uint256",
						"numberOfBytes": "32"
					}
				}
			},
			"userdoc": {
				"kind": "user",
				"methods": {},
				"version": 1
			}
		}
	}
}