{
	"contracts/0512/Quiz2.sol": {
		"Solution": {
			"abi": [
				{
					"inputs": [
						{
							"internalType": "string",
							"name": "_ID",
							"type": "string"
						},
						{
							"internalType": "string",
							"name": "_PW",
							"type": "string"
						}
					],
					"name": "Login",
					"outputs": [
						{
							"internalType": "bool",
							"name": "",
							"type": "bool"
						}
					],
					"stateMutability": "nonpayable",
					"type": "function"
				},
				{
					"inputs": [
						{
							"internalType": "string",
							"name": "_ID",
							"type": "string"
						}
					],
					"name": "Login2",
					"outputs": [
						{
							"internalType": "bytes32",
							"name": "",
							"type": "bytes32"
						}
					],
					"stateMutability": "view",
					"type": "function"
				},
				{
					"inputs": [
						{
							"internalType": "string",
							"name": "_ID",
							"type": "string"
						},
						{
							"internalType": "string",
							"name": "_PW",
							"type": "string"
						}
					],
					"name": "SignIn",
					"outputs": [],
					"stateMutability": "nonpayable",
					"type": "function"
				},
				{
					"inputs": [
						{
							"internalType": "string",
							"name": "_ID",
							"type": "string"
						},
						{
							"internalType": "string",
							"name": "_PW",
							"type": "string"
						}
					],
					"name": "getHash",
					"outputs": [
						{
							"internalType": "bytes32",
							"name": "",
							"type": "bytes32"
						}
					],
					"stateMutability": "pure",
					"type": "function"
				},
				{
					"inputs": [
						{
							"internalType": "string",
							"name": "_ID",
							"type": "string"
						},
						{
							"internalType": "string",
							"name": "_PW",
							"type": "string"
						}
					],
					"name": "singOut",
					"outputs": [],
					"stateMutability": "nonpayable",
					"type": "function"
				}
			],
			"devdoc": {
				"kind": "dev",
				"methods": {},
				"version": 1
			},
			"evm": {
				"assembly": "    /* \"contracts/0512/Quiz2.sol\":802:4439  contract Solution {... */\n  mstore(0x40, 0x80)\n  callvalue\n  dup1\n  iszero\n  tag_1\n  jumpi\n  0x00\n  dup1\n  revert\ntag_1:\n  pop\n  dataSize(sub_0)\n  dup1\n  dataOffset(sub_0)\n  0x00\n  codecopy\n  0x00\n  return\nstop\n\nsub_0: assembly {\n        /* \"contracts/0512/Quiz2.sol\":802:4439  contract Solution {... */\n      mstore(0x40, 0x80)\n      callvalue\n      dup1\n      iszero\n      tag_1\n      jumpi\n      0x00\n      dup1\n      revert\n    tag_1:\n      pop\n      jumpi(tag_2, lt(calldatasize, 0x04))\n      shr(0xe0, calldataload(0x00))\n      dup1\n      0x1fe96526\n      eq\n      tag_3\n      jumpi\n      dup1\n      0x27cf399a\n      eq\n      tag_4\n      jumpi\n      dup1\n      0x2c3f5a2f\n      eq\n      tag_5\n      jumpi\n      dup1\n      0x3c4dd143\n      eq\n      tag_6\n      jumpi\n      dup1\n      0xccef4218\n      eq\n      tag_7\n      jumpi\n    tag_2:\n      0x00\n      dup1\n      revert\n        /* \"contracts/0512/Quiz2.sol\":3905:4288  function singOut(string memory _ID, string memory _PW) public {... */\n    tag_3:\n      tag_8\n      0x04\n      dup1\n      calldatasize\n      sub\n      dup2\n      add\n      swap1\n      tag_9\n      swap2\n      swap1\n      tag_10\n      jump\t// in\n    tag_9:\n      tag_11\n      jump\t// in\n    tag_8:\n      stop\n        /* \"contracts/0512/Quiz2.sol\":2297:2444  function getHash(string memory _ID, string memory _PW) public pure returns(bytes32) {... */\n    tag_4:\n      tag_12\n      0x04\n      dup1\n      calldatasize\n      sub\n      dup2\n      add\n      swap1\n      tag_13\n      swap2\n      swap1\n      tag_10\n      jump\t// in\n    tag_13:\n      tag_14\n      jump\t// in\n    tag_12:\n      mload(0x40)\n      tag_15\n      swap2\n      swap1\n      tag_16\n      jump\t// in\n    tag_15:\n      mload(0x40)\n      dup1\n      swap2\n      sub\n      swap1\n      return\n        /* \"contracts/0512/Quiz2.sol\":3070:3175  function Login2(string memory _ID) public view returns(bytes32) {... */\n    tag_5:\n      tag_17\n      0x04\n      dup1\n      calldatasize\n      sub\n      dup2\n      add\n      swap1\n      tag_18\n      swap2\n      swap1\n      tag_19\n      jump\t// in\n    tag_18:\n      tag_20\n      jump\t// in\n    tag_17:\n      mload(0x40)\n      tag_21\n      swap2\n      swap1\n      tag_16\n      jump\t// in\n    tag_21:\n      mload(0x40)\n      dup1\n      swap2\n      sub\n      swap1\n      return\n        /* \"contracts/0512/Quiz2.sol\":3258:3770  function SignIn(string memory _ID, string memory _PW) public {... */\n    tag_6:\n      tag_22\n      0x04\n      dup1\n      calldatasize\n      sub\n      dup2\n      add\n      swap1\n      tag_23\n      swap2\n      swap1\n      tag_10\n      jump\t// in\n    tag_23:\n      tag_24\n      jump\t// in\n    tag_22:\n      stop\n        /* \"contracts/0512/Quiz2.sol\":2542:3064  function Login(string memory _ID, string memory _PW) public  returns (bool){... */\n    tag_7:\n      tag_25\n      0x04\n      dup1\n      calldatasize\n      sub\n      dup2\n      add\n      swap1\n      tag_26\n      swap2\n      swap1\n      tag_10\n      jump\t// in\n    tag_26:\n      tag_27\n      jump\t// in\n    tag_25:\n      mload(0x40)\n      tag_28\n      swap2\n      swap1\n      tag_29\n      jump\t// in\n    tag_28:\n      mload(0x40)\n      dup1\n      swap2\n      sub\n      swap1\n      return\n        /* \"contracts/0512/Quiz2.sol\":3905:4288  function singOut(string memory _ID, string memory _PW) public {... */\n    tag_11:\n        /* \"contracts/0512/Quiz2.sol\":4234:4251  getHash(_ID, _PW) */\n      tag_31\n        /* \"contracts/0512/Quiz2.sol\":4242:4245  _ID */\n      dup3\n        /* \"contracts/0512/Quiz2.sol\":4247:4250  _PW */\n      dup3\n        /* \"contracts/0512/Quiz2.sol\":4234:4241  getHash */\n      tag_14\n        /* \"contracts/0512/Quiz2.sol\":4234:4251  getHash(_ID, _PW) */\n      jump\t// in\n    tag_31:\n        /* \"contracts/0512/Quiz2.sol\":4215:4220  ID_PW */\n      0x00\n        /* \"contracts/0512/Quiz2.sol\":4221:4224  _ID */\n      dup4\n        /* \"contracts/0512/Quiz2.sol\":4215:4225  ID_PW[_ID] */\n      mload(0x40)\n      tag_32\n      swap2\n      swap1\n      tag_33\n      jump\t// in\n    tag_32:\n      swap1\n      dup2\n      mstore\n      0x20\n      add\n      mload(0x40)\n      dup1\n      swap2\n      sub\n      swap1\n      keccak256\n        /* \"contracts/0512/Quiz2.sol\":4215:4230  ID_PW[_ID].hash */\n      0x00\n      add\n      sload\n        /* \"contracts/0512/Quiz2.sol\":4215:4251  ID_PW[_ID].hash == getHash(_ID, _PW) */\n      eq\n        /* \"contracts/0512/Quiz2.sol\":4206:4252  require (ID_PW[_ID].hash == getHash(_ID, _PW)) */\n      tag_34\n      jumpi\n      0x00\n      dup1\n      revert\n    tag_34:\n        /* \"contracts/0512/Quiz2.sol\":4270:4275  ID_PW */\n      0x00\n        /* \"contracts/0512/Quiz2.sol\":4276:4279  _ID */\n      dup3\n        /* \"contracts/0512/Quiz2.sol\":4270:4280  ID_PW[_ID] */\n      mload(0x40)\n      tag_35\n      swap2\n      swap1\n      tag_33\n      jump\t// in\n    tag_35:\n      swap1\n      dup2\n      mstore\n      0x20\n      add\n      mload(0x40)\n      dup1\n      swap2\n      sub\n      swap1\n      keccak256\n      0x00\n        /* \"contracts/0512/Quiz2.sol\":4263:4280  delete ID_PW[_ID] */\n      dup1\n      dup3\n      add\n      0x00\n      swap1\n      sstore\n      0x01\n      dup3\n      add\n      0x00\n      swap1\n      sstore\n      pop\n      pop\n        /* \"contracts/0512/Quiz2.sol\":3905:4288  function singOut(string memory _ID, string memory _PW) public {... */\n      pop\n      pop\n      jump\t// out\n        /* \"contracts/0512/Quiz2.sol\":2297:2444  function getHash(string memory _ID, string memory _PW) public pure returns(bytes32) {... */\n    tag_14:\n        /* \"contracts/0512/Quiz2.sol\":2372:2379  bytes32 */\n      0x00\n        /* \"contracts/0512/Quiz2.sol\":2426:2429  _ID */\n      dup3\n        /* \"contracts/0512/Quiz2.sol\":2431:2434  _PW */\n      dup3\n        /* \"contracts/0512/Quiz2.sol\":2409:2435  abi.encodePacked(_ID, _PW) */\n      add(0x20, mload(0x40))\n      tag_37\n      swap3\n      swap2\n      swap1\n      tag_38\n      jump\t// in\n    tag_37:\n      mload(0x40)\n      0x20\n      dup2\n      dup4\n      sub\n      sub\n      dup2\n      mstore\n      swap1\n      0x40\n      mstore\n        /* \"contracts/0512/Quiz2.sol\":2399:2436  keccak256(abi.encodePacked(_ID, _PW)) */\n      dup1\n      mload\n      swap1\n      0x20\n      add\n      keccak256\n        /* \"contracts/0512/Quiz2.sol\":2392:2436  return keccak256(abi.encodePacked(_ID, _PW)) */\n      swap1\n      pop\n        /* \"contracts/0512/Quiz2.sol\":2297:2444  function getHash(string memory _ID, string memory _PW) public pure returns(bytes32) {... */\n      swap3\n      swap2\n      pop\n      pop\n      jump\t// out\n        /* \"contracts/0512/Quiz2.sol\":3070:3175  function Login2(string memory _ID) public view returns(bytes32) {... */\n    tag_20:\n        /* \"contracts/0512/Quiz2.sol\":3125:3132  bytes32 */\n      0x00\n        /* \"contracts/0512/Quiz2.sol\":3152:3157  ID_PW */\n      dup1\n        /* \"contracts/0512/Quiz2.sol\":3158:3161  _ID */\n      dup3\n        /* \"contracts/0512/Quiz2.sol\":3152:3162  ID_PW[_ID] */\n      mload(0x40)\n      tag_40\n      swap2\n      swap1\n      tag_33\n      jump\t// in\n    tag_40:\n      swap1\n      dup2\n      mstore\n      0x20\n      add\n      mload(0x40)\n      dup1\n      swap2\n      sub\n      swap1\n      keccak256\n        /* \"contracts/0512/Quiz2.sol\":3152:3167  ID_PW[_ID].hash */\n      0x00\n      add\n      sload\n        /* \"contracts/0512/Quiz2.sol\":3145:3167  return ID_PW[_ID].hash */\n      swap1\n      pop\n        /* \"contracts/0512/Quiz2.sol\":3070:3175  function Login2(string memory _ID) public view returns(bytes32) {... */\n      swap2\n      swap1\n      pop\n      jump\t// out\n        /* \"contracts/0512/Quiz2.sol\":3258:3770  function SignIn(string memory _ID, string memory _PW) public {... */\n    tag_24:\n        /* \"contracts/0512/Quiz2.sol\":3485:3551  0x0000000000000000000000000000000000000000000000000000000000000000 */\n      0x00\n        /* \"contracts/0512/Quiz2.sol\":3465:3551  ID_PW[_ID].hash ==  0x0000000000000000000000000000000000000000000000000000000000000000 */\n      dup1\n      shl\n        /* \"contracts/0512/Quiz2.sol\":3465:3470  ID_PW */\n      0x00\n        /* \"contracts/0512/Quiz2.sol\":3471:3474  _ID */\n      dup4\n        /* \"contracts/0512/Quiz2.sol\":3465:3475  ID_PW[_ID] */\n      mload(0x40)\n      tag_42\n      swap2\n      swap1\n      tag_33\n      jump\t// in\n    tag_42:\n      swap1\n      dup2\n      mstore\n      0x20\n      add\n      mload(0x40)\n      dup1\n      swap2\n      sub\n      swap1\n      keccak256\n        /* \"contracts/0512/Quiz2.sol\":3465:3480  ID_PW[_ID].hash */\n      0x00\n      add\n      sload\n        /* \"contracts/0512/Quiz2.sol\":3465:3551  ID_PW[_ID].hash ==  0x0000000000000000000000000000000000000000000000000000000000000000 */\n      eq\n        /* \"contracts/0512/Quiz2.sol\":3457:3589  require(ID_PW[_ID].hash ==  0x0000000000000000000000000000000000000000000000000000000000000000, \"provided ID is already being used\") */\n      tag_43\n      jumpi\n      mload(0x40)\n      0x08c379a000000000000000000000000000000000000000000000000000000000\n      dup2\n      mstore\n      0x04\n      add\n      tag_44\n      swap1\n      tag_45\n      jump\t// in\n    tag_44:\n      mload(0x40)\n      dup1\n      swap2\n      sub\n      swap1\n      revert\n    tag_43:\n        /* \"contracts/0512/Quiz2.sol\":3753:3756  _ID */\n      dup2\n        /* \"contracts/0512/Quiz2.sol\":3757:3760  _PW */\n      dup2\n        /* \"contracts/0512/Quiz2.sol\":3736:3761  abi.encodePacked(_ID,_PW) */\n      add(0x20, mload(0x40))\n      tag_46\n      swap3\n      swap2\n      swap1\n      tag_38\n      jump\t// in\n    tag_46:\n      mload(0x40)\n      0x20\n      dup2\n      dup4\n      sub\n      sub\n      dup2\n      mstore\n      swap1\n      0x40\n      mstore\n        /* \"contracts/0512/Quiz2.sol\":3726:3762  keccak256(abi.encodePacked(_ID,_PW)) */\n      dup1\n      mload\n      swap1\n      0x20\n      add\n      keccak256\n        /* \"contracts/0512/Quiz2.sol\":3708:3713  ID_PW */\n      0x00\n        /* \"contracts/0512/Quiz2.sol\":3714:3717  _ID */\n      dup4\n        /* \"contracts/0512/Quiz2.sol\":3708:3718  ID_PW[_ID] */\n      mload(0x40)\n      tag_47\n      swap2\n      swap1\n      tag_33\n      jump\t// in\n    tag_47:\n      swap1\n      dup2\n      mstore\n      0x20\n      add\n      mload(0x40)\n      dup1\n      swap2\n      sub\n      swap1\n      keccak256\n        /* \"contracts/0512/Quiz2.sol\":3708:3723  ID_PW[_ID].hash */\n      0x00\n      add\n        /* \"contracts/0512/Quiz2.sol\":3708:3762  ID_PW[_ID].hash = keccak256(abi.encodePacked(_ID,_PW)) */\n      dup2\n      swap1\n      sstore\n      pop\n        /* \"contracts/0512/Quiz2.sol\":3258:3770  function SignIn(string memory _ID, string memory _PW) public {... */\n      pop\n      pop\n      jump\t// out\n        /* \"contracts/0512/Quiz2.sol\":2542:3064  function Login(string memory _ID, string memory _PW) public  returns (bool){... */\n    tag_27:\n        /* \"contracts/0512/Quiz2.sol\":2612:2616  bool */\n      0x00\n        /* \"contracts/0512/Quiz2.sol\":2727:2728  5 */\n      0x05\n        /* \"contracts/0512/Quiz2.sol\":2706:2711  ID_PW */\n      0x00\n        /* \"contracts/0512/Quiz2.sol\":2712:2715  _ID */\n      dup5\n        /* \"contracts/0512/Quiz2.sol\":2706:2716  ID_PW[_ID] */\n      mload(0x40)\n      tag_49\n      swap2\n      swap1\n      tag_33\n      jump\t// in\n    tag_49:\n      swap1\n      dup2\n      mstore\n      0x20\n      add\n      mload(0x40)\n      dup1\n      swap2\n      sub\n      swap1\n      keccak256\n        /* \"contracts/0512/Quiz2.sol\":2706:2725  ID_PW[_ID].attempts */\n      0x01\n      add\n      sload\n        /* \"contracts/0512/Quiz2.sol\":2706:2728  ID_PW[_ID].attempts <5 */\n      lt\n        /* \"contracts/0512/Quiz2.sol\":2698:2750  require(ID_PW[_ID].attempts <5, \"Too much attempts\") */\n      tag_50\n      jumpi\n      mload(0x40)\n      0x08c379a000000000000000000000000000000000000000000000000000000000\n      dup2\n      mstore\n      0x04\n      add\n      tag_51\n      swap1\n      tag_52\n      jump\t// in\n    tag_51:\n      mload(0x40)\n      dup1\n      swap2\n      sub\n      swap1\n      revert\n    tag_50:\n        /* \"contracts/0512/Quiz2.sol\":2810:2813  _ID */\n      dup3\n        /* \"contracts/0512/Quiz2.sol\":2815:2818  _PW */\n      dup3\n        /* \"contracts/0512/Quiz2.sol\":2793:2819  abi.encodePacked(_ID, _PW) */\n      add(0x20, mload(0x40))\n      tag_53\n      swap3\n      swap2\n      swap1\n      tag_38\n      jump\t// in\n    tag_53:\n      mload(0x40)\n      0x20\n      dup2\n      dup4\n      sub\n      sub\n      dup2\n      mstore\n      swap1\n      0x40\n      mstore\n        /* \"contracts/0512/Quiz2.sol\":2783:2820  keccak256(abi.encodePacked(_ID, _PW)) */\n      dup1\n      mload\n      swap1\n      0x20\n      add\n      keccak256\n        /* \"contracts/0512/Quiz2.sol\":2764:2769  ID_PW */\n      0x00\n        /* \"contracts/0512/Quiz2.sol\":2770:2773  _ID */\n      dup5\n        /* \"contracts/0512/Quiz2.sol\":2764:2774  ID_PW[_ID] */\n      mload(0x40)\n      tag_54\n      swap2\n      swap1\n      tag_33\n      jump\t// in\n    tag_54:\n      swap1\n      dup2\n      mstore\n      0x20\n      add\n      mload(0x40)\n      dup1\n      swap2\n      sub\n      swap1\n      keccak256\n        /* \"contracts/0512/Quiz2.sol\":2764:2779  ID_PW[_ID].hash */\n      0x00\n      add\n      sload\n        /* \"contracts/0512/Quiz2.sol\":2764:2820  ID_PW[_ID].hash == keccak256(abi.encodePacked(_ID, _PW)) */\n      sub\n        /* \"contracts/0512/Quiz2.sol\":2761:2986  if(ID_PW[_ID].hash == keccak256(abi.encodePacked(_ID, _PW))){... */\n      tag_55\n      jumpi\n        /* \"contracts/0512/Quiz2.sol\":2858:2859  0 */\n      0x00\n        /* \"contracts/0512/Quiz2.sol\":2836:2841  ID_PW */\n      dup1\n        /* \"contracts/0512/Quiz2.sol\":2842:2845  _ID */\n      dup5\n        /* \"contracts/0512/Quiz2.sol\":2836:2846  ID_PW[_ID] */\n      mload(0x40)\n      tag_56\n      swap2\n      swap1\n      tag_33\n      jump\t// in\n    tag_56:\n      swap1\n      dup2\n      mstore\n      0x20\n      add\n      mload(0x40)\n      dup1\n      swap2\n      sub\n      swap1\n      keccak256\n        /* \"contracts/0512/Quiz2.sol\":2836:2855  ID_PW[_ID].attempts */\n      0x01\n      add\n        /* \"contracts/0512/Quiz2.sol\":2836:2859  ID_PW[_ID].attempts = 0 */\n      dup2\n      swap1\n      sstore\n      pop\n        /* \"contracts/0512/Quiz2.sol\":2881:2885  true */\n      0x01\n        /* \"contracts/0512/Quiz2.sol\":2874:2885  return true */\n      swap1\n      pop\n      jump(tag_48)\n        /* \"contracts/0512/Quiz2.sol\":2761:2986  if(ID_PW[_ID].hash == keccak256(abi.encodePacked(_ID, _PW))){... */\n    tag_55:\n        /* \"contracts/0512/Quiz2.sol\":2926:2931  ID_PW */\n      0x00\n        /* \"contracts/0512/Quiz2.sol\":2932:2935  _ID */\n      dup4\n        /* \"contracts/0512/Quiz2.sol\":2926:2936  ID_PW[_ID] */\n      mload(0x40)\n      tag_58\n      swap2\n      swap1\n      tag_33\n      jump\t// in\n    tag_58:\n      swap1\n      dup2\n      mstore\n      0x20\n      add\n      mload(0x40)\n      dup1\n      swap2\n      sub\n      swap1\n      keccak256\n        /* \"contracts/0512/Quiz2.sol\":2926:2945  ID_PW[_ID].attempts */\n      0x01\n      add\n      0x00\n        /* \"contracts/0512/Quiz2.sol\":2926:2947  ID_PW[_ID].attempts++ */\n      dup2\n      sload\n      dup1\n      swap3\n      swap2\n      swap1\n      tag_59\n      swap1\n      tag_60\n      jump\t// in\n    tag_59:\n      swap2\n      swap1\n      pop\n      sstore\n      pop\n        /* \"contracts/0512/Quiz2.sol\":2969:2974  false */\n      0x00\n        /* \"contracts/0512/Quiz2.sol\":2962:2974  return false */\n      swap1\n      pop\n        /* \"contracts/0512/Quiz2.sol\":2542:3064  function Login(string memory _ID, string memory _PW) public  returns (bool){... */\n    tag_48:\n      swap3\n      swap2\n      pop\n      pop\n      jump\t// out\n        /* \"#utility.yul\":7:82   */\n    tag_61:\n        /* \"#utility.yul\":40:46   */\n      0x00\n        /* \"#utility.yul\":73:75   */\n      0x40\n        /* \"#utility.yul\":67:76   */\n      mload\n        /* \"#utility.yul\":57:76   */\n      swap1\n      pop\n        /* \"#utility.yul\":7:82   */\n      swap1\n      jump\t// out\n        /* \"#utility.yul\":88:205   */\n    tag_62:\n        /* \"#utility.yul\":197:198   */\n      0x00\n        /* \"#utility.yul\":194:195   */\n      dup1\n        /* \"#utility.yul\":187:199   */\n      revert\n        /* \"#utility.yul\":211:328   */\n    tag_63:\n        /* \"#utility.yul\":320:321   */\n      0x00\n        /* \"#utility.yul\":317:318   */\n      dup1\n        /* \"#utility.yul\":310:322   */\n      revert\n        /* \"#utility.yul\":334:451   */\n    tag_64:\n        /* \"#utility.yul\":443:444   */\n      0x00\n        /* \"#utility.yul\":440:441   */\n      dup1\n        /* \"#utility.yul\":433:445   */\n      revert\n        /* \"#utility.yul\":457:574   */\n    tag_65:\n        /* \"#utility.yul\":566:567   */\n      0x00\n        /* \"#utility.yul\":563:564   */\n      dup1\n        /* \"#utility.yul\":556:568   */\n      revert\n        /* \"#utility.yul\":580:682   */\n    tag_66:\n        /* \"#utility.yul\":621:627   */\n      0x00\n        /* \"#utility.yul\":672:674   */\n      0x1f\n        /* \"#utility.yul\":668:675   */\n      not\n        /* \"#utility.yul\":663:665   */\n      0x1f\n        /* \"#utility.yul\":656:661   */\n      dup4\n        /* \"#utility.yul\":652:666   */\n      add\n        /* \"#utility.yul\":648:676   */\n      and\n        /* \"#utility.yul\":638:676   */\n      swap1\n      pop\n        /* \"#utility.yul\":580:682   */\n      swap2\n      swap1\n      pop\n      jump\t// out\n        /* \"#utility.yul\":688:868   */\n    tag_67:\n        /* \"#utility.yul\":736:813   */\n      0x4e487b7100000000000000000000000000000000000000000000000000000000\n        /* \"#utility.yul\":733:734   */\n      0x00\n        /* \"#utility.yul\":726:814   */\n      mstore\n        /* \"#utility.yul\":833:837   */\n      0x41\n        /* \"#utility.yul\":830:831   */\n      0x04\n        /* \"#utility.yul\":823:838   */\n      mstore\n        /* \"#utility.yul\":857:861   */\n      0x24\n        /* \"#utility.yul\":854:855   */\n      0x00\n        /* \"#utility.yul\":847:862   */\n      revert\n        /* \"#utility.yul\":874:1155   */\n    tag_68:\n        /* \"#utility.yul\":957:984   */\n      tag_98\n        /* \"#utility.yul\":979:983   */\n      dup3\n        /* \"#utility.yul\":957:984   */\n      tag_66\n      jump\t// in\n    tag_98:\n        /* \"#utility.yul\":949:955   */\n      dup2\n        /* \"#utility.yul\":945:985   */\n      add\n        /* \"#utility.yul\":1087:1093   */\n      dup2\n        /* \"#utility.yul\":1075:1085   */\n      dup2\n        /* \"#utility.yul\":1072:1094   */\n      lt\n        /* \"#utility.yul\":1051:1069   */\n      0xffffffffffffffff\n        /* \"#utility.yul\":1039:1049   */\n      dup3\n        /* \"#utility.yul\":1036:1070   */\n      gt\n        /* \"#utility.yul\":1033:1095   */\n      or\n        /* \"#utility.yul\":1030:1118   */\n      iszero\n      tag_99\n      jumpi\n        /* \"#utility.yul\":1098:1116   */\n      tag_100\n      tag_67\n      jump\t// in\n    tag_100:\n        /* \"#utility.yul\":1030:1118   */\n    tag_99:\n        /* \"#utility.yul\":1138:1148   */\n      dup1\n        /* \"#utility.yul\":1134:1136   */\n      0x40\n        /* \"#utility.yul\":1127:1149   */\n      mstore\n        /* \"#utility.yul\":917:1155   */\n      pop\n        /* \"#utility.yul\":874:1155   */\n      pop\n      pop\n      jump\t// out\n        /* \"#utility.yul\":1161:1290   */\n    tag_69:\n        /* \"#utility.yul\":1195:1201   */\n      0x00\n        /* \"#utility.yul\":1222:1242   */\n      tag_102\n      tag_61\n      jump\t// in\n    tag_102:\n        /* \"#utility.yul\":1212:1242   */\n      swap1\n      pop\n        /* \"#utility.yul\":1251:1284   */\n      tag_103\n        /* \"#utility.yul\":1279:1283   */\n      dup3\n        /* \"#utility.yul\":1271:1277   */\n      dup3\n        /* \"#utility.yul\":1251:1284   */\n      tag_68\n      jump\t// in\n    tag_103:\n        /* \"#utility.yul\":1161:1290   */\n      swap2\n      swap1\n      pop\n      jump\t// out\n        /* \"#utility.yul\":1296:1604   */\n    tag_70:\n        /* \"#utility.yul\":1358:1362   */\n      0x00\n        /* \"#utility.yul\":1448:1466   */\n      0xffffffffffffffff\n        /* \"#utility.yul\":1440:1446   */\n      dup3\n        /* \"#utility.yul\":1437:1467   */\n      gt\n        /* \"#utility.yul\":1434:1490   */\n      iszero\n      tag_105\n      jumpi\n        /* \"#utility.yul\":1470:1488   */\n      tag_106\n      tag_67\n      jump\t// in\n    tag_106:\n        /* \"#utility.yul\":1434:1490   */\n    tag_105:\n        /* \"#utility.yul\":1508:1537   */\n      tag_107\n        /* \"#utility.yul\":1530:1536   */\n      dup3\n        /* \"#utility.yul\":1508:1537   */\n      tag_66\n      jump\t// in\n    tag_107:\n        /* \"#utility.yul\":1500:1537   */\n      swap1\n      pop\n        /* \"#utility.yul\":1592:1596   */\n      0x20\n        /* \"#utility.yul\":1586:1590   */\n      dup2\n        /* \"#utility.yul\":1582:1597   */\n      add\n        /* \"#utility.yul\":1574:1597   */\n      swap1\n      pop\n        /* \"#utility.yul\":1296:1604   */\n      swap2\n      swap1\n      pop\n      jump\t// out\n        /* \"#utility.yul\":1610:1756   */\n    tag_71:\n        /* \"#utility.yul\":1707:1713   */\n      dup3\n        /* \"#utility.yul\":1702:1705   */\n      dup2\n        /* \"#utility.yul\":1697:1700   */\n      dup4\n        /* \"#utility.yul\":1684:1714   */\n      calldatacopy\n        /* \"#utility.yul\":1748:1749   */\n      0x00\n        /* \"#utility.yul\":1739:1745   */\n      dup4\n        /* \"#utility.yul\":1734:1737   */\n      dup4\n        /* \"#utility.yul\":1730:1746   */\n      add\n        /* \"#utility.yul\":1723:1750   */\n      mstore\n        /* \"#utility.yul\":1610:1756   */\n      pop\n      pop\n      pop\n      jump\t// out\n        /* \"#utility.yul\":1762:2187   */\n    tag_72:\n        /* \"#utility.yul\":1840:1845   */\n      0x00\n        /* \"#utility.yul\":1865:1931   */\n      tag_110\n        /* \"#utility.yul\":1881:1930   */\n      tag_111\n        /* \"#utility.yul\":1923:1929   */\n      dup5\n        /* \"#utility.yul\":1881:1930   */\n      tag_70\n      jump\t// in\n    tag_111:\n        /* \"#utility.yul\":1865:1931   */\n      tag_69\n      jump\t// in\n    tag_110:\n        /* \"#utility.yul\":1856:1931   */\n      swap1\n      pop\n        /* \"#utility.yul\":1954:1960   */\n      dup3\n        /* \"#utility.yul\":1947:1952   */\n      dup2\n        /* \"#utility.yul\":1940:1961   */\n      mstore\n        /* \"#utility.yul\":1992:1996   */\n      0x20\n        /* \"#utility.yul\":1985:1990   */\n      dup2\n        /* \"#utility.yul\":1981:1997   */\n      add\n        /* \"#utility.yul\":2030:2033   */\n      dup5\n        /* \"#utility.yul\":2021:2027   */\n      dup5\n        /* \"#utility.yul\":2016:2019   */\n      dup5\n        /* \"#utility.yul\":2012:2028   */\n      add\n        /* \"#utility.yul\":2009:2034   */\n      gt\n        /* \"#utility.yul\":2006:2118   */\n      iszero\n      tag_112\n      jumpi\n        /* \"#utility.yul\":2037:2116   */\n      tag_113\n      tag_65\n      jump\t// in\n    tag_113:\n        /* \"#utility.yul\":2006:2118   */\n    tag_112:\n        /* \"#utility.yul\":2127:2181   */\n      tag_114\n        /* \"#utility.yul\":2174:2180   */\n      dup5\n        /* \"#utility.yul\":2169:2172   */\n      dup3\n        /* \"#utility.yul\":2164:2167   */\n      dup6\n        /* \"#utility.yul\":2127:2181   */\n      tag_71\n      jump\t// in\n    tag_114:\n        /* \"#utility.yul\":1846:2187   */\n      pop\n        /* \"#utility.yul\":1762:2187   */\n      swap4\n      swap3\n      pop\n      pop\n      pop\n      jump\t// out\n        /* \"#utility.yul\":2207:2547   */\n    tag_73:\n        /* \"#utility.yul\":2263:2268   */\n      0x00\n        /* \"#utility.yul\":2312:2315   */\n      dup3\n        /* \"#utility.yul\":2305:2309   */\n      0x1f\n        /* \"#utility.yul\":2297:2303   */\n      dup4\n        /* \"#utility.yul\":2293:2310   */\n      add\n        /* \"#utility.yul\":2289:2316   */\n      slt\n        /* \"#utility.yul\":2279:2401   */\n      tag_116\n      jumpi\n        /* \"#utility.yul\":2320:2399   */\n      tag_117\n      tag_64\n      jump\t// in\n    tag_117:\n        /* \"#utility.yul\":2279:2401   */\n    tag_116:\n        /* \"#utility.yul\":2437:2443   */\n      dup2\n        /* \"#utility.yul\":2424:2444   */\n      calldataload\n        /* \"#utility.yul\":2462:2541   */\n      tag_118\n        /* \"#utility.yul\":2537:2540   */\n      dup5\n        /* \"#utility.yul\":2529:2535   */\n      dup3\n        /* \"#utility.yul\":2522:2526   */\n      0x20\n        /* \"#utility.yul\":2514:2520   */\n      dup7\n        /* \"#utility.yul\":2510:2527   */\n      add\n        /* \"#utility.yul\":2462:2541   */\n      tag_72\n      jump\t// in\n    tag_118:\n        /* \"#utility.yul\":2453:2541   */\n      swap2\n      pop\n        /* \"#utility.yul\":2269:2547   */\n      pop\n        /* \"#utility.yul\":2207:2547   */\n      swap3\n      swap2\n      pop\n      pop\n      jump\t// out\n        /* \"#utility.yul\":2553:3387   */\n    tag_10:\n        /* \"#utility.yul\":2641:2647   */\n      0x00\n        /* \"#utility.yul\":2649:2655   */\n      dup1\n        /* \"#utility.yul\":2698:2700   */\n      0x40\n        /* \"#utility.yul\":2686:2695   */\n      dup4\n        /* \"#utility.yul\":2677:2684   */\n      dup6\n        /* \"#utility.yul\":2673:2696   */\n      sub\n        /* \"#utility.yul\":2669:2701   */\n      slt\n        /* \"#utility.yul\":2666:2785   */\n      iszero\n      tag_120\n      jumpi\n        /* \"#utility.yul\":2704:2783   */\n      tag_121\n      tag_62\n      jump\t// in\n    tag_121:\n        /* \"#utility.yul\":2666:2785   */\n    tag_120:\n        /* \"#utility.yul\":2852:2853   */\n      0x00\n        /* \"#utility.yul\":2841:2850   */\n      dup4\n        /* \"#utility.yul\":2837:2854   */\n      add\n        /* \"#utility.yul\":2824:2855   */\n      calldataload\n        /* \"#utility.yul\":2882:2900   */\n      0xffffffffffffffff\n        /* \"#utility.yul\":2874:2880   */\n      dup2\n        /* \"#utility.yul\":2871:2901   */\n      gt\n        /* \"#utility.yul\":2868:2985   */\n      iszero\n      tag_122\n      jumpi\n        /* \"#utility.yul\":2904:2983   */\n      tag_123\n      tag_63\n      jump\t// in\n    tag_123:\n        /* \"#utility.yul\":2868:2985   */\n    tag_122:\n        /* \"#utility.yul\":3009:3072   */\n      tag_124\n        /* \"#utility.yul\":3064:3071   */\n      dup6\n        /* \"#utility.yul\":3055:3061   */\n      dup3\n        /* \"#utility.yul\":3044:3053   */\n      dup7\n        /* \"#utility.yul\":3040:3062   */\n      add\n        /* \"#utility.yul\":3009:3072   */\n      tag_73\n      jump\t// in\n    tag_124:\n        /* \"#utility.yul\":2999:3072   */\n      swap3\n      pop\n        /* \"#utility.yul\":2795:3082   */\n      pop\n        /* \"#utility.yul\":3149:3151   */\n      0x20\n        /* \"#utility.yul\":3138:3147   */\n      dup4\n        /* \"#utility.yul\":3134:3152   */\n      add\n        /* \"#utility.yul\":3121:3153   */\n      calldataload\n        /* \"#utility.yul\":3180:3198   */\n      0xffffffffffffffff\n        /* \"#utility.yul\":3172:3178   */\n      dup2\n        /* \"#utility.yul\":3169:3199   */\n      gt\n        /* \"#utility.yul\":3166:3283   */\n      iszero\n      tag_125\n      jumpi\n        /* \"#utility.yul\":3202:3281   */\n      tag_126\n      tag_63\n      jump\t// in\n    tag_126:\n        /* \"#utility.yul\":3166:3283   */\n    tag_125:\n        /* \"#utility.yul\":3307:3370   */\n      tag_127\n        /* \"#utility.yul\":3362:3369   */\n      dup6\n        /* \"#utility.yul\":3353:3359   */\n      dup3\n        /* \"#utility.yul\":3342:3351   */\n      dup7\n        /* \"#utility.yul\":3338:3360   */\n      add\n        /* \"#utility.yul\":3307:3370   */\n      tag_73\n      jump\t// in\n    tag_127:\n        /* \"#utility.yul\":3297:3370   */\n      swap2\n      pop\n        /* \"#utility.yul\":3092:3380   */\n      pop\n        /* \"#utility.yul\":2553:3387   */\n      swap3\n      pop\n      swap3\n      swap1\n      pop\n      jump\t// out\n        /* \"#utility.yul\":3393:3470   */\n    tag_74:\n        /* \"#utility.yul\":3430:3437   */\n      0x00\n        /* \"#utility.yul\":3459:3464   */\n      dup2\n        /* \"#utility.yul\":3448:3464   */\n      swap1\n      pop\n        /* \"#utility.yul\":3393:3470   */\n      swap2\n      swap1\n      pop\n      jump\t// out\n        /* \"#utility.yul\":3476:3594   */\n    tag_75:\n        /* \"#utility.yul\":3563:3587   */\n      tag_130\n        /* \"#utility.yul\":3581:3586   */\n      dup2\n        /* \"#utility.yul\":3563:3587   */\n      tag_74\n      jump\t// in\n    tag_130:\n        /* \"#utility.yul\":3558:3561   */\n      dup3\n        /* \"#utility.yul\":3551:3588   */\n      mstore\n        /* \"#utility.yul\":3476:3594   */\n      pop\n      pop\n      jump\t// out\n        /* \"#utility.yul\":3600:3822   */\n    tag_16:\n        /* \"#utility.yul\":3693:3697   */\n      0x00\n        /* \"#utility.yul\":3731:3733   */\n      0x20\n        /* \"#utility.yul\":3720:3729   */\n      dup3\n        /* \"#utility.yul\":3716:3734   */\n      add\n        /* \"#utility.yul\":3708:3734   */\n      swap1\n      pop\n        /* \"#utility.yul\":3744:3815   */\n      tag_132\n        /* \"#utility.yul\":3812:3813   */\n      0x00\n        /* \"#utility.yul\":3801:3810   */\n      dup4\n        /* \"#utility.yul\":3797:3814   */\n      add\n        /* \"#utility.yul\":3788:3794   */\n      dup5\n        /* \"#utility.yul\":3744:3815   */\n      tag_75\n      jump\t// in\n    tag_132:\n        /* \"#utility.yul\":3600:3822   */\n      swap3\n      swap2\n      pop\n      pop\n      jump\t// out\n        /* \"#utility.yul\":3828:4337   */\n    tag_19:\n        /* \"#utility.yul\":3897:3903   */\n      0x00\n        /* \"#utility.yul\":3946:3948   */\n      0x20\n        /* \"#utility.yul\":3934:3943   */\n      dup3\n        /* \"#utility.yul\":3925:3932   */\n      dup5\n        /* \"#utility.yul\":3921:3944   */\n      sub\n        /* \"#utility.yul\":3917:3949   */\n      slt\n        /* \"#utility.yul\":3914:4033   */\n      iszero\n      tag_134\n      jumpi\n        /* \"#utility.yul\":3952:4031   */\n      tag_135\n      tag_62\n      jump\t// in\n    tag_135:\n        /* \"#utility.yul\":3914:4033   */\n    tag_134:\n        /* \"#utility.yul\":4100:4101   */\n      0x00\n        /* \"#utility.yul\":4089:4098   */\n      dup3\n        /* \"#utility.yul\":4085:4102   */\n      add\n        /* \"#utility.yul\":4072:4103   */\n      calldataload\n        /* \"#utility.yul\":4130:4148   */\n      0xffffffffffffffff\n        /* \"#utility.yul\":4122:4128   */\n      dup2\n        /* \"#utility.yul\":4119:4149   */\n      gt\n        /* \"#utility.yul\":4116:4233   */\n      iszero\n      tag_136\n      jumpi\n        /* \"#utility.yul\":4152:4231   */\n      tag_137\n      tag_63\n      jump\t// in\n    tag_137:\n        /* \"#utility.yul\":4116:4233   */\n    tag_136:\n        /* \"#utility.yul\":4257:4320   */\n      tag_138\n        /* \"#utility.yul\":4312:4319   */\n      dup5\n        /* \"#utility.yul\":4303:4309   */\n      dup3\n        /* \"#utility.yul\":4292:4301   */\n      dup6\n        /* \"#utility.yul\":4288:4310   */\n      add\n        /* \"#utility.yul\":4257:4320   */\n      tag_73\n      jump\t// in\n    tag_138:\n        /* \"#utility.yul\":4247:4320   */\n      swap2\n      pop\n        /* \"#utility.yul\":4043:4330   */\n      pop\n        /* \"#utility.yul\":3828:4337   */\n      swap3\n      swap2\n      pop\n      pop\n      jump\t// out\n        /* \"#utility.yul\":4343:4433   */\n    tag_76:\n        /* \"#utility.yul\":4377:4384   */\n      0x00\n        /* \"#utility.yul\":4420:4425   */\n      dup2\n        /* \"#utility.yul\":4413:4426   */\n      iszero\n        /* \"#utility.yul\":4406:4427   */\n      iszero\n        /* \"#utility.yul\":4395:4427   */\n      swap1\n      pop\n        /* \"#utility.yul\":4343:4433   */\n      swap2\n      swap1\n      pop\n      jump\t// out\n        /* \"#utility.yul\":4439:4548   */\n    tag_77:\n        /* \"#utility.yul\":4520:4541   */\n      tag_141\n        /* \"#utility.yul\":4535:4540   */\n      dup2\n        /* \"#utility.yul\":4520:4541   */\n      tag_76\n      jump\t// in\n    tag_141:\n        /* \"#utility.yul\":4515:4518   */\n      dup3\n        /* \"#utility.yul\":4508:4542   */\n      mstore\n        /* \"#utility.yul\":4439:4548   */\n      pop\n      pop\n      jump\t// out\n        /* \"#utility.yul\":4554:4764   */\n    tag_29:\n        /* \"#utility.yul\":4641:4645   */\n      0x00\n        /* \"#utility.yul\":4679:4681   */\n      0x20\n        /* \"#utility.yul\":4668:4677   */\n      dup3\n        /* \"#utility.yul\":4664:4682   */\n      add\n        /* \"#utility.yul\":4656:4682   */\n      swap1\n      pop\n        /* \"#utility.yul\":4692:4757   */\n      tag_143\n        /* \"#utility.yul\":4754:4755   */\n      0x00\n        /* \"#utility.yul\":4743:4752   */\n      dup4\n        /* \"#utility.yul\":4739:4756   */\n      add\n        /* \"#utility.yul\":4730:4736   */\n      dup5\n        /* \"#utility.yul\":4692:4757   */\n      tag_77\n      jump\t// in\n    tag_143:\n        /* \"#utility.yul\":4554:4764   */\n      swap3\n      swap2\n      pop\n      pop\n      jump\t// out\n        /* \"#utility.yul\":4770:4869   */\n    tag_78:\n        /* \"#utility.yul\":4822:4828   */\n      0x00\n        /* \"#utility.yul\":4856:4861   */\n      dup2\n        /* \"#utility.yul\":4850:4862   */\n      mload\n        /* \"#utility.yul\":4840:4862   */\n      swap1\n      pop\n        /* \"#utility.yul\":4770:4869   */\n      swap2\n      swap1\n      pop\n      jump\t// out\n        /* \"#utility.yul\":4875:5023   */\n    tag_79:\n        /* \"#utility.yul\":4977:4988   */\n      0x00\n        /* \"#utility.yul\":5014:5017   */\n      dup2\n        /* \"#utility.yul\":4999:5017   */\n      swap1\n      pop\n        /* \"#utility.yul\":4875:5023   */\n      swap3\n      swap2\n      pop\n      pop\n      jump\t// out\n        /* \"#utility.yul\":5029:5275   */\n    tag_80:\n        /* \"#utility.yul\":5110:5111   */\n      0x00\n        /* \"#utility.yul\":5120:5233   */\n    tag_147:\n        /* \"#utility.yul\":5134:5140   */\n      dup4\n        /* \"#utility.yul\":5131:5132   */\n      dup2\n        /* \"#utility.yul\":5128:5141   */\n      lt\n        /* \"#utility.yul\":5120:5233   */\n      iszero\n      tag_149\n      jumpi\n        /* \"#utility.yul\":5219:5220   */\n      dup1\n        /* \"#utility.yul\":5214:5217   */\n      dup3\n        /* \"#utility.yul\":5210:5221   */\n      add\n        /* \"#utility.yul\":5204:5222   */\n      mload\n        /* \"#utility.yul\":5200:5201   */\n      dup2\n        /* \"#utility.yul\":5195:5198   */\n      dup5\n        /* \"#utility.yul\":5191:5202   */\n      add\n        /* \"#utility.yul\":5184:5223   */\n      mstore\n        /* \"#utility.yul\":5156:5158   */\n      0x20\n        /* \"#utility.yul\":5153:5154   */\n      dup2\n        /* \"#utility.yul\":5149:5159   */\n      add\n        /* \"#utility.yul\":5144:5159   */\n      swap1\n      pop\n        /* \"#utility.yul\":5120:5233   */\n      jump(tag_147)\n    tag_149:\n        /* \"#utility.yul\":5267:5268   */\n      0x00\n        /* \"#utility.yul\":5258:5264   */\n      dup5\n        /* \"#utility.yul\":5253:5256   */\n      dup5\n        /* \"#utility.yul\":5249:5265   */\n      add\n        /* \"#utility.yul\":5242:5269   */\n      mstore\n        /* \"#utility.yul\":5091:5275   */\n      pop\n        /* \"#utility.yul\":5029:5275   */\n      pop\n      pop\n      pop\n      jump\t// out\n        /* \"#utility.yul\":5281:5671   */\n    tag_81:\n        /* \"#utility.yul\":5387:5390   */\n      0x00\n        /* \"#utility.yul\":5415:5454   */\n      tag_151\n        /* \"#utility.yul\":5448:5453   */\n      dup3\n        /* \"#utility.yul\":5415:5454   */\n      tag_78\n      jump\t// in\n    tag_151:\n        /* \"#utility.yul\":5470:5559   */\n      tag_152\n        /* \"#utility.yul\":5552:5558   */\n      dup2\n        /* \"#utility.yul\":5547:5550   */\n      dup6\n        /* \"#utility.yul\":5470:5559   */\n      tag_79\n      jump\t// in\n    tag_152:\n        /* \"#utility.yul\":5463:5559   */\n      swap4\n      pop\n        /* \"#utility.yul\":5568:5633   */\n      tag_153\n        /* \"#utility.yul\":5626:5632   */\n      dup2\n        /* \"#utility.yul\":5621:5624   */\n      dup6\n        /* \"#utility.yul\":5614:5618   */\n      0x20\n        /* \"#utility.yul\":5607:5612   */\n      dup7\n        /* \"#utility.yul\":5603:5619   */\n      add\n        /* \"#utility.yul\":5568:5633   */\n      tag_80\n      jump\t// in\n    tag_153:\n        /* \"#utility.yul\":5658:5664   */\n      dup1\n        /* \"#utility.yul\":5653:5656   */\n      dup5\n        /* \"#utility.yul\":5649:5665   */\n      add\n        /* \"#utility.yul\":5642:5665   */\n      swap2\n      pop\n        /* \"#utility.yul\":5391:5671   */\n      pop\n        /* \"#utility.yul\":5281:5671   */\n      swap3\n      swap2\n      pop\n      pop\n      jump\t// out\n        /* \"#utility.yul\":5677:5952   */\n    tag_33:\n        /* \"#utility.yul\":5809:5812   */\n      0x00\n        /* \"#utility.yul\":5831:5926   */\n      tag_155\n        /* \"#utility.yul\":5922:5925   */\n      dup3\n        /* \"#utility.yul\":5913:5919   */\n      dup5\n        /* \"#utility.yul\":5831:5926   */\n      tag_81\n      jump\t// in\n    tag_155:\n        /* \"#utility.yul\":5824:5926   */\n      swap2\n      pop\n        /* \"#utility.yul\":5943:5946   */\n      dup2\n        /* \"#utility.yul\":5936:5946   */\n      swap1\n      pop\n        /* \"#utility.yul\":5677:5952   */\n      swap3\n      swap2\n      pop\n      pop\n      jump\t// out\n        /* \"#utility.yul\":5958:6393   */\n    tag_38:\n        /* \"#utility.yul\":6138:6141   */\n      0x00\n        /* \"#utility.yul\":6160:6255   */\n      tag_157\n        /* \"#utility.yul\":6251:6254   */\n      dup3\n        /* \"#utility.yul\":6242:6248   */\n      dup6\n        /* \"#utility.yul\":6160:6255   */\n      tag_81\n      jump\t// in\n    tag_157:\n        /* \"#utility.yul\":6153:6255   */\n      swap2\n      pop\n        /* \"#utility.yul\":6272:6367   */\n      tag_158\n        /* \"#utility.yul\":6363:6366   */\n      dup3\n        /* \"#utility.yul\":6354:6360   */\n      dup5\n        /* \"#utility.yul\":6272:6367   */\n      tag_81\n      jump\t// in\n    tag_158:\n        /* \"#utility.yul\":6265:6367   */\n      swap2\n      pop\n        /* \"#utility.yul\":6384:6387   */\n      dup2\n        /* \"#utility.yul\":6377:6387   */\n      swap1\n      pop\n        /* \"#utility.yul\":5958:6393   */\n      swap4\n      swap3\n      pop\n      pop\n      pop\n      jump\t// out\n        /* \"#utility.yul\":6399:6568   */\n    tag_82:\n        /* \"#utility.yul\":6483:6494   */\n      0x00\n        /* \"#utility.yul\":6517:6523   */\n      dup3\n        /* \"#utility.yul\":6512:6515   */\n      dup3\n        /* \"#utility.yul\":6505:6524   */\n      mstore\n        /* \"#utility.yul\":6557:6561   */\n      0x20\n        /* \"#utility.yul\":6552:6555   */\n      dup3\n        /* \"#utility.yul\":6548:6562   */\n      add\n        /* \"#utility.yul\":6533:6562   */\n      swap1\n      pop\n        /* \"#utility.yul\":6399:6568   */\n      swap3\n      swap2\n      pop\n      pop\n      jump\t// out\n        /* \"#utility.yul\":6574:6794   */\n    tag_83:\n        /* \"#utility.yul\":6714:6748   */\n      0x70726f766964656420494420697320616c7265616479206265696e6720757365\n        /* \"#utility.yul\":6710:6711   */\n      0x00\n        /* \"#utility.yul\":6702:6708   */\n      dup3\n        /* \"#utility.yul\":6698:6712   */\n      add\n        /* \"#utility.yul\":6691:6749   */\n      mstore\n        /* \"#utility.yul\":6783:6786   */\n      0x6400000000000000000000000000000000000000000000000000000000000000\n        /* \"#utility.yul\":6778:6780   */\n      0x20\n        /* \"#utility.yul\":6770:6776   */\n      dup3\n        /* \"#utility.yul\":6766:6781   */\n      add\n        /* \"#utility.yul\":6759:6787   */\n      mstore\n        /* \"#utility.yul\":6574:6794   */\n      pop\n      jump\t// out\n        /* \"#utility.yul\":6800:7166   */\n    tag_84:\n        /* \"#utility.yul\":6942:6945   */\n      0x00\n        /* \"#utility.yul\":6963:7030   */\n      tag_162\n        /* \"#utility.yul\":7027:7029   */\n      0x21\n        /* \"#utility.yul\":7022:7025   */\n      dup4\n        /* \"#utility.yul\":6963:7030   */\n      tag_82\n      jump\t// in\n    tag_162:\n        /* \"#utility.yul\":6956:7030   */\n      swap2\n      pop\n        /* \"#utility.yul\":7039:7132   */\n      tag_163\n        /* \"#utility.yul\":7128:7131   */\n      dup3\n        /* \"#utility.yul\":7039:7132   */\n      tag_83\n      jump\t// in\n    tag_163:\n        /* \"#utility.yul\":7157:7159   */\n      0x40\n        /* \"#utility.yul\":7152:7155   */\n      dup3\n        /* \"#utility.yul\":7148:7160   */\n      add\n        /* \"#utility.yul\":7141:7160   */\n      swap1\n      pop\n        /* \"#utility.yul\":6800:7166   */\n      swap2\n      swap1\n      pop\n      jump\t// out\n        /* \"#utility.yul\":7172:7591   */\n    tag_45:\n        /* \"#utility.yul\":7338:7342   */\n      0x00\n        /* \"#utility.yul\":7376:7378   */\n      0x20\n        /* \"#utility.yul\":7365:7374   */\n      dup3\n        /* \"#utility.yul\":7361:7379   */\n      add\n        /* \"#utility.yul\":7353:7379   */\n      swap1\n      pop\n        /* \"#utility.yul\":7425:7434   */\n      dup2\n        /* \"#utility.yul\":7419:7423   */\n      dup2\n        /* \"#utility.yul\":7415:7435   */\n      sub\n        /* \"#utility.yul\":7411:7412   */\n      0x00\n        /* \"#utility.yul\":7400:7409   */\n      dup4\n        /* \"#utility.yul\":7396:7413   */\n      add\n        /* \"#utility.yul\":7389:7436   */\n      mstore\n        /* \"#utility.yul\":7453:7584   */\n      tag_165\n        /* \"#utility.yul\":7579:7583   */\n      dup2\n        /* \"#utility.yul\":7453:7584   */\n      tag_84\n      jump\t// in\n    tag_165:\n        /* \"#utility.yul\":7445:7584   */\n      swap1\n      pop\n        /* \"#utility.yul\":7172:7591   */\n      swap2\n      swap1\n      pop\n      jump\t// out\n        /* \"#utility.yul\":7597:7764   */\n    tag_85:\n        /* \"#utility.yul\":7737:7756   */\n      0x546f6f206d75636820617474656d707473000000000000000000000000000000\n        /* \"#utility.yul\":7733:7734   */\n      0x00\n        /* \"#utility.yul\":7725:7731   */\n      dup3\n        /* \"#utility.yul\":7721:7735   */\n      add\n        /* \"#utility.yul\":7714:7757   */\n      mstore\n        /* \"#utility.yul\":7597:7764   */\n      pop\n      jump\t// out\n        /* \"#utility.yul\":7770:8136   */\n    tag_86:\n        /* \"#utility.yul\":7912:7915   */\n      0x00\n        /* \"#utility.yul\":7933:8000   */\n      tag_168\n        /* \"#utility.yul\":7997:7999   */\n      0x11\n        /* \"#utility.yul\":7992:7995   */\n      dup4\n        /* \"#utility.yul\":7933:8000   */\n      tag_82\n      jump\t// in\n    tag_168:\n        /* \"#utility.yul\":7926:8000   */\n      swap2\n      pop\n        /* \"#utility.yul\":8009:8102   */\n      tag_169\n        /* \"#utility.yul\":8098:8101   */\n      dup3\n        /* \"#utility.yul\":8009:8102   */\n      tag_85\n      jump\t// in\n    tag_169:\n        /* \"#utility.yul\":8127:8129   */\n      0x20\n        /* \"#utility.yul\":8122:8125   */\n      dup3\n        /* \"#utility.yul\":8118:8130   */\n      add\n        /* \"#utility.yul\":8111:8130   */\n      swap1\n      pop\n        /* \"#utility.yul\":7770:8136   */\n      swap2\n      swap1\n      pop\n      jump\t// out\n        /* \"#utility.yul\":8142:8561   */\n    tag_52:\n        /* \"#utility.yul\":8308:8312   */\n      0x00\n        /* \"#utility.yul\":8346:8348   */\n      0x20\n        /* \"#utility.yul\":8335:8344   */\n      dup3\n        /* \"#utility.yul\":8331:8349   */\n      add\n        /* \"#utility.yul\":8323:8349   */\n      swap1\n      pop\n        /* \"#utility.yul\":8395:8404   */\n      dup2\n        /* \"#utility.yul\":8389:8393   */\n      dup2\n        /* \"#utility.yul\":8385:8405   */\n      sub\n        /* \"#utility.yul\":8381:8382   */\n      0x00\n        /* \"#utility.yul\":8370:8379   */\n      dup4\n        /* \"#utility.yul\":8366:8383   */\n      add\n        /* \"#utility.yul\":8359:8406   */\n      mstore\n        /* \"#utility.yul\":8423:8554   */\n      tag_171\n        /* \"#utility.yul\":8549:8553   */\n      dup2\n        /* \"#utility.yul\":8423:8554   */\n      tag_86\n      jump\t// in\n    tag_171:\n        /* \"#utility.yul\":8415:8554   */\n      swap1\n      pop\n        /* \"#utility.yul\":8142:8561   */\n      swap2\n      swap1\n      pop\n      jump\t// out\n        /* \"#utility.yul\":8567:8747   */\n    tag_87:\n        /* \"#utility.yul\":8615:8692   */\n      0x4e487b7100000000000000000000000000000000000000000000000000000000\n        /* \"#utility.yul\":8612:8613   */\n      0x00\n        /* \"#utility.yul\":8605:8693   */\n      mstore\n        /* \"#utility.yul\":8712:8716   */\n      0x11\n        /* \"#utility.yul\":8709:8710   */\n      0x04\n        /* \"#utility.yul\":8702:8717   */\n      mstore\n        /* \"#utility.yul\":8736:8740   */\n      0x24\n        /* \"#utility.yul\":8733:8734   */\n      0x00\n        /* \"#utility.yul\":8726:8741   */\n      revert\n        /* \"#utility.yul\":8753:8830   */\n    tag_88:\n        /* \"#utility.yul\":8790:8797   */\n      0x00\n        /* \"#utility.yul\":8819:8824   */\n      dup2\n        /* \"#utility.yul\":8808:8824   */\n      swap1\n      pop\n        /* \"#utility.yul\":8753:8830   */\n      swap2\n      swap1\n      pop\n      jump\t// out\n        /* \"#utility.yul\":8836:9069   */\n    tag_60:\n        /* \"#utility.yul\":8875:8878   */\n      0x00\n        /* \"#utility.yul\":8898:8922   */\n      tag_175\n        /* \"#utility.yul\":8916:8921   */\n      dup3\n        /* \"#utility.yul\":8898:8922   */\n      tag_88\n      jump\t// in\n    tag_175:\n        /* \"#utility.yul\":8889:8922   */\n      swap2\n      pop\n        /* \"#utility.yul\":8944:9010   */\n      0xffffffffffffffffffffffffffffffffffffffffffffffffffffffffffffffff\n        /* \"#utility.yul\":8937:8942   */\n      dup3\n        /* \"#utility.yul\":8934:9011   */\n      sub\n        /* \"#utility.yul\":8931:9034   */\n      tag_176\n      jumpi\n        /* \"#utility.yul\":9014:9032   */\n      tag_177\n      tag_87\n      jump\t// in\n    tag_177:\n        /* \"#utility.yul\":8931:9034   */\n    tag_176:\n        /* \"#utility.yul\":9061:9062   */\n      0x01\n        /* \"#utility.yul\":9054:9059   */\n      dup3\n        /* \"#utility.yul\":9050:9063   */\n      add\n        /* \"#utility.yul\":9043:9063   */\n      swap1\n      pop\n        /* \"#utility.yul\":8836:9069   */\n      swap2\n      swap1\n      pop\n      jump\t// out\n\n    auxdata: 0xa2646970667358221220f695afaa46db0bb8ffd29cc45fd2b2eeabd1b099a00fd231dcafcb717660ed1464736f6c63430008120033\n}\n",
				"bytecode": {
					"linkReferences": {},
					"object": "608060405234801561001057600080fd5b506108c2806100206000396000f3fe608060405234801561001057600080fd5b50600436106100575760003560e01c80631fe965261461005c57806327cf399a146100785780632c3f5a2f146100a85780633c4dd143146100d8578063ccef4218146100f4575b600080fd5b61007660048036038101906100719190610525565b610124565b005b610092600480360381019061008d9190610525565b61018f565b60405161009f91906105b6565b60405180910390f35b6100c260048036038101906100bd91906105d1565b6101c2565b6040516100cf91906105b6565b60405180910390f35b6100f260048036038101906100ed9190610525565b6101ec565b005b61010e60048036038101906101099190610525565b6102a4565b60405161011b9190610635565b60405180910390f35b61012e828261018f565b60008360405161013e91906106c1565b9081526020016040518091039020600001541461015a57600080fd5b60008260405161016a91906106c1565b9081526020016040518091039020600080820160009055600182016000905550505050565b600082826040516020016101a49291906106d8565b60405160208183030381529060405280519060200120905092915050565b600080826040516101d391906106c1565b9081526020016040518091039020600001549050919050565b6000801b60008360405161020091906106c1565b90815260200160405180910390206000015414610252576040517f08c379a00000000000000000000000000000000000000000000000000000000081526004016102499061077f565b60405180910390fd5b81816040516020016102659291906106d8565b6040516020818303038152906040528051906020012060008360405161028b91906106c1565b9081526020016040518091039020600001819055505050565b600060056000846040516102b891906106c1565b9081526020016040518091039020600101541061030a576040517f08c379a0000000000000000000000000000000000000000000000000000000008152600401610301906107eb565b60405180910390fd5b828260405160200161031d9291906106d8565b6040516020818303038152906040528051906020012060008460405161034391906106c1565b90815260200160405180910390206000015403610389576000808460405161036b91906106c1565b908152602001604051809103902060010181905550600190506103c5565b60008360405161039991906106c1565b908152602001604051809103902060010160008154809291906103bb90610844565b9190505550600090505b92915050565b6000604051905090565b600080fd5b600080fd5b600080fd5b600080fd5b6000601f19601f8301169050919050565b7f4e487b7100000000000000000000000000000000000000000000000000000000600052604160045260246000fd5b610432826103e9565b810181811067ffffffffffffffff82111715610451576104506103fa565b5b80604052505050565b60006104646103cb565b90506104708282610429565b919050565b600067ffffffffffffffff8211156104905761048f6103fa565b5b610499826103e9565b9050602081019050919050565b82818337600083830152505050565b60006104c86104c384610475565b61045a565b9050828152602081018484840111156104e4576104e36103e4565b5b6104ef8482856104a6565b509392505050565b600082601f83011261050c5761050b6103df565b5b813561051c8482602086016104b5565b91505092915050565b6000806040838503121561053c5761053b6103d5565b5b600083013567ffffffffffffffff81111561055a576105596103da565b5b610566858286016104f7565b925050602083013567ffffffffffffffff811115610587576105866103da565b5b610593858286016104f7565b9150509250929050565b6000819050919050565b6105b08161059d565b82525050565b60006020820190506105cb60008301846105a7565b92915050565b6000602082840312156105e7576105e66103d5565b5b600082013567ffffffffffffffff811115610605576106046103da565b5b610611848285016104f7565b91505092915050565b60008115159050919050565b61062f8161061a565b82525050565b600060208201905061064a6000830184610626565b92915050565b600081519050919050565b600081905092915050565b60005b83811015610684578082015181840152602081019050610669565b60008484015250505050565b600061069b82610650565b6106a5818561065b565b93506106b5818560208601610666565b80840191505092915050565b60006106cd8284610690565b915081905092915050565b60006106e48285610690565b91506106f08284610690565b91508190509392505050565b600082825260208201905092915050565b7f70726f766964656420494420697320616c7265616479206265696e672075736560008201527f6400000000000000000000000000000000000000000000000000000000000000602082015250565b60006107696021836106fc565b91506107748261070d565b604082019050919050565b600060208201905081810360008301526107988161075c565b9050919050565b7f546f6f206d75636820617474656d707473000000000000000000000000000000600082015250565b60006107d56011836106fc565b91506107e08261079f565b602082019050919050565b60006020820190508181036000830152610804816107c8565b9050919050565b7f4e487b7100000000000000000000000000000000000000000000000000000000600052601160045260246000fd5b6000819050919050565b600061084f8261083a565b91507fffffffffffffffffffffffffffffffffffffffffffffffffffffffffffffffff82036108815761088061080b565b5b60018201905091905056fea2646970667358221220f695afaa46db0bb8ffd29cc45fd2b2eeabd1b099a00fd231dcafcb717660ed1464736f6c63430008120033",
					"opcodes": "PUSH1 0x80 PUSH1 0x40 MSTORE CALLVALUE DUP1 ISZERO PUSH2 0x10 JUMPI PUSH1 0x0 DUP1 REVERT JUMPDEST POP PUSH2 0x8C2 DUP1 PUSH2 0x20 PUSH1 0x0 CODECOPY PUSH1 0x0 RETURN INVALID PUSH1 0x80 PUSH1 0x40 MSTORE CALLVALUE DUP1 ISZERO PUSH2 0x10 JUMPI PUSH1 0x0 DUP1 REVERT JUMPDEST POP PUSH1 0x4 CALLDATASIZE LT PUSH2 0x57 JUMPI PUSH1 0x0 CALLDATALOAD PUSH1 0xE0 SHR DUP1 PUSH4 0x1FE96526 EQ PUSH2 0x5C JUMPI DUP1 PUSH4 0x27CF399A EQ PUSH2 0x78 JUMPI DUP1 PUSH4 0x2C3F5A2F EQ PUSH2 0xA8 JUMPI DUP1 PUSH4 0x3C4DD143 EQ PUSH2 0xD8 JUMPI DUP1 PUSH4 0xCCEF4218 EQ PUSH2 0xF4 JUMPI JUMPDEST PUSH1 0x0 DUP1 REVERT JUMPDEST PUSH2 0x76 PUSH1 0x4 DUP1 CALLDATASIZE SUB DUP2 ADD SWAP1 PUSH2 0x71 SWAP2 SWAP1 PUSH2 0x525 JUMP JUMPDEST PUSH2 0x124 JUMP JUMPDEST STOP JUMPDEST PUSH2 0x92 PUSH1 0x4 DUP1 CALLDATASIZE SUB DUP2 ADD SWAP1 PUSH2 0x8D SWAP2 SWAP1 PUSH2 0x525 JUMP JUMPDEST PUSH2 0x18F JUMP JUMPDEST PUSH1 0x40 MLOAD PUSH2 0x9F SWAP2 SWAP1 PUSH2 0x5B6 JUMP JUMPDEST PUSH1 0x40 MLOAD DUP1 SWAP2 SUB SWAP1 RETURN JUMPDEST PUSH2 0xC2 PUSH1 0x4 DUP1 CALLDATASIZE SUB DUP2 ADD SWAP1 PUSH2 0xBD SWAP2 SWAP1 PUSH2 0x5D1 JUMP JUMPDEST PUSH2 0x1C2 JUMP JUMPDEST PUSH1 0x40 MLOAD PUSH2 0xCF SWAP2 SWAP1 PUSH2 0x5B6 JUMP JUMPDEST PUSH1 0x40 MLOAD DUP1 SWAP2 SUB SWAP1 RETURN JUMPDEST PUSH2 0xF2 PUSH1 0x4 DUP1 CALLDATASIZE SUB DUP2 ADD SWAP1 PUSH2 0xED SWAP2 SWAP1 PUSH2 0x525 JUMP JUMPDEST PUSH2 0x1EC JUMP JUMPDEST STOP JUMPDEST PUSH2 0x10E PUSH1 0x4 DUP1 CALLDATASIZE SUB DUP2 ADD SWAP1 PUSH2 0x109 SWAP2 SWAP1 PUSH2 0x525 JUMP JUMPDEST PUSH2 0x2A4 JUMP JUMPDEST PUSH1 0x40 MLOAD PUSH2 0x11B SWAP2 SWAP1 PUSH2 0x635 JUMP JUMPDEST PUSH1 0x40 MLOAD DUP1 SWAP2 SUB SWAP1 RETURN JUMPDEST PUSH2 0x12E DUP3 DUP3 PUSH2 0x18F JUMP JUMPDEST PUSH1 0x0 DUP4 PUSH1 0x40 MLOAD PUSH2 0x13E SWAP2 SWAP1 PUSH2 0x6C1 JUMP JUMPDEST SWAP1 DUP2 MSTORE PUSH1 0x20 ADD PUSH1 0x40 MLOAD DUP1 SWAP2 SUB SWAP1 KECCAK256 PUSH1 0x0 ADD SLOAD EQ PUSH2 0x15A JUMPI PUSH1 0x0 DUP1 REVERT JUMPDEST PUSH1 0x0 DUP3 PUSH1 0x40 MLOAD PUSH2 0x16A SWAP2 SWAP1 PUSH2 0x6C1 JUMP JUMPDEST SWAP1 DUP2 MSTORE PUSH1 0x20 ADD PUSH1 0x40 MLOAD DUP1 SWAP2 SUB SWAP1 KECCAK256 PUSH1 0x0 DUP1 DUP3 ADD PUSH1 0x0 SWAP1 SSTORE PUSH1 0x1 DUP3 ADD PUSH1 0x0 SWAP1 SSTORE POP POP POP POP JUMP JUMPDEST PUSH1 0x0 DUP3 DUP3 PUSH1 0x40 MLOAD PUSH1 0x20 ADD PUSH2 0x1A4 SWAP3 SWAP2 SWAP1 PUSH2 0x6D8 JUMP JUMPDEST PUSH1 0x40 MLOAD PUSH1 0x20 DUP2 DUP4 SUB SUB DUP2 MSTORE SWAP1 PUSH1 0x40 MSTORE DUP1 MLOAD SWAP1 PUSH1 0x20 ADD KECCAK256 SWAP1 POP SWAP3 SWAP2 POP POP JUMP JUMPDEST PUSH1 0x0 DUP1 DUP3 PUSH1 0x40 MLOAD PUSH2 0x1D3 SWAP2 SWAP1 PUSH2 0x6C1 JUMP JUMPDEST SWAP1 DUP2 MSTORE PUSH1 0x20 ADD PUSH1 0x40 MLOAD DUP1 SWAP2 SUB SWAP1 KECCAK256 PUSH1 0x0 ADD SLOAD SWAP1 POP SWAP2 SWAP1 POP JUMP JUMPDEST PUSH1 0x0 DUP1 SHL PUSH1 0x0 DUP4 PUSH1 0x40 MLOAD PUSH2 0x200 SWAP2 SWAP1 PUSH2 0x6C1 JUMP JUMPDEST SWAP1 DUP2 MSTORE PUSH1 0x20 ADD PUSH1 0x40 MLOAD DUP1 SWAP2 SUB SWAP1 KECCAK256 PUSH1 0x0 ADD SLOAD EQ PUSH2 0x252 JUMPI PUSH1 0x40 MLOAD PUSH32 0x8C379A000000000000000000000000000000000000000000000000000000000 DUP2 MSTORE PUSH1 0x4 ADD PUSH2 0x249 SWAP1 PUSH2 0x77F JUMP JUMPDEST PUSH1 0x40 MLOAD DUP1 SWAP2 SUB SWAP1 REVERT JUMPDEST DUP2 DUP2 PUSH1 0x40 MLOAD PUSH1 0x20 ADD PUSH2 0x265 SWAP3 SWAP2 SWAP1 PUSH2 0x6D8 JUMP JUMPDEST PUSH1 0x40 MLOAD PUSH1 0x20 DUP2 DUP4 SUB SUB DUP2 MSTORE SWAP1 PUSH1 0x40 MSTORE DUP1 MLOAD SWAP1 PUSH1 0x20 ADD KECCAK256 PUSH1 0x0 DUP4 PUSH1 0x40 MLOAD PUSH2 0x28B SWAP2 SWAP1 PUSH2 0x6C1 JUMP JUMPDEST SWAP1 DUP2 MSTORE PUSH1 0x20 ADD PUSH1 0x40 MLOAD DUP1 SWAP2 SUB SWAP1 KECCAK256 PUSH1 0x0 ADD DUP2 SWAP1 SSTORE POP POP POP JUMP JUMPDEST PUSH1 0x0 PUSH1 0x5 PUSH1 0x0 DUP5 PUSH1 0x40 MLOAD PUSH2 0x2B8 SWAP2 SWAP1 PUSH2 0x6C1 JUMP JUMPDEST SWAP1 DUP2 MSTORE PUSH1 0x20 ADD PUSH1 0x40 MLOAD DUP1 SWAP2 SUB SWAP1 KECCAK256 PUSH1 0x1 ADD SLOAD LT PUSH2 0x30A JUMPI PUSH1 0x40 MLOAD PUSH32 0x8C379A000000000000000000000000000000000000000000000000000000000 DUP2 MSTORE PUSH1 0x4 ADD PUSH2 0x301 SWAP1 PUSH2 0x7EB JUMP JUMPDEST PUSH1 0x40 MLOAD DUP1 SWAP2 SUB SWAP1 REVERT JUMPDEST DUP3 DUP3 PUSH1 0x40 MLOAD PUSH1 0x20 ADD PUSH2 0x31D SWAP3 SWAP2 SWAP1 PUSH2 0x6D8 JUMP JUMPDEST PUSH1 0x40 MLOAD PUSH1 0x20 DUP2 DUP4 SUB SUB DUP2 MSTORE SWAP1 PUSH1 0x40 MSTORE DUP1 MLOAD SWAP1 PUSH1 0x20 ADD KECCAK256 PUSH1 0x0 DUP5 PUSH1 0x40 MLOAD PUSH2 0x343 SWAP2 SWAP1 PUSH2 0x6C1 JUMP JUMPDEST SWAP1 DUP2 MSTORE PUSH1 0x20 ADD PUSH1 0x40 MLOAD DUP1 SWAP2 SUB SWAP1 KECCAK256 PUSH1 0x0 ADD SLOAD SUB PUSH2 0x389 JUMPI PUSH1 0x0 DUP1 DUP5 PUSH1 0x40 MLOAD PUSH2 0x36B SWAP2 SWAP1 PUSH2 0x6C1 JUMP JUMPDEST SWAP1 DUP2 MSTORE PUSH1 0x20 ADD PUSH1 0x40 MLOAD DUP1 SWAP2 SUB SWAP1 KECCAK256 PUSH1 0x1 ADD DUP2 SWAP1 SSTORE POP PUSH1 0x1 SWAP1 POP PUSH2 0x3C5 JUMP JUMPDEST PUSH1 0x0 DUP4 PUSH1 0x40 MLOAD PUSH2 0x399 SWAP2 SWAP1 PUSH2 0x6C1 JUMP JUMPDEST SWAP1 DUP2 MSTORE PUSH1 0x20 ADD PUSH1 0x40 MLOAD DUP1 SWAP2 SUB SWAP1 KECCAK256 PUSH1 0x1 ADD PUSH1 0x0 DUP2 SLOAD DUP1 SWAP3 SWAP2 SWAP1 PUSH2 0x3BB SWAP1 PUSH2 0x844 JUMP JUMPDEST SWAP2 SWAP1 POP SSTORE POP PUSH1 0x0 SWAP1 POP JUMPDEST SWAP3 SWAP2 POP POP JUMP JUMPDEST PUSH1 0x0 PUSH1 0x40 MLOAD SWAP1 POP SWAP1 JUMP JUMPDEST PUSH1 0x0 DUP1 REVERT JUMPDEST PUSH1 0x0 DUP1 REVERT JUMPDEST PUSH1 0x0 DUP1 REVERT JUMPDEST PUSH1 0x0 DUP1 REVERT JUMPDEST PUSH1 0x0 PUSH1 0x1F NOT PUSH1 0x1F DUP4 ADD AND SWAP1 POP SWAP2 SWAP1 POP JUMP JUMPDEST PUSH32 0x4E487B7100000000000000000000000000000000000000000000000000000000 PUSH1 0x0 MSTORE PUSH1 0x41 PUSH1 0x4 MSTORE PUSH1 0x24 PUSH1 0x0 REVERT JUMPDEST PUSH2 0x432 DUP3 PUSH2 0x3E9 JUMP JUMPDEST DUP2 ADD DUP2 DUP2 LT PUSH8 0xFFFFFFFFFFFFFFFF DUP3 GT OR ISZERO PUSH2 0x451 JUMPI PUSH2 0x450 PUSH2 0x3FA JUMP JUMPDEST JUMPDEST DUP1 PUSH1 0x40 MSTORE POP POP POP JUMP JUMPDEST PUSH1 0x0 PUSH2 0x464 PUSH2 0x3CB JUMP JUMPDEST SWAP1 POP PUSH2 0x470 DUP3 DUP3 PUSH2 0x429 JUMP JUMPDEST SWAP2 SWAP1 POP JUMP JUMPDEST PUSH1 0x0 PUSH8 0xFFFFFFFFFFFFFFFF DUP3 GT ISZERO PUSH2 0x490 JUMPI PUSH2 0x48F PUSH2 0x3FA JUMP JUMPDEST JUMPDEST PUSH2 0x499 DUP3 PUSH2 0x3E9 JUMP JUMPDEST SWAP1 POP PUSH1 0x20 DUP2 ADD SWAP1 POP SWAP2 SWAP1 POP JUMP JUMPDEST DUP3 DUP2 DUP4 CALLDATACOPY PUSH1 0x0 DUP4 DUP4 ADD MSTORE POP POP POP JUMP JUMPDEST PUSH1 0x0 PUSH2 0x4C8 PUSH2 0x4C3 DUP5 PUSH2 0x475 JUMP JUMPDEST PUSH2 0x45A JUMP JUMPDEST SWAP1 POP DUP3 DUP2 MSTORE PUSH1 0x20 DUP2 ADD DUP5 DUP5 DUP5 ADD GT ISZERO PUSH2 0x4E4 JUMPI PUSH2 0x4E3 PUSH2 0x3E4 JUMP JUMPDEST JUMPDEST PUSH2 0x4EF DUP5 DUP3 DUP6 PUSH2 0x4A6 JUMP JUMPDEST POP SWAP4 SWAP3 POP POP POP JUMP JUMPDEST PUSH1 0x0 DUP3 PUSH1 0x1F DUP4 ADD SLT PUSH2 0x50C JUMPI PUSH2 0x50B PUSH2 0x3DF JUMP JUMPDEST JUMPDEST DUP2 CALLDATALOAD PUSH2 0x51C DUP5 DUP3 PUSH1 0x20 DUP7 ADD PUSH2 0x4B5 JUMP JUMPDEST SWAP2 POP POP SWAP3 SWAP2 POP POP JUMP JUMPDEST PUSH1 0x0 DUP1 PUSH1 0x40 DUP4 DUP6 SUB SLT ISZERO PUSH2 0x53C JUMPI PUSH2 0x53B PUSH2 0x3D5 JUMP JUMPDEST JUMPDEST PUSH1 0x0 DUP4 ADD CALLDATALOAD PUSH8 0xFFFFFFFFFFFFFFFF DUP2 GT ISZERO PUSH2 0x55A JUMPI PUSH2 0x559 PUSH2 0x3DA JUMP JUMPDEST JUMPDEST PUSH2 0x566 DUP6 DUP3 DUP7 ADD PUSH2 0x4F7 JUMP JUMPDEST SWAP3 POP POP PUSH1 0x20 DUP4 ADD CALLDATALOAD PUSH8 0xFFFFFFFFFFFFFFFF DUP2 GT ISZERO PUSH2 0x587 JUMPI PUSH2 0x586 PUSH2 0x3DA JUMP JUMPDEST JUMPDEST PUSH2 0x593 DUP6 DUP3 DUP7 ADD PUSH2 0x4F7 JUMP JUMPDEST SWAP2 POP POP SWAP3 POP SWAP3 SWAP1 POP JUMP JUMPDEST PUSH1 0x0 DUP2 SWAP1 POP SWAP2 SWAP1 POP JUMP JUMPDEST PUSH2 0x5B0 DUP2 PUSH2 0x59D JUMP JUMPDEST DUP3 MSTORE POP POP JUMP JUMPDEST PUSH1 0x0 PUSH1 0x20 DUP3 ADD SWAP1 POP PUSH2 0x5CB PUSH1 0x0 DUP4 ADD DUP5 PUSH2 0x5A7 JUMP JUMPDEST SWAP3 SWAP2 POP POP JUMP JUMPDEST PUSH1 0x0 PUSH1 0x20 DUP3 DUP5 SUB SLT ISZERO PUSH2 0x5E7 JUMPI PUSH2 0x5E6 PUSH2 0x3D5 JUMP JUMPDEST JUMPDEST PUSH1 0x0 DUP3 ADD CALLDATALOAD PUSH8 0xFFFFFFFFFFFFFFFF DUP2 GT ISZERO PUSH2 0x605 JUMPI PUSH2 0x604 PUSH2 0x3DA JUMP JUMPDEST JUMPDEST PUSH2 0x611 DUP5 DUP3 DUP6 ADD PUSH2 0x4F7 JUMP JUMPDEST SWAP2 POP POP SWAP3 SWAP2 POP POP JUMP JUMPDEST PUSH1 0x0 DUP2 ISZERO ISZERO SWAP1 POP SWAP2 SWAP1 POP JUMP JUMPDEST PUSH2 0x62F DUP2 PUSH2 0x61A JUMP JUMPDEST DUP3 MSTORE POP POP JUMP JUMPDEST PUSH1 0x0 PUSH1 0x20 DUP3 ADD SWAP1 POP PUSH2 0x64A PUSH1 0x0 DUP4 ADD DUP5 PUSH2 0x626 JUMP JUMPDEST SWAP3 SWAP2 POP POP JUMP JUMPDEST PUSH1 0x0 DUP2 MLOAD SWAP1 POP SWAP2 SWAP1 POP JUMP JUMPDEST PUSH1 0x0 DUP2 SWAP1 POP SWAP3 SWAP2 POP POP JUMP JUMPDEST PUSH1 0x0 JUMPDEST DUP4 DUP2 LT ISZERO PUSH2 0x684 JUMPI DUP1 DUP3 ADD MLOAD DUP2 DUP5 ADD MSTORE PUSH1 0x20 DUP2 ADD SWAP1 POP PUSH2 0x669 JUMP JUMPDEST PUSH1 0x0 DUP5 DUP5 ADD MSTORE POP POP POP POP JUMP JUMPDEST PUSH1 0x0 PUSH2 0x69B DUP3 PUSH2 0x650 JUMP JUMPDEST PUSH2 0x6A5 DUP2 DUP6 PUSH2 0x65B JUMP JUMPDEST SWAP4 POP PUSH2 0x6B5 DUP2 DUP6 PUSH1 0x20 DUP7 ADD PUSH2 0x666 JUMP JUMPDEST DUP1 DUP5 ADD SWAP2 POP POP SWAP3 SWAP2 POP POP JUMP JUMPDEST PUSH1 0x0 PUSH2 0x6CD DUP3 DUP5 PUSH2 0x690 JUMP JUMPDEST SWAP2 POP DUP2 SWAP1 POP SWAP3 SWAP2 POP POP JUMP JUMPDEST PUSH1 0x0 PUSH2 0x6E4 DUP3 DUP6 PUSH2 0x690 JUMP JUMPDEST SWAP2 POP PUSH2 0x6F0 DUP3 DUP5 PUSH2 0x690 JUMP JUMPDEST SWAP2 POP DUP2 SWAP1 POP SWAP4 SWAP3 POP POP POP JUMP JUMPDEST PUSH1 0x0 DUP3 DUP3 MSTORE PUSH1 0x20 DUP3 ADD SWAP1 POP SWAP3 SWAP2 POP POP JUMP JUMPDEST PUSH32 0x70726F766964656420494420697320616C7265616479206265696E6720757365 PUSH1 0x0 DUP3 ADD MSTORE PUSH32 0x6400000000000000000000000000000000000000000000000000000000000000 PUSH1 0x20 DUP3 ADD MSTORE POP JUMP JUMPDEST PUSH1 0x0 PUSH2 0x769 PUSH1 0x21 DUP4 PUSH2 0x6FC JUMP JUMPDEST SWAP2 POP PUSH2 0x774 DUP3 PUSH2 0x70D JUMP JUMPDEST PUSH1 0x40 DUP3 ADD SWAP1 POP SWAP2 SWAP1 POP JUMP JUMPDEST PUSH1 0x0 PUSH1 0x20 DUP3 ADD SWAP1 POP DUP2 DUP2 SUB PUSH1 0x0 DUP4 ADD MSTORE PUSH2 0x798 DUP2 PUSH2 0x75C JUMP JUMPDEST SWAP1 POP SWAP2 SWAP1 POP JUMP JUMPDEST PUSH32 0x546F6F206D75636820617474656D707473000000000000000000000000000000 PUSH1 0x0 DUP3 ADD MSTORE POP JUMP JUMPDEST PUSH1 0x0 PUSH2 0x7D5 PUSH1 0x11 DUP4 PUSH2 0x6FC JUMP JUMPDEST SWAP2 POP PUSH2 0x7E0 DUP3 PUSH2 0x79F JUMP JUMPDEST PUSH1 0x20 DUP3 ADD SWAP1 POP SWAP2 SWAP1 POP JUMP JUMPDEST PUSH1 0x0 PUSH1 0x20 DUP3 ADD SWAP1 POP DUP2 DUP2 SUB PUSH1 0x0 DUP4 ADD MSTORE PUSH2 0x804 DUP2 PUSH2 0x7C8 JUMP JUMPDEST SWAP1 POP SWAP2 SWAP1 POP JUMP JUMPDEST PUSH32 0x4E487B7100000000000000000000000000000000000000000000000000000000 PUSH1 0x0 MSTORE PUSH1 0x11 PUSH1 0x4 MSTORE PUSH1 0x24 PUSH1 0x0 REVERT JUMPDEST PUSH1 0x0 DUP2 SWAP1 POP SWAP2 SWAP1 POP JUMP JUMPDEST PUSH1 0x0 PUSH2 0x84F DUP3 PUSH2 0x83A JUMP JUMPDEST SWAP2 POP PUSH32 0xFFFFFFFFFFFFFFFFFFFFFFFFFFFFFFFFFFFFFFFFFFFFFFFFFFFFFFFFFFFFFFFF DUP3 SUB PUSH2 0x881 JUMPI PUSH2 0x880 PUSH2 0x80B JUMP JUMPDEST JUMPDEST PUSH1 0x1 DUP3 ADD SWAP1 POP SWAP2 SWAP1 POP JUMP INVALID LOG2 PUSH5 0x6970667358 0x22 SLT KECCAK256 0xF6 SWAP6 0xAF 0xAA CHAINID 0xDB SIGNEXTEND 0xB8 SELFDESTRUCT 0xD2 SWAP13 0xC4 0x5F 0xD2 0xB2 0xEE 0xAB 0xD1 0xB0 SWAP10 LOG0 0xF 0xD2 BALANCE 0xDC 0xAF 0xCB PUSH18 0x7660ED1464736F6C63430008120033000000 "
				},
				"gasEstimates": {
					"creation": {
						"codeDepositCost": "448400",
						"executionCost": "486",
						"totalCost": "448886"
					},
					"external": {
						"Login(string,string)": "infinite",
						"Login2(string)": "infinite",
						"SignIn(string,string)": "infinite",
						"getHash(string,string)": "infinite",
						"singOut(string,string)": "infinite"
					}
				},
				"methodIdentifiers": {
					"Login(string,string)": "ccef4218",
					"Login2(string)": "2c3f5a2f",
					"SignIn(string,string)": "3c4dd143",
					"getHash(string,string)": "27cf399a",
					"singOut(string,string)": "1fe96526"
				}
			},
			"storageLayout": {
				"storage": [
					{
						"astId": 66,
						"contract": "contracts/0512/Quiz2.sol:Solution",
						"label": "ID_PW",
						"offset": 0,
						"slot": "0",
						"type": "t_mapping(t_string_memory_ptr,t_struct(User)61_storage)"
					}
				],
				"types": {
					"t_bytes32": {
						"encoding": "inplace",
						"label": "bytes32",
						"numberOfBytes": "32"
					},
					"t_mapping(t_string_memory_ptr,t_struct(User)61_storage)": {
						"encoding": "mapping",
						"key": "t_string_memory_ptr",
						"label": "mapping(string => struct Solution.User)",
						"numberOfBytes": "32",
						"value": "t_struct(User)61_storage"
					},
					"t_string_memory_ptr": {
						"encoding": "bytes",
						"label": "string",
						"numberOfBytes": "32"
					},
					"t_struct(User)61_storage": {
						"encoding": "inplace",
						"label": "struct Solution.User",
						"members": [
							{
								"astId": 58,
								"contract": "contracts/0512/Quiz2.sol:Solution",
								"label": "hash",
								"offset": 0,
								"slot": "0",
								"type": "t_bytes32"
							},
							{
								"astId": 60,
								"contract": "contracts/0512/Quiz2.sol:Solution",
								"label": "attempts",
								"offset": 0,
								"slot": "1",
								"type": "t_uint256"
							}
						],
						"numberOfBytes": "64"
					},
					"t_uint256": {
						"encoding": "inplace",
						"label": "uint256",
						"numberOfBytes": "32"
					}
				}
			},
			"userdoc": {
				"kind": "user",
				"methods": {},
				"version": 1
			}
		}
	}
}