{
	"contracts/0512/Quiz2.sol": {
		"REQUIRE": {
			"abi": [
				{
					"inputs": [
						{
							"internalType": "uint256",
							"name": "_n",
							"type": "uint256"
						}
					],
					"name": "Require",
					"outputs": [
						{
							"internalType": "uint256",
							"name": "",
							"type": "uint256"
						}
					],
					"stateMutability": "pure",
					"type": "function"
				},
				{
					"inputs": [
						{
							"internalType": "string",
							"name": "_name",
							"type": "string"
						}
					],
					"name": "getName",
					"outputs": [
						{
							"internalType": "bytes32",
							"name": "",
							"type": "bytes32"
						}
					],
					"stateMutability": "pure",
					"type": "function"
				},
				{
					"inputs": [
						{
							"internalType": "string",
							"name": "_name",
							"type": "string"
						}
					],
					"name": "onlyAlice",
					"outputs": [
						{
							"internalType": "bool",
							"name": "",
							"type": "bool"
						}
					],
					"stateMutability": "pure",
					"type": "function"
				}
			],
			"devdoc": {
				"kind": "dev",
				"methods": {},
				"version": 1
			},
			"evm": {
				"assembly": "    /* \"contracts/0512/Quiz2.sol\":4443:5027  contract REQUIRE {... */\n  mstore(0x40, 0x80)\n  callvalue\n  dup1\n  iszero\n  tag_1\n  jumpi\n  0x00\n  dup1\n  revert\ntag_1:\n  pop\n  dataSize(sub_0)\n  dup1\n  dataOffset(sub_0)\n  0x00\n  codecopy\n  0x00\n  return\nstop\n\nsub_0: assembly {\n        /* \"contracts/0512/Quiz2.sol\":4443:5027  contract REQUIRE {... */\n      mstore(0x40, 0x80)\n      callvalue\n      dup1\n      iszero\n      tag_1\n      jumpi\n      0x00\n      dup1\n      revert\n    tag_1:\n      pop\n      jumpi(tag_2, lt(calldatasize, 0x04))\n      shr(0xe0, calldataload(0x00))\n      dup1\n      0x65a8832b\n      eq\n      tag_3\n      jumpi\n      dup1\n      0x6932cf81\n      eq\n      tag_4\n      jumpi\n      dup1\n      0xd792b544\n      eq\n      tag_5\n      jumpi\n    tag_2:\n      0x00\n      dup1\n      revert\n        /* \"contracts/0512/Quiz2.sol\":4750:4950  function onlyAlice(string memory _name) public pure returns (bool) {... */\n    tag_3:\n      tag_6\n      0x04\n      dup1\n      calldatasize\n      sub\n      dup2\n      add\n      swap1\n      tag_7\n      swap2\n      swap1\n      tag_8\n      jump\t// in\n    tag_7:\n      tag_9\n      jump\t// in\n    tag_6:\n      mload(0x40)\n      tag_10\n      swap2\n      swap1\n      tag_11\n      jump\t// in\n    tag_10:\n      mload(0x40)\n      dup1\n      swap2\n      sub\n      swap1\n      return\n        /* \"contracts/0512/Quiz2.sol\":4616:4742  function getName(string memory _name) public pure returns(bytes32){... */\n    tag_4:\n      tag_12\n      0x04\n      dup1\n      calldatasize\n      sub\n      dup2\n      add\n      swap1\n      tag_13\n      swap2\n      swap1\n      tag_8\n      jump\t// in\n    tag_13:\n      tag_14\n      jump\t// in\n    tag_12:\n      mload(0x40)\n      tag_15\n      swap2\n      swap1\n      tag_16\n      jump\t// in\n    tag_15:\n      mload(0x40)\n      dup1\n      swap2\n      sub\n      swap1\n      return\n        /* \"contracts/0512/Quiz2.sol\":4467:4608  function Require(uint _n) public pure returns (uint) {... */\n    tag_5:\n      tag_17\n      0x04\n      dup1\n      calldatasize\n      sub\n      dup2\n      add\n      swap1\n      tag_18\n      swap2\n      swap1\n      tag_19\n      jump\t// in\n    tag_18:\n      tag_20\n      jump\t// in\n    tag_17:\n      mload(0x40)\n      tag_21\n      swap2\n      swap1\n      tag_22\n      jump\t// in\n    tag_21:\n      mload(0x40)\n      dup1\n      swap2\n      sub\n      swap1\n      return\n        /* \"contracts/0512/Quiz2.sol\":4750:4950  function onlyAlice(string memory _name) public pure returns (bool) {... */\n    tag_9:\n        /* \"contracts/0512/Quiz2.sol\":4811:4815  bool */\n      0x00\n        /* \"contracts/0512/Quiz2.sol\":4853:4919  0x9c0257114eb9399a2985f8e75dad7600c5d89fe3824ffa99ec1c3eb8bf3b0501 */\n      0x9c0257114eb9399a2985f8e75dad7600c5d89fe3824ffa99ec1c3eb8bf3b0501\n        /* \"contracts/0512/Quiz2.sol\":4836:4919  getName(_name)== 0x9c0257114eb9399a2985f8e75dad7600c5d89fe3824ffa99ec1c3eb8bf3b0501 */\n      0x00\n      shl\n        /* \"contracts/0512/Quiz2.sol\":4836:4850  getName(_name) */\n      tag_24\n        /* \"contracts/0512/Quiz2.sol\":4844:4849  _name */\n      dup4\n        /* \"contracts/0512/Quiz2.sol\":4836:4843  getName */\n      tag_14\n        /* \"contracts/0512/Quiz2.sol\":4836:4850  getName(_name) */\n      jump\t// in\n    tag_24:\n        /* \"contracts/0512/Quiz2.sol\":4836:4919  getName(_name)== 0x9c0257114eb9399a2985f8e75dad7600c5d89fe3824ffa99ec1c3eb8bf3b0501 */\n      eq\n        /* \"contracts/0512/Quiz2.sol\":4828:4920  require(getName(_name)== 0x9c0257114eb9399a2985f8e75dad7600c5d89fe3824ffa99ec1c3eb8bf3b0501) */\n      tag_25\n      jumpi\n      0x00\n      dup1\n      revert\n    tag_25:\n        /* \"contracts/0512/Quiz2.sol\":4938:4942  true */\n      0x01\n        /* \"contracts/0512/Quiz2.sol\":4931:4942  return true */\n      swap1\n      pop\n        /* \"contracts/0512/Quiz2.sol\":4750:4950  function onlyAlice(string memory _name) public pure returns (bool) {... */\n      swap2\n      swap1\n      pop\n      jump\t// out\n        /* \"contracts/0512/Quiz2.sol\":4616:4742  function getName(string memory _name) public pure returns(bytes32){... */\n    tag_14:\n        /* \"contracts/0512/Quiz2.sol\":4674:4681  bytes32 */\n      0x00\n        /* \"contracts/0512/Quiz2.sol\":4727:4732  _name */\n      dup2\n        /* \"contracts/0512/Quiz2.sol\":4710:4733  abi.encodePacked(_name) */\n      add(0x20, mload(0x40))\n      tag_27\n      swap2\n      swap1\n      tag_28\n      jump\t// in\n    tag_27:\n      mload(0x40)\n      0x20\n      dup2\n      dup4\n      sub\n      sub\n      dup2\n      mstore\n      swap1\n      0x40\n      mstore\n        /* \"contracts/0512/Quiz2.sol\":4700:4734  keccak256(abi.encodePacked(_name)) */\n      dup1\n      mload\n      swap1\n      0x20\n      add\n      keccak256\n        /* \"contracts/0512/Quiz2.sol\":4693:4734  return keccak256(abi.encodePacked(_name)) */\n      swap1\n      pop\n        /* \"contracts/0512/Quiz2.sol\":4616:4742  function getName(string memory _name) public pure returns(bytes32){... */\n      swap2\n      swap1\n      pop\n      jump\t// out\n        /* \"contracts/0512/Quiz2.sol\":4467:4608  function Require(uint _n) public pure returns (uint) {... */\n    tag_20:\n        /* \"contracts/0512/Quiz2.sol\":4514:4518  uint */\n      0x00\n        /* \"contracts/0512/Quiz2.sol\":4542:4544  10 */\n      0x0a\n        /* \"contracts/0512/Quiz2.sol\":4539:4541  _n */\n      dup3\n        /* \"contracts/0512/Quiz2.sol\":4539:4544  _n<10 */\n      lt\n        /* \"contracts/0512/Quiz2.sol\":4531:4578  require(_n<10, \"input should be lower than 10\") */\n      tag_30\n      jumpi\n      mload(0x40)\n      0x08c379a000000000000000000000000000000000000000000000000000000000\n      dup2\n      mstore\n      0x04\n      add\n      tag_31\n      swap1\n      tag_32\n      jump\t// in\n    tag_31:\n      mload(0x40)\n      dup1\n      swap2\n      sub\n      swap1\n      revert\n    tag_30:\n        /* \"contracts/0512/Quiz2.sol\":4599:4600  3 */\n      0x03\n        /* \"contracts/0512/Quiz2.sol\":4596:4598  _n */\n      dup3\n        /* \"contracts/0512/Quiz2.sol\":4596:4600  _n*3 */\n      tag_33\n      swap2\n      swap1\n      tag_34\n      jump\t// in\n    tag_33:\n        /* \"contracts/0512/Quiz2.sol\":4589:4600  return _n*3 */\n      swap1\n      pop\n        /* \"contracts/0512/Quiz2.sol\":4467:4608  function Require(uint _n) public pure returns (uint) {... */\n      swap2\n      swap1\n      pop\n      jump\t// out\n        /* \"#utility.yul\":7:82   */\n    tag_35:\n        /* \"#utility.yul\":40:46   */\n      0x00\n        /* \"#utility.yul\":73:75   */\n      0x40\n        /* \"#utility.yul\":67:76   */\n      mload\n        /* \"#utility.yul\":57:76   */\n      swap1\n      pop\n        /* \"#utility.yul\":7:82   */\n      swap1\n      jump\t// out\n        /* \"#utility.yul\":88:205   */\n    tag_36:\n        /* \"#utility.yul\":197:198   */\n      0x00\n        /* \"#utility.yul\":194:195   */\n      dup1\n        /* \"#utility.yul\":187:199   */\n      revert\n        /* \"#utility.yul\":211:328   */\n    tag_37:\n        /* \"#utility.yul\":320:321   */\n      0x00\n        /* \"#utility.yul\":317:318   */\n      dup1\n        /* \"#utility.yul\":310:322   */\n      revert\n        /* \"#utility.yul\":334:451   */\n    tag_38:\n        /* \"#utility.yul\":443:444   */\n      0x00\n        /* \"#utility.yul\":440:441   */\n      dup1\n        /* \"#utility.yul\":433:445   */\n      revert\n        /* \"#utility.yul\":457:574   */\n    tag_39:\n        /* \"#utility.yul\":566:567   */\n      0x00\n        /* \"#utility.yul\":563:564   */\n      dup1\n        /* \"#utility.yul\":556:568   */\n      revert\n        /* \"#utility.yul\":580:682   */\n    tag_40:\n        /* \"#utility.yul\":621:627   */\n      0x00\n        /* \"#utility.yul\":672:674   */\n      0x1f\n        /* \"#utility.yul\":668:675   */\n      not\n        /* \"#utility.yul\":663:665   */\n      0x1f\n        /* \"#utility.yul\":656:661   */\n      dup4\n        /* \"#utility.yul\":652:666   */\n      add\n        /* \"#utility.yul\":648:676   */\n      and\n        /* \"#utility.yul\":638:676   */\n      swap1\n      pop\n        /* \"#utility.yul\":580:682   */\n      swap2\n      swap1\n      pop\n      jump\t// out\n        /* \"#utility.yul\":688:868   */\n    tag_41:\n        /* \"#utility.yul\":736:813   */\n      0x4e487b7100000000000000000000000000000000000000000000000000000000\n        /* \"#utility.yul\":733:734   */\n      0x00\n        /* \"#utility.yul\":726:814   */\n      mstore\n        /* \"#utility.yul\":833:837   */\n      0x41\n        /* \"#utility.yul\":830:831   */\n      0x04\n        /* \"#utility.yul\":823:838   */\n      mstore\n        /* \"#utility.yul\":857:861   */\n      0x24\n        /* \"#utility.yul\":854:855   */\n      0x00\n        /* \"#utility.yul\":847:862   */\n      revert\n        /* \"#utility.yul\":874:1155   */\n    tag_42:\n        /* \"#utility.yul\":957:984   */\n      tag_73\n        /* \"#utility.yul\":979:983   */\n      dup3\n        /* \"#utility.yul\":957:984   */\n      tag_40\n      jump\t// in\n    tag_73:\n        /* \"#utility.yul\":949:955   */\n      dup2\n        /* \"#utility.yul\":945:985   */\n      add\n        /* \"#utility.yul\":1087:1093   */\n      dup2\n        /* \"#utility.yul\":1075:1085   */\n      dup2\n        /* \"#utility.yul\":1072:1094   */\n      lt\n        /* \"#utility.yul\":1051:1069   */\n      0xffffffffffffffff\n        /* \"#utility.yul\":1039:1049   */\n      dup3\n        /* \"#utility.yul\":1036:1070   */\n      gt\n        /* \"#utility.yul\":1033:1095   */\n      or\n        /* \"#utility.yul\":1030:1118   */\n      iszero\n      tag_74\n      jumpi\n        /* \"#utility.yul\":1098:1116   */\n      tag_75\n      tag_41\n      jump\t// in\n    tag_75:\n        /* \"#utility.yul\":1030:1118   */\n    tag_74:\n        /* \"#utility.yul\":1138:1148   */\n      dup1\n        /* \"#utility.yul\":1134:1136   */\n      0x40\n        /* \"#utility.yul\":1127:1149   */\n      mstore\n        /* \"#utility.yul\":917:1155   */\n      pop\n        /* \"#utility.yul\":874:1155   */\n      pop\n      pop\n      jump\t// out\n        /* \"#utility.yul\":1161:1290   */\n    tag_43:\n        /* \"#utility.yul\":1195:1201   */\n      0x00\n        /* \"#utility.yul\":1222:1242   */\n      tag_77\n      tag_35\n      jump\t// in\n    tag_77:\n        /* \"#utility.yul\":1212:1242   */\n      swap1\n      pop\n        /* \"#utility.yul\":1251:1284   */\n      tag_78\n        /* \"#utility.yul\":1279:1283   */\n      dup3\n        /* \"#utility.yul\":1271:1277   */\n      dup3\n        /* \"#utility.yul\":1251:1284   */\n      tag_42\n      jump\t// in\n    tag_78:\n        /* \"#utility.yul\":1161:1290   */\n      swap2\n      swap1\n      pop\n      jump\t// out\n        /* \"#utility.yul\":1296:1604   */\n    tag_44:\n        /* \"#utility.yul\":1358:1362   */\n      0x00\n        /* \"#utility.yul\":1448:1466   */\n      0xffffffffffffffff\n        /* \"#utility.yul\":1440:1446   */\n      dup3\n        /* \"#utility.yul\":1437:1467   */\n      gt\n        /* \"#utility.yul\":1434:1490   */\n      iszero\n      tag_80\n      jumpi\n        /* \"#utility.yul\":1470:1488   */\n      tag_81\n      tag_41\n      jump\t// in\n    tag_81:\n        /* \"#utility.yul\":1434:1490   */\n    tag_80:\n        /* \"#utility.yul\":1508:1537   */\n      tag_82\n        /* \"#utility.yul\":1530:1536   */\n      dup3\n        /* \"#utility.yul\":1508:1537   */\n      tag_40\n      jump\t// in\n    tag_82:\n        /* \"#utility.yul\":1500:1537   */\n      swap1\n      pop\n        /* \"#utility.yul\":1592:1596   */\n      0x20\n        /* \"#utility.yul\":1586:1590   */\n      dup2\n        /* \"#utility.yul\":1582:1597   */\n      add\n        /* \"#utility.yul\":1574:1597   */\n      swap1\n      pop\n        /* \"#utility.yul\":1296:1604   */\n      swap2\n      swap1\n      pop\n      jump\t// out\n        /* \"#utility.yul\":1610:1756   */\n    tag_45:\n        /* \"#utility.yul\":1707:1713   */\n      dup3\n        /* \"#utility.yul\":1702:1705   */\n      dup2\n        /* \"#utility.yul\":1697:1700   */\n      dup4\n        /* \"#utility.yul\":1684:1714   */\n      calldatacopy\n        /* \"#utility.yul\":1748:1749   */\n      0x00\n        /* \"#utility.yul\":1739:1745   */\n      dup4\n        /* \"#utility.yul\":1734:1737   */\n      dup4\n        /* \"#utility.yul\":1730:1746   */\n      add\n        /* \"#utility.yul\":1723:1750   */\n      mstore\n        /* \"#utility.yul\":1610:1756   */\n      pop\n      pop\n      pop\n      jump\t// out\n        /* \"#utility.yul\":1762:2187   */\n    tag_46:\n        /* \"#utility.yul\":1840:1845   */\n      0x00\n        /* \"#utility.yul\":1865:1931   */\n      tag_85\n        /* \"#utility.yul\":1881:1930   */\n      tag_86\n        /* \"#utility.yul\":1923:1929   */\n      dup5\n        /* \"#utility.yul\":1881:1930   */\n      tag_44\n      jump\t// in\n    tag_86:\n        /* \"#utility.yul\":1865:1931   */\n      tag_43\n      jump\t// in\n    tag_85:\n        /* \"#utility.yul\":1856:1931   */\n      swap1\n      pop\n        /* \"#utility.yul\":1954:1960   */\n      dup3\n        /* \"#utility.yul\":1947:1952   */\n      dup2\n        /* \"#utility.yul\":1940:1961   */\n      mstore\n        /* \"#utility.yul\":1992:1996   */\n      0x20\n        /* \"#utility.yul\":1985:1990   */\n      dup2\n        /* \"#utility.yul\":1981:1997   */\n      add\n        /* \"#utility.yul\":2030:2033   */\n      dup5\n        /* \"#utility.yul\":2021:2027   */\n      dup5\n        /* \"#utility.yul\":2016:2019   */\n      dup5\n        /* \"#utility.yul\":2012:2028   */\n      add\n        /* \"#utility.yul\":2009:2034   */\n      gt\n        /* \"#utility.yul\":2006:2118   */\n      iszero\n      tag_87\n      jumpi\n        /* \"#utility.yul\":2037:2116   */\n      tag_88\n      tag_39\n      jump\t// in\n    tag_88:\n        /* \"#utility.yul\":2006:2118   */\n    tag_87:\n        /* \"#utility.yul\":2127:2181   */\n      tag_89\n        /* \"#utility.yul\":2174:2180   */\n      dup5\n        /* \"#utility.yul\":2169:2172   */\n      dup3\n        /* \"#utility.yul\":2164:2167   */\n      dup6\n        /* \"#utility.yul\":2127:2181   */\n      tag_45\n      jump\t// in\n    tag_89:\n        /* \"#utility.yul\":1846:2187   */\n      pop\n        /* \"#utility.yul\":1762:2187   */\n      swap4\n      swap3\n      pop\n      pop\n      pop\n      jump\t// out\n        /* \"#utility.yul\":2207:2547   */\n    tag_47:\n        /* \"#utility.yul\":2263:2268   */\n      0x00\n        /* \"#utility.yul\":2312:2315   */\n      dup3\n        /* \"#utility.yul\":2305:2309   */\n      0x1f\n        /* \"#utility.yul\":2297:2303   */\n      dup4\n        /* \"#utility.yul\":2293:2310   */\n      add\n        /* \"#utility.yul\":2289:2316   */\n      slt\n        /* \"#utility.yul\":2279:2401   */\n      tag_91\n      jumpi\n        /* \"#utility.yul\":2320:2399   */\n      tag_92\n      tag_38\n      jump\t// in\n    tag_92:\n        /* \"#utility.yul\":2279:2401   */\n    tag_91:\n        /* \"#utility.yul\":2437:2443   */\n      dup2\n        /* \"#utility.yul\":2424:2444   */\n      calldataload\n        /* \"#utility.yul\":2462:2541   */\n      tag_93\n        /* \"#utility.yul\":2537:2540   */\n      dup5\n        /* \"#utility.yul\":2529:2535   */\n      dup3\n        /* \"#utility.yul\":2522:2526   */\n      0x20\n        /* \"#utility.yul\":2514:2520   */\n      dup7\n        /* \"#utility.yul\":2510:2527   */\n      add\n        /* \"#utility.yul\":2462:2541   */\n      tag_46\n      jump\t// in\n    tag_93:\n        /* \"#utility.yul\":2453:2541   */\n      swap2\n      pop\n        /* \"#utility.yul\":2269:2547   */\n      pop\n        /* \"#utility.yul\":2207:2547   */\n      swap3\n      swap2\n      pop\n      pop\n      jump\t// out\n        /* \"#utility.yul\":2553:3062   */\n    tag_8:\n        /* \"#utility.yul\":2622:2628   */\n      0x00\n        /* \"#utility.yul\":2671:2673   */\n      0x20\n        /* \"#utility.yul\":2659:2668   */\n      dup3\n        /* \"#utility.yul\":2650:2657   */\n      dup5\n        /* \"#utility.yul\":2646:2669   */\n      sub\n        /* \"#utility.yul\":2642:2674   */\n      slt\n        /* \"#utility.yul\":2639:2758   */\n      iszero\n      tag_95\n      jumpi\n        /* \"#utility.yul\":2677:2756   */\n      tag_96\n      tag_36\n      jump\t// in\n    tag_96:\n        /* \"#utility.yul\":2639:2758   */\n    tag_95:\n        /* \"#utility.yul\":2825:2826   */\n      0x00\n        /* \"#utility.yul\":2814:2823   */\n      dup3\n        /* \"#utility.yul\":2810:2827   */\n      add\n        /* \"#utility.yul\":2797:2828   */\n      calldataload\n        /* \"#utility.yul\":2855:2873   */\n      0xffffffffffffffff\n        /* \"#utility.yul\":2847:2853   */\n      dup2\n        /* \"#utility.yul\":2844:2874   */\n      gt\n        /* \"#utility.yul\":2841:2958   */\n      iszero\n      tag_97\n      jumpi\n        /* \"#utility.yul\":2877:2956   */\n      tag_98\n      tag_37\n      jump\t// in\n    tag_98:\n        /* \"#utility.yul\":2841:2958   */\n    tag_97:\n        /* \"#utility.yul\":2982:3045   */\n      tag_99\n        /* \"#utility.yul\":3037:3044   */\n      dup5\n        /* \"#utility.yul\":3028:3034   */\n      dup3\n        /* \"#utility.yul\":3017:3026   */\n      dup6\n        /* \"#utility.yul\":3013:3035   */\n      add\n        /* \"#utility.yul\":2982:3045   */\n      tag_47\n      jump\t// in\n    tag_99:\n        /* \"#utility.yul\":2972:3045   */\n      swap2\n      pop\n        /* \"#utility.yul\":2768:3055   */\n      pop\n        /* \"#utility.yul\":2553:3062   */\n      swap3\n      swap2\n      pop\n      pop\n      jump\t// out\n        /* \"#utility.yul\":3068:3158   */\n    tag_48:\n        /* \"#utility.yul\":3102:3109   */\n      0x00\n        /* \"#utility.yul\":3145:3150   */\n      dup2\n        /* \"#utility.yul\":3138:3151   */\n      iszero\n        /* \"#utility.yul\":3131:3152   */\n      iszero\n        /* \"#utility.yul\":3120:3152   */\n      swap1\n      pop\n        /* \"#utility.yul\":3068:3158   */\n      swap2\n      swap1\n      pop\n      jump\t// out\n        /* \"#utility.yul\":3164:3273   */\n    tag_49:\n        /* \"#utility.yul\":3245:3266   */\n      tag_102\n        /* \"#utility.yul\":3260:3265   */\n      dup2\n        /* \"#utility.yul\":3245:3266   */\n      tag_48\n      jump\t// in\n    tag_102:\n        /* \"#utility.yul\":3240:3243   */\n      dup3\n        /* \"#utility.yul\":3233:3267   */\n      mstore\n        /* \"#utility.yul\":3164:3273   */\n      pop\n      pop\n      jump\t// out\n        /* \"#utility.yul\":3279:3489   */\n    tag_11:\n        /* \"#utility.yul\":3366:3370   */\n      0x00\n        /* \"#utility.yul\":3404:3406   */\n      0x20\n        /* \"#utility.yul\":3393:3402   */\n      dup3\n        /* \"#utility.yul\":3389:3407   */\n      add\n        /* \"#utility.yul\":3381:3407   */\n      swap1\n      pop\n        /* \"#utility.yul\":3417:3482   */\n      tag_104\n        /* \"#utility.yul\":3479:3480   */\n      0x00\n        /* \"#utility.yul\":3468:3477   */\n      dup4\n        /* \"#utility.yul\":3464:3481   */\n      add\n        /* \"#utility.yul\":3455:3461   */\n      dup5\n        /* \"#utility.yul\":3417:3482   */\n      tag_49\n      jump\t// in\n    tag_104:\n        /* \"#utility.yul\":3279:3489   */\n      swap3\n      swap2\n      pop\n      pop\n      jump\t// out\n        /* \"#utility.yul\":3495:3572   */\n    tag_50:\n        /* \"#utility.yul\":3532:3539   */\n      0x00\n        /* \"#utility.yul\":3561:3566   */\n      dup2\n        /* \"#utility.yul\":3550:3566   */\n      swap1\n      pop\n        /* \"#utility.yul\":3495:3572   */\n      swap2\n      swap1\n      pop\n      jump\t// out\n        /* \"#utility.yul\":3578:3696   */\n    tag_51:\n        /* \"#utility.yul\":3665:3689   */\n      tag_107\n        /* \"#utility.yul\":3683:3688   */\n      dup2\n        /* \"#utility.yul\":3665:3689   */\n      tag_50\n      jump\t// in\n    tag_107:\n        /* \"#utility.yul\":3660:3663   */\n      dup3\n        /* \"#utility.yul\":3653:3690   */\n      mstore\n        /* \"#utility.yul\":3578:3696   */\n      pop\n      pop\n      jump\t// out\n        /* \"#utility.yul\":3702:3924   */\n    tag_16:\n        /* \"#utility.yul\":3795:3799   */\n      0x00\n        /* \"#utility.yul\":3833:3835   */\n      0x20\n        /* \"#utility.yul\":3822:3831   */\n      dup3\n        /* \"#utility.yul\":3818:3836   */\n      add\n        /* \"#utility.yul\":3810:3836   */\n      swap1\n      pop\n        /* \"#utility.yul\":3846:3917   */\n      tag_109\n        /* \"#utility.yul\":3914:3915   */\n      0x00\n        /* \"#utility.yul\":3903:3912   */\n      dup4\n        /* \"#utility.yul\":3899:3916   */\n      add\n        /* \"#utility.yul\":3890:3896   */\n      dup5\n        /* \"#utility.yul\":3846:3917   */\n      tag_51\n      jump\t// in\n    tag_109:\n        /* \"#utility.yul\":3702:3924   */\n      swap3\n      swap2\n      pop\n      pop\n      jump\t// out\n        /* \"#utility.yul\":3930:4007   */\n    tag_52:\n        /* \"#utility.yul\":3967:3974   */\n      0x00\n        /* \"#utility.yul\":3996:4001   */\n      dup2\n        /* \"#utility.yul\":3985:4001   */\n      swap1\n      pop\n        /* \"#utility.yul\":3930:4007   */\n      swap2\n      swap1\n      pop\n      jump\t// out\n        /* \"#utility.yul\":4013:4135   */\n    tag_53:\n        /* \"#utility.yul\":4086:4110   */\n      tag_112\n        /* \"#utility.yul\":4104:4109   */\n      dup2\n        /* \"#utility.yul\":4086:4110   */\n      tag_52\n      jump\t// in\n    tag_112:\n        /* \"#utility.yul\":4079:4084   */\n      dup2\n        /* \"#utility.yul\":4076:4111   */\n      eq\n        /* \"#utility.yul\":4066:4129   */\n      tag_113\n      jumpi\n        /* \"#utility.yul\":4125:4126   */\n      0x00\n        /* \"#utility.yul\":4122:4123   */\n      dup1\n        /* \"#utility.yul\":4115:4127   */\n      revert\n        /* \"#utility.yul\":4066:4129   */\n    tag_113:\n        /* \"#utility.yul\":4013:4135   */\n      pop\n      jump\t// out\n        /* \"#utility.yul\":4141:4280   */\n    tag_54:\n        /* \"#utility.yul\":4187:4192   */\n      0x00\n        /* \"#utility.yul\":4225:4231   */\n      dup2\n        /* \"#utility.yul\":4212:4232   */\n      calldataload\n        /* \"#utility.yul\":4203:4232   */\n      swap1\n      pop\n        /* \"#utility.yul\":4241:4274   */\n      tag_115\n        /* \"#utility.yul\":4268:4273   */\n      dup2\n        /* \"#utility.yul\":4241:4274   */\n      tag_53\n      jump\t// in\n    tag_115:\n        /* \"#utility.yul\":4141:4280   */\n      swap3\n      swap2\n      pop\n      pop\n      jump\t// out\n        /* \"#utility.yul\":4286:4615   */\n    tag_19:\n        /* \"#utility.yul\":4345:4351   */\n      0x00\n        /* \"#utility.yul\":4394:4396   */\n      0x20\n        /* \"#utility.yul\":4382:4391   */\n      dup3\n        /* \"#utility.yul\":4373:4380   */\n      dup5\n        /* \"#utility.yul\":4369:4392   */\n      sub\n        /* \"#utility.yul\":4365:4397   */\n      slt\n        /* \"#utility.yul\":4362:4481   */\n      iszero\n      tag_117\n      jumpi\n        /* \"#utility.yul\":4400:4479   */\n      tag_118\n      tag_36\n      jump\t// in\n    tag_118:\n        /* \"#utility.yul\":4362:4481   */\n    tag_117:\n        /* \"#utility.yul\":4520:4521   */\n      0x00\n        /* \"#utility.yul\":4545:4598   */\n      tag_119\n        /* \"#utility.yul\":4590:4597   */\n      dup5\n        /* \"#utility.yul\":4581:4587   */\n      dup3\n        /* \"#utility.yul\":4570:4579   */\n      dup6\n        /* \"#utility.yul\":4566:4588   */\n      add\n        /* \"#utility.yul\":4545:4598   */\n      tag_54\n      jump\t// in\n    tag_119:\n        /* \"#utility.yul\":4535:4598   */\n      swap2\n      pop\n        /* \"#utility.yul\":4491:4608   */\n      pop\n        /* \"#utility.yul\":4286:4615   */\n      swap3\n      swap2\n      pop\n      pop\n      jump\t// out\n        /* \"#utility.yul\":4621:4739   */\n    tag_55:\n        /* \"#utility.yul\":4708:4732   */\n      tag_121\n        /* \"#utility.yul\":4726:4731   */\n      dup2\n        /* \"#utility.yul\":4708:4732   */\n      tag_52\n      jump\t// in\n    tag_121:\n        /* \"#utility.yul\":4703:4706   */\n      dup3\n        /* \"#utility.yul\":4696:4733   */\n      mstore\n        /* \"#utility.yul\":4621:4739   */\n      pop\n      pop\n      jump\t// out\n        /* \"#utility.yul\":4745:4967   */\n    tag_22:\n        /* \"#utility.yul\":4838:4842   */\n      0x00\n        /* \"#utility.yul\":4876:4878   */\n      0x20\n        /* \"#utility.yul\":4865:4874   */\n      dup3\n        /* \"#utility.yul\":4861:4879   */\n      add\n        /* \"#utility.yul\":4853:4879   */\n      swap1\n      pop\n        /* \"#utility.yul\":4889:4960   */\n      tag_123\n        /* \"#utility.yul\":4957:4958   */\n      0x00\n        /* \"#utility.yul\":4946:4955   */\n      dup4\n        /* \"#utility.yul\":4942:4959   */\n      add\n        /* \"#utility.yul\":4933:4939   */\n      dup5\n        /* \"#utility.yul\":4889:4960   */\n      tag_55\n      jump\t// in\n    tag_123:\n        /* \"#utility.yul\":4745:4967   */\n      swap3\n      swap2\n      pop\n      pop\n      jump\t// out\n        /* \"#utility.yul\":4973:5072   */\n    tag_56:\n        /* \"#utility.yul\":5025:5031   */\n      0x00\n        /* \"#utility.yul\":5059:5064   */\n      dup2\n        /* \"#utility.yul\":5053:5065   */\n      mload\n        /* \"#utility.yul\":5043:5065   */\n      swap1\n      pop\n        /* \"#utility.yul\":4973:5072   */\n      swap2\n      swap1\n      pop\n      jump\t// out\n        /* \"#utility.yul\":5078:5226   */\n    tag_57:\n        /* \"#utility.yul\":5180:5191   */\n      0x00\n        /* \"#utility.yul\":5217:5220   */\n      dup2\n        /* \"#utility.yul\":5202:5220   */\n      swap1\n      pop\n        /* \"#utility.yul\":5078:5226   */\n      swap3\n      swap2\n      pop\n      pop\n      jump\t// out\n        /* \"#utility.yul\":5232:5478   */\n    tag_58:\n        /* \"#utility.yul\":5313:5314   */\n      0x00\n        /* \"#utility.yul\":5323:5436   */\n    tag_127:\n        /* \"#utility.yul\":5337:5343   */\n      dup4\n        /* \"#utility.yul\":5334:5335   */\n      dup2\n        /* \"#utility.yul\":5331:5344   */\n      lt\n        /* \"#utility.yul\":5323:5436   */\n      iszero\n      tag_129\n      jumpi\n        /* \"#utility.yul\":5422:5423   */\n      dup1\n        /* \"#utility.yul\":5417:5420   */\n      dup3\n        /* \"#utility.yul\":5413:5424   */\n      add\n        /* \"#utility.yul\":5407:5425   */\n      mload\n        /* \"#utility.yul\":5403:5404   */\n      dup2\n        /* \"#utility.yul\":5398:5401   */\n      dup5\n        /* \"#utility.yul\":5394:5405   */\n      add\n        /* \"#utility.yul\":5387:5426   */\n      mstore\n        /* \"#utility.yul\":5359:5361   */\n      0x20\n        /* \"#utility.yul\":5356:5357   */\n      dup2\n        /* \"#utility.yul\":5352:5362   */\n      add\n        /* \"#utility.yul\":5347:5362   */\n      swap1\n      pop\n        /* \"#utility.yul\":5323:5436   */\n      jump(tag_127)\n    tag_129:\n        /* \"#utility.yul\":5470:5471   */\n      0x00\n        /* \"#utility.yul\":5461:5467   */\n      dup5\n        /* \"#utility.yul\":5456:5459   */\n      dup5\n        /* \"#utility.yul\":5452:5468   */\n      add\n        /* \"#utility.yul\":5445:5472   */\n      mstore\n        /* \"#utility.yul\":5294:5478   */\n      pop\n        /* \"#utility.yul\":5232:5478   */\n      pop\n      pop\n      pop\n      jump\t// out\n        /* \"#utility.yul\":5484:5874   */\n    tag_59:\n        /* \"#utility.yul\":5590:5593   */\n      0x00\n        /* \"#utility.yul\":5618:5657   */\n      tag_131\n        /* \"#utility.yul\":5651:5656   */\n      dup3\n        /* \"#utility.yul\":5618:5657   */\n      tag_56\n      jump\t// in\n    tag_131:\n        /* \"#utility.yul\":5673:5762   */\n      tag_132\n        /* \"#utility.yul\":5755:5761   */\n      dup2\n        /* \"#utility.yul\":5750:5753   */\n      dup6\n        /* \"#utility.yul\":5673:5762   */\n      tag_57\n      jump\t// in\n    tag_132:\n        /* \"#utility.yul\":5666:5762   */\n      swap4\n      pop\n        /* \"#utility.yul\":5771:5836   */\n      tag_133\n        /* \"#utility.yul\":5829:5835   */\n      dup2\n        /* \"#utility.yul\":5824:5827   */\n      dup6\n        /* \"#utility.yul\":5817:5821   */\n      0x20\n        /* \"#utility.yul\":5810:5815   */\n      dup7\n        /* \"#utility.yul\":5806:5822   */\n      add\n        /* \"#utility.yul\":5771:5836   */\n      tag_58\n      jump\t// in\n    tag_133:\n        /* \"#utility.yul\":5861:5867   */\n      dup1\n        /* \"#utility.yul\":5856:5859   */\n      dup5\n        /* \"#utility.yul\":5852:5868   */\n      add\n        /* \"#utility.yul\":5845:5868   */\n      swap2\n      pop\n        /* \"#utility.yul\":5594:5874   */\n      pop\n        /* \"#utility.yul\":5484:5874   */\n      swap3\n      swap2\n      pop\n      pop\n      jump\t// out\n        /* \"#utility.yul\":5880:6155   */\n    tag_28:\n        /* \"#utility.yul\":6012:6015   */\n      0x00\n        /* \"#utility.yul\":6034:6129   */\n      tag_135\n        /* \"#utility.yul\":6125:6128   */\n      dup3\n        /* \"#utility.yul\":6116:6122   */\n      dup5\n        /* \"#utility.yul\":6034:6129   */\n      tag_59\n      jump\t// in\n    tag_135:\n        /* \"#utility.yul\":6027:6129   */\n      swap2\n      pop\n        /* \"#utility.yul\":6146:6149   */\n      dup2\n        /* \"#utility.yul\":6139:6149   */\n      swap1\n      pop\n        /* \"#utility.yul\":5880:6155   */\n      swap3\n      swap2\n      pop\n      pop\n      jump\t// out\n        /* \"#utility.yul\":6161:6330   */\n    tag_60:\n        /* \"#utility.yul\":6245:6256   */\n      0x00\n        /* \"#utility.yul\":6279:6285   */\n      dup3\n        /* \"#utility.yul\":6274:6277   */\n      dup3\n        /* \"#utility.yul\":6267:6286   */\n      mstore\n        /* \"#utility.yul\":6319:6323   */\n      0x20\n        /* \"#utility.yul\":6314:6317   */\n      dup3\n        /* \"#utility.yul\":6310:6324   */\n      add\n        /* \"#utility.yul\":6295:6324   */\n      swap1\n      pop\n        /* \"#utility.yul\":6161:6330   */\n      swap3\n      swap2\n      pop\n      pop\n      jump\t// out\n        /* \"#utility.yul\":6336:6515   */\n    tag_61:\n        /* \"#utility.yul\":6476:6507   */\n      0x696e7075742073686f756c64206265206c6f776572207468616e203130000000\n        /* \"#utility.yul\":6472:6473   */\n      0x00\n        /* \"#utility.yul\":6464:6470   */\n      dup3\n        /* \"#utility.yul\":6460:6474   */\n      add\n        /* \"#utility.yul\":6453:6508   */\n      mstore\n        /* \"#utility.yul\":6336:6515   */\n      pop\n      jump\t// out\n        /* \"#utility.yul\":6521:6887   */\n    tag_62:\n        /* \"#utility.yul\":6663:6666   */\n      0x00\n        /* \"#utility.yul\":6684:6751   */\n      tag_139\n        /* \"#utility.yul\":6748:6750   */\n      0x1d\n        /* \"#utility.yul\":6743:6746   */\n      dup4\n        /* \"#utility.yul\":6684:6751   */\n      tag_60\n      jump\t// in\n    tag_139:\n        /* \"#utility.yul\":6677:6751   */\n      swap2\n      pop\n        /* \"#utility.yul\":6760:6853   */\n      tag_140\n        /* \"#utility.yul\":6849:6852   */\n      dup3\n        /* \"#utility.yul\":6760:6853   */\n      tag_61\n      jump\t// in\n    tag_140:\n        /* \"#utility.yul\":6878:6880   */\n      0x20\n        /* \"#utility.yul\":6873:6876   */\n      dup3\n        /* \"#utility.yul\":6869:6881   */\n      add\n        /* \"#utility.yul\":6862:6881   */\n      swap1\n      pop\n        /* \"#utility.yul\":6521:6887   */\n      swap2\n      swap1\n      pop\n      jump\t// out\n        /* \"#utility.yul\":6893:7312   */\n    tag_32:\n        /* \"#utility.yul\":7059:7063   */\n      0x00\n        /* \"#utility.yul\":7097:7099   */\n      0x20\n        /* \"#utility.yul\":7086:7095   */\n      dup3\n        /* \"#utility.yul\":7082:7100   */\n      add\n        /* \"#utility.yul\":7074:7100   */\n      swap1\n      pop\n        /* \"#utility.yul\":7146:7155   */\n      dup2\n        /* \"#utility.yul\":7140:7144   */\n      dup2\n        /* \"#utility.yul\":7136:7156   */\n      sub\n        /* \"#utility.yul\":7132:7133   */\n      0x00\n        /* \"#utility.yul\":7121:7130   */\n      dup4\n        /* \"#utility.yul\":7117:7134   */\n      add\n        /* \"#utility.yul\":7110:7157   */\n      mstore\n        /* \"#utility.yul\":7174:7305   */\n      tag_142\n        /* \"#utility.yul\":7300:7304   */\n      dup2\n        /* \"#utility.yul\":7174:7305   */\n      tag_62\n      jump\t// in\n    tag_142:\n        /* \"#utility.yul\":7166:7305   */\n      swap1\n      pop\n        /* \"#utility.yul\":6893:7312   */\n      swap2\n      swap1\n      pop\n      jump\t// out\n        /* \"#utility.yul\":7318:7498   */\n    tag_63:\n        /* \"#utility.yul\":7366:7443   */\n      0x4e487b7100000000000000000000000000000000000000000000000000000000\n        /* \"#utility.yul\":7363:7364   */\n      0x00\n        /* \"#utility.yul\":7356:7444   */\n      mstore\n        /* \"#utility.yul\":7463:7467   */\n      0x11\n        /* \"#utility.yul\":7460:7461   */\n      0x04\n        /* \"#utility.yul\":7453:7468   */\n      mstore\n        /* \"#utility.yul\":7487:7491   */\n      0x24\n        /* \"#utility.yul\":7484:7485   */\n      0x00\n        /* \"#utility.yul\":7477:7492   */\n      revert\n        /* \"#utility.yul\":7504:7914   */\n    tag_34:\n        /* \"#utility.yul\":7544:7551   */\n      0x00\n        /* \"#utility.yul\":7567:7587   */\n      tag_145\n        /* \"#utility.yul\":7585:7586   */\n      dup3\n        /* \"#utility.yul\":7567:7587   */\n      tag_52\n      jump\t// in\n    tag_145:\n        /* \"#utility.yul\":7562:7587   */\n      swap2\n      pop\n        /* \"#utility.yul\":7601:7621   */\n      tag_146\n        /* \"#utility.yul\":7619:7620   */\n      dup4\n        /* \"#utility.yul\":7601:7621   */\n      tag_52\n      jump\t// in\n    tag_146:\n        /* \"#utility.yul\":7596:7621   */\n      swap3\n      pop\n        /* \"#utility.yul\":7656:7657   */\n      dup3\n        /* \"#utility.yul\":7653:7654   */\n      dup3\n        /* \"#utility.yul\":7649:7658   */\n      mul\n        /* \"#utility.yul\":7678:7708   */\n      tag_147\n        /* \"#utility.yul\":7696:7707   */\n      dup2\n        /* \"#utility.yul\":7678:7708   */\n      tag_52\n      jump\t// in\n    tag_147:\n        /* \"#utility.yul\":7667:7708   */\n      swap2\n      pop\n        /* \"#utility.yul\":7857:7858   */\n      dup3\n        /* \"#utility.yul\":7848:7855   */\n      dup3\n        /* \"#utility.yul\":7844:7859   */\n      div\n        /* \"#utility.yul\":7841:7842   */\n      dup5\n        /* \"#utility.yul\":7838:7860   */\n      eq\n        /* \"#utility.yul\":7818:7819   */\n      dup4\n        /* \"#utility.yul\":7811:7820   */\n      iszero\n        /* \"#utility.yul\":7791:7874   */\n      or\n        /* \"#utility.yul\":7768:7907   */\n      tag_148\n      jumpi\n        /* \"#utility.yul\":7887:7905   */\n      tag_149\n      tag_63\n      jump\t// in\n    tag_149:\n        /* \"#utility.yul\":7768:7907   */\n    tag_148:\n        /* \"#utility.yul\":7552:7914   */\n      pop\n        /* \"#utility.yul\":7504:7914   */\n      swap3\n      swap2\n      pop\n      pop\n      jump\t// out\n\n    auxdata: 0xa26469706673582212207d421a7d81cdfddf721f88ac640570b61af9422f73a49db1040dec21ff1da5c664736f6c63430008120033\n}\n",
				"bytecode": {
					"linkReferences": {},
					"object": "608060405234801561001057600080fd5b506105e7806100206000396000f3fe608060405234801561001057600080fd5b50600436106100415760003560e01c806365a8832b146100465780636932cf8114610076578063d792b544146100a6575b600080fd5b610060600480360381019061005b91906102fb565b6100d6565b60405161006d919061035f565b60405180910390f35b610090600480360381019061008b91906102fb565b610118565b60405161009d9190610393565b60405180910390f35b6100c060048036038101906100bb91906103e4565b610148565b6040516100cd9190610420565b60405180910390f35b60007f9c0257114eb9399a2985f8e75dad7600c5d89fe3824ffa99ec1c3eb8bf3b050160001b61010583610118565b1461010f57600080fd5b60019050919050565b60008160405160200161012b91906104ac565b604051602081830303815290604052805190602001209050919050565b6000600a821061018d576040517f08c379a000000000000000000000000000000000000000000000000000000000815260040161018490610520565b60405180910390fd5b60038261019a919061056f565b9050919050565b6000604051905090565b600080fd5b600080fd5b600080fd5b600080fd5b6000601f19601f8301169050919050565b7f4e487b7100000000000000000000000000000000000000000000000000000000600052604160045260246000fd5b610208826101bf565b810181811067ffffffffffffffff82111715610227576102266101d0565b5b80604052505050565b600061023a6101a1565b905061024682826101ff565b919050565b600067ffffffffffffffff821115610266576102656101d0565b5b61026f826101bf565b9050602081019050919050565b82818337600083830152505050565b600061029e6102998461024b565b610230565b9050828152602081018484840111156102ba576102b96101ba565b5b6102c584828561027c565b509392505050565b600082601f8301126102e2576102e16101b5565b5b81356102f284826020860161028b565b91505092915050565b600060208284031215610311576103106101ab565b5b600082013567ffffffffffffffff81111561032f5761032e6101b0565b5b61033b848285016102cd565b91505092915050565b60008115159050919050565b61035981610344565b82525050565b60006020820190506103746000830184610350565b92915050565b6000819050919050565b61038d8161037a565b82525050565b60006020820190506103a86000830184610384565b92915050565b6000819050919050565b6103c1816103ae565b81146103cc57600080fd5b50565b6000813590506103de816103b8565b92915050565b6000602082840312156103fa576103f96101ab565b5b6000610408848285016103cf565b91505092915050565b61041a816103ae565b82525050565b60006020820190506104356000830184610411565b92915050565b600081519050919050565b600081905092915050565b60005b8381101561046f578082015181840152602081019050610454565b60008484015250505050565b60006104868261043b565b6104908185610446565b93506104a0818560208601610451565b80840191505092915050565b60006104b8828461047b565b915081905092915050565b600082825260208201905092915050565b7f696e7075742073686f756c64206265206c6f776572207468616e203130000000600082015250565b600061050a601d836104c3565b9150610515826104d4565b602082019050919050565b60006020820190508181036000830152610539816104fd565b9050919050565b7f4e487b7100000000000000000000000000000000000000000000000000000000600052601160045260246000fd5b600061057a826103ae565b9150610585836103ae565b9250828202610593816103ae565b915082820484148315176105aa576105a9610540565b5b509291505056fea26469706673582212207d421a7d81cdfddf721f88ac640570b61af9422f73a49db1040dec21ff1da5c664736f6c63430008120033",
					"opcodes": "PUSH1 0x80 PUSH1 0x40 MSTORE CALLVALUE DUP1 ISZERO PUSH2 0x10 JUMPI PUSH1 0x0 DUP1 REVERT JUMPDEST POP PUSH2 0x5E7 DUP1 PUSH2 0x20 PUSH1 0x0 CODECOPY PUSH1 0x0 RETURN INVALID PUSH1 0x80 PUSH1 0x40 MSTORE CALLVALUE DUP1 ISZERO PUSH2 0x10 JUMPI PUSH1 0x0 DUP1 REVERT JUMPDEST POP PUSH1 0x4 CALLDATASIZE LT PUSH2 0x41 JUMPI PUSH1 0x0 CALLDATALOAD PUSH1 0xE0 SHR DUP1 PUSH4 0x65A8832B EQ PUSH2 0x46 JUMPI DUP1 PUSH4 0x6932CF81 EQ PUSH2 0x76 JUMPI DUP1 PUSH4 0xD792B544 EQ PUSH2 0xA6 JUMPI JUMPDEST PUSH1 0x0 DUP1 REVERT JUMPDEST PUSH2 0x60 PUSH1 0x4 DUP1 CALLDATASIZE SUB DUP2 ADD SWAP1 PUSH2 0x5B SWAP2 SWAP1 PUSH2 0x2FB JUMP JUMPDEST PUSH2 0xD6 JUMP JUMPDEST PUSH1 0x40 MLOAD PUSH2 0x6D SWAP2 SWAP1 PUSH2 0x35F JUMP JUMPDEST PUSH1 0x40 MLOAD DUP1 SWAP2 SUB SWAP1 RETURN JUMPDEST PUSH2 0x90 PUSH1 0x4 DUP1 CALLDATASIZE SUB DUP2 ADD SWAP1 PUSH2 0x8B SWAP2 SWAP1 PUSH2 0x2FB JUMP JUMPDEST PUSH2 0x118 JUMP JUMPDEST PUSH1 0x40 MLOAD PUSH2 0x9D SWAP2 SWAP1 PUSH2 0x393 JUMP JUMPDEST PUSH1 0x40 MLOAD DUP1 SWAP2 SUB SWAP1 RETURN JUMPDEST PUSH2 0xC0 PUSH1 0x4 DUP1 CALLDATASIZE SUB DUP2 ADD SWAP1 PUSH2 0xBB SWAP2 SWAP1 PUSH2 0x3E4 JUMP JUMPDEST PUSH2 0x148 JUMP JUMPDEST PUSH1 0x40 MLOAD PUSH2 0xCD SWAP2 SWAP1 PUSH2 0x420 JUMP JUMPDEST PUSH1 0x40 MLOAD DUP1 SWAP2 SUB SWAP1 RETURN JUMPDEST PUSH1 0x0 PUSH32 0x9C0257114EB9399A2985F8E75DAD7600C5D89FE3824FFA99EC1C3EB8BF3B0501 PUSH1 0x0 SHL PUSH2 0x105 DUP4 PUSH2 0x118 JUMP JUMPDEST EQ PUSH2 0x10F JUMPI PUSH1 0x0 DUP1 REVERT JUMPDEST PUSH1 0x1 SWAP1 POP SWAP2 SWAP1 POP JUMP JUMPDEST PUSH1 0x0 DUP2 PUSH1 0x40 MLOAD PUSH1 0x20 ADD PUSH2 0x12B SWAP2 SWAP1 PUSH2 0x4AC JUMP JUMPDEST PUSH1 0x40 MLOAD PUSH1 0x20 DUP2 DUP4 SUB SUB DUP2 MSTORE SWAP1 PUSH1 0x40 MSTORE DUP1 MLOAD SWAP1 PUSH1 0x20 ADD KECCAK256 SWAP1 POP SWAP2 SWAP1 POP JUMP JUMPDEST PUSH1 0x0 PUSH1 0xA DUP3 LT PUSH2 0x18D JUMPI PUSH1 0x40 MLOAD PUSH32 0x8C379A000000000000000000000000000000000000000000000000000000000 DUP2 MSTORE PUSH1 0x4 ADD PUSH2 0x184 SWAP1 PUSH2 0x520 JUMP JUMPDEST PUSH1 0x40 MLOAD DUP1 SWAP2 SUB SWAP1 REVERT JUMPDEST PUSH1 0x3 DUP3 PUSH2 0x19A SWAP2 SWAP1 PUSH2 0x56F JUMP JUMPDEST SWAP1 POP SWAP2 SWAP1 POP JUMP JUMPDEST PUSH1 0x0 PUSH1 0x40 MLOAD SWAP1 POP SWAP1 JUMP JUMPDEST PUSH1 0x0 DUP1 REVERT JUMPDEST PUSH1 0x0 DUP1 REVERT JUMPDEST PUSH1 0x0 DUP1 REVERT JUMPDEST PUSH1 0x0 DUP1 REVERT JUMPDEST PUSH1 0x0 PUSH1 0x1F NOT PUSH1 0x1F DUP4 ADD AND SWAP1 POP SWAP2 SWAP1 POP JUMP JUMPDEST PUSH32 0x4E487B7100000000000000000000000000000000000000000000000000000000 PUSH1 0x0 MSTORE PUSH1 0x41 PUSH1 0x4 MSTORE PUSH1 0x24 PUSH1 0x0 REVERT JUMPDEST PUSH2 0x208 DUP3 PUSH2 0x1BF JUMP JUMPDEST DUP2 ADD DUP2 DUP2 LT PUSH8 0xFFFFFFFFFFFFFFFF DUP3 GT OR ISZERO PUSH2 0x227 JUMPI PUSH2 0x226 PUSH2 0x1D0 JUMP JUMPDEST JUMPDEST DUP1 PUSH1 0x40 MSTORE POP POP POP JUMP JUMPDEST PUSH1 0x0 PUSH2 0x23A PUSH2 0x1A1 JUMP JUMPDEST SWAP1 POP PUSH2 0x246 DUP3 DUP3 PUSH2 0x1FF JUMP JUMPDEST SWAP2 SWAP1 POP JUMP JUMPDEST PUSH1 0x0 PUSH8 0xFFFFFFFFFFFFFFFF DUP3 GT ISZERO PUSH2 0x266 JUMPI PUSH2 0x265 PUSH2 0x1D0 JUMP JUMPDEST JUMPDEST PUSH2 0x26F DUP3 PUSH2 0x1BF JUMP JUMPDEST SWAP1 POP PUSH1 0x20 DUP2 ADD SWAP1 POP SWAP2 SWAP1 POP JUMP JUMPDEST DUP3 DUP2 DUP4 CALLDATACOPY PUSH1 0x0 DUP4 DUP4 ADD MSTORE POP POP POP JUMP JUMPDEST PUSH1 0x0 PUSH2 0x29E PUSH2 0x299 DUP5 PUSH2 0x24B JUMP JUMPDEST PUSH2 0x230 JUMP JUMPDEST SWAP1 POP DUP3 DUP2 MSTORE PUSH1 0x20 DUP2 ADD DUP5 DUP5 DUP5 ADD GT ISZERO PUSH2 0x2BA JUMPI PUSH2 0x2B9 PUSH2 0x1BA JUMP JUMPDEST JUMPDEST PUSH2 0x2C5 DUP5 DUP3 DUP6 PUSH2 0x27C JUMP JUMPDEST POP SWAP4 SWAP3 POP POP POP JUMP JUMPDEST PUSH1 0x0 DUP3 PUSH1 0x1F DUP4 ADD SLT PUSH2 0x2E2 JUMPI PUSH2 0x2E1 PUSH2 0x1B5 JUMP JUMPDEST JUMPDEST DUP2 CALLDATALOAD PUSH2 0x2F2 DUP5 DUP3 PUSH1 0x20 DUP7 ADD PUSH2 0x28B JUMP JUMPDEST SWAP2 POP POP SWAP3 SWAP2 POP POP JUMP JUMPDEST PUSH1 0x0 PUSH1 0x20 DUP3 DUP5 SUB SLT ISZERO PUSH2 0x311 JUMPI PUSH2 0x310 PUSH2 0x1AB JUMP JUMPDEST JUMPDEST PUSH1 0x0 DUP3 ADD CALLDATALOAD PUSH8 0xFFFFFFFFFFFFFFFF DUP2 GT ISZERO PUSH2 0x32F JUMPI PUSH2 0x32E PUSH2 0x1B0 JUMP JUMPDEST JUMPDEST PUSH2 0x33B DUP5 DUP3 DUP6 ADD PUSH2 0x2CD JUMP JUMPDEST SWAP2 POP POP SWAP3 SWAP2 POP POP JUMP JUMPDEST PUSH1 0x0 DUP2 ISZERO ISZERO SWAP1 POP SWAP2 SWAP1 POP JUMP JUMPDEST PUSH2 0x359 DUP2 PUSH2 0x344 JUMP JUMPDEST DUP3 MSTORE POP POP JUMP JUMPDEST PUSH1 0x0 PUSH1 0x20 DUP3 ADD SWAP1 POP PUSH2 0x374 PUSH1 0x0 DUP4 ADD DUP5 PUSH2 0x350 JUMP JUMPDEST SWAP3 SWAP2 POP POP JUMP JUMPDEST PUSH1 0x0 DUP2 SWAP1 POP SWAP2 SWAP1 POP JUMP JUMPDEST PUSH2 0x38D DUP2 PUSH2 0x37A JUMP JUMPDEST DUP3 MSTORE POP POP JUMP JUMPDEST PUSH1 0x0 PUSH1 0x20 DUP3 ADD SWAP1 POP PUSH2 0x3A8 PUSH1 0x0 DUP4 ADD DUP5 PUSH2 0x384 JUMP JUMPDEST SWAP3 SWAP2 POP POP JUMP JUMPDEST PUSH1 0x0 DUP2 SWAP1 POP SWAP2 SWAP1 POP JUMP JUMPDEST PUSH2 0x3C1 DUP2 PUSH2 0x3AE JUMP JUMPDEST DUP2 EQ PUSH2 0x3CC JUMPI PUSH1 0x0 DUP1 REVERT JUMPDEST POP JUMP JUMPDEST PUSH1 0x0 DUP2 CALLDATALOAD SWAP1 POP PUSH2 0x3DE DUP2 PUSH2 0x3B8 JUMP JUMPDEST SWAP3 SWAP2 POP POP JUMP JUMPDEST PUSH1 0x0 PUSH1 0x20 DUP3 DUP5 SUB SLT ISZERO PUSH2 0x3FA JUMPI PUSH2 0x3F9 PUSH2 0x1AB JUMP JUMPDEST JUMPDEST PUSH1 0x0 PUSH2 0x408 DUP5 DUP3 DUP6 ADD PUSH2 0x3CF JUMP JUMPDEST SWAP2 POP POP SWAP3 SWAP2 POP POP JUMP JUMPDEST PUSH2 0x41A DUP2 PUSH2 0x3AE JUMP JUMPDEST DUP3 MSTORE POP POP JUMP JUMPDEST PUSH1 0x0 PUSH1 0x20 DUP3 ADD SWAP1 POP PUSH2 0x435 PUSH1 0x0 DUP4 ADD DUP5 PUSH2 0x411 JUMP JUMPDEST SWAP3 SWAP2 POP POP JUMP JUMPDEST PUSH1 0x0 DUP2 MLOAD SWAP1 POP SWAP2 SWAP1 POP JUMP JUMPDEST PUSH1 0x0 DUP2 SWAP1 POP SWAP3 SWAP2 POP POP JUMP JUMPDEST PUSH1 0x0 JUMPDEST DUP4 DUP2 LT ISZERO PUSH2 0x46F JUMPI DUP1 DUP3 ADD MLOAD DUP2 DUP5 ADD MSTORE PUSH1 0x20 DUP2 ADD SWAP1 POP PUSH2 0x454 JUMP JUMPDEST PUSH1 0x0 DUP5 DUP5 ADD MSTORE POP POP POP POP JUMP JUMPDEST PUSH1 0x0 PUSH2 0x486 DUP3 PUSH2 0x43B JUMP JUMPDEST PUSH2 0x490 DUP2 DUP6 PUSH2 0x446 JUMP JUMPDEST SWAP4 POP PUSH2 0x4A0 DUP2 DUP6 PUSH1 0x20 DUP7 ADD PUSH2 0x451 JUMP JUMPDEST DUP1 DUP5 ADD SWAP2 POP POP SWAP3 SWAP2 POP POP JUMP JUMPDEST PUSH1 0x0 PUSH2 0x4B8 DUP3 DUP5 PUSH2 0x47B JUMP JUMPDEST SWAP2 POP DUP2 SWAP1 POP SWAP3 SWAP2 POP POP JUMP JUMPDEST PUSH1 0x0 DUP3 DUP3 MSTORE PUSH1 0x20 DUP3 ADD SWAP1 POP SWAP3 SWAP2 POP POP JUMP JUMPDEST PUSH32 0x696E7075742073686F756C64206265206C6F776572207468616E203130000000 PUSH1 0x0 DUP3 ADD MSTORE POP JUMP JUMPDEST PUSH1 0x0 PUSH2 0x50A PUSH1 0x1D DUP4 PUSH2 0x4C3 JUMP JUMPDEST SWAP2 POP PUSH2 0x515 DUP3 PUSH2 0x4D4 JUMP JUMPDEST PUSH1 0x20 DUP3 ADD SWAP1 POP SWAP2 SWAP1 POP JUMP JUMPDEST PUSH1 0x0 PUSH1 0x20 DUP3 ADD SWAP1 POP DUP2 DUP2 SUB PUSH1 0x0 DUP4 ADD MSTORE PUSH2 0x539 DUP2 PUSH2 0x4FD JUMP JUMPDEST SWAP1 POP SWAP2 SWAP1 POP JUMP JUMPDEST PUSH32 0x4E487B7100000000000000000000000000000000000000000000000000000000 PUSH1 0x0 MSTORE PUSH1 0x11 PUSH1 0x4 MSTORE PUSH1 0x24 PUSH1 0x0 REVERT JUMPDEST PUSH1 0x0 PUSH2 0x57A DUP3 PUSH2 0x3AE JUMP JUMPDEST SWAP2 POP PUSH2 0x585 DUP4 PUSH2 0x3AE JUMP JUMPDEST SWAP3 POP DUP3 DUP3 MUL PUSH2 0x593 DUP2 PUSH2 0x3AE JUMP JUMPDEST SWAP2 POP DUP3 DUP3 DIV DUP5 EQ DUP4 ISZERO OR PUSH2 0x5AA JUMPI PUSH2 0x5A9 PUSH2 0x540 JUMP JUMPDEST JUMPDEST POP SWAP3 SWAP2 POP POP JUMP INVALID LOG2 PUSH5 0x6970667358 0x22 SLT KECCAK256 PUSH30 0x421A7D81CDFDDF721F88AC640570B61AF9422F73A49DB1040DEC21FF1DA5 0xC6 PUSH5 0x736F6C6343 STOP ADDMOD SLT STOP CALLER "
				},
				"gasEstimates": {
					"creation": {
						"codeDepositCost": "302200",
						"executionCost": "343",
						"totalCost": "302543"
					},
					"external": {
						"Require(uint256)": "infinite",
						"getName(string)": "infinite",
						"onlyAlice(string)": "infinite"
					}
				},
				"methodIdentifiers": {
					"Require(uint256)": "d792b544",
					"getName(string)": "6932cf81",
					"onlyAlice(string)": "65a8832b"
				}
			},
			"storageLayout": {
				"storage": [],
				"types": null
			},
			"userdoc": {
				"kind": "user",
				"methods": {},
				"version": 1
			}
		}
	}
}