{
	"contracts/0512/Quiz2.sol": {
		"Solution": {
			"abi": [
				{
					"inputs": [
						{
							"internalType": "string",
							"name": "_ID",
							"type": "string"
						},
						{
							"internalType": "string",
							"name": "_PW",
							"type": "string"
						}
					],
					"name": "Login",
					"outputs": [
						{
							"internalType": "bool",
							"name": "",
							"type": "bool"
						}
					],
					"stateMutability": "view",
					"type": "function"
				},
				{
					"inputs": [
						{
							"internalType": "string",
							"name": "_ID",
							"type": "string"
						}
					],
					"name": "Login2",
					"outputs": [
						{
							"internalType": "bytes32",
							"name": "",
							"type": "bytes32"
						}
					],
					"stateMutability": "view",
					"type": "function"
				},
				{
					"inputs": [
						{
							"internalType": "string",
							"name": "_ID",
							"type": "string"
						},
						{
							"internalType": "string",
							"name": "_PW",
							"type": "string"
						}
					],
					"name": "SignIn",
					"outputs": [],
					"stateMutability": "nonpayable",
					"type": "function"
				}
			],
			"devdoc": {
				"kind": "dev",
				"methods": {},
				"version": 1
			},
			"evm": {
				"assembly": "    /* \"contracts/0512/Quiz2.sol\":802:3020  contract Solution {... */\n  mstore(0x40, 0x80)\n  callvalue\n  dup1\n  iszero\n  tag_1\n  jumpi\n  0x00\n  dup1\n  revert\ntag_1:\n  pop\n  dataSize(sub_0)\n  dup1\n  dataOffset(sub_0)\n  0x00\n  codecopy\n  0x00\n  return\nstop\n\nsub_0: assembly {\n        /* \"contracts/0512/Quiz2.sol\":802:3020  contract Solution {... */\n      mstore(0x40, 0x80)\n      callvalue\n      dup1\n      iszero\n      tag_1\n      jumpi\n      0x00\n      dup1\n      revert\n    tag_1:\n      pop\n      jumpi(tag_2, lt(calldatasize, 0x04))\n      shr(0xe0, calldataload(0x00))\n      dup1\n      0x2c3f5a2f\n      eq\n      tag_3\n      jumpi\n      dup1\n      0x3c4dd143\n      eq\n      tag_4\n      jumpi\n      dup1\n      0xccef4218\n      eq\n      tag_5\n      jumpi\n    tag_2:\n      0x00\n      dup1\n      revert\n        /* \"contracts/0512/Quiz2.sol\":2550:2650  function Login2(string memory _ID) public view returns(bytes32) {... */\n    tag_3:\n      tag_6\n      0x04\n      dup1\n      calldatasize\n      sub\n      dup2\n      add\n      swap1\n      tag_7\n      swap2\n      swap1\n      tag_8\n      jump\t// in\n    tag_7:\n      tag_9\n      jump\t// in\n    tag_6:\n      mload(0x40)\n      tag_10\n      swap2\n      swap1\n      tag_11\n      jump\t// in\n    tag_10:\n      mload(0x40)\n      dup1\n      swap2\n      sub\n      swap1\n      return\n        /* \"contracts/0512/Quiz2.sol\":2733:2862  function SignIn(string memory _ID, string memory _PW) public {... */\n    tag_4:\n      tag_12\n      0x04\n      dup1\n      calldatasize\n      sub\n      dup2\n      add\n      swap1\n      tag_13\n      swap2\n      swap1\n      tag_14\n      jump\t// in\n    tag_13:\n      tag_15\n      jump\t// in\n    tag_12:\n      stop\n        /* \"contracts/0512/Quiz2.sol\":2319:2544  function Login(string memory _ID, string memory _PW) public view returns (bool){... */\n    tag_5:\n      tag_16\n      0x04\n      dup1\n      calldatasize\n      sub\n      dup2\n      add\n      swap1\n      tag_17\n      swap2\n      swap1\n      tag_14\n      jump\t// in\n    tag_17:\n      tag_18\n      jump\t// in\n    tag_16:\n      mload(0x40)\n      tag_19\n      swap2\n      swap1\n      tag_20\n      jump\t// in\n    tag_19:\n      mload(0x40)\n      dup1\n      swap2\n      sub\n      swap1\n      return\n        /* \"contracts/0512/Quiz2.sol\":2550:2650  function Login2(string memory _ID) public view returns(bytes32) {... */\n    tag_9:\n        /* \"contracts/0512/Quiz2.sol\":2605:2612  bytes32 */\n      0x00\n        /* \"contracts/0512/Quiz2.sol\":2632:2637  ID_PW */\n      dup1\n        /* \"contracts/0512/Quiz2.sol\":2638:2641  _ID */\n      dup3\n        /* \"contracts/0512/Quiz2.sol\":2632:2642  ID_PW[_ID] */\n      mload(0x40)\n      tag_22\n      swap2\n      swap1\n      tag_23\n      jump\t// in\n    tag_22:\n      swap1\n      dup2\n      mstore\n      0x20\n      add\n      mload(0x40)\n      dup1\n      swap2\n      sub\n      swap1\n      keccak256\n      sload\n        /* \"contracts/0512/Quiz2.sol\":2625:2642  return ID_PW[_ID] */\n      swap1\n      pop\n        /* \"contracts/0512/Quiz2.sol\":2550:2650  function Login2(string memory _ID) public view returns(bytes32) {... */\n      swap2\n      swap1\n      pop\n      jump\t// out\n        /* \"contracts/0512/Quiz2.sol\":2733:2862  function SignIn(string memory _ID, string memory _PW) public {... */\n    tag_15:\n        /* \"contracts/0512/Quiz2.sol\":2845:2848  _ID */\n      dup2\n        /* \"contracts/0512/Quiz2.sol\":2849:2852  _PW */\n      dup2\n        /* \"contracts/0512/Quiz2.sol\":2828:2853  abi.encodePacked(_ID,_PW) */\n      add(0x20, mload(0x40))\n      tag_25\n      swap3\n      swap2\n      swap1\n      tag_26\n      jump\t// in\n    tag_25:\n      mload(0x40)\n      0x20\n      dup2\n      dup4\n      sub\n      sub\n      dup2\n      mstore\n      swap1\n      0x40\n      mstore\n        /* \"contracts/0512/Quiz2.sol\":2818:2854  keccak256(abi.encodePacked(_ID,_PW)) */\n      dup1\n      mload\n      swap1\n      0x20\n      add\n      keccak256\n        /* \"contracts/0512/Quiz2.sol\":2805:2810  ID_PW */\n      0x00\n        /* \"contracts/0512/Quiz2.sol\":2811:2814  _ID */\n      dup4\n        /* \"contracts/0512/Quiz2.sol\":2805:2815  ID_PW[_ID] */\n      mload(0x40)\n      tag_27\n      swap2\n      swap1\n      tag_23\n      jump\t// in\n    tag_27:\n      swap1\n      dup2\n      mstore\n      0x20\n      add\n      mload(0x40)\n      dup1\n      swap2\n      sub\n      swap1\n      keccak256\n        /* \"contracts/0512/Quiz2.sol\":2805:2854  ID_PW[_ID] = keccak256(abi.encodePacked(_ID,_PW)) */\n      dup2\n      swap1\n      sstore\n      pop\n        /* \"contracts/0512/Quiz2.sol\":2733:2862  function SignIn(string memory _ID, string memory _PW) public {... */\n      pop\n      pop\n      jump\t// out\n        /* \"contracts/0512/Quiz2.sol\":2319:2544  function Login(string memory _ID, string memory _PW) public view returns (bool){... */\n    tag_18:\n        /* \"contracts/0512/Quiz2.sol\":2393:2397  bool */\n      0x00\n        /* \"contracts/0512/Quiz2.sol\":2527:2530  _ID */\n      dup3\n        /* \"contracts/0512/Quiz2.sol\":2531:2534  _PW */\n      dup3\n        /* \"contracts/0512/Quiz2.sol\":2510:2535  abi.encodePacked(_ID,_PW) */\n      add(0x20, mload(0x40))\n      tag_29\n      swap3\n      swap2\n      swap1\n      tag_26\n      jump\t// in\n    tag_29:\n      mload(0x40)\n      0x20\n      dup2\n      dup4\n      sub\n      sub\n      dup2\n      mstore\n      swap1\n      0x40\n      mstore\n        /* \"contracts/0512/Quiz2.sol\":2500:2536  keccak256(abi.encodePacked(_ID,_PW)) */\n      dup1\n      mload\n      swap1\n      0x20\n      add\n      keccak256\n        /* \"contracts/0512/Quiz2.sol\":2486:2491  ID_PW */\n      0x00\n        /* \"contracts/0512/Quiz2.sol\":2492:2495  _ID */\n      dup5\n        /* \"contracts/0512/Quiz2.sol\":2486:2496  ID_PW[_ID] */\n      mload(0x40)\n      tag_30\n      swap2\n      swap1\n      tag_23\n      jump\t// in\n    tag_30:\n      swap1\n      dup2\n      mstore\n      0x20\n      add\n      mload(0x40)\n      dup1\n      swap2\n      sub\n      swap1\n      keccak256\n      sload\n        /* \"contracts/0512/Quiz2.sol\":2486:2536  ID_PW[_ID] == keccak256(abi.encodePacked(_ID,_PW)) */\n      eq\n        /* \"contracts/0512/Quiz2.sol\":2479:2536  return ID_PW[_ID] == keccak256(abi.encodePacked(_ID,_PW)) */\n      swap1\n      pop\n        /* \"contracts/0512/Quiz2.sol\":2319:2544  function Login(string memory _ID, string memory _PW) public view returns (bool){... */\n      swap3\n      swap2\n      pop\n      pop\n      jump\t// out\n        /* \"#utility.yul\":7:82   */\n    tag_31:\n        /* \"#utility.yul\":40:46   */\n      0x00\n        /* \"#utility.yul\":73:75   */\n      0x40\n        /* \"#utility.yul\":67:76   */\n      mload\n        /* \"#utility.yul\":57:76   */\n      swap1\n      pop\n        /* \"#utility.yul\":7:82   */\n      swap1\n      jump\t// out\n        /* \"#utility.yul\":88:205   */\n    tag_32:\n        /* \"#utility.yul\":197:198   */\n      0x00\n        /* \"#utility.yul\":194:195   */\n      dup1\n        /* \"#utility.yul\":187:199   */\n      revert\n        /* \"#utility.yul\":211:328   */\n    tag_33:\n        /* \"#utility.yul\":320:321   */\n      0x00\n        /* \"#utility.yul\":317:318   */\n      dup1\n        /* \"#utility.yul\":310:322   */\n      revert\n        /* \"#utility.yul\":334:451   */\n    tag_34:\n        /* \"#utility.yul\":443:444   */\n      0x00\n        /* \"#utility.yul\":440:441   */\n      dup1\n        /* \"#utility.yul\":433:445   */\n      revert\n        /* \"#utility.yul\":457:574   */\n    tag_35:\n        /* \"#utility.yul\":566:567   */\n      0x00\n        /* \"#utility.yul\":563:564   */\n      dup1\n        /* \"#utility.yul\":556:568   */\n      revert\n        /* \"#utility.yul\":580:682   */\n    tag_36:\n        /* \"#utility.yul\":621:627   */\n      0x00\n        /* \"#utility.yul\":672:674   */\n      0x1f\n        /* \"#utility.yul\":668:675   */\n      not\n        /* \"#utility.yul\":663:665   */\n      0x1f\n        /* \"#utility.yul\":656:661   */\n      dup4\n        /* \"#utility.yul\":652:666   */\n      add\n        /* \"#utility.yul\":648:676   */\n      and\n        /* \"#utility.yul\":638:676   */\n      swap1\n      pop\n        /* \"#utility.yul\":580:682   */\n      swap2\n      swap1\n      pop\n      jump\t// out\n        /* \"#utility.yul\":688:868   */\n    tag_37:\n        /* \"#utility.yul\":736:813   */\n      0x4e487b7100000000000000000000000000000000000000000000000000000000\n        /* \"#utility.yul\":733:734   */\n      0x00\n        /* \"#utility.yul\":726:814   */\n      mstore\n        /* \"#utility.yul\":833:837   */\n      0x41\n        /* \"#utility.yul\":830:831   */\n      0x04\n        /* \"#utility.yul\":823:838   */\n      mstore\n        /* \"#utility.yul\":857:861   */\n      0x24\n        /* \"#utility.yul\":854:855   */\n      0x00\n        /* \"#utility.yul\":847:862   */\n      revert\n        /* \"#utility.yul\":874:1155   */\n    tag_38:\n        /* \"#utility.yul\":957:984   */\n      tag_61\n        /* \"#utility.yul\":979:983   */\n      dup3\n        /* \"#utility.yul\":957:984   */\n      tag_36\n      jump\t// in\n    tag_61:\n        /* \"#utility.yul\":949:955   */\n      dup2\n        /* \"#utility.yul\":945:985   */\n      add\n        /* \"#utility.yul\":1087:1093   */\n      dup2\n        /* \"#utility.yul\":1075:1085   */\n      dup2\n        /* \"#utility.yul\":1072:1094   */\n      lt\n        /* \"#utility.yul\":1051:1069   */\n      0xffffffffffffffff\n        /* \"#utility.yul\":1039:1049   */\n      dup3\n        /* \"#utility.yul\":1036:1070   */\n      gt\n        /* \"#utility.yul\":1033:1095   */\n      or\n        /* \"#utility.yul\":1030:1118   */\n      iszero\n      tag_62\n      jumpi\n        /* \"#utility.yul\":1098:1116   */\n      tag_63\n      tag_37\n      jump\t// in\n    tag_63:\n        /* \"#utility.yul\":1030:1118   */\n    tag_62:\n        /* \"#utility.yul\":1138:1148   */\n      dup1\n        /* \"#utility.yul\":1134:1136   */\n      0x40\n        /* \"#utility.yul\":1127:1149   */\n      mstore\n        /* \"#utility.yul\":917:1155   */\n      pop\n        /* \"#utility.yul\":874:1155   */\n      pop\n      pop\n      jump\t// out\n        /* \"#utility.yul\":1161:1290   */\n    tag_39:\n        /* \"#utility.yul\":1195:1201   */\n      0x00\n        /* \"#utility.yul\":1222:1242   */\n      tag_65\n      tag_31\n      jump\t// in\n    tag_65:\n        /* \"#utility.yul\":1212:1242   */\n      swap1\n      pop\n        /* \"#utility.yul\":1251:1284   */\n      tag_66\n        /* \"#utility.yul\":1279:1283   */\n      dup3\n        /* \"#utility.yul\":1271:1277   */\n      dup3\n        /* \"#utility.yul\":1251:1284   */\n      tag_38\n      jump\t// in\n    tag_66:\n        /* \"#utility.yul\":1161:1290   */\n      swap2\n      swap1\n      pop\n      jump\t// out\n        /* \"#utility.yul\":1296:1604   */\n    tag_40:\n        /* \"#utility.yul\":1358:1362   */\n      0x00\n        /* \"#utility.yul\":1448:1466   */\n      0xffffffffffffffff\n        /* \"#utility.yul\":1440:1446   */\n      dup3\n        /* \"#utility.yul\":1437:1467   */\n      gt\n        /* \"#utility.yul\":1434:1490   */\n      iszero\n      tag_68\n      jumpi\n        /* \"#utility.yul\":1470:1488   */\n      tag_69\n      tag_37\n      jump\t// in\n    tag_69:\n        /* \"#utility.yul\":1434:1490   */\n    tag_68:\n        /* \"#utility.yul\":1508:1537   */\n      tag_70\n        /* \"#utility.yul\":1530:1536   */\n      dup3\n        /* \"#utility.yul\":1508:1537   */\n      tag_36\n      jump\t// in\n    tag_70:\n        /* \"#utility.yul\":1500:1537   */\n      swap1\n      pop\n        /* \"#utility.yul\":1592:1596   */\n      0x20\n        /* \"#utility.yul\":1586:1590   */\n      dup2\n        /* \"#utility.yul\":1582:1597   */\n      add\n        /* \"#utility.yul\":1574:1597   */\n      swap1\n      pop\n        /* \"#utility.yul\":1296:1604   */\n      swap2\n      swap1\n      pop\n      jump\t// out\n        /* \"#utility.yul\":1610:1756   */\n    tag_41:\n        /* \"#utility.yul\":1707:1713   */\n      dup3\n        /* \"#utility.yul\":1702:1705   */\n      dup2\n        /* \"#utility.yul\":1697:1700   */\n      dup4\n        /* \"#utility.yul\":1684:1714   */\n      calldatacopy\n        /* \"#utility.yul\":1748:1749   */\n      0x00\n        /* \"#utility.yul\":1739:1745   */\n      dup4\n        /* \"#utility.yul\":1734:1737   */\n      dup4\n        /* \"#utility.yul\":1730:1746   */\n      add\n        /* \"#utility.yul\":1723:1750   */\n      mstore\n        /* \"#utility.yul\":1610:1756   */\n      pop\n      pop\n      pop\n      jump\t// out\n        /* \"#utility.yul\":1762:2187   */\n    tag_42:\n        /* \"#utility.yul\":1840:1845   */\n      0x00\n        /* \"#utility.yul\":1865:1931   */\n      tag_73\n        /* \"#utility.yul\":1881:1930   */\n      tag_74\n        /* \"#utility.yul\":1923:1929   */\n      dup5\n        /* \"#utility.yul\":1881:1930   */\n      tag_40\n      jump\t// in\n    tag_74:\n        /* \"#utility.yul\":1865:1931   */\n      tag_39\n      jump\t// in\n    tag_73:\n        /* \"#utility.yul\":1856:1931   */\n      swap1\n      pop\n        /* \"#utility.yul\":1954:1960   */\n      dup3\n        /* \"#utility.yul\":1947:1952   */\n      dup2\n        /* \"#utility.yul\":1940:1961   */\n      mstore\n        /* \"#utility.yul\":1992:1996   */\n      0x20\n        /* \"#utility.yul\":1985:1990   */\n      dup2\n        /* \"#utility.yul\":1981:1997   */\n      add\n        /* \"#utility.yul\":2030:2033   */\n      dup5\n        /* \"#utility.yul\":2021:2027   */\n      dup5\n        /* \"#utility.yul\":2016:2019   */\n      dup5\n        /* \"#utility.yul\":2012:2028   */\n      add\n        /* \"#utility.yul\":2009:2034   */\n      gt\n        /* \"#utility.yul\":2006:2118   */\n      iszero\n      tag_75\n      jumpi\n        /* \"#utility.yul\":2037:2116   */\n      tag_76\n      tag_35\n      jump\t// in\n    tag_76:\n        /* \"#utility.yul\":2006:2118   */\n    tag_75:\n        /* \"#utility.yul\":2127:2181   */\n      tag_77\n        /* \"#utility.yul\":2174:2180   */\n      dup5\n        /* \"#utility.yul\":2169:2172   */\n      dup3\n        /* \"#utility.yul\":2164:2167   */\n      dup6\n        /* \"#utility.yul\":2127:2181   */\n      tag_41\n      jump\t// in\n    tag_77:\n        /* \"#utility.yul\":1846:2187   */\n      pop\n        /* \"#utility.yul\":1762:2187   */\n      swap4\n      swap3\n      pop\n      pop\n      pop\n      jump\t// out\n        /* \"#utility.yul\":2207:2547   */\n    tag_43:\n        /* \"#utility.yul\":2263:2268   */\n      0x00\n        /* \"#utility.yul\":2312:2315   */\n      dup3\n        /* \"#utility.yul\":2305:2309   */\n      0x1f\n        /* \"#utility.yul\":2297:2303   */\n      dup4\n        /* \"#utility.yul\":2293:2310   */\n      add\n        /* \"#utility.yul\":2289:2316   */\n      slt\n        /* \"#utility.yul\":2279:2401   */\n      tag_79\n      jumpi\n        /* \"#utility.yul\":2320:2399   */\n      tag_80\n      tag_34\n      jump\t// in\n    tag_80:\n        /* \"#utility.yul\":2279:2401   */\n    tag_79:\n        /* \"#utility.yul\":2437:2443   */\n      dup2\n        /* \"#utility.yul\":2424:2444   */\n      calldataload\n        /* \"#utility.yul\":2462:2541   */\n      tag_81\n        /* \"#utility.yul\":2537:2540   */\n      dup5\n        /* \"#utility.yul\":2529:2535   */\n      dup3\n        /* \"#utility.yul\":2522:2526   */\n      0x20\n        /* \"#utility.yul\":2514:2520   */\n      dup7\n        /* \"#utility.yul\":2510:2527   */\n      add\n        /* \"#utility.yul\":2462:2541   */\n      tag_42\n      jump\t// in\n    tag_81:\n        /* \"#utility.yul\":2453:2541   */\n      swap2\n      pop\n        /* \"#utility.yul\":2269:2547   */\n      pop\n        /* \"#utility.yul\":2207:2547   */\n      swap3\n      swap2\n      pop\n      pop\n      jump\t// out\n        /* \"#utility.yul\":2553:3062   */\n    tag_8:\n        /* \"#utility.yul\":2622:2628   */\n      0x00\n        /* \"#utility.yul\":2671:2673   */\n      0x20\n        /* \"#utility.yul\":2659:2668   */\n      dup3\n        /* \"#utility.yul\":2650:2657   */\n      dup5\n        /* \"#utility.yul\":2646:2669   */\n      sub\n        /* \"#utility.yul\":2642:2674   */\n      slt\n        /* \"#utility.yul\":2639:2758   */\n      iszero\n      tag_83\n      jumpi\n        /* \"#utility.yul\":2677:2756   */\n      tag_84\n      tag_32\n      jump\t// in\n    tag_84:\n        /* \"#utility.yul\":2639:2758   */\n    tag_83:\n        /* \"#utility.yul\":2825:2826   */\n      0x00\n        /* \"#utility.yul\":2814:2823   */\n      dup3\n        /* \"#utility.yul\":2810:2827   */\n      add\n        /* \"#utility.yul\":2797:2828   */\n      calldataload\n        /* \"#utility.yul\":2855:2873   */\n      0xffffffffffffffff\n        /* \"#utility.yul\":2847:2853   */\n      dup2\n        /* \"#utility.yul\":2844:2874   */\n      gt\n        /* \"#utility.yul\":2841:2958   */\n      iszero\n      tag_85\n      jumpi\n        /* \"#utility.yul\":2877:2956   */\n      tag_86\n      tag_33\n      jump\t// in\n    tag_86:\n        /* \"#utility.yul\":2841:2958   */\n    tag_85:\n        /* \"#utility.yul\":2982:3045   */\n      tag_87\n        /* \"#utility.yul\":3037:3044   */\n      dup5\n        /* \"#utility.yul\":3028:3034   */\n      dup3\n        /* \"#utility.yul\":3017:3026   */\n      dup6\n        /* \"#utility.yul\":3013:3035   */\n      add\n        /* \"#utility.yul\":2982:3045   */\n      tag_43\n      jump\t// in\n    tag_87:\n        /* \"#utility.yul\":2972:3045   */\n      swap2\n      pop\n        /* \"#utility.yul\":2768:3055   */\n      pop\n        /* \"#utility.yul\":2553:3062   */\n      swap3\n      swap2\n      pop\n      pop\n      jump\t// out\n        /* \"#utility.yul\":3068:3145   */\n    tag_44:\n        /* \"#utility.yul\":3105:3112   */\n      0x00\n        /* \"#utility.yul\":3134:3139   */\n      dup2\n        /* \"#utility.yul\":3123:3139   */\n      swap1\n      pop\n        /* \"#utility.yul\":3068:3145   */\n      swap2\n      swap1\n      pop\n      jump\t// out\n        /* \"#utility.yul\":3151:3269   */\n    tag_45:\n        /* \"#utility.yul\":3238:3262   */\n      tag_90\n        /* \"#utility.yul\":3256:3261   */\n      dup2\n        /* \"#utility.yul\":3238:3262   */\n      tag_44\n      jump\t// in\n    tag_90:\n        /* \"#utility.yul\":3233:3236   */\n      dup3\n        /* \"#utility.yul\":3226:3263   */\n      mstore\n        /* \"#utility.yul\":3151:3269   */\n      pop\n      pop\n      jump\t// out\n        /* \"#utility.yul\":3275:3497   */\n    tag_11:\n        /* \"#utility.yul\":3368:3372   */\n      0x00\n        /* \"#utility.yul\":3406:3408   */\n      0x20\n        /* \"#utility.yul\":3395:3404   */\n      dup3\n        /* \"#utility.yul\":3391:3409   */\n      add\n        /* \"#utility.yul\":3383:3409   */\n      swap1\n      pop\n        /* \"#utility.yul\":3419:3490   */\n      tag_92\n        /* \"#utility.yul\":3487:3488   */\n      0x00\n        /* \"#utility.yul\":3476:3485   */\n      dup4\n        /* \"#utility.yul\":3472:3489   */\n      add\n        /* \"#utility.yul\":3463:3469   */\n      dup5\n        /* \"#utility.yul\":3419:3490   */\n      tag_45\n      jump\t// in\n    tag_92:\n        /* \"#utility.yul\":3275:3497   */\n      swap3\n      swap2\n      pop\n      pop\n      jump\t// out\n        /* \"#utility.yul\":3503:4337   */\n    tag_14:\n        /* \"#utility.yul\":3591:3597   */\n      0x00\n        /* \"#utility.yul\":3599:3605   */\n      dup1\n        /* \"#utility.yul\":3648:3650   */\n      0x40\n        /* \"#utility.yul\":3636:3645   */\n      dup4\n        /* \"#utility.yul\":3627:3634   */\n      dup6\n        /* \"#utility.yul\":3623:3646   */\n      sub\n        /* \"#utility.yul\":3619:3651   */\n      slt\n        /* \"#utility.yul\":3616:3735   */\n      iszero\n      tag_94\n      jumpi\n        /* \"#utility.yul\":3654:3733   */\n      tag_95\n      tag_32\n      jump\t// in\n    tag_95:\n        /* \"#utility.yul\":3616:3735   */\n    tag_94:\n        /* \"#utility.yul\":3802:3803   */\n      0x00\n        /* \"#utility.yul\":3791:3800   */\n      dup4\n        /* \"#utility.yul\":3787:3804   */\n      add\n        /* \"#utility.yul\":3774:3805   */\n      calldataload\n        /* \"#utility.yul\":3832:3850   */\n      0xffffffffffffffff\n        /* \"#utility.yul\":3824:3830   */\n      dup2\n        /* \"#utility.yul\":3821:3851   */\n      gt\n        /* \"#utility.yul\":3818:3935   */\n      iszero\n      tag_96\n      jumpi\n        /* \"#utility.yul\":3854:3933   */\n      tag_97\n      tag_33\n      jump\t// in\n    tag_97:\n        /* \"#utility.yul\":3818:3935   */\n    tag_96:\n        /* \"#utility.yul\":3959:4022   */\n      tag_98\n        /* \"#utility.yul\":4014:4021   */\n      dup6\n        /* \"#utility.yul\":4005:4011   */\n      dup3\n        /* \"#utility.yul\":3994:4003   */\n      dup7\n        /* \"#utility.yul\":3990:4012   */\n      add\n        /* \"#utility.yul\":3959:4022   */\n      tag_43\n      jump\t// in\n    tag_98:\n        /* \"#utility.yul\":3949:4022   */\n      swap3\n      pop\n        /* \"#utility.yul\":3745:4032   */\n      pop\n        /* \"#utility.yul\":4099:4101   */\n      0x20\n        /* \"#utility.yul\":4088:4097   */\n      dup4\n        /* \"#utility.yul\":4084:4102   */\n      add\n        /* \"#utility.yul\":4071:4103   */\n      calldataload\n        /* \"#utility.yul\":4130:4148   */\n      0xffffffffffffffff\n        /* \"#utility.yul\":4122:4128   */\n      dup2\n        /* \"#utility.yul\":4119:4149   */\n      gt\n        /* \"#utility.yul\":4116:4233   */\n      iszero\n      tag_99\n      jumpi\n        /* \"#utility.yul\":4152:4231   */\n      tag_100\n      tag_33\n      jump\t// in\n    tag_100:\n        /* \"#utility.yul\":4116:4233   */\n    tag_99:\n        /* \"#utility.yul\":4257:4320   */\n      tag_101\n        /* \"#utility.yul\":4312:4319   */\n      dup6\n        /* \"#utility.yul\":4303:4309   */\n      dup3\n        /* \"#utility.yul\":4292:4301   */\n      dup7\n        /* \"#utility.yul\":4288:4310   */\n      add\n        /* \"#utility.yul\":4257:4320   */\n      tag_43\n      jump\t// in\n    tag_101:\n        /* \"#utility.yul\":4247:4320   */\n      swap2\n      pop\n        /* \"#utility.yul\":4042:4330   */\n      pop\n        /* \"#utility.yul\":3503:4337   */\n      swap3\n      pop\n      swap3\n      swap1\n      pop\n      jump\t// out\n        /* \"#utility.yul\":4343:4433   */\n    tag_46:\n        /* \"#utility.yul\":4377:4384   */\n      0x00\n        /* \"#utility.yul\":4420:4425   */\n      dup2\n        /* \"#utility.yul\":4413:4426   */\n      iszero\n        /* \"#utility.yul\":4406:4427   */\n      iszero\n        /* \"#utility.yul\":4395:4427   */\n      swap1\n      pop\n        /* \"#utility.yul\":4343:4433   */\n      swap2\n      swap1\n      pop\n      jump\t// out\n        /* \"#utility.yul\":4439:4548   */\n    tag_47:\n        /* \"#utility.yul\":4520:4541   */\n      tag_104\n        /* \"#utility.yul\":4535:4540   */\n      dup2\n        /* \"#utility.yul\":4520:4541   */\n      tag_46\n      jump\t// in\n    tag_104:\n        /* \"#utility.yul\":4515:4518   */\n      dup3\n        /* \"#utility.yul\":4508:4542   */\n      mstore\n        /* \"#utility.yul\":4439:4548   */\n      pop\n      pop\n      jump\t// out\n        /* \"#utility.yul\":4554:4764   */\n    tag_20:\n        /* \"#utility.yul\":4641:4645   */\n      0x00\n        /* \"#utility.yul\":4679:4681   */\n      0x20\n        /* \"#utility.yul\":4668:4677   */\n      dup3\n        /* \"#utility.yul\":4664:4682   */\n      add\n        /* \"#utility.yul\":4656:4682   */\n      swap1\n      pop\n        /* \"#utility.yul\":4692:4757   */\n      tag_106\n        /* \"#utility.yul\":4754:4755   */\n      0x00\n        /* \"#utility.yul\":4743:4752   */\n      dup4\n        /* \"#utility.yul\":4739:4756   */\n      add\n        /* \"#utility.yul\":4730:4736   */\n      dup5\n        /* \"#utility.yul\":4692:4757   */\n      tag_47\n      jump\t// in\n    tag_106:\n        /* \"#utility.yul\":4554:4764   */\n      swap3\n      swap2\n      pop\n      pop\n      jump\t// out\n        /* \"#utility.yul\":4770:4869   */\n    tag_48:\n        /* \"#utility.yul\":4822:4828   */\n      0x00\n        /* \"#utility.yul\":4856:4861   */\n      dup2\n        /* \"#utility.yul\":4850:4862   */\n      mload\n        /* \"#utility.yul\":4840:4862   */\n      swap1\n      pop\n        /* \"#utility.yul\":4770:4869   */\n      swap2\n      swap1\n      pop\n      jump\t// out\n        /* \"#utility.yul\":4875:5023   */\n    tag_49:\n        /* \"#utility.yul\":4977:4988   */\n      0x00\n        /* \"#utility.yul\":5014:5017   */\n      dup2\n        /* \"#utility.yul\":4999:5017   */\n      swap1\n      pop\n        /* \"#utility.yul\":4875:5023   */\n      swap3\n      swap2\n      pop\n      pop\n      jump\t// out\n        /* \"#utility.yul\":5029:5275   */\n    tag_50:\n        /* \"#utility.yul\":5110:5111   */\n      0x00\n        /* \"#utility.yul\":5120:5233   */\n    tag_110:\n        /* \"#utility.yul\":5134:5140   */\n      dup4\n        /* \"#utility.yul\":5131:5132   */\n      dup2\n        /* \"#utility.yul\":5128:5141   */\n      lt\n        /* \"#utility.yul\":5120:5233   */\n      iszero\n      tag_112\n      jumpi\n        /* \"#utility.yul\":5219:5220   */\n      dup1\n        /* \"#utility.yul\":5214:5217   */\n      dup3\n        /* \"#utility.yul\":5210:5221   */\n      add\n        /* \"#utility.yul\":5204:5222   */\n      mload\n        /* \"#utility.yul\":5200:5201   */\n      dup2\n        /* \"#utility.yul\":5195:5198   */\n      dup5\n        /* \"#utility.yul\":5191:5202   */\n      add\n        /* \"#utility.yul\":5184:5223   */\n      mstore\n        /* \"#utility.yul\":5156:5158   */\n      0x20\n        /* \"#utility.yul\":5153:5154   */\n      dup2\n        /* \"#utility.yul\":5149:5159   */\n      add\n        /* \"#utility.yul\":5144:5159   */\n      swap1\n      pop\n        /* \"#utility.yul\":5120:5233   */\n      jump(tag_110)\n    tag_112:\n        /* \"#utility.yul\":5267:5268   */\n      0x00\n        /* \"#utility.yul\":5258:5264   */\n      dup5\n        /* \"#utility.yul\":5253:5256   */\n      dup5\n        /* \"#utility.yul\":5249:5265   */\n      add\n        /* \"#utility.yul\":5242:5269   */\n      mstore\n        /* \"#utility.yul\":5091:5275   */\n      pop\n        /* \"#utility.yul\":5029:5275   */\n      pop\n      pop\n      pop\n      jump\t// out\n        /* \"#utility.yul\":5281:5671   */\n    tag_51:\n        /* \"#utility.yul\":5387:5390   */\n      0x00\n        /* \"#utility.yul\":5415:5454   */\n      tag_114\n        /* \"#utility.yul\":5448:5453   */\n      dup3\n        /* \"#utility.yul\":5415:5454   */\n      tag_48\n      jump\t// in\n    tag_114:\n        /* \"#utility.yul\":5470:5559   */\n      tag_115\n        /* \"#utility.yul\":5552:5558   */\n      dup2\n        /* \"#utility.yul\":5547:5550   */\n      dup6\n        /* \"#utility.yul\":5470:5559   */\n      tag_49\n      jump\t// in\n    tag_115:\n        /* \"#utility.yul\":5463:5559   */\n      swap4\n      pop\n        /* \"#utility.yul\":5568:5633   */\n      tag_116\n        /* \"#utility.yul\":5626:5632   */\n      dup2\n        /* \"#utility.yul\":5621:5624   */\n      dup6\n        /* \"#utility.yul\":5614:5618   */\n      0x20\n        /* \"#utility.yul\":5607:5612   */\n      dup7\n        /* \"#utility.yul\":5603:5619   */\n      add\n        /* \"#utility.yul\":5568:5633   */\n      tag_50\n      jump\t// in\n    tag_116:\n        /* \"#utility.yul\":5658:5664   */\n      dup1\n        /* \"#utility.yul\":5653:5656   */\n      dup5\n        /* \"#utility.yul\":5649:5665   */\n      add\n        /* \"#utility.yul\":5642:5665   */\n      swap2\n      pop\n        /* \"#utility.yul\":5391:5671   */\n      pop\n        /* \"#utility.yul\":5281:5671   */\n      swap3\n      swap2\n      pop\n      pop\n      jump\t// out\n        /* \"#utility.yul\":5677:5952   */\n    tag_23:\n        /* \"#utility.yul\":5809:5812   */\n      0x00\n        /* \"#utility.yul\":5831:5926   */\n      tag_118\n        /* \"#utility.yul\":5922:5925   */\n      dup3\n        /* \"#utility.yul\":5913:5919   */\n      dup5\n        /* \"#utility.yul\":5831:5926   */\n      tag_51\n      jump\t// in\n    tag_118:\n        /* \"#utility.yul\":5824:5926   */\n      swap2\n      pop\n        /* \"#utility.yul\":5943:5946   */\n      dup2\n        /* \"#utility.yul\":5936:5946   */\n      swap1\n      pop\n        /* \"#utility.yul\":5677:5952   */\n      swap3\n      swap2\n      pop\n      pop\n      jump\t// out\n        /* \"#utility.yul\":5958:6393   */\n    tag_26:\n        /* \"#utility.yul\":6138:6141   */\n      0x00\n        /* \"#utility.yul\":6160:6255   */\n      tag_120\n        /* \"#utility.yul\":6251:6254   */\n      dup3\n        /* \"#utility.yul\":6242:6248   */\n      dup6\n        /* \"#utility.yul\":6160:6255   */\n      tag_51\n      jump\t// in\n    tag_120:\n        /* \"#utility.yul\":6153:6255   */\n      swap2\n      pop\n        /* \"#utility.yul\":6272:6367   */\n      tag_121\n        /* \"#utility.yul\":6363:6366   */\n      dup3\n        /* \"#utility.yul\":6354:6360   */\n      dup5\n        /* \"#utility.yul\":6272:6367   */\n      tag_51\n      jump\t// in\n    tag_121:\n        /* \"#utility.yul\":6265:6367   */\n      swap2\n      pop\n        /* \"#utility.yul\":6384:6387   */\n      dup2\n        /* \"#utility.yul\":6377:6387   */\n      swap1\n      pop\n        /* \"#utility.yul\":5958:6393   */\n      swap4\n      swap3\n      pop\n      pop\n      pop\n      jump\t// out\n\n    auxdata: 0xa264697066735822122050cda4ae476716ea0f2481894a0e9cf2e315f9f3e5f5ddad88e140bd65aef08564736f6c63430008120033\n}\n",
				"bytecode": {
					"linkReferences": {},
					"object": "608060405234801561001057600080fd5b506104f2806100206000396000f3fe608060405234801561001057600080fd5b50600436106100415760003560e01c80632c3f5a2f146100465780633c4dd14314610076578063ccef421814610092575b600080fd5b610060600480360381019061005b91906102e5565b6100c2565b60405161006d9190610347565b60405180910390f35b610090600480360381019061008b9190610362565b6100e9565b005b6100ac60048036038101906100a79190610362565b610138565b6040516100b991906103f5565b60405180910390f35b600080826040516100d39190610481565b9081526020016040518091039020549050919050565b81816040516020016100fc929190610498565b604051602081830303815290604052805190602001206000836040516101229190610481565b9081526020016040518091039020819055505050565b6000828260405160200161014d929190610498565b604051602081830303815290604052805190602001206000846040516101739190610481565b90815260200160405180910390205414905092915050565b6000604051905090565b600080fd5b600080fd5b600080fd5b600080fd5b6000601f19601f8301169050919050565b7f4e487b7100000000000000000000000000000000000000000000000000000000600052604160045260246000fd5b6101f2826101a9565b810181811067ffffffffffffffff82111715610211576102106101ba565b5b80604052505050565b600061022461018b565b905061023082826101e9565b919050565b600067ffffffffffffffff8211156102505761024f6101ba565b5b610259826101a9565b9050602081019050919050565b82818337600083830152505050565b600061028861028384610235565b61021a565b9050828152602081018484840111156102a4576102a36101a4565b5b6102af848285610266565b509392505050565b600082601f8301126102cc576102cb61019f565b5b81356102dc848260208601610275565b91505092915050565b6000602082840312156102fb576102fa610195565b5b600082013567ffffffffffffffff8111156103195761031861019a565b5b610325848285016102b7565b91505092915050565b6000819050919050565b6103418161032e565b82525050565b600060208201905061035c6000830184610338565b92915050565b6000806040838503121561037957610378610195565b5b600083013567ffffffffffffffff8111156103975761039661019a565b5b6103a3858286016102b7565b925050602083013567ffffffffffffffff8111156103c4576103c361019a565b5b6103d0858286016102b7565b9150509250929050565b60008115159050919050565b6103ef816103da565b82525050565b600060208201905061040a60008301846103e6565b92915050565b600081519050919050565b600081905092915050565b60005b83811015610444578082015181840152602081019050610429565b60008484015250505050565b600061045b82610410565b610465818561041b565b9350610475818560208601610426565b80840191505092915050565b600061048d8284610450565b915081905092915050565b60006104a48285610450565b91506104b08284610450565b9150819050939250505056fea264697066735822122050cda4ae476716ea0f2481894a0e9cf2e315f9f3e5f5ddad88e140bd65aef08564736f6c63430008120033",
					"opcodes": "PUSH1 0x80 PUSH1 0x40 MSTORE CALLVALUE DUP1 ISZERO PUSH2 0x10 JUMPI PUSH1 0x0 DUP1 REVERT JUMPDEST POP PUSH2 0x4F2 DUP1 PUSH2 0x20 PUSH1 0x0 CODECOPY PUSH1 0x0 RETURN INVALID PUSH1 0x80 PUSH1 0x40 MSTORE CALLVALUE DUP1 ISZERO PUSH2 0x10 JUMPI PUSH1 0x0 DUP1 REVERT JUMPDEST POP PUSH1 0x4 CALLDATASIZE LT PUSH2 0x41 JUMPI PUSH1 0x0 CALLDATALOAD PUSH1 0xE0 SHR DUP1 PUSH4 0x2C3F5A2F EQ PUSH2 0x46 JUMPI DUP1 PUSH4 0x3C4DD143 EQ PUSH2 0x76 JUMPI DUP1 PUSH4 0xCCEF4218 EQ PUSH2 0x92 JUMPI JUMPDEST PUSH1 0x0 DUP1 REVERT JUMPDEST PUSH2 0x60 PUSH1 0x4 DUP1 CALLDATASIZE SUB DUP2 ADD SWAP1 PUSH2 0x5B SWAP2 SWAP1 PUSH2 0x2E5 JUMP JUMPDEST PUSH2 0xC2 JUMP JUMPDEST PUSH1 0x40 MLOAD PUSH2 0x6D SWAP2 SWAP1 PUSH2 0x347 JUMP JUMPDEST PUSH1 0x40 MLOAD DUP1 SWAP2 SUB SWAP1 RETURN JUMPDEST PUSH2 0x90 PUSH1 0x4 DUP1 CALLDATASIZE SUB DUP2 ADD SWAP1 PUSH2 0x8B SWAP2 SWAP1 PUSH2 0x362 JUMP JUMPDEST PUSH2 0xE9 JUMP JUMPDEST STOP JUMPDEST PUSH2 0xAC PUSH1 0x4 DUP1 CALLDATASIZE SUB DUP2 ADD SWAP1 PUSH2 0xA7 SWAP2 SWAP1 PUSH2 0x362 JUMP JUMPDEST PUSH2 0x138 JUMP JUMPDEST PUSH1 0x40 MLOAD PUSH2 0xB9 SWAP2 SWAP1 PUSH2 0x3F5 JUMP JUMPDEST PUSH1 0x40 MLOAD DUP1 SWAP2 SUB SWAP1 RETURN JUMPDEST PUSH1 0x0 DUP1 DUP3 PUSH1 0x40 MLOAD PUSH2 0xD3 SWAP2 SWAP1 PUSH2 0x481 JUMP JUMPDEST SWAP1 DUP2 MSTORE PUSH1 0x20 ADD PUSH1 0x40 MLOAD DUP1 SWAP2 SUB SWAP1 KECCAK256 SLOAD SWAP1 POP SWAP2 SWAP1 POP JUMP JUMPDEST DUP2 DUP2 PUSH1 0x40 MLOAD PUSH1 0x20 ADD PUSH2 0xFC SWAP3 SWAP2 SWAP1 PUSH2 0x498 JUMP JUMPDEST PUSH1 0x40 MLOAD PUSH1 0x20 DUP2 DUP4 SUB SUB DUP2 MSTORE SWAP1 PUSH1 0x40 MSTORE DUP1 MLOAD SWAP1 PUSH1 0x20 ADD KECCAK256 PUSH1 0x0 DUP4 PUSH1 0x40 MLOAD PUSH2 0x122 SWAP2 SWAP1 PUSH2 0x481 JUMP JUMPDEST SWAP1 DUP2 MSTORE PUSH1 0x20 ADD PUSH1 0x40 MLOAD DUP1 SWAP2 SUB SWAP1 KECCAK256 DUP2 SWAP1 SSTORE POP POP POP JUMP JUMPDEST PUSH1 0x0 DUP3 DUP3 PUSH1 0x40 MLOAD PUSH1 0x20 ADD PUSH2 0x14D SWAP3 SWAP2 SWAP1 PUSH2 0x498 JUMP JUMPDEST PUSH1 0x40 MLOAD PUSH1 0x20 DUP2 DUP4 SUB SUB DUP2 MSTORE SWAP1 PUSH1 0x40 MSTORE DUP1 MLOAD SWAP1 PUSH1 0x20 ADD KECCAK256 PUSH1 0x0 DUP5 PUSH1 0x40 MLOAD PUSH2 0x173 SWAP2 SWAP1 PUSH2 0x481 JUMP JUMPDEST SWAP1 DUP2 MSTORE PUSH1 0x20 ADD PUSH1 0x40 MLOAD DUP1 SWAP2 SUB SWAP1 KECCAK256 SLOAD EQ SWAP1 POP SWAP3 SWAP2 POP POP JUMP JUMPDEST PUSH1 0x0 PUSH1 0x40 MLOAD SWAP1 POP SWAP1 JUMP JUMPDEST PUSH1 0x0 DUP1 REVERT JUMPDEST PUSH1 0x0 DUP1 REVERT JUMPDEST PUSH1 0x0 DUP1 REVERT JUMPDEST PUSH1 0x0 DUP1 REVERT JUMPDEST PUSH1 0x0 PUSH1 0x1F NOT PUSH1 0x1F DUP4 ADD AND SWAP1 POP SWAP2 SWAP1 POP JUMP JUMPDEST PUSH32 0x4E487B7100000000000000000000000000000000000000000000000000000000 PUSH1 0x0 MSTORE PUSH1 0x41 PUSH1 0x4 MSTORE PUSH1 0x24 PUSH1 0x0 REVERT JUMPDEST PUSH2 0x1F2 DUP3 PUSH2 0x1A9 JUMP JUMPDEST DUP2 ADD DUP2 DUP2 LT PUSH8 0xFFFFFFFFFFFFFFFF DUP3 GT OR ISZERO PUSH2 0x211 JUMPI PUSH2 0x210 PUSH2 0x1BA JUMP JUMPDEST JUMPDEST DUP1 PUSH1 0x40 MSTORE POP POP POP JUMP JUMPDEST PUSH1 0x0 PUSH2 0x224 PUSH2 0x18B JUMP JUMPDEST SWAP1 POP PUSH2 0x230 DUP3 DUP3 PUSH2 0x1E9 JUMP JUMPDEST SWAP2 SWAP1 POP JUMP JUMPDEST PUSH1 0x0 PUSH8 0xFFFFFFFFFFFFFFFF DUP3 GT ISZERO PUSH2 0x250 JUMPI PUSH2 0x24F PUSH2 0x1BA JUMP JUMPDEST JUMPDEST PUSH2 0x259 DUP3 PUSH2 0x1A9 JUMP JUMPDEST SWAP1 POP PUSH1 0x20 DUP2 ADD SWAP1 POP SWAP2 SWAP1 POP JUMP JUMPDEST DUP3 DUP2 DUP4 CALLDATACOPY PUSH1 0x0 DUP4 DUP4 ADD MSTORE POP POP POP JUMP JUMPDEST PUSH1 0x0 PUSH2 0x288 PUSH2 0x283 DUP5 PUSH2 0x235 JUMP JUMPDEST PUSH2 0x21A JUMP JUMPDEST SWAP1 POP DUP3 DUP2 MSTORE PUSH1 0x20 DUP2 ADD DUP5 DUP5 DUP5 ADD GT ISZERO PUSH2 0x2A4 JUMPI PUSH2 0x2A3 PUSH2 0x1A4 JUMP JUMPDEST JUMPDEST PUSH2 0x2AF DUP5 DUP3 DUP6 PUSH2 0x266 JUMP JUMPDEST POP SWAP4 SWAP3 POP POP POP JUMP JUMPDEST PUSH1 0x0 DUP3 PUSH1 0x1F DUP4 ADD SLT PUSH2 0x2CC JUMPI PUSH2 0x2CB PUSH2 0x19F JUMP JUMPDEST JUMPDEST DUP2 CALLDATALOAD PUSH2 0x2DC DUP5 DUP3 PUSH1 0x20 DUP7 ADD PUSH2 0x275 JUMP JUMPDEST SWAP2 POP POP SWAP3 SWAP2 POP POP JUMP JUMPDEST PUSH1 0x0 PUSH1 0x20 DUP3 DUP5 SUB SLT ISZERO PUSH2 0x2FB JUMPI PUSH2 0x2FA PUSH2 0x195 JUMP JUMPDEST JUMPDEST PUSH1 0x0 DUP3 ADD CALLDATALOAD PUSH8 0xFFFFFFFFFFFFFFFF DUP2 GT ISZERO PUSH2 0x319 JUMPI PUSH2 0x318 PUSH2 0x19A JUMP JUMPDEST JUMPDEST PUSH2 0x325 DUP5 DUP3 DUP6 ADD PUSH2 0x2B7 JUMP JUMPDEST SWAP2 POP POP SWAP3 SWAP2 POP POP JUMP JUMPDEST PUSH1 0x0 DUP2 SWAP1 POP SWAP2 SWAP1 POP JUMP JUMPDEST PUSH2 0x341 DUP2 PUSH2 0x32E JUMP JUMPDEST DUP3 MSTORE POP POP JUMP JUMPDEST PUSH1 0x0 PUSH1 0x20 DUP3 ADD SWAP1 POP PUSH2 0x35C PUSH1 0x0 DUP4 ADD DUP5 PUSH2 0x338 JUMP JUMPDEST SWAP3 SWAP2 POP POP JUMP JUMPDEST PUSH1 0x0 DUP1 PUSH1 0x40 DUP4 DUP6 SUB SLT ISZERO PUSH2 0x379 JUMPI PUSH2 0x378 PUSH2 0x195 JUMP JUMPDEST JUMPDEST PUSH1 0x0 DUP4 ADD CALLDATALOAD PUSH8 0xFFFFFFFFFFFFFFFF DUP2 GT ISZERO PUSH2 0x397 JUMPI PUSH2 0x396 PUSH2 0x19A JUMP JUMPDEST JUMPDEST PUSH2 0x3A3 DUP6 DUP3 DUP7 ADD PUSH2 0x2B7 JUMP JUMPDEST SWAP3 POP POP PUSH1 0x20 DUP4 ADD CALLDATALOAD PUSH8 0xFFFFFFFFFFFFFFFF DUP2 GT ISZERO PUSH2 0x3C4 JUMPI PUSH2 0x3C3 PUSH2 0x19A JUMP JUMPDEST JUMPDEST PUSH2 0x3D0 DUP6 DUP3 DUP7 ADD PUSH2 0x2B7 JUMP JUMPDEST SWAP2 POP POP SWAP3 POP SWAP3 SWAP1 POP JUMP JUMPDEST PUSH1 0x0 DUP2 ISZERO ISZERO SWAP1 POP SWAP2 SWAP1 POP JUMP JUMPDEST PUSH2 0x3EF DUP2 PUSH2 0x3DA JUMP JUMPDEST DUP3 MSTORE POP POP JUMP JUMPDEST PUSH1 0x0 PUSH1 0x20 DUP3 ADD SWAP1 POP PUSH2 0x40A PUSH1 0x0 DUP4 ADD DUP5 PUSH2 0x3E6 JUMP JUMPDEST SWAP3 SWAP2 POP POP JUMP JUMPDEST PUSH1 0x0 DUP2 MLOAD SWAP1 POP SWAP2 SWAP1 POP JUMP JUMPDEST PUSH1 0x0 DUP2 SWAP1 POP SWAP3 SWAP2 POP POP JUMP JUMPDEST PUSH1 0x0 JUMPDEST DUP4 DUP2 LT ISZERO PUSH2 0x444 JUMPI DUP1 DUP3 ADD MLOAD DUP2 DUP5 ADD MSTORE PUSH1 0x20 DUP2 ADD SWAP1 POP PUSH2 0x429 JUMP JUMPDEST PUSH1 0x0 DUP5 DUP5 ADD MSTORE POP POP POP POP JUMP JUMPDEST PUSH1 0x0 PUSH2 0x45B DUP3 PUSH2 0x410 JUMP JUMPDEST PUSH2 0x465 DUP2 DUP6 PUSH2 0x41B JUMP JUMPDEST SWAP4 POP PUSH2 0x475 DUP2 DUP6 PUSH1 0x20 DUP7 ADD PUSH2 0x426 JUMP JUMPDEST DUP1 DUP5 ADD SWAP2 POP POP SWAP3 SWAP2 POP POP JUMP JUMPDEST PUSH1 0x0 PUSH2 0x48D DUP3 DUP5 PUSH2 0x450 JUMP JUMPDEST SWAP2 POP DUP2 SWAP1 POP SWAP3 SWAP2 POP POP JUMP JUMPDEST PUSH1 0x0 PUSH2 0x4A4 DUP3 DUP6 PUSH2 0x450 JUMP JUMPDEST SWAP2 POP PUSH2 0x4B0 DUP3 DUP5 PUSH2 0x450 JUMP JUMPDEST SWAP2 POP DUP2 SWAP1 POP SWAP4 SWAP3 POP POP POP JUMP INVALID LOG2 PUSH5 0x6970667358 0x22 SLT KECCAK256 POP 0xCD LOG4 0xAE SELFBALANCE PUSH8 0x16EA0F2481894A0E SWAP13 CALLCODE 0xE3 ISZERO 0xF9 RETURN 0xE5 CREATE2 0xDD 0xAD DUP9 0xE1 BLOCKHASH 0xBD PUSH6 0xAEF08564736F PUSH13 0x63430008120033000000000000 "
				},
				"gasEstimates": {
					"creation": {
						"codeDepositCost": "253200",
						"executionCost": "294",
						"totalCost": "253494"
					},
					"external": {
						"Login(string,string)": "infinite",
						"Login2(string)": "infinite",
						"SignIn(string,string)": "infinite"
					}
				},
				"methodIdentifiers": {
					"Login(string,string)": "ccef4218",
					"Login2(string)": "2c3f5a2f",
					"SignIn(string,string)": "3c4dd143"
				}
			},
			"storageLayout": {
				"storage": [
					{
						"astId": 60,
						"contract": "contracts/0512/Quiz2.sol:Solution",
						"label": "ID_PW",
						"offset": 0,
						"slot": "0",
						"type": "t_mapping(t_string_memory_ptr,t_bytes32)"
					}
				],
				"types": {
					"t_bytes32": {
						"encoding": "inplace",
						"label": "bytes32",
						"numberOfBytes": "32"
					},
					"t_mapping(t_string_memory_ptr,t_bytes32)": {
						"encoding": "mapping",
						"key": "t_string_memory_ptr",
						"label": "mapping(string => bytes32)",
						"numberOfBytes": "32",
						"value": "t_bytes32"
					},
					"t_string_memory_ptr": {
						"encoding": "bytes",
						"label": "string",
						"numberOfBytes": "32"
					}
				}
			},
			"userdoc": {
				"kind": "user",
				"methods": {},
				"version": 1
			}
		}
	}
}