{
	"contracts/0511/Exam.sol": {
		"STRING_Compare": {
			"abi": [
				{
					"inputs": [
						{
							"internalType": "string",
							"name": "s1",
							"type": "string"
						}
					],
					"name": "compare1",
					"outputs": [
						{
							"internalType": "bytes32",
							"name": "",
							"type": "bytes32"
						}
					],
					"stateMutability": "pure",
					"type": "function"
				},
				{
					"inputs": [
						{
							"internalType": "string",
							"name": "s1",
							"type": "string"
						},
						{
							"internalType": "string",
							"name": "s2",
							"type": "string"
						}
					],
					"name": "compare3",
					"outputs": [
						{
							"internalType": "bool",
							"name": "",
							"type": "bool"
						}
					],
					"stateMutability": "pure",
					"type": "function"
				},
				{
					"inputs": [
						{
							"internalType": "string",
							"name": "s1",
							"type": "string"
						}
					],
					"name": "compare4",
					"outputs": [
						{
							"internalType": "bytes",
							"name": "",
							"type": "bytes"
						},
						{
							"internalType": "bytes",
							"name": "",
							"type": "bytes"
						}
					],
					"stateMutability": "pure",
					"type": "function"
				},
				{
					"inputs": [
						{
							"internalType": "string",
							"name": "s1",
							"type": "string"
						}
					],
					"name": "keccak2",
					"outputs": [
						{
							"internalType": "bytes32",
							"name": "",
							"type": "bytes32"
						}
					],
					"stateMutability": "pure",
					"type": "function"
				}
			],
			"devdoc": {
				"kind": "dev",
				"methods": {},
				"version": 1
			},
			"evm": {
				"assembly": "    /* \"contracts/0511/Exam.sol\":6500:7085  contract STRING_Compare {... */\n  mstore(0x40, 0x80)\n  callvalue\n  dup1\n  iszero\n  tag_1\n  jumpi\n  0x00\n  dup1\n  revert\ntag_1:\n  pop\n  dataSize(sub_0)\n  dup1\n  dataOffset(sub_0)\n  0x00\n  codecopy\n  0x00\n  return\nstop\n\nsub_0: assembly {\n        /* \"contracts/0511/Exam.sol\":6500:7085  contract STRING_Compare {... */\n      mstore(0x40, 0x80)\n      callvalue\n      dup1\n      iszero\n      tag_1\n      jumpi\n      0x00\n      dup1\n      revert\n    tag_1:\n      pop\n      jumpi(tag_2, lt(calldatasize, 0x04))\n      shr(0xe0, calldataload(0x00))\n      dup1\n      0x28577420\n      eq\n      tag_3\n      jumpi\n      dup1\n      0x2da83353\n      eq\n      tag_4\n      jumpi\n      dup1\n      0x99f9fe93\n      eq\n      tag_5\n      jumpi\n      dup1\n      0xeee90ab1\n      eq\n      tag_6\n      jumpi\n    tag_2:\n      0x00\n      dup1\n      revert\n        /* \"contracts/0511/Exam.sol\":6940:7082  function compare4(string memory s1) public pure returns(bytes memory, bytes memory){... */\n    tag_3:\n      tag_7\n      0x04\n      dup1\n      calldatasize\n      sub\n      dup2\n      add\n      swap1\n      tag_8\n      swap2\n      swap1\n      tag_9\n      jump\t// in\n    tag_8:\n      tag_10\n      jump\t// in\n    tag_7:\n      mload(0x40)\n      tag_11\n      swap3\n      swap2\n      swap1\n      tag_12\n      jump\t// in\n    tag_11:\n      mload(0x40)\n      dup1\n      swap2\n      sub\n      swap1\n      return\n        /* \"contracts/0511/Exam.sol\":6531:6653  function compare1(string memory s1) public pure returns(bytes32) {... */\n    tag_4:\n      tag_13\n      0x04\n      dup1\n      calldatasize\n      sub\n      dup2\n      add\n      swap1\n      tag_14\n      swap2\n      swap1\n      tag_9\n      jump\t// in\n    tag_14:\n      tag_15\n      jump\t// in\n    tag_13:\n      mload(0x40)\n      tag_16\n      swap2\n      swap1\n      tag_17\n      jump\t// in\n    tag_16:\n      mload(0x40)\n      dup1\n      swap2\n      sub\n      swap1\n      return\n        /* \"contracts/0511/Exam.sol\":6779:6928  function compare3(string memory s1, string memory s2) public pure returns(bool){... */\n    tag_5:\n      tag_18\n      0x04\n      dup1\n      calldatasize\n      sub\n      dup2\n      add\n      swap1\n      tag_19\n      swap2\n      swap1\n      tag_20\n      jump\t// in\n    tag_19:\n      tag_21\n      jump\t// in\n    tag_18:\n      mload(0x40)\n      tag_22\n      swap2\n      swap1\n      tag_23\n      jump\t// in\n    tag_22:\n      mload(0x40)\n      dup1\n      swap2\n      sub\n      swap1\n      return\n        /* \"contracts/0511/Exam.sol\":6661:6771  function keccak2(string memory s1) public pure returns(bytes32) {... */\n    tag_6:\n      tag_24\n      0x04\n      dup1\n      calldatasize\n      sub\n      dup2\n      add\n      swap1\n      tag_25\n      swap2\n      swap1\n      tag_9\n      jump\t// in\n    tag_25:\n      tag_26\n      jump\t// in\n    tag_24:\n      mload(0x40)\n      tag_27\n      swap2\n      swap1\n      tag_17\n      jump\t// in\n    tag_27:\n      mload(0x40)\n      dup1\n      swap2\n      sub\n      swap1\n      return\n        /* \"contracts/0511/Exam.sol\":6940:7082  function compare4(string memory s1) public pure returns(bytes memory, bytes memory){... */\n    tag_10:\n        /* \"contracts/0511/Exam.sol\":6996:7008  bytes memory */\n      0x60\n        /* \"contracts/0511/Exam.sol\":7010:7022  bytes memory */\n      dup1\n        /* \"contracts/0511/Exam.sol\":7059:7061  s1 */\n      dup3\n        /* \"contracts/0511/Exam.sol\":7042:7062  abi.encodePacked(s1) */\n      add(0x20, mload(0x40))\n      tag_29\n      swap2\n      swap1\n      tag_30\n      jump\t// in\n    tag_29:\n      mload(0x40)\n      0x20\n      dup2\n      dup4\n      sub\n      sub\n      dup2\n      mstore\n      swap1\n      0x40\n      mstore\n        /* \"contracts/0511/Exam.sol\":7070:7072  s1 */\n      dup4\n        /* \"contracts/0511/Exam.sol\":7034:7074  return (abi.encodePacked(s1), bytes(s1)) */\n      swap2\n      pop\n      swap2\n      pop\n        /* \"contracts/0511/Exam.sol\":6940:7082  function compare4(string memory s1) public pure returns(bytes memory, bytes memory){... */\n      swap2\n      pop\n      swap2\n      jump\t// out\n        /* \"contracts/0511/Exam.sol\":6531:6653  function compare1(string memory s1) public pure returns(bytes32) {... */\n    tag_15:\n        /* \"contracts/0511/Exam.sol\":6587:6594  bytes32 */\n      0x00\n        /* \"contracts/0511/Exam.sol\":6641:6643  s1 */\n      dup2\n        /* \"contracts/0511/Exam.sol\":6624:6644  abi.encodePacked(s1) */\n      add(0x20, mload(0x40))\n      tag_32\n      swap2\n      swap1\n      tag_30\n      jump\t// in\n    tag_32:\n      mload(0x40)\n      0x20\n      dup2\n      dup4\n      sub\n      sub\n      dup2\n      mstore\n      swap1\n      0x40\n      mstore\n        /* \"contracts/0511/Exam.sol\":6614:6645  keccak256(abi.encodePacked(s1)) */\n      dup1\n      mload\n      swap1\n      0x20\n      add\n      keccak256\n        /* \"contracts/0511/Exam.sol\":6607:6645  return keccak256(abi.encodePacked(s1)) */\n      swap1\n      pop\n        /* \"contracts/0511/Exam.sol\":6531:6653  function compare1(string memory s1) public pure returns(bytes32) {... */\n      swap2\n      swap1\n      pop\n      jump\t// out\n        /* \"contracts/0511/Exam.sol\":6779:6928  function compare3(string memory s1, string memory s2) public pure returns(bool){... */\n    tag_21:\n        /* \"contracts/0511/Exam.sol\":6853:6857  bool */\n      0x00\n        /* \"contracts/0511/Exam.sol\":6916:6918  s2 */\n      dup2\n        /* \"contracts/0511/Exam.sol\":6900:6920  keccak256(bytes(s2)) */\n      dup1\n      mload\n      swap1\n      0x20\n      add\n      keccak256\n        /* \"contracts/0511/Exam.sol\":6892:6894  s1 */\n      dup4\n        /* \"contracts/0511/Exam.sol\":6876:6896  keccak256(bytes(s1)) */\n      dup1\n      mload\n      swap1\n      0x20\n      add\n      keccak256\n        /* \"contracts/0511/Exam.sol\":6876:6920  keccak256(bytes(s1)) == keccak256(bytes(s2)) */\n      eq\n        /* \"contracts/0511/Exam.sol\":6869:6920  return keccak256(bytes(s1)) == keccak256(bytes(s2)) */\n      swap1\n      pop\n        /* \"contracts/0511/Exam.sol\":6779:6928  function compare3(string memory s1, string memory s2) public pure returns(bool){... */\n      swap3\n      swap2\n      pop\n      pop\n      jump\t// out\n        /* \"contracts/0511/Exam.sol\":6661:6771  function keccak2(string memory s1) public pure returns(bytes32) {... */\n    tag_26:\n        /* \"contracts/0511/Exam.sol\":6716:6723  bytes32 */\n      0x00\n        /* \"contracts/0511/Exam.sol\":6759:6761  s1 */\n      dup2\n        /* \"contracts/0511/Exam.sol\":6743:6763  keccak256(bytes(s1)) */\n      dup1\n      mload\n      swap1\n      0x20\n      add\n      keccak256\n        /* \"contracts/0511/Exam.sol\":6736:6763  return keccak256(bytes(s1)) */\n      swap1\n      pop\n        /* \"contracts/0511/Exam.sol\":6661:6771  function keccak2(string memory s1) public pure returns(bytes32) {... */\n      swap2\n      swap1\n      pop\n      jump\t// out\n        /* \"#utility.yul\":7:82   */\n    tag_35:\n        /* \"#utility.yul\":40:46   */\n      0x00\n        /* \"#utility.yul\":73:75   */\n      0x40\n        /* \"#utility.yul\":67:76   */\n      mload\n        /* \"#utility.yul\":57:76   */\n      swap1\n      pop\n        /* \"#utility.yul\":7:82   */\n      swap1\n      jump\t// out\n        /* \"#utility.yul\":88:205   */\n    tag_36:\n        /* \"#utility.yul\":197:198   */\n      0x00\n        /* \"#utility.yul\":194:195   */\n      dup1\n        /* \"#utility.yul\":187:199   */\n      revert\n        /* \"#utility.yul\":211:328   */\n    tag_37:\n        /* \"#utility.yul\":320:321   */\n      0x00\n        /* \"#utility.yul\":317:318   */\n      dup1\n        /* \"#utility.yul\":310:322   */\n      revert\n        /* \"#utility.yul\":334:451   */\n    tag_38:\n        /* \"#utility.yul\":443:444   */\n      0x00\n        /* \"#utility.yul\":440:441   */\n      dup1\n        /* \"#utility.yul\":433:445   */\n      revert\n        /* \"#utility.yul\":457:574   */\n    tag_39:\n        /* \"#utility.yul\":566:567   */\n      0x00\n        /* \"#utility.yul\":563:564   */\n      dup1\n        /* \"#utility.yul\":556:568   */\n      revert\n        /* \"#utility.yul\":580:682   */\n    tag_40:\n        /* \"#utility.yul\":621:627   */\n      0x00\n        /* \"#utility.yul\":672:674   */\n      0x1f\n        /* \"#utility.yul\":668:675   */\n      not\n        /* \"#utility.yul\":663:665   */\n      0x1f\n        /* \"#utility.yul\":656:661   */\n      dup4\n        /* \"#utility.yul\":652:666   */\n      add\n        /* \"#utility.yul\":648:676   */\n      and\n        /* \"#utility.yul\":638:676   */\n      swap1\n      pop\n        /* \"#utility.yul\":580:682   */\n      swap2\n      swap1\n      pop\n      jump\t// out\n        /* \"#utility.yul\":688:868   */\n    tag_41:\n        /* \"#utility.yul\":736:813   */\n      0x4e487b7100000000000000000000000000000000000000000000000000000000\n        /* \"#utility.yul\":733:734   */\n      0x00\n        /* \"#utility.yul\":726:814   */\n      mstore\n        /* \"#utility.yul\":833:837   */\n      0x41\n        /* \"#utility.yul\":830:831   */\n      0x04\n        /* \"#utility.yul\":823:838   */\n      mstore\n        /* \"#utility.yul\":857:861   */\n      0x24\n        /* \"#utility.yul\":854:855   */\n      0x00\n        /* \"#utility.yul\":847:862   */\n      revert\n        /* \"#utility.yul\":874:1155   */\n    tag_42:\n        /* \"#utility.yul\":957:984   */\n      tag_68\n        /* \"#utility.yul\":979:983   */\n      dup3\n        /* \"#utility.yul\":957:984   */\n      tag_40\n      jump\t// in\n    tag_68:\n        /* \"#utility.yul\":949:955   */\n      dup2\n        /* \"#utility.yul\":945:985   */\n      add\n        /* \"#utility.yul\":1087:1093   */\n      dup2\n        /* \"#utility.yul\":1075:1085   */\n      dup2\n        /* \"#utility.yul\":1072:1094   */\n      lt\n        /* \"#utility.yul\":1051:1069   */\n      0xffffffffffffffff\n        /* \"#utility.yul\":1039:1049   */\n      dup3\n        /* \"#utility.yul\":1036:1070   */\n      gt\n        /* \"#utility.yul\":1033:1095   */\n      or\n        /* \"#utility.yul\":1030:1118   */\n      iszero\n      tag_69\n      jumpi\n        /* \"#utility.yul\":1098:1116   */\n      tag_70\n      tag_41\n      jump\t// in\n    tag_70:\n        /* \"#utility.yul\":1030:1118   */\n    tag_69:\n        /* \"#utility.yul\":1138:1148   */\n      dup1\n        /* \"#utility.yul\":1134:1136   */\n      0x40\n        /* \"#utility.yul\":1127:1149   */\n      mstore\n        /* \"#utility.yul\":917:1155   */\n      pop\n        /* \"#utility.yul\":874:1155   */\n      pop\n      pop\n      jump\t// out\n        /* \"#utility.yul\":1161:1290   */\n    tag_43:\n        /* \"#utility.yul\":1195:1201   */\n      0x00\n        /* \"#utility.yul\":1222:1242   */\n      tag_72\n      tag_35\n      jump\t// in\n    tag_72:\n        /* \"#utility.yul\":1212:1242   */\n      swap1\n      pop\n        /* \"#utility.yul\":1251:1284   */\n      tag_73\n        /* \"#utility.yul\":1279:1283   */\n      dup3\n        /* \"#utility.yul\":1271:1277   */\n      dup3\n        /* \"#utility.yul\":1251:1284   */\n      tag_42\n      jump\t// in\n    tag_73:\n        /* \"#utility.yul\":1161:1290   */\n      swap2\n      swap1\n      pop\n      jump\t// out\n        /* \"#utility.yul\":1296:1604   */\n    tag_44:\n        /* \"#utility.yul\":1358:1362   */\n      0x00\n        /* \"#utility.yul\":1448:1466   */\n      0xffffffffffffffff\n        /* \"#utility.yul\":1440:1446   */\n      dup3\n        /* \"#utility.yul\":1437:1467   */\n      gt\n        /* \"#utility.yul\":1434:1490   */\n      iszero\n      tag_75\n      jumpi\n        /* \"#utility.yul\":1470:1488   */\n      tag_76\n      tag_41\n      jump\t// in\n    tag_76:\n        /* \"#utility.yul\":1434:1490   */\n    tag_75:\n        /* \"#utility.yul\":1508:1537   */\n      tag_77\n        /* \"#utility.yul\":1530:1536   */\n      dup3\n        /* \"#utility.yul\":1508:1537   */\n      tag_40\n      jump\t// in\n    tag_77:\n        /* \"#utility.yul\":1500:1537   */\n      swap1\n      pop\n        /* \"#utility.yul\":1592:1596   */\n      0x20\n        /* \"#utility.yul\":1586:1590   */\n      dup2\n        /* \"#utility.yul\":1582:1597   */\n      add\n        /* \"#utility.yul\":1574:1597   */\n      swap1\n      pop\n        /* \"#utility.yul\":1296:1604   */\n      swap2\n      swap1\n      pop\n      jump\t// out\n        /* \"#utility.yul\":1610:1756   */\n    tag_45:\n        /* \"#utility.yul\":1707:1713   */\n      dup3\n        /* \"#utility.yul\":1702:1705   */\n      dup2\n        /* \"#utility.yul\":1697:1700   */\n      dup4\n        /* \"#utility.yul\":1684:1714   */\n      calldatacopy\n        /* \"#utility.yul\":1748:1749   */\n      0x00\n        /* \"#utility.yul\":1739:1745   */\n      dup4\n        /* \"#utility.yul\":1734:1737   */\n      dup4\n        /* \"#utility.yul\":1730:1746   */\n      add\n        /* \"#utility.yul\":1723:1750   */\n      mstore\n        /* \"#utility.yul\":1610:1756   */\n      pop\n      pop\n      pop\n      jump\t// out\n        /* \"#utility.yul\":1762:2187   */\n    tag_46:\n        /* \"#utility.yul\":1840:1845   */\n      0x00\n        /* \"#utility.yul\":1865:1931   */\n      tag_80\n        /* \"#utility.yul\":1881:1930   */\n      tag_81\n        /* \"#utility.yul\":1923:1929   */\n      dup5\n        /* \"#utility.yul\":1881:1930   */\n      tag_44\n      jump\t// in\n    tag_81:\n        /* \"#utility.yul\":1865:1931   */\n      tag_43\n      jump\t// in\n    tag_80:\n        /* \"#utility.yul\":1856:1931   */\n      swap1\n      pop\n        /* \"#utility.yul\":1954:1960   */\n      dup3\n        /* \"#utility.yul\":1947:1952   */\n      dup2\n        /* \"#utility.yul\":1940:1961   */\n      mstore\n        /* \"#utility.yul\":1992:1996   */\n      0x20\n        /* \"#utility.yul\":1985:1990   */\n      dup2\n        /* \"#utility.yul\":1981:1997   */\n      add\n        /* \"#utility.yul\":2030:2033   */\n      dup5\n        /* \"#utility.yul\":2021:2027   */\n      dup5\n        /* \"#utility.yul\":2016:2019   */\n      dup5\n        /* \"#utility.yul\":2012:2028   */\n      add\n        /* \"#utility.yul\":2009:2034   */\n      gt\n        /* \"#utility.yul\":2006:2118   */\n      iszero\n      tag_82\n      jumpi\n        /* \"#utility.yul\":2037:2116   */\n      tag_83\n      tag_39\n      jump\t// in\n    tag_83:\n        /* \"#utility.yul\":2006:2118   */\n    tag_82:\n        /* \"#utility.yul\":2127:2181   */\n      tag_84\n        /* \"#utility.yul\":2174:2180   */\n      dup5\n        /* \"#utility.yul\":2169:2172   */\n      dup3\n        /* \"#utility.yul\":2164:2167   */\n      dup6\n        /* \"#utility.yul\":2127:2181   */\n      tag_45\n      jump\t// in\n    tag_84:\n        /* \"#utility.yul\":1846:2187   */\n      pop\n        /* \"#utility.yul\":1762:2187   */\n      swap4\n      swap3\n      pop\n      pop\n      pop\n      jump\t// out\n        /* \"#utility.yul\":2207:2547   */\n    tag_47:\n        /* \"#utility.yul\":2263:2268   */\n      0x00\n        /* \"#utility.yul\":2312:2315   */\n      dup3\n        /* \"#utility.yul\":2305:2309   */\n      0x1f\n        /* \"#utility.yul\":2297:2303   */\n      dup4\n        /* \"#utility.yul\":2293:2310   */\n      add\n        /* \"#utility.yul\":2289:2316   */\n      slt\n        /* \"#utility.yul\":2279:2401   */\n      tag_86\n      jumpi\n        /* \"#utility.yul\":2320:2399   */\n      tag_87\n      tag_38\n      jump\t// in\n    tag_87:\n        /* \"#utility.yul\":2279:2401   */\n    tag_86:\n        /* \"#utility.yul\":2437:2443   */\n      dup2\n        /* \"#utility.yul\":2424:2444   */\n      calldataload\n        /* \"#utility.yul\":2462:2541   */\n      tag_88\n        /* \"#utility.yul\":2537:2540   */\n      dup5\n        /* \"#utility.yul\":2529:2535   */\n      dup3\n        /* \"#utility.yul\":2522:2526   */\n      0x20\n        /* \"#utility.yul\":2514:2520   */\n      dup7\n        /* \"#utility.yul\":2510:2527   */\n      add\n        /* \"#utility.yul\":2462:2541   */\n      tag_46\n      jump\t// in\n    tag_88:\n        /* \"#utility.yul\":2453:2541   */\n      swap2\n      pop\n        /* \"#utility.yul\":2269:2547   */\n      pop\n        /* \"#utility.yul\":2207:2547   */\n      swap3\n      swap2\n      pop\n      pop\n      jump\t// out\n        /* \"#utility.yul\":2553:3062   */\n    tag_9:\n        /* \"#utility.yul\":2622:2628   */\n      0x00\n        /* \"#utility.yul\":2671:2673   */\n      0x20\n        /* \"#utility.yul\":2659:2668   */\n      dup3\n        /* \"#utility.yul\":2650:2657   */\n      dup5\n        /* \"#utility.yul\":2646:2669   */\n      sub\n        /* \"#utility.yul\":2642:2674   */\n      slt\n        /* \"#utility.yul\":2639:2758   */\n      iszero\n      tag_90\n      jumpi\n        /* \"#utility.yul\":2677:2756   */\n      tag_91\n      tag_36\n      jump\t// in\n    tag_91:\n        /* \"#utility.yul\":2639:2758   */\n    tag_90:\n        /* \"#utility.yul\":2825:2826   */\n      0x00\n        /* \"#utility.yul\":2814:2823   */\n      dup3\n        /* \"#utility.yul\":2810:2827   */\n      add\n        /* \"#utility.yul\":2797:2828   */\n      calldataload\n        /* \"#utility.yul\":2855:2873   */\n      0xffffffffffffffff\n        /* \"#utility.yul\":2847:2853   */\n      dup2\n        /* \"#utility.yul\":2844:2874   */\n      gt\n        /* \"#utility.yul\":2841:2958   */\n      iszero\n      tag_92\n      jumpi\n        /* \"#utility.yul\":2877:2956   */\n      tag_93\n      tag_37\n      jump\t// in\n    tag_93:\n        /* \"#utility.yul\":2841:2958   */\n    tag_92:\n        /* \"#utility.yul\":2982:3045   */\n      tag_94\n        /* \"#utility.yul\":3037:3044   */\n      dup5\n        /* \"#utility.yul\":3028:3034   */\n      dup3\n        /* \"#utility.yul\":3017:3026   */\n      dup6\n        /* \"#utility.yul\":3013:3035   */\n      add\n        /* \"#utility.yul\":2982:3045   */\n      tag_47\n      jump\t// in\n    tag_94:\n        /* \"#utility.yul\":2972:3045   */\n      swap2\n      pop\n        /* \"#utility.yul\":2768:3055   */\n      pop\n        /* \"#utility.yul\":2553:3062   */\n      swap3\n      swap2\n      pop\n      pop\n      jump\t// out\n        /* \"#utility.yul\":3068:3166   */\n    tag_48:\n        /* \"#utility.yul\":3119:3125   */\n      0x00\n        /* \"#utility.yul\":3153:3158   */\n      dup2\n        /* \"#utility.yul\":3147:3159   */\n      mload\n        /* \"#utility.yul\":3137:3159   */\n      swap1\n      pop\n        /* \"#utility.yul\":3068:3166   */\n      swap2\n      swap1\n      pop\n      jump\t// out\n        /* \"#utility.yul\":3172:3340   */\n    tag_49:\n        /* \"#utility.yul\":3255:3266   */\n      0x00\n        /* \"#utility.yul\":3289:3295   */\n      dup3\n        /* \"#utility.yul\":3284:3287   */\n      dup3\n        /* \"#utility.yul\":3277:3296   */\n      mstore\n        /* \"#utility.yul\":3329:3333   */\n      0x20\n        /* \"#utility.yul\":3324:3327   */\n      dup3\n        /* \"#utility.yul\":3320:3334   */\n      add\n        /* \"#utility.yul\":3305:3334   */\n      swap1\n      pop\n        /* \"#utility.yul\":3172:3340   */\n      swap3\n      swap2\n      pop\n      pop\n      jump\t// out\n        /* \"#utility.yul\":3346:3592   */\n    tag_50:\n        /* \"#utility.yul\":3427:3428   */\n      0x00\n        /* \"#utility.yul\":3437:3550   */\n    tag_98:\n        /* \"#utility.yul\":3451:3457   */\n      dup4\n        /* \"#utility.yul\":3448:3449   */\n      dup2\n        /* \"#utility.yul\":3445:3458   */\n      lt\n        /* \"#utility.yul\":3437:3550   */\n      iszero\n      tag_100\n      jumpi\n        /* \"#utility.yul\":3536:3537   */\n      dup1\n        /* \"#utility.yul\":3531:3534   */\n      dup3\n        /* \"#utility.yul\":3527:3538   */\n      add\n        /* \"#utility.yul\":3521:3539   */\n      mload\n        /* \"#utility.yul\":3517:3518   */\n      dup2\n        /* \"#utility.yul\":3512:3515   */\n      dup5\n        /* \"#utility.yul\":3508:3519   */\n      add\n        /* \"#utility.yul\":3501:3540   */\n      mstore\n        /* \"#utility.yul\":3473:3475   */\n      0x20\n        /* \"#utility.yul\":3470:3471   */\n      dup2\n        /* \"#utility.yul\":3466:3476   */\n      add\n        /* \"#utility.yul\":3461:3476   */\n      swap1\n      pop\n        /* \"#utility.yul\":3437:3550   */\n      jump(tag_98)\n    tag_100:\n        /* \"#utility.yul\":3584:3585   */\n      0x00\n        /* \"#utility.yul\":3575:3581   */\n      dup5\n        /* \"#utility.yul\":3570:3573   */\n      dup5\n        /* \"#utility.yul\":3566:3582   */\n      add\n        /* \"#utility.yul\":3559:3586   */\n      mstore\n        /* \"#utility.yul\":3408:3592   */\n      pop\n        /* \"#utility.yul\":3346:3592   */\n      pop\n      pop\n      pop\n      jump\t// out\n        /* \"#utility.yul\":3598:3971   */\n    tag_51:\n        /* \"#utility.yul\":3684:3687   */\n      0x00\n        /* \"#utility.yul\":3712:3750   */\n      tag_102\n        /* \"#utility.yul\":3744:3749   */\n      dup3\n        /* \"#utility.yul\":3712:3750   */\n      tag_48\n      jump\t// in\n    tag_102:\n        /* \"#utility.yul\":3766:3836   */\n      tag_103\n        /* \"#utility.yul\":3829:3835   */\n      dup2\n        /* \"#utility.yul\":3824:3827   */\n      dup6\n        /* \"#utility.yul\":3766:3836   */\n      tag_49\n      jump\t// in\n    tag_103:\n        /* \"#utility.yul\":3759:3836   */\n      swap4\n      pop\n        /* \"#utility.yul\":3845:3910   */\n      tag_104\n        /* \"#utility.yul\":3903:3909   */\n      dup2\n        /* \"#utility.yul\":3898:3901   */\n      dup6\n        /* \"#utility.yul\":3891:3895   */\n      0x20\n        /* \"#utility.yul\":3884:3889   */\n      dup7\n        /* \"#utility.yul\":3880:3896   */\n      add\n        /* \"#utility.yul\":3845:3910   */\n      tag_50\n      jump\t// in\n    tag_104:\n        /* \"#utility.yul\":3935:3964   */\n      tag_105\n        /* \"#utility.yul\":3957:3963   */\n      dup2\n        /* \"#utility.yul\":3935:3964   */\n      tag_40\n      jump\t// in\n    tag_105:\n        /* \"#utility.yul\":3930:3933   */\n      dup5\n        /* \"#utility.yul\":3926:3965   */\n      add\n        /* \"#utility.yul\":3919:3965   */\n      swap2\n      pop\n        /* \"#utility.yul\":3688:3971   */\n      pop\n        /* \"#utility.yul\":3598:3971   */\n      swap3\n      swap2\n      pop\n      pop\n      jump\t// out\n        /* \"#utility.yul\":3977:4483   */\n    tag_12:\n        /* \"#utility.yul\":4134:4138   */\n      0x00\n        /* \"#utility.yul\":4172:4174   */\n      0x40\n        /* \"#utility.yul\":4161:4170   */\n      dup3\n        /* \"#utility.yul\":4157:4175   */\n      add\n        /* \"#utility.yul\":4149:4175   */\n      swap1\n      pop\n        /* \"#utility.yul\":4221:4230   */\n      dup2\n        /* \"#utility.yul\":4215:4219   */\n      dup2\n        /* \"#utility.yul\":4211:4231   */\n      sub\n        /* \"#utility.yul\":4207:4208   */\n      0x00\n        /* \"#utility.yul\":4196:4205   */\n      dup4\n        /* \"#utility.yul\":4192:4209   */\n      add\n        /* \"#utility.yul\":4185:4232   */\n      mstore\n        /* \"#utility.yul\":4249:4325   */\n      tag_107\n        /* \"#utility.yul\":4320:4324   */\n      dup2\n        /* \"#utility.yul\":4311:4317   */\n      dup6\n        /* \"#utility.yul\":4249:4325   */\n      tag_51\n      jump\t// in\n    tag_107:\n        /* \"#utility.yul\":4241:4325   */\n      swap1\n      pop\n        /* \"#utility.yul\":4372:4381   */\n      dup2\n        /* \"#utility.yul\":4366:4370   */\n      dup2\n        /* \"#utility.yul\":4362:4382   */\n      sub\n        /* \"#utility.yul\":4357:4359   */\n      0x20\n        /* \"#utility.yul\":4346:4355   */\n      dup4\n        /* \"#utility.yul\":4342:4360   */\n      add\n        /* \"#utility.yul\":4335:4383   */\n      mstore\n        /* \"#utility.yul\":4400:4476   */\n      tag_108\n        /* \"#utility.yul\":4471:4475   */\n      dup2\n        /* \"#utility.yul\":4462:4468   */\n      dup5\n        /* \"#utility.yul\":4400:4476   */\n      tag_51\n      jump\t// in\n    tag_108:\n        /* \"#utility.yul\":4392:4476   */\n      swap1\n      pop\n        /* \"#utility.yul\":3977:4483   */\n      swap4\n      swap3\n      pop\n      pop\n      pop\n      jump\t// out\n        /* \"#utility.yul\":4489:4566   */\n    tag_52:\n        /* \"#utility.yul\":4526:4533   */\n      0x00\n        /* \"#utility.yul\":4555:4560   */\n      dup2\n        /* \"#utility.yul\":4544:4560   */\n      swap1\n      pop\n        /* \"#utility.yul\":4489:4566   */\n      swap2\n      swap1\n      pop\n      jump\t// out\n        /* \"#utility.yul\":4572:4690   */\n    tag_53:\n        /* \"#utility.yul\":4659:4683   */\n      tag_111\n        /* \"#utility.yul\":4677:4682   */\n      dup2\n        /* \"#utility.yul\":4659:4683   */\n      tag_52\n      jump\t// in\n    tag_111:\n        /* \"#utility.yul\":4654:4657   */\n      dup3\n        /* \"#utility.yul\":4647:4684   */\n      mstore\n        /* \"#utility.yul\":4572:4690   */\n      pop\n      pop\n      jump\t// out\n        /* \"#utility.yul\":4696:4918   */\n    tag_17:\n        /* \"#utility.yul\":4789:4793   */\n      0x00\n        /* \"#utility.yul\":4827:4829   */\n      0x20\n        /* \"#utility.yul\":4816:4825   */\n      dup3\n        /* \"#utility.yul\":4812:4830   */\n      add\n        /* \"#utility.yul\":4804:4830   */\n      swap1\n      pop\n        /* \"#utility.yul\":4840:4911   */\n      tag_113\n        /* \"#utility.yul\":4908:4909   */\n      0x00\n        /* \"#utility.yul\":4897:4906   */\n      dup4\n        /* \"#utility.yul\":4893:4910   */\n      add\n        /* \"#utility.yul\":4884:4890   */\n      dup5\n        /* \"#utility.yul\":4840:4911   */\n      tag_53\n      jump\t// in\n    tag_113:\n        /* \"#utility.yul\":4696:4918   */\n      swap3\n      swap2\n      pop\n      pop\n      jump\t// out\n        /* \"#utility.yul\":4924:5758   */\n    tag_20:\n        /* \"#utility.yul\":5012:5018   */\n      0x00\n        /* \"#utility.yul\":5020:5026   */\n      dup1\n        /* \"#utility.yul\":5069:5071   */\n      0x40\n        /* \"#utility.yul\":5057:5066   */\n      dup4\n        /* \"#utility.yul\":5048:5055   */\n      dup6\n        /* \"#utility.yul\":5044:5067   */\n      sub\n        /* \"#utility.yul\":5040:5072   */\n      slt\n        /* \"#utility.yul\":5037:5156   */\n      iszero\n      tag_115\n      jumpi\n        /* \"#utility.yul\":5075:5154   */\n      tag_116\n      tag_36\n      jump\t// in\n    tag_116:\n        /* \"#utility.yul\":5037:5156   */\n    tag_115:\n        /* \"#utility.yul\":5223:5224   */\n      0x00\n        /* \"#utility.yul\":5212:5221   */\n      dup4\n        /* \"#utility.yul\":5208:5225   */\n      add\n        /* \"#utility.yul\":5195:5226   */\n      calldataload\n        /* \"#utility.yul\":5253:5271   */\n      0xffffffffffffffff\n        /* \"#utility.yul\":5245:5251   */\n      dup2\n        /* \"#utility.yul\":5242:5272   */\n      gt\n        /* \"#utility.yul\":5239:5356   */\n      iszero\n      tag_117\n      jumpi\n        /* \"#utility.yul\":5275:5354   */\n      tag_118\n      tag_37\n      jump\t// in\n    tag_118:\n        /* \"#utility.yul\":5239:5356   */\n    tag_117:\n        /* \"#utility.yul\":5380:5443   */\n      tag_119\n        /* \"#utility.yul\":5435:5442   */\n      dup6\n        /* \"#utility.yul\":5426:5432   */\n      dup3\n        /* \"#utility.yul\":5415:5424   */\n      dup7\n        /* \"#utility.yul\":5411:5433   */\n      add\n        /* \"#utility.yul\":5380:5443   */\n      tag_47\n      jump\t// in\n    tag_119:\n        /* \"#utility.yul\":5370:5443   */\n      swap3\n      pop\n        /* \"#utility.yul\":5166:5453   */\n      pop\n        /* \"#utility.yul\":5520:5522   */\n      0x20\n        /* \"#utility.yul\":5509:5518   */\n      dup4\n        /* \"#utility.yul\":5505:5523   */\n      add\n        /* \"#utility.yul\":5492:5524   */\n      calldataload\n        /* \"#utility.yul\":5551:5569   */\n      0xffffffffffffffff\n        /* \"#utility.yul\":5543:5549   */\n      dup2\n        /* \"#utility.yul\":5540:5570   */\n      gt\n        /* \"#utility.yul\":5537:5654   */\n      iszero\n      tag_120\n      jumpi\n        /* \"#utility.yul\":5573:5652   */\n      tag_121\n      tag_37\n      jump\t// in\n    tag_121:\n        /* \"#utility.yul\":5537:5654   */\n    tag_120:\n        /* \"#utility.yul\":5678:5741   */\n      tag_122\n        /* \"#utility.yul\":5733:5740   */\n      dup6\n        /* \"#utility.yul\":5724:5730   */\n      dup3\n        /* \"#utility.yul\":5713:5722   */\n      dup7\n        /* \"#utility.yul\":5709:5731   */\n      add\n        /* \"#utility.yul\":5678:5741   */\n      tag_47\n      jump\t// in\n    tag_122:\n        /* \"#utility.yul\":5668:5741   */\n      swap2\n      pop\n        /* \"#utility.yul\":5463:5751   */\n      pop\n        /* \"#utility.yul\":4924:5758   */\n      swap3\n      pop\n      swap3\n      swap1\n      pop\n      jump\t// out\n        /* \"#utility.yul\":5764:5854   */\n    tag_54:\n        /* \"#utility.yul\":5798:5805   */\n      0x00\n        /* \"#utility.yul\":5841:5846   */\n      dup2\n        /* \"#utility.yul\":5834:5847   */\n      iszero\n        /* \"#utility.yul\":5827:5848   */\n      iszero\n        /* \"#utility.yul\":5816:5848   */\n      swap1\n      pop\n        /* \"#utility.yul\":5764:5854   */\n      swap2\n      swap1\n      pop\n      jump\t// out\n        /* \"#utility.yul\":5860:5969   */\n    tag_55:\n        /* \"#utility.yul\":5941:5962   */\n      tag_125\n        /* \"#utility.yul\":5956:5961   */\n      dup2\n        /* \"#utility.yul\":5941:5962   */\n      tag_54\n      jump\t// in\n    tag_125:\n        /* \"#utility.yul\":5936:5939   */\n      dup3\n        /* \"#utility.yul\":5929:5963   */\n      mstore\n        /* \"#utility.yul\":5860:5969   */\n      pop\n      pop\n      jump\t// out\n        /* \"#utility.yul\":5975:6185   */\n    tag_23:\n        /* \"#utility.yul\":6062:6066   */\n      0x00\n        /* \"#utility.yul\":6100:6102   */\n      0x20\n        /* \"#utility.yul\":6089:6098   */\n      dup3\n        /* \"#utility.yul\":6085:6103   */\n      add\n        /* \"#utility.yul\":6077:6103   */\n      swap1\n      pop\n        /* \"#utility.yul\":6113:6178   */\n      tag_127\n        /* \"#utility.yul\":6175:6176   */\n      0x00\n        /* \"#utility.yul\":6164:6173   */\n      dup4\n        /* \"#utility.yul\":6160:6177   */\n      add\n        /* \"#utility.yul\":6151:6157   */\n      dup5\n        /* \"#utility.yul\":6113:6178   */\n      tag_55\n      jump\t// in\n    tag_127:\n        /* \"#utility.yul\":5975:6185   */\n      swap3\n      swap2\n      pop\n      pop\n      jump\t// out\n        /* \"#utility.yul\":6191:6290   */\n    tag_56:\n        /* \"#utility.yul\":6243:6249   */\n      0x00\n        /* \"#utility.yul\":6277:6282   */\n      dup2\n        /* \"#utility.yul\":6271:6283   */\n      mload\n        /* \"#utility.yul\":6261:6283   */\n      swap1\n      pop\n        /* \"#utility.yul\":6191:6290   */\n      swap2\n      swap1\n      pop\n      jump\t// out\n        /* \"#utility.yul\":6296:6444   */\n    tag_57:\n        /* \"#utility.yul\":6398:6409   */\n      0x00\n        /* \"#utility.yul\":6435:6438   */\n      dup2\n        /* \"#utility.yul\":6420:6438   */\n      swap1\n      pop\n        /* \"#utility.yul\":6296:6444   */\n      swap3\n      swap2\n      pop\n      pop\n      jump\t// out\n        /* \"#utility.yul\":6450:6840   */\n    tag_58:\n        /* \"#utility.yul\":6556:6559   */\n      0x00\n        /* \"#utility.yul\":6584:6623   */\n      tag_131\n        /* \"#utility.yul\":6617:6622   */\n      dup3\n        /* \"#utility.yul\":6584:6623   */\n      tag_56\n      jump\t// in\n    tag_131:\n        /* \"#utility.yul\":6639:6728   */\n      tag_132\n        /* \"#utility.yul\":6721:6727   */\n      dup2\n        /* \"#utility.yul\":6716:6719   */\n      dup6\n        /* \"#utility.yul\":6639:6728   */\n      tag_57\n      jump\t// in\n    tag_132:\n        /* \"#utility.yul\":6632:6728   */\n      swap4\n      pop\n        /* \"#utility.yul\":6737:6802   */\n      tag_133\n        /* \"#utility.yul\":6795:6801   */\n      dup2\n        /* \"#utility.yul\":6790:6793   */\n      dup6\n        /* \"#utility.yul\":6783:6787   */\n      0x20\n        /* \"#utility.yul\":6776:6781   */\n      dup7\n        /* \"#utility.yul\":6772:6788   */\n      add\n        /* \"#utility.yul\":6737:6802   */\n      tag_50\n      jump\t// in\n    tag_133:\n        /* \"#utility.yul\":6827:6833   */\n      dup1\n        /* \"#utility.yul\":6822:6825   */\n      dup5\n        /* \"#utility.yul\":6818:6834   */\n      add\n        /* \"#utility.yul\":6811:6834   */\n      swap2\n      pop\n        /* \"#utility.yul\":6560:6840   */\n      pop\n        /* \"#utility.yul\":6450:6840   */\n      swap3\n      swap2\n      pop\n      pop\n      jump\t// out\n        /* \"#utility.yul\":6846:7121   */\n    tag_30:\n        /* \"#utility.yul\":6978:6981   */\n      0x00\n        /* \"#utility.yul\":7000:7095   */\n      tag_135\n        /* \"#utility.yul\":7091:7094   */\n      dup3\n        /* \"#utility.yul\":7082:7088   */\n      dup5\n        /* \"#utility.yul\":7000:7095   */\n      tag_58\n      jump\t// in\n    tag_135:\n        /* \"#utility.yul\":6993:7095   */\n      swap2\n      pop\n        /* \"#utility.yul\":7112:7115   */\n      dup2\n        /* \"#utility.yul\":7105:7115   */\n      swap1\n      pop\n        /* \"#utility.yul\":6846:7121   */\n      swap3\n      swap2\n      pop\n      pop\n      jump\t// out\n\n    auxdata: 0xa2646970667358221220ca85dc980d0e4c48630666a41c4ff5f2e78965720f20afe1ad771c30b0c9865564736f6c63430008120033\n}\n",
				"bytecode": {
					"linkReferences": {},
					"object": "608060405234801561001057600080fd5b5061056a806100206000396000f3fe608060405234801561001057600080fd5b506004361061004c5760003560e01c806328577420146100515780632da833531461008257806399f9fe93146100b2578063eee90ab1146100e2575b600080fd5b61006b600480360381019061006691906102f5565b610112565b6040516100799291906103bd565b60405180910390f35b61009c600480360381019061009791906102f5565b61013f565b6040516100a9919061040d565b60405180910390f35b6100cc60048036038101906100c79190610428565b61016f565b6040516100d991906104bb565b60405180910390f35b6100fc60048036038101906100f791906102f5565b61018a565b604051610109919061040d565b60405180910390f35b60608082604051602001610126919061051d565b6040516020818303038152906040528391509150915091565b600081604051602001610152919061051d565b604051602081830303815290604052805190602001209050919050565b60008180519060200120838051906020012014905092915050565b600081805190602001209050919050565b6000604051905090565b600080fd5b600080fd5b600080fd5b600080fd5b6000601f19601f8301169050919050565b7f4e487b7100000000000000000000000000000000000000000000000000000000600052604160045260246000fd5b610202826101b9565b810181811067ffffffffffffffff82111715610221576102206101ca565b5b80604052505050565b600061023461019b565b905061024082826101f9565b919050565b600067ffffffffffffffff8211156102605761025f6101ca565b5b610269826101b9565b9050602081019050919050565b82818337600083830152505050565b600061029861029384610245565b61022a565b9050828152602081018484840111156102b4576102b36101b4565b5b6102bf848285610276565b509392505050565b600082601f8301126102dc576102db6101af565b5b81356102ec848260208601610285565b91505092915050565b60006020828403121561030b5761030a6101a5565b5b600082013567ffffffffffffffff811115610329576103286101aa565b5b610335848285016102c7565b91505092915050565b600081519050919050565b600082825260208201905092915050565b60005b8381101561037857808201518184015260208101905061035d565b60008484015250505050565b600061038f8261033e565b6103998185610349565b93506103a981856020860161035a565b6103b2816101b9565b840191505092915050565b600060408201905081810360008301526103d78185610384565b905081810360208301526103eb8184610384565b90509392505050565b6000819050919050565b610407816103f4565b82525050565b600060208201905061042260008301846103fe565b92915050565b6000806040838503121561043f5761043e6101a5565b5b600083013567ffffffffffffffff81111561045d5761045c6101aa565b5b610469858286016102c7565b925050602083013567ffffffffffffffff81111561048a576104896101aa565b5b610496858286016102c7565b9150509250929050565b60008115159050919050565b6104b5816104a0565b82525050565b60006020820190506104d060008301846104ac565b92915050565b600081519050919050565b600081905092915050565b60006104f7826104d6565b61050181856104e1565b935061051181856020860161035a565b80840191505092915050565b600061052982846104ec565b91508190509291505056fea2646970667358221220ca85dc980d0e4c48630666a41c4ff5f2e78965720f20afe1ad771c30b0c9865564736f6c63430008120033",
					"opcodes": "PUSH1 0x80 PUSH1 0x40 MSTORE CALLVALUE DUP1 ISZERO PUSH2 0x10 JUMPI PUSH1 0x0 DUP1 REVERT JUMPDEST POP PUSH2 0x56A DUP1 PUSH2 0x20 PUSH1 0x0 CODECOPY PUSH1 0x0 RETURN INVALID PUSH1 0x80 PUSH1 0x40 MSTORE CALLVALUE DUP1 ISZERO PUSH2 0x10 JUMPI PUSH1 0x0 DUP1 REVERT JUMPDEST POP PUSH1 0x4 CALLDATASIZE LT PUSH2 0x4C JUMPI PUSH1 0x0 CALLDATALOAD PUSH1 0xE0 SHR DUP1 PUSH4 0x28577420 EQ PUSH2 0x51 JUMPI DUP1 PUSH4 0x2DA83353 EQ PUSH2 0x82 JUMPI DUP1 PUSH4 0x99F9FE93 EQ PUSH2 0xB2 JUMPI DUP1 PUSH4 0xEEE90AB1 EQ PUSH2 0xE2 JUMPI JUMPDEST PUSH1 0x0 DUP1 REVERT JUMPDEST PUSH2 0x6B PUSH1 0x4 DUP1 CALLDATASIZE SUB DUP2 ADD SWAP1 PUSH2 0x66 SWAP2 SWAP1 PUSH2 0x2F5 JUMP JUMPDEST PUSH2 0x112 JUMP JUMPDEST PUSH1 0x40 MLOAD PUSH2 0x79 SWAP3 SWAP2 SWAP1 PUSH2 0x3BD JUMP JUMPDEST PUSH1 0x40 MLOAD DUP1 SWAP2 SUB SWAP1 RETURN JUMPDEST PUSH2 0x9C PUSH1 0x4 DUP1 CALLDATASIZE SUB DUP2 ADD SWAP1 PUSH2 0x97 SWAP2 SWAP1 PUSH2 0x2F5 JUMP JUMPDEST PUSH2 0x13F JUMP JUMPDEST PUSH1 0x40 MLOAD PUSH2 0xA9 SWAP2 SWAP1 PUSH2 0x40D JUMP JUMPDEST PUSH1 0x40 MLOAD DUP1 SWAP2 SUB SWAP1 RETURN JUMPDEST PUSH2 0xCC PUSH1 0x4 DUP1 CALLDATASIZE SUB DUP2 ADD SWAP1 PUSH2 0xC7 SWAP2 SWAP1 PUSH2 0x428 JUMP JUMPDEST PUSH2 0x16F JUMP JUMPDEST PUSH1 0x40 MLOAD PUSH2 0xD9 SWAP2 SWAP1 PUSH2 0x4BB JUMP JUMPDEST PUSH1 0x40 MLOAD DUP1 SWAP2 SUB SWAP1 RETURN JUMPDEST PUSH2 0xFC PUSH1 0x4 DUP1 CALLDATASIZE SUB DUP2 ADD SWAP1 PUSH2 0xF7 SWAP2 SWAP1 PUSH2 0x2F5 JUMP JUMPDEST PUSH2 0x18A JUMP JUMPDEST PUSH1 0x40 MLOAD PUSH2 0x109 SWAP2 SWAP1 PUSH2 0x40D JUMP JUMPDEST PUSH1 0x40 MLOAD DUP1 SWAP2 SUB SWAP1 RETURN JUMPDEST PUSH1 0x60 DUP1 DUP3 PUSH1 0x40 MLOAD PUSH1 0x20 ADD PUSH2 0x126 SWAP2 SWAP1 PUSH2 0x51D JUMP JUMPDEST PUSH1 0x40 MLOAD PUSH1 0x20 DUP2 DUP4 SUB SUB DUP2 MSTORE SWAP1 PUSH1 0x40 MSTORE DUP4 SWAP2 POP SWAP2 POP SWAP2 POP SWAP2 JUMP JUMPDEST PUSH1 0x0 DUP2 PUSH1 0x40 MLOAD PUSH1 0x20 ADD PUSH2 0x152 SWAP2 SWAP1 PUSH2 0x51D JUMP JUMPDEST PUSH1 0x40 MLOAD PUSH1 0x20 DUP2 DUP4 SUB SUB DUP2 MSTORE SWAP1 PUSH1 0x40 MSTORE DUP1 MLOAD SWAP1 PUSH1 0x20 ADD KECCAK256 SWAP1 POP SWAP2 SWAP1 POP JUMP JUMPDEST PUSH1 0x0 DUP2 DUP1 MLOAD SWAP1 PUSH1 0x20 ADD KECCAK256 DUP4 DUP1 MLOAD SWAP1 PUSH1 0x20 ADD KECCAK256 EQ SWAP1 POP SWAP3 SWAP2 POP POP JUMP JUMPDEST PUSH1 0x0 DUP2 DUP1 MLOAD SWAP1 PUSH1 0x20 ADD KECCAK256 SWAP1 POP SWAP2 SWAP1 POP JUMP JUMPDEST PUSH1 0x0 PUSH1 0x40 MLOAD SWAP1 POP SWAP1 JUMP JUMPDEST PUSH1 0x0 DUP1 REVERT JUMPDEST PUSH1 0x0 DUP1 REVERT JUMPDEST PUSH1 0x0 DUP1 REVERT JUMPDEST PUSH1 0x0 DUP1 REVERT JUMPDEST PUSH1 0x0 PUSH1 0x1F NOT PUSH1 0x1F DUP4 ADD AND SWAP1 POP SWAP2 SWAP1 POP JUMP JUMPDEST PUSH32 0x4E487B7100000000000000000000000000000000000000000000000000000000 PUSH1 0x0 MSTORE PUSH1 0x41 PUSH1 0x4 MSTORE PUSH1 0x24 PUSH1 0x0 REVERT JUMPDEST PUSH2 0x202 DUP3 PUSH2 0x1B9 JUMP JUMPDEST DUP2 ADD DUP2 DUP2 LT PUSH8 0xFFFFFFFFFFFFFFFF DUP3 GT OR ISZERO PUSH2 0x221 JUMPI PUSH2 0x220 PUSH2 0x1CA JUMP JUMPDEST JUMPDEST DUP1 PUSH1 0x40 MSTORE POP POP POP JUMP JUMPDEST PUSH1 0x0 PUSH2 0x234 PUSH2 0x19B JUMP JUMPDEST SWAP1 POP PUSH2 0x240 DUP3 DUP3 PUSH2 0x1F9 JUMP JUMPDEST SWAP2 SWAP1 POP JUMP JUMPDEST PUSH1 0x0 PUSH8 0xFFFFFFFFFFFFFFFF DUP3 GT ISZERO PUSH2 0x260 JUMPI PUSH2 0x25F PUSH2 0x1CA JUMP JUMPDEST JUMPDEST PUSH2 0x269 DUP3 PUSH2 0x1B9 JUMP JUMPDEST SWAP1 POP PUSH1 0x20 DUP2 ADD SWAP1 POP SWAP2 SWAP1 POP JUMP JUMPDEST DUP3 DUP2 DUP4 CALLDATACOPY PUSH1 0x0 DUP4 DUP4 ADD MSTORE POP POP POP JUMP JUMPDEST PUSH1 0x0 PUSH2 0x298 PUSH2 0x293 DUP5 PUSH2 0x245 JUMP JUMPDEST PUSH2 0x22A JUMP JUMPDEST SWAP1 POP DUP3 DUP2 MSTORE PUSH1 0x20 DUP2 ADD DUP5 DUP5 DUP5 ADD GT ISZERO PUSH2 0x2B4 JUMPI PUSH2 0x2B3 PUSH2 0x1B4 JUMP JUMPDEST JUMPDEST PUSH2 0x2BF DUP5 DUP3 DUP6 PUSH2 0x276 JUMP JUMPDEST POP SWAP4 SWAP3 POP POP POP JUMP JUMPDEST PUSH1 0x0 DUP3 PUSH1 0x1F DUP4 ADD SLT PUSH2 0x2DC JUMPI PUSH2 0x2DB PUSH2 0x1AF JUMP JUMPDEST JUMPDEST DUP2 CALLDATALOAD PUSH2 0x2EC DUP5 DUP3 PUSH1 0x20 DUP7 ADD PUSH2 0x285 JUMP JUMPDEST SWAP2 POP POP SWAP3 SWAP2 POP POP JUMP JUMPDEST PUSH1 0x0 PUSH1 0x20 DUP3 DUP5 SUB SLT ISZERO PUSH2 0x30B JUMPI PUSH2 0x30A PUSH2 0x1A5 JUMP JUMPDEST JUMPDEST PUSH1 0x0 DUP3 ADD CALLDATALOAD PUSH8 0xFFFFFFFFFFFFFFFF DUP2 GT ISZERO PUSH2 0x329 JUMPI PUSH2 0x328 PUSH2 0x1AA JUMP JUMPDEST JUMPDEST PUSH2 0x335 DUP5 DUP3 DUP6 ADD PUSH2 0x2C7 JUMP JUMPDEST SWAP2 POP POP SWAP3 SWAP2 POP POP JUMP JUMPDEST PUSH1 0x0 DUP2 MLOAD SWAP1 POP SWAP2 SWAP1 POP JUMP JUMPDEST PUSH1 0x0 DUP3 DUP3 MSTORE PUSH1 0x20 DUP3 ADD SWAP1 POP SWAP3 SWAP2 POP POP JUMP JUMPDEST PUSH1 0x0 JUMPDEST DUP4 DUP2 LT ISZERO PUSH2 0x378 JUMPI DUP1 DUP3 ADD MLOAD DUP2 DUP5 ADD MSTORE PUSH1 0x20 DUP2 ADD SWAP1 POP PUSH2 0x35D JUMP JUMPDEST PUSH1 0x0 DUP5 DUP5 ADD MSTORE POP POP POP POP JUMP JUMPDEST PUSH1 0x0 PUSH2 0x38F DUP3 PUSH2 0x33E JUMP JUMPDEST PUSH2 0x399 DUP2 DUP6 PUSH2 0x349 JUMP JUMPDEST SWAP4 POP PUSH2 0x3A9 DUP2 DUP6 PUSH1 0x20 DUP7 ADD PUSH2 0x35A JUMP JUMPDEST PUSH2 0x3B2 DUP2 PUSH2 0x1B9 JUMP JUMPDEST DUP5 ADD SWAP2 POP POP SWAP3 SWAP2 POP POP JUMP JUMPDEST PUSH1 0x0 PUSH1 0x40 DUP3 ADD SWAP1 POP DUP2 DUP2 SUB PUSH1 0x0 DUP4 ADD MSTORE PUSH2 0x3D7 DUP2 DUP6 PUSH2 0x384 JUMP JUMPDEST SWAP1 POP DUP2 DUP2 SUB PUSH1 0x20 DUP4 ADD MSTORE PUSH2 0x3EB DUP2 DUP5 PUSH2 0x384 JUMP JUMPDEST SWAP1 POP SWAP4 SWAP3 POP POP POP JUMP JUMPDEST PUSH1 0x0 DUP2 SWAP1 POP SWAP2 SWAP1 POP JUMP JUMPDEST PUSH2 0x407 DUP2 PUSH2 0x3F4 JUMP JUMPDEST DUP3 MSTORE POP POP JUMP JUMPDEST PUSH1 0x0 PUSH1 0x20 DUP3 ADD SWAP1 POP PUSH2 0x422 PUSH1 0x0 DUP4 ADD DUP5 PUSH2 0x3FE JUMP JUMPDEST SWAP3 SWAP2 POP POP JUMP JUMPDEST PUSH1 0x0 DUP1 PUSH1 0x40 DUP4 DUP6 SUB SLT ISZERO PUSH2 0x43F JUMPI PUSH2 0x43E PUSH2 0x1A5 JUMP JUMPDEST JUMPDEST PUSH1 0x0 DUP4 ADD CALLDATALOAD PUSH8 0xFFFFFFFFFFFFFFFF DUP2 GT ISZERO PUSH2 0x45D JUMPI PUSH2 0x45C PUSH2 0x1AA JUMP JUMPDEST JUMPDEST PUSH2 0x469 DUP6 DUP3 DUP7 ADD PUSH2 0x2C7 JUMP JUMPDEST SWAP3 POP POP PUSH1 0x20 DUP4 ADD CALLDATALOAD PUSH8 0xFFFFFFFFFFFFFFFF DUP2 GT ISZERO PUSH2 0x48A JUMPI PUSH2 0x489 PUSH2 0x1AA JUMP JUMPDEST JUMPDEST PUSH2 0x496 DUP6 DUP3 DUP7 ADD PUSH2 0x2C7 JUMP JUMPDEST SWAP2 POP POP SWAP3 POP SWAP3 SWAP1 POP JUMP JUMPDEST PUSH1 0x0 DUP2 ISZERO ISZERO SWAP1 POP SWAP2 SWAP1 POP JUMP JUMPDEST PUSH2 0x4B5 DUP2 PUSH2 0x4A0 JUMP JUMPDEST DUP3 MSTORE POP POP JUMP JUMPDEST PUSH1 0x0 PUSH1 0x20 DUP3 ADD SWAP1 POP PUSH2 0x4D0 PUSH1 0x0 DUP4 ADD DUP5 PUSH2 0x4AC JUMP JUMPDEST SWAP3 SWAP2 POP POP JUMP JUMPDEST PUSH1 0x0 DUP2 MLOAD SWAP1 POP SWAP2 SWAP1 POP JUMP JUMPDEST PUSH1 0x0 DUP2 SWAP1 POP SWAP3 SWAP2 POP POP JUMP JUMPDEST PUSH1 0x0 PUSH2 0x4F7 DUP3 PUSH2 0x4D6 JUMP JUMPDEST PUSH2 0x501 DUP2 DUP6 PUSH2 0x4E1 JUMP JUMPDEST SWAP4 POP PUSH2 0x511 DUP2 DUP6 PUSH1 0x20 DUP7 ADD PUSH2 0x35A JUMP JUMPDEST DUP1 DUP5 ADD SWAP2 POP POP SWAP3 SWAP2 POP POP JUMP JUMPDEST PUSH1 0x0 PUSH2 0x529 DUP3 DUP5 PUSH2 0x4EC JUMP JUMPDEST SWAP2 POP DUP2 SWAP1 POP SWAP3 SWAP2 POP POP JUMP INVALID LOG2 PUSH5 0x6970667358 0x22 SLT KECCAK256 0xCA DUP6 0xDC SWAP9 0xD 0xE 0x4C BASEFEE PUSH4 0x666A41C 0x4F CREATE2 CALLCODE 0xE7 DUP10 PUSH6 0x720F20AFE1AD PUSH24 0x1C30B0C9865564736F6C6343000812003300000000000000 "
				},
				"gasEstimates": {
					"creation": {
						"codeDepositCost": "277200",
						"executionCost": "318",
						"totalCost": "277518"
					},
					"external": {
						"compare1(string)": "infinite",
						"compare3(string,string)": "infinite",
						"compare4(string)": "infinite",
						"keccak2(string)": "infinite"
					}
				},
				"methodIdentifiers": {
					"compare1(string)": "2da83353",
					"compare3(string,string)": "99f9fe93",
					"compare4(string)": "28577420",
					"keccak2(string)": "eee90ab1"
				}
			},
			"storageLayout": {
				"storage": [],
				"types": null
			},
			"userdoc": {
				"kind": "user",
				"methods": {},
				"version": 1
			}
		}
	}
}