{
	"contracts/0511/Exam.sol": {
		"Exam": {
			"abi": [
				{
					"inputs": [],
					"name": "Bochung",
					"outputs": [
						{
							"internalType": "uint256",
							"name": "",
							"type": "uint256"
						},
						{
							"components": [
								{
									"internalType": "string",
									"name": "name",
									"type": "string"
								},
								{
									"internalType": "uint256",
									"name": "number",
									"type": "uint256"
								},
								{
									"internalType": "uint256",
									"name": "score",
									"type": "uint256"
								},
								{
									"internalType": "string",
									"name": "credit",
									"type": "string"
								},
								{
									"internalType": "string[]",
									"name": "classes",
									"type": "string[]"
								}
							],
							"internalType": "struct Exam.Student[]",
							"name": "",
							"type": "tuple[]"
						}
					],
					"stateMutability": "view",
					"type": "function"
				},
				{
					"inputs": [],
					"name": "FClass2",
					"outputs": [
						{
							"internalType": "uint256",
							"name": "",
							"type": "uint256"
						},
						{
							"internalType": "uint256",
							"name": "",
							"type": "uint256"
						},
						{
							"components": [
								{
									"internalType": "string",
									"name": "name",
									"type": "string"
								},
								{
									"internalType": "uint256",
									"name": "number",
									"type": "uint256"
								},
								{
									"internalType": "uint256",
									"name": "score",
									"type": "uint256"
								},
								{
									"internalType": "string",
									"name": "credit",
									"type": "string"
								},
								{
									"internalType": "string[]",
									"name": "classes",
									"type": "string[]"
								}
							],
							"internalType": "struct Exam.Student[]",
							"name": "",
							"type": "tuple[]"
						}
					],
					"stateMutability": "view",
					"type": "function"
				},
				{
					"inputs": [],
					"name": "SClass",
					"outputs": [
						{
							"components": [
								{
									"internalType": "string",
									"name": "name",
									"type": "string"
								},
								{
									"internalType": "uint256",
									"name": "number",
									"type": "uint256"
								},
								{
									"internalType": "uint256",
									"name": "score",
									"type": "uint256"
								},
								{
									"internalType": "string",
									"name": "credit",
									"type": "string"
								},
								{
									"internalType": "string[]",
									"name": "classes",
									"type": "string[]"
								}
							],
							"internalType": "struct Exam.Student[]",
							"name": "",
							"type": "tuple[]"
						}
					],
					"stateMutability": "view",
					"type": "function"
				},
				{
					"inputs": [],
					"name": "getAverage",
					"outputs": [
						{
							"internalType": "uint256",
							"name": "",
							"type": "uint256"
						}
					],
					"stateMutability": "view",
					"type": "function"
				},
				{
					"inputs": [
						{
							"internalType": "string",
							"name": "_name",
							"type": "string"
						}
					],
					"name": "getName_Student",
					"outputs": [
						{
							"components": [
								{
									"internalType": "string",
									"name": "name",
									"type": "string"
								},
								{
									"internalType": "uint256",
									"name": "number",
									"type": "uint256"
								},
								{
									"internalType": "uint256",
									"name": "score",
									"type": "uint256"
								},
								{
									"internalType": "string",
									"name": "credit",
									"type": "string"
								},
								{
									"internalType": "string[]",
									"name": "classes",
									"type": "string[]"
								}
							],
							"internalType": "struct Exam.Student",
							"name": "",
							"type": "tuple"
						}
					],
					"stateMutability": "view",
					"type": "function"
				},
				{
					"inputs": [],
					"name": "getStudent",
					"outputs": [
						{
							"components": [
								{
									"internalType": "string",
									"name": "name",
									"type": "string"
								},
								{
									"internalType": "uint256",
									"name": "number",
									"type": "uint256"
								},
								{
									"internalType": "uint256",
									"name": "score",
									"type": "uint256"
								},
								{
									"internalType": "string",
									"name": "credit",
									"type": "string"
								},
								{
									"internalType": "string[]",
									"name": "classes",
									"type": "string[]"
								}
							],
							"internalType": "struct Exam.Student[]",
							"name": "",
							"type": "tuple[]"
						}
					],
					"stateMutability": "view",
					"type": "function"
				},
				{
					"inputs": [],
					"name": "getStudentNum",
					"outputs": [
						{
							"internalType": "uint256",
							"name": "",
							"type": "uint256"
						}
					],
					"stateMutability": "view",
					"type": "function"
				},
				{
					"inputs": [
						{
							"internalType": "uint256",
							"name": "_number",
							"type": "uint256"
						}
					],
					"name": "getStudentfromNum",
					"outputs": [
						{
							"components": [
								{
									"internalType": "string",
									"name": "name",
									"type": "string"
								},
								{
									"internalType": "uint256",
									"name": "number",
									"type": "uint256"
								},
								{
									"internalType": "uint256",
									"name": "score",
									"type": "uint256"
								},
								{
									"internalType": "string",
									"name": "credit",
									"type": "string"
								},
								{
									"internalType": "string[]",
									"name": "classes",
									"type": "string[]"
								}
							],
							"internalType": "struct Exam.Student",
							"name": "",
							"type": "tuple"
						}
					],
					"stateMutability": "view",
					"type": "function"
				},
				{
					"inputs": [
						{
							"internalType": "uint256",
							"name": "_score",
							"type": "uint256"
						}
					],
					"name": "setGrade",
					"outputs": [
						{
							"internalType": "string",
							"name": "",
							"type": "string"
						}
					],
					"stateMutability": "pure",
					"type": "function"
				},
				{
					"inputs": [
						{
							"internalType": "string",
							"name": "_name",
							"type": "string"
						},
						{
							"internalType": "uint256",
							"name": "_number",
							"type": "uint256"
						},
						{
							"internalType": "uint256",
							"name": "_score",
							"type": "uint256"
						},
						{
							"internalType": "string",
							"name": "_credit",
							"type": "string"
						},
						{
							"internalType": "string[]",
							"name": "_classes",
							"type": "string[]"
						}
					],
					"name": "setName_Student",
					"outputs": [],
					"stateMutability": "nonpayable",
					"type": "function"
				},
				{
					"inputs": [
						{
							"internalType": "string",
							"name": "_name",
							"type": "string"
						},
						{
							"internalType": "uint256",
							"name": "_score",
							"type": "uint256"
						},
						{
							"internalType": "string[]",
							"name": "_classes",
							"type": "string[]"
						}
					],
					"name": "setStudent",
					"outputs": [],
					"stateMutability": "nonpayable",
					"type": "function"
				},
				{
					"inputs": [],
					"name": "system",
					"outputs": [
						{
							"internalType": "bool",
							"name": "",
							"type": "bool"
						}
					],
					"stateMutability": "view",
					"type": "function"
				}
			],
			"devdoc": {
				"kind": "dev",
				"methods": {},
				"version": 1
			},
			"evm": {
				"assembly": "    /* \"contracts/0511/Exam.sol\":67:6496  contract Exam{... */\n  mstore(0x40, 0x80)\n  callvalue\n  dup1\n  iszero\n  tag_1\n  jumpi\n  0x00\n  dup1\n  revert\ntag_1:\n  pop\n  dataSize(sub_0)\n  dup1\n  dataOffset(sub_0)\n  0x00\n  codecopy\n  0x00\n  return\nstop\n\nsub_0: assembly {\n        /* \"contracts/0511/Exam.sol\":67:6496  contract Exam{... */\n      mstore(0x40, 0x80)\n      callvalue\n      dup1\n      iszero\n      tag_1\n      jumpi\n      0x00\n      dup1\n      revert\n    tag_1:\n      pop\n      jumpi(tag_2, lt(calldatasize, 0x04))\n      shr(0xe0, calldataload(0x00))\n      dup1\n      0x95bf75fd\n      gt\n      tag_15\n      jumpi\n      dup1\n      0x95bf75fd\n      eq\n      tag_9\n      jumpi\n      dup1\n      0xa0111b8b\n      eq\n      tag_10\n      jumpi\n      dup1\n      0xb439548d\n      eq\n      tag_11\n      jumpi\n      dup1\n      0xbd44be9b\n      eq\n      tag_12\n      jumpi\n      dup1\n      0xd1170306\n      eq\n      tag_13\n      jumpi\n      dup1\n      0xd2a0e73c\n      eq\n      tag_14\n      jumpi\n      jump(tag_2)\n    tag_15:\n      dup1\n      0x1cfd4566\n      eq\n      tag_3\n      jumpi\n      dup1\n      0x21055acb\n      eq\n      tag_4\n      jumpi\n      dup1\n      0x23abd657\n      eq\n      tag_5\n      jumpi\n      dup1\n      0x674271cd\n      eq\n      tag_6\n      jumpi\n      dup1\n      0x7274e992\n      eq\n      tag_7\n      jumpi\n      dup1\n      0x764892d7\n      eq\n      tag_8\n      jumpi\n    tag_2:\n      0x00\n      dup1\n      revert\n        /* \"contracts/0511/Exam.sol\":5674:6225  function SClass() public view returns(Student[] memory){... */\n    tag_3:\n      tag_16\n      tag_17\n      jump\t// in\n    tag_16:\n      mload(0x40)\n      tag_18\n      swap2\n      swap1\n      tag_19\n      jump\t// in\n    tag_18:\n      mload(0x40)\n      dup1\n      swap2\n      sub\n      swap1\n      return\n        /* \"contracts/0511/Exam.sol\":3240:3455  function getAverage() public view returns (uint) {... */\n    tag_4:\n      tag_20\n      tag_21\n      jump\t// in\n    tag_20:\n      mload(0x40)\n      tag_22\n      swap2\n      swap1\n      tag_23\n      jump\t// in\n    tag_22:\n      mload(0x40)\n      dup1\n      swap2\n      sub\n      swap1\n      return\n        /* \"contracts/0511/Exam.sol\":4729:5394  function FClass2() public view returns(/*Student[] memory*/ uint, uint, Student[] memory) {... */\n    tag_5:\n      tag_24\n      tag_25\n      jump\t// in\n    tag_24:\n      mload(0x40)\n      tag_26\n      swap4\n      swap3\n      swap2\n      swap1\n      tag_27\n      jump\t// in\n    tag_26:\n      mload(0x40)\n      dup1\n      swap2\n      sub\n      swap1\n      return\n        /* \"contracts/0511/Exam.sol\":785:1147  function setGrade(uint _score) public pure returns (string memory) {... */\n    tag_6:\n      tag_28\n      0x04\n      dup1\n      calldatasize\n      sub\n      dup2\n      add\n      swap1\n      tag_29\n      swap2\n      swap1\n      tag_30\n      jump\t// in\n    tag_29:\n      tag_31\n      jump\t// in\n    tag_28:\n      mload(0x40)\n      tag_32\n      swap2\n      swap1\n      tag_33\n      jump\t// in\n    tag_32:\n      mload(0x40)\n      dup1\n      swap2\n      sub\n      swap1\n      return\n        /* \"contracts/0511/Exam.sol\":2099:2316  function setName_Student( string memory _name, uint _number,uint _score, string memory _credit, string[] memory _classes) public {... */\n    tag_7:\n      tag_34\n      0x04\n      dup1\n      calldatasize\n      sub\n      dup2\n      add\n      swap1\n      tag_35\n      swap2\n      swap1\n      tag_36\n      jump\t// in\n    tag_35:\n      tag_37\n      jump\t// in\n    tag_34:\n      stop\n        /* \"contracts/0511/Exam.sol\":2836:2928  function getStudentNum() public view returns(uint) {... */\n    tag_8:\n      tag_38\n      tag_39\n      jump\t// in\n    tag_38:\n      mload(0x40)\n      tag_40\n      swap2\n      swap1\n      tag_23\n      jump\t// in\n    tag_40:\n      mload(0x40)\n      dup1\n      swap2\n      sub\n      swap1\n      return\n        /* \"contracts/0511/Exam.sol\":3599:3766  function system() public view returns (bool){... */\n    tag_9:\n      tag_41\n      tag_42\n      jump\t// in\n    tag_41:\n      mload(0x40)\n      tag_43\n      swap2\n      swap1\n      tag_44\n      jump\t// in\n    tag_43:\n      mload(0x40)\n      dup1\n      swap2\n      sub\n      swap1\n      return\n        /* \"contracts/0511/Exam.sol\":3878:4723  function Bochung () public view returns (uint, Student[] memory){... */\n    tag_10:\n      tag_45\n      tag_46\n      jump\t// in\n    tag_45:\n      mload(0x40)\n      tag_47\n      swap3\n      swap2\n      swap1\n      tag_48\n      jump\t// in\n    tag_47:\n      mload(0x40)\n      dup1\n      swap2\n      sub\n      swap1\n      return\n        /* \"contracts/0511/Exam.sol\":3035:3130  function getStudent() public view returns (Student[] memory) {... */\n    tag_11:\n      tag_49\n      tag_50\n      jump\t// in\n    tag_49:\n      mload(0x40)\n      tag_51\n      swap2\n      swap1\n      tag_19\n      jump\t// in\n    tag_51:\n      mload(0x40)\n      dup1\n      swap2\n      sub\n      swap1\n      return\n        /* \"contracts/0511/Exam.sol\":1696:1818  function getStudentfromNum(uint _number) public view returns (Student memory){... */\n    tag_12:\n      tag_52\n      0x04\n      dup1\n      calldatasize\n      sub\n      dup2\n      add\n      swap1\n      tag_53\n      swap2\n      swap1\n      tag_30\n      jump\t// in\n    tag_53:\n      tag_54\n      jump\t// in\n    tag_52:\n      mload(0x40)\n      tag_55\n      swap2\n      swap1\n      tag_56\n      jump\t// in\n    tag_55:\n      mload(0x40)\n      dup1\n      swap2\n      sub\n      swap1\n      return\n        /* \"contracts/0511/Exam.sol\":1277:1579  function setStudent(string memory _name,uint _score,  string[] memory _classes) public {... */\n    tag_13:\n      tag_57\n      0x04\n      dup1\n      calldatasize\n      sub\n      dup2\n      add\n      swap1\n      tag_58\n      swap2\n      swap1\n      tag_59\n      jump\t// in\n    tag_58:\n      tag_60\n      jump\t// in\n    tag_57:\n      stop\n        /* \"contracts/0511/Exam.sol\":2325:2453  function getName_Student(string memory _name) public view returns (Student memory) {... */\n    tag_14:\n      tag_61\n      0x04\n      dup1\n      calldatasize\n      sub\n      dup2\n      add\n      swap1\n      tag_62\n      swap2\n      swap1\n      tag_63\n      jump\t// in\n    tag_62:\n      tag_64\n      jump\t// in\n    tag_61:\n      mload(0x40)\n      tag_65\n      swap2\n      swap1\n      tag_56\n      jump\t// in\n    tag_65:\n      mload(0x40)\n      dup1\n      swap2\n      sub\n      swap1\n      return\n        /* \"contracts/0511/Exam.sol\":5674:6225  function SClass() public view returns(Student[] memory){... */\n    tag_17:\n        /* \"contracts/0511/Exam.sol\":5712:5728  Student[] memory */\n      0x60\n        /* \"contracts/0511/Exam.sol\":5740:5767  Student[] memory S_Students */\n      0x00\n        /* \"contracts/0511/Exam.sol\":5770:5778  students */\n      dup1\n        /* \"contracts/0511/Exam.sol\":5740:5778  Student[] memory S_Students = students */\n      dup1\n      sload\n      dup1\n      0x20\n      mul\n      0x20\n      add\n      mload(0x40)\n      swap1\n      dup2\n      add\n      0x40\n      mstore\n      dup1\n      swap3\n      swap2\n      swap1\n      dup2\n      dup2\n      mstore\n      0x20\n      add\n      0x00\n      swap1\n    tag_67:\n      dup3\n      dup3\n      lt\n      iszero\n      tag_68\n      jumpi\n      dup4\n      dup3\n      swap1\n      0x00\n      mstore\n      keccak256(0x00, 0x20)\n      swap1\n      0x05\n      mul\n      add\n      mload(0x40)\n      dup1\n      0xa0\n      add\n      0x40\n      mstore\n      swap1\n      dup2\n      0x00\n      dup3\n      add\n      dup1\n      sload\n      tag_70\n      swap1\n      tag_71\n      jump\t// in\n    tag_70:\n      dup1\n      0x1f\n      add\n      0x20\n      dup1\n      swap2\n      div\n      mul\n      0x20\n      add\n      mload(0x40)\n      swap1\n      dup2\n      add\n      0x40\n      mstore\n      dup1\n      swap3\n      swap2\n      swap1\n      dup2\n      dup2\n      mstore\n      0x20\n      add\n      dup3\n      dup1\n      sload\n      tag_72\n      swap1\n      tag_71\n      jump\t// in\n    tag_72:\n      dup1\n      iszero\n      tag_73\n      jumpi\n      dup1\n      0x1f\n      lt\n      tag_74\n      jumpi\n      0x0100\n      dup1\n      dup4\n      sload\n      div\n      mul\n      dup4\n      mstore\n      swap2\n      0x20\n      add\n      swap2\n      jump(tag_73)\n    tag_74:\n      dup3\n      add\n      swap2\n      swap1\n      0x00\n      mstore\n      keccak256(0x00, 0x20)\n      swap1\n    tag_75:\n      dup2\n      sload\n      dup2\n      mstore\n      swap1\n      0x01\n      add\n      swap1\n      0x20\n      add\n      dup1\n      dup4\n      gt\n      tag_75\n      jumpi\n      dup3\n      swap1\n      sub\n      0x1f\n      and\n      dup3\n      add\n      swap2\n    tag_73:\n      pop\n      pop\n      pop\n      pop\n      pop\n      dup2\n      mstore\n      0x20\n      add\n      0x01\n      dup3\n      add\n      sload\n      dup2\n      mstore\n      0x20\n      add\n      0x02\n      dup3\n      add\n      sload\n      dup2\n      mstore\n      0x20\n      add\n      0x03\n      dup3\n      add\n      dup1\n      sload\n      tag_76\n      swap1\n      tag_71\n      jump\t// in\n    tag_76:\n      dup1\n      0x1f\n      add\n      0x20\n      dup1\n      swap2\n      div\n      mul\n      0x20\n      add\n      mload(0x40)\n      swap1\n      dup2\n      add\n      0x40\n      mstore\n      dup1\n      swap3\n      swap2\n      swap1\n      dup2\n      dup2\n      mstore\n      0x20\n      add\n      dup3\n      dup1\n      sload\n      tag_77\n      swap1\n      tag_71\n      jump\t// in\n    tag_77:\n      dup1\n      iszero\n      tag_78\n      jumpi\n      dup1\n      0x1f\n      lt\n      tag_79\n      jumpi\n      0x0100\n      dup1\n      dup4\n      sload\n      div\n      mul\n      dup4\n      mstore\n      swap2\n      0x20\n      add\n      swap2\n      jump(tag_78)\n    tag_79:\n      dup3\n      add\n      swap2\n      swap1\n      0x00\n      mstore\n      keccak256(0x00, 0x20)\n      swap1\n    tag_80:\n      dup2\n      sload\n      dup2\n      mstore\n      swap1\n      0x01\n      add\n      swap1\n      0x20\n      add\n      dup1\n      dup4\n      gt\n      tag_80\n      jumpi\n      dup3\n      swap1\n      sub\n      0x1f\n      and\n      dup3\n      add\n      swap2\n    tag_78:\n      pop\n      pop\n      pop\n      pop\n      pop\n      dup2\n      mstore\n      0x20\n      add\n      0x04\n      dup3\n      add\n      dup1\n      sload\n      dup1\n      0x20\n      mul\n      0x20\n      add\n      mload(0x40)\n      swap1\n      dup2\n      add\n      0x40\n      mstore\n      dup1\n      swap3\n      swap2\n      swap1\n      dup2\n      dup2\n      mstore\n      0x20\n      add\n      0x00\n      swap1\n    tag_81:\n      dup3\n      dup3\n      lt\n      iszero\n      tag_82\n      jumpi\n      dup4\n      dup3\n      swap1\n      0x00\n      mstore\n      keccak256(0x00, 0x20)\n      add\n      dup1\n      sload\n      tag_84\n      swap1\n      tag_71\n      jump\t// in\n    tag_84:\n      dup1\n      0x1f\n      add\n      0x20\n      dup1\n      swap2\n      div\n      mul\n      0x20\n      add\n      mload(0x40)\n      swap1\n      dup2\n      add\n      0x40\n      mstore\n      dup1\n      swap3\n      swap2\n      swap1\n      dup2\n      dup2\n      mstore\n      0x20\n      add\n      dup3\n      dup1\n      sload\n      tag_85\n      swap1\n      tag_71\n      jump\t// in\n    tag_85:\n      dup1\n      iszero\n      tag_86\n      jumpi\n      dup1\n      0x1f\n      lt\n      tag_87\n      jumpi\n      0x0100\n      dup1\n      dup4\n      sload\n      div\n      mul\n      dup4\n      mstore\n      swap2\n      0x20\n      add\n      swap2\n      jump(tag_86)\n    tag_87:\n      dup3\n      add\n      swap2\n      swap1\n      0x00\n      mstore\n      keccak256(0x00, 0x20)\n      swap1\n    tag_88:\n      dup2\n      sload\n      dup2\n      mstore\n      swap1\n      0x01\n      add\n      swap1\n      0x20\n      add\n      dup1\n      dup4\n      gt\n      tag_88\n      jumpi\n      dup3\n      swap1\n      sub\n      0x1f\n      and\n      dup3\n      add\n      swap2\n    tag_86:\n      pop\n      pop\n      pop\n      pop\n      pop\n      dup2\n      mstore\n      0x20\n      add\n      swap1\n      0x01\n      add\n      swap1\n      jump(tag_81)\n    tag_82:\n      pop\n      pop\n      pop\n      pop\n      dup2\n      mstore\n      pop\n      pop\n      dup2\n      mstore\n      0x20\n      add\n      swap1\n      0x01\n      add\n      swap1\n      jump(tag_67)\n    tag_68:\n      pop\n      pop\n      pop\n      pop\n      swap1\n      pop\n        /* \"contracts/0511/Exam.sol\":5789:5813  Student[] memory S_Class */\n      0x00\n        /* \"contracts/0511/Exam.sol\":5830:5831  4 */\n      0x04\n        /* \"contracts/0511/Exam.sol\":5816:5832  new Student[](4) */\n      0xffffffffffffffff\n      dup2\n      gt\n      iszero\n      tag_89\n      jumpi\n      tag_90\n      tag_91\n      jump\t// in\n    tag_90:\n    tag_89:\n      mload(0x40)\n      swap1\n      dup1\n      dup3\n      mstore\n      dup1\n      0x20\n      mul\n      0x20\n      add\n      dup3\n      add\n      0x40\n      mstore\n      dup1\n      iszero\n      tag_92\n      jumpi\n      dup2\n      0x20\n      add\n    tag_93:\n      tag_94\n      tag_95\n      jump\t// in\n    tag_94:\n      dup2\n      mstore\n      0x20\n      add\n      swap1\n      0x01\n      swap1\n      sub\n      swap1\n      dup2\n      tag_93\n      jumpi\n      swap1\n      pop\n    tag_92:\n      pop\n        /* \"contracts/0511/Exam.sol\":5789:5832  Student[] memory S_Class = new Student[](4) */\n      swap1\n      pop\n        /* \"contracts/0511/Exam.sol\":5851:5857  uint j */\n      0x00\n        /* \"contracts/0511/Exam.sol\":5858:5859  1 */\n      0x01\n        /* \"contracts/0511/Exam.sol\":5851:5859  uint j=1 */\n      swap1\n      pop\n        /* \"contracts/0511/Exam.sol\":5847:6102  for(uint j=1; j<S_Students.length; j++) {... */\n    tag_96:\n        /* \"contracts/0511/Exam.sol\":5863:5873  S_Students */\n      dup3\n        /* \"contracts/0511/Exam.sol\":5863:5880  S_Students.length */\n      mload\n        /* \"contracts/0511/Exam.sol\":5861:5862  j */\n      dup2\n        /* \"contracts/0511/Exam.sol\":5861:5880  j<S_Students.length */\n      lt\n        /* \"contracts/0511/Exam.sol\":5847:6102  for(uint j=1; j<S_Students.length; j++) {... */\n      iszero\n      tag_97\n      jumpi\n        /* \"contracts/0511/Exam.sol\":5906:5912  uint i */\n      0x00\n        /* \"contracts/0511/Exam.sol\":5902:6091  for(uint i=0; i<j; i++) {... */\n    tag_99:\n        /* \"contracts/0511/Exam.sol\":5918:5919  j */\n      dup2\n        /* \"contracts/0511/Exam.sol\":5916:5917  i */\n      dup2\n        /* \"contracts/0511/Exam.sol\":5916:5919  i<j */\n      lt\n        /* \"contracts/0511/Exam.sol\":5902:6091  for(uint i=0; i<j; i++) {... */\n      iszero\n      tag_100\n      jumpi\n        /* \"contracts/0511/Exam.sol\":5970:5980  S_Students */\n      dup4\n        /* \"contracts/0511/Exam.sol\":5981:5982  j */\n      dup3\n        /* \"contracts/0511/Exam.sol\":5970:5983  S_Students[j] */\n      dup2\n      mload\n      dup2\n      lt\n      tag_102\n      jumpi\n      tag_103\n      tag_104\n      jump\t// in\n    tag_103:\n    tag_102:\n      0x20\n      mul\n      0x20\n      add\n      add\n      mload\n        /* \"contracts/0511/Exam.sol\":5970:5989  S_Students[j].score */\n      0x40\n      add\n      mload\n        /* \"contracts/0511/Exam.sol\":5948:5958  S_Students */\n      dup5\n        /* \"contracts/0511/Exam.sol\":5959:5960  i */\n      dup3\n        /* \"contracts/0511/Exam.sol\":5948:5961  S_Students[i] */\n      dup2\n      mload\n      dup2\n      lt\n      tag_105\n      jumpi\n      tag_106\n      tag_104\n      jump\t// in\n    tag_106:\n    tag_105:\n      0x20\n      mul\n      0x20\n      add\n      add\n      mload\n        /* \"contracts/0511/Exam.sol\":5948:5967  S_Students[i].score */\n      0x40\n      add\n      mload\n        /* \"contracts/0511/Exam.sol\":5948:5989  S_Students[i].score < S_Students[j].score */\n      lt\n        /* \"contracts/0511/Exam.sol\":5945:6072  if(S_Students[i].score < S_Students[j].score){... */\n      iszero\n      tag_107\n      jumpi\n        /* \"contracts/0511/Exam.sol\":6042:6052  S_Students */\n      dup4\n        /* \"contracts/0511/Exam.sol\":6053:6054  j */\n      dup3\n        /* \"contracts/0511/Exam.sol\":6042:6055  S_Students[j] */\n      dup2\n      mload\n      dup2\n      lt\n      tag_108\n      jumpi\n      tag_109\n      tag_104\n      jump\t// in\n    tag_109:\n    tag_108:\n      0x20\n      mul\n      0x20\n      add\n      add\n      mload\n        /* \"contracts/0511/Exam.sol\":6056:6066  S_Students */\n      dup5\n        /* \"contracts/0511/Exam.sol\":6067:6068  i */\n      dup3\n        /* \"contracts/0511/Exam.sol\":6056:6069  S_Students[i] */\n      dup2\n      mload\n      dup2\n      lt\n      tag_110\n      jumpi\n      tag_111\n      tag_104\n      jump\t// in\n    tag_111:\n    tag_110:\n      0x20\n      mul\n      0x20\n      add\n      add\n      mload\n        /* \"contracts/0511/Exam.sol\":6010:6020  S_Students */\n      dup6\n        /* \"contracts/0511/Exam.sol\":6021:6022  i */\n      dup4\n        /* \"contracts/0511/Exam.sol\":6010:6023  S_Students[i] */\n      dup2\n      mload\n      dup2\n      lt\n      tag_112\n      jumpi\n      tag_113\n      tag_104\n      jump\t// in\n    tag_113:\n    tag_112:\n      0x20\n      mul\n      0x20\n      add\n      add\n        /* \"contracts/0511/Exam.sol\":6024:6034  S_Students */\n      dup7\n        /* \"contracts/0511/Exam.sol\":6035:6036  j */\n      dup6\n        /* \"contracts/0511/Exam.sol\":6024:6037  S_Students[j] */\n      dup2\n      mload\n      dup2\n      lt\n      tag_114\n      jumpi\n      tag_115\n      tag_104\n      jump\t// in\n    tag_115:\n    tag_114:\n      0x20\n      mul\n      0x20\n      add\n      add\n        /* \"contracts/0511/Exam.sol\":6009:6070  (S_Students[i],S_Students[j]) = (S_Students[j],S_Students[i]) */\n      dup3\n      swap1\n      mstore\n      dup3\n      swap1\n      mstore\n      pop\n      pop\n        /* \"contracts/0511/Exam.sol\":5945:6072  if(S_Students[i].score < S_Students[j].score){... */\n    tag_107:\n        /* \"contracts/0511/Exam.sol\":5921:5924  i++ */\n      dup1\n      dup1\n      tag_116\n      swap1\n      tag_117\n      jump\t// in\n    tag_116:\n      swap2\n      pop\n      pop\n        /* \"contracts/0511/Exam.sol\":5902:6091  for(uint i=0; i<j; i++) {... */\n      jump(tag_99)\n    tag_100:\n      pop\n        /* \"contracts/0511/Exam.sol\":5882:5885  j++ */\n      dup1\n      dup1\n      tag_118\n      swap1\n      tag_117\n      jump\t// in\n    tag_118:\n      swap2\n      pop\n      pop\n        /* \"contracts/0511/Exam.sol\":5847:6102  for(uint j=1; j<S_Students.length; j++) {... */\n      jump(tag_96)\n    tag_97:\n      pop\n        /* \"contracts/0511/Exam.sol\":6118:6124  uint i */\n      0x00\n        /* \"contracts/0511/Exam.sol\":6114:6191  for(uint i=0; i<4; i++) {... */\n    tag_119:\n        /* \"contracts/0511/Exam.sol\":6130:6131  4 */\n      0x04\n        /* \"contracts/0511/Exam.sol\":6128:6129  i */\n      dup2\n        /* \"contracts/0511/Exam.sol\":6128:6131  i<4 */\n      lt\n        /* \"contracts/0511/Exam.sol\":6114:6191  for(uint i=0; i<4; i++) {... */\n      iszero\n      tag_120\n      jumpi\n        /* \"contracts/0511/Exam.sol\":6166:6176  S_Students */\n      dup3\n        /* \"contracts/0511/Exam.sol\":6177:6178  i */\n      dup2\n        /* \"contracts/0511/Exam.sol\":6166:6179  S_Students[i] */\n      dup2\n      mload\n      dup2\n      lt\n      tag_122\n      jumpi\n      tag_123\n      tag_104\n      jump\t// in\n    tag_123:\n    tag_122:\n      0x20\n      mul\n      0x20\n      add\n      add\n      mload\n        /* \"contracts/0511/Exam.sol\":6153:6160  S_Class */\n      dup3\n        /* \"contracts/0511/Exam.sol\":6161:6162  i */\n      dup3\n        /* \"contracts/0511/Exam.sol\":6153:6163  S_Class[i] */\n      dup2\n      mload\n      dup2\n      lt\n      tag_124\n      jumpi\n      tag_125\n      tag_104\n      jump\t// in\n    tag_125:\n    tag_124:\n      0x20\n      mul\n      0x20\n      add\n      add\n        /* \"contracts/0511/Exam.sol\":6153:6179  S_Class[i] = S_Students[i] */\n      dup2\n      swap1\n      mstore\n      pop\n        /* \"contracts/0511/Exam.sol\":6133:6136  i++ */\n      dup1\n      dup1\n      tag_126\n      swap1\n      tag_117\n      jump\t// in\n    tag_126:\n      swap2\n      pop\n      pop\n        /* \"contracts/0511/Exam.sol\":6114:6191  for(uint i=0; i<4; i++) {... */\n      jump(tag_119)\n    tag_120:\n      pop\n        /* \"contracts/0511/Exam.sol\":6210:6217  S_Class */\n      dup1\n        /* \"contracts/0511/Exam.sol\":6203:6217  return S_Class */\n      swap3\n      pop\n      pop\n      pop\n        /* \"contracts/0511/Exam.sol\":5674:6225  function SClass() public view returns(Student[] memory){... */\n      swap1\n      jump\t// out\n        /* \"contracts/0511/Exam.sol\":3240:3455  function getAverage() public view returns (uint) {... */\n    tag_21:\n        /* \"contracts/0511/Exam.sol\":3283:3287  uint */\n      0x00\n        /* \"contracts/0511/Exam.sol\":3296:3304  uint sum */\n      dup1\n        /* \"contracts/0511/Exam.sol\":3320:3326  uint i */\n      0x00\n        /* \"contracts/0511/Exam.sol\":3316:3409  for(uint i=0; i<students.length; i++){... */\n    tag_128:\n        /* \"contracts/0511/Exam.sol\":3332:3340  students */\n      0x00\n        /* \"contracts/0511/Exam.sol\":3332:3347  students.length */\n      dup1\n      sload\n      swap1\n      pop\n        /* \"contracts/0511/Exam.sol\":3330:3331  i */\n      dup2\n        /* \"contracts/0511/Exam.sol\":3330:3347  i<students.length */\n      lt\n        /* \"contracts/0511/Exam.sol\":3316:3409  for(uint i=0; i<students.length; i++){... */\n      iszero\n      tag_129\n      jumpi\n        /* \"contracts/0511/Exam.sol\":3380:3388  students */\n      0x00\n        /* \"contracts/0511/Exam.sol\":3389:3390  i */\n      dup2\n        /* \"contracts/0511/Exam.sol\":3380:3391  students[i] */\n      dup2\n      sload\n      dup2\n      lt\n      tag_131\n      jumpi\n      tag_132\n      tag_104\n      jump\t// in\n    tag_132:\n    tag_131:\n      swap1\n      0x00\n      mstore\n      keccak256(0x00, 0x20)\n      swap1\n      0x05\n      mul\n      add\n        /* \"contracts/0511/Exam.sol\":3380:3397  students[i].score */\n      0x02\n      add\n      sload\n        /* \"contracts/0511/Exam.sol\":3374:3377  sum */\n      dup3\n        /* \"contracts/0511/Exam.sol\":3374:3397  sum + students[i].score */\n      tag_134\n      swap2\n      swap1\n      tag_135\n      jump\t// in\n    tag_134:\n        /* \"contracts/0511/Exam.sol\":3368:3397  sum = sum + students[i].score */\n      swap2\n      pop\n        /* \"contracts/0511/Exam.sol\":3349:3352  i++ */\n      dup1\n      dup1\n      tag_136\n      swap1\n      tag_117\n      jump\t// in\n    tag_136:\n      swap2\n      pop\n      pop\n        /* \"contracts/0511/Exam.sol\":3316:3409  for(uint i=0; i<students.length; i++){... */\n      jump(tag_128)\n    tag_129:\n      pop\n        /* \"contracts/0511/Exam.sol\":3431:3439  students */\n      0x00\n        /* \"contracts/0511/Exam.sol\":3431:3446  students.length */\n      dup1\n      sload\n      swap1\n      pop\n        /* \"contracts/0511/Exam.sol\":3427:3430  sum */\n      dup2\n        /* \"contracts/0511/Exam.sol\":3427:3446  sum/students.length */\n      tag_137\n      swap2\n      swap1\n      tag_138\n      jump\t// in\n    tag_137:\n        /* \"contracts/0511/Exam.sol\":3419:3447  return (sum/students.length) */\n      swap2\n      pop\n      pop\n        /* \"contracts/0511/Exam.sol\":3240:3455  function getAverage() public view returns (uint) {... */\n      swap1\n      jump\t// out\n        /* \"contracts/0511/Exam.sol\":4729:5394  function FClass2() public view returns(/*Student[] memory*/ uint, uint, Student[] memory) {... */\n    tag_25:\n        /* \"contracts/0511/Exam.sol\":4789:4793  uint */\n      0x00\n        /* \"contracts/0511/Exam.sol\":4795:4799  uint */\n      dup1\n        /* \"contracts/0511/Exam.sol\":4801:4817  Student[] memory */\n      0x60\n        /* \"contracts/0511/Exam.sol\":4830:4857  Student[] memory F_Students */\n      0x00\n        /* \"contracts/0511/Exam.sol\":4860:4868  students */\n      dup1\n        /* \"contracts/0511/Exam.sol\":4830:4868  Student[] memory F_Students = students */\n      dup1\n      sload\n      dup1\n      0x20\n      mul\n      0x20\n      add\n      mload(0x40)\n      swap1\n      dup2\n      add\n      0x40\n      mstore\n      dup1\n      swap3\n      swap2\n      swap1\n      dup2\n      dup2\n      mstore\n      0x20\n      add\n      0x00\n      swap1\n    tag_140:\n      dup3\n      dup3\n      lt\n      iszero\n      tag_141\n      jumpi\n      dup4\n      dup3\n      swap1\n      0x00\n      mstore\n      keccak256(0x00, 0x20)\n      swap1\n      0x05\n      mul\n      add\n      mload(0x40)\n      dup1\n      0xa0\n      add\n      0x40\n      mstore\n      swap1\n      dup2\n      0x00\n      dup3\n      add\n      dup1\n      sload\n      tag_143\n      swap1\n      tag_71\n      jump\t// in\n    tag_143:\n      dup1\n      0x1f\n      add\n      0x20\n      dup1\n      swap2\n      div\n      mul\n      0x20\n      add\n      mload(0x40)\n      swap1\n      dup2\n      add\n      0x40\n      mstore\n      dup1\n      swap3\n      swap2\n      swap1\n      dup2\n      dup2\n      mstore\n      0x20\n      add\n      dup3\n      dup1\n      sload\n      tag_144\n      swap1\n      tag_71\n      jump\t// in\n    tag_144:\n      dup1\n      iszero\n      tag_145\n      jumpi\n      dup1\n      0x1f\n      lt\n      tag_146\n      jumpi\n      0x0100\n      dup1\n      dup4\n      sload\n      div\n      mul\n      dup4\n      mstore\n      swap2\n      0x20\n      add\n      swap2\n      jump(tag_145)\n    tag_146:\n      dup3\n      add\n      swap2\n      swap1\n      0x00\n      mstore\n      keccak256(0x00, 0x20)\n      swap1\n    tag_147:\n      dup2\n      sload\n      dup2\n      mstore\n      swap1\n      0x01\n      add\n      swap1\n      0x20\n      add\n      dup1\n      dup4\n      gt\n      tag_147\n      jumpi\n      dup3\n      swap1\n      sub\n      0x1f\n      and\n      dup3\n      add\n      swap2\n    tag_145:\n      pop\n      pop\n      pop\n      pop\n      pop\n      dup2\n      mstore\n      0x20\n      add\n      0x01\n      dup3\n      add\n      sload\n      dup2\n      mstore\n      0x20\n      add\n      0x02\n      dup3\n      add\n      sload\n      dup2\n      mstore\n      0x20\n      add\n      0x03\n      dup3\n      add\n      dup1\n      sload\n      tag_148\n      swap1\n      tag_71\n      jump\t// in\n    tag_148:\n      dup1\n      0x1f\n      add\n      0x20\n      dup1\n      swap2\n      div\n      mul\n      0x20\n      add\n      mload(0x40)\n      swap1\n      dup2\n      add\n      0x40\n      mstore\n      dup1\n      swap3\n      swap2\n      swap1\n      dup2\n      dup2\n      mstore\n      0x20\n      add\n      dup3\n      dup1\n      sload\n      tag_149\n      swap1\n      tag_71\n      jump\t// in\n    tag_149:\n      dup1\n      iszero\n      tag_150\n      jumpi\n      dup1\n      0x1f\n      lt\n      tag_151\n      jumpi\n      0x0100\n      dup1\n      dup4\n      sload\n      div\n      mul\n      dup4\n      mstore\n      swap2\n      0x20\n      add\n      swap2\n      jump(tag_150)\n    tag_151:\n      dup3\n      add\n      swap2\n      swap1\n      0x00\n      mstore\n      keccak256(0x00, 0x20)\n      swap1\n    tag_152:\n      dup2\n      sload\n      dup2\n      mstore\n      swap1\n      0x01\n      add\n      swap1\n      0x20\n      add\n      dup1\n      dup4\n      gt\n      tag_152\n      jumpi\n      dup3\n      swap1\n      sub\n      0x1f\n      and\n      dup3\n      add\n      swap2\n    tag_150:\n      pop\n      pop\n      pop\n      pop\n      pop\n      dup2\n      mstore\n      0x20\n      add\n      0x04\n      dup3\n      add\n      dup1\n      sload\n      dup1\n      0x20\n      mul\n      0x20\n      add\n      mload(0x40)\n      swap1\n      dup2\n      add\n      0x40\n      mstore\n      dup1\n      swap3\n      swap2\n      swap1\n      dup2\n      dup2\n      mstore\n      0x20\n      add\n      0x00\n      swap1\n    tag_153:\n      dup3\n      dup3\n      lt\n      iszero\n      tag_154\n      jumpi\n      dup4\n      dup3\n      swap1\n      0x00\n      mstore\n      keccak256(0x00, 0x20)\n      add\n      dup1\n      sload\n      tag_156\n      swap1\n      tag_71\n      jump\t// in\n    tag_156:\n      dup1\n      0x1f\n      add\n      0x20\n      dup1\n      swap2\n      div\n      mul\n      0x20\n      add\n      mload(0x40)\n      swap1\n      dup2\n      add\n      0x40\n      mstore\n      dup1\n      swap3\n      swap2\n      swap1\n      dup2\n      dup2\n      mstore\n      0x20\n      add\n      dup3\n      dup1\n      sload\n      tag_157\n      swap1\n      tag_71\n      jump\t// in\n    tag_157:\n      dup1\n      iszero\n      tag_158\n      jumpi\n      dup1\n      0x1f\n      lt\n      tag_159\n      jumpi\n      0x0100\n      dup1\n      dup4\n      sload\n      div\n      mul\n      dup4\n      mstore\n      swap2\n      0x20\n      add\n      swap2\n      jump(tag_158)\n    tag_159:\n      dup3\n      add\n      swap2\n      swap1\n      0x00\n      mstore\n      keccak256(0x00, 0x20)\n      swap1\n    tag_160:\n      dup2\n      sload\n      dup2\n      mstore\n      swap1\n      0x01\n      add\n      swap1\n      0x20\n      add\n      dup1\n      dup4\n      gt\n      tag_160\n      jumpi\n      dup3\n      swap1\n      sub\n      0x1f\n      and\n      dup3\n      add\n      swap2\n    tag_158:\n      pop\n      pop\n      pop\n      pop\n      pop\n      dup2\n      mstore\n      0x20\n      add\n      swap1\n      0x01\n      add\n      swap1\n      jump(tag_153)\n    tag_154:\n      pop\n      pop\n      pop\n      pop\n      dup2\n      mstore\n      pop\n      pop\n      dup2\n      mstore\n      0x20\n      add\n      swap1\n      0x01\n      add\n      swap1\n      jump(tag_140)\n    tag_141:\n      pop\n      pop\n      pop\n      pop\n      swap1\n      pop\n        /* \"contracts/0511/Exam.sol\":4879:4905  Student[] memory F_Storage */\n      0x60\n        /* \"contracts/0511/Exam.sol\":4918:4928  uint count */\n      0x00\n        /* \"contracts/0511/Exam.sol\":4945:4951  uint i */\n      dup1\n        /* \"contracts/0511/Exam.sol\":4952:4953  0 */\n      0x00\n        /* \"contracts/0511/Exam.sol\":4945:4953  uint i=0 */\n      swap1\n      pop\n        /* \"contracts/0511/Exam.sol\":4941:5333  for(uint i=0; i<students.length; i++) {... */\n    tag_161:\n        /* \"contracts/0511/Exam.sol\":4957:4965  students */\n      0x00\n        /* \"contracts/0511/Exam.sol\":4957:4972  students.length */\n      dup1\n      sload\n      swap1\n      pop\n        /* \"contracts/0511/Exam.sol\":4955:4956  i */\n      dup2\n        /* \"contracts/0511/Exam.sol\":4955:4972  i<students.length */\n      lt\n        /* \"contracts/0511/Exam.sol\":4941:5333  for(uint i=0; i<students.length; i++) {... */\n      iszero\n      tag_162\n      jumpi\n        /* \"contracts/0511/Exam.sol\":5047:5057  bytes(\"F\") */\n      mload(0x40)\n      dup1\n      0x40\n      add\n      0x40\n      mstore\n      dup1\n      0x01\n      dup2\n      mstore\n      0x20\n      add\n      0x4600000000000000000000000000000000000000000000000000000000000000\n      dup2\n      mstore\n      pop\n        /* \"contracts/0511/Exam.sol\":5037:5058  keccak256(bytes(\"F\")) */\n      dup1\n      mload\n      swap1\n      0x20\n      add\n      keccak256\n        /* \"contracts/0511/Exam.sol\":5013:5021  students */\n      0x00\n        /* \"contracts/0511/Exam.sol\":5022:5023  i */\n      dup3\n        /* \"contracts/0511/Exam.sol\":5013:5024  students[i] */\n      dup2\n      sload\n      dup2\n      lt\n      tag_164\n      jumpi\n      tag_165\n      tag_104\n      jump\t// in\n    tag_165:\n    tag_164:\n      swap1\n      0x00\n      mstore\n      keccak256(0x00, 0x20)\n      swap1\n      0x05\n      mul\n      add\n        /* \"contracts/0511/Exam.sol\":5013:5031  students[i].credit */\n      0x03\n      add\n        /* \"contracts/0511/Exam.sol\":4997:5033  keccak256(bytes(students[i].credit)) */\n      mload(0x40)\n      tag_167\n      swap2\n      swap1\n      tag_168\n      jump\t// in\n    tag_167:\n      mload(0x40)\n      dup1\n      swap2\n      sub\n      swap1\n      keccak256\n        /* \"contracts/0511/Exam.sol\":4997:5058  keccak256(bytes(students[i].credit)) == keccak256(bytes(\"F\")) */\n      sub\n        /* \"contracts/0511/Exam.sol\":4994:5322  if(keccak256(bytes(students[i].credit)) == keccak256(bytes(\"F\"))) {... */\n      tag_169\n      jumpi\n        /* \"contracts/0511/Exam.sol\":5079:5086  count++ */\n      dup2\n      dup1\n      tag_170\n      swap1\n      tag_117\n      jump\t// in\n    tag_170:\n      swap3\n      pop\n      pop\n        /* \"contracts/0511/Exam.sol\":5127:5135  students */\n      0x00\n        /* \"contracts/0511/Exam.sol\":5136:5137  i */\n      dup2\n        /* \"contracts/0511/Exam.sol\":5127:5138  students[i] */\n      dup2\n      sload\n      dup2\n      lt\n      tag_171\n      jumpi\n      tag_172\n      tag_104\n      jump\t// in\n    tag_172:\n    tag_171:\n      swap1\n      0x00\n      mstore\n      keccak256(0x00, 0x20)\n      swap1\n      0x05\n      mul\n      add\n        /* \"contracts/0511/Exam.sol\":5105:5138  F_Students[count-1] = students[i] */\n      mload(0x40)\n      dup1\n      0xa0\n      add\n      0x40\n      mstore\n      swap1\n      dup2\n      0x00\n      dup3\n      add\n      dup1\n      sload\n      tag_174\n      swap1\n      tag_71\n      jump\t// in\n    tag_174:\n      dup1\n      0x1f\n      add\n      0x20\n      dup1\n      swap2\n      div\n      mul\n      0x20\n      add\n      mload(0x40)\n      swap1\n      dup2\n      add\n      0x40\n      mstore\n      dup1\n      swap3\n      swap2\n      swap1\n      dup2\n      dup2\n      mstore\n      0x20\n      add\n      dup3\n      dup1\n      sload\n      tag_175\n      swap1\n      tag_71\n      jump\t// in\n    tag_175:\n      dup1\n      iszero\n      tag_176\n      jumpi\n      dup1\n      0x1f\n      lt\n      tag_177\n      jumpi\n      0x0100\n      dup1\n      dup4\n      sload\n      div\n      mul\n      dup4\n      mstore\n      swap2\n      0x20\n      add\n      swap2\n      jump(tag_176)\n    tag_177:\n      dup3\n      add\n      swap2\n      swap1\n      0x00\n      mstore\n      keccak256(0x00, 0x20)\n      swap1\n    tag_178:\n      dup2\n      sload\n      dup2\n      mstore\n      swap1\n      0x01\n      add\n      swap1\n      0x20\n      add\n      dup1\n      dup4\n      gt\n      tag_178\n      jumpi\n      dup3\n      swap1\n      sub\n      0x1f\n      and\n      dup3\n      add\n      swap2\n    tag_176:\n      pop\n      pop\n      pop\n      pop\n      pop\n      dup2\n      mstore\n      0x20\n      add\n      0x01\n      dup3\n      add\n      sload\n      dup2\n      mstore\n      0x20\n      add\n      0x02\n      dup3\n      add\n      sload\n      dup2\n      mstore\n      0x20\n      add\n      0x03\n      dup3\n      add\n      dup1\n      sload\n      tag_179\n      swap1\n      tag_71\n      jump\t// in\n    tag_179:\n      dup1\n      0x1f\n      add\n      0x20\n      dup1\n      swap2\n      div\n      mul\n      0x20\n      add\n      mload(0x40)\n      swap1\n      dup2\n      add\n      0x40\n      mstore\n      dup1\n      swap3\n      swap2\n      swap1\n      dup2\n      dup2\n      mstore\n      0x20\n      add\n      dup3\n      dup1\n      sload\n      tag_180\n      swap1\n      tag_71\n      jump\t// in\n    tag_180:\n      dup1\n      iszero\n      tag_181\n      jumpi\n      dup1\n      0x1f\n      lt\n      tag_182\n      jumpi\n      0x0100\n      dup1\n      dup4\n      sload\n      div\n      mul\n      dup4\n      mstore\n      swap2\n      0x20\n      add\n      swap2\n      jump(tag_181)\n    tag_182:\n      dup3\n      add\n      swap2\n      swap1\n      0x00\n      mstore\n      keccak256(0x00, 0x20)\n      swap1\n    tag_183:\n      dup2\n      sload\n      dup2\n      mstore\n      swap1\n      0x01\n      add\n      swap1\n      0x20\n      add\n      dup1\n      dup4\n      gt\n      tag_183\n      jumpi\n      dup3\n      swap1\n      sub\n      0x1f\n      and\n      dup3\n      add\n      swap2\n    tag_181:\n      pop\n      pop\n      pop\n      pop\n      pop\n      dup2\n      mstore\n      0x20\n      add\n      0x04\n      dup3\n      add\n      dup1\n      sload\n      dup1\n      0x20\n      mul\n      0x20\n      add\n      mload(0x40)\n      swap1\n      dup2\n      add\n      0x40\n      mstore\n      dup1\n      swap3\n      swap2\n      swap1\n      dup2\n      dup2\n      mstore\n      0x20\n      add\n      0x00\n      swap1\n    tag_184:\n      dup3\n      dup3\n      lt\n      iszero\n      tag_185\n      jumpi\n      dup4\n      dup3\n      swap1\n      0x00\n      mstore\n      keccak256(0x00, 0x20)\n      add\n      dup1\n      sload\n      tag_187\n      swap1\n      tag_71\n      jump\t// in\n    tag_187:\n      dup1\n      0x1f\n      add\n      0x20\n      dup1\n      swap2\n      div\n      mul\n      0x20\n      add\n      mload(0x40)\n      swap1\n      dup2\n      add\n      0x40\n      mstore\n      dup1\n      swap3\n      swap2\n      swap1\n      dup2\n      dup2\n      mstore\n      0x20\n      add\n      dup3\n      dup1\n      sload\n      tag_188\n      swap1\n      tag_71\n      jump\t// in\n    tag_188:\n      dup1\n      iszero\n      tag_189\n      jumpi\n      dup1\n      0x1f\n      lt\n      tag_190\n      jumpi\n      0x0100\n      dup1\n      dup4\n      sload\n      div\n      mul\n      dup4\n      mstore\n      swap2\n      0x20\n      add\n      swap2\n      jump(tag_189)\n    tag_190:\n      dup3\n      add\n      swap2\n      swap1\n      0x00\n      mstore\n      keccak256(0x00, 0x20)\n      swap1\n    tag_191:\n      dup2\n      sload\n      dup2\n      mstore\n      swap1\n      0x01\n      add\n      swap1\n      0x20\n      add\n      dup1\n      dup4\n      gt\n      tag_191\n      jumpi\n      dup3\n      swap1\n      sub\n      0x1f\n      and\n      dup3\n      add\n      swap2\n    tag_189:\n      pop\n      pop\n      pop\n      pop\n      pop\n      dup2\n      mstore\n      0x20\n      add\n      swap1\n      0x01\n      add\n      swap1\n      jump(tag_184)\n    tag_185:\n      pop\n      pop\n      pop\n      pop\n      dup2\n      mstore\n      pop\n      pop\n        /* \"contracts/0511/Exam.sol\":5105:5115  F_Students */\n      dup5\n        /* \"contracts/0511/Exam.sol\":5122:5123  1 */\n      0x01\n        /* \"contracts/0511/Exam.sol\":5116:5121  count */\n      dup5\n        /* \"contracts/0511/Exam.sol\":5116:5123  count-1 */\n      tag_192\n      swap2\n      swap1\n      tag_193\n      jump\t// in\n    tag_192:\n        /* \"contracts/0511/Exam.sol\":5105:5124  F_Students[count-1] */\n      dup2\n      mload\n      dup2\n      lt\n      tag_194\n      jumpi\n      tag_195\n      tag_104\n      jump\t// in\n    tag_195:\n    tag_194:\n      0x20\n      mul\n      0x20\n      add\n      add\n        /* \"contracts/0511/Exam.sol\":5105:5138  F_Students[count-1] = students[i] */\n      dup2\n      swap1\n      mstore\n      pop\n        /* \"contracts/0511/Exam.sol\":5183:5188  count */\n      dup2\n        /* \"contracts/0511/Exam.sol\":5169:5189  new Student[](count) */\n      0xffffffffffffffff\n      dup2\n      gt\n      iszero\n      tag_196\n      jumpi\n      tag_197\n      tag_91\n      jump\t// in\n    tag_197:\n    tag_196:\n      mload(0x40)\n      swap1\n      dup1\n      dup3\n      mstore\n      dup1\n      0x20\n      mul\n      0x20\n      add\n      dup3\n      add\n      0x40\n      mstore\n      dup1\n      iszero\n      tag_198\n      jumpi\n      dup2\n      0x20\n      add\n    tag_199:\n      tag_200\n      tag_95\n      jump\t// in\n    tag_200:\n      dup2\n      mstore\n      0x20\n      add\n      swap1\n      0x01\n      swap1\n      sub\n      swap1\n      dup2\n      tag_199\n      jumpi\n      swap1\n      pop\n    tag_198:\n      pop\n        /* \"contracts/0511/Exam.sol\":5157:5189  F_Storage = new Student[](count) */\n      swap3\n      pop\n        /* \"contracts/0511/Exam.sol\":5212:5218  uint j */\n      0x00\n        /* \"contracts/0511/Exam.sol\":5208:5307  for(uint j=0; j<count; j++) {... */\n    tag_201:\n        /* \"contracts/0511/Exam.sol\":5224:5229  count */\n      dup3\n        /* \"contracts/0511/Exam.sol\":5222:5223  j */\n      dup2\n        /* \"contracts/0511/Exam.sol\":5222:5229  j<count */\n      lt\n        /* \"contracts/0511/Exam.sol\":5208:5307  for(uint j=0; j<count; j++) {... */\n      iszero\n      tag_202\n      jumpi\n        /* \"contracts/0511/Exam.sol\":5274:5284  F_Students */\n      dup5\n        /* \"contracts/0511/Exam.sol\":5285:5286  j */\n      dup2\n        /* \"contracts/0511/Exam.sol\":5274:5287  F_Students[j] */\n      dup2\n      mload\n      dup2\n      lt\n      tag_204\n      jumpi\n      tag_205\n      tag_104\n      jump\t// in\n    tag_205:\n    tag_204:\n      0x20\n      mul\n      0x20\n      add\n      add\n      mload\n        /* \"contracts/0511/Exam.sol\":5259:5268  F_Storage */\n      dup5\n        /* \"contracts/0511/Exam.sol\":5269:5270  j */\n      dup3\n        /* \"contracts/0511/Exam.sol\":5259:5271  F_Storage[j] */\n      dup2\n      mload\n      dup2\n      lt\n      tag_206\n      jumpi\n      tag_207\n      tag_104\n      jump\t// in\n    tag_207:\n    tag_206:\n      0x20\n      mul\n      0x20\n      add\n      add\n        /* \"contracts/0511/Exam.sol\":5259:5287  F_Storage[j] = F_Students[j] */\n      dup2\n      swap1\n      mstore\n      pop\n        /* \"contracts/0511/Exam.sol\":5231:5234  j++ */\n      dup1\n      dup1\n      tag_208\n      swap1\n      tag_117\n      jump\t// in\n    tag_208:\n      swap2\n      pop\n      pop\n        /* \"contracts/0511/Exam.sol\":5208:5307  for(uint j=0; j<count; j++) {... */\n      jump(tag_201)\n    tag_202:\n      pop\n        /* \"contracts/0511/Exam.sol\":4994:5322  if(keccak256(bytes(students[i].credit)) == keccak256(bytes(\"F\"))) {... */\n    tag_169:\n        /* \"contracts/0511/Exam.sol\":4974:4977  i++ */\n      dup1\n      dup1\n      tag_209\n      swap1\n      tag_117\n      jump\t// in\n    tag_209:\n      swap2\n      pop\n      pop\n        /* \"contracts/0511/Exam.sol\":4941:5333  for(uint i=0; i<students.length; i++) {... */\n      jump(tag_161)\n    tag_162:\n      pop\n        /* \"contracts/0511/Exam.sol\":5351:5360  F_Storage */\n      dup2\n        /* \"contracts/0511/Exam.sol\":5351:5367  F_Storage.length */\n      mload\n        /* \"contracts/0511/Exam.sol\":5369:5374  count */\n      dup2\n        /* \"contracts/0511/Exam.sol\":5376:5385  F_Storage */\n      dup4\n        /* \"contracts/0511/Exam.sol\":5343:5386  return (F_Storage.length, count, F_Storage) */\n      swap6\n      pop\n      swap6\n      pop\n      swap6\n      pop\n      pop\n      pop\n      pop\n        /* \"contracts/0511/Exam.sol\":4729:5394  function FClass2() public view returns(/*Student[] memory*/ uint, uint, Student[] memory) {... */\n      swap1\n      swap2\n      swap3\n      jump\t// out\n        /* \"contracts/0511/Exam.sol\":785:1147  function setGrade(uint _score) public pure returns (string memory) {... */\n    tag_31:\n        /* \"contracts/0511/Exam.sol\":837:850  string memory */\n      0x60\n        /* \"contracts/0511/Exam.sol\":876:878  90 */\n      0x5a\n        /* \"contracts/0511/Exam.sol\":866:872  _score */\n      dup3\n        /* \"contracts/0511/Exam.sol\":866:878  _score >= 90 */\n      lt\n        /* \"contracts/0511/Exam.sol\":863:1140  if(_score >= 90){... */\n      tag_211\n      jumpi\n        /* \"contracts/0511/Exam.sol\":894:904  return \"A\" */\n      mload(0x40)\n      dup1\n      0x40\n      add\n      0x40\n      mstore\n      dup1\n      0x01\n      dup2\n      mstore\n      0x20\n      add\n      0x4100000000000000000000000000000000000000000000000000000000000000\n      dup2\n      mstore\n      pop\n      swap1\n      pop\n      jump(tag_210)\n        /* \"contracts/0511/Exam.sol\":863:1140  if(_score >= 90){... */\n    tag_211:\n        /* \"contracts/0511/Exam.sol\":935:937  80 */\n      0x50\n        /* \"contracts/0511/Exam.sol\":925:931  _score */\n      dup3\n        /* \"contracts/0511/Exam.sol\":925:937  _score >= 80 */\n      lt\n        /* \"contracts/0511/Exam.sol\":922:1140  if(_score >= 80) {... */\n      tag_213\n      jumpi\n        /* \"contracts/0511/Exam.sol\":954:964  return \"B\" */\n      mload(0x40)\n      dup1\n      0x40\n      add\n      0x40\n      mstore\n      dup1\n      0x01\n      dup2\n      mstore\n      0x20\n      add\n      0x4200000000000000000000000000000000000000000000000000000000000000\n      dup2\n      mstore\n      pop\n      swap1\n      pop\n      jump(tag_210)\n        /* \"contracts/0511/Exam.sol\":922:1140  if(_score >= 80) {... */\n    tag_213:\n        /* \"contracts/0511/Exam.sol\":995:997  70 */\n      0x46\n        /* \"contracts/0511/Exam.sol\":985:991  _score */\n      dup3\n        /* \"contracts/0511/Exam.sol\":985:997  _score >= 70 */\n      lt\n        /* \"contracts/0511/Exam.sol\":982:1140  if(_score >= 70) {... */\n      tag_215\n      jumpi\n        /* \"contracts/0511/Exam.sol\":1014:1024  return \"C\" */\n      mload(0x40)\n      dup1\n      0x40\n      add\n      0x40\n      mstore\n      dup1\n      0x01\n      dup2\n      mstore\n      0x20\n      add\n      0x4300000000000000000000000000000000000000000000000000000000000000\n      dup2\n      mstore\n      pop\n      swap1\n      pop\n      jump(tag_210)\n        /* \"contracts/0511/Exam.sol\":982:1140  if(_score >= 70) {... */\n    tag_215:\n        /* \"contracts/0511/Exam.sol\":1055:1057  60 */\n      0x3c\n        /* \"contracts/0511/Exam.sol\":1045:1051  _score */\n      dup3\n        /* \"contracts/0511/Exam.sol\":1045:1057  _score >= 60 */\n      lt\n        /* \"contracts/0511/Exam.sol\":1042:1140  if(_score >= 60) {... */\n      tag_217\n      jumpi\n        /* \"contracts/0511/Exam.sol\":1074:1084  return \"D\" */\n      mload(0x40)\n      dup1\n      0x40\n      add\n      0x40\n      mstore\n      dup1\n      0x01\n      dup2\n      mstore\n      0x20\n      add\n      0x4400000000000000000000000000000000000000000000000000000000000000\n      dup2\n      mstore\n      pop\n      swap1\n      pop\n      jump(tag_210)\n        /* \"contracts/0511/Exam.sol\":1042:1140  if(_score >= 60) {... */\n    tag_217:\n        /* \"contracts/0511/Exam.sol\":1118:1128  return \"F\" */\n      mload(0x40)\n      dup1\n      0x40\n      add\n      0x40\n      mstore\n      dup1\n      0x01\n      dup2\n      mstore\n      0x20\n      add\n      0x4600000000000000000000000000000000000000000000000000000000000000\n      dup2\n      mstore\n      pop\n      swap1\n      pop\n        /* \"contracts/0511/Exam.sol\":785:1147  function setGrade(uint _score) public pure returns (string memory) {... */\n    tag_210:\n      swap2\n      swap1\n      pop\n      jump\t// out\n        /* \"contracts/0511/Exam.sol\":2099:2316  function setName_Student( string memory _name, uint _number,uint _score, string memory _credit, string[] memory _classes) public {... */\n    tag_37:\n        /* \"contracts/0511/Exam.sol\":2261:2308  Student(_name, _number,_score,_credit,_classes) */\n      mload(0x40)\n      dup1\n      0xa0\n      add\n      0x40\n      mstore\n      dup1\n        /* \"contracts/0511/Exam.sol\":2269:2274  _name */\n      dup7\n        /* \"contracts/0511/Exam.sol\":2261:2308  Student(_name, _number,_score,_credit,_classes) */\n      dup2\n      mstore\n      0x20\n      add\n        /* \"contracts/0511/Exam.sol\":2276:2283  _number */\n      dup6\n        /* \"contracts/0511/Exam.sol\":2261:2308  Student(_name, _number,_score,_credit,_classes) */\n      dup2\n      mstore\n      0x20\n      add\n        /* \"contracts/0511/Exam.sol\":2284:2290  _score */\n      dup5\n        /* \"contracts/0511/Exam.sol\":2261:2308  Student(_name, _number,_score,_credit,_classes) */\n      dup2\n      mstore\n      0x20\n      add\n        /* \"contracts/0511/Exam.sol\":2291:2298  _credit */\n      dup4\n        /* \"contracts/0511/Exam.sol\":2261:2308  Student(_name, _number,_score,_credit,_classes) */\n      dup2\n      mstore\n      0x20\n      add\n        /* \"contracts/0511/Exam.sol\":2299:2307  _classes */\n      dup3\n        /* \"contracts/0511/Exam.sol\":2261:2308  Student(_name, _number,_score,_credit,_classes) */\n      dup2\n      mstore\n      pop\n        /* \"contracts/0511/Exam.sol\":2239:2251  Name_Student */\n      0x01\n        /* \"contracts/0511/Exam.sol\":2252:2257  _name */\n      dup7\n        /* \"contracts/0511/Exam.sol\":2239:2258  Name_Student[_name] */\n      mload(0x40)\n      tag_220\n      swap2\n      swap1\n      tag_221\n      jump\t// in\n    tag_220:\n      swap1\n      dup2\n      mstore\n      0x20\n      add\n      mload(0x40)\n      dup1\n      swap2\n      sub\n      swap1\n      keccak256\n        /* \"contracts/0511/Exam.sol\":2239:2308  Name_Student[_name] = Student(_name, _number,_score,_credit,_classes) */\n      0x00\n      dup3\n      add\n      mload\n      dup2\n      0x00\n      add\n      swap1\n      dup2\n      tag_222\n      swap2\n      swap1\n      tag_223\n      jump\t// in\n    tag_222:\n      pop\n      0x20\n      dup3\n      add\n      mload\n      dup2\n      0x01\n      add\n      sstore\n      0x40\n      dup3\n      add\n      mload\n      dup2\n      0x02\n      add\n      sstore\n      0x60\n      dup3\n      add\n      mload\n      dup2\n      0x03\n      add\n      swap1\n      dup2\n      tag_224\n      swap2\n      swap1\n      tag_223\n      jump\t// in\n    tag_224:\n      pop\n      0x80\n      dup3\n      add\n      mload\n      dup2\n      0x04\n      add\n      swap1\n      dup1\n      mload\n      swap1\n      0x20\n      add\n      swap1\n      tag_225\n      swap3\n      swap2\n      swap1\n      tag_226\n      jump\t// in\n    tag_225:\n      pop\n      swap1\n      pop\n      pop\n        /* \"contracts/0511/Exam.sol\":2099:2316  function setName_Student( string memory _name, uint _number,uint _score, string memory _credit, string[] memory _classes) public {... */\n      pop\n      pop\n      pop\n      pop\n      pop\n      jump\t// out\n        /* \"contracts/0511/Exam.sol\":2836:2928  function getStudentNum() public view returns(uint) {... */\n    tag_39:\n        /* \"contracts/0511/Exam.sol\":2881:2885  uint */\n      0x00\n        /* \"contracts/0511/Exam.sol\":2905:2913  students */\n      dup1\n        /* \"contracts/0511/Exam.sol\":2905:2920  students.length */\n      dup1\n      sload\n      swap1\n      pop\n        /* \"contracts/0511/Exam.sol\":2898:2920  return students.length */\n      swap1\n      pop\n        /* \"contracts/0511/Exam.sol\":2836:2928  function getStudentNum() public view returns(uint) {... */\n      swap1\n      jump\t// out\n        /* \"contracts/0511/Exam.sol\":3599:3766  function system() public view returns (bool){... */\n    tag_42:\n        /* \"contracts/0511/Exam.sol\":3638:3642  bool */\n      0x00\n        /* \"contracts/0511/Exam.sol\":3672:3674  70 */\n      0x46\n        /* \"contracts/0511/Exam.sol\":3657:3669  getAverage() */\n      tag_229\n        /* \"contracts/0511/Exam.sol\":3657:3667  getAverage */\n      tag_21\n        /* \"contracts/0511/Exam.sol\":3657:3669  getAverage() */\n      jump\t// in\n    tag_229:\n        /* \"contracts/0511/Exam.sol\":3657:3674  getAverage() > 70 */\n      gt\n        /* \"contracts/0511/Exam.sol\":3654:3757  if(getAverage() > 70){... */\n      iszero\n      tag_230\n      jumpi\n        /* \"contracts/0511/Exam.sol\":3697:3701  true */\n      0x01\n        /* \"contracts/0511/Exam.sol\":3690:3701  return true */\n      swap1\n      pop\n      jump(tag_228)\n        /* \"contracts/0511/Exam.sol\":3654:3757  if(getAverage() > 70){... */\n    tag_230:\n        /* \"contracts/0511/Exam.sol\":3740:3745  false */\n      0x00\n        /* \"contracts/0511/Exam.sol\":3733:3745  return false */\n      swap1\n      pop\n        /* \"contracts/0511/Exam.sol\":3599:3766  function system() public view returns (bool){... */\n    tag_228:\n      swap1\n      jump\t// out\n        /* \"contracts/0511/Exam.sol\":3878:4723  function Bochung () public view returns (uint, Student[] memory){... */\n    tag_46:\n        /* \"contracts/0511/Exam.sol\":3919:3923  uint */\n      0x00\n        /* \"contracts/0511/Exam.sol\":3925:3941  Student[] memory */\n      0x60\n        /* \"contracts/0511/Exam.sol\":3953:3961  uint num */\n      0x00\n        /* \"contracts/0511/Exam.sol\":4066:4072  uint i */\n      dup1\n        /* \"contracts/0511/Exam.sol\":4074:4075  0 */\n      0x00\n        /* \"contracts/0511/Exam.sol\":4066:4075  uint i =0 */\n      swap1\n      pop\n        /* \"contracts/0511/Exam.sol\":4061:4281  for( uint i =0; i<students.length; i++){... */\n    tag_233:\n        /* \"contracts/0511/Exam.sol\":4079:4087  students */\n      0x00\n        /* \"contracts/0511/Exam.sol\":4079:4094  students.length */\n      dup1\n      sload\n      swap1\n      pop\n        /* \"contracts/0511/Exam.sol\":4077:4078  i */\n      dup2\n        /* \"contracts/0511/Exam.sol\":4077:4094  i<students.length */\n      lt\n        /* \"contracts/0511/Exam.sol\":4061:4281  for( uint i =0; i<students.length; i++){... */\n      iszero\n      tag_234\n      jumpi\n        /* \"contracts/0511/Exam.sol\":4169:4179  bytes(\"F\") */\n      mload(0x40)\n      dup1\n      0x40\n      add\n      0x40\n      mstore\n      dup1\n      0x01\n      dup2\n      mstore\n      0x20\n      add\n      0x4600000000000000000000000000000000000000000000000000000000000000\n      dup2\n      mstore\n      pop\n        /* \"contracts/0511/Exam.sol\":4159:4180  keccak256(bytes(\"F\")) */\n      dup1\n      mload\n      swap1\n      0x20\n      add\n      keccak256\n        /* \"contracts/0511/Exam.sol\":4134:4142  students */\n      0x00\n        /* \"contracts/0511/Exam.sol\":4143:4144  i */\n      dup3\n        /* \"contracts/0511/Exam.sol\":4134:4145  students[i] */\n      dup2\n      sload\n      dup2\n      lt\n      tag_236\n      jumpi\n      tag_237\n      tag_104\n      jump\t// in\n    tag_237:\n    tag_236:\n      swap1\n      0x00\n      mstore\n      keccak256(0x00, 0x20)\n      swap1\n      0x05\n      mul\n      add\n        /* \"contracts/0511/Exam.sol\":4134:4152  students[i].credit */\n      0x03\n      add\n        /* \"contracts/0511/Exam.sol\":4118:4154  keccak256(bytes(students[i].credit)) */\n      mload(0x40)\n      tag_239\n      swap2\n      swap1\n      tag_168\n      jump\t// in\n    tag_239:\n      mload(0x40)\n      dup1\n      swap2\n      sub\n      swap1\n      keccak256\n        /* \"contracts/0511/Exam.sol\":4118:4180  keccak256(bytes(students[i].credit))  == keccak256(bytes(\"F\")) */\n      sub\n        /* \"contracts/0511/Exam.sol\":4115:4270  if(keccak256(bytes(students[i].credit))  == keccak256(bytes(\"F\"))){... */\n      tag_240\n      jumpi\n        /* \"contracts/0511/Exam.sol\":4200:4206  num ++ */\n      dup2\n      dup1\n      tag_241\n      swap1\n      tag_117\n      jump\t// in\n    tag_241:\n      swap3\n      pop\n      pop\n        /* \"contracts/0511/Exam.sol\":4115:4270  if(keccak256(bytes(students[i].credit))  == keccak256(bytes(\"F\"))){... */\n    tag_240:\n        /* \"contracts/0511/Exam.sol\":4096:4099  i++ */\n      dup1\n      dup1\n      tag_242\n      swap1\n      tag_117\n      jump\t// in\n    tag_242:\n      swap2\n      pop\n      pop\n        /* \"contracts/0511/Exam.sol\":4061:4281  for( uint i =0; i<students.length; i++){... */\n      jump(tag_233)\n    tag_234:\n      pop\n        /* \"contracts/0511/Exam.sol\":4293:4320  Student[] memory F_students */\n      0x00\n        /* \"contracts/0511/Exam.sol\":4337:4340  num */\n      dup2\n        /* \"contracts/0511/Exam.sol\":4323:4341  new Student[](num) */\n      0xffffffffffffffff\n      dup2\n      gt\n      iszero\n      tag_243\n      jumpi\n      tag_244\n      tag_91\n      jump\t// in\n    tag_244:\n    tag_243:\n      mload(0x40)\n      swap1\n      dup1\n      dup3\n      mstore\n      dup1\n      0x20\n      mul\n      0x20\n      add\n      dup3\n      add\n      0x40\n      mstore\n      dup1\n      iszero\n      tag_245\n      jumpi\n      dup2\n      0x20\n      add\n    tag_246:\n      tag_247\n      tag_95\n      jump\t// in\n    tag_247:\n      dup2\n      mstore\n      0x20\n      add\n      swap1\n      0x01\n      swap1\n      sub\n      swap1\n      dup2\n      tag_246\n      jumpi\n      swap1\n      pop\n    tag_245:\n      pop\n        /* \"contracts/0511/Exam.sol\":4293:4341  Student[] memory F_students = new Student[](num) */\n      swap1\n      pop\n        /* \"contracts/0511/Exam.sol\":4409:4418  uint _num */\n      0x00\n        /* \"contracts/0511/Exam.sol\":4436:4442  uint i */\n      dup1\n        /* \"contracts/0511/Exam.sol\":4444:4445  0 */\n      0x00\n        /* \"contracts/0511/Exam.sol\":4436:4445  uint i =0 */\n      swap1\n      pop\n        /* \"contracts/0511/Exam.sol\":4431:4679  for( uint i =0; i<students.length; i++){... */\n    tag_248:\n        /* \"contracts/0511/Exam.sol\":4449:4457  students */\n      0x00\n        /* \"contracts/0511/Exam.sol\":4449:4464  students.length */\n      dup1\n      sload\n      swap1\n      pop\n        /* \"contracts/0511/Exam.sol\":4447:4448  i */\n      dup2\n        /* \"contracts/0511/Exam.sol\":4447:4464  i<students.length */\n      lt\n        /* \"contracts/0511/Exam.sol\":4431:4679  for( uint i =0; i<students.length; i++){... */\n      iszero\n      tag_249\n      jumpi\n        /* \"contracts/0511/Exam.sol\":4539:4549  bytes(\"F\") */\n      mload(0x40)\n      dup1\n      0x40\n      add\n      0x40\n      mstore\n      dup1\n      0x01\n      dup2\n      mstore\n      0x20\n      add\n      0x4600000000000000000000000000000000000000000000000000000000000000\n      dup2\n      mstore\n      pop\n        /* \"contracts/0511/Exam.sol\":4529:4550  keccak256(bytes(\"F\")) */\n      dup1\n      mload\n      swap1\n      0x20\n      add\n      keccak256\n        /* \"contracts/0511/Exam.sol\":4504:4512  students */\n      0x00\n        /* \"contracts/0511/Exam.sol\":4513:4514  i */\n      dup3\n        /* \"contracts/0511/Exam.sol\":4504:4515  students[i] */\n      dup2\n      sload\n      dup2\n      lt\n      tag_251\n      jumpi\n      tag_252\n      tag_104\n      jump\t// in\n    tag_252:\n    tag_251:\n      swap1\n      0x00\n      mstore\n      keccak256(0x00, 0x20)\n      swap1\n      0x05\n      mul\n      add\n        /* \"contracts/0511/Exam.sol\":4504:4522  students[i].credit */\n      0x03\n      add\n        /* \"contracts/0511/Exam.sol\":4488:4524  keccak256(bytes(students[i].credit)) */\n      mload(0x40)\n      tag_254\n      swap2\n      swap1\n      tag_168\n      jump\t// in\n    tag_254:\n      mload(0x40)\n      dup1\n      swap2\n      sub\n      swap1\n      keccak256\n        /* \"contracts/0511/Exam.sol\":4488:4550  keccak256(bytes(students[i].credit))  == keccak256(bytes(\"F\")) */\n      sub\n        /* \"contracts/0511/Exam.sol\":4485:4668  if(keccak256(bytes(students[i].credit))  == keccak256(bytes(\"F\"))){... */\n      tag_255\n      jumpi\n        /* \"contracts/0511/Exam.sol\":4616:4624  students */\n      0x00\n        /* \"contracts/0511/Exam.sol\":4625:4626  i */\n      dup2\n        /* \"contracts/0511/Exam.sol\":4616:4627  students[i] */\n      dup2\n      sload\n      dup2\n      lt\n      tag_256\n      jumpi\n      tag_257\n      tag_104\n      jump\t// in\n    tag_257:\n    tag_256:\n      swap1\n      0x00\n      mstore\n      keccak256(0x00, 0x20)\n      swap1\n      0x05\n      mul\n      add\n        /* \"contracts/0511/Exam.sol\":4597:4627  F_students[_num] = students[i] */\n      mload(0x40)\n      dup1\n      0xa0\n      add\n      0x40\n      mstore\n      swap1\n      dup2\n      0x00\n      dup3\n      add\n      dup1\n      sload\n      tag_259\n      swap1\n      tag_71\n      jump\t// in\n    tag_259:\n      dup1\n      0x1f\n      add\n      0x20\n      dup1\n      swap2\n      div\n      mul\n      0x20\n      add\n      mload(0x40)\n      swap1\n      dup2\n      add\n      0x40\n      mstore\n      dup1\n      swap3\n      swap2\n      swap1\n      dup2\n      dup2\n      mstore\n      0x20\n      add\n      dup3\n      dup1\n      sload\n      tag_260\n      swap1\n      tag_71\n      jump\t// in\n    tag_260:\n      dup1\n      iszero\n      tag_261\n      jumpi\n      dup1\n      0x1f\n      lt\n      tag_262\n      jumpi\n      0x0100\n      dup1\n      dup4\n      sload\n      div\n      mul\n      dup4\n      mstore\n      swap2\n      0x20\n      add\n      swap2\n      jump(tag_261)\n    tag_262:\n      dup3\n      add\n      swap2\n      swap1\n      0x00\n      mstore\n      keccak256(0x00, 0x20)\n      swap1\n    tag_263:\n      dup2\n      sload\n      dup2\n      mstore\n      swap1\n      0x01\n      add\n      swap1\n      0x20\n      add\n      dup1\n      dup4\n      gt\n      tag_263\n      jumpi\n      dup3\n      swap1\n      sub\n      0x1f\n      and\n      dup3\n      add\n      swap2\n    tag_261:\n      pop\n      pop\n      pop\n      pop\n      pop\n      dup2\n      mstore\n      0x20\n      add\n      0x01\n      dup3\n      add\n      sload\n      dup2\n      mstore\n      0x20\n      add\n      0x02\n      dup3\n      add\n      sload\n      dup2\n      mstore\n      0x20\n      add\n      0x03\n      dup3\n      add\n      dup1\n      sload\n      tag_264\n      swap1\n      tag_71\n      jump\t// in\n    tag_264:\n      dup1\n      0x1f\n      add\n      0x20\n      dup1\n      swap2\n      div\n      mul\n      0x20\n      add\n      mload(0x40)\n      swap1\n      dup2\n      add\n      0x40\n      mstore\n      dup1\n      swap3\n      swap2\n      swap1\n      dup2\n      dup2\n      mstore\n      0x20\n      add\n      dup3\n      dup1\n      sload\n      tag_265\n      swap1\n      tag_71\n      jump\t// in\n    tag_265:\n      dup1\n      iszero\n      tag_266\n      jumpi\n      dup1\n      0x1f\n      lt\n      tag_267\n      jumpi\n      0x0100\n      dup1\n      dup4\n      sload\n      div\n      mul\n      dup4\n      mstore\n      swap2\n      0x20\n      add\n      swap2\n      jump(tag_266)\n    tag_267:\n      dup3\n      add\n      swap2\n      swap1\n      0x00\n      mstore\n      keccak256(0x00, 0x20)\n      swap1\n    tag_268:\n      dup2\n      sload\n      dup2\n      mstore\n      swap1\n      0x01\n      add\n      swap1\n      0x20\n      add\n      dup1\n      dup4\n      gt\n      tag_268\n      jumpi\n      dup3\n      swap1\n      sub\n      0x1f\n      and\n      dup3\n      add\n      swap2\n    tag_266:\n      pop\n      pop\n      pop\n      pop\n      pop\n      dup2\n      mstore\n      0x20\n      add\n      0x04\n      dup3\n      add\n      dup1\n      sload\n      dup1\n      0x20\n      mul\n      0x20\n      add\n      mload(0x40)\n      swap1\n      dup2\n      add\n      0x40\n      mstore\n      dup1\n      swap3\n      swap2\n      swap1\n      dup2\n      dup2\n      mstore\n      0x20\n      add\n      0x00\n      swap1\n    tag_269:\n      dup3\n      dup3\n      lt\n      iszero\n      tag_270\n      jumpi\n      dup4\n      dup3\n      swap1\n      0x00\n      mstore\n      keccak256(0x00, 0x20)\n      add\n      dup1\n      sload\n      tag_272\n      swap1\n      tag_71\n      jump\t// in\n    tag_272:\n      dup1\n      0x1f\n      add\n      0x20\n      dup1\n      swap2\n      div\n      mul\n      0x20\n      add\n      mload(0x40)\n      swap1\n      dup2\n      add\n      0x40\n      mstore\n      dup1\n      swap3\n      swap2\n      swap1\n      dup2\n      dup2\n      mstore\n      0x20\n      add\n      dup3\n      dup1\n      sload\n      tag_273\n      swap1\n      tag_71\n      jump\t// in\n    tag_273:\n      dup1\n      iszero\n      tag_274\n      jumpi\n      dup1\n      0x1f\n      lt\n      tag_275\n      jumpi\n      0x0100\n      dup1\n      dup4\n      sload\n      div\n      mul\n      dup4\n      mstore\n      swap2\n      0x20\n      add\n      swap2\n      jump(tag_274)\n    tag_275:\n      dup3\n      add\n      swap2\n      swap1\n      0x00\n      mstore\n      keccak256(0x00, 0x20)\n      swap1\n    tag_276:\n      dup2\n      sload\n      dup2\n      mstore\n      swap1\n      0x01\n      add\n      swap1\n      0x20\n      add\n      dup1\n      dup4\n      gt\n      tag_276\n      jumpi\n      dup3\n      swap1\n      sub\n      0x1f\n      and\n      dup3\n      add\n      swap2\n    tag_274:\n      pop\n      pop\n      pop\n      pop\n      pop\n      dup2\n      mstore\n      0x20\n      add\n      swap1\n      0x01\n      add\n      swap1\n      jump(tag_269)\n    tag_270:\n      pop\n      pop\n      pop\n      pop\n      dup2\n      mstore\n      pop\n      pop\n        /* \"contracts/0511/Exam.sol\":4597:4607  F_students */\n      dup4\n        /* \"contracts/0511/Exam.sol\":4608:4612  _num */\n      dup4\n        /* \"contracts/0511/Exam.sol\":4597:4613  F_students[_num] */\n      dup2\n      mload\n      dup2\n      lt\n      tag_277\n      jumpi\n      tag_278\n      tag_104\n      jump\t// in\n    tag_278:\n    tag_277:\n      0x20\n      mul\n      0x20\n      add\n      add\n        /* \"contracts/0511/Exam.sol\":4597:4627  F_students[_num] = students[i] */\n      dup2\n      swap1\n      mstore\n      pop\n        /* \"contracts/0511/Exam.sol\":4646:4652  _num++ */\n      dup2\n      dup1\n      tag_279\n      swap1\n      tag_117\n      jump\t// in\n    tag_279:\n      swap3\n      pop\n      pop\n        /* \"contracts/0511/Exam.sol\":4485:4668  if(keccak256(bytes(students[i].credit))  == keccak256(bytes(\"F\"))){... */\n    tag_255:\n        /* \"contracts/0511/Exam.sol\":4466:4469  i++ */\n      dup1\n      dup1\n      tag_280\n      swap1\n      tag_117\n      jump\t// in\n    tag_280:\n      swap2\n      pop\n      pop\n        /* \"contracts/0511/Exam.sol\":4431:4679  for( uint i =0; i<students.length; i++){... */\n      jump(tag_248)\n    tag_249:\n      pop\n        /* \"contracts/0511/Exam.sol\":4699:4702  num */\n      dup3\n        /* \"contracts/0511/Exam.sol\":4704:4714  F_students */\n      dup3\n        /* \"contracts/0511/Exam.sol\":4691:4715  return (num, F_students) */\n      swap5\n      pop\n      swap5\n      pop\n      pop\n      pop\n      pop\n        /* \"contracts/0511/Exam.sol\":3878:4723  function Bochung () public view returns (uint, Student[] memory){... */\n      swap1\n      swap2\n      jump\t// out\n        /* \"contracts/0511/Exam.sol\":3035:3130  function getStudent() public view returns (Student[] memory) {... */\n    tag_50:\n        /* \"contracts/0511/Exam.sol\":3078:3094  Student[] memory */\n      0x60\n        /* \"contracts/0511/Exam.sol\":3114:3122  students */\n      0x00\n        /* \"contracts/0511/Exam.sol\":3107:3122  return students */\n      dup1\n      sload\n      dup1\n      0x20\n      mul\n      0x20\n      add\n      mload(0x40)\n      swap1\n      dup2\n      add\n      0x40\n      mstore\n      dup1\n      swap3\n      swap2\n      swap1\n      dup2\n      dup2\n      mstore\n      0x20\n      add\n      0x00\n      swap1\n    tag_282:\n      dup3\n      dup3\n      lt\n      iszero\n      tag_283\n      jumpi\n      dup4\n      dup3\n      swap1\n      0x00\n      mstore\n      keccak256(0x00, 0x20)\n      swap1\n      0x05\n      mul\n      add\n      mload(0x40)\n      dup1\n      0xa0\n      add\n      0x40\n      mstore\n      swap1\n      dup2\n      0x00\n      dup3\n      add\n      dup1\n      sload\n      tag_285\n      swap1\n      tag_71\n      jump\t// in\n    tag_285:\n      dup1\n      0x1f\n      add\n      0x20\n      dup1\n      swap2\n      div\n      mul\n      0x20\n      add\n      mload(0x40)\n      swap1\n      dup2\n      add\n      0x40\n      mstore\n      dup1\n      swap3\n      swap2\n      swap1\n      dup2\n      dup2\n      mstore\n      0x20\n      add\n      dup3\n      dup1\n      sload\n      tag_286\n      swap1\n      tag_71\n      jump\t// in\n    tag_286:\n      dup1\n      iszero\n      tag_287\n      jumpi\n      dup1\n      0x1f\n      lt\n      tag_288\n      jumpi\n      0x0100\n      dup1\n      dup4\n      sload\n      div\n      mul\n      dup4\n      mstore\n      swap2\n      0x20\n      add\n      swap2\n      jump(tag_287)\n    tag_288:\n      dup3\n      add\n      swap2\n      swap1\n      0x00\n      mstore\n      keccak256(0x00, 0x20)\n      swap1\n    tag_289:\n      dup2\n      sload\n      dup2\n      mstore\n      swap1\n      0x01\n      add\n      swap1\n      0x20\n      add\n      dup1\n      dup4\n      gt\n      tag_289\n      jumpi\n      dup3\n      swap1\n      sub\n      0x1f\n      and\n      dup3\n      add\n      swap2\n    tag_287:\n      pop\n      pop\n      pop\n      pop\n      pop\n      dup2\n      mstore\n      0x20\n      add\n      0x01\n      dup3\n      add\n      sload\n      dup2\n      mstore\n      0x20\n      add\n      0x02\n      dup3\n      add\n      sload\n      dup2\n      mstore\n      0x20\n      add\n      0x03\n      dup3\n      add\n      dup1\n      sload\n      tag_290\n      swap1\n      tag_71\n      jump\t// in\n    tag_290:\n      dup1\n      0x1f\n      add\n      0x20\n      dup1\n      swap2\n      div\n      mul\n      0x20\n      add\n      mload(0x40)\n      swap1\n      dup2\n      add\n      0x40\n      mstore\n      dup1\n      swap3\n      swap2\n      swap1\n      dup2\n      dup2\n      mstore\n      0x20\n      add\n      dup3\n      dup1\n      sload\n      tag_291\n      swap1\n      tag_71\n      jump\t// in\n    tag_291:\n      dup1\n      iszero\n      tag_292\n      jumpi\n      dup1\n      0x1f\n      lt\n      tag_293\n      jumpi\n      0x0100\n      dup1\n      dup4\n      sload\n      div\n      mul\n      dup4\n      mstore\n      swap2\n      0x20\n      add\n      swap2\n      jump(tag_292)\n    tag_293:\n      dup3\n      add\n      swap2\n      swap1\n      0x00\n      mstore\n      keccak256(0x00, 0x20)\n      swap1\n    tag_294:\n      dup2\n      sload\n      dup2\n      mstore\n      swap1\n      0x01\n      add\n      swap1\n      0x20\n      add\n      dup1\n      dup4\n      gt\n      tag_294\n      jumpi\n      dup3\n      swap1\n      sub\n      0x1f\n      and\n      dup3\n      add\n      swap2\n    tag_292:\n      pop\n      pop\n      pop\n      pop\n      pop\n      dup2\n      mstore\n      0x20\n      add\n      0x04\n      dup3\n      add\n      dup1\n      sload\n      dup1\n      0x20\n      mul\n      0x20\n      add\n      mload(0x40)\n      swap1\n      dup2\n      add\n      0x40\n      mstore\n      dup1\n      swap3\n      swap2\n      swap1\n      dup2\n      dup2\n      mstore\n      0x20\n      add\n      0x00\n      swap1\n    tag_295:\n      dup3\n      dup3\n      lt\n      iszero\n      tag_296\n      jumpi\n      dup4\n      dup3\n      swap1\n      0x00\n      mstore\n      keccak256(0x00, 0x20)\n      add\n      dup1\n      sload\n      tag_298\n      swap1\n      tag_71\n      jump\t// in\n    tag_298:\n      dup1\n      0x1f\n      add\n      0x20\n      dup1\n      swap2\n      div\n      mul\n      0x20\n      add\n      mload(0x40)\n      swap1\n      dup2\n      add\n      0x40\n      mstore\n      dup1\n      swap3\n      swap2\n      swap1\n      dup2\n      dup2\n      mstore\n      0x20\n      add\n      dup3\n      dup1\n      sload\n      tag_299\n      swap1\n      tag_71\n      jump\t// in\n    tag_299:\n      dup1\n      iszero\n      tag_300\n      jumpi\n      dup1\n      0x1f\n      lt\n      tag_301\n      jumpi\n      0x0100\n      dup1\n      dup4\n      sload\n      div\n      mul\n      dup4\n      mstore\n      swap2\n      0x20\n      add\n      swap2\n      jump(tag_300)\n    tag_301:\n      dup3\n      add\n      swap2\n      swap1\n      0x00\n      mstore\n      keccak256(0x00, 0x20)\n      swap1\n    tag_302:\n      dup2\n      sload\n      dup2\n      mstore\n      swap1\n      0x01\n      add\n      swap1\n      0x20\n      add\n      dup1\n      dup4\n      gt\n      tag_302\n      jumpi\n      dup3\n      swap1\n      sub\n      0x1f\n      and\n      dup3\n      add\n      swap2\n    tag_300:\n      pop\n      pop\n      pop\n      pop\n      pop\n      dup2\n      mstore\n      0x20\n      add\n      swap1\n      0x01\n      add\n      swap1\n      jump(tag_295)\n    tag_296:\n      pop\n      pop\n      pop\n      pop\n      dup2\n      mstore\n      pop\n      pop\n      dup2\n      mstore\n      0x20\n      add\n      swap1\n      0x01\n      add\n      swap1\n      jump(tag_282)\n    tag_283:\n      pop\n      pop\n      pop\n      pop\n      swap1\n      pop\n        /* \"contracts/0511/Exam.sol\":3035:3130  function getStudent() public view returns (Student[] memory) {... */\n      swap1\n      jump\t// out\n        /* \"contracts/0511/Exam.sol\":1696:1818  function getStudentfromNum(uint _number) public view returns (Student memory){... */\n    tag_54:\n        /* \"contracts/0511/Exam.sol\":1758:1772  Student memory */\n      tag_303\n      tag_95\n      jump\t// in\n    tag_303:\n        /* \"contracts/0511/Exam.sol\":1791:1799  students */\n      0x00\n        /* \"contracts/0511/Exam.sol\":1808:1809  1 */\n      0x01\n        /* \"contracts/0511/Exam.sol\":1800:1807  _number */\n      dup4\n        /* \"contracts/0511/Exam.sol\":1800:1809  _number-1 */\n      tag_305\n      swap2\n      swap1\n      tag_193\n      jump\t// in\n    tag_305:\n        /* \"contracts/0511/Exam.sol\":1791:1810  students[_number-1] */\n      dup2\n      sload\n      dup2\n      lt\n      tag_306\n      jumpi\n      tag_307\n      tag_104\n      jump\t// in\n    tag_307:\n    tag_306:\n      swap1\n      0x00\n      mstore\n      keccak256(0x00, 0x20)\n      swap1\n      0x05\n      mul\n      add\n        /* \"contracts/0511/Exam.sol\":1784:1810  return students[_number-1] */\n      mload(0x40)\n      dup1\n      0xa0\n      add\n      0x40\n      mstore\n      swap1\n      dup2\n      0x00\n      dup3\n      add\n      dup1\n      sload\n      tag_309\n      swap1\n      tag_71\n      jump\t// in\n    tag_309:\n      dup1\n      0x1f\n      add\n      0x20\n      dup1\n      swap2\n      div\n      mul\n      0x20\n      add\n      mload(0x40)\n      swap1\n      dup2\n      add\n      0x40\n      mstore\n      dup1\n      swap3\n      swap2\n      swap1\n      dup2\n      dup2\n      mstore\n      0x20\n      add\n      dup3\n      dup1\n      sload\n      tag_310\n      swap1\n      tag_71\n      jump\t// in\n    tag_310:\n      dup1\n      iszero\n      tag_311\n      jumpi\n      dup1\n      0x1f\n      lt\n      tag_312\n      jumpi\n      0x0100\n      dup1\n      dup4\n      sload\n      div\n      mul\n      dup4\n      mstore\n      swap2\n      0x20\n      add\n      swap2\n      jump(tag_311)\n    tag_312:\n      dup3\n      add\n      swap2\n      swap1\n      0x00\n      mstore\n      keccak256(0x00, 0x20)\n      swap1\n    tag_313:\n      dup2\n      sload\n      dup2\n      mstore\n      swap1\n      0x01\n      add\n      swap1\n      0x20\n      add\n      dup1\n      dup4\n      gt\n      tag_313\n      jumpi\n      dup3\n      swap1\n      sub\n      0x1f\n      and\n      dup3\n      add\n      swap2\n    tag_311:\n      pop\n      pop\n      pop\n      pop\n      pop\n      dup2\n      mstore\n      0x20\n      add\n      0x01\n      dup3\n      add\n      sload\n      dup2\n      mstore\n      0x20\n      add\n      0x02\n      dup3\n      add\n      sload\n      dup2\n      mstore\n      0x20\n      add\n      0x03\n      dup3\n      add\n      dup1\n      sload\n      tag_314\n      swap1\n      tag_71\n      jump\t// in\n    tag_314:\n      dup1\n      0x1f\n      add\n      0x20\n      dup1\n      swap2\n      div\n      mul\n      0x20\n      add\n      mload(0x40)\n      swap1\n      dup2\n      add\n      0x40\n      mstore\n      dup1\n      swap3\n      swap2\n      swap1\n      dup2\n      dup2\n      mstore\n      0x20\n      add\n      dup3\n      dup1\n      sload\n      tag_315\n      swap1\n      tag_71\n      jump\t// in\n    tag_315:\n      dup1\n      iszero\n      tag_316\n      jumpi\n      dup1\n      0x1f\n      lt\n      tag_317\n      jumpi\n      0x0100\n      dup1\n      dup4\n      sload\n      div\n      mul\n      dup4\n      mstore\n      swap2\n      0x20\n      add\n      swap2\n      jump(tag_316)\n    tag_317:\n      dup3\n      add\n      swap2\n      swap1\n      0x00\n      mstore\n      keccak256(0x00, 0x20)\n      swap1\n    tag_318:\n      dup2\n      sload\n      dup2\n      mstore\n      swap1\n      0x01\n      add\n      swap1\n      0x20\n      add\n      dup1\n      dup4\n      gt\n      tag_318\n      jumpi\n      dup3\n      swap1\n      sub\n      0x1f\n      and\n      dup3\n      add\n      swap2\n    tag_316:\n      pop\n      pop\n      pop\n      pop\n      pop\n      dup2\n      mstore\n      0x20\n      add\n      0x04\n      dup3\n      add\n      dup1\n      sload\n      dup1\n      0x20\n      mul\n      0x20\n      add\n      mload(0x40)\n      swap1\n      dup2\n      add\n      0x40\n      mstore\n      dup1\n      swap3\n      swap2\n      swap1\n      dup2\n      dup2\n      mstore\n      0x20\n      add\n      0x00\n      swap1\n    tag_319:\n      dup3\n      dup3\n      lt\n      iszero\n      tag_320\n      jumpi\n      dup4\n      dup3\n      swap1\n      0x00\n      mstore\n      keccak256(0x00, 0x20)\n      add\n      dup1\n      sload\n      tag_322\n      swap1\n      tag_71\n      jump\t// in\n    tag_322:\n      dup1\n      0x1f\n      add\n      0x20\n      dup1\n      swap2\n      div\n      mul\n      0x20\n      add\n      mload(0x40)\n      swap1\n      dup2\n      add\n      0x40\n      mstore\n      dup1\n      swap3\n      swap2\n      swap1\n      dup2\n      dup2\n      mstore\n      0x20\n      add\n      dup3\n      dup1\n      sload\n      tag_323\n      swap1\n      tag_71\n      jump\t// in\n    tag_323:\n      dup1\n      iszero\n      tag_324\n      jumpi\n      dup1\n      0x1f\n      lt\n      tag_325\n      jumpi\n      0x0100\n      dup1\n      dup4\n      sload\n      div\n      mul\n      dup4\n      mstore\n      swap2\n      0x20\n      add\n      swap2\n      jump(tag_324)\n    tag_325:\n      dup3\n      add\n      swap2\n      swap1\n      0x00\n      mstore\n      keccak256(0x00, 0x20)\n      swap1\n    tag_326:\n      dup2\n      sload\n      dup2\n      mstore\n      swap1\n      0x01\n      add\n      swap1\n      0x20\n      add\n      dup1\n      dup4\n      gt\n      tag_326\n      jumpi\n      dup3\n      swap1\n      sub\n      0x1f\n      and\n      dup3\n      add\n      swap2\n    tag_324:\n      pop\n      pop\n      pop\n      pop\n      pop\n      dup2\n      mstore\n      0x20\n      add\n      swap1\n      0x01\n      add\n      swap1\n      jump(tag_319)\n    tag_320:\n      pop\n      pop\n      pop\n      pop\n      dup2\n      mstore\n      pop\n      pop\n      swap1\n      pop\n        /* \"contracts/0511/Exam.sol\":1696:1818  function getStudentfromNum(uint _number) public view returns (Student memory){... */\n      swap2\n      swap1\n      pop\n      jump\t// out\n        /* \"contracts/0511/Exam.sol\":1277:1579  function setStudent(string memory _name,uint _score,  string[] memory _classes) public {... */\n    tag_60:\n        /* \"contracts/0511/Exam.sol\":1377:1385  students */\n      0x00\n        /* \"contracts/0511/Exam.sol\":1391:1471  Student(_name, /*count++*/ students.length+1 , _score,setGrade(_score),_classes) */\n      mload(0x40)\n      dup1\n      0xa0\n      add\n      0x40\n      mstore\n      dup1\n        /* \"contracts/0511/Exam.sol\":1399:1404  _name */\n      dup6\n        /* \"contracts/0511/Exam.sol\":1391:1471  Student(_name, /*count++*/ students.length+1 , _score,setGrade(_score),_classes) */\n      dup2\n      mstore\n      0x20\n      add\n        /* \"contracts/0511/Exam.sol\":1434:1435  1 */\n      0x01\n        /* \"contracts/0511/Exam.sol\":1418:1426  students */\n      0x00\n        /* \"contracts/0511/Exam.sol\":1418:1433  students.length */\n      dup1\n      sload\n      swap1\n      pop\n        /* \"contracts/0511/Exam.sol\":1418:1435  students.length+1 */\n      tag_328\n      swap2\n      swap1\n      tag_135\n      jump\t// in\n    tag_328:\n        /* \"contracts/0511/Exam.sol\":1391:1471  Student(_name, /*count++*/ students.length+1 , _score,setGrade(_score),_classes) */\n      dup2\n      mstore\n      0x20\n      add\n        /* \"contracts/0511/Exam.sol\":1438:1444  _score */\n      dup5\n        /* \"contracts/0511/Exam.sol\":1391:1471  Student(_name, /*count++*/ students.length+1 , _score,setGrade(_score),_classes) */\n      dup2\n      mstore\n      0x20\n      add\n        /* \"contracts/0511/Exam.sol\":1445:1461  setGrade(_score) */\n      tag_329\n        /* \"contracts/0511/Exam.sol\":1454:1460  _score */\n      dup6\n        /* \"contracts/0511/Exam.sol\":1445:1453  setGrade */\n      tag_31\n        /* \"contracts/0511/Exam.sol\":1445:1461  setGrade(_score) */\n      jump\t// in\n    tag_329:\n        /* \"contracts/0511/Exam.sol\":1391:1471  Student(_name, /*count++*/ students.length+1 , _score,setGrade(_score),_classes) */\n      dup2\n      mstore\n      0x20\n      add\n        /* \"contracts/0511/Exam.sol\":1462:1470  _classes */\n      dup4\n        /* \"contracts/0511/Exam.sol\":1391:1471  Student(_name, /*count++*/ students.length+1 , _score,setGrade(_score),_classes) */\n      dup2\n      mstore\n      pop\n        /* \"contracts/0511/Exam.sol\":1377:1472  students.push(Student(_name, /*count++*/ students.length+1 , _score,setGrade(_score),_classes)) */\n      swap1\n      dup1\n      0x01\n      dup2\n      sload\n      add\n      dup1\n      dup3\n      sstore\n      dup1\n      swap2\n      pop\n      pop\n      0x01\n      swap1\n      sub\n      swap1\n      0x00\n      mstore\n      keccak256(0x00, 0x20)\n      swap1\n      0x05\n      mul\n      add\n      0x00\n      swap1\n      swap2\n      swap1\n      swap2\n      swap1\n      swap2\n      pop\n      0x00\n      dup3\n      add\n      mload\n      dup2\n      0x00\n      add\n      swap1\n      dup2\n      tag_331\n      swap2\n      swap1\n      tag_223\n      jump\t// in\n    tag_331:\n      pop\n      0x20\n      dup3\n      add\n      mload\n      dup2\n      0x01\n      add\n      sstore\n      0x40\n      dup3\n      add\n      mload\n      dup2\n      0x02\n      add\n      sstore\n      0x60\n      dup3\n      add\n      mload\n      dup2\n      0x03\n      add\n      swap1\n      dup2\n      tag_332\n      swap2\n      swap1\n      tag_223\n      jump\t// in\n    tag_332:\n      pop\n      0x80\n      dup3\n      add\n      mload\n      dup2\n      0x04\n      add\n      swap1\n      dup1\n      mload\n      swap1\n      0x20\n      add\n      swap1\n      tag_333\n      swap3\n      swap2\n      swap1\n      tag_226\n      jump\t// in\n    tag_333:\n      pop\n      pop\n      pop\n        /* \"contracts/0511/Exam.sol\":1505:1571  Student(_name,students.length ,_score,setGrade(_score), _classes ) */\n      mload(0x40)\n      dup1\n      0xa0\n      add\n      0x40\n      mstore\n      dup1\n        /* \"contracts/0511/Exam.sol\":1513:1518  _name */\n      dup5\n        /* \"contracts/0511/Exam.sol\":1505:1571  Student(_name,students.length ,_score,setGrade(_score), _classes ) */\n      dup2\n      mstore\n      0x20\n      add\n        /* \"contracts/0511/Exam.sol\":1519:1527  students */\n      0x00\n        /* \"contracts/0511/Exam.sol\":1519:1534  students.length */\n      dup1\n      sload\n      swap1\n      pop\n        /* \"contracts/0511/Exam.sol\":1505:1571  Student(_name,students.length ,_score,setGrade(_score), _classes ) */\n      dup2\n      mstore\n      0x20\n      add\n        /* \"contracts/0511/Exam.sol\":1536:1542  _score */\n      dup4\n        /* \"contracts/0511/Exam.sol\":1505:1571  Student(_name,students.length ,_score,setGrade(_score), _classes ) */\n      dup2\n      mstore\n      0x20\n      add\n        /* \"contracts/0511/Exam.sol\":1543:1559  setGrade(_score) */\n      tag_334\n        /* \"contracts/0511/Exam.sol\":1552:1558  _score */\n      dup5\n        /* \"contracts/0511/Exam.sol\":1543:1551  setGrade */\n      tag_31\n        /* \"contracts/0511/Exam.sol\":1543:1559  setGrade(_score) */\n      jump\t// in\n    tag_334:\n        /* \"contracts/0511/Exam.sol\":1505:1571  Student(_name,students.length ,_score,setGrade(_score), _classes ) */\n      dup2\n      mstore\n      0x20\n      add\n        /* \"contracts/0511/Exam.sol\":1561:1569  _classes */\n      dup3\n        /* \"contracts/0511/Exam.sol\":1505:1571  Student(_name,students.length ,_score,setGrade(_score), _classes ) */\n      dup2\n      mstore\n      pop\n        /* \"contracts/0511/Exam.sol\":1483:1495  Name_Student */\n      0x01\n        /* \"contracts/0511/Exam.sol\":1496:1501  _name */\n      dup5\n        /* \"contracts/0511/Exam.sol\":1483:1502  Name_Student[_name] */\n      mload(0x40)\n      tag_335\n      swap2\n      swap1\n      tag_221\n      jump\t// in\n    tag_335:\n      swap1\n      dup2\n      mstore\n      0x20\n      add\n      mload(0x40)\n      dup1\n      swap2\n      sub\n      swap1\n      keccak256\n        /* \"contracts/0511/Exam.sol\":1483:1571  Name_Student[_name] = Student(_name,students.length ,_score,setGrade(_score), _classes ) */\n      0x00\n      dup3\n      add\n      mload\n      dup2\n      0x00\n      add\n      swap1\n      dup2\n      tag_336\n      swap2\n      swap1\n      tag_223\n      jump\t// in\n    tag_336:\n      pop\n      0x20\n      dup3\n      add\n      mload\n      dup2\n      0x01\n      add\n      sstore\n      0x40\n      dup3\n      add\n      mload\n      dup2\n      0x02\n      add\n      sstore\n      0x60\n      dup3\n      add\n      mload\n      dup2\n      0x03\n      add\n      swap1\n      dup2\n      tag_337\n      swap2\n      swap1\n      tag_223\n      jump\t// in\n    tag_337:\n      pop\n      0x80\n      dup3\n      add\n      mload\n      dup2\n      0x04\n      add\n      swap1\n      dup1\n      mload\n      swap1\n      0x20\n      add\n      swap1\n      tag_338\n      swap3\n      swap2\n      swap1\n      tag_226\n      jump\t// in\n    tag_338:\n      pop\n      swap1\n      pop\n      pop\n        /* \"contracts/0511/Exam.sol\":1277:1579  function setStudent(string memory _name,uint _score,  string[] memory _classes) public {... */\n      pop\n      pop\n      pop\n      jump\t// out\n        /* \"contracts/0511/Exam.sol\":2325:2453  function getName_Student(string memory _name) public view returns (Student memory) {... */\n    tag_64:\n        /* \"contracts/0511/Exam.sol\":2392:2406  Student memory */\n      tag_339\n      tag_95\n      jump\t// in\n    tag_339:\n        /* \"contracts/0511/Exam.sol\":2426:2438  Name_Student */\n      0x01\n        /* \"contracts/0511/Exam.sol\":2439:2444  _name */\n      dup3\n        /* \"contracts/0511/Exam.sol\":2426:2445  Name_Student[_name] */\n      mload(0x40)\n      tag_341\n      swap2\n      swap1\n      tag_221\n      jump\t// in\n    tag_341:\n      swap1\n      dup2\n      mstore\n      0x20\n      add\n      mload(0x40)\n      dup1\n      swap2\n      sub\n      swap1\n      keccak256\n        /* \"contracts/0511/Exam.sol\":2419:2445  return Name_Student[_name] */\n      mload(0x40)\n      dup1\n      0xa0\n      add\n      0x40\n      mstore\n      swap1\n      dup2\n      0x00\n      dup3\n      add\n      dup1\n      sload\n      tag_342\n      swap1\n      tag_71\n      jump\t// in\n    tag_342:\n      dup1\n      0x1f\n      add\n      0x20\n      dup1\n      swap2\n      div\n      mul\n      0x20\n      add\n      mload(0x40)\n      swap1\n      dup2\n      add\n      0x40\n      mstore\n      dup1\n      swap3\n      swap2\n      swap1\n      dup2\n      dup2\n      mstore\n      0x20\n      add\n      dup3\n      dup1\n      sload\n      tag_343\n      swap1\n      tag_71\n      jump\t// in\n    tag_343:\n      dup1\n      iszero\n      tag_344\n      jumpi\n      dup1\n      0x1f\n      lt\n      tag_345\n      jumpi\n      0x0100\n      dup1\n      dup4\n      sload\n      div\n      mul\n      dup4\n      mstore\n      swap2\n      0x20\n      add\n      swap2\n      jump(tag_344)\n    tag_345:\n      dup3\n      add\n      swap2\n      swap1\n      0x00\n      mstore\n      keccak256(0x00, 0x20)\n      swap1\n    tag_346:\n      dup2\n      sload\n      dup2\n      mstore\n      swap1\n      0x01\n      add\n      swap1\n      0x20\n      add\n      dup1\n      dup4\n      gt\n      tag_346\n      jumpi\n      dup3\n      swap1\n      sub\n      0x1f\n      and\n      dup3\n      add\n      swap2\n    tag_344:\n      pop\n      pop\n      pop\n      pop\n      pop\n      dup2\n      mstore\n      0x20\n      add\n      0x01\n      dup3\n      add\n      sload\n      dup2\n      mstore\n      0x20\n      add\n      0x02\n      dup3\n      add\n      sload\n      dup2\n      mstore\n      0x20\n      add\n      0x03\n      dup3\n      add\n      dup1\n      sload\n      tag_347\n      swap1\n      tag_71\n      jump\t// in\n    tag_347:\n      dup1\n      0x1f\n      add\n      0x20\n      dup1\n      swap2\n      div\n      mul\n      0x20\n      add\n      mload(0x40)\n      swap1\n      dup2\n      add\n      0x40\n      mstore\n      dup1\n      swap3\n      swap2\n      swap1\n      dup2\n      dup2\n      mstore\n      0x20\n      add\n      dup3\n      dup1\n      sload\n      tag_348\n      swap1\n      tag_71\n      jump\t// in\n    tag_348:\n      dup1\n      iszero\n      tag_349\n      jumpi\n      dup1\n      0x1f\n      lt\n      tag_350\n      jumpi\n      0x0100\n      dup1\n      dup4\n      sload\n      div\n      mul\n      dup4\n      mstore\n      swap2\n      0x20\n      add\n      swap2\n      jump(tag_349)\n    tag_350:\n      dup3\n      add\n      swap2\n      swap1\n      0x00\n      mstore\n      keccak256(0x00, 0x20)\n      swap1\n    tag_351:\n      dup2\n      sload\n      dup2\n      mstore\n      swap1\n      0x01\n      add\n      swap1\n      0x20\n      add\n      dup1\n      dup4\n      gt\n      tag_351\n      jumpi\n      dup3\n      swap1\n      sub\n      0x1f\n      and\n      dup3\n      add\n      swap2\n    tag_349:\n      pop\n      pop\n      pop\n      pop\n      pop\n      dup2\n      mstore\n      0x20\n      add\n      0x04\n      dup3\n      add\n      dup1\n      sload\n      dup1\n      0x20\n      mul\n      0x20\n      add\n      mload(0x40)\n      swap1\n      dup2\n      add\n      0x40\n      mstore\n      dup1\n      swap3\n      swap2\n      swap1\n      dup2\n      dup2\n      mstore\n      0x20\n      add\n      0x00\n      swap1\n    tag_352:\n      dup3\n      dup3\n      lt\n      iszero\n      tag_353\n      jumpi\n      dup4\n      dup3\n      swap1\n      0x00\n      mstore\n      keccak256(0x00, 0x20)\n      add\n      dup1\n      sload\n      tag_355\n      swap1\n      tag_71\n      jump\t// in\n    tag_355:\n      dup1\n      0x1f\n      add\n      0x20\n      dup1\n      swap2\n      div\n      mul\n      0x20\n      add\n      mload(0x40)\n      swap1\n      dup2\n      add\n      0x40\n      mstore\n      dup1\n      swap3\n      swap2\n      swap1\n      dup2\n      dup2\n      mstore\n      0x20\n      add\n      dup3\n      dup1\n      sload\n      tag_356\n      swap1\n      tag_71\n      jump\t// in\n    tag_356:\n      dup1\n      iszero\n      tag_357\n      jumpi\n      dup1\n      0x1f\n      lt\n      tag_358\n      jumpi\n      0x0100\n      dup1\n      dup4\n      sload\n      div\n      mul\n      dup4\n      mstore\n      swap2\n      0x20\n      add\n      swap2\n      jump(tag_357)\n    tag_358:\n      dup3\n      add\n      swap2\n      swap1\n      0x00\n      mstore\n      keccak256(0x00, 0x20)\n      swap1\n    tag_359:\n      dup2\n      sload\n      dup2\n      mstore\n      swap1\n      0x01\n      add\n      swap1\n      0x20\n      add\n      dup1\n      dup4\n      gt\n      tag_359\n      jumpi\n      dup3\n      swap1\n      sub\n      0x1f\n      and\n      dup3\n      add\n      swap2\n    tag_357:\n      pop\n      pop\n      pop\n      pop\n      pop\n      dup2\n      mstore\n      0x20\n      add\n      swap1\n      0x01\n      add\n      swap1\n      jump(tag_352)\n    tag_353:\n      pop\n      pop\n      pop\n      pop\n      dup2\n      mstore\n      pop\n      pop\n      swap1\n      pop\n        /* \"contracts/0511/Exam.sol\":2325:2453  function getName_Student(string memory _name) public view returns (Student memory) {... */\n      swap2\n      swap1\n      pop\n      jump\t// out\n    tag_95:\n      mload(0x40)\n      dup1\n      0xa0\n      add\n      0x40\n      mstore\n      dup1\n      0x60\n      dup2\n      mstore\n      0x20\n      add\n      0x00\n      dup2\n      mstore\n      0x20\n      add\n      0x00\n      dup2\n      mstore\n      0x20\n      add\n      0x60\n      dup2\n      mstore\n      0x20\n      add\n      0x60\n      dup2\n      mstore\n      pop\n      swap1\n      jump\t// out\n    tag_226:\n      dup3\n      dup1\n      sload\n      dup3\n      dup3\n      sstore\n      swap1\n      0x00\n      mstore\n      keccak256(0x00, 0x20)\n      swap1\n      dup2\n      add\n      swap3\n      dup3\n      iszero\n      tag_360\n      jumpi\n      swap2\n      0x20\n      mul\n      dup3\n      add\n    tag_361:\n      dup3\n      dup2\n      gt\n      iszero\n      tag_362\n      jumpi\n      dup3\n      mload\n      dup3\n      swap1\n      dup2\n      tag_363\n      swap2\n      swap1\n      tag_223\n      jump\t// in\n    tag_363:\n      pop\n      swap2\n      0x20\n      add\n      swap2\n      swap1\n      0x01\n      add\n      swap1\n      jump(tag_361)\n    tag_362:\n    tag_360:\n      pop\n      swap1\n      pop\n      tag_364\n      swap2\n      swap1\n      tag_365\n      jump\t// in\n    tag_364:\n      pop\n      swap1\n      jump\t// out\n    tag_365:\n    tag_366:\n      dup1\n      dup3\n      gt\n      iszero\n      tag_367\n      jumpi\n      0x00\n      dup2\n      dup2\n      tag_368\n      swap2\n      swap1\n      tag_369\n      jump\t// in\n    tag_368:\n      pop\n      0x01\n      add\n      jump(tag_366)\n    tag_367:\n      pop\n      swap1\n      jump\t// out\n    tag_369:\n      pop\n      dup1\n      sload\n      tag_370\n      swap1\n      tag_71\n      jump\t// in\n    tag_370:\n      0x00\n      dup3\n      sstore\n      dup1\n      0x1f\n      lt\n      tag_372\n      jumpi\n      pop\n      jump(tag_371)\n    tag_372:\n      0x1f\n      add\n      0x20\n      swap1\n      div\n      swap1\n      0x00\n      mstore\n      keccak256(0x00, 0x20)\n      swap1\n      dup2\n      add\n      swap1\n      tag_373\n      swap2\n      swap1\n      tag_374\n      jump\t// in\n    tag_373:\n    tag_371:\n      pop\n      jump\t// out\n    tag_374:\n    tag_375:\n      dup1\n      dup3\n      gt\n      iszero\n      tag_376\n      jumpi\n      0x00\n      dup2\n      0x00\n      swap1\n      sstore\n      pop\n      0x01\n      add\n      jump(tag_375)\n    tag_376:\n      pop\n      swap1\n      jump\t// out\n        /* \"#utility.yul\":7:144   */\n    tag_377:\n        /* \"#utility.yul\":97:103   */\n      0x00\n        /* \"#utility.yul\":131:136   */\n      dup2\n        /* \"#utility.yul\":125:137   */\n      mload\n        /* \"#utility.yul\":115:137   */\n      swap1\n      pop\n        /* \"#utility.yul\":7:144   */\n      swap2\n      swap1\n      pop\n      jump\t// out\n        /* \"#utility.yul\":150:357   */\n    tag_378:\n        /* \"#utility.yul\":272:283   */\n      0x00\n        /* \"#utility.yul\":306:312   */\n      dup3\n        /* \"#utility.yul\":301:304   */\n      dup3\n        /* \"#utility.yul\":294:313   */\n      mstore\n        /* \"#utility.yul\":346:350   */\n      0x20\n        /* \"#utility.yul\":341:344   */\n      dup3\n        /* \"#utility.yul\":337:351   */\n      add\n        /* \"#utility.yul\":322:351   */\n      swap1\n      pop\n        /* \"#utility.yul\":150:357   */\n      swap3\n      swap2\n      pop\n      pop\n      jump\t// out\n        /* \"#utility.yul\":363:518   */\n    tag_379:\n        /* \"#utility.yul\":453:457   */\n      0x00\n        /* \"#utility.yul\":476:479   */\n      dup2\n        /* \"#utility.yul\":468:479   */\n      swap1\n      pop\n        /* \"#utility.yul\":506:510   */\n      0x20\n        /* \"#utility.yul\":501:504   */\n      dup3\n        /* \"#utility.yul\":497:511   */\n      add\n        /* \"#utility.yul\":489:511   */\n      swap1\n      pop\n        /* \"#utility.yul\":363:518   */\n      swap2\n      swap1\n      pop\n      jump\t// out\n        /* \"#utility.yul\":524:623   */\n    tag_380:\n        /* \"#utility.yul\":576:582   */\n      0x00\n        /* \"#utility.yul\":610:615   */\n      dup2\n        /* \"#utility.yul\":604:616   */\n      mload\n        /* \"#utility.yul\":594:616   */\n      swap1\n      pop\n        /* \"#utility.yul\":524:623   */\n      swap2\n      swap1\n      pop\n      jump\t// out\n        /* \"#utility.yul\":629:788   */\n    tag_381:\n        /* \"#utility.yul\":703:714   */\n      0x00\n        /* \"#utility.yul\":737:743   */\n      dup3\n        /* \"#utility.yul\":732:735   */\n      dup3\n        /* \"#utility.yul\":725:744   */\n      mstore\n        /* \"#utility.yul\":777:781   */\n      0x20\n        /* \"#utility.yul\":772:775   */\n      dup3\n        /* \"#utility.yul\":768:782   */\n      add\n        /* \"#utility.yul\":753:782   */\n      swap1\n      pop\n        /* \"#utility.yul\":629:788   */\n      swap3\n      swap2\n      pop\n      pop\n      jump\t// out\n        /* \"#utility.yul\":794:1040   */\n    tag_382:\n        /* \"#utility.yul\":875:876   */\n      0x00\n        /* \"#utility.yul\":885:998   */\n    tag_450:\n        /* \"#utility.yul\":899:905   */\n      dup4\n        /* \"#utility.yul\":896:897   */\n      dup2\n        /* \"#utility.yul\":893:906   */\n      lt\n        /* \"#utility.yul\":885:998   */\n      iszero\n      tag_452\n      jumpi\n        /* \"#utility.yul\":984:985   */\n      dup1\n        /* \"#utility.yul\":979:982   */\n      dup3\n        /* \"#utility.yul\":975:986   */\n      add\n        /* \"#utility.yul\":969:987   */\n      mload\n        /* \"#utility.yul\":965:966   */\n      dup2\n        /* \"#utility.yul\":960:963   */\n      dup5\n        /* \"#utility.yul\":956:967   */\n      add\n        /* \"#utility.yul\":949:988   */\n      mstore\n        /* \"#utility.yul\":921:923   */\n      0x20\n        /* \"#utility.yul\":918:919   */\n      dup2\n        /* \"#utility.yul\":914:924   */\n      add\n        /* \"#utility.yul\":909:924   */\n      swap1\n      pop\n        /* \"#utility.yul\":885:998   */\n      jump(tag_450)\n    tag_452:\n        /* \"#utility.yul\":1032:1033   */\n      0x00\n        /* \"#utility.yul\":1023:1029   */\n      dup5\n        /* \"#utility.yul\":1018:1021   */\n      dup5\n        /* \"#utility.yul\":1014:1030   */\n      add\n        /* \"#utility.yul\":1007:1034   */\n      mstore\n        /* \"#utility.yul\":856:1040   */\n      pop\n        /* \"#utility.yul\":794:1040   */\n      pop\n      pop\n      pop\n      jump\t// out\n        /* \"#utility.yul\":1046:1148   */\n    tag_383:\n        /* \"#utility.yul\":1087:1093   */\n      0x00\n        /* \"#utility.yul\":1138:1140   */\n      0x1f\n        /* \"#utility.yul\":1134:1141   */\n      not\n        /* \"#utility.yul\":1129:1131   */\n      0x1f\n        /* \"#utility.yul\":1122:1127   */\n      dup4\n        /* \"#utility.yul\":1118:1132   */\n      add\n        /* \"#utility.yul\":1114:1142   */\n      and\n        /* \"#utility.yul\":1104:1142   */\n      swap1\n      pop\n        /* \"#utility.yul\":1046:1148   */\n      swap2\n      swap1\n      pop\n      jump\t// out\n        /* \"#utility.yul\":1154:1511   */\n    tag_384:\n        /* \"#utility.yul\":1232:1235   */\n      0x00\n        /* \"#utility.yul\":1260:1299   */\n      tag_455\n        /* \"#utility.yul\":1293:1298   */\n      dup3\n        /* \"#utility.yul\":1260:1299   */\n      tag_380\n      jump\t// in\n    tag_455:\n        /* \"#utility.yul\":1315:1376   */\n      tag_456\n        /* \"#utility.yul\":1369:1375   */\n      dup2\n        /* \"#utility.yul\":1364:1367   */\n      dup6\n        /* \"#utility.yul\":1315:1376   */\n      tag_381\n      jump\t// in\n    tag_456:\n        /* \"#utility.yul\":1308:1376   */\n      swap4\n      pop\n        /* \"#utility.yul\":1385:1450   */\n      tag_457\n        /* \"#utility.yul\":1443:1449   */\n      dup2\n        /* \"#utility.yul\":1438:1441   */\n      dup6\n        /* \"#utility.yul\":1431:1435   */\n      0x20\n        /* \"#utility.yul\":1424:1429   */\n      dup7\n        /* \"#utility.yul\":1420:1436   */\n      add\n        /* \"#utility.yul\":1385:1450   */\n      tag_382\n      jump\t// in\n    tag_457:\n        /* \"#utility.yul\":1475:1504   */\n      tag_458\n        /* \"#utility.yul\":1497:1503   */\n      dup2\n        /* \"#utility.yul\":1475:1504   */\n      tag_383\n      jump\t// in\n    tag_458:\n        /* \"#utility.yul\":1470:1473   */\n      dup5\n        /* \"#utility.yul\":1466:1505   */\n      add\n        /* \"#utility.yul\":1459:1505   */\n      swap2\n      pop\n        /* \"#utility.yul\":1236:1511   */\n      pop\n        /* \"#utility.yul\":1154:1511   */\n      swap3\n      swap2\n      pop\n      pop\n      jump\t// out\n        /* \"#utility.yul\":1517:1594   */\n    tag_385:\n        /* \"#utility.yul\":1554:1561   */\n      0x00\n        /* \"#utility.yul\":1583:1588   */\n      dup2\n        /* \"#utility.yul\":1572:1588   */\n      swap1\n      pop\n        /* \"#utility.yul\":1517:1594   */\n      swap2\n      swap1\n      pop\n      jump\t// out\n        /* \"#utility.yul\":1600:1708   */\n    tag_386:\n        /* \"#utility.yul\":1677:1701   */\n      tag_461\n        /* \"#utility.yul\":1695:1700   */\n      dup2\n        /* \"#utility.yul\":1677:1701   */\n      tag_385\n      jump\t// in\n    tag_461:\n        /* \"#utility.yul\":1672:1675   */\n      dup3\n        /* \"#utility.yul\":1665:1702   */\n      mstore\n        /* \"#utility.yul\":1600:1708   */\n      pop\n      pop\n      jump\t// out\n        /* \"#utility.yul\":1714:1838   */\n    tag_387:\n        /* \"#utility.yul\":1791:1797   */\n      0x00\n        /* \"#utility.yul\":1825:1830   */\n      dup2\n        /* \"#utility.yul\":1819:1831   */\n      mload\n        /* \"#utility.yul\":1809:1831   */\n      swap1\n      pop\n        /* \"#utility.yul\":1714:1838   */\n      swap2\n      swap1\n      pop\n      jump\t// out\n        /* \"#utility.yul\":1844:2028   */\n    tag_388:\n        /* \"#utility.yul\":1943:1954   */\n      0x00\n        /* \"#utility.yul\":1977:1983   */\n      dup3\n        /* \"#utility.yul\":1972:1975   */\n      dup3\n        /* \"#utility.yul\":1965:1984   */\n      mstore\n        /* \"#utility.yul\":2017:2021   */\n      0x20\n        /* \"#utility.yul\":2012:2015   */\n      dup3\n        /* \"#utility.yul\":2008:2022   */\n      add\n        /* \"#utility.yul\":1993:2022   */\n      swap1\n      pop\n        /* \"#utility.yul\":1844:2028   */\n      swap3\n      swap2\n      pop\n      pop\n      jump\t// out\n        /* \"#utility.yul\":2034:2176   */\n    tag_389:\n        /* \"#utility.yul\":2111:2115   */\n      0x00\n        /* \"#utility.yul\":2134:2137   */\n      dup2\n        /* \"#utility.yul\":2126:2137   */\n      swap1\n      pop\n        /* \"#utility.yul\":2164:2168   */\n      0x20\n        /* \"#utility.yul\":2159:2162   */\n      dup3\n        /* \"#utility.yul\":2155:2169   */\n      add\n        /* \"#utility.yul\":2147:2169   */\n      swap1\n      pop\n        /* \"#utility.yul\":2034:2176   */\n      swap2\n      swap1\n      pop\n      jump\t// out\n        /* \"#utility.yul\":2182:2378   */\n    tag_390:\n        /* \"#utility.yul\":2271:2281   */\n      0x00\n        /* \"#utility.yul\":2306:2372   */\n      tag_466\n        /* \"#utility.yul\":2368:2371   */\n      dup4\n        /* \"#utility.yul\":2360:2366   */\n      dup4\n        /* \"#utility.yul\":2306:2372   */\n      tag_384\n      jump\t// in\n    tag_466:\n        /* \"#utility.yul\":2292:2372   */\n      swap1\n      pop\n        /* \"#utility.yul\":2182:2378   */\n      swap3\n      swap2\n      pop\n      pop\n      jump\t// out\n        /* \"#utility.yul\":2384:2507   */\n    tag_391:\n        /* \"#utility.yul\":2464:2468   */\n      0x00\n        /* \"#utility.yul\":2496:2500   */\n      0x20\n        /* \"#utility.yul\":2491:2494   */\n      dup3\n        /* \"#utility.yul\":2487:2501   */\n      add\n        /* \"#utility.yul\":2479:2501   */\n      swap1\n      pop\n        /* \"#utility.yul\":2384:2507   */\n      swap2\n      swap1\n      pop\n      jump\t// out\n        /* \"#utility.yul\":2541:3512   */\n    tag_392:\n        /* \"#utility.yul\":2670:2673   */\n      0x00\n        /* \"#utility.yul\":2699:2763   */\n      tag_469\n        /* \"#utility.yul\":2757:2762   */\n      dup3\n        /* \"#utility.yul\":2699:2763   */\n      tag_387\n      jump\t// in\n    tag_469:\n        /* \"#utility.yul\":2779:2865   */\n      tag_470\n        /* \"#utility.yul\":2858:2864   */\n      dup2\n        /* \"#utility.yul\":2853:2856   */\n      dup6\n        /* \"#utility.yul\":2779:2865   */\n      tag_388\n      jump\t// in\n    tag_470:\n        /* \"#utility.yul\":2772:2865   */\n      swap4\n      pop\n        /* \"#utility.yul\":2891:2894   */\n      dup4\n        /* \"#utility.yul\":2936:2940   */\n      0x20\n        /* \"#utility.yul\":2928:2934   */\n      dup3\n        /* \"#utility.yul\":2924:2941   */\n      mul\n        /* \"#utility.yul\":2919:2922   */\n      dup6\n        /* \"#utility.yul\":2915:2942   */\n      add\n        /* \"#utility.yul\":2966:3032   */\n      tag_471\n        /* \"#utility.yul\":3026:3031   */\n      dup6\n        /* \"#utility.yul\":2966:3032   */\n      tag_389\n      jump\t// in\n    tag_471:\n        /* \"#utility.yul\":3055:3062   */\n      dup1\n        /* \"#utility.yul\":3086:3087   */\n      0x00\n        /* \"#utility.yul\":3071:3467   */\n    tag_472:\n        /* \"#utility.yul\":3096:3102   */\n      dup6\n        /* \"#utility.yul\":3093:3094   */\n      dup2\n        /* \"#utility.yul\":3090:3103   */\n      lt\n        /* \"#utility.yul\":3071:3467   */\n      iszero\n      tag_474\n      jumpi\n        /* \"#utility.yul\":3167:3176   */\n      dup5\n        /* \"#utility.yul\":3161:3165   */\n      dup5\n        /* \"#utility.yul\":3157:3177   */\n      sub\n        /* \"#utility.yul\":3152:3155   */\n      dup10\n        /* \"#utility.yul\":3145:3178   */\n      mstore\n        /* \"#utility.yul\":3218:3224   */\n      dup2\n        /* \"#utility.yul\":3212:3225   */\n      mload\n        /* \"#utility.yul\":3246:3330   */\n      tag_475\n        /* \"#utility.yul\":3325:3329   */\n      dup6\n        /* \"#utility.yul\":3310:3323   */\n      dup3\n        /* \"#utility.yul\":3246:3330   */\n      tag_390\n      jump\t// in\n    tag_475:\n        /* \"#utility.yul\":3238:3330   */\n      swap5\n      pop\n        /* \"#utility.yul\":3353:3423   */\n      tag_476\n        /* \"#utility.yul\":3416:3422   */\n      dup4\n        /* \"#utility.yul\":3353:3423   */\n      tag_391\n      jump\t// in\n    tag_476:\n        /* \"#utility.yul\":3343:3423   */\n      swap3\n      pop\n        /* \"#utility.yul\":3452:3456   */\n      0x20\n        /* \"#utility.yul\":3447:3450   */\n      dup11\n        /* \"#utility.yul\":3443:3457   */\n      add\n        /* \"#utility.yul\":3436:3457   */\n      swap10\n      pop\n        /* \"#utility.yul\":3131:3467   */\n      pop\n        /* \"#utility.yul\":3118:3119   */\n      0x01\n        /* \"#utility.yul\":3115:3116   */\n      dup2\n        /* \"#utility.yul\":3111:3120   */\n      add\n        /* \"#utility.yul\":3106:3120   */\n      swap1\n      pop\n        /* \"#utility.yul\":3071:3467   */\n      jump(tag_472)\n    tag_474:\n        /* \"#utility.yul\":3075:3089   */\n      pop\n        /* \"#utility.yul\":3483:3487   */\n      dup3\n        /* \"#utility.yul\":3476:3487   */\n      swap8\n      pop\n        /* \"#utility.yul\":3503:3506   */\n      dup8\n        /* \"#utility.yul\":3496:3506   */\n      swap6\n      pop\n        /* \"#utility.yul\":2675:3512   */\n      pop\n      pop\n      pop\n      pop\n      pop\n        /* \"#utility.yul\":2541:3512   */\n      swap3\n      swap2\n      pop\n      pop\n      jump\t// out\n        /* \"#utility.yul\":3568:4882   */\n    tag_393:\n        /* \"#utility.yul\":3673:3676   */\n      0x00\n        /* \"#utility.yul\":3709:3713   */\n      0xa0\n        /* \"#utility.yul\":3704:3707   */\n      dup4\n        /* \"#utility.yul\":3700:3714   */\n      add\n        /* \"#utility.yul\":3796:3800   */\n      0x00\n        /* \"#utility.yul\":3789:3794   */\n      dup4\n        /* \"#utility.yul\":3785:3801   */\n      add\n        /* \"#utility.yul\":3779:3802   */\n      mload\n        /* \"#utility.yul\":3849:3852   */\n      dup5\n        /* \"#utility.yul\":3843:3847   */\n      dup3\n        /* \"#utility.yul\":3839:3853   */\n      sub\n        /* \"#utility.yul\":3832:3836   */\n      0x00\n        /* \"#utility.yul\":3827:3830   */\n      dup7\n        /* \"#utility.yul\":3823:3837   */\n      add\n        /* \"#utility.yul\":3816:3854   */\n      mstore\n        /* \"#utility.yul\":3875:3948   */\n      tag_478\n        /* \"#utility.yul\":3943:3947   */\n      dup3\n        /* \"#utility.yul\":3929:3941   */\n      dup3\n        /* \"#utility.yul\":3875:3948   */\n      tag_384\n      jump\t// in\n    tag_478:\n        /* \"#utility.yul\":3867:3948   */\n      swap2\n      pop\n        /* \"#utility.yul\":3724:3959   */\n      pop\n        /* \"#utility.yul\":4043:4047   */\n      0x20\n        /* \"#utility.yul\":4036:4041   */\n      dup4\n        /* \"#utility.yul\":4032:4048   */\n      add\n        /* \"#utility.yul\":4026:4049   */\n      mload\n        /* \"#utility.yul\":4062:4125   */\n      tag_479\n        /* \"#utility.yul\":4119:4123   */\n      0x20\n        /* \"#utility.yul\":4114:4117   */\n      dup7\n        /* \"#utility.yul\":4110:4124   */\n      add\n        /* \"#utility.yul\":4096:4108   */\n      dup3\n        /* \"#utility.yul\":4062:4125   */\n      tag_386\n      jump\t// in\n    tag_479:\n        /* \"#utility.yul\":3969:4135   */\n      pop\n        /* \"#utility.yul\":4218:4222   */\n      0x40\n        /* \"#utility.yul\":4211:4216   */\n      dup4\n        /* \"#utility.yul\":4207:4223   */\n      add\n        /* \"#utility.yul\":4201:4224   */\n      mload\n        /* \"#utility.yul\":4237:4300   */\n      tag_480\n        /* \"#utility.yul\":4294:4298   */\n      0x40\n        /* \"#utility.yul\":4289:4292   */\n      dup7\n        /* \"#utility.yul\":4285:4299   */\n      add\n        /* \"#utility.yul\":4271:4283   */\n      dup3\n        /* \"#utility.yul\":4237:4300   */\n      tag_386\n      jump\t// in\n    tag_480:\n        /* \"#utility.yul\":4145:4310   */\n      pop\n        /* \"#utility.yul\":4394:4398   */\n      0x60\n        /* \"#utility.yul\":4387:4392   */\n      dup4\n        /* \"#utility.yul\":4383:4399   */\n      add\n        /* \"#utility.yul\":4377:4400   */\n      mload\n        /* \"#utility.yul\":4447:4450   */\n      dup5\n        /* \"#utility.yul\":4441:4445   */\n      dup3\n        /* \"#utility.yul\":4437:4451   */\n      sub\n        /* \"#utility.yul\":4430:4434   */\n      0x60\n        /* \"#utility.yul\":4425:4428   */\n      dup7\n        /* \"#utility.yul\":4421:4435   */\n      add\n        /* \"#utility.yul\":4414:4452   */\n      mstore\n        /* \"#utility.yul\":4473:4546   */\n      tag_481\n        /* \"#utility.yul\":4541:4545   */\n      dup3\n        /* \"#utility.yul\":4527:4539   */\n      dup3\n        /* \"#utility.yul\":4473:4546   */\n      tag_384\n      jump\t// in\n    tag_481:\n        /* \"#utility.yul\":4465:4546   */\n      swap2\n      pop\n        /* \"#utility.yul\":4320:4557   */\n      pop\n        /* \"#utility.yul\":4642:4646   */\n      0x80\n        /* \"#utility.yul\":4635:4640   */\n      dup4\n        /* \"#utility.yul\":4631:4647   */\n      add\n        /* \"#utility.yul\":4625:4648   */\n      mload\n        /* \"#utility.yul\":4695:4698   */\n      dup5\n        /* \"#utility.yul\":4689:4693   */\n      dup3\n        /* \"#utility.yul\":4685:4699   */\n      sub\n        /* \"#utility.yul\":4678:4682   */\n      0x80\n        /* \"#utility.yul\":4673:4676   */\n      dup7\n        /* \"#utility.yul\":4669:4683   */\n      add\n        /* \"#utility.yul\":4662:4700   */\n      mstore\n        /* \"#utility.yul\":4721:4844   */\n      tag_482\n        /* \"#utility.yul\":4839:4843   */\n      dup3\n        /* \"#utility.yul\":4825:4837   */\n      dup3\n        /* \"#utility.yul\":4721:4844   */\n      tag_392\n      jump\t// in\n    tag_482:\n        /* \"#utility.yul\":4713:4844   */\n      swap2\n      pop\n        /* \"#utility.yul\":4567:4855   */\n      pop\n        /* \"#utility.yul\":4872:4876   */\n      dup1\n        /* \"#utility.yul\":4865:4876   */\n      swap2\n      pop\n        /* \"#utility.yul\":3678:4882   */\n      pop\n        /* \"#utility.yul\":3568:4882   */\n      swap3\n      swap2\n      pop\n      pop\n      jump\t// out\n        /* \"#utility.yul\":4888:5136   */\n    tag_394:\n        /* \"#utility.yul\":5003:5013   */\n      0x00\n        /* \"#utility.yul\":5038:5130   */\n      tag_484\n        /* \"#utility.yul\":5126:5129   */\n      dup4\n        /* \"#utility.yul\":5118:5124   */\n      dup4\n        /* \"#utility.yul\":5038:5130   */\n      tag_393\n      jump\t// in\n    tag_484:\n        /* \"#utility.yul\":5024:5130   */\n      swap1\n      pop\n        /* \"#utility.yul\":4888:5136   */\n      swap3\n      swap2\n      pop\n      pop\n      jump\t// out\n        /* \"#utility.yul\":5142:5278   */\n    tag_395:\n        /* \"#utility.yul\":5235:5239   */\n      0x00\n        /* \"#utility.yul\":5267:5271   */\n      0x20\n        /* \"#utility.yul\":5262:5265   */\n      dup3\n        /* \"#utility.yul\":5258:5272   */\n      add\n        /* \"#utility.yul\":5250:5272   */\n      swap1\n      pop\n        /* \"#utility.yul\":5142:5278   */\n      swap2\n      swap1\n      pop\n      jump\t// out\n        /* \"#utility.yul\":5338:6433   */\n    tag_396:\n        /* \"#utility.yul\":5503:5506   */\n      0x00\n        /* \"#utility.yul\":5532:5609   */\n      tag_487\n        /* \"#utility.yul\":5603:5608   */\n      dup3\n        /* \"#utility.yul\":5532:5609   */\n      tag_377\n      jump\t// in\n    tag_487:\n        /* \"#utility.yul\":5625:5734   */\n      tag_488\n        /* \"#utility.yul\":5727:5733   */\n      dup2\n        /* \"#utility.yul\":5722:5725   */\n      dup6\n        /* \"#utility.yul\":5625:5734   */\n      tag_378\n      jump\t// in\n    tag_488:\n        /* \"#utility.yul\":5618:5734   */\n      swap4\n      pop\n        /* \"#utility.yul\":5760:5763   */\n      dup4\n        /* \"#utility.yul\":5805:5809   */\n      0x20\n        /* \"#utility.yul\":5797:5803   */\n      dup3\n        /* \"#utility.yul\":5793:5810   */\n      mul\n        /* \"#utility.yul\":5788:5791   */\n      dup6\n        /* \"#utility.yul\":5784:5811   */\n      add\n        /* \"#utility.yul\":5835:5914   */\n      tag_489\n        /* \"#utility.yul\":5908:5913   */\n      dup6\n        /* \"#utility.yul\":5835:5914   */\n      tag_379\n      jump\t// in\n    tag_489:\n        /* \"#utility.yul\":5937:5944   */\n      dup1\n        /* \"#utility.yul\":5968:5969   */\n      0x00\n        /* \"#utility.yul\":5953:6388   */\n    tag_490:\n        /* \"#utility.yul\":5978:5984   */\n      dup6\n        /* \"#utility.yul\":5975:5976   */\n      dup2\n        /* \"#utility.yul\":5972:5985   */\n      lt\n        /* \"#utility.yul\":5953:6388   */\n      iszero\n      tag_492\n      jumpi\n        /* \"#utility.yul\":6049:6058   */\n      dup5\n        /* \"#utility.yul\":6043:6047   */\n      dup5\n        /* \"#utility.yul\":6039:6059   */\n      sub\n        /* \"#utility.yul\":6034:6037   */\n      dup10\n        /* \"#utility.yul\":6027:6060   */\n      mstore\n        /* \"#utility.yul\":6100:6106   */\n      dup2\n        /* \"#utility.yul\":6094:6107   */\n      mload\n        /* \"#utility.yul\":6128:6238   */\n      tag_493\n        /* \"#utility.yul\":6233:6237   */\n      dup6\n        /* \"#utility.yul\":6218:6231   */\n      dup3\n        /* \"#utility.yul\":6128:6238   */\n      tag_394\n      jump\t// in\n    tag_493:\n        /* \"#utility.yul\":6120:6238   */\n      swap5\n      pop\n        /* \"#utility.yul\":6261:6344   */\n      tag_494\n        /* \"#utility.yul\":6337:6343   */\n      dup4\n        /* \"#utility.yul\":6261:6344   */\n      tag_395\n      jump\t// in\n    tag_494:\n        /* \"#utility.yul\":6251:6344   */\n      swap3\n      pop\n        /* \"#utility.yul\":6373:6377   */\n      0x20\n        /* \"#utility.yul\":6368:6371   */\n      dup11\n        /* \"#utility.yul\":6364:6378   */\n      add\n        /* \"#utility.yul\":6357:6378   */\n      swap10\n      pop\n        /* \"#utility.yul\":6013:6388   */\n      pop\n        /* \"#utility.yul\":6000:6001   */\n      0x01\n        /* \"#utility.yul\":5997:5998   */\n      dup2\n        /* \"#utility.yul\":5993:6002   */\n      add\n        /* \"#utility.yul\":5988:6002   */\n      swap1\n      pop\n        /* \"#utility.yul\":5953:6388   */\n      jump(tag_490)\n    tag_492:\n        /* \"#utility.yul\":5957:5971   */\n      pop\n        /* \"#utility.yul\":6404:6408   */\n      dup3\n        /* \"#utility.yul\":6397:6408   */\n      swap8\n      pop\n        /* \"#utility.yul\":6424:6427   */\n      dup8\n        /* \"#utility.yul\":6417:6427   */\n      swap6\n      pop\n        /* \"#utility.yul\":5508:6433   */\n      pop\n      pop\n      pop\n      pop\n      pop\n        /* \"#utility.yul\":5338:6433   */\n      swap3\n      swap2\n      pop\n      pop\n      jump\t// out\n        /* \"#utility.yul\":6439:6904   */\n    tag_19:\n        /* \"#utility.yul\":6628:6632   */\n      0x00\n        /* \"#utility.yul\":6666:6668   */\n      0x20\n        /* \"#utility.yul\":6655:6664   */\n      dup3\n        /* \"#utility.yul\":6651:6669   */\n      add\n        /* \"#utility.yul\":6643:6669   */\n      swap1\n      pop\n        /* \"#utility.yul\":6715:6724   */\n      dup2\n        /* \"#utility.yul\":6709:6713   */\n      dup2\n        /* \"#utility.yul\":6705:6725   */\n      sub\n        /* \"#utility.yul\":6701:6702   */\n      0x00\n        /* \"#utility.yul\":6690:6699   */\n      dup4\n        /* \"#utility.yul\":6686:6703   */\n      add\n        /* \"#utility.yul\":6679:6726   */\n      mstore\n        /* \"#utility.yul\":6743:6897   */\n      tag_496\n        /* \"#utility.yul\":6892:6896   */\n      dup2\n        /* \"#utility.yul\":6883:6889   */\n      dup5\n        /* \"#utility.yul\":6743:6897   */\n      tag_396\n      jump\t// in\n    tag_496:\n        /* \"#utility.yul\":6735:6897   */\n      swap1\n      pop\n        /* \"#utility.yul\":6439:6904   */\n      swap3\n      swap2\n      pop\n      pop\n      jump\t// out\n        /* \"#utility.yul\":6910:7028   */\n    tag_397:\n        /* \"#utility.yul\":6997:7021   */\n      tag_498\n        /* \"#utility.yul\":7015:7020   */\n      dup2\n        /* \"#utility.yul\":6997:7021   */\n      tag_385\n      jump\t// in\n    tag_498:\n        /* \"#utility.yul\":6992:6995   */\n      dup3\n        /* \"#utility.yul\":6985:7022   */\n      mstore\n        /* \"#utility.yul\":6910:7028   */\n      pop\n      pop\n      jump\t// out\n        /* \"#utility.yul\":7034:7256   */\n    tag_23:\n        /* \"#utility.yul\":7127:7131   */\n      0x00\n        /* \"#utility.yul\":7165:7167   */\n      0x20\n        /* \"#utility.yul\":7154:7163   */\n      dup3\n        /* \"#utility.yul\":7150:7168   */\n      add\n        /* \"#utility.yul\":7142:7168   */\n      swap1\n      pop\n        /* \"#utility.yul\":7178:7249   */\n      tag_500\n        /* \"#utility.yul\":7246:7247   */\n      0x00\n        /* \"#utility.yul\":7235:7244   */\n      dup4\n        /* \"#utility.yul\":7231:7248   */\n      add\n        /* \"#utility.yul\":7222:7228   */\n      dup5\n        /* \"#utility.yul\":7178:7249   */\n      tag_397\n      jump\t// in\n    tag_500:\n        /* \"#utility.yul\":7034:7256   */\n      swap3\n      swap2\n      pop\n      pop\n      jump\t// out\n        /* \"#utility.yul\":7262:7947   */\n    tag_27:\n        /* \"#utility.yul\":7507:7511   */\n      0x00\n        /* \"#utility.yul\":7545:7547   */\n      0x60\n        /* \"#utility.yul\":7534:7543   */\n      dup3\n        /* \"#utility.yul\":7530:7548   */\n      add\n        /* \"#utility.yul\":7522:7548   */\n      swap1\n      pop\n        /* \"#utility.yul\":7558:7629   */\n      tag_502\n        /* \"#utility.yul\":7626:7627   */\n      0x00\n        /* \"#utility.yul\":7615:7624   */\n      dup4\n        /* \"#utility.yul\":7611:7628   */\n      add\n        /* \"#utility.yul\":7602:7608   */\n      dup7\n        /* \"#utility.yul\":7558:7629   */\n      tag_397\n      jump\t// in\n    tag_502:\n        /* \"#utility.yul\":7639:7711   */\n      tag_503\n        /* \"#utility.yul\":7707:7709   */\n      0x20\n        /* \"#utility.yul\":7696:7705   */\n      dup4\n        /* \"#utility.yul\":7692:7710   */\n      add\n        /* \"#utility.yul\":7683:7689   */\n      dup6\n        /* \"#utility.yul\":7639:7711   */\n      tag_397\n      jump\t// in\n    tag_503:\n        /* \"#utility.yul\":7758:7767   */\n      dup2\n        /* \"#utility.yul\":7752:7756   */\n      dup2\n        /* \"#utility.yul\":7748:7768   */\n      sub\n        /* \"#utility.yul\":7743:7745   */\n      0x40\n        /* \"#utility.yul\":7732:7741   */\n      dup4\n        /* \"#utility.yul\":7728:7746   */\n      add\n        /* \"#utility.yul\":7721:7769   */\n      mstore\n        /* \"#utility.yul\":7786:7940   */\n      tag_504\n        /* \"#utility.yul\":7935:7939   */\n      dup2\n        /* \"#utility.yul\":7926:7932   */\n      dup5\n        /* \"#utility.yul\":7786:7940   */\n      tag_396\n      jump\t// in\n    tag_504:\n        /* \"#utility.yul\":7778:7940   */\n      swap1\n      pop\n        /* \"#utility.yul\":7262:7947   */\n      swap5\n      swap4\n      pop\n      pop\n      pop\n      pop\n      jump\t// out\n        /* \"#utility.yul\":7953:8028   */\n    tag_398:\n        /* \"#utility.yul\":7986:7992   */\n      0x00\n        /* \"#utility.yul\":8019:8021   */\n      0x40\n        /* \"#utility.yul\":8013:8022   */\n      mload\n        /* \"#utility.yul\":8003:8022   */\n      swap1\n      pop\n        /* \"#utility.yul\":7953:8028   */\n      swap1\n      jump\t// out\n        /* \"#utility.yul\":8034:8151   */\n    tag_399:\n        /* \"#utility.yul\":8143:8144   */\n      0x00\n        /* \"#utility.yul\":8140:8141   */\n      dup1\n        /* \"#utility.yul\":8133:8145   */\n      revert\n        /* \"#utility.yul\":8157:8274   */\n    tag_400:\n        /* \"#utility.yul\":8266:8267   */\n      0x00\n        /* \"#utility.yul\":8263:8264   */\n      dup1\n        /* \"#utility.yul\":8256:8268   */\n      revert\n        /* \"#utility.yul\":8280:8402   */\n    tag_401:\n        /* \"#utility.yul\":8353:8377   */\n      tag_509\n        /* \"#utility.yul\":8371:8376   */\n      dup2\n        /* \"#utility.yul\":8353:8377   */\n      tag_385\n      jump\t// in\n    tag_509:\n        /* \"#utility.yul\":8346:8351   */\n      dup2\n        /* \"#utility.yul\":8343:8378   */\n      eq\n        /* \"#utility.yul\":8333:8396   */\n      tag_510\n      jumpi\n        /* \"#utility.yul\":8392:8393   */\n      0x00\n        /* \"#utility.yul\":8389:8390   */\n      dup1\n        /* \"#utility.yul\":8382:8394   */\n      revert\n        /* \"#utility.yul\":8333:8396   */\n    tag_510:\n        /* \"#utility.yul\":8280:8402   */\n      pop\n      jump\t// out\n        /* \"#utility.yul\":8408:8547   */\n    tag_402:\n        /* \"#utility.yul\":8454:8459   */\n      0x00\n        /* \"#utility.yul\":8492:8498   */\n      dup2\n        /* \"#utility.yul\":8479:8499   */\n      calldataload\n        /* \"#utility.yul\":8470:8499   */\n      swap1\n      pop\n        /* \"#utility.yul\":8508:8541   */\n      tag_512\n        /* \"#utility.yul\":8535:8540   */\n      dup2\n        /* \"#utility.yul\":8508:8541   */\n      tag_401\n      jump\t// in\n    tag_512:\n        /* \"#utility.yul\":8408:8547   */\n      swap3\n      swap2\n      pop\n      pop\n      jump\t// out\n        /* \"#utility.yul\":8553:8882   */\n    tag_30:\n        /* \"#utility.yul\":8612:8618   */\n      0x00\n        /* \"#utility.yul\":8661:8663   */\n      0x20\n        /* \"#utility.yul\":8649:8658   */\n      dup3\n        /* \"#utility.yul\":8640:8647   */\n      dup5\n        /* \"#utility.yul\":8636:8659   */\n      sub\n        /* \"#utility.yul\":8632:8664   */\n      slt\n        /* \"#utility.yul\":8629:8748   */\n      iszero\n      tag_514\n      jumpi\n        /* \"#utility.yul\":8667:8746   */\n      tag_515\n      tag_399\n      jump\t// in\n    tag_515:\n        /* \"#utility.yul\":8629:8748   */\n    tag_514:\n        /* \"#utility.yul\":8787:8788   */\n      0x00\n        /* \"#utility.yul\":8812:8865   */\n      tag_516\n        /* \"#utility.yul\":8857:8864   */\n      dup5\n        /* \"#utility.yul\":8848:8854   */\n      dup3\n        /* \"#utility.yul\":8837:8846   */\n      dup6\n        /* \"#utility.yul\":8833:8855   */\n      add\n        /* \"#utility.yul\":8812:8865   */\n      tag_402\n      jump\t// in\n    tag_516:\n        /* \"#utility.yul\":8802:8865   */\n      swap2\n      pop\n        /* \"#utility.yul\":8758:8875   */\n      pop\n        /* \"#utility.yul\":8553:8882   */\n      swap3\n      swap2\n      pop\n      pop\n      jump\t// out\n        /* \"#utility.yul\":8888:9057   */\n    tag_403:\n        /* \"#utility.yul\":8972:8983   */\n      0x00\n        /* \"#utility.yul\":9006:9012   */\n      dup3\n        /* \"#utility.yul\":9001:9004   */\n      dup3\n        /* \"#utility.yul\":8994:9013   */\n      mstore\n        /* \"#utility.yul\":9046:9050   */\n      0x20\n        /* \"#utility.yul\":9041:9044   */\n      dup3\n        /* \"#utility.yul\":9037:9051   */\n      add\n        /* \"#utility.yul\":9022:9051   */\n      swap1\n      pop\n        /* \"#utility.yul\":8888:9057   */\n      swap3\n      swap2\n      pop\n      pop\n      jump\t// out\n        /* \"#utility.yul\":9063:9440   */\n    tag_404:\n        /* \"#utility.yul\":9151:9154   */\n      0x00\n        /* \"#utility.yul\":9179:9218   */\n      tag_519\n        /* \"#utility.yul\":9212:9217   */\n      dup3\n        /* \"#utility.yul\":9179:9218   */\n      tag_380\n      jump\t// in\n    tag_519:\n        /* \"#utility.yul\":9234:9305   */\n      tag_520\n        /* \"#utility.yul\":9298:9304   */\n      dup2\n        /* \"#utility.yul\":9293:9296   */\n      dup6\n        /* \"#utility.yul\":9234:9305   */\n      tag_403\n      jump\t// in\n    tag_520:\n        /* \"#utility.yul\":9227:9305   */\n      swap4\n      pop\n        /* \"#utility.yul\":9314:9379   */\n      tag_521\n        /* \"#utility.yul\":9372:9378   */\n      dup2\n        /* \"#utility.yul\":9367:9370   */\n      dup6\n        /* \"#utility.yul\":9360:9364   */\n      0x20\n        /* \"#utility.yul\":9353:9358   */\n      dup7\n        /* \"#utility.yul\":9349:9365   */\n      add\n        /* \"#utility.yul\":9314:9379   */\n      tag_382\n      jump\t// in\n    tag_521:\n        /* \"#utility.yul\":9404:9433   */\n      tag_522\n        /* \"#utility.yul\":9426:9432   */\n      dup2\n        /* \"#utility.yul\":9404:9433   */\n      tag_383\n      jump\t// in\n    tag_522:\n        /* \"#utility.yul\":9399:9402   */\n      dup5\n        /* \"#utility.yul\":9395:9434   */\n      add\n        /* \"#utility.yul\":9388:9434   */\n      swap2\n      pop\n        /* \"#utility.yul\":9155:9440   */\n      pop\n        /* \"#utility.yul\":9063:9440   */\n      swap3\n      swap2\n      pop\n      pop\n      jump\t// out\n        /* \"#utility.yul\":9446:9759   */\n    tag_33:\n        /* \"#utility.yul\":9559:9563   */\n      0x00\n        /* \"#utility.yul\":9597:9599   */\n      0x20\n        /* \"#utility.yul\":9586:9595   */\n      dup3\n        /* \"#utility.yul\":9582:9600   */\n      add\n        /* \"#utility.yul\":9574:9600   */\n      swap1\n      pop\n        /* \"#utility.yul\":9646:9655   */\n      dup2\n        /* \"#utility.yul\":9640:9644   */\n      dup2\n        /* \"#utility.yul\":9636:9656   */\n      sub\n        /* \"#utility.yul\":9632:9633   */\n      0x00\n        /* \"#utility.yul\":9621:9630   */\n      dup4\n        /* \"#utility.yul\":9617:9634   */\n      add\n        /* \"#utility.yul\":9610:9657   */\n      mstore\n        /* \"#utility.yul\":9674:9752   */\n      tag_524\n        /* \"#utility.yul\":9747:9751   */\n      dup2\n        /* \"#utility.yul\":9738:9744   */\n      dup5\n        /* \"#utility.yul\":9674:9752   */\n      tag_404\n      jump\t// in\n    tag_524:\n        /* \"#utility.yul\":9666:9752   */\n      swap1\n      pop\n        /* \"#utility.yul\":9446:9759   */\n      swap3\n      swap2\n      pop\n      pop\n      jump\t// out\n        /* \"#utility.yul\":9765:9882   */\n    tag_405:\n        /* \"#utility.yul\":9874:9875   */\n      0x00\n        /* \"#utility.yul\":9871:9872   */\n      dup1\n        /* \"#utility.yul\":9864:9876   */\n      revert\n        /* \"#utility.yul\":9888:10005   */\n    tag_406:\n        /* \"#utility.yul\":9997:9998   */\n      0x00\n        /* \"#utility.yul\":9994:9995   */\n      dup1\n        /* \"#utility.yul\":9987:9999   */\n      revert\n        /* \"#utility.yul\":10011:10191   */\n    tag_91:\n        /* \"#utility.yul\":10059:10136   */\n      0x4e487b7100000000000000000000000000000000000000000000000000000000\n        /* \"#utility.yul\":10056:10057   */\n      0x00\n        /* \"#utility.yul\":10049:10137   */\n      mstore\n        /* \"#utility.yul\":10156:10160   */\n      0x41\n        /* \"#utility.yul\":10153:10154   */\n      0x04\n        /* \"#utility.yul\":10146:10161   */\n      mstore\n        /* \"#utility.yul\":10180:10184   */\n      0x24\n        /* \"#utility.yul\":10177:10178   */\n      0x00\n        /* \"#utility.yul\":10170:10185   */\n      revert\n        /* \"#utility.yul\":10197:10478   */\n    tag_407:\n        /* \"#utility.yul\":10280:10307   */\n      tag_529\n        /* \"#utility.yul\":10302:10306   */\n      dup3\n        /* \"#utility.yul\":10280:10307   */\n      tag_383\n      jump\t// in\n    tag_529:\n        /* \"#utility.yul\":10272:10278   */\n      dup2\n        /* \"#utility.yul\":10268:10308   */\n      add\n        /* \"#utility.yul\":10410:10416   */\n      dup2\n        /* \"#utility.yul\":10398:10408   */\n      dup2\n        /* \"#utility.yul\":10395:10417   */\n      lt\n        /* \"#utility.yul\":10374:10392   */\n      0xffffffffffffffff\n        /* \"#utility.yul\":10362:10372   */\n      dup3\n        /* \"#utility.yul\":10359:10393   */\n      gt\n        /* \"#utility.yul\":10356:10418   */\n      or\n        /* \"#utility.yul\":10353:10441   */\n      iszero\n      tag_530\n      jumpi\n        /* \"#utility.yul\":10421:10439   */\n      tag_531\n      tag_91\n      jump\t// in\n    tag_531:\n        /* \"#utility.yul\":10353:10441   */\n    tag_530:\n        /* \"#utility.yul\":10461:10471   */\n      dup1\n        /* \"#utility.yul\":10457:10459   */\n      0x40\n        /* \"#utility.yul\":10450:10472   */\n      mstore\n        /* \"#utility.yul\":10240:10478   */\n      pop\n        /* \"#utility.yul\":10197:10478   */\n      pop\n      pop\n      jump\t// out\n        /* \"#utility.yul\":10484:10613   */\n    tag_408:\n        /* \"#utility.yul\":10518:10524   */\n      0x00\n        /* \"#utility.yul\":10545:10565   */\n      tag_533\n      tag_398\n      jump\t// in\n    tag_533:\n        /* \"#utility.yul\":10535:10565   */\n      swap1\n      pop\n        /* \"#utility.yul\":10574:10607   */\n      tag_534\n        /* \"#utility.yul\":10602:10606   */\n      dup3\n        /* \"#utility.yul\":10594:10600   */\n      dup3\n        /* \"#utility.yul\":10574:10607   */\n      tag_407\n      jump\t// in\n    tag_534:\n        /* \"#utility.yul\":10484:10613   */\n      swap2\n      swap1\n      pop\n      jump\t// out\n        /* \"#utility.yul\":10619:10927   */\n    tag_409:\n        /* \"#utility.yul\":10681:10685   */\n      0x00\n        /* \"#utility.yul\":10771:10789   */\n      0xffffffffffffffff\n        /* \"#utility.yul\":10763:10769   */\n      dup3\n        /* \"#utility.yul\":10760:10790   */\n      gt\n        /* \"#utility.yul\":10757:10813   */\n      iszero\n      tag_536\n      jumpi\n        /* \"#utility.yul\":10793:10811   */\n      tag_537\n      tag_91\n      jump\t// in\n    tag_537:\n        /* \"#utility.yul\":10757:10813   */\n    tag_536:\n        /* \"#utility.yul\":10831:10860   */\n      tag_538\n        /* \"#utility.yul\":10853:10859   */\n      dup3\n        /* \"#utility.yul\":10831:10860   */\n      tag_383\n      jump\t// in\n    tag_538:\n        /* \"#utility.yul\":10823:10860   */\n      swap1\n      pop\n        /* \"#utility.yul\":10915:10919   */\n      0x20\n        /* \"#utility.yul\":10909:10913   */\n      dup2\n        /* \"#utility.yul\":10905:10920   */\n      add\n        /* \"#utility.yul\":10897:10920   */\n      swap1\n      pop\n        /* \"#utility.yul\":10619:10927   */\n      swap2\n      swap1\n      pop\n      jump\t// out\n        /* \"#utility.yul\":10933:11079   */\n    tag_410:\n        /* \"#utility.yul\":11030:11036   */\n      dup3\n        /* \"#utility.yul\":11025:11028   */\n      dup2\n        /* \"#utility.yul\":11020:11023   */\n      dup4\n        /* \"#utility.yul\":11007:11037   */\n      calldatacopy\n        /* \"#utility.yul\":11071:11072   */\n      0x00\n        /* \"#utility.yul\":11062:11068   */\n      dup4\n        /* \"#utility.yul\":11057:11060   */\n      dup4\n        /* \"#utility.yul\":11053:11069   */\n      add\n        /* \"#utility.yul\":11046:11073   */\n      mstore\n        /* \"#utility.yul\":10933:11079   */\n      pop\n      pop\n      pop\n      jump\t// out\n        /* \"#utility.yul\":11085:11510   */\n    tag_411:\n        /* \"#utility.yul\":11163:11168   */\n      0x00\n        /* \"#utility.yul\":11188:11254   */\n      tag_541\n        /* \"#utility.yul\":11204:11253   */\n      tag_542\n        /* \"#utility.yul\":11246:11252   */\n      dup5\n        /* \"#utility.yul\":11204:11253   */\n      tag_409\n      jump\t// in\n    tag_542:\n        /* \"#utility.yul\":11188:11254   */\n      tag_408\n      jump\t// in\n    tag_541:\n        /* \"#utility.yul\":11179:11254   */\n      swap1\n      pop\n        /* \"#utility.yul\":11277:11283   */\n      dup3\n        /* \"#utility.yul\":11270:11275   */\n      dup2\n        /* \"#utility.yul\":11263:11284   */\n      mstore\n        /* \"#utility.yul\":11315:11319   */\n      0x20\n        /* \"#utility.yul\":11308:11313   */\n      dup2\n        /* \"#utility.yul\":11304:11320   */\n      add\n        /* \"#utility.yul\":11353:11356   */\n      dup5\n        /* \"#utility.yul\":11344:11350   */\n      dup5\n        /* \"#utility.yul\":11339:11342   */\n      dup5\n        /* \"#utility.yul\":11335:11351   */\n      add\n        /* \"#utility.yul\":11332:11357   */\n      gt\n        /* \"#utility.yul\":11329:11441   */\n      iszero\n      tag_543\n      jumpi\n        /* \"#utility.yul\":11360:11439   */\n      tag_544\n      tag_406\n      jump\t// in\n    tag_544:\n        /* \"#utility.yul\":11329:11441   */\n    tag_543:\n        /* \"#utility.yul\":11450:11504   */\n      tag_545\n        /* \"#utility.yul\":11497:11503   */\n      dup5\n        /* \"#utility.yul\":11492:11495   */\n      dup3\n        /* \"#utility.yul\":11487:11490   */\n      dup6\n        /* \"#utility.yul\":11450:11504   */\n      tag_410\n      jump\t// in\n    tag_545:\n        /* \"#utility.yul\":11169:11510   */\n      pop\n        /* \"#utility.yul\":11085:11510   */\n      swap4\n      swap3\n      pop\n      pop\n      pop\n      jump\t// out\n        /* \"#utility.yul\":11530:11870   */\n    tag_412:\n        /* \"#utility.yul\":11586:11591   */\n      0x00\n        /* \"#utility.yul\":11635:11638   */\n      dup3\n        /* \"#utility.yul\":11628:11632   */\n      0x1f\n        /* \"#utility.yul\":11620:11626   */\n      dup4\n        /* \"#utility.yul\":11616:11633   */\n      add\n        /* \"#utility.yul\":11612:11639   */\n      slt\n        /* \"#utility.yul\":11602:11724   */\n      tag_547\n      jumpi\n        /* \"#utility.yul\":11643:11722   */\n      tag_548\n      tag_405\n      jump\t// in\n    tag_548:\n        /* \"#utility.yul\":11602:11724   */\n    tag_547:\n        /* \"#utility.yul\":11760:11766   */\n      dup2\n        /* \"#utility.yul\":11747:11767   */\n      calldataload\n        /* \"#utility.yul\":11785:11864   */\n      tag_549\n        /* \"#utility.yul\":11860:11863   */\n      dup5\n        /* \"#utility.yul\":11852:11858   */\n      dup3\n        /* \"#utility.yul\":11845:11849   */\n      0x20\n        /* \"#utility.yul\":11837:11843   */\n      dup7\n        /* \"#utility.yul\":11833:11850   */\n      add\n        /* \"#utility.yul\":11785:11864   */\n      tag_411\n      jump\t// in\n    tag_549:\n        /* \"#utility.yul\":11776:11864   */\n      swap2\n      pop\n        /* \"#utility.yul\":11592:11870   */\n      pop\n        /* \"#utility.yul\":11530:11870   */\n      swap3\n      swap2\n      pop\n      pop\n      jump\t// out\n        /* \"#utility.yul\":11876:12197   */\n    tag_413:\n        /* \"#utility.yul\":11963:11967   */\n      0x00\n        /* \"#utility.yul\":12053:12071   */\n      0xffffffffffffffff\n        /* \"#utility.yul\":12045:12051   */\n      dup3\n        /* \"#utility.yul\":12042:12072   */\n      gt\n        /* \"#utility.yul\":12039:12095   */\n      iszero\n      tag_551\n      jumpi\n        /* \"#utility.yul\":12075:12093   */\n      tag_552\n      tag_91\n      jump\t// in\n    tag_552:\n        /* \"#utility.yul\":12039:12095   */\n    tag_551:\n        /* \"#utility.yul\":12125:12129   */\n      0x20\n        /* \"#utility.yul\":12117:12123   */\n      dup3\n        /* \"#utility.yul\":12113:12130   */\n      mul\n        /* \"#utility.yul\":12105:12130   */\n      swap1\n      pop\n        /* \"#utility.yul\":12185:12189   */\n      0x20\n        /* \"#utility.yul\":12179:12183   */\n      dup2\n        /* \"#utility.yul\":12175:12190   */\n      add\n        /* \"#utility.yul\":12167:12190   */\n      swap1\n      pop\n        /* \"#utility.yul\":11876:12197   */\n      swap2\n      swap1\n      pop\n      jump\t// out\n        /* \"#utility.yul\":12203:12320   */\n    tag_414:\n        /* \"#utility.yul\":12312:12313   */\n      0x00\n        /* \"#utility.yul\":12309:12310   */\n      dup1\n        /* \"#utility.yul\":12302:12314   */\n      revert\n        /* \"#utility.yul\":12342:13287   */\n    tag_415:\n        /* \"#utility.yul\":12448:12453   */\n      0x00\n        /* \"#utility.yul\":12473:12564   */\n      tag_555\n        /* \"#utility.yul\":12489:12563   */\n      tag_556\n        /* \"#utility.yul\":12556:12562   */\n      dup5\n        /* \"#utility.yul\":12489:12563   */\n      tag_413\n      jump\t// in\n    tag_556:\n        /* \"#utility.yul\":12473:12564   */\n      tag_408\n      jump\t// in\n    tag_555:\n        /* \"#utility.yul\":12464:12564   */\n      swap1\n      pop\n        /* \"#utility.yul\":12584:12589   */\n      dup1\n        /* \"#utility.yul\":12613:12619   */\n      dup4\n        /* \"#utility.yul\":12606:12611   */\n      dup3\n        /* \"#utility.yul\":12599:12620   */\n      mstore\n        /* \"#utility.yul\":12647:12651   */\n      0x20\n        /* \"#utility.yul\":12640:12645   */\n      dup3\n        /* \"#utility.yul\":12636:12652   */\n      add\n        /* \"#utility.yul\":12629:12652   */\n      swap1\n      pop\n        /* \"#utility.yul\":12700:12704   */\n      0x20\n        /* \"#utility.yul\":12692:12698   */\n      dup5\n        /* \"#utility.yul\":12688:12705   */\n      mul\n        /* \"#utility.yul\":12680:12686   */\n      dup4\n        /* \"#utility.yul\":12676:12706   */\n      add\n        /* \"#utility.yul\":12729:12732   */\n      dup6\n        /* \"#utility.yul\":12721:12727   */\n      dup2\n        /* \"#utility.yul\":12718:12733   */\n      gt\n        /* \"#utility.yul\":12715:12837   */\n      iszero\n      tag_557\n      jumpi\n        /* \"#utility.yul\":12748:12827   */\n      tag_558\n      tag_414\n      jump\t// in\n    tag_558:\n        /* \"#utility.yul\":12715:12837   */\n    tag_557:\n        /* \"#utility.yul\":12863:12869   */\n      dup4\n        /* \"#utility.yul\":12846:13281   */\n    tag_559:\n        /* \"#utility.yul\":12880:12886   */\n      dup2\n        /* \"#utility.yul\":12875:12878   */\n      dup2\n        /* \"#utility.yul\":12872:12887   */\n      lt\n        /* \"#utility.yul\":12846:13281   */\n      iszero\n      tag_561\n      jumpi\n        /* \"#utility.yul\":12969:12972   */\n      dup1\n        /* \"#utility.yul\":12956:12973   */\n      calldataload\n        /* \"#utility.yul\":13005:13023   */\n      0xffffffffffffffff\n        /* \"#utility.yul\":12992:13003   */\n      dup2\n        /* \"#utility.yul\":12989:13024   */\n      gt\n        /* \"#utility.yul\":12986:13108   */\n      iszero\n      tag_562\n      jumpi\n        /* \"#utility.yul\":13027:13106   */\n      tag_563\n      tag_405\n      jump\t// in\n    tag_563:\n        /* \"#utility.yul\":12986:13108   */\n    tag_562:\n        /* \"#utility.yul\":13151:13162   */\n      dup1\n        /* \"#utility.yul\":13143:13149   */\n      dup7\n        /* \"#utility.yul\":13139:13163   */\n      add\n        /* \"#utility.yul\":13189:13236   */\n      tag_564\n        /* \"#utility.yul\":13232:13235   */\n      dup10\n        /* \"#utility.yul\":13220:13230   */\n      dup3\n        /* \"#utility.yul\":13189:13236   */\n      tag_412\n      jump\t// in\n    tag_564:\n        /* \"#utility.yul\":13184:13187   */\n      dup6\n        /* \"#utility.yul\":13177:13237   */\n      mstore\n        /* \"#utility.yul\":13266:13270   */\n      0x20\n        /* \"#utility.yul\":13261:13264   */\n      dup6\n        /* \"#utility.yul\":13257:13271   */\n      add\n        /* \"#utility.yul\":13250:13271   */\n      swap5\n      pop\n        /* \"#utility.yul\":12922:13281   */\n      pop\n      pop\n        /* \"#utility.yul\":12906:12910   */\n      0x20\n        /* \"#utility.yul\":12901:12904   */\n      dup2\n        /* \"#utility.yul\":12897:12911   */\n      add\n        /* \"#utility.yul\":12890:12911   */\n      swap1\n      pop\n        /* \"#utility.yul\":12846:13281   */\n      jump(tag_559)\n    tag_561:\n        /* \"#utility.yul\":12850:12871   */\n      pop\n        /* \"#utility.yul\":12454:13287   */\n      pop\n      pop\n        /* \"#utility.yul\":12342:13287   */\n      swap4\n      swap3\n      pop\n      pop\n      pop\n      jump\t// out\n        /* \"#utility.yul\":13309:13699   */\n    tag_416:\n        /* \"#utility.yul\":13390:13395   */\n      0x00\n        /* \"#utility.yul\":13439:13442   */\n      dup3\n        /* \"#utility.yul\":13432:13436   */\n      0x1f\n        /* \"#utility.yul\":13424:13430   */\n      dup4\n        /* \"#utility.yul\":13420:13437   */\n      add\n        /* \"#utility.yul\":13416:13443   */\n      slt\n        /* \"#utility.yul\":13406:13528   */\n      tag_566\n      jumpi\n        /* \"#utility.yul\":13447:13526   */\n      tag_567\n      tag_405\n      jump\t// in\n    tag_567:\n        /* \"#utility.yul\":13406:13528   */\n    tag_566:\n        /* \"#utility.yul\":13564:13570   */\n      dup2\n        /* \"#utility.yul\":13551:13571   */\n      calldataload\n        /* \"#utility.yul\":13589:13693   */\n      tag_568\n        /* \"#utility.yul\":13689:13692   */\n      dup5\n        /* \"#utility.yul\":13681:13687   */\n      dup3\n        /* \"#utility.yul\":13674:13678   */\n      0x20\n        /* \"#utility.yul\":13666:13672   */\n      dup7\n        /* \"#utility.yul\":13662:13679   */\n      add\n        /* \"#utility.yul\":13589:13693   */\n      tag_415\n      jump\t// in\n    tag_568:\n        /* \"#utility.yul\":13580:13693   */\n      swap2\n      pop\n        /* \"#utility.yul\":13396:13699   */\n      pop\n        /* \"#utility.yul\":13309:13699   */\n      swap3\n      swap2\n      pop\n      pop\n      jump\t// out\n        /* \"#utility.yul\":13705:15206   */\n    tag_36:\n        /* \"#utility.yul\":13855:13861   */\n      0x00\n        /* \"#utility.yul\":13863:13869   */\n      dup1\n        /* \"#utility.yul\":13871:13877   */\n      0x00\n        /* \"#utility.yul\":13879:13885   */\n      dup1\n        /* \"#utility.yul\":13887:13893   */\n      0x00\n        /* \"#utility.yul\":13936:13939   */\n      0xa0\n        /* \"#utility.yul\":13924:13933   */\n      dup7\n        /* \"#utility.yul\":13915:13922   */\n      dup9\n        /* \"#utility.yul\":13911:13934   */\n      sub\n        /* \"#utility.yul\":13907:13940   */\n      slt\n        /* \"#utility.yul\":13904:14024   */\n      iszero\n      tag_570\n      jumpi\n        /* \"#utility.yul\":13943:14022   */\n      tag_571\n      tag_399\n      jump\t// in\n    tag_571:\n        /* \"#utility.yul\":13904:14024   */\n    tag_570:\n        /* \"#utility.yul\":14091:14092   */\n      0x00\n        /* \"#utility.yul\":14080:14089   */\n      dup7\n        /* \"#utility.yul\":14076:14093   */\n      add\n        /* \"#utility.yul\":14063:14094   */\n      calldataload\n        /* \"#utility.yul\":14121:14139   */\n      0xffffffffffffffff\n        /* \"#utility.yul\":14113:14119   */\n      dup2\n        /* \"#utility.yul\":14110:14140   */\n      gt\n        /* \"#utility.yul\":14107:14224   */\n      iszero\n      tag_572\n      jumpi\n        /* \"#utility.yul\":14143:14222   */\n      tag_573\n      tag_400\n      jump\t// in\n    tag_573:\n        /* \"#utility.yul\":14107:14224   */\n    tag_572:\n        /* \"#utility.yul\":14248:14311   */\n      tag_574\n        /* \"#utility.yul\":14303:14310   */\n      dup9\n        /* \"#utility.yul\":14294:14300   */\n      dup3\n        /* \"#utility.yul\":14283:14292   */\n      dup10\n        /* \"#utility.yul\":14279:14301   */\n      add\n        /* \"#utility.yul\":14248:14311   */\n      tag_412\n      jump\t// in\n    tag_574:\n        /* \"#utility.yul\":14238:14311   */\n      swap6\n      pop\n        /* \"#utility.yul\":14034:14321   */\n      pop\n        /* \"#utility.yul\":14360:14362   */\n      0x20\n        /* \"#utility.yul\":14386:14439   */\n      tag_575\n        /* \"#utility.yul\":14431:14438   */\n      dup9\n        /* \"#utility.yul\":14422:14428   */\n      dup3\n        /* \"#utility.yul\":14411:14420   */\n      dup10\n        /* \"#utility.yul\":14407:14429   */\n      add\n        /* \"#utility.yul\":14386:14439   */\n      tag_402\n      jump\t// in\n    tag_575:\n        /* \"#utility.yul\":14376:14439   */\n      swap5\n      pop\n        /* \"#utility.yul\":14331:14449   */\n      pop\n        /* \"#utility.yul\":14488:14490   */\n      0x40\n        /* \"#utility.yul\":14514:14567   */\n      tag_576\n        /* \"#utility.yul\":14559:14566   */\n      dup9\n        /* \"#utility.yul\":14550:14556   */\n      dup3\n        /* \"#utility.yul\":14539:14548   */\n      dup10\n        /* \"#utility.yul\":14535:14557   */\n      add\n        /* \"#utility.yul\":14514:14567   */\n      tag_402\n      jump\t// in\n    tag_576:\n        /* \"#utility.yul\":14504:14567   */\n      swap4\n      pop\n        /* \"#utility.yul\":14459:14577   */\n      pop\n        /* \"#utility.yul\":14644:14646   */\n      0x60\n        /* \"#utility.yul\":14633:14642   */\n      dup7\n        /* \"#utility.yul\":14629:14647   */\n      add\n        /* \"#utility.yul\":14616:14648   */\n      calldataload\n        /* \"#utility.yul\":14675:14693   */\n      0xffffffffffffffff\n        /* \"#utility.yul\":14667:14673   */\n      dup2\n        /* \"#utility.yul\":14664:14694   */\n      gt\n        /* \"#utility.yul\":14661:14778   */\n      iszero\n      tag_577\n      jumpi\n        /* \"#utility.yul\":14697:14776   */\n      tag_578\n      tag_400\n      jump\t// in\n    tag_578:\n        /* \"#utility.yul\":14661:14778   */\n    tag_577:\n        /* \"#utility.yul\":14802:14865   */\n      tag_579\n        /* \"#utility.yul\":14857:14864   */\n      dup9\n        /* \"#utility.yul\":14848:14854   */\n      dup3\n        /* \"#utility.yul\":14837:14846   */\n      dup10\n        /* \"#utility.yul\":14833:14855   */\n      add\n        /* \"#utility.yul\":14802:14865   */\n      tag_412\n      jump\t// in\n    tag_579:\n        /* \"#utility.yul\":14792:14865   */\n      swap3\n      pop\n        /* \"#utility.yul\":14587:14875   */\n      pop\n        /* \"#utility.yul\":14942:14945   */\n      0x80\n        /* \"#utility.yul\":14931:14940   */\n      dup7\n        /* \"#utility.yul\":14927:14946   */\n      add\n        /* \"#utility.yul\":14914:14947   */\n      calldataload\n        /* \"#utility.yul\":14974:14992   */\n      0xffffffffffffffff\n        /* \"#utility.yul\":14966:14972   */\n      dup2\n        /* \"#utility.yul\":14963:14993   */\n      gt\n        /* \"#utility.yul\":14960:15077   */\n      iszero\n      tag_580\n      jumpi\n        /* \"#utility.yul\":14996:15075   */\n      tag_581\n      tag_400\n      jump\t// in\n    tag_581:\n        /* \"#utility.yul\":14960:15077   */\n    tag_580:\n        /* \"#utility.yul\":15101:15189   */\n      tag_582\n        /* \"#utility.yul\":15181:15188   */\n      dup9\n        /* \"#utility.yul\":15172:15178   */\n      dup3\n        /* \"#utility.yul\":15161:15170   */\n      dup10\n        /* \"#utility.yul\":15157:15179   */\n      add\n        /* \"#utility.yul\":15101:15189   */\n      tag_416\n      jump\t// in\n    tag_582:\n        /* \"#utility.yul\":15091:15189   */\n      swap2\n      pop\n        /* \"#utility.yul\":14885:15199   */\n      pop\n        /* \"#utility.yul\":13705:15206   */\n      swap3\n      swap6\n      pop\n      swap3\n      swap6\n      swap1\n      swap4\n      pop\n      jump\t// out\n        /* \"#utility.yul\":15212:15302   */\n    tag_417:\n        /* \"#utility.yul\":15246:15253   */\n      0x00\n        /* \"#utility.yul\":15289:15294   */\n      dup2\n        /* \"#utility.yul\":15282:15295   */\n      iszero\n        /* \"#utility.yul\":15275:15296   */\n      iszero\n        /* \"#utility.yul\":15264:15296   */\n      swap1\n      pop\n        /* \"#utility.yul\":15212:15302   */\n      swap2\n      swap1\n      pop\n      jump\t// out\n        /* \"#utility.yul\":15308:15417   */\n    tag_418:\n        /* \"#utility.yul\":15389:15410   */\n      tag_585\n        /* \"#utility.yul\":15404:15409   */\n      dup2\n        /* \"#utility.yul\":15389:15410   */\n      tag_417\n      jump\t// in\n    tag_585:\n        /* \"#utility.yul\":15384:15387   */\n      dup3\n        /* \"#utility.yul\":15377:15411   */\n      mstore\n        /* \"#utility.yul\":15308:15417   */\n      pop\n      pop\n      jump\t// out\n        /* \"#utility.yul\":15423:15633   */\n    tag_44:\n        /* \"#utility.yul\":15510:15514   */\n      0x00\n        /* \"#utility.yul\":15548:15550   */\n      0x20\n        /* \"#utility.yul\":15537:15546   */\n      dup3\n        /* \"#utility.yul\":15533:15551   */\n      add\n        /* \"#utility.yul\":15525:15551   */\n      swap1\n      pop\n        /* \"#utility.yul\":15561:15626   */\n      tag_587\n        /* \"#utility.yul\":15623:15624   */\n      0x00\n        /* \"#utility.yul\":15612:15621   */\n      dup4\n        /* \"#utility.yul\":15608:15625   */\n      add\n        /* \"#utility.yul\":15599:15605   */\n      dup5\n        /* \"#utility.yul\":15561:15626   */\n      tag_418\n      jump\t// in\n    tag_587:\n        /* \"#utility.yul\":15423:15633   */\n      swap3\n      swap2\n      pop\n      pop\n      jump\t// out\n        /* \"#utility.yul\":15639:16214   */\n    tag_48:\n        /* \"#utility.yul\":15856:15860   */\n      0x00\n        /* \"#utility.yul\":15894:15896   */\n      0x40\n        /* \"#utility.yul\":15883:15892   */\n      dup3\n        /* \"#utility.yul\":15879:15897   */\n      add\n        /* \"#utility.yul\":15871:15897   */\n      swap1\n      pop\n        /* \"#utility.yul\":15907:15978   */\n      tag_589\n        /* \"#utility.yul\":15975:15976   */\n      0x00\n        /* \"#utility.yul\":15964:15973   */\n      dup4\n        /* \"#utility.yul\":15960:15977   */\n      add\n        /* \"#utility.yul\":15951:15957   */\n      dup6\n        /* \"#utility.yul\":15907:15978   */\n      tag_397\n      jump\t// in\n    tag_589:\n        /* \"#utility.yul\":16025:16034   */\n      dup2\n        /* \"#utility.yul\":16019:16023   */\n      dup2\n        /* \"#utility.yul\":16015:16035   */\n      sub\n        /* \"#utility.yul\":16010:16012   */\n      0x20\n        /* \"#utility.yul\":15999:16008   */\n      dup4\n        /* \"#utility.yul\":15995:16013   */\n      add\n        /* \"#utility.yul\":15988:16036   */\n      mstore\n        /* \"#utility.yul\":16053:16207   */\n      tag_590\n        /* \"#utility.yul\":16202:16206   */\n      dup2\n        /* \"#utility.yul\":16193:16199   */\n      dup5\n        /* \"#utility.yul\":16053:16207   */\n      tag_396\n      jump\t// in\n    tag_590:\n        /* \"#utility.yul\":16045:16207   */\n      swap1\n      pop\n        /* \"#utility.yul\":15639:16214   */\n      swap4\n      swap3\n      pop\n      pop\n      pop\n      jump\t// out\n        /* \"#utility.yul\":16270:17594   */\n    tag_419:\n        /* \"#utility.yul\":16385:16388   */\n      0x00\n        /* \"#utility.yul\":16421:16425   */\n      0xa0\n        /* \"#utility.yul\":16416:16419   */\n      dup4\n        /* \"#utility.yul\":16412:16426   */\n      add\n        /* \"#utility.yul\":16508:16512   */\n      0x00\n        /* \"#utility.yul\":16501:16506   */\n      dup4\n        /* \"#utility.yul\":16497:16513   */\n      add\n        /* \"#utility.yul\":16491:16514   */\n      mload\n        /* \"#utility.yul\":16561:16564   */\n      dup5\n        /* \"#utility.yul\":16555:16559   */\n      dup3\n        /* \"#utility.yul\":16551:16565   */\n      sub\n        /* \"#utility.yul\":16544:16548   */\n      0x00\n        /* \"#utility.yul\":16539:16542   */\n      dup7\n        /* \"#utility.yul\":16535:16549   */\n      add\n        /* \"#utility.yul\":16528:16566   */\n      mstore\n        /* \"#utility.yul\":16587:16660   */\n      tag_592\n        /* \"#utility.yul\":16655:16659   */\n      dup3\n        /* \"#utility.yul\":16641:16653   */\n      dup3\n        /* \"#utility.yul\":16587:16660   */\n      tag_384\n      jump\t// in\n    tag_592:\n        /* \"#utility.yul\":16579:16660   */\n      swap2\n      pop\n        /* \"#utility.yul\":16436:16671   */\n      pop\n        /* \"#utility.yul\":16755:16759   */\n      0x20\n        /* \"#utility.yul\":16748:16753   */\n      dup4\n        /* \"#utility.yul\":16744:16760   */\n      add\n        /* \"#utility.yul\":16738:16761   */\n      mload\n        /* \"#utility.yul\":16774:16837   */\n      tag_593\n        /* \"#utility.yul\":16831:16835   */\n      0x20\n        /* \"#utility.yul\":16826:16829   */\n      dup7\n        /* \"#utility.yul\":16822:16836   */\n      add\n        /* \"#utility.yul\":16808:16820   */\n      dup3\n        /* \"#utility.yul\":16774:16837   */\n      tag_386\n      jump\t// in\n    tag_593:\n        /* \"#utility.yul\":16681:16847   */\n      pop\n        /* \"#utility.yul\":16930:16934   */\n      0x40\n        /* \"#utility.yul\":16923:16928   */\n      dup4\n        /* \"#utility.yul\":16919:16935   */\n      add\n        /* \"#utility.yul\":16913:16936   */\n      mload\n        /* \"#utility.yul\":16949:17012   */\n      tag_594\n        /* \"#utility.yul\":17006:17010   */\n      0x40\n        /* \"#utility.yul\":17001:17004   */\n      dup7\n        /* \"#utility.yul\":16997:17011   */\n      add\n        /* \"#utility.yul\":16983:16995   */\n      dup3\n        /* \"#utility.yul\":16949:17012   */\n      tag_386\n      jump\t// in\n    tag_594:\n        /* \"#utility.yul\":16857:17022   */\n      pop\n        /* \"#utility.yul\":17106:17110   */\n      0x60\n        /* \"#utility.yul\":17099:17104   */\n      dup4\n        /* \"#utility.yul\":17095:17111   */\n      add\n        /* \"#utility.yul\":17089:17112   */\n      mload\n        /* \"#utility.yul\":17159:17162   */\n      dup5\n        /* \"#utility.yul\":17153:17157   */\n      dup3\n        /* \"#utility.yul\":17149:17163   */\n      sub\n        /* \"#utility.yul\":17142:17146   */\n      0x60\n        /* \"#utility.yul\":17137:17140   */\n      dup7\n        /* \"#utility.yul\":17133:17147   */\n      add\n        /* \"#utility.yul\":17126:17164   */\n      mstore\n        /* \"#utility.yul\":17185:17258   */\n      tag_595\n        /* \"#utility.yul\":17253:17257   */\n      dup3\n        /* \"#utility.yul\":17239:17251   */\n      dup3\n        /* \"#utility.yul\":17185:17258   */\n      tag_384\n      jump\t// in\n    tag_595:\n        /* \"#utility.yul\":17177:17258   */\n      swap2\n      pop\n        /* \"#utility.yul\":17032:17269   */\n      pop\n        /* \"#utility.yul\":17354:17358   */\n      0x80\n        /* \"#utility.yul\":17347:17352   */\n      dup4\n        /* \"#utility.yul\":17343:17359   */\n      add\n        /* \"#utility.yul\":17337:17360   */\n      mload\n        /* \"#utility.yul\":17407:17410   */\n      dup5\n        /* \"#utility.yul\":17401:17405   */\n      dup3\n        /* \"#utility.yul\":17397:17411   */\n      sub\n        /* \"#utility.yul\":17390:17394   */\n      0x80\n        /* \"#utility.yul\":17385:17388   */\n      dup7\n        /* \"#utility.yul\":17381:17395   */\n      add\n        /* \"#utility.yul\":17374:17412   */\n      mstore\n        /* \"#utility.yul\":17433:17556   */\n      tag_596\n        /* \"#utility.yul\":17551:17555   */\n      dup3\n        /* \"#utility.yul\":17537:17549   */\n      dup3\n        /* \"#utility.yul\":17433:17556   */\n      tag_392\n      jump\t// in\n    tag_596:\n        /* \"#utility.yul\":17425:17556   */\n      swap2\n      pop\n        /* \"#utility.yul\":17279:17567   */\n      pop\n        /* \"#utility.yul\":17584:17588   */\n      dup1\n        /* \"#utility.yul\":17577:17588   */\n      swap2\n      pop\n        /* \"#utility.yul\":16390:17594   */\n      pop\n        /* \"#utility.yul\":16270:17594   */\n      swap3\n      swap2\n      pop\n      pop\n      jump\t// out\n        /* \"#utility.yul\":17600:17965   */\n    tag_56:\n        /* \"#utility.yul\":17739:17743   */\n      0x00\n        /* \"#utility.yul\":17777:17779   */\n      0x20\n        /* \"#utility.yul\":17766:17775   */\n      dup3\n        /* \"#utility.yul\":17762:17780   */\n      add\n        /* \"#utility.yul\":17754:17780   */\n      swap1\n      pop\n        /* \"#utility.yul\":17826:17835   */\n      dup2\n        /* \"#utility.yul\":17820:17824   */\n      dup2\n        /* \"#utility.yul\":17816:17836   */\n      sub\n        /* \"#utility.yul\":17812:17813   */\n      0x00\n        /* \"#utility.yul\":17801:17810   */\n      dup4\n        /* \"#utility.yul\":17797:17814   */\n      add\n        /* \"#utility.yul\":17790:17837   */\n      mstore\n        /* \"#utility.yul\":17854:17958   */\n      tag_598\n        /* \"#utility.yul\":17953:17957   */\n      dup2\n        /* \"#utility.yul\":17944:17950   */\n      dup5\n        /* \"#utility.yul\":17854:17958   */\n      tag_419\n      jump\t// in\n    tag_598:\n        /* \"#utility.yul\":17846:17958   */\n      swap1\n      pop\n        /* \"#utility.yul\":17600:17965   */\n      swap3\n      swap2\n      pop\n      pop\n      jump\t// out\n        /* \"#utility.yul\":17971:19000   */\n    tag_59:\n        /* \"#utility.yul\":18093:18099   */\n      0x00\n        /* \"#utility.yul\":18101:18107   */\n      dup1\n        /* \"#utility.yul\":18109:18115   */\n      0x00\n        /* \"#utility.yul\":18158:18160   */\n      0x60\n        /* \"#utility.yul\":18146:18155   */\n      dup5\n        /* \"#utility.yul\":18137:18144   */\n      dup7\n        /* \"#utility.yul\":18133:18156   */\n      sub\n        /* \"#utility.yul\":18129:18161   */\n      slt\n        /* \"#utility.yul\":18126:18245   */\n      iszero\n      tag_600\n      jumpi\n        /* \"#utility.yul\":18164:18243   */\n      tag_601\n      tag_399\n      jump\t// in\n    tag_601:\n        /* \"#utility.yul\":18126:18245   */\n    tag_600:\n        /* \"#utility.yul\":18312:18313   */\n      0x00\n        /* \"#utility.yul\":18301:18310   */\n      dup5\n        /* \"#utility.yul\":18297:18314   */\n      add\n        /* \"#utility.yul\":18284:18315   */\n      calldataload\n        /* \"#utility.yul\":18342:18360   */\n      0xffffffffffffffff\n        /* \"#utility.yul\":18334:18340   */\n      dup2\n        /* \"#utility.yul\":18331:18361   */\n      gt\n        /* \"#utility.yul\":18328:18445   */\n      iszero\n      tag_602\n      jumpi\n        /* \"#utility.yul\":18364:18443   */\n      tag_603\n      tag_400\n      jump\t// in\n    tag_603:\n        /* \"#utility.yul\":18328:18445   */\n    tag_602:\n        /* \"#utility.yul\":18469:18532   */\n      tag_604\n        /* \"#utility.yul\":18524:18531   */\n      dup7\n        /* \"#utility.yul\":18515:18521   */\n      dup3\n        /* \"#utility.yul\":18504:18513   */\n      dup8\n        /* \"#utility.yul\":18500:18522   */\n      add\n        /* \"#utility.yul\":18469:18532   */\n      tag_412\n      jump\t// in\n    tag_604:\n        /* \"#utility.yul\":18459:18532   */\n      swap4\n      pop\n        /* \"#utility.yul\":18255:18542   */\n      pop\n        /* \"#utility.yul\":18581:18583   */\n      0x20\n        /* \"#utility.yul\":18607:18660   */\n      tag_605\n        /* \"#utility.yul\":18652:18659   */\n      dup7\n        /* \"#utility.yul\":18643:18649   */\n      dup3\n        /* \"#utility.yul\":18632:18641   */\n      dup8\n        /* \"#utility.yul\":18628:18650   */\n      add\n        /* \"#utility.yul\":18607:18660   */\n      tag_402\n      jump\t// in\n    tag_605:\n        /* \"#utility.yul\":18597:18660   */\n      swap3\n      pop\n        /* \"#utility.yul\":18552:18670   */\n      pop\n        /* \"#utility.yul\":18737:18739   */\n      0x40\n        /* \"#utility.yul\":18726:18735   */\n      dup5\n        /* \"#utility.yul\":18722:18740   */\n      add\n        /* \"#utility.yul\":18709:18741   */\n      calldataload\n        /* \"#utility.yul\":18768:18786   */\n      0xffffffffffffffff\n        /* \"#utility.yul\":18760:18766   */\n      dup2\n        /* \"#utility.yul\":18757:18787   */\n      gt\n        /* \"#utility.yul\":18754:18871   */\n      iszero\n      tag_606\n      jumpi\n        /* \"#utility.yul\":18790:18869   */\n      tag_607\n      tag_400\n      jump\t// in\n    tag_607:\n        /* \"#utility.yul\":18754:18871   */\n    tag_606:\n        /* \"#utility.yul\":18895:18983   */\n      tag_608\n        /* \"#utility.yul\":18975:18982   */\n      dup7\n        /* \"#utility.yul\":18966:18972   */\n      dup3\n        /* \"#utility.yul\":18955:18964   */\n      dup8\n        /* \"#utility.yul\":18951:18973   */\n      add\n        /* \"#utility.yul\":18895:18983   */\n      tag_416\n      jump\t// in\n    tag_608:\n        /* \"#utility.yul\":18885:18983   */\n      swap2\n      pop\n        /* \"#utility.yul\":18680:18993   */\n      pop\n        /* \"#utility.yul\":17971:19000   */\n      swap3\n      pop\n      swap3\n      pop\n      swap3\n      jump\t// out\n        /* \"#utility.yul\":19006:19515   */\n    tag_63:\n        /* \"#utility.yul\":19075:19081   */\n      0x00\n        /* \"#utility.yul\":19124:19126   */\n      0x20\n        /* \"#utility.yul\":19112:19121   */\n      dup3\n        /* \"#utility.yul\":19103:19110   */\n      dup5\n        /* \"#utility.yul\":19099:19122   */\n      sub\n        /* \"#utility.yul\":19095:19127   */\n      slt\n        /* \"#utility.yul\":19092:19211   */\n      iszero\n      tag_610\n      jumpi\n        /* \"#utility.yul\":19130:19209   */\n      tag_611\n      tag_399\n      jump\t// in\n    tag_611:\n        /* \"#utility.yul\":19092:19211   */\n    tag_610:\n        /* \"#utility.yul\":19278:19279   */\n      0x00\n        /* \"#utility.yul\":19267:19276   */\n      dup3\n        /* \"#utility.yul\":19263:19280   */\n      add\n        /* \"#utility.yul\":19250:19281   */\n      calldataload\n        /* \"#utility.yul\":19308:19326   */\n      0xffffffffffffffff\n        /* \"#utility.yul\":19300:19306   */\n      dup2\n        /* \"#utility.yul\":19297:19327   */\n      gt\n        /* \"#utility.yul\":19294:19411   */\n      iszero\n      tag_612\n      jumpi\n        /* \"#utility.yul\":19330:19409   */\n      tag_613\n      tag_400\n      jump\t// in\n    tag_613:\n        /* \"#utility.yul\":19294:19411   */\n    tag_612:\n        /* \"#utility.yul\":19435:19498   */\n      tag_614\n        /* \"#utility.yul\":19490:19497   */\n      dup5\n        /* \"#utility.yul\":19481:19487   */\n      dup3\n        /* \"#utility.yul\":19470:19479   */\n      dup6\n        /* \"#utility.yul\":19466:19488   */\n      add\n        /* \"#utility.yul\":19435:19498   */\n      tag_412\n      jump\t// in\n    tag_614:\n        /* \"#utility.yul\":19425:19498   */\n      swap2\n      pop\n        /* \"#utility.yul\":19221:19508   */\n      pop\n        /* \"#utility.yul\":19006:19515   */\n      swap3\n      swap2\n      pop\n      pop\n      jump\t// out\n        /* \"#utility.yul\":19521:19701   */\n    tag_420:\n        /* \"#utility.yul\":19569:19646   */\n      0x4e487b7100000000000000000000000000000000000000000000000000000000\n        /* \"#utility.yul\":19566:19567   */\n      0x00\n        /* \"#utility.yul\":19559:19647   */\n      mstore\n        /* \"#utility.yul\":19666:19670   */\n      0x22\n        /* \"#utility.yul\":19663:19664   */\n      0x04\n        /* \"#utility.yul\":19656:19671   */\n      mstore\n        /* \"#utility.yul\":19690:19694   */\n      0x24\n        /* \"#utility.yul\":19687:19688   */\n      0x00\n        /* \"#utility.yul\":19680:19695   */\n      revert\n        /* \"#utility.yul\":19707:20027   */\n    tag_71:\n        /* \"#utility.yul\":19751:19757   */\n      0x00\n        /* \"#utility.yul\":19788:19789   */\n      0x02\n        /* \"#utility.yul\":19782:19786   */\n      dup3\n        /* \"#utility.yul\":19778:19790   */\n      div\n        /* \"#utility.yul\":19768:19790   */\n      swap1\n      pop\n        /* \"#utility.yul\":19835:19836   */\n      0x01\n        /* \"#utility.yul\":19829:19833   */\n      dup3\n        /* \"#utility.yul\":19825:19837   */\n      and\n        /* \"#utility.yul\":19856:19874   */\n      dup1\n        /* \"#utility.yul\":19846:19927   */\n      tag_617\n      jumpi\n        /* \"#utility.yul\":19912:19916   */\n      0x7f\n        /* \"#utility.yul\":19904:19910   */\n      dup3\n        /* \"#utility.yul\":19900:19917   */\n      and\n        /* \"#utility.yul\":19890:19917   */\n      swap2\n      pop\n        /* \"#utility.yul\":19846:19927   */\n    tag_617:\n        /* \"#utility.yul\":19974:19976   */\n      0x20\n        /* \"#utility.yul\":19966:19972   */\n      dup3\n        /* \"#utility.yul\":19963:19977   */\n      lt\n        /* \"#utility.yul\":19943:19961   */\n      dup2\n        /* \"#utility.yul\":19940:19978   */\n      sub\n        /* \"#utility.yul\":19937:20021   */\n      tag_618\n      jumpi\n        /* \"#utility.yul\":19993:20011   */\n      tag_619\n      tag_420\n      jump\t// in\n    tag_619:\n        /* \"#utility.yul\":19937:20021   */\n    tag_618:\n        /* \"#utility.yul\":19758:20027   */\n      pop\n        /* \"#utility.yul\":19707:20027   */\n      swap2\n      swap1\n      pop\n      jump\t// out\n        /* \"#utility.yul\":20033:20213   */\n    tag_104:\n        /* \"#utility.yul\":20081:20158   */\n      0x4e487b7100000000000000000000000000000000000000000000000000000000\n        /* \"#utility.yul\":20078:20079   */\n      0x00\n        /* \"#utility.yul\":20071:20159   */\n      mstore\n        /* \"#utility.yul\":20178:20182   */\n      0x32\n        /* \"#utility.yul\":20175:20176   */\n      0x04\n        /* \"#utility.yul\":20168:20183   */\n      mstore\n        /* \"#utility.yul\":20202:20206   */\n      0x24\n        /* \"#utility.yul\":20199:20200   */\n      0x00\n        /* \"#utility.yul\":20192:20207   */\n      revert\n        /* \"#utility.yul\":20219:20399   */\n    tag_421:\n        /* \"#utility.yul\":20267:20344   */\n      0x4e487b7100000000000000000000000000000000000000000000000000000000\n        /* \"#utility.yul\":20264:20265   */\n      0x00\n        /* \"#utility.yul\":20257:20345   */\n      mstore\n        /* \"#utility.yul\":20364:20368   */\n      0x11\n        /* \"#utility.yul\":20361:20362   */\n      0x04\n        /* \"#utility.yul\":20354:20369   */\n      mstore\n        /* \"#utility.yul\":20388:20392   */\n      0x24\n        /* \"#utility.yul\":20385:20386   */\n      0x00\n        /* \"#utility.yul\":20378:20393   */\n      revert\n        /* \"#utility.yul\":20405:20638   */\n    tag_117:\n        /* \"#utility.yul\":20444:20447   */\n      0x00\n        /* \"#utility.yul\":20467:20491   */\n      tag_623\n        /* \"#utility.yul\":20485:20490   */\n      dup3\n        /* \"#utility.yul\":20467:20491   */\n      tag_385\n      jump\t// in\n    tag_623:\n        /* \"#utility.yul\":20458:20491   */\n      swap2\n      pop\n        /* \"#utility.yul\":20513:20579   */\n      0xffffffffffffffffffffffffffffffffffffffffffffffffffffffffffffffff\n        /* \"#utility.yul\":20506:20511   */\n      dup3\n        /* \"#utility.yul\":20503:20580   */\n      sub\n        /* \"#utility.yul\":20500:20603   */\n      tag_624\n      jumpi\n        /* \"#utility.yul\":20583:20601   */\n      tag_625\n      tag_421\n      jump\t// in\n    tag_625:\n        /* \"#utility.yul\":20500:20603   */\n    tag_624:\n        /* \"#utility.yul\":20630:20631   */\n      0x01\n        /* \"#utility.yul\":20623:20628   */\n      dup3\n        /* \"#utility.yul\":20619:20632   */\n      add\n        /* \"#utility.yul\":20612:20632   */\n      swap1\n      pop\n        /* \"#utility.yul\":20405:20638   */\n      swap2\n      swap1\n      pop\n      jump\t// out\n        /* \"#utility.yul\":20644:20835   */\n    tag_135:\n        /* \"#utility.yul\":20684:20687   */\n      0x00\n        /* \"#utility.yul\":20703:20723   */\n      tag_627\n        /* \"#utility.yul\":20721:20722   */\n      dup3\n        /* \"#utility.yul\":20703:20723   */\n      tag_385\n      jump\t// in\n    tag_627:\n        /* \"#utility.yul\":20698:20723   */\n      swap2\n      pop\n        /* \"#utility.yul\":20737:20757   */\n      tag_628\n        /* \"#utility.yul\":20755:20756   */\n      dup4\n        /* \"#utility.yul\":20737:20757   */\n      tag_385\n      jump\t// in\n    tag_628:\n        /* \"#utility.yul\":20732:20757   */\n      swap3\n      pop\n        /* \"#utility.yul\":20780:20781   */\n      dup3\n        /* \"#utility.yul\":20777:20778   */\n      dup3\n        /* \"#utility.yul\":20773:20782   */\n      add\n        /* \"#utility.yul\":20766:20782   */\n      swap1\n      pop\n        /* \"#utility.yul\":20801:20804   */\n      dup1\n        /* \"#utility.yul\":20798:20799   */\n      dup3\n        /* \"#utility.yul\":20795:20805   */\n      gt\n        /* \"#utility.yul\":20792:20828   */\n      iszero\n      tag_629\n      jumpi\n        /* \"#utility.yul\":20808:20826   */\n      tag_630\n      tag_421\n      jump\t// in\n    tag_630:\n        /* \"#utility.yul\":20792:20828   */\n    tag_629:\n        /* \"#utility.yul\":20644:20835   */\n      swap3\n      swap2\n      pop\n      pop\n      jump\t// out\n        /* \"#utility.yul\":20841:21021   */\n    tag_422:\n        /* \"#utility.yul\":20889:20966   */\n      0x4e487b7100000000000000000000000000000000000000000000000000000000\n        /* \"#utility.yul\":20886:20887   */\n      0x00\n        /* \"#utility.yul\":20879:20967   */\n      mstore\n        /* \"#utility.yul\":20986:20990   */\n      0x12\n        /* \"#utility.yul\":20983:20984   */\n      0x04\n        /* \"#utility.yul\":20976:20991   */\n      mstore\n        /* \"#utility.yul\":21010:21014   */\n      0x24\n        /* \"#utility.yul\":21007:21008   */\n      0x00\n        /* \"#utility.yul\":21000:21015   */\n      revert\n        /* \"#utility.yul\":21027:21212   */\n    tag_138:\n        /* \"#utility.yul\":21067:21068   */\n      0x00\n        /* \"#utility.yul\":21084:21104   */\n      tag_633\n        /* \"#utility.yul\":21102:21103   */\n      dup3\n        /* \"#utility.yul\":21084:21104   */\n      tag_385\n      jump\t// in\n    tag_633:\n        /* \"#utility.yul\":21079:21104   */\n      swap2\n      pop\n        /* \"#utility.yul\":21118:21138   */\n      tag_634\n        /* \"#utility.yul\":21136:21137   */\n      dup4\n        /* \"#utility.yul\":21118:21138   */\n      tag_385\n      jump\t// in\n    tag_634:\n        /* \"#utility.yul\":21113:21138   */\n      swap3\n      pop\n        /* \"#utility.yul\":21157:21158   */\n      dup3\n        /* \"#utility.yul\":21147:21182   */\n      tag_635\n      jumpi\n        /* \"#utility.yul\":21162:21180   */\n      tag_636\n      tag_422\n      jump\t// in\n    tag_636:\n        /* \"#utility.yul\":21147:21182   */\n    tag_635:\n        /* \"#utility.yul\":21204:21205   */\n      dup3\n        /* \"#utility.yul\":21201:21202   */\n      dup3\n        /* \"#utility.yul\":21197:21206   */\n      div\n        /* \"#utility.yul\":21192:21206   */\n      swap1\n      pop\n        /* \"#utility.yul\":21027:21212   */\n      swap3\n      swap2\n      pop\n      pop\n      jump\t// out\n        /* \"#utility.yul\":21218:21365   */\n    tag_423:\n        /* \"#utility.yul\":21319:21330   */\n      0x00\n        /* \"#utility.yul\":21356:21359   */\n      dup2\n        /* \"#utility.yul\":21341:21359   */\n      swap1\n      pop\n        /* \"#utility.yul\":21218:21365   */\n      swap3\n      swap2\n      pop\n      pop\n      jump\t// out\n        /* \"#utility.yul\":21371:21515   */\n    tag_424:\n        /* \"#utility.yul\":21423:21427   */\n      0x00\n        /* \"#utility.yul\":21446:21449   */\n      dup2\n        /* \"#utility.yul\":21438:21449   */\n      swap1\n      pop\n        /* \"#utility.yul\":21469:21472   */\n      dup2\n        /* \"#utility.yul\":21466:21467   */\n      0x00\n        /* \"#utility.yul\":21459:21473   */\n      mstore\n        /* \"#utility.yul\":21503:21507   */\n      0x20\n        /* \"#utility.yul\":21500:21501   */\n      0x00\n        /* \"#utility.yul\":21490:21508   */\n      keccak256\n        /* \"#utility.yul\":21482:21508   */\n      swap1\n      pop\n        /* \"#utility.yul\":21371:21515   */\n      swap2\n      swap1\n      pop\n      jump\t// out\n        /* \"#utility.yul\":21543:22421   */\n    tag_425:\n        /* \"#utility.yul\":21648:21651   */\n      0x00\n        /* \"#utility.yul\":21685:21690   */\n      dup2\n        /* \"#utility.yul\":21679:21691   */\n      sload\n        /* \"#utility.yul\":21714:21750   */\n      tag_640\n        /* \"#utility.yul\":21740:21749   */\n      dup2\n        /* \"#utility.yul\":21714:21750   */\n      tag_71\n      jump\t// in\n    tag_640:\n        /* \"#utility.yul\":21766:21854   */\n      tag_641\n        /* \"#utility.yul\":21847:21853   */\n      dup2\n        /* \"#utility.yul\":21842:21845   */\n      dup7\n        /* \"#utility.yul\":21766:21854   */\n      tag_423\n      jump\t// in\n    tag_641:\n        /* \"#utility.yul\":21759:21854   */\n      swap5\n      pop\n        /* \"#utility.yul\":21885:21886   */\n      0x01\n        /* \"#utility.yul\":21874:21883   */\n      dup3\n        /* \"#utility.yul\":21870:21887   */\n      and\n        /* \"#utility.yul\":21901:21902   */\n      0x00\n        /* \"#utility.yul\":21896:22062   */\n      dup2\n      eq\n      tag_643\n      jumpi\n        /* \"#utility.yul\":22076:22077   */\n      0x01\n        /* \"#utility.yul\":22071:22415   */\n      dup2\n      eq\n      tag_644\n      jumpi\n        /* \"#utility.yul\":21863:22415   */\n      jump(tag_642)\n        /* \"#utility.yul\":21896:22062   */\n    tag_643:\n        /* \"#utility.yul\":21980:21984   */\n      0xff\n        /* \"#utility.yul\":21976:21985   */\n      not\n        /* \"#utility.yul\":21965:21974   */\n      dup4\n        /* \"#utility.yul\":21961:21986   */\n      and\n        /* \"#utility.yul\":21956:21959   */\n      dup7\n        /* \"#utility.yul\":21949:21987   */\n      mstore\n        /* \"#utility.yul\":22042:22048   */\n      dup2\n        /* \"#utility.yul\":22035:22049   */\n      iszero\n        /* \"#utility.yul\":22028:22050   */\n      iszero\n        /* \"#utility.yul\":22020:22026   */\n      dup3\n        /* \"#utility.yul\":22016:22051   */\n      mul\n        /* \"#utility.yul\":22011:22014   */\n      dup7\n        /* \"#utility.yul\":22007:22052   */\n      add\n        /* \"#utility.yul\":22000:22052   */\n      swap4\n      pop\n        /* \"#utility.yul\":21896:22062   */\n      jump(tag_642)\n        /* \"#utility.yul\":22071:22415   */\n    tag_644:\n        /* \"#utility.yul\":22138:22179   */\n      tag_645\n        /* \"#utility.yul\":22173:22178   */\n      dup6\n        /* \"#utility.yul\":22138:22179   */\n      tag_424\n      jump\t// in\n    tag_645:\n        /* \"#utility.yul\":22201:22202   */\n      0x00\n        /* \"#utility.yul\":22215:22369   */\n    tag_646:\n        /* \"#utility.yul\":22229:22235   */\n      dup4\n        /* \"#utility.yul\":22226:22227   */\n      dup2\n        /* \"#utility.yul\":22223:22236   */\n      lt\n        /* \"#utility.yul\":22215:22369   */\n      iszero\n      tag_648\n      jumpi\n        /* \"#utility.yul\":22303:22310   */\n      dup2\n        /* \"#utility.yul\":22297:22311   */\n      sload\n        /* \"#utility.yul\":22293:22294   */\n      dup2\n        /* \"#utility.yul\":22288:22291   */\n      dup10\n        /* \"#utility.yul\":22284:22295   */\n      add\n        /* \"#utility.yul\":22277:22312   */\n      mstore\n        /* \"#utility.yul\":22353:22354   */\n      0x01\n        /* \"#utility.yul\":22344:22351   */\n      dup3\n        /* \"#utility.yul\":22340:22355   */\n      add\n        /* \"#utility.yul\":22329:22355   */\n      swap2\n      pop\n        /* \"#utility.yul\":22251:22255   */\n      0x20\n        /* \"#utility.yul\":22248:22249   */\n      dup2\n        /* \"#utility.yul\":22244:22256   */\n      add\n        /* \"#utility.yul\":22239:22256   */\n      swap1\n      pop\n        /* \"#utility.yul\":22215:22369   */\n      jump(tag_646)\n    tag_648:\n        /* \"#utility.yul\":22398:22404   */\n      dup4\n        /* \"#utility.yul\":22393:22396   */\n      dup9\n        /* \"#utility.yul\":22389:22405   */\n      add\n        /* \"#utility.yul\":22382:22405   */\n      swap6\n      pop\n        /* \"#utility.yul\":22078:22415   */\n      pop\n      pop\n        /* \"#utility.yul\":21863:22415   */\n    tag_642:\n      pop\n        /* \"#utility.yul\":21652:22421   */\n      pop\n      pop\n        /* \"#utility.yul\":21543:22421   */\n      swap3\n      swap2\n      pop\n      pop\n      jump\t// out\n        /* \"#utility.yul\":22427:22700   */\n    tag_168:\n        /* \"#utility.yul\":22558:22561   */\n      0x00\n        /* \"#utility.yul\":22580:22674   */\n      tag_650\n        /* \"#utility.yul\":22670:22673   */\n      dup3\n        /* \"#utility.yul\":22661:22667   */\n      dup5\n        /* \"#utility.yul\":22580:22674   */\n      tag_425\n      jump\t// in\n    tag_650:\n        /* \"#utility.yul\":22573:22674   */\n      swap2\n      pop\n        /* \"#utility.yul\":22691:22694   */\n      dup2\n        /* \"#utility.yul\":22684:22694   */\n      swap1\n      pop\n        /* \"#utility.yul\":22427:22700   */\n      swap3\n      swap2\n      pop\n      pop\n      jump\t// out\n        /* \"#utility.yul\":22706:22900   */\n    tag_193:\n        /* \"#utility.yul\":22746:22750   */\n      0x00\n        /* \"#utility.yul\":22766:22786   */\n      tag_652\n        /* \"#utility.yul\":22784:22785   */\n      dup3\n        /* \"#utility.yul\":22766:22786   */\n      tag_385\n      jump\t// in\n    tag_652:\n        /* \"#utility.yul\":22761:22786   */\n      swap2\n      pop\n        /* \"#utility.yul\":22800:22820   */\n      tag_653\n        /* \"#utility.yul\":22818:22819   */\n      dup4\n        /* \"#utility.yul\":22800:22820   */\n      tag_385\n      jump\t// in\n    tag_653:\n        /* \"#utility.yul\":22795:22820   */\n      swap3\n      pop\n        /* \"#utility.yul\":22844:22845   */\n      dup3\n        /* \"#utility.yul\":22841:22842   */\n      dup3\n        /* \"#utility.yul\":22837:22846   */\n      sub\n        /* \"#utility.yul\":22829:22846   */\n      swap1\n      pop\n        /* \"#utility.yul\":22868:22869   */\n      dup2\n        /* \"#utility.yul\":22862:22866   */\n      dup2\n        /* \"#utility.yul\":22859:22870   */\n      gt\n        /* \"#utility.yul\":22856:22893   */\n      iszero\n      tag_654\n      jumpi\n        /* \"#utility.yul\":22873:22891   */\n      tag_655\n      tag_421\n      jump\t// in\n    tag_655:\n        /* \"#utility.yul\":22856:22893   */\n    tag_654:\n        /* \"#utility.yul\":22706:22900   */\n      swap3\n      swap2\n      pop\n      pop\n      jump\t// out\n        /* \"#utility.yul\":22906:23054   */\n    tag_426:\n        /* \"#utility.yul\":23008:23019   */\n      0x00\n        /* \"#utility.yul\":23045:23048   */\n      dup2\n        /* \"#utility.yul\":23030:23048   */\n      swap1\n      pop\n        /* \"#utility.yul\":22906:23054   */\n      swap3\n      swap2\n      pop\n      pop\n      jump\t// out\n        /* \"#utility.yul\":23060:23450   */\n    tag_427:\n        /* \"#utility.yul\":23166:23169   */\n      0x00\n        /* \"#utility.yul\":23194:23233   */\n      tag_658\n        /* \"#utility.yul\":23227:23232   */\n      dup3\n        /* \"#utility.yul\":23194:23233   */\n      tag_380\n      jump\t// in\n    tag_658:\n        /* \"#utility.yul\":23249:23338   */\n      tag_659\n        /* \"#utility.yul\":23331:23337   */\n      dup2\n        /* \"#utility.yul\":23326:23329   */\n      dup6\n        /* \"#utility.yul\":23249:23338   */\n      tag_426\n      jump\t// in\n    tag_659:\n        /* \"#utility.yul\":23242:23338   */\n      swap4\n      pop\n        /* \"#utility.yul\":23347:23412   */\n      tag_660\n        /* \"#utility.yul\":23405:23411   */\n      dup2\n        /* \"#utility.yul\":23400:23403   */\n      dup6\n        /* \"#utility.yul\":23393:23397   */\n      0x20\n        /* \"#utility.yul\":23386:23391   */\n      dup7\n        /* \"#utility.yul\":23382:23398   */\n      add\n        /* \"#utility.yul\":23347:23412   */\n      tag_382\n      jump\t// in\n    tag_660:\n        /* \"#utility.yul\":23437:23443   */\n      dup1\n        /* \"#utility.yul\":23432:23435   */\n      dup5\n        /* \"#utility.yul\":23428:23444   */\n      add\n        /* \"#utility.yul\":23421:23444   */\n      swap2\n      pop\n        /* \"#utility.yul\":23170:23450   */\n      pop\n        /* \"#utility.yul\":23060:23450   */\n      swap3\n      swap2\n      pop\n      pop\n      jump\t// out\n        /* \"#utility.yul\":23456:23731   */\n    tag_221:\n        /* \"#utility.yul\":23588:23591   */\n      0x00\n        /* \"#utility.yul\":23610:23705   */\n      tag_662\n        /* \"#utility.yul\":23701:23704   */\n      dup3\n        /* \"#utility.yul\":23692:23698   */\n      dup5\n        /* \"#utility.yul\":23610:23705   */\n      tag_427\n      jump\t// in\n    tag_662:\n        /* \"#utility.yul\":23603:23705   */\n      swap2\n      pop\n        /* \"#utility.yul\":23722:23725   */\n      dup2\n        /* \"#utility.yul\":23715:23725   */\n      swap1\n      pop\n        /* \"#utility.yul\":23456:23731   */\n      swap3\n      swap2\n      pop\n      pop\n      jump\t// out\n        /* \"#utility.yul\":23737:23878   */\n    tag_428:\n        /* \"#utility.yul\":23786:23790   */\n      0x00\n        /* \"#utility.yul\":23809:23812   */\n      dup2\n        /* \"#utility.yul\":23801:23812   */\n      swap1\n      pop\n        /* \"#utility.yul\":23832:23835   */\n      dup2\n        /* \"#utility.yul\":23829:23830   */\n      0x00\n        /* \"#utility.yul\":23822:23836   */\n      mstore\n        /* \"#utility.yul\":23866:23870   */\n      0x20\n        /* \"#utility.yul\":23863:23864   */\n      0x00\n        /* \"#utility.yul\":23853:23871   */\n      keccak256\n        /* \"#utility.yul\":23845:23871   */\n      swap1\n      pop\n        /* \"#utility.yul\":23737:23878   */\n      swap2\n      swap1\n      pop\n      jump\t// out\n        /* \"#utility.yul\":23884:23977   */\n    tag_429:\n        /* \"#utility.yul\":23921:23927   */\n      0x00\n        /* \"#utility.yul\":23968:23970   */\n      0x20\n        /* \"#utility.yul\":23963:23965   */\n      0x1f\n        /* \"#utility.yul\":23956:23961   */\n      dup4\n        /* \"#utility.yul\":23952:23966   */\n      add\n        /* \"#utility.yul\":23948:23971   */\n      div\n        /* \"#utility.yul\":23938:23971   */\n      swap1\n      pop\n        /* \"#utility.yul\":23884:23977   */\n      swap2\n      swap1\n      pop\n      jump\t// out\n        /* \"#utility.yul\":23983:24090   */\n    tag_430:\n        /* \"#utility.yul\":24027:24035   */\n      0x00\n        /* \"#utility.yul\":24077:24082   */\n      dup3\n        /* \"#utility.yul\":24071:24075   */\n      dup3\n        /* \"#utility.yul\":24067:24083   */\n      shl\n        /* \"#utility.yul\":24046:24083   */\n      swap1\n      pop\n        /* \"#utility.yul\":23983:24090   */\n      swap3\n      swap2\n      pop\n      pop\n      jump\t// out\n        /* \"#utility.yul\":24096:24489   */\n    tag_431:\n        /* \"#utility.yul\":24165:24171   */\n      0x00\n        /* \"#utility.yul\":24215:24216   */\n      0x08\n        /* \"#utility.yul\":24203:24213   */\n      dup4\n        /* \"#utility.yul\":24199:24217   */\n      mul\n        /* \"#utility.yul\":24238:24335   */\n      tag_667\n        /* \"#utility.yul\":24268:24334   */\n      0xffffffffffffffffffffffffffffffffffffffffffffffffffffffffffffffff\n        /* \"#utility.yul\":24257:24266   */\n      dup3\n        /* \"#utility.yul\":24238:24335   */\n      tag_430\n      jump\t// in\n    tag_667:\n        /* \"#utility.yul\":24356:24395   */\n      tag_668\n        /* \"#utility.yul\":24386:24394   */\n      dup7\n        /* \"#utility.yul\":24375:24384   */\n      dup4\n        /* \"#utility.yul\":24356:24395   */\n      tag_430\n      jump\t// in\n    tag_668:\n        /* \"#utility.yul\":24344:24395   */\n      swap6\n      pop\n        /* \"#utility.yul\":24428:24432   */\n      dup1\n        /* \"#utility.yul\":24424:24433   */\n      not\n        /* \"#utility.yul\":24417:24422   */\n      dup5\n        /* \"#utility.yul\":24413:24434   */\n      and\n        /* \"#utility.yul\":24404:24434   */\n      swap4\n      pop\n        /* \"#utility.yul\":24477:24481   */\n      dup1\n        /* \"#utility.yul\":24467:24475   */\n      dup7\n        /* \"#utility.yul\":24463:24482   */\n      and\n        /* \"#utility.yul\":24456:24461   */\n      dup5\n        /* \"#utility.yul\":24453:24483   */\n      or\n        /* \"#utility.yul\":24443:24483   */\n      swap3\n      pop\n        /* \"#utility.yul\":24172:24489   */\n      pop\n      pop\n        /* \"#utility.yul\":24096:24489   */\n      swap4\n      swap3\n      pop\n      pop\n      pop\n      jump\t// out\n        /* \"#utility.yul\":24495:24555   */\n    tag_432:\n        /* \"#utility.yul\":24523:24526   */\n      0x00\n        /* \"#utility.yul\":24544:24549   */\n      dup2\n        /* \"#utility.yul\":24537:24549   */\n      swap1\n      pop\n        /* \"#utility.yul\":24495:24555   */\n      swap2\n      swap1\n      pop\n      jump\t// out\n        /* \"#utility.yul\":24561:24703   */\n    tag_433:\n        /* \"#utility.yul\":24611:24620   */\n      0x00\n        /* \"#utility.yul\":24644:24697   */\n      tag_671\n        /* \"#utility.yul\":24662:24696   */\n      tag_672\n        /* \"#utility.yul\":24671:24695   */\n      tag_673\n        /* \"#utility.yul\":24689:24694   */\n      dup5\n        /* \"#utility.yul\":24671:24695   */\n      tag_385\n      jump\t// in\n    tag_673:\n        /* \"#utility.yul\":24662:24696   */\n      tag_432\n      jump\t// in\n    tag_672:\n        /* \"#utility.yul\":24644:24697   */\n      tag_385\n      jump\t// in\n    tag_671:\n        /* \"#utility.yul\":24631:24697   */\n      swap1\n      pop\n        /* \"#utility.yul\":24561:24703   */\n      swap2\n      swap1\n      pop\n      jump\t// out\n        /* \"#utility.yul\":24709:24784   */\n    tag_434:\n        /* \"#utility.yul\":24752:24755   */\n      0x00\n        /* \"#utility.yul\":24773:24778   */\n      dup2\n        /* \"#utility.yul\":24766:24778   */\n      swap1\n      pop\n        /* \"#utility.yul\":24709:24784   */\n      swap2\n      swap1\n      pop\n      jump\t// out\n        /* \"#utility.yul\":24790:25059   */\n    tag_435:\n        /* \"#utility.yul\":24900:24939   */\n      tag_676\n        /* \"#utility.yul\":24931:24938   */\n      dup4\n        /* \"#utility.yul\":24900:24939   */\n      tag_433\n      jump\t// in\n    tag_676:\n        /* \"#utility.yul\":24961:25052   */\n      tag_677\n        /* \"#utility.yul\":25010:25051   */\n      tag_678\n        /* \"#utility.yul\":25034:25050   */\n      dup3\n        /* \"#utility.yul\":25010:25051   */\n      tag_434\n      jump\t// in\n    tag_678:\n        /* \"#utility.yul\":25002:25008   */\n      dup5\n        /* \"#utility.yul\":24995:24999   */\n      dup5\n        /* \"#utility.yul\":24989:25000   */\n      sload\n        /* \"#utility.yul\":24961:25052   */\n      tag_431\n      jump\t// in\n    tag_677:\n        /* \"#utility.yul\":24955:24959   */\n      dup3\n        /* \"#utility.yul\":24948:25053   */\n      sstore\n        /* \"#utility.yul\":24866:25059   */\n      pop\n        /* \"#utility.yul\":24790:25059   */\n      pop\n      pop\n      pop\n      jump\t// out\n        /* \"#utility.yul\":25065:25138   */\n    tag_436:\n        /* \"#utility.yul\":25110:25113   */\n      0x00\n        /* \"#utility.yul\":25065:25138   */\n      swap1\n      jump\t// out\n        /* \"#utility.yul\":25144:25333   */\n    tag_437:\n        /* \"#utility.yul\":25221:25253   */\n      tag_681\n      tag_436\n      jump\t// in\n    tag_681:\n        /* \"#utility.yul\":25262:25327   */\n      tag_682\n        /* \"#utility.yul\":25320:25326   */\n      dup2\n        /* \"#utility.yul\":25312:25318   */\n      dup5\n        /* \"#utility.yul\":25306:25310   */\n      dup5\n        /* \"#utility.yul\":25262:25327   */\n      tag_435\n      jump\t// in\n    tag_682:\n        /* \"#utility.yul\":25197:25333   */\n      pop\n        /* \"#utility.yul\":25144:25333   */\n      pop\n      pop\n      jump\t// out\n        /* \"#utility.yul\":25339:25525   */\n    tag_438:\n        /* \"#utility.yul\":25399:25519   */\n    tag_684:\n        /* \"#utility.yul\":25416:25419   */\n      dup2\n        /* \"#utility.yul\":25409:25414   */\n      dup2\n        /* \"#utility.yul\":25406:25420   */\n      lt\n        /* \"#utility.yul\":25399:25519   */\n      iszero\n      tag_686\n      jumpi\n        /* \"#utility.yul\":25470:25509   */\n      tag_687\n        /* \"#utility.yul\":25507:25508   */\n      0x00\n        /* \"#utility.yul\":25500:25505   */\n      dup3\n        /* \"#utility.yul\":25470:25509   */\n      tag_437\n      jump\t// in\n    tag_687:\n        /* \"#utility.yul\":25443:25444   */\n      0x01\n        /* \"#utility.yul\":25436:25441   */\n      dup2\n        /* \"#utility.yul\":25432:25445   */\n      add\n        /* \"#utility.yul\":25423:25445   */\n      swap1\n      pop\n        /* \"#utility.yul\":25399:25519   */\n      jump(tag_684)\n    tag_686:\n        /* \"#utility.yul\":25339:25525   */\n      pop\n      pop\n      jump\t// out\n        /* \"#utility.yul\":25531:26074   */\n    tag_439:\n        /* \"#utility.yul\":25632:25634   */\n      0x1f\n        /* \"#utility.yul\":25627:25630   */\n      dup3\n        /* \"#utility.yul\":25624:25635   */\n      gt\n        /* \"#utility.yul\":25621:26067   */\n      iszero\n      tag_689\n      jumpi\n        /* \"#utility.yul\":25666:25704   */\n      tag_690\n        /* \"#utility.yul\":25698:25703   */\n      dup2\n        /* \"#utility.yul\":25666:25704   */\n      tag_428\n      jump\t// in\n    tag_690:\n        /* \"#utility.yul\":25750:25779   */\n      tag_691\n        /* \"#utility.yul\":25768:25778   */\n      dup5\n        /* \"#utility.yul\":25750:25779   */\n      tag_429\n      jump\t// in\n    tag_691:\n        /* \"#utility.yul\":25740:25748   */\n      dup2\n        /* \"#utility.yul\":25736:25780   */\n      add\n        /* \"#utility.yul\":25933:25935   */\n      0x20\n        /* \"#utility.yul\":25921:25931   */\n      dup6\n        /* \"#utility.yul\":25918:25936   */\n      lt\n        /* \"#utility.yul\":25915:25964   */\n      iszero\n      tag_692\n      jumpi\n        /* \"#utility.yul\":25954:25962   */\n      dup2\n        /* \"#utility.yul\":25939:25962   */\n      swap1\n      pop\n        /* \"#utility.yul\":25915:25964   */\n    tag_692:\n        /* \"#utility.yul\":25977:26057   */\n      tag_693\n        /* \"#utility.yul\":26033:26055   */\n      tag_694\n        /* \"#utility.yul\":26051:26054   */\n      dup6\n        /* \"#utility.yul\":26033:26055   */\n      tag_429\n      jump\t// in\n    tag_694:\n        /* \"#utility.yul\":26023:26031   */\n      dup4\n        /* \"#utility.yul\":26019:26056   */\n      add\n        /* \"#utility.yul\":26006:26017   */\n      dup3\n        /* \"#utility.yul\":25977:26057   */\n      tag_438\n      jump\t// in\n    tag_693:\n        /* \"#utility.yul\":25636:26067   */\n      pop\n      pop\n        /* \"#utility.yul\":25621:26067   */\n    tag_689:\n        /* \"#utility.yul\":25531:26074   */\n      pop\n      pop\n      pop\n      jump\t// out\n        /* \"#utility.yul\":26080:26197   */\n    tag_440:\n        /* \"#utility.yul\":26134:26142   */\n      0x00\n        /* \"#utility.yul\":26184:26189   */\n      dup3\n        /* \"#utility.yul\":26178:26182   */\n      dup3\n        /* \"#utility.yul\":26174:26190   */\n      shr\n        /* \"#utility.yul\":26153:26190   */\n      swap1\n      pop\n        /* \"#utility.yul\":26080:26197   */\n      swap3\n      swap2\n      pop\n      pop\n      jump\t// out\n        /* \"#utility.yul\":26203:26372   */\n    tag_441:\n        /* \"#utility.yul\":26247:26253   */\n      0x00\n        /* \"#utility.yul\":26280:26331   */\n      tag_697\n        /* \"#utility.yul\":26328:26329   */\n      0x00\n        /* \"#utility.yul\":26324:26330   */\n      not\n        /* \"#utility.yul\":26316:26321   */\n      dup5\n        /* \"#utility.yul\":26313:26314   */\n      0x08\n        /* \"#utility.yul\":26309:26322   */\n      mul\n        /* \"#utility.yul\":26280:26331   */\n      tag_440\n      jump\t// in\n    tag_697:\n        /* \"#utility.yul\":26276:26332   */\n      not\n        /* \"#utility.yul\":26361:26365   */\n      dup1\n        /* \"#utility.yul\":26355:26359   */\n      dup4\n        /* \"#utility.yul\":26351:26366   */\n      and\n        /* \"#utility.yul\":26341:26366   */\n      swap2\n      pop\n        /* \"#utility.yul\":26254:26372   */\n      pop\n        /* \"#utility.yul\":26203:26372   */\n      swap3\n      swap2\n      pop\n      pop\n      jump\t// out\n        /* \"#utility.yul\":26377:26672   */\n    tag_442:\n        /* \"#utility.yul\":26453:26457   */\n      0x00\n        /* \"#utility.yul\":26599:26628   */\n      tag_699\n        /* \"#utility.yul\":26624:26627   */\n      dup4\n        /* \"#utility.yul\":26618:26622   */\n      dup4\n        /* \"#utility.yul\":26599:26628   */\n      tag_441\n      jump\t// in\n    tag_699:\n        /* \"#utility.yul\":26591:26628   */\n      swap2\n      pop\n        /* \"#utility.yul\":26661:26664   */\n      dup3\n        /* \"#utility.yul\":26658:26659   */\n      0x02\n        /* \"#utility.yul\":26654:26665   */\n      mul\n        /* \"#utility.yul\":26648:26652   */\n      dup3\n        /* \"#utility.yul\":26645:26666   */\n      or\n        /* \"#utility.yul\":26637:26666   */\n      swap1\n      pop\n        /* \"#utility.yul\":26377:26672   */\n      swap3\n      swap2\n      pop\n      pop\n      jump\t// out\n        /* \"#utility.yul\":26677:28072   */\n    tag_223:\n        /* \"#utility.yul\":26794:26831   */\n      tag_701\n        /* \"#utility.yul\":26827:26830   */\n      dup3\n        /* \"#utility.yul\":26794:26831   */\n      tag_380\n      jump\t// in\n    tag_701:\n        /* \"#utility.yul\":26896:26914   */\n      0xffffffffffffffff\n        /* \"#utility.yul\":26888:26894   */\n      dup2\n        /* \"#utility.yul\":26885:26915   */\n      gt\n        /* \"#utility.yul\":26882:26938   */\n      iszero\n      tag_702\n      jumpi\n        /* \"#utility.yul\":26918:26936   */\n      tag_703\n      tag_91\n      jump\t// in\n    tag_703:\n        /* \"#utility.yul\":26882:26938   */\n    tag_702:\n        /* \"#utility.yul\":26962:27000   */\n      tag_704\n        /* \"#utility.yul\":26994:26998   */\n      dup3\n        /* \"#utility.yul\":26988:26999   */\n      sload\n        /* \"#utility.yul\":26962:27000   */\n      tag_71\n      jump\t// in\n    tag_704:\n        /* \"#utility.yul\":27047:27114   */\n      tag_705\n        /* \"#utility.yul\":27107:27113   */\n      dup3\n        /* \"#utility.yul\":27099:27105   */\n      dup3\n        /* \"#utility.yul\":27093:27097   */\n      dup6\n        /* \"#utility.yul\":27047:27114   */\n      tag_439\n      jump\t// in\n    tag_705:\n        /* \"#utility.yul\":27141:27142   */\n      0x00\n        /* \"#utility.yul\":27165:27169   */\n      0x20\n        /* \"#utility.yul\":27152:27169   */\n      swap1\n      pop\n        /* \"#utility.yul\":27197:27199   */\n      0x1f\n        /* \"#utility.yul\":27189:27195   */\n      dup4\n        /* \"#utility.yul\":27186:27200   */\n      gt\n        /* \"#utility.yul\":27214:27215   */\n      0x01\n        /* \"#utility.yul\":27209:27827   */\n      dup2\n      eq\n      tag_707\n      jumpi\n        /* \"#utility.yul\":27871:27872   */\n      0x00\n        /* \"#utility.yul\":27888:27894   */\n      dup5\n        /* \"#utility.yul\":27885:27962   */\n      iszero\n      tag_708\n      jumpi\n        /* \"#utility.yul\":27937:27946   */\n      dup3\n        /* \"#utility.yul\":27932:27935   */\n      dup8\n        /* \"#utility.yul\":27928:27947   */\n      add\n        /* \"#utility.yul\":27922:27948   */\n      mload\n        /* \"#utility.yul\":27913:27948   */\n      swap1\n      pop\n        /* \"#utility.yul\":27885:27962   */\n    tag_708:\n        /* \"#utility.yul\":27988:28055   */\n      tag_709\n        /* \"#utility.yul\":28048:28054   */\n      dup6\n        /* \"#utility.yul\":28041:28046   */\n      dup3\n        /* \"#utility.yul\":27988:28055   */\n      tag_442\n      jump\t// in\n    tag_709:\n        /* \"#utility.yul\":27982:27986   */\n      dup7\n        /* \"#utility.yul\":27975:28056   */\n      sstore\n        /* \"#utility.yul\":27844:28066   */\n      pop\n        /* \"#utility.yul\":27179:28066   */\n      jump(tag_706)\n        /* \"#utility.yul\":27209:27827   */\n    tag_707:\n        /* \"#utility.yul\":27261:27265   */\n      0x1f\n        /* \"#utility.yul\":27257:27266   */\n      not\n        /* \"#utility.yul\":27249:27255   */\n      dup5\n        /* \"#utility.yul\":27245:27267   */\n      and\n        /* \"#utility.yul\":27295:27332   */\n      tag_710\n        /* \"#utility.yul\":27327:27331   */\n      dup7\n        /* \"#utility.yul\":27295:27332   */\n      tag_428\n      jump\t// in\n    tag_710:\n        /* \"#utility.yul\":27354:27355   */\n      0x00\n        /* \"#utility.yul\":27368:27576   */\n    tag_711:\n        /* \"#utility.yul\":27382:27389   */\n      dup3\n        /* \"#utility.yul\":27379:27380   */\n      dup2\n        /* \"#utility.yul\":27376:27390   */\n      lt\n        /* \"#utility.yul\":27368:27576   */\n      iszero\n      tag_713\n      jumpi\n        /* \"#utility.yul\":27461:27470   */\n      dup5\n        /* \"#utility.yul\":27456:27459   */\n      dup10\n        /* \"#utility.yul\":27452:27471   */\n      add\n        /* \"#utility.yul\":27446:27472   */\n      mload\n        /* \"#utility.yul\":27438:27444   */\n      dup3\n        /* \"#utility.yul\":27431:27473   */\n      sstore\n        /* \"#utility.yul\":27512:27513   */\n      0x01\n        /* \"#utility.yul\":27504:27510   */\n      dup3\n        /* \"#utility.yul\":27500:27514   */\n      add\n        /* \"#utility.yul\":27490:27514   */\n      swap2\n      pop\n        /* \"#utility.yul\":27559:27561   */\n      0x20\n        /* \"#utility.yul\":27548:27557   */\n      dup6\n        /* \"#utility.yul\":27544:27562   */\n      add\n        /* \"#utility.yul\":27531:27562   */\n      swap5\n      pop\n        /* \"#utility.yul\":27405:27409   */\n      0x20\n        /* \"#utility.yul\":27402:27403   */\n      dup2\n        /* \"#utility.yul\":27398:27410   */\n      add\n        /* \"#utility.yul\":27393:27410   */\n      swap1\n      pop\n        /* \"#utility.yul\":27368:27576   */\n      jump(tag_711)\n    tag_713:\n        /* \"#utility.yul\":27604:27610   */\n      dup7\n        /* \"#utility.yul\":27595:27602   */\n      dup4\n        /* \"#utility.yul\":27592:27611   */\n      lt\n        /* \"#utility.yul\":27589:27768   */\n      iszero\n      tag_714\n      jumpi\n        /* \"#utility.yul\":27662:27671   */\n      dup5\n        /* \"#utility.yul\":27657:27660   */\n      dup10\n        /* \"#utility.yul\":27653:27672   */\n      add\n        /* \"#utility.yul\":27647:27673   */\n      mload\n        /* \"#utility.yul\":27705:27753   */\n      tag_715\n        /* \"#utility.yul\":27747:27751   */\n      0x1f\n        /* \"#utility.yul\":27739:27745   */\n      dup10\n        /* \"#utility.yul\":27735:27752   */\n      and\n        /* \"#utility.yul\":27724:27733   */\n      dup3\n        /* \"#utility.yul\":27705:27753   */\n      tag_441\n      jump\t// in\n    tag_715:\n        /* \"#utility.yul\":27697:27703   */\n      dup4\n        /* \"#utility.yul\":27690:27754   */\n      sstore\n        /* \"#utility.yul\":27612:27768   */\n      pop\n        /* \"#utility.yul\":27589:27768   */\n    tag_714:\n        /* \"#utility.yul\":27814:27815   */\n      0x01\n        /* \"#utility.yul\":27810:27811   */\n      0x02\n        /* \"#utility.yul\":27802:27808   */\n      dup9\n        /* \"#utility.yul\":27798:27812   */\n      mul\n        /* \"#utility.yul\":27794:27816   */\n      add\n        /* \"#utility.yul\":27788:27792   */\n      dup9\n        /* \"#utility.yul\":27781:27817   */\n      sstore\n        /* \"#utility.yul\":27216:27827   */\n      pop\n      pop\n      pop\n        /* \"#utility.yul\":27179:28066   */\n    tag_706:\n      pop\n        /* \"#utility.yul\":26769:28072   */\n      pop\n      pop\n      pop\n        /* \"#utility.yul\":26677:28072   */\n      pop\n      pop\n      jump\t// out\n\n    auxdata: 0xa2646970667358221220872a6cce9f142d87333259a532caa7be6f4ff81e92ab2436d441e169911e7b9c64736f6c63430008120033\n}\n",
				"bytecode": {
					"linkReferences": {},
					"object": "608060405234801561001057600080fd5b50612b9d806100206000396000f3fe608060405234801561001057600080fd5b50600436106100b45760003560e01c806395bf75fd1161007157806395bf75fd1461017f578063a0111b8b1461019d578063b439548d146101bc578063bd44be9b146101da578063d11703061461020a578063d2a0e73c14610226576100b4565b80631cfd4566146100b957806321055acb146100d757806323abd657146100f5578063674271cd146101155780637274e99214610145578063764892d714610161575b600080fd5b6100c1610256565b6040516100ce9190611fe1565b60405180910390f35b6100df610678565b6040516100ec9190612012565b60405180910390f35b6100fd6106e9565b60405161010c9392919061202d565b60405180910390f35b61012f600480360381019061012a91906120ab565b610d38565b60405161013c9190612122565b60405180910390f35b61015f600480360381019061015a919061235f565b610e8c565b005b610169610f38565b6040516101769190612012565b60405180910390f35b610187610f44565b6040516101949190612449565b60405180910390f35b6101a5610f67565b6040516101b3929190612464565b60405180910390f35b6101c4611394565b6040516101d19190611fe1565b60405180910390f35b6101f460048036038101906101ef91906120ab565b611604565b6040516102019190612518565b60405180910390f35b610224600480360381019061021f919061253a565b61185d565b005b610240600480360381019061023b91906125c5565b6119de565b60405161024d9190612518565b60405180910390f35b6060600080805480602002602001604051908101604052809291908181526020016000905b828210156104be57838290600052602060002090600502016040518060a00160405290816000820180546102ae9061263d565b80601f01602080910402602001604051908101604052809291908181526020018280546102da9061263d565b80156103275780601f106102fc57610100808354040283529160200191610327565b820191906000526020600020905b81548152906001019060200180831161030a57829003601f168201915b5050505050815260200160018201548152602001600282015481526020016003820180546103549061263d565b80601f01602080910402602001604051908101604052809291908181526020018280546103809061263d565b80156103cd5780601f106103a2576101008083540402835291602001916103cd565b820191906000526020600020905b8154815290600101906020018083116103b057829003601f168201915b5050505050815260200160048201805480602002602001604051908101604052809291908181526020016000905b828210156104a757838290600052602060002001805461041a9061263d565b80601f01602080910402602001604051908101604052809291908181526020018280546104469061263d565b80156104935780601f1061046857610100808354040283529160200191610493565b820191906000526020600020905b81548152906001019060200180831161047657829003601f168201915b5050505050815260200190600101906103fb565b50505050815250508152602001906001019061027b565b5050505090506000600467ffffffffffffffff8111156104e1576104e061214e565b5b60405190808252806020026020018201604052801561051a57816020015b610507611c27565b8152602001906001900390816104ff5790505b5090506000600190505b82518110156106165760005b818110156106025783828151811061054b5761054a61266e565b5b60200260200101516040015184828151811061056a5761056961266e565b5b60200260200101516040015110156105ef5783828151811061058f5761058e61266e565b5b60200260200101518482815181106105aa576105a961266e565b5b60200260200101518583815181106105c5576105c461266e565b5b602002602001018685815181106105df576105de61266e565b5b6020026020010182905282905250505b80806105fa906126cc565b915050610530565b50808061060e906126cc565b915050610524565b5060005b600481101561066f578281815181106106365761063561266e565b5b60200260200101518282815181106106515761065061266e565b5b60200260200101819052508080610667906126cc565b91505061061a565b50809250505090565b60008060005b6000805490508110156106d1576000818154811061069f5761069e61266e565b5b906000526020600020906005020160020154826106bc9190612714565b915080806106c9906126cc565b91505061067e565b50600080549050816106e39190612777565b91505090565b6000806060600080805480602002602001604051908101604052809291908181526020016000905b8282101561095457838290600052602060002090600502016040518060a00160405290816000820180546107449061263d565b80601f01602080910402602001604051908101604052809291908181526020018280546107709061263d565b80156107bd5780601f10610792576101008083540402835291602001916107bd565b820191906000526020600020905b8154815290600101906020018083116107a057829003601f168201915b5050505050815260200160018201548152602001600282015481526020016003820180546107ea9061263d565b80601f01602080910402602001604051908101604052809291908181526020018280546108169061263d565b80156108635780601f1061083857610100808354040283529160200191610863565b820191906000526020600020905b81548152906001019060200180831161084657829003601f168201915b5050505050815260200160048201805480602002602001604051908101604052809291908181526020016000905b8282101561093d5783829060005260206000200180546108b09061263d565b80601f01602080910402602001604051908101604052809291908181526020018280546108dc9061263d565b80156109295780601f106108fe57610100808354040283529160200191610929565b820191906000526020600020905b81548152906001019060200180831161090c57829003601f168201915b505050505081526020019060010190610891565b505050508152505081526020019060010190610711565b5050505090506060600080600090505b600080549050811015610d25576040518060400160405280600181526020017f460000000000000000000000000000000000000000000000000000000000000081525080519060200120600082815481106109c2576109c161266e565b5b90600052602060002090600502016003016040516109e0919061284b565b604051809103902003610d125781806109f8906126cc565b92505060008181548110610a0f57610a0e61266e565b5b90600052602060002090600502016040518060a0016040529081600082018054610a389061263d565b80601f0160208091040260200160405190810160405280929190818152602001828054610a649061263d565b8015610ab15780601f10610a8657610100808354040283529160200191610ab1565b820191906000526020600020905b815481529060010190602001808311610a9457829003601f168201915b505050505081526020016001820154815260200160028201548152602001600382018054610ade9061263d565b80601f0160208091040260200160405190810160405280929190818152602001828054610b0a9061263d565b8015610b575780601f10610b2c57610100808354040283529160200191610b57565b820191906000526020600020905b815481529060010190602001808311610b3a57829003601f168201915b5050505050815260200160048201805480602002602001604051908101604052809291908181526020016000905b82821015610c31578382906000526020600020018054610ba49061263d565b80601f0160208091040260200160405190810160405280929190818152602001828054610bd09061263d565b8015610c1d5780601f10610bf257610100808354040283529160200191610c1d565b820191906000526020600020905b815481529060010190602001808311610c0057829003601f168201915b505050505081526020019060010190610b85565b505050508152505084600184610c479190612862565b81518110610c5857610c5761266e565b5b60200260200101819052508167ffffffffffffffff811115610c7d57610c7c61214e565b5b604051908082528060200260200182016040528015610cb657816020015b610ca3611c27565b815260200190600190039081610c9b5790505b50925060005b82811015610d1057848181518110610cd757610cd661266e565b5b6020026020010151848281518110610cf257610cf161266e565b5b60200260200101819052508080610d08906126cc565b915050610cbc565b505b8080610d1d906126cc565b915050610964565b5081518183955095509550505050909192565b6060605a8210610d7f576040518060400160405280600181526020017f41000000000000000000000000000000000000000000000000000000000000008152509050610e87565b60508210610dc4576040518060400160405280600181526020017f42000000000000000000000000000000000000000000000000000000000000008152509050610e87565b60468210610e09576040518060400160405280600181526020017f43000000000000000000000000000000000000000000000000000000000000008152509050610e87565b603c8210610e4e576040518060400160405280600181526020017f44000000000000000000000000000000000000000000000000000000000000008152509050610e87565b6040518060400160405280600181526020017f460000000000000000000000000000000000000000000000000000000000000081525090505b919050565b6040518060a0016040528086815260200185815260200184815260200183815260200182815250600186604051610ec391906128d2565b90815260200160405180910390206000820151816000019081610ee69190612a95565b5060208201518160010155604082015181600201556060820151816003019081610f109190612a95565b506080820151816004019080519060200190610f2d929190611c56565b509050505050505050565b60008080549050905090565b60006046610f50610678565b1115610f5f5760019050610f64565b600090505b90565b60006060600080600090505b60008054905081101561101e576040518060400160405280600181526020017f46000000000000000000000000000000000000000000000000000000000000008152508051906020012060008281548110610fd157610fd061266e565b5b9060005260206000209060050201600301604051610fef919061284b565b60405180910390200361100b578180611007906126cc565b9250505b8080611016906126cc565b915050610f73565b5060008167ffffffffffffffff81111561103b5761103a61214e565b5b60405190808252806020026020018201604052801561107457816020015b611061611c27565b8152602001906001900390816110595790505b509050600080600090505b600080549050811015611386576040518060400160405280600181526020017f460000000000000000000000000000000000000000000000000000000000000081525080519060200120600082815481106110dd576110dc61266e565b5b90600052602060002090600502016003016040516110fb919061284b565b604051809103902003611373576000818154811061111c5761111b61266e565b5b90600052602060002090600502016040518060a00160405290816000820180546111459061263d565b80601f01602080910402602001604051908101604052809291908181526020018280546111719061263d565b80156111be5780601f10611193576101008083540402835291602001916111be565b820191906000526020600020905b8154815290600101906020018083116111a157829003601f168201915b5050505050815260200160018201548152602001600282015481526020016003820180546111eb9061263d565b80601f01602080910402602001604051908101604052809291908181526020018280546112179061263d565b80156112645780601f1061123957610100808354040283529160200191611264565b820191906000526020600020905b81548152906001019060200180831161124757829003601f168201915b5050505050815260200160048201805480602002602001604051908101604052809291908181526020016000905b8282101561133e5783829060005260206000200180546112b19061263d565b80601f01602080910402602001604051908101604052809291908181526020018280546112dd9061263d565b801561132a5780601f106112ff5761010080835404028352916020019161132a565b820191906000526020600020905b81548152906001019060200180831161130d57829003601f168201915b505050505081526020019060010190611292565b50505050815250508383815181106113595761135861266e565b5b6020026020010181905250818061136f906126cc565b9250505b808061137e906126cc565b91505061107f565b508282945094505050509091565b60606000805480602002602001604051908101604052809291908181526020016000905b828210156115fb57838290600052602060002090600502016040518060a00160405290816000820180546113eb9061263d565b80601f01602080910402602001604051908101604052809291908181526020018280546114179061263d565b80156114645780601f1061143957610100808354040283529160200191611464565b820191906000526020600020905b81548152906001019060200180831161144757829003601f168201915b5050505050815260200160018201548152602001600282015481526020016003820180546114919061263d565b80601f01602080910402602001604051908101604052809291908181526020018280546114bd9061263d565b801561150a5780601f106114df5761010080835404028352916020019161150a565b820191906000526020600020905b8154815290600101906020018083116114ed57829003601f168201915b5050505050815260200160048201805480602002602001604051908101604052809291908181526020016000905b828210156115e45783829060005260206000200180546115579061263d565b80601f01602080910402602001604051908101604052809291908181526020018280546115839061263d565b80156115d05780601f106115a5576101008083540402835291602001916115d0565b820191906000526020600020905b8154815290600101906020018083116115b357829003601f168201915b505050505081526020019060010190611538565b5050505081525050815260200190600101906113b8565b50505050905090565b61160c611c27565b600060018361161b9190612862565b8154811061162c5761162b61266e565b5b90600052602060002090600502016040518060a00160405290816000820180546116559061263d565b80601f01602080910402602001604051908101604052809291908181526020018280546116819061263d565b80156116ce5780601f106116a3576101008083540402835291602001916116ce565b820191906000526020600020905b8154815290600101906020018083116116b157829003601f168201915b5050505050815260200160018201548152602001600282015481526020016003820180546116fb9061263d565b80601f01602080910402602001604051908101604052809291908181526020018280546117279061263d565b80156117745780601f1061174957610100808354040283529160200191611774565b820191906000526020600020905b81548152906001019060200180831161175757829003601f168201915b5050505050815260200160048201805480602002602001604051908101604052809291908181526020016000905b8282101561184e5783829060005260206000200180546117c19061263d565b80601f01602080910402602001604051908101604052809291908181526020018280546117ed9061263d565b801561183a5780601f1061180f5761010080835404028352916020019161183a565b820191906000526020600020905b81548152906001019060200180831161181d57829003601f168201915b5050505050815260200190600101906117a2565b50505050815250509050919050565b60006040518060a0016040528085815260200160016000805490506118829190612714565b815260200184815260200161189685610d38565b815260200183815250908060018154018082558091505060019003906000526020600020906005020160009091909190915060008201518160000190816118dd9190612a95565b50602082015181600101556040820151816002015560608201518160030190816119079190612a95565b506080820151816004019080519060200190611924929190611c56565b5050506040518060a00160405280848152602001600080549050815260200183815260200161195284610d38565b81526020018281525060018460405161196b91906128d2565b9081526020016040518091039020600082015181600001908161198e9190612a95565b50602082015181600101556040820151816002015560608201518160030190816119b89190612a95565b5060808201518160040190805190602001906119d5929190611c56565b50905050505050565b6119e6611c27565b6001826040516119f691906128d2565b90815260200160405180910390206040518060a0016040529081600082018054611a1f9061263d565b80601f0160208091040260200160405190810160405280929190818152602001828054611a4b9061263d565b8015611a985780601f10611a6d57610100808354040283529160200191611a98565b820191906000526020600020905b815481529060010190602001808311611a7b57829003601f168201915b505050505081526020016001820154815260200160028201548152602001600382018054611ac59061263d565b80601f0160208091040260200160405190810160405280929190818152602001828054611af19061263d565b8015611b3e5780601f10611b1357610100808354040283529160200191611b3e565b820191906000526020600020905b815481529060010190602001808311611b2157829003601f168201915b5050505050815260200160048201805480602002602001604051908101604052809291908181526020016000905b82821015611c18578382906000526020600020018054611b8b9061263d565b80601f0160208091040260200160405190810160405280929190818152602001828054611bb79061263d565b8015611c045780601f10611bd957610100808354040283529160200191611c04565b820191906000526020600020905b815481529060010190602001808311611be757829003601f168201915b505050505081526020019060010190611b6c565b50505050815250509050919050565b6040518060a0016040528060608152602001600081526020016000815260200160608152602001606081525090565b828054828255906000526020600020908101928215611c9e579160200282015b82811115611c9d578251829081611c8d9190612a95565b5091602001919060010190611c76565b5b509050611cab9190611caf565b5090565b5b80821115611ccf5760008181611cc69190611cd3565b50600101611cb0565b5090565b508054611cdf9061263d565b6000825580601f10611cf15750611d10565b601f016020900490600052602060002090810190611d0f9190611d13565b5b50565b5b80821115611d2c576000816000905550600101611d14565b5090565b600081519050919050565b600082825260208201905092915050565b6000819050602082019050919050565b600081519050919050565b600082825260208201905092915050565b60005b83811015611d96578082015181840152602081019050611d7b565b60008484015250505050565b6000601f19601f8301169050919050565b6000611dbe82611d5c565b611dc88185611d67565b9350611dd8818560208601611d78565b611de181611da2565b840191505092915050565b6000819050919050565b611dff81611dec565b82525050565b600081519050919050565b600082825260208201905092915050565b6000819050602082019050919050565b6000611e3d8383611db3565b905092915050565b6000602082019050919050565b6000611e5d82611e05565b611e678185611e10565b935083602082028501611e7985611e21565b8060005b85811015611eb55784840389528151611e968582611e31565b9450611ea183611e45565b925060208a01995050600181019050611e7d565b50829750879550505050505092915050565b600060a0830160008301518482036000860152611ee48282611db3565b9150506020830151611ef96020860182611df6565b506040830151611f0c6040860182611df6565b5060608301518482036060860152611f248282611db3565b91505060808301518482036080860152611f3e8282611e52565b9150508091505092915050565b6000611f578383611ec7565b905092915050565b6000602082019050919050565b6000611f7782611d30565b611f818185611d3b565b935083602082028501611f9385611d4c565b8060005b85811015611fcf5784840389528151611fb08582611f4b565b9450611fbb83611f5f565b925060208a01995050600181019050611f97565b50829750879550505050505092915050565b60006020820190508181036000830152611ffb8184611f6c565b905092915050565b61200c81611dec565b82525050565b60006020820190506120276000830184612003565b92915050565b60006060820190506120426000830186612003565b61204f6020830185612003565b81810360408301526120618184611f6c565b9050949350505050565b6000604051905090565b600080fd5b600080fd5b61208881611dec565b811461209357600080fd5b50565b6000813590506120a58161207f565b92915050565b6000602082840312156120c1576120c0612075565b5b60006120cf84828501612096565b91505092915050565b600082825260208201905092915050565b60006120f482611d5c565b6120fe81856120d8565b935061210e818560208601611d78565b61211781611da2565b840191505092915050565b6000602082019050818103600083015261213c81846120e9565b905092915050565b600080fd5b600080fd5b7f4e487b7100000000000000000000000000000000000000000000000000000000600052604160045260246000fd5b61218682611da2565b810181811067ffffffffffffffff821117156121a5576121a461214e565b5b80604052505050565b60006121b861206b565b90506121c4828261217d565b919050565b600067ffffffffffffffff8211156121e4576121e361214e565b5b6121ed82611da2565b9050602081019050919050565b82818337600083830152505050565b600061221c612217846121c9565b6121ae565b90508281526020810184848401111561223857612237612149565b5b6122438482856121fa565b509392505050565b600082601f8301126122605761225f612144565b5b8135612270848260208601612209565b91505092915050565b600067ffffffffffffffff8211156122945761229361214e565b5b602082029050602081019050919050565b600080fd5b60006122bd6122b884612279565b6121ae565b905080838252602082019050602084028301858111156122e0576122df6122a5565b5b835b8181101561232757803567ffffffffffffffff81111561230557612304612144565b5b808601612312898261224b565b855260208501945050506020810190506122e2565b5050509392505050565b600082601f83011261234657612345612144565b5b81356123568482602086016122aa565b91505092915050565b600080600080600060a0868803121561237b5761237a612075565b5b600086013567ffffffffffffffff8111156123995761239861207a565b5b6123a58882890161224b565b95505060206123b688828901612096565b94505060406123c788828901612096565b935050606086013567ffffffffffffffff8111156123e8576123e761207a565b5b6123f48882890161224b565b925050608086013567ffffffffffffffff8111156124155761241461207a565b5b61242188828901612331565b9150509295509295909350565b60008115159050919050565b6124438161242e565b82525050565b600060208201905061245e600083018461243a565b92915050565b60006040820190506124796000830185612003565b818103602083015261248b8184611f6c565b90509392505050565b600060a08301600083015184820360008601526124b18282611db3565b91505060208301516124c66020860182611df6565b5060408301516124d96040860182611df6565b50606083015184820360608601526124f18282611db3565b9150506080830151848203608086015261250b8282611e52565b9150508091505092915050565b600060208201905081810360008301526125328184612494565b905092915050565b60008060006060848603121561255357612552612075565b5b600084013567ffffffffffffffff8111156125715761257061207a565b5b61257d8682870161224b565b935050602061258e86828701612096565b925050604084013567ffffffffffffffff8111156125af576125ae61207a565b5b6125bb86828701612331565b9150509250925092565b6000602082840312156125db576125da612075565b5b600082013567ffffffffffffffff8111156125f9576125f861207a565b5b6126058482850161224b565b91505092915050565b7f4e487b7100000000000000000000000000000000000000000000000000000000600052602260045260246000fd5b6000600282049050600182168061265557607f821691505b6020821081036126685761266761260e565b5b50919050565b7f4e487b7100000000000000000000000000000000000000000000000000000000600052603260045260246000fd5b7f4e487b7100000000000000000000000000000000000000000000000000000000600052601160045260246000fd5b60006126d782611dec565b91507fffffffffffffffffffffffffffffffffffffffffffffffffffffffffffffffff82036127095761270861269d565b5b600182019050919050565b600061271f82611dec565b915061272a83611dec565b92508282019050808211156127425761274161269d565b5b92915050565b7f4e487b7100000000000000000000000000000000000000000000000000000000600052601260045260246000fd5b600061278282611dec565b915061278d83611dec565b92508261279d5761279c612748565b5b828204905092915050565b600081905092915050565b60008190508160005260206000209050919050565b600081546127d58161263d565b6127df81866127a8565b945060018216600081146127fa576001811461280f57612842565b60ff1983168652811515820286019350612842565b612818856127b3565b60005b8381101561283a5781548189015260018201915060208101905061281b565b838801955050505b50505092915050565b600061285782846127c8565b915081905092915050565b600061286d82611dec565b915061287883611dec565b92508282039050818111156128905761288f61269d565b5b92915050565b600081905092915050565b60006128ac82611d5c565b6128b68185612896565b93506128c6818560208601611d78565b80840191505092915050565b60006128de82846128a1565b915081905092915050565b60008190508160005260206000209050919050565b60006020601f8301049050919050565b600082821b905092915050565b60006008830261294b7fffffffffffffffffffffffffffffffffffffffffffffffffffffffffffffffff8261290e565b612955868361290e565b95508019841693508086168417925050509392505050565b6000819050919050565b600061299261298d61298884611dec565b61296d565b611dec565b9050919050565b6000819050919050565b6129ac83612977565b6129c06129b882612999565b84845461291b565b825550505050565b600090565b6129d56129c8565b6129e08184846129a3565b505050565b5b81811015612a04576129f96000826129cd565b6001810190506129e6565b5050565b601f821115612a4957612a1a816128e9565b612a23846128fe565b81016020851015612a32578190505b612a46612a3e856128fe565b8301826129e5565b50505b505050565b600082821c905092915050565b6000612a6c60001984600802612a4e565b1980831691505092915050565b6000612a858383612a5b565b9150826002028217905092915050565b612a9e82611d5c565b67ffffffffffffffff811115612ab757612ab661214e565b5b612ac1825461263d565b612acc828285612a08565b600060209050601f831160018114612aff5760008415612aed578287015190505b612af78582612a79565b865550612b5f565b601f198416612b0d866128e9565b60005b82811015612b3557848901518255600182019150602085019450602081019050612b10565b86831015612b525784890151612b4e601f891682612a5b565b8355505b6001600288020188555050505b50505050505056fea2646970667358221220872a6cce9f142d87333259a532caa7be6f4ff81e92ab2436d441e169911e7b9c64736f6c63430008120033",
					"opcodes": "PUSH1 0x80 PUSH1 0x40 MSTORE CALLVALUE DUP1 ISZERO PUSH2 0x10 JUMPI PUSH1 0x0 DUP1 REVERT JUMPDEST POP PUSH2 0x2B9D DUP1 PUSH2 0x20 PUSH1 0x0 CODECOPY PUSH1 0x0 RETURN INVALID PUSH1 0x80 PUSH1 0x40 MSTORE CALLVALUE DUP1 ISZERO PUSH2 0x10 JUMPI PUSH1 0x0 DUP1 REVERT JUMPDEST POP PUSH1 0x4 CALLDATASIZE LT PUSH2 0xB4 JUMPI PUSH1 0x0 CALLDATALOAD PUSH1 0xE0 SHR DUP1 PUSH4 0x95BF75FD GT PUSH2 0x71 JUMPI DUP1 PUSH4 0x95BF75FD EQ PUSH2 0x17F JUMPI DUP1 PUSH4 0xA0111B8B EQ PUSH2 0x19D JUMPI DUP1 PUSH4 0xB439548D EQ PUSH2 0x1BC JUMPI DUP1 PUSH4 0xBD44BE9B EQ PUSH2 0x1DA JUMPI DUP1 PUSH4 0xD1170306 EQ PUSH2 0x20A JUMPI DUP1 PUSH4 0xD2A0E73C EQ PUSH2 0x226 JUMPI PUSH2 0xB4 JUMP JUMPDEST DUP1 PUSH4 0x1CFD4566 EQ PUSH2 0xB9 JUMPI DUP1 PUSH4 0x21055ACB EQ PUSH2 0xD7 JUMPI DUP1 PUSH4 0x23ABD657 EQ PUSH2 0xF5 JUMPI DUP1 PUSH4 0x674271CD EQ PUSH2 0x115 JUMPI DUP1 PUSH4 0x7274E992 EQ PUSH2 0x145 JUMPI DUP1 PUSH4 0x764892D7 EQ PUSH2 0x161 JUMPI JUMPDEST PUSH1 0x0 DUP1 REVERT JUMPDEST PUSH2 0xC1 PUSH2 0x256 JUMP JUMPDEST PUSH1 0x40 MLOAD PUSH2 0xCE SWAP2 SWAP1 PUSH2 0x1FE1 JUMP JUMPDEST PUSH1 0x40 MLOAD DUP1 SWAP2 SUB SWAP1 RETURN JUMPDEST PUSH2 0xDF PUSH2 0x678 JUMP JUMPDEST PUSH1 0x40 MLOAD PUSH2 0xEC SWAP2 SWAP1 PUSH2 0x2012 JUMP JUMPDEST PUSH1 0x40 MLOAD DUP1 SWAP2 SUB SWAP1 RETURN JUMPDEST PUSH2 0xFD PUSH2 0x6E9 JUMP JUMPDEST PUSH1 0x40 MLOAD PUSH2 0x10C SWAP4 SWAP3 SWAP2 SWAP1 PUSH2 0x202D JUMP JUMPDEST PUSH1 0x40 MLOAD DUP1 SWAP2 SUB SWAP1 RETURN JUMPDEST PUSH2 0x12F PUSH1 0x4 DUP1 CALLDATASIZE SUB DUP2 ADD SWAP1 PUSH2 0x12A SWAP2 SWAP1 PUSH2 0x20AB JUMP JUMPDEST PUSH2 0xD38 JUMP JUMPDEST PUSH1 0x40 MLOAD PUSH2 0x13C SWAP2 SWAP1 PUSH2 0x2122 JUMP JUMPDEST PUSH1 0x40 MLOAD DUP1 SWAP2 SUB SWAP1 RETURN JUMPDEST PUSH2 0x15F PUSH1 0x4 DUP1 CALLDATASIZE SUB DUP2 ADD SWAP1 PUSH2 0x15A SWAP2 SWAP1 PUSH2 0x235F JUMP JUMPDEST PUSH2 0xE8C JUMP JUMPDEST STOP JUMPDEST PUSH2 0x169 PUSH2 0xF38 JUMP JUMPDEST PUSH1 0x40 MLOAD PUSH2 0x176 SWAP2 SWAP1 PUSH2 0x2012 JUMP JUMPDEST PUSH1 0x40 MLOAD DUP1 SWAP2 SUB SWAP1 RETURN JUMPDEST PUSH2 0x187 PUSH2 0xF44 JUMP JUMPDEST PUSH1 0x40 MLOAD PUSH2 0x194 SWAP2 SWAP1 PUSH2 0x2449 JUMP JUMPDEST PUSH1 0x40 MLOAD DUP1 SWAP2 SUB SWAP1 RETURN JUMPDEST PUSH2 0x1A5 PUSH2 0xF67 JUMP JUMPDEST PUSH1 0x40 MLOAD PUSH2 0x1B3 SWAP3 SWAP2 SWAP1 PUSH2 0x2464 JUMP JUMPDEST PUSH1 0x40 MLOAD DUP1 SWAP2 SUB SWAP1 RETURN JUMPDEST PUSH2 0x1C4 PUSH2 0x1394 JUMP JUMPDEST PUSH1 0x40 MLOAD PUSH2 0x1D1 SWAP2 SWAP1 PUSH2 0x1FE1 JUMP JUMPDEST PUSH1 0x40 MLOAD DUP1 SWAP2 SUB SWAP1 RETURN JUMPDEST PUSH2 0x1F4 PUSH1 0x4 DUP1 CALLDATASIZE SUB DUP2 ADD SWAP1 PUSH2 0x1EF SWAP2 SWAP1 PUSH2 0x20AB JUMP JUMPDEST PUSH2 0x1604 JUMP JUMPDEST PUSH1 0x40 MLOAD PUSH2 0x201 SWAP2 SWAP1 PUSH2 0x2518 JUMP JUMPDEST PUSH1 0x40 MLOAD DUP1 SWAP2 SUB SWAP1 RETURN JUMPDEST PUSH2 0x224 PUSH1 0x4 DUP1 CALLDATASIZE SUB DUP2 ADD SWAP1 PUSH2 0x21F SWAP2 SWAP1 PUSH2 0x253A JUMP JUMPDEST PUSH2 0x185D JUMP JUMPDEST STOP JUMPDEST PUSH2 0x240 PUSH1 0x4 DUP1 CALLDATASIZE SUB DUP2 ADD SWAP1 PUSH2 0x23B SWAP2 SWAP1 PUSH2 0x25C5 JUMP JUMPDEST PUSH2 0x19DE JUMP JUMPDEST PUSH1 0x40 MLOAD PUSH2 0x24D SWAP2 SWAP1 PUSH2 0x2518 JUMP JUMPDEST PUSH1 0x40 MLOAD DUP1 SWAP2 SUB SWAP1 RETURN JUMPDEST PUSH1 0x60 PUSH1 0x0 DUP1 DUP1 SLOAD DUP1 PUSH1 0x20 MUL PUSH1 0x20 ADD PUSH1 0x40 MLOAD SWAP1 DUP2 ADD PUSH1 0x40 MSTORE DUP1 SWAP3 SWAP2 SWAP1 DUP2 DUP2 MSTORE PUSH1 0x20 ADD PUSH1 0x0 SWAP1 JUMPDEST DUP3 DUP3 LT ISZERO PUSH2 0x4BE JUMPI DUP4 DUP3 SWAP1 PUSH1 0x0 MSTORE PUSH1 0x20 PUSH1 0x0 KECCAK256 SWAP1 PUSH1 0x5 MUL ADD PUSH1 0x40 MLOAD DUP1 PUSH1 0xA0 ADD PUSH1 0x40 MSTORE SWAP1 DUP2 PUSH1 0x0 DUP3 ADD DUP1 SLOAD PUSH2 0x2AE SWAP1 PUSH2 0x263D JUMP JUMPDEST DUP1 PUSH1 0x1F ADD PUSH1 0x20 DUP1 SWAP2 DIV MUL PUSH1 0x20 ADD PUSH1 0x40 MLOAD SWAP1 DUP2 ADD PUSH1 0x40 MSTORE DUP1 SWAP3 SWAP2 SWAP1 DUP2 DUP2 MSTORE PUSH1 0x20 ADD DUP3 DUP1 SLOAD PUSH2 0x2DA SWAP1 PUSH2 0x263D JUMP JUMPDEST DUP1 ISZERO PUSH2 0x327 JUMPI DUP1 PUSH1 0x1F LT PUSH2 0x2FC JUMPI PUSH2 0x100 DUP1 DUP4 SLOAD DIV MUL DUP4 MSTORE SWAP2 PUSH1 0x20 ADD SWAP2 PUSH2 0x327 JUMP JUMPDEST DUP3 ADD SWAP2 SWAP1 PUSH1 0x0 MSTORE PUSH1 0x20 PUSH1 0x0 KECCAK256 SWAP1 JUMPDEST DUP2 SLOAD DUP2 MSTORE SWAP1 PUSH1 0x1 ADD SWAP1 PUSH1 0x20 ADD DUP1 DUP4 GT PUSH2 0x30A JUMPI DUP3 SWAP1 SUB PUSH1 0x1F AND DUP3 ADD SWAP2 JUMPDEST POP POP POP POP POP DUP2 MSTORE PUSH1 0x20 ADD PUSH1 0x1 DUP3 ADD SLOAD DUP2 MSTORE PUSH1 0x20 ADD PUSH1 0x2 DUP3 ADD SLOAD DUP2 MSTORE PUSH1 0x20 ADD PUSH1 0x3 DUP3 ADD DUP1 SLOAD PUSH2 0x354 SWAP1 PUSH2 0x263D JUMP JUMPDEST DUP1 PUSH1 0x1F ADD PUSH1 0x20 DUP1 SWAP2 DIV MUL PUSH1 0x20 ADD PUSH1 0x40 MLOAD SWAP1 DUP2 ADD PUSH1 0x40 MSTORE DUP1 SWAP3 SWAP2 SWAP1 DUP2 DUP2 MSTORE PUSH1 0x20 ADD DUP3 DUP1 SLOAD PUSH2 0x380 SWAP1 PUSH2 0x263D JUMP JUMPDEST DUP1 ISZERO PUSH2 0x3CD JUMPI DUP1 PUSH1 0x1F LT PUSH2 0x3A2 JUMPI PUSH2 0x100 DUP1 DUP4 SLOAD DIV MUL DUP4 MSTORE SWAP2 PUSH1 0x20 ADD SWAP2 PUSH2 0x3CD JUMP JUMPDEST DUP3 ADD SWAP2 SWAP1 PUSH1 0x0 MSTORE PUSH1 0x20 PUSH1 0x0 KECCAK256 SWAP1 JUMPDEST DUP2 SLOAD DUP2 MSTORE SWAP1 PUSH1 0x1 ADD SWAP1 PUSH1 0x20 ADD DUP1 DUP4 GT PUSH2 0x3B0 JUMPI DUP3 SWAP1 SUB PUSH1 0x1F AND DUP3 ADD SWAP2 JUMPDEST POP POP POP POP POP DUP2 MSTORE PUSH1 0x20 ADD PUSH1 0x4 DUP3 ADD DUP1 SLOAD DUP1 PUSH1 0x20 MUL PUSH1 0x20 ADD PUSH1 0x40 MLOAD SWAP1 DUP2 ADD PUSH1 0x40 MSTORE DUP1 SWAP3 SWAP2 SWAP1 DUP2 DUP2 MSTORE PUSH1 0x20 ADD PUSH1 0x0 SWAP1 JUMPDEST DUP3 DUP3 LT ISZERO PUSH2 0x4A7 JUMPI DUP4 DUP3 SWAP1 PUSH1 0x0 MSTORE PUSH1 0x20 PUSH1 0x0 KECCAK256 ADD DUP1 SLOAD PUSH2 0x41A SWAP1 PUSH2 0x263D JUMP JUMPDEST DUP1 PUSH1 0x1F ADD PUSH1 0x20 DUP1 SWAP2 DIV MUL PUSH1 0x20 ADD PUSH1 0x40 MLOAD SWAP1 DUP2 ADD PUSH1 0x40 MSTORE DUP1 SWAP3 SWAP2 SWAP1 DUP2 DUP2 MSTORE PUSH1 0x20 ADD DUP3 DUP1 SLOAD PUSH2 0x446 SWAP1 PUSH2 0x263D JUMP JUMPDEST DUP1 ISZERO PUSH2 0x493 JUMPI DUP1 PUSH1 0x1F LT PUSH2 0x468 JUMPI PUSH2 0x100 DUP1 DUP4 SLOAD DIV MUL DUP4 MSTORE SWAP2 PUSH1 0x20 ADD SWAP2 PUSH2 0x493 JUMP JUMPDEST DUP3 ADD SWAP2 SWAP1 PUSH1 0x0 MSTORE PUSH1 0x20 PUSH1 0x0 KECCAK256 SWAP1 JUMPDEST DUP2 SLOAD DUP2 MSTORE SWAP1 PUSH1 0x1 ADD SWAP1 PUSH1 0x20 ADD DUP1 DUP4 GT PUSH2 0x476 JUMPI DUP3 SWAP1 SUB PUSH1 0x1F AND DUP3 ADD SWAP2 JUMPDEST POP POP POP POP POP DUP2 MSTORE PUSH1 0x20 ADD SWAP1 PUSH1 0x1 ADD SWAP1 PUSH2 0x3FB JUMP JUMPDEST POP POP POP POP DUP2 MSTORE POP POP DUP2 MSTORE PUSH1 0x20 ADD SWAP1 PUSH1 0x1 ADD SWAP1 PUSH2 0x27B JUMP JUMPDEST POP POP POP POP SWAP1 POP PUSH1 0x0 PUSH1 0x4 PUSH8 0xFFFFFFFFFFFFFFFF DUP2 GT ISZERO PUSH2 0x4E1 JUMPI PUSH2 0x4E0 PUSH2 0x214E JUMP JUMPDEST JUMPDEST PUSH1 0x40 MLOAD SWAP1 DUP1 DUP3 MSTORE DUP1 PUSH1 0x20 MUL PUSH1 0x20 ADD DUP3 ADD PUSH1 0x40 MSTORE DUP1 ISZERO PUSH2 0x51A JUMPI DUP2 PUSH1 0x20 ADD JUMPDEST PUSH2 0x507 PUSH2 0x1C27 JUMP JUMPDEST DUP2 MSTORE PUSH1 0x20 ADD SWAP1 PUSH1 0x1 SWAP1 SUB SWAP1 DUP2 PUSH2 0x4FF JUMPI SWAP1 POP JUMPDEST POP SWAP1 POP PUSH1 0x0 PUSH1 0x1 SWAP1 POP JUMPDEST DUP3 MLOAD DUP2 LT ISZERO PUSH2 0x616 JUMPI PUSH1 0x0 JUMPDEST DUP2 DUP2 LT ISZERO PUSH2 0x602 JUMPI DUP4 DUP3 DUP2 MLOAD DUP2 LT PUSH2 0x54B JUMPI PUSH2 0x54A PUSH2 0x266E JUMP JUMPDEST JUMPDEST PUSH1 0x20 MUL PUSH1 0x20 ADD ADD MLOAD PUSH1 0x40 ADD MLOAD DUP5 DUP3 DUP2 MLOAD DUP2 LT PUSH2 0x56A JUMPI PUSH2 0x569 PUSH2 0x266E JUMP JUMPDEST JUMPDEST PUSH1 0x20 MUL PUSH1 0x20 ADD ADD MLOAD PUSH1 0x40 ADD MLOAD LT ISZERO PUSH2 0x5EF JUMPI DUP4 DUP3 DUP2 MLOAD DUP2 LT PUSH2 0x58F JUMPI PUSH2 0x58E PUSH2 0x266E JUMP JUMPDEST JUMPDEST PUSH1 0x20 MUL PUSH1 0x20 ADD ADD MLOAD DUP5 DUP3 DUP2 MLOAD DUP2 LT PUSH2 0x5AA JUMPI PUSH2 0x5A9 PUSH2 0x266E JUMP JUMPDEST JUMPDEST PUSH1 0x20 MUL PUSH1 0x20 ADD ADD MLOAD DUP6 DUP4 DUP2 MLOAD DUP2 LT PUSH2 0x5C5 JUMPI PUSH2 0x5C4 PUSH2 0x266E JUMP JUMPDEST JUMPDEST PUSH1 0x20 MUL PUSH1 0x20 ADD ADD DUP7 DUP6 DUP2 MLOAD DUP2 LT PUSH2 0x5DF JUMPI PUSH2 0x5DE PUSH2 0x266E JUMP JUMPDEST JUMPDEST PUSH1 0x20 MUL PUSH1 0x20 ADD ADD DUP3 SWAP1 MSTORE DUP3 SWAP1 MSTORE POP POP JUMPDEST DUP1 DUP1 PUSH2 0x5FA SWAP1 PUSH2 0x26CC JUMP JUMPDEST SWAP2 POP POP PUSH2 0x530 JUMP JUMPDEST POP DUP1 DUP1 PUSH2 0x60E SWAP1 PUSH2 0x26CC JUMP JUMPDEST SWAP2 POP POP PUSH2 0x524 JUMP JUMPDEST POP PUSH1 0x0 JUMPDEST PUSH1 0x4 DUP2 LT ISZERO PUSH2 0x66F JUMPI DUP3 DUP2 DUP2 MLOAD DUP2 LT PUSH2 0x636 JUMPI PUSH2 0x635 PUSH2 0x266E JUMP JUMPDEST JUMPDEST PUSH1 0x20 MUL PUSH1 0x20 ADD ADD MLOAD DUP3 DUP3 DUP2 MLOAD DUP2 LT PUSH2 0x651 JUMPI PUSH2 0x650 PUSH2 0x266E JUMP JUMPDEST JUMPDEST PUSH1 0x20 MUL PUSH1 0x20 ADD ADD DUP2 SWAP1 MSTORE POP DUP1 DUP1 PUSH2 0x667 SWAP1 PUSH2 0x26CC JUMP JUMPDEST SWAP2 POP POP PUSH2 0x61A JUMP JUMPDEST POP DUP1 SWAP3 POP POP POP SWAP1 JUMP JUMPDEST PUSH1 0x0 DUP1 PUSH1 0x0 JUMPDEST PUSH1 0x0 DUP1 SLOAD SWAP1 POP DUP2 LT ISZERO PUSH2 0x6D1 JUMPI PUSH1 0x0 DUP2 DUP2 SLOAD DUP2 LT PUSH2 0x69F JUMPI PUSH2 0x69E PUSH2 0x266E JUMP JUMPDEST JUMPDEST SWAP1 PUSH1 0x0 MSTORE PUSH1 0x20 PUSH1 0x0 KECCAK256 SWAP1 PUSH1 0x5 MUL ADD PUSH1 0x2 ADD SLOAD DUP3 PUSH2 0x6BC SWAP2 SWAP1 PUSH2 0x2714 JUMP JUMPDEST SWAP2 POP DUP1 DUP1 PUSH2 0x6C9 SWAP1 PUSH2 0x26CC JUMP JUMPDEST SWAP2 POP POP PUSH2 0x67E JUMP JUMPDEST POP PUSH1 0x0 DUP1 SLOAD SWAP1 POP DUP2 PUSH2 0x6E3 SWAP2 SWAP1 PUSH2 0x2777 JUMP JUMPDEST SWAP2 POP POP SWAP1 JUMP JUMPDEST PUSH1 0x0 DUP1 PUSH1 0x60 PUSH1 0x0 DUP1 DUP1 SLOAD DUP1 PUSH1 0x20 MUL PUSH1 0x20 ADD PUSH1 0x40 MLOAD SWAP1 DUP2 ADD PUSH1 0x40 MSTORE DUP1 SWAP3 SWAP2 SWAP1 DUP2 DUP2 MSTORE PUSH1 0x20 ADD PUSH1 0x0 SWAP1 JUMPDEST DUP3 DUP3 LT ISZERO PUSH2 0x954 JUMPI DUP4 DUP3 SWAP1 PUSH1 0x0 MSTORE PUSH1 0x20 PUSH1 0x0 KECCAK256 SWAP1 PUSH1 0x5 MUL ADD PUSH1 0x40 MLOAD DUP1 PUSH1 0xA0 ADD PUSH1 0x40 MSTORE SWAP1 DUP2 PUSH1 0x0 DUP3 ADD DUP1 SLOAD PUSH2 0x744 SWAP1 PUSH2 0x263D JUMP JUMPDEST DUP1 PUSH1 0x1F ADD PUSH1 0x20 DUP1 SWAP2 DIV MUL PUSH1 0x20 ADD PUSH1 0x40 MLOAD SWAP1 DUP2 ADD PUSH1 0x40 MSTORE DUP1 SWAP3 SWAP2 SWAP1 DUP2 DUP2 MSTORE PUSH1 0x20 ADD DUP3 DUP1 SLOAD PUSH2 0x770 SWAP1 PUSH2 0x263D JUMP JUMPDEST DUP1 ISZERO PUSH2 0x7BD JUMPI DUP1 PUSH1 0x1F LT PUSH2 0x792 JUMPI PUSH2 0x100 DUP1 DUP4 SLOAD DIV MUL DUP4 MSTORE SWAP2 PUSH1 0x20 ADD SWAP2 PUSH2 0x7BD JUMP JUMPDEST DUP3 ADD SWAP2 SWAP1 PUSH1 0x0 MSTORE PUSH1 0x20 PUSH1 0x0 KECCAK256 SWAP1 JUMPDEST DUP2 SLOAD DUP2 MSTORE SWAP1 PUSH1 0x1 ADD SWAP1 PUSH1 0x20 ADD DUP1 DUP4 GT PUSH2 0x7A0 JUMPI DUP3 SWAP1 SUB PUSH1 0x1F AND DUP3 ADD SWAP2 JUMPDEST POP POP POP POP POP DUP2 MSTORE PUSH1 0x20 ADD PUSH1 0x1 DUP3 ADD SLOAD DUP2 MSTORE PUSH1 0x20 ADD PUSH1 0x2 DUP3 ADD SLOAD DUP2 MSTORE PUSH1 0x20 ADD PUSH1 0x3 DUP3 ADD DUP1 SLOAD PUSH2 0x7EA SWAP1 PUSH2 0x263D JUMP JUMPDEST DUP1 PUSH1 0x1F ADD PUSH1 0x20 DUP1 SWAP2 DIV MUL PUSH1 0x20 ADD PUSH1 0x40 MLOAD SWAP1 DUP2 ADD PUSH1 0x40 MSTORE DUP1 SWAP3 SWAP2 SWAP1 DUP2 DUP2 MSTORE PUSH1 0x20 ADD DUP3 DUP1 SLOAD PUSH2 0x816 SWAP1 PUSH2 0x263D JUMP JUMPDEST DUP1 ISZERO PUSH2 0x863 JUMPI DUP1 PUSH1 0x1F LT PUSH2 0x838 JUMPI PUSH2 0x100 DUP1 DUP4 SLOAD DIV MUL DUP4 MSTORE SWAP2 PUSH1 0x20 ADD SWAP2 PUSH2 0x863 JUMP JUMPDEST DUP3 ADD SWAP2 SWAP1 PUSH1 0x0 MSTORE PUSH1 0x20 PUSH1 0x0 KECCAK256 SWAP1 JUMPDEST DUP2 SLOAD DUP2 MSTORE SWAP1 PUSH1 0x1 ADD SWAP1 PUSH1 0x20 ADD DUP1 DUP4 GT PUSH2 0x846 JUMPI DUP3 SWAP1 SUB PUSH1 0x1F AND DUP3 ADD SWAP2 JUMPDEST POP POP POP POP POP DUP2 MSTORE PUSH1 0x20 ADD PUSH1 0x4 DUP3 ADD DUP1 SLOAD DUP1 PUSH1 0x20 MUL PUSH1 0x20 ADD PUSH1 0x40 MLOAD SWAP1 DUP2 ADD PUSH1 0x40 MSTORE DUP1 SWAP3 SWAP2 SWAP1 DUP2 DUP2 MSTORE PUSH1 0x20 ADD PUSH1 0x0 SWAP1 JUMPDEST DUP3 DUP3 LT ISZERO PUSH2 0x93D JUMPI DUP4 DUP3 SWAP1 PUSH1 0x0 MSTORE PUSH1 0x20 PUSH1 0x0 KECCAK256 ADD DUP1 SLOAD PUSH2 0x8B0 SWAP1 PUSH2 0x263D JUMP JUMPDEST DUP1 PUSH1 0x1F ADD PUSH1 0x20 DUP1 SWAP2 DIV MUL PUSH1 0x20 ADD PUSH1 0x40 MLOAD SWAP1 DUP2 ADD PUSH1 0x40 MSTORE DUP1 SWAP3 SWAP2 SWAP1 DUP2 DUP2 MSTORE PUSH1 0x20 ADD DUP3 DUP1 SLOAD PUSH2 0x8DC SWAP1 PUSH2 0x263D JUMP JUMPDEST DUP1 ISZERO PUSH2 0x929 JUMPI DUP1 PUSH1 0x1F LT PUSH2 0x8FE JUMPI PUSH2 0x100 DUP1 DUP4 SLOAD DIV MUL DUP4 MSTORE SWAP2 PUSH1 0x20 ADD SWAP2 PUSH2 0x929 JUMP JUMPDEST DUP3 ADD SWAP2 SWAP1 PUSH1 0x0 MSTORE PUSH1 0x20 PUSH1 0x0 KECCAK256 SWAP1 JUMPDEST DUP2 SLOAD DUP2 MSTORE SWAP1 PUSH1 0x1 ADD SWAP1 PUSH1 0x20 ADD DUP1 DUP4 GT PUSH2 0x90C JUMPI DUP3 SWAP1 SUB PUSH1 0x1F AND DUP3 ADD SWAP2 JUMPDEST POP POP POP POP POP DUP2 MSTORE PUSH1 0x20 ADD SWAP1 PUSH1 0x1 ADD SWAP1 PUSH2 0x891 JUMP JUMPDEST POP POP POP POP DUP2 MSTORE POP POP DUP2 MSTORE PUSH1 0x20 ADD SWAP1 PUSH1 0x1 ADD SWAP1 PUSH2 0x711 JUMP JUMPDEST POP POP POP POP SWAP1 POP PUSH1 0x60 PUSH1 0x0 DUP1 PUSH1 0x0 SWAP1 POP JUMPDEST PUSH1 0x0 DUP1 SLOAD SWAP1 POP DUP2 LT ISZERO PUSH2 0xD25 JUMPI PUSH1 0x40 MLOAD DUP1 PUSH1 0x40 ADD PUSH1 0x40 MSTORE DUP1 PUSH1 0x1 DUP2 MSTORE PUSH1 0x20 ADD PUSH32 0x4600000000000000000000000000000000000000000000000000000000000000 DUP2 MSTORE POP DUP1 MLOAD SWAP1 PUSH1 0x20 ADD KECCAK256 PUSH1 0x0 DUP3 DUP2 SLOAD DUP2 LT PUSH2 0x9C2 JUMPI PUSH2 0x9C1 PUSH2 0x266E JUMP JUMPDEST JUMPDEST SWAP1 PUSH1 0x0 MSTORE PUSH1 0x20 PUSH1 0x0 KECCAK256 SWAP1 PUSH1 0x5 MUL ADD PUSH1 0x3 ADD PUSH1 0x40 MLOAD PUSH2 0x9E0 SWAP2 SWAP1 PUSH2 0x284B JUMP JUMPDEST PUSH1 0x40 MLOAD DUP1 SWAP2 SUB SWAP1 KECCAK256 SUB PUSH2 0xD12 JUMPI DUP2 DUP1 PUSH2 0x9F8 SWAP1 PUSH2 0x26CC JUMP JUMPDEST SWAP3 POP POP PUSH1 0x0 DUP2 DUP2 SLOAD DUP2 LT PUSH2 0xA0F JUMPI PUSH2 0xA0E PUSH2 0x266E JUMP JUMPDEST JUMPDEST SWAP1 PUSH1 0x0 MSTORE PUSH1 0x20 PUSH1 0x0 KECCAK256 SWAP1 PUSH1 0x5 MUL ADD PUSH1 0x40 MLOAD DUP1 PUSH1 0xA0 ADD PUSH1 0x40 MSTORE SWAP1 DUP2 PUSH1 0x0 DUP3 ADD DUP1 SLOAD PUSH2 0xA38 SWAP1 PUSH2 0x263D JUMP JUMPDEST DUP1 PUSH1 0x1F ADD PUSH1 0x20 DUP1 SWAP2 DIV MUL PUSH1 0x20 ADD PUSH1 0x40 MLOAD SWAP1 DUP2 ADD PUSH1 0x40 MSTORE DUP1 SWAP3 SWAP2 SWAP1 DUP2 DUP2 MSTORE PUSH1 0x20 ADD DUP3 DUP1 SLOAD PUSH2 0xA64 SWAP1 PUSH2 0x263D JUMP JUMPDEST DUP1 ISZERO PUSH2 0xAB1 JUMPI DUP1 PUSH1 0x1F LT PUSH2 0xA86 JUMPI PUSH2 0x100 DUP1 DUP4 SLOAD DIV MUL DUP4 MSTORE SWAP2 PUSH1 0x20 ADD SWAP2 PUSH2 0xAB1 JUMP JUMPDEST DUP3 ADD SWAP2 SWAP1 PUSH1 0x0 MSTORE PUSH1 0x20 PUSH1 0x0 KECCAK256 SWAP1 JUMPDEST DUP2 SLOAD DUP2 MSTORE SWAP1 PUSH1 0x1 ADD SWAP1 PUSH1 0x20 ADD DUP1 DUP4 GT PUSH2 0xA94 JUMPI DUP3 SWAP1 SUB PUSH1 0x1F AND DUP3 ADD SWAP2 JUMPDEST POP POP POP POP POP DUP2 MSTORE PUSH1 0x20 ADD PUSH1 0x1 DUP3 ADD SLOAD DUP2 MSTORE PUSH1 0x20 ADD PUSH1 0x2 DUP3 ADD SLOAD DUP2 MSTORE PUSH1 0x20 ADD PUSH1 0x3 DUP3 ADD DUP1 SLOAD PUSH2 0xADE SWAP1 PUSH2 0x263D JUMP JUMPDEST DUP1 PUSH1 0x1F ADD PUSH1 0x20 DUP1 SWAP2 DIV MUL PUSH1 0x20 ADD PUSH1 0x40 MLOAD SWAP1 DUP2 ADD PUSH1 0x40 MSTORE DUP1 SWAP3 SWAP2 SWAP1 DUP2 DUP2 MSTORE PUSH1 0x20 ADD DUP3 DUP1 SLOAD PUSH2 0xB0A SWAP1 PUSH2 0x263D JUMP JUMPDEST DUP1 ISZERO PUSH2 0xB57 JUMPI DUP1 PUSH1 0x1F LT PUSH2 0xB2C JUMPI PUSH2 0x100 DUP1 DUP4 SLOAD DIV MUL DUP4 MSTORE SWAP2 PUSH1 0x20 ADD SWAP2 PUSH2 0xB57 JUMP JUMPDEST DUP3 ADD SWAP2 SWAP1 PUSH1 0x0 MSTORE PUSH1 0x20 PUSH1 0x0 KECCAK256 SWAP1 JUMPDEST DUP2 SLOAD DUP2 MSTORE SWAP1 PUSH1 0x1 ADD SWAP1 PUSH1 0x20 ADD DUP1 DUP4 GT PUSH2 0xB3A JUMPI DUP3 SWAP1 SUB PUSH1 0x1F AND DUP3 ADD SWAP2 JUMPDEST POP POP POP POP POP DUP2 MSTORE PUSH1 0x20 ADD PUSH1 0x4 DUP3 ADD DUP1 SLOAD DUP1 PUSH1 0x20 MUL PUSH1 0x20 ADD PUSH1 0x40 MLOAD SWAP1 DUP2 ADD PUSH1 0x40 MSTORE DUP1 SWAP3 SWAP2 SWAP1 DUP2 DUP2 MSTORE PUSH1 0x20 ADD PUSH1 0x0 SWAP1 JUMPDEST DUP3 DUP3 LT ISZERO PUSH2 0xC31 JUMPI DUP4 DUP3 SWAP1 PUSH1 0x0 MSTORE PUSH1 0x20 PUSH1 0x0 KECCAK256 ADD DUP1 SLOAD PUSH2 0xBA4 SWAP1 PUSH2 0x263D JUMP JUMPDEST DUP1 PUSH1 0x1F ADD PUSH1 0x20 DUP1 SWAP2 DIV MUL PUSH1 0x20 ADD PUSH1 0x40 MLOAD SWAP1 DUP2 ADD PUSH1 0x40 MSTORE DUP1 SWAP3 SWAP2 SWAP1 DUP2 DUP2 MSTORE PUSH1 0x20 ADD DUP3 DUP1 SLOAD PUSH2 0xBD0 SWAP1 PUSH2 0x263D JUMP JUMPDEST DUP1 ISZERO PUSH2 0xC1D JUMPI DUP1 PUSH1 0x1F LT PUSH2 0xBF2 JUMPI PUSH2 0x100 DUP1 DUP4 SLOAD DIV MUL DUP4 MSTORE SWAP2 PUSH1 0x20 ADD SWAP2 PUSH2 0xC1D JUMP JUMPDEST DUP3 ADD SWAP2 SWAP1 PUSH1 0x0 MSTORE PUSH1 0x20 PUSH1 0x0 KECCAK256 SWAP1 JUMPDEST DUP2 SLOAD DUP2 MSTORE SWAP1 PUSH1 0x1 ADD SWAP1 PUSH1 0x20 ADD DUP1 DUP4 GT PUSH2 0xC00 JUMPI DUP3 SWAP1 SUB PUSH1 0x1F AND DUP3 ADD SWAP2 JUMPDEST POP POP POP POP POP DUP2 MSTORE PUSH1 0x20 ADD SWAP1 PUSH1 0x1 ADD SWAP1 PUSH2 0xB85 JUMP JUMPDEST POP POP POP POP DUP2 MSTORE POP POP DUP5 PUSH1 0x1 DUP5 PUSH2 0xC47 SWAP2 SWAP1 PUSH2 0x2862 JUMP JUMPDEST DUP2 MLOAD DUP2 LT PUSH2 0xC58 JUMPI PUSH2 0xC57 PUSH2 0x266E JUMP JUMPDEST JUMPDEST PUSH1 0x20 MUL PUSH1 0x20 ADD ADD DUP2 SWAP1 MSTORE POP DUP2 PUSH8 0xFFFFFFFFFFFFFFFF DUP2 GT ISZERO PUSH2 0xC7D JUMPI PUSH2 0xC7C PUSH2 0x214E JUMP JUMPDEST JUMPDEST PUSH1 0x40 MLOAD SWAP1 DUP1 DUP3 MSTORE DUP1 PUSH1 0x20 MUL PUSH1 0x20 ADD DUP3 ADD PUSH1 0x40 MSTORE DUP1 ISZERO PUSH2 0xCB6 JUMPI DUP2 PUSH1 0x20 ADD JUMPDEST PUSH2 0xCA3 PUSH2 0x1C27 JUMP JUMPDEST DUP2 MSTORE PUSH1 0x20 ADD SWAP1 PUSH1 0x1 SWAP1 SUB SWAP1 DUP2 PUSH2 0xC9B JUMPI SWAP1 POP JUMPDEST POP SWAP3 POP PUSH1 0x0 JUMPDEST DUP3 DUP2 LT ISZERO PUSH2 0xD10 JUMPI DUP5 DUP2 DUP2 MLOAD DUP2 LT PUSH2 0xCD7 JUMPI PUSH2 0xCD6 PUSH2 0x266E JUMP JUMPDEST JUMPDEST PUSH1 0x20 MUL PUSH1 0x20 ADD ADD MLOAD DUP5 DUP3 DUP2 MLOAD DUP2 LT PUSH2 0xCF2 JUMPI PUSH2 0xCF1 PUSH2 0x266E JUMP JUMPDEST JUMPDEST PUSH1 0x20 MUL PUSH1 0x20 ADD ADD DUP2 SWAP1 MSTORE POP DUP1 DUP1 PUSH2 0xD08 SWAP1 PUSH2 0x26CC JUMP JUMPDEST SWAP2 POP POP PUSH2 0xCBC JUMP JUMPDEST POP JUMPDEST DUP1 DUP1 PUSH2 0xD1D SWAP1 PUSH2 0x26CC JUMP JUMPDEST SWAP2 POP POP PUSH2 0x964 JUMP JUMPDEST POP DUP2 MLOAD DUP2 DUP4 SWAP6 POP SWAP6 POP SWAP6 POP POP POP POP SWAP1 SWAP2 SWAP3 JUMP JUMPDEST PUSH1 0x60 PUSH1 0x5A DUP3 LT PUSH2 0xD7F JUMPI PUSH1 0x40 MLOAD DUP1 PUSH1 0x40 ADD PUSH1 0x40 MSTORE DUP1 PUSH1 0x1 DUP2 MSTORE PUSH1 0x20 ADD PUSH32 0x4100000000000000000000000000000000000000000000000000000000000000 DUP2 MSTORE POP SWAP1 POP PUSH2 0xE87 JUMP JUMPDEST PUSH1 0x50 DUP3 LT PUSH2 0xDC4 JUMPI PUSH1 0x40 MLOAD DUP1 PUSH1 0x40 ADD PUSH1 0x40 MSTORE DUP1 PUSH1 0x1 DUP2 MSTORE PUSH1 0x20 ADD PUSH32 0x4200000000000000000000000000000000000000000000000000000000000000 DUP2 MSTORE POP SWAP1 POP PUSH2 0xE87 JUMP JUMPDEST PUSH1 0x46 DUP3 LT PUSH2 0xE09 JUMPI PUSH1 0x40 MLOAD DUP1 PUSH1 0x40 ADD PUSH1 0x40 MSTORE DUP1 PUSH1 0x1 DUP2 MSTORE PUSH1 0x20 ADD PUSH32 0x4300000000000000000000000000000000000000000000000000000000000000 DUP2 MSTORE POP SWAP1 POP PUSH2 0xE87 JUMP JUMPDEST PUSH1 0x3C DUP3 LT PUSH2 0xE4E JUMPI PUSH1 0x40 MLOAD DUP1 PUSH1 0x40 ADD PUSH1 0x40 MSTORE DUP1 PUSH1 0x1 DUP2 MSTORE PUSH1 0x20 ADD PUSH32 0x4400000000000000000000000000000000000000000000000000000000000000 DUP2 MSTORE POP SWAP1 POP PUSH2 0xE87 JUMP JUMPDEST PUSH1 0x40 MLOAD DUP1 PUSH1 0x40 ADD PUSH1 0x40 MSTORE DUP1 PUSH1 0x1 DUP2 MSTORE PUSH1 0x20 ADD PUSH32 0x4600000000000000000000000000000000000000000000000000000000000000 DUP2 MSTORE POP SWAP1 POP JUMPDEST SWAP2 SWAP1 POP JUMP JUMPDEST PUSH1 0x40 MLOAD DUP1 PUSH1 0xA0 ADD PUSH1 0x40 MSTORE DUP1 DUP7 DUP2 MSTORE PUSH1 0x20 ADD DUP6 DUP2 MSTORE PUSH1 0x20 ADD DUP5 DUP2 MSTORE PUSH1 0x20 ADD DUP4 DUP2 MSTORE PUSH1 0x20 ADD DUP3 DUP2 MSTORE POP PUSH1 0x1 DUP7 PUSH1 0x40 MLOAD PUSH2 0xEC3 SWAP2 SWAP1 PUSH2 0x28D2 JUMP JUMPDEST SWAP1 DUP2 MSTORE PUSH1 0x20 ADD PUSH1 0x40 MLOAD DUP1 SWAP2 SUB SWAP1 KECCAK256 PUSH1 0x0 DUP3 ADD MLOAD DUP2 PUSH1 0x0 ADD SWAP1 DUP2 PUSH2 0xEE6 SWAP2 SWAP1 PUSH2 0x2A95 JUMP JUMPDEST POP PUSH1 0x20 DUP3 ADD MLOAD DUP2 PUSH1 0x1 ADD SSTORE PUSH1 0x40 DUP3 ADD MLOAD DUP2 PUSH1 0x2 ADD SSTORE PUSH1 0x60 DUP3 ADD MLOAD DUP2 PUSH1 0x3 ADD SWAP1 DUP2 PUSH2 0xF10 SWAP2 SWAP1 PUSH2 0x2A95 JUMP JUMPDEST POP PUSH1 0x80 DUP3 ADD MLOAD DUP2 PUSH1 0x4 ADD SWAP1 DUP1 MLOAD SWAP1 PUSH1 0x20 ADD SWAP1 PUSH2 0xF2D SWAP3 SWAP2 SWAP1 PUSH2 0x1C56 JUMP JUMPDEST POP SWAP1 POP POP POP POP POP POP POP JUMP JUMPDEST PUSH1 0x0 DUP1 DUP1 SLOAD SWAP1 POP SWAP1 POP SWAP1 JUMP JUMPDEST PUSH1 0x0 PUSH1 0x46 PUSH2 0xF50 PUSH2 0x678 JUMP JUMPDEST GT ISZERO PUSH2 0xF5F JUMPI PUSH1 0x1 SWAP1 POP PUSH2 0xF64 JUMP JUMPDEST PUSH1 0x0 SWAP1 POP JUMPDEST SWAP1 JUMP JUMPDEST PUSH1 0x0 PUSH1 0x60 PUSH1 0x0 DUP1 PUSH1 0x0 SWAP1 POP JUMPDEST PUSH1 0x0 DUP1 SLOAD SWAP1 POP DUP2 LT ISZERO PUSH2 0x101E JUMPI PUSH1 0x40 MLOAD DUP1 PUSH1 0x40 ADD PUSH1 0x40 MSTORE DUP1 PUSH1 0x1 DUP2 MSTORE PUSH1 0x20 ADD PUSH32 0x4600000000000000000000000000000000000000000000000000000000000000 DUP2 MSTORE POP DUP1 MLOAD SWAP1 PUSH1 0x20 ADD KECCAK256 PUSH1 0x0 DUP3 DUP2 SLOAD DUP2 LT PUSH2 0xFD1 JUMPI PUSH2 0xFD0 PUSH2 0x266E JUMP JUMPDEST JUMPDEST SWAP1 PUSH1 0x0 MSTORE PUSH1 0x20 PUSH1 0x0 KECCAK256 SWAP1 PUSH1 0x5 MUL ADD PUSH1 0x3 ADD PUSH1 0x40 MLOAD PUSH2 0xFEF SWAP2 SWAP1 PUSH2 0x284B JUMP JUMPDEST PUSH1 0x40 MLOAD DUP1 SWAP2 SUB SWAP1 KECCAK256 SUB PUSH2 0x100B JUMPI DUP2 DUP1 PUSH2 0x1007 SWAP1 PUSH2 0x26CC JUMP JUMPDEST SWAP3 POP POP JUMPDEST DUP1 DUP1 PUSH2 0x1016 SWAP1 PUSH2 0x26CC JUMP JUMPDEST SWAP2 POP POP PUSH2 0xF73 JUMP JUMPDEST POP PUSH1 0x0 DUP2 PUSH8 0xFFFFFFFFFFFFFFFF DUP2 GT ISZERO PUSH2 0x103B JUMPI PUSH2 0x103A PUSH2 0x214E JUMP JUMPDEST JUMPDEST PUSH1 0x40 MLOAD SWAP1 DUP1 DUP3 MSTORE DUP1 PUSH1 0x20 MUL PUSH1 0x20 ADD DUP3 ADD PUSH1 0x40 MSTORE DUP1 ISZERO PUSH2 0x1074 JUMPI DUP2 PUSH1 0x20 ADD JUMPDEST PUSH2 0x1061 PUSH2 0x1C27 JUMP JUMPDEST DUP2 MSTORE PUSH1 0x20 ADD SWAP1 PUSH1 0x1 SWAP1 SUB SWAP1 DUP2 PUSH2 0x1059 JUMPI SWAP1 POP JUMPDEST POP SWAP1 POP PUSH1 0x0 DUP1 PUSH1 0x0 SWAP1 POP JUMPDEST PUSH1 0x0 DUP1 SLOAD SWAP1 POP DUP2 LT ISZERO PUSH2 0x1386 JUMPI PUSH1 0x40 MLOAD DUP1 PUSH1 0x40 ADD PUSH1 0x40 MSTORE DUP1 PUSH1 0x1 DUP2 MSTORE PUSH1 0x20 ADD PUSH32 0x4600000000000000000000000000000000000000000000000000000000000000 DUP2 MSTORE POP DUP1 MLOAD SWAP1 PUSH1 0x20 ADD KECCAK256 PUSH1 0x0 DUP3 DUP2 SLOAD DUP2 LT PUSH2 0x10DD JUMPI PUSH2 0x10DC PUSH2 0x266E JUMP JUMPDEST JUMPDEST SWAP1 PUSH1 0x0 MSTORE PUSH1 0x20 PUSH1 0x0 KECCAK256 SWAP1 PUSH1 0x5 MUL ADD PUSH1 0x3 ADD PUSH1 0x40 MLOAD PUSH2 0x10FB SWAP2 SWAP1 PUSH2 0x284B JUMP JUMPDEST PUSH1 0x40 MLOAD DUP1 SWAP2 SUB SWAP1 KECCAK256 SUB PUSH2 0x1373 JUMPI PUSH1 0x0 DUP2 DUP2 SLOAD DUP2 LT PUSH2 0x111C JUMPI PUSH2 0x111B PUSH2 0x266E JUMP JUMPDEST JUMPDEST SWAP1 PUSH1 0x0 MSTORE PUSH1 0x20 PUSH1 0x0 KECCAK256 SWAP1 PUSH1 0x5 MUL ADD PUSH1 0x40 MLOAD DUP1 PUSH1 0xA0 ADD PUSH1 0x40 MSTORE SWAP1 DUP2 PUSH1 0x0 DUP3 ADD DUP1 SLOAD PUSH2 0x1145 SWAP1 PUSH2 0x263D JUMP JUMPDEST DUP1 PUSH1 0x1F ADD PUSH1 0x20 DUP1 SWAP2 DIV MUL PUSH1 0x20 ADD PUSH1 0x40 MLOAD SWAP1 DUP2 ADD PUSH1 0x40 MSTORE DUP1 SWAP3 SWAP2 SWAP1 DUP2 DUP2 MSTORE PUSH1 0x20 ADD DUP3 DUP1 SLOAD PUSH2 0x1171 SWAP1 PUSH2 0x263D JUMP JUMPDEST DUP1 ISZERO PUSH2 0x11BE JUMPI DUP1 PUSH1 0x1F LT PUSH2 0x1193 JUMPI PUSH2 0x100 DUP1 DUP4 SLOAD DIV MUL DUP4 MSTORE SWAP2 PUSH1 0x20 ADD SWAP2 PUSH2 0x11BE JUMP JUMPDEST DUP3 ADD SWAP2 SWAP1 PUSH1 0x0 MSTORE PUSH1 0x20 PUSH1 0x0 KECCAK256 SWAP1 JUMPDEST DUP2 SLOAD DUP2 MSTORE SWAP1 PUSH1 0x1 ADD SWAP1 PUSH1 0x20 ADD DUP1 DUP4 GT PUSH2 0x11A1 JUMPI DUP3 SWAP1 SUB PUSH1 0x1F AND DUP3 ADD SWAP2 JUMPDEST POP POP POP POP POP DUP2 MSTORE PUSH1 0x20 ADD PUSH1 0x1 DUP3 ADD SLOAD DUP2 MSTORE PUSH1 0x20 ADD PUSH1 0x2 DUP3 ADD SLOAD DUP2 MSTORE PUSH1 0x20 ADD PUSH1 0x3 DUP3 ADD DUP1 SLOAD PUSH2 0x11EB SWAP1 PUSH2 0x263D JUMP JUMPDEST DUP1 PUSH1 0x1F ADD PUSH1 0x20 DUP1 SWAP2 DIV MUL PUSH1 0x20 ADD PUSH1 0x40 MLOAD SWAP1 DUP2 ADD PUSH1 0x40 MSTORE DUP1 SWAP3 SWAP2 SWAP1 DUP2 DUP2 MSTORE PUSH1 0x20 ADD DUP3 DUP1 SLOAD PUSH2 0x1217 SWAP1 PUSH2 0x263D JUMP JUMPDEST DUP1 ISZERO PUSH2 0x1264 JUMPI DUP1 PUSH1 0x1F LT PUSH2 0x1239 JUMPI PUSH2 0x100 DUP1 DUP4 SLOAD DIV MUL DUP4 MSTORE SWAP2 PUSH1 0x20 ADD SWAP2 PUSH2 0x1264 JUMP JUMPDEST DUP3 ADD SWAP2 SWAP1 PUSH1 0x0 MSTORE PUSH1 0x20 PUSH1 0x0 KECCAK256 SWAP1 JUMPDEST DUP2 SLOAD DUP2 MSTORE SWAP1 PUSH1 0x1 ADD SWAP1 PUSH1 0x20 ADD DUP1 DUP4 GT PUSH2 0x1247 JUMPI DUP3 SWAP1 SUB PUSH1 0x1F AND DUP3 ADD SWAP2 JUMPDEST POP POP POP POP POP DUP2 MSTORE PUSH1 0x20 ADD PUSH1 0x4 DUP3 ADD DUP1 SLOAD DUP1 PUSH1 0x20 MUL PUSH1 0x20 ADD PUSH1 0x40 MLOAD SWAP1 DUP2 ADD PUSH1 0x40 MSTORE DUP1 SWAP3 SWAP2 SWAP1 DUP2 DUP2 MSTORE PUSH1 0x20 ADD PUSH1 0x0 SWAP1 JUMPDEST DUP3 DUP3 LT ISZERO PUSH2 0x133E JUMPI DUP4 DUP3 SWAP1 PUSH1 0x0 MSTORE PUSH1 0x20 PUSH1 0x0 KECCAK256 ADD DUP1 SLOAD PUSH2 0x12B1 SWAP1 PUSH2 0x263D JUMP JUMPDEST DUP1 PUSH1 0x1F ADD PUSH1 0x20 DUP1 SWAP2 DIV MUL PUSH1 0x20 ADD PUSH1 0x40 MLOAD SWAP1 DUP2 ADD PUSH1 0x40 MSTORE DUP1 SWAP3 SWAP2 SWAP1 DUP2 DUP2 MSTORE PUSH1 0x20 ADD DUP3 DUP1 SLOAD PUSH2 0x12DD SWAP1 PUSH2 0x263D JUMP JUMPDEST DUP1 ISZERO PUSH2 0x132A JUMPI DUP1 PUSH1 0x1F LT PUSH2 0x12FF JUMPI PUSH2 0x100 DUP1 DUP4 SLOAD DIV MUL DUP4 MSTORE SWAP2 PUSH1 0x20 ADD SWAP2 PUSH2 0x132A JUMP JUMPDEST DUP3 ADD SWAP2 SWAP1 PUSH1 0x0 MSTORE PUSH1 0x20 PUSH1 0x0 KECCAK256 SWAP1 JUMPDEST DUP2 SLOAD DUP2 MSTORE SWAP1 PUSH1 0x1 ADD SWAP1 PUSH1 0x20 ADD DUP1 DUP4 GT PUSH2 0x130D JUMPI DUP3 SWAP1 SUB PUSH1 0x1F AND DUP3 ADD SWAP2 JUMPDEST POP POP POP POP POP DUP2 MSTORE PUSH1 0x20 ADD SWAP1 PUSH1 0x1 ADD SWAP1 PUSH2 0x1292 JUMP JUMPDEST POP POP POP POP DUP2 MSTORE POP POP DUP4 DUP4 DUP2 MLOAD DUP2 LT PUSH2 0x1359 JUMPI PUSH2 0x1358 PUSH2 0x266E JUMP JUMPDEST JUMPDEST PUSH1 0x20 MUL PUSH1 0x20 ADD ADD DUP2 SWAP1 MSTORE POP DUP2 DUP1 PUSH2 0x136F SWAP1 PUSH2 0x26CC JUMP JUMPDEST SWAP3 POP POP JUMPDEST DUP1 DUP1 PUSH2 0x137E SWAP1 PUSH2 0x26CC JUMP JUMPDEST SWAP2 POP POP PUSH2 0x107F JUMP JUMPDEST POP DUP3 DUP3 SWAP5 POP SWAP5 POP POP POP POP SWAP1 SWAP2 JUMP JUMPDEST PUSH1 0x60 PUSH1 0x0 DUP1 SLOAD DUP1 PUSH1 0x20 MUL PUSH1 0x20 ADD PUSH1 0x40 MLOAD SWAP1 DUP2 ADD PUSH1 0x40 MSTORE DUP1 SWAP3 SWAP2 SWAP1 DUP2 DUP2 MSTORE PUSH1 0x20 ADD PUSH1 0x0 SWAP1 JUMPDEST DUP3 DUP3 LT ISZERO PUSH2 0x15FB JUMPI DUP4 DUP3 SWAP1 PUSH1 0x0 MSTORE PUSH1 0x20 PUSH1 0x0 KECCAK256 SWAP1 PUSH1 0x5 MUL ADD PUSH1 0x40 MLOAD DUP1 PUSH1 0xA0 ADD PUSH1 0x40 MSTORE SWAP1 DUP2 PUSH1 0x0 DUP3 ADD DUP1 SLOAD PUSH2 0x13EB SWAP1 PUSH2 0x263D JUMP JUMPDEST DUP1 PUSH1 0x1F ADD PUSH1 0x20 DUP1 SWAP2 DIV MUL PUSH1 0x20 ADD PUSH1 0x40 MLOAD SWAP1 DUP2 ADD PUSH1 0x40 MSTORE DUP1 SWAP3 SWAP2 SWAP1 DUP2 DUP2 MSTORE PUSH1 0x20 ADD DUP3 DUP1 SLOAD PUSH2 0x1417 SWAP1 PUSH2 0x263D JUMP JUMPDEST DUP1 ISZERO PUSH2 0x1464 JUMPI DUP1 PUSH1 0x1F LT PUSH2 0x1439 JUMPI PUSH2 0x100 DUP1 DUP4 SLOAD DIV MUL DUP4 MSTORE SWAP2 PUSH1 0x20 ADD SWAP2 PUSH2 0x1464 JUMP JUMPDEST DUP3 ADD SWAP2 SWAP1 PUSH1 0x0 MSTORE PUSH1 0x20 PUSH1 0x0 KECCAK256 SWAP1 JUMPDEST DUP2 SLOAD DUP2 MSTORE SWAP1 PUSH1 0x1 ADD SWAP1 PUSH1 0x20 ADD DUP1 DUP4 GT PUSH2 0x1447 JUMPI DUP3 SWAP1 SUB PUSH1 0x1F AND DUP3 ADD SWAP2 JUMPDEST POP POP POP POP POP DUP2 MSTORE PUSH1 0x20 ADD PUSH1 0x1 DUP3 ADD SLOAD DUP2 MSTORE PUSH1 0x20 ADD PUSH1 0x2 DUP3 ADD SLOAD DUP2 MSTORE PUSH1 0x20 ADD PUSH1 0x3 DUP3 ADD DUP1 SLOAD PUSH2 0x1491 SWAP1 PUSH2 0x263D JUMP JUMPDEST DUP1 PUSH1 0x1F ADD PUSH1 0x20 DUP1 SWAP2 DIV MUL PUSH1 0x20 ADD PUSH1 0x40 MLOAD SWAP1 DUP2 ADD PUSH1 0x40 MSTORE DUP1 SWAP3 SWAP2 SWAP1 DUP2 DUP2 MSTORE PUSH1 0x20 ADD DUP3 DUP1 SLOAD PUSH2 0x14BD SWAP1 PUSH2 0x263D JUMP JUMPDEST DUP1 ISZERO PUSH2 0x150A JUMPI DUP1 PUSH1 0x1F LT PUSH2 0x14DF JUMPI PUSH2 0x100 DUP1 DUP4 SLOAD DIV MUL DUP4 MSTORE SWAP2 PUSH1 0x20 ADD SWAP2 PUSH2 0x150A JUMP JUMPDEST DUP3 ADD SWAP2 SWAP1 PUSH1 0x0 MSTORE PUSH1 0x20 PUSH1 0x0 KECCAK256 SWAP1 JUMPDEST DUP2 SLOAD DUP2 MSTORE SWAP1 PUSH1 0x1 ADD SWAP1 PUSH1 0x20 ADD DUP1 DUP4 GT PUSH2 0x14ED JUMPI DUP3 SWAP1 SUB PUSH1 0x1F AND DUP3 ADD SWAP2 JUMPDEST POP POP POP POP POP DUP2 MSTORE PUSH1 0x20 ADD PUSH1 0x4 DUP3 ADD DUP1 SLOAD DUP1 PUSH1 0x20 MUL PUSH1 0x20 ADD PUSH1 0x40 MLOAD SWAP1 DUP2 ADD PUSH1 0x40 MSTORE DUP1 SWAP3 SWAP2 SWAP1 DUP2 DUP2 MSTORE PUSH1 0x20 ADD PUSH1 0x0 SWAP1 JUMPDEST DUP3 DUP3 LT ISZERO PUSH2 0x15E4 JUMPI DUP4 DUP3 SWAP1 PUSH1 0x0 MSTORE PUSH1 0x20 PUSH1 0x0 KECCAK256 ADD DUP1 SLOAD PUSH2 0x1557 SWAP1 PUSH2 0x263D JUMP JUMPDEST DUP1 PUSH1 0x1F ADD PUSH1 0x20 DUP1 SWAP2 DIV MUL PUSH1 0x20 ADD PUSH1 0x40 MLOAD SWAP1 DUP2 ADD PUSH1 0x40 MSTORE DUP1 SWAP3 SWAP2 SWAP1 DUP2 DUP2 MSTORE PUSH1 0x20 ADD DUP3 DUP1 SLOAD PUSH2 0x1583 SWAP1 PUSH2 0x263D JUMP JUMPDEST DUP1 ISZERO PUSH2 0x15D0 JUMPI DUP1 PUSH1 0x1F LT PUSH2 0x15A5 JUMPI PUSH2 0x100 DUP1 DUP4 SLOAD DIV MUL DUP4 MSTORE SWAP2 PUSH1 0x20 ADD SWAP2 PUSH2 0x15D0 JUMP JUMPDEST DUP3 ADD SWAP2 SWAP1 PUSH1 0x0 MSTORE PUSH1 0x20 PUSH1 0x0 KECCAK256 SWAP1 JUMPDEST DUP2 SLOAD DUP2 MSTORE SWAP1 PUSH1 0x1 ADD SWAP1 PUSH1 0x20 ADD DUP1 DUP4 GT PUSH2 0x15B3 JUMPI DUP3 SWAP1 SUB PUSH1 0x1F AND DUP3 ADD SWAP2 JUMPDEST POP POP POP POP POP DUP2 MSTORE PUSH1 0x20 ADD SWAP1 PUSH1 0x1 ADD SWAP1 PUSH2 0x1538 JUMP JUMPDEST POP POP POP POP DUP2 MSTORE POP POP DUP2 MSTORE PUSH1 0x20 ADD SWAP1 PUSH1 0x1 ADD SWAP1 PUSH2 0x13B8 JUMP JUMPDEST POP POP POP POP SWAP1 POP SWAP1 JUMP JUMPDEST PUSH2 0x160C PUSH2 0x1C27 JUMP JUMPDEST PUSH1 0x0 PUSH1 0x1 DUP4 PUSH2 0x161B SWAP2 SWAP1 PUSH2 0x2862 JUMP JUMPDEST DUP2 SLOAD DUP2 LT PUSH2 0x162C JUMPI PUSH2 0x162B PUSH2 0x266E JUMP JUMPDEST JUMPDEST SWAP1 PUSH1 0x0 MSTORE PUSH1 0x20 PUSH1 0x0 KECCAK256 SWAP1 PUSH1 0x5 MUL ADD PUSH1 0x40 MLOAD DUP1 PUSH1 0xA0 ADD PUSH1 0x40 MSTORE SWAP1 DUP2 PUSH1 0x0 DUP3 ADD DUP1 SLOAD PUSH2 0x1655 SWAP1 PUSH2 0x263D JUMP JUMPDEST DUP1 PUSH1 0x1F ADD PUSH1 0x20 DUP1 SWAP2 DIV MUL PUSH1 0x20 ADD PUSH1 0x40 MLOAD SWAP1 DUP2 ADD PUSH1 0x40 MSTORE DUP1 SWAP3 SWAP2 SWAP1 DUP2 DUP2 MSTORE PUSH1 0x20 ADD DUP3 DUP1 SLOAD PUSH2 0x1681 SWAP1 PUSH2 0x263D JUMP JUMPDEST DUP1 ISZERO PUSH2 0x16CE JUMPI DUP1 PUSH1 0x1F LT PUSH2 0x16A3 JUMPI PUSH2 0x100 DUP1 DUP4 SLOAD DIV MUL DUP4 MSTORE SWAP2 PUSH1 0x20 ADD SWAP2 PUSH2 0x16CE JUMP JUMPDEST DUP3 ADD SWAP2 SWAP1 PUSH1 0x0 MSTORE PUSH1 0x20 PUSH1 0x0 KECCAK256 SWAP1 JUMPDEST DUP2 SLOAD DUP2 MSTORE SWAP1 PUSH1 0x1 ADD SWAP1 PUSH1 0x20 ADD DUP1 DUP4 GT PUSH2 0x16B1 JUMPI DUP3 SWAP1 SUB PUSH1 0x1F AND DUP3 ADD SWAP2 JUMPDEST POP POP POP POP POP DUP2 MSTORE PUSH1 0x20 ADD PUSH1 0x1 DUP3 ADD SLOAD DUP2 MSTORE PUSH1 0x20 ADD PUSH1 0x2 DUP3 ADD SLOAD DUP2 MSTORE PUSH1 0x20 ADD PUSH1 0x3 DUP3 ADD DUP1 SLOAD PUSH2 0x16FB SWAP1 PUSH2 0x263D JUMP JUMPDEST DUP1 PUSH1 0x1F ADD PUSH1 0x20 DUP1 SWAP2 DIV MUL PUSH1 0x20 ADD PUSH1 0x40 MLOAD SWAP1 DUP2 ADD PUSH1 0x40 MSTORE DUP1 SWAP3 SWAP2 SWAP1 DUP2 DUP2 MSTORE PUSH1 0x20 ADD DUP3 DUP1 SLOAD PUSH2 0x1727 SWAP1 PUSH2 0x263D JUMP JUMPDEST DUP1 ISZERO PUSH2 0x1774 JUMPI DUP1 PUSH1 0x1F LT PUSH2 0x1749 JUMPI PUSH2 0x100 DUP1 DUP4 SLOAD DIV MUL DUP4 MSTORE SWAP2 PUSH1 0x20 ADD SWAP2 PUSH2 0x1774 JUMP JUMPDEST DUP3 ADD SWAP2 SWAP1 PUSH1 0x0 MSTORE PUSH1 0x20 PUSH1 0x0 KECCAK256 SWAP1 JUMPDEST DUP2 SLOAD DUP2 MSTORE SWAP1 PUSH1 0x1 ADD SWAP1 PUSH1 0x20 ADD DUP1 DUP4 GT PUSH2 0x1757 JUMPI DUP3 SWAP1 SUB PUSH1 0x1F AND DUP3 ADD SWAP2 JUMPDEST POP POP POP POP POP DUP2 MSTORE PUSH1 0x20 ADD PUSH1 0x4 DUP3 ADD DUP1 SLOAD DUP1 PUSH1 0x20 MUL PUSH1 0x20 ADD PUSH1 0x40 MLOAD SWAP1 DUP2 ADD PUSH1 0x40 MSTORE DUP1 SWAP3 SWAP2 SWAP1 DUP2 DUP2 MSTORE PUSH1 0x20 ADD PUSH1 0x0 SWAP1 JUMPDEST DUP3 DUP3 LT ISZERO PUSH2 0x184E JUMPI DUP4 DUP3 SWAP1 PUSH1 0x0 MSTORE PUSH1 0x20 PUSH1 0x0 KECCAK256 ADD DUP1 SLOAD PUSH2 0x17C1 SWAP1 PUSH2 0x263D JUMP JUMPDEST DUP1 PUSH1 0x1F ADD PUSH1 0x20 DUP1 SWAP2 DIV MUL PUSH1 0x20 ADD PUSH1 0x40 MLOAD SWAP1 DUP2 ADD PUSH1 0x40 MSTORE DUP1 SWAP3 SWAP2 SWAP1 DUP2 DUP2 MSTORE PUSH1 0x20 ADD DUP3 DUP1 SLOAD PUSH2 0x17ED SWAP1 PUSH2 0x263D JUMP JUMPDEST DUP1 ISZERO PUSH2 0x183A JUMPI DUP1 PUSH1 0x1F LT PUSH2 0x180F JUMPI PUSH2 0x100 DUP1 DUP4 SLOAD DIV MUL DUP4 MSTORE SWAP2 PUSH1 0x20 ADD SWAP2 PUSH2 0x183A JUMP JUMPDEST DUP3 ADD SWAP2 SWAP1 PUSH1 0x0 MSTORE PUSH1 0x20 PUSH1 0x0 KECCAK256 SWAP1 JUMPDEST DUP2 SLOAD DUP2 MSTORE SWAP1 PUSH1 0x1 ADD SWAP1 PUSH1 0x20 ADD DUP1 DUP4 GT PUSH2 0x181D JUMPI DUP3 SWAP1 SUB PUSH1 0x1F AND DUP3 ADD SWAP2 JUMPDEST POP POP POP POP POP DUP2 MSTORE PUSH1 0x20 ADD SWAP1 PUSH1 0x1 ADD SWAP1 PUSH2 0x17A2 JUMP JUMPDEST POP POP POP POP DUP2 MSTORE POP POP SWAP1 POP SWAP2 SWAP1 POP JUMP JUMPDEST PUSH1 0x0 PUSH1 0x40 MLOAD DUP1 PUSH1 0xA0 ADD PUSH1 0x40 MSTORE DUP1 DUP6 DUP2 MSTORE PUSH1 0x20 ADD PUSH1 0x1 PUSH1 0x0 DUP1 SLOAD SWAP1 POP PUSH2 0x1882 SWAP2 SWAP1 PUSH2 0x2714 JUMP JUMPDEST DUP2 MSTORE PUSH1 0x20 ADD DUP5 DUP2 MSTORE PUSH1 0x20 ADD PUSH2 0x1896 DUP6 PUSH2 0xD38 JUMP JUMPDEST DUP2 MSTORE PUSH1 0x20 ADD DUP4 DUP2 MSTORE POP SWAP1 DUP1 PUSH1 0x1 DUP2 SLOAD ADD DUP1 DUP3 SSTORE DUP1 SWAP2 POP POP PUSH1 0x1 SWAP1 SUB SWAP1 PUSH1 0x0 MSTORE PUSH1 0x20 PUSH1 0x0 KECCAK256 SWAP1 PUSH1 0x5 MUL ADD PUSH1 0x0 SWAP1 SWAP2 SWAP1 SWAP2 SWAP1 SWAP2 POP PUSH1 0x0 DUP3 ADD MLOAD DUP2 PUSH1 0x0 ADD SWAP1 DUP2 PUSH2 0x18DD SWAP2 SWAP1 PUSH2 0x2A95 JUMP JUMPDEST POP PUSH1 0x20 DUP3 ADD MLOAD DUP2 PUSH1 0x1 ADD SSTORE PUSH1 0x40 DUP3 ADD MLOAD DUP2 PUSH1 0x2 ADD SSTORE PUSH1 0x60 DUP3 ADD MLOAD DUP2 PUSH1 0x3 ADD SWAP1 DUP2 PUSH2 0x1907 SWAP2 SWAP1 PUSH2 0x2A95 JUMP JUMPDEST POP PUSH1 0x80 DUP3 ADD MLOAD DUP2 PUSH1 0x4 ADD SWAP1 DUP1 MLOAD SWAP1 PUSH1 0x20 ADD SWAP1 PUSH2 0x1924 SWAP3 SWAP2 SWAP1 PUSH2 0x1C56 JUMP JUMPDEST POP POP POP PUSH1 0x40 MLOAD DUP1 PUSH1 0xA0 ADD PUSH1 0x40 MSTORE DUP1 DUP5 DUP2 MSTORE PUSH1 0x20 ADD PUSH1 0x0 DUP1 SLOAD SWAP1 POP DUP2 MSTORE PUSH1 0x20 ADD DUP4 DUP2 MSTORE PUSH1 0x20 ADD PUSH2 0x1952 DUP5 PUSH2 0xD38 JUMP JUMPDEST DUP2 MSTORE PUSH1 0x20 ADD DUP3 DUP2 MSTORE POP PUSH1 0x1 DUP5 PUSH1 0x40 MLOAD PUSH2 0x196B SWAP2 SWAP1 PUSH2 0x28D2 JUMP JUMPDEST SWAP1 DUP2 MSTORE PUSH1 0x20 ADD PUSH1 0x40 MLOAD DUP1 SWAP2 SUB SWAP1 KECCAK256 PUSH1 0x0 DUP3 ADD MLOAD DUP2 PUSH1 0x0 ADD SWAP1 DUP2 PUSH2 0x198E SWAP2 SWAP1 PUSH2 0x2A95 JUMP JUMPDEST POP PUSH1 0x20 DUP3 ADD MLOAD DUP2 PUSH1 0x1 ADD SSTORE PUSH1 0x40 DUP3 ADD MLOAD DUP2 PUSH1 0x2 ADD SSTORE PUSH1 0x60 DUP3 ADD MLOAD DUP2 PUSH1 0x3 ADD SWAP1 DUP2 PUSH2 0x19B8 SWAP2 SWAP1 PUSH2 0x2A95 JUMP JUMPDEST POP PUSH1 0x80 DUP3 ADD MLOAD DUP2 PUSH1 0x4 ADD SWAP1 DUP1 MLOAD SWAP1 PUSH1 0x20 ADD SWAP1 PUSH2 0x19D5 SWAP3 SWAP2 SWAP1 PUSH2 0x1C56 JUMP JUMPDEST POP SWAP1 POP POP POP POP POP JUMP JUMPDEST PUSH2 0x19E6 PUSH2 0x1C27 JUMP JUMPDEST PUSH1 0x1 DUP3 PUSH1 0x40 MLOAD PUSH2 0x19F6 SWAP2 SWAP1 PUSH2 0x28D2 JUMP JUMPDEST SWAP1 DUP2 MSTORE PUSH1 0x20 ADD PUSH1 0x40 MLOAD DUP1 SWAP2 SUB SWAP1 KECCAK256 PUSH1 0x40 MLOAD DUP1 PUSH1 0xA0 ADD PUSH1 0x40 MSTORE SWAP1 DUP2 PUSH1 0x0 DUP3 ADD DUP1 SLOAD PUSH2 0x1A1F SWAP1 PUSH2 0x263D JUMP JUMPDEST DUP1 PUSH1 0x1F ADD PUSH1 0x20 DUP1 SWAP2 DIV MUL PUSH1 0x20 ADD PUSH1 0x40 MLOAD SWAP1 DUP2 ADD PUSH1 0x40 MSTORE DUP1 SWAP3 SWAP2 SWAP1 DUP2 DUP2 MSTORE PUSH1 0x20 ADD DUP3 DUP1 SLOAD PUSH2 0x1A4B SWAP1 PUSH2 0x263D JUMP JUMPDEST DUP1 ISZERO PUSH2 0x1A98 JUMPI DUP1 PUSH1 0x1F LT PUSH2 0x1A6D JUMPI PUSH2 0x100 DUP1 DUP4 SLOAD DIV MUL DUP4 MSTORE SWAP2 PUSH1 0x20 ADD SWAP2 PUSH2 0x1A98 JUMP JUMPDEST DUP3 ADD SWAP2 SWAP1 PUSH1 0x0 MSTORE PUSH1 0x20 PUSH1 0x0 KECCAK256 SWAP1 JUMPDEST DUP2 SLOAD DUP2 MSTORE SWAP1 PUSH1 0x1 ADD SWAP1 PUSH1 0x20 ADD DUP1 DUP4 GT PUSH2 0x1A7B JUMPI DUP3 SWAP1 SUB PUSH1 0x1F AND DUP3 ADD SWAP2 JUMPDEST POP POP POP POP POP DUP2 MSTORE PUSH1 0x20 ADD PUSH1 0x1 DUP3 ADD SLOAD DUP2 MSTORE PUSH1 0x20 ADD PUSH1 0x2 DUP3 ADD SLOAD DUP2 MSTORE PUSH1 0x20 ADD PUSH1 0x3 DUP3 ADD DUP1 SLOAD PUSH2 0x1AC5 SWAP1 PUSH2 0x263D JUMP JUMPDEST DUP1 PUSH1 0x1F ADD PUSH1 0x20 DUP1 SWAP2 DIV MUL PUSH1 0x20 ADD PUSH1 0x40 MLOAD SWAP1 DUP2 ADD PUSH1 0x40 MSTORE DUP1 SWAP3 SWAP2 SWAP1 DUP2 DUP2 MSTORE PUSH1 0x20 ADD DUP3 DUP1 SLOAD PUSH2 0x1AF1 SWAP1 PUSH2 0x263D JUMP JUMPDEST DUP1 ISZERO PUSH2 0x1B3E JUMPI DUP1 PUSH1 0x1F LT PUSH2 0x1B13 JUMPI PUSH2 0x100 DUP1 DUP4 SLOAD DIV MUL DUP4 MSTORE SWAP2 PUSH1 0x20 ADD SWAP2 PUSH2 0x1B3E JUMP JUMPDEST DUP3 ADD SWAP2 SWAP1 PUSH1 0x0 MSTORE PUSH1 0x20 PUSH1 0x0 KECCAK256 SWAP1 JUMPDEST DUP2 SLOAD DUP2 MSTORE SWAP1 PUSH1 0x1 ADD SWAP1 PUSH1 0x20 ADD DUP1 DUP4 GT PUSH2 0x1B21 JUMPI DUP3 SWAP1 SUB PUSH1 0x1F AND DUP3 ADD SWAP2 JUMPDEST POP POP POP POP POP DUP2 MSTORE PUSH1 0x20 ADD PUSH1 0x4 DUP3 ADD DUP1 SLOAD DUP1 PUSH1 0x20 MUL PUSH1 0x20 ADD PUSH1 0x40 MLOAD SWAP1 DUP2 ADD PUSH1 0x40 MSTORE DUP1 SWAP3 SWAP2 SWAP1 DUP2 DUP2 MSTORE PUSH1 0x20 ADD PUSH1 0x0 SWAP1 JUMPDEST DUP3 DUP3 LT ISZERO PUSH2 0x1C18 JUMPI DUP4 DUP3 SWAP1 PUSH1 0x0 MSTORE PUSH1 0x20 PUSH1 0x0 KECCAK256 ADD DUP1 SLOAD PUSH2 0x1B8B SWAP1 PUSH2 0x263D JUMP JUMPDEST DUP1 PUSH1 0x1F ADD PUSH1 0x20 DUP1 SWAP2 DIV MUL PUSH1 0x20 ADD PUSH1 0x40 MLOAD SWAP1 DUP2 ADD PUSH1 0x40 MSTORE DUP1 SWAP3 SWAP2 SWAP1 DUP2 DUP2 MSTORE PUSH1 0x20 ADD DUP3 DUP1 SLOAD PUSH2 0x1BB7 SWAP1 PUSH2 0x263D JUMP JUMPDEST DUP1 ISZERO PUSH2 0x1C04 JUMPI DUP1 PUSH1 0x1F LT PUSH2 0x1BD9 JUMPI PUSH2 0x100 DUP1 DUP4 SLOAD DIV MUL DUP4 MSTORE SWAP2 PUSH1 0x20 ADD SWAP2 PUSH2 0x1C04 JUMP JUMPDEST DUP3 ADD SWAP2 SWAP1 PUSH1 0x0 MSTORE PUSH1 0x20 PUSH1 0x0 KECCAK256 SWAP1 JUMPDEST DUP2 SLOAD DUP2 MSTORE SWAP1 PUSH1 0x1 ADD SWAP1 PUSH1 0x20 ADD DUP1 DUP4 GT PUSH2 0x1BE7 JUMPI DUP3 SWAP1 SUB PUSH1 0x1F AND DUP3 ADD SWAP2 JUMPDEST POP POP POP POP POP DUP2 MSTORE PUSH1 0x20 ADD SWAP1 PUSH1 0x1 ADD SWAP1 PUSH2 0x1B6C JUMP JUMPDEST POP POP POP POP DUP2 MSTORE POP POP SWAP1 POP SWAP2 SWAP1 POP JUMP JUMPDEST PUSH1 0x40 MLOAD DUP1 PUSH1 0xA0 ADD PUSH1 0x40 MSTORE DUP1 PUSH1 0x60 DUP2 MSTORE PUSH1 0x20 ADD PUSH1 0x0 DUP2 MSTORE PUSH1 0x20 ADD PUSH1 0x0 DUP2 MSTORE PUSH1 0x20 ADD PUSH1 0x60 DUP2 MSTORE PUSH1 0x20 ADD PUSH1 0x60 DUP2 MSTORE POP SWAP1 JUMP JUMPDEST DUP3 DUP1 SLOAD DUP3 DUP3 SSTORE SWAP1 PUSH1 0x0 MSTORE PUSH1 0x20 PUSH1 0x0 KECCAK256 SWAP1 DUP2 ADD SWAP3 DUP3 ISZERO PUSH2 0x1C9E JUMPI SWAP2 PUSH1 0x20 MUL DUP3 ADD JUMPDEST DUP3 DUP2 GT ISZERO PUSH2 0x1C9D JUMPI DUP3 MLOAD DUP3 SWAP1 DUP2 PUSH2 0x1C8D SWAP2 SWAP1 PUSH2 0x2A95 JUMP JUMPDEST POP SWAP2 PUSH1 0x20 ADD SWAP2 SWAP1 PUSH1 0x1 ADD SWAP1 PUSH2 0x1C76 JUMP JUMPDEST JUMPDEST POP SWAP1 POP PUSH2 0x1CAB SWAP2 SWAP1 PUSH2 0x1CAF JUMP JUMPDEST POP SWAP1 JUMP JUMPDEST JUMPDEST DUP1 DUP3 GT ISZERO PUSH2 0x1CCF JUMPI PUSH1 0x0 DUP2 DUP2 PUSH2 0x1CC6 SWAP2 SWAP1 PUSH2 0x1CD3 JUMP JUMPDEST POP PUSH1 0x1 ADD PUSH2 0x1CB0 JUMP JUMPDEST POP SWAP1 JUMP JUMPDEST POP DUP1 SLOAD PUSH2 0x1CDF SWAP1 PUSH2 0x263D JUMP JUMPDEST PUSH1 0x0 DUP3 SSTORE DUP1 PUSH1 0x1F LT PUSH2 0x1CF1 JUMPI POP PUSH2 0x1D10 JUMP JUMPDEST PUSH1 0x1F ADD PUSH1 0x20 SWAP1 DIV SWAP1 PUSH1 0x0 MSTORE PUSH1 0x20 PUSH1 0x0 KECCAK256 SWAP1 DUP2 ADD SWAP1 PUSH2 0x1D0F SWAP2 SWAP1 PUSH2 0x1D13 JUMP JUMPDEST JUMPDEST POP JUMP JUMPDEST JUMPDEST DUP1 DUP3 GT ISZERO PUSH2 0x1D2C JUMPI PUSH1 0x0 DUP2 PUSH1 0x0 SWAP1 SSTORE POP PUSH1 0x1 ADD PUSH2 0x1D14 JUMP JUMPDEST POP SWAP1 JUMP JUMPDEST PUSH1 0x0 DUP2 MLOAD SWAP1 POP SWAP2 SWAP1 POP JUMP JUMPDEST PUSH1 0x0 DUP3 DUP3 MSTORE PUSH1 0x20 DUP3 ADD SWAP1 POP SWAP3 SWAP2 POP POP JUMP JUMPDEST PUSH1 0x0 DUP2 SWAP1 POP PUSH1 0x20 DUP3 ADD SWAP1 POP SWAP2 SWAP1 POP JUMP JUMPDEST PUSH1 0x0 DUP2 MLOAD SWAP1 POP SWAP2 SWAP1 POP JUMP JUMPDEST PUSH1 0x0 DUP3 DUP3 MSTORE PUSH1 0x20 DUP3 ADD SWAP1 POP SWAP3 SWAP2 POP POP JUMP JUMPDEST PUSH1 0x0 JUMPDEST DUP4 DUP2 LT ISZERO PUSH2 0x1D96 JUMPI DUP1 DUP3 ADD MLOAD DUP2 DUP5 ADD MSTORE PUSH1 0x20 DUP2 ADD SWAP1 POP PUSH2 0x1D7B JUMP JUMPDEST PUSH1 0x0 DUP5 DUP5 ADD MSTORE POP POP POP POP JUMP JUMPDEST PUSH1 0x0 PUSH1 0x1F NOT PUSH1 0x1F DUP4 ADD AND SWAP1 POP SWAP2 SWAP1 POP JUMP JUMPDEST PUSH1 0x0 PUSH2 0x1DBE DUP3 PUSH2 0x1D5C JUMP JUMPDEST PUSH2 0x1DC8 DUP2 DUP6 PUSH2 0x1D67 JUMP JUMPDEST SWAP4 POP PUSH2 0x1DD8 DUP2 DUP6 PUSH1 0x20 DUP7 ADD PUSH2 0x1D78 JUMP JUMPDEST PUSH2 0x1DE1 DUP2 PUSH2 0x1DA2 JUMP JUMPDEST DUP5 ADD SWAP2 POP POP SWAP3 SWAP2 POP POP JUMP JUMPDEST PUSH1 0x0 DUP2 SWAP1 POP SWAP2 SWAP1 POP JUMP JUMPDEST PUSH2 0x1DFF DUP2 PUSH2 0x1DEC JUMP JUMPDEST DUP3 MSTORE POP POP JUMP JUMPDEST PUSH1 0x0 DUP2 MLOAD SWAP1 POP SWAP2 SWAP1 POP JUMP JUMPDEST PUSH1 0x0 DUP3 DUP3 MSTORE PUSH1 0x20 DUP3 ADD SWAP1 POP SWAP3 SWAP2 POP POP JUMP JUMPDEST PUSH1 0x0 DUP2 SWAP1 POP PUSH1 0x20 DUP3 ADD SWAP1 POP SWAP2 SWAP1 POP JUMP JUMPDEST PUSH1 0x0 PUSH2 0x1E3D DUP4 DUP4 PUSH2 0x1DB3 JUMP JUMPDEST SWAP1 POP SWAP3 SWAP2 POP POP JUMP JUMPDEST PUSH1 0x0 PUSH1 0x20 DUP3 ADD SWAP1 POP SWAP2 SWAP1 POP JUMP JUMPDEST PUSH1 0x0 PUSH2 0x1E5D DUP3 PUSH2 0x1E05 JUMP JUMPDEST PUSH2 0x1E67 DUP2 DUP6 PUSH2 0x1E10 JUMP JUMPDEST SWAP4 POP DUP4 PUSH1 0x20 DUP3 MUL DUP6 ADD PUSH2 0x1E79 DUP6 PUSH2 0x1E21 JUMP JUMPDEST DUP1 PUSH1 0x0 JUMPDEST DUP6 DUP2 LT ISZERO PUSH2 0x1EB5 JUMPI DUP5 DUP5 SUB DUP10 MSTORE DUP2 MLOAD PUSH2 0x1E96 DUP6 DUP3 PUSH2 0x1E31 JUMP JUMPDEST SWAP5 POP PUSH2 0x1EA1 DUP4 PUSH2 0x1E45 JUMP JUMPDEST SWAP3 POP PUSH1 0x20 DUP11 ADD SWAP10 POP POP PUSH1 0x1 DUP2 ADD SWAP1 POP PUSH2 0x1E7D JUMP JUMPDEST POP DUP3 SWAP8 POP DUP8 SWAP6 POP POP POP POP POP POP SWAP3 SWAP2 POP POP JUMP JUMPDEST PUSH1 0x0 PUSH1 0xA0 DUP4 ADD PUSH1 0x0 DUP4 ADD MLOAD DUP5 DUP3 SUB PUSH1 0x0 DUP7 ADD MSTORE PUSH2 0x1EE4 DUP3 DUP3 PUSH2 0x1DB3 JUMP JUMPDEST SWAP2 POP POP PUSH1 0x20 DUP4 ADD MLOAD PUSH2 0x1EF9 PUSH1 0x20 DUP7 ADD DUP3 PUSH2 0x1DF6 JUMP JUMPDEST POP PUSH1 0x40 DUP4 ADD MLOAD PUSH2 0x1F0C PUSH1 0x40 DUP7 ADD DUP3 PUSH2 0x1DF6 JUMP JUMPDEST POP PUSH1 0x60 DUP4 ADD MLOAD DUP5 DUP3 SUB PUSH1 0x60 DUP7 ADD MSTORE PUSH2 0x1F24 DUP3 DUP3 PUSH2 0x1DB3 JUMP JUMPDEST SWAP2 POP POP PUSH1 0x80 DUP4 ADD MLOAD DUP5 DUP3 SUB PUSH1 0x80 DUP7 ADD MSTORE PUSH2 0x1F3E DUP3 DUP3 PUSH2 0x1E52 JUMP JUMPDEST SWAP2 POP POP DUP1 SWAP2 POP POP SWAP3 SWAP2 POP POP JUMP JUMPDEST PUSH1 0x0 PUSH2 0x1F57 DUP4 DUP4 PUSH2 0x1EC7 JUMP JUMPDEST SWAP1 POP SWAP3 SWAP2 POP POP JUMP JUMPDEST PUSH1 0x0 PUSH1 0x20 DUP3 ADD SWAP1 POP SWAP2 SWAP1 POP JUMP JUMPDEST PUSH1 0x0 PUSH2 0x1F77 DUP3 PUSH2 0x1D30 JUMP JUMPDEST PUSH2 0x1F81 DUP2 DUP6 PUSH2 0x1D3B JUMP JUMPDEST SWAP4 POP DUP4 PUSH1 0x20 DUP3 MUL DUP6 ADD PUSH2 0x1F93 DUP6 PUSH2 0x1D4C JUMP JUMPDEST DUP1 PUSH1 0x0 JUMPDEST DUP6 DUP2 LT ISZERO PUSH2 0x1FCF JUMPI DUP5 DUP5 SUB DUP10 MSTORE DUP2 MLOAD PUSH2 0x1FB0 DUP6 DUP3 PUSH2 0x1F4B JUMP JUMPDEST SWAP5 POP PUSH2 0x1FBB DUP4 PUSH2 0x1F5F JUMP JUMPDEST SWAP3 POP PUSH1 0x20 DUP11 ADD SWAP10 POP POP PUSH1 0x1 DUP2 ADD SWAP1 POP PUSH2 0x1F97 JUMP JUMPDEST POP DUP3 SWAP8 POP DUP8 SWAP6 POP POP POP POP POP POP SWAP3 SWAP2 POP POP JUMP JUMPDEST PUSH1 0x0 PUSH1 0x20 DUP3 ADD SWAP1 POP DUP2 DUP2 SUB PUSH1 0x0 DUP4 ADD MSTORE PUSH2 0x1FFB DUP2 DUP5 PUSH2 0x1F6C JUMP JUMPDEST SWAP1 POP SWAP3 SWAP2 POP POP JUMP JUMPDEST PUSH2 0x200C DUP2 PUSH2 0x1DEC JUMP JUMPDEST DUP3 MSTORE POP POP JUMP JUMPDEST PUSH1 0x0 PUSH1 0x20 DUP3 ADD SWAP1 POP PUSH2 0x2027 PUSH1 0x0 DUP4 ADD DUP5 PUSH2 0x2003 JUMP JUMPDEST SWAP3 SWAP2 POP POP JUMP JUMPDEST PUSH1 0x0 PUSH1 0x60 DUP3 ADD SWAP1 POP PUSH2 0x2042 PUSH1 0x0 DUP4 ADD DUP7 PUSH2 0x2003 JUMP JUMPDEST PUSH2 0x204F PUSH1 0x20 DUP4 ADD DUP6 PUSH2 0x2003 JUMP JUMPDEST DUP2 DUP2 SUB PUSH1 0x40 DUP4 ADD MSTORE PUSH2 0x2061 DUP2 DUP5 PUSH2 0x1F6C JUMP JUMPDEST SWAP1 POP SWAP5 SWAP4 POP POP POP POP JUMP JUMPDEST PUSH1 0x0 PUSH1 0x40 MLOAD SWAP1 POP SWAP1 JUMP JUMPDEST PUSH1 0x0 DUP1 REVERT JUMPDEST PUSH1 0x0 DUP1 REVERT JUMPDEST PUSH2 0x2088 DUP2 PUSH2 0x1DEC JUMP JUMPDEST DUP2 EQ PUSH2 0x2093 JUMPI PUSH1 0x0 DUP1 REVERT JUMPDEST POP JUMP JUMPDEST PUSH1 0x0 DUP2 CALLDATALOAD SWAP1 POP PUSH2 0x20A5 DUP2 PUSH2 0x207F JUMP JUMPDEST SWAP3 SWAP2 POP POP JUMP JUMPDEST PUSH1 0x0 PUSH1 0x20 DUP3 DUP5 SUB SLT ISZERO PUSH2 0x20C1 JUMPI PUSH2 0x20C0 PUSH2 0x2075 JUMP JUMPDEST JUMPDEST PUSH1 0x0 PUSH2 0x20CF DUP5 DUP3 DUP6 ADD PUSH2 0x2096 JUMP JUMPDEST SWAP2 POP POP SWAP3 SWAP2 POP POP JUMP JUMPDEST PUSH1 0x0 DUP3 DUP3 MSTORE PUSH1 0x20 DUP3 ADD SWAP1 POP SWAP3 SWAP2 POP POP JUMP JUMPDEST PUSH1 0x0 PUSH2 0x20F4 DUP3 PUSH2 0x1D5C JUMP JUMPDEST PUSH2 0x20FE DUP2 DUP6 PUSH2 0x20D8 JUMP JUMPDEST SWAP4 POP PUSH2 0x210E DUP2 DUP6 PUSH1 0x20 DUP7 ADD PUSH2 0x1D78 JUMP JUMPDEST PUSH2 0x2117 DUP2 PUSH2 0x1DA2 JUMP JUMPDEST DUP5 ADD SWAP2 POP POP SWAP3 SWAP2 POP POP JUMP JUMPDEST PUSH1 0x0 PUSH1 0x20 DUP3 ADD SWAP1 POP DUP2 DUP2 SUB PUSH1 0x0 DUP4 ADD MSTORE PUSH2 0x213C DUP2 DUP5 PUSH2 0x20E9 JUMP JUMPDEST SWAP1 POP SWAP3 SWAP2 POP POP JUMP JUMPDEST PUSH1 0x0 DUP1 REVERT JUMPDEST PUSH1 0x0 DUP1 REVERT JUMPDEST PUSH32 0x4E487B7100000000000000000000000000000000000000000000000000000000 PUSH1 0x0 MSTORE PUSH1 0x41 PUSH1 0x4 MSTORE PUSH1 0x24 PUSH1 0x0 REVERT JUMPDEST PUSH2 0x2186 DUP3 PUSH2 0x1DA2 JUMP JUMPDEST DUP2 ADD DUP2 DUP2 LT PUSH8 0xFFFFFFFFFFFFFFFF DUP3 GT OR ISZERO PUSH2 0x21A5 JUMPI PUSH2 0x21A4 PUSH2 0x214E JUMP JUMPDEST JUMPDEST DUP1 PUSH1 0x40 MSTORE POP POP POP JUMP JUMPDEST PUSH1 0x0 PUSH2 0x21B8 PUSH2 0x206B JUMP JUMPDEST SWAP1 POP PUSH2 0x21C4 DUP3 DUP3 PUSH2 0x217D JUMP JUMPDEST SWAP2 SWAP1 POP JUMP JUMPDEST PUSH1 0x0 PUSH8 0xFFFFFFFFFFFFFFFF DUP3 GT ISZERO PUSH2 0x21E4 JUMPI PUSH2 0x21E3 PUSH2 0x214E JUMP JUMPDEST JUMPDEST PUSH2 0x21ED DUP3 PUSH2 0x1DA2 JUMP JUMPDEST SWAP1 POP PUSH1 0x20 DUP2 ADD SWAP1 POP SWAP2 SWAP1 POP JUMP JUMPDEST DUP3 DUP2 DUP4 CALLDATACOPY PUSH1 0x0 DUP4 DUP4 ADD MSTORE POP POP POP JUMP JUMPDEST PUSH1 0x0 PUSH2 0x221C PUSH2 0x2217 DUP5 PUSH2 0x21C9 JUMP JUMPDEST PUSH2 0x21AE JUMP JUMPDEST SWAP1 POP DUP3 DUP2 MSTORE PUSH1 0x20 DUP2 ADD DUP5 DUP5 DUP5 ADD GT ISZERO PUSH2 0x2238 JUMPI PUSH2 0x2237 PUSH2 0x2149 JUMP JUMPDEST JUMPDEST PUSH2 0x2243 DUP5 DUP3 DUP6 PUSH2 0x21FA JUMP JUMPDEST POP SWAP4 SWAP3 POP POP POP JUMP JUMPDEST PUSH1 0x0 DUP3 PUSH1 0x1F DUP4 ADD SLT PUSH2 0x2260 JUMPI PUSH2 0x225F PUSH2 0x2144 JUMP JUMPDEST JUMPDEST DUP2 CALLDATALOAD PUSH2 0x2270 DUP5 DUP3 PUSH1 0x20 DUP7 ADD PUSH2 0x2209 JUMP JUMPDEST SWAP2 POP POP SWAP3 SWAP2 POP POP JUMP JUMPDEST PUSH1 0x0 PUSH8 0xFFFFFFFFFFFFFFFF DUP3 GT ISZERO PUSH2 0x2294 JUMPI PUSH2 0x2293 PUSH2 0x214E JUMP JUMPDEST JUMPDEST PUSH1 0x20 DUP3 MUL SWAP1 POP PUSH1 0x20 DUP2 ADD SWAP1 POP SWAP2 SWAP1 POP JUMP JUMPDEST PUSH1 0x0 DUP1 REVERT JUMPDEST PUSH1 0x0 PUSH2 0x22BD PUSH2 0x22B8 DUP5 PUSH2 0x2279 JUMP JUMPDEST PUSH2 0x21AE JUMP JUMPDEST SWAP1 POP DUP1 DUP4 DUP3 MSTORE PUSH1 0x20 DUP3 ADD SWAP1 POP PUSH1 0x20 DUP5 MUL DUP4 ADD DUP6 DUP2 GT ISZERO PUSH2 0x22E0 JUMPI PUSH2 0x22DF PUSH2 0x22A5 JUMP JUMPDEST JUMPDEST DUP4 JUMPDEST DUP2 DUP2 LT ISZERO PUSH2 0x2327 JUMPI DUP1 CALLDATALOAD PUSH8 0xFFFFFFFFFFFFFFFF DUP2 GT ISZERO PUSH2 0x2305 JUMPI PUSH2 0x2304 PUSH2 0x2144 JUMP JUMPDEST JUMPDEST DUP1 DUP7 ADD PUSH2 0x2312 DUP10 DUP3 PUSH2 0x224B JUMP JUMPDEST DUP6 MSTORE PUSH1 0x20 DUP6 ADD SWAP5 POP POP POP PUSH1 0x20 DUP2 ADD SWAP1 POP PUSH2 0x22E2 JUMP JUMPDEST POP POP POP SWAP4 SWAP3 POP POP POP JUMP JUMPDEST PUSH1 0x0 DUP3 PUSH1 0x1F DUP4 ADD SLT PUSH2 0x2346 JUMPI PUSH2 0x2345 PUSH2 0x2144 JUMP JUMPDEST JUMPDEST DUP2 CALLDATALOAD PUSH2 0x2356 DUP5 DUP3 PUSH1 0x20 DUP7 ADD PUSH2 0x22AA JUMP JUMPDEST SWAP2 POP POP SWAP3 SWAP2 POP POP JUMP JUMPDEST PUSH1 0x0 DUP1 PUSH1 0x0 DUP1 PUSH1 0x0 PUSH1 0xA0 DUP7 DUP9 SUB SLT ISZERO PUSH2 0x237B JUMPI PUSH2 0x237A PUSH2 0x2075 JUMP JUMPDEST JUMPDEST PUSH1 0x0 DUP7 ADD CALLDATALOAD PUSH8 0xFFFFFFFFFFFFFFFF DUP2 GT ISZERO PUSH2 0x2399 JUMPI PUSH2 0x2398 PUSH2 0x207A JUMP JUMPDEST JUMPDEST PUSH2 0x23A5 DUP9 DUP3 DUP10 ADD PUSH2 0x224B JUMP JUMPDEST SWAP6 POP POP PUSH1 0x20 PUSH2 0x23B6 DUP9 DUP3 DUP10 ADD PUSH2 0x2096 JUMP JUMPDEST SWAP5 POP POP PUSH1 0x40 PUSH2 0x23C7 DUP9 DUP3 DUP10 ADD PUSH2 0x2096 JUMP JUMPDEST SWAP4 POP POP PUSH1 0x60 DUP7 ADD CALLDATALOAD PUSH8 0xFFFFFFFFFFFFFFFF DUP2 GT ISZERO PUSH2 0x23E8 JUMPI PUSH2 0x23E7 PUSH2 0x207A JUMP JUMPDEST JUMPDEST PUSH2 0x23F4 DUP9 DUP3 DUP10 ADD PUSH2 0x224B JUMP JUMPDEST SWAP3 POP POP PUSH1 0x80 DUP7 ADD CALLDATALOAD PUSH8 0xFFFFFFFFFFFFFFFF DUP2 GT ISZERO PUSH2 0x2415 JUMPI PUSH2 0x2414 PUSH2 0x207A JUMP JUMPDEST JUMPDEST PUSH2 0x2421 DUP9 DUP3 DUP10 ADD PUSH2 0x2331 JUMP JUMPDEST SWAP2 POP POP SWAP3 SWAP6 POP SWAP3 SWAP6 SWAP1 SWAP4 POP JUMP JUMPDEST PUSH1 0x0 DUP2 ISZERO ISZERO SWAP1 POP SWAP2 SWAP1 POP JUMP JUMPDEST PUSH2 0x2443 DUP2 PUSH2 0x242E JUMP JUMPDEST DUP3 MSTORE POP POP JUMP JUMPDEST PUSH1 0x0 PUSH1 0x20 DUP3 ADD SWAP1 POP PUSH2 0x245E PUSH1 0x0 DUP4 ADD DUP5 PUSH2 0x243A JUMP JUMPDEST SWAP3 SWAP2 POP POP JUMP JUMPDEST PUSH1 0x0 PUSH1 0x40 DUP3 ADD SWAP1 POP PUSH2 0x2479 PUSH1 0x0 DUP4 ADD DUP6 PUSH2 0x2003 JUMP JUMPDEST DUP2 DUP2 SUB PUSH1 0x20 DUP4 ADD MSTORE PUSH2 0x248B DUP2 DUP5 PUSH2 0x1F6C JUMP JUMPDEST SWAP1 POP SWAP4 SWAP3 POP POP POP JUMP JUMPDEST PUSH1 0x0 PUSH1 0xA0 DUP4 ADD PUSH1 0x0 DUP4 ADD MLOAD DUP5 DUP3 SUB PUSH1 0x0 DUP7 ADD MSTORE PUSH2 0x24B1 DUP3 DUP3 PUSH2 0x1DB3 JUMP JUMPDEST SWAP2 POP POP PUSH1 0x20 DUP4 ADD MLOAD PUSH2 0x24C6 PUSH1 0x20 DUP7 ADD DUP3 PUSH2 0x1DF6 JUMP JUMPDEST POP PUSH1 0x40 DUP4 ADD MLOAD PUSH2 0x24D9 PUSH1 0x40 DUP7 ADD DUP3 PUSH2 0x1DF6 JUMP JUMPDEST POP PUSH1 0x60 DUP4 ADD MLOAD DUP5 DUP3 SUB PUSH1 0x60 DUP7 ADD MSTORE PUSH2 0x24F1 DUP3 DUP3 PUSH2 0x1DB3 JUMP JUMPDEST SWAP2 POP POP PUSH1 0x80 DUP4 ADD MLOAD DUP5 DUP3 SUB PUSH1 0x80 DUP7 ADD MSTORE PUSH2 0x250B DUP3 DUP3 PUSH2 0x1E52 JUMP JUMPDEST SWAP2 POP POP DUP1 SWAP2 POP POP SWAP3 SWAP2 POP POP JUMP JUMPDEST PUSH1 0x0 PUSH1 0x20 DUP3 ADD SWAP1 POP DUP2 DUP2 SUB PUSH1 0x0 DUP4 ADD MSTORE PUSH2 0x2532 DUP2 DUP5 PUSH2 0x2494 JUMP JUMPDEST SWAP1 POP SWAP3 SWAP2 POP POP JUMP JUMPDEST PUSH1 0x0 DUP1 PUSH1 0x0 PUSH1 0x60 DUP5 DUP7 SUB SLT ISZERO PUSH2 0x2553 JUMPI PUSH2 0x2552 PUSH2 0x2075 JUMP JUMPDEST JUMPDEST PUSH1 0x0 DUP5 ADD CALLDATALOAD PUSH8 0xFFFFFFFFFFFFFFFF DUP2 GT ISZERO PUSH2 0x2571 JUMPI PUSH2 0x2570 PUSH2 0x207A JUMP JUMPDEST JUMPDEST PUSH2 0x257D DUP7 DUP3 DUP8 ADD PUSH2 0x224B JUMP JUMPDEST SWAP4 POP POP PUSH1 0x20 PUSH2 0x258E DUP7 DUP3 DUP8 ADD PUSH2 0x2096 JUMP JUMPDEST SWAP3 POP POP PUSH1 0x40 DUP5 ADD CALLDATALOAD PUSH8 0xFFFFFFFFFFFFFFFF DUP2 GT ISZERO PUSH2 0x25AF JUMPI PUSH2 0x25AE PUSH2 0x207A JUMP JUMPDEST JUMPDEST PUSH2 0x25BB DUP7 DUP3 DUP8 ADD PUSH2 0x2331 JUMP JUMPDEST SWAP2 POP POP SWAP3 POP SWAP3 POP SWAP3 JUMP JUMPDEST PUSH1 0x0 PUSH1 0x20 DUP3 DUP5 SUB SLT ISZERO PUSH2 0x25DB JUMPI PUSH2 0x25DA PUSH2 0x2075 JUMP JUMPDEST JUMPDEST PUSH1 0x0 DUP3 ADD CALLDATALOAD PUSH8 0xFFFFFFFFFFFFFFFF DUP2 GT ISZERO PUSH2 0x25F9 JUMPI PUSH2 0x25F8 PUSH2 0x207A JUMP JUMPDEST JUMPDEST PUSH2 0x2605 DUP5 DUP3 DUP6 ADD PUSH2 0x224B JUMP JUMPDEST SWAP2 POP POP SWAP3 SWAP2 POP POP JUMP JUMPDEST PUSH32 0x4E487B7100000000000000000000000000000000000000000000000000000000 PUSH1 0x0 MSTORE PUSH1 0x22 PUSH1 0x4 MSTORE PUSH1 0x24 PUSH1 0x0 REVERT JUMPDEST PUSH1 0x0 PUSH1 0x2 DUP3 DIV SWAP1 POP PUSH1 0x1 DUP3 AND DUP1 PUSH2 0x2655 JUMPI PUSH1 0x7F DUP3 AND SWAP2 POP JUMPDEST PUSH1 0x20 DUP3 LT DUP2 SUB PUSH2 0x2668 JUMPI PUSH2 0x2667 PUSH2 0x260E JUMP JUMPDEST JUMPDEST POP SWAP2 SWAP1 POP JUMP JUMPDEST PUSH32 0x4E487B7100000000000000000000000000000000000000000000000000000000 PUSH1 0x0 MSTORE PUSH1 0x32 PUSH1 0x4 MSTORE PUSH1 0x24 PUSH1 0x0 REVERT JUMPDEST PUSH32 0x4E487B7100000000000000000000000000000000000000000000000000000000 PUSH1 0x0 MSTORE PUSH1 0x11 PUSH1 0x4 MSTORE PUSH1 0x24 PUSH1 0x0 REVERT JUMPDEST PUSH1 0x0 PUSH2 0x26D7 DUP3 PUSH2 0x1DEC JUMP JUMPDEST SWAP2 POP PUSH32 0xFFFFFFFFFFFFFFFFFFFFFFFFFFFFFFFFFFFFFFFFFFFFFFFFFFFFFFFFFFFFFFFF DUP3 SUB PUSH2 0x2709 JUMPI PUSH2 0x2708 PUSH2 0x269D JUMP JUMPDEST JUMPDEST PUSH1 0x1 DUP3 ADD SWAP1 POP SWAP2 SWAP1 POP JUMP JUMPDEST PUSH1 0x0 PUSH2 0x271F DUP3 PUSH2 0x1DEC JUMP JUMPDEST SWAP2 POP PUSH2 0x272A DUP4 PUSH2 0x1DEC JUMP JUMPDEST SWAP3 POP DUP3 DUP3 ADD SWAP1 POP DUP1 DUP3 GT ISZERO PUSH2 0x2742 JUMPI PUSH2 0x2741 PUSH2 0x269D JUMP JUMPDEST JUMPDEST SWAP3 SWAP2 POP POP JUMP JUMPDEST PUSH32 0x4E487B7100000000000000000000000000000000000000000000000000000000 PUSH1 0x0 MSTORE PUSH1 0x12 PUSH1 0x4 MSTORE PUSH1 0x24 PUSH1 0x0 REVERT JUMPDEST PUSH1 0x0 PUSH2 0x2782 DUP3 PUSH2 0x1DEC JUMP JUMPDEST SWAP2 POP PUSH2 0x278D DUP4 PUSH2 0x1DEC JUMP JUMPDEST SWAP3 POP DUP3 PUSH2 0x279D JUMPI PUSH2 0x279C PUSH2 0x2748 JUMP JUMPDEST JUMPDEST DUP3 DUP3 DIV SWAP1 POP SWAP3 SWAP2 POP POP JUMP JUMPDEST PUSH1 0x0 DUP2 SWAP1 POP SWAP3 SWAP2 POP POP JUMP JUMPDEST PUSH1 0x0 DUP2 SWAP1 POP DUP2 PUSH1 0x0 MSTORE PUSH1 0x20 PUSH1 0x0 KECCAK256 SWAP1 POP SWAP2 SWAP1 POP JUMP JUMPDEST PUSH1 0x0 DUP2 SLOAD PUSH2 0x27D5 DUP2 PUSH2 0x263D JUMP JUMPDEST PUSH2 0x27DF DUP2 DUP7 PUSH2 0x27A8 JUMP JUMPDEST SWAP5 POP PUSH1 0x1 DUP3 AND PUSH1 0x0 DUP2 EQ PUSH2 0x27FA JUMPI PUSH1 0x1 DUP2 EQ PUSH2 0x280F JUMPI PUSH2 0x2842 JUMP JUMPDEST PUSH1 0xFF NOT DUP4 AND DUP7 MSTORE DUP2 ISZERO ISZERO DUP3 MUL DUP7 ADD SWAP4 POP PUSH2 0x2842 JUMP JUMPDEST PUSH2 0x2818 DUP6 PUSH2 0x27B3 JUMP JUMPDEST PUSH1 0x0 JUMPDEST DUP4 DUP2 LT ISZERO PUSH2 0x283A JUMPI DUP2 SLOAD DUP2 DUP10 ADD MSTORE PUSH1 0x1 DUP3 ADD SWAP2 POP PUSH1 0x20 DUP2 ADD SWAP1 POP PUSH2 0x281B JUMP JUMPDEST DUP4 DUP9 ADD SWAP6 POP POP POP JUMPDEST POP POP POP SWAP3 SWAP2 POP POP JUMP JUMPDEST PUSH1 0x0 PUSH2 0x2857 DUP3 DUP5 PUSH2 0x27C8 JUMP JUMPDEST SWAP2 POP DUP2 SWAP1 POP SWAP3 SWAP2 POP POP JUMP JUMPDEST PUSH1 0x0 PUSH2 0x286D DUP3 PUSH2 0x1DEC JUMP JUMPDEST SWAP2 POP PUSH2 0x2878 DUP4 PUSH2 0x1DEC JUMP JUMPDEST SWAP3 POP DUP3 DUP3 SUB SWAP1 POP DUP2 DUP2 GT ISZERO PUSH2 0x2890 JUMPI PUSH2 0x288F PUSH2 0x269D JUMP JUMPDEST JUMPDEST SWAP3 SWAP2 POP POP JUMP JUMPDEST PUSH1 0x0 DUP2 SWAP1 POP SWAP3 SWAP2 POP POP JUMP JUMPDEST PUSH1 0x0 PUSH2 0x28AC DUP3 PUSH2 0x1D5C JUMP JUMPDEST PUSH2 0x28B6 DUP2 DUP6 PUSH2 0x2896 JUMP JUMPDEST SWAP4 POP PUSH2 0x28C6 DUP2 DUP6 PUSH1 0x20 DUP7 ADD PUSH2 0x1D78 JUMP JUMPDEST DUP1 DUP5 ADD SWAP2 POP POP SWAP3 SWAP2 POP POP JUMP JUMPDEST PUSH1 0x0 PUSH2 0x28DE DUP3 DUP5 PUSH2 0x28A1 JUMP JUMPDEST SWAP2 POP DUP2 SWAP1 POP SWAP3 SWAP2 POP POP JUMP JUMPDEST PUSH1 0x0 DUP2 SWAP1 POP DUP2 PUSH1 0x0 MSTORE PUSH1 0x20 PUSH1 0x0 KECCAK256 SWAP1 POP SWAP2 SWAP1 POP JUMP JUMPDEST PUSH1 0x0 PUSH1 0x20 PUSH1 0x1F DUP4 ADD DIV SWAP1 POP SWAP2 SWAP1 POP JUMP JUMPDEST PUSH1 0x0 DUP3 DUP3 SHL SWAP1 POP SWAP3 SWAP2 POP POP JUMP JUMPDEST PUSH1 0x0 PUSH1 0x8 DUP4 MUL PUSH2 0x294B PUSH32 0xFFFFFFFFFFFFFFFFFFFFFFFFFFFFFFFFFFFFFFFFFFFFFFFFFFFFFFFFFFFFFFFF DUP3 PUSH2 0x290E JUMP JUMPDEST PUSH2 0x2955 DUP7 DUP4 PUSH2 0x290E JUMP JUMPDEST SWAP6 POP DUP1 NOT DUP5 AND SWAP4 POP DUP1 DUP7 AND DUP5 OR SWAP3 POP POP POP SWAP4 SWAP3 POP POP POP JUMP JUMPDEST PUSH1 0x0 DUP2 SWAP1 POP SWAP2 SWAP1 POP JUMP JUMPDEST PUSH1 0x0 PUSH2 0x2992 PUSH2 0x298D PUSH2 0x2988 DUP5 PUSH2 0x1DEC JUMP JUMPDEST PUSH2 0x296D JUMP JUMPDEST PUSH2 0x1DEC JUMP JUMPDEST SWAP1 POP SWAP2 SWAP1 POP JUMP JUMPDEST PUSH1 0x0 DUP2 SWAP1 POP SWAP2 SWAP1 POP JUMP JUMPDEST PUSH2 0x29AC DUP4 PUSH2 0x2977 JUMP JUMPDEST PUSH2 0x29C0 PUSH2 0x29B8 DUP3 PUSH2 0x2999 JUMP JUMPDEST DUP5 DUP5 SLOAD PUSH2 0x291B JUMP JUMPDEST DUP3 SSTORE POP POP POP POP JUMP JUMPDEST PUSH1 0x0 SWAP1 JUMP JUMPDEST PUSH2 0x29D5 PUSH2 0x29C8 JUMP JUMPDEST PUSH2 0x29E0 DUP2 DUP5 DUP5 PUSH2 0x29A3 JUMP JUMPDEST POP POP POP JUMP JUMPDEST JUMPDEST DUP2 DUP2 LT ISZERO PUSH2 0x2A04 JUMPI PUSH2 0x29F9 PUSH1 0x0 DUP3 PUSH2 0x29CD JUMP JUMPDEST PUSH1 0x1 DUP2 ADD SWAP1 POP PUSH2 0x29E6 JUMP JUMPDEST POP POP JUMP JUMPDEST PUSH1 0x1F DUP3 GT ISZERO PUSH2 0x2A49 JUMPI PUSH2 0x2A1A DUP2 PUSH2 0x28E9 JUMP JUMPDEST PUSH2 0x2A23 DUP5 PUSH2 0x28FE JUMP JUMPDEST DUP2 ADD PUSH1 0x20 DUP6 LT ISZERO PUSH2 0x2A32 JUMPI DUP2 SWAP1 POP JUMPDEST PUSH2 0x2A46 PUSH2 0x2A3E DUP6 PUSH2 0x28FE JUMP JUMPDEST DUP4 ADD DUP3 PUSH2 0x29E5 JUMP JUMPDEST POP POP JUMPDEST POP POP POP JUMP JUMPDEST PUSH1 0x0 DUP3 DUP3 SHR SWAP1 POP SWAP3 SWAP2 POP POP JUMP JUMPDEST PUSH1 0x0 PUSH2 0x2A6C PUSH1 0x0 NOT DUP5 PUSH1 0x8 MUL PUSH2 0x2A4E JUMP JUMPDEST NOT DUP1 DUP4 AND SWAP2 POP POP SWAP3 SWAP2 POP POP JUMP JUMPDEST PUSH1 0x0 PUSH2 0x2A85 DUP4 DUP4 PUSH2 0x2A5B JUMP JUMPDEST SWAP2 POP DUP3 PUSH1 0x2 MUL DUP3 OR SWAP1 POP SWAP3 SWAP2 POP POP JUMP JUMPDEST PUSH2 0x2A9E DUP3 PUSH2 0x1D5C JUMP JUMPDEST PUSH8 0xFFFFFFFFFFFFFFFF DUP2 GT ISZERO PUSH2 0x2AB7 JUMPI PUSH2 0x2AB6 PUSH2 0x214E JUMP JUMPDEST JUMPDEST PUSH2 0x2AC1 DUP3 SLOAD PUSH2 0x263D JUMP JUMPDEST PUSH2 0x2ACC DUP3 DUP3 DUP6 PUSH2 0x2A08 JUMP JUMPDEST PUSH1 0x0 PUSH1 0x20 SWAP1 POP PUSH1 0x1F DUP4 GT PUSH1 0x1 DUP2 EQ PUSH2 0x2AFF JUMPI PUSH1 0x0 DUP5 ISZERO PUSH2 0x2AED JUMPI DUP3 DUP8 ADD MLOAD SWAP1 POP JUMPDEST PUSH2 0x2AF7 DUP6 DUP3 PUSH2 0x2A79 JUMP JUMPDEST DUP7 SSTORE POP PUSH2 0x2B5F JUMP JUMPDEST PUSH1 0x1F NOT DUP5 AND PUSH2 0x2B0D DUP7 PUSH2 0x28E9 JUMP JUMPDEST PUSH1 0x0 JUMPDEST DUP3 DUP2 LT ISZERO PUSH2 0x2B35 JUMPI DUP5 DUP10 ADD MLOAD DUP3 SSTORE PUSH1 0x1 DUP3 ADD SWAP2 POP PUSH1 0x20 DUP6 ADD SWAP5 POP PUSH1 0x20 DUP2 ADD SWAP1 POP PUSH2 0x2B10 JUMP JUMPDEST DUP7 DUP4 LT ISZERO PUSH2 0x2B52 JUMPI DUP5 DUP10 ADD MLOAD PUSH2 0x2B4E PUSH1 0x1F DUP10 AND DUP3 PUSH2 0x2A5B JUMP JUMPDEST DUP4 SSTORE POP JUMPDEST PUSH1 0x1 PUSH1 0x2 DUP9 MUL ADD DUP9 SSTORE POP POP POP JUMPDEST POP POP POP POP POP POP JUMP INVALID LOG2 PUSH5 0x6970667358 0x22 SLT KECCAK256 DUP8 0x2A PUSH13 0xCE9F142D87333259A532CAA7BE PUSH16 0x4FF81E92AB2436D441E169911E7B9C64 PUSH20 0x6F6C634300081200330000000000000000000000 "
				},
				"gasEstimates": {
					"creation": {
						"codeDepositCost": "2233000",
						"executionCost": "2382",
						"totalCost": "2235382"
					},
					"external": {
						"Bochung()": "infinite",
						"FClass2()": "infinite",
						"SClass()": "infinite",
						"getAverage()": "infinite",
						"getName_Student(string)": "infinite",
						"getStudent()": "infinite",
						"getStudentNum()": "2556",
						"getStudentfromNum(uint256)": "infinite",
						"setGrade(uint256)": "infinite",
						"setName_Student(string,uint256,uint256,string,string[])": "infinite",
						"setStudent(string,uint256,string[])": "infinite",
						"system()": "infinite"
					}
				},
				"methodIdentifiers": {
					"Bochung()": "a0111b8b",
					"FClass2()": "23abd657",
					"SClass()": "1cfd4566",
					"getAverage()": "21055acb",
					"getName_Student(string)": "d2a0e73c",
					"getStudent()": "b439548d",
					"getStudentNum()": "764892d7",
					"getStudentfromNum(uint256)": "bd44be9b",
					"setGrade(uint256)": "674271cd",
					"setName_Student(string,uint256,uint256,string,string[])": "7274e992",
					"setStudent(string,uint256,string[])": "d1170306",
					"system()": "95bf75fd"
				}
			},
			"storageLayout": {
				"storage": [
					{
						"astId": 17,
						"contract": "contracts/0511/Exam.sol:Exam",
						"label": "students",
						"offset": 0,
						"slot": "0",
						"type": "t_array(t_struct(Student)13_storage)dyn_storage"
					},
					{
						"astId": 119,
						"contract": "contracts/0511/Exam.sol:Exam",
						"label": "Name_Student",
						"offset": 0,
						"slot": "1",
						"type": "t_mapping(t_string_memory_ptr,t_struct(Student)13_storage)"
					},
					{
						"astId": 163,
						"contract": "contracts/0511/Exam.sol:Exam",
						"label": "Name_Score",
						"offset": 0,
						"slot": "2",
						"type": "t_mapping(t_string_memory_ptr,t_uint256)"
					}
				],
				"types": {
					"t_array(t_string_storage)dyn_storage": {
						"base": "t_string_storage",
						"encoding": "dynamic_array",
						"label": "string[]",
						"numberOfBytes": "32"
					},
					"t_array(t_struct(Student)13_storage)dyn_storage": {
						"base": "t_struct(Student)13_storage",
						"encoding": "dynamic_array",
						"label": "struct Exam.Student[]",
						"numberOfBytes": "32"
					},
					"t_mapping(t_string_memory_ptr,t_struct(Student)13_storage)": {
						"encoding": "mapping",
						"key": "t_string_memory_ptr",
						"label": "mapping(string => struct Exam.Student)",
						"numberOfBytes": "32",
						"value": "t_struct(Student)13_storage"
					},
					"t_mapping(t_string_memory_ptr,t_uint256)": {
						"encoding": "mapping",
						"key": "t_string_memory_ptr",
						"label": "mapping(string => uint256)",
						"numberOfBytes": "32",
						"value": "t_uint256"
					},
					"t_string_memory_ptr": {
						"encoding": "bytes",
						"label": "string",
						"numberOfBytes": "32"
					},
					"t_string_storage": {
						"encoding": "bytes",
						"label": "string",
						"numberOfBytes": "32"
					},
					"t_struct(Student)13_storage": {
						"encoding": "inplace",
						"label": "struct Exam.Student",
						"members": [
							{
								"astId": 3,
								"contract": "contracts/0511/Exam.sol:Exam",
								"label": "name",
								"offset": 0,
								"slot": "0",
								"type": "t_string_storage"
							},
							{
								"astId": 5,
								"contract": "contracts/0511/Exam.sol:Exam",
								"label": "number",
								"offset": 0,
								"slot": "1",
								"type": "t_uint256"
							},
							{
								"astId": 7,
								"contract": "contracts/0511/Exam.sol:Exam",
								"label": "score",
								"offset": 0,
								"slot": "2",
								"type": "t_uint256"
							},
							{
								"astId": 9,
								"contract": "contracts/0511/Exam.sol:Exam",
								"label": "credit",
								"offset": 0,
								"slot": "3",
								"type": "t_string_storage"
							},
							{
								"astId": 12,
								"contract": "contracts/0511/Exam.sol:Exam",
								"label": "classes",
								"offset": 0,
								"slot": "4",
								"type": "t_array(t_string_storage)dyn_storage"
							}
						],
						"numberOfBytes": "160"
					},
					"t_uint256": {
						"encoding": "inplace",
						"label": "uint256",
						"numberOfBytes": "32"
					}
				}
			},
			"userdoc": {
				"kind": "user",
				"methods": {},
				"version": 1
			}
		}
	}
}