{
	"contracts/struct.sol": {
		"Struct": {
			"abi": [
				{
					"inputs": [],
					"name": "getLength",
					"outputs": [
						{
							"internalType": "uint256",
							"name": "",
							"type": "uint256"
						}
					],
					"stateMutability": "view",
					"type": "function"
				},
				{
					"inputs": [
						{
							"internalType": "uint256",
							"name": "_n",
							"type": "uint256"
						}
					],
					"name": "getStudent",
					"outputs": [
						{
							"components": [
								{
									"internalType": "string",
									"name": "name",
									"type": "string"
								},
								{
									"internalType": "string",
									"name": "gender",
									"type": "string"
								},
								{
									"internalType": "uint256",
									"name": "number",
									"type": "uint256"
								},
								{
									"internalType": "uint256",
									"name": "birth",
									"type": "uint256"
								}
							],
							"internalType": "struct Struct.Student",
							"name": "",
							"type": "tuple"
						}
					],
					"stateMutability": "view",
					"type": "function"
				},
				{
					"inputs": [],
					"name": "getStudent",
					"outputs": [
						{
							"components": [
								{
									"internalType": "string",
									"name": "name",
									"type": "string"
								},
								{
									"internalType": "string",
									"name": "gender",
									"type": "string"
								},
								{
									"internalType": "uint256",
									"name": "number",
									"type": "uint256"
								},
								{
									"internalType": "uint256",
									"name": "birth",
									"type": "uint256"
								}
							],
							"internalType": "struct Struct.Student",
							"name": "",
							"type": "tuple"
						}
					],
					"stateMutability": "view",
					"type": "function"
				},
				{
					"inputs": [],
					"name": "getStudents",
					"outputs": [
						{
							"components": [
								{
									"internalType": "string",
									"name": "name",
									"type": "string"
								},
								{
									"internalType": "string",
									"name": "gender",
									"type": "string"
								},
								{
									"internalType": "uint256",
									"name": "number",
									"type": "uint256"
								},
								{
									"internalType": "uint256",
									"name": "birth",
									"type": "uint256"
								}
							],
							"internalType": "struct Struct.Student[]",
							"name": "",
							"type": "tuple[]"
						}
					],
					"stateMutability": "view",
					"type": "function"
				},
				{
					"inputs": [],
					"name": "popStudent",
					"outputs": [],
					"stateMutability": "nonpayable",
					"type": "function"
				},
				{
					"inputs": [
						{
							"internalType": "string",
							"name": "_name",
							"type": "string"
						},
						{
							"internalType": "string",
							"name": "_gender",
							"type": "string"
						},
						{
							"internalType": "uint256",
							"name": "_number",
							"type": "uint256"
						},
						{
							"internalType": "uint256",
							"name": "_birth",
							"type": "uint256"
						}
					],
					"name": "pushStudent",
					"outputs": [],
					"stateMutability": "nonpayable",
					"type": "function"
				},
				{
					"inputs": [
						{
							"internalType": "string",
							"name": "_name",
							"type": "string"
						},
						{
							"internalType": "string",
							"name": "gender",
							"type": "string"
						},
						{
							"internalType": "uint256",
							"name": "_number",
							"type": "uint256"
						},
						{
							"internalType": "uint256",
							"name": "_birth",
							"type": "uint256"
						}
					],
					"name": "setStudent",
					"outputs": [],
					"stateMutability": "nonpayable",
					"type": "function"
				}
			],
			"devdoc": {
				"kind": "dev",
				"methods": {},
				"version": 1
			},
			"evm": {
				"assembly": "    /* \"contracts/struct.sol\":67:1161  contract Struct {... */\n  mstore(0x40, 0x80)\n  callvalue\n  dup1\n  iszero\n  tag_1\n  jumpi\n  0x00\n  dup1\n  revert\ntag_1:\n  pop\n  dataSize(sub_0)\n  dup1\n  dataOffset(sub_0)\n  0x00\n  codecopy\n  0x00\n  return\nstop\n\nsub_0: assembly {\n        /* \"contracts/struct.sol\":67:1161  contract Struct {... */\n      mstore(0x40, 0x80)\n      callvalue\n      dup1\n      iszero\n      tag_1\n      jumpi\n      0x00\n      dup1\n      revert\n    tag_1:\n      pop\n      jumpi(tag_2, lt(calldatasize, 0x04))\n      shr(0xe0, calldataload(0x00))\n      dup1\n      0xb439548d\n      gt\n      tag_10\n      jumpi\n      dup1\n      0xb439548d\n      eq\n      tag_6\n      jumpi\n      dup1\n      0xbe1c766b\n      eq\n      tag_7\n      jumpi\n      dup1\n      0xca5d45f7\n      eq\n      tag_8\n      jumpi\n      dup1\n      0xf1d064b3\n      eq\n      tag_9\n      jumpi\n      jump(tag_2)\n    tag_10:\n      dup1\n      0x0f6a9e9b\n      eq\n      tag_3\n      jumpi\n      dup1\n      0x41571887\n      eq\n      tag_4\n      jumpi\n      dup1\n      0x642f9163\n      eq\n      tag_5\n      jumpi\n    tag_2:\n      0x00\n      dup1\n      revert\n        /* \"contracts/struct.sol\":345:504  function setStudent(string memory _name,string memory gender,  uint _number, uint _birth) public {... */\n    tag_3:\n      tag_11\n      0x04\n      dup1\n      calldatasize\n      sub\n      dup2\n      add\n      swap1\n      tag_12\n      swap2\n      swap1\n      tag_13\n      jump\t// in\n    tag_12:\n      tag_14\n      jump\t// in\n    tag_11:\n      stop\n        /* \"contracts/struct.sol\":787:849  function popStudent() public {... */\n    tag_4:\n      tag_15\n      tag_16\n      jump\t// in\n    tag_15:\n      stop\n        /* \"contracts/struct.sol\":952:1056  function getStudent(uint _n) public view returns(Student memory){... */\n    tag_5:\n      tag_17\n      0x04\n      dup1\n      calldatasize\n      sub\n      dup2\n      add\n      swap1\n      tag_18\n      swap2\n      swap1\n      tag_19\n      jump\t// in\n    tag_18:\n      tag_20\n      jump\t// in\n    tag_17:\n      mload(0x40)\n      tag_21\n      swap2\n      swap1\n      tag_22\n      jump\t// in\n    tag_21:\n      mload(0x40)\n      dup1\n      swap2\n      sub\n      swap1\n      return\n        /* \"contracts/struct.sol\":510:594  function getStudent() public view returns(Student memory){... */\n    tag_6:\n      tag_23\n      tag_24\n      jump\t// in\n    tag_23:\n      mload(0x40)\n      tag_25\n      swap2\n      swap1\n      tag_22\n      jump\t// in\n    tag_25:\n      mload(0x40)\n      dup1\n      swap2\n      sub\n      swap1\n      return\n        /* \"contracts/struct.sol\":857:944  function getLength() public view returns(uint){... */\n    tag_7:\n      tag_26\n      tag_27\n      jump\t// in\n    tag_26:\n      mload(0x40)\n      tag_28\n      swap2\n      swap1\n      tag_29\n      jump\t// in\n    tag_28:\n      mload(0x40)\n      dup1\n      swap2\n      sub\n      swap1\n      return\n        /* \"contracts/struct.sol\":606:779  function pushStudent(string memory _name, string memory _gender, uint _number, uint _birth) public {... */\n    tag_8:\n      tag_30\n      0x04\n      dup1\n      calldatasize\n      sub\n      dup2\n      add\n      swap1\n      tag_31\n      swap2\n      swap1\n      tag_13\n      jump\t// in\n    tag_31:\n      tag_32\n      jump\t// in\n    tag_30:\n      stop\n        /* \"contracts/struct.sol\":1064:1158  function getStudents() public view returns(Student[] memory){... */\n    tag_9:\n      tag_33\n      tag_34\n      jump\t// in\n    tag_33:\n      mload(0x40)\n      tag_35\n      swap2\n      swap1\n      tag_36\n      jump\t// in\n    tag_35:\n      mload(0x40)\n      dup1\n      swap2\n      sub\n      swap1\n      return\n        /* \"contracts/struct.sol\":345:504  function setStudent(string memory _name,string memory gender,  uint _number, uint _birth) public {... */\n    tag_14:\n        /* \"contracts/struct.sol\":457:496  Student(_name,  gender,_number, _birth) */\n      mload(0x40)\n      dup1\n      0x80\n      add\n      0x40\n      mstore\n      dup1\n        /* \"contracts/struct.sol\":465:470  _name */\n      dup6\n        /* \"contracts/struct.sol\":457:496  Student(_name,  gender,_number, _birth) */\n      dup2\n      mstore\n      0x20\n      add\n        /* \"contracts/struct.sol\":473:479  gender */\n      dup5\n        /* \"contracts/struct.sol\":457:496  Student(_name,  gender,_number, _birth) */\n      dup2\n      mstore\n      0x20\n      add\n        /* \"contracts/struct.sol\":480:487  _number */\n      dup4\n        /* \"contracts/struct.sol\":457:496  Student(_name,  gender,_number, _birth) */\n      dup2\n      mstore\n      0x20\n      add\n        /* \"contracts/struct.sol\":489:495  _birth */\n      dup3\n        /* \"contracts/struct.sol\":457:496  Student(_name,  gender,_number, _birth) */\n      dup2\n      mstore\n      pop\n        /* \"contracts/struct.sol\":452:453  s */\n      0x00\n        /* \"contracts/struct.sol\":452:496  s =  Student(_name,  gender,_number, _birth) */\n      dup1\n      dup3\n      add\n      mload\n      dup2\n      0x00\n      add\n      swap1\n      dup2\n      tag_38\n      swap2\n      swap1\n      tag_39\n      jump\t// in\n    tag_38:\n      pop\n      0x20\n      dup3\n      add\n      mload\n      dup2\n      0x01\n      add\n      swap1\n      dup2\n      tag_40\n      swap2\n      swap1\n      tag_39\n      jump\t// in\n    tag_40:\n      pop\n      0x40\n      dup3\n      add\n      mload\n      dup2\n      0x02\n      add\n      sstore\n      0x60\n      dup3\n      add\n      mload\n      dup2\n      0x03\n      add\n      sstore\n      swap1\n      pop\n      pop\n        /* \"contracts/struct.sol\":345:504  function setStudent(string memory _name,string memory gender,  uint _number, uint _birth) public {... */\n      pop\n      pop\n      pop\n      pop\n      jump\t// out\n        /* \"contracts/struct.sol\":787:849  function popStudent() public {... */\n    tag_16:\n        /* \"contracts/struct.sol\":827:835  students */\n      0x04\n        /* \"contracts/struct.sol\":827:841  students.pop() */\n      dup1\n      sload\n      dup1\n      tag_42\n      jumpi\n      tag_43\n      tag_44\n      jump\t// in\n    tag_43:\n    tag_42:\n      0x01\n      swap1\n      sub\n      dup2\n      dup2\n      swap1\n      0x00\n      mstore\n      keccak256(0x00, 0x20)\n      swap1\n      0x04\n      mul\n      add\n      0x00\n      dup1\n      dup3\n      add\n      0x00\n      tag_46\n      swap2\n      swap1\n      tag_47\n      jump\t// in\n    tag_46:\n      0x01\n      dup3\n      add\n      0x00\n      tag_48\n      swap2\n      swap1\n      tag_47\n      jump\t// in\n    tag_48:\n      0x02\n      dup3\n      add\n      0x00\n      swap1\n      sstore\n      0x03\n      dup3\n      add\n      0x00\n      swap1\n      sstore\n      pop\n      pop\n      swap1\n      sstore\n        /* \"contracts/struct.sol\":787:849  function popStudent() public {... */\n      jump\t// out\n        /* \"contracts/struct.sol\":952:1056  function getStudent(uint _n) public view returns(Student memory){... */\n    tag_20:\n        /* \"contracts/struct.sol\":1001:1015  Student memory */\n      tag_49\n      tag_50\n      jump\t// in\n    tag_49:\n        /* \"contracts/struct.sol\":1035:1043  students */\n      0x04\n        /* \"contracts/struct.sol\":1044:1046  _n */\n      dup3\n        /* \"contracts/struct.sol\":1035:1047  students[_n] */\n      dup2\n      sload\n      dup2\n      lt\n      tag_52\n      jumpi\n      tag_53\n      tag_54\n      jump\t// in\n    tag_53:\n    tag_52:\n      swap1\n      0x00\n      mstore\n      keccak256(0x00, 0x20)\n      swap1\n      0x04\n      mul\n      add\n        /* \"contracts/struct.sol\":1027:1048  return (students[_n]) */\n      mload(0x40)\n      dup1\n      0x80\n      add\n      0x40\n      mstore\n      swap1\n      dup2\n      0x00\n      dup3\n      add\n      dup1\n      sload\n      tag_56\n      swap1\n      tag_57\n      jump\t// in\n    tag_56:\n      dup1\n      0x1f\n      add\n      0x20\n      dup1\n      swap2\n      div\n      mul\n      0x20\n      add\n      mload(0x40)\n      swap1\n      dup2\n      add\n      0x40\n      mstore\n      dup1\n      swap3\n      swap2\n      swap1\n      dup2\n      dup2\n      mstore\n      0x20\n      add\n      dup3\n      dup1\n      sload\n      tag_58\n      swap1\n      tag_57\n      jump\t// in\n    tag_58:\n      dup1\n      iszero\n      tag_59\n      jumpi\n      dup1\n      0x1f\n      lt\n      tag_60\n      jumpi\n      0x0100\n      dup1\n      dup4\n      sload\n      div\n      mul\n      dup4\n      mstore\n      swap2\n      0x20\n      add\n      swap2\n      jump(tag_59)\n    tag_60:\n      dup3\n      add\n      swap2\n      swap1\n      0x00\n      mstore\n      keccak256(0x00, 0x20)\n      swap1\n    tag_61:\n      dup2\n      sload\n      dup2\n      mstore\n      swap1\n      0x01\n      add\n      swap1\n      0x20\n      add\n      dup1\n      dup4\n      gt\n      tag_61\n      jumpi\n      dup3\n      swap1\n      sub\n      0x1f\n      and\n      dup3\n      add\n      swap2\n    tag_59:\n      pop\n      pop\n      pop\n      pop\n      pop\n      dup2\n      mstore\n      0x20\n      add\n      0x01\n      dup3\n      add\n      dup1\n      sload\n      tag_62\n      swap1\n      tag_57\n      jump\t// in\n    tag_62:\n      dup1\n      0x1f\n      add\n      0x20\n      dup1\n      swap2\n      div\n      mul\n      0x20\n      add\n      mload(0x40)\n      swap1\n      dup2\n      add\n      0x40\n      mstore\n      dup1\n      swap3\n      swap2\n      swap1\n      dup2\n      dup2\n      mstore\n      0x20\n      add\n      dup3\n      dup1\n      sload\n      tag_63\n      swap1\n      tag_57\n      jump\t// in\n    tag_63:\n      dup1\n      iszero\n      tag_64\n      jumpi\n      dup1\n      0x1f\n      lt\n      tag_65\n      jumpi\n      0x0100\n      dup1\n      dup4\n      sload\n      div\n      mul\n      dup4\n      mstore\n      swap2\n      0x20\n      add\n      swap2\n      jump(tag_64)\n    tag_65:\n      dup3\n      add\n      swap2\n      swap1\n      0x00\n      mstore\n      keccak256(0x00, 0x20)\n      swap1\n    tag_66:\n      dup2\n      sload\n      dup2\n      mstore\n      swap1\n      0x01\n      add\n      swap1\n      0x20\n      add\n      dup1\n      dup4\n      gt\n      tag_66\n      jumpi\n      dup3\n      swap1\n      sub\n      0x1f\n      and\n      dup3\n      add\n      swap2\n    tag_64:\n      pop\n      pop\n      pop\n      pop\n      pop\n      dup2\n      mstore\n      0x20\n      add\n      0x02\n      dup3\n      add\n      sload\n      dup2\n      mstore\n      0x20\n      add\n      0x03\n      dup3\n      add\n      sload\n      dup2\n      mstore\n      pop\n      pop\n      swap1\n      pop\n        /* \"contracts/struct.sol\":952:1056  function getStudent(uint _n) public view returns(Student memory){... */\n      swap2\n      swap1\n      pop\n      jump\t// out\n        /* \"contracts/struct.sol\":510:594  function getStudent() public view returns(Student memory){... */\n    tag_24:\n        /* \"contracts/struct.sol\":552:566  Student memory */\n      tag_67\n      tag_50\n      jump\t// in\n    tag_67:\n        /* \"contracts/struct.sol\":585:586  s */\n      0x00\n        /* \"contracts/struct.sol\":578:586  return s */\n      mload(0x40)\n      dup1\n      0x80\n      add\n      0x40\n      mstore\n      swap1\n      dup2\n      0x00\n      dup3\n      add\n      dup1\n      sload\n      tag_69\n      swap1\n      tag_57\n      jump\t// in\n    tag_69:\n      dup1\n      0x1f\n      add\n      0x20\n      dup1\n      swap2\n      div\n      mul\n      0x20\n      add\n      mload(0x40)\n      swap1\n      dup2\n      add\n      0x40\n      mstore\n      dup1\n      swap3\n      swap2\n      swap1\n      dup2\n      dup2\n      mstore\n      0x20\n      add\n      dup3\n      dup1\n      sload\n      tag_70\n      swap1\n      tag_57\n      jump\t// in\n    tag_70:\n      dup1\n      iszero\n      tag_71\n      jumpi\n      dup1\n      0x1f\n      lt\n      tag_72\n      jumpi\n      0x0100\n      dup1\n      dup4\n      sload\n      div\n      mul\n      dup4\n      mstore\n      swap2\n      0x20\n      add\n      swap2\n      jump(tag_71)\n    tag_72:\n      dup3\n      add\n      swap2\n      swap1\n      0x00\n      mstore\n      keccak256(0x00, 0x20)\n      swap1\n    tag_73:\n      dup2\n      sload\n      dup2\n      mstore\n      swap1\n      0x01\n      add\n      swap1\n      0x20\n      add\n      dup1\n      dup4\n      gt\n      tag_73\n      jumpi\n      dup3\n      swap1\n      sub\n      0x1f\n      and\n      dup3\n      add\n      swap2\n    tag_71:\n      pop\n      pop\n      pop\n      pop\n      pop\n      dup2\n      mstore\n      0x20\n      add\n      0x01\n      dup3\n      add\n      dup1\n      sload\n      tag_74\n      swap1\n      tag_57\n      jump\t// in\n    tag_74:\n      dup1\n      0x1f\n      add\n      0x20\n      dup1\n      swap2\n      div\n      mul\n      0x20\n      add\n      mload(0x40)\n      swap1\n      dup2\n      add\n      0x40\n      mstore\n      dup1\n      swap3\n      swap2\n      swap1\n      dup2\n      dup2\n      mstore\n      0x20\n      add\n      dup3\n      dup1\n      sload\n      tag_75\n      swap1\n      tag_57\n      jump\t// in\n    tag_75:\n      dup1\n      iszero\n      tag_76\n      jumpi\n      dup1\n      0x1f\n      lt\n      tag_77\n      jumpi\n      0x0100\n      dup1\n      dup4\n      sload\n      div\n      mul\n      dup4\n      mstore\n      swap2\n      0x20\n      add\n      swap2\n      jump(tag_76)\n    tag_77:\n      dup3\n      add\n      swap2\n      swap1\n      0x00\n      mstore\n      keccak256(0x00, 0x20)\n      swap1\n    tag_78:\n      dup2\n      sload\n      dup2\n      mstore\n      swap1\n      0x01\n      add\n      swap1\n      0x20\n      add\n      dup1\n      dup4\n      gt\n      tag_78\n      jumpi\n      dup3\n      swap1\n      sub\n      0x1f\n      and\n      dup3\n      add\n      swap2\n    tag_76:\n      pop\n      pop\n      pop\n      pop\n      pop\n      dup2\n      mstore\n      0x20\n      add\n      0x02\n      dup3\n      add\n      sload\n      dup2\n      mstore\n      0x20\n      add\n      0x03\n      dup3\n      add\n      sload\n      dup2\n      mstore\n      pop\n      pop\n      swap1\n      pop\n        /* \"contracts/struct.sol\":510:594  function getStudent() public view returns(Student memory){... */\n      swap1\n      jump\t// out\n        /* \"contracts/struct.sol\":857:944  function getLength() public view returns(uint){... */\n    tag_27:\n        /* \"contracts/struct.sol\":898:902  uint */\n      0x00\n        /* \"contracts/struct.sol\":921:929  students */\n      0x04\n        /* \"contracts/struct.sol\":921:936  students.length */\n      dup1\n      sload\n      swap1\n      pop\n        /* \"contracts/struct.sol\":914:936  return students.length */\n      swap1\n      pop\n        /* \"contracts/struct.sol\":857:944  function getLength() public view returns(uint){... */\n      swap1\n      jump\t// out\n        /* \"contracts/struct.sol\":606:779  function pushStudent(string memory _name, string memory _gender, uint _number, uint _birth) public {... */\n    tag_32:\n        /* \"contracts/struct.sol\":716:724  students */\n      0x04\n        /* \"contracts/struct.sol\":730:770  Student(_name, _gender, _number, _birth) */\n      mload(0x40)\n      dup1\n      0x80\n      add\n      0x40\n      mstore\n      dup1\n        /* \"contracts/struct.sol\":738:743  _name */\n      dup7\n        /* \"contracts/struct.sol\":730:770  Student(_name, _gender, _number, _birth) */\n      dup2\n      mstore\n      0x20\n      add\n        /* \"contracts/struct.sol\":745:752  _gender */\n      dup6\n        /* \"contracts/struct.sol\":730:770  Student(_name, _gender, _number, _birth) */\n      dup2\n      mstore\n      0x20\n      add\n        /* \"contracts/struct.sol\":754:761  _number */\n      dup5\n        /* \"contracts/struct.sol\":730:770  Student(_name, _gender, _number, _birth) */\n      dup2\n      mstore\n      0x20\n      add\n        /* \"contracts/struct.sol\":763:769  _birth */\n      dup4\n        /* \"contracts/struct.sol\":730:770  Student(_name, _gender, _number, _birth) */\n      dup2\n      mstore\n      pop\n        /* \"contracts/struct.sol\":716:771  students.push(Student(_name, _gender, _number, _birth)) */\n      swap1\n      dup1\n      0x01\n      dup2\n      sload\n      add\n      dup1\n      dup3\n      sstore\n      dup1\n      swap2\n      pop\n      pop\n      0x01\n      swap1\n      sub\n      swap1\n      0x00\n      mstore\n      keccak256(0x00, 0x20)\n      swap1\n      0x04\n      mul\n      add\n      0x00\n      swap1\n      swap2\n      swap1\n      swap2\n      swap1\n      swap2\n      pop\n      0x00\n      dup3\n      add\n      mload\n      dup2\n      0x00\n      add\n      swap1\n      dup2\n      tag_82\n      swap2\n      swap1\n      tag_39\n      jump\t// in\n    tag_82:\n      pop\n      0x20\n      dup3\n      add\n      mload\n      dup2\n      0x01\n      add\n      swap1\n      dup2\n      tag_83\n      swap2\n      swap1\n      tag_39\n      jump\t// in\n    tag_83:\n      pop\n      0x40\n      dup3\n      add\n      mload\n      dup2\n      0x02\n      add\n      sstore\n      0x60\n      dup3\n      add\n      mload\n      dup2\n      0x03\n      add\n      sstore\n      pop\n      pop\n        /* \"contracts/struct.sol\":606:779  function pushStudent(string memory _name, string memory _gender, uint _number, uint _birth) public {... */\n      pop\n      pop\n      pop\n      pop\n      jump\t// out\n        /* \"contracts/struct.sol\":1064:1158  function getStudents() public view returns(Student[] memory){... */\n    tag_34:\n        /* \"contracts/struct.sol\":1107:1123  Student[] memory */\n      0x60\n        /* \"contracts/struct.sol\":1142:1150  students */\n      0x04\n        /* \"contracts/struct.sol\":1135:1150  return students */\n      dup1\n      sload\n      dup1\n      0x20\n      mul\n      0x20\n      add\n      mload(0x40)\n      swap1\n      dup2\n      add\n      0x40\n      mstore\n      dup1\n      swap3\n      swap2\n      swap1\n      dup2\n      dup2\n      mstore\n      0x20\n      add\n      0x00\n      swap1\n    tag_85:\n      dup3\n      dup3\n      lt\n      iszero\n      tag_86\n      jumpi\n      dup4\n      dup3\n      swap1\n      0x00\n      mstore\n      keccak256(0x00, 0x20)\n      swap1\n      0x04\n      mul\n      add\n      mload(0x40)\n      dup1\n      0x80\n      add\n      0x40\n      mstore\n      swap1\n      dup2\n      0x00\n      dup3\n      add\n      dup1\n      sload\n      tag_88\n      swap1\n      tag_57\n      jump\t// in\n    tag_88:\n      dup1\n      0x1f\n      add\n      0x20\n      dup1\n      swap2\n      div\n      mul\n      0x20\n      add\n      mload(0x40)\n      swap1\n      dup2\n      add\n      0x40\n      mstore\n      dup1\n      swap3\n      swap2\n      swap1\n      dup2\n      dup2\n      mstore\n      0x20\n      add\n      dup3\n      dup1\n      sload\n      tag_89\n      swap1\n      tag_57\n      jump\t// in\n    tag_89:\n      dup1\n      iszero\n      tag_90\n      jumpi\n      dup1\n      0x1f\n      lt\n      tag_91\n      jumpi\n      0x0100\n      dup1\n      dup4\n      sload\n      div\n      mul\n      dup4\n      mstore\n      swap2\n      0x20\n      add\n      swap2\n      jump(tag_90)\n    tag_91:\n      dup3\n      add\n      swap2\n      swap1\n      0x00\n      mstore\n      keccak256(0x00, 0x20)\n      swap1\n    tag_92:\n      dup2\n      sload\n      dup2\n      mstore\n      swap1\n      0x01\n      add\n      swap1\n      0x20\n      add\n      dup1\n      dup4\n      gt\n      tag_92\n      jumpi\n      dup3\n      swap1\n      sub\n      0x1f\n      and\n      dup3\n      add\n      swap2\n    tag_90:\n      pop\n      pop\n      pop\n      pop\n      pop\n      dup2\n      mstore\n      0x20\n      add\n      0x01\n      dup3\n      add\n      dup1\n      sload\n      tag_93\n      swap1\n      tag_57\n      jump\t// in\n    tag_93:\n      dup1\n      0x1f\n      add\n      0x20\n      dup1\n      swap2\n      div\n      mul\n      0x20\n      add\n      mload(0x40)\n      swap1\n      dup2\n      add\n      0x40\n      mstore\n      dup1\n      swap3\n      swap2\n      swap1\n      dup2\n      dup2\n      mstore\n      0x20\n      add\n      dup3\n      dup1\n      sload\n      tag_94\n      swap1\n      tag_57\n      jump\t// in\n    tag_94:\n      dup1\n      iszero\n      tag_95\n      jumpi\n      dup1\n      0x1f\n      lt\n      tag_96\n      jumpi\n      0x0100\n      dup1\n      dup4\n      sload\n      div\n      mul\n      dup4\n      mstore\n      swap2\n      0x20\n      add\n      swap2\n      jump(tag_95)\n    tag_96:\n      dup3\n      add\n      swap2\n      swap1\n      0x00\n      mstore\n      keccak256(0x00, 0x20)\n      swap1\n    tag_97:\n      dup2\n      sload\n      dup2\n      mstore\n      swap1\n      0x01\n      add\n      swap1\n      0x20\n      add\n      dup1\n      dup4\n      gt\n      tag_97\n      jumpi\n      dup3\n      swap1\n      sub\n      0x1f\n      and\n      dup3\n      add\n      swap2\n    tag_95:\n      pop\n      pop\n      pop\n      pop\n      pop\n      dup2\n      mstore\n      0x20\n      add\n      0x02\n      dup3\n      add\n      sload\n      dup2\n      mstore\n      0x20\n      add\n      0x03\n      dup3\n      add\n      sload\n      dup2\n      mstore\n      pop\n      pop\n      dup2\n      mstore\n      0x20\n      add\n      swap1\n      0x01\n      add\n      swap1\n      jump(tag_85)\n    tag_86:\n      pop\n      pop\n      pop\n      pop\n      swap1\n      pop\n        /* \"contracts/struct.sol\":1064:1158  function getStudents() public view returns(Student[] memory){... */\n      swap1\n      jump\t// out\n    tag_47:\n      pop\n      dup1\n      sload\n      tag_98\n      swap1\n      tag_57\n      jump\t// in\n    tag_98:\n      0x00\n      dup3\n      sstore\n      dup1\n      0x1f\n      lt\n      tag_100\n      jumpi\n      pop\n      jump(tag_99)\n    tag_100:\n      0x1f\n      add\n      0x20\n      swap1\n      div\n      swap1\n      0x00\n      mstore\n      keccak256(0x00, 0x20)\n      swap1\n      dup2\n      add\n      swap1\n      tag_101\n      swap2\n      swap1\n      tag_102\n      jump\t// in\n    tag_101:\n    tag_99:\n      pop\n      jump\t// out\n    tag_50:\n      mload(0x40)\n      dup1\n      0x80\n      add\n      0x40\n      mstore\n      dup1\n      0x60\n      dup2\n      mstore\n      0x20\n      add\n      0x60\n      dup2\n      mstore\n      0x20\n      add\n      0x00\n      dup2\n      mstore\n      0x20\n      add\n      0x00\n      dup2\n      mstore\n      pop\n      swap1\n      jump\t// out\n    tag_102:\n    tag_103:\n      dup1\n      dup3\n      gt\n      iszero\n      tag_104\n      jumpi\n      0x00\n      dup2\n      0x00\n      swap1\n      sstore\n      pop\n      0x01\n      add\n      jump(tag_103)\n    tag_104:\n      pop\n      swap1\n      jump\t// out\n        /* \"#utility.yul\":7:82   */\n    tag_105:\n        /* \"#utility.yul\":40:46   */\n      0x00\n        /* \"#utility.yul\":73:75   */\n      0x40\n        /* \"#utility.yul\":67:76   */\n      mload\n        /* \"#utility.yul\":57:76   */\n      swap1\n      pop\n        /* \"#utility.yul\":7:82   */\n      swap1\n      jump\t// out\n        /* \"#utility.yul\":88:205   */\n    tag_106:\n        /* \"#utility.yul\":197:198   */\n      0x00\n        /* \"#utility.yul\":194:195   */\n      dup1\n        /* \"#utility.yul\":187:199   */\n      revert\n        /* \"#utility.yul\":211:328   */\n    tag_107:\n        /* \"#utility.yul\":320:321   */\n      0x00\n        /* \"#utility.yul\":317:318   */\n      dup1\n        /* \"#utility.yul\":310:322   */\n      revert\n        /* \"#utility.yul\":334:451   */\n    tag_108:\n        /* \"#utility.yul\":443:444   */\n      0x00\n        /* \"#utility.yul\":440:441   */\n      dup1\n        /* \"#utility.yul\":433:445   */\n      revert\n        /* \"#utility.yul\":457:574   */\n    tag_109:\n        /* \"#utility.yul\":566:567   */\n      0x00\n        /* \"#utility.yul\":563:564   */\n      dup1\n        /* \"#utility.yul\":556:568   */\n      revert\n        /* \"#utility.yul\":580:682   */\n    tag_110:\n        /* \"#utility.yul\":621:627   */\n      0x00\n        /* \"#utility.yul\":672:674   */\n      0x1f\n        /* \"#utility.yul\":668:675   */\n      not\n        /* \"#utility.yul\":663:665   */\n      0x1f\n        /* \"#utility.yul\":656:661   */\n      dup4\n        /* \"#utility.yul\":652:666   */\n      add\n        /* \"#utility.yul\":648:676   */\n      and\n        /* \"#utility.yul\":638:676   */\n      swap1\n      pop\n        /* \"#utility.yul\":580:682   */\n      swap2\n      swap1\n      pop\n      jump\t// out\n        /* \"#utility.yul\":688:868   */\n    tag_111:\n        /* \"#utility.yul\":736:813   */\n      0x4e487b7100000000000000000000000000000000000000000000000000000000\n        /* \"#utility.yul\":733:734   */\n      0x00\n        /* \"#utility.yul\":726:814   */\n      mstore\n        /* \"#utility.yul\":833:837   */\n      0x41\n        /* \"#utility.yul\":830:831   */\n      0x04\n        /* \"#utility.yul\":823:838   */\n      mstore\n        /* \"#utility.yul\":857:861   */\n      0x24\n        /* \"#utility.yul\":854:855   */\n      0x00\n        /* \"#utility.yul\":847:862   */\n      revert\n        /* \"#utility.yul\":874:1155   */\n    tag_112:\n        /* \"#utility.yul\":957:984   */\n      tag_160\n        /* \"#utility.yul\":979:983   */\n      dup3\n        /* \"#utility.yul\":957:984   */\n      tag_110\n      jump\t// in\n    tag_160:\n        /* \"#utility.yul\":949:955   */\n      dup2\n        /* \"#utility.yul\":945:985   */\n      add\n        /* \"#utility.yul\":1087:1093   */\n      dup2\n        /* \"#utility.yul\":1075:1085   */\n      dup2\n        /* \"#utility.yul\":1072:1094   */\n      lt\n        /* \"#utility.yul\":1051:1069   */\n      0xffffffffffffffff\n        /* \"#utility.yul\":1039:1049   */\n      dup3\n        /* \"#utility.yul\":1036:1070   */\n      gt\n        /* \"#utility.yul\":1033:1095   */\n      or\n        /* \"#utility.yul\":1030:1118   */\n      iszero\n      tag_161\n      jumpi\n        /* \"#utility.yul\":1098:1116   */\n      tag_162\n      tag_111\n      jump\t// in\n    tag_162:\n        /* \"#utility.yul\":1030:1118   */\n    tag_161:\n        /* \"#utility.yul\":1138:1148   */\n      dup1\n        /* \"#utility.yul\":1134:1136   */\n      0x40\n        /* \"#utility.yul\":1127:1149   */\n      mstore\n        /* \"#utility.yul\":917:1155   */\n      pop\n        /* \"#utility.yul\":874:1155   */\n      pop\n      pop\n      jump\t// out\n        /* \"#utility.yul\":1161:1290   */\n    tag_113:\n        /* \"#utility.yul\":1195:1201   */\n      0x00\n        /* \"#utility.yul\":1222:1242   */\n      tag_164\n      tag_105\n      jump\t// in\n    tag_164:\n        /* \"#utility.yul\":1212:1242   */\n      swap1\n      pop\n        /* \"#utility.yul\":1251:1284   */\n      tag_165\n        /* \"#utility.yul\":1279:1283   */\n      dup3\n        /* \"#utility.yul\":1271:1277   */\n      dup3\n        /* \"#utility.yul\":1251:1284   */\n      tag_112\n      jump\t// in\n    tag_165:\n        /* \"#utility.yul\":1161:1290   */\n      swap2\n      swap1\n      pop\n      jump\t// out\n        /* \"#utility.yul\":1296:1604   */\n    tag_114:\n        /* \"#utility.yul\":1358:1362   */\n      0x00\n        /* \"#utility.yul\":1448:1466   */\n      0xffffffffffffffff\n        /* \"#utility.yul\":1440:1446   */\n      dup3\n        /* \"#utility.yul\":1437:1467   */\n      gt\n        /* \"#utility.yul\":1434:1490   */\n      iszero\n      tag_167\n      jumpi\n        /* \"#utility.yul\":1470:1488   */\n      tag_168\n      tag_111\n      jump\t// in\n    tag_168:\n        /* \"#utility.yul\":1434:1490   */\n    tag_167:\n        /* \"#utility.yul\":1508:1537   */\n      tag_169\n        /* \"#utility.yul\":1530:1536   */\n      dup3\n        /* \"#utility.yul\":1508:1537   */\n      tag_110\n      jump\t// in\n    tag_169:\n        /* \"#utility.yul\":1500:1537   */\n      swap1\n      pop\n        /* \"#utility.yul\":1592:1596   */\n      0x20\n        /* \"#utility.yul\":1586:1590   */\n      dup2\n        /* \"#utility.yul\":1582:1597   */\n      add\n        /* \"#utility.yul\":1574:1597   */\n      swap1\n      pop\n        /* \"#utility.yul\":1296:1604   */\n      swap2\n      swap1\n      pop\n      jump\t// out\n        /* \"#utility.yul\":1610:1756   */\n    tag_115:\n        /* \"#utility.yul\":1707:1713   */\n      dup3\n        /* \"#utility.yul\":1702:1705   */\n      dup2\n        /* \"#utility.yul\":1697:1700   */\n      dup4\n        /* \"#utility.yul\":1684:1714   */\n      calldatacopy\n        /* \"#utility.yul\":1748:1749   */\n      0x00\n        /* \"#utility.yul\":1739:1745   */\n      dup4\n        /* \"#utility.yul\":1734:1737   */\n      dup4\n        /* \"#utility.yul\":1730:1746   */\n      add\n        /* \"#utility.yul\":1723:1750   */\n      mstore\n        /* \"#utility.yul\":1610:1756   */\n      pop\n      pop\n      pop\n      jump\t// out\n        /* \"#utility.yul\":1762:2187   */\n    tag_116:\n        /* \"#utility.yul\":1840:1845   */\n      0x00\n        /* \"#utility.yul\":1865:1931   */\n      tag_172\n        /* \"#utility.yul\":1881:1930   */\n      tag_173\n        /* \"#utility.yul\":1923:1929   */\n      dup5\n        /* \"#utility.yul\":1881:1930   */\n      tag_114\n      jump\t// in\n    tag_173:\n        /* \"#utility.yul\":1865:1931   */\n      tag_113\n      jump\t// in\n    tag_172:\n        /* \"#utility.yul\":1856:1931   */\n      swap1\n      pop\n        /* \"#utility.yul\":1954:1960   */\n      dup3\n        /* \"#utility.yul\":1947:1952   */\n      dup2\n        /* \"#utility.yul\":1940:1961   */\n      mstore\n        /* \"#utility.yul\":1992:1996   */\n      0x20\n        /* \"#utility.yul\":1985:1990   */\n      dup2\n        /* \"#utility.yul\":1981:1997   */\n      add\n        /* \"#utility.yul\":2030:2033   */\n      dup5\n        /* \"#utility.yul\":2021:2027   */\n      dup5\n        /* \"#utility.yul\":2016:2019   */\n      dup5\n        /* \"#utility.yul\":2012:2028   */\n      add\n        /* \"#utility.yul\":2009:2034   */\n      gt\n        /* \"#utility.yul\":2006:2118   */\n      iszero\n      tag_174\n      jumpi\n        /* \"#utility.yul\":2037:2116   */\n      tag_175\n      tag_109\n      jump\t// in\n    tag_175:\n        /* \"#utility.yul\":2006:2118   */\n    tag_174:\n        /* \"#utility.yul\":2127:2181   */\n      tag_176\n        /* \"#utility.yul\":2174:2180   */\n      dup5\n        /* \"#utility.yul\":2169:2172   */\n      dup3\n        /* \"#utility.yul\":2164:2167   */\n      dup6\n        /* \"#utility.yul\":2127:2181   */\n      tag_115\n      jump\t// in\n    tag_176:\n        /* \"#utility.yul\":1846:2187   */\n      pop\n        /* \"#utility.yul\":1762:2187   */\n      swap4\n      swap3\n      pop\n      pop\n      pop\n      jump\t// out\n        /* \"#utility.yul\":2207:2547   */\n    tag_117:\n        /* \"#utility.yul\":2263:2268   */\n      0x00\n        /* \"#utility.yul\":2312:2315   */\n      dup3\n        /* \"#utility.yul\":2305:2309   */\n      0x1f\n        /* \"#utility.yul\":2297:2303   */\n      dup4\n        /* \"#utility.yul\":2293:2310   */\n      add\n        /* \"#utility.yul\":2289:2316   */\n      slt\n        /* \"#utility.yul\":2279:2401   */\n      tag_178\n      jumpi\n        /* \"#utility.yul\":2320:2399   */\n      tag_179\n      tag_108\n      jump\t// in\n    tag_179:\n        /* \"#utility.yul\":2279:2401   */\n    tag_178:\n        /* \"#utility.yul\":2437:2443   */\n      dup2\n        /* \"#utility.yul\":2424:2444   */\n      calldataload\n        /* \"#utility.yul\":2462:2541   */\n      tag_180\n        /* \"#utility.yul\":2537:2540   */\n      dup5\n        /* \"#utility.yul\":2529:2535   */\n      dup3\n        /* \"#utility.yul\":2522:2526   */\n      0x20\n        /* \"#utility.yul\":2514:2520   */\n      dup7\n        /* \"#utility.yul\":2510:2527   */\n      add\n        /* \"#utility.yul\":2462:2541   */\n      tag_116\n      jump\t// in\n    tag_180:\n        /* \"#utility.yul\":2453:2541   */\n      swap2\n      pop\n        /* \"#utility.yul\":2269:2547   */\n      pop\n        /* \"#utility.yul\":2207:2547   */\n      swap3\n      swap2\n      pop\n      pop\n      jump\t// out\n        /* \"#utility.yul\":2553:2630   */\n    tag_118:\n        /* \"#utility.yul\":2590:2597   */\n      0x00\n        /* \"#utility.yul\":2619:2624   */\n      dup2\n        /* \"#utility.yul\":2608:2624   */\n      swap1\n      pop\n        /* \"#utility.yul\":2553:2630   */\n      swap2\n      swap1\n      pop\n      jump\t// out\n        /* \"#utility.yul\":2636:2758   */\n    tag_119:\n        /* \"#utility.yul\":2709:2733   */\n      tag_183\n        /* \"#utility.yul\":2727:2732   */\n      dup2\n        /* \"#utility.yul\":2709:2733   */\n      tag_118\n      jump\t// in\n    tag_183:\n        /* \"#utility.yul\":2702:2707   */\n      dup2\n        /* \"#utility.yul\":2699:2734   */\n      eq\n        /* \"#utility.yul\":2689:2752   */\n      tag_184\n      jumpi\n        /* \"#utility.yul\":2748:2749   */\n      0x00\n        /* \"#utility.yul\":2745:2746   */\n      dup1\n        /* \"#utility.yul\":2738:2750   */\n      revert\n        /* \"#utility.yul\":2689:2752   */\n    tag_184:\n        /* \"#utility.yul\":2636:2758   */\n      pop\n      jump\t// out\n        /* \"#utility.yul\":2764:2903   */\n    tag_120:\n        /* \"#utility.yul\":2810:2815   */\n      0x00\n        /* \"#utility.yul\":2848:2854   */\n      dup2\n        /* \"#utility.yul\":2835:2855   */\n      calldataload\n        /* \"#utility.yul\":2826:2855   */\n      swap1\n      pop\n        /* \"#utility.yul\":2864:2897   */\n      tag_186\n        /* \"#utility.yul\":2891:2896   */\n      dup2\n        /* \"#utility.yul\":2864:2897   */\n      tag_119\n      jump\t// in\n    tag_186:\n        /* \"#utility.yul\":2764:2903   */\n      swap3\n      swap2\n      pop\n      pop\n      jump\t// out\n        /* \"#utility.yul\":2909:4034   */\n    tag_13:\n        /* \"#utility.yul\":3015:3021   */\n      0x00\n        /* \"#utility.yul\":3023:3029   */\n      dup1\n        /* \"#utility.yul\":3031:3037   */\n      0x00\n        /* \"#utility.yul\":3039:3045   */\n      dup1\n        /* \"#utility.yul\":3088:3091   */\n      0x80\n        /* \"#utility.yul\":3076:3085   */\n      dup6\n        /* \"#utility.yul\":3067:3074   */\n      dup8\n        /* \"#utility.yul\":3063:3086   */\n      sub\n        /* \"#utility.yul\":3059:3092   */\n      slt\n        /* \"#utility.yul\":3056:3176   */\n      iszero\n      tag_188\n      jumpi\n        /* \"#utility.yul\":3095:3174   */\n      tag_189\n      tag_106\n      jump\t// in\n    tag_189:\n        /* \"#utility.yul\":3056:3176   */\n    tag_188:\n        /* \"#utility.yul\":3243:3244   */\n      0x00\n        /* \"#utility.yul\":3232:3241   */\n      dup6\n        /* \"#utility.yul\":3228:3245   */\n      add\n        /* \"#utility.yul\":3215:3246   */\n      calldataload\n        /* \"#utility.yul\":3273:3291   */\n      0xffffffffffffffff\n        /* \"#utility.yul\":3265:3271   */\n      dup2\n        /* \"#utility.yul\":3262:3292   */\n      gt\n        /* \"#utility.yul\":3259:3376   */\n      iszero\n      tag_190\n      jumpi\n        /* \"#utility.yul\":3295:3374   */\n      tag_191\n      tag_107\n      jump\t// in\n    tag_191:\n        /* \"#utility.yul\":3259:3376   */\n    tag_190:\n        /* \"#utility.yul\":3400:3463   */\n      tag_192\n        /* \"#utility.yul\":3455:3462   */\n      dup8\n        /* \"#utility.yul\":3446:3452   */\n      dup3\n        /* \"#utility.yul\":3435:3444   */\n      dup9\n        /* \"#utility.yul\":3431:3453   */\n      add\n        /* \"#utility.yul\":3400:3463   */\n      tag_117\n      jump\t// in\n    tag_192:\n        /* \"#utility.yul\":3390:3463   */\n      swap5\n      pop\n        /* \"#utility.yul\":3186:3473   */\n      pop\n        /* \"#utility.yul\":3540:3542   */\n      0x20\n        /* \"#utility.yul\":3529:3538   */\n      dup6\n        /* \"#utility.yul\":3525:3543   */\n      add\n        /* \"#utility.yul\":3512:3544   */\n      calldataload\n        /* \"#utility.yul\":3571:3589   */\n      0xffffffffffffffff\n        /* \"#utility.yul\":3563:3569   */\n      dup2\n        /* \"#utility.yul\":3560:3590   */\n      gt\n        /* \"#utility.yul\":3557:3674   */\n      iszero\n      tag_193\n      jumpi\n        /* \"#utility.yul\":3593:3672   */\n      tag_194\n      tag_107\n      jump\t// in\n    tag_194:\n        /* \"#utility.yul\":3557:3674   */\n    tag_193:\n        /* \"#utility.yul\":3698:3761   */\n      tag_195\n        /* \"#utility.yul\":3753:3760   */\n      dup8\n        /* \"#utility.yul\":3744:3750   */\n      dup3\n        /* \"#utility.yul\":3733:3742   */\n      dup9\n        /* \"#utility.yul\":3729:3751   */\n      add\n        /* \"#utility.yul\":3698:3761   */\n      tag_117\n      jump\t// in\n    tag_195:\n        /* \"#utility.yul\":3688:3761   */\n      swap4\n      pop\n        /* \"#utility.yul\":3483:3771   */\n      pop\n        /* \"#utility.yul\":3810:3812   */\n      0x40\n        /* \"#utility.yul\":3836:3889   */\n      tag_196\n        /* \"#utility.yul\":3881:3888   */\n      dup8\n        /* \"#utility.yul\":3872:3878   */\n      dup3\n        /* \"#utility.yul\":3861:3870   */\n      dup9\n        /* \"#utility.yul\":3857:3879   */\n      add\n        /* \"#utility.yul\":3836:3889   */\n      tag_120\n      jump\t// in\n    tag_196:\n        /* \"#utility.yul\":3826:3889   */\n      swap3\n      pop\n        /* \"#utility.yul\":3781:3899   */\n      pop\n        /* \"#utility.yul\":3938:3940   */\n      0x60\n        /* \"#utility.yul\":3964:4017   */\n      tag_197\n        /* \"#utility.yul\":4009:4016   */\n      dup8\n        /* \"#utility.yul\":4000:4006   */\n      dup3\n        /* \"#utility.yul\":3989:3998   */\n      dup9\n        /* \"#utility.yul\":3985:4007   */\n      add\n        /* \"#utility.yul\":3964:4017   */\n      tag_120\n      jump\t// in\n    tag_197:\n        /* \"#utility.yul\":3954:4017   */\n      swap2\n      pop\n        /* \"#utility.yul\":3909:4027   */\n      pop\n        /* \"#utility.yul\":2909:4034   */\n      swap3\n      swap6\n      swap2\n      swap5\n      pop\n      swap3\n      pop\n      jump\t// out\n        /* \"#utility.yul\":4040:4369   */\n    tag_19:\n        /* \"#utility.yul\":4099:4105   */\n      0x00\n        /* \"#utility.yul\":4148:4150   */\n      0x20\n        /* \"#utility.yul\":4136:4145   */\n      dup3\n        /* \"#utility.yul\":4127:4134   */\n      dup5\n        /* \"#utility.yul\":4123:4146   */\n      sub\n        /* \"#utility.yul\":4119:4151   */\n      slt\n        /* \"#utility.yul\":4116:4235   */\n      iszero\n      tag_199\n      jumpi\n        /* \"#utility.yul\":4154:4233   */\n      tag_200\n      tag_106\n      jump\t// in\n    tag_200:\n        /* \"#utility.yul\":4116:4235   */\n    tag_199:\n        /* \"#utility.yul\":4274:4275   */\n      0x00\n        /* \"#utility.yul\":4299:4352   */\n      tag_201\n        /* \"#utility.yul\":4344:4351   */\n      dup5\n        /* \"#utility.yul\":4335:4341   */\n      dup3\n        /* \"#utility.yul\":4324:4333   */\n      dup6\n        /* \"#utility.yul\":4320:4342   */\n      add\n        /* \"#utility.yul\":4299:4352   */\n      tag_120\n      jump\t// in\n    tag_201:\n        /* \"#utility.yul\":4289:4352   */\n      swap2\n      pop\n        /* \"#utility.yul\":4245:4362   */\n      pop\n        /* \"#utility.yul\":4040:4369   */\n      swap3\n      swap2\n      pop\n      pop\n      jump\t// out\n        /* \"#utility.yul\":4375:4474   */\n    tag_121:\n        /* \"#utility.yul\":4427:4433   */\n      0x00\n        /* \"#utility.yul\":4461:4466   */\n      dup2\n        /* \"#utility.yul\":4455:4467   */\n      mload\n        /* \"#utility.yul\":4445:4467   */\n      swap1\n      pop\n        /* \"#utility.yul\":4375:4474   */\n      swap2\n      swap1\n      pop\n      jump\t// out\n        /* \"#utility.yul\":4480:4639   */\n    tag_122:\n        /* \"#utility.yul\":4554:4565   */\n      0x00\n        /* \"#utility.yul\":4588:4594   */\n      dup3\n        /* \"#utility.yul\":4583:4586   */\n      dup3\n        /* \"#utility.yul\":4576:4595   */\n      mstore\n        /* \"#utility.yul\":4628:4632   */\n      0x20\n        /* \"#utility.yul\":4623:4626   */\n      dup3\n        /* \"#utility.yul\":4619:4633   */\n      add\n        /* \"#utility.yul\":4604:4633   */\n      swap1\n      pop\n        /* \"#utility.yul\":4480:4639   */\n      swap3\n      swap2\n      pop\n      pop\n      jump\t// out\n        /* \"#utility.yul\":4645:4891   */\n    tag_123:\n        /* \"#utility.yul\":4726:4727   */\n      0x00\n        /* \"#utility.yul\":4736:4849   */\n    tag_205:\n        /* \"#utility.yul\":4750:4756   */\n      dup4\n        /* \"#utility.yul\":4747:4748   */\n      dup2\n        /* \"#utility.yul\":4744:4757   */\n      lt\n        /* \"#utility.yul\":4736:4849   */\n      iszero\n      tag_207\n      jumpi\n        /* \"#utility.yul\":4835:4836   */\n      dup1\n        /* \"#utility.yul\":4830:4833   */\n      dup3\n        /* \"#utility.yul\":4826:4837   */\n      add\n        /* \"#utility.yul\":4820:4838   */\n      mload\n        /* \"#utility.yul\":4816:4817   */\n      dup2\n        /* \"#utility.yul\":4811:4814   */\n      dup5\n        /* \"#utility.yul\":4807:4818   */\n      add\n        /* \"#utility.yul\":4800:4839   */\n      mstore\n        /* \"#utility.yul\":4772:4774   */\n      0x20\n        /* \"#utility.yul\":4769:4770   */\n      dup2\n        /* \"#utility.yul\":4765:4775   */\n      add\n        /* \"#utility.yul\":4760:4775   */\n      swap1\n      pop\n        /* \"#utility.yul\":4736:4849   */\n      jump(tag_205)\n    tag_207:\n        /* \"#utility.yul\":4883:4884   */\n      0x00\n        /* \"#utility.yul\":4874:4880   */\n      dup5\n        /* \"#utility.yul\":4869:4872   */\n      dup5\n        /* \"#utility.yul\":4865:4881   */\n      add\n        /* \"#utility.yul\":4858:4885   */\n      mstore\n        /* \"#utility.yul\":4707:4891   */\n      pop\n        /* \"#utility.yul\":4645:4891   */\n      pop\n      pop\n      pop\n      jump\t// out\n        /* \"#utility.yul\":4897:5254   */\n    tag_124:\n        /* \"#utility.yul\":4975:4978   */\n      0x00\n        /* \"#utility.yul\":5003:5042   */\n      tag_209\n        /* \"#utility.yul\":5036:5041   */\n      dup3\n        /* \"#utility.yul\":5003:5042   */\n      tag_121\n      jump\t// in\n    tag_209:\n        /* \"#utility.yul\":5058:5119   */\n      tag_210\n        /* \"#utility.yul\":5112:5118   */\n      dup2\n        /* \"#utility.yul\":5107:5110   */\n      dup6\n        /* \"#utility.yul\":5058:5119   */\n      tag_122\n      jump\t// in\n    tag_210:\n        /* \"#utility.yul\":5051:5119   */\n      swap4\n      pop\n        /* \"#utility.yul\":5128:5193   */\n      tag_211\n        /* \"#utility.yul\":5186:5192   */\n      dup2\n        /* \"#utility.yul\":5181:5184   */\n      dup6\n        /* \"#utility.yul\":5174:5178   */\n      0x20\n        /* \"#utility.yul\":5167:5172   */\n      dup7\n        /* \"#utility.yul\":5163:5179   */\n      add\n        /* \"#utility.yul\":5128:5193   */\n      tag_123\n      jump\t// in\n    tag_211:\n        /* \"#utility.yul\":5218:5247   */\n      tag_212\n        /* \"#utility.yul\":5240:5246   */\n      dup2\n        /* \"#utility.yul\":5218:5247   */\n      tag_110\n      jump\t// in\n    tag_212:\n        /* \"#utility.yul\":5213:5216   */\n      dup5\n        /* \"#utility.yul\":5209:5248   */\n      add\n        /* \"#utility.yul\":5202:5248   */\n      swap2\n      pop\n        /* \"#utility.yul\":4979:5254   */\n      pop\n        /* \"#utility.yul\":4897:5254   */\n      swap3\n      swap2\n      pop\n      pop\n      jump\t// out\n        /* \"#utility.yul\":5260:5368   */\n    tag_125:\n        /* \"#utility.yul\":5337:5361   */\n      tag_214\n        /* \"#utility.yul\":5355:5360   */\n      dup2\n        /* \"#utility.yul\":5337:5361   */\n      tag_118\n      jump\t// in\n    tag_214:\n        /* \"#utility.yul\":5332:5335   */\n      dup3\n        /* \"#utility.yul\":5325:5362   */\n      mstore\n        /* \"#utility.yul\":5260:5368   */\n      pop\n      pop\n      jump\t// out\n        /* \"#utility.yul\":5428:6454   */\n    tag_126:\n        /* \"#utility.yul\":5543:5546   */\n      0x00\n        /* \"#utility.yul\":5579:5583   */\n      0x80\n        /* \"#utility.yul\":5574:5577   */\n      dup4\n        /* \"#utility.yul\":5570:5584   */\n      add\n        /* \"#utility.yul\":5666:5670   */\n      0x00\n        /* \"#utility.yul\":5659:5664   */\n      dup4\n        /* \"#utility.yul\":5655:5671   */\n      add\n        /* \"#utility.yul\":5649:5672   */\n      mload\n        /* \"#utility.yul\":5719:5722   */\n      dup5\n        /* \"#utility.yul\":5713:5717   */\n      dup3\n        /* \"#utility.yul\":5709:5723   */\n      sub\n        /* \"#utility.yul\":5702:5706   */\n      0x00\n        /* \"#utility.yul\":5697:5700   */\n      dup7\n        /* \"#utility.yul\":5693:5707   */\n      add\n        /* \"#utility.yul\":5686:5724   */\n      mstore\n        /* \"#utility.yul\":5745:5818   */\n      tag_216\n        /* \"#utility.yul\":5813:5817   */\n      dup3\n        /* \"#utility.yul\":5799:5811   */\n      dup3\n        /* \"#utility.yul\":5745:5818   */\n      tag_124\n      jump\t// in\n    tag_216:\n        /* \"#utility.yul\":5737:5818   */\n      swap2\n      pop\n        /* \"#utility.yul\":5594:5829   */\n      pop\n        /* \"#utility.yul\":5913:5917   */\n      0x20\n        /* \"#utility.yul\":5906:5911   */\n      dup4\n        /* \"#utility.yul\":5902:5918   */\n      add\n        /* \"#utility.yul\":5896:5919   */\n      mload\n        /* \"#utility.yul\":5966:5969   */\n      dup5\n        /* \"#utility.yul\":5960:5964   */\n      dup3\n        /* \"#utility.yul\":5956:5970   */\n      sub\n        /* \"#utility.yul\":5949:5953   */\n      0x20\n        /* \"#utility.yul\":5944:5947   */\n      dup7\n        /* \"#utility.yul\":5940:5954   */\n      add\n        /* \"#utility.yul\":5933:5971   */\n      mstore\n        /* \"#utility.yul\":5992:6065   */\n      tag_217\n        /* \"#utility.yul\":6060:6064   */\n      dup3\n        /* \"#utility.yul\":6046:6058   */\n      dup3\n        /* \"#utility.yul\":5992:6065   */\n      tag_124\n      jump\t// in\n    tag_217:\n        /* \"#utility.yul\":5984:6065   */\n      swap2\n      pop\n        /* \"#utility.yul\":5839:6076   */\n      pop\n        /* \"#utility.yul\":6160:6164   */\n      0x40\n        /* \"#utility.yul\":6153:6158   */\n      dup4\n        /* \"#utility.yul\":6149:6165   */\n      add\n        /* \"#utility.yul\":6143:6166   */\n      mload\n        /* \"#utility.yul\":6179:6242   */\n      tag_218\n        /* \"#utility.yul\":6236:6240   */\n      0x40\n        /* \"#utility.yul\":6231:6234   */\n      dup7\n        /* \"#utility.yul\":6227:6241   */\n      add\n        /* \"#utility.yul\":6213:6225   */\n      dup3\n        /* \"#utility.yul\":6179:6242   */\n      tag_125\n      jump\t// in\n    tag_218:\n        /* \"#utility.yul\":6086:6252   */\n      pop\n        /* \"#utility.yul\":6335:6339   */\n      0x60\n        /* \"#utility.yul\":6328:6333   */\n      dup4\n        /* \"#utility.yul\":6324:6340   */\n      add\n        /* \"#utility.yul\":6318:6341   */\n      mload\n        /* \"#utility.yul\":6354:6417   */\n      tag_219\n        /* \"#utility.yul\":6411:6415   */\n      0x60\n        /* \"#utility.yul\":6406:6409   */\n      dup7\n        /* \"#utility.yul\":6402:6416   */\n      add\n        /* \"#utility.yul\":6388:6400   */\n      dup3\n        /* \"#utility.yul\":6354:6417   */\n      tag_125\n      jump\t// in\n    tag_219:\n        /* \"#utility.yul\":6262:6427   */\n      pop\n        /* \"#utility.yul\":6444:6448   */\n      dup1\n        /* \"#utility.yul\":6437:6448   */\n      swap2\n      pop\n        /* \"#utility.yul\":5548:6454   */\n      pop\n        /* \"#utility.yul\":5428:6454   */\n      swap3\n      swap2\n      pop\n      pop\n      jump\t// out\n        /* \"#utility.yul\":6460:6825   */\n    tag_22:\n        /* \"#utility.yul\":6599:6603   */\n      0x00\n        /* \"#utility.yul\":6637:6639   */\n      0x20\n        /* \"#utility.yul\":6626:6635   */\n      dup3\n        /* \"#utility.yul\":6622:6640   */\n      add\n        /* \"#utility.yul\":6614:6640   */\n      swap1\n      pop\n        /* \"#utility.yul\":6686:6695   */\n      dup2\n        /* \"#utility.yul\":6680:6684   */\n      dup2\n        /* \"#utility.yul\":6676:6696   */\n      sub\n        /* \"#utility.yul\":6672:6673   */\n      0x00\n        /* \"#utility.yul\":6661:6670   */\n      dup4\n        /* \"#utility.yul\":6657:6674   */\n      add\n        /* \"#utility.yul\":6650:6697   */\n      mstore\n        /* \"#utility.yul\":6714:6818   */\n      tag_221\n        /* \"#utility.yul\":6813:6817   */\n      dup2\n        /* \"#utility.yul\":6804:6810   */\n      dup5\n        /* \"#utility.yul\":6714:6818   */\n      tag_126\n      jump\t// in\n    tag_221:\n        /* \"#utility.yul\":6706:6818   */\n      swap1\n      pop\n        /* \"#utility.yul\":6460:6825   */\n      swap3\n      swap2\n      pop\n      pop\n      jump\t// out\n        /* \"#utility.yul\":6831:6949   */\n    tag_127:\n        /* \"#utility.yul\":6918:6942   */\n      tag_223\n        /* \"#utility.yul\":6936:6941   */\n      dup2\n        /* \"#utility.yul\":6918:6942   */\n      tag_118\n      jump\t// in\n    tag_223:\n        /* \"#utility.yul\":6913:6916   */\n      dup3\n        /* \"#utility.yul\":6906:6943   */\n      mstore\n        /* \"#utility.yul\":6831:6949   */\n      pop\n      pop\n      jump\t// out\n        /* \"#utility.yul\":6955:7177   */\n    tag_29:\n        /* \"#utility.yul\":7048:7052   */\n      0x00\n        /* \"#utility.yul\":7086:7088   */\n      0x20\n        /* \"#utility.yul\":7075:7084   */\n      dup3\n        /* \"#utility.yul\":7071:7089   */\n      add\n        /* \"#utility.yul\":7063:7089   */\n      swap1\n      pop\n        /* \"#utility.yul\":7099:7170   */\n      tag_225\n        /* \"#utility.yul\":7167:7168   */\n      0x00\n        /* \"#utility.yul\":7156:7165   */\n      dup4\n        /* \"#utility.yul\":7152:7169   */\n      add\n        /* \"#utility.yul\":7143:7149   */\n      dup5\n        /* \"#utility.yul\":7099:7170   */\n      tag_127\n      jump\t// in\n    tag_225:\n        /* \"#utility.yul\":6955:7177   */\n      swap3\n      swap2\n      pop\n      pop\n      jump\t// out\n        /* \"#utility.yul\":7183:7320   */\n    tag_128:\n        /* \"#utility.yul\":7273:7279   */\n      0x00\n        /* \"#utility.yul\":7307:7312   */\n      dup2\n        /* \"#utility.yul\":7301:7313   */\n      mload\n        /* \"#utility.yul\":7291:7313   */\n      swap1\n      pop\n        /* \"#utility.yul\":7183:7320   */\n      swap2\n      swap1\n      pop\n      jump\t// out\n        /* \"#utility.yul\":7326:7533   */\n    tag_129:\n        /* \"#utility.yul\":7448:7459   */\n      0x00\n        /* \"#utility.yul\":7482:7488   */\n      dup3\n        /* \"#utility.yul\":7477:7480   */\n      dup3\n        /* \"#utility.yul\":7470:7489   */\n      mstore\n        /* \"#utility.yul\":7522:7526   */\n      0x20\n        /* \"#utility.yul\":7517:7520   */\n      dup3\n        /* \"#utility.yul\":7513:7527   */\n      add\n        /* \"#utility.yul\":7498:7527   */\n      swap1\n      pop\n        /* \"#utility.yul\":7326:7533   */\n      swap3\n      swap2\n      pop\n      pop\n      jump\t// out\n        /* \"#utility.yul\":7539:7694   */\n    tag_130:\n        /* \"#utility.yul\":7629:7633   */\n      0x00\n        /* \"#utility.yul\":7652:7655   */\n      dup2\n        /* \"#utility.yul\":7644:7655   */\n      swap1\n      pop\n        /* \"#utility.yul\":7682:7686   */\n      0x20\n        /* \"#utility.yul\":7677:7680   */\n      dup3\n        /* \"#utility.yul\":7673:7687   */\n      add\n        /* \"#utility.yul\":7665:7687   */\n      swap1\n      pop\n        /* \"#utility.yul\":7539:7694   */\n      swap2\n      swap1\n      pop\n      jump\t// out\n        /* \"#utility.yul\":7754:8770   */\n    tag_131:\n        /* \"#utility.yul\":7859:7862   */\n      0x00\n        /* \"#utility.yul\":7895:7899   */\n      0x80\n        /* \"#utility.yul\":7890:7893   */\n      dup4\n        /* \"#utility.yul\":7886:7900   */\n      add\n        /* \"#utility.yul\":7982:7986   */\n      0x00\n        /* \"#utility.yul\":7975:7980   */\n      dup4\n        /* \"#utility.yul\":7971:7987   */\n      add\n        /* \"#utility.yul\":7965:7988   */\n      mload\n        /* \"#utility.yul\":8035:8038   */\n      dup5\n        /* \"#utility.yul\":8029:8033   */\n      dup3\n        /* \"#utility.yul\":8025:8039   */\n      sub\n        /* \"#utility.yul\":8018:8022   */\n      0x00\n        /* \"#utility.yul\":8013:8016   */\n      dup7\n        /* \"#utility.yul\":8009:8023   */\n      add\n        /* \"#utility.yul\":8002:8040   */\n      mstore\n        /* \"#utility.yul\":8061:8134   */\n      tag_230\n        /* \"#utility.yul\":8129:8133   */\n      dup3\n        /* \"#utility.yul\":8115:8127   */\n      dup3\n        /* \"#utility.yul\":8061:8134   */\n      tag_124\n      jump\t// in\n    tag_230:\n        /* \"#utility.yul\":8053:8134   */\n      swap2\n      pop\n        /* \"#utility.yul\":7910:8145   */\n      pop\n        /* \"#utility.yul\":8229:8233   */\n      0x20\n        /* \"#utility.yul\":8222:8227   */\n      dup4\n        /* \"#utility.yul\":8218:8234   */\n      add\n        /* \"#utility.yul\":8212:8235   */\n      mload\n        /* \"#utility.yul\":8282:8285   */\n      dup5\n        /* \"#utility.yul\":8276:8280   */\n      dup3\n        /* \"#utility.yul\":8272:8286   */\n      sub\n        /* \"#utility.yul\":8265:8269   */\n      0x20\n        /* \"#utility.yul\":8260:8263   */\n      dup7\n        /* \"#utility.yul\":8256:8270   */\n      add\n        /* \"#utility.yul\":8249:8287   */\n      mstore\n        /* \"#utility.yul\":8308:8381   */\n      tag_231\n        /* \"#utility.yul\":8376:8380   */\n      dup3\n        /* \"#utility.yul\":8362:8374   */\n      dup3\n        /* \"#utility.yul\":8308:8381   */\n      tag_124\n      jump\t// in\n    tag_231:\n        /* \"#utility.yul\":8300:8381   */\n      swap2\n      pop\n        /* \"#utility.yul\":8155:8392   */\n      pop\n        /* \"#utility.yul\":8476:8480   */\n      0x40\n        /* \"#utility.yul\":8469:8474   */\n      dup4\n        /* \"#utility.yul\":8465:8481   */\n      add\n        /* \"#utility.yul\":8459:8482   */\n      mload\n        /* \"#utility.yul\":8495:8558   */\n      tag_232\n        /* \"#utility.yul\":8552:8556   */\n      0x40\n        /* \"#utility.yul\":8547:8550   */\n      dup7\n        /* \"#utility.yul\":8543:8557   */\n      add\n        /* \"#utility.yul\":8529:8541   */\n      dup3\n        /* \"#utility.yul\":8495:8558   */\n      tag_125\n      jump\t// in\n    tag_232:\n        /* \"#utility.yul\":8402:8568   */\n      pop\n        /* \"#utility.yul\":8651:8655   */\n      0x60\n        /* \"#utility.yul\":8644:8649   */\n      dup4\n        /* \"#utility.yul\":8640:8656   */\n      add\n        /* \"#utility.yul\":8634:8657   */\n      mload\n        /* \"#utility.yul\":8670:8733   */\n      tag_233\n        /* \"#utility.yul\":8727:8731   */\n      0x60\n        /* \"#utility.yul\":8722:8725   */\n      dup7\n        /* \"#utility.yul\":8718:8732   */\n      add\n        /* \"#utility.yul\":8704:8716   */\n      dup3\n        /* \"#utility.yul\":8670:8733   */\n      tag_125\n      jump\t// in\n    tag_233:\n        /* \"#utility.yul\":8578:8743   */\n      pop\n        /* \"#utility.yul\":8760:8764   */\n      dup1\n        /* \"#utility.yul\":8753:8764   */\n      swap2\n      pop\n        /* \"#utility.yul\":7864:8770   */\n      pop\n        /* \"#utility.yul\":7754:8770   */\n      swap3\n      swap2\n      pop\n      pop\n      jump\t// out\n        /* \"#utility.yul\":8776:9024   */\n    tag_132:\n        /* \"#utility.yul\":8891:8901   */\n      0x00\n        /* \"#utility.yul\":8926:9018   */\n      tag_235\n        /* \"#utility.yul\":9014:9017   */\n      dup4\n        /* \"#utility.yul\":9006:9012   */\n      dup4\n        /* \"#utility.yul\":8926:9018   */\n      tag_131\n      jump\t// in\n    tag_235:\n        /* \"#utility.yul\":8912:9018   */\n      swap1\n      pop\n        /* \"#utility.yul\":8776:9024   */\n      swap3\n      swap2\n      pop\n      pop\n      jump\t// out\n        /* \"#utility.yul\":9030:9166   */\n    tag_133:\n        /* \"#utility.yul\":9123:9127   */\n      0x00\n        /* \"#utility.yul\":9155:9159   */\n      0x20\n        /* \"#utility.yul\":9150:9153   */\n      dup3\n        /* \"#utility.yul\":9146:9160   */\n      add\n        /* \"#utility.yul\":9138:9160   */\n      swap1\n      pop\n        /* \"#utility.yul\":9030:9166   */\n      swap2\n      swap1\n      pop\n      jump\t// out\n        /* \"#utility.yul\":9230:10325   */\n    tag_134:\n        /* \"#utility.yul\":9395:9398   */\n      0x00\n        /* \"#utility.yul\":9424:9501   */\n      tag_238\n        /* \"#utility.yul\":9495:9500   */\n      dup3\n        /* \"#utility.yul\":9424:9501   */\n      tag_128\n      jump\t// in\n    tag_238:\n        /* \"#utility.yul\":9517:9626   */\n      tag_239\n        /* \"#utility.yul\":9619:9625   */\n      dup2\n        /* \"#utility.yul\":9614:9617   */\n      dup6\n        /* \"#utility.yul\":9517:9626   */\n      tag_129\n      jump\t// in\n    tag_239:\n        /* \"#utility.yul\":9510:9626   */\n      swap4\n      pop\n        /* \"#utility.yul\":9652:9655   */\n      dup4\n        /* \"#utility.yul\":9697:9701   */\n      0x20\n        /* \"#utility.yul\":9689:9695   */\n      dup3\n        /* \"#utility.yul\":9685:9702   */\n      mul\n        /* \"#utility.yul\":9680:9683   */\n      dup6\n        /* \"#utility.yul\":9676:9703   */\n      add\n        /* \"#utility.yul\":9727:9806   */\n      tag_240\n        /* \"#utility.yul\":9800:9805   */\n      dup6\n        /* \"#utility.yul\":9727:9806   */\n      tag_130\n      jump\t// in\n    tag_240:\n        /* \"#utility.yul\":9829:9836   */\n      dup1\n        /* \"#utility.yul\":9860:9861   */\n      0x00\n        /* \"#utility.yul\":9845:10280   */\n    tag_241:\n        /* \"#utility.yul\":9870:9876   */\n      dup6\n        /* \"#utility.yul\":9867:9868   */\n      dup2\n        /* \"#utility.yul\":9864:9877   */\n      lt\n        /* \"#utility.yul\":9845:10280   */\n      iszero\n      tag_243\n      jumpi\n        /* \"#utility.yul\":9941:9950   */\n      dup5\n        /* \"#utility.yul\":9935:9939   */\n      dup5\n        /* \"#utility.yul\":9931:9951   */\n      sub\n        /* \"#utility.yul\":9926:9929   */\n      dup10\n        /* \"#utility.yul\":9919:9952   */\n      mstore\n        /* \"#utility.yul\":9992:9998   */\n      dup2\n        /* \"#utility.yul\":9986:9999   */\n      mload\n        /* \"#utility.yul\":10020:10130   */\n      tag_244\n        /* \"#utility.yul\":10125:10129   */\n      dup6\n        /* \"#utility.yul\":10110:10123   */\n      dup3\n        /* \"#utility.yul\":10020:10130   */\n      tag_132\n      jump\t// in\n    tag_244:\n        /* \"#utility.yul\":10012:10130   */\n      swap5\n      pop\n        /* \"#utility.yul\":10153:10236   */\n      tag_245\n        /* \"#utility.yul\":10229:10235   */\n      dup4\n        /* \"#utility.yul\":10153:10236   */\n      tag_133\n      jump\t// in\n    tag_245:\n        /* \"#utility.yul\":10143:10236   */\n      swap3\n      pop\n        /* \"#utility.yul\":10265:10269   */\n      0x20\n        /* \"#utility.yul\":10260:10263   */\n      dup11\n        /* \"#utility.yul\":10256:10270   */\n      add\n        /* \"#utility.yul\":10249:10270   */\n      swap10\n      pop\n        /* \"#utility.yul\":9905:10280   */\n      pop\n        /* \"#utility.yul\":9892:9893   */\n      0x01\n        /* \"#utility.yul\":9889:9890   */\n      dup2\n        /* \"#utility.yul\":9885:9894   */\n      add\n        /* \"#utility.yul\":9880:9894   */\n      swap1\n      pop\n        /* \"#utility.yul\":9845:10280   */\n      jump(tag_241)\n    tag_243:\n        /* \"#utility.yul\":9849:9863   */\n      pop\n        /* \"#utility.yul\":10296:10300   */\n      dup3\n        /* \"#utility.yul\":10289:10300   */\n      swap8\n      pop\n        /* \"#utility.yul\":10316:10319   */\n      dup8\n        /* \"#utility.yul\":10309:10319   */\n      swap6\n      pop\n        /* \"#utility.yul\":9400:10325   */\n      pop\n      pop\n      pop\n      pop\n      pop\n        /* \"#utility.yul\":9230:10325   */\n      swap3\n      swap2\n      pop\n      pop\n      jump\t// out\n        /* \"#utility.yul\":10331:10796   */\n    tag_36:\n        /* \"#utility.yul\":10520:10524   */\n      0x00\n        /* \"#utility.yul\":10558:10560   */\n      0x20\n        /* \"#utility.yul\":10547:10556   */\n      dup3\n        /* \"#utility.yul\":10543:10561   */\n      add\n        /* \"#utility.yul\":10535:10561   */\n      swap1\n      pop\n        /* \"#utility.yul\":10607:10616   */\n      dup2\n        /* \"#utility.yul\":10601:10605   */\n      dup2\n        /* \"#utility.yul\":10597:10617   */\n      sub\n        /* \"#utility.yul\":10593:10594   */\n      0x00\n        /* \"#utility.yul\":10582:10591   */\n      dup4\n        /* \"#utility.yul\":10578:10595   */\n      add\n        /* \"#utility.yul\":10571:10618   */\n      mstore\n        /* \"#utility.yul\":10635:10789   */\n      tag_247\n        /* \"#utility.yul\":10784:10788   */\n      dup2\n        /* \"#utility.yul\":10775:10781   */\n      dup5\n        /* \"#utility.yul\":10635:10789   */\n      tag_134\n      jump\t// in\n    tag_247:\n        /* \"#utility.yul\":10627:10789   */\n      swap1\n      pop\n        /* \"#utility.yul\":10331:10796   */\n      swap3\n      swap2\n      pop\n      pop\n      jump\t// out\n        /* \"#utility.yul\":10802:10982   */\n    tag_135:\n        /* \"#utility.yul\":10850:10927   */\n      0x4e487b7100000000000000000000000000000000000000000000000000000000\n        /* \"#utility.yul\":10847:10848   */\n      0x00\n        /* \"#utility.yul\":10840:10928   */\n      mstore\n        /* \"#utility.yul\":10947:10951   */\n      0x22\n        /* \"#utility.yul\":10944:10945   */\n      0x04\n        /* \"#utility.yul\":10937:10952   */\n      mstore\n        /* \"#utility.yul\":10971:10975   */\n      0x24\n        /* \"#utility.yul\":10968:10969   */\n      0x00\n        /* \"#utility.yul\":10961:10976   */\n      revert\n        /* \"#utility.yul\":10988:11308   */\n    tag_57:\n        /* \"#utility.yul\":11032:11038   */\n      0x00\n        /* \"#utility.yul\":11069:11070   */\n      0x02\n        /* \"#utility.yul\":11063:11067   */\n      dup3\n        /* \"#utility.yul\":11059:11071   */\n      div\n        /* \"#utility.yul\":11049:11071   */\n      swap1\n      pop\n        /* \"#utility.yul\":11116:11117   */\n      0x01\n        /* \"#utility.yul\":11110:11114   */\n      dup3\n        /* \"#utility.yul\":11106:11118   */\n      and\n        /* \"#utility.yul\":11137:11155   */\n      dup1\n        /* \"#utility.yul\":11127:11208   */\n      tag_250\n      jumpi\n        /* \"#utility.yul\":11193:11197   */\n      0x7f\n        /* \"#utility.yul\":11185:11191   */\n      dup3\n        /* \"#utility.yul\":11181:11198   */\n      and\n        /* \"#utility.yul\":11171:11198   */\n      swap2\n      pop\n        /* \"#utility.yul\":11127:11208   */\n    tag_250:\n        /* \"#utility.yul\":11255:11257   */\n      0x20\n        /* \"#utility.yul\":11247:11253   */\n      dup3\n        /* \"#utility.yul\":11244:11258   */\n      lt\n        /* \"#utility.yul\":11224:11242   */\n      dup2\n        /* \"#utility.yul\":11221:11259   */\n      sub\n        /* \"#utility.yul\":11218:11302   */\n      tag_251\n      jumpi\n        /* \"#utility.yul\":11274:11292   */\n      tag_252\n      tag_135\n      jump\t// in\n    tag_252:\n        /* \"#utility.yul\":11218:11302   */\n    tag_251:\n        /* \"#utility.yul\":11039:11308   */\n      pop\n        /* \"#utility.yul\":10988:11308   */\n      swap2\n      swap1\n      pop\n      jump\t// out\n        /* \"#utility.yul\":11314:11455   */\n    tag_136:\n        /* \"#utility.yul\":11363:11367   */\n      0x00\n        /* \"#utility.yul\":11386:11389   */\n      dup2\n        /* \"#utility.yul\":11378:11389   */\n      swap1\n      pop\n        /* \"#utility.yul\":11409:11412   */\n      dup2\n        /* \"#utility.yul\":11406:11407   */\n      0x00\n        /* \"#utility.yul\":11399:11413   */\n      mstore\n        /* \"#utility.yul\":11443:11447   */\n      0x20\n        /* \"#utility.yul\":11440:11441   */\n      0x00\n        /* \"#utility.yul\":11430:11448   */\n      keccak256\n        /* \"#utility.yul\":11422:11448   */\n      swap1\n      pop\n        /* \"#utility.yul\":11314:11455   */\n      swap2\n      swap1\n      pop\n      jump\t// out\n        /* \"#utility.yul\":11461:11554   */\n    tag_137:\n        /* \"#utility.yul\":11498:11504   */\n      0x00\n        /* \"#utility.yul\":11545:11547   */\n      0x20\n        /* \"#utility.yul\":11540:11542   */\n      0x1f\n        /* \"#utility.yul\":11533:11538   */\n      dup4\n        /* \"#utility.yul\":11529:11543   */\n      add\n        /* \"#utility.yul\":11525:11548   */\n      div\n        /* \"#utility.yul\":11515:11548   */\n      swap1\n      pop\n        /* \"#utility.yul\":11461:11554   */\n      swap2\n      swap1\n      pop\n      jump\t// out\n        /* \"#utility.yul\":11560:11667   */\n    tag_138:\n        /* \"#utility.yul\":11604:11612   */\n      0x00\n        /* \"#utility.yul\":11654:11659   */\n      dup3\n        /* \"#utility.yul\":11648:11652   */\n      dup3\n        /* \"#utility.yul\":11644:11660   */\n      shl\n        /* \"#utility.yul\":11623:11660   */\n      swap1\n      pop\n        /* \"#utility.yul\":11560:11667   */\n      swap3\n      swap2\n      pop\n      pop\n      jump\t// out\n        /* \"#utility.yul\":11673:12066   */\n    tag_139:\n        /* \"#utility.yul\":11742:11748   */\n      0x00\n        /* \"#utility.yul\":11792:11793   */\n      0x08\n        /* \"#utility.yul\":11780:11790   */\n      dup4\n        /* \"#utility.yul\":11776:11794   */\n      mul\n        /* \"#utility.yul\":11815:11912   */\n      tag_257\n        /* \"#utility.yul\":11845:11911   */\n      0xffffffffffffffffffffffffffffffffffffffffffffffffffffffffffffffff\n        /* \"#utility.yul\":11834:11843   */\n      dup3\n        /* \"#utility.yul\":11815:11912   */\n      tag_138\n      jump\t// in\n    tag_257:\n        /* \"#utility.yul\":11933:11972   */\n      tag_258\n        /* \"#utility.yul\":11963:11971   */\n      dup7\n        /* \"#utility.yul\":11952:11961   */\n      dup4\n        /* \"#utility.yul\":11933:11972   */\n      tag_138\n      jump\t// in\n    tag_258:\n        /* \"#utility.yul\":11921:11972   */\n      swap6\n      pop\n        /* \"#utility.yul\":12005:12009   */\n      dup1\n        /* \"#utility.yul\":12001:12010   */\n      not\n        /* \"#utility.yul\":11994:11999   */\n      dup5\n        /* \"#utility.yul\":11990:12011   */\n      and\n        /* \"#utility.yul\":11981:12011   */\n      swap4\n      pop\n        /* \"#utility.yul\":12054:12058   */\n      dup1\n        /* \"#utility.yul\":12044:12052   */\n      dup7\n        /* \"#utility.yul\":12040:12059   */\n      and\n        /* \"#utility.yul\":12033:12038   */\n      dup5\n        /* \"#utility.yul\":12030:12060   */\n      or\n        /* \"#utility.yul\":12020:12060   */\n      swap3\n      pop\n        /* \"#utility.yul\":11749:12066   */\n      pop\n      pop\n        /* \"#utility.yul\":11673:12066   */\n      swap4\n      swap3\n      pop\n      pop\n      pop\n      jump\t// out\n        /* \"#utility.yul\":12072:12132   */\n    tag_140:\n        /* \"#utility.yul\":12100:12103   */\n      0x00\n        /* \"#utility.yul\":12121:12126   */\n      dup2\n        /* \"#utility.yul\":12114:12126   */\n      swap1\n      pop\n        /* \"#utility.yul\":12072:12132   */\n      swap2\n      swap1\n      pop\n      jump\t// out\n        /* \"#utility.yul\":12138:12280   */\n    tag_141:\n        /* \"#utility.yul\":12188:12197   */\n      0x00\n        /* \"#utility.yul\":12221:12274   */\n      tag_261\n        /* \"#utility.yul\":12239:12273   */\n      tag_262\n        /* \"#utility.yul\":12248:12272   */\n      tag_263\n        /* \"#utility.yul\":12266:12271   */\n      dup5\n        /* \"#utility.yul\":12248:12272   */\n      tag_118\n      jump\t// in\n    tag_263:\n        /* \"#utility.yul\":12239:12273   */\n      tag_140\n      jump\t// in\n    tag_262:\n        /* \"#utility.yul\":12221:12274   */\n      tag_118\n      jump\t// in\n    tag_261:\n        /* \"#utility.yul\":12208:12274   */\n      swap1\n      pop\n        /* \"#utility.yul\":12138:12280   */\n      swap2\n      swap1\n      pop\n      jump\t// out\n        /* \"#utility.yul\":12286:12361   */\n    tag_142:\n        /* \"#utility.yul\":12329:12332   */\n      0x00\n        /* \"#utility.yul\":12350:12355   */\n      dup2\n        /* \"#utility.yul\":12343:12355   */\n      swap1\n      pop\n        /* \"#utility.yul\":12286:12361   */\n      swap2\n      swap1\n      pop\n      jump\t// out\n        /* \"#utility.yul\":12367:12636   */\n    tag_143:\n        /* \"#utility.yul\":12477:12516   */\n      tag_266\n        /* \"#utility.yul\":12508:12515   */\n      dup4\n        /* \"#utility.yul\":12477:12516   */\n      tag_141\n      jump\t// in\n    tag_266:\n        /* \"#utility.yul\":12538:12629   */\n      tag_267\n        /* \"#utility.yul\":12587:12628   */\n      tag_268\n        /* \"#utility.yul\":12611:12627   */\n      dup3\n        /* \"#utility.yul\":12587:12628   */\n      tag_142\n      jump\t// in\n    tag_268:\n        /* \"#utility.yul\":12579:12585   */\n      dup5\n        /* \"#utility.yul\":12572:12576   */\n      dup5\n        /* \"#utility.yul\":12566:12577   */\n      sload\n        /* \"#utility.yul\":12538:12629   */\n      tag_139\n      jump\t// in\n    tag_267:\n        /* \"#utility.yul\":12532:12536   */\n      dup3\n        /* \"#utility.yul\":12525:12630   */\n      sstore\n        /* \"#utility.yul\":12443:12636   */\n      pop\n        /* \"#utility.yul\":12367:12636   */\n      pop\n      pop\n      pop\n      jump\t// out\n        /* \"#utility.yul\":12642:12715   */\n    tag_144:\n        /* \"#utility.yul\":12687:12690   */\n      0x00\n        /* \"#utility.yul\":12642:12715   */\n      swap1\n      jump\t// out\n        /* \"#utility.yul\":12721:12910   */\n    tag_145:\n        /* \"#utility.yul\":12798:12830   */\n      tag_271\n      tag_144\n      jump\t// in\n    tag_271:\n        /* \"#utility.yul\":12839:12904   */\n      tag_272\n        /* \"#utility.yul\":12897:12903   */\n      dup2\n        /* \"#utility.yul\":12889:12895   */\n      dup5\n        /* \"#utility.yul\":12883:12887   */\n      dup5\n        /* \"#utility.yul\":12839:12904   */\n      tag_143\n      jump\t// in\n    tag_272:\n        /* \"#utility.yul\":12774:12910   */\n      pop\n        /* \"#utility.yul\":12721:12910   */\n      pop\n      pop\n      jump\t// out\n        /* \"#utility.yul\":12916:13102   */\n    tag_146:\n        /* \"#utility.yul\":12976:13096   */\n    tag_274:\n        /* \"#utility.yul\":12993:12996   */\n      dup2\n        /* \"#utility.yul\":12986:12991   */\n      dup2\n        /* \"#utility.yul\":12983:12997   */\n      lt\n        /* \"#utility.yul\":12976:13096   */\n      iszero\n      tag_276\n      jumpi\n        /* \"#utility.yul\":13047:13086   */\n      tag_277\n        /* \"#utility.yul\":13084:13085   */\n      0x00\n        /* \"#utility.yul\":13077:13082   */\n      dup3\n        /* \"#utility.yul\":13047:13086   */\n      tag_145\n      jump\t// in\n    tag_277:\n        /* \"#utility.yul\":13020:13021   */\n      0x01\n        /* \"#utility.yul\":13013:13018   */\n      dup2\n        /* \"#utility.yul\":13009:13022   */\n      add\n        /* \"#utility.yul\":13000:13022   */\n      swap1\n      pop\n        /* \"#utility.yul\":12976:13096   */\n      jump(tag_274)\n    tag_276:\n        /* \"#utility.yul\":12916:13102   */\n      pop\n      pop\n      jump\t// out\n        /* \"#utility.yul\":13108:13651   */\n    tag_147:\n        /* \"#utility.yul\":13209:13211   */\n      0x1f\n        /* \"#utility.yul\":13204:13207   */\n      dup3\n        /* \"#utility.yul\":13201:13212   */\n      gt\n        /* \"#utility.yul\":13198:13644   */\n      iszero\n      tag_279\n      jumpi\n        /* \"#utility.yul\":13243:13281   */\n      tag_280\n        /* \"#utility.yul\":13275:13280   */\n      dup2\n        /* \"#utility.yul\":13243:13281   */\n      tag_136\n      jump\t// in\n    tag_280:\n        /* \"#utility.yul\":13327:13356   */\n      tag_281\n        /* \"#utility.yul\":13345:13355   */\n      dup5\n        /* \"#utility.yul\":13327:13356   */\n      tag_137\n      jump\t// in\n    tag_281:\n        /* \"#utility.yul\":13317:13325   */\n      dup2\n        /* \"#utility.yul\":13313:13357   */\n      add\n        /* \"#utility.yul\":13510:13512   */\n      0x20\n        /* \"#utility.yul\":13498:13508   */\n      dup6\n        /* \"#utility.yul\":13495:13513   */\n      lt\n        /* \"#utility.yul\":13492:13541   */\n      iszero\n      tag_282\n      jumpi\n        /* \"#utility.yul\":13531:13539   */\n      dup2\n        /* \"#utility.yul\":13516:13539   */\n      swap1\n      pop\n        /* \"#utility.yul\":13492:13541   */\n    tag_282:\n        /* \"#utility.yul\":13554:13634   */\n      tag_283\n        /* \"#utility.yul\":13610:13632   */\n      tag_284\n        /* \"#utility.yul\":13628:13631   */\n      dup6\n        /* \"#utility.yul\":13610:13632   */\n      tag_137\n      jump\t// in\n    tag_284:\n        /* \"#utility.yul\":13600:13608   */\n      dup4\n        /* \"#utility.yul\":13596:13633   */\n      add\n        /* \"#utility.yul\":13583:13594   */\n      dup3\n        /* \"#utility.yul\":13554:13634   */\n      tag_146\n      jump\t// in\n    tag_283:\n        /* \"#utility.yul\":13213:13644   */\n      pop\n      pop\n        /* \"#utility.yul\":13198:13644   */\n    tag_279:\n        /* \"#utility.yul\":13108:13651   */\n      pop\n      pop\n      pop\n      jump\t// out\n        /* \"#utility.yul\":13657:13774   */\n    tag_148:\n        /* \"#utility.yul\":13711:13719   */\n      0x00\n        /* \"#utility.yul\":13761:13766   */\n      dup3\n        /* \"#utility.yul\":13755:13759   */\n      dup3\n        /* \"#utility.yul\":13751:13767   */\n      shr\n        /* \"#utility.yul\":13730:13767   */\n      swap1\n      pop\n        /* \"#utility.yul\":13657:13774   */\n      swap3\n      swap2\n      pop\n      pop\n      jump\t// out\n        /* \"#utility.yul\":13780:13949   */\n    tag_149:\n        /* \"#utility.yul\":13824:13830   */\n      0x00\n        /* \"#utility.yul\":13857:13908   */\n      tag_287\n        /* \"#utility.yul\":13905:13906   */\n      0x00\n        /* \"#utility.yul\":13901:13907   */\n      not\n        /* \"#utility.yul\":13893:13898   */\n      dup5\n        /* \"#utility.yul\":13890:13891   */\n      0x08\n        /* \"#utility.yul\":13886:13899   */\n      mul\n        /* \"#utility.yul\":13857:13908   */\n      tag_148\n      jump\t// in\n    tag_287:\n        /* \"#utility.yul\":13853:13909   */\n      not\n        /* \"#utility.yul\":13938:13942   */\n      dup1\n        /* \"#utility.yul\":13932:13936   */\n      dup4\n        /* \"#utility.yul\":13928:13943   */\n      and\n        /* \"#utility.yul\":13918:13943   */\n      swap2\n      pop\n        /* \"#utility.yul\":13831:13949   */\n      pop\n        /* \"#utility.yul\":13780:13949   */\n      swap3\n      swap2\n      pop\n      pop\n      jump\t// out\n        /* \"#utility.yul\":13954:14249   */\n    tag_150:\n        /* \"#utility.yul\":14030:14034   */\n      0x00\n        /* \"#utility.yul\":14176:14205   */\n      tag_289\n        /* \"#utility.yul\":14201:14204   */\n      dup4\n        /* \"#utility.yul\":14195:14199   */\n      dup4\n        /* \"#utility.yul\":14176:14205   */\n      tag_149\n      jump\t// in\n    tag_289:\n        /* \"#utility.yul\":14168:14205   */\n      swap2\n      pop\n        /* \"#utility.yul\":14238:14241   */\n      dup3\n        /* \"#utility.yul\":14235:14236   */\n      0x02\n        /* \"#utility.yul\":14231:14242   */\n      mul\n        /* \"#utility.yul\":14225:14229   */\n      dup3\n        /* \"#utility.yul\":14222:14243   */\n      or\n        /* \"#utility.yul\":14214:14243   */\n      swap1\n      pop\n        /* \"#utility.yul\":13954:14249   */\n      swap3\n      swap2\n      pop\n      pop\n      jump\t// out\n        /* \"#utility.yul\":14254:15649   */\n    tag_39:\n        /* \"#utility.yul\":14371:14408   */\n      tag_291\n        /* \"#utility.yul\":14404:14407   */\n      dup3\n        /* \"#utility.yul\":14371:14408   */\n      tag_121\n      jump\t// in\n    tag_291:\n        /* \"#utility.yul\":14473:14491   */\n      0xffffffffffffffff\n        /* \"#utility.yul\":14465:14471   */\n      dup2\n        /* \"#utility.yul\":14462:14492   */\n      gt\n        /* \"#utility.yul\":14459:14515   */\n      iszero\n      tag_292\n      jumpi\n        /* \"#utility.yul\":14495:14513   */\n      tag_293\n      tag_111\n      jump\t// in\n    tag_293:\n        /* \"#utility.yul\":14459:14515   */\n    tag_292:\n        /* \"#utility.yul\":14539:14577   */\n      tag_294\n        /* \"#utility.yul\":14571:14575   */\n      dup3\n        /* \"#utility.yul\":14565:14576   */\n      sload\n        /* \"#utility.yul\":14539:14577   */\n      tag_57\n      jump\t// in\n    tag_294:\n        /* \"#utility.yul\":14624:14691   */\n      tag_295\n        /* \"#utility.yul\":14684:14690   */\n      dup3\n        /* \"#utility.yul\":14676:14682   */\n      dup3\n        /* \"#utility.yul\":14670:14674   */\n      dup6\n        /* \"#utility.yul\":14624:14691   */\n      tag_147\n      jump\t// in\n    tag_295:\n        /* \"#utility.yul\":14718:14719   */\n      0x00\n        /* \"#utility.yul\":14742:14746   */\n      0x20\n        /* \"#utility.yul\":14729:14746   */\n      swap1\n      pop\n        /* \"#utility.yul\":14774:14776   */\n      0x1f\n        /* \"#utility.yul\":14766:14772   */\n      dup4\n        /* \"#utility.yul\":14763:14777   */\n      gt\n        /* \"#utility.yul\":14791:14792   */\n      0x01\n        /* \"#utility.yul\":14786:15404   */\n      dup2\n      eq\n      tag_297\n      jumpi\n        /* \"#utility.yul\":15448:15449   */\n      0x00\n        /* \"#utility.yul\":15465:15471   */\n      dup5\n        /* \"#utility.yul\":15462:15539   */\n      iszero\n      tag_298\n      jumpi\n        /* \"#utility.yul\":15514:15523   */\n      dup3\n        /* \"#utility.yul\":15509:15512   */\n      dup8\n        /* \"#utility.yul\":15505:15524   */\n      add\n        /* \"#utility.yul\":15499:15525   */\n      mload\n        /* \"#utility.yul\":15490:15525   */\n      swap1\n      pop\n        /* \"#utility.yul\":15462:15539   */\n    tag_298:\n        /* \"#utility.yul\":15565:15632   */\n      tag_299\n        /* \"#utility.yul\":15625:15631   */\n      dup6\n        /* \"#utility.yul\":15618:15623   */\n      dup3\n        /* \"#utility.yul\":15565:15632   */\n      tag_150\n      jump\t// in\n    tag_299:\n        /* \"#utility.yul\":15559:15563   */\n      dup7\n        /* \"#utility.yul\":15552:15633   */\n      sstore\n        /* \"#utility.yul\":15421:15643   */\n      pop\n        /* \"#utility.yul\":14756:15643   */\n      jump(tag_296)\n        /* \"#utility.yul\":14786:15404   */\n    tag_297:\n        /* \"#utility.yul\":14838:14842   */\n      0x1f\n        /* \"#utility.yul\":14834:14843   */\n      not\n        /* \"#utility.yul\":14826:14832   */\n      dup5\n        /* \"#utility.yul\":14822:14844   */\n      and\n        /* \"#utility.yul\":14872:14909   */\n      tag_300\n        /* \"#utility.yul\":14904:14908   */\n      dup7\n        /* \"#utility.yul\":14872:14909   */\n      tag_136\n      jump\t// in\n    tag_300:\n        /* \"#utility.yul\":14931:14932   */\n      0x00\n        /* \"#utility.yul\":14945:15153   */\n    tag_301:\n        /* \"#utility.yul\":14959:14966   */\n      dup3\n        /* \"#utility.yul\":14956:14957   */\n      dup2\n        /* \"#utility.yul\":14953:14967   */\n      lt\n        /* \"#utility.yul\":14945:15153   */\n      iszero\n      tag_303\n      jumpi\n        /* \"#utility.yul\":15038:15047   */\n      dup5\n        /* \"#utility.yul\":15033:15036   */\n      dup10\n        /* \"#utility.yul\":15029:15048   */\n      add\n        /* \"#utility.yul\":15023:15049   */\n      mload\n        /* \"#utility.yul\":15015:15021   */\n      dup3\n        /* \"#utility.yul\":15008:15050   */\n      sstore\n        /* \"#utility.yul\":15089:15090   */\n      0x01\n        /* \"#utility.yul\":15081:15087   */\n      dup3\n        /* \"#utility.yul\":15077:15091   */\n      add\n        /* \"#utility.yul\":15067:15091   */\n      swap2\n      pop\n        /* \"#utility.yul\":15136:15138   */\n      0x20\n        /* \"#utility.yul\":15125:15134   */\n      dup6\n        /* \"#utility.yul\":15121:15139   */\n      add\n        /* \"#utility.yul\":15108:15139   */\n      swap5\n      pop\n        /* \"#utility.yul\":14982:14986   */\n      0x20\n        /* \"#utility.yul\":14979:14980   */\n      dup2\n        /* \"#utility.yul\":14975:14987   */\n      add\n        /* \"#utility.yul\":14970:14987   */\n      swap1\n      pop\n        /* \"#utility.yul\":14945:15153   */\n      jump(tag_301)\n    tag_303:\n        /* \"#utility.yul\":15181:15187   */\n      dup7\n        /* \"#utility.yul\":15172:15179   */\n      dup4\n        /* \"#utility.yul\":15169:15188   */\n      lt\n        /* \"#utility.yul\":15166:15345   */\n      iszero\n      tag_304\n      jumpi\n        /* \"#utility.yul\":15239:15248   */\n      dup5\n        /* \"#utility.yul\":15234:15237   */\n      dup10\n        /* \"#utility.yul\":15230:15249   */\n      add\n        /* \"#utility.yul\":15224:15250   */\n      mload\n        /* \"#utility.yul\":15282:15330   */\n      tag_305\n        /* \"#utility.yul\":15324:15328   */\n      0x1f\n        /* \"#utility.yul\":15316:15322   */\n      dup10\n        /* \"#utility.yul\":15312:15329   */\n      and\n        /* \"#utility.yul\":15301:15310   */\n      dup3\n        /* \"#utility.yul\":15282:15330   */\n      tag_149\n      jump\t// in\n    tag_305:\n        /* \"#utility.yul\":15274:15280   */\n      dup4\n        /* \"#utility.yul\":15267:15331   */\n      sstore\n        /* \"#utility.yul\":15189:15345   */\n      pop\n        /* \"#utility.yul\":15166:15345   */\n    tag_304:\n        /* \"#utility.yul\":15391:15392   */\n      0x01\n        /* \"#utility.yul\":15387:15388   */\n      0x02\n        /* \"#utility.yul\":15379:15385   */\n      dup9\n        /* \"#utility.yul\":15375:15389   */\n      mul\n        /* \"#utility.yul\":15371:15393   */\n      add\n        /* \"#utility.yul\":15365:15369   */\n      dup9\n        /* \"#utility.yul\":15358:15394   */\n      sstore\n        /* \"#utility.yul\":14793:15404   */\n      pop\n      pop\n      pop\n        /* \"#utility.yul\":14756:15643   */\n    tag_296:\n      pop\n        /* \"#utility.yul\":14346:15649   */\n      pop\n      pop\n      pop\n        /* \"#utility.yul\":14254:15649   */\n      pop\n      pop\n      jump\t// out\n        /* \"#utility.yul\":15655:15835   */\n    tag_44:\n        /* \"#utility.yul\":15703:15780   */\n      0x4e487b7100000000000000000000000000000000000000000000000000000000\n        /* \"#utility.yul\":15700:15701   */\n      0x00\n        /* \"#utility.yul\":15693:15781   */\n      mstore\n        /* \"#utility.yul\":15800:15804   */\n      0x31\n        /* \"#utility.yul\":15797:15798   */\n      0x04\n        /* \"#utility.yul\":15790:15805   */\n      mstore\n        /* \"#utility.yul\":15824:15828   */\n      0x24\n        /* \"#utility.yul\":15821:15822   */\n      0x00\n        /* \"#utility.yul\":15814:15829   */\n      revert\n        /* \"#utility.yul\":15841:16021   */\n    tag_54:\n        /* \"#utility.yul\":15889:15966   */\n      0x4e487b7100000000000000000000000000000000000000000000000000000000\n        /* \"#utility.yul\":15886:15887   */\n      0x00\n        /* \"#utility.yul\":15879:15967   */\n      mstore\n        /* \"#utility.yul\":15986:15990   */\n      0x32\n        /* \"#utility.yul\":15983:15984   */\n      0x04\n        /* \"#utility.yul\":15976:15991   */\n      mstore\n        /* \"#utility.yul\":16010:16014   */\n      0x24\n        /* \"#utility.yul\":16007:16008   */\n      0x00\n        /* \"#utility.yul\":16000:16015   */\n      revert\n\n    auxdata: 0xa26469706673582212203be09c8cc976eb7270bea6e4006f7c1fb2e158bc30b409298e1c6c144546d0c664736f6c63430008120033\n}\n",
				"bytecode": {
					"linkReferences": {},
					"object": "608060405234801561001057600080fd5b50610ff9806100206000396000f3fe608060405234801561001057600080fd5b506004361061007d5760003560e01c8063b439548d1161005b578063b439548d146100d8578063be1c766b146100f6578063ca5d45f714610114578063f1d064b3146101305761007d565b80630f6a9e9b14610082578063415718871461009e578063642f9163146100a8575b600080fd5b61009c60048036038101906100979190610929565b61014e565b005b6100a66101b9565b005b6100c260048036038101906100bd91906109c8565b610216565b6040516100cf9190610aed565b60405180910390f35b6100e061038a565b6040516100ed9190610aed565b60405180910390f35b6100fe6104dc565b60405161010b9190610b1e565b60405180910390f35b61012e60048036038101906101299190610929565b6104e9565b005b61013861057d565b6040516101459190610c65565b60405180910390f35b6040518060800160405280858152602001848152602001838152602001828152506000808201518160000190816101859190610e93565b50602082015181600101908161019b9190610e93565b50604082015181600201556060820151816003015590505050505050565b60048054806101cb576101ca610f65565b5b6001900381819060005260206000209060040201600080820160006101f09190610714565b6001820160006102009190610714565b6002820160009055600382016000905550509055565b61021e610754565b6004828154811061023257610231610f94565b5b906000526020600020906004020160405180608001604052908160008201805461025b90610cb6565b80601f016020809104026020016040519081016040528092919081815260200182805461028790610cb6565b80156102d45780601f106102a9576101008083540402835291602001916102d4565b820191906000526020600020905b8154815290600101906020018083116102b757829003601f168201915b505050505081526020016001820180546102ed90610cb6565b80601f016020809104026020016040519081016040528092919081815260200182805461031990610cb6565b80156103665780601f1061033b57610100808354040283529160200191610366565b820191906000526020600020905b81548152906001019060200180831161034957829003601f168201915b50505050508152602001600282015481526020016003820154815250509050919050565b610392610754565b60006040518060800160405290816000820180546103af90610cb6565b80601f01602080910402602001604051908101604052809291908181526020018280546103db90610cb6565b80156104285780601f106103fd57610100808354040283529160200191610428565b820191906000526020600020905b81548152906001019060200180831161040b57829003601f168201915b5050505050815260200160018201805461044190610cb6565b80601f016020809104026020016040519081016040528092919081815260200182805461046d90610cb6565b80156104ba5780601f1061048f576101008083540402835291602001916104ba565b820191906000526020600020905b81548152906001019060200180831161049d57829003601f168201915b5050505050815260200160028201548152602001600382015481525050905090565b6000600480549050905090565b60046040518060800160405280868152602001858152602001848152602001838152509080600181540180825580915050600190039060005260206000209060040201600090919091909150600082015181600001908161054a9190610e93565b5060208201518160010190816105609190610e93565b506040820151816002015560608201518160030155505050505050565b60606004805480602002602001604051908101604052809291908181526020016000905b8282101561070b57838290600052602060002090600402016040518060800160405290816000820180546105d490610cb6565b80601f016020809104026020016040519081016040528092919081815260200182805461060090610cb6565b801561064d5780601f106106225761010080835404028352916020019161064d565b820191906000526020600020905b81548152906001019060200180831161063057829003601f168201915b5050505050815260200160018201805461066690610cb6565b80601f016020809104026020016040519081016040528092919081815260200182805461069290610cb6565b80156106df5780601f106106b4576101008083540402835291602001916106df565b820191906000526020600020905b8154815290600101906020018083116106c257829003601f168201915b5050505050815260200160028201548152602001600382015481525050815260200190600101906105a1565b50505050905090565b50805461072090610cb6565b6000825580601f106107325750610751565b601f016020900490600052602060002090810190610750919061077c565b5b50565b6040518060800160405280606081526020016060815260200160008152602001600081525090565b5b8082111561079557600081600090555060010161077d565b5090565b6000604051905090565b600080fd5b600080fd5b600080fd5b600080fd5b6000601f19601f8301169050919050565b7f4e487b7100000000000000000000000000000000000000000000000000000000600052604160045260246000fd5b610800826107b7565b810181811067ffffffffffffffff8211171561081f5761081e6107c8565b5b80604052505050565b6000610832610799565b905061083e82826107f7565b919050565b600067ffffffffffffffff82111561085e5761085d6107c8565b5b610867826107b7565b9050602081019050919050565b82818337600083830152505050565b600061089661089184610843565b610828565b9050828152602081018484840111156108b2576108b16107b2565b5b6108bd848285610874565b509392505050565b600082601f8301126108da576108d96107ad565b5b81356108ea848260208601610883565b91505092915050565b6000819050919050565b610906816108f3565b811461091157600080fd5b50565b600081359050610923816108fd565b92915050565b60008060008060808587031215610943576109426107a3565b5b600085013567ffffffffffffffff811115610961576109606107a8565b5b61096d878288016108c5565b945050602085013567ffffffffffffffff81111561098e5761098d6107a8565b5b61099a878288016108c5565b93505060406109ab87828801610914565b92505060606109bc87828801610914565b91505092959194509250565b6000602082840312156109de576109dd6107a3565b5b60006109ec84828501610914565b91505092915050565b600081519050919050565b600082825260208201905092915050565b60005b83811015610a2f578082015181840152602081019050610a14565b60008484015250505050565b6000610a46826109f5565b610a508185610a00565b9350610a60818560208601610a11565b610a69816107b7565b840191505092915050565b610a7d816108f3565b82525050565b60006080830160008301518482036000860152610aa08282610a3b565b91505060208301518482036020860152610aba8282610a3b565b9150506040830151610acf6040860182610a74565b506060830151610ae26060860182610a74565b508091505092915050565b60006020820190508181036000830152610b078184610a83565b905092915050565b610b18816108f3565b82525050565b6000602082019050610b336000830184610b0f565b92915050565b600081519050919050565b600082825260208201905092915050565b6000819050602082019050919050565b60006080830160008301518482036000860152610b828282610a3b565b91505060208301518482036020860152610b9c8282610a3b565b9150506040830151610bb16040860182610a74565b506060830151610bc46060860182610a74565b508091505092915050565b6000610bdb8383610b65565b905092915050565b6000602082019050919050565b6000610bfb82610b39565b610c058185610b44565b935083602082028501610c1785610b55565b8060005b85811015610c535784840389528151610c348582610bcf565b9450610c3f83610be3565b925060208a01995050600181019050610c1b565b50829750879550505050505092915050565b60006020820190508181036000830152610c7f8184610bf0565b905092915050565b7f4e487b7100000000000000000000000000000000000000000000000000000000600052602260045260246000fd5b60006002820490506001821680610cce57607f821691505b602082108103610ce157610ce0610c87565b5b50919050565b60008190508160005260206000209050919050565b60006020601f8301049050919050565b600082821b905092915050565b600060088302610d497fffffffffffffffffffffffffffffffffffffffffffffffffffffffffffffffff82610d0c565b610d538683610d0c565b95508019841693508086168417925050509392505050565b6000819050919050565b6000610d90610d8b610d86846108f3565b610d6b565b6108f3565b9050919050565b6000819050919050565b610daa83610d75565b610dbe610db682610d97565b848454610d19565b825550505050565b600090565b610dd3610dc6565b610dde818484610da1565b505050565b5b81811015610e0257610df7600082610dcb565b600181019050610de4565b5050565b601f821115610e4757610e1881610ce7565b610e2184610cfc565b81016020851015610e30578190505b610e44610e3c85610cfc565b830182610de3565b50505b505050565b600082821c905092915050565b6000610e6a60001984600802610e4c565b1980831691505092915050565b6000610e838383610e59565b9150826002028217905092915050565b610e9c826109f5565b67ffffffffffffffff811115610eb557610eb46107c8565b5b610ebf8254610cb6565b610eca828285610e06565b600060209050601f831160018114610efd5760008415610eeb578287015190505b610ef58582610e77565b865550610f5d565b601f198416610f0b86610ce7565b60005b82811015610f3357848901518255600182019150602085019450602081019050610f0e565b86831015610f505784890151610f4c601f891682610e59565b8355505b6001600288020188555050505b505050505050565b7f4e487b7100000000000000000000000000000000000000000000000000000000600052603160045260246000fd5b7f4e487b7100000000000000000000000000000000000000000000000000000000600052603260045260246000fdfea26469706673582212203be09c8cc976eb7270bea6e4006f7c1fb2e158bc30b409298e1c6c144546d0c664736f6c63430008120033",
					"opcodes": "PUSH1 0x80 PUSH1 0x40 MSTORE CALLVALUE DUP1 ISZERO PUSH2 0x10 JUMPI PUSH1 0x0 DUP1 REVERT JUMPDEST POP PUSH2 0xFF9 DUP1 PUSH2 0x20 PUSH1 0x0 CODECOPY PUSH1 0x0 RETURN INVALID PUSH1 0x80 PUSH1 0x40 MSTORE CALLVALUE DUP1 ISZERO PUSH2 0x10 JUMPI PUSH1 0x0 DUP1 REVERT JUMPDEST POP PUSH1 0x4 CALLDATASIZE LT PUSH2 0x7D JUMPI PUSH1 0x0 CALLDATALOAD PUSH1 0xE0 SHR DUP1 PUSH4 0xB439548D GT PUSH2 0x5B JUMPI DUP1 PUSH4 0xB439548D EQ PUSH2 0xD8 JUMPI DUP1 PUSH4 0xBE1C766B EQ PUSH2 0xF6 JUMPI DUP1 PUSH4 0xCA5D45F7 EQ PUSH2 0x114 JUMPI DUP1 PUSH4 0xF1D064B3 EQ PUSH2 0x130 JUMPI PUSH2 0x7D JUMP JUMPDEST DUP1 PUSH4 0xF6A9E9B EQ PUSH2 0x82 JUMPI DUP1 PUSH4 0x41571887 EQ PUSH2 0x9E JUMPI DUP1 PUSH4 0x642F9163 EQ PUSH2 0xA8 JUMPI JUMPDEST PUSH1 0x0 DUP1 REVERT JUMPDEST PUSH2 0x9C PUSH1 0x4 DUP1 CALLDATASIZE SUB DUP2 ADD SWAP1 PUSH2 0x97 SWAP2 SWAP1 PUSH2 0x929 JUMP JUMPDEST PUSH2 0x14E JUMP JUMPDEST STOP JUMPDEST PUSH2 0xA6 PUSH2 0x1B9 JUMP JUMPDEST STOP JUMPDEST PUSH2 0xC2 PUSH1 0x4 DUP1 CALLDATASIZE SUB DUP2 ADD SWAP1 PUSH2 0xBD SWAP2 SWAP1 PUSH2 0x9C8 JUMP JUMPDEST PUSH2 0x216 JUMP JUMPDEST PUSH1 0x40 MLOAD PUSH2 0xCF SWAP2 SWAP1 PUSH2 0xAED JUMP JUMPDEST PUSH1 0x40 MLOAD DUP1 SWAP2 SUB SWAP1 RETURN JUMPDEST PUSH2 0xE0 PUSH2 0x38A JUMP JUMPDEST PUSH1 0x40 MLOAD PUSH2 0xED SWAP2 SWAP1 PUSH2 0xAED JUMP JUMPDEST PUSH1 0x40 MLOAD DUP1 SWAP2 SUB SWAP1 RETURN JUMPDEST PUSH2 0xFE PUSH2 0x4DC JUMP JUMPDEST PUSH1 0x40 MLOAD PUSH2 0x10B SWAP2 SWAP1 PUSH2 0xB1E JUMP JUMPDEST PUSH1 0x40 MLOAD DUP1 SWAP2 SUB SWAP1 RETURN JUMPDEST PUSH2 0x12E PUSH1 0x4 DUP1 CALLDATASIZE SUB DUP2 ADD SWAP1 PUSH2 0x129 SWAP2 SWAP1 PUSH2 0x929 JUMP JUMPDEST PUSH2 0x4E9 JUMP JUMPDEST STOP JUMPDEST PUSH2 0x138 PUSH2 0x57D JUMP JUMPDEST PUSH1 0x40 MLOAD PUSH2 0x145 SWAP2 SWAP1 PUSH2 0xC65 JUMP JUMPDEST PUSH1 0x40 MLOAD DUP1 SWAP2 SUB SWAP1 RETURN JUMPDEST PUSH1 0x40 MLOAD DUP1 PUSH1 0x80 ADD PUSH1 0x40 MSTORE DUP1 DUP6 DUP2 MSTORE PUSH1 0x20 ADD DUP5 DUP2 MSTORE PUSH1 0x20 ADD DUP4 DUP2 MSTORE PUSH1 0x20 ADD DUP3 DUP2 MSTORE POP PUSH1 0x0 DUP1 DUP3 ADD MLOAD DUP2 PUSH1 0x0 ADD SWAP1 DUP2 PUSH2 0x185 SWAP2 SWAP1 PUSH2 0xE93 JUMP JUMPDEST POP PUSH1 0x20 DUP3 ADD MLOAD DUP2 PUSH1 0x1 ADD SWAP1 DUP2 PUSH2 0x19B SWAP2 SWAP1 PUSH2 0xE93 JUMP JUMPDEST POP PUSH1 0x40 DUP3 ADD MLOAD DUP2 PUSH1 0x2 ADD SSTORE PUSH1 0x60 DUP3 ADD MLOAD DUP2 PUSH1 0x3 ADD SSTORE SWAP1 POP POP POP POP POP POP JUMP JUMPDEST PUSH1 0x4 DUP1 SLOAD DUP1 PUSH2 0x1CB JUMPI PUSH2 0x1CA PUSH2 0xF65 JUMP JUMPDEST JUMPDEST PUSH1 0x1 SWAP1 SUB DUP2 DUP2 SWAP1 PUSH1 0x0 MSTORE PUSH1 0x20 PUSH1 0x0 KECCAK256 SWAP1 PUSH1 0x4 MUL ADD PUSH1 0x0 DUP1 DUP3 ADD PUSH1 0x0 PUSH2 0x1F0 SWAP2 SWAP1 PUSH2 0x714 JUMP JUMPDEST PUSH1 0x1 DUP3 ADD PUSH1 0x0 PUSH2 0x200 SWAP2 SWAP1 PUSH2 0x714 JUMP JUMPDEST PUSH1 0x2 DUP3 ADD PUSH1 0x0 SWAP1 SSTORE PUSH1 0x3 DUP3 ADD PUSH1 0x0 SWAP1 SSTORE POP POP SWAP1 SSTORE JUMP JUMPDEST PUSH2 0x21E PUSH2 0x754 JUMP JUMPDEST PUSH1 0x4 DUP3 DUP2 SLOAD DUP2 LT PUSH2 0x232 JUMPI PUSH2 0x231 PUSH2 0xF94 JUMP JUMPDEST JUMPDEST SWAP1 PUSH1 0x0 MSTORE PUSH1 0x20 PUSH1 0x0 KECCAK256 SWAP1 PUSH1 0x4 MUL ADD PUSH1 0x40 MLOAD DUP1 PUSH1 0x80 ADD PUSH1 0x40 MSTORE SWAP1 DUP2 PUSH1 0x0 DUP3 ADD DUP1 SLOAD PUSH2 0x25B SWAP1 PUSH2 0xCB6 JUMP JUMPDEST DUP1 PUSH1 0x1F ADD PUSH1 0x20 DUP1 SWAP2 DIV MUL PUSH1 0x20 ADD PUSH1 0x40 MLOAD SWAP1 DUP2 ADD PUSH1 0x40 MSTORE DUP1 SWAP3 SWAP2 SWAP1 DUP2 DUP2 MSTORE PUSH1 0x20 ADD DUP3 DUP1 SLOAD PUSH2 0x287 SWAP1 PUSH2 0xCB6 JUMP JUMPDEST DUP1 ISZERO PUSH2 0x2D4 JUMPI DUP1 PUSH1 0x1F LT PUSH2 0x2A9 JUMPI PUSH2 0x100 DUP1 DUP4 SLOAD DIV MUL DUP4 MSTORE SWAP2 PUSH1 0x20 ADD SWAP2 PUSH2 0x2D4 JUMP JUMPDEST DUP3 ADD SWAP2 SWAP1 PUSH1 0x0 MSTORE PUSH1 0x20 PUSH1 0x0 KECCAK256 SWAP1 JUMPDEST DUP2 SLOAD DUP2 MSTORE SWAP1 PUSH1 0x1 ADD SWAP1 PUSH1 0x20 ADD DUP1 DUP4 GT PUSH2 0x2B7 JUMPI DUP3 SWAP1 SUB PUSH1 0x1F AND DUP3 ADD SWAP2 JUMPDEST POP POP POP POP POP DUP2 MSTORE PUSH1 0x20 ADD PUSH1 0x1 DUP3 ADD DUP1 SLOAD PUSH2 0x2ED SWAP1 PUSH2 0xCB6 JUMP JUMPDEST DUP1 PUSH1 0x1F ADD PUSH1 0x20 DUP1 SWAP2 DIV MUL PUSH1 0x20 ADD PUSH1 0x40 MLOAD SWAP1 DUP2 ADD PUSH1 0x40 MSTORE DUP1 SWAP3 SWAP2 SWAP1 DUP2 DUP2 MSTORE PUSH1 0x20 ADD DUP3 DUP1 SLOAD PUSH2 0x319 SWAP1 PUSH2 0xCB6 JUMP JUMPDEST DUP1 ISZERO PUSH2 0x366 JUMPI DUP1 PUSH1 0x1F LT PUSH2 0x33B JUMPI PUSH2 0x100 DUP1 DUP4 SLOAD DIV MUL DUP4 MSTORE SWAP2 PUSH1 0x20 ADD SWAP2 PUSH2 0x366 JUMP JUMPDEST DUP3 ADD SWAP2 SWAP1 PUSH1 0x0 MSTORE PUSH1 0x20 PUSH1 0x0 KECCAK256 SWAP1 JUMPDEST DUP2 SLOAD DUP2 MSTORE SWAP1 PUSH1 0x1 ADD SWAP1 PUSH1 0x20 ADD DUP1 DUP4 GT PUSH2 0x349 JUMPI DUP3 SWAP1 SUB PUSH1 0x1F AND DUP3 ADD SWAP2 JUMPDEST POP POP POP POP POP DUP2 MSTORE PUSH1 0x20 ADD PUSH1 0x2 DUP3 ADD SLOAD DUP2 MSTORE PUSH1 0x20 ADD PUSH1 0x3 DUP3 ADD SLOAD DUP2 MSTORE POP POP SWAP1 POP SWAP2 SWAP1 POP JUMP JUMPDEST PUSH2 0x392 PUSH2 0x754 JUMP JUMPDEST PUSH1 0x0 PUSH1 0x40 MLOAD DUP1 PUSH1 0x80 ADD PUSH1 0x40 MSTORE SWAP1 DUP2 PUSH1 0x0 DUP3 ADD DUP1 SLOAD PUSH2 0x3AF SWAP1 PUSH2 0xCB6 JUMP JUMPDEST DUP1 PUSH1 0x1F ADD PUSH1 0x20 DUP1 SWAP2 DIV MUL PUSH1 0x20 ADD PUSH1 0x40 MLOAD SWAP1 DUP2 ADD PUSH1 0x40 MSTORE DUP1 SWAP3 SWAP2 SWAP1 DUP2 DUP2 MSTORE PUSH1 0x20 ADD DUP3 DUP1 SLOAD PUSH2 0x3DB SWAP1 PUSH2 0xCB6 JUMP JUMPDEST DUP1 ISZERO PUSH2 0x428 JUMPI DUP1 PUSH1 0x1F LT PUSH2 0x3FD JUMPI PUSH2 0x100 DUP1 DUP4 SLOAD DIV MUL DUP4 MSTORE SWAP2 PUSH1 0x20 ADD SWAP2 PUSH2 0x428 JUMP JUMPDEST DUP3 ADD SWAP2 SWAP1 PUSH1 0x0 MSTORE PUSH1 0x20 PUSH1 0x0 KECCAK256 SWAP1 JUMPDEST DUP2 SLOAD DUP2 MSTORE SWAP1 PUSH1 0x1 ADD SWAP1 PUSH1 0x20 ADD DUP1 DUP4 GT PUSH2 0x40B JUMPI DUP3 SWAP1 SUB PUSH1 0x1F AND DUP3 ADD SWAP2 JUMPDEST POP POP POP POP POP DUP2 MSTORE PUSH1 0x20 ADD PUSH1 0x1 DUP3 ADD DUP1 SLOAD PUSH2 0x441 SWAP1 PUSH2 0xCB6 JUMP JUMPDEST DUP1 PUSH1 0x1F ADD PUSH1 0x20 DUP1 SWAP2 DIV MUL PUSH1 0x20 ADD PUSH1 0x40 MLOAD SWAP1 DUP2 ADD PUSH1 0x40 MSTORE DUP1 SWAP3 SWAP2 SWAP1 DUP2 DUP2 MSTORE PUSH1 0x20 ADD DUP3 DUP1 SLOAD PUSH2 0x46D SWAP1 PUSH2 0xCB6 JUMP JUMPDEST DUP1 ISZERO PUSH2 0x4BA JUMPI DUP1 PUSH1 0x1F LT PUSH2 0x48F JUMPI PUSH2 0x100 DUP1 DUP4 SLOAD DIV MUL DUP4 MSTORE SWAP2 PUSH1 0x20 ADD SWAP2 PUSH2 0x4BA JUMP JUMPDEST DUP3 ADD SWAP2 SWAP1 PUSH1 0x0 MSTORE PUSH1 0x20 PUSH1 0x0 KECCAK256 SWAP1 JUMPDEST DUP2 SLOAD DUP2 MSTORE SWAP1 PUSH1 0x1 ADD SWAP1 PUSH1 0x20 ADD DUP1 DUP4 GT PUSH2 0x49D JUMPI DUP3 SWAP1 SUB PUSH1 0x1F AND DUP3 ADD SWAP2 JUMPDEST POP POP POP POP POP DUP2 MSTORE PUSH1 0x20 ADD PUSH1 0x2 DUP3 ADD SLOAD DUP2 MSTORE PUSH1 0x20 ADD PUSH1 0x3 DUP3 ADD SLOAD DUP2 MSTORE POP POP SWAP1 POP SWAP1 JUMP JUMPDEST PUSH1 0x0 PUSH1 0x4 DUP1 SLOAD SWAP1 POP SWAP1 POP SWAP1 JUMP JUMPDEST PUSH1 0x4 PUSH1 0x40 MLOAD DUP1 PUSH1 0x80 ADD PUSH1 0x40 MSTORE DUP1 DUP7 DUP2 MSTORE PUSH1 0x20 ADD DUP6 DUP2 MSTORE PUSH1 0x20 ADD DUP5 DUP2 MSTORE PUSH1 0x20 ADD DUP4 DUP2 MSTORE POP SWAP1 DUP1 PUSH1 0x1 DUP2 SLOAD ADD DUP1 DUP3 SSTORE DUP1 SWAP2 POP POP PUSH1 0x1 SWAP1 SUB SWAP1 PUSH1 0x0 MSTORE PUSH1 0x20 PUSH1 0x0 KECCAK256 SWAP1 PUSH1 0x4 MUL ADD PUSH1 0x0 SWAP1 SWAP2 SWAP1 SWAP2 SWAP1 SWAP2 POP PUSH1 0x0 DUP3 ADD MLOAD DUP2 PUSH1 0x0 ADD SWAP1 DUP2 PUSH2 0x54A SWAP2 SWAP1 PUSH2 0xE93 JUMP JUMPDEST POP PUSH1 0x20 DUP3 ADD MLOAD DUP2 PUSH1 0x1 ADD SWAP1 DUP2 PUSH2 0x560 SWAP2 SWAP1 PUSH2 0xE93 JUMP JUMPDEST POP PUSH1 0x40 DUP3 ADD MLOAD DUP2 PUSH1 0x2 ADD SSTORE PUSH1 0x60 DUP3 ADD MLOAD DUP2 PUSH1 0x3 ADD SSTORE POP POP POP POP POP POP JUMP JUMPDEST PUSH1 0x60 PUSH1 0x4 DUP1 SLOAD DUP1 PUSH1 0x20 MUL PUSH1 0x20 ADD PUSH1 0x40 MLOAD SWAP1 DUP2 ADD PUSH1 0x40 MSTORE DUP1 SWAP3 SWAP2 SWAP1 DUP2 DUP2 MSTORE PUSH1 0x20 ADD PUSH1 0x0 SWAP1 JUMPDEST DUP3 DUP3 LT ISZERO PUSH2 0x70B JUMPI DUP4 DUP3 SWAP1 PUSH1 0x0 MSTORE PUSH1 0x20 PUSH1 0x0 KECCAK256 SWAP1 PUSH1 0x4 MUL ADD PUSH1 0x40 MLOAD DUP1 PUSH1 0x80 ADD PUSH1 0x40 MSTORE SWAP1 DUP2 PUSH1 0x0 DUP3 ADD DUP1 SLOAD PUSH2 0x5D4 SWAP1 PUSH2 0xCB6 JUMP JUMPDEST DUP1 PUSH1 0x1F ADD PUSH1 0x20 DUP1 SWAP2 DIV MUL PUSH1 0x20 ADD PUSH1 0x40 MLOAD SWAP1 DUP2 ADD PUSH1 0x40 MSTORE DUP1 SWAP3 SWAP2 SWAP1 DUP2 DUP2 MSTORE PUSH1 0x20 ADD DUP3 DUP1 SLOAD PUSH2 0x600 SWAP1 PUSH2 0xCB6 JUMP JUMPDEST DUP1 ISZERO PUSH2 0x64D JUMPI DUP1 PUSH1 0x1F LT PUSH2 0x622 JUMPI PUSH2 0x100 DUP1 DUP4 SLOAD DIV MUL DUP4 MSTORE SWAP2 PUSH1 0x20 ADD SWAP2 PUSH2 0x64D JUMP JUMPDEST DUP3 ADD SWAP2 SWAP1 PUSH1 0x0 MSTORE PUSH1 0x20 PUSH1 0x0 KECCAK256 SWAP1 JUMPDEST DUP2 SLOAD DUP2 MSTORE SWAP1 PUSH1 0x1 ADD SWAP1 PUSH1 0x20 ADD DUP1 DUP4 GT PUSH2 0x630 JUMPI DUP3 SWAP1 SUB PUSH1 0x1F AND DUP3 ADD SWAP2 JUMPDEST POP POP POP POP POP DUP2 MSTORE PUSH1 0x20 ADD PUSH1 0x1 DUP3 ADD DUP1 SLOAD PUSH2 0x666 SWAP1 PUSH2 0xCB6 JUMP JUMPDEST DUP1 PUSH1 0x1F ADD PUSH1 0x20 DUP1 SWAP2 DIV MUL PUSH1 0x20 ADD PUSH1 0x40 MLOAD SWAP1 DUP2 ADD PUSH1 0x40 MSTORE DUP1 SWAP3 SWAP2 SWAP1 DUP2 DUP2 MSTORE PUSH1 0x20 ADD DUP3 DUP1 SLOAD PUSH2 0x692 SWAP1 PUSH2 0xCB6 JUMP JUMPDEST DUP1 ISZERO PUSH2 0x6DF JUMPI DUP1 PUSH1 0x1F LT PUSH2 0x6B4 JUMPI PUSH2 0x100 DUP1 DUP4 SLOAD DIV MUL DUP4 MSTORE SWAP2 PUSH1 0x20 ADD SWAP2 PUSH2 0x6DF JUMP JUMPDEST DUP3 ADD SWAP2 SWAP1 PUSH1 0x0 MSTORE PUSH1 0x20 PUSH1 0x0 KECCAK256 SWAP1 JUMPDEST DUP2 SLOAD DUP2 MSTORE SWAP1 PUSH1 0x1 ADD SWAP1 PUSH1 0x20 ADD DUP1 DUP4 GT PUSH2 0x6C2 JUMPI DUP3 SWAP1 SUB PUSH1 0x1F AND DUP3 ADD SWAP2 JUMPDEST POP POP POP POP POP DUP2 MSTORE PUSH1 0x20 ADD PUSH1 0x2 DUP3 ADD SLOAD DUP2 MSTORE PUSH1 0x20 ADD PUSH1 0x3 DUP3 ADD SLOAD DUP2 MSTORE POP POP DUP2 MSTORE PUSH1 0x20 ADD SWAP1 PUSH1 0x1 ADD SWAP1 PUSH2 0x5A1 JUMP JUMPDEST POP POP POP POP SWAP1 POP SWAP1 JUMP JUMPDEST POP DUP1 SLOAD PUSH2 0x720 SWAP1 PUSH2 0xCB6 JUMP JUMPDEST PUSH1 0x0 DUP3 SSTORE DUP1 PUSH1 0x1F LT PUSH2 0x732 JUMPI POP PUSH2 0x751 JUMP JUMPDEST PUSH1 0x1F ADD PUSH1 0x20 SWAP1 DIV SWAP1 PUSH1 0x0 MSTORE PUSH1 0x20 PUSH1 0x0 KECCAK256 SWAP1 DUP2 ADD SWAP1 PUSH2 0x750 SWAP2 SWAP1 PUSH2 0x77C JUMP JUMPDEST JUMPDEST POP JUMP JUMPDEST PUSH1 0x40 MLOAD DUP1 PUSH1 0x80 ADD PUSH1 0x40 MSTORE DUP1 PUSH1 0x60 DUP2 MSTORE PUSH1 0x20 ADD PUSH1 0x60 DUP2 MSTORE PUSH1 0x20 ADD PUSH1 0x0 DUP2 MSTORE PUSH1 0x20 ADD PUSH1 0x0 DUP2 MSTORE POP SWAP1 JUMP JUMPDEST JUMPDEST DUP1 DUP3 GT ISZERO PUSH2 0x795 JUMPI PUSH1 0x0 DUP2 PUSH1 0x0 SWAP1 SSTORE POP PUSH1 0x1 ADD PUSH2 0x77D JUMP JUMPDEST POP SWAP1 JUMP JUMPDEST PUSH1 0x0 PUSH1 0x40 MLOAD SWAP1 POP SWAP1 JUMP JUMPDEST PUSH1 0x0 DUP1 REVERT JUMPDEST PUSH1 0x0 DUP1 REVERT JUMPDEST PUSH1 0x0 DUP1 REVERT JUMPDEST PUSH1 0x0 DUP1 REVERT JUMPDEST PUSH1 0x0 PUSH1 0x1F NOT PUSH1 0x1F DUP4 ADD AND SWAP1 POP SWAP2 SWAP1 POP JUMP JUMPDEST PUSH32 0x4E487B7100000000000000000000000000000000000000000000000000000000 PUSH1 0x0 MSTORE PUSH1 0x41 PUSH1 0x4 MSTORE PUSH1 0x24 PUSH1 0x0 REVERT JUMPDEST PUSH2 0x800 DUP3 PUSH2 0x7B7 JUMP JUMPDEST DUP2 ADD DUP2 DUP2 LT PUSH8 0xFFFFFFFFFFFFFFFF DUP3 GT OR ISZERO PUSH2 0x81F JUMPI PUSH2 0x81E PUSH2 0x7C8 JUMP JUMPDEST JUMPDEST DUP1 PUSH1 0x40 MSTORE POP POP POP JUMP JUMPDEST PUSH1 0x0 PUSH2 0x832 PUSH2 0x799 JUMP JUMPDEST SWAP1 POP PUSH2 0x83E DUP3 DUP3 PUSH2 0x7F7 JUMP JUMPDEST SWAP2 SWAP1 POP JUMP JUMPDEST PUSH1 0x0 PUSH8 0xFFFFFFFFFFFFFFFF DUP3 GT ISZERO PUSH2 0x85E JUMPI PUSH2 0x85D PUSH2 0x7C8 JUMP JUMPDEST JUMPDEST PUSH2 0x867 DUP3 PUSH2 0x7B7 JUMP JUMPDEST SWAP1 POP PUSH1 0x20 DUP2 ADD SWAP1 POP SWAP2 SWAP1 POP JUMP JUMPDEST DUP3 DUP2 DUP4 CALLDATACOPY PUSH1 0x0 DUP4 DUP4 ADD MSTORE POP POP POP JUMP JUMPDEST PUSH1 0x0 PUSH2 0x896 PUSH2 0x891 DUP5 PUSH2 0x843 JUMP JUMPDEST PUSH2 0x828 JUMP JUMPDEST SWAP1 POP DUP3 DUP2 MSTORE PUSH1 0x20 DUP2 ADD DUP5 DUP5 DUP5 ADD GT ISZERO PUSH2 0x8B2 JUMPI PUSH2 0x8B1 PUSH2 0x7B2 JUMP JUMPDEST JUMPDEST PUSH2 0x8BD DUP5 DUP3 DUP6 PUSH2 0x874 JUMP JUMPDEST POP SWAP4 SWAP3 POP POP POP JUMP JUMPDEST PUSH1 0x0 DUP3 PUSH1 0x1F DUP4 ADD SLT PUSH2 0x8DA JUMPI PUSH2 0x8D9 PUSH2 0x7AD JUMP JUMPDEST JUMPDEST DUP2 CALLDATALOAD PUSH2 0x8EA DUP5 DUP3 PUSH1 0x20 DUP7 ADD PUSH2 0x883 JUMP JUMPDEST SWAP2 POP POP SWAP3 SWAP2 POP POP JUMP JUMPDEST PUSH1 0x0 DUP2 SWAP1 POP SWAP2 SWAP1 POP JUMP JUMPDEST PUSH2 0x906 DUP2 PUSH2 0x8F3 JUMP JUMPDEST DUP2 EQ PUSH2 0x911 JUMPI PUSH1 0x0 DUP1 REVERT JUMPDEST POP JUMP JUMPDEST PUSH1 0x0 DUP2 CALLDATALOAD SWAP1 POP PUSH2 0x923 DUP2 PUSH2 0x8FD JUMP JUMPDEST SWAP3 SWAP2 POP POP JUMP JUMPDEST PUSH1 0x0 DUP1 PUSH1 0x0 DUP1 PUSH1 0x80 DUP6 DUP8 SUB SLT ISZERO PUSH2 0x943 JUMPI PUSH2 0x942 PUSH2 0x7A3 JUMP JUMPDEST JUMPDEST PUSH1 0x0 DUP6 ADD CALLDATALOAD PUSH8 0xFFFFFFFFFFFFFFFF DUP2 GT ISZERO PUSH2 0x961 JUMPI PUSH2 0x960 PUSH2 0x7A8 JUMP JUMPDEST JUMPDEST PUSH2 0x96D DUP8 DUP3 DUP9 ADD PUSH2 0x8C5 JUMP JUMPDEST SWAP5 POP POP PUSH1 0x20 DUP6 ADD CALLDATALOAD PUSH8 0xFFFFFFFFFFFFFFFF DUP2 GT ISZERO PUSH2 0x98E JUMPI PUSH2 0x98D PUSH2 0x7A8 JUMP JUMPDEST JUMPDEST PUSH2 0x99A DUP8 DUP3 DUP9 ADD PUSH2 0x8C5 JUMP JUMPDEST SWAP4 POP POP PUSH1 0x40 PUSH2 0x9AB DUP8 DUP3 DUP9 ADD PUSH2 0x914 JUMP JUMPDEST SWAP3 POP POP PUSH1 0x60 PUSH2 0x9BC DUP8 DUP3 DUP9 ADD PUSH2 0x914 JUMP JUMPDEST SWAP2 POP POP SWAP3 SWAP6 SWAP2 SWAP5 POP SWAP3 POP JUMP JUMPDEST PUSH1 0x0 PUSH1 0x20 DUP3 DUP5 SUB SLT ISZERO PUSH2 0x9DE JUMPI PUSH2 0x9DD PUSH2 0x7A3 JUMP JUMPDEST JUMPDEST PUSH1 0x0 PUSH2 0x9EC DUP5 DUP3 DUP6 ADD PUSH2 0x914 JUMP JUMPDEST SWAP2 POP POP SWAP3 SWAP2 POP POP JUMP JUMPDEST PUSH1 0x0 DUP2 MLOAD SWAP1 POP SWAP2 SWAP1 POP JUMP JUMPDEST PUSH1 0x0 DUP3 DUP3 MSTORE PUSH1 0x20 DUP3 ADD SWAP1 POP SWAP3 SWAP2 POP POP JUMP JUMPDEST PUSH1 0x0 JUMPDEST DUP4 DUP2 LT ISZERO PUSH2 0xA2F JUMPI DUP1 DUP3 ADD MLOAD DUP2 DUP5 ADD MSTORE PUSH1 0x20 DUP2 ADD SWAP1 POP PUSH2 0xA14 JUMP JUMPDEST PUSH1 0x0 DUP5 DUP5 ADD MSTORE POP POP POP POP JUMP JUMPDEST PUSH1 0x0 PUSH2 0xA46 DUP3 PUSH2 0x9F5 JUMP JUMPDEST PUSH2 0xA50 DUP2 DUP6 PUSH2 0xA00 JUMP JUMPDEST SWAP4 POP PUSH2 0xA60 DUP2 DUP6 PUSH1 0x20 DUP7 ADD PUSH2 0xA11 JUMP JUMPDEST PUSH2 0xA69 DUP2 PUSH2 0x7B7 JUMP JUMPDEST DUP5 ADD SWAP2 POP POP SWAP3 SWAP2 POP POP JUMP JUMPDEST PUSH2 0xA7D DUP2 PUSH2 0x8F3 JUMP JUMPDEST DUP3 MSTORE POP POP JUMP JUMPDEST PUSH1 0x0 PUSH1 0x80 DUP4 ADD PUSH1 0x0 DUP4 ADD MLOAD DUP5 DUP3 SUB PUSH1 0x0 DUP7 ADD MSTORE PUSH2 0xAA0 DUP3 DUP3 PUSH2 0xA3B JUMP JUMPDEST SWAP2 POP POP PUSH1 0x20 DUP4 ADD MLOAD DUP5 DUP3 SUB PUSH1 0x20 DUP7 ADD MSTORE PUSH2 0xABA DUP3 DUP3 PUSH2 0xA3B JUMP JUMPDEST SWAP2 POP POP PUSH1 0x40 DUP4 ADD MLOAD PUSH2 0xACF PUSH1 0x40 DUP7 ADD DUP3 PUSH2 0xA74 JUMP JUMPDEST POP PUSH1 0x60 DUP4 ADD MLOAD PUSH2 0xAE2 PUSH1 0x60 DUP7 ADD DUP3 PUSH2 0xA74 JUMP JUMPDEST POP DUP1 SWAP2 POP POP SWAP3 SWAP2 POP POP JUMP JUMPDEST PUSH1 0x0 PUSH1 0x20 DUP3 ADD SWAP1 POP DUP2 DUP2 SUB PUSH1 0x0 DUP4 ADD MSTORE PUSH2 0xB07 DUP2 DUP5 PUSH2 0xA83 JUMP JUMPDEST SWAP1 POP SWAP3 SWAP2 POP POP JUMP JUMPDEST PUSH2 0xB18 DUP2 PUSH2 0x8F3 JUMP JUMPDEST DUP3 MSTORE POP POP JUMP JUMPDEST PUSH1 0x0 PUSH1 0x20 DUP3 ADD SWAP1 POP PUSH2 0xB33 PUSH1 0x0 DUP4 ADD DUP5 PUSH2 0xB0F JUMP JUMPDEST SWAP3 SWAP2 POP POP JUMP JUMPDEST PUSH1 0x0 DUP2 MLOAD SWAP1 POP SWAP2 SWAP1 POP JUMP JUMPDEST PUSH1 0x0 DUP3 DUP3 MSTORE PUSH1 0x20 DUP3 ADD SWAP1 POP SWAP3 SWAP2 POP POP JUMP JUMPDEST PUSH1 0x0 DUP2 SWAP1 POP PUSH1 0x20 DUP3 ADD SWAP1 POP SWAP2 SWAP1 POP JUMP JUMPDEST PUSH1 0x0 PUSH1 0x80 DUP4 ADD PUSH1 0x0 DUP4 ADD MLOAD DUP5 DUP3 SUB PUSH1 0x0 DUP7 ADD MSTORE PUSH2 0xB82 DUP3 DUP3 PUSH2 0xA3B JUMP JUMPDEST SWAP2 POP POP PUSH1 0x20 DUP4 ADD MLOAD DUP5 DUP3 SUB PUSH1 0x20 DUP7 ADD MSTORE PUSH2 0xB9C DUP3 DUP3 PUSH2 0xA3B JUMP JUMPDEST SWAP2 POP POP PUSH1 0x40 DUP4 ADD MLOAD PUSH2 0xBB1 PUSH1 0x40 DUP7 ADD DUP3 PUSH2 0xA74 JUMP JUMPDEST POP PUSH1 0x60 DUP4 ADD MLOAD PUSH2 0xBC4 PUSH1 0x60 DUP7 ADD DUP3 PUSH2 0xA74 JUMP JUMPDEST POP DUP1 SWAP2 POP POP SWAP3 SWAP2 POP POP JUMP JUMPDEST PUSH1 0x0 PUSH2 0xBDB DUP4 DUP4 PUSH2 0xB65 JUMP JUMPDEST SWAP1 POP SWAP3 SWAP2 POP POP JUMP JUMPDEST PUSH1 0x0 PUSH1 0x20 DUP3 ADD SWAP1 POP SWAP2 SWAP1 POP JUMP JUMPDEST PUSH1 0x0 PUSH2 0xBFB DUP3 PUSH2 0xB39 JUMP JUMPDEST PUSH2 0xC05 DUP2 DUP6 PUSH2 0xB44 JUMP JUMPDEST SWAP4 POP DUP4 PUSH1 0x20 DUP3 MUL DUP6 ADD PUSH2 0xC17 DUP6 PUSH2 0xB55 JUMP JUMPDEST DUP1 PUSH1 0x0 JUMPDEST DUP6 DUP2 LT ISZERO PUSH2 0xC53 JUMPI DUP5 DUP5 SUB DUP10 MSTORE DUP2 MLOAD PUSH2 0xC34 DUP6 DUP3 PUSH2 0xBCF JUMP JUMPDEST SWAP5 POP PUSH2 0xC3F DUP4 PUSH2 0xBE3 JUMP JUMPDEST SWAP3 POP PUSH1 0x20 DUP11 ADD SWAP10 POP POP PUSH1 0x1 DUP2 ADD SWAP1 POP PUSH2 0xC1B JUMP JUMPDEST POP DUP3 SWAP8 POP DUP8 SWAP6 POP POP POP POP POP POP SWAP3 SWAP2 POP POP JUMP JUMPDEST PUSH1 0x0 PUSH1 0x20 DUP3 ADD SWAP1 POP DUP2 DUP2 SUB PUSH1 0x0 DUP4 ADD MSTORE PUSH2 0xC7F DUP2 DUP5 PUSH2 0xBF0 JUMP JUMPDEST SWAP1 POP SWAP3 SWAP2 POP POP JUMP JUMPDEST PUSH32 0x4E487B7100000000000000000000000000000000000000000000000000000000 PUSH1 0x0 MSTORE PUSH1 0x22 PUSH1 0x4 MSTORE PUSH1 0x24 PUSH1 0x0 REVERT JUMPDEST PUSH1 0x0 PUSH1 0x2 DUP3 DIV SWAP1 POP PUSH1 0x1 DUP3 AND DUP1 PUSH2 0xCCE JUMPI PUSH1 0x7F DUP3 AND SWAP2 POP JUMPDEST PUSH1 0x20 DUP3 LT DUP2 SUB PUSH2 0xCE1 JUMPI PUSH2 0xCE0 PUSH2 0xC87 JUMP JUMPDEST JUMPDEST POP SWAP2 SWAP1 POP JUMP JUMPDEST PUSH1 0x0 DUP2 SWAP1 POP DUP2 PUSH1 0x0 MSTORE PUSH1 0x20 PUSH1 0x0 KECCAK256 SWAP1 POP SWAP2 SWAP1 POP JUMP JUMPDEST PUSH1 0x0 PUSH1 0x20 PUSH1 0x1F DUP4 ADD DIV SWAP1 POP SWAP2 SWAP1 POP JUMP JUMPDEST PUSH1 0x0 DUP3 DUP3 SHL SWAP1 POP SWAP3 SWAP2 POP POP JUMP JUMPDEST PUSH1 0x0 PUSH1 0x8 DUP4 MUL PUSH2 0xD49 PUSH32 0xFFFFFFFFFFFFFFFFFFFFFFFFFFFFFFFFFFFFFFFFFFFFFFFFFFFFFFFFFFFFFFFF DUP3 PUSH2 0xD0C JUMP JUMPDEST PUSH2 0xD53 DUP7 DUP4 PUSH2 0xD0C JUMP JUMPDEST SWAP6 POP DUP1 NOT DUP5 AND SWAP4 POP DUP1 DUP7 AND DUP5 OR SWAP3 POP POP POP SWAP4 SWAP3 POP POP POP JUMP JUMPDEST PUSH1 0x0 DUP2 SWAP1 POP SWAP2 SWAP1 POP JUMP JUMPDEST PUSH1 0x0 PUSH2 0xD90 PUSH2 0xD8B PUSH2 0xD86 DUP5 PUSH2 0x8F3 JUMP JUMPDEST PUSH2 0xD6B JUMP JUMPDEST PUSH2 0x8F3 JUMP JUMPDEST SWAP1 POP SWAP2 SWAP1 POP JUMP JUMPDEST PUSH1 0x0 DUP2 SWAP1 POP SWAP2 SWAP1 POP JUMP JUMPDEST PUSH2 0xDAA DUP4 PUSH2 0xD75 JUMP JUMPDEST PUSH2 0xDBE PUSH2 0xDB6 DUP3 PUSH2 0xD97 JUMP JUMPDEST DUP5 DUP5 SLOAD PUSH2 0xD19 JUMP JUMPDEST DUP3 SSTORE POP POP POP POP JUMP JUMPDEST PUSH1 0x0 SWAP1 JUMP JUMPDEST PUSH2 0xDD3 PUSH2 0xDC6 JUMP JUMPDEST PUSH2 0xDDE DUP2 DUP5 DUP5 PUSH2 0xDA1 JUMP JUMPDEST POP POP POP JUMP JUMPDEST JUMPDEST DUP2 DUP2 LT ISZERO PUSH2 0xE02 JUMPI PUSH2 0xDF7 PUSH1 0x0 DUP3 PUSH2 0xDCB JUMP JUMPDEST PUSH1 0x1 DUP2 ADD SWAP1 POP PUSH2 0xDE4 JUMP JUMPDEST POP POP JUMP JUMPDEST PUSH1 0x1F DUP3 GT ISZERO PUSH2 0xE47 JUMPI PUSH2 0xE18 DUP2 PUSH2 0xCE7 JUMP JUMPDEST PUSH2 0xE21 DUP5 PUSH2 0xCFC JUMP JUMPDEST DUP2 ADD PUSH1 0x20 DUP6 LT ISZERO PUSH2 0xE30 JUMPI DUP2 SWAP1 POP JUMPDEST PUSH2 0xE44 PUSH2 0xE3C DUP6 PUSH2 0xCFC JUMP JUMPDEST DUP4 ADD DUP3 PUSH2 0xDE3 JUMP JUMPDEST POP POP JUMPDEST POP POP POP JUMP JUMPDEST PUSH1 0x0 DUP3 DUP3 SHR SWAP1 POP SWAP3 SWAP2 POP POP JUMP JUMPDEST PUSH1 0x0 PUSH2 0xE6A PUSH1 0x0 NOT DUP5 PUSH1 0x8 MUL PUSH2 0xE4C JUMP JUMPDEST NOT DUP1 DUP4 AND SWAP2 POP POP SWAP3 SWAP2 POP POP JUMP JUMPDEST PUSH1 0x0 PUSH2 0xE83 DUP4 DUP4 PUSH2 0xE59 JUMP JUMPDEST SWAP2 POP DUP3 PUSH1 0x2 MUL DUP3 OR SWAP1 POP SWAP3 SWAP2 POP POP JUMP JUMPDEST PUSH2 0xE9C DUP3 PUSH2 0x9F5 JUMP JUMPDEST PUSH8 0xFFFFFFFFFFFFFFFF DUP2 GT ISZERO PUSH2 0xEB5 JUMPI PUSH2 0xEB4 PUSH2 0x7C8 JUMP JUMPDEST JUMPDEST PUSH2 0xEBF DUP3 SLOAD PUSH2 0xCB6 JUMP JUMPDEST PUSH2 0xECA DUP3 DUP3 DUP6 PUSH2 0xE06 JUMP JUMPDEST PUSH1 0x0 PUSH1 0x20 SWAP1 POP PUSH1 0x1F DUP4 GT PUSH1 0x1 DUP2 EQ PUSH2 0xEFD JUMPI PUSH1 0x0 DUP5 ISZERO PUSH2 0xEEB JUMPI DUP3 DUP8 ADD MLOAD SWAP1 POP JUMPDEST PUSH2 0xEF5 DUP6 DUP3 PUSH2 0xE77 JUMP JUMPDEST DUP7 SSTORE POP PUSH2 0xF5D JUMP JUMPDEST PUSH1 0x1F NOT DUP5 AND PUSH2 0xF0B DUP7 PUSH2 0xCE7 JUMP JUMPDEST PUSH1 0x0 JUMPDEST DUP3 DUP2 LT ISZERO PUSH2 0xF33 JUMPI DUP5 DUP10 ADD MLOAD DUP3 SSTORE PUSH1 0x1 DUP3 ADD SWAP2 POP PUSH1 0x20 DUP6 ADD SWAP5 POP PUSH1 0x20 DUP2 ADD SWAP1 POP PUSH2 0xF0E JUMP JUMPDEST DUP7 DUP4 LT ISZERO PUSH2 0xF50 JUMPI DUP5 DUP10 ADD MLOAD PUSH2 0xF4C PUSH1 0x1F DUP10 AND DUP3 PUSH2 0xE59 JUMP JUMPDEST DUP4 SSTORE POP JUMPDEST PUSH1 0x1 PUSH1 0x2 DUP9 MUL ADD DUP9 SSTORE POP POP POP JUMPDEST POP POP POP POP POP POP JUMP JUMPDEST PUSH32 0x4E487B7100000000000000000000000000000000000000000000000000000000 PUSH1 0x0 MSTORE PUSH1 0x31 PUSH1 0x4 MSTORE PUSH1 0x24 PUSH1 0x0 REVERT JUMPDEST PUSH32 0x4E487B7100000000000000000000000000000000000000000000000000000000 PUSH1 0x0 MSTORE PUSH1 0x32 PUSH1 0x4 MSTORE PUSH1 0x24 PUSH1 0x0 REVERT INVALID LOG2 PUSH5 0x6970667358 0x22 SLT KECCAK256 EXTCODESIZE 0xE0 SWAP13 DUP13 0xC9 PUSH23 0xEB7270BEA6E4006F7C1FB2E158BC30B409298E1C6C1445 CHAINID 0xD0 0xC6 PUSH5 0x736F6C6343 STOP ADDMOD SLT STOP CALLER "
				},
				"gasEstimates": {
					"creation": {
						"codeDepositCost": "817800",
						"executionCost": "851",
						"totalCost": "818651"
					},
					"external": {
						"getLength()": "2467",
						"getStudent()": "infinite",
						"getStudent(uint256)": "infinite",
						"getStudents()": "infinite",
						"popStudent()": "infinite",
						"pushStudent(string,string,uint256,uint256)": "infinite",
						"setStudent(string,string,uint256,uint256)": "infinite"
					}
				},
				"methodIdentifiers": {
					"getLength()": "be1c766b",
					"getStudent()": "b439548d",
					"getStudent(uint256)": "642f9163",
					"getStudents()": "f1d064b3",
					"popStudent()": "41571887",
					"pushStudent(string,string,uint256,uint256)": "ca5d45f7",
					"setStudent(string,string,uint256,uint256)": "0f6a9e9b"
				}
			},
			"storageLayout": {
				"storage": [
					{
						"astId": 13,
						"contract": "contracts/struct.sol:Struct",
						"label": "s",
						"offset": 0,
						"slot": "0",
						"type": "t_struct(Student)10_storage"
					},
					{
						"astId": 17,
						"contract": "contracts/struct.sol:Struct",
						"label": "students",
						"offset": 0,
						"slot": "4",
						"type": "t_array(t_struct(Student)10_storage)dyn_storage"
					}
				],
				"types": {
					"t_array(t_struct(Student)10_storage)dyn_storage": {
						"base": "t_struct(Student)10_storage",
						"encoding": "dynamic_array",
						"label": "struct Struct.Student[]",
						"numberOfBytes": "32"
					},
					"t_string_storage": {
						"encoding": "bytes",
						"label": "string",
						"numberOfBytes": "32"
					},
					"t_struct(Student)10_storage": {
						"encoding": "inplace",
						"label": "struct Struct.Student",
						"members": [
							{
								"astId": 3,
								"contract": "contracts/struct.sol:Struct",
								"label": "name",
								"offset": 0,
								"slot": "0",
								"type": "t_string_storage"
							},
							{
								"astId": 5,
								"contract": "contracts/struct.sol:Struct",
								"label": "gender",
								"offset": 0,
								"slot": "1",
								"type": "t_string_storage"
							},
							{
								"astId": 7,
								"contract": "contracts/struct.sol:Struct",
								"label": "number",
								"offset": 0,
								"slot": "2",
								"type": "t_uint256"
							},
							{
								"astId": 9,
								"contract": "contracts/struct.sol:Struct",
								"label": "birth",
								"offset": 0,
								"slot": "3",
								"type": "t_uint256"
							}
						],
						"numberOfBytes": "128"
					},
					"t_uint256": {
						"encoding": "inplace",
						"label": "uint256",
						"numberOfBytes": "32"
					}
				}
			},
			"userdoc": {
				"kind": "user",
				"methods": {},
				"version": 1
			}
		}
	}
}