{
	"contracts/0522/Quiz.sol": {
		"Quiz": {
			"abi": [
				{
					"inputs": [
						{
							"internalType": "uint256",
							"name": "a",
							"type": "uint256"
						}
					],
					"name": "Time",
					"outputs": [
						{
							"internalType": "uint256",
							"name": "",
							"type": "uint256"
						},
						{
							"internalType": "uint256",
							"name": "",
							"type": "uint256"
						},
						{
							"internalType": "uint256",
							"name": "",
							"type": "uint256"
						}
					],
					"stateMutability": "pure",
					"type": "function"
				}
			],
			"devdoc": {
				"kind": "dev",
				"methods": {},
				"version": 1
			},
			"evm": {
				"assembly": "    /* \"contracts/0522/Quiz.sol\":76:313  contract Quiz{... */\n  mstore(0x40, 0x80)\n  callvalue\n  dup1\n  iszero\n  tag_1\n  jumpi\n  0x00\n  dup1\n  revert\ntag_1:\n  pop\n  dataSize(sub_0)\n  dup1\n  dataOffset(sub_0)\n  0x00\n  codecopy\n  0x00\n  return\nstop\n\nsub_0: assembly {\n        /* \"contracts/0522/Quiz.sol\":76:313  contract Quiz{... */\n      mstore(0x40, 0x80)\n      callvalue\n      dup1\n      iszero\n      tag_1\n      jumpi\n      0x00\n      dup1\n      revert\n    tag_1:\n      pop\n      jumpi(tag_2, lt(calldatasize, 0x04))\n      shr(0xe0, calldataload(0x00))\n      dup1\n      0xdb7bcd08\n      eq\n      tag_3\n      jumpi\n    tag_2:\n      0x00\n      dup1\n      revert\n        /* \"contracts/0522/Quiz.sol\":98:310  function Time(uint a) public pure returns(uint, uint, uint){... */\n    tag_3:\n      tag_4\n      0x04\n      dup1\n      calldatasize\n      sub\n      dup2\n      add\n      swap1\n      tag_5\n      swap2\n      swap1\n      tag_6\n      jump\t// in\n    tag_5:\n      tag_7\n      jump\t// in\n    tag_4:\n      mload(0x40)\n      tag_8\n      swap4\n      swap3\n      swap2\n      swap1\n      tag_9\n      jump\t// in\n    tag_8:\n      mload(0x40)\n      dup1\n      swap2\n      sub\n      swap1\n      return\n    tag_7:\n        /* \"contracts/0522/Quiz.sol\":140:144  uint */\n      0x00\n        /* \"contracts/0522/Quiz.sol\":146:150  uint */\n      dup1\n        /* \"contracts/0522/Quiz.sol\":152:156  uint */\n      0x00\n        /* \"contracts/0522/Quiz.sol\":166:175  uint hour */\n      dup1\n        /* \"contracts/0522/Quiz.sol\":182:190  uint min */\n      0x00\n        /* \"contracts/0522/Quiz.sol\":197:205  uint sec */\n      dup1\n        /* \"contracts/0522/Quiz.sol\":225:229  3600 */\n      0x0e10\n        /* \"contracts/0522/Quiz.sol\":221:222  a */\n      dup8\n        /* \"contracts/0522/Quiz.sol\":221:229  a / 3600 */\n      tag_11\n      swap2\n      swap1\n      tag_12\n      jump\t// in\n    tag_11:\n        /* \"contracts/0522/Quiz.sol\":214:229  hour = a / 3600 */\n      swap3\n      pop\n        /* \"contracts/0522/Quiz.sol\":248:250  60 */\n      0x3c\n        /* \"contracts/0522/Quiz.sol\":245:247  60 */\n      dup1\n        /* \"contracts/0522/Quiz.sol\":243:244  a */\n      dup9\n        /* \"contracts/0522/Quiz.sol\":243:247  a/60 */\n      tag_13\n      swap2\n      swap1\n      tag_12\n      jump\t// in\n    tag_13:\n        /* \"contracts/0522/Quiz.sol\":243:250  a/60%60 */\n      tag_14\n      swap2\n      swap1\n      tag_15\n      jump\t// in\n    tag_14:\n        /* \"contracts/0522/Quiz.sol\":237:250  min = a/60%60 */\n      swap2\n      pop\n        /* \"contracts/0522/Quiz.sol\":268:270  60 */\n      0x3c\n        /* \"contracts/0522/Quiz.sol\":266:267  a */\n      dup8\n        /* \"contracts/0522/Quiz.sol\":266:270  a%60 */\n      tag_16\n      swap2\n      swap1\n      tag_15\n      jump\t// in\n    tag_16:\n        /* \"contracts/0522/Quiz.sol\":261:270  sec =a%60 */\n      swap1\n      pop\n        /* \"contracts/0522/Quiz.sol\":289:293  hour */\n      dup3\n        /* \"contracts/0522/Quiz.sol\":294:297  min */\n      dup3\n        /* \"contracts/0522/Quiz.sol\":298:301  sec */\n      dup3\n        /* \"contracts/0522/Quiz.sol\":281:302  return (hour,min,sec) */\n      swap6\n      pop\n      swap6\n      pop\n      swap6\n      pop\n      pop\n      pop\n      pop\n        /* \"contracts/0522/Quiz.sol\":98:310  function Time(uint a) public pure returns(uint, uint, uint){... */\n      swap2\n      swap4\n      swap1\n      swap3\n      pop\n      jump\t// out\n        /* \"#utility.yul\":88:205   */\n    tag_18:\n        /* \"#utility.yul\":197:198   */\n      0x00\n        /* \"#utility.yul\":194:195   */\n      dup1\n        /* \"#utility.yul\":187:199   */\n      revert\n        /* \"#utility.yul\":334:411   */\n    tag_20:\n        /* \"#utility.yul\":371:378   */\n      0x00\n        /* \"#utility.yul\":400:405   */\n      dup2\n        /* \"#utility.yul\":389:405   */\n      swap1\n      pop\n        /* \"#utility.yul\":334:411   */\n      swap2\n      swap1\n      pop\n      jump\t// out\n        /* \"#utility.yul\":417:539   */\n    tag_21:\n        /* \"#utility.yul\":490:514   */\n      tag_32\n        /* \"#utility.yul\":508:513   */\n      dup2\n        /* \"#utility.yul\":490:514   */\n      tag_20\n      jump\t// in\n    tag_32:\n        /* \"#utility.yul\":483:488   */\n      dup2\n        /* \"#utility.yul\":480:515   */\n      eq\n        /* \"#utility.yul\":470:533   */\n      tag_33\n      jumpi\n        /* \"#utility.yul\":529:530   */\n      0x00\n        /* \"#utility.yul\":526:527   */\n      dup1\n        /* \"#utility.yul\":519:531   */\n      revert\n        /* \"#utility.yul\":470:533   */\n    tag_33:\n        /* \"#utility.yul\":417:539   */\n      pop\n      jump\t// out\n        /* \"#utility.yul\":545:684   */\n    tag_22:\n        /* \"#utility.yul\":591:596   */\n      0x00\n        /* \"#utility.yul\":629:635   */\n      dup2\n        /* \"#utility.yul\":616:636   */\n      calldataload\n        /* \"#utility.yul\":607:636   */\n      swap1\n      pop\n        /* \"#utility.yul\":645:678   */\n      tag_35\n        /* \"#utility.yul\":672:677   */\n      dup2\n        /* \"#utility.yul\":645:678   */\n      tag_21\n      jump\t// in\n    tag_35:\n        /* \"#utility.yul\":545:684   */\n      swap3\n      swap2\n      pop\n      pop\n      jump\t// out\n        /* \"#utility.yul\":690:1019   */\n    tag_6:\n        /* \"#utility.yul\":749:755   */\n      0x00\n        /* \"#utility.yul\":798:800   */\n      0x20\n        /* \"#utility.yul\":786:795   */\n      dup3\n        /* \"#utility.yul\":777:784   */\n      dup5\n        /* \"#utility.yul\":773:796   */\n      sub\n        /* \"#utility.yul\":769:801   */\n      slt\n        /* \"#utility.yul\":766:885   */\n      iszero\n      tag_37\n      jumpi\n        /* \"#utility.yul\":804:883   */\n      tag_38\n      tag_18\n      jump\t// in\n    tag_38:\n        /* \"#utility.yul\":766:885   */\n    tag_37:\n        /* \"#utility.yul\":924:925   */\n      0x00\n        /* \"#utility.yul\":949:1002   */\n      tag_39\n        /* \"#utility.yul\":994:1001   */\n      dup5\n        /* \"#utility.yul\":985:991   */\n      dup3\n        /* \"#utility.yul\":974:983   */\n      dup6\n        /* \"#utility.yul\":970:992   */\n      add\n        /* \"#utility.yul\":949:1002   */\n      tag_22\n      jump\t// in\n    tag_39:\n        /* \"#utility.yul\":939:1002   */\n      swap2\n      pop\n        /* \"#utility.yul\":895:1012   */\n      pop\n        /* \"#utility.yul\":690:1019   */\n      swap3\n      swap2\n      pop\n      pop\n      jump\t// out\n        /* \"#utility.yul\":1025:1143   */\n    tag_23:\n        /* \"#utility.yul\":1112:1136   */\n      tag_41\n        /* \"#utility.yul\":1130:1135   */\n      dup2\n        /* \"#utility.yul\":1112:1136   */\n      tag_20\n      jump\t// in\n    tag_41:\n        /* \"#utility.yul\":1107:1110   */\n      dup3\n        /* \"#utility.yul\":1100:1137   */\n      mstore\n        /* \"#utility.yul\":1025:1143   */\n      pop\n      pop\n      jump\t// out\n        /* \"#utility.yul\":1149:1591   */\n    tag_9:\n        /* \"#utility.yul\":1298:1302   */\n      0x00\n        /* \"#utility.yul\":1336:1338   */\n      0x60\n        /* \"#utility.yul\":1325:1334   */\n      dup3\n        /* \"#utility.yul\":1321:1339   */\n      add\n        /* \"#utility.yul\":1313:1339   */\n      swap1\n      pop\n        /* \"#utility.yul\":1349:1420   */\n      tag_43\n        /* \"#utility.yul\":1417:1418   */\n      0x00\n        /* \"#utility.yul\":1406:1415   */\n      dup4\n        /* \"#utility.yul\":1402:1419   */\n      add\n        /* \"#utility.yul\":1393:1399   */\n      dup7\n        /* \"#utility.yul\":1349:1420   */\n      tag_23\n      jump\t// in\n    tag_43:\n        /* \"#utility.yul\":1430:1502   */\n      tag_44\n        /* \"#utility.yul\":1498:1500   */\n      0x20\n        /* \"#utility.yul\":1487:1496   */\n      dup4\n        /* \"#utility.yul\":1483:1501   */\n      add\n        /* \"#utility.yul\":1474:1480   */\n      dup6\n        /* \"#utility.yul\":1430:1502   */\n      tag_23\n      jump\t// in\n    tag_44:\n        /* \"#utility.yul\":1512:1584   */\n      tag_45\n        /* \"#utility.yul\":1580:1582   */\n      0x40\n        /* \"#utility.yul\":1569:1578   */\n      dup4\n        /* \"#utility.yul\":1565:1583   */\n      add\n        /* \"#utility.yul\":1556:1562   */\n      dup5\n        /* \"#utility.yul\":1512:1584   */\n      tag_23\n      jump\t// in\n    tag_45:\n        /* \"#utility.yul\":1149:1591   */\n      swap5\n      swap4\n      pop\n      pop\n      pop\n      pop\n      jump\t// out\n        /* \"#utility.yul\":1597:1777   */\n    tag_24:\n        /* \"#utility.yul\":1645:1722   */\n      0x4e487b7100000000000000000000000000000000000000000000000000000000\n        /* \"#utility.yul\":1642:1643   */\n      0x00\n        /* \"#utility.yul\":1635:1723   */\n      mstore\n        /* \"#utility.yul\":1742:1746   */\n      0x12\n        /* \"#utility.yul\":1739:1740   */\n      0x04\n        /* \"#utility.yul\":1732:1747   */\n      mstore\n        /* \"#utility.yul\":1766:1770   */\n      0x24\n        /* \"#utility.yul\":1763:1764   */\n      0x00\n        /* \"#utility.yul\":1756:1771   */\n      revert\n        /* \"#utility.yul\":1969:2154   */\n    tag_12:\n        /* \"#utility.yul\":2009:2010   */\n      0x00\n        /* \"#utility.yul\":2026:2046   */\n      tag_49\n        /* \"#utility.yul\":2044:2045   */\n      dup3\n        /* \"#utility.yul\":2026:2046   */\n      tag_20\n      jump\t// in\n    tag_49:\n        /* \"#utility.yul\":2021:2046   */\n      swap2\n      pop\n        /* \"#utility.yul\":2060:2080   */\n      tag_50\n        /* \"#utility.yul\":2078:2079   */\n      dup4\n        /* \"#utility.yul\":2060:2080   */\n      tag_20\n      jump\t// in\n    tag_50:\n        /* \"#utility.yul\":2055:2080   */\n      swap3\n      pop\n        /* \"#utility.yul\":2099:2100   */\n      dup3\n        /* \"#utility.yul\":2089:2124   */\n      tag_51\n      jumpi\n        /* \"#utility.yul\":2104:2122   */\n      tag_52\n      tag_24\n      jump\t// in\n    tag_52:\n        /* \"#utility.yul\":2089:2124   */\n    tag_51:\n        /* \"#utility.yul\":2146:2147   */\n      dup3\n        /* \"#utility.yul\":2143:2144   */\n      dup3\n        /* \"#utility.yul\":2139:2148   */\n      div\n        /* \"#utility.yul\":2134:2148   */\n      swap1\n      pop\n        /* \"#utility.yul\":1969:2154   */\n      swap3\n      swap2\n      pop\n      pop\n      jump\t// out\n        /* \"#utility.yul\":2160:2336   */\n    tag_15:\n        /* \"#utility.yul\":2192:2193   */\n      0x00\n        /* \"#utility.yul\":2209:2229   */\n      tag_54\n        /* \"#utility.yul\":2227:2228   */\n      dup3\n        /* \"#utility.yul\":2209:2229   */\n      tag_20\n      jump\t// in\n    tag_54:\n        /* \"#utility.yul\":2204:2229   */\n      swap2\n      pop\n        /* \"#utility.yul\":2243:2263   */\n      tag_55\n        /* \"#utility.yul\":2261:2262   */\n      dup4\n        /* \"#utility.yul\":2243:2263   */\n      tag_20\n      jump\t// in\n    tag_55:\n        /* \"#utility.yul\":2238:2263   */\n      swap3\n      pop\n        /* \"#utility.yul\":2282:2283   */\n      dup3\n        /* \"#utility.yul\":2272:2307   */\n      tag_56\n      jumpi\n        /* \"#utility.yul\":2287:2305   */\n      tag_57\n      tag_24\n      jump\t// in\n    tag_57:\n        /* \"#utility.yul\":2272:2307   */\n    tag_56:\n        /* \"#utility.yul\":2328:2329   */\n      dup3\n        /* \"#utility.yul\":2325:2326   */\n      dup3\n        /* \"#utility.yul\":2321:2330   */\n      mod\n        /* \"#utility.yul\":2316:2330   */\n      swap1\n      pop\n        /* \"#utility.yul\":2160:2336   */\n      swap3\n      swap2\n      pop\n      pop\n      jump\t// out\n\n    auxdata: 0xa2646970667358221220929b9d189c288bb5eae7ed7fda063005f5644c4a3907d3ea9b265468bcd108ce64736f6c63430008120033\n}\n",
				"bytecode": {
					"linkReferences": {},
					"object": "608060405234801561001057600080fd5b5061022c806100206000396000f3fe608060405234801561001057600080fd5b506004361061002b5760003560e01c8063db7bcd0814610030575b600080fd5b61004a600480360381019061004591906100f2565b610062565b6040516100599392919061012e565b60405180910390f35b600080600080600080610e10876100799190610194565b9250603c80886100899190610194565b61009391906101c5565b9150603c876100a291906101c5565b90508282829550955095505050509193909250565b600080fd5b6000819050919050565b6100cf816100bc565b81146100da57600080fd5b50565b6000813590506100ec816100c6565b92915050565b600060208284031215610108576101076100b7565b5b6000610116848285016100dd565b91505092915050565b610128816100bc565b82525050565b6000606082019050610143600083018661011f565b610150602083018561011f565b61015d604083018461011f565b949350505050565b7f4e487b7100000000000000000000000000000000000000000000000000000000600052601260045260246000fd5b600061019f826100bc565b91506101aa836100bc565b9250826101ba576101b9610165565b5b828204905092915050565b60006101d0826100bc565b91506101db836100bc565b9250826101eb576101ea610165565b5b82820690509291505056fea2646970667358221220929b9d189c288bb5eae7ed7fda063005f5644c4a3907d3ea9b265468bcd108ce64736f6c63430008120033",
					"opcodes": "PUSH1 0x80 PUSH1 0x40 MSTORE CALLVALUE DUP1 ISZERO PUSH2 0x10 JUMPI PUSH1 0x0 DUP1 REVERT JUMPDEST POP PUSH2 0x22C DUP1 PUSH2 0x20 PUSH1 0x0 CODECOPY PUSH1 0x0 RETURN INVALID PUSH1 0x80 PUSH1 0x40 MSTORE CALLVALUE DUP1 ISZERO PUSH2 0x10 JUMPI PUSH1 0x0 DUP1 REVERT JUMPDEST POP PUSH1 0x4 CALLDATASIZE LT PUSH2 0x2B JUMPI PUSH1 0x0 CALLDATALOAD PUSH1 0xE0 SHR DUP1 PUSH4 0xDB7BCD08 EQ PUSH2 0x30 JUMPI JUMPDEST PUSH1 0x0 DUP1 REVERT JUMPDEST PUSH2 0x4A PUSH1 0x4 DUP1 CALLDATASIZE SUB DUP2 ADD SWAP1 PUSH2 0x45 SWAP2 SWAP1 PUSH2 0xF2 JUMP JUMPDEST PUSH2 0x62 JUMP JUMPDEST PUSH1 0x40 MLOAD PUSH2 0x59 SWAP4 SWAP3 SWAP2 SWAP1 PUSH2 0x12E JUMP JUMPDEST PUSH1 0x40 MLOAD DUP1 SWAP2 SUB SWAP1 RETURN JUMPDEST PUSH1 0x0 DUP1 PUSH1 0x0 DUP1 PUSH1 0x0 DUP1 PUSH2 0xE10 DUP8 PUSH2 0x79 SWAP2 SWAP1 PUSH2 0x194 JUMP JUMPDEST SWAP3 POP PUSH1 0x3C DUP1 DUP9 PUSH2 0x89 SWAP2 SWAP1 PUSH2 0x194 JUMP JUMPDEST PUSH2 0x93 SWAP2 SWAP1 PUSH2 0x1C5 JUMP JUMPDEST SWAP2 POP PUSH1 0x3C DUP8 PUSH2 0xA2 SWAP2 SWAP1 PUSH2 0x1C5 JUMP JUMPDEST SWAP1 POP DUP3 DUP3 DUP3 SWAP6 POP SWAP6 POP SWAP6 POP POP POP POP SWAP2 SWAP4 SWAP1 SWAP3 POP JUMP JUMPDEST PUSH1 0x0 DUP1 REVERT JUMPDEST PUSH1 0x0 DUP2 SWAP1 POP SWAP2 SWAP1 POP JUMP JUMPDEST PUSH2 0xCF DUP2 PUSH2 0xBC JUMP JUMPDEST DUP2 EQ PUSH2 0xDA JUMPI PUSH1 0x0 DUP1 REVERT JUMPDEST POP JUMP JUMPDEST PUSH1 0x0 DUP2 CALLDATALOAD SWAP1 POP PUSH2 0xEC DUP2 PUSH2 0xC6 JUMP JUMPDEST SWAP3 SWAP2 POP POP JUMP JUMPDEST PUSH1 0x0 PUSH1 0x20 DUP3 DUP5 SUB SLT ISZERO PUSH2 0x108 JUMPI PUSH2 0x107 PUSH2 0xB7 JUMP JUMPDEST JUMPDEST PUSH1 0x0 PUSH2 0x116 DUP5 DUP3 DUP6 ADD PUSH2 0xDD JUMP JUMPDEST SWAP2 POP POP SWAP3 SWAP2 POP POP JUMP JUMPDEST PUSH2 0x128 DUP2 PUSH2 0xBC JUMP JUMPDEST DUP3 MSTORE POP POP JUMP JUMPDEST PUSH1 0x0 PUSH1 0x60 DUP3 ADD SWAP1 POP PUSH2 0x143 PUSH1 0x0 DUP4 ADD DUP7 PUSH2 0x11F JUMP JUMPDEST PUSH2 0x150 PUSH1 0x20 DUP4 ADD DUP6 PUSH2 0x11F JUMP JUMPDEST PUSH2 0x15D PUSH1 0x40 DUP4 ADD DUP5 PUSH2 0x11F JUMP JUMPDEST SWAP5 SWAP4 POP POP POP POP JUMP JUMPDEST PUSH32 0x4E487B7100000000000000000000000000000000000000000000000000000000 PUSH1 0x0 MSTORE PUSH1 0x12 PUSH1 0x4 MSTORE PUSH1 0x24 PUSH1 0x0 REVERT JUMPDEST PUSH1 0x0 PUSH2 0x19F DUP3 PUSH2 0xBC JUMP JUMPDEST SWAP2 POP PUSH2 0x1AA DUP4 PUSH2 0xBC JUMP JUMPDEST SWAP3 POP DUP3 PUSH2 0x1BA JUMPI PUSH2 0x1B9 PUSH2 0x165 JUMP JUMPDEST JUMPDEST DUP3 DUP3 DIV SWAP1 POP SWAP3 SWAP2 POP POP JUMP JUMPDEST PUSH1 0x0 PUSH2 0x1D0 DUP3 PUSH2 0xBC JUMP JUMPDEST SWAP2 POP PUSH2 0x1DB DUP4 PUSH2 0xBC JUMP JUMPDEST SWAP3 POP DUP3 PUSH2 0x1EB JUMPI PUSH2 0x1EA PUSH2 0x165 JUMP JUMPDEST JUMPDEST DUP3 DUP3 MOD SWAP1 POP SWAP3 SWAP2 POP POP JUMP INVALID LOG2 PUSH5 0x6970667358 0x22 SLT KECCAK256 SWAP3 SWAP12 SWAP14 XOR SWAP13 0x28 DUP12 0xB5 0xEA 0xE7 0xED PUSH32 0xDA063005F5644C4A3907D3EA9B265468BCD108CE64736F6C6343000812003300 "
				},
				"gasEstimates": {
					"creation": {
						"codeDepositCost": "111200",
						"executionCost": "159",
						"totalCost": "111359"
					},
					"external": {
						"Time(uint256)": "infinite"
					}
				},
				"methodIdentifiers": {
					"Time(uint256)": "db7bcd08"
				}
			},
			"storageLayout": {
				"storage": [],
				"types": null
			},
			"userdoc": {
				"kind": "user",
				"methods": {},
				"version": 1
			}
		}
	}
}