{
	"contracts/0522/Quiz.sol": {
		"CONCAT": {
			"abi": [
				{
					"inputs": [
						{
							"internalType": "string",
							"name": "a",
							"type": "string"
						},
						{
							"internalType": "string",
							"name": "b",
							"type": "string"
						}
					],
					"name": "concat1",
					"outputs": [
						{
							"internalType": "string",
							"name": "",
							"type": "string"
						}
					],
					"stateMutability": "pure",
					"type": "function"
				},
				{
					"inputs": [
						{
							"internalType": "string",
							"name": "a",
							"type": "string"
						},
						{
							"internalType": "string",
							"name": "b",
							"type": "string"
						}
					],
					"name": "concat2",
					"outputs": [
						{
							"internalType": "string",
							"name": "",
							"type": "string"
						}
					],
					"stateMutability": "pure",
					"type": "function"
				},
				{
					"inputs": [
						{
							"internalType": "uint256",
							"name": "a",
							"type": "uint256"
						},
						{
							"internalType": "string",
							"name": "b",
							"type": "string"
						},
						{
							"internalType": "string",
							"name": "c",
							"type": "string"
						}
					],
					"name": "concat3",
					"outputs": [
						{
							"internalType": "string",
							"name": "",
							"type": "string"
						}
					],
					"stateMutability": "pure",
					"type": "function"
				},
				{
					"inputs": [
						{
							"internalType": "uint256",
							"name": "a",
							"type": "uint256"
						},
						{
							"internalType": "uint256",
							"name": "b",
							"type": "uint256"
						},
						{
							"internalType": "uint256",
							"name": "c",
							"type": "uint256"
						}
					],
					"name": "concat4",
					"outputs": [
						{
							"internalType": "string",
							"name": "",
							"type": "string"
						}
					],
					"stateMutability": "pure",
					"type": "function"
				},
				{
					"inputs": [
						{
							"internalType": "uint256",
							"name": "a",
							"type": "uint256"
						}
					],
					"name": "concat5",
					"outputs": [
						{
							"internalType": "string",
							"name": "",
							"type": "string"
						}
					],
					"stateMutability": "view",
					"type": "function"
				},
				{
					"inputs": [
						{
							"internalType": "uint256",
							"name": "a",
							"type": "uint256"
						},
						{
							"internalType": "string",
							"name": "b",
							"type": "string"
						}
					],
					"name": "concat6",
					"outputs": [
						{
							"internalType": "string",
							"name": "",
							"type": "string"
						}
					],
					"stateMutability": "view",
					"type": "function"
				},
				{
					"inputs": [
						{
							"internalType": "uint256",
							"name": "_n",
							"type": "uint256"
						}
					],
					"name": "concat7",
					"outputs": [
						{
							"internalType": "string",
							"name": "",
							"type": "string"
						}
					],
					"stateMutability": "view",
					"type": "function"
				},
				{
					"inputs": [
						{
							"internalType": "uint256",
							"name": "a",
							"type": "uint256"
						},
						{
							"internalType": "string",
							"name": "b",
							"type": "string"
						}
					],
					"name": "returnEncodePacked",
					"outputs": [
						{
							"internalType": "bytes",
							"name": "",
							"type": "bytes"
						},
						{
							"internalType": "bytes",
							"name": "",
							"type": "bytes"
						}
					],
					"stateMutability": "pure",
					"type": "function"
				}
			],
			"devdoc": {
				"kind": "dev",
				"methods": {},
				"version": 1
			},
			"evm": {
				"assembly": "    /* \"contracts/0522/Quiz.sol\":317:1907  contract CONCAT{... */\n  mstore(0x40, 0x80)\n    /* \"contracts/0522/Quiz.sol\":1178:1186  new Q5() */\n  mload(0x40)\n  tag_1\n  swap1\n  tag_2\n  jump\t// in\ntag_1:\n  mload(0x40)\n  dup1\n  swap2\n  sub\n  swap1\n  0x00\n  create\n  dup1\n  iszero\n  dup1\n  iszero\n  tag_3\n  jumpi\n  returndatasize\n  0x00\n  dup1\n  returndatacopy\n  revert(0x00, returndatasize)\ntag_3:\n  pop\n    /* \"contracts/0522/Quiz.sol\":1170:1186  Q5 q5 = new Q5() */\n  0x00\n  dup1\n  0x0100\n  exp\n  dup2\n  sload\n  dup2\n  0xffffffffffffffffffffffffffffffffffffffff\n  mul\n  not\n  and\n  swap1\n  dup4\n  0xffffffffffffffffffffffffffffffffffffffff\n  and\n  mul\n  or\n  swap1\n  sstore\n  pop\n    /* \"contracts/0522/Quiz.sol\":1203:1213  new Quiz() */\n  mload(0x40)\n  tag_4\n  swap1\n  tag_5\n  jump\t// in\ntag_4:\n  mload(0x40)\n  dup1\n  swap2\n  sub\n  swap1\n  0x00\n  create\n  dup1\n  iszero\n  dup1\n  iszero\n  tag_6\n  jumpi\n  returndatasize\n  0x00\n  dup1\n  returndatacopy\n  revert(0x00, returndatasize)\ntag_6:\n  pop\n    /* \"contracts/0522/Quiz.sol\":1193:1213  Quiz q7 = new Quiz() */\n  0x01\n  exp(0x0100, 0x00)\n  dup2\n  sload\n  dup2\n  0xffffffffffffffffffffffffffffffffffffffff\n  mul\n  not\n  and\n  swap1\n  dup4\n  0xffffffffffffffffffffffffffffffffffffffff\n  and\n  mul\n  or\n  swap1\n  sstore\n  pop\n    /* \"contracts/0522/Quiz.sol\":317:1907  contract CONCAT{... */\n  callvalue\n  dup1\n  iszero\n  tag_7\n  jumpi\n  0x00\n  dup1\n  revert\ntag_7:\n  pop\n  jump(tag_8)\ntag_2:\n  dataSize(sub_1)\n  dup1\n  dataOffset(sub_1)\n  dup4\n  codecopy\n  add\n  swap1\n  jump\t// out\ntag_5:\n  dataSize(sub_2)\n  dup1\n  dataOffset(sub_2)\n  dup4\n  codecopy\n  add\n  swap1\n  jump\t// out\ntag_8:\n  dataSize(sub_0)\n  dup1\n  dataOffset(sub_0)\n  0x00\n  codecopy\n  0x00\n  return\nstop\n\nsub_0: assembly {\n        /* \"contracts/0522/Quiz.sol\":317:1907  contract CONCAT{... */\n      mstore(0x40, 0x80)\n      callvalue\n      dup1\n      iszero\n      tag_1\n      jumpi\n      0x00\n      dup1\n      revert\n    tag_1:\n      pop\n      jumpi(tag_2, lt(calldatasize, 0x04))\n      shr(0xe0, calldataload(0x00))\n      dup1\n      0xa8e61fb5\n      gt\n      tag_11\n      jumpi\n      dup1\n      0xa8e61fb5\n      eq\n      tag_7\n      jumpi\n      dup1\n      0xbcbdef66\n      eq\n      tag_8\n      jumpi\n      dup1\n      0xd51298b3\n      eq\n      tag_9\n      jumpi\n      dup1\n      0xd52f327d\n      eq\n      tag_10\n      jumpi\n      jump(tag_2)\n    tag_11:\n      dup1\n      0x252a1437\n      eq\n      tag_3\n      jumpi\n      dup1\n      0x3d9799b4\n      eq\n      tag_4\n      jumpi\n      dup1\n      0x4d41902c\n      eq\n      tag_5\n      jumpi\n      dup1\n      0x68677523\n      eq\n      tag_6\n      jumpi\n    tag_2:\n      0x00\n      dup1\n      revert\n        /* \"contracts/0522/Quiz.sol\":488:617  function concat2(string memory a, string memory b) public pure returns(string memory){... */\n    tag_3:\n      tag_12\n      0x04\n      dup1\n      calldatasize\n      sub\n      dup2\n      add\n      swap1\n      tag_13\n      swap2\n      swap1\n      tag_14\n      jump\t// in\n    tag_13:\n      tag_15\n      jump\t// in\n    tag_12:\n      mload(0x40)\n      tag_16\n      swap2\n      swap1\n      tag_17\n      jump\t// in\n    tag_16:\n      mload(0x40)\n      dup1\n      swap2\n      sub\n      swap1\n      return\n        /* \"contracts/0522/Quiz.sol\":339:480  function concat1(string memory a, string memory b) public pure returns(string memory ){... */\n    tag_4:\n      tag_18\n      0x04\n      dup1\n      calldatasize\n      sub\n      dup2\n      add\n      swap1\n      tag_19\n      swap2\n      swap1\n      tag_14\n      jump\t// in\n    tag_19:\n      tag_20\n      jump\t// in\n    tag_18:\n      mload(0x40)\n      tag_21\n      swap2\n      swap1\n      tag_17\n      jump\t// in\n    tag_21:\n      mload(0x40)\n      dup1\n      swap2\n      sub\n      swap1\n      return\n        /* \"contracts/0522/Quiz.sol\":1522:1670  function concat6(uint a, string memory b) public view returns(string memory){... */\n    tag_5:\n      tag_22\n      0x04\n      dup1\n      calldatasize\n      sub\n      dup2\n      add\n      swap1\n      tag_23\n      swap2\n      swap1\n      tag_24\n      jump\t// in\n    tag_23:\n      tag_25\n      jump\t// in\n    tag_22:\n      mload(0x40)\n      tag_26\n      swap2\n      swap1\n      tag_17\n      jump\t// in\n    tag_26:\n      mload(0x40)\n      dup1\n      swap2\n      sub\n      swap1\n      return\n        /* \"contracts/0522/Quiz.sol\":785:956  function returnEncodePacked(uint a, string memory b) public pure returns(bytes memory, bytes memory) {... */\n    tag_6:\n      tag_27\n      0x04\n      dup1\n      calldatasize\n      sub\n      dup2\n      add\n      swap1\n      tag_28\n      swap2\n      swap1\n      tag_24\n      jump\t// in\n    tag_28:\n      tag_29\n      jump\t// in\n    tag_27:\n      mload(0x40)\n      tag_30\n      swap3\n      swap2\n      swap1\n      tag_31\n      jump\t// in\n    tag_30:\n      mload(0x40)\n      dup1\n      swap2\n      sub\n      swap1\n      return\n        /* \"contracts/0522/Quiz.sol\":1222:1510  function concat5(uint a) public view returns(string memory) {... */\n    tag_7:\n      tag_32\n      0x04\n      dup1\n      calldatasize\n      sub\n      dup2\n      add\n      swap1\n      tag_33\n      swap2\n      swap1\n      tag_34\n      jump\t// in\n    tag_33:\n      tag_35\n      jump\t// in\n    tag_32:\n      mload(0x40)\n      tag_36\n      swap2\n      swap1\n      tag_17\n      jump\t// in\n    tag_36:\n      mload(0x40)\n      dup1\n      swap2\n      sub\n      swap1\n      return\n        /* \"contracts/0522/Quiz.sol\":964:1164  function concat4(uint a, uint b, uint c) public pure returns(string memory) {... */\n    tag_8:\n      tag_37\n      0x04\n      dup1\n      calldatasize\n      sub\n      dup2\n      add\n      swap1\n      tag_38\n      swap2\n      swap1\n      tag_39\n      jump\t// in\n    tag_38:\n      tag_40\n      jump\t// in\n    tag_37:\n      mload(0x40)\n      tag_41\n      swap2\n      swap1\n      tag_17\n      jump\t// in\n    tag_41:\n      mload(0x40)\n      dup1\n      swap2\n      sub\n      swap1\n      return\n        /* \"contracts/0522/Quiz.sol\":1676:1904  function concat7(uint _n) public view returns(string memory) {... */\n    tag_9:\n      tag_42\n      0x04\n      dup1\n      calldatasize\n      sub\n      dup2\n      add\n      swap1\n      tag_43\n      swap2\n      swap1\n      tag_34\n      jump\t// in\n    tag_43:\n      tag_44\n      jump\t// in\n    tag_42:\n      mload(0x40)\n      tag_45\n      swap2\n      swap1\n      tag_17\n      jump\t// in\n    tag_45:\n      mload(0x40)\n      dup1\n      swap2\n      sub\n      swap1\n      return\n        /* \"contracts/0522/Quiz.sol\":625:777  function concat3(uint a, string memory b, string memory c) public pure returns(string memory) {... */\n    tag_10:\n      tag_46\n      0x04\n      dup1\n      calldatasize\n      sub\n      dup2\n      add\n      swap1\n      tag_47\n      swap2\n      swap1\n      tag_48\n      jump\t// in\n    tag_47:\n      tag_49\n      jump\t// in\n    tag_46:\n      mload(0x40)\n      tag_50\n      swap2\n      swap1\n      tag_17\n      jump\t// in\n    tag_50:\n      mload(0x40)\n      dup1\n      swap2\n      sub\n      swap1\n      return\n        /* \"contracts/0522/Quiz.sol\":488:617  function concat2(string memory a, string memory b) public pure returns(string memory){... */\n    tag_15:\n        /* \"contracts/0522/Quiz.sol\":559:572  string memory */\n      0x60\n        /* \"contracts/0522/Quiz.sol\":605:606  a */\n      dup3\n        /* \"contracts/0522/Quiz.sol\":607:608  b */\n      dup3\n        /* \"contracts/0522/Quiz.sol\":591:609  string.concat(a,b) */\n      add(0x20, mload(0x40))\n      tag_52\n      swap3\n      swap2\n      swap1\n      tag_53\n      jump\t// in\n    tag_52:\n      mload(0x40)\n      0x20\n      dup2\n      dup4\n      sub\n      sub\n      dup2\n      mstore\n      swap1\n      0x40\n      mstore\n        /* \"contracts/0522/Quiz.sol\":584:609  return string.concat(a,b) */\n      swap1\n      pop\n        /* \"contracts/0522/Quiz.sol\":488:617  function concat2(string memory a, string memory b) public pure returns(string memory){... */\n      swap3\n      swap2\n      pop\n      pop\n      jump\t// out\n        /* \"contracts/0522/Quiz.sol\":339:480  function concat1(string memory a, string memory b) public pure returns(string memory ){... */\n    tag_20:\n        /* \"contracts/0522/Quiz.sol\":410:423  string memory */\n      0x60\n        /* \"contracts/0522/Quiz.sol\":467:468  a */\n      dup3\n        /* \"contracts/0522/Quiz.sol\":469:470  b */\n      dup3\n        /* \"contracts/0522/Quiz.sol\":450:471  abi.encodePacked(a,b) */\n      add(0x20, mload(0x40))\n      tag_55\n      swap3\n      swap2\n      swap1\n      tag_53\n      jump\t// in\n    tag_55:\n      mload(0x40)\n      0x20\n      dup2\n      dup4\n      sub\n      sub\n      dup2\n      mstore\n      swap1\n      0x40\n      mstore\n        /* \"contracts/0522/Quiz.sol\":436:472  return string(abi.encodePacked(a,b)) */\n      swap1\n      pop\n        /* \"contracts/0522/Quiz.sol\":339:480  function concat1(string memory a, string memory b) public pure returns(string memory ){... */\n      swap3\n      swap2\n      pop\n      pop\n      jump\t// out\n        /* \"contracts/0522/Quiz.sol\":1522:1670  function concat6(uint a, string memory b) public view returns(string memory){... */\n    tag_25:\n        /* \"contracts/0522/Quiz.sol\":1584:1597  string memory */\n      0x60\n        /* \"contracts/0522/Quiz.sol\":1640:1650  concat5(a) */\n      tag_57\n        /* \"contracts/0522/Quiz.sol\":1648:1649  a */\n      dup4\n        /* \"contracts/0522/Quiz.sol\":1640:1647  concat5 */\n      tag_35\n        /* \"contracts/0522/Quiz.sol\":1640:1650  concat5(a) */\n      jump\t// in\n    tag_57:\n        /* \"contracts/0522/Quiz.sol\":1659:1660  b */\n      dup3\n        /* \"contracts/0522/Quiz.sol\":1623:1661  abi.encodePacked(concat5(a),\"hours\",b) */\n      add(0x20, mload(0x40))\n      tag_58\n      swap3\n      swap2\n      swap1\n      tag_59\n      jump\t// in\n    tag_58:\n      mload(0x40)\n      0x20\n      dup2\n      dup4\n      sub\n      sub\n      dup2\n      mstore\n      swap1\n      0x40\n      mstore\n        /* \"contracts/0522/Quiz.sol\":1609:1662  return string(abi.encodePacked(concat5(a),\"hours\",b)) */\n      swap1\n      pop\n        /* \"contracts/0522/Quiz.sol\":1522:1670  function concat6(uint a, string memory b) public view returns(string memory){... */\n      swap3\n      swap2\n      pop\n      pop\n      jump\t// out\n        /* \"contracts/0522/Quiz.sol\":785:956  function returnEncodePacked(uint a, string memory b) public pure returns(bytes memory, bytes memory) {... */\n    tag_29:\n        /* \"contracts/0522/Quiz.sol\":858:870  bytes memory */\n      0x60\n        /* \"contracts/0522/Quiz.sol\":872:884  bytes memory */\n      dup1\n        /* \"contracts/0522/Quiz.sol\":922:923  a */\n      dup4\n        /* \"contracts/0522/Quiz.sol\":905:924  abi.encodePacked(a) */\n      add(0x20, mload(0x40))\n      tag_61\n      swap2\n      swap1\n      tag_62\n      jump\t// in\n    tag_61:\n      mload(0x40)\n      0x20\n      dup2\n      dup4\n      sub\n      sub\n      dup2\n      mstore\n      swap1\n      0x40\n      mstore\n        /* \"contracts/0522/Quiz.sol\":944:945  b */\n      dup4\n        /* \"contracts/0522/Quiz.sol\":926:947  abi.encodePacked((b)) */\n      add(0x20, mload(0x40))\n      tag_63\n      swap2\n      swap1\n      tag_64\n      jump\t// in\n    tag_63:\n      mload(0x40)\n      0x20\n      dup2\n      dup4\n      sub\n      sub\n      dup2\n      mstore\n      swap1\n      0x40\n      mstore\n        /* \"contracts/0522/Quiz.sol\":897:948  return (abi.encodePacked(a), abi.encodePacked((b))) */\n      swap2\n      pop\n      swap2\n      pop\n        /* \"contracts/0522/Quiz.sol\":785:956  function returnEncodePacked(uint a, string memory b) public pure returns(bytes memory, bytes memory) {... */\n      swap3\n      pop\n      swap3\n      swap1\n      pop\n      jump\t// out\n        /* \"contracts/0522/Quiz.sol\":1222:1510  function concat5(uint a) public view returns(string memory) {... */\n    tag_35:\n        /* \"contracts/0522/Quiz.sol\":1267:1280  string memory */\n      0x60\n        /* \"contracts/0522/Quiz.sol\":1293:1299  uint b */\n      0x00\n        /* \"contracts/0522/Quiz.sol\":1302:1304  q5 */\n      dup1\n      0x00\n      swap1\n      sload\n      swap1\n      0x0100\n      exp\n      swap1\n      div\n      0xffffffffffffffffffffffffffffffffffffffff\n      and\n        /* \"contracts/0522/Quiz.sol\":1302:1314  q5.getLength */\n      0xffffffffffffffffffffffffffffffffffffffff\n      and\n      0x0986e647\n        /* \"contracts/0522/Quiz.sol\":1315:1316  a */\n      dup5\n        /* \"contracts/0522/Quiz.sol\":1302:1317  q5.getLength(a) */\n      mload(0x40)\n      dup3\n      0xffffffff\n      and\n      0xe0\n      shl\n      dup2\n      mstore\n      0x04\n      add\n      tag_66\n      swap2\n      swap1\n      tag_67\n      jump\t// in\n    tag_66:\n      0x20\n      mload(0x40)\n      dup1\n      dup4\n      sub\n      dup2\n      dup7\n      gas\n      staticcall\n      iszero\n      dup1\n      iszero\n      tag_69\n      jumpi\n      returndatasize\n      0x00\n      dup1\n      returndatacopy\n      revert(0x00, returndatasize)\n    tag_69:\n      pop\n      pop\n      pop\n      pop\n      mload(0x40)\n      returndatasize\n      not(0x1f)\n      0x1f\n      dup3\n      add\n      and\n      dup3\n      add\n      dup1\n      0x40\n      mstore\n      pop\n      dup2\n      add\n      swap1\n      tag_70\n      swap2\n      swap1\n      tag_71\n      jump\t// in\n    tag_70:\n        /* \"contracts/0522/Quiz.sol\":1293:1317  uint b = q5.getLength(a) */\n      swap1\n      pop\n        /* \"contracts/0522/Quiz.sol\":1331:1346  uint[] memory c */\n      0x00\n        /* \"contracts/0522/Quiz.sol\":1360:1361  b */\n      dup2\n        /* \"contracts/0522/Quiz.sol\":1349:1362  new uint[](b) */\n      0xffffffffffffffff\n      dup2\n      gt\n      iszero\n      tag_72\n      jumpi\n      tag_73\n      tag_74\n      jump\t// in\n    tag_73:\n    tag_72:\n      mload(0x40)\n      swap1\n      dup1\n      dup3\n      mstore\n      dup1\n      0x20\n      mul\n      0x20\n      add\n      dup3\n      add\n      0x40\n      mstore\n      dup1\n      iszero\n      tag_75\n      jumpi\n      dup2\n      0x20\n      add\n      0x20\n      dup3\n      mul\n      dup1\n      calldatasize\n      dup4\n      calldatacopy\n      dup1\n      dup3\n      add\n      swap2\n      pop\n      pop\n      swap1\n      pop\n    tag_75:\n      pop\n        /* \"contracts/0522/Quiz.sol\":1331:1362  uint[] memory c = new uint[](b) */\n      swap1\n      pop\n        /* \"contracts/0522/Quiz.sol\":1374:1376  q5 */\n      0x00\n      dup1\n      sload\n      swap1\n      0x0100\n      exp\n      swap1\n      div\n      0xffffffffffffffffffffffffffffffffffffffff\n      and\n        /* \"contracts/0522/Quiz.sol\":1374:1389  q5.divideNumber */\n      0xffffffffffffffffffffffffffffffffffffffff\n      and\n      0x2ac45d9c\n        /* \"contracts/0522/Quiz.sol\":1390:1391  a */\n      dup6\n        /* \"contracts/0522/Quiz.sol\":1374:1392  q5.divideNumber(a) */\n      mload(0x40)\n      dup3\n      0xffffffff\n      and\n      0xe0\n      shl\n      dup2\n      mstore\n      0x04\n      add\n      tag_76\n      swap2\n      swap1\n      tag_67\n      jump\t// in\n    tag_76:\n      0x00\n      mload(0x40)\n      dup1\n      dup4\n      sub\n      dup2\n      dup7\n      gas\n      staticcall\n      iszero\n      dup1\n      iszero\n      tag_78\n      jumpi\n      returndatasize\n      0x00\n      dup1\n      returndatacopy\n      revert(0x00, returndatasize)\n    tag_78:\n      pop\n      pop\n      pop\n      pop\n      mload(0x40)\n      returndatasize\n      0x00\n      dup3\n      returndatacopy\n      returndatasize\n      not(0x1f)\n      0x1f\n      dup3\n      add\n      and\n      dup3\n      add\n      dup1\n      0x40\n      mstore\n      pop\n      dup2\n      add\n      swap1\n      tag_79\n      swap2\n      swap1\n      tag_80\n      jump\t// in\n    tag_79:\n        /* \"contracts/0522/Quiz.sol\":1370:1392  c = q5.divideNumber(a) */\n      swap1\n      pop\n        /* \"contracts/0522/Quiz.sol\":1404:1410  uint i */\n      0x00\n        /* \"contracts/0522/Quiz.sol\":1400:1461  for(uint i =0; i<c.length; i++){... */\n    tag_81:\n        /* \"contracts/0522/Quiz.sol\":1417:1418  c */\n      dup2\n        /* \"contracts/0522/Quiz.sol\":1417:1425  c.length */\n      mload\n        /* \"contracts/0522/Quiz.sol\":1415:1416  i */\n      dup2\n        /* \"contracts/0522/Quiz.sol\":1415:1425  i<c.length */\n      lt\n        /* \"contracts/0522/Quiz.sol\":1400:1461  for(uint i =0; i<c.length; i++){... */\n      iszero\n      tag_82\n      jumpi\n        /* \"contracts/0522/Quiz.sol\":1450:1452  48 */\n      0x30\n        /* \"contracts/0522/Quiz.sol\":1443:1444  c */\n      dup3\n        /* \"contracts/0522/Quiz.sol\":1445:1446  i */\n      dup3\n        /* \"contracts/0522/Quiz.sol\":1443:1447  c[i] */\n      dup2\n      mload\n      dup2\n      lt\n      tag_84\n      jumpi\n      tag_85\n      tag_86\n      jump\t// in\n    tag_85:\n    tag_84:\n      0x20\n      mul\n      0x20\n      add\n      add\n        /* \"contracts/0522/Quiz.sol\":1443:1452  c[i] +=48 */\n      dup2\n      dup2\n      mload\n      tag_87\n      swap2\n      swap1\n      tag_88\n      jump\t// in\n    tag_87:\n      swap2\n      pop\n      dup2\n      dup2\n      mstore\n      pop\n      pop\n        /* \"contracts/0522/Quiz.sol\":1427:1430  i++ */\n      dup1\n      dup1\n      tag_89\n      swap1\n      tag_90\n      jump\t// in\n    tag_89:\n      swap2\n      pop\n      pop\n        /* \"contracts/0522/Quiz.sol\":1400:1461  for(uint i =0; i<c.length; i++){... */\n      jump(tag_81)\n    tag_82:\n      pop\n        /* \"contracts/0522/Quiz.sol\":1499:1500  c */\n      dup1\n        /* \"contracts/0522/Quiz.sol\":1482:1501  abi.encodePacked(c) */\n      add(0x20, mload(0x40))\n      tag_91\n      swap2\n      swap1\n      tag_92\n      jump\t// in\n    tag_91:\n      mload(0x40)\n      0x20\n      dup2\n      dup4\n      sub\n      sub\n      dup2\n      mstore\n      swap1\n      0x40\n      mstore\n        /* \"contracts/0522/Quiz.sol\":1468:1502  return string(abi.encodePacked(c)) */\n      swap3\n      pop\n      pop\n      pop\n        /* \"contracts/0522/Quiz.sol\":1222:1510  function concat5(uint a) public view returns(string memory) {... */\n      swap2\n      swap1\n      pop\n      jump\t// out\n        /* \"contracts/0522/Quiz.sol\":964:1164  function concat4(uint a, uint b, uint c) public pure returns(string memory) {... */\n    tag_40:\n        /* \"contracts/0522/Quiz.sol\":1025:1038  string memory */\n      0x60\n        /* \"contracts/0522/Quiz.sol\":1060:1062  48 */\n      0x30\n        /* \"contracts/0522/Quiz.sol\":1058:1059  a */\n      dup5\n        /* \"contracts/0522/Quiz.sol\":1058:1062  a+48 */\n      tag_94\n      swap2\n      swap1\n      tag_88\n      jump\t// in\n    tag_94:\n        /* \"contracts/0522/Quiz.sol\":1054:1062  a = a+48 */\n      swap4\n      pop\n        /* \"contracts/0522/Quiz.sol\":1082:1084  48 */\n      0x30\n        /* \"contracts/0522/Quiz.sol\":1080:1081  b */\n      dup4\n        /* \"contracts/0522/Quiz.sol\":1080:1084  b+48 */\n      tag_95\n      swap2\n      swap1\n      tag_88\n      jump\t// in\n    tag_95:\n        /* \"contracts/0522/Quiz.sol\":1076:1084  b = b+48 */\n      swap3\n      pop\n        /* \"contracts/0522/Quiz.sol\":1105:1107  48 */\n      0x30\n        /* \"contracts/0522/Quiz.sol\":1103:1104  c */\n      dup3\n        /* \"contracts/0522/Quiz.sol\":1103:1107  c+48 */\n      tag_96\n      swap2\n      swap1\n      tag_88\n      jump\t// in\n    tag_96:\n        /* \"contracts/0522/Quiz.sol\":1098:1107  c  = c+48 */\n      swap2\n      pop\n        /* \"contracts/0522/Quiz.sol\":1149:1150  a */\n      dup4\n        /* \"contracts/0522/Quiz.sol\":1151:1152  b */\n      dup4\n        /* \"contracts/0522/Quiz.sol\":1153:1154  c */\n      dup4\n        /* \"contracts/0522/Quiz.sol\":1132:1155  abi.encodePacked(a,b,c) */\n      add(0x20, mload(0x40))\n      tag_97\n      swap4\n      swap3\n      swap2\n      swap1\n      tag_98\n      jump\t// in\n    tag_97:\n      mload(0x40)\n      0x20\n      dup2\n      dup4\n      sub\n      sub\n      dup2\n      mstore\n      swap1\n      0x40\n      mstore\n        /* \"contracts/0522/Quiz.sol\":1118:1156  return string(abi.encodePacked(a,b,c)) */\n      swap1\n      pop\n        /* \"contracts/0522/Quiz.sol\":964:1164  function concat4(uint a, uint b, uint c) public pure returns(string memory) {... */\n      swap4\n      swap3\n      pop\n      pop\n      pop\n      jump\t// out\n        /* \"contracts/0522/Quiz.sol\":1676:1904  function concat7(uint _n) public view returns(string memory) {... */\n    tag_44:\n        /* \"contracts/0522/Quiz.sol\":1722:1735  string memory */\n      0x60\n        /* \"contracts/0522/Quiz.sol\":1749:1755  uint a */\n      0x00\n        /* \"contracts/0522/Quiz.sol\":1757:1763  uint b */\n      dup1\n        /* \"contracts/0522/Quiz.sol\":1765:1771  uint c */\n      0x00\n        /* \"contracts/0522/Quiz.sol\":1775:1777  q7 */\n      0x01\n      0x00\n      swap1\n      sload\n      swap1\n      0x0100\n      exp\n      swap1\n      div\n      0xffffffffffffffffffffffffffffffffffffffff\n      and\n        /* \"contracts/0522/Quiz.sol\":1775:1782  q7.Time */\n      0xffffffffffffffffffffffffffffffffffffffff\n      and\n      0xdb7bcd08\n        /* \"contracts/0522/Quiz.sol\":1783:1785  _n */\n      dup7\n        /* \"contracts/0522/Quiz.sol\":1775:1786  q7.Time(_n) */\n      mload(0x40)\n      dup3\n      0xffffffff\n      and\n      0xe0\n      shl\n      dup2\n      mstore\n      0x04\n      add\n      tag_100\n      swap2\n      swap1\n      tag_67\n      jump\t// in\n    tag_100:\n      0x60\n      mload(0x40)\n      dup1\n      dup4\n      sub\n      dup2\n      dup7\n      gas\n      staticcall\n      iszero\n      dup1\n      iszero\n      tag_102\n      jumpi\n      returndatasize\n      0x00\n      dup1\n      returndatacopy\n      revert(0x00, returndatasize)\n    tag_102:\n      pop\n      pop\n      pop\n      pop\n      mload(0x40)\n      returndatasize\n      not(0x1f)\n      0x1f\n      dup3\n      add\n      and\n      dup3\n      add\n      dup1\n      0x40\n      mstore\n      pop\n      dup2\n      add\n      swap1\n      tag_103\n      swap2\n      swap1\n      tag_104\n      jump\t// in\n    tag_103:\n        /* \"contracts/0522/Quiz.sol\":1748:1786  (uint a, uint b, uint c) = q7.Time(_n) */\n      swap3\n      pop\n      swap3\n      pop\n      swap3\n      pop\n        /* \"contracts/0522/Quiz.sol\":1828:1838  concat5(a) */\n      tag_105\n        /* \"contracts/0522/Quiz.sol\":1836:1837  a */\n      dup4\n        /* \"contracts/0522/Quiz.sol\":1828:1835  concat5 */\n      tag_35\n        /* \"contracts/0522/Quiz.sol\":1828:1838  concat5(a) */\n      jump\t// in\n    tag_105:\n        /* \"contracts/0522/Quiz.sol\":1849:1859  concat5(b) */\n      tag_106\n        /* \"contracts/0522/Quiz.sol\":1857:1858  b */\n      dup4\n        /* \"contracts/0522/Quiz.sol\":1849:1856  concat5 */\n      tag_35\n        /* \"contracts/0522/Quiz.sol\":1849:1859  concat5(b) */\n      jump\t// in\n    tag_106:\n        /* \"contracts/0522/Quiz.sol\":1873:1883  concat5(c) */\n      tag_107\n        /* \"contracts/0522/Quiz.sol\":1881:1882  c */\n      dup4\n        /* \"contracts/0522/Quiz.sol\":1873:1880  concat5 */\n      tag_35\n        /* \"contracts/0522/Quiz.sol\":1873:1883  concat5(c) */\n      jump\t// in\n    tag_107:\n        /* \"contracts/0522/Quiz.sol\":1811:1895  abi.encodePacked(concat5(a),\"hours \", concat5(b), \"minutes \", concat5(c), \"seconds\") */\n      add(0x20, mload(0x40))\n      tag_108\n      swap4\n      swap3\n      swap2\n      swap1\n      tag_109\n      jump\t// in\n    tag_108:\n      mload(0x40)\n      0x20\n      dup2\n      dup4\n      sub\n      sub\n      dup2\n      mstore\n      swap1\n      0x40\n      mstore\n        /* \"contracts/0522/Quiz.sol\":1797:1896  return string(abi.encodePacked(concat5(a),\"hours \", concat5(b), \"minutes \", concat5(c), \"seconds\")) */\n      swap4\n      pop\n      pop\n      pop\n      pop\n        /* \"contracts/0522/Quiz.sol\":1676:1904  function concat7(uint _n) public view returns(string memory) {... */\n      swap2\n      swap1\n      pop\n      jump\t// out\n        /* \"contracts/0522/Quiz.sol\":625:777  function concat3(uint a, string memory b, string memory c) public pure returns(string memory) {... */\n    tag_49:\n        /* \"contracts/0522/Quiz.sol\":704:717  string memory */\n      0x60\n        /* \"contracts/0522/Quiz.sol\":762:763  a */\n      dup4\n        /* \"contracts/0522/Quiz.sol\":764:765  b */\n      dup4\n        /* \"contracts/0522/Quiz.sol\":766:767  c */\n      dup4\n        /* \"contracts/0522/Quiz.sol\":745:768  abi.encodePacked(a,b,c) */\n      add(0x20, mload(0x40))\n      tag_111\n      swap4\n      swap3\n      swap2\n      swap1\n      tag_112\n      jump\t// in\n    tag_111:\n      mload(0x40)\n      0x20\n      dup2\n      dup4\n      sub\n      sub\n      dup2\n      mstore\n      swap1\n      0x40\n      mstore\n        /* \"contracts/0522/Quiz.sol\":730:769  return string (abi.encodePacked(a,b,c)) */\n      swap1\n      pop\n        /* \"contracts/0522/Quiz.sol\":625:777  function concat3(uint a, string memory b, string memory c) public pure returns(string memory) {... */\n      swap4\n      swap3\n      pop\n      pop\n      pop\n      jump\t// out\n        /* \"#utility.yul\":7:82   */\n    tag_113:\n        /* \"#utility.yul\":40:46   */\n      0x00\n        /* \"#utility.yul\":73:75   */\n      0x40\n        /* \"#utility.yul\":67:76   */\n      mload\n        /* \"#utility.yul\":57:76   */\n      swap1\n      pop\n        /* \"#utility.yul\":7:82   */\n      swap1\n      jump\t// out\n        /* \"#utility.yul\":88:205   */\n    tag_114:\n        /* \"#utility.yul\":197:198   */\n      0x00\n        /* \"#utility.yul\":194:195   */\n      dup1\n        /* \"#utility.yul\":187:199   */\n      revert\n        /* \"#utility.yul\":211:328   */\n    tag_115:\n        /* \"#utility.yul\":320:321   */\n      0x00\n        /* \"#utility.yul\":317:318   */\n      dup1\n        /* \"#utility.yul\":310:322   */\n      revert\n        /* \"#utility.yul\":334:451   */\n    tag_116:\n        /* \"#utility.yul\":443:444   */\n      0x00\n        /* \"#utility.yul\":440:441   */\n      dup1\n        /* \"#utility.yul\":433:445   */\n      revert\n        /* \"#utility.yul\":457:574   */\n    tag_117:\n        /* \"#utility.yul\":566:567   */\n      0x00\n        /* \"#utility.yul\":563:564   */\n      dup1\n        /* \"#utility.yul\":556:568   */\n      revert\n        /* \"#utility.yul\":580:682   */\n    tag_118:\n        /* \"#utility.yul\":621:627   */\n      0x00\n        /* \"#utility.yul\":672:674   */\n      0x1f\n        /* \"#utility.yul\":668:675   */\n      not\n        /* \"#utility.yul\":663:665   */\n      0x1f\n        /* \"#utility.yul\":656:661   */\n      dup4\n        /* \"#utility.yul\":652:666   */\n      add\n        /* \"#utility.yul\":648:676   */\n      and\n        /* \"#utility.yul\":638:676   */\n      swap1\n      pop\n        /* \"#utility.yul\":580:682   */\n      swap2\n      swap1\n      pop\n      jump\t// out\n        /* \"#utility.yul\":688:868   */\n    tag_74:\n        /* \"#utility.yul\":736:813   */\n      0x4e487b7100000000000000000000000000000000000000000000000000000000\n        /* \"#utility.yul\":733:734   */\n      0x00\n        /* \"#utility.yul\":726:814   */\n      mstore\n        /* \"#utility.yul\":833:837   */\n      0x41\n        /* \"#utility.yul\":830:831   */\n      0x04\n        /* \"#utility.yul\":823:838   */\n      mstore\n        /* \"#utility.yul\":857:861   */\n      0x24\n        /* \"#utility.yul\":854:855   */\n      0x00\n        /* \"#utility.yul\":847:862   */\n      revert\n        /* \"#utility.yul\":874:1155   */\n    tag_119:\n        /* \"#utility.yul\":957:984   */\n      tag_170\n        /* \"#utility.yul\":979:983   */\n      dup3\n        /* \"#utility.yul\":957:984   */\n      tag_118\n      jump\t// in\n    tag_170:\n        /* \"#utility.yul\":949:955   */\n      dup2\n        /* \"#utility.yul\":945:985   */\n      add\n        /* \"#utility.yul\":1087:1093   */\n      dup2\n        /* \"#utility.yul\":1075:1085   */\n      dup2\n        /* \"#utility.yul\":1072:1094   */\n      lt\n        /* \"#utility.yul\":1051:1069   */\n      0xffffffffffffffff\n        /* \"#utility.yul\":1039:1049   */\n      dup3\n        /* \"#utility.yul\":1036:1070   */\n      gt\n        /* \"#utility.yul\":1033:1095   */\n      or\n        /* \"#utility.yul\":1030:1118   */\n      iszero\n      tag_171\n      jumpi\n        /* \"#utility.yul\":1098:1116   */\n      tag_172\n      tag_74\n      jump\t// in\n    tag_172:\n        /* \"#utility.yul\":1030:1118   */\n    tag_171:\n        /* \"#utility.yul\":1138:1148   */\n      dup1\n        /* \"#utility.yul\":1134:1136   */\n      0x40\n        /* \"#utility.yul\":1127:1149   */\n      mstore\n        /* \"#utility.yul\":917:1155   */\n      pop\n        /* \"#utility.yul\":874:1155   */\n      pop\n      pop\n      jump\t// out\n        /* \"#utility.yul\":1161:1290   */\n    tag_120:\n        /* \"#utility.yul\":1195:1201   */\n      0x00\n        /* \"#utility.yul\":1222:1242   */\n      tag_174\n      tag_113\n      jump\t// in\n    tag_174:\n        /* \"#utility.yul\":1212:1242   */\n      swap1\n      pop\n        /* \"#utility.yul\":1251:1284   */\n      tag_175\n        /* \"#utility.yul\":1279:1283   */\n      dup3\n        /* \"#utility.yul\":1271:1277   */\n      dup3\n        /* \"#utility.yul\":1251:1284   */\n      tag_119\n      jump\t// in\n    tag_175:\n        /* \"#utility.yul\":1161:1290   */\n      swap2\n      swap1\n      pop\n      jump\t// out\n        /* \"#utility.yul\":1296:1604   */\n    tag_121:\n        /* \"#utility.yul\":1358:1362   */\n      0x00\n        /* \"#utility.yul\":1448:1466   */\n      0xffffffffffffffff\n        /* \"#utility.yul\":1440:1446   */\n      dup3\n        /* \"#utility.yul\":1437:1467   */\n      gt\n        /* \"#utility.yul\":1434:1490   */\n      iszero\n      tag_177\n      jumpi\n        /* \"#utility.yul\":1470:1488   */\n      tag_178\n      tag_74\n      jump\t// in\n    tag_178:\n        /* \"#utility.yul\":1434:1490   */\n    tag_177:\n        /* \"#utility.yul\":1508:1537   */\n      tag_179\n        /* \"#utility.yul\":1530:1536   */\n      dup3\n        /* \"#utility.yul\":1508:1537   */\n      tag_118\n      jump\t// in\n    tag_179:\n        /* \"#utility.yul\":1500:1537   */\n      swap1\n      pop\n        /* \"#utility.yul\":1592:1596   */\n      0x20\n        /* \"#utility.yul\":1586:1590   */\n      dup2\n        /* \"#utility.yul\":1582:1597   */\n      add\n        /* \"#utility.yul\":1574:1597   */\n      swap1\n      pop\n        /* \"#utility.yul\":1296:1604   */\n      swap2\n      swap1\n      pop\n      jump\t// out\n        /* \"#utility.yul\":1610:1756   */\n    tag_122:\n        /* \"#utility.yul\":1707:1713   */\n      dup3\n        /* \"#utility.yul\":1702:1705   */\n      dup2\n        /* \"#utility.yul\":1697:1700   */\n      dup4\n        /* \"#utility.yul\":1684:1714   */\n      calldatacopy\n        /* \"#utility.yul\":1748:1749   */\n      0x00\n        /* \"#utility.yul\":1739:1745   */\n      dup4\n        /* \"#utility.yul\":1734:1737   */\n      dup4\n        /* \"#utility.yul\":1730:1746   */\n      add\n        /* \"#utility.yul\":1723:1750   */\n      mstore\n        /* \"#utility.yul\":1610:1756   */\n      pop\n      pop\n      pop\n      jump\t// out\n        /* \"#utility.yul\":1762:2187   */\n    tag_123:\n        /* \"#utility.yul\":1840:1845   */\n      0x00\n        /* \"#utility.yul\":1865:1931   */\n      tag_182\n        /* \"#utility.yul\":1881:1930   */\n      tag_183\n        /* \"#utility.yul\":1923:1929   */\n      dup5\n        /* \"#utility.yul\":1881:1930   */\n      tag_121\n      jump\t// in\n    tag_183:\n        /* \"#utility.yul\":1865:1931   */\n      tag_120\n      jump\t// in\n    tag_182:\n        /* \"#utility.yul\":1856:1931   */\n      swap1\n      pop\n        /* \"#utility.yul\":1954:1960   */\n      dup3\n        /* \"#utility.yul\":1947:1952   */\n      dup2\n        /* \"#utility.yul\":1940:1961   */\n      mstore\n        /* \"#utility.yul\":1992:1996   */\n      0x20\n        /* \"#utility.yul\":1985:1990   */\n      dup2\n        /* \"#utility.yul\":1981:1997   */\n      add\n        /* \"#utility.yul\":2030:2033   */\n      dup5\n        /* \"#utility.yul\":2021:2027   */\n      dup5\n        /* \"#utility.yul\":2016:2019   */\n      dup5\n        /* \"#utility.yul\":2012:2028   */\n      add\n        /* \"#utility.yul\":2009:2034   */\n      gt\n        /* \"#utility.yul\":2006:2118   */\n      iszero\n      tag_184\n      jumpi\n        /* \"#utility.yul\":2037:2116   */\n      tag_185\n      tag_117\n      jump\t// in\n    tag_185:\n        /* \"#utility.yul\":2006:2118   */\n    tag_184:\n        /* \"#utility.yul\":2127:2181   */\n      tag_186\n        /* \"#utility.yul\":2174:2180   */\n      dup5\n        /* \"#utility.yul\":2169:2172   */\n      dup3\n        /* \"#utility.yul\":2164:2167   */\n      dup6\n        /* \"#utility.yul\":2127:2181   */\n      tag_122\n      jump\t// in\n    tag_186:\n        /* \"#utility.yul\":1846:2187   */\n      pop\n        /* \"#utility.yul\":1762:2187   */\n      swap4\n      swap3\n      pop\n      pop\n      pop\n      jump\t// out\n        /* \"#utility.yul\":2207:2547   */\n    tag_124:\n        /* \"#utility.yul\":2263:2268   */\n      0x00\n        /* \"#utility.yul\":2312:2315   */\n      dup3\n        /* \"#utility.yul\":2305:2309   */\n      0x1f\n        /* \"#utility.yul\":2297:2303   */\n      dup4\n        /* \"#utility.yul\":2293:2310   */\n      add\n        /* \"#utility.yul\":2289:2316   */\n      slt\n        /* \"#utility.yul\":2279:2401   */\n      tag_188\n      jumpi\n        /* \"#utility.yul\":2320:2399   */\n      tag_189\n      tag_116\n      jump\t// in\n    tag_189:\n        /* \"#utility.yul\":2279:2401   */\n    tag_188:\n        /* \"#utility.yul\":2437:2443   */\n      dup2\n        /* \"#utility.yul\":2424:2444   */\n      calldataload\n        /* \"#utility.yul\":2462:2541   */\n      tag_190\n        /* \"#utility.yul\":2537:2540   */\n      dup5\n        /* \"#utility.yul\":2529:2535   */\n      dup3\n        /* \"#utility.yul\":2522:2526   */\n      0x20\n        /* \"#utility.yul\":2514:2520   */\n      dup7\n        /* \"#utility.yul\":2510:2527   */\n      add\n        /* \"#utility.yul\":2462:2541   */\n      tag_123\n      jump\t// in\n    tag_190:\n        /* \"#utility.yul\":2453:2541   */\n      swap2\n      pop\n        /* \"#utility.yul\":2269:2547   */\n      pop\n        /* \"#utility.yul\":2207:2547   */\n      swap3\n      swap2\n      pop\n      pop\n      jump\t// out\n        /* \"#utility.yul\":2553:3387   */\n    tag_14:\n        /* \"#utility.yul\":2641:2647   */\n      0x00\n        /* \"#utility.yul\":2649:2655   */\n      dup1\n        /* \"#utility.yul\":2698:2700   */\n      0x40\n        /* \"#utility.yul\":2686:2695   */\n      dup4\n        /* \"#utility.yul\":2677:2684   */\n      dup6\n        /* \"#utility.yul\":2673:2696   */\n      sub\n        /* \"#utility.yul\":2669:2701   */\n      slt\n        /* \"#utility.yul\":2666:2785   */\n      iszero\n      tag_192\n      jumpi\n        /* \"#utility.yul\":2704:2783   */\n      tag_193\n      tag_114\n      jump\t// in\n    tag_193:\n        /* \"#utility.yul\":2666:2785   */\n    tag_192:\n        /* \"#utility.yul\":2852:2853   */\n      0x00\n        /* \"#utility.yul\":2841:2850   */\n      dup4\n        /* \"#utility.yul\":2837:2854   */\n      add\n        /* \"#utility.yul\":2824:2855   */\n      calldataload\n        /* \"#utility.yul\":2882:2900   */\n      0xffffffffffffffff\n        /* \"#utility.yul\":2874:2880   */\n      dup2\n        /* \"#utility.yul\":2871:2901   */\n      gt\n        /* \"#utility.yul\":2868:2985   */\n      iszero\n      tag_194\n      jumpi\n        /* \"#utility.yul\":2904:2983   */\n      tag_195\n      tag_115\n      jump\t// in\n    tag_195:\n        /* \"#utility.yul\":2868:2985   */\n    tag_194:\n        /* \"#utility.yul\":3009:3072   */\n      tag_196\n        /* \"#utility.yul\":3064:3071   */\n      dup6\n        /* \"#utility.yul\":3055:3061   */\n      dup3\n        /* \"#utility.yul\":3044:3053   */\n      dup7\n        /* \"#utility.yul\":3040:3062   */\n      add\n        /* \"#utility.yul\":3009:3072   */\n      tag_124\n      jump\t// in\n    tag_196:\n        /* \"#utility.yul\":2999:3072   */\n      swap3\n      pop\n        /* \"#utility.yul\":2795:3082   */\n      pop\n        /* \"#utility.yul\":3149:3151   */\n      0x20\n        /* \"#utility.yul\":3138:3147   */\n      dup4\n        /* \"#utility.yul\":3134:3152   */\n      add\n        /* \"#utility.yul\":3121:3153   */\n      calldataload\n        /* \"#utility.yul\":3180:3198   */\n      0xffffffffffffffff\n        /* \"#utility.yul\":3172:3178   */\n      dup2\n        /* \"#utility.yul\":3169:3199   */\n      gt\n        /* \"#utility.yul\":3166:3283   */\n      iszero\n      tag_197\n      jumpi\n        /* \"#utility.yul\":3202:3281   */\n      tag_198\n      tag_115\n      jump\t// in\n    tag_198:\n        /* \"#utility.yul\":3166:3283   */\n    tag_197:\n        /* \"#utility.yul\":3307:3370   */\n      tag_199\n        /* \"#utility.yul\":3362:3369   */\n      dup6\n        /* \"#utility.yul\":3353:3359   */\n      dup3\n        /* \"#utility.yul\":3342:3351   */\n      dup7\n        /* \"#utility.yul\":3338:3360   */\n      add\n        /* \"#utility.yul\":3307:3370   */\n      tag_124\n      jump\t// in\n    tag_199:\n        /* \"#utility.yul\":3297:3370   */\n      swap2\n      pop\n        /* \"#utility.yul\":3092:3380   */\n      pop\n        /* \"#utility.yul\":2553:3387   */\n      swap3\n      pop\n      swap3\n      swap1\n      pop\n      jump\t// out\n        /* \"#utility.yul\":3393:3492   */\n    tag_125:\n        /* \"#utility.yul\":3445:3451   */\n      0x00\n        /* \"#utility.yul\":3479:3484   */\n      dup2\n        /* \"#utility.yul\":3473:3485   */\n      mload\n        /* \"#utility.yul\":3463:3485   */\n      swap1\n      pop\n        /* \"#utility.yul\":3393:3492   */\n      swap2\n      swap1\n      pop\n      jump\t// out\n        /* \"#utility.yul\":3498:3667   */\n    tag_126:\n        /* \"#utility.yul\":3582:3593   */\n      0x00\n        /* \"#utility.yul\":3616:3622   */\n      dup3\n        /* \"#utility.yul\":3611:3614   */\n      dup3\n        /* \"#utility.yul\":3604:3623   */\n      mstore\n        /* \"#utility.yul\":3656:3660   */\n      0x20\n        /* \"#utility.yul\":3651:3654   */\n      dup3\n        /* \"#utility.yul\":3647:3661   */\n      add\n        /* \"#utility.yul\":3632:3661   */\n      swap1\n      pop\n        /* \"#utility.yul\":3498:3667   */\n      swap3\n      swap2\n      pop\n      pop\n      jump\t// out\n        /* \"#utility.yul\":3673:3919   */\n    tag_127:\n        /* \"#utility.yul\":3754:3755   */\n      0x00\n        /* \"#utility.yul\":3764:3877   */\n    tag_203:\n        /* \"#utility.yul\":3778:3784   */\n      dup4\n        /* \"#utility.yul\":3775:3776   */\n      dup2\n        /* \"#utility.yul\":3772:3785   */\n      lt\n        /* \"#utility.yul\":3764:3877   */\n      iszero\n      tag_205\n      jumpi\n        /* \"#utility.yul\":3863:3864   */\n      dup1\n        /* \"#utility.yul\":3858:3861   */\n      dup3\n        /* \"#utility.yul\":3854:3865   */\n      add\n        /* \"#utility.yul\":3848:3866   */\n      mload\n        /* \"#utility.yul\":3844:3845   */\n      dup2\n        /* \"#utility.yul\":3839:3842   */\n      dup5\n        /* \"#utility.yul\":3835:3846   */\n      add\n        /* \"#utility.yul\":3828:3867   */\n      mstore\n        /* \"#utility.yul\":3800:3802   */\n      0x20\n        /* \"#utility.yul\":3797:3798   */\n      dup2\n        /* \"#utility.yul\":3793:3803   */\n      add\n        /* \"#utility.yul\":3788:3803   */\n      swap1\n      pop\n        /* \"#utility.yul\":3764:3877   */\n      jump(tag_203)\n    tag_205:\n        /* \"#utility.yul\":3911:3912   */\n      0x00\n        /* \"#utility.yul\":3902:3908   */\n      dup5\n        /* \"#utility.yul\":3897:3900   */\n      dup5\n        /* \"#utility.yul\":3893:3909   */\n      add\n        /* \"#utility.yul\":3886:3913   */\n      mstore\n        /* \"#utility.yul\":3735:3919   */\n      pop\n        /* \"#utility.yul\":3673:3919   */\n      pop\n      pop\n      pop\n      jump\t// out\n        /* \"#utility.yul\":3925:4302   */\n    tag_128:\n        /* \"#utility.yul\":4013:4016   */\n      0x00\n        /* \"#utility.yul\":4041:4080   */\n      tag_207\n        /* \"#utility.yul\":4074:4079   */\n      dup3\n        /* \"#utility.yul\":4041:4080   */\n      tag_125\n      jump\t// in\n    tag_207:\n        /* \"#utility.yul\":4096:4167   */\n      tag_208\n        /* \"#utility.yul\":4160:4166   */\n      dup2\n        /* \"#utility.yul\":4155:4158   */\n      dup6\n        /* \"#utility.yul\":4096:4167   */\n      tag_126\n      jump\t// in\n    tag_208:\n        /* \"#utility.yul\":4089:4167   */\n      swap4\n      pop\n        /* \"#utility.yul\":4176:4241   */\n      tag_209\n        /* \"#utility.yul\":4234:4240   */\n      dup2\n        /* \"#utility.yul\":4229:4232   */\n      dup6\n        /* \"#utility.yul\":4222:4226   */\n      0x20\n        /* \"#utility.yul\":4215:4220   */\n      dup7\n        /* \"#utility.yul\":4211:4227   */\n      add\n        /* \"#utility.yul\":4176:4241   */\n      tag_127\n      jump\t// in\n    tag_209:\n        /* \"#utility.yul\":4266:4295   */\n      tag_210\n        /* \"#utility.yul\":4288:4294   */\n      dup2\n        /* \"#utility.yul\":4266:4295   */\n      tag_118\n      jump\t// in\n    tag_210:\n        /* \"#utility.yul\":4261:4264   */\n      dup5\n        /* \"#utility.yul\":4257:4296   */\n      add\n        /* \"#utility.yul\":4250:4296   */\n      swap2\n      pop\n        /* \"#utility.yul\":4017:4302   */\n      pop\n        /* \"#utility.yul\":3925:4302   */\n      swap3\n      swap2\n      pop\n      pop\n      jump\t// out\n        /* \"#utility.yul\":4308:4621   */\n    tag_17:\n        /* \"#utility.yul\":4421:4425   */\n      0x00\n        /* \"#utility.yul\":4459:4461   */\n      0x20\n        /* \"#utility.yul\":4448:4457   */\n      dup3\n        /* \"#utility.yul\":4444:4462   */\n      add\n        /* \"#utility.yul\":4436:4462   */\n      swap1\n      pop\n        /* \"#utility.yul\":4508:4517   */\n      dup2\n        /* \"#utility.yul\":4502:4506   */\n      dup2\n        /* \"#utility.yul\":4498:4518   */\n      sub\n        /* \"#utility.yul\":4494:4495   */\n      0x00\n        /* \"#utility.yul\":4483:4492   */\n      dup4\n        /* \"#utility.yul\":4479:4496   */\n      add\n        /* \"#utility.yul\":4472:4519   */\n      mstore\n        /* \"#utility.yul\":4536:4614   */\n      tag_212\n        /* \"#utility.yul\":4609:4613   */\n      dup2\n        /* \"#utility.yul\":4600:4606   */\n      dup5\n        /* \"#utility.yul\":4536:4614   */\n      tag_128\n      jump\t// in\n    tag_212:\n        /* \"#utility.yul\":4528:4614   */\n      swap1\n      pop\n        /* \"#utility.yul\":4308:4621   */\n      swap3\n      swap2\n      pop\n      pop\n      jump\t// out\n        /* \"#utility.yul\":4627:4704   */\n    tag_129:\n        /* \"#utility.yul\":4664:4671   */\n      0x00\n        /* \"#utility.yul\":4693:4698   */\n      dup2\n        /* \"#utility.yul\":4682:4698   */\n      swap1\n      pop\n        /* \"#utility.yul\":4627:4704   */\n      swap2\n      swap1\n      pop\n      jump\t// out\n        /* \"#utility.yul\":4710:4832   */\n    tag_130:\n        /* \"#utility.yul\":4783:4807   */\n      tag_215\n        /* \"#utility.yul\":4801:4806   */\n      dup2\n        /* \"#utility.yul\":4783:4807   */\n      tag_129\n      jump\t// in\n    tag_215:\n        /* \"#utility.yul\":4776:4781   */\n      dup2\n        /* \"#utility.yul\":4773:4808   */\n      eq\n        /* \"#utility.yul\":4763:4826   */\n      tag_216\n      jumpi\n        /* \"#utility.yul\":4822:4823   */\n      0x00\n        /* \"#utility.yul\":4819:4820   */\n      dup1\n        /* \"#utility.yul\":4812:4824   */\n      revert\n        /* \"#utility.yul\":4763:4826   */\n    tag_216:\n        /* \"#utility.yul\":4710:4832   */\n      pop\n      jump\t// out\n        /* \"#utility.yul\":4838:4977   */\n    tag_131:\n        /* \"#utility.yul\":4884:4889   */\n      0x00\n        /* \"#utility.yul\":4922:4928   */\n      dup2\n        /* \"#utility.yul\":4909:4929   */\n      calldataload\n        /* \"#utility.yul\":4900:4929   */\n      swap1\n      pop\n        /* \"#utility.yul\":4938:4971   */\n      tag_218\n        /* \"#utility.yul\":4965:4970   */\n      dup2\n        /* \"#utility.yul\":4938:4971   */\n      tag_130\n      jump\t// in\n    tag_218:\n        /* \"#utility.yul\":4838:4977   */\n      swap3\n      swap2\n      pop\n      pop\n      jump\t// out\n        /* \"#utility.yul\":4983:5637   */\n    tag_24:\n        /* \"#utility.yul\":5061:5067   */\n      0x00\n        /* \"#utility.yul\":5069:5075   */\n      dup1\n        /* \"#utility.yul\":5118:5120   */\n      0x40\n        /* \"#utility.yul\":5106:5115   */\n      dup4\n        /* \"#utility.yul\":5097:5104   */\n      dup6\n        /* \"#utility.yul\":5093:5116   */\n      sub\n        /* \"#utility.yul\":5089:5121   */\n      slt\n        /* \"#utility.yul\":5086:5205   */\n      iszero\n      tag_220\n      jumpi\n        /* \"#utility.yul\":5124:5203   */\n      tag_221\n      tag_114\n      jump\t// in\n    tag_221:\n        /* \"#utility.yul\":5086:5205   */\n    tag_220:\n        /* \"#utility.yul\":5244:5245   */\n      0x00\n        /* \"#utility.yul\":5269:5322   */\n      tag_222\n        /* \"#utility.yul\":5314:5321   */\n      dup6\n        /* \"#utility.yul\":5305:5311   */\n      dup3\n        /* \"#utility.yul\":5294:5303   */\n      dup7\n        /* \"#utility.yul\":5290:5312   */\n      add\n        /* \"#utility.yul\":5269:5322   */\n      tag_131\n      jump\t// in\n    tag_222:\n        /* \"#utility.yul\":5259:5322   */\n      swap3\n      pop\n        /* \"#utility.yul\":5215:5332   */\n      pop\n        /* \"#utility.yul\":5399:5401   */\n      0x20\n        /* \"#utility.yul\":5388:5397   */\n      dup4\n        /* \"#utility.yul\":5384:5402   */\n      add\n        /* \"#utility.yul\":5371:5403   */\n      calldataload\n        /* \"#utility.yul\":5430:5448   */\n      0xffffffffffffffff\n        /* \"#utility.yul\":5422:5428   */\n      dup2\n        /* \"#utility.yul\":5419:5449   */\n      gt\n        /* \"#utility.yul\":5416:5533   */\n      iszero\n      tag_223\n      jumpi\n        /* \"#utility.yul\":5452:5531   */\n      tag_224\n      tag_115\n      jump\t// in\n    tag_224:\n        /* \"#utility.yul\":5416:5533   */\n    tag_223:\n        /* \"#utility.yul\":5557:5620   */\n      tag_225\n        /* \"#utility.yul\":5612:5619   */\n      dup6\n        /* \"#utility.yul\":5603:5609   */\n      dup3\n        /* \"#utility.yul\":5592:5601   */\n      dup7\n        /* \"#utility.yul\":5588:5610   */\n      add\n        /* \"#utility.yul\":5557:5620   */\n      tag_124\n      jump\t// in\n    tag_225:\n        /* \"#utility.yul\":5547:5620   */\n      swap2\n      pop\n        /* \"#utility.yul\":5342:5630   */\n      pop\n        /* \"#utility.yul\":4983:5637   */\n      swap3\n      pop\n      swap3\n      swap1\n      pop\n      jump\t// out\n        /* \"#utility.yul\":5643:5741   */\n    tag_132:\n        /* \"#utility.yul\":5694:5700   */\n      0x00\n        /* \"#utility.yul\":5728:5733   */\n      dup2\n        /* \"#utility.yul\":5722:5734   */\n      mload\n        /* \"#utility.yul\":5712:5734   */\n      swap1\n      pop\n        /* \"#utility.yul\":5643:5741   */\n      swap2\n      swap1\n      pop\n      jump\t// out\n        /* \"#utility.yul\":5747:5915   */\n    tag_133:\n        /* \"#utility.yul\":5830:5841   */\n      0x00\n        /* \"#utility.yul\":5864:5870   */\n      dup3\n        /* \"#utility.yul\":5859:5862   */\n      dup3\n        /* \"#utility.yul\":5852:5871   */\n      mstore\n        /* \"#utility.yul\":5904:5908   */\n      0x20\n        /* \"#utility.yul\":5899:5902   */\n      dup3\n        /* \"#utility.yul\":5895:5909   */\n      add\n        /* \"#utility.yul\":5880:5909   */\n      swap1\n      pop\n        /* \"#utility.yul\":5747:5915   */\n      swap3\n      swap2\n      pop\n      pop\n      jump\t// out\n        /* \"#utility.yul\":5921:6294   */\n    tag_134:\n        /* \"#utility.yul\":6007:6010   */\n      0x00\n        /* \"#utility.yul\":6035:6073   */\n      tag_229\n        /* \"#utility.yul\":6067:6072   */\n      dup3\n        /* \"#utility.yul\":6035:6073   */\n      tag_132\n      jump\t// in\n    tag_229:\n        /* \"#utility.yul\":6089:6159   */\n      tag_230\n        /* \"#utility.yul\":6152:6158   */\n      dup2\n        /* \"#utility.yul\":6147:6150   */\n      dup6\n        /* \"#utility.yul\":6089:6159   */\n      tag_133\n      jump\t// in\n    tag_230:\n        /* \"#utility.yul\":6082:6159   */\n      swap4\n      pop\n        /* \"#utility.yul\":6168:6233   */\n      tag_231\n        /* \"#utility.yul\":6226:6232   */\n      dup2\n        /* \"#utility.yul\":6221:6224   */\n      dup6\n        /* \"#utility.yul\":6214:6218   */\n      0x20\n        /* \"#utility.yul\":6207:6212   */\n      dup7\n        /* \"#utility.yul\":6203:6219   */\n      add\n        /* \"#utility.yul\":6168:6233   */\n      tag_127\n      jump\t// in\n    tag_231:\n        /* \"#utility.yul\":6258:6287   */\n      tag_232\n        /* \"#utility.yul\":6280:6286   */\n      dup2\n        /* \"#utility.yul\":6258:6287   */\n      tag_118\n      jump\t// in\n    tag_232:\n        /* \"#utility.yul\":6253:6256   */\n      dup5\n        /* \"#utility.yul\":6249:6288   */\n      add\n        /* \"#utility.yul\":6242:6288   */\n      swap2\n      pop\n        /* \"#utility.yul\":6011:6294   */\n      pop\n        /* \"#utility.yul\":5921:6294   */\n      swap3\n      swap2\n      pop\n      pop\n      jump\t// out\n        /* \"#utility.yul\":6300:6806   */\n    tag_31:\n        /* \"#utility.yul\":6457:6461   */\n      0x00\n        /* \"#utility.yul\":6495:6497   */\n      0x40\n        /* \"#utility.yul\":6484:6493   */\n      dup3\n        /* \"#utility.yul\":6480:6498   */\n      add\n        /* \"#utility.yul\":6472:6498   */\n      swap1\n      pop\n        /* \"#utility.yul\":6544:6553   */\n      dup2\n        /* \"#utility.yul\":6538:6542   */\n      dup2\n        /* \"#utility.yul\":6534:6554   */\n      sub\n        /* \"#utility.yul\":6530:6531   */\n      0x00\n        /* \"#utility.yul\":6519:6528   */\n      dup4\n        /* \"#utility.yul\":6515:6532   */\n      add\n        /* \"#utility.yul\":6508:6555   */\n      mstore\n        /* \"#utility.yul\":6572:6648   */\n      tag_234\n        /* \"#utility.yul\":6643:6647   */\n      dup2\n        /* \"#utility.yul\":6634:6640   */\n      dup6\n        /* \"#utility.yul\":6572:6648   */\n      tag_134\n      jump\t// in\n    tag_234:\n        /* \"#utility.yul\":6564:6648   */\n      swap1\n      pop\n        /* \"#utility.yul\":6695:6704   */\n      dup2\n        /* \"#utility.yul\":6689:6693   */\n      dup2\n        /* \"#utility.yul\":6685:6705   */\n      sub\n        /* \"#utility.yul\":6680:6682   */\n      0x20\n        /* \"#utility.yul\":6669:6678   */\n      dup4\n        /* \"#utility.yul\":6665:6683   */\n      add\n        /* \"#utility.yul\":6658:6706   */\n      mstore\n        /* \"#utility.yul\":6723:6799   */\n      tag_235\n        /* \"#utility.yul\":6794:6798   */\n      dup2\n        /* \"#utility.yul\":6785:6791   */\n      dup5\n        /* \"#utility.yul\":6723:6799   */\n      tag_134\n      jump\t// in\n    tag_235:\n        /* \"#utility.yul\":6715:6799   */\n      swap1\n      pop\n        /* \"#utility.yul\":6300:6806   */\n      swap4\n      swap3\n      pop\n      pop\n      pop\n      jump\t// out\n        /* \"#utility.yul\":6812:7141   */\n    tag_34:\n        /* \"#utility.yul\":6871:6877   */\n      0x00\n        /* \"#utility.yul\":6920:6922   */\n      0x20\n        /* \"#utility.yul\":6908:6917   */\n      dup3\n        /* \"#utility.yul\":6899:6906   */\n      dup5\n        /* \"#utility.yul\":6895:6918   */\n      sub\n        /* \"#utility.yul\":6891:6923   */\n      slt\n        /* \"#utility.yul\":6888:7007   */\n      iszero\n      tag_237\n      jumpi\n        /* \"#utility.yul\":6926:7005   */\n      tag_238\n      tag_114\n      jump\t// in\n    tag_238:\n        /* \"#utility.yul\":6888:7007   */\n    tag_237:\n        /* \"#utility.yul\":7046:7047   */\n      0x00\n        /* \"#utility.yul\":7071:7124   */\n      tag_239\n        /* \"#utility.yul\":7116:7123   */\n      dup5\n        /* \"#utility.yul\":7107:7113   */\n      dup3\n        /* \"#utility.yul\":7096:7105   */\n      dup6\n        /* \"#utility.yul\":7092:7114   */\n      add\n        /* \"#utility.yul\":7071:7124   */\n      tag_131\n      jump\t// in\n    tag_239:\n        /* \"#utility.yul\":7061:7124   */\n      swap2\n      pop\n        /* \"#utility.yul\":7017:7134   */\n      pop\n        /* \"#utility.yul\":6812:7141   */\n      swap3\n      swap2\n      pop\n      pop\n      jump\t// out\n        /* \"#utility.yul\":7147:7766   */\n    tag_39:\n        /* \"#utility.yul\":7224:7230   */\n      0x00\n        /* \"#utility.yul\":7232:7238   */\n      dup1\n        /* \"#utility.yul\":7240:7246   */\n      0x00\n        /* \"#utility.yul\":7289:7291   */\n      0x60\n        /* \"#utility.yul\":7277:7286   */\n      dup5\n        /* \"#utility.yul\":7268:7275   */\n      dup7\n        /* \"#utility.yul\":7264:7287   */\n      sub\n        /* \"#utility.yul\":7260:7292   */\n      slt\n        /* \"#utility.yul\":7257:7376   */\n      iszero\n      tag_241\n      jumpi\n        /* \"#utility.yul\":7295:7374   */\n      tag_242\n      tag_114\n      jump\t// in\n    tag_242:\n        /* \"#utility.yul\":7257:7376   */\n    tag_241:\n        /* \"#utility.yul\":7415:7416   */\n      0x00\n        /* \"#utility.yul\":7440:7493   */\n      tag_243\n        /* \"#utility.yul\":7485:7492   */\n      dup7\n        /* \"#utility.yul\":7476:7482   */\n      dup3\n        /* \"#utility.yul\":7465:7474   */\n      dup8\n        /* \"#utility.yul\":7461:7483   */\n      add\n        /* \"#utility.yul\":7440:7493   */\n      tag_131\n      jump\t// in\n    tag_243:\n        /* \"#utility.yul\":7430:7493   */\n      swap4\n      pop\n        /* \"#utility.yul\":7386:7503   */\n      pop\n        /* \"#utility.yul\":7542:7544   */\n      0x20\n        /* \"#utility.yul\":7568:7621   */\n      tag_244\n        /* \"#utility.yul\":7613:7620   */\n      dup7\n        /* \"#utility.yul\":7604:7610   */\n      dup3\n        /* \"#utility.yul\":7593:7602   */\n      dup8\n        /* \"#utility.yul\":7589:7611   */\n      add\n        /* \"#utility.yul\":7568:7621   */\n      tag_131\n      jump\t// in\n    tag_244:\n        /* \"#utility.yul\":7558:7621   */\n      swap3\n      pop\n        /* \"#utility.yul\":7513:7631   */\n      pop\n        /* \"#utility.yul\":7670:7672   */\n      0x40\n        /* \"#utility.yul\":7696:7749   */\n      tag_245\n        /* \"#utility.yul\":7741:7748   */\n      dup7\n        /* \"#utility.yul\":7732:7738   */\n      dup3\n        /* \"#utility.yul\":7721:7730   */\n      dup8\n        /* \"#utility.yul\":7717:7739   */\n      add\n        /* \"#utility.yul\":7696:7749   */\n      tag_131\n      jump\t// in\n    tag_245:\n        /* \"#utility.yul\":7686:7749   */\n      swap2\n      pop\n        /* \"#utility.yul\":7641:7759   */\n      pop\n        /* \"#utility.yul\":7147:7766   */\n      swap3\n      pop\n      swap3\n      pop\n      swap3\n      jump\t// out\n        /* \"#utility.yul\":7772:8751   */\n    tag_48:\n        /* \"#utility.yul\":7869:7875   */\n      0x00\n        /* \"#utility.yul\":7877:7883   */\n      dup1\n        /* \"#utility.yul\":7885:7891   */\n      0x00\n        /* \"#utility.yul\":7934:7936   */\n      0x60\n        /* \"#utility.yul\":7922:7931   */\n      dup5\n        /* \"#utility.yul\":7913:7920   */\n      dup7\n        /* \"#utility.yul\":7909:7932   */\n      sub\n        /* \"#utility.yul\":7905:7937   */\n      slt\n        /* \"#utility.yul\":7902:8021   */\n      iszero\n      tag_247\n      jumpi\n        /* \"#utility.yul\":7940:8019   */\n      tag_248\n      tag_114\n      jump\t// in\n    tag_248:\n        /* \"#utility.yul\":7902:8021   */\n    tag_247:\n        /* \"#utility.yul\":8060:8061   */\n      0x00\n        /* \"#utility.yul\":8085:8138   */\n      tag_249\n        /* \"#utility.yul\":8130:8137   */\n      dup7\n        /* \"#utility.yul\":8121:8127   */\n      dup3\n        /* \"#utility.yul\":8110:8119   */\n      dup8\n        /* \"#utility.yul\":8106:8128   */\n      add\n        /* \"#utility.yul\":8085:8138   */\n      tag_131\n      jump\t// in\n    tag_249:\n        /* \"#utility.yul\":8075:8138   */\n      swap4\n      pop\n        /* \"#utility.yul\":8031:8148   */\n      pop\n        /* \"#utility.yul\":8215:8217   */\n      0x20\n        /* \"#utility.yul\":8204:8213   */\n      dup5\n        /* \"#utility.yul\":8200:8218   */\n      add\n        /* \"#utility.yul\":8187:8219   */\n      calldataload\n        /* \"#utility.yul\":8246:8264   */\n      0xffffffffffffffff\n        /* \"#utility.yul\":8238:8244   */\n      dup2\n        /* \"#utility.yul\":8235:8265   */\n      gt\n        /* \"#utility.yul\":8232:8349   */\n      iszero\n      tag_250\n      jumpi\n        /* \"#utility.yul\":8268:8347   */\n      tag_251\n      tag_115\n      jump\t// in\n    tag_251:\n        /* \"#utility.yul\":8232:8349   */\n    tag_250:\n        /* \"#utility.yul\":8373:8436   */\n      tag_252\n        /* \"#utility.yul\":8428:8435   */\n      dup7\n        /* \"#utility.yul\":8419:8425   */\n      dup3\n        /* \"#utility.yul\":8408:8417   */\n      dup8\n        /* \"#utility.yul\":8404:8426   */\n      add\n        /* \"#utility.yul\":8373:8436   */\n      tag_124\n      jump\t// in\n    tag_252:\n        /* \"#utility.yul\":8363:8436   */\n      swap3\n      pop\n        /* \"#utility.yul\":8158:8446   */\n      pop\n        /* \"#utility.yul\":8513:8515   */\n      0x40\n        /* \"#utility.yul\":8502:8511   */\n      dup5\n        /* \"#utility.yul\":8498:8516   */\n      add\n        /* \"#utility.yul\":8485:8517   */\n      calldataload\n        /* \"#utility.yul\":8544:8562   */\n      0xffffffffffffffff\n        /* \"#utility.yul\":8536:8542   */\n      dup2\n        /* \"#utility.yul\":8533:8563   */\n      gt\n        /* \"#utility.yul\":8530:8647   */\n      iszero\n      tag_253\n      jumpi\n        /* \"#utility.yul\":8566:8645   */\n      tag_254\n      tag_115\n      jump\t// in\n    tag_254:\n        /* \"#utility.yul\":8530:8647   */\n    tag_253:\n        /* \"#utility.yul\":8671:8734   */\n      tag_255\n        /* \"#utility.yul\":8726:8733   */\n      dup7\n        /* \"#utility.yul\":8717:8723   */\n      dup3\n        /* \"#utility.yul\":8706:8715   */\n      dup8\n        /* \"#utility.yul\":8702:8724   */\n      add\n        /* \"#utility.yul\":8671:8734   */\n      tag_124\n      jump\t// in\n    tag_255:\n        /* \"#utility.yul\":8661:8734   */\n      swap2\n      pop\n        /* \"#utility.yul\":8456:8744   */\n      pop\n        /* \"#utility.yul\":7772:8751   */\n      swap3\n      pop\n      swap3\n      pop\n      swap3\n      jump\t// out\n        /* \"#utility.yul\":8757:8905   */\n    tag_135:\n        /* \"#utility.yul\":8859:8870   */\n      0x00\n        /* \"#utility.yul\":8896:8899   */\n      dup2\n        /* \"#utility.yul\":8881:8899   */\n      swap1\n      pop\n        /* \"#utility.yul\":8757:8905   */\n      swap3\n      swap2\n      pop\n      pop\n      jump\t// out\n        /* \"#utility.yul\":8911:9301   */\n    tag_136:\n        /* \"#utility.yul\":9017:9020   */\n      0x00\n        /* \"#utility.yul\":9045:9084   */\n      tag_258\n        /* \"#utility.yul\":9078:9083   */\n      dup3\n        /* \"#utility.yul\":9045:9084   */\n      tag_125\n      jump\t// in\n    tag_258:\n        /* \"#utility.yul\":9100:9189   */\n      tag_259\n        /* \"#utility.yul\":9182:9188   */\n      dup2\n        /* \"#utility.yul\":9177:9180   */\n      dup6\n        /* \"#utility.yul\":9100:9189   */\n      tag_135\n      jump\t// in\n    tag_259:\n        /* \"#utility.yul\":9093:9189   */\n      swap4\n      pop\n        /* \"#utility.yul\":9198:9263   */\n      tag_260\n        /* \"#utility.yul\":9256:9262   */\n      dup2\n        /* \"#utility.yul\":9251:9254   */\n      dup6\n        /* \"#utility.yul\":9244:9248   */\n      0x20\n        /* \"#utility.yul\":9237:9242   */\n      dup7\n        /* \"#utility.yul\":9233:9249   */\n      add\n        /* \"#utility.yul\":9198:9263   */\n      tag_127\n      jump\t// in\n    tag_260:\n        /* \"#utility.yul\":9288:9294   */\n      dup1\n        /* \"#utility.yul\":9283:9286   */\n      dup5\n        /* \"#utility.yul\":9279:9295   */\n      add\n        /* \"#utility.yul\":9272:9295   */\n      swap2\n      pop\n        /* \"#utility.yul\":9021:9301   */\n      pop\n        /* \"#utility.yul\":8911:9301   */\n      swap3\n      swap2\n      pop\n      pop\n      jump\t// out\n        /* \"#utility.yul\":9307:9742   */\n    tag_53:\n        /* \"#utility.yul\":9487:9490   */\n      0x00\n        /* \"#utility.yul\":9509:9604   */\n      tag_262\n        /* \"#utility.yul\":9600:9603   */\n      dup3\n        /* \"#utility.yul\":9591:9597   */\n      dup6\n        /* \"#utility.yul\":9509:9604   */\n      tag_136\n      jump\t// in\n    tag_262:\n        /* \"#utility.yul\":9502:9604   */\n      swap2\n      pop\n        /* \"#utility.yul\":9621:9716   */\n      tag_263\n        /* \"#utility.yul\":9712:9715   */\n      dup3\n        /* \"#utility.yul\":9703:9709   */\n      dup5\n        /* \"#utility.yul\":9621:9716   */\n      tag_136\n      jump\t// in\n    tag_263:\n        /* \"#utility.yul\":9614:9716   */\n      swap2\n      pop\n        /* \"#utility.yul\":9733:9736   */\n      dup2\n        /* \"#utility.yul\":9726:9736   */\n      swap1\n      pop\n        /* \"#utility.yul\":9307:9742   */\n      swap4\n      swap3\n      pop\n      pop\n      pop\n      jump\t// out\n        /* \"#utility.yul\":9748:9903   */\n    tag_137:\n        /* \"#utility.yul\":9888:9895   */\n      0x686f757273000000000000000000000000000000000000000000000000000000\n        /* \"#utility.yul\":9884:9885   */\n      0x00\n        /* \"#utility.yul\":9876:9882   */\n      dup3\n        /* \"#utility.yul\":9872:9886   */\n      add\n        /* \"#utility.yul\":9865:9896   */\n      mstore\n        /* \"#utility.yul\":9748:9903   */\n      pop\n      jump\t// out\n        /* \"#utility.yul\":9909:10309   */\n    tag_138:\n        /* \"#utility.yul\":10069:10072   */\n      0x00\n        /* \"#utility.yul\":10090:10174   */\n      tag_266\n        /* \"#utility.yul\":10172:10173   */\n      0x05\n        /* \"#utility.yul\":10167:10170   */\n      dup4\n        /* \"#utility.yul\":10090:10174   */\n      tag_135\n      jump\t// in\n    tag_266:\n        /* \"#utility.yul\":10083:10174   */\n      swap2\n      pop\n        /* \"#utility.yul\":10183:10276   */\n      tag_267\n        /* \"#utility.yul\":10272:10275   */\n      dup3\n        /* \"#utility.yul\":10183:10276   */\n      tag_137\n      jump\t// in\n    tag_267:\n        /* \"#utility.yul\":10301:10302   */\n      0x05\n        /* \"#utility.yul\":10296:10299   */\n      dup3\n        /* \"#utility.yul\":10292:10303   */\n      add\n        /* \"#utility.yul\":10285:10303   */\n      swap1\n      pop\n        /* \"#utility.yul\":9909:10309   */\n      swap2\n      swap1\n      pop\n      jump\t// out\n        /* \"#utility.yul\":10315:11016   */\n    tag_59:\n        /* \"#utility.yul\":10596:10599   */\n      0x00\n        /* \"#utility.yul\":10618:10713   */\n      tag_269\n        /* \"#utility.yul\":10709:10712   */\n      dup3\n        /* \"#utility.yul\":10700:10706   */\n      dup6\n        /* \"#utility.yul\":10618:10713   */\n      tag_136\n      jump\t// in\n    tag_269:\n        /* \"#utility.yul\":10611:10713   */\n      swap2\n      pop\n        /* \"#utility.yul\":10730:10878   */\n      tag_270\n        /* \"#utility.yul\":10874:10877   */\n      dup3\n        /* \"#utility.yul\":10730:10878   */\n      tag_138\n      jump\t// in\n    tag_270:\n        /* \"#utility.yul\":10723:10878   */\n      swap2\n      pop\n        /* \"#utility.yul\":10895:10990   */\n      tag_271\n        /* \"#utility.yul\":10986:10989   */\n      dup3\n        /* \"#utility.yul\":10977:10983   */\n      dup5\n        /* \"#utility.yul\":10895:10990   */\n      tag_136\n      jump\t// in\n    tag_271:\n        /* \"#utility.yul\":10888:10990   */\n      swap2\n      pop\n        /* \"#utility.yul\":11007:11010   */\n      dup2\n        /* \"#utility.yul\":11000:11010   */\n      swap1\n      pop\n        /* \"#utility.yul\":10315:11016   */\n      swap4\n      swap3\n      pop\n      pop\n      pop\n      jump\t// out\n        /* \"#utility.yul\":11022:11101   */\n    tag_139:\n        /* \"#utility.yul\":11061:11068   */\n      0x00\n        /* \"#utility.yul\":11090:11095   */\n      dup2\n        /* \"#utility.yul\":11079:11095   */\n      swap1\n      pop\n        /* \"#utility.yul\":11022:11101   */\n      swap2\n      swap1\n      pop\n      jump\t// out\n        /* \"#utility.yul\":11107:11264   */\n    tag_140:\n        /* \"#utility.yul\":11212:11257   */\n      tag_274\n        /* \"#utility.yul\":11232:11256   */\n      tag_275\n        /* \"#utility.yul\":11250:11255   */\n      dup3\n        /* \"#utility.yul\":11232:11256   */\n      tag_129\n      jump\t// in\n    tag_275:\n        /* \"#utility.yul\":11212:11257   */\n      tag_139\n      jump\t// in\n    tag_274:\n        /* \"#utility.yul\":11207:11210   */\n      dup3\n        /* \"#utility.yul\":11200:11258   */\n      mstore\n        /* \"#utility.yul\":11107:11264   */\n      pop\n      pop\n      jump\t// out\n        /* \"#utility.yul\":11270:11526   */\n    tag_62:\n        /* \"#utility.yul\":11382:11385   */\n      0x00\n        /* \"#utility.yul\":11397:11472   */\n      tag_277\n        /* \"#utility.yul\":11468:11471   */\n      dup3\n        /* \"#utility.yul\":11459:11465   */\n      dup5\n        /* \"#utility.yul\":11397:11472   */\n      tag_140\n      jump\t// in\n    tag_277:\n        /* \"#utility.yul\":11497:11499   */\n      0x20\n        /* \"#utility.yul\":11492:11495   */\n      dup3\n        /* \"#utility.yul\":11488:11500   */\n      add\n        /* \"#utility.yul\":11481:11500   */\n      swap2\n      pop\n        /* \"#utility.yul\":11517:11520   */\n      dup2\n        /* \"#utility.yul\":11510:11520   */\n      swap1\n      pop\n        /* \"#utility.yul\":11270:11526   */\n      swap3\n      swap2\n      pop\n      pop\n      jump\t// out\n        /* \"#utility.yul\":11532:11807   */\n    tag_64:\n        /* \"#utility.yul\":11664:11667   */\n      0x00\n        /* \"#utility.yul\":11686:11781   */\n      tag_279\n        /* \"#utility.yul\":11777:11780   */\n      dup3\n        /* \"#utility.yul\":11768:11774   */\n      dup5\n        /* \"#utility.yul\":11686:11781   */\n      tag_136\n      jump\t// in\n    tag_279:\n        /* \"#utility.yul\":11679:11781   */\n      swap2\n      pop\n        /* \"#utility.yul\":11798:11801   */\n      dup2\n        /* \"#utility.yul\":11791:11801   */\n      swap1\n      pop\n        /* \"#utility.yul\":11532:11807   */\n      swap3\n      swap2\n      pop\n      pop\n      jump\t// out\n        /* \"#utility.yul\":11813:11931   */\n    tag_141:\n        /* \"#utility.yul\":11900:11924   */\n      tag_281\n        /* \"#utility.yul\":11918:11923   */\n      dup2\n        /* \"#utility.yul\":11900:11924   */\n      tag_129\n      jump\t// in\n    tag_281:\n        /* \"#utility.yul\":11895:11898   */\n      dup3\n        /* \"#utility.yul\":11888:11925   */\n      mstore\n        /* \"#utility.yul\":11813:11931   */\n      pop\n      pop\n      jump\t// out\n        /* \"#utility.yul\":11937:12159   */\n    tag_67:\n        /* \"#utility.yul\":12030:12034   */\n      0x00\n        /* \"#utility.yul\":12068:12070   */\n      0x20\n        /* \"#utility.yul\":12057:12066   */\n      dup3\n        /* \"#utility.yul\":12053:12071   */\n      add\n        /* \"#utility.yul\":12045:12071   */\n      swap1\n      pop\n        /* \"#utility.yul\":12081:12152   */\n      tag_283\n        /* \"#utility.yul\":12149:12150   */\n      0x00\n        /* \"#utility.yul\":12138:12147   */\n      dup4\n        /* \"#utility.yul\":12134:12151   */\n      add\n        /* \"#utility.yul\":12125:12131   */\n      dup5\n        /* \"#utility.yul\":12081:12152   */\n      tag_141\n      jump\t// in\n    tag_283:\n        /* \"#utility.yul\":11937:12159   */\n      swap3\n      swap2\n      pop\n      pop\n      jump\t// out\n        /* \"#utility.yul\":12165:12308   */\n    tag_142:\n        /* \"#utility.yul\":12222:12227   */\n      0x00\n        /* \"#utility.yul\":12253:12259   */\n      dup2\n        /* \"#utility.yul\":12247:12260   */\n      mload\n        /* \"#utility.yul\":12238:12260   */\n      swap1\n      pop\n        /* \"#utility.yul\":12269:12302   */\n      tag_285\n        /* \"#utility.yul\":12296:12301   */\n      dup2\n        /* \"#utility.yul\":12269:12302   */\n      tag_130\n      jump\t// in\n    tag_285:\n        /* \"#utility.yul\":12165:12308   */\n      swap3\n      swap2\n      pop\n      pop\n      jump\t// out\n        /* \"#utility.yul\":12314:12665   */\n    tag_71:\n        /* \"#utility.yul\":12384:12390   */\n      0x00\n        /* \"#utility.yul\":12433:12435   */\n      0x20\n        /* \"#utility.yul\":12421:12430   */\n      dup3\n        /* \"#utility.yul\":12412:12419   */\n      dup5\n        /* \"#utility.yul\":12408:12431   */\n      sub\n        /* \"#utility.yul\":12404:12436   */\n      slt\n        /* \"#utility.yul\":12401:12520   */\n      iszero\n      tag_287\n      jumpi\n        /* \"#utility.yul\":12439:12518   */\n      tag_288\n      tag_114\n      jump\t// in\n    tag_288:\n        /* \"#utility.yul\":12401:12520   */\n    tag_287:\n        /* \"#utility.yul\":12559:12560   */\n      0x00\n        /* \"#utility.yul\":12584:12648   */\n      tag_289\n        /* \"#utility.yul\":12640:12647   */\n      dup5\n        /* \"#utility.yul\":12631:12637   */\n      dup3\n        /* \"#utility.yul\":12620:12629   */\n      dup6\n        /* \"#utility.yul\":12616:12638   */\n      add\n        /* \"#utility.yul\":12584:12648   */\n      tag_142\n      jump\t// in\n    tag_289:\n        /* \"#utility.yul\":12574:12648   */\n      swap2\n      pop\n        /* \"#utility.yul\":12530:12658   */\n      pop\n        /* \"#utility.yul\":12314:12665   */\n      swap3\n      swap2\n      pop\n      pop\n      jump\t// out\n        /* \"#utility.yul\":12671:12982   */\n    tag_143:\n        /* \"#utility.yul\":12748:12752   */\n      0x00\n        /* \"#utility.yul\":12838:12856   */\n      0xffffffffffffffff\n        /* \"#utility.yul\":12830:12836   */\n      dup3\n        /* \"#utility.yul\":12827:12857   */\n      gt\n        /* \"#utility.yul\":12824:12880   */\n      iszero\n      tag_291\n      jumpi\n        /* \"#utility.yul\":12860:12878   */\n      tag_292\n      tag_74\n      jump\t// in\n    tag_292:\n        /* \"#utility.yul\":12824:12880   */\n    tag_291:\n        /* \"#utility.yul\":12910:12914   */\n      0x20\n        /* \"#utility.yul\":12902:12908   */\n      dup3\n        /* \"#utility.yul\":12898:12915   */\n      mul\n        /* \"#utility.yul\":12890:12915   */\n      swap1\n      pop\n        /* \"#utility.yul\":12970:12974   */\n      0x20\n        /* \"#utility.yul\":12964:12968   */\n      dup2\n        /* \"#utility.yul\":12960:12975   */\n      add\n        /* \"#utility.yul\":12952:12975   */\n      swap1\n      pop\n        /* \"#utility.yul\":12671:12982   */\n      swap2\n      swap1\n      pop\n      jump\t// out\n        /* \"#utility.yul\":12988:13105   */\n    tag_144:\n        /* \"#utility.yul\":13097:13098   */\n      0x00\n        /* \"#utility.yul\":13094:13095   */\n      dup1\n        /* \"#utility.yul\":13087:13099   */\n      revert\n        /* \"#utility.yul\":13128:13860   */\n    tag_145:\n        /* \"#utility.yul\":13235:13240   */\n      0x00\n        /* \"#utility.yul\":13260:13341   */\n      tag_295\n        /* \"#utility.yul\":13276:13340   */\n      tag_296\n        /* \"#utility.yul\":13333:13339   */\n      dup5\n        /* \"#utility.yul\":13276:13340   */\n      tag_143\n      jump\t// in\n    tag_296:\n        /* \"#utility.yul\":13260:13341   */\n      tag_120\n      jump\t// in\n    tag_295:\n        /* \"#utility.yul\":13251:13341   */\n      swap1\n      pop\n        /* \"#utility.yul\":13361:13366   */\n      dup1\n        /* \"#utility.yul\":13390:13396   */\n      dup4\n        /* \"#utility.yul\":13383:13388   */\n      dup3\n        /* \"#utility.yul\":13376:13397   */\n      mstore\n        /* \"#utility.yul\":13424:13428   */\n      0x20\n        /* \"#utility.yul\":13417:13422   */\n      dup3\n        /* \"#utility.yul\":13413:13429   */\n      add\n        /* \"#utility.yul\":13406:13429   */\n      swap1\n      pop\n        /* \"#utility.yul\":13477:13481   */\n      0x20\n        /* \"#utility.yul\":13469:13475   */\n      dup5\n        /* \"#utility.yul\":13465:13482   */\n      mul\n        /* \"#utility.yul\":13457:13463   */\n      dup4\n        /* \"#utility.yul\":13453:13483   */\n      add\n        /* \"#utility.yul\":13506:13509   */\n      dup6\n        /* \"#utility.yul\":13498:13504   */\n      dup2\n        /* \"#utility.yul\":13495:13510   */\n      gt\n        /* \"#utility.yul\":13492:13614   */\n      iszero\n      tag_297\n      jumpi\n        /* \"#utility.yul\":13525:13604   */\n      tag_298\n      tag_144\n      jump\t// in\n    tag_298:\n        /* \"#utility.yul\":13492:13614   */\n    tag_297:\n        /* \"#utility.yul\":13640:13646   */\n      dup4\n        /* \"#utility.yul\":13623:13854   */\n    tag_299:\n        /* \"#utility.yul\":13657:13663   */\n      dup2\n        /* \"#utility.yul\":13652:13655   */\n      dup2\n        /* \"#utility.yul\":13649:13664   */\n      lt\n        /* \"#utility.yul\":13623:13854   */\n      iszero\n      tag_301\n      jumpi\n        /* \"#utility.yul\":13732:13735   */\n      dup1\n        /* \"#utility.yul\":13761:13809   */\n      tag_302\n        /* \"#utility.yul\":13805:13808   */\n      dup9\n        /* \"#utility.yul\":13793:13803   */\n      dup3\n        /* \"#utility.yul\":13761:13809   */\n      tag_142\n      jump\t// in\n    tag_302:\n        /* \"#utility.yul\":13756:13759   */\n      dup5\n        /* \"#utility.yul\":13749:13810   */\n      mstore\n        /* \"#utility.yul\":13839:13843   */\n      0x20\n        /* \"#utility.yul\":13834:13837   */\n      dup5\n        /* \"#utility.yul\":13830:13844   */\n      add\n        /* \"#utility.yul\":13823:13844   */\n      swap4\n      pop\n        /* \"#utility.yul\":13699:13854   */\n      pop\n        /* \"#utility.yul\":13683:13687   */\n      0x20\n        /* \"#utility.yul\":13678:13681   */\n      dup2\n        /* \"#utility.yul\":13674:13688   */\n      add\n        /* \"#utility.yul\":13667:13688   */\n      swap1\n      pop\n        /* \"#utility.yul\":13623:13854   */\n      jump(tag_299)\n    tag_301:\n        /* \"#utility.yul\":13627:13648   */\n      pop\n        /* \"#utility.yul\":13241:13860   */\n      pop\n      pop\n        /* \"#utility.yul\":13128:13860   */\n      swap4\n      swap3\n      pop\n      pop\n      pop\n      jump\t// out\n        /* \"#utility.yul\":13883:14268   */\n    tag_146:\n        /* \"#utility.yul\":13965:13970   */\n      0x00\n        /* \"#utility.yul\":14014:14017   */\n      dup3\n        /* \"#utility.yul\":14007:14011   */\n      0x1f\n        /* \"#utility.yul\":13999:14005   */\n      dup4\n        /* \"#utility.yul\":13995:14012   */\n      add\n        /* \"#utility.yul\":13991:14018   */\n      slt\n        /* \"#utility.yul\":13981:14103   */\n      tag_304\n      jumpi\n        /* \"#utility.yul\":14022:14101   */\n      tag_305\n      tag_116\n      jump\t// in\n    tag_305:\n        /* \"#utility.yul\":13981:14103   */\n    tag_304:\n        /* \"#utility.yul\":14132:14138   */\n      dup2\n        /* \"#utility.yul\":14126:14139   */\n      mload\n        /* \"#utility.yul\":14157:14262   */\n      tag_306\n        /* \"#utility.yul\":14258:14261   */\n      dup5\n        /* \"#utility.yul\":14250:14256   */\n      dup3\n        /* \"#utility.yul\":14243:14247   */\n      0x20\n        /* \"#utility.yul\":14235:14241   */\n      dup7\n        /* \"#utility.yul\":14231:14248   */\n      add\n        /* \"#utility.yul\":14157:14262   */\n      tag_145\n      jump\t// in\n    tag_306:\n        /* \"#utility.yul\":14148:14262   */\n      swap2\n      pop\n        /* \"#utility.yul\":13971:14268   */\n      pop\n        /* \"#utility.yul\":13883:14268   */\n      swap3\n      swap2\n      pop\n      pop\n      jump\t// out\n        /* \"#utility.yul\":14274:14828   */\n    tag_80:\n        /* \"#utility.yul\":14369:14375   */\n      0x00\n        /* \"#utility.yul\":14418:14420   */\n      0x20\n        /* \"#utility.yul\":14406:14415   */\n      dup3\n        /* \"#utility.yul\":14397:14404   */\n      dup5\n        /* \"#utility.yul\":14393:14416   */\n      sub\n        /* \"#utility.yul\":14389:14421   */\n      slt\n        /* \"#utility.yul\":14386:14505   */\n      iszero\n      tag_308\n      jumpi\n        /* \"#utility.yul\":14424:14503   */\n      tag_309\n      tag_114\n      jump\t// in\n    tag_309:\n        /* \"#utility.yul\":14386:14505   */\n    tag_308:\n        /* \"#utility.yul\":14565:14566   */\n      0x00\n        /* \"#utility.yul\":14554:14563   */\n      dup3\n        /* \"#utility.yul\":14550:14567   */\n      add\n        /* \"#utility.yul\":14544:14568   */\n      mload\n        /* \"#utility.yul\":14595:14613   */\n      0xffffffffffffffff\n        /* \"#utility.yul\":14587:14593   */\n      dup2\n        /* \"#utility.yul\":14584:14614   */\n      gt\n        /* \"#utility.yul\":14581:14698   */\n      iszero\n      tag_310\n      jumpi\n        /* \"#utility.yul\":14617:14696   */\n      tag_311\n      tag_115\n      jump\t// in\n    tag_311:\n        /* \"#utility.yul\":14581:14698   */\n    tag_310:\n        /* \"#utility.yul\":14722:14811   */\n      tag_312\n        /* \"#utility.yul\":14803:14810   */\n      dup5\n        /* \"#utility.yul\":14794:14800   */\n      dup3\n        /* \"#utility.yul\":14783:14792   */\n      dup6\n        /* \"#utility.yul\":14779:14801   */\n      add\n        /* \"#utility.yul\":14722:14811   */\n      tag_146\n      jump\t// in\n    tag_312:\n        /* \"#utility.yul\":14712:14811   */\n      swap2\n      pop\n        /* \"#utility.yul\":14515:14821   */\n      pop\n        /* \"#utility.yul\":14274:14828   */\n      swap3\n      swap2\n      pop\n      pop\n      jump\t// out\n        /* \"#utility.yul\":14834:15014   */\n    tag_86:\n        /* \"#utility.yul\":14882:14959   */\n      0x4e487b7100000000000000000000000000000000000000000000000000000000\n        /* \"#utility.yul\":14879:14880   */\n      0x00\n        /* \"#utility.yul\":14872:14960   */\n      mstore\n        /* \"#utility.yul\":14979:14983   */\n      0x32\n        /* \"#utility.yul\":14976:14977   */\n      0x04\n        /* \"#utility.yul\":14969:14984   */\n      mstore\n        /* \"#utility.yul\":15003:15007   */\n      0x24\n        /* \"#utility.yul\":15000:15001   */\n      0x00\n        /* \"#utility.yul\":14993:15008   */\n      revert\n        /* \"#utility.yul\":15020:15200   */\n    tag_147:\n        /* \"#utility.yul\":15068:15145   */\n      0x4e487b7100000000000000000000000000000000000000000000000000000000\n        /* \"#utility.yul\":15065:15066   */\n      0x00\n        /* \"#utility.yul\":15058:15146   */\n      mstore\n        /* \"#utility.yul\":15165:15169   */\n      0x11\n        /* \"#utility.yul\":15162:15163   */\n      0x04\n        /* \"#utility.yul\":15155:15170   */\n      mstore\n        /* \"#utility.yul\":15189:15193   */\n      0x24\n        /* \"#utility.yul\":15186:15187   */\n      0x00\n        /* \"#utility.yul\":15179:15194   */\n      revert\n        /* \"#utility.yul\":15206:15397   */\n    tag_88:\n        /* \"#utility.yul\":15246:15249   */\n      0x00\n        /* \"#utility.yul\":15265:15285   */\n      tag_316\n        /* \"#utility.yul\":15283:15284   */\n      dup3\n        /* \"#utility.yul\":15265:15285   */\n      tag_129\n      jump\t// in\n    tag_316:\n        /* \"#utility.yul\":15260:15285   */\n      swap2\n      pop\n        /* \"#utility.yul\":15299:15319   */\n      tag_317\n        /* \"#utility.yul\":15317:15318   */\n      dup4\n        /* \"#utility.yul\":15299:15319   */\n      tag_129\n      jump\t// in\n    tag_317:\n        /* \"#utility.yul\":15294:15319   */\n      swap3\n      pop\n        /* \"#utility.yul\":15342:15343   */\n      dup3\n        /* \"#utility.yul\":15339:15340   */\n      dup3\n        /* \"#utility.yul\":15335:15344   */\n      add\n        /* \"#utility.yul\":15328:15344   */\n      swap1\n      pop\n        /* \"#utility.yul\":15363:15366   */\n      dup1\n        /* \"#utility.yul\":15360:15361   */\n      dup3\n        /* \"#utility.yul\":15357:15367   */\n      gt\n        /* \"#utility.yul\":15354:15390   */\n      iszero\n      tag_318\n      jumpi\n        /* \"#utility.yul\":15370:15388   */\n      tag_319\n      tag_147\n      jump\t// in\n    tag_319:\n        /* \"#utility.yul\":15354:15390   */\n    tag_318:\n        /* \"#utility.yul\":15206:15397   */\n      swap3\n      swap2\n      pop\n      pop\n      jump\t// out\n        /* \"#utility.yul\":15403:15636   */\n    tag_90:\n        /* \"#utility.yul\":15442:15445   */\n      0x00\n        /* \"#utility.yul\":15465:15489   */\n      tag_321\n        /* \"#utility.yul\":15483:15488   */\n      dup3\n        /* \"#utility.yul\":15465:15489   */\n      tag_129\n      jump\t// in\n    tag_321:\n        /* \"#utility.yul\":15456:15489   */\n      swap2\n      pop\n        /* \"#utility.yul\":15511:15577   */\n      0xffffffffffffffffffffffffffffffffffffffffffffffffffffffffffffffff\n        /* \"#utility.yul\":15504:15509   */\n      dup3\n        /* \"#utility.yul\":15501:15578   */\n      sub\n        /* \"#utility.yul\":15498:15601   */\n      tag_322\n      jumpi\n        /* \"#utility.yul\":15581:15599   */\n      tag_323\n      tag_147\n      jump\t// in\n    tag_323:\n        /* \"#utility.yul\":15498:15601   */\n    tag_322:\n        /* \"#utility.yul\":15628:15629   */\n      0x01\n        /* \"#utility.yul\":15621:15626   */\n      dup3\n        /* \"#utility.yul\":15617:15630   */\n      add\n        /* \"#utility.yul\":15610:15630   */\n      swap1\n      pop\n        /* \"#utility.yul\":15403:15636   */\n      swap2\n      swap1\n      pop\n      jump\t// out\n        /* \"#utility.yul\":15642:15756   */\n    tag_148:\n        /* \"#utility.yul\":15709:15715   */\n      0x00\n        /* \"#utility.yul\":15743:15748   */\n      dup2\n        /* \"#utility.yul\":15737:15749   */\n      mload\n        /* \"#utility.yul\":15727:15749   */\n      swap1\n      pop\n        /* \"#utility.yul\":15642:15756   */\n      swap2\n      swap1\n      pop\n      jump\t// out\n        /* \"#utility.yul\":15762:15925   */\n    tag_149:\n        /* \"#utility.yul\":15879:15890   */\n      0x00\n        /* \"#utility.yul\":15916:15919   */\n      dup2\n        /* \"#utility.yul\":15901:15919   */\n      swap1\n      pop\n        /* \"#utility.yul\":15762:15925   */\n      swap3\n      swap2\n      pop\n      pop\n      jump\t// out\n        /* \"#utility.yul\":15931:16063   */\n    tag_150:\n        /* \"#utility.yul\":15998:16002   */\n      0x00\n        /* \"#utility.yul\":16021:16024   */\n      dup2\n        /* \"#utility.yul\":16013:16024   */\n      swap1\n      pop\n        /* \"#utility.yul\":16051:16055   */\n      0x20\n        /* \"#utility.yul\":16046:16049   */\n      dup3\n        /* \"#utility.yul\":16042:16056   */\n      add\n        /* \"#utility.yul\":16034:16056   */\n      swap1\n      pop\n        /* \"#utility.yul\":15931:16063   */\n      swap2\n      swap1\n      pop\n      jump\t// out\n        /* \"#utility.yul\":16069:16185   */\n    tag_151:\n        /* \"#utility.yul\":16154:16178   */\n      tag_328\n        /* \"#utility.yul\":16172:16177   */\n      dup2\n        /* \"#utility.yul\":16154:16178   */\n      tag_129\n      jump\t// in\n    tag_328:\n        /* \"#utility.yul\":16149:16152   */\n      dup3\n        /* \"#utility.yul\":16142:16179   */\n      mstore\n        /* \"#utility.yul\":16069:16185   */\n      pop\n      pop\n      jump\t// out\n        /* \"#utility.yul\":16191:16386   */\n    tag_152:\n        /* \"#utility.yul\":16268:16278   */\n      0x00\n        /* \"#utility.yul\":16289:16343   */\n      tag_330\n        /* \"#utility.yul\":16339:16342   */\n      dup4\n        /* \"#utility.yul\":16331:16337   */\n      dup4\n        /* \"#utility.yul\":16289:16343   */\n      tag_151\n      jump\t// in\n    tag_330:\n        /* \"#utility.yul\":16375:16379   */\n      0x20\n        /* \"#utility.yul\":16370:16373   */\n      dup4\n        /* \"#utility.yul\":16366:16380   */\n      add\n        /* \"#utility.yul\":16352:16380   */\n      swap1\n      pop\n        /* \"#utility.yul\":16191:16386   */\n      swap3\n      swap2\n      pop\n      pop\n      jump\t// out\n        /* \"#utility.yul\":16392:16505   */\n    tag_153:\n        /* \"#utility.yul\":16462:16466   */\n      0x00\n        /* \"#utility.yul\":16494:16498   */\n      0x20\n        /* \"#utility.yul\":16489:16492   */\n      dup3\n        /* \"#utility.yul\":16485:16499   */\n      add\n        /* \"#utility.yul\":16477:16499   */\n      swap1\n      pop\n        /* \"#utility.yul\":16392:16505   */\n      swap2\n      swap1\n      pop\n      jump\t// out\n        /* \"#utility.yul\":16541:17317   */\n    tag_154:\n        /* \"#utility.yul\":16678:16681   */\n      0x00\n        /* \"#utility.yul\":16707:16761   */\n      tag_333\n        /* \"#utility.yul\":16755:16760   */\n      dup3\n        /* \"#utility.yul\":16707:16761   */\n      tag_148\n      jump\t// in\n    tag_333:\n        /* \"#utility.yul\":16777:16881   */\n      tag_334\n        /* \"#utility.yul\":16874:16880   */\n      dup2\n        /* \"#utility.yul\":16869:16872   */\n      dup6\n        /* \"#utility.yul\":16777:16881   */\n      tag_149\n      jump\t// in\n    tag_334:\n        /* \"#utility.yul\":16770:16881   */\n      swap4\n      pop\n        /* \"#utility.yul\":16905:16961   */\n      tag_335\n        /* \"#utility.yul\":16955:16960   */\n      dup4\n        /* \"#utility.yul\":16905:16961   */\n      tag_150\n      jump\t// in\n    tag_335:\n        /* \"#utility.yul\":16984:16991   */\n      dup1\n        /* \"#utility.yul\":17015:17016   */\n      0x00\n        /* \"#utility.yul\":17000:17292   */\n    tag_336:\n        /* \"#utility.yul\":17025:17031   */\n      dup4\n        /* \"#utility.yul\":17022:17023   */\n      dup2\n        /* \"#utility.yul\":17019:17032   */\n      lt\n        /* \"#utility.yul\":17000:17292   */\n      iszero\n      tag_338\n      jumpi\n        /* \"#utility.yul\":17101:17107   */\n      dup2\n        /* \"#utility.yul\":17095:17108   */\n      mload\n        /* \"#utility.yul\":17128:17199   */\n      tag_339\n        /* \"#utility.yul\":17195:17198   */\n      dup9\n        /* \"#utility.yul\":17180:17193   */\n      dup3\n        /* \"#utility.yul\":17128:17199   */\n      tag_152\n      jump\t// in\n    tag_339:\n        /* \"#utility.yul\":17121:17199   */\n      swap8\n      pop\n        /* \"#utility.yul\":17222:17282   */\n      tag_340\n        /* \"#utility.yul\":17275:17281   */\n      dup4\n        /* \"#utility.yul\":17222:17282   */\n      tag_153\n      jump\t// in\n    tag_340:\n        /* \"#utility.yul\":17212:17282   */\n      swap3\n      pop\n        /* \"#utility.yul\":17060:17292   */\n      pop\n        /* \"#utility.yul\":17047:17048   */\n      0x01\n        /* \"#utility.yul\":17044:17045   */\n      dup2\n        /* \"#utility.yul\":17040:17049   */\n      add\n        /* \"#utility.yul\":17035:17049   */\n      swap1\n      pop\n        /* \"#utility.yul\":17000:17292   */\n      jump(tag_336)\n    tag_338:\n        /* \"#utility.yul\":17004:17018   */\n      pop\n        /* \"#utility.yul\":17308:17311   */\n      dup6\n        /* \"#utility.yul\":17301:17311   */\n      swap4\n      pop\n        /* \"#utility.yul\":16683:17317   */\n      pop\n      pop\n      pop\n        /* \"#utility.yul\":16541:17317   */\n      swap3\n      swap2\n      pop\n      pop\n      jump\t// out\n        /* \"#utility.yul\":17323:17658   */\n    tag_92:\n        /* \"#utility.yul\":17485:17488   */\n      0x00\n        /* \"#utility.yul\":17507:17632   */\n      tag_342\n        /* \"#utility.yul\":17628:17631   */\n      dup3\n        /* \"#utility.yul\":17619:17625   */\n      dup5\n        /* \"#utility.yul\":17507:17632   */\n      tag_154\n      jump\t// in\n    tag_342:\n        /* \"#utility.yul\":17500:17632   */\n      swap2\n      pop\n        /* \"#utility.yul\":17649:17652   */\n      dup2\n        /* \"#utility.yul\":17642:17652   */\n      swap1\n      pop\n        /* \"#utility.yul\":17323:17658   */\n      swap3\n      swap2\n      pop\n      pop\n      jump\t// out\n        /* \"#utility.yul\":17664:18202   */\n    tag_98:\n        /* \"#utility.yul\":17832:17835   */\n      0x00\n        /* \"#utility.yul\":17847:17922   */\n      tag_344\n        /* \"#utility.yul\":17918:17921   */\n      dup3\n        /* \"#utility.yul\":17909:17915   */\n      dup7\n        /* \"#utility.yul\":17847:17922   */\n      tag_140\n      jump\t// in\n    tag_344:\n        /* \"#utility.yul\":17947:17949   */\n      0x20\n        /* \"#utility.yul\":17942:17945   */\n      dup3\n        /* \"#utility.yul\":17938:17950   */\n      add\n        /* \"#utility.yul\":17931:17950   */\n      swap2\n      pop\n        /* \"#utility.yul\":17960:18035   */\n      tag_345\n        /* \"#utility.yul\":18031:18034   */\n      dup3\n        /* \"#utility.yul\":18022:18028   */\n      dup6\n        /* \"#utility.yul\":17960:18035   */\n      tag_140\n      jump\t// in\n    tag_345:\n        /* \"#utility.yul\":18060:18062   */\n      0x20\n        /* \"#utility.yul\":18055:18058   */\n      dup3\n        /* \"#utility.yul\":18051:18063   */\n      add\n        /* \"#utility.yul\":18044:18063   */\n      swap2\n      pop\n        /* \"#utility.yul\":18073:18148   */\n      tag_346\n        /* \"#utility.yul\":18144:18147   */\n      dup3\n        /* \"#utility.yul\":18135:18141   */\n      dup5\n        /* \"#utility.yul\":18073:18148   */\n      tag_140\n      jump\t// in\n    tag_346:\n        /* \"#utility.yul\":18173:18175   */\n      0x20\n        /* \"#utility.yul\":18168:18171   */\n      dup3\n        /* \"#utility.yul\":18164:18176   */\n      add\n        /* \"#utility.yul\":18157:18176   */\n      swap2\n      pop\n        /* \"#utility.yul\":18193:18196   */\n      dup2\n        /* \"#utility.yul\":18186:18196   */\n      swap1\n      pop\n        /* \"#utility.yul\":17664:18202   */\n      swap5\n      swap4\n      pop\n      pop\n      pop\n      pop\n      jump\t// out\n        /* \"#utility.yul\":18208:18871   */\n    tag_104:\n        /* \"#utility.yul\":18296:18302   */\n      0x00\n        /* \"#utility.yul\":18304:18310   */\n      dup1\n        /* \"#utility.yul\":18312:18318   */\n      0x00\n        /* \"#utility.yul\":18361:18363   */\n      0x60\n        /* \"#utility.yul\":18349:18358   */\n      dup5\n        /* \"#utility.yul\":18340:18347   */\n      dup7\n        /* \"#utility.yul\":18336:18359   */\n      sub\n        /* \"#utility.yul\":18332:18364   */\n      slt\n        /* \"#utility.yul\":18329:18448   */\n      iszero\n      tag_348\n      jumpi\n        /* \"#utility.yul\":18367:18446   */\n      tag_349\n      tag_114\n      jump\t// in\n    tag_349:\n        /* \"#utility.yul\":18329:18448   */\n    tag_348:\n        /* \"#utility.yul\":18487:18488   */\n      0x00\n        /* \"#utility.yul\":18512:18576   */\n      tag_350\n        /* \"#utility.yul\":18568:18575   */\n      dup7\n        /* \"#utility.yul\":18559:18565   */\n      dup3\n        /* \"#utility.yul\":18548:18557   */\n      dup8\n        /* \"#utility.yul\":18544:18566   */\n      add\n        /* \"#utility.yul\":18512:18576   */\n      tag_142\n      jump\t// in\n    tag_350:\n        /* \"#utility.yul\":18502:18576   */\n      swap4\n      pop\n        /* \"#utility.yul\":18458:18586   */\n      pop\n        /* \"#utility.yul\":18625:18627   */\n      0x20\n        /* \"#utility.yul\":18651:18715   */\n      tag_351\n        /* \"#utility.yul\":18707:18714   */\n      dup7\n        /* \"#utility.yul\":18698:18704   */\n      dup3\n        /* \"#utility.yul\":18687:18696   */\n      dup8\n        /* \"#utility.yul\":18683:18705   */\n      add\n        /* \"#utility.yul\":18651:18715   */\n      tag_142\n      jump\t// in\n    tag_351:\n        /* \"#utility.yul\":18641:18715   */\n      swap3\n      pop\n        /* \"#utility.yul\":18596:18725   */\n      pop\n        /* \"#utility.yul\":18764:18766   */\n      0x40\n        /* \"#utility.yul\":18790:18854   */\n      tag_352\n        /* \"#utility.yul\":18846:18853   */\n      dup7\n        /* \"#utility.yul\":18837:18843   */\n      dup3\n        /* \"#utility.yul\":18826:18835   */\n      dup8\n        /* \"#utility.yul\":18822:18844   */\n      add\n        /* \"#utility.yul\":18790:18854   */\n      tag_142\n      jump\t// in\n    tag_352:\n        /* \"#utility.yul\":18780:18854   */\n      swap2\n      pop\n        /* \"#utility.yul\":18735:18864   */\n      pop\n        /* \"#utility.yul\":18208:18871   */\n      swap3\n      pop\n      swap3\n      pop\n      swap3\n      jump\t// out\n        /* \"#utility.yul\":18877:19033   */\n    tag_155:\n        /* \"#utility.yul\":19017:19025   */\n      0x686f757273200000000000000000000000000000000000000000000000000000\n        /* \"#utility.yul\":19013:19014   */\n      0x00\n        /* \"#utility.yul\":19005:19011   */\n      dup3\n        /* \"#utility.yul\":19001:19015   */\n      add\n        /* \"#utility.yul\":18994:19026   */\n      mstore\n        /* \"#utility.yul\":18877:19033   */\n      pop\n      jump\t// out\n        /* \"#utility.yul\":19039:19439   */\n    tag_156:\n        /* \"#utility.yul\":19199:19202   */\n      0x00\n        /* \"#utility.yul\":19220:19304   */\n      tag_355\n        /* \"#utility.yul\":19302:19303   */\n      0x06\n        /* \"#utility.yul\":19297:19300   */\n      dup4\n        /* \"#utility.yul\":19220:19304   */\n      tag_135\n      jump\t// in\n    tag_355:\n        /* \"#utility.yul\":19213:19304   */\n      swap2\n      pop\n        /* \"#utility.yul\":19313:19406   */\n      tag_356\n        /* \"#utility.yul\":19402:19405   */\n      dup3\n        /* \"#utility.yul\":19313:19406   */\n      tag_155\n      jump\t// in\n    tag_356:\n        /* \"#utility.yul\":19431:19432   */\n      0x06\n        /* \"#utility.yul\":19426:19429   */\n      dup3\n        /* \"#utility.yul\":19422:19433   */\n      add\n        /* \"#utility.yul\":19415:19433   */\n      swap1\n      pop\n        /* \"#utility.yul\":19039:19439   */\n      swap2\n      swap1\n      pop\n      jump\t// out\n        /* \"#utility.yul\":19445:19603   */\n    tag_157:\n        /* \"#utility.yul\":19585:19595   */\n      0x6d696e7574657320000000000000000000000000000000000000000000000000\n        /* \"#utility.yul\":19581:19582   */\n      0x00\n        /* \"#utility.yul\":19573:19579   */\n      dup3\n        /* \"#utility.yul\":19569:19583   */\n      add\n        /* \"#utility.yul\":19562:19596   */\n      mstore\n        /* \"#utility.yul\":19445:19603   */\n      pop\n      jump\t// out\n        /* \"#utility.yul\":19609:20009   */\n    tag_158:\n        /* \"#utility.yul\":19769:19772   */\n      0x00\n        /* \"#utility.yul\":19790:19874   */\n      tag_359\n        /* \"#utility.yul\":19872:19873   */\n      0x08\n        /* \"#utility.yul\":19867:19870   */\n      dup4\n        /* \"#utility.yul\":19790:19874   */\n      tag_135\n      jump\t// in\n    tag_359:\n        /* \"#utility.yul\":19783:19874   */\n      swap2\n      pop\n        /* \"#utility.yul\":19883:19976   */\n      tag_360\n        /* \"#utility.yul\":19972:19975   */\n      dup3\n        /* \"#utility.yul\":19883:19976   */\n      tag_157\n      jump\t// in\n    tag_360:\n        /* \"#utility.yul\":20001:20002   */\n      0x08\n        /* \"#utility.yul\":19996:19999   */\n      dup3\n        /* \"#utility.yul\":19992:20003   */\n      add\n        /* \"#utility.yul\":19985:20003   */\n      swap1\n      pop\n        /* \"#utility.yul\":19609:20009   */\n      swap2\n      swap1\n      pop\n      jump\t// out\n        /* \"#utility.yul\":20015:20172   */\n    tag_159:\n        /* \"#utility.yul\":20155:20164   */\n      0x7365636f6e647300000000000000000000000000000000000000000000000000\n        /* \"#utility.yul\":20151:20152   */\n      0x00\n        /* \"#utility.yul\":20143:20149   */\n      dup3\n        /* \"#utility.yul\":20139:20153   */\n      add\n        /* \"#utility.yul\":20132:20165   */\n      mstore\n        /* \"#utility.yul\":20015:20172   */\n      pop\n      jump\t// out\n        /* \"#utility.yul\":20178:20578   */\n    tag_160:\n        /* \"#utility.yul\":20338:20341   */\n      0x00\n        /* \"#utility.yul\":20359:20443   */\n      tag_363\n        /* \"#utility.yul\":20441:20442   */\n      0x07\n        /* \"#utility.yul\":20436:20439   */\n      dup4\n        /* \"#utility.yul\":20359:20443   */\n      tag_135\n      jump\t// in\n    tag_363:\n        /* \"#utility.yul\":20352:20443   */\n      swap2\n      pop\n        /* \"#utility.yul\":20452:20545   */\n      tag_364\n        /* \"#utility.yul\":20541:20544   */\n      dup3\n        /* \"#utility.yul\":20452:20545   */\n      tag_159\n      jump\t// in\n    tag_364:\n        /* \"#utility.yul\":20570:20571   */\n      0x07\n        /* \"#utility.yul\":20565:20568   */\n      dup3\n        /* \"#utility.yul\":20561:20572   */\n      add\n        /* \"#utility.yul\":20554:20572   */\n      swap1\n      pop\n        /* \"#utility.yul\":20178:20578   */\n      swap2\n      swap1\n      pop\n      jump\t// out\n        /* \"#utility.yul\":20584:21977   */\n    tag_109:\n        /* \"#utility.yul\":21115:21118   */\n      0x00\n        /* \"#utility.yul\":21137:21232   */\n      tag_366\n        /* \"#utility.yul\":21228:21231   */\n      dup3\n        /* \"#utility.yul\":21219:21225   */\n      dup7\n        /* \"#utility.yul\":21137:21232   */\n      tag_136\n      jump\t// in\n    tag_366:\n        /* \"#utility.yul\":21130:21232   */\n      swap2\n      pop\n        /* \"#utility.yul\":21249:21397   */\n      tag_367\n        /* \"#utility.yul\":21393:21396   */\n      dup3\n        /* \"#utility.yul\":21249:21397   */\n      tag_156\n      jump\t// in\n    tag_367:\n        /* \"#utility.yul\":21242:21397   */\n      swap2\n      pop\n        /* \"#utility.yul\":21414:21509   */\n      tag_368\n        /* \"#utility.yul\":21505:21508   */\n      dup3\n        /* \"#utility.yul\":21496:21502   */\n      dup6\n        /* \"#utility.yul\":21414:21509   */\n      tag_136\n      jump\t// in\n    tag_368:\n        /* \"#utility.yul\":21407:21509   */\n      swap2\n      pop\n        /* \"#utility.yul\":21526:21674   */\n      tag_369\n        /* \"#utility.yul\":21670:21673   */\n      dup3\n        /* \"#utility.yul\":21526:21674   */\n      tag_158\n      jump\t// in\n    tag_369:\n        /* \"#utility.yul\":21519:21674   */\n      swap2\n      pop\n        /* \"#utility.yul\":21691:21786   */\n      tag_370\n        /* \"#utility.yul\":21782:21785   */\n      dup3\n        /* \"#utility.yul\":21773:21779   */\n      dup5\n        /* \"#utility.yul\":21691:21786   */\n      tag_136\n      jump\t// in\n    tag_370:\n        /* \"#utility.yul\":21684:21786   */\n      swap2\n      pop\n        /* \"#utility.yul\":21803:21951   */\n      tag_371\n        /* \"#utility.yul\":21947:21950   */\n      dup3\n        /* \"#utility.yul\":21803:21951   */\n      tag_160\n      jump\t// in\n    tag_371:\n        /* \"#utility.yul\":21796:21951   */\n      swap2\n      pop\n        /* \"#utility.yul\":21968:21971   */\n      dup2\n        /* \"#utility.yul\":21961:21971   */\n      swap1\n      pop\n        /* \"#utility.yul\":20584:21977   */\n      swap5\n      swap4\n      pop\n      pop\n      pop\n      pop\n      jump\t// out\n        /* \"#utility.yul\":21983:22559   */\n    tag_112:\n        /* \"#utility.yul\":22191:22194   */\n      0x00\n        /* \"#utility.yul\":22206:22281   */\n      tag_373\n        /* \"#utility.yul\":22277:22280   */\n      dup3\n        /* \"#utility.yul\":22268:22274   */\n      dup7\n        /* \"#utility.yul\":22206:22281   */\n      tag_140\n      jump\t// in\n    tag_373:\n        /* \"#utility.yul\":22306:22308   */\n      0x20\n        /* \"#utility.yul\":22301:22304   */\n      dup3\n        /* \"#utility.yul\":22297:22309   */\n      add\n        /* \"#utility.yul\":22290:22309   */\n      swap2\n      pop\n        /* \"#utility.yul\":22326:22421   */\n      tag_374\n        /* \"#utility.yul\":22417:22420   */\n      dup3\n        /* \"#utility.yul\":22408:22414   */\n      dup6\n        /* \"#utility.yul\":22326:22421   */\n      tag_136\n      jump\t// in\n    tag_374:\n        /* \"#utility.yul\":22319:22421   */\n      swap2\n      pop\n        /* \"#utility.yul\":22438:22533   */\n      tag_375\n        /* \"#utility.yul\":22529:22532   */\n      dup3\n        /* \"#utility.yul\":22520:22526   */\n      dup5\n        /* \"#utility.yul\":22438:22533   */\n      tag_136\n      jump\t// in\n    tag_375:\n        /* \"#utility.yul\":22431:22533   */\n      swap2\n      pop\n        /* \"#utility.yul\":22550:22553   */\n      dup2\n        /* \"#utility.yul\":22543:22553   */\n      swap1\n      pop\n        /* \"#utility.yul\":21983:22559   */\n      swap5\n      swap4\n      pop\n      pop\n      pop\n      pop\n      jump\t// out\n\n    auxdata: 0xa2646970667358221220a5c2ca40ac256101bf56e8f94f0bd24433bbfac1ba4aafb4904b9ca1cd97ca8a64736f6c63430008120033\n}\n\nsub_1: assembly {\n        /* \"contracts/0522/Quiz.sol\":1911:2369  contract Q5 {... */\n      mstore(0x40, 0x80)\n      callvalue\n      dup1\n      iszero\n      tag_1\n      jumpi\n      0x00\n      dup1\n      revert\n    tag_1:\n      pop\n      dataSize(sub_0)\n      dup1\n      dataOffset(sub_0)\n      0x00\n      codecopy\n      0x00\n      return\n    stop\n\n    sub_0: assembly {\n            /* \"contracts/0522/Quiz.sol\":1911:2369  contract Q5 {... */\n          mstore(0x40, 0x80)\n          callvalue\n          dup1\n          iszero\n          tag_1\n          jumpi\n          0x00\n          dup1\n          revert\n        tag_1:\n          pop\n          jumpi(tag_2, lt(calldatasize, 0x04))\n          shr(0xe0, calldataload(0x00))\n          dup1\n          0x0986e647\n          eq\n          tag_3\n          jumpi\n          dup1\n          0x2ac45d9c\n          eq\n          tag_4\n          jumpi\n        tag_2:\n          0x00\n          dup1\n          revert\n            /* \"contracts/0522/Quiz.sol\":2210:2366  function getLength(uint _n) public pure returns(uint) {... */\n        tag_3:\n          tag_5\n          0x04\n          dup1\n          calldatasize\n          sub\n          dup2\n          add\n          swap1\n          tag_6\n          swap2\n          swap1\n          tag_7\n          jump\t// in\n        tag_6:\n          tag_8\n          jump\t// in\n        tag_5:\n          mload(0x40)\n          tag_9\n          swap2\n          swap1\n          tag_10\n          jump\t// in\n        tag_9:\n          mload(0x40)\n          dup1\n          swap2\n          sub\n          swap1\n          return\n            /* \"contracts/0522/Quiz.sol\":1930:2202  function divideNumber(uint _n) public pure returns(uint[] memory) {... */\n        tag_4:\n          tag_11\n          0x04\n          dup1\n          calldatasize\n          sub\n          dup2\n          add\n          swap1\n          tag_12\n          swap2\n          swap1\n          tag_7\n          jump\t// in\n        tag_12:\n          tag_13\n          jump\t// in\n        tag_11:\n          mload(0x40)\n          tag_14\n          swap2\n          swap1\n          tag_15\n          jump\t// in\n        tag_14:\n          mload(0x40)\n          dup1\n          swap2\n          sub\n          swap1\n          return\n            /* \"contracts/0522/Quiz.sol\":2210:2366  function getLength(uint _n) public pure returns(uint) {... */\n        tag_8:\n            /* \"contracts/0522/Quiz.sol\":2258:2262  uint */\n          0x00\n            /* \"contracts/0522/Quiz.sol\":2275:2281  uint a */\n          dup1\n            /* \"contracts/0522/Quiz.sol\":2292:2340  while(_n > 10**a) {... */\n        tag_17:\n            /* \"contracts/0522/Quiz.sol\":2307:2308  a */\n          dup1\n            /* \"contracts/0522/Quiz.sol\":2303:2305  10 */\n          0x0a\n            /* \"contracts/0522/Quiz.sol\":2303:2308  10**a */\n          tag_19\n          swap2\n          swap1\n          tag_20\n          jump\t// in\n        tag_19:\n            /* \"contracts/0522/Quiz.sol\":2298:2300  _n */\n          dup4\n            /* \"contracts/0522/Quiz.sol\":2298:2308  _n > 10**a */\n          gt\n            /* \"contracts/0522/Quiz.sol\":2292:2340  while(_n > 10**a) {... */\n          iszero\n          tag_18\n          jumpi\n            /* \"contracts/0522/Quiz.sol\":2325:2328  a++ */\n          dup1\n          dup1\n          tag_21\n          swap1\n          tag_22\n          jump\t// in\n        tag_21:\n          swap2\n          pop\n          pop\n            /* \"contracts/0522/Quiz.sol\":2292:2340  while(_n > 10**a) {... */\n          jump(tag_17)\n        tag_18:\n            /* \"contracts/0522/Quiz.sol\":2357:2358  a */\n          dup1\n            /* \"contracts/0522/Quiz.sol\":2350:2358  return a */\n          swap2\n          pop\n          pop\n            /* \"contracts/0522/Quiz.sol\":2210:2366  function getLength(uint _n) public pure returns(uint) {... */\n          swap2\n          swap1\n          pop\n          jump\t// out\n            /* \"contracts/0522/Quiz.sol\":1930:2202  function divideNumber(uint _n) public pure returns(uint[] memory) {... */\n        tag_13:\n            /* \"contracts/0522/Quiz.sol\":1981:1994  uint[] memory */\n          0x60\n            /* \"contracts/0522/Quiz.sol\":2007:2022  uint[] memory b */\n          0x00\n            /* \"contracts/0522/Quiz.sol\":2036:2049  getLength(_n) */\n          tag_24\n            /* \"contracts/0522/Quiz.sol\":2046:2048  _n */\n          dup4\n            /* \"contracts/0522/Quiz.sol\":2036:2045  getLength */\n          tag_8\n            /* \"contracts/0522/Quiz.sol\":2036:2049  getLength(_n) */\n          jump\t// in\n        tag_24:\n            /* \"contracts/0522/Quiz.sol\":2025:2050  new uint[](getLength(_n)) */\n          0xffffffffffffffff\n          dup2\n          gt\n          iszero\n          tag_25\n          jumpi\n          tag_26\n          tag_27\n          jump\t// in\n        tag_26:\n        tag_25:\n          mload(0x40)\n          swap1\n          dup1\n          dup3\n          mstore\n          dup1\n          0x20\n          mul\n          0x20\n          add\n          dup3\n          add\n          0x40\n          mstore\n          dup1\n          iszero\n          tag_28\n          jumpi\n          dup2\n          0x20\n          add\n          0x20\n          dup3\n          mul\n          dup1\n          calldatasize\n          dup4\n          calldatacopy\n          dup1\n          dup3\n          add\n          swap2\n          pop\n          pop\n          swap1\n          pop\n        tag_28:\n          pop\n            /* \"contracts/0522/Quiz.sol\":2007:2050  uint[] memory b = new uint[](getLength(_n)) */\n          swap1\n          pop\n            /* \"contracts/0522/Quiz.sol\":2063:2069  uint i */\n          0x00\n            /* \"contracts/0522/Quiz.sol\":2070:2083  getLength(_n) */\n          tag_29\n            /* \"contracts/0522/Quiz.sol\":2080:2082  _n */\n          dup5\n            /* \"contracts/0522/Quiz.sol\":2070:2079  getLength */\n          tag_8\n            /* \"contracts/0522/Quiz.sol\":2070:2083  getLength(_n) */\n          jump\t// in\n        tag_29:\n            /* \"contracts/0522/Quiz.sol\":2063:2083  uint i=getLength(_n) */\n          swap1\n          pop\n            /* \"contracts/0522/Quiz.sol\":2094:2174  while(_n !=0) {... */\n        tag_30:\n            /* \"contracts/0522/Quiz.sol\":2105:2106  0 */\n          0x00\n            /* \"contracts/0522/Quiz.sol\":2100:2102  _n */\n          dup5\n            /* \"contracts/0522/Quiz.sol\":2100:2106  _n !=0 */\n          eq\n            /* \"contracts/0522/Quiz.sol\":2094:2174  while(_n !=0) {... */\n          tag_31\n          jumpi\n            /* \"contracts/0522/Quiz.sol\":2135:2137  10 */\n          0x0a\n            /* \"contracts/0522/Quiz.sol\":2132:2134  _n */\n          dup5\n            /* \"contracts/0522/Quiz.sol\":2132:2137  _n%10 */\n          tag_32\n          swap2\n          swap1\n          tag_33\n          jump\t// in\n        tag_32:\n            /* \"contracts/0522/Quiz.sol\":2123:2124  b */\n          dup3\n            /* \"contracts/0522/Quiz.sol\":2125:2128  --i */\n          dup3\n          tag_34\n          swap1\n          tag_35\n          jump\t// in\n        tag_34:\n          swap3\n          pop\n          dup3\n            /* \"contracts/0522/Quiz.sol\":2123:2129  b[--i] */\n          dup2\n          mload\n          dup2\n          lt\n          tag_36\n          jumpi\n          tag_37\n          tag_38\n          jump\t// in\n        tag_37:\n        tag_36:\n          0x20\n          mul\n          0x20\n          add\n          add\n            /* \"contracts/0522/Quiz.sol\":2123:2137  b[--i] = _n%10 */\n          dup2\n          dup2\n          mstore\n          pop\n          pop\n            /* \"contracts/0522/Quiz.sol\":2160:2162  10 */\n          0x0a\n            /* \"contracts/0522/Quiz.sol\":2157:2159  _n */\n          dup5\n            /* \"contracts/0522/Quiz.sol\":2157:2162  _n/10 */\n          tag_39\n          swap2\n          swap1\n          tag_40\n          jump\t// in\n        tag_39:\n            /* \"contracts/0522/Quiz.sol\":2152:2162  _n = _n/10 */\n          swap4\n          pop\n            /* \"contracts/0522/Quiz.sol\":2094:2174  while(_n !=0) {... */\n          jump(tag_30)\n        tag_31:\n            /* \"contracts/0522/Quiz.sol\":2192:2193  b */\n          dup2\n            /* \"contracts/0522/Quiz.sol\":2184:2194  return (b) */\n          swap3\n          pop\n          pop\n          pop\n            /* \"contracts/0522/Quiz.sol\":1930:2202  function divideNumber(uint _n) public pure returns(uint[] memory) {... */\n          swap2\n          swap1\n          pop\n          jump\t// out\n            /* \"#utility.yul\":88:205   */\n        tag_42:\n            /* \"#utility.yul\":197:198   */\n          0x00\n            /* \"#utility.yul\":194:195   */\n          dup1\n            /* \"#utility.yul\":187:199   */\n          revert\n            /* \"#utility.yul\":334:411   */\n        tag_44:\n            /* \"#utility.yul\":371:378   */\n          0x00\n            /* \"#utility.yul\":400:405   */\n          dup2\n            /* \"#utility.yul\":389:405   */\n          swap1\n          pop\n            /* \"#utility.yul\":334:411   */\n          swap2\n          swap1\n          pop\n          jump\t// out\n            /* \"#utility.yul\":417:539   */\n        tag_45:\n            /* \"#utility.yul\":490:514   */\n          tag_66\n            /* \"#utility.yul\":508:513   */\n          dup2\n            /* \"#utility.yul\":490:514   */\n          tag_44\n          jump\t// in\n        tag_66:\n            /* \"#utility.yul\":483:488   */\n          dup2\n            /* \"#utility.yul\":480:515   */\n          eq\n            /* \"#utility.yul\":470:533   */\n          tag_67\n          jumpi\n            /* \"#utility.yul\":529:530   */\n          0x00\n            /* \"#utility.yul\":526:527   */\n          dup1\n            /* \"#utility.yul\":519:531   */\n          revert\n            /* \"#utility.yul\":470:533   */\n        tag_67:\n            /* \"#utility.yul\":417:539   */\n          pop\n          jump\t// out\n            /* \"#utility.yul\":545:684   */\n        tag_46:\n            /* \"#utility.yul\":591:596   */\n          0x00\n            /* \"#utility.yul\":629:635   */\n          dup2\n            /* \"#utility.yul\":616:636   */\n          calldataload\n            /* \"#utility.yul\":607:636   */\n          swap1\n          pop\n            /* \"#utility.yul\":645:678   */\n          tag_69\n            /* \"#utility.yul\":672:677   */\n          dup2\n            /* \"#utility.yul\":645:678   */\n          tag_45\n          jump\t// in\n        tag_69:\n            /* \"#utility.yul\":545:684   */\n          swap3\n          swap2\n          pop\n          pop\n          jump\t// out\n            /* \"#utility.yul\":690:1019   */\n        tag_7:\n            /* \"#utility.yul\":749:755   */\n          0x00\n            /* \"#utility.yul\":798:800   */\n          0x20\n            /* \"#utility.yul\":786:795   */\n          dup3\n            /* \"#utility.yul\":777:784   */\n          dup5\n            /* \"#utility.yul\":773:796   */\n          sub\n            /* \"#utility.yul\":769:801   */\n          slt\n            /* \"#utility.yul\":766:885   */\n          iszero\n          tag_71\n          jumpi\n            /* \"#utility.yul\":804:883   */\n          tag_72\n          tag_42\n          jump\t// in\n        tag_72:\n            /* \"#utility.yul\":766:885   */\n        tag_71:\n            /* \"#utility.yul\":924:925   */\n          0x00\n            /* \"#utility.yul\":949:1002   */\n          tag_73\n            /* \"#utility.yul\":994:1001   */\n          dup5\n            /* \"#utility.yul\":985:991   */\n          dup3\n            /* \"#utility.yul\":974:983   */\n          dup6\n            /* \"#utility.yul\":970:992   */\n          add\n            /* \"#utility.yul\":949:1002   */\n          tag_46\n          jump\t// in\n        tag_73:\n            /* \"#utility.yul\":939:1002   */\n          swap2\n          pop\n            /* \"#utility.yul\":895:1012   */\n          pop\n            /* \"#utility.yul\":690:1019   */\n          swap3\n          swap2\n          pop\n          pop\n          jump\t// out\n            /* \"#utility.yul\":1025:1143   */\n        tag_47:\n            /* \"#utility.yul\":1112:1136   */\n          tag_75\n            /* \"#utility.yul\":1130:1135   */\n          dup2\n            /* \"#utility.yul\":1112:1136   */\n          tag_44\n          jump\t// in\n        tag_75:\n            /* \"#utility.yul\":1107:1110   */\n          dup3\n            /* \"#utility.yul\":1100:1137   */\n          mstore\n            /* \"#utility.yul\":1025:1143   */\n          pop\n          pop\n          jump\t// out\n            /* \"#utility.yul\":1149:1371   */\n        tag_10:\n            /* \"#utility.yul\":1242:1246   */\n          0x00\n            /* \"#utility.yul\":1280:1282   */\n          0x20\n            /* \"#utility.yul\":1269:1278   */\n          dup3\n            /* \"#utility.yul\":1265:1283   */\n          add\n            /* \"#utility.yul\":1257:1283   */\n          swap1\n          pop\n            /* \"#utility.yul\":1293:1364   */\n          tag_77\n            /* \"#utility.yul\":1361:1362   */\n          0x00\n            /* \"#utility.yul\":1350:1359   */\n          dup4\n            /* \"#utility.yul\":1346:1363   */\n          add\n            /* \"#utility.yul\":1337:1343   */\n          dup5\n            /* \"#utility.yul\":1293:1364   */\n          tag_47\n          jump\t// in\n        tag_77:\n            /* \"#utility.yul\":1149:1371   */\n          swap3\n          swap2\n          pop\n          pop\n          jump\t// out\n            /* \"#utility.yul\":1377:1491   */\n        tag_48:\n            /* \"#utility.yul\":1444:1450   */\n          0x00\n            /* \"#utility.yul\":1478:1483   */\n          dup2\n            /* \"#utility.yul\":1472:1484   */\n          mload\n            /* \"#utility.yul\":1462:1484   */\n          swap1\n          pop\n            /* \"#utility.yul\":1377:1491   */\n          swap2\n          swap1\n          pop\n          jump\t// out\n            /* \"#utility.yul\":1497:1681   */\n        tag_49:\n            /* \"#utility.yul\":1596:1607   */\n          0x00\n            /* \"#utility.yul\":1630:1636   */\n          dup3\n            /* \"#utility.yul\":1625:1628   */\n          dup3\n            /* \"#utility.yul\":1618:1637   */\n          mstore\n            /* \"#utility.yul\":1670:1674   */\n          0x20\n            /* \"#utility.yul\":1665:1668   */\n          dup3\n            /* \"#utility.yul\":1661:1675   */\n          add\n            /* \"#utility.yul\":1646:1675   */\n          swap1\n          pop\n            /* \"#utility.yul\":1497:1681   */\n          swap3\n          swap2\n          pop\n          pop\n          jump\t// out\n            /* \"#utility.yul\":1687:1819   */\n        tag_50:\n            /* \"#utility.yul\":1754:1758   */\n          0x00\n            /* \"#utility.yul\":1777:1780   */\n          dup2\n            /* \"#utility.yul\":1769:1780   */\n          swap1\n          pop\n            /* \"#utility.yul\":1807:1811   */\n          0x20\n            /* \"#utility.yul\":1802:1805   */\n          dup3\n            /* \"#utility.yul\":1798:1812   */\n          add\n            /* \"#utility.yul\":1790:1812   */\n          swap1\n          pop\n            /* \"#utility.yul\":1687:1819   */\n          swap2\n          swap1\n          pop\n          jump\t// out\n            /* \"#utility.yul\":1825:1933   */\n        tag_51:\n            /* \"#utility.yul\":1902:1926   */\n          tag_82\n            /* \"#utility.yul\":1920:1925   */\n          dup2\n            /* \"#utility.yul\":1902:1926   */\n          tag_44\n          jump\t// in\n        tag_82:\n            /* \"#utility.yul\":1897:1900   */\n          dup3\n            /* \"#utility.yul\":1890:1927   */\n          mstore\n            /* \"#utility.yul\":1825:1933   */\n          pop\n          pop\n          jump\t// out\n            /* \"#utility.yul\":1939:2118   */\n        tag_52:\n            /* \"#utility.yul\":2008:2018   */\n          0x00\n            /* \"#utility.yul\":2029:2075   */\n          tag_84\n            /* \"#utility.yul\":2071:2074   */\n          dup4\n            /* \"#utility.yul\":2063:2069   */\n          dup4\n            /* \"#utility.yul\":2029:2075   */\n          tag_51\n          jump\t// in\n        tag_84:\n            /* \"#utility.yul\":2107:2111   */\n          0x20\n            /* \"#utility.yul\":2102:2105   */\n          dup4\n            /* \"#utility.yul\":2098:2112   */\n          add\n            /* \"#utility.yul\":2084:2112   */\n          swap1\n          pop\n            /* \"#utility.yul\":1939:2118   */\n          swap3\n          swap2\n          pop\n          pop\n          jump\t// out\n            /* \"#utility.yul\":2124:2237   */\n        tag_53:\n            /* \"#utility.yul\":2194:2198   */\n          0x00\n            /* \"#utility.yul\":2226:2230   */\n          0x20\n            /* \"#utility.yul\":2221:2224   */\n          dup3\n            /* \"#utility.yul\":2217:2231   */\n          add\n            /* \"#utility.yul\":2209:2231   */\n          swap1\n          pop\n            /* \"#utility.yul\":2124:2237   */\n          swap2\n          swap1\n          pop\n          jump\t// out\n            /* \"#utility.yul\":2273:3005   */\n        tag_54:\n            /* \"#utility.yul\":2392:2395   */\n          0x00\n            /* \"#utility.yul\":2421:2475   */\n          tag_87\n            /* \"#utility.yul\":2469:2474   */\n          dup3\n            /* \"#utility.yul\":2421:2475   */\n          tag_48\n          jump\t// in\n        tag_87:\n            /* \"#utility.yul\":2491:2577   */\n          tag_88\n            /* \"#utility.yul\":2570:2576   */\n          dup2\n            /* \"#utility.yul\":2565:2568   */\n          dup6\n            /* \"#utility.yul\":2491:2577   */\n          tag_49\n          jump\t// in\n        tag_88:\n            /* \"#utility.yul\":2484:2577   */\n          swap4\n          pop\n            /* \"#utility.yul\":2601:2657   */\n          tag_89\n            /* \"#utility.yul\":2651:2656   */\n          dup4\n            /* \"#utility.yul\":2601:2657   */\n          tag_50\n          jump\t// in\n        tag_89:\n            /* \"#utility.yul\":2680:2687   */\n          dup1\n            /* \"#utility.yul\":2711:2712   */\n          0x00\n            /* \"#utility.yul\":2696:2980   */\n        tag_90:\n            /* \"#utility.yul\":2721:2727   */\n          dup4\n            /* \"#utility.yul\":2718:2719   */\n          dup2\n            /* \"#utility.yul\":2715:2728   */\n          lt\n            /* \"#utility.yul\":2696:2980   */\n          iszero\n          tag_92\n          jumpi\n            /* \"#utility.yul\":2797:2803   */\n          dup2\n            /* \"#utility.yul\":2791:2804   */\n          mload\n            /* \"#utility.yul\":2824:2887   */\n          tag_93\n            /* \"#utility.yul\":2883:2886   */\n          dup9\n            /* \"#utility.yul\":2868:2881   */\n          dup3\n            /* \"#utility.yul\":2824:2887   */\n          tag_52\n          jump\t// in\n        tag_93:\n            /* \"#utility.yul\":2817:2887   */\n          swap8\n          pop\n            /* \"#utility.yul\":2910:2970   */\n          tag_94\n            /* \"#utility.yul\":2963:2969   */\n          dup4\n            /* \"#utility.yul\":2910:2970   */\n          tag_53\n          jump\t// in\n        tag_94:\n            /* \"#utility.yul\":2900:2970   */\n          swap3\n          pop\n            /* \"#utility.yul\":2756:2980   */\n          pop\n            /* \"#utility.yul\":2743:2744   */\n          0x01\n            /* \"#utility.yul\":2740:2741   */\n          dup2\n            /* \"#utility.yul\":2736:2745   */\n          add\n            /* \"#utility.yul\":2731:2745   */\n          swap1\n          pop\n            /* \"#utility.yul\":2696:2980   */\n          jump(tag_90)\n        tag_92:\n            /* \"#utility.yul\":2700:2714   */\n          pop\n            /* \"#utility.yul\":2996:2999   */\n          dup6\n            /* \"#utility.yul\":2989:2999   */\n          swap4\n          pop\n            /* \"#utility.yul\":2397:3005   */\n          pop\n          pop\n          pop\n            /* \"#utility.yul\":2273:3005   */\n          swap3\n          swap2\n          pop\n          pop\n          jump\t// out\n            /* \"#utility.yul\":3011:3384   */\n        tag_15:\n            /* \"#utility.yul\":3154:3158   */\n          0x00\n            /* \"#utility.yul\":3192:3194   */\n          0x20\n            /* \"#utility.yul\":3181:3190   */\n          dup3\n            /* \"#utility.yul\":3177:3195   */\n          add\n            /* \"#utility.yul\":3169:3195   */\n          swap1\n          pop\n            /* \"#utility.yul\":3241:3250   */\n          dup2\n            /* \"#utility.yul\":3235:3239   */\n          dup2\n            /* \"#utility.yul\":3231:3251   */\n          sub\n            /* \"#utility.yul\":3227:3228   */\n          0x00\n            /* \"#utility.yul\":3216:3225   */\n          dup4\n            /* \"#utility.yul\":3212:3229   */\n          add\n            /* \"#utility.yul\":3205:3252   */\n          mstore\n            /* \"#utility.yul\":3269:3377   */\n          tag_96\n            /* \"#utility.yul\":3372:3376   */\n          dup2\n            /* \"#utility.yul\":3363:3369   */\n          dup5\n            /* \"#utility.yul\":3269:3377   */\n          tag_54\n          jump\t// in\n        tag_96:\n            /* \"#utility.yul\":3261:3377   */\n          swap1\n          pop\n            /* \"#utility.yul\":3011:3384   */\n          swap3\n          swap2\n          pop\n          pop\n          jump\t// out\n            /* \"#utility.yul\":3390:3570   */\n        tag_55:\n            /* \"#utility.yul\":3438:3515   */\n          0x4e487b7100000000000000000000000000000000000000000000000000000000\n            /* \"#utility.yul\":3435:3436   */\n          0x00\n            /* \"#utility.yul\":3428:3516   */\n          mstore\n            /* \"#utility.yul\":3535:3539   */\n          0x11\n            /* \"#utility.yul\":3532:3533   */\n          0x04\n            /* \"#utility.yul\":3525:3540   */\n          mstore\n            /* \"#utility.yul\":3559:3563   */\n          0x24\n            /* \"#utility.yul\":3556:3557   */\n          0x00\n            /* \"#utility.yul\":3549:3564   */\n          revert\n            /* \"#utility.yul\":3576:3678   */\n        tag_56:\n            /* \"#utility.yul\":3618:3626   */\n          0x00\n            /* \"#utility.yul\":3665:3670   */\n          dup2\n            /* \"#utility.yul\":3662:3663   */\n          0x01\n            /* \"#utility.yul\":3658:3671   */\n          shr\n            /* \"#utility.yul\":3637:3671   */\n          swap1\n          pop\n            /* \"#utility.yul\":3576:3678   */\n          swap2\n          swap1\n          pop\n          jump\t// out\n            /* \"#utility.yul\":3684:4532   */\n        tag_57:\n            /* \"#utility.yul\":3745:3750   */\n          0x00\n            /* \"#utility.yul\":3752:3756   */\n          dup1\n            /* \"#utility.yul\":3776:3782   */\n          dup3\n            /* \"#utility.yul\":3767:3782   */\n          swap2\n          pop\n            /* \"#utility.yul\":3800:3805   */\n          dup4\n            /* \"#utility.yul\":3791:3805   */\n          swap1\n          pop\n            /* \"#utility.yul\":3814:4526   */\n        tag_100:\n            /* \"#utility.yul\":3835:3836   */\n          0x01\n            /* \"#utility.yul\":3825:3833   */\n          dup6\n            /* \"#utility.yul\":3822:3837   */\n          gt\n            /* \"#utility.yul\":3814:4526   */\n          iszero\n          tag_102\n          jumpi\n            /* \"#utility.yul\":3930:3934   */\n          dup1\n            /* \"#utility.yul\":3925:3928   */\n          dup7\n            /* \"#utility.yul\":3921:3935   */\n          div\n            /* \"#utility.yul\":3915:3919   */\n          dup2\n            /* \"#utility.yul\":3912:3936   */\n          gt\n            /* \"#utility.yul\":3909:3959   */\n          iszero\n          tag_103\n          jumpi\n            /* \"#utility.yul\":3939:3957   */\n          tag_104\n          tag_55\n          jump\t// in\n        tag_104:\n            /* \"#utility.yul\":3909:3959   */\n        tag_103:\n            /* \"#utility.yul\":3989:3990   */\n          0x01\n            /* \"#utility.yul\":3979:3987   */\n          dup6\n            /* \"#utility.yul\":3975:3991   */\n          and\n            /* \"#utility.yul\":3972:4423   */\n          iszero\n          tag_105\n          jumpi\n            /* \"#utility.yul\":4404:4408   */\n          dup1\n            /* \"#utility.yul\":4397:4402   */\n          dup3\n            /* \"#utility.yul\":4393:4409   */\n          mul\n            /* \"#utility.yul\":4384:4409   */\n          swap2\n          pop\n            /* \"#utility.yul\":3972:4423   */\n        tag_105:\n            /* \"#utility.yul\":4454:4458   */\n          dup1\n            /* \"#utility.yul\":4448:4452   */\n          dup2\n            /* \"#utility.yul\":4444:4459   */\n          mul\n            /* \"#utility.yul\":4436:4459   */\n          swap1\n          pop\n            /* \"#utility.yul\":4484:4516   */\n          tag_106\n            /* \"#utility.yul\":4507:4515   */\n          dup6\n            /* \"#utility.yul\":4484:4516   */\n          tag_56\n          jump\t// in\n        tag_106:\n            /* \"#utility.yul\":4472:4516   */\n          swap5\n          pop\n            /* \"#utility.yul\":3814:4526   */\n          jump(tag_100)\n        tag_102:\n            /* \"#utility.yul\":3684:4532   */\n          swap5\n          pop\n          swap5\n          swap3\n          pop\n          pop\n          pop\n          jump\t// out\n            /* \"#utility.yul\":4538:5611   */\n        tag_58:\n            /* \"#utility.yul\":4592:4597   */\n          0x00\n            /* \"#utility.yul\":4783:4791   */\n          dup3\n            /* \"#utility.yul\":4773:4813   */\n          tag_108\n          jumpi\n            /* \"#utility.yul\":4804:4805   */\n          0x01\n            /* \"#utility.yul\":4795:4805   */\n          swap1\n          pop\n            /* \"#utility.yul\":4806:4811   */\n          jump(tag_107)\n            /* \"#utility.yul\":4773:4813   */\n        tag_108:\n            /* \"#utility.yul\":4832:4836   */\n          dup2\n            /* \"#utility.yul\":4822:4858   */\n          tag_109\n          jumpi\n            /* \"#utility.yul\":4849:4850   */\n          0x00\n            /* \"#utility.yul\":4840:4850   */\n          swap1\n          pop\n            /* \"#utility.yul\":4851:4856   */\n          jump(tag_107)\n            /* \"#utility.yul\":4822:4858   */\n        tag_109:\n            /* \"#utility.yul\":4918:4922   */\n          dup2\n            /* \"#utility.yul\":4966:4967   */\n          0x01\n            /* \"#utility.yul\":4961:4988   */\n          dup2\n          eq\n          tag_111\n          jumpi\n            /* \"#utility.yul\":5002:5003   */\n          0x02\n            /* \"#utility.yul\":4997:5188   */\n          dup2\n          eq\n          tag_112\n          jumpi\n            /* \"#utility.yul\":4911:5188   */\n          jump(tag_110)\n            /* \"#utility.yul\":4961:4988   */\n        tag_111:\n            /* \"#utility.yul\":4979:4980   */\n          0x01\n            /* \"#utility.yul\":4970:4980   */\n          swap2\n          pop\n            /* \"#utility.yul\":4981:4986   */\n          pop\n          jump(tag_107)\n            /* \"#utility.yul\":4997:5188   */\n        tag_112:\n            /* \"#utility.yul\":5042:5045   */\n          0xff\n            /* \"#utility.yul\":5032:5040   */\n          dup5\n            /* \"#utility.yul\":5029:5046   */\n          gt\n            /* \"#utility.yul\":5026:5069   */\n          iszero\n          tag_113\n          jumpi\n            /* \"#utility.yul\":5049:5067   */\n          tag_114\n          tag_55\n          jump\t// in\n        tag_114:\n            /* \"#utility.yul\":5026:5069   */\n        tag_113:\n            /* \"#utility.yul\":5098:5106   */\n          dup4\n            /* \"#utility.yul\":5095:5096   */\n          0x02\n            /* \"#utility.yul\":5091:5107   */\n          exp\n            /* \"#utility.yul\":5082:5107   */\n          swap2\n          pop\n            /* \"#utility.yul\":5133:5136   */\n          dup5\n            /* \"#utility.yul\":5126:5131   */\n          dup3\n            /* \"#utility.yul\":5123:5137   */\n          gt\n            /* \"#utility.yul\":5120:5160   */\n          iszero\n          tag_115\n          jumpi\n            /* \"#utility.yul\":5140:5158   */\n          tag_116\n          tag_55\n          jump\t// in\n        tag_116:\n            /* \"#utility.yul\":5120:5160   */\n        tag_115:\n            /* \"#utility.yul\":5173:5178   */\n          pop\n          jump(tag_107)\n            /* \"#utility.yul\":4911:5188   */\n        tag_110:\n          pop\n            /* \"#utility.yul\":5297:5299   */\n          0x20\n            /* \"#utility.yul\":5287:5295   */\n          dup4\n            /* \"#utility.yul\":5284:5300   */\n          lt\n            /* \"#utility.yul\":5278:5281   */\n          0x0133\n            /* \"#utility.yul\":5272:5276   */\n          dup4\n            /* \"#utility.yul\":5269:5282   */\n          lt\n            /* \"#utility.yul\":5265:5301   */\n          and\n            /* \"#utility.yul\":5247:5249   */\n          0x4e\n            /* \"#utility.yul\":5237:5245   */\n          dup5\n            /* \"#utility.yul\":5234:5250   */\n          lt\n            /* \"#utility.yul\":5229:5231   */\n          0x0b\n            /* \"#utility.yul\":5223:5227   */\n          dup5\n            /* \"#utility.yul\":5220:5232   */\n          lt\n            /* \"#utility.yul\":5216:5251   */\n          and\n            /* \"#utility.yul\":5200:5311   */\n          or\n            /* \"#utility.yul\":5197:5443   */\n          iszero\n          tag_117\n          jumpi\n            /* \"#utility.yul\":5353:5361   */\n          dup3\n            /* \"#utility.yul\":5347:5351   */\n          dup3\n            /* \"#utility.yul\":5343:5362   */\n          exp\n            /* \"#utility.yul\":5334:5362   */\n          swap1\n          pop\n            /* \"#utility.yul\":5388:5391   */\n          dup4\n            /* \"#utility.yul\":5381:5386   */\n          dup2\n            /* \"#utility.yul\":5378:5392   */\n          gt\n            /* \"#utility.yul\":5375:5415   */\n          iszero\n          tag_118\n          jumpi\n            /* \"#utility.yul\":5395:5413   */\n          tag_119\n          tag_55\n          jump\t// in\n        tag_119:\n            /* \"#utility.yul\":5375:5415   */\n        tag_118:\n            /* \"#utility.yul\":5428:5433   */\n          jump(tag_107)\n            /* \"#utility.yul\":5197:5443   */\n        tag_117:\n            /* \"#utility.yul\":5468:5510   */\n          tag_120\n            /* \"#utility.yul\":5506:5509   */\n          dup5\n            /* \"#utility.yul\":5496:5504   */\n          dup5\n            /* \"#utility.yul\":5490:5494   */\n          dup5\n            /* \"#utility.yul\":5487:5488   */\n          0x01\n            /* \"#utility.yul\":5468:5510   */\n          tag_57\n          jump\t// in\n        tag_120:\n            /* \"#utility.yul\":5453:5510   */\n          swap3\n          pop\n          swap1\n          pop\n            /* \"#utility.yul\":5542:5546   */\n          dup2\n            /* \"#utility.yul\":5537:5540   */\n          dup5\n            /* \"#utility.yul\":5533:5547   */\n          div\n            /* \"#utility.yul\":5526:5531   */\n          dup2\n            /* \"#utility.yul\":5523:5548   */\n          gt\n            /* \"#utility.yul\":5520:5571   */\n          iszero\n          tag_121\n          jumpi\n            /* \"#utility.yul\":5551:5569   */\n          tag_122\n          tag_55\n          jump\t// in\n        tag_122:\n            /* \"#utility.yul\":5520:5571   */\n        tag_121:\n            /* \"#utility.yul\":5600:5604   */\n          dup2\n            /* \"#utility.yul\":5593:5598   */\n          dup2\n            /* \"#utility.yul\":5589:5605   */\n          mul\n            /* \"#utility.yul\":5580:5605   */\n          swap1\n          pop\n            /* \"#utility.yul\":4538:5611   */\n        tag_107:\n          swap4\n          swap3\n          pop\n          pop\n          pop\n          jump\t// out\n            /* \"#utility.yul\":5617:5902   */\n        tag_20:\n            /* \"#utility.yul\":5677:5682   */\n          0x00\n            /* \"#utility.yul\":5701:5724   */\n          tag_124\n            /* \"#utility.yul\":5719:5723   */\n          dup3\n            /* \"#utility.yul\":5701:5724   */\n          tag_44\n          jump\t// in\n        tag_124:\n            /* \"#utility.yul\":5693:5724   */\n          swap2\n          pop\n            /* \"#utility.yul\":5745:5772   */\n          tag_125\n            /* \"#utility.yul\":5763:5771   */\n          dup4\n            /* \"#utility.yul\":5745:5772   */\n          tag_44\n          jump\t// in\n        tag_125:\n            /* \"#utility.yul\":5733:5772   */\n          swap3\n          pop\n            /* \"#utility.yul\":5791:5895   */\n          tag_126\n            /* \"#utility.yul\":5828:5894   */\n          0xffffffffffffffffffffffffffffffffffffffffffffffffffffffffffffffff\n            /* \"#utility.yul\":5818:5826   */\n          dup5\n            /* \"#utility.yul\":5812:5816   */\n          dup5\n            /* \"#utility.yul\":5791:5895   */\n          tag_58\n          jump\t// in\n        tag_126:\n            /* \"#utility.yul\":5782:5895   */\n          swap1\n          pop\n            /* \"#utility.yul\":5617:5902   */\n          swap3\n          swap2\n          pop\n          pop\n          jump\t// out\n            /* \"#utility.yul\":5908:6141   */\n        tag_22:\n            /* \"#utility.yul\":5947:5950   */\n          0x00\n            /* \"#utility.yul\":5970:5994   */\n          tag_128\n            /* \"#utility.yul\":5988:5993   */\n          dup3\n            /* \"#utility.yul\":5970:5994   */\n          tag_44\n          jump\t// in\n        tag_128:\n            /* \"#utility.yul\":5961:5994   */\n          swap2\n          pop\n            /* \"#utility.yul\":6016:6082   */\n          0xffffffffffffffffffffffffffffffffffffffffffffffffffffffffffffffff\n            /* \"#utility.yul\":6009:6014   */\n          dup3\n            /* \"#utility.yul\":6006:6083   */\n          sub\n            /* \"#utility.yul\":6003:6106   */\n          tag_129\n          jumpi\n            /* \"#utility.yul\":6086:6104   */\n          tag_130\n          tag_55\n          jump\t// in\n        tag_130:\n            /* \"#utility.yul\":6003:6106   */\n        tag_129:\n            /* \"#utility.yul\":6133:6134   */\n          0x01\n            /* \"#utility.yul\":6126:6131   */\n          dup3\n            /* \"#utility.yul\":6122:6135   */\n          add\n            /* \"#utility.yul\":6115:6135   */\n          swap1\n          pop\n            /* \"#utility.yul\":5908:6141   */\n          swap2\n          swap1\n          pop\n          jump\t// out\n            /* \"#utility.yul\":6147:6327   */\n        tag_27:\n            /* \"#utility.yul\":6195:6272   */\n          0x4e487b7100000000000000000000000000000000000000000000000000000000\n            /* \"#utility.yul\":6192:6193   */\n          0x00\n            /* \"#utility.yul\":6185:6273   */\n          mstore\n            /* \"#utility.yul\":6292:6296   */\n          0x41\n            /* \"#utility.yul\":6289:6290   */\n          0x04\n            /* \"#utility.yul\":6282:6297   */\n          mstore\n            /* \"#utility.yul\":6316:6320   */\n          0x24\n            /* \"#utility.yul\":6313:6314   */\n          0x00\n            /* \"#utility.yul\":6306:6321   */\n          revert\n            /* \"#utility.yul\":6333:6513   */\n        tag_59:\n            /* \"#utility.yul\":6381:6458   */\n          0x4e487b7100000000000000000000000000000000000000000000000000000000\n            /* \"#utility.yul\":6378:6379   */\n          0x00\n            /* \"#utility.yul\":6371:6459   */\n          mstore\n            /* \"#utility.yul\":6478:6482   */\n          0x12\n            /* \"#utility.yul\":6475:6476   */\n          0x04\n            /* \"#utility.yul\":6468:6483   */\n          mstore\n            /* \"#utility.yul\":6502:6506   */\n          0x24\n            /* \"#utility.yul\":6499:6500   */\n          0x00\n            /* \"#utility.yul\":6492:6507   */\n          revert\n            /* \"#utility.yul\":6519:6695   */\n        tag_33:\n            /* \"#utility.yul\":6551:6552   */\n          0x00\n            /* \"#utility.yul\":6568:6588   */\n          tag_134\n            /* \"#utility.yul\":6586:6587   */\n          dup3\n            /* \"#utility.yul\":6568:6588   */\n          tag_44\n          jump\t// in\n        tag_134:\n            /* \"#utility.yul\":6563:6588   */\n          swap2\n          pop\n            /* \"#utility.yul\":6602:6622   */\n          tag_135\n            /* \"#utility.yul\":6620:6621   */\n          dup4\n            /* \"#utility.yul\":6602:6622   */\n          tag_44\n          jump\t// in\n        tag_135:\n            /* \"#utility.yul\":6597:6622   */\n          swap3\n          pop\n            /* \"#utility.yul\":6641:6642   */\n          dup3\n            /* \"#utility.yul\":6631:6666   */\n          tag_136\n          jumpi\n            /* \"#utility.yul\":6646:6664   */\n          tag_137\n          tag_59\n          jump\t// in\n        tag_137:\n            /* \"#utility.yul\":6631:6666   */\n        tag_136:\n            /* \"#utility.yul\":6687:6688   */\n          dup3\n            /* \"#utility.yul\":6684:6685   */\n          dup3\n            /* \"#utility.yul\":6680:6689   */\n          mod\n            /* \"#utility.yul\":6675:6689   */\n          swap1\n          pop\n            /* \"#utility.yul\":6519:6695   */\n          swap3\n          swap2\n          pop\n          pop\n          jump\t// out\n            /* \"#utility.yul\":6701:6872   */\n        tag_35:\n            /* \"#utility.yul\":6740:6743   */\n          0x00\n            /* \"#utility.yul\":6763:6787   */\n          tag_139\n            /* \"#utility.yul\":6781:6786   */\n          dup3\n            /* \"#utility.yul\":6763:6787   */\n          tag_44\n          jump\t// in\n        tag_139:\n            /* \"#utility.yul\":6754:6787   */\n          swap2\n          pop\n            /* \"#utility.yul\":6809:6813   */\n          0x00\n            /* \"#utility.yul\":6802:6807   */\n          dup3\n            /* \"#utility.yul\":6799:6814   */\n          sub\n            /* \"#utility.yul\":6796:6837   */\n          tag_140\n          jumpi\n            /* \"#utility.yul\":6817:6835   */\n          tag_141\n          tag_55\n          jump\t// in\n        tag_141:\n            /* \"#utility.yul\":6796:6837   */\n        tag_140:\n            /* \"#utility.yul\":6864:6865   */\n          0x01\n            /* \"#utility.yul\":6857:6862   */\n          dup3\n            /* \"#utility.yul\":6853:6866   */\n          sub\n            /* \"#utility.yul\":6846:6866   */\n          swap1\n          pop\n            /* \"#utility.yul\":6701:6872   */\n          swap2\n          swap1\n          pop\n          jump\t// out\n            /* \"#utility.yul\":6878:7058   */\n        tag_38:\n            /* \"#utility.yul\":6926:7003   */\n          0x4e487b7100000000000000000000000000000000000000000000000000000000\n            /* \"#utility.yul\":6923:6924   */\n          0x00\n            /* \"#utility.yul\":6916:7004   */\n          mstore\n            /* \"#utility.yul\":7023:7027   */\n          0x32\n            /* \"#utility.yul\":7020:7021   */\n          0x04\n            /* \"#utility.yul\":7013:7028   */\n          mstore\n            /* \"#utility.yul\":7047:7051   */\n          0x24\n            /* \"#utility.yul\":7044:7045   */\n          0x00\n            /* \"#utility.yul\":7037:7052   */\n          revert\n            /* \"#utility.yul\":7064:7249   */\n        tag_40:\n            /* \"#utility.yul\":7104:7105   */\n          0x00\n            /* \"#utility.yul\":7121:7141   */\n          tag_144\n            /* \"#utility.yul\":7139:7140   */\n          dup3\n            /* \"#utility.yul\":7121:7141   */\n          tag_44\n          jump\t// in\n        tag_144:\n            /* \"#utility.yul\":7116:7141   */\n          swap2\n          pop\n            /* \"#utility.yul\":7155:7175   */\n          tag_145\n            /* \"#utility.yul\":7173:7174   */\n          dup4\n            /* \"#utility.yul\":7155:7175   */\n          tag_44\n          jump\t// in\n        tag_145:\n            /* \"#utility.yul\":7150:7175   */\n          swap3\n          pop\n            /* \"#utility.yul\":7194:7195   */\n          dup3\n            /* \"#utility.yul\":7184:7219   */\n          tag_146\n          jumpi\n            /* \"#utility.yul\":7199:7217   */\n          tag_147\n          tag_59\n          jump\t// in\n        tag_147:\n            /* \"#utility.yul\":7184:7219   */\n        tag_146:\n            /* \"#utility.yul\":7241:7242   */\n          dup3\n            /* \"#utility.yul\":7238:7239   */\n          dup3\n            /* \"#utility.yul\":7234:7243   */\n          div\n            /* \"#utility.yul\":7229:7243   */\n          swap1\n          pop\n            /* \"#utility.yul\":7064:7249   */\n          swap3\n          swap2\n          pop\n          pop\n          jump\t// out\n\n        auxdata: 0xa264697066735822122009872956181911fe67841159e1c5414afd9536c31e29d18d943dcb260f6689d464736f6c63430008120033\n    }\n}\n\nsub_2: assembly {\n        /* \"contracts/0522/Quiz.sol\":76:313  contract Quiz{... */\n      mstore(0x40, 0x80)\n      callvalue\n      dup1\n      iszero\n      tag_1\n      jumpi\n      0x00\n      dup1\n      revert\n    tag_1:\n      pop\n      dataSize(sub_0)\n      dup1\n      dataOffset(sub_0)\n      0x00\n      codecopy\n      0x00\n      return\n    stop\n\n    sub_0: assembly {\n            /* \"contracts/0522/Quiz.sol\":76:313  contract Quiz{... */\n          mstore(0x40, 0x80)\n          callvalue\n          dup1\n          iszero\n          tag_1\n          jumpi\n          0x00\n          dup1\n          revert\n        tag_1:\n          pop\n          jumpi(tag_2, lt(calldatasize, 0x04))\n          shr(0xe0, calldataload(0x00))\n          dup1\n          0xdb7bcd08\n          eq\n          tag_3\n          jumpi\n        tag_2:\n          0x00\n          dup1\n          revert\n            /* \"contracts/0522/Quiz.sol\":98:310  function Time(uint a) public pure returns(uint, uint, uint){... */\n        tag_3:\n          tag_4\n          0x04\n          dup1\n          calldatasize\n          sub\n          dup2\n          add\n          swap1\n          tag_5\n          swap2\n          swap1\n          tag_6\n          jump\t// in\n        tag_5:\n          tag_7\n          jump\t// in\n        tag_4:\n          mload(0x40)\n          tag_8\n          swap4\n          swap3\n          swap2\n          swap1\n          tag_9\n          jump\t// in\n        tag_8:\n          mload(0x40)\n          dup1\n          swap2\n          sub\n          swap1\n          return\n        tag_7:\n            /* \"contracts/0522/Quiz.sol\":140:144  uint */\n          0x00\n            /* \"contracts/0522/Quiz.sol\":146:150  uint */\n          dup1\n            /* \"contracts/0522/Quiz.sol\":152:156  uint */\n          0x00\n            /* \"contracts/0522/Quiz.sol\":166:175  uint hour */\n          dup1\n            /* \"contracts/0522/Quiz.sol\":182:190  uint min */\n          0x00\n            /* \"contracts/0522/Quiz.sol\":197:205  uint sec */\n          dup1\n            /* \"contracts/0522/Quiz.sol\":225:229  3600 */\n          0x0e10\n            /* \"contracts/0522/Quiz.sol\":221:222  a */\n          dup8\n            /* \"contracts/0522/Quiz.sol\":221:229  a / 3600 */\n          tag_11\n          swap2\n          swap1\n          tag_12\n          jump\t// in\n        tag_11:\n            /* \"contracts/0522/Quiz.sol\":214:229  hour = a / 3600 */\n          swap3\n          pop\n            /* \"contracts/0522/Quiz.sol\":248:250  60 */\n          0x3c\n            /* \"contracts/0522/Quiz.sol\":245:247  60 */\n          dup1\n            /* \"contracts/0522/Quiz.sol\":243:244  a */\n          dup9\n            /* \"contracts/0522/Quiz.sol\":243:247  a/60 */\n          tag_13\n          swap2\n          swap1\n          tag_12\n          jump\t// in\n        tag_13:\n            /* \"contracts/0522/Quiz.sol\":243:250  a/60%60 */\n          tag_14\n          swap2\n          swap1\n          tag_15\n          jump\t// in\n        tag_14:\n            /* \"contracts/0522/Quiz.sol\":237:250  min = a/60%60 */\n          swap2\n          pop\n            /* \"contracts/0522/Quiz.sol\":268:270  60 */\n          0x3c\n            /* \"contracts/0522/Quiz.sol\":266:267  a */\n          dup8\n            /* \"contracts/0522/Quiz.sol\":266:270  a%60 */\n          tag_16\n          swap2\n          swap1\n          tag_15\n          jump\t// in\n        tag_16:\n            /* \"contracts/0522/Quiz.sol\":261:270  sec =a%60 */\n          swap1\n          pop\n            /* \"contracts/0522/Quiz.sol\":289:293  hour */\n          dup3\n            /* \"contracts/0522/Quiz.sol\":294:297  min */\n          dup3\n            /* \"contracts/0522/Quiz.sol\":298:301  sec */\n          dup3\n            /* \"contracts/0522/Quiz.sol\":281:302  return (hour,min,sec) */\n          swap6\n          pop\n          swap6\n          pop\n          swap6\n          pop\n          pop\n          pop\n          pop\n            /* \"contracts/0522/Quiz.sol\":98:310  function Time(uint a) public pure returns(uint, uint, uint){... */\n          swap2\n          swap4\n          swap1\n          swap3\n          pop\n          jump\t// out\n            /* \"#utility.yul\":88:205   */\n        tag_18:\n            /* \"#utility.yul\":197:198   */\n          0x00\n            /* \"#utility.yul\":194:195   */\n          dup1\n            /* \"#utility.yul\":187:199   */\n          revert\n            /* \"#utility.yul\":334:411   */\n        tag_20:\n            /* \"#utility.yul\":371:378   */\n          0x00\n            /* \"#utility.yul\":400:405   */\n          dup2\n            /* \"#utility.yul\":389:405   */\n          swap1\n          pop\n            /* \"#utility.yul\":334:411   */\n          swap2\n          swap1\n          pop\n          jump\t// out\n            /* \"#utility.yul\":417:539   */\n        tag_21:\n            /* \"#utility.yul\":490:514   */\n          tag_32\n            /* \"#utility.yul\":508:513   */\n          dup2\n            /* \"#utility.yul\":490:514   */\n          tag_20\n          jump\t// in\n        tag_32:\n            /* \"#utility.yul\":483:488   */\n          dup2\n            /* \"#utility.yul\":480:515   */\n          eq\n            /* \"#utility.yul\":470:533   */\n          tag_33\n          jumpi\n            /* \"#utility.yul\":529:530   */\n          0x00\n            /* \"#utility.yul\":526:527   */\n          dup1\n            /* \"#utility.yul\":519:531   */\n          revert\n            /* \"#utility.yul\":470:533   */\n        tag_33:\n            /* \"#utility.yul\":417:539   */\n          pop\n          jump\t// out\n            /* \"#utility.yul\":545:684   */\n        tag_22:\n            /* \"#utility.yul\":591:596   */\n          0x00\n            /* \"#utility.yul\":629:635   */\n          dup2\n            /* \"#utility.yul\":616:636   */\n          calldataload\n            /* \"#utility.yul\":607:636   */\n          swap1\n          pop\n            /* \"#utility.yul\":645:678   */\n          tag_35\n            /* \"#utility.yul\":672:677   */\n          dup2\n            /* \"#utility.yul\":645:678   */\n          tag_21\n          jump\t// in\n        tag_35:\n            /* \"#utility.yul\":545:684   */\n          swap3\n          swap2\n          pop\n          pop\n          jump\t// out\n            /* \"#utility.yul\":690:1019   */\n        tag_6:\n            /* \"#utility.yul\":749:755   */\n          0x00\n            /* \"#utility.yul\":798:800   */\n          0x20\n            /* \"#utility.yul\":786:795   */\n          dup3\n            /* \"#utility.yul\":777:784   */\n          dup5\n            /* \"#utility.yul\":773:796   */\n          sub\n            /* \"#utility.yul\":769:801   */\n          slt\n            /* \"#utility.yul\":766:885   */\n          iszero\n          tag_37\n          jumpi\n            /* \"#utility.yul\":804:883   */\n          tag_38\n          tag_18\n          jump\t// in\n        tag_38:\n            /* \"#utility.yul\":766:885   */\n        tag_37:\n            /* \"#utility.yul\":924:925   */\n          0x00\n            /* \"#utility.yul\":949:1002   */\n          tag_39\n            /* \"#utility.yul\":994:1001   */\n          dup5\n            /* \"#utility.yul\":985:991   */\n          dup3\n            /* \"#utility.yul\":974:983   */\n          dup6\n            /* \"#utility.yul\":970:992   */\n          add\n            /* \"#utility.yul\":949:1002   */\n          tag_22\n          jump\t// in\n        tag_39:\n            /* \"#utility.yul\":939:1002   */\n          swap2\n          pop\n            /* \"#utility.yul\":895:1012   */\n          pop\n            /* \"#utility.yul\":690:1019   */\n          swap3\n          swap2\n          pop\n          pop\n          jump\t// out\n            /* \"#utility.yul\":1025:1143   */\n        tag_23:\n            /* \"#utility.yul\":1112:1136   */\n          tag_41\n            /* \"#utility.yul\":1130:1135   */\n          dup2\n            /* \"#utility.yul\":1112:1136   */\n          tag_20\n          jump\t// in\n        tag_41:\n            /* \"#utility.yul\":1107:1110   */\n          dup3\n            /* \"#utility.yul\":1100:1137   */\n          mstore\n            /* \"#utility.yul\":1025:1143   */\n          pop\n          pop\n          jump\t// out\n            /* \"#utility.yul\":1149:1591   */\n        tag_9:\n            /* \"#utility.yul\":1298:1302   */\n          0x00\n            /* \"#utility.yul\":1336:1338   */\n          0x60\n            /* \"#utility.yul\":1325:1334   */\n          dup3\n            /* \"#utility.yul\":1321:1339   */\n          add\n            /* \"#utility.yul\":1313:1339   */\n          swap1\n          pop\n            /* \"#utility.yul\":1349:1420   */\n          tag_43\n            /* \"#utility.yul\":1417:1418   */\n          0x00\n            /* \"#utility.yul\":1406:1415   */\n          dup4\n            /* \"#utility.yul\":1402:1419   */\n          add\n            /* \"#utility.yul\":1393:1399   */\n          dup7\n            /* \"#utility.yul\":1349:1420   */\n          tag_23\n          jump\t// in\n        tag_43:\n            /* \"#utility.yul\":1430:1502   */\n          tag_44\n            /* \"#utility.yul\":1498:1500   */\n          0x20\n            /* \"#utility.yul\":1487:1496   */\n          dup4\n            /* \"#utility.yul\":1483:1501   */\n          add\n            /* \"#utility.yul\":1474:1480   */\n          dup6\n            /* \"#utility.yul\":1430:1502   */\n          tag_23\n          jump\t// in\n        tag_44:\n            /* \"#utility.yul\":1512:1584   */\n          tag_45\n            /* \"#utility.yul\":1580:1582   */\n          0x40\n            /* \"#utility.yul\":1569:1578   */\n          dup4\n            /* \"#utility.yul\":1565:1583   */\n          add\n            /* \"#utility.yul\":1556:1562   */\n          dup5\n            /* \"#utility.yul\":1512:1584   */\n          tag_23\n          jump\t// in\n        tag_45:\n            /* \"#utility.yul\":1149:1591   */\n          swap5\n          swap4\n          pop\n          pop\n          pop\n          pop\n          jump\t// out\n            /* \"#utility.yul\":1597:1777   */\n        tag_24:\n            /* \"#utility.yul\":1645:1722   */\n          0x4e487b7100000000000000000000000000000000000000000000000000000000\n            /* \"#utility.yul\":1642:1643   */\n          0x00\n            /* \"#utility.yul\":1635:1723   */\n          mstore\n            /* \"#utility.yul\":1742:1746   */\n          0x12\n            /* \"#utility.yul\":1739:1740   */\n          0x04\n            /* \"#utility.yul\":1732:1747   */\n          mstore\n            /* \"#utility.yul\":1766:1770   */\n          0x24\n            /* \"#utility.yul\":1763:1764   */\n          0x00\n            /* \"#utility.yul\":1756:1771   */\n          revert\n            /* \"#utility.yul\":1969:2154   */\n        tag_12:\n            /* \"#utility.yul\":2009:2010   */\n          0x00\n            /* \"#utility.yul\":2026:2046   */\n          tag_49\n            /* \"#utility.yul\":2044:2045   */\n          dup3\n            /* \"#utility.yul\":2026:2046   */\n          tag_20\n          jump\t// in\n        tag_49:\n            /* \"#utility.yul\":2021:2046   */\n          swap2\n          pop\n            /* \"#utility.yul\":2060:2080   */\n          tag_50\n            /* \"#utility.yul\":2078:2079   */\n          dup4\n            /* \"#utility.yul\":2060:2080   */\n          tag_20\n          jump\t// in\n        tag_50:\n            /* \"#utility.yul\":2055:2080   */\n          swap3\n          pop\n            /* \"#utility.yul\":2099:2100   */\n          dup3\n            /* \"#utility.yul\":2089:2124   */\n          tag_51\n          jumpi\n            /* \"#utility.yul\":2104:2122   */\n          tag_52\n          tag_24\n          jump\t// in\n        tag_52:\n            /* \"#utility.yul\":2089:2124   */\n        tag_51:\n            /* \"#utility.yul\":2146:2147   */\n          dup3\n            /* \"#utility.yul\":2143:2144   */\n          dup3\n            /* \"#utility.yul\":2139:2148   */\n          div\n            /* \"#utility.yul\":2134:2148   */\n          swap1\n          pop\n            /* \"#utility.yul\":1969:2154   */\n          swap3\n          swap2\n          pop\n          pop\n          jump\t// out\n            /* \"#utility.yul\":2160:2336   */\n        tag_15:\n            /* \"#utility.yul\":2192:2193   */\n          0x00\n            /* \"#utility.yul\":2209:2229   */\n          tag_54\n            /* \"#utility.yul\":2227:2228   */\n          dup3\n            /* \"#utility.yul\":2209:2229   */\n          tag_20\n          jump\t// in\n        tag_54:\n            /* \"#utility.yul\":2204:2229   */\n          swap2\n          pop\n            /* \"#utility.yul\":2243:2263   */\n          tag_55\n            /* \"#utility.yul\":2261:2262   */\n          dup4\n            /* \"#utility.yul\":2243:2263   */\n          tag_20\n          jump\t// in\n        tag_55:\n            /* \"#utility.yul\":2238:2263   */\n          swap3\n          pop\n            /* \"#utility.yul\":2282:2283   */\n          dup3\n            /* \"#utility.yul\":2272:2307   */\n          tag_56\n          jumpi\n            /* \"#utility.yul\":2287:2305   */\n          tag_57\n          tag_24\n          jump\t// in\n        tag_57:\n            /* \"#utility.yul\":2272:2307   */\n        tag_56:\n            /* \"#utility.yul\":2328:2329   */\n          dup3\n            /* \"#utility.yul\":2325:2326   */\n          dup3\n            /* \"#utility.yul\":2321:2330   */\n          mod\n            /* \"#utility.yul\":2316:2330   */\n          swap1\n          pop\n            /* \"#utility.yul\":2160:2336   */\n          swap3\n          swap2\n          pop\n          pop\n          jump\t// out\n\n        auxdata: 0xa2646970667358221220929b9d189c288bb5eae7ed7fda063005f5644c4a3907d3ea9b265468bcd108ce64736f6c63430008120033\n    }\n}\n",
				"bytecode": {
					"linkReferences": {},
					"object": "6080604052604051610010906100e7565b604051809103906000f08015801561002c573d6000803e3d6000fd5b506000806101000a81548173ffffffffffffffffffffffffffffffffffffffff021916908373ffffffffffffffffffffffffffffffffffffffff160217905550604051610078906100f4565b604051809103906000f080158015610094573d6000803e3d6000fd5b50600160006101000a81548173ffffffffffffffffffffffffffffffffffffffff021916908373ffffffffffffffffffffffffffffffffffffffff1602179055503480156100e157600080fd5b50610101565b6106678061129b83390190565b61024c8061190283390190565b61118b806101106000396000f3fe608060405234801561001057600080fd5b50600436106100885760003560e01c8063a8e61fb51161005b578063a8e61fb51461014e578063bcbdef661461017e578063d51298b3146101ae578063d52f327d146101de57610088565b8063252a14371461008d5780633d9799b4146100bd5780634d41902c146100ed578063686775231461011d575b600080fd5b6100a760048036038101906100a291906107c4565b61020e565b6040516100b491906108bb565b60405180910390f35b6100d760048036038101906100d291906107c4565b61023a565b6040516100e491906108bb565b60405180910390f35b61010760048036038101906101029190610913565b610266565b60405161011491906108bb565b60405180910390f35b61013760048036038101906101329190610913565b61029a565b6040516101459291906109c4565b60405180910390f35b610168600480360381019061016391906109fb565b6102e8565b60405161017591906108bb565b60405180910390f35b61019860048036038101906101939190610a28565b6104f0565b6040516101a591906108bb565b60405180910390f35b6101c860048036038101906101c391906109fb565b61054c565b6040516101d591906108bb565b60405180910390f35b6101f860048036038101906101f39190610a7b565b61063b565b60405161020591906108bb565b60405180910390f35b60608282604051602001610223929190610b42565b604051602081830303815290604052905092915050565b6060828260405160200161024f929190610b42565b604051602081830303815290604052905092915050565b6060610271836102e8565b82604051602001610283929190610bb2565b604051602081830303815290604052905092915050565b606080836040516020016102ae9190610c02565b604051602081830303815290604052836040516020016102ce9190610c1d565b604051602081830303815290604052915091509250929050565b606060008060009054906101000a900473ffffffffffffffffffffffffffffffffffffffff1673ffffffffffffffffffffffffffffffffffffffff16630986e647846040518263ffffffff1660e01b81526004016103469190610c43565b602060405180830381865afa158015610363573d6000803e3d6000fd5b505050506040513d601f19601f820116820180604052508101906103879190610c73565b905060008167ffffffffffffffff8111156103a5576103a4610699565b5b6040519080825280602002602001820160405280156103d35781602001602082028036833780820191505090505b50905060008054906101000a900473ffffffffffffffffffffffffffffffffffffffff1673ffffffffffffffffffffffffffffffffffffffff16632ac45d9c856040518263ffffffff1660e01b815260040161042f9190610c43565b600060405180830381865afa15801561044c573d6000803e3d6000fd5b505050506040513d6000823e3d601f19601f820116820180604052508101906104759190610d68565b905060005b81518110156104c657603082828151811061049857610497610db1565b5b602002602001018181516104ac9190610e0f565b9150818152505080806104be90610e43565b91505061047a565b50806040516020016104d89190610f43565b60405160208183030381529060405292505050919050565b60606030846104ff9190610e0f565b935060308361050e9190610e0f565b925060308261051d9190610e0f565b915083838360405160200161053493929190610f5a565b60405160208183030381529060405290509392505050565b60606000806000600160009054906101000a900473ffffffffffffffffffffffffffffffffffffffff1673ffffffffffffffffffffffffffffffffffffffff1663db7bcd08866040518263ffffffff1660e01b81526004016105ae9190610c43565b606060405180830381865afa1580156105cb573d6000803e3d6000fd5b505050506040513d601f19601f820116820180604052508101906105ef9190610f97565b9250925092506105fe836102e8565b610607836102e8565b610610836102e8565b604051602001610622939291906110ce565b6040516020818303038152906040529350505050919050565b606083838360405160200161065293929190611120565b60405160208183030381529060405290509392505050565b6000604051905090565b600080fd5b600080fd5b600080fd5b600080fd5b6000601f19601f8301169050919050565b7f4e487b7100000000000000000000000000000000000000000000000000000000600052604160045260246000fd5b6106d182610688565b810181811067ffffffffffffffff821117156106f0576106ef610699565b5b80604052505050565b600061070361066a565b905061070f82826106c8565b919050565b600067ffffffffffffffff82111561072f5761072e610699565b5b61073882610688565b9050602081019050919050565b82818337600083830152505050565b600061076761076284610714565b6106f9565b90508281526020810184848401111561078357610782610683565b5b61078e848285610745565b509392505050565b600082601f8301126107ab576107aa61067e565b5b81356107bb848260208601610754565b91505092915050565b600080604083850312156107db576107da610674565b5b600083013567ffffffffffffffff8111156107f9576107f8610679565b5b61080585828601610796565b925050602083013567ffffffffffffffff81111561082657610825610679565b5b61083285828601610796565b9150509250929050565b600081519050919050565b600082825260208201905092915050565b60005b8381101561087657808201518184015260208101905061085b565b60008484015250505050565b600061088d8261083c565b6108978185610847565b93506108a7818560208601610858565b6108b081610688565b840191505092915050565b600060208201905081810360008301526108d58184610882565b905092915050565b6000819050919050565b6108f0816108dd565b81146108fb57600080fd5b50565b60008135905061090d816108e7565b92915050565b6000806040838503121561092a57610929610674565b5b6000610938858286016108fe565b925050602083013567ffffffffffffffff81111561095957610958610679565b5b61096585828601610796565b9150509250929050565b600081519050919050565b600082825260208201905092915050565b60006109968261096f565b6109a0818561097a565b93506109b0818560208601610858565b6109b981610688565b840191505092915050565b600060408201905081810360008301526109de818561098b565b905081810360208301526109f2818461098b565b90509392505050565b600060208284031215610a1157610a10610674565b5b6000610a1f848285016108fe565b91505092915050565b600080600060608486031215610a4157610a40610674565b5b6000610a4f868287016108fe565b9350506020610a60868287016108fe565b9250506040610a71868287016108fe565b9150509250925092565b600080600060608486031215610a9457610a93610674565b5b6000610aa2868287016108fe565b935050602084013567ffffffffffffffff811115610ac357610ac2610679565b5b610acf86828701610796565b925050604084013567ffffffffffffffff811115610af057610aef610679565b5b610afc86828701610796565b9150509250925092565b600081905092915050565b6000610b1c8261083c565b610b268185610b06565b9350610b36818560208601610858565b80840191505092915050565b6000610b4e8285610b11565b9150610b5a8284610b11565b91508190509392505050565b7f686f757273000000000000000000000000000000000000000000000000000000600082015250565b6000610b9c600583610b06565b9150610ba782610b66565b600582019050919050565b6000610bbe8285610b11565b9150610bc982610b8f565b9150610bd58284610b11565b91508190509392505050565b6000819050919050565b610bfc610bf7826108dd565b610be1565b82525050565b6000610c0e8284610beb565b60208201915081905092915050565b6000610c298284610b11565b915081905092915050565b610c3d816108dd565b82525050565b6000602082019050610c586000830184610c34565b92915050565b600081519050610c6d816108e7565b92915050565b600060208284031215610c8957610c88610674565b5b6000610c9784828501610c5e565b91505092915050565b600067ffffffffffffffff821115610cbb57610cba610699565b5b602082029050602081019050919050565b600080fd5b6000610ce4610cdf84610ca0565b6106f9565b90508083825260208201905060208402830185811115610d0757610d06610ccc565b5b835b81811015610d305780610d1c8882610c5e565b845260208401935050602081019050610d09565b5050509392505050565b600082601f830112610d4f57610d4e61067e565b5b8151610d5f848260208601610cd1565b91505092915050565b600060208284031215610d7e57610d7d610674565b5b600082015167ffffffffffffffff811115610d9c57610d9b610679565b5b610da884828501610d3a565b91505092915050565b7f4e487b7100000000000000000000000000000000000000000000000000000000600052603260045260246000fd5b7f4e487b7100000000000000000000000000000000000000000000000000000000600052601160045260246000fd5b6000610e1a826108dd565b9150610e25836108dd565b9250828201905080821115610e3d57610e3c610de0565b5b92915050565b6000610e4e826108dd565b91507fffffffffffffffffffffffffffffffffffffffffffffffffffffffffffffffff8203610e8057610e7f610de0565b5b600182019050919050565b600081519050919050565b600081905092915050565b6000819050602082019050919050565b610eba816108dd565b82525050565b6000610ecc8383610eb1565b60208301905092915050565b6000602082019050919050565b6000610ef082610e8b565b610efa8185610e96565b9350610f0583610ea1565b8060005b83811015610f36578151610f1d8882610ec0565b9750610f2883610ed8565b925050600181019050610f09565b5085935050505092915050565b6000610f4f8284610ee5565b915081905092915050565b6000610f668286610beb565b602082019150610f768285610beb565b602082019150610f868284610beb565b602082019150819050949350505050565b600080600060608486031215610fb057610faf610674565b5b6000610fbe86828701610c5e565b9350506020610fcf86828701610c5e565b9250506040610fe086828701610c5e565b9150509250925092565b7f686f757273200000000000000000000000000000000000000000000000000000600082015250565b6000611020600683610b06565b915061102b82610fea565b600682019050919050565b7f6d696e7574657320000000000000000000000000000000000000000000000000600082015250565b600061106c600883610b06565b915061107782611036565b600882019050919050565b7f7365636f6e647300000000000000000000000000000000000000000000000000600082015250565b60006110b8600783610b06565b91506110c382611082565b600782019050919050565b60006110da8286610b11565b91506110e582611013565b91506110f18285610b11565b91506110fc8261105f565b91506111088284610b11565b9150611113826110ab565b9150819050949350505050565b600061112c8286610beb565b60208201915061113c8285610b11565b91506111488284610b11565b915081905094935050505056fea2646970667358221220a5c2ca40ac256101bf56e8f94f0bd24433bbfac1ba4aafb4904b9ca1cd97ca8a64736f6c63430008120033608060405234801561001057600080fd5b50610647806100206000396000f3fe608060405234801561001057600080fd5b50600436106100365760003560e01c80630986e6471461003b5780632ac45d9c1461006b575b600080fd5b610055600480360381019061005091906101cd565b61009b565b6040516100629190610209565b60405180910390f35b610085600480360381019061008091906101cd565b6100cf565b60405161009291906102e2565b60405180910390f35b6000805b80600a6100ac9190610466565b8311156100c65780806100be906104b1565b91505061009f565b80915050919050565b606060006100dc8361009b565b67ffffffffffffffff8111156100f5576100f46104f9565b5b6040519080825280602002602001820160405280156101235781602001602082028036833780820191505090505b50905060006101318461009b565b90505b6000841461018857600a846101499190610557565b828261015490610588565b92508281518110610168576101676105b1565b5b602002602001018181525050600a8461018191906105e0565b9350610134565b8192505050919050565b600080fd5b6000819050919050565b6101aa81610197565b81146101b557600080fd5b50565b6000813590506101c7816101a1565b92915050565b6000602082840312156101e3576101e2610192565b5b60006101f1848285016101b8565b91505092915050565b61020381610197565b82525050565b600060208201905061021e60008301846101fa565b92915050565b600081519050919050565b600082825260208201905092915050565b6000819050602082019050919050565b61025981610197565b82525050565b600061026b8383610250565b60208301905092915050565b6000602082019050919050565b600061028f82610224565b610299818561022f565b93506102a483610240565b8060005b838110156102d55781516102bc888261025f565b97506102c783610277565b9250506001810190506102a8565b5085935050505092915050565b600060208201905081810360008301526102fc8184610284565b905092915050565b7f4e487b7100000000000000000000000000000000000000000000000000000000600052601160045260246000fd5b60008160011c9050919050565b6000808291508390505b600185111561038a5780860481111561036657610365610304565b5b60018516156103755780820291505b808102905061038385610333565b945061034a565b94509492505050565b6000826103a3576001905061045f565b816103b1576000905061045f565b81600181146103c757600281146103d157610400565b600191505061045f565b60ff8411156103e3576103e2610304565b5b8360020a9150848211156103fa576103f9610304565b5b5061045f565b5060208310610133831016604e8410600b84101617156104355782820a9050838111156104305761042f610304565b5b61045f565b6104428484846001610340565b9250905081840481111561045957610458610304565b5b81810290505b9392505050565b600061047182610197565b915061047c83610197565b92506104a97fffffffffffffffffffffffffffffffffffffffffffffffffffffffffffffffff8484610393565b905092915050565b60006104bc82610197565b91507fffffffffffffffffffffffffffffffffffffffffffffffffffffffffffffffff82036104ee576104ed610304565b5b600182019050919050565b7f4e487b7100000000000000000000000000000000000000000000000000000000600052604160045260246000fd5b7f4e487b7100000000000000000000000000000000000000000000000000000000600052601260045260246000fd5b600061056282610197565b915061056d83610197565b92508261057d5761057c610528565b5b828206905092915050565b600061059382610197565b9150600082036105a6576105a5610304565b5b600182039050919050565b7f4e487b7100000000000000000000000000000000000000000000000000000000600052603260045260246000fd5b60006105eb82610197565b91506105f683610197565b92508261060657610605610528565b5b82820490509291505056fea264697066735822122009872956181911fe67841159e1c5414afd9536c31e29d18d943dcb260f6689d464736f6c63430008120033608060405234801561001057600080fd5b5061022c806100206000396000f3fe608060405234801561001057600080fd5b506004361061002b5760003560e01c8063db7bcd0814610030575b600080fd5b61004a600480360381019061004591906100f2565b610062565b6040516100599392919061012e565b60405180910390f35b600080600080600080610e10876100799190610194565b9250603c80886100899190610194565b61009391906101c5565b9150603c876100a291906101c5565b90508282829550955095505050509193909250565b600080fd5b6000819050919050565b6100cf816100bc565b81146100da57600080fd5b50565b6000813590506100ec816100c6565b92915050565b600060208284031215610108576101076100b7565b5b6000610116848285016100dd565b91505092915050565b610128816100bc565b82525050565b6000606082019050610143600083018661011f565b610150602083018561011f565b61015d604083018461011f565b949350505050565b7f4e487b7100000000000000000000000000000000000000000000000000000000600052601260045260246000fd5b600061019f826100bc565b91506101aa836100bc565b9250826101ba576101b9610165565b5b828204905092915050565b60006101d0826100bc565b91506101db836100bc565b9250826101eb576101ea610165565b5b82820690509291505056fea2646970667358221220929b9d189c288bb5eae7ed7fda063005f5644c4a3907d3ea9b265468bcd108ce64736f6c63430008120033",
					"opcodes": "PUSH1 0x80 PUSH1 0x40 MSTORE PUSH1 0x40 MLOAD PUSH2 0x10 SWAP1 PUSH2 0xE7 JUMP JUMPDEST PUSH1 0x40 MLOAD DUP1 SWAP2 SUB SWAP1 PUSH1 0x0 CREATE DUP1 ISZERO DUP1 ISZERO PUSH2 0x2C JUMPI RETURNDATASIZE PUSH1 0x0 DUP1 RETURNDATACOPY RETURNDATASIZE PUSH1 0x0 REVERT JUMPDEST POP PUSH1 0x0 DUP1 PUSH2 0x100 EXP DUP2 SLOAD DUP2 PUSH20 0xFFFFFFFFFFFFFFFFFFFFFFFFFFFFFFFFFFFFFFFF MUL NOT AND SWAP1 DUP4 PUSH20 0xFFFFFFFFFFFFFFFFFFFFFFFFFFFFFFFFFFFFFFFF AND MUL OR SWAP1 SSTORE POP PUSH1 0x40 MLOAD PUSH2 0x78 SWAP1 PUSH2 0xF4 JUMP JUMPDEST PUSH1 0x40 MLOAD DUP1 SWAP2 SUB SWAP1 PUSH1 0x0 CREATE DUP1 ISZERO DUP1 ISZERO PUSH2 0x94 JUMPI RETURNDATASIZE PUSH1 0x0 DUP1 RETURNDATACOPY RETURNDATASIZE PUSH1 0x0 REVERT JUMPDEST POP PUSH1 0x1 PUSH1 0x0 PUSH2 0x100 EXP DUP2 SLOAD DUP2 PUSH20 0xFFFFFFFFFFFFFFFFFFFFFFFFFFFFFFFFFFFFFFFF MUL NOT AND SWAP1 DUP4 PUSH20 0xFFFFFFFFFFFFFFFFFFFFFFFFFFFFFFFFFFFFFFFF AND MUL OR SWAP1 SSTORE POP CALLVALUE DUP1 ISZERO PUSH2 0xE1 JUMPI PUSH1 0x0 DUP1 REVERT JUMPDEST POP PUSH2 0x101 JUMP JUMPDEST PUSH2 0x667 DUP1 PUSH2 0x129B DUP4 CODECOPY ADD SWAP1 JUMP JUMPDEST PUSH2 0x24C DUP1 PUSH2 0x1902 DUP4 CODECOPY ADD SWAP1 JUMP JUMPDEST PUSH2 0x118B DUP1 PUSH2 0x110 PUSH1 0x0 CODECOPY PUSH1 0x0 RETURN INVALID PUSH1 0x80 PUSH1 0x40 MSTORE CALLVALUE DUP1 ISZERO PUSH2 0x10 JUMPI PUSH1 0x0 DUP1 REVERT JUMPDEST POP PUSH1 0x4 CALLDATASIZE LT PUSH2 0x88 JUMPI PUSH1 0x0 CALLDATALOAD PUSH1 0xE0 SHR DUP1 PUSH4 0xA8E61FB5 GT PUSH2 0x5B JUMPI DUP1 PUSH4 0xA8E61FB5 EQ PUSH2 0x14E JUMPI DUP1 PUSH4 0xBCBDEF66 EQ PUSH2 0x17E JUMPI DUP1 PUSH4 0xD51298B3 EQ PUSH2 0x1AE JUMPI DUP1 PUSH4 0xD52F327D EQ PUSH2 0x1DE JUMPI PUSH2 0x88 JUMP JUMPDEST DUP1 PUSH4 0x252A1437 EQ PUSH2 0x8D JUMPI DUP1 PUSH4 0x3D9799B4 EQ PUSH2 0xBD JUMPI DUP1 PUSH4 0x4D41902C EQ PUSH2 0xED JUMPI DUP1 PUSH4 0x68677523 EQ PUSH2 0x11D JUMPI JUMPDEST PUSH1 0x0 DUP1 REVERT JUMPDEST PUSH2 0xA7 PUSH1 0x4 DUP1 CALLDATASIZE SUB DUP2 ADD SWAP1 PUSH2 0xA2 SWAP2 SWAP1 PUSH2 0x7C4 JUMP JUMPDEST PUSH2 0x20E JUMP JUMPDEST PUSH1 0x40 MLOAD PUSH2 0xB4 SWAP2 SWAP1 PUSH2 0x8BB JUMP JUMPDEST PUSH1 0x40 MLOAD DUP1 SWAP2 SUB SWAP1 RETURN JUMPDEST PUSH2 0xD7 PUSH1 0x4 DUP1 CALLDATASIZE SUB DUP2 ADD SWAP1 PUSH2 0xD2 SWAP2 SWAP1 PUSH2 0x7C4 JUMP JUMPDEST PUSH2 0x23A JUMP JUMPDEST PUSH1 0x40 MLOAD PUSH2 0xE4 SWAP2 SWAP1 PUSH2 0x8BB JUMP JUMPDEST PUSH1 0x40 MLOAD DUP1 SWAP2 SUB SWAP1 RETURN JUMPDEST PUSH2 0x107 PUSH1 0x4 DUP1 CALLDATASIZE SUB DUP2 ADD SWAP1 PUSH2 0x102 SWAP2 SWAP1 PUSH2 0x913 JUMP JUMPDEST PUSH2 0x266 JUMP JUMPDEST PUSH1 0x40 MLOAD PUSH2 0x114 SWAP2 SWAP1 PUSH2 0x8BB JUMP JUMPDEST PUSH1 0x40 MLOAD DUP1 SWAP2 SUB SWAP1 RETURN JUMPDEST PUSH2 0x137 PUSH1 0x4 DUP1 CALLDATASIZE SUB DUP2 ADD SWAP1 PUSH2 0x132 SWAP2 SWAP1 PUSH2 0x913 JUMP JUMPDEST PUSH2 0x29A JUMP JUMPDEST PUSH1 0x40 MLOAD PUSH2 0x145 SWAP3 SWAP2 SWAP1 PUSH2 0x9C4 JUMP JUMPDEST PUSH1 0x40 MLOAD DUP1 SWAP2 SUB SWAP1 RETURN JUMPDEST PUSH2 0x168 PUSH1 0x4 DUP1 CALLDATASIZE SUB DUP2 ADD SWAP1 PUSH2 0x163 SWAP2 SWAP1 PUSH2 0x9FB JUMP JUMPDEST PUSH2 0x2E8 JUMP JUMPDEST PUSH1 0x40 MLOAD PUSH2 0x175 SWAP2 SWAP1 PUSH2 0x8BB JUMP JUMPDEST PUSH1 0x40 MLOAD DUP1 SWAP2 SUB SWAP1 RETURN JUMPDEST PUSH2 0x198 PUSH1 0x4 DUP1 CALLDATASIZE SUB DUP2 ADD SWAP1 PUSH2 0x193 SWAP2 SWAP1 PUSH2 0xA28 JUMP JUMPDEST PUSH2 0x4F0 JUMP JUMPDEST PUSH1 0x40 MLOAD PUSH2 0x1A5 SWAP2 SWAP1 PUSH2 0x8BB JUMP JUMPDEST PUSH1 0x40 MLOAD DUP1 SWAP2 SUB SWAP1 RETURN JUMPDEST PUSH2 0x1C8 PUSH1 0x4 DUP1 CALLDATASIZE SUB DUP2 ADD SWAP1 PUSH2 0x1C3 SWAP2 SWAP1 PUSH2 0x9FB JUMP JUMPDEST PUSH2 0x54C JUMP JUMPDEST PUSH1 0x40 MLOAD PUSH2 0x1D5 SWAP2 SWAP1 PUSH2 0x8BB JUMP JUMPDEST PUSH1 0x40 MLOAD DUP1 SWAP2 SUB SWAP1 RETURN JUMPDEST PUSH2 0x1F8 PUSH1 0x4 DUP1 CALLDATASIZE SUB DUP2 ADD SWAP1 PUSH2 0x1F3 SWAP2 SWAP1 PUSH2 0xA7B JUMP JUMPDEST PUSH2 0x63B JUMP JUMPDEST PUSH1 0x40 MLOAD PUSH2 0x205 SWAP2 SWAP1 PUSH2 0x8BB JUMP JUMPDEST PUSH1 0x40 MLOAD DUP1 SWAP2 SUB SWAP1 RETURN JUMPDEST PUSH1 0x60 DUP3 DUP3 PUSH1 0x40 MLOAD PUSH1 0x20 ADD PUSH2 0x223 SWAP3 SWAP2 SWAP1 PUSH2 0xB42 JUMP JUMPDEST PUSH1 0x40 MLOAD PUSH1 0x20 DUP2 DUP4 SUB SUB DUP2 MSTORE SWAP1 PUSH1 0x40 MSTORE SWAP1 POP SWAP3 SWAP2 POP POP JUMP JUMPDEST PUSH1 0x60 DUP3 DUP3 PUSH1 0x40 MLOAD PUSH1 0x20 ADD PUSH2 0x24F SWAP3 SWAP2 SWAP1 PUSH2 0xB42 JUMP JUMPDEST PUSH1 0x40 MLOAD PUSH1 0x20 DUP2 DUP4 SUB SUB DUP2 MSTORE SWAP1 PUSH1 0x40 MSTORE SWAP1 POP SWAP3 SWAP2 POP POP JUMP JUMPDEST PUSH1 0x60 PUSH2 0x271 DUP4 PUSH2 0x2E8 JUMP JUMPDEST DUP3 PUSH1 0x40 MLOAD PUSH1 0x20 ADD PUSH2 0x283 SWAP3 SWAP2 SWAP1 PUSH2 0xBB2 JUMP JUMPDEST PUSH1 0x40 MLOAD PUSH1 0x20 DUP2 DUP4 SUB SUB DUP2 MSTORE SWAP1 PUSH1 0x40 MSTORE SWAP1 POP SWAP3 SWAP2 POP POP JUMP JUMPDEST PUSH1 0x60 DUP1 DUP4 PUSH1 0x40 MLOAD PUSH1 0x20 ADD PUSH2 0x2AE SWAP2 SWAP1 PUSH2 0xC02 JUMP JUMPDEST PUSH1 0x40 MLOAD PUSH1 0x20 DUP2 DUP4 SUB SUB DUP2 MSTORE SWAP1 PUSH1 0x40 MSTORE DUP4 PUSH1 0x40 MLOAD PUSH1 0x20 ADD PUSH2 0x2CE SWAP2 SWAP1 PUSH2 0xC1D JUMP JUMPDEST PUSH1 0x40 MLOAD PUSH1 0x20 DUP2 DUP4 SUB SUB DUP2 MSTORE SWAP1 PUSH1 0x40 MSTORE SWAP2 POP SWAP2 POP SWAP3 POP SWAP3 SWAP1 POP JUMP JUMPDEST PUSH1 0x60 PUSH1 0x0 DUP1 PUSH1 0x0 SWAP1 SLOAD SWAP1 PUSH2 0x100 EXP SWAP1 DIV PUSH20 0xFFFFFFFFFFFFFFFFFFFFFFFFFFFFFFFFFFFFFFFF AND PUSH20 0xFFFFFFFFFFFFFFFFFFFFFFFFFFFFFFFFFFFFFFFF AND PUSH4 0x986E647 DUP5 PUSH1 0x40 MLOAD DUP3 PUSH4 0xFFFFFFFF AND PUSH1 0xE0 SHL DUP2 MSTORE PUSH1 0x4 ADD PUSH2 0x346 SWAP2 SWAP1 PUSH2 0xC43 JUMP JUMPDEST PUSH1 0x20 PUSH1 0x40 MLOAD DUP1 DUP4 SUB DUP2 DUP7 GAS STATICCALL ISZERO DUP1 ISZERO PUSH2 0x363 JUMPI RETURNDATASIZE PUSH1 0x0 DUP1 RETURNDATACOPY RETURNDATASIZE PUSH1 0x0 REVERT JUMPDEST POP POP POP POP PUSH1 0x40 MLOAD RETURNDATASIZE PUSH1 0x1F NOT PUSH1 0x1F DUP3 ADD AND DUP3 ADD DUP1 PUSH1 0x40 MSTORE POP DUP2 ADD SWAP1 PUSH2 0x387 SWAP2 SWAP1 PUSH2 0xC73 JUMP JUMPDEST SWAP1 POP PUSH1 0x0 DUP2 PUSH8 0xFFFFFFFFFFFFFFFF DUP2 GT ISZERO PUSH2 0x3A5 JUMPI PUSH2 0x3A4 PUSH2 0x699 JUMP JUMPDEST JUMPDEST PUSH1 0x40 MLOAD SWAP1 DUP1 DUP3 MSTORE DUP1 PUSH1 0x20 MUL PUSH1 0x20 ADD DUP3 ADD PUSH1 0x40 MSTORE DUP1 ISZERO PUSH2 0x3D3 JUMPI DUP2 PUSH1 0x20 ADD PUSH1 0x20 DUP3 MUL DUP1 CALLDATASIZE DUP4 CALLDATACOPY DUP1 DUP3 ADD SWAP2 POP POP SWAP1 POP JUMPDEST POP SWAP1 POP PUSH1 0x0 DUP1 SLOAD SWAP1 PUSH2 0x100 EXP SWAP1 DIV PUSH20 0xFFFFFFFFFFFFFFFFFFFFFFFFFFFFFFFFFFFFFFFF AND PUSH20 0xFFFFFFFFFFFFFFFFFFFFFFFFFFFFFFFFFFFFFFFF AND PUSH4 0x2AC45D9C DUP6 PUSH1 0x40 MLOAD DUP3 PUSH4 0xFFFFFFFF AND PUSH1 0xE0 SHL DUP2 MSTORE PUSH1 0x4 ADD PUSH2 0x42F SWAP2 SWAP1 PUSH2 0xC43 JUMP JUMPDEST PUSH1 0x0 PUSH1 0x40 MLOAD DUP1 DUP4 SUB DUP2 DUP7 GAS STATICCALL ISZERO DUP1 ISZERO PUSH2 0x44C JUMPI RETURNDATASIZE PUSH1 0x0 DUP1 RETURNDATACOPY RETURNDATASIZE PUSH1 0x0 REVERT JUMPDEST POP POP POP POP PUSH1 0x40 MLOAD RETURNDATASIZE PUSH1 0x0 DUP3 RETURNDATACOPY RETURNDATASIZE PUSH1 0x1F NOT PUSH1 0x1F DUP3 ADD AND DUP3 ADD DUP1 PUSH1 0x40 MSTORE POP DUP2 ADD SWAP1 PUSH2 0x475 SWAP2 SWAP1 PUSH2 0xD68 JUMP JUMPDEST SWAP1 POP PUSH1 0x0 JUMPDEST DUP2 MLOAD DUP2 LT ISZERO PUSH2 0x4C6 JUMPI PUSH1 0x30 DUP3 DUP3 DUP2 MLOAD DUP2 LT PUSH2 0x498 JUMPI PUSH2 0x497 PUSH2 0xDB1 JUMP JUMPDEST JUMPDEST PUSH1 0x20 MUL PUSH1 0x20 ADD ADD DUP2 DUP2 MLOAD PUSH2 0x4AC SWAP2 SWAP1 PUSH2 0xE0F JUMP JUMPDEST SWAP2 POP DUP2 DUP2 MSTORE POP POP DUP1 DUP1 PUSH2 0x4BE SWAP1 PUSH2 0xE43 JUMP JUMPDEST SWAP2 POP POP PUSH2 0x47A JUMP JUMPDEST POP DUP1 PUSH1 0x40 MLOAD PUSH1 0x20 ADD PUSH2 0x4D8 SWAP2 SWAP1 PUSH2 0xF43 JUMP JUMPDEST PUSH1 0x40 MLOAD PUSH1 0x20 DUP2 DUP4 SUB SUB DUP2 MSTORE SWAP1 PUSH1 0x40 MSTORE SWAP3 POP POP POP SWAP2 SWAP1 POP JUMP JUMPDEST PUSH1 0x60 PUSH1 0x30 DUP5 PUSH2 0x4FF SWAP2 SWAP1 PUSH2 0xE0F JUMP JUMPDEST SWAP4 POP PUSH1 0x30 DUP4 PUSH2 0x50E SWAP2 SWAP1 PUSH2 0xE0F JUMP JUMPDEST SWAP3 POP PUSH1 0x30 DUP3 PUSH2 0x51D SWAP2 SWAP1 PUSH2 0xE0F JUMP JUMPDEST SWAP2 POP DUP4 DUP4 DUP4 PUSH1 0x40 MLOAD PUSH1 0x20 ADD PUSH2 0x534 SWAP4 SWAP3 SWAP2 SWAP1 PUSH2 0xF5A JUMP JUMPDEST PUSH1 0x40 MLOAD PUSH1 0x20 DUP2 DUP4 SUB SUB DUP2 MSTORE SWAP1 PUSH1 0x40 MSTORE SWAP1 POP SWAP4 SWAP3 POP POP POP JUMP JUMPDEST PUSH1 0x60 PUSH1 0x0 DUP1 PUSH1 0x0 PUSH1 0x1 PUSH1 0x0 SWAP1 SLOAD SWAP1 PUSH2 0x100 EXP SWAP1 DIV PUSH20 0xFFFFFFFFFFFFFFFFFFFFFFFFFFFFFFFFFFFFFFFF AND PUSH20 0xFFFFFFFFFFFFFFFFFFFFFFFFFFFFFFFFFFFFFFFF AND PUSH4 0xDB7BCD08 DUP7 PUSH1 0x40 MLOAD DUP3 PUSH4 0xFFFFFFFF AND PUSH1 0xE0 SHL DUP2 MSTORE PUSH1 0x4 ADD PUSH2 0x5AE SWAP2 SWAP1 PUSH2 0xC43 JUMP JUMPDEST PUSH1 0x60 PUSH1 0x40 MLOAD DUP1 DUP4 SUB DUP2 DUP7 GAS STATICCALL ISZERO DUP1 ISZERO PUSH2 0x5CB JUMPI RETURNDATASIZE PUSH1 0x0 DUP1 RETURNDATACOPY RETURNDATASIZE PUSH1 0x0 REVERT JUMPDEST POP POP POP POP PUSH1 0x40 MLOAD RETURNDATASIZE PUSH1 0x1F NOT PUSH1 0x1F DUP3 ADD AND DUP3 ADD DUP1 PUSH1 0x40 MSTORE POP DUP2 ADD SWAP1 PUSH2 0x5EF SWAP2 SWAP1 PUSH2 0xF97 JUMP JUMPDEST SWAP3 POP SWAP3 POP SWAP3 POP PUSH2 0x5FE DUP4 PUSH2 0x2E8 JUMP JUMPDEST PUSH2 0x607 DUP4 PUSH2 0x2E8 JUMP JUMPDEST PUSH2 0x610 DUP4 PUSH2 0x2E8 JUMP JUMPDEST PUSH1 0x40 MLOAD PUSH1 0x20 ADD PUSH2 0x622 SWAP4 SWAP3 SWAP2 SWAP1 PUSH2 0x10CE JUMP JUMPDEST PUSH1 0x40 MLOAD PUSH1 0x20 DUP2 DUP4 SUB SUB DUP2 MSTORE SWAP1 PUSH1 0x40 MSTORE SWAP4 POP POP POP POP SWAP2 SWAP1 POP JUMP JUMPDEST PUSH1 0x60 DUP4 DUP4 DUP4 PUSH1 0x40 MLOAD PUSH1 0x20 ADD PUSH2 0x652 SWAP4 SWAP3 SWAP2 SWAP1 PUSH2 0x1120 JUMP JUMPDEST PUSH1 0x40 MLOAD PUSH1 0x20 DUP2 DUP4 SUB SUB DUP2 MSTORE SWAP1 PUSH1 0x40 MSTORE SWAP1 POP SWAP4 SWAP3 POP POP POP JUMP JUMPDEST PUSH1 0x0 PUSH1 0x40 MLOAD SWAP1 POP SWAP1 JUMP JUMPDEST PUSH1 0x0 DUP1 REVERT JUMPDEST PUSH1 0x0 DUP1 REVERT JUMPDEST PUSH1 0x0 DUP1 REVERT JUMPDEST PUSH1 0x0 DUP1 REVERT JUMPDEST PUSH1 0x0 PUSH1 0x1F NOT PUSH1 0x1F DUP4 ADD AND SWAP1 POP SWAP2 SWAP1 POP JUMP JUMPDEST PUSH32 0x4E487B7100000000000000000000000000000000000000000000000000000000 PUSH1 0x0 MSTORE PUSH1 0x41 PUSH1 0x4 MSTORE PUSH1 0x24 PUSH1 0x0 REVERT JUMPDEST PUSH2 0x6D1 DUP3 PUSH2 0x688 JUMP JUMPDEST DUP2 ADD DUP2 DUP2 LT PUSH8 0xFFFFFFFFFFFFFFFF DUP3 GT OR ISZERO PUSH2 0x6F0 JUMPI PUSH2 0x6EF PUSH2 0x699 JUMP JUMPDEST JUMPDEST DUP1 PUSH1 0x40 MSTORE POP POP POP JUMP JUMPDEST PUSH1 0x0 PUSH2 0x703 PUSH2 0x66A JUMP JUMPDEST SWAP1 POP PUSH2 0x70F DUP3 DUP3 PUSH2 0x6C8 JUMP JUMPDEST SWAP2 SWAP1 POP JUMP JUMPDEST PUSH1 0x0 PUSH8 0xFFFFFFFFFFFFFFFF DUP3 GT ISZERO PUSH2 0x72F JUMPI PUSH2 0x72E PUSH2 0x699 JUMP JUMPDEST JUMPDEST PUSH2 0x738 DUP3 PUSH2 0x688 JUMP JUMPDEST SWAP1 POP PUSH1 0x20 DUP2 ADD SWAP1 POP SWAP2 SWAP1 POP JUMP JUMPDEST DUP3 DUP2 DUP4 CALLDATACOPY PUSH1 0x0 DUP4 DUP4 ADD MSTORE POP POP POP JUMP JUMPDEST PUSH1 0x0 PUSH2 0x767 PUSH2 0x762 DUP5 PUSH2 0x714 JUMP JUMPDEST PUSH2 0x6F9 JUMP JUMPDEST SWAP1 POP DUP3 DUP2 MSTORE PUSH1 0x20 DUP2 ADD DUP5 DUP5 DUP5 ADD GT ISZERO PUSH2 0x783 JUMPI PUSH2 0x782 PUSH2 0x683 JUMP JUMPDEST JUMPDEST PUSH2 0x78E DUP5 DUP3 DUP6 PUSH2 0x745 JUMP JUMPDEST POP SWAP4 SWAP3 POP POP POP JUMP JUMPDEST PUSH1 0x0 DUP3 PUSH1 0x1F DUP4 ADD SLT PUSH2 0x7AB JUMPI PUSH2 0x7AA PUSH2 0x67E JUMP JUMPDEST JUMPDEST DUP2 CALLDATALOAD PUSH2 0x7BB DUP5 DUP3 PUSH1 0x20 DUP7 ADD PUSH2 0x754 JUMP JUMPDEST SWAP2 POP POP SWAP3 SWAP2 POP POP JUMP JUMPDEST PUSH1 0x0 DUP1 PUSH1 0x40 DUP4 DUP6 SUB SLT ISZERO PUSH2 0x7DB JUMPI PUSH2 0x7DA PUSH2 0x674 JUMP JUMPDEST JUMPDEST PUSH1 0x0 DUP4 ADD CALLDATALOAD PUSH8 0xFFFFFFFFFFFFFFFF DUP2 GT ISZERO PUSH2 0x7F9 JUMPI PUSH2 0x7F8 PUSH2 0x679 JUMP JUMPDEST JUMPDEST PUSH2 0x805 DUP6 DUP3 DUP7 ADD PUSH2 0x796 JUMP JUMPDEST SWAP3 POP POP PUSH1 0x20 DUP4 ADD CALLDATALOAD PUSH8 0xFFFFFFFFFFFFFFFF DUP2 GT ISZERO PUSH2 0x826 JUMPI PUSH2 0x825 PUSH2 0x679 JUMP JUMPDEST JUMPDEST PUSH2 0x832 DUP6 DUP3 DUP7 ADD PUSH2 0x796 JUMP JUMPDEST SWAP2 POP POP SWAP3 POP SWAP3 SWAP1 POP JUMP JUMPDEST PUSH1 0x0 DUP2 MLOAD SWAP1 POP SWAP2 SWAP1 POP JUMP JUMPDEST PUSH1 0x0 DUP3 DUP3 MSTORE PUSH1 0x20 DUP3 ADD SWAP1 POP SWAP3 SWAP2 POP POP JUMP JUMPDEST PUSH1 0x0 JUMPDEST DUP4 DUP2 LT ISZERO PUSH2 0x876 JUMPI DUP1 DUP3 ADD MLOAD DUP2 DUP5 ADD MSTORE PUSH1 0x20 DUP2 ADD SWAP1 POP PUSH2 0x85B JUMP JUMPDEST PUSH1 0x0 DUP5 DUP5 ADD MSTORE POP POP POP POP JUMP JUMPDEST PUSH1 0x0 PUSH2 0x88D DUP3 PUSH2 0x83C JUMP JUMPDEST PUSH2 0x897 DUP2 DUP6 PUSH2 0x847 JUMP JUMPDEST SWAP4 POP PUSH2 0x8A7 DUP2 DUP6 PUSH1 0x20 DUP7 ADD PUSH2 0x858 JUMP JUMPDEST PUSH2 0x8B0 DUP2 PUSH2 0x688 JUMP JUMPDEST DUP5 ADD SWAP2 POP POP SWAP3 SWAP2 POP POP JUMP JUMPDEST PUSH1 0x0 PUSH1 0x20 DUP3 ADD SWAP1 POP DUP2 DUP2 SUB PUSH1 0x0 DUP4 ADD MSTORE PUSH2 0x8D5 DUP2 DUP5 PUSH2 0x882 JUMP JUMPDEST SWAP1 POP SWAP3 SWAP2 POP POP JUMP JUMPDEST PUSH1 0x0 DUP2 SWAP1 POP SWAP2 SWAP1 POP JUMP JUMPDEST PUSH2 0x8F0 DUP2 PUSH2 0x8DD JUMP JUMPDEST DUP2 EQ PUSH2 0x8FB JUMPI PUSH1 0x0 DUP1 REVERT JUMPDEST POP JUMP JUMPDEST PUSH1 0x0 DUP2 CALLDATALOAD SWAP1 POP PUSH2 0x90D DUP2 PUSH2 0x8E7 JUMP JUMPDEST SWAP3 SWAP2 POP POP JUMP JUMPDEST PUSH1 0x0 DUP1 PUSH1 0x40 DUP4 DUP6 SUB SLT ISZERO PUSH2 0x92A JUMPI PUSH2 0x929 PUSH2 0x674 JUMP JUMPDEST JUMPDEST PUSH1 0x0 PUSH2 0x938 DUP6 DUP3 DUP7 ADD PUSH2 0x8FE JUMP JUMPDEST SWAP3 POP POP PUSH1 0x20 DUP4 ADD CALLDATALOAD PUSH8 0xFFFFFFFFFFFFFFFF DUP2 GT ISZERO PUSH2 0x959 JUMPI PUSH2 0x958 PUSH2 0x679 JUMP JUMPDEST JUMPDEST PUSH2 0x965 DUP6 DUP3 DUP7 ADD PUSH2 0x796 JUMP JUMPDEST SWAP2 POP POP SWAP3 POP SWAP3 SWAP1 POP JUMP JUMPDEST PUSH1 0x0 DUP2 MLOAD SWAP1 POP SWAP2 SWAP1 POP JUMP JUMPDEST PUSH1 0x0 DUP3 DUP3 MSTORE PUSH1 0x20 DUP3 ADD SWAP1 POP SWAP3 SWAP2 POP POP JUMP JUMPDEST PUSH1 0x0 PUSH2 0x996 DUP3 PUSH2 0x96F JUMP JUMPDEST PUSH2 0x9A0 DUP2 DUP6 PUSH2 0x97A JUMP JUMPDEST SWAP4 POP PUSH2 0x9B0 DUP2 DUP6 PUSH1 0x20 DUP7 ADD PUSH2 0x858 JUMP JUMPDEST PUSH2 0x9B9 DUP2 PUSH2 0x688 JUMP JUMPDEST DUP5 ADD SWAP2 POP POP SWAP3 SWAP2 POP POP JUMP JUMPDEST PUSH1 0x0 PUSH1 0x40 DUP3 ADD SWAP1 POP DUP2 DUP2 SUB PUSH1 0x0 DUP4 ADD MSTORE PUSH2 0x9DE DUP2 DUP6 PUSH2 0x98B JUMP JUMPDEST SWAP1 POP DUP2 DUP2 SUB PUSH1 0x20 DUP4 ADD MSTORE PUSH2 0x9F2 DUP2 DUP5 PUSH2 0x98B JUMP JUMPDEST SWAP1 POP SWAP4 SWAP3 POP POP POP JUMP JUMPDEST PUSH1 0x0 PUSH1 0x20 DUP3 DUP5 SUB SLT ISZERO PUSH2 0xA11 JUMPI PUSH2 0xA10 PUSH2 0x674 JUMP JUMPDEST JUMPDEST PUSH1 0x0 PUSH2 0xA1F DUP5 DUP3 DUP6 ADD PUSH2 0x8FE JUMP JUMPDEST SWAP2 POP POP SWAP3 SWAP2 POP POP JUMP JUMPDEST PUSH1 0x0 DUP1 PUSH1 0x0 PUSH1 0x60 DUP5 DUP7 SUB SLT ISZERO PUSH2 0xA41 JUMPI PUSH2 0xA40 PUSH2 0x674 JUMP JUMPDEST JUMPDEST PUSH1 0x0 PUSH2 0xA4F DUP7 DUP3 DUP8 ADD PUSH2 0x8FE JUMP JUMPDEST SWAP4 POP POP PUSH1 0x20 PUSH2 0xA60 DUP7 DUP3 DUP8 ADD PUSH2 0x8FE JUMP JUMPDEST SWAP3 POP POP PUSH1 0x40 PUSH2 0xA71 DUP7 DUP3 DUP8 ADD PUSH2 0x8FE JUMP JUMPDEST SWAP2 POP POP SWAP3 POP SWAP3 POP SWAP3 JUMP JUMPDEST PUSH1 0x0 DUP1 PUSH1 0x0 PUSH1 0x60 DUP5 DUP7 SUB SLT ISZERO PUSH2 0xA94 JUMPI PUSH2 0xA93 PUSH2 0x674 JUMP JUMPDEST JUMPDEST PUSH1 0x0 PUSH2 0xAA2 DUP7 DUP3 DUP8 ADD PUSH2 0x8FE JUMP JUMPDEST SWAP4 POP POP PUSH1 0x20 DUP5 ADD CALLDATALOAD PUSH8 0xFFFFFFFFFFFFFFFF DUP2 GT ISZERO PUSH2 0xAC3 JUMPI PUSH2 0xAC2 PUSH2 0x679 JUMP JUMPDEST JUMPDEST PUSH2 0xACF DUP7 DUP3 DUP8 ADD PUSH2 0x796 JUMP JUMPDEST SWAP3 POP POP PUSH1 0x40 DUP5 ADD CALLDATALOAD PUSH8 0xFFFFFFFFFFFFFFFF DUP2 GT ISZERO PUSH2 0xAF0 JUMPI PUSH2 0xAEF PUSH2 0x679 JUMP JUMPDEST JUMPDEST PUSH2 0xAFC DUP7 DUP3 DUP8 ADD PUSH2 0x796 JUMP JUMPDEST SWAP2 POP POP SWAP3 POP SWAP3 POP SWAP3 JUMP JUMPDEST PUSH1 0x0 DUP2 SWAP1 POP SWAP3 SWAP2 POP POP JUMP JUMPDEST PUSH1 0x0 PUSH2 0xB1C DUP3 PUSH2 0x83C JUMP JUMPDEST PUSH2 0xB26 DUP2 DUP6 PUSH2 0xB06 JUMP JUMPDEST SWAP4 POP PUSH2 0xB36 DUP2 DUP6 PUSH1 0x20 DUP7 ADD PUSH2 0x858 JUMP JUMPDEST DUP1 DUP5 ADD SWAP2 POP POP SWAP3 SWAP2 POP POP JUMP JUMPDEST PUSH1 0x0 PUSH2 0xB4E DUP3 DUP6 PUSH2 0xB11 JUMP JUMPDEST SWAP2 POP PUSH2 0xB5A DUP3 DUP5 PUSH2 0xB11 JUMP JUMPDEST SWAP2 POP DUP2 SWAP1 POP SWAP4 SWAP3 POP POP POP JUMP JUMPDEST PUSH32 0x686F757273000000000000000000000000000000000000000000000000000000 PUSH1 0x0 DUP3 ADD MSTORE POP JUMP JUMPDEST PUSH1 0x0 PUSH2 0xB9C PUSH1 0x5 DUP4 PUSH2 0xB06 JUMP JUMPDEST SWAP2 POP PUSH2 0xBA7 DUP3 PUSH2 0xB66 JUMP JUMPDEST PUSH1 0x5 DUP3 ADD SWAP1 POP SWAP2 SWAP1 POP JUMP JUMPDEST PUSH1 0x0 PUSH2 0xBBE DUP3 DUP6 PUSH2 0xB11 JUMP JUMPDEST SWAP2 POP PUSH2 0xBC9 DUP3 PUSH2 0xB8F JUMP JUMPDEST SWAP2 POP PUSH2 0xBD5 DUP3 DUP5 PUSH2 0xB11 JUMP JUMPDEST SWAP2 POP DUP2 SWAP1 POP SWAP4 SWAP3 POP POP POP JUMP JUMPDEST PUSH1 0x0 DUP2 SWAP1 POP SWAP2 SWAP1 POP JUMP JUMPDEST PUSH2 0xBFC PUSH2 0xBF7 DUP3 PUSH2 0x8DD JUMP JUMPDEST PUSH2 0xBE1 JUMP JUMPDEST DUP3 MSTORE POP POP JUMP JUMPDEST PUSH1 0x0 PUSH2 0xC0E DUP3 DUP5 PUSH2 0xBEB JUMP JUMPDEST PUSH1 0x20 DUP3 ADD SWAP2 POP DUP2 SWAP1 POP SWAP3 SWAP2 POP POP JUMP JUMPDEST PUSH1 0x0 PUSH2 0xC29 DUP3 DUP5 PUSH2 0xB11 JUMP JUMPDEST SWAP2 POP DUP2 SWAP1 POP SWAP3 SWAP2 POP POP JUMP JUMPDEST PUSH2 0xC3D DUP2 PUSH2 0x8DD JUMP JUMPDEST DUP3 MSTORE POP POP JUMP JUMPDEST PUSH1 0x0 PUSH1 0x20 DUP3 ADD SWAP1 POP PUSH2 0xC58 PUSH1 0x0 DUP4 ADD DUP5 PUSH2 0xC34 JUMP JUMPDEST SWAP3 SWAP2 POP POP JUMP JUMPDEST PUSH1 0x0 DUP2 MLOAD SWAP1 POP PUSH2 0xC6D DUP2 PUSH2 0x8E7 JUMP JUMPDEST SWAP3 SWAP2 POP POP JUMP JUMPDEST PUSH1 0x0 PUSH1 0x20 DUP3 DUP5 SUB SLT ISZERO PUSH2 0xC89 JUMPI PUSH2 0xC88 PUSH2 0x674 JUMP JUMPDEST JUMPDEST PUSH1 0x0 PUSH2 0xC97 DUP5 DUP3 DUP6 ADD PUSH2 0xC5E JUMP JUMPDEST SWAP2 POP POP SWAP3 SWAP2 POP POP JUMP JUMPDEST PUSH1 0x0 PUSH8 0xFFFFFFFFFFFFFFFF DUP3 GT ISZERO PUSH2 0xCBB JUMPI PUSH2 0xCBA PUSH2 0x699 JUMP JUMPDEST JUMPDEST PUSH1 0x20 DUP3 MUL SWAP1 POP PUSH1 0x20 DUP2 ADD SWAP1 POP SWAP2 SWAP1 POP JUMP JUMPDEST PUSH1 0x0 DUP1 REVERT JUMPDEST PUSH1 0x0 PUSH2 0xCE4 PUSH2 0xCDF DUP5 PUSH2 0xCA0 JUMP JUMPDEST PUSH2 0x6F9 JUMP JUMPDEST SWAP1 POP DUP1 DUP4 DUP3 MSTORE PUSH1 0x20 DUP3 ADD SWAP1 POP PUSH1 0x20 DUP5 MUL DUP4 ADD DUP6 DUP2 GT ISZERO PUSH2 0xD07 JUMPI PUSH2 0xD06 PUSH2 0xCCC JUMP JUMPDEST JUMPDEST DUP4 JUMPDEST DUP2 DUP2 LT ISZERO PUSH2 0xD30 JUMPI DUP1 PUSH2 0xD1C DUP9 DUP3 PUSH2 0xC5E JUMP JUMPDEST DUP5 MSTORE PUSH1 0x20 DUP5 ADD SWAP4 POP POP PUSH1 0x20 DUP2 ADD SWAP1 POP PUSH2 0xD09 JUMP JUMPDEST POP POP POP SWAP4 SWAP3 POP POP POP JUMP JUMPDEST PUSH1 0x0 DUP3 PUSH1 0x1F DUP4 ADD SLT PUSH2 0xD4F JUMPI PUSH2 0xD4E PUSH2 0x67E JUMP JUMPDEST JUMPDEST DUP2 MLOAD PUSH2 0xD5F DUP5 DUP3 PUSH1 0x20 DUP7 ADD PUSH2 0xCD1 JUMP JUMPDEST SWAP2 POP POP SWAP3 SWAP2 POP POP JUMP JUMPDEST PUSH1 0x0 PUSH1 0x20 DUP3 DUP5 SUB SLT ISZERO PUSH2 0xD7E JUMPI PUSH2 0xD7D PUSH2 0x674 JUMP JUMPDEST JUMPDEST PUSH1 0x0 DUP3 ADD MLOAD PUSH8 0xFFFFFFFFFFFFFFFF DUP2 GT ISZERO PUSH2 0xD9C JUMPI PUSH2 0xD9B PUSH2 0x679 JUMP JUMPDEST JUMPDEST PUSH2 0xDA8 DUP5 DUP3 DUP6 ADD PUSH2 0xD3A JUMP JUMPDEST SWAP2 POP POP SWAP3 SWAP2 POP POP JUMP JUMPDEST PUSH32 0x4E487B7100000000000000000000000000000000000000000000000000000000 PUSH1 0x0 MSTORE PUSH1 0x32 PUSH1 0x4 MSTORE PUSH1 0x24 PUSH1 0x0 REVERT JUMPDEST PUSH32 0x4E487B7100000000000000000000000000000000000000000000000000000000 PUSH1 0x0 MSTORE PUSH1 0x11 PUSH1 0x4 MSTORE PUSH1 0x24 PUSH1 0x0 REVERT JUMPDEST PUSH1 0x0 PUSH2 0xE1A DUP3 PUSH2 0x8DD JUMP JUMPDEST SWAP2 POP PUSH2 0xE25 DUP4 PUSH2 0x8DD JUMP JUMPDEST SWAP3 POP DUP3 DUP3 ADD SWAP1 POP DUP1 DUP3 GT ISZERO PUSH2 0xE3D JUMPI PUSH2 0xE3C PUSH2 0xDE0 JUMP JUMPDEST JUMPDEST SWAP3 SWAP2 POP POP JUMP JUMPDEST PUSH1 0x0 PUSH2 0xE4E DUP3 PUSH2 0x8DD JUMP JUMPDEST SWAP2 POP PUSH32 0xFFFFFFFFFFFFFFFFFFFFFFFFFFFFFFFFFFFFFFFFFFFFFFFFFFFFFFFFFFFFFFFF DUP3 SUB PUSH2 0xE80 JUMPI PUSH2 0xE7F PUSH2 0xDE0 JUMP JUMPDEST JUMPDEST PUSH1 0x1 DUP3 ADD SWAP1 POP SWAP2 SWAP1 POP JUMP JUMPDEST PUSH1 0x0 DUP2 MLOAD SWAP1 POP SWAP2 SWAP1 POP JUMP JUMPDEST PUSH1 0x0 DUP2 SWAP1 POP SWAP3 SWAP2 POP POP JUMP JUMPDEST PUSH1 0x0 DUP2 SWAP1 POP PUSH1 0x20 DUP3 ADD SWAP1 POP SWAP2 SWAP1 POP JUMP JUMPDEST PUSH2 0xEBA DUP2 PUSH2 0x8DD JUMP JUMPDEST DUP3 MSTORE POP POP JUMP JUMPDEST PUSH1 0x0 PUSH2 0xECC DUP4 DUP4 PUSH2 0xEB1 JUMP JUMPDEST PUSH1 0x20 DUP4 ADD SWAP1 POP SWAP3 SWAP2 POP POP JUMP JUMPDEST PUSH1 0x0 PUSH1 0x20 DUP3 ADD SWAP1 POP SWAP2 SWAP1 POP JUMP JUMPDEST PUSH1 0x0 PUSH2 0xEF0 DUP3 PUSH2 0xE8B JUMP JUMPDEST PUSH2 0xEFA DUP2 DUP6 PUSH2 0xE96 JUMP JUMPDEST SWAP4 POP PUSH2 0xF05 DUP4 PUSH2 0xEA1 JUMP JUMPDEST DUP1 PUSH1 0x0 JUMPDEST DUP4 DUP2 LT ISZERO PUSH2 0xF36 JUMPI DUP2 MLOAD PUSH2 0xF1D DUP9 DUP3 PUSH2 0xEC0 JUMP JUMPDEST SWAP8 POP PUSH2 0xF28 DUP4 PUSH2 0xED8 JUMP JUMPDEST SWAP3 POP POP PUSH1 0x1 DUP2 ADD SWAP1 POP PUSH2 0xF09 JUMP JUMPDEST POP DUP6 SWAP4 POP POP POP POP SWAP3 SWAP2 POP POP JUMP JUMPDEST PUSH1 0x0 PUSH2 0xF4F DUP3 DUP5 PUSH2 0xEE5 JUMP JUMPDEST SWAP2 POP DUP2 SWAP1 POP SWAP3 SWAP2 POP POP JUMP JUMPDEST PUSH1 0x0 PUSH2 0xF66 DUP3 DUP7 PUSH2 0xBEB JUMP JUMPDEST PUSH1 0x20 DUP3 ADD SWAP2 POP PUSH2 0xF76 DUP3 DUP6 PUSH2 0xBEB JUMP JUMPDEST PUSH1 0x20 DUP3 ADD SWAP2 POP PUSH2 0xF86 DUP3 DUP5 PUSH2 0xBEB JUMP JUMPDEST PUSH1 0x20 DUP3 ADD SWAP2 POP DUP2 SWAP1 POP SWAP5 SWAP4 POP POP POP POP JUMP JUMPDEST PUSH1 0x0 DUP1 PUSH1 0x0 PUSH1 0x60 DUP5 DUP7 SUB SLT ISZERO PUSH2 0xFB0 JUMPI PUSH2 0xFAF PUSH2 0x674 JUMP JUMPDEST JUMPDEST PUSH1 0x0 PUSH2 0xFBE DUP7 DUP3 DUP8 ADD PUSH2 0xC5E JUMP JUMPDEST SWAP4 POP POP PUSH1 0x20 PUSH2 0xFCF DUP7 DUP3 DUP8 ADD PUSH2 0xC5E JUMP JUMPDEST SWAP3 POP POP PUSH1 0x40 PUSH2 0xFE0 DUP7 DUP3 DUP8 ADD PUSH2 0xC5E JUMP JUMPDEST SWAP2 POP POP SWAP3 POP SWAP3 POP SWAP3 JUMP JUMPDEST PUSH32 0x686F757273200000000000000000000000000000000000000000000000000000 PUSH1 0x0 DUP3 ADD MSTORE POP JUMP JUMPDEST PUSH1 0x0 PUSH2 0x1020 PUSH1 0x6 DUP4 PUSH2 0xB06 JUMP JUMPDEST SWAP2 POP PUSH2 0x102B DUP3 PUSH2 0xFEA JUMP JUMPDEST PUSH1 0x6 DUP3 ADD SWAP1 POP SWAP2 SWAP1 POP JUMP JUMPDEST PUSH32 0x6D696E7574657320000000000000000000000000000000000000000000000000 PUSH1 0x0 DUP3 ADD MSTORE POP JUMP JUMPDEST PUSH1 0x0 PUSH2 0x106C PUSH1 0x8 DUP4 PUSH2 0xB06 JUMP JUMPDEST SWAP2 POP PUSH2 0x1077 DUP3 PUSH2 0x1036 JUMP JUMPDEST PUSH1 0x8 DUP3 ADD SWAP1 POP SWAP2 SWAP1 POP JUMP JUMPDEST PUSH32 0x7365636F6E647300000000000000000000000000000000000000000000000000 PUSH1 0x0 DUP3 ADD MSTORE POP JUMP JUMPDEST PUSH1 0x0 PUSH2 0x10B8 PUSH1 0x7 DUP4 PUSH2 0xB06 JUMP JUMPDEST SWAP2 POP PUSH2 0x10C3 DUP3 PUSH2 0x1082 JUMP JUMPDEST PUSH1 0x7 DUP3 ADD SWAP1 POP SWAP2 SWAP1 POP JUMP JUMPDEST PUSH1 0x0 PUSH2 0x10DA DUP3 DUP7 PUSH2 0xB11 JUMP JUMPDEST SWAP2 POP PUSH2 0x10E5 DUP3 PUSH2 0x1013 JUMP JUMPDEST SWAP2 POP PUSH2 0x10F1 DUP3 DUP6 PUSH2 0xB11 JUMP JUMPDEST SWAP2 POP PUSH2 0x10FC DUP3 PUSH2 0x105F JUMP JUMPDEST SWAP2 POP PUSH2 0x1108 DUP3 DUP5 PUSH2 0xB11 JUMP JUMPDEST SWAP2 POP PUSH2 0x1113 DUP3 PUSH2 0x10AB JUMP JUMPDEST SWAP2 POP DUP2 SWAP1 POP SWAP5 SWAP4 POP POP POP POP JUMP JUMPDEST PUSH1 0x0 PUSH2 0x112C DUP3 DUP7 PUSH2 0xBEB JUMP JUMPDEST PUSH1 0x20 DUP3 ADD SWAP2 POP PUSH2 0x113C DUP3 DUP6 PUSH2 0xB11 JUMP JUMPDEST SWAP2 POP PUSH2 0x1148 DUP3 DUP5 PUSH2 0xB11 JUMP JUMPDEST SWAP2 POP DUP2 SWAP1 POP SWAP5 SWAP4 POP POP POP POP JUMP INVALID LOG2 PUSH5 0x6970667358 0x22 SLT KECCAK256 0xA5 0xC2 0xCA BLOCKHASH 0xAC 0x25 PUSH2 0x1BF JUMP 0xE8 0xF9 0x4F SIGNEXTEND 0xD2 PREVRANDAO CALLER 0xBB STATICCALL 0xC1 0xBA 0x4A 0xAF 0xB4 SWAP1 0x4B SWAP13 LOG1 0xCD SWAP8 0xCA DUP11 PUSH5 0x736F6C6343 STOP ADDMOD SLT STOP CALLER PUSH1 0x80 PUSH1 0x40 MSTORE CALLVALUE DUP1 ISZERO PUSH2 0x10 JUMPI PUSH1 0x0 DUP1 REVERT JUMPDEST POP PUSH2 0x647 DUP1 PUSH2 0x20 PUSH1 0x0 CODECOPY PUSH1 0x0 RETURN INVALID PUSH1 0x80 PUSH1 0x40 MSTORE CALLVALUE DUP1 ISZERO PUSH2 0x10 JUMPI PUSH1 0x0 DUP1 REVERT JUMPDEST POP PUSH1 0x4 CALLDATASIZE LT PUSH2 0x36 JUMPI PUSH1 0x0 CALLDATALOAD PUSH1 0xE0 SHR DUP1 PUSH4 0x986E647 EQ PUSH2 0x3B JUMPI DUP1 PUSH4 0x2AC45D9C EQ PUSH2 0x6B JUMPI JUMPDEST PUSH1 0x0 DUP1 REVERT JUMPDEST PUSH2 0x55 PUSH1 0x4 DUP1 CALLDATASIZE SUB DUP2 ADD SWAP1 PUSH2 0x50 SWAP2 SWAP1 PUSH2 0x1CD JUMP JUMPDEST PUSH2 0x9B JUMP JUMPDEST PUSH1 0x40 MLOAD PUSH2 0x62 SWAP2 SWAP1 PUSH2 0x209 JUMP JUMPDEST PUSH1 0x40 MLOAD DUP1 SWAP2 SUB SWAP1 RETURN JUMPDEST PUSH2 0x85 PUSH1 0x4 DUP1 CALLDATASIZE SUB DUP2 ADD SWAP1 PUSH2 0x80 SWAP2 SWAP1 PUSH2 0x1CD JUMP JUMPDEST PUSH2 0xCF JUMP JUMPDEST PUSH1 0x40 MLOAD PUSH2 0x92 SWAP2 SWAP1 PUSH2 0x2E2 JUMP JUMPDEST PUSH1 0x40 MLOAD DUP1 SWAP2 SUB SWAP1 RETURN JUMPDEST PUSH1 0x0 DUP1 JUMPDEST DUP1 PUSH1 0xA PUSH2 0xAC SWAP2 SWAP1 PUSH2 0x466 JUMP JUMPDEST DUP4 GT ISZERO PUSH2 0xC6 JUMPI DUP1 DUP1 PUSH2 0xBE SWAP1 PUSH2 0x4B1 JUMP JUMPDEST SWAP2 POP POP PUSH2 0x9F JUMP JUMPDEST DUP1 SWAP2 POP POP SWAP2 SWAP1 POP JUMP JUMPDEST PUSH1 0x60 PUSH1 0x0 PUSH2 0xDC DUP4 PUSH2 0x9B JUMP JUMPDEST PUSH8 0xFFFFFFFFFFFFFFFF DUP2 GT ISZERO PUSH2 0xF5 JUMPI PUSH2 0xF4 PUSH2 0x4F9 JUMP JUMPDEST JUMPDEST PUSH1 0x40 MLOAD SWAP1 DUP1 DUP3 MSTORE DUP1 PUSH1 0x20 MUL PUSH1 0x20 ADD DUP3 ADD PUSH1 0x40 MSTORE DUP1 ISZERO PUSH2 0x123 JUMPI DUP2 PUSH1 0x20 ADD PUSH1 0x20 DUP3 MUL DUP1 CALLDATASIZE DUP4 CALLDATACOPY DUP1 DUP3 ADD SWAP2 POP POP SWAP1 POP JUMPDEST POP SWAP1 POP PUSH1 0x0 PUSH2 0x131 DUP5 PUSH2 0x9B JUMP JUMPDEST SWAP1 POP JUMPDEST PUSH1 0x0 DUP5 EQ PUSH2 0x188 JUMPI PUSH1 0xA DUP5 PUSH2 0x149 SWAP2 SWAP1 PUSH2 0x557 JUMP JUMPDEST DUP3 DUP3 PUSH2 0x154 SWAP1 PUSH2 0x588 JUMP JUMPDEST SWAP3 POP DUP3 DUP2 MLOAD DUP2 LT PUSH2 0x168 JUMPI PUSH2 0x167 PUSH2 0x5B1 JUMP JUMPDEST JUMPDEST PUSH1 0x20 MUL PUSH1 0x20 ADD ADD DUP2 DUP2 MSTORE POP POP PUSH1 0xA DUP5 PUSH2 0x181 SWAP2 SWAP1 PUSH2 0x5E0 JUMP JUMPDEST SWAP4 POP PUSH2 0x134 JUMP JUMPDEST DUP2 SWAP3 POP POP POP SWAP2 SWAP1 POP JUMP JUMPDEST PUSH1 0x0 DUP1 REVERT JUMPDEST PUSH1 0x0 DUP2 SWAP1 POP SWAP2 SWAP1 POP JUMP JUMPDEST PUSH2 0x1AA DUP2 PUSH2 0x197 JUMP JUMPDEST DUP2 EQ PUSH2 0x1B5 JUMPI PUSH1 0x0 DUP1 REVERT JUMPDEST POP JUMP JUMPDEST PUSH1 0x0 DUP2 CALLDATALOAD SWAP1 POP PUSH2 0x1C7 DUP2 PUSH2 0x1A1 JUMP JUMPDEST SWAP3 SWAP2 POP POP JUMP JUMPDEST PUSH1 0x0 PUSH1 0x20 DUP3 DUP5 SUB SLT ISZERO PUSH2 0x1E3 JUMPI PUSH2 0x1E2 PUSH2 0x192 JUMP JUMPDEST JUMPDEST PUSH1 0x0 PUSH2 0x1F1 DUP5 DUP3 DUP6 ADD PUSH2 0x1B8 JUMP JUMPDEST SWAP2 POP POP SWAP3 SWAP2 POP POP JUMP JUMPDEST PUSH2 0x203 DUP2 PUSH2 0x197 JUMP JUMPDEST DUP3 MSTORE POP POP JUMP JUMPDEST PUSH1 0x0 PUSH1 0x20 DUP3 ADD SWAP1 POP PUSH2 0x21E PUSH1 0x0 DUP4 ADD DUP5 PUSH2 0x1FA JUMP JUMPDEST SWAP3 SWAP2 POP POP JUMP JUMPDEST PUSH1 0x0 DUP2 MLOAD SWAP1 POP SWAP2 SWAP1 POP JUMP JUMPDEST PUSH1 0x0 DUP3 DUP3 MSTORE PUSH1 0x20 DUP3 ADD SWAP1 POP SWAP3 SWAP2 POP POP JUMP JUMPDEST PUSH1 0x0 DUP2 SWAP1 POP PUSH1 0x20 DUP3 ADD SWAP1 POP SWAP2 SWAP1 POP JUMP JUMPDEST PUSH2 0x259 DUP2 PUSH2 0x197 JUMP JUMPDEST DUP3 MSTORE POP POP JUMP JUMPDEST PUSH1 0x0 PUSH2 0x26B DUP4 DUP4 PUSH2 0x250 JUMP JUMPDEST PUSH1 0x20 DUP4 ADD SWAP1 POP SWAP3 SWAP2 POP POP JUMP JUMPDEST PUSH1 0x0 PUSH1 0x20 DUP3 ADD SWAP1 POP SWAP2 SWAP1 POP JUMP JUMPDEST PUSH1 0x0 PUSH2 0x28F DUP3 PUSH2 0x224 JUMP JUMPDEST PUSH2 0x299 DUP2 DUP6 PUSH2 0x22F JUMP JUMPDEST SWAP4 POP PUSH2 0x2A4 DUP4 PUSH2 0x240 JUMP JUMPDEST DUP1 PUSH1 0x0 JUMPDEST DUP4 DUP2 LT ISZERO PUSH2 0x2D5 JUMPI DUP2 MLOAD PUSH2 0x2BC DUP9 DUP3 PUSH2 0x25F JUMP JUMPDEST SWAP8 POP PUSH2 0x2C7 DUP4 PUSH2 0x277 JUMP JUMPDEST SWAP3 POP POP PUSH1 0x1 DUP2 ADD SWAP1 POP PUSH2 0x2A8 JUMP JUMPDEST POP DUP6 SWAP4 POP POP POP POP SWAP3 SWAP2 POP POP JUMP JUMPDEST PUSH1 0x0 PUSH1 0x20 DUP3 ADD SWAP1 POP DUP2 DUP2 SUB PUSH1 0x0 DUP4 ADD MSTORE PUSH2 0x2FC DUP2 DUP5 PUSH2 0x284 JUMP JUMPDEST SWAP1 POP SWAP3 SWAP2 POP POP JUMP JUMPDEST PUSH32 0x4E487B7100000000000000000000000000000000000000000000000000000000 PUSH1 0x0 MSTORE PUSH1 0x11 PUSH1 0x4 MSTORE PUSH1 0x24 PUSH1 0x0 REVERT JUMPDEST PUSH1 0x0 DUP2 PUSH1 0x1 SHR SWAP1 POP SWAP2 SWAP1 POP JUMP JUMPDEST PUSH1 0x0 DUP1 DUP3 SWAP2 POP DUP4 SWAP1 POP JUMPDEST PUSH1 0x1 DUP6 GT ISZERO PUSH2 0x38A JUMPI DUP1 DUP7 DIV DUP2 GT ISZERO PUSH2 0x366 JUMPI PUSH2 0x365 PUSH2 0x304 JUMP JUMPDEST JUMPDEST PUSH1 0x1 DUP6 AND ISZERO PUSH2 0x375 JUMPI DUP1 DUP3 MUL SWAP2 POP JUMPDEST DUP1 DUP2 MUL SWAP1 POP PUSH2 0x383 DUP6 PUSH2 0x333 JUMP JUMPDEST SWAP5 POP PUSH2 0x34A JUMP JUMPDEST SWAP5 POP SWAP5 SWAP3 POP POP POP JUMP JUMPDEST PUSH1 0x0 DUP3 PUSH2 0x3A3 JUMPI PUSH1 0x1 SWAP1 POP PUSH2 0x45F JUMP JUMPDEST DUP2 PUSH2 0x3B1 JUMPI PUSH1 0x0 SWAP1 POP PUSH2 0x45F JUMP JUMPDEST DUP2 PUSH1 0x1 DUP2 EQ PUSH2 0x3C7 JUMPI PUSH1 0x2 DUP2 EQ PUSH2 0x3D1 JUMPI PUSH2 0x400 JUMP JUMPDEST PUSH1 0x1 SWAP2 POP POP PUSH2 0x45F JUMP JUMPDEST PUSH1 0xFF DUP5 GT ISZERO PUSH2 0x3E3 JUMPI PUSH2 0x3E2 PUSH2 0x304 JUMP JUMPDEST JUMPDEST DUP4 PUSH1 0x2 EXP SWAP2 POP DUP5 DUP3 GT ISZERO PUSH2 0x3FA JUMPI PUSH2 0x3F9 PUSH2 0x304 JUMP JUMPDEST JUMPDEST POP PUSH2 0x45F JUMP JUMPDEST POP PUSH1 0x20 DUP4 LT PUSH2 0x133 DUP4 LT AND PUSH1 0x4E DUP5 LT PUSH1 0xB DUP5 LT AND OR ISZERO PUSH2 0x435 JUMPI DUP3 DUP3 EXP SWAP1 POP DUP4 DUP2 GT ISZERO PUSH2 0x430 JUMPI PUSH2 0x42F PUSH2 0x304 JUMP JUMPDEST JUMPDEST PUSH2 0x45F JUMP JUMPDEST PUSH2 0x442 DUP5 DUP5 DUP5 PUSH1 0x1 PUSH2 0x340 JUMP JUMPDEST SWAP3 POP SWAP1 POP DUP2 DUP5 DIV DUP2 GT ISZERO PUSH2 0x459 JUMPI PUSH2 0x458 PUSH2 0x304 JUMP JUMPDEST JUMPDEST DUP2 DUP2 MUL SWAP1 POP JUMPDEST SWAP4 SWAP3 POP POP POP JUMP JUMPDEST PUSH1 0x0 PUSH2 0x471 DUP3 PUSH2 0x197 JUMP JUMPDEST SWAP2 POP PUSH2 0x47C DUP4 PUSH2 0x197 JUMP JUMPDEST SWAP3 POP PUSH2 0x4A9 PUSH32 0xFFFFFFFFFFFFFFFFFFFFFFFFFFFFFFFFFFFFFFFFFFFFFFFFFFFFFFFFFFFFFFFF DUP5 DUP5 PUSH2 0x393 JUMP JUMPDEST SWAP1 POP SWAP3 SWAP2 POP POP JUMP JUMPDEST PUSH1 0x0 PUSH2 0x4BC DUP3 PUSH2 0x197 JUMP JUMPDEST SWAP2 POP PUSH32 0xFFFFFFFFFFFFFFFFFFFFFFFFFFFFFFFFFFFFFFFFFFFFFFFFFFFFFFFFFFFFFFFF DUP3 SUB PUSH2 0x4EE JUMPI PUSH2 0x4ED PUSH2 0x304 JUMP JUMPDEST JUMPDEST PUSH1 0x1 DUP3 ADD SWAP1 POP SWAP2 SWAP1 POP JUMP JUMPDEST PUSH32 0x4E487B7100000000000000000000000000000000000000000000000000000000 PUSH1 0x0 MSTORE PUSH1 0x41 PUSH1 0x4 MSTORE PUSH1 0x24 PUSH1 0x0 REVERT JUMPDEST PUSH32 0x4E487B7100000000000000000000000000000000000000000000000000000000 PUSH1 0x0 MSTORE PUSH1 0x12 PUSH1 0x4 MSTORE PUSH1 0x24 PUSH1 0x0 REVERT JUMPDEST PUSH1 0x0 PUSH2 0x562 DUP3 PUSH2 0x197 JUMP JUMPDEST SWAP2 POP PUSH2 0x56D DUP4 PUSH2 0x197 JUMP JUMPDEST SWAP3 POP DUP3 PUSH2 0x57D JUMPI PUSH2 0x57C PUSH2 0x528 JUMP JUMPDEST JUMPDEST DUP3 DUP3 MOD SWAP1 POP SWAP3 SWAP2 POP POP JUMP JUMPDEST PUSH1 0x0 PUSH2 0x593 DUP3 PUSH2 0x197 JUMP JUMPDEST SWAP2 POP PUSH1 0x0 DUP3 SUB PUSH2 0x5A6 JUMPI PUSH2 0x5A5 PUSH2 0x304 JUMP JUMPDEST JUMPDEST PUSH1 0x1 DUP3 SUB SWAP1 POP SWAP2 SWAP1 POP JUMP JUMPDEST PUSH32 0x4E487B7100000000000000000000000000000000000000000000000000000000 PUSH1 0x0 MSTORE PUSH1 0x32 PUSH1 0x4 MSTORE PUSH1 0x24 PUSH1 0x0 REVERT JUMPDEST PUSH1 0x0 PUSH2 0x5EB DUP3 PUSH2 0x197 JUMP JUMPDEST SWAP2 POP PUSH2 0x5F6 DUP4 PUSH2 0x197 JUMP JUMPDEST SWAP3 POP DUP3 PUSH2 0x606 JUMPI PUSH2 0x605 PUSH2 0x528 JUMP JUMPDEST JUMPDEST DUP3 DUP3 DIV SWAP1 POP SWAP3 SWAP2 POP POP JUMP INVALID LOG2 PUSH5 0x6970667358 0x22 SLT KECCAK256 MULMOD DUP8 0x29 JUMP XOR NOT GT INVALID PUSH8 0x841159E1C5414AFD SWAP6 CALLDATASIZE 0xC3 0x1E 0x29 0xD1 DUP14 SWAP5 RETURNDATASIZE 0xCB 0x26 0xF PUSH7 0x89D464736F6C63 NUMBER STOP ADDMOD SLT STOP CALLER PUSH1 0x80 PUSH1 0x40 MSTORE CALLVALUE DUP1 ISZERO PUSH2 0x10 JUMPI PUSH1 0x0 DUP1 REVERT JUMPDEST POP PUSH2 0x22C DUP1 PUSH2 0x20 PUSH1 0x0 CODECOPY PUSH1 0x0 RETURN INVALID PUSH1 0x80 PUSH1 0x40 MSTORE CALLVALUE DUP1 ISZERO PUSH2 0x10 JUMPI PUSH1 0x0 DUP1 REVERT JUMPDEST POP PUSH1 0x4 CALLDATASIZE LT PUSH2 0x2B JUMPI PUSH1 0x0 CALLDATALOAD PUSH1 0xE0 SHR DUP1 PUSH4 0xDB7BCD08 EQ PUSH2 0x30 JUMPI JUMPDEST PUSH1 0x0 DUP1 REVERT JUMPDEST PUSH2 0x4A PUSH1 0x4 DUP1 CALLDATASIZE SUB DUP2 ADD SWAP1 PUSH2 0x45 SWAP2 SWAP1 PUSH2 0xF2 JUMP JUMPDEST PUSH2 0x62 JUMP JUMPDEST PUSH1 0x40 MLOAD PUSH2 0x59 SWAP4 SWAP3 SWAP2 SWAP1 PUSH2 0x12E JUMP JUMPDEST PUSH1 0x40 MLOAD DUP1 SWAP2 SUB SWAP1 RETURN JUMPDEST PUSH1 0x0 DUP1 PUSH1 0x0 DUP1 PUSH1 0x0 DUP1 PUSH2 0xE10 DUP8 PUSH2 0x79 SWAP2 SWAP1 PUSH2 0x194 JUMP JUMPDEST SWAP3 POP PUSH1 0x3C DUP1 DUP9 PUSH2 0x89 SWAP2 SWAP1 PUSH2 0x194 JUMP JUMPDEST PUSH2 0x93 SWAP2 SWAP1 PUSH2 0x1C5 JUMP JUMPDEST SWAP2 POP PUSH1 0x3C DUP8 PUSH2 0xA2 SWAP2 SWAP1 PUSH2 0x1C5 JUMP JUMPDEST SWAP1 POP DUP3 DUP3 DUP3 SWAP6 POP SWAP6 POP SWAP6 POP POP POP POP SWAP2 SWAP4 SWAP1 SWAP3 POP JUMP JUMPDEST PUSH1 0x0 DUP1 REVERT JUMPDEST PUSH1 0x0 DUP2 SWAP1 POP SWAP2 SWAP1 POP JUMP JUMPDEST PUSH2 0xCF DUP2 PUSH2 0xBC JUMP JUMPDEST DUP2 EQ PUSH2 0xDA JUMPI PUSH1 0x0 DUP1 REVERT JUMPDEST POP JUMP JUMPDEST PUSH1 0x0 DUP2 CALLDATALOAD SWAP1 POP PUSH2 0xEC DUP2 PUSH2 0xC6 JUMP JUMPDEST SWAP3 SWAP2 POP POP JUMP JUMPDEST PUSH1 0x0 PUSH1 0x20 DUP3 DUP5 SUB SLT ISZERO PUSH2 0x108 JUMPI PUSH2 0x107 PUSH2 0xB7 JUMP JUMPDEST JUMPDEST PUSH1 0x0 PUSH2 0x116 DUP5 DUP3 DUP6 ADD PUSH2 0xDD JUMP JUMPDEST SWAP2 POP POP SWAP3 SWAP2 POP POP JUMP JUMPDEST PUSH2 0x128 DUP2 PUSH2 0xBC JUMP JUMPDEST DUP3 MSTORE POP POP JUMP JUMPDEST PUSH1 0x0 PUSH1 0x60 DUP3 ADD SWAP1 POP PUSH2 0x143 PUSH1 0x0 DUP4 ADD DUP7 PUSH2 0x11F JUMP JUMPDEST PUSH2 0x150 PUSH1 0x20 DUP4 ADD DUP6 PUSH2 0x11F JUMP JUMPDEST PUSH2 0x15D PUSH1 0x40 DUP4 ADD DUP5 PUSH2 0x11F JUMP JUMPDEST SWAP5 SWAP4 POP POP POP POP JUMP JUMPDEST PUSH32 0x4E487B7100000000000000000000000000000000000000000000000000000000 PUSH1 0x0 MSTORE PUSH1 0x12 PUSH1 0x4 MSTORE PUSH1 0x24 PUSH1 0x0 REVERT JUMPDEST PUSH1 0x0 PUSH2 0x19F DUP3 PUSH2 0xBC JUMP JUMPDEST SWAP2 POP PUSH2 0x1AA DUP4 PUSH2 0xBC JUMP JUMPDEST SWAP3 POP DUP3 PUSH2 0x1BA JUMPI PUSH2 0x1B9 PUSH2 0x165 JUMP JUMPDEST JUMPDEST DUP3 DUP3 DIV SWAP1 POP SWAP3 SWAP2 POP POP JUMP JUMPDEST PUSH1 0x0 PUSH2 0x1D0 DUP3 PUSH2 0xBC JUMP JUMPDEST SWAP2 POP PUSH2 0x1DB DUP4 PUSH2 0xBC JUMP JUMPDEST SWAP3 POP DUP3 PUSH2 0x1EB JUMPI PUSH2 0x1EA PUSH2 0x165 JUMP JUMPDEST JUMPDEST DUP3 DUP3 MOD SWAP1 POP SWAP3 SWAP2 POP POP JUMP INVALID LOG2 PUSH5 0x6970667358 0x22 SLT KECCAK256 SWAP3 SWAP12 SWAP14 XOR SWAP13 0x28 DUP12 0xB5 0xEA 0xE7 0xED PUSH32 0xDA063005F5644C4A3907D3EA9B265468BCD108CE64736F6C6343000812003300 "
				},
				"gasEstimates": {
					"creation": {
						"codeDepositCost": "898200",
						"executionCost": "infinite",
						"totalCost": "infinite"
					},
					"external": {
						"concat1(string,string)": "infinite",
						"concat2(string,string)": "infinite",
						"concat3(uint256,string,string)": "infinite",
						"concat4(uint256,uint256,uint256)": "infinite",
						"concat5(uint256)": "infinite",
						"concat6(uint256,string)": "infinite",
						"concat7(uint256)": "infinite",
						"returnEncodePacked(uint256,string)": "infinite"
					}
				},
				"methodIdentifiers": {
					"concat1(string,string)": "3d9799b4",
					"concat2(string,string)": "252a1437",
					"concat3(uint256,string,string)": "d52f327d",
					"concat4(uint256,uint256,uint256)": "bcbdef66",
					"concat5(uint256)": "a8e61fb5",
					"concat6(uint256,string)": "4d41902c",
					"concat7(uint256)": "d51298b3",
					"returnEncodePacked(uint256,string)": "68677523"
				}
			},
			"storageLayout": {
				"storage": [
					{
						"astId": 176,
						"contract": "contracts/0522/Quiz.sol:CONCAT",
						"label": "q5",
						"offset": 0,
						"slot": "0",
						"type": "t_contract(Q5)379"
					},
					{
						"astId": 183,
						"contract": "contracts/0522/Quiz.sol:CONCAT",
						"label": "q7",
						"offset": 0,
						"slot": "1",
						"type": "t_contract(Quiz)48"
					}
				],
				"types": {
					"t_contract(Q5)379": {
						"encoding": "inplace",
						"label": "contract Q5",
						"numberOfBytes": "20"
					},
					"t_contract(Quiz)48": {
						"encoding": "inplace",
						"label": "contract Quiz",
						"numberOfBytes": "20"
					}
				}
			},
			"userdoc": {
				"kind": "user",
				"methods": {},
				"version": 1
			}
		}
	}
}