{
	"contracts/0518/Quiz-2.sol": {
		"Q6": {
			"abi": [
				{
					"inputs": [],
					"name": "count",
					"outputs": [
						{
							"internalType": "uint256",
							"name": "",
							"type": "uint256"
						}
					],
					"stateMutability": "view",
					"type": "function"
				},
				{
					"inputs": [
						{
							"internalType": "string",
							"name": "_title",
							"type": "string"
						}
					],
					"name": "finishPoll",
					"outputs": [],
					"stateMutability": "nonpayable",
					"type": "function"
				},
				{
					"inputs": [
						{
							"internalType": "string",
							"name": "_title",
							"type": "string"
						}
					],
					"name": "getPoll",
					"outputs": [
						{
							"components": [
								{
									"internalType": "uint256",
									"name": "number",
									"type": "uint256"
								},
								{
									"internalType": "string",
									"name": "title",
									"type": "string"
								},
								{
									"internalType": "string",
									"name": "context",
									"type": "string"
								},
								{
									"internalType": "address",
									"name": "by",
									"type": "address"
								},
								{
									"internalType": "uint256",
									"name": "time",
									"type": "uint256"
								},
								{
									"internalType": "uint256",
									"name": "pros",
									"type": "uint256"
								},
								{
									"internalType": "uint256",
									"name": "cons",
									"type": "uint256"
								},
								{
									"internalType": "enum Q6.pollStatus",
									"name": "status",
									"type": "uint8"
								}
							],
							"internalType": "struct Q6.poll",
							"name": "",
							"type": "tuple"
						}
					],
					"stateMutability": "view",
					"type": "function"
				},
				{
					"inputs": [
						{
							"internalType": "string",
							"name": "",
							"type": "string"
						}
					],
					"name": "polls",
					"outputs": [
						{
							"internalType": "uint256",
							"name": "number",
							"type": "uint256"
						},
						{
							"internalType": "string",
							"name": "title",
							"type": "string"
						},
						{
							"internalType": "string",
							"name": "context",
							"type": "string"
						},
						{
							"internalType": "address",
							"name": "by",
							"type": "address"
						},
						{
							"internalType": "uint256",
							"name": "time",
							"type": "uint256"
						},
						{
							"internalType": "uint256",
							"name": "pros",
							"type": "uint256"
						},
						{
							"internalType": "uint256",
							"name": "cons",
							"type": "uint256"
						},
						{
							"internalType": "enum Q6.pollStatus",
							"name": "status",
							"type": "uint8"
						}
					],
					"stateMutability": "view",
					"type": "function"
				},
				{
					"inputs": [
						{
							"internalType": "string",
							"name": "_name",
							"type": "string"
						}
					],
					"name": "pushUser",
					"outputs": [],
					"stateMutability": "nonpayable",
					"type": "function"
				},
				{
					"inputs": [
						{
							"internalType": "string",
							"name": "_title",
							"type": "string"
						}
					],
					"name": "searchSuggested",
					"outputs": [
						{
							"components": [
								{
									"internalType": "uint256",
									"name": "number",
									"type": "uint256"
								},
								{
									"internalType": "string",
									"name": "title",
									"type": "string"
								},
								{
									"internalType": "string",
									"name": "context",
									"type": "string"
								},
								{
									"internalType": "address",
									"name": "by",
									"type": "address"
								},
								{
									"internalType": "uint256",
									"name": "time",
									"type": "uint256"
								},
								{
									"internalType": "uint256",
									"name": "pros",
									"type": "uint256"
								},
								{
									"internalType": "uint256",
									"name": "cons",
									"type": "uint256"
								},
								{
									"internalType": "enum Q6.pollStatus",
									"name": "status",
									"type": "uint8"
								}
							],
							"internalType": "struct Q6.poll",
							"name": "",
							"type": "tuple"
						}
					],
					"stateMutability": "view",
					"type": "function"
				},
				{
					"inputs": [
						{
							"internalType": "string",
							"name": "_title",
							"type": "string"
						},
						{
							"internalType": "string",
							"name": "_context",
							"type": "string"
						}
					],
					"name": "suggest",
					"outputs": [],
					"stateMutability": "nonpayable",
					"type": "function"
				},
				{
					"inputs": [
						{
							"internalType": "string",
							"name": "_title",
							"type": "string"
						},
						{
							"internalType": "bool",
							"name": "_vote",
							"type": "bool"
						}
					],
					"name": "vote",
					"outputs": [],
					"stateMutability": "nonpayable",
					"type": "function"
				}
			],
			"devdoc": {
				"kind": "dev",
				"methods": {},
				"version": 1
			},
			"evm": {
				"assembly": "    /* \"contracts/0518/Quiz-2.sol\":1143:4786  contract Q6 {... */\n  mstore(0x40, 0x80)\n  callvalue\n  dup1\n  iszero\n  tag_1\n  jumpi\n  0x00\n  dup1\n  revert\ntag_1:\n  pop\n  dataSize(sub_0)\n  dup1\n  dataOffset(sub_0)\n  0x00\n  codecopy\n  0x00\n  return\nstop\n\nsub_0: assembly {\n        /* \"contracts/0518/Quiz-2.sol\":1143:4786  contract Q6 {... */\n      mstore(0x40, 0x80)\n      callvalue\n      dup1\n      iszero\n      tag_1\n      jumpi\n      0x00\n      dup1\n      revert\n    tag_1:\n      pop\n      jumpi(tag_2, lt(calldatasize, 0x04))\n      shr(0xe0, calldataload(0x00))\n      dup1\n      0x8058316a\n      gt\n      tag_11\n      jumpi\n      dup1\n      0x8058316a\n      eq\n      tag_7\n      jumpi\n      dup1\n      0x9f11aa65\n      eq\n      tag_8\n      jumpi\n      dup1\n      0xcb04bf75\n      eq\n      tag_9\n      jumpi\n      dup1\n      0xf732ac77\n      eq\n      tag_10\n      jumpi\n      jump(tag_2)\n    tag_11:\n      dup1\n      0x06661abd\n      eq\n      tag_3\n      jumpi\n      dup1\n      0x10a688e3\n      eq\n      tag_4\n      jumpi\n      dup1\n      0x27d3410c\n      eq\n      tag_5\n      jumpi\n      dup1\n      0x690e87c8\n      eq\n      tag_6\n      jumpi\n    tag_2:\n      0x00\n      dup1\n      revert\n        /* \"contracts/0518/Quiz-2.sol\":1621:1638  uint public count */\n    tag_3:\n      tag_12\n      tag_13\n      jump\t// in\n    tag_12:\n      mload(0x40)\n      tag_14\n      swap2\n      swap1\n      tag_15\n      jump\t// in\n    tag_14:\n      mload(0x40)\n      dup1\n      swap2\n      sub\n      swap1\n      return\n        /* \"contracts/0518/Quiz-2.sol\":3899:4010  function getPoll(string memory _title) public view returns(poll memory) {... */\n    tag_4:\n      tag_16\n      0x04\n      dup1\n      calldatasize\n      sub\n      dup2\n      add\n      swap1\n      tag_17\n      swap2\n      swap1\n      tag_18\n      jump\t// in\n    tag_17:\n      tag_19\n      jump\t// in\n    tag_16:\n      mload(0x40)\n      tag_20\n      swap2\n      swap1\n      tag_21\n      jump\t// in\n    tag_20:\n      mload(0x40)\n      dup1\n      swap2\n      sub\n      swap1\n      return\n        /* \"contracts/0518/Quiz-2.sol\":2470:3059  function vote(string memory _title, bool _vote) external/*상속받은 애도 못하게*/ IsItUser {... */\n    tag_5:\n      tag_22\n      0x04\n      dup1\n      calldatasize\n      sub\n      dup2\n      add\n      swap1\n      tag_23\n      swap2\n      swap1\n      tag_24\n      jump\t// in\n    tag_23:\n      tag_25\n      jump\t// in\n    tag_22:\n      stop\n        /* \"contracts/0518/Quiz-2.sol\":2159:2294  function pushUser(string memory _name) public {... */\n    tag_6:\n      tag_26\n      0x04\n      dup1\n      calldatasize\n      sub\n      dup2\n      add\n      swap1\n      tag_27\n      swap2\n      swap1\n      tag_18\n      jump\t// in\n    tag_27:\n      tag_28\n      jump\t// in\n    tag_26:\n      stop\n        /* \"contracts/0518/Quiz-2.sol\":1427:1463  mapping(string => poll) public polls */\n    tag_7:\n      tag_29\n      0x04\n      dup1\n      calldatasize\n      sub\n      dup2\n      add\n      swap1\n      tag_30\n      swap2\n      swap1\n      tag_18\n      jump\t// in\n    tag_30:\n      tag_31\n      jump\t// in\n    tag_29:\n      mload(0x40)\n      tag_32\n      swap9\n      swap8\n      swap7\n      swap6\n      swap5\n      swap4\n      swap3\n      swap2\n      swap1\n      tag_33\n      jump\t// in\n    tag_32:\n      mload(0x40)\n      dup1\n      swap2\n      sub\n      swap1\n      return\n        /* \"contracts/0518/Quiz-2.sol\":4244:4783  function finishPoll(string memory _title) external IsItUser {... */\n    tag_8:\n      tag_34\n      0x04\n      dup1\n      calldatasize\n      sub\n      dup2\n      add\n      swap1\n      tag_35\n      swap2\n      swap1\n      tag_18\n      jump\t// in\n    tag_35:\n      tag_36\n      jump\t// in\n    tag_34:\n      stop\n        /* \"contracts/0518/Quiz-2.sol\":3275:3446  function searchSuggested(string calldata _title) public view returns(poll memory) {... */\n    tag_9:\n      tag_37\n      0x04\n      dup1\n      calldatasize\n      sub\n      dup2\n      add\n      swap1\n      tag_38\n      swap2\n      swap1\n      tag_39\n      jump\t// in\n    tag_38:\n      tag_40\n      jump\t// in\n    tag_37:\n      mload(0x40)\n      tag_41\n      swap2\n      swap1\n      tag_21\n      jump\t// in\n    tag_41:\n      mload(0x40)\n      dup1\n      swap2\n      sub\n      swap1\n      return\n        /* \"contracts/0518/Quiz-2.sol\":3537:3739  function suggest(string calldata _title, string calldata _context) public IsItUser {... */\n    tag_10:\n      tag_42\n      0x04\n      dup1\n      calldatasize\n      sub\n      dup2\n      add\n      swap1\n      tag_43\n      swap2\n      swap1\n      tag_44\n      jump\t// in\n    tag_43:\n      tag_45\n      jump\t// in\n    tag_42:\n      stop\n        /* \"contracts/0518/Quiz-2.sol\":1621:1638  uint public count */\n    tag_13:\n      sload(0x01)\n      dup2\n      jump\t// out\n        /* \"contracts/0518/Quiz-2.sol\":3899:4010  function getPoll(string memory _title) public view returns(poll memory) {... */\n    tag_19:\n        /* \"contracts/0518/Quiz-2.sol\":3958:3969  poll memory */\n      tag_46\n      tag_47\n      jump\t// in\n    tag_46:\n        /* \"contracts/0518/Quiz-2.sol\":3989:3994  polls */\n      0x00\n        /* \"contracts/0518/Quiz-2.sol\":3995:4001  _title */\n      dup3\n        /* \"contracts/0518/Quiz-2.sol\":3989:4002  polls[_title] */\n      mload(0x40)\n      tag_49\n      swap2\n      swap1\n      tag_50\n      jump\t// in\n    tag_49:\n      swap1\n      dup2\n      mstore\n      0x20\n      add\n      mload(0x40)\n      dup1\n      swap2\n      sub\n      swap1\n      keccak256\n        /* \"contracts/0518/Quiz-2.sol\":3982:4002  return polls[_title] */\n      mload(0x40)\n      dup1\n      0x0100\n      add\n      0x40\n      mstore\n      swap1\n      dup2\n      0x00\n      dup3\n      add\n      sload\n      dup2\n      mstore\n      0x20\n      add\n      0x01\n      dup3\n      add\n      dup1\n      sload\n      tag_51\n      swap1\n      tag_52\n      jump\t// in\n    tag_51:\n      dup1\n      0x1f\n      add\n      0x20\n      dup1\n      swap2\n      div\n      mul\n      0x20\n      add\n      mload(0x40)\n      swap1\n      dup2\n      add\n      0x40\n      mstore\n      dup1\n      swap3\n      swap2\n      swap1\n      dup2\n      dup2\n      mstore\n      0x20\n      add\n      dup3\n      dup1\n      sload\n      tag_53\n      swap1\n      tag_52\n      jump\t// in\n    tag_53:\n      dup1\n      iszero\n      tag_54\n      jumpi\n      dup1\n      0x1f\n      lt\n      tag_55\n      jumpi\n      0x0100\n      dup1\n      dup4\n      sload\n      div\n      mul\n      dup4\n      mstore\n      swap2\n      0x20\n      add\n      swap2\n      jump(tag_54)\n    tag_55:\n      dup3\n      add\n      swap2\n      swap1\n      0x00\n      mstore\n      keccak256(0x00, 0x20)\n      swap1\n    tag_56:\n      dup2\n      sload\n      dup2\n      mstore\n      swap1\n      0x01\n      add\n      swap1\n      0x20\n      add\n      dup1\n      dup4\n      gt\n      tag_56\n      jumpi\n      dup3\n      swap1\n      sub\n      0x1f\n      and\n      dup3\n      add\n      swap2\n    tag_54:\n      pop\n      pop\n      pop\n      pop\n      pop\n      dup2\n      mstore\n      0x20\n      add\n      0x02\n      dup3\n      add\n      dup1\n      sload\n      tag_57\n      swap1\n      tag_52\n      jump\t// in\n    tag_57:\n      dup1\n      0x1f\n      add\n      0x20\n      dup1\n      swap2\n      div\n      mul\n      0x20\n      add\n      mload(0x40)\n      swap1\n      dup2\n      add\n      0x40\n      mstore\n      dup1\n      swap3\n      swap2\n      swap1\n      dup2\n      dup2\n      mstore\n      0x20\n      add\n      dup3\n      dup1\n      sload\n      tag_58\n      swap1\n      tag_52\n      jump\t// in\n    tag_58:\n      dup1\n      iszero\n      tag_59\n      jumpi\n      dup1\n      0x1f\n      lt\n      tag_60\n      jumpi\n      0x0100\n      dup1\n      dup4\n      sload\n      div\n      mul\n      dup4\n      mstore\n      swap2\n      0x20\n      add\n      swap2\n      jump(tag_59)\n    tag_60:\n      dup3\n      add\n      swap2\n      swap1\n      0x00\n      mstore\n      keccak256(0x00, 0x20)\n      swap1\n    tag_61:\n      dup2\n      sload\n      dup2\n      mstore\n      swap1\n      0x01\n      add\n      swap1\n      0x20\n      add\n      dup1\n      dup4\n      gt\n      tag_61\n      jumpi\n      dup3\n      swap1\n      sub\n      0x1f\n      and\n      dup3\n      add\n      swap2\n    tag_59:\n      pop\n      pop\n      pop\n      pop\n      pop\n      dup2\n      mstore\n      0x20\n      add\n      0x03\n      dup3\n      add\n      0x00\n      swap1\n      sload\n      swap1\n      0x0100\n      exp\n      swap1\n      div\n      0xffffffffffffffffffffffffffffffffffffffff\n      and\n      0xffffffffffffffffffffffffffffffffffffffff\n      and\n      0xffffffffffffffffffffffffffffffffffffffff\n      and\n      dup2\n      mstore\n      0x20\n      add\n      0x04\n      dup3\n      add\n      sload\n      dup2\n      mstore\n      0x20\n      add\n      0x05\n      dup3\n      add\n      sload\n      dup2\n      mstore\n      0x20\n      add\n      0x06\n      dup3\n      add\n      sload\n      dup2\n      mstore\n      0x20\n      add\n      0x07\n      dup3\n      add\n      0x00\n      swap1\n      sload\n      swap1\n      0x0100\n      exp\n      swap1\n      div\n      0xff\n      and\n      0x02\n      dup2\n      gt\n      iszero\n      tag_62\n      jumpi\n      tag_63\n      tag_64\n      jump\t// in\n    tag_63:\n    tag_62:\n      0x02\n      dup2\n      gt\n      iszero\n      tag_65\n      jumpi\n      tag_66\n      tag_64\n      jump\t// in\n    tag_66:\n    tag_65:\n      dup2\n      mstore\n      pop\n      pop\n      swap1\n      pop\n        /* \"contracts/0518/Quiz-2.sol\":3899:4010  function getPoll(string memory _title) public view returns(poll memory) {... */\n      swap2\n      swap1\n      pop\n      jump\t// out\n        /* \"contracts/0518/Quiz-2.sol\":2470:3059  function vote(string memory _title, bool _vote) external/*상속받은 애도 못하게*/ IsItUser {... */\n    tag_25:\n        /* \"contracts/0518/Quiz-2.sol\":2120:2130  msg.sender */\n      caller\n        /* \"contracts/0518/Quiz-2.sol\":2094:2130  users[msg.sender].addr == msg.sender */\n      0xffffffffffffffffffffffffffffffffffffffff\n      and\n        /* \"contracts/0518/Quiz-2.sol\":2094:2099  users */\n      0x02\n        /* \"contracts/0518/Quiz-2.sol\":2094:2111  users[msg.sender] */\n      0x00\n        /* \"contracts/0518/Quiz-2.sol\":2100:2110  msg.sender */\n      caller\n        /* \"contracts/0518/Quiz-2.sol\":2094:2111  users[msg.sender] */\n      0xffffffffffffffffffffffffffffffffffffffff\n      and\n      0xffffffffffffffffffffffffffffffffffffffff\n      and\n      dup2\n      mstore\n      0x20\n      add\n      swap1\n      dup2\n      mstore\n      0x20\n      add\n      0x00\n      keccak256\n        /* \"contracts/0518/Quiz-2.sol\":2094:2116  users[msg.sender].addr */\n      0x01\n      add\n      0x00\n      swap1\n      sload\n      swap1\n      0x0100\n      exp\n      swap1\n      div\n      0xffffffffffffffffffffffffffffffffffffffff\n      and\n        /* \"contracts/0518/Quiz-2.sol\":2094:2130  users[msg.sender].addr == msg.sender */\n      0xffffffffffffffffffffffffffffffffffffffff\n      and\n      eq\n        /* \"contracts/0518/Quiz-2.sol\":2086:2131  require(users[msg.sender].addr == msg.sender) */\n      tag_68\n      jumpi\n      0x00\n      dup1\n      revert\n    tag_68:\n        /* \"contracts/0518/Quiz-2.sol\":2621:2642  votingStatus.notVoted */\n      0x00\n        /* \"contracts/0518/Quiz-2.sol\":2588:2642  users[msg.sender].voted[_title]==votingStatus.notVoted */\n      0x02\n      dup2\n      gt\n      iszero\n      tag_70\n      jumpi\n      tag_71\n      tag_64\n      jump\t// in\n    tag_71:\n    tag_70:\n        /* \"contracts/0518/Quiz-2.sol\":2588:2593  users */\n      0x02\n        /* \"contracts/0518/Quiz-2.sol\":2588:2605  users[msg.sender] */\n      0x00\n        /* \"contracts/0518/Quiz-2.sol\":2594:2604  msg.sender */\n      caller\n        /* \"contracts/0518/Quiz-2.sol\":2588:2605  users[msg.sender] */\n      0xffffffffffffffffffffffffffffffffffffffff\n      and\n      0xffffffffffffffffffffffffffffffffffffffff\n      and\n      dup2\n      mstore\n      0x20\n      add\n      swap1\n      dup2\n      mstore\n      0x20\n      add\n      0x00\n      keccak256\n        /* \"contracts/0518/Quiz-2.sol\":2588:2611  users[msg.sender].voted */\n      0x03\n      add\n        /* \"contracts/0518/Quiz-2.sol\":2612:2618  _title */\n      dup4\n        /* \"contracts/0518/Quiz-2.sol\":2588:2619  users[msg.sender].voted[_title] */\n      mload(0x40)\n      tag_72\n      swap2\n      swap1\n      tag_50\n      jump\t// in\n    tag_72:\n      swap1\n      dup2\n      mstore\n      0x20\n      add\n      mload(0x40)\n      dup1\n      swap2\n      sub\n      swap1\n      keccak256\n      0x00\n      swap1\n      sload\n      swap1\n      0x0100\n      exp\n      swap1\n      div\n      0xff\n      and\n        /* \"contracts/0518/Quiz-2.sol\":2588:2642  users[msg.sender].voted[_title]==votingStatus.notVoted */\n      0x02\n      dup2\n      gt\n      iszero\n      tag_73\n      jumpi\n      tag_74\n      tag_64\n      jump\t// in\n    tag_74:\n    tag_73:\n      eq\n        /* \"contracts/0518/Quiz-2.sol\":2588:2686  users[msg.sender].voted[_title]==votingStatus.notVoted && polls[_title].status==pollStatus.ongoing */\n      dup1\n      iszero\n      tag_75\n      jumpi\n      pop\n        /* \"contracts/0518/Quiz-2.sol\":2668:2686  pollStatus.ongoing */\n      0x00\n        /* \"contracts/0518/Quiz-2.sol\":2646:2686  polls[_title].status==pollStatus.ongoing */\n      0x02\n      dup2\n      gt\n      iszero\n      tag_76\n      jumpi\n      tag_77\n      tag_64\n      jump\t// in\n    tag_77:\n    tag_76:\n        /* \"contracts/0518/Quiz-2.sol\":2646:2651  polls */\n      0x00\n        /* \"contracts/0518/Quiz-2.sol\":2652:2658  _title */\n      dup4\n        /* \"contracts/0518/Quiz-2.sol\":2646:2659  polls[_title] */\n      mload(0x40)\n      tag_78\n      swap2\n      swap1\n      tag_50\n      jump\t// in\n    tag_78:\n      swap1\n      dup2\n      mstore\n      0x20\n      add\n      mload(0x40)\n      dup1\n      swap2\n      sub\n      swap1\n      keccak256\n        /* \"contracts/0518/Quiz-2.sol\":2646:2666  polls[_title].status */\n      0x07\n      add\n      0x00\n      swap1\n      sload\n      swap1\n      0x0100\n      exp\n      swap1\n      div\n      0xff\n      and\n        /* \"contracts/0518/Quiz-2.sol\":2646:2686  polls[_title].status==pollStatus.ongoing */\n      0x02\n      dup2\n      gt\n      iszero\n      tag_79\n      jumpi\n      tag_80\n      tag_64\n      jump\t// in\n    tag_80:\n    tag_79:\n      eq\n        /* \"contracts/0518/Quiz-2.sol\":2588:2686  users[msg.sender].voted[_title]==votingStatus.notVoted && polls[_title].status==pollStatus.ongoing */\n    tag_75:\n        /* \"contracts/0518/Quiz-2.sol\":2580:2687  require(users[msg.sender].voted[_title]==votingStatus.notVoted && polls[_title].status==pollStatus.ongoing) */\n      tag_81\n      jumpi\n      0x00\n      dup1\n      revert\n    tag_81:\n        /* \"contracts/0518/Quiz-2.sol\":2816:2820  true */\n      0x01\n        /* \"contracts/0518/Quiz-2.sol\":2809:2820  _vote==true */\n      iszero\n      iszero\n        /* \"contracts/0518/Quiz-2.sol\":2809:2814  _vote */\n      dup2\n        /* \"contracts/0518/Quiz-2.sol\":2809:2820  _vote==true */\n      iszero\n      iszero\n      sub\n        /* \"contracts/0518/Quiz-2.sol\":2806:3052  if(_vote==true) {... */\n      tag_82\n      jumpi\n        /* \"contracts/0518/Quiz-2.sol\":2837:2842  polls */\n      0x00\n        /* \"contracts/0518/Quiz-2.sol\":2843:2849  _title */\n      dup3\n        /* \"contracts/0518/Quiz-2.sol\":2837:2850  polls[_title] */\n      mload(0x40)\n      tag_83\n      swap2\n      swap1\n      tag_50\n      jump\t// in\n    tag_83:\n      swap1\n      dup2\n      mstore\n      0x20\n      add\n      mload(0x40)\n      dup1\n      swap2\n      sub\n      swap1\n      keccak256\n        /* \"contracts/0518/Quiz-2.sol\":2837:2855  polls[_title].pros */\n      0x05\n      add\n      0x00\n        /* \"contracts/0518/Quiz-2.sol\":2837:2857  polls[_title].pros++ */\n      dup2\n      sload\n      dup1\n      swap3\n      swap2\n      swap1\n      tag_84\n      swap1\n      tag_85\n      jump\t// in\n    tag_84:\n      swap2\n      swap1\n      pop\n      sstore\n      pop\n        /* \"contracts/0518/Quiz-2.sol\":2906:2922  votingStatus.pro */\n      0x01\n        /* \"contracts/0518/Quiz-2.sol\":2872:2877  users */\n      0x02\n        /* \"contracts/0518/Quiz-2.sol\":2872:2889  users[msg.sender] */\n      0x00\n        /* \"contracts/0518/Quiz-2.sol\":2878:2888  msg.sender */\n      caller\n        /* \"contracts/0518/Quiz-2.sol\":2872:2889  users[msg.sender] */\n      0xffffffffffffffffffffffffffffffffffffffff\n      and\n      0xffffffffffffffffffffffffffffffffffffffff\n      and\n      dup2\n      mstore\n      0x20\n      add\n      swap1\n      dup2\n      mstore\n      0x20\n      add\n      0x00\n      keccak256\n        /* \"contracts/0518/Quiz-2.sol\":2872:2895  users[msg.sender].voted */\n      0x03\n      add\n        /* \"contracts/0518/Quiz-2.sol\":2896:2902  _title */\n      dup4\n        /* \"contracts/0518/Quiz-2.sol\":2872:2903  users[msg.sender].voted[_title] */\n      mload(0x40)\n      tag_86\n      swap2\n      swap1\n      tag_50\n      jump\t// in\n    tag_86:\n      swap1\n      dup2\n      mstore\n      0x20\n      add\n      mload(0x40)\n      dup1\n      swap2\n      sub\n      swap1\n      keccak256\n      0x00\n        /* \"contracts/0518/Quiz-2.sol\":2872:2922  users[msg.sender].voted[_title] = votingStatus.pro */\n      0x0100\n      exp\n      dup2\n      sload\n      dup2\n      0xff\n      mul\n      not\n      and\n      swap1\n      dup4\n      0x02\n      dup2\n      gt\n      iszero\n      tag_87\n      jumpi\n      tag_88\n      tag_64\n      jump\t// in\n    tag_88:\n    tag_87:\n      mul\n      or\n      swap1\n      sstore\n      pop\n        /* \"contracts/0518/Quiz-2.sol\":2806:3052  if(_vote==true) {... */\n      jump(tag_89)\n    tag_82:\n        /* \"contracts/0518/Quiz-2.sol\":2955:2960  polls */\n      0x00\n        /* \"contracts/0518/Quiz-2.sol\":2961:2967  _title */\n      dup3\n        /* \"contracts/0518/Quiz-2.sol\":2955:2968  polls[_title] */\n      mload(0x40)\n      tag_90\n      swap2\n      swap1\n      tag_50\n      jump\t// in\n    tag_90:\n      swap1\n      dup2\n      mstore\n      0x20\n      add\n      mload(0x40)\n      dup1\n      swap2\n      sub\n      swap1\n      keccak256\n        /* \"contracts/0518/Quiz-2.sol\":2955:2973  polls[_title].cons */\n      0x06\n      add\n      0x00\n        /* \"contracts/0518/Quiz-2.sol\":2955:2975  polls[_title].cons++ */\n      dup2\n      sload\n      dup1\n      swap3\n      swap2\n      swap1\n      tag_91\n      swap1\n      tag_85\n      jump\t// in\n    tag_91:\n      swap2\n      swap1\n      pop\n      sstore\n      pop\n        /* \"contracts/0518/Quiz-2.sol\":3024:3040  votingStatus.con */\n      0x02\n        /* \"contracts/0518/Quiz-2.sol\":2990:2995  users */\n      dup1\n        /* \"contracts/0518/Quiz-2.sol\":2990:3007  users[msg.sender] */\n      0x00\n        /* \"contracts/0518/Quiz-2.sol\":2996:3006  msg.sender */\n      caller\n        /* \"contracts/0518/Quiz-2.sol\":2990:3007  users[msg.sender] */\n      0xffffffffffffffffffffffffffffffffffffffff\n      and\n      0xffffffffffffffffffffffffffffffffffffffff\n      and\n      dup2\n      mstore\n      0x20\n      add\n      swap1\n      dup2\n      mstore\n      0x20\n      add\n      0x00\n      keccak256\n        /* \"contracts/0518/Quiz-2.sol\":2990:3013  users[msg.sender].voted */\n      0x03\n      add\n        /* \"contracts/0518/Quiz-2.sol\":3014:3020  _title */\n      dup4\n        /* \"contracts/0518/Quiz-2.sol\":2990:3021  users[msg.sender].voted[_title] */\n      mload(0x40)\n      tag_92\n      swap2\n      swap1\n      tag_50\n      jump\t// in\n    tag_92:\n      swap1\n      dup2\n      mstore\n      0x20\n      add\n      mload(0x40)\n      dup1\n      swap2\n      sub\n      swap1\n      keccak256\n      0x00\n        /* \"contracts/0518/Quiz-2.sol\":2990:3040  users[msg.sender].voted[_title] = votingStatus.con */\n      0x0100\n      exp\n      dup2\n      sload\n      dup2\n      0xff\n      mul\n      not\n      and\n      swap1\n      dup4\n      0x02\n      dup2\n      gt\n      iszero\n      tag_93\n      jumpi\n      tag_94\n      tag_64\n      jump\t// in\n    tag_94:\n    tag_93:\n      mul\n      or\n      swap1\n      sstore\n      pop\n        /* \"contracts/0518/Quiz-2.sol\":2806:3052  if(_vote==true) {... */\n    tag_89:\n        /* \"contracts/0518/Quiz-2.sol\":2470:3059  function vote(string memory _title, bool _vote) external/*상속받은 애도 못하게*/ IsItUser {... */\n      pop\n      pop\n      jump\t// out\n        /* \"contracts/0518/Quiz-2.sol\":2159:2294  function pushUser(string memory _name) public {... */\n    tag_28:\n        /* \"contracts/0518/Quiz-2.sol\":2268:2273  _name */\n      dup1\n        /* \"contracts/0518/Quiz-2.sol\":2275:2285  msg.sender */\n      caller\n        /* \"contracts/0518/Quiz-2.sol\":2217:2222  users */\n      0x02\n        /* \"contracts/0518/Quiz-2.sol\":2217:2234  users[msg.sender] */\n      0x00\n        /* \"contracts/0518/Quiz-2.sol\":2223:2233  msg.sender */\n      caller\n        /* \"contracts/0518/Quiz-2.sol\":2217:2234  users[msg.sender] */\n      0xffffffffffffffffffffffffffffffffffffffff\n      and\n      0xffffffffffffffffffffffffffffffffffffffff\n      and\n      dup2\n      mstore\n      0x20\n      add\n      swap1\n      dup2\n      mstore\n      0x20\n      add\n      0x00\n      keccak256\n        /* \"contracts/0518/Quiz-2.sol\":2217:2239  users[msg.sender].name */\n      0x00\n      add\n      0x00\n        /* \"contracts/0518/Quiz-2.sol\":2241:2246  users */\n      0x02\n        /* \"contracts/0518/Quiz-2.sol\":2241:2258  users[msg.sender] */\n      0x00\n        /* \"contracts/0518/Quiz-2.sol\":2247:2257  msg.sender */\n      caller\n        /* \"contracts/0518/Quiz-2.sol\":2241:2258  users[msg.sender] */\n      0xffffffffffffffffffffffffffffffffffffffff\n      and\n      0xffffffffffffffffffffffffffffffffffffffff\n      and\n      dup2\n      mstore\n      0x20\n      add\n      swap1\n      dup2\n      mstore\n      0x20\n      add\n      0x00\n      keccak256\n        /* \"contracts/0518/Quiz-2.sol\":2241:2263  users[msg.sender].addr */\n      0x01\n      add\n      0x00\n        /* \"contracts/0518/Quiz-2.sol\":2216:2286  (users[msg.sender].name, users[msg.sender].addr) = (_name, msg.sender) */\n      dup5\n      swap2\n      swap1\n      0x0100\n      exp\n      dup2\n      sload\n      dup2\n      0xffffffffffffffffffffffffffffffffffffffff\n      mul\n      not\n      and\n      swap1\n      dup4\n      0xffffffffffffffffffffffffffffffffffffffff\n      and\n      mul\n      or\n      swap1\n      sstore\n      pop\n      dup4\n      swap2\n      swap1\n      pop\n      swap1\n      dup2\n      tag_96\n      swap2\n      swap1\n      tag_97\n      jump\t// in\n    tag_96:\n      pop\n      pop\n      pop\n        /* \"contracts/0518/Quiz-2.sol\":2159:2294  function pushUser(string memory _name) public {... */\n      pop\n      jump\t// out\n        /* \"contracts/0518/Quiz-2.sol\":1427:1463  mapping(string => poll) public polls */\n    tag_31:\n      0x00\n      dup2\n      dup1\n      mload\n      0x20\n      dup2\n      add\n      dup3\n      add\n      dup1\n      mload\n      dup5\n      dup3\n      mstore\n      0x20\n      dup4\n      add\n      0x20\n      dup6\n      add\n      keccak256\n      dup2\n      dup4\n      mstore\n      dup1\n      swap6\n      pop\n      pop\n      pop\n      pop\n      pop\n      pop\n      0x00\n      swap2\n      pop\n      swap1\n      pop\n      dup1\n      0x00\n      add\n      sload\n      swap1\n      dup1\n      0x01\n      add\n      dup1\n      sload\n      tag_98\n      swap1\n      tag_52\n      jump\t// in\n    tag_98:\n      dup1\n      0x1f\n      add\n      0x20\n      dup1\n      swap2\n      div\n      mul\n      0x20\n      add\n      mload(0x40)\n      swap1\n      dup2\n      add\n      0x40\n      mstore\n      dup1\n      swap3\n      swap2\n      swap1\n      dup2\n      dup2\n      mstore\n      0x20\n      add\n      dup3\n      dup1\n      sload\n      tag_99\n      swap1\n      tag_52\n      jump\t// in\n    tag_99:\n      dup1\n      iszero\n      tag_100\n      jumpi\n      dup1\n      0x1f\n      lt\n      tag_101\n      jumpi\n      0x0100\n      dup1\n      dup4\n      sload\n      div\n      mul\n      dup4\n      mstore\n      swap2\n      0x20\n      add\n      swap2\n      jump(tag_100)\n    tag_101:\n      dup3\n      add\n      swap2\n      swap1\n      0x00\n      mstore\n      keccak256(0x00, 0x20)\n      swap1\n    tag_102:\n      dup2\n      sload\n      dup2\n      mstore\n      swap1\n      0x01\n      add\n      swap1\n      0x20\n      add\n      dup1\n      dup4\n      gt\n      tag_102\n      jumpi\n      dup3\n      swap1\n      sub\n      0x1f\n      and\n      dup3\n      add\n      swap2\n    tag_100:\n      pop\n      pop\n      pop\n      pop\n      pop\n      swap1\n      dup1\n      0x02\n      add\n      dup1\n      sload\n      tag_103\n      swap1\n      tag_52\n      jump\t// in\n    tag_103:\n      dup1\n      0x1f\n      add\n      0x20\n      dup1\n      swap2\n      div\n      mul\n      0x20\n      add\n      mload(0x40)\n      swap1\n      dup2\n      add\n      0x40\n      mstore\n      dup1\n      swap3\n      swap2\n      swap1\n      dup2\n      dup2\n      mstore\n      0x20\n      add\n      dup3\n      dup1\n      sload\n      tag_104\n      swap1\n      tag_52\n      jump\t// in\n    tag_104:\n      dup1\n      iszero\n      tag_105\n      jumpi\n      dup1\n      0x1f\n      lt\n      tag_106\n      jumpi\n      0x0100\n      dup1\n      dup4\n      sload\n      div\n      mul\n      dup4\n      mstore\n      swap2\n      0x20\n      add\n      swap2\n      jump(tag_105)\n    tag_106:\n      dup3\n      add\n      swap2\n      swap1\n      0x00\n      mstore\n      keccak256(0x00, 0x20)\n      swap1\n    tag_107:\n      dup2\n      sload\n      dup2\n      mstore\n      swap1\n      0x01\n      add\n      swap1\n      0x20\n      add\n      dup1\n      dup4\n      gt\n      tag_107\n      jumpi\n      dup3\n      swap1\n      sub\n      0x1f\n      and\n      dup3\n      add\n      swap2\n    tag_105:\n      pop\n      pop\n      pop\n      pop\n      pop\n      swap1\n      dup1\n      0x03\n      add\n      0x00\n      swap1\n      sload\n      swap1\n      0x0100\n      exp\n      swap1\n      div\n      0xffffffffffffffffffffffffffffffffffffffff\n      and\n      swap1\n      dup1\n      0x04\n      add\n      sload\n      swap1\n      dup1\n      0x05\n      add\n      sload\n      swap1\n      dup1\n      0x06\n      add\n      sload\n      swap1\n      dup1\n      0x07\n      add\n      0x00\n      swap1\n      sload\n      swap1\n      0x0100\n      exp\n      swap1\n      div\n      0xff\n      and\n      swap1\n      pop\n      dup9\n      jump\t// out\n        /* \"contracts/0518/Quiz-2.sol\":4244:4783  function finishPoll(string memory _title) external IsItUser {... */\n    tag_36:\n        /* \"contracts/0518/Quiz-2.sol\":2120:2130  msg.sender */\n      caller\n        /* \"contracts/0518/Quiz-2.sol\":2094:2130  users[msg.sender].addr == msg.sender */\n      0xffffffffffffffffffffffffffffffffffffffff\n      and\n        /* \"contracts/0518/Quiz-2.sol\":2094:2099  users */\n      0x02\n        /* \"contracts/0518/Quiz-2.sol\":2094:2111  users[msg.sender] */\n      0x00\n        /* \"contracts/0518/Quiz-2.sol\":2100:2110  msg.sender */\n      caller\n        /* \"contracts/0518/Quiz-2.sol\":2094:2111  users[msg.sender] */\n      0xffffffffffffffffffffffffffffffffffffffff\n      and\n      0xffffffffffffffffffffffffffffffffffffffff\n      and\n      dup2\n      mstore\n      0x20\n      add\n      swap1\n      dup2\n      mstore\n      0x20\n      add\n      0x00\n      keccak256\n        /* \"contracts/0518/Quiz-2.sol\":2094:2116  users[msg.sender].addr */\n      0x01\n      add\n      0x00\n      swap1\n      sload\n      swap1\n      0x0100\n      exp\n      swap1\n      div\n      0xffffffffffffffffffffffffffffffffffffffff\n      and\n        /* \"contracts/0518/Quiz-2.sol\":2094:2130  users[msg.sender].addr == msg.sender */\n      0xffffffffffffffffffffffffffffffffffffffff\n      and\n      eq\n        /* \"contracts/0518/Quiz-2.sol\":2086:2131  require(users[msg.sender].addr == msg.sender) */\n      tag_109\n      jumpi\n      0x00\n      dup1\n      revert\n    tag_109:\n        /* \"contracts/0518/Quiz-2.sol\":4360:4363  100 */\n      0x64\n        /* \"contracts/0518/Quiz-2.sol\":4341:4346  polls */\n      0x00\n        /* \"contracts/0518/Quiz-2.sol\":4347:4353  _title */\n      dup3\n        /* \"contracts/0518/Quiz-2.sol\":4341:4354  polls[_title] */\n      mload(0x40)\n      tag_111\n      swap2\n      swap1\n      tag_50\n      jump\t// in\n    tag_111:\n      swap1\n      dup2\n      mstore\n      0x20\n      add\n      mload(0x40)\n      dup1\n      swap2\n      sub\n      swap1\n      keccak256\n        /* \"contracts/0518/Quiz-2.sol\":4341:4359  polls[_title].time */\n      0x04\n      add\n      sload\n        /* \"contracts/0518/Quiz-2.sol\":4341:4363  polls[_title].time+100 */\n      tag_112\n      swap2\n      swap1\n      tag_113\n      jump\t// in\n    tag_112:\n        /* \"contracts/0518/Quiz-2.sol\":4323:4338  block.timestamp */\n      timestamp\n        /* \"contracts/0518/Quiz-2.sol\":4323:4363  block.timestamp > polls[_title].time+100 */\n      gt\n        /* \"contracts/0518/Quiz-2.sol\":4315:4366  require(block.timestamp > polls[_title].time+100  ) */\n      tag_114\n      jumpi\n      0x00\n      dup1\n      revert\n    tag_114:\n        /* \"contracts/0518/Quiz-2.sol\":4430:4432  10 */\n      0x0a\n        /* \"contracts/0518/Quiz-2.sol\":4428:4429  7 */\n      0x07\n        /* \"contracts/0518/Quiz-2.sol\":4422:4427  count */\n      sload(0x01)\n        /* \"contracts/0518/Quiz-2.sol\":4422:4429  count*7 */\n      tag_115\n      swap2\n      swap1\n      tag_116\n      jump\t// in\n    tag_115:\n        /* \"contracts/0518/Quiz-2.sol\":4422:4432  count*7/10 */\n      tag_117\n      swap2\n      swap1\n      tag_118\n      jump\t// in\n    tag_117:\n        /* \"contracts/0518/Quiz-2.sol\":4401:4406  polls */\n      0x00\n        /* \"contracts/0518/Quiz-2.sol\":4407:4413  _title */\n      dup3\n        /* \"contracts/0518/Quiz-2.sol\":4401:4414  polls[_title] */\n      mload(0x40)\n      tag_119\n      swap2\n      swap1\n      tag_50\n      jump\t// in\n    tag_119:\n      swap1\n      dup2\n      mstore\n      0x20\n      add\n      mload(0x40)\n      dup1\n      swap2\n      sub\n      swap1\n      keccak256\n        /* \"contracts/0518/Quiz-2.sol\":4401:4419  polls[_title].cons */\n      0x06\n      add\n      sload\n        /* \"contracts/0518/Quiz-2.sol\":4380:4385  polls */\n      0x00\n        /* \"contracts/0518/Quiz-2.sol\":4386:4392  _title */\n      dup4\n        /* \"contracts/0518/Quiz-2.sol\":4380:4393  polls[_title] */\n      mload(0x40)\n      tag_120\n      swap2\n      swap1\n      tag_50\n      jump\t// in\n    tag_120:\n      swap1\n      dup2\n      mstore\n      0x20\n      add\n      mload(0x40)\n      dup1\n      swap2\n      sub\n      swap1\n      keccak256\n        /* \"contracts/0518/Quiz-2.sol\":4380:4398  polls[_title].pros */\n      0x05\n      add\n      sload\n        /* \"contracts/0518/Quiz-2.sol\":4380:4419  polls[_title].pros + polls[_title].cons */\n      tag_121\n      swap2\n      swap1\n      tag_113\n      jump\t// in\n    tag_121:\n        /* \"contracts/0518/Quiz-2.sol\":4380:4432  polls[_title].pros + polls[_title].cons > count*7/10 */\n      gt\n        /* \"contracts/0518/Quiz-2.sol\":4380:4633  polls[_title].pros + polls[_title].cons > count*7/10 && //solidity에서는 곱하고 난 후 나눌것 왜냐하면 다른 값이 나옴 소수점 떼버리기 떄문에,... */\n      dup1\n      iszero\n      tag_122\n      jumpi\n      pop\n        /* \"contracts/0518/Quiz-2.sol\":4631:4633  66 */\n      0x42\n        /* \"contracts/0518/Quiz-2.sol\":4609:4614  polls */\n      0x00\n        /* \"contracts/0518/Quiz-2.sol\":4615:4621  _title */\n      dup3\n        /* \"contracts/0518/Quiz-2.sol\":4609:4622  polls[_title] */\n      mload(0x40)\n      tag_123\n      swap2\n      swap1\n      tag_50\n      jump\t// in\n    tag_123:\n      swap1\n      dup2\n      mstore\n      0x20\n      add\n      mload(0x40)\n      dup1\n      swap2\n      sub\n      swap1\n      keccak256\n        /* \"contracts/0518/Quiz-2.sol\":4609:4627  polls[_title].cons */\n      0x06\n      add\n      sload\n        /* \"contracts/0518/Quiz-2.sol\":4588:4593  polls */\n      0x00\n        /* \"contracts/0518/Quiz-2.sol\":4594:4600  _title */\n      dup4\n        /* \"contracts/0518/Quiz-2.sol\":4588:4601  polls[_title] */\n      mload(0x40)\n      tag_124\n      swap2\n      swap1\n      tag_50\n      jump\t// in\n    tag_124:\n      swap1\n      dup2\n      mstore\n      0x20\n      add\n      mload(0x40)\n      dup1\n      swap2\n      sub\n      swap1\n      keccak256\n        /* \"contracts/0518/Quiz-2.sol\":4588:4606  polls[_title].pros */\n      0x05\n      add\n      sload\n        /* \"contracts/0518/Quiz-2.sol\":4588:4627  polls[_title].pros + polls[_title].cons */\n      tag_125\n      swap2\n      swap1\n      tag_113\n      jump\t// in\n    tag_125:\n        /* \"contracts/0518/Quiz-2.sol\":4583:4586  100 */\n      0x64\n        /* \"contracts/0518/Quiz-2.sol\":4562:4567  polls */\n      0x00\n        /* \"contracts/0518/Quiz-2.sol\":4568:4574  _title */\n      dup5\n        /* \"contracts/0518/Quiz-2.sol\":4562:4575  polls[_title] */\n      mload(0x40)\n      tag_126\n      swap2\n      swap1\n      tag_50\n      jump\t// in\n    tag_126:\n      swap1\n      dup2\n      mstore\n      0x20\n      add\n      mload(0x40)\n      dup1\n      swap2\n      sub\n      swap1\n      keccak256\n        /* \"contracts/0518/Quiz-2.sol\":4562:4580  polls[_title].pros */\n      0x05\n      add\n      sload\n        /* \"contracts/0518/Quiz-2.sol\":4561:4586  (polls[_title].pros) *100 */\n      tag_127\n      swap2\n      swap1\n      tag_116\n      jump\t// in\n    tag_127:\n        /* \"contracts/0518/Quiz-2.sol\":4561:4628  (polls[_title].pros) *100/(polls[_title].pros + polls[_title].cons) */\n      tag_128\n      swap2\n      swap1\n      tag_118\n      jump\t// in\n    tag_128:\n        /* \"contracts/0518/Quiz-2.sol\":4561:4633  (polls[_title].pros) *100/(polls[_title].pros + polls[_title].cons) > 66 */\n      gt\n        /* \"contracts/0518/Quiz-2.sol\":4380:4633  polls[_title].pros + polls[_title].cons > count*7/10 && //solidity에서는 곱하고 난 후 나눌것 왜냐하면 다른 값이 나옴 소수점 떼버리기 떄문에,... */\n    tag_122:\n        /* \"contracts/0518/Quiz-2.sol\":4377:4774  if(polls[_title].pros + polls[_title].cons > count*7/10 && //solidity에서는 곱하고 난 후 나눌것 왜냐하면 다른 값이 나옴 소수점 떼버리기 떄문에,... */\n      iszero\n      tag_129\n      jumpi\n        /* \"contracts/0518/Quiz-2.sol\":4672:4689  pollStatus.passed */\n      0x01\n        /* \"contracts/0518/Quiz-2.sol\":4649:4654  polls */\n      0x00\n        /* \"contracts/0518/Quiz-2.sol\":4655:4661  _title */\n      dup3\n        /* \"contracts/0518/Quiz-2.sol\":4649:4662  polls[_title] */\n      mload(0x40)\n      tag_130\n      swap2\n      swap1\n      tag_50\n      jump\t// in\n    tag_130:\n      swap1\n      dup2\n      mstore\n      0x20\n      add\n      mload(0x40)\n      dup1\n      swap2\n      sub\n      swap1\n      keccak256\n        /* \"contracts/0518/Quiz-2.sol\":4649:4669  polls[_title].status */\n      0x07\n      add\n      0x00\n        /* \"contracts/0518/Quiz-2.sol\":4649:4689  polls[_title].status = pollStatus.passed */\n      0x0100\n      exp\n      dup2\n      sload\n      dup2\n      0xff\n      mul\n      not\n      and\n      swap1\n      dup4\n      0x02\n      dup2\n      gt\n      iszero\n      tag_131\n      jumpi\n      tag_132\n      tag_64\n      jump\t// in\n    tag_132:\n    tag_131:\n      mul\n      or\n      swap1\n      sstore\n      pop\n        /* \"contracts/0518/Quiz-2.sol\":4377:4774  if(polls[_title].pros + polls[_title].cons > count*7/10 && //solidity에서는 곱하고 난 후 나눌것 왜냐하면 다른 값이 나옴 소수점 떼버리기 떄문에,... */\n      jump(tag_133)\n    tag_129:\n        /* \"contracts/0518/Quiz-2.sol\":4743:4762  pollStatus.rejected */\n      0x02\n        /* \"contracts/0518/Quiz-2.sol\":4720:4725  polls */\n      0x00\n        /* \"contracts/0518/Quiz-2.sol\":4726:4732  _title */\n      dup3\n        /* \"contracts/0518/Quiz-2.sol\":4720:4733  polls[_title] */\n      mload(0x40)\n      tag_134\n      swap2\n      swap1\n      tag_50\n      jump\t// in\n    tag_134:\n      swap1\n      dup2\n      mstore\n      0x20\n      add\n      mload(0x40)\n      dup1\n      swap2\n      sub\n      swap1\n      keccak256\n        /* \"contracts/0518/Quiz-2.sol\":4720:4740  polls[_title].status */\n      0x07\n      add\n      0x00\n        /* \"contracts/0518/Quiz-2.sol\":4720:4762  polls[_title].status = pollStatus.rejected */\n      0x0100\n      exp\n      dup2\n      sload\n      dup2\n      0xff\n      mul\n      not\n      and\n      swap1\n      dup4\n      0x02\n      dup2\n      gt\n      iszero\n      tag_135\n      jumpi\n      tag_136\n      tag_64\n      jump\t// in\n    tag_136:\n    tag_135:\n      mul\n      or\n      swap1\n      sstore\n      pop\n        /* \"contracts/0518/Quiz-2.sol\":4377:4774  if(polls[_title].pros + polls[_title].cons > count*7/10 && //solidity에서는 곱하고 난 후 나눌것 왜냐하면 다른 값이 나옴 소수점 떼버리기 떄문에,... */\n    tag_133:\n        /* \"contracts/0518/Quiz-2.sol\":4244:4783  function finishPoll(string memory _title) external IsItUser {... */\n      pop\n      jump\t// out\n        /* \"contracts/0518/Quiz-2.sol\":3275:3446  function searchSuggested(string calldata _title) public view returns(poll memory) {... */\n    tag_40:\n        /* \"contracts/0518/Quiz-2.sol\":3344:3355  poll memory */\n      tag_137\n      tag_47\n      jump\t// in\n    tag_137:\n        /* \"contracts/0518/Quiz-2.sol\":3390:3395  polls */\n      0x00\n        /* \"contracts/0518/Quiz-2.sol\":3396:3402  _title */\n      dup4\n      dup4\n        /* \"contracts/0518/Quiz-2.sol\":3390:3403  polls[_title] */\n      mload(0x40)\n      tag_139\n      swap3\n      swap2\n      swap1\n      tag_140\n      jump\t// in\n    tag_139:\n      swap1\n      dup2\n      mstore\n      0x20\n      add\n      mload(0x40)\n      dup1\n      swap2\n      sub\n      swap1\n      keccak256\n        /* \"contracts/0518/Quiz-2.sol\":3390:3406  polls[_title].by */\n      0x03\n      add\n      0x00\n      swap1\n      sload\n      swap1\n      0x0100\n      exp\n      swap1\n      div\n      0xffffffffffffffffffffffffffffffffffffffff\n      and\n        /* \"contracts/0518/Quiz-2.sol\":3376:3406  msg.sender == polls[_title].by */\n      0xffffffffffffffffffffffffffffffffffffffff\n      and\n        /* \"contracts/0518/Quiz-2.sol\":3376:3386  msg.sender */\n      caller\n        /* \"contracts/0518/Quiz-2.sol\":3376:3406  msg.sender == polls[_title].by */\n      0xffffffffffffffffffffffffffffffffffffffff\n      and\n      eq\n        /* \"contracts/0518/Quiz-2.sol\":3368:3407  require(msg.sender == polls[_title].by) */\n      tag_141\n      jumpi\n      0x00\n      dup1\n      revert\n    tag_141:\n        /* \"contracts/0518/Quiz-2.sol\":3425:3430  polls */\n      0x00\n        /* \"contracts/0518/Quiz-2.sol\":3431:3437  _title */\n      dup4\n      dup4\n        /* \"contracts/0518/Quiz-2.sol\":3425:3438  polls[_title] */\n      mload(0x40)\n      tag_142\n      swap3\n      swap2\n      swap1\n      tag_140\n      jump\t// in\n    tag_142:\n      swap1\n      dup2\n      mstore\n      0x20\n      add\n      mload(0x40)\n      dup1\n      swap2\n      sub\n      swap1\n      keccak256\n        /* \"contracts/0518/Quiz-2.sol\":3418:3438  return polls[_title] */\n      mload(0x40)\n      dup1\n      0x0100\n      add\n      0x40\n      mstore\n      swap1\n      dup2\n      0x00\n      dup3\n      add\n      sload\n      dup2\n      mstore\n      0x20\n      add\n      0x01\n      dup3\n      add\n      dup1\n      sload\n      tag_143\n      swap1\n      tag_52\n      jump\t// in\n    tag_143:\n      dup1\n      0x1f\n      add\n      0x20\n      dup1\n      swap2\n      div\n      mul\n      0x20\n      add\n      mload(0x40)\n      swap1\n      dup2\n      add\n      0x40\n      mstore\n      dup1\n      swap3\n      swap2\n      swap1\n      dup2\n      dup2\n      mstore\n      0x20\n      add\n      dup3\n      dup1\n      sload\n      tag_144\n      swap1\n      tag_52\n      jump\t// in\n    tag_144:\n      dup1\n      iszero\n      tag_145\n      jumpi\n      dup1\n      0x1f\n      lt\n      tag_146\n      jumpi\n      0x0100\n      dup1\n      dup4\n      sload\n      div\n      mul\n      dup4\n      mstore\n      swap2\n      0x20\n      add\n      swap2\n      jump(tag_145)\n    tag_146:\n      dup3\n      add\n      swap2\n      swap1\n      0x00\n      mstore\n      keccak256(0x00, 0x20)\n      swap1\n    tag_147:\n      dup2\n      sload\n      dup2\n      mstore\n      swap1\n      0x01\n      add\n      swap1\n      0x20\n      add\n      dup1\n      dup4\n      gt\n      tag_147\n      jumpi\n      dup3\n      swap1\n      sub\n      0x1f\n      and\n      dup3\n      add\n      swap2\n    tag_145:\n      pop\n      pop\n      pop\n      pop\n      pop\n      dup2\n      mstore\n      0x20\n      add\n      0x02\n      dup3\n      add\n      dup1\n      sload\n      tag_148\n      swap1\n      tag_52\n      jump\t// in\n    tag_148:\n      dup1\n      0x1f\n      add\n      0x20\n      dup1\n      swap2\n      div\n      mul\n      0x20\n      add\n      mload(0x40)\n      swap1\n      dup2\n      add\n      0x40\n      mstore\n      dup1\n      swap3\n      swap2\n      swap1\n      dup2\n      dup2\n      mstore\n      0x20\n      add\n      dup3\n      dup1\n      sload\n      tag_149\n      swap1\n      tag_52\n      jump\t// in\n    tag_149:\n      dup1\n      iszero\n      tag_150\n      jumpi\n      dup1\n      0x1f\n      lt\n      tag_151\n      jumpi\n      0x0100\n      dup1\n      dup4\n      sload\n      div\n      mul\n      dup4\n      mstore\n      swap2\n      0x20\n      add\n      swap2\n      jump(tag_150)\n    tag_151:\n      dup3\n      add\n      swap2\n      swap1\n      0x00\n      mstore\n      keccak256(0x00, 0x20)\n      swap1\n    tag_152:\n      dup2\n      sload\n      dup2\n      mstore\n      swap1\n      0x01\n      add\n      swap1\n      0x20\n      add\n      dup1\n      dup4\n      gt\n      tag_152\n      jumpi\n      dup3\n      swap1\n      sub\n      0x1f\n      and\n      dup3\n      add\n      swap2\n    tag_150:\n      pop\n      pop\n      pop\n      pop\n      pop\n      dup2\n      mstore\n      0x20\n      add\n      0x03\n      dup3\n      add\n      0x00\n      swap1\n      sload\n      swap1\n      0x0100\n      exp\n      swap1\n      div\n      0xffffffffffffffffffffffffffffffffffffffff\n      and\n      0xffffffffffffffffffffffffffffffffffffffff\n      and\n      0xffffffffffffffffffffffffffffffffffffffff\n      and\n      dup2\n      mstore\n      0x20\n      add\n      0x04\n      dup3\n      add\n      sload\n      dup2\n      mstore\n      0x20\n      add\n      0x05\n      dup3\n      add\n      sload\n      dup2\n      mstore\n      0x20\n      add\n      0x06\n      dup3\n      add\n      sload\n      dup2\n      mstore\n      0x20\n      add\n      0x07\n      dup3\n      add\n      0x00\n      swap1\n      sload\n      swap1\n      0x0100\n      exp\n      swap1\n      div\n      0xff\n      and\n      0x02\n      dup2\n      gt\n      iszero\n      tag_153\n      jumpi\n      tag_154\n      tag_64\n      jump\t// in\n    tag_154:\n    tag_153:\n      0x02\n      dup2\n      gt\n      iszero\n      tag_155\n      jumpi\n      tag_156\n      tag_64\n      jump\t// in\n    tag_156:\n    tag_155:\n      dup2\n      mstore\n      pop\n      pop\n      swap1\n      pop\n        /* \"contracts/0518/Quiz-2.sol\":3275:3446  function searchSuggested(string calldata _title) public view returns(poll memory) {... */\n      swap3\n      swap2\n      pop\n      pop\n      jump\t// out\n        /* \"contracts/0518/Quiz-2.sol\":3537:3739  function suggest(string calldata _title, string calldata _context) public IsItUser {... */\n    tag_45:\n        /* \"contracts/0518/Quiz-2.sol\":2120:2130  msg.sender */\n      caller\n        /* \"contracts/0518/Quiz-2.sol\":2094:2130  users[msg.sender].addr == msg.sender */\n      0xffffffffffffffffffffffffffffffffffffffff\n      and\n        /* \"contracts/0518/Quiz-2.sol\":2094:2099  users */\n      0x02\n        /* \"contracts/0518/Quiz-2.sol\":2094:2111  users[msg.sender] */\n      0x00\n        /* \"contracts/0518/Quiz-2.sol\":2100:2110  msg.sender */\n      caller\n        /* \"contracts/0518/Quiz-2.sol\":2094:2111  users[msg.sender] */\n      0xffffffffffffffffffffffffffffffffffffffff\n      and\n      0xffffffffffffffffffffffffffffffffffffffff\n      and\n      dup2\n      mstore\n      0x20\n      add\n      swap1\n      dup2\n      mstore\n      0x20\n      add\n      0x00\n      keccak256\n        /* \"contracts/0518/Quiz-2.sol\":2094:2116  users[msg.sender].addr */\n      0x01\n      add\n      0x00\n      swap1\n      sload\n      swap1\n      0x0100\n      exp\n      swap1\n      div\n      0xffffffffffffffffffffffffffffffffffffffff\n      and\n        /* \"contracts/0518/Quiz-2.sol\":2094:2130  users[msg.sender].addr == msg.sender */\n      0xffffffffffffffffffffffffffffffffffffffff\n      and\n      eq\n        /* \"contracts/0518/Quiz-2.sol\":2086:2131  require(users[msg.sender].addr == msg.sender) */\n      tag_158\n      jumpi\n      0x00\n      dup1\n      revert\n    tag_158:\n        /* \"contracts/0518/Quiz-2.sol\":3647:3731  poll(++count, _title, _context, msg.sender, block.timestamp,0,0, pollStatus.ongoing) */\n      mload(0x40)\n      dup1\n      0x0100\n      add\n      0x40\n      mstore\n      dup1\n        /* \"contracts/0518/Quiz-2.sol\":3654:3659  count */\n      0x01\n      0x00\n        /* \"contracts/0518/Quiz-2.sol\":3652:3659  ++count */\n      dup2\n      sload\n      tag_160\n      swap1\n      tag_85\n      jump\t// in\n    tag_160:\n      swap2\n      swap1\n      pop\n      dup2\n      swap1\n      sstore\n        /* \"contracts/0518/Quiz-2.sol\":3647:3731  poll(++count, _title, _context, msg.sender, block.timestamp,0,0, pollStatus.ongoing) */\n      dup2\n      mstore\n      0x20\n      add\n        /* \"contracts/0518/Quiz-2.sol\":3661:3667  _title */\n      dup6\n      dup6\n        /* \"contracts/0518/Quiz-2.sol\":3647:3731  poll(++count, _title, _context, msg.sender, block.timestamp,0,0, pollStatus.ongoing) */\n      dup1\n      dup1\n      0x1f\n      add\n      0x20\n      dup1\n      swap2\n      div\n      mul\n      0x20\n      add\n      mload(0x40)\n      swap1\n      dup2\n      add\n      0x40\n      mstore\n      dup1\n      swap4\n      swap3\n      swap2\n      swap1\n      dup2\n      dup2\n      mstore\n      0x20\n      add\n      dup4\n      dup4\n      dup1\n      dup3\n      dup5\n      calldatacopy\n      0x00\n      dup2\n      dup5\n      add\n      mstore\n      not(0x1f)\n      0x1f\n      dup3\n      add\n      and\n      swap1\n      pop\n      dup1\n      dup4\n      add\n      swap3\n      pop\n      pop\n      pop\n      pop\n      pop\n      pop\n      pop\n      dup2\n      mstore\n      0x20\n      add\n        /* \"contracts/0518/Quiz-2.sol\":3669:3677  _context */\n      dup4\n      dup4\n        /* \"contracts/0518/Quiz-2.sol\":3647:3731  poll(++count, _title, _context, msg.sender, block.timestamp,0,0, pollStatus.ongoing) */\n      dup1\n      dup1\n      0x1f\n      add\n      0x20\n      dup1\n      swap2\n      div\n      mul\n      0x20\n      add\n      mload(0x40)\n      swap1\n      dup2\n      add\n      0x40\n      mstore\n      dup1\n      swap4\n      swap3\n      swap2\n      swap1\n      dup2\n      dup2\n      mstore\n      0x20\n      add\n      dup4\n      dup4\n      dup1\n      dup3\n      dup5\n      calldatacopy\n      0x00\n      dup2\n      dup5\n      add\n      mstore\n      not(0x1f)\n      0x1f\n      dup3\n      add\n      and\n      swap1\n      pop\n      dup1\n      dup4\n      add\n      swap3\n      pop\n      pop\n      pop\n      pop\n      pop\n      pop\n      pop\n      dup2\n      mstore\n      0x20\n      add\n        /* \"contracts/0518/Quiz-2.sol\":3679:3689  msg.sender */\n      caller\n        /* \"contracts/0518/Quiz-2.sol\":3647:3731  poll(++count, _title, _context, msg.sender, block.timestamp,0,0, pollStatus.ongoing) */\n      0xffffffffffffffffffffffffffffffffffffffff\n      and\n      dup2\n      mstore\n      0x20\n      add\n        /* \"contracts/0518/Quiz-2.sol\":3691:3706  block.timestamp */\n      timestamp\n        /* \"contracts/0518/Quiz-2.sol\":3647:3731  poll(++count, _title, _context, msg.sender, block.timestamp,0,0, pollStatus.ongoing) */\n      dup2\n      mstore\n      0x20\n      add\n        /* \"contracts/0518/Quiz-2.sol\":3707:3708  0 */\n      0x00\n        /* \"contracts/0518/Quiz-2.sol\":3647:3731  poll(++count, _title, _context, msg.sender, block.timestamp,0,0, pollStatus.ongoing) */\n      dup2\n      mstore\n      0x20\n      add\n        /* \"contracts/0518/Quiz-2.sol\":3709:3710  0 */\n      0x00\n        /* \"contracts/0518/Quiz-2.sol\":3647:3731  poll(++count, _title, _context, msg.sender, block.timestamp,0,0, pollStatus.ongoing) */\n      dup2\n      mstore\n      0x20\n      add\n        /* \"contracts/0518/Quiz-2.sol\":3712:3730  pollStatus.ongoing */\n      0x00\n        /* \"contracts/0518/Quiz-2.sol\":3647:3731  poll(++count, _title, _context, msg.sender, block.timestamp,0,0, pollStatus.ongoing) */\n      0x02\n      dup2\n      gt\n      iszero\n      tag_161\n      jumpi\n      tag_162\n      tag_64\n      jump\t// in\n    tag_162:\n    tag_161:\n      dup2\n      mstore\n      pop\n        /* \"contracts/0518/Quiz-2.sol\":3631:3636  polls */\n      0x00\n        /* \"contracts/0518/Quiz-2.sol\":3637:3643  _title */\n      dup6\n      dup6\n        /* \"contracts/0518/Quiz-2.sol\":3631:3644  polls[_title] */\n      mload(0x40)\n      tag_163\n      swap3\n      swap2\n      swap1\n      tag_140\n      jump\t// in\n    tag_163:\n      swap1\n      dup2\n      mstore\n      0x20\n      add\n      mload(0x40)\n      dup1\n      swap2\n      sub\n      swap1\n      keccak256\n        /* \"contracts/0518/Quiz-2.sol\":3631:3731  polls[_title] = poll(++count, _title, _context, msg.sender, block.timestamp,0,0, pollStatus.ongoing) */\n      0x00\n      dup3\n      add\n      mload\n      dup2\n      0x00\n      add\n      sstore\n      0x20\n      dup3\n      add\n      mload\n      dup2\n      0x01\n      add\n      swap1\n      dup2\n      tag_164\n      swap2\n      swap1\n      tag_97\n      jump\t// in\n    tag_164:\n      pop\n      0x40\n      dup3\n      add\n      mload\n      dup2\n      0x02\n      add\n      swap1\n      dup2\n      tag_165\n      swap2\n      swap1\n      tag_97\n      jump\t// in\n    tag_165:\n      pop\n      0x60\n      dup3\n      add\n      mload\n      dup2\n      0x03\n      add\n      exp(0x0100, 0x00)\n      dup2\n      sload\n      dup2\n      0xffffffffffffffffffffffffffffffffffffffff\n      mul\n      not\n      and\n      swap1\n      dup4\n      0xffffffffffffffffffffffffffffffffffffffff\n      and\n      mul\n      or\n      swap1\n      sstore\n      pop\n      0x80\n      dup3\n      add\n      mload\n      dup2\n      0x04\n      add\n      sstore\n      0xa0\n      dup3\n      add\n      mload\n      dup2\n      0x05\n      add\n      sstore\n      0xc0\n      dup3\n      add\n      mload\n      dup2\n      0x06\n      add\n      sstore\n      0xe0\n      dup3\n      add\n      mload\n      dup2\n      0x07\n      add\n      exp(0x0100, 0x00)\n      dup2\n      sload\n      dup2\n      0xff\n      mul\n      not\n      and\n      swap1\n      dup4\n      0x02\n      dup2\n      gt\n      iszero\n      tag_166\n      jumpi\n      tag_167\n      tag_64\n      jump\t// in\n    tag_167:\n    tag_166:\n      mul\n      or\n      swap1\n      sstore\n      pop\n      swap1\n      pop\n      pop\n        /* \"contracts/0518/Quiz-2.sol\":3537:3739  function suggest(string calldata _title, string calldata _context) public IsItUser {... */\n      pop\n      pop\n      pop\n      pop\n      jump\t// out\n    tag_47:\n      mload(0x40)\n      dup1\n      0x0100\n      add\n      0x40\n      mstore\n      dup1\n      0x00\n      dup2\n      mstore\n      0x20\n      add\n      0x60\n      dup2\n      mstore\n      0x20\n      add\n      0x60\n      dup2\n      mstore\n      0x20\n      add\n      and(0xffffffffffffffffffffffffffffffffffffffff, 0x00)\n      dup2\n      mstore\n      0x20\n      add\n      0x00\n      dup2\n      mstore\n      0x20\n      add\n      0x00\n      dup2\n      mstore\n      0x20\n      add\n      0x00\n      dup2\n      mstore\n      0x20\n      add\n      0x00\n      0x02\n      dup2\n      gt\n      iszero\n      tag_168\n      jumpi\n      tag_169\n      tag_64\n      jump\t// in\n    tag_169:\n    tag_168:\n      dup2\n      mstore\n      pop\n      swap1\n      jump\t// out\n        /* \"#utility.yul\":7:84   */\n    tag_170:\n        /* \"#utility.yul\":44:51   */\n      0x00\n        /* \"#utility.yul\":73:78   */\n      dup2\n        /* \"#utility.yul\":62:78   */\n      swap1\n      pop\n        /* \"#utility.yul\":7:84   */\n      swap2\n      swap1\n      pop\n      jump\t// out\n        /* \"#utility.yul\":90:208   */\n    tag_171:\n        /* \"#utility.yul\":177:201   */\n      tag_232\n        /* \"#utility.yul\":195:200   */\n      dup2\n        /* \"#utility.yul\":177:201   */\n      tag_170\n      jump\t// in\n    tag_232:\n        /* \"#utility.yul\":172:175   */\n      dup3\n        /* \"#utility.yul\":165:202   */\n      mstore\n        /* \"#utility.yul\":90:208   */\n      pop\n      pop\n      jump\t// out\n        /* \"#utility.yul\":214:436   */\n    tag_15:\n        /* \"#utility.yul\":307:311   */\n      0x00\n        /* \"#utility.yul\":345:347   */\n      0x20\n        /* \"#utility.yul\":334:343   */\n      dup3\n        /* \"#utility.yul\":330:348   */\n      add\n        /* \"#utility.yul\":322:348   */\n      swap1\n      pop\n        /* \"#utility.yul\":358:429   */\n      tag_234\n        /* \"#utility.yul\":426:427   */\n      0x00\n        /* \"#utility.yul\":415:424   */\n      dup4\n        /* \"#utility.yul\":411:428   */\n      add\n        /* \"#utility.yul\":402:408   */\n      dup5\n        /* \"#utility.yul\":358:429   */\n      tag_171\n      jump\t// in\n    tag_234:\n        /* \"#utility.yul\":214:436   */\n      swap3\n      swap2\n      pop\n      pop\n      jump\t// out\n        /* \"#utility.yul\":442:517   */\n    tag_172:\n        /* \"#utility.yul\":475:481   */\n      0x00\n        /* \"#utility.yul\":508:510   */\n      0x40\n        /* \"#utility.yul\":502:511   */\n      mload\n        /* \"#utility.yul\":492:511   */\n      swap1\n      pop\n        /* \"#utility.yul\":442:517   */\n      swap1\n      jump\t// out\n        /* \"#utility.yul\":523:640   */\n    tag_173:\n        /* \"#utility.yul\":632:633   */\n      0x00\n        /* \"#utility.yul\":629:630   */\n      dup1\n        /* \"#utility.yul\":622:634   */\n      revert\n        /* \"#utility.yul\":646:763   */\n    tag_174:\n        /* \"#utility.yul\":755:756   */\n      0x00\n        /* \"#utility.yul\":752:753   */\n      dup1\n        /* \"#utility.yul\":745:757   */\n      revert\n        /* \"#utility.yul\":769:886   */\n    tag_175:\n        /* \"#utility.yul\":878:879   */\n      0x00\n        /* \"#utility.yul\":875:876   */\n      dup1\n        /* \"#utility.yul\":868:880   */\n      revert\n        /* \"#utility.yul\":892:1009   */\n    tag_176:\n        /* \"#utility.yul\":1001:1002   */\n      0x00\n        /* \"#utility.yul\":998:999   */\n      dup1\n        /* \"#utility.yul\":991:1003   */\n      revert\n        /* \"#utility.yul\":1015:1117   */\n    tag_177:\n        /* \"#utility.yul\":1056:1062   */\n      0x00\n        /* \"#utility.yul\":1107:1109   */\n      0x1f\n        /* \"#utility.yul\":1103:1110   */\n      not\n        /* \"#utility.yul\":1098:1100   */\n      0x1f\n        /* \"#utility.yul\":1091:1096   */\n      dup4\n        /* \"#utility.yul\":1087:1101   */\n      add\n        /* \"#utility.yul\":1083:1111   */\n      and\n        /* \"#utility.yul\":1073:1111   */\n      swap1\n      pop\n        /* \"#utility.yul\":1015:1117   */\n      swap2\n      swap1\n      pop\n      jump\t// out\n        /* \"#utility.yul\":1123:1303   */\n    tag_178:\n        /* \"#utility.yul\":1171:1248   */\n      0x4e487b7100000000000000000000000000000000000000000000000000000000\n        /* \"#utility.yul\":1168:1169   */\n      0x00\n        /* \"#utility.yul\":1161:1249   */\n      mstore\n        /* \"#utility.yul\":1268:1272   */\n      0x41\n        /* \"#utility.yul\":1265:1266   */\n      0x04\n        /* \"#utility.yul\":1258:1273   */\n      mstore\n        /* \"#utility.yul\":1292:1296   */\n      0x24\n        /* \"#utility.yul\":1289:1290   */\n      0x00\n        /* \"#utility.yul\":1282:1297   */\n      revert\n        /* \"#utility.yul\":1309:1590   */\n    tag_179:\n        /* \"#utility.yul\":1392:1419   */\n      tag_243\n        /* \"#utility.yul\":1414:1418   */\n      dup3\n        /* \"#utility.yul\":1392:1419   */\n      tag_177\n      jump\t// in\n    tag_243:\n        /* \"#utility.yul\":1384:1390   */\n      dup2\n        /* \"#utility.yul\":1380:1420   */\n      add\n        /* \"#utility.yul\":1522:1528   */\n      dup2\n        /* \"#utility.yul\":1510:1520   */\n      dup2\n        /* \"#utility.yul\":1507:1529   */\n      lt\n        /* \"#utility.yul\":1486:1504   */\n      0xffffffffffffffff\n        /* \"#utility.yul\":1474:1484   */\n      dup3\n        /* \"#utility.yul\":1471:1505   */\n      gt\n        /* \"#utility.yul\":1468:1530   */\n      or\n        /* \"#utility.yul\":1465:1553   */\n      iszero\n      tag_244\n      jumpi\n        /* \"#utility.yul\":1533:1551   */\n      tag_245\n      tag_178\n      jump\t// in\n    tag_245:\n        /* \"#utility.yul\":1465:1553   */\n    tag_244:\n        /* \"#utility.yul\":1573:1583   */\n      dup1\n        /* \"#utility.yul\":1569:1571   */\n      0x40\n        /* \"#utility.yul\":1562:1584   */\n      mstore\n        /* \"#utility.yul\":1352:1590   */\n      pop\n        /* \"#utility.yul\":1309:1590   */\n      pop\n      pop\n      jump\t// out\n        /* \"#utility.yul\":1596:1725   */\n    tag_180:\n        /* \"#utility.yul\":1630:1636   */\n      0x00\n        /* \"#utility.yul\":1657:1677   */\n      tag_247\n      tag_172\n      jump\t// in\n    tag_247:\n        /* \"#utility.yul\":1647:1677   */\n      swap1\n      pop\n        /* \"#utility.yul\":1686:1719   */\n      tag_248\n        /* \"#utility.yul\":1714:1718   */\n      dup3\n        /* \"#utility.yul\":1706:1712   */\n      dup3\n        /* \"#utility.yul\":1686:1719   */\n      tag_179\n      jump\t// in\n    tag_248:\n        /* \"#utility.yul\":1596:1725   */\n      swap2\n      swap1\n      pop\n      jump\t// out\n        /* \"#utility.yul\":1731:2039   */\n    tag_181:\n        /* \"#utility.yul\":1793:1797   */\n      0x00\n        /* \"#utility.yul\":1883:1901   */\n      0xffffffffffffffff\n        /* \"#utility.yul\":1875:1881   */\n      dup3\n        /* \"#utility.yul\":1872:1902   */\n      gt\n        /* \"#utility.yul\":1869:1925   */\n      iszero\n      tag_250\n      jumpi\n        /* \"#utility.yul\":1905:1923   */\n      tag_251\n      tag_178\n      jump\t// in\n    tag_251:\n        /* \"#utility.yul\":1869:1925   */\n    tag_250:\n        /* \"#utility.yul\":1943:1972   */\n      tag_252\n        /* \"#utility.yul\":1965:1971   */\n      dup3\n        /* \"#utility.yul\":1943:1972   */\n      tag_177\n      jump\t// in\n    tag_252:\n        /* \"#utility.yul\":1935:1972   */\n      swap1\n      pop\n        /* \"#utility.yul\":2027:2031   */\n      0x20\n        /* \"#utility.yul\":2021:2025   */\n      dup2\n        /* \"#utility.yul\":2017:2032   */\n      add\n        /* \"#utility.yul\":2009:2032   */\n      swap1\n      pop\n        /* \"#utility.yul\":1731:2039   */\n      swap2\n      swap1\n      pop\n      jump\t// out\n        /* \"#utility.yul\":2045:2191   */\n    tag_182:\n        /* \"#utility.yul\":2142:2148   */\n      dup3\n        /* \"#utility.yul\":2137:2140   */\n      dup2\n        /* \"#utility.yul\":2132:2135   */\n      dup4\n        /* \"#utility.yul\":2119:2149   */\n      calldatacopy\n        /* \"#utility.yul\":2183:2184   */\n      0x00\n        /* \"#utility.yul\":2174:2180   */\n      dup4\n        /* \"#utility.yul\":2169:2172   */\n      dup4\n        /* \"#utility.yul\":2165:2181   */\n      add\n        /* \"#utility.yul\":2158:2185   */\n      mstore\n        /* \"#utility.yul\":2045:2191   */\n      pop\n      pop\n      pop\n      jump\t// out\n        /* \"#utility.yul\":2197:2622   */\n    tag_183:\n        /* \"#utility.yul\":2275:2280   */\n      0x00\n        /* \"#utility.yul\":2300:2366   */\n      tag_255\n        /* \"#utility.yul\":2316:2365   */\n      tag_256\n        /* \"#utility.yul\":2358:2364   */\n      dup5\n        /* \"#utility.yul\":2316:2365   */\n      tag_181\n      jump\t// in\n    tag_256:\n        /* \"#utility.yul\":2300:2366   */\n      tag_180\n      jump\t// in\n    tag_255:\n        /* \"#utility.yul\":2291:2366   */\n      swap1\n      pop\n        /* \"#utility.yul\":2389:2395   */\n      dup3\n        /* \"#utility.yul\":2382:2387   */\n      dup2\n        /* \"#utility.yul\":2375:2396   */\n      mstore\n        /* \"#utility.yul\":2427:2431   */\n      0x20\n        /* \"#utility.yul\":2420:2425   */\n      dup2\n        /* \"#utility.yul\":2416:2432   */\n      add\n        /* \"#utility.yul\":2465:2468   */\n      dup5\n        /* \"#utility.yul\":2456:2462   */\n      dup5\n        /* \"#utility.yul\":2451:2454   */\n      dup5\n        /* \"#utility.yul\":2447:2463   */\n      add\n        /* \"#utility.yul\":2444:2469   */\n      gt\n        /* \"#utility.yul\":2441:2553   */\n      iszero\n      tag_257\n      jumpi\n        /* \"#utility.yul\":2472:2551   */\n      tag_258\n      tag_176\n      jump\t// in\n    tag_258:\n        /* \"#utility.yul\":2441:2553   */\n    tag_257:\n        /* \"#utility.yul\":2562:2616   */\n      tag_259\n        /* \"#utility.yul\":2609:2615   */\n      dup5\n        /* \"#utility.yul\":2604:2607   */\n      dup3\n        /* \"#utility.yul\":2599:2602   */\n      dup6\n        /* \"#utility.yul\":2562:2616   */\n      tag_182\n      jump\t// in\n    tag_259:\n        /* \"#utility.yul\":2281:2622   */\n      pop\n        /* \"#utility.yul\":2197:2622   */\n      swap4\n      swap3\n      pop\n      pop\n      pop\n      jump\t// out\n        /* \"#utility.yul\":2642:2982   */\n    tag_184:\n        /* \"#utility.yul\":2698:2703   */\n      0x00\n        /* \"#utility.yul\":2747:2750   */\n      dup3\n        /* \"#utility.yul\":2740:2744   */\n      0x1f\n        /* \"#utility.yul\":2732:2738   */\n      dup4\n        /* \"#utility.yul\":2728:2745   */\n      add\n        /* \"#utility.yul\":2724:2751   */\n      slt\n        /* \"#utility.yul\":2714:2836   */\n      tag_261\n      jumpi\n        /* \"#utility.yul\":2755:2834   */\n      tag_262\n      tag_175\n      jump\t// in\n    tag_262:\n        /* \"#utility.yul\":2714:2836   */\n    tag_261:\n        /* \"#utility.yul\":2872:2878   */\n      dup2\n        /* \"#utility.yul\":2859:2879   */\n      calldataload\n        /* \"#utility.yul\":2897:2976   */\n      tag_263\n        /* \"#utility.yul\":2972:2975   */\n      dup5\n        /* \"#utility.yul\":2964:2970   */\n      dup3\n        /* \"#utility.yul\":2957:2961   */\n      0x20\n        /* \"#utility.yul\":2949:2955   */\n      dup7\n        /* \"#utility.yul\":2945:2962   */\n      add\n        /* \"#utility.yul\":2897:2976   */\n      tag_183\n      jump\t// in\n    tag_263:\n        /* \"#utility.yul\":2888:2976   */\n      swap2\n      pop\n        /* \"#utility.yul\":2704:2982   */\n      pop\n        /* \"#utility.yul\":2642:2982   */\n      swap3\n      swap2\n      pop\n      pop\n      jump\t// out\n        /* \"#utility.yul\":2988:3497   */\n    tag_18:\n        /* \"#utility.yul\":3057:3063   */\n      0x00\n        /* \"#utility.yul\":3106:3108   */\n      0x20\n        /* \"#utility.yul\":3094:3103   */\n      dup3\n        /* \"#utility.yul\":3085:3092   */\n      dup5\n        /* \"#utility.yul\":3081:3104   */\n      sub\n        /* \"#utility.yul\":3077:3109   */\n      slt\n        /* \"#utility.yul\":3074:3193   */\n      iszero\n      tag_265\n      jumpi\n        /* \"#utility.yul\":3112:3191   */\n      tag_266\n      tag_173\n      jump\t// in\n    tag_266:\n        /* \"#utility.yul\":3074:3193   */\n    tag_265:\n        /* \"#utility.yul\":3260:3261   */\n      0x00\n        /* \"#utility.yul\":3249:3258   */\n      dup3\n        /* \"#utility.yul\":3245:3262   */\n      add\n        /* \"#utility.yul\":3232:3263   */\n      calldataload\n        /* \"#utility.yul\":3290:3308   */\n      0xffffffffffffffff\n        /* \"#utility.yul\":3282:3288   */\n      dup2\n        /* \"#utility.yul\":3279:3309   */\n      gt\n        /* \"#utility.yul\":3276:3393   */\n      iszero\n      tag_267\n      jumpi\n        /* \"#utility.yul\":3312:3391   */\n      tag_268\n      tag_174\n      jump\t// in\n    tag_268:\n        /* \"#utility.yul\":3276:3393   */\n    tag_267:\n        /* \"#utility.yul\":3417:3480   */\n      tag_269\n        /* \"#utility.yul\":3472:3479   */\n      dup5\n        /* \"#utility.yul\":3463:3469   */\n      dup3\n        /* \"#utility.yul\":3452:3461   */\n      dup6\n        /* \"#utility.yul\":3448:3470   */\n      add\n        /* \"#utility.yul\":3417:3480   */\n      tag_184\n      jump\t// in\n    tag_269:\n        /* \"#utility.yul\":3407:3480   */\n      swap2\n      pop\n        /* \"#utility.yul\":3203:3490   */\n      pop\n        /* \"#utility.yul\":2988:3497   */\n      swap3\n      swap2\n      pop\n      pop\n      jump\t// out\n        /* \"#utility.yul\":3503:3611   */\n    tag_185:\n        /* \"#utility.yul\":3580:3604   */\n      tag_271\n        /* \"#utility.yul\":3598:3603   */\n      dup2\n        /* \"#utility.yul\":3580:3604   */\n      tag_170\n      jump\t// in\n    tag_271:\n        /* \"#utility.yul\":3575:3578   */\n      dup3\n        /* \"#utility.yul\":3568:3605   */\n      mstore\n        /* \"#utility.yul\":3503:3611   */\n      pop\n      pop\n      jump\t// out\n        /* \"#utility.yul\":3617:3716   */\n    tag_186:\n        /* \"#utility.yul\":3669:3675   */\n      0x00\n        /* \"#utility.yul\":3703:3708   */\n      dup2\n        /* \"#utility.yul\":3697:3709   */\n      mload\n        /* \"#utility.yul\":3687:3709   */\n      swap1\n      pop\n        /* \"#utility.yul\":3617:3716   */\n      swap2\n      swap1\n      pop\n      jump\t// out\n        /* \"#utility.yul\":3722:3881   */\n    tag_187:\n        /* \"#utility.yul\":3796:3807   */\n      0x00\n        /* \"#utility.yul\":3830:3836   */\n      dup3\n        /* \"#utility.yul\":3825:3828   */\n      dup3\n        /* \"#utility.yul\":3818:3837   */\n      mstore\n        /* \"#utility.yul\":3870:3874   */\n      0x20\n        /* \"#utility.yul\":3865:3868   */\n      dup3\n        /* \"#utility.yul\":3861:3875   */\n      add\n        /* \"#utility.yul\":3846:3875   */\n      swap1\n      pop\n        /* \"#utility.yul\":3722:3881   */\n      swap3\n      swap2\n      pop\n      pop\n      jump\t// out\n        /* \"#utility.yul\":3887:4133   */\n    tag_188:\n        /* \"#utility.yul\":3968:3969   */\n      0x00\n        /* \"#utility.yul\":3978:4091   */\n    tag_275:\n        /* \"#utility.yul\":3992:3998   */\n      dup4\n        /* \"#utility.yul\":3989:3990   */\n      dup2\n        /* \"#utility.yul\":3986:3999   */\n      lt\n        /* \"#utility.yul\":3978:4091   */\n      iszero\n      tag_277\n      jumpi\n        /* \"#utility.yul\":4077:4078   */\n      dup1\n        /* \"#utility.yul\":4072:4075   */\n      dup3\n        /* \"#utility.yul\":4068:4079   */\n      add\n        /* \"#utility.yul\":4062:4080   */\n      mload\n        /* \"#utility.yul\":4058:4059   */\n      dup2\n        /* \"#utility.yul\":4053:4056   */\n      dup5\n        /* \"#utility.yul\":4049:4060   */\n      add\n        /* \"#utility.yul\":4042:4081   */\n      mstore\n        /* \"#utility.yul\":4014:4016   */\n      0x20\n        /* \"#utility.yul\":4011:4012   */\n      dup2\n        /* \"#utility.yul\":4007:4017   */\n      add\n        /* \"#utility.yul\":4002:4017   */\n      swap1\n      pop\n        /* \"#utility.yul\":3978:4091   */\n      jump(tag_275)\n    tag_277:\n        /* \"#utility.yul\":4125:4126   */\n      0x00\n        /* \"#utility.yul\":4116:4122   */\n      dup5\n        /* \"#utility.yul\":4111:4114   */\n      dup5\n        /* \"#utility.yul\":4107:4123   */\n      add\n        /* \"#utility.yul\":4100:4127   */\n      mstore\n        /* \"#utility.yul\":3949:4133   */\n      pop\n        /* \"#utility.yul\":3887:4133   */\n      pop\n      pop\n      pop\n      jump\t// out\n        /* \"#utility.yul\":4139:4496   */\n    tag_189:\n        /* \"#utility.yul\":4217:4220   */\n      0x00\n        /* \"#utility.yul\":4245:4284   */\n      tag_279\n        /* \"#utility.yul\":4278:4283   */\n      dup3\n        /* \"#utility.yul\":4245:4284   */\n      tag_186\n      jump\t// in\n    tag_279:\n        /* \"#utility.yul\":4300:4361   */\n      tag_280\n        /* \"#utility.yul\":4354:4360   */\n      dup2\n        /* \"#utility.yul\":4349:4352   */\n      dup6\n        /* \"#utility.yul\":4300:4361   */\n      tag_187\n      jump\t// in\n    tag_280:\n        /* \"#utility.yul\":4293:4361   */\n      swap4\n      pop\n        /* \"#utility.yul\":4370:4435   */\n      tag_281\n        /* \"#utility.yul\":4428:4434   */\n      dup2\n        /* \"#utility.yul\":4423:4426   */\n      dup6\n        /* \"#utility.yul\":4416:4420   */\n      0x20\n        /* \"#utility.yul\":4409:4414   */\n      dup7\n        /* \"#utility.yul\":4405:4421   */\n      add\n        /* \"#utility.yul\":4370:4435   */\n      tag_188\n      jump\t// in\n    tag_281:\n        /* \"#utility.yul\":4460:4489   */\n      tag_282\n        /* \"#utility.yul\":4482:4488   */\n      dup2\n        /* \"#utility.yul\":4460:4489   */\n      tag_177\n      jump\t// in\n    tag_282:\n        /* \"#utility.yul\":4455:4458   */\n      dup5\n        /* \"#utility.yul\":4451:4490   */\n      add\n        /* \"#utility.yul\":4444:4490   */\n      swap2\n      pop\n        /* \"#utility.yul\":4221:4496   */\n      pop\n        /* \"#utility.yul\":4139:4496   */\n      swap3\n      swap2\n      pop\n      pop\n      jump\t// out\n        /* \"#utility.yul\":4502:4628   */\n    tag_190:\n        /* \"#utility.yul\":4539:4546   */\n      0x00\n        /* \"#utility.yul\":4579:4621   */\n      0xffffffffffffffffffffffffffffffffffffffff\n        /* \"#utility.yul\":4572:4577   */\n      dup3\n        /* \"#utility.yul\":4568:4622   */\n      and\n        /* \"#utility.yul\":4557:4622   */\n      swap1\n      pop\n        /* \"#utility.yul\":4502:4628   */\n      swap2\n      swap1\n      pop\n      jump\t// out\n        /* \"#utility.yul\":4634:4730   */\n    tag_191:\n        /* \"#utility.yul\":4671:4678   */\n      0x00\n        /* \"#utility.yul\":4700:4724   */\n      tag_285\n        /* \"#utility.yul\":4718:4723   */\n      dup3\n        /* \"#utility.yul\":4700:4724   */\n      tag_190\n      jump\t// in\n    tag_285:\n        /* \"#utility.yul\":4689:4724   */\n      swap1\n      pop\n        /* \"#utility.yul\":4634:4730   */\n      swap2\n      swap1\n      pop\n      jump\t// out\n        /* \"#utility.yul\":4736:4844   */\n    tag_192:\n        /* \"#utility.yul\":4813:4837   */\n      tag_287\n        /* \"#utility.yul\":4831:4836   */\n      dup2\n        /* \"#utility.yul\":4813:4837   */\n      tag_191\n      jump\t// in\n    tag_287:\n        /* \"#utility.yul\":4808:4811   */\n      dup3\n        /* \"#utility.yul\":4801:4838   */\n      mstore\n        /* \"#utility.yul\":4736:4844   */\n      pop\n      pop\n      jump\t// out\n        /* \"#utility.yul\":4850:5030   */\n    tag_64:\n        /* \"#utility.yul\":4898:4975   */\n      0x4e487b7100000000000000000000000000000000000000000000000000000000\n        /* \"#utility.yul\":4895:4896   */\n      0x00\n        /* \"#utility.yul\":4888:4976   */\n      mstore\n        /* \"#utility.yul\":4995:4999   */\n      0x21\n        /* \"#utility.yul\":4992:4993   */\n      0x04\n        /* \"#utility.yul\":4985:5000   */\n      mstore\n        /* \"#utility.yul\":5019:5023   */\n      0x24\n        /* \"#utility.yul\":5016:5017   */\n      0x00\n        /* \"#utility.yul\":5009:5024   */\n      revert\n        /* \"#utility.yul\":5036:5154   */\n    tag_193:\n        /* \"#utility.yul\":5122:5123   */\n      0x03\n        /* \"#utility.yul\":5115:5120   */\n      dup2\n        /* \"#utility.yul\":5112:5124   */\n      lt\n        /* \"#utility.yul\":5102:5148   */\n      tag_290\n      jumpi\n        /* \"#utility.yul\":5128:5146   */\n      tag_291\n      tag_64\n      jump\t// in\n    tag_291:\n        /* \"#utility.yul\":5102:5148   */\n    tag_290:\n        /* \"#utility.yul\":5036:5154   */\n      pop\n      jump\t// out\n        /* \"#utility.yul\":5160:5297   */\n    tag_194:\n        /* \"#utility.yul\":5210:5217   */\n      0x00\n        /* \"#utility.yul\":5239:5244   */\n      dup2\n        /* \"#utility.yul\":5228:5244   */\n      swap1\n      pop\n        /* \"#utility.yul\":5245:5291   */\n      tag_293\n        /* \"#utility.yul\":5285:5290   */\n      dup3\n        /* \"#utility.yul\":5245:5291   */\n      tag_193\n      jump\t// in\n    tag_293:\n        /* \"#utility.yul\":5160:5297   */\n      swap2\n      swap1\n      pop\n      jump\t// out\n        /* \"#utility.yul\":5303:5440   */\n    tag_195:\n        /* \"#utility.yul\":5364:5373   */\n      0x00\n        /* \"#utility.yul\":5397:5434   */\n      tag_295\n        /* \"#utility.yul\":5428:5433   */\n      dup3\n        /* \"#utility.yul\":5397:5434   */\n      tag_194\n      jump\t// in\n    tag_295:\n        /* \"#utility.yul\":5384:5434   */\n      swap1\n      pop\n        /* \"#utility.yul\":5303:5440   */\n      swap2\n      swap1\n      pop\n      jump\t// out\n        /* \"#utility.yul\":5446:5589   */\n    tag_196:\n        /* \"#utility.yul\":5534:5582   */\n      tag_297\n        /* \"#utility.yul\":5576:5581   */\n      dup2\n        /* \"#utility.yul\":5534:5582   */\n      tag_195\n      jump\t// in\n    tag_297:\n        /* \"#utility.yul\":5529:5532   */\n      dup3\n        /* \"#utility.yul\":5522:5583   */\n      mstore\n        /* \"#utility.yul\":5446:5589   */\n      pop\n      pop\n      jump\t// out\n        /* \"#utility.yul\":5635:7365   */\n    tag_197:\n        /* \"#utility.yul\":5744:5747   */\n      0x00\n        /* \"#utility.yul\":5780:5786   */\n      0x0100\n        /* \"#utility.yul\":5775:5778   */\n      dup4\n        /* \"#utility.yul\":5771:5787   */\n      add\n        /* \"#utility.yul\":5871:5875   */\n      0x00\n        /* \"#utility.yul\":5864:5869   */\n      dup4\n        /* \"#utility.yul\":5860:5876   */\n      add\n        /* \"#utility.yul\":5854:5877   */\n      mload\n        /* \"#utility.yul\":5890:5953   */\n      tag_299\n        /* \"#utility.yul\":5947:5951   */\n      0x00\n        /* \"#utility.yul\":5942:5945   */\n      dup7\n        /* \"#utility.yul\":5938:5952   */\n      add\n        /* \"#utility.yul\":5924:5936   */\n      dup3\n        /* \"#utility.yul\":5890:5953   */\n      tag_185\n      jump\t// in\n    tag_299:\n        /* \"#utility.yul\":5797:5963   */\n      pop\n        /* \"#utility.yul\":6046:6050   */\n      0x20\n        /* \"#utility.yul\":6039:6044   */\n      dup4\n        /* \"#utility.yul\":6035:6051   */\n      add\n        /* \"#utility.yul\":6029:6052   */\n      mload\n        /* \"#utility.yul\":6099:6102   */\n      dup5\n        /* \"#utility.yul\":6093:6097   */\n      dup3\n        /* \"#utility.yul\":6089:6103   */\n      sub\n        /* \"#utility.yul\":6082:6086   */\n      0x20\n        /* \"#utility.yul\":6077:6080   */\n      dup7\n        /* \"#utility.yul\":6073:6087   */\n      add\n        /* \"#utility.yul\":6066:6104   */\n      mstore\n        /* \"#utility.yul\":6125:6198   */\n      tag_300\n        /* \"#utility.yul\":6193:6197   */\n      dup3\n        /* \"#utility.yul\":6179:6191   */\n      dup3\n        /* \"#utility.yul\":6125:6198   */\n      tag_189\n      jump\t// in\n    tag_300:\n        /* \"#utility.yul\":6117:6198   */\n      swap2\n      pop\n        /* \"#utility.yul\":5973:6209   */\n      pop\n        /* \"#utility.yul\":6294:6298   */\n      0x40\n        /* \"#utility.yul\":6287:6292   */\n      dup4\n        /* \"#utility.yul\":6283:6299   */\n      add\n        /* \"#utility.yul\":6277:6300   */\n      mload\n        /* \"#utility.yul\":6347:6350   */\n      dup5\n        /* \"#utility.yul\":6341:6345   */\n      dup3\n        /* \"#utility.yul\":6337:6351   */\n      sub\n        /* \"#utility.yul\":6330:6334   */\n      0x40\n        /* \"#utility.yul\":6325:6328   */\n      dup7\n        /* \"#utility.yul\":6321:6335   */\n      add\n        /* \"#utility.yul\":6314:6352   */\n      mstore\n        /* \"#utility.yul\":6373:6446   */\n      tag_301\n        /* \"#utility.yul\":6441:6445   */\n      dup3\n        /* \"#utility.yul\":6427:6439   */\n      dup3\n        /* \"#utility.yul\":6373:6446   */\n      tag_189\n      jump\t// in\n    tag_301:\n        /* \"#utility.yul\":6365:6446   */\n      swap2\n      pop\n        /* \"#utility.yul\":6219:6457   */\n      pop\n        /* \"#utility.yul\":6537:6541   */\n      0x60\n        /* \"#utility.yul\":6530:6535   */\n      dup4\n        /* \"#utility.yul\":6526:6542   */\n      add\n        /* \"#utility.yul\":6520:6543   */\n      mload\n        /* \"#utility.yul\":6556:6619   */\n      tag_302\n        /* \"#utility.yul\":6613:6617   */\n      0x60\n        /* \"#utility.yul\":6608:6611   */\n      dup7\n        /* \"#utility.yul\":6604:6618   */\n      add\n        /* \"#utility.yul\":6590:6602   */\n      dup3\n        /* \"#utility.yul\":6556:6619   */\n      tag_192\n      jump\t// in\n    tag_302:\n        /* \"#utility.yul\":6467:6629   */\n      pop\n        /* \"#utility.yul\":6711:6715   */\n      0x80\n        /* \"#utility.yul\":6704:6709   */\n      dup4\n        /* \"#utility.yul\":6700:6716   */\n      add\n        /* \"#utility.yul\":6694:6717   */\n      mload\n        /* \"#utility.yul\":6730:6793   */\n      tag_303\n        /* \"#utility.yul\":6787:6791   */\n      0x80\n        /* \"#utility.yul\":6782:6785   */\n      dup7\n        /* \"#utility.yul\":6778:6792   */\n      add\n        /* \"#utility.yul\":6764:6776   */\n      dup3\n        /* \"#utility.yul\":6730:6793   */\n      tag_185\n      jump\t// in\n    tag_303:\n        /* \"#utility.yul\":6639:6803   */\n      pop\n        /* \"#utility.yul\":6885:6889   */\n      0xa0\n        /* \"#utility.yul\":6878:6883   */\n      dup4\n        /* \"#utility.yul\":6874:6890   */\n      add\n        /* \"#utility.yul\":6868:6891   */\n      mload\n        /* \"#utility.yul\":6904:6967   */\n      tag_304\n        /* \"#utility.yul\":6961:6965   */\n      0xa0\n        /* \"#utility.yul\":6956:6959   */\n      dup7\n        /* \"#utility.yul\":6952:6966   */\n      add\n        /* \"#utility.yul\":6938:6950   */\n      dup3\n        /* \"#utility.yul\":6904:6967   */\n      tag_185\n      jump\t// in\n    tag_304:\n        /* \"#utility.yul\":6813:6977   */\n      pop\n        /* \"#utility.yul\":7059:7063   */\n      0xc0\n        /* \"#utility.yul\":7052:7057   */\n      dup4\n        /* \"#utility.yul\":7048:7064   */\n      add\n        /* \"#utility.yul\":7042:7065   */\n      mload\n        /* \"#utility.yul\":7078:7141   */\n      tag_305\n        /* \"#utility.yul\":7135:7139   */\n      0xc0\n        /* \"#utility.yul\":7130:7133   */\n      dup7\n        /* \"#utility.yul\":7126:7140   */\n      add\n        /* \"#utility.yul\":7112:7124   */\n      dup3\n        /* \"#utility.yul\":7078:7141   */\n      tag_185\n      jump\t// in\n    tag_305:\n        /* \"#utility.yul\":6987:7151   */\n      pop\n        /* \"#utility.yul\":7235:7239   */\n      0xe0\n        /* \"#utility.yul\":7228:7233   */\n      dup4\n        /* \"#utility.yul\":7224:7240   */\n      add\n        /* \"#utility.yul\":7218:7241   */\n      mload\n        /* \"#utility.yul\":7254:7328   */\n      tag_306\n        /* \"#utility.yul\":7322:7326   */\n      0xe0\n        /* \"#utility.yul\":7317:7320   */\n      dup7\n        /* \"#utility.yul\":7313:7327   */\n      add\n        /* \"#utility.yul\":7299:7311   */\n      dup3\n        /* \"#utility.yul\":7254:7328   */\n      tag_196\n      jump\t// in\n    tag_306:\n        /* \"#utility.yul\":7161:7338   */\n      pop\n        /* \"#utility.yul\":7355:7359   */\n      dup1\n        /* \"#utility.yul\":7348:7359   */\n      swap2\n      pop\n        /* \"#utility.yul\":5749:7365   */\n      pop\n        /* \"#utility.yul\":5635:7365   */\n      swap3\n      swap2\n      pop\n      pop\n      jump\t// out\n        /* \"#utility.yul\":7371:7724   */\n    tag_21:\n        /* \"#utility.yul\":7504:7508   */\n      0x00\n        /* \"#utility.yul\":7542:7544   */\n      0x20\n        /* \"#utility.yul\":7531:7540   */\n      dup3\n        /* \"#utility.yul\":7527:7545   */\n      add\n        /* \"#utility.yul\":7519:7545   */\n      swap1\n      pop\n        /* \"#utility.yul\":7591:7600   */\n      dup2\n        /* \"#utility.yul\":7585:7589   */\n      dup2\n        /* \"#utility.yul\":7581:7601   */\n      sub\n        /* \"#utility.yul\":7577:7578   */\n      0x00\n        /* \"#utility.yul\":7566:7575   */\n      dup4\n        /* \"#utility.yul\":7562:7579   */\n      add\n        /* \"#utility.yul\":7555:7602   */\n      mstore\n        /* \"#utility.yul\":7619:7717   */\n      tag_308\n        /* \"#utility.yul\":7712:7716   */\n      dup2\n        /* \"#utility.yul\":7703:7709   */\n      dup5\n        /* \"#utility.yul\":7619:7717   */\n      tag_197\n      jump\t// in\n    tag_308:\n        /* \"#utility.yul\":7611:7717   */\n      swap1\n      pop\n        /* \"#utility.yul\":7371:7724   */\n      swap3\n      swap2\n      pop\n      pop\n      jump\t// out\n        /* \"#utility.yul\":7730:7820   */\n    tag_198:\n        /* \"#utility.yul\":7764:7771   */\n      0x00\n        /* \"#utility.yul\":7807:7812   */\n      dup2\n        /* \"#utility.yul\":7800:7813   */\n      iszero\n        /* \"#utility.yul\":7793:7814   */\n      iszero\n        /* \"#utility.yul\":7782:7814   */\n      swap1\n      pop\n        /* \"#utility.yul\":7730:7820   */\n      swap2\n      swap1\n      pop\n      jump\t// out\n        /* \"#utility.yul\":7826:7942   */\n    tag_199:\n        /* \"#utility.yul\":7896:7917   */\n      tag_311\n        /* \"#utility.yul\":7911:7916   */\n      dup2\n        /* \"#utility.yul\":7896:7917   */\n      tag_198\n      jump\t// in\n    tag_311:\n        /* \"#utility.yul\":7889:7894   */\n      dup2\n        /* \"#utility.yul\":7886:7918   */\n      eq\n        /* \"#utility.yul\":7876:7936   */\n      tag_312\n      jumpi\n        /* \"#utility.yul\":7932:7933   */\n      0x00\n        /* \"#utility.yul\":7929:7930   */\n      dup1\n        /* \"#utility.yul\":7922:7934   */\n      revert\n        /* \"#utility.yul\":7876:7936   */\n    tag_312:\n        /* \"#utility.yul\":7826:7942   */\n      pop\n      jump\t// out\n        /* \"#utility.yul\":7948:8081   */\n    tag_200:\n        /* \"#utility.yul\":7991:7996   */\n      0x00\n        /* \"#utility.yul\":8029:8035   */\n      dup2\n        /* \"#utility.yul\":8016:8036   */\n      calldataload\n        /* \"#utility.yul\":8007:8036   */\n      swap1\n      pop\n        /* \"#utility.yul\":8045:8075   */\n      tag_314\n        /* \"#utility.yul\":8069:8074   */\n      dup2\n        /* \"#utility.yul\":8045:8075   */\n      tag_199\n      jump\t// in\n    tag_314:\n        /* \"#utility.yul\":7948:8081   */\n      swap3\n      swap2\n      pop\n      pop\n      jump\t// out\n        /* \"#utility.yul\":8087:8735   */\n    tag_24:\n        /* \"#utility.yul\":8162:8168   */\n      0x00\n        /* \"#utility.yul\":8170:8176   */\n      dup1\n        /* \"#utility.yul\":8219:8221   */\n      0x40\n        /* \"#utility.yul\":8207:8216   */\n      dup4\n        /* \"#utility.yul\":8198:8205   */\n      dup6\n        /* \"#utility.yul\":8194:8217   */\n      sub\n        /* \"#utility.yul\":8190:8222   */\n      slt\n        /* \"#utility.yul\":8187:8306   */\n      iszero\n      tag_316\n      jumpi\n        /* \"#utility.yul\":8225:8304   */\n      tag_317\n      tag_173\n      jump\t// in\n    tag_317:\n        /* \"#utility.yul\":8187:8306   */\n    tag_316:\n        /* \"#utility.yul\":8373:8374   */\n      0x00\n        /* \"#utility.yul\":8362:8371   */\n      dup4\n        /* \"#utility.yul\":8358:8375   */\n      add\n        /* \"#utility.yul\":8345:8376   */\n      calldataload\n        /* \"#utility.yul\":8403:8421   */\n      0xffffffffffffffff\n        /* \"#utility.yul\":8395:8401   */\n      dup2\n        /* \"#utility.yul\":8392:8422   */\n      gt\n        /* \"#utility.yul\":8389:8506   */\n      iszero\n      tag_318\n      jumpi\n        /* \"#utility.yul\":8425:8504   */\n      tag_319\n      tag_174\n      jump\t// in\n    tag_319:\n        /* \"#utility.yul\":8389:8506   */\n    tag_318:\n        /* \"#utility.yul\":8530:8593   */\n      tag_320\n        /* \"#utility.yul\":8585:8592   */\n      dup6\n        /* \"#utility.yul\":8576:8582   */\n      dup3\n        /* \"#utility.yul\":8565:8574   */\n      dup7\n        /* \"#utility.yul\":8561:8583   */\n      add\n        /* \"#utility.yul\":8530:8593   */\n      tag_184\n      jump\t// in\n    tag_320:\n        /* \"#utility.yul\":8520:8593   */\n      swap3\n      pop\n        /* \"#utility.yul\":8316:8603   */\n      pop\n        /* \"#utility.yul\":8642:8644   */\n      0x20\n        /* \"#utility.yul\":8668:8718   */\n      tag_321\n        /* \"#utility.yul\":8710:8717   */\n      dup6\n        /* \"#utility.yul\":8701:8707   */\n      dup3\n        /* \"#utility.yul\":8690:8699   */\n      dup7\n        /* \"#utility.yul\":8686:8708   */\n      add\n        /* \"#utility.yul\":8668:8718   */\n      tag_200\n      jump\t// in\n    tag_321:\n        /* \"#utility.yul\":8658:8718   */\n      swap2\n      pop\n        /* \"#utility.yul\":8613:8728   */\n      pop\n        /* \"#utility.yul\":8087:8735   */\n      swap3\n      pop\n      swap3\n      swap1\n      pop\n      jump\t// out\n        /* \"#utility.yul\":8741:8910   */\n    tag_201:\n        /* \"#utility.yul\":8825:8836   */\n      0x00\n        /* \"#utility.yul\":8859:8865   */\n      dup3\n        /* \"#utility.yul\":8854:8857   */\n      dup3\n        /* \"#utility.yul\":8847:8866   */\n      mstore\n        /* \"#utility.yul\":8899:8903   */\n      0x20\n        /* \"#utility.yul\":8894:8897   */\n      dup3\n        /* \"#utility.yul\":8890:8904   */\n      add\n        /* \"#utility.yul\":8875:8904   */\n      swap1\n      pop\n        /* \"#utility.yul\":8741:8910   */\n      swap3\n      swap2\n      pop\n      pop\n      jump\t// out\n        /* \"#utility.yul\":8916:9293   */\n    tag_202:\n        /* \"#utility.yul\":9004:9007   */\n      0x00\n        /* \"#utility.yul\":9032:9071   */\n      tag_324\n        /* \"#utility.yul\":9065:9070   */\n      dup3\n        /* \"#utility.yul\":9032:9071   */\n      tag_186\n      jump\t// in\n    tag_324:\n        /* \"#utility.yul\":9087:9158   */\n      tag_325\n        /* \"#utility.yul\":9151:9157   */\n      dup2\n        /* \"#utility.yul\":9146:9149   */\n      dup6\n        /* \"#utility.yul\":9087:9158   */\n      tag_201\n      jump\t// in\n    tag_325:\n        /* \"#utility.yul\":9080:9158   */\n      swap4\n      pop\n        /* \"#utility.yul\":9167:9232   */\n      tag_326\n        /* \"#utility.yul\":9225:9231   */\n      dup2\n        /* \"#utility.yul\":9220:9223   */\n      dup6\n        /* \"#utility.yul\":9213:9217   */\n      0x20\n        /* \"#utility.yul\":9206:9211   */\n      dup7\n        /* \"#utility.yul\":9202:9218   */\n      add\n        /* \"#utility.yul\":9167:9232   */\n      tag_188\n      jump\t// in\n    tag_326:\n        /* \"#utility.yul\":9257:9286   */\n      tag_327\n        /* \"#utility.yul\":9279:9285   */\n      dup2\n        /* \"#utility.yul\":9257:9286   */\n      tag_177\n      jump\t// in\n    tag_327:\n        /* \"#utility.yul\":9252:9255   */\n      dup5\n        /* \"#utility.yul\":9248:9287   */\n      add\n        /* \"#utility.yul\":9241:9287   */\n      swap2\n      pop\n        /* \"#utility.yul\":9008:9293   */\n      pop\n        /* \"#utility.yul\":8916:9293   */\n      swap3\n      swap2\n      pop\n      pop\n      jump\t// out\n        /* \"#utility.yul\":9299:9417   */\n    tag_203:\n        /* \"#utility.yul\":9386:9410   */\n      tag_329\n        /* \"#utility.yul\":9404:9409   */\n      dup2\n        /* \"#utility.yul\":9386:9410   */\n      tag_191\n      jump\t// in\n    tag_329:\n        /* \"#utility.yul\":9381:9384   */\n      dup3\n        /* \"#utility.yul\":9374:9411   */\n      mstore\n        /* \"#utility.yul\":9299:9417   */\n      pop\n      pop\n      jump\t// out\n        /* \"#utility.yul\":9423:9576   */\n    tag_204:\n        /* \"#utility.yul\":9521:9569   */\n      tag_331\n        /* \"#utility.yul\":9563:9568   */\n      dup2\n        /* \"#utility.yul\":9521:9569   */\n      tag_195\n      jump\t// in\n    tag_331:\n        /* \"#utility.yul\":9516:9519   */\n      dup3\n        /* \"#utility.yul\":9509:9570   */\n      mstore\n        /* \"#utility.yul\":9423:9576   */\n      pop\n      pop\n      jump\t// out\n        /* \"#utility.yul\":9582:10783   */\n    tag_33:\n        /* \"#utility.yul\":9922:9926   */\n      0x00\n        /* \"#utility.yul\":9960:9963   */\n      0x0100\n        /* \"#utility.yul\":9949:9958   */\n      dup3\n        /* \"#utility.yul\":9945:9964   */\n      add\n        /* \"#utility.yul\":9937:9964   */\n      swap1\n      pop\n        /* \"#utility.yul\":9974:10045   */\n      tag_333\n        /* \"#utility.yul\":10042:10043   */\n      0x00\n        /* \"#utility.yul\":10031:10040   */\n      dup4\n        /* \"#utility.yul\":10027:10044   */\n      add\n        /* \"#utility.yul\":10018:10024   */\n      dup12\n        /* \"#utility.yul\":9974:10045   */\n      tag_171\n      jump\t// in\n    tag_333:\n        /* \"#utility.yul\":10092:10101   */\n      dup2\n        /* \"#utility.yul\":10086:10090   */\n      dup2\n        /* \"#utility.yul\":10082:10102   */\n      sub\n        /* \"#utility.yul\":10077:10079   */\n      0x20\n        /* \"#utility.yul\":10066:10075   */\n      dup4\n        /* \"#utility.yul\":10062:10080   */\n      add\n        /* \"#utility.yul\":10055:10103   */\n      mstore\n        /* \"#utility.yul\":10120:10198   */\n      tag_334\n        /* \"#utility.yul\":10193:10197   */\n      dup2\n        /* \"#utility.yul\":10184:10190   */\n      dup11\n        /* \"#utility.yul\":10120:10198   */\n      tag_202\n      jump\t// in\n    tag_334:\n        /* \"#utility.yul\":10112:10198   */\n      swap1\n      pop\n        /* \"#utility.yul\":10245:10254   */\n      dup2\n        /* \"#utility.yul\":10239:10243   */\n      dup2\n        /* \"#utility.yul\":10235:10255   */\n      sub\n        /* \"#utility.yul\":10230:10232   */\n      0x40\n        /* \"#utility.yul\":10219:10228   */\n      dup4\n        /* \"#utility.yul\":10215:10233   */\n      add\n        /* \"#utility.yul\":10208:10256   */\n      mstore\n        /* \"#utility.yul\":10273:10351   */\n      tag_335\n        /* \"#utility.yul\":10346:10350   */\n      dup2\n        /* \"#utility.yul\":10337:10343   */\n      dup10\n        /* \"#utility.yul\":10273:10351   */\n      tag_202\n      jump\t// in\n    tag_335:\n        /* \"#utility.yul\":10265:10351   */\n      swap1\n      pop\n        /* \"#utility.yul\":10361:10433   */\n      tag_336\n        /* \"#utility.yul\":10429:10431   */\n      0x60\n        /* \"#utility.yul\":10418:10427   */\n      dup4\n        /* \"#utility.yul\":10414:10432   */\n      add\n        /* \"#utility.yul\":10405:10411   */\n      dup9\n        /* \"#utility.yul\":10361:10433   */\n      tag_203\n      jump\t// in\n    tag_336:\n        /* \"#utility.yul\":10443:10516   */\n      tag_337\n        /* \"#utility.yul\":10511:10514   */\n      0x80\n        /* \"#utility.yul\":10500:10509   */\n      dup4\n        /* \"#utility.yul\":10496:10515   */\n      add\n        /* \"#utility.yul\":10487:10493   */\n      dup8\n        /* \"#utility.yul\":10443:10516   */\n      tag_171\n      jump\t// in\n    tag_337:\n        /* \"#utility.yul\":10526:10599   */\n      tag_338\n        /* \"#utility.yul\":10594:10597   */\n      0xa0\n        /* \"#utility.yul\":10583:10592   */\n      dup4\n        /* \"#utility.yul\":10579:10598   */\n      add\n        /* \"#utility.yul\":10570:10576   */\n      dup7\n        /* \"#utility.yul\":10526:10599   */\n      tag_171\n      jump\t// in\n    tag_338:\n        /* \"#utility.yul\":10609:10682   */\n      tag_339\n        /* \"#utility.yul\":10677:10680   */\n      0xc0\n        /* \"#utility.yul\":10666:10675   */\n      dup4\n        /* \"#utility.yul\":10662:10681   */\n      add\n        /* \"#utility.yul\":10653:10659   */\n      dup6\n        /* \"#utility.yul\":10609:10682   */\n      tag_171\n      jump\t// in\n    tag_339:\n        /* \"#utility.yul\":10692:10776   */\n      tag_340\n        /* \"#utility.yul\":10771:10774   */\n      0xe0\n        /* \"#utility.yul\":10760:10769   */\n      dup4\n        /* \"#utility.yul\":10756:10775   */\n      add\n        /* \"#utility.yul\":10747:10753   */\n      dup5\n        /* \"#utility.yul\":10692:10776   */\n      tag_204\n      jump\t// in\n    tag_340:\n        /* \"#utility.yul\":9582:10783   */\n      swap10\n      swap9\n      pop\n      pop\n      pop\n      pop\n      pop\n      pop\n      pop\n      pop\n      pop\n      jump\t// out\n        /* \"#utility.yul\":10789:10906   */\n    tag_205:\n        /* \"#utility.yul\":10898:10899   */\n      0x00\n        /* \"#utility.yul\":10895:10896   */\n      dup1\n        /* \"#utility.yul\":10888:10900   */\n      revert\n        /* \"#utility.yul\":10912:11029   */\n    tag_206:\n        /* \"#utility.yul\":11021:11022   */\n      0x00\n        /* \"#utility.yul\":11018:11019   */\n      dup1\n        /* \"#utility.yul\":11011:11023   */\n      revert\n        /* \"#utility.yul\":11049:11602   */\n    tag_207:\n        /* \"#utility.yul\":11107:11115   */\n      0x00\n        /* \"#utility.yul\":11117:11123   */\n      dup1\n        /* \"#utility.yul\":11167:11170   */\n      dup4\n        /* \"#utility.yul\":11160:11164   */\n      0x1f\n        /* \"#utility.yul\":11152:11158   */\n      dup5\n        /* \"#utility.yul\":11148:11165   */\n      add\n        /* \"#utility.yul\":11144:11171   */\n      slt\n        /* \"#utility.yul\":11134:11256   */\n      tag_344\n      jumpi\n        /* \"#utility.yul\":11175:11254   */\n      tag_345\n      tag_175\n      jump\t// in\n    tag_345:\n        /* \"#utility.yul\":11134:11256   */\n    tag_344:\n        /* \"#utility.yul\":11288:11294   */\n      dup3\n        /* \"#utility.yul\":11275:11295   */\n      calldataload\n        /* \"#utility.yul\":11265:11295   */\n      swap1\n      pop\n        /* \"#utility.yul\":11318:11336   */\n      0xffffffffffffffff\n        /* \"#utility.yul\":11310:11316   */\n      dup2\n        /* \"#utility.yul\":11307:11337   */\n      gt\n        /* \"#utility.yul\":11304:11421   */\n      iszero\n      tag_346\n      jumpi\n        /* \"#utility.yul\":11340:11419   */\n      tag_347\n      tag_205\n      jump\t// in\n    tag_347:\n        /* \"#utility.yul\":11304:11421   */\n    tag_346:\n        /* \"#utility.yul\":11454:11458   */\n      0x20\n        /* \"#utility.yul\":11446:11452   */\n      dup4\n        /* \"#utility.yul\":11442:11459   */\n      add\n        /* \"#utility.yul\":11430:11459   */\n      swap2\n      pop\n        /* \"#utility.yul\":11508:11511   */\n      dup4\n        /* \"#utility.yul\":11500:11504   */\n      0x01\n        /* \"#utility.yul\":11492:11498   */\n      dup3\n        /* \"#utility.yul\":11488:11505   */\n      mul\n        /* \"#utility.yul\":11478:11486   */\n      dup4\n        /* \"#utility.yul\":11474:11506   */\n      add\n        /* \"#utility.yul\":11471:11512   */\n      gt\n        /* \"#utility.yul\":11468:11596   */\n      iszero\n      tag_348\n      jumpi\n        /* \"#utility.yul\":11515:11594   */\n      tag_349\n      tag_206\n      jump\t// in\n    tag_349:\n        /* \"#utility.yul\":11468:11596   */\n    tag_348:\n        /* \"#utility.yul\":11049:11602   */\n      swap3\n      pop\n      swap3\n      swap1\n      pop\n      jump\t// out\n        /* \"#utility.yul\":11608:12137   */\n    tag_39:\n        /* \"#utility.yul\":11679:11685   */\n      0x00\n        /* \"#utility.yul\":11687:11693   */\n      dup1\n        /* \"#utility.yul\":11736:11738   */\n      0x20\n        /* \"#utility.yul\":11724:11733   */\n      dup4\n        /* \"#utility.yul\":11715:11722   */\n      dup6\n        /* \"#utility.yul\":11711:11734   */\n      sub\n        /* \"#utility.yul\":11707:11739   */\n      slt\n        /* \"#utility.yul\":11704:11823   */\n      iszero\n      tag_351\n      jumpi\n        /* \"#utility.yul\":11742:11821   */\n      tag_352\n      tag_173\n      jump\t// in\n    tag_352:\n        /* \"#utility.yul\":11704:11823   */\n    tag_351:\n        /* \"#utility.yul\":11890:11891   */\n      0x00\n        /* \"#utility.yul\":11879:11888   */\n      dup4\n        /* \"#utility.yul\":11875:11892   */\n      add\n        /* \"#utility.yul\":11862:11893   */\n      calldataload\n        /* \"#utility.yul\":11920:11938   */\n      0xffffffffffffffff\n        /* \"#utility.yul\":11912:11918   */\n      dup2\n        /* \"#utility.yul\":11909:11939   */\n      gt\n        /* \"#utility.yul\":11906:12023   */\n      iszero\n      tag_353\n      jumpi\n        /* \"#utility.yul\":11942:12021   */\n      tag_354\n      tag_174\n      jump\t// in\n    tag_354:\n        /* \"#utility.yul\":11906:12023   */\n    tag_353:\n        /* \"#utility.yul\":12055:12120   */\n      tag_355\n        /* \"#utility.yul\":12112:12119   */\n      dup6\n        /* \"#utility.yul\":12103:12109   */\n      dup3\n        /* \"#utility.yul\":12092:12101   */\n      dup7\n        /* \"#utility.yul\":12088:12110   */\n      add\n        /* \"#utility.yul\":12055:12120   */\n      tag_207\n      jump\t// in\n    tag_355:\n        /* \"#utility.yul\":12037:12120   */\n      swap3\n      pop\n      swap3\n      pop\n        /* \"#utility.yul\":11833:12130   */\n      pop\n        /* \"#utility.yul\":11608:12137   */\n      swap3\n      pop\n      swap3\n      swap1\n      pop\n      jump\t// out\n        /* \"#utility.yul\":12143:13017   */\n    tag_44:\n        /* \"#utility.yul\":12235:12241   */\n      0x00\n        /* \"#utility.yul\":12243:12249   */\n      dup1\n        /* \"#utility.yul\":12251:12257   */\n      0x00\n        /* \"#utility.yul\":12259:12265   */\n      dup1\n        /* \"#utility.yul\":12308:12310   */\n      0x40\n        /* \"#utility.yul\":12296:12305   */\n      dup6\n        /* \"#utility.yul\":12287:12294   */\n      dup8\n        /* \"#utility.yul\":12283:12306   */\n      sub\n        /* \"#utility.yul\":12279:12311   */\n      slt\n        /* \"#utility.yul\":12276:12395   */\n      iszero\n      tag_357\n      jumpi\n        /* \"#utility.yul\":12314:12393   */\n      tag_358\n      tag_173\n      jump\t// in\n    tag_358:\n        /* \"#utility.yul\":12276:12395   */\n    tag_357:\n        /* \"#utility.yul\":12462:12463   */\n      0x00\n        /* \"#utility.yul\":12451:12460   */\n      dup6\n        /* \"#utility.yul\":12447:12464   */\n      add\n        /* \"#utility.yul\":12434:12465   */\n      calldataload\n        /* \"#utility.yul\":12492:12510   */\n      0xffffffffffffffff\n        /* \"#utility.yul\":12484:12490   */\n      dup2\n        /* \"#utility.yul\":12481:12511   */\n      gt\n        /* \"#utility.yul\":12478:12595   */\n      iszero\n      tag_359\n      jumpi\n        /* \"#utility.yul\":12514:12593   */\n      tag_360\n      tag_174\n      jump\t// in\n    tag_360:\n        /* \"#utility.yul\":12478:12595   */\n    tag_359:\n        /* \"#utility.yul\":12627:12692   */\n      tag_361\n        /* \"#utility.yul\":12684:12691   */\n      dup8\n        /* \"#utility.yul\":12675:12681   */\n      dup3\n        /* \"#utility.yul\":12664:12673   */\n      dup9\n        /* \"#utility.yul\":12660:12682   */\n      add\n        /* \"#utility.yul\":12627:12692   */\n      tag_207\n      jump\t// in\n    tag_361:\n        /* \"#utility.yul\":12609:12692   */\n      swap5\n      pop\n      swap5\n      pop\n        /* \"#utility.yul\":12405:12702   */\n      pop\n        /* \"#utility.yul\":12769:12771   */\n      0x20\n        /* \"#utility.yul\":12758:12767   */\n      dup6\n        /* \"#utility.yul\":12754:12772   */\n      add\n        /* \"#utility.yul\":12741:12773   */\n      calldataload\n        /* \"#utility.yul\":12800:12818   */\n      0xffffffffffffffff\n        /* \"#utility.yul\":12792:12798   */\n      dup2\n        /* \"#utility.yul\":12789:12819   */\n      gt\n        /* \"#utility.yul\":12786:12903   */\n      iszero\n      tag_362\n      jumpi\n        /* \"#utility.yul\":12822:12901   */\n      tag_363\n      tag_174\n      jump\t// in\n    tag_363:\n        /* \"#utility.yul\":12786:12903   */\n    tag_362:\n        /* \"#utility.yul\":12935:13000   */\n      tag_364\n        /* \"#utility.yul\":12992:12999   */\n      dup8\n        /* \"#utility.yul\":12983:12989   */\n      dup3\n        /* \"#utility.yul\":12972:12981   */\n      dup9\n        /* \"#utility.yul\":12968:12990   */\n      add\n        /* \"#utility.yul\":12935:13000   */\n      tag_207\n      jump\t// in\n    tag_364:\n        /* \"#utility.yul\":12917:13000   */\n      swap3\n      pop\n      swap3\n      pop\n        /* \"#utility.yul\":12712:13010   */\n      pop\n        /* \"#utility.yul\":12143:13017   */\n      swap3\n      swap6\n      swap2\n      swap5\n      pop\n      swap3\n      pop\n      jump\t// out\n        /* \"#utility.yul\":13023:13171   */\n    tag_208:\n        /* \"#utility.yul\":13125:13136   */\n      0x00\n        /* \"#utility.yul\":13162:13165   */\n      dup2\n        /* \"#utility.yul\":13147:13165   */\n      swap1\n      pop\n        /* \"#utility.yul\":13023:13171   */\n      swap3\n      swap2\n      pop\n      pop\n      jump\t// out\n        /* \"#utility.yul\":13177:13567   */\n    tag_209:\n        /* \"#utility.yul\":13283:13286   */\n      0x00\n        /* \"#utility.yul\":13311:13350   */\n      tag_367\n        /* \"#utility.yul\":13344:13349   */\n      dup3\n        /* \"#utility.yul\":13311:13350   */\n      tag_186\n      jump\t// in\n    tag_367:\n        /* \"#utility.yul\":13366:13455   */\n      tag_368\n        /* \"#utility.yul\":13448:13454   */\n      dup2\n        /* \"#utility.yul\":13443:13446   */\n      dup6\n        /* \"#utility.yul\":13366:13455   */\n      tag_208\n      jump\t// in\n    tag_368:\n        /* \"#utility.yul\":13359:13455   */\n      swap4\n      pop\n        /* \"#utility.yul\":13464:13529   */\n      tag_369\n        /* \"#utility.yul\":13522:13528   */\n      dup2\n        /* \"#utility.yul\":13517:13520   */\n      dup6\n        /* \"#utility.yul\":13510:13514   */\n      0x20\n        /* \"#utility.yul\":13503:13508   */\n      dup7\n        /* \"#utility.yul\":13499:13515   */\n      add\n        /* \"#utility.yul\":13464:13529   */\n      tag_188\n      jump\t// in\n    tag_369:\n        /* \"#utility.yul\":13554:13560   */\n      dup1\n        /* \"#utility.yul\":13549:13552   */\n      dup5\n        /* \"#utility.yul\":13545:13561   */\n      add\n        /* \"#utility.yul\":13538:13561   */\n      swap2\n      pop\n        /* \"#utility.yul\":13287:13567   */\n      pop\n        /* \"#utility.yul\":13177:13567   */\n      swap3\n      swap2\n      pop\n      pop\n      jump\t// out\n        /* \"#utility.yul\":13573:13848   */\n    tag_50:\n        /* \"#utility.yul\":13705:13708   */\n      0x00\n        /* \"#utility.yul\":13727:13822   */\n      tag_371\n        /* \"#utility.yul\":13818:13821   */\n      dup3\n        /* \"#utility.yul\":13809:13815   */\n      dup5\n        /* \"#utility.yul\":13727:13822   */\n      tag_209\n      jump\t// in\n    tag_371:\n        /* \"#utility.yul\":13720:13822   */\n      swap2\n      pop\n        /* \"#utility.yul\":13839:13842   */\n      dup2\n        /* \"#utility.yul\":13832:13842   */\n      swap1\n      pop\n        /* \"#utility.yul\":13573:13848   */\n      swap3\n      swap2\n      pop\n      pop\n      jump\t// out\n        /* \"#utility.yul\":13854:14034   */\n    tag_210:\n        /* \"#utility.yul\":13902:13979   */\n      0x4e487b7100000000000000000000000000000000000000000000000000000000\n        /* \"#utility.yul\":13899:13900   */\n      0x00\n        /* \"#utility.yul\":13892:13980   */\n      mstore\n        /* \"#utility.yul\":13999:14003   */\n      0x22\n        /* \"#utility.yul\":13996:13997   */\n      0x04\n        /* \"#utility.yul\":13989:14004   */\n      mstore\n        /* \"#utility.yul\":14023:14027   */\n      0x24\n        /* \"#utility.yul\":14020:14021   */\n      0x00\n        /* \"#utility.yul\":14013:14028   */\n      revert\n        /* \"#utility.yul\":14040:14360   */\n    tag_52:\n        /* \"#utility.yul\":14084:14090   */\n      0x00\n        /* \"#utility.yul\":14121:14122   */\n      0x02\n        /* \"#utility.yul\":14115:14119   */\n      dup3\n        /* \"#utility.yul\":14111:14123   */\n      div\n        /* \"#utility.yul\":14101:14123   */\n      swap1\n      pop\n        /* \"#utility.yul\":14168:14169   */\n      0x01\n        /* \"#utility.yul\":14162:14166   */\n      dup3\n        /* \"#utility.yul\":14158:14170   */\n      and\n        /* \"#utility.yul\":14189:14207   */\n      dup1\n        /* \"#utility.yul\":14179:14260   */\n      tag_374\n      jumpi\n        /* \"#utility.yul\":14245:14249   */\n      0x7f\n        /* \"#utility.yul\":14237:14243   */\n      dup3\n        /* \"#utility.yul\":14233:14250   */\n      and\n        /* \"#utility.yul\":14223:14250   */\n      swap2\n      pop\n        /* \"#utility.yul\":14179:14260   */\n    tag_374:\n        /* \"#utility.yul\":14307:14309   */\n      0x20\n        /* \"#utility.yul\":14299:14305   */\n      dup3\n        /* \"#utility.yul\":14296:14310   */\n      lt\n        /* \"#utility.yul\":14276:14294   */\n      dup2\n        /* \"#utility.yul\":14273:14311   */\n      sub\n        /* \"#utility.yul\":14270:14354   */\n      tag_375\n      jumpi\n        /* \"#utility.yul\":14326:14344   */\n      tag_376\n      tag_210\n      jump\t// in\n    tag_376:\n        /* \"#utility.yul\":14270:14354   */\n    tag_375:\n        /* \"#utility.yul\":14091:14360   */\n      pop\n        /* \"#utility.yul\":14040:14360   */\n      swap2\n      swap1\n      pop\n      jump\t// out\n        /* \"#utility.yul\":14366:14546   */\n    tag_211:\n        /* \"#utility.yul\":14414:14491   */\n      0x4e487b7100000000000000000000000000000000000000000000000000000000\n        /* \"#utility.yul\":14411:14412   */\n      0x00\n        /* \"#utility.yul\":14404:14492   */\n      mstore\n        /* \"#utility.yul\":14511:14515   */\n      0x11\n        /* \"#utility.yul\":14508:14509   */\n      0x04\n        /* \"#utility.yul\":14501:14516   */\n      mstore\n        /* \"#utility.yul\":14535:14539   */\n      0x24\n        /* \"#utility.yul\":14532:14533   */\n      0x00\n        /* \"#utility.yul\":14525:14540   */\n      revert\n        /* \"#utility.yul\":14552:14785   */\n    tag_85:\n        /* \"#utility.yul\":14591:14594   */\n      0x00\n        /* \"#utility.yul\":14614:14638   */\n      tag_379\n        /* \"#utility.yul\":14632:14637   */\n      dup3\n        /* \"#utility.yul\":14614:14638   */\n      tag_170\n      jump\t// in\n    tag_379:\n        /* \"#utility.yul\":14605:14638   */\n      swap2\n      pop\n        /* \"#utility.yul\":14660:14726   */\n      0xffffffffffffffffffffffffffffffffffffffffffffffffffffffffffffffff\n        /* \"#utility.yul\":14653:14658   */\n      dup3\n        /* \"#utility.yul\":14650:14727   */\n      sub\n        /* \"#utility.yul\":14647:14750   */\n      tag_380\n      jumpi\n        /* \"#utility.yul\":14730:14748   */\n      tag_381\n      tag_211\n      jump\t// in\n    tag_381:\n        /* \"#utility.yul\":14647:14750   */\n    tag_380:\n        /* \"#utility.yul\":14777:14778   */\n      0x01\n        /* \"#utility.yul\":14770:14775   */\n      dup3\n        /* \"#utility.yul\":14766:14779   */\n      add\n        /* \"#utility.yul\":14759:14779   */\n      swap1\n      pop\n        /* \"#utility.yul\":14552:14785   */\n      swap2\n      swap1\n      pop\n      jump\t// out\n        /* \"#utility.yul\":14791:14932   */\n    tag_212:\n        /* \"#utility.yul\":14840:14844   */\n      0x00\n        /* \"#utility.yul\":14863:14866   */\n      dup2\n        /* \"#utility.yul\":14855:14866   */\n      swap1\n      pop\n        /* \"#utility.yul\":14886:14889   */\n      dup2\n        /* \"#utility.yul\":14883:14884   */\n      0x00\n        /* \"#utility.yul\":14876:14890   */\n      mstore\n        /* \"#utility.yul\":14920:14924   */\n      0x20\n        /* \"#utility.yul\":14917:14918   */\n      0x00\n        /* \"#utility.yul\":14907:14925   */\n      keccak256\n        /* \"#utility.yul\":14899:14925   */\n      swap1\n      pop\n        /* \"#utility.yul\":14791:14932   */\n      swap2\n      swap1\n      pop\n      jump\t// out\n        /* \"#utility.yul\":14938:15031   */\n    tag_213:\n        /* \"#utility.yul\":14975:14981   */\n      0x00\n        /* \"#utility.yul\":15022:15024   */\n      0x20\n        /* \"#utility.yul\":15017:15019   */\n      0x1f\n        /* \"#utility.yul\":15010:15015   */\n      dup4\n        /* \"#utility.yul\":15006:15020   */\n      add\n        /* \"#utility.yul\":15002:15025   */\n      div\n        /* \"#utility.yul\":14992:15025   */\n      swap1\n      pop\n        /* \"#utility.yul\":14938:15031   */\n      swap2\n      swap1\n      pop\n      jump\t// out\n        /* \"#utility.yul\":15037:15144   */\n    tag_214:\n        /* \"#utility.yul\":15081:15089   */\n      0x00\n        /* \"#utility.yul\":15131:15136   */\n      dup3\n        /* \"#utility.yul\":15125:15129   */\n      dup3\n        /* \"#utility.yul\":15121:15137   */\n      shl\n        /* \"#utility.yul\":15100:15137   */\n      swap1\n      pop\n        /* \"#utility.yul\":15037:15144   */\n      swap3\n      swap2\n      pop\n      pop\n      jump\t// out\n        /* \"#utility.yul\":15150:15543   */\n    tag_215:\n        /* \"#utility.yul\":15219:15225   */\n      0x00\n        /* \"#utility.yul\":15269:15270   */\n      0x08\n        /* \"#utility.yul\":15257:15267   */\n      dup4\n        /* \"#utility.yul\":15253:15271   */\n      mul\n        /* \"#utility.yul\":15292:15389   */\n      tag_386\n        /* \"#utility.yul\":15322:15388   */\n      0xffffffffffffffffffffffffffffffffffffffffffffffffffffffffffffffff\n        /* \"#utility.yul\":15311:15320   */\n      dup3\n        /* \"#utility.yul\":15292:15389   */\n      tag_214\n      jump\t// in\n    tag_386:\n        /* \"#utility.yul\":15410:15449   */\n      tag_387\n        /* \"#utility.yul\":15440:15448   */\n      dup7\n        /* \"#utility.yul\":15429:15438   */\n      dup4\n        /* \"#utility.yul\":15410:15449   */\n      tag_214\n      jump\t// in\n    tag_387:\n        /* \"#utility.yul\":15398:15449   */\n      swap6\n      pop\n        /* \"#utility.yul\":15482:15486   */\n      dup1\n        /* \"#utility.yul\":15478:15487   */\n      not\n        /* \"#utility.yul\":15471:15476   */\n      dup5\n        /* \"#utility.yul\":15467:15488   */\n      and\n        /* \"#utility.yul\":15458:15488   */\n      swap4\n      pop\n        /* \"#utility.yul\":15531:15535   */\n      dup1\n        /* \"#utility.yul\":15521:15529   */\n      dup7\n        /* \"#utility.yul\":15517:15536   */\n      and\n        /* \"#utility.yul\":15510:15515   */\n      dup5\n        /* \"#utility.yul\":15507:15537   */\n      or\n        /* \"#utility.yul\":15497:15537   */\n      swap3\n      pop\n        /* \"#utility.yul\":15226:15543   */\n      pop\n      pop\n        /* \"#utility.yul\":15150:15543   */\n      swap4\n      swap3\n      pop\n      pop\n      pop\n      jump\t// out\n        /* \"#utility.yul\":15549:15609   */\n    tag_216:\n        /* \"#utility.yul\":15577:15580   */\n      0x00\n        /* \"#utility.yul\":15598:15603   */\n      dup2\n        /* \"#utility.yul\":15591:15603   */\n      swap1\n      pop\n        /* \"#utility.yul\":15549:15609   */\n      swap2\n      swap1\n      pop\n      jump\t// out\n        /* \"#utility.yul\":15615:15757   */\n    tag_217:\n        /* \"#utility.yul\":15665:15674   */\n      0x00\n        /* \"#utility.yul\":15698:15751   */\n      tag_390\n        /* \"#utility.yul\":15716:15750   */\n      tag_391\n        /* \"#utility.yul\":15725:15749   */\n      tag_392\n        /* \"#utility.yul\":15743:15748   */\n      dup5\n        /* \"#utility.yul\":15725:15749   */\n      tag_170\n      jump\t// in\n    tag_392:\n        /* \"#utility.yul\":15716:15750   */\n      tag_216\n      jump\t// in\n    tag_391:\n        /* \"#utility.yul\":15698:15751   */\n      tag_170\n      jump\t// in\n    tag_390:\n        /* \"#utility.yul\":15685:15751   */\n      swap1\n      pop\n        /* \"#utility.yul\":15615:15757   */\n      swap2\n      swap1\n      pop\n      jump\t// out\n        /* \"#utility.yul\":15763:15838   */\n    tag_218:\n        /* \"#utility.yul\":15806:15809   */\n      0x00\n        /* \"#utility.yul\":15827:15832   */\n      dup2\n        /* \"#utility.yul\":15820:15832   */\n      swap1\n      pop\n        /* \"#utility.yul\":15763:15838   */\n      swap2\n      swap1\n      pop\n      jump\t// out\n        /* \"#utility.yul\":15844:16113   */\n    tag_219:\n        /* \"#utility.yul\":15954:15993   */\n      tag_395\n        /* \"#utility.yul\":15985:15992   */\n      dup4\n        /* \"#utility.yul\":15954:15993   */\n      tag_217\n      jump\t// in\n    tag_395:\n        /* \"#utility.yul\":16015:16106   */\n      tag_396\n        /* \"#utility.yul\":16064:16105   */\n      tag_397\n        /* \"#utility.yul\":16088:16104   */\n      dup3\n        /* \"#utility.yul\":16064:16105   */\n      tag_218\n      jump\t// in\n    tag_397:\n        /* \"#utility.yul\":16056:16062   */\n      dup5\n        /* \"#utility.yul\":16049:16053   */\n      dup5\n        /* \"#utility.yul\":16043:16054   */\n      sload\n        /* \"#utility.yul\":16015:16106   */\n      tag_215\n      jump\t// in\n    tag_396:\n        /* \"#utility.yul\":16009:16013   */\n      dup3\n        /* \"#utility.yul\":16002:16107   */\n      sstore\n        /* \"#utility.yul\":15920:16113   */\n      pop\n        /* \"#utility.yul\":15844:16113   */\n      pop\n      pop\n      pop\n      jump\t// out\n        /* \"#utility.yul\":16119:16192   */\n    tag_220:\n        /* \"#utility.yul\":16164:16167   */\n      0x00\n        /* \"#utility.yul\":16119:16192   */\n      swap1\n      jump\t// out\n        /* \"#utility.yul\":16198:16387   */\n    tag_221:\n        /* \"#utility.yul\":16275:16307   */\n      tag_400\n      tag_220\n      jump\t// in\n    tag_400:\n        /* \"#utility.yul\":16316:16381   */\n      tag_401\n        /* \"#utility.yul\":16374:16380   */\n      dup2\n        /* \"#utility.yul\":16366:16372   */\n      dup5\n        /* \"#utility.yul\":16360:16364   */\n      dup5\n        /* \"#utility.yul\":16316:16381   */\n      tag_219\n      jump\t// in\n    tag_401:\n        /* \"#utility.yul\":16251:16387   */\n      pop\n        /* \"#utility.yul\":16198:16387   */\n      pop\n      pop\n      jump\t// out\n        /* \"#utility.yul\":16393:16579   */\n    tag_222:\n        /* \"#utility.yul\":16453:16573   */\n    tag_403:\n        /* \"#utility.yul\":16470:16473   */\n      dup2\n        /* \"#utility.yul\":16463:16468   */\n      dup2\n        /* \"#utility.yul\":16460:16474   */\n      lt\n        /* \"#utility.yul\":16453:16573   */\n      iszero\n      tag_405\n      jumpi\n        /* \"#utility.yul\":16524:16563   */\n      tag_406\n        /* \"#utility.yul\":16561:16562   */\n      0x00\n        /* \"#utility.yul\":16554:16559   */\n      dup3\n        /* \"#utility.yul\":16524:16563   */\n      tag_221\n      jump\t// in\n    tag_406:\n        /* \"#utility.yul\":16497:16498   */\n      0x01\n        /* \"#utility.yul\":16490:16495   */\n      dup2\n        /* \"#utility.yul\":16486:16499   */\n      add\n        /* \"#utility.yul\":16477:16499   */\n      swap1\n      pop\n        /* \"#utility.yul\":16453:16573   */\n      jump(tag_403)\n    tag_405:\n        /* \"#utility.yul\":16393:16579   */\n      pop\n      pop\n      jump\t// out\n        /* \"#utility.yul\":16585:17128   */\n    tag_223:\n        /* \"#utility.yul\":16686:16688   */\n      0x1f\n        /* \"#utility.yul\":16681:16684   */\n      dup3\n        /* \"#utility.yul\":16678:16689   */\n      gt\n        /* \"#utility.yul\":16675:17121   */\n      iszero\n      tag_408\n      jumpi\n        /* \"#utility.yul\":16720:16758   */\n      tag_409\n        /* \"#utility.yul\":16752:16757   */\n      dup2\n        /* \"#utility.yul\":16720:16758   */\n      tag_212\n      jump\t// in\n    tag_409:\n        /* \"#utility.yul\":16804:16833   */\n      tag_410\n        /* \"#utility.yul\":16822:16832   */\n      dup5\n        /* \"#utility.yul\":16804:16833   */\n      tag_213\n      jump\t// in\n    tag_410:\n        /* \"#utility.yul\":16794:16802   */\n      dup2\n        /* \"#utility.yul\":16790:16834   */\n      add\n        /* \"#utility.yul\":16987:16989   */\n      0x20\n        /* \"#utility.yul\":16975:16985   */\n      dup6\n        /* \"#utility.yul\":16972:16990   */\n      lt\n        /* \"#utility.yul\":16969:17018   */\n      iszero\n      tag_411\n      jumpi\n        /* \"#utility.yul\":17008:17016   */\n      dup2\n        /* \"#utility.yul\":16993:17016   */\n      swap1\n      pop\n        /* \"#utility.yul\":16969:17018   */\n    tag_411:\n        /* \"#utility.yul\":17031:17111   */\n      tag_412\n        /* \"#utility.yul\":17087:17109   */\n      tag_413\n        /* \"#utility.yul\":17105:17108   */\n      dup6\n        /* \"#utility.yul\":17087:17109   */\n      tag_213\n      jump\t// in\n    tag_413:\n        /* \"#utility.yul\":17077:17085   */\n      dup4\n        /* \"#utility.yul\":17073:17110   */\n      add\n        /* \"#utility.yul\":17060:17071   */\n      dup3\n        /* \"#utility.yul\":17031:17111   */\n      tag_222\n      jump\t// in\n    tag_412:\n        /* \"#utility.yul\":16690:17121   */\n      pop\n      pop\n        /* \"#utility.yul\":16675:17121   */\n    tag_408:\n        /* \"#utility.yul\":16585:17128   */\n      pop\n      pop\n      pop\n      jump\t// out\n        /* \"#utility.yul\":17134:17251   */\n    tag_224:\n        /* \"#utility.yul\":17188:17196   */\n      0x00\n        /* \"#utility.yul\":17238:17243   */\n      dup3\n        /* \"#utility.yul\":17232:17236   */\n      dup3\n        /* \"#utility.yul\":17228:17244   */\n      shr\n        /* \"#utility.yul\":17207:17244   */\n      swap1\n      pop\n        /* \"#utility.yul\":17134:17251   */\n      swap3\n      swap2\n      pop\n      pop\n      jump\t// out\n        /* \"#utility.yul\":17257:17426   */\n    tag_225:\n        /* \"#utility.yul\":17301:17307   */\n      0x00\n        /* \"#utility.yul\":17334:17385   */\n      tag_416\n        /* \"#utility.yul\":17382:17383   */\n      0x00\n        /* \"#utility.yul\":17378:17384   */\n      not\n        /* \"#utility.yul\":17370:17375   */\n      dup5\n        /* \"#utility.yul\":17367:17368   */\n      0x08\n        /* \"#utility.yul\":17363:17376   */\n      mul\n        /* \"#utility.yul\":17334:17385   */\n      tag_224\n      jump\t// in\n    tag_416:\n        /* \"#utility.yul\":17330:17386   */\n      not\n        /* \"#utility.yul\":17415:17419   */\n      dup1\n        /* \"#utility.yul\":17409:17413   */\n      dup4\n        /* \"#utility.yul\":17405:17420   */\n      and\n        /* \"#utility.yul\":17395:17420   */\n      swap2\n      pop\n        /* \"#utility.yul\":17308:17426   */\n      pop\n        /* \"#utility.yul\":17257:17426   */\n      swap3\n      swap2\n      pop\n      pop\n      jump\t// out\n        /* \"#utility.yul\":17431:17726   */\n    tag_226:\n        /* \"#utility.yul\":17507:17511   */\n      0x00\n        /* \"#utility.yul\":17653:17682   */\n      tag_418\n        /* \"#utility.yul\":17678:17681   */\n      dup4\n        /* \"#utility.yul\":17672:17676   */\n      dup4\n        /* \"#utility.yul\":17653:17682   */\n      tag_225\n      jump\t// in\n    tag_418:\n        /* \"#utility.yul\":17645:17682   */\n      swap2\n      pop\n        /* \"#utility.yul\":17715:17718   */\n      dup3\n        /* \"#utility.yul\":17712:17713   */\n      0x02\n        /* \"#utility.yul\":17708:17719   */\n      mul\n        /* \"#utility.yul\":17702:17706   */\n      dup3\n        /* \"#utility.yul\":17699:17720   */\n      or\n        /* \"#utility.yul\":17691:17720   */\n      swap1\n      pop\n        /* \"#utility.yul\":17431:17726   */\n      swap3\n      swap2\n      pop\n      pop\n      jump\t// out\n        /* \"#utility.yul\":17731:19126   */\n    tag_97:\n        /* \"#utility.yul\":17848:17885   */\n      tag_420\n        /* \"#utility.yul\":17881:17884   */\n      dup3\n        /* \"#utility.yul\":17848:17885   */\n      tag_186\n      jump\t// in\n    tag_420:\n        /* \"#utility.yul\":17950:17968   */\n      0xffffffffffffffff\n        /* \"#utility.yul\":17942:17948   */\n      dup2\n        /* \"#utility.yul\":17939:17969   */\n      gt\n        /* \"#utility.yul\":17936:17992   */\n      iszero\n      tag_421\n      jumpi\n        /* \"#utility.yul\":17972:17990   */\n      tag_422\n      tag_178\n      jump\t// in\n    tag_422:\n        /* \"#utility.yul\":17936:17992   */\n    tag_421:\n        /* \"#utility.yul\":18016:18054   */\n      tag_423\n        /* \"#utility.yul\":18048:18052   */\n      dup3\n        /* \"#utility.yul\":18042:18053   */\n      sload\n        /* \"#utility.yul\":18016:18054   */\n      tag_52\n      jump\t// in\n    tag_423:\n        /* \"#utility.yul\":18101:18168   */\n      tag_424\n        /* \"#utility.yul\":18161:18167   */\n      dup3\n        /* \"#utility.yul\":18153:18159   */\n      dup3\n        /* \"#utility.yul\":18147:18151   */\n      dup6\n        /* \"#utility.yul\":18101:18168   */\n      tag_223\n      jump\t// in\n    tag_424:\n        /* \"#utility.yul\":18195:18196   */\n      0x00\n        /* \"#utility.yul\":18219:18223   */\n      0x20\n        /* \"#utility.yul\":18206:18223   */\n      swap1\n      pop\n        /* \"#utility.yul\":18251:18253   */\n      0x1f\n        /* \"#utility.yul\":18243:18249   */\n      dup4\n        /* \"#utility.yul\":18240:18254   */\n      gt\n        /* \"#utility.yul\":18268:18269   */\n      0x01\n        /* \"#utility.yul\":18263:18881   */\n      dup2\n      eq\n      tag_426\n      jumpi\n        /* \"#utility.yul\":18925:18926   */\n      0x00\n        /* \"#utility.yul\":18942:18948   */\n      dup5\n        /* \"#utility.yul\":18939:19016   */\n      iszero\n      tag_427\n      jumpi\n        /* \"#utility.yul\":18991:19000   */\n      dup3\n        /* \"#utility.yul\":18986:18989   */\n      dup8\n        /* \"#utility.yul\":18982:19001   */\n      add\n        /* \"#utility.yul\":18976:19002   */\n      mload\n        /* \"#utility.yul\":18967:19002   */\n      swap1\n      pop\n        /* \"#utility.yul\":18939:19016   */\n    tag_427:\n        /* \"#utility.yul\":19042:19109   */\n      tag_428\n        /* \"#utility.yul\":19102:19108   */\n      dup6\n        /* \"#utility.yul\":19095:19100   */\n      dup3\n        /* \"#utility.yul\":19042:19109   */\n      tag_226\n      jump\t// in\n    tag_428:\n        /* \"#utility.yul\":19036:19040   */\n      dup7\n        /* \"#utility.yul\":19029:19110   */\n      sstore\n        /* \"#utility.yul\":18898:19120   */\n      pop\n        /* \"#utility.yul\":18233:19120   */\n      jump(tag_425)\n        /* \"#utility.yul\":18263:18881   */\n    tag_426:\n        /* \"#utility.yul\":18315:18319   */\n      0x1f\n        /* \"#utility.yul\":18311:18320   */\n      not\n        /* \"#utility.yul\":18303:18309   */\n      dup5\n        /* \"#utility.yul\":18299:18321   */\n      and\n        /* \"#utility.yul\":18349:18386   */\n      tag_429\n        /* \"#utility.yul\":18381:18385   */\n      dup7\n        /* \"#utility.yul\":18349:18386   */\n      tag_212\n      jump\t// in\n    tag_429:\n        /* \"#utility.yul\":18408:18409   */\n      0x00\n        /* \"#utility.yul\":18422:18630   */\n    tag_430:\n        /* \"#utility.yul\":18436:18443   */\n      dup3\n        /* \"#utility.yul\":18433:18434   */\n      dup2\n        /* \"#utility.yul\":18430:18444   */\n      lt\n        /* \"#utility.yul\":18422:18630   */\n      iszero\n      tag_432\n      jumpi\n        /* \"#utility.yul\":18515:18524   */\n      dup5\n        /* \"#utility.yul\":18510:18513   */\n      dup10\n        /* \"#utility.yul\":18506:18525   */\n      add\n        /* \"#utility.yul\":18500:18526   */\n      mload\n        /* \"#utility.yul\":18492:18498   */\n      dup3\n        /* \"#utility.yul\":18485:18527   */\n      sstore\n        /* \"#utility.yul\":18566:18567   */\n      0x01\n        /* \"#utility.yul\":18558:18564   */\n      dup3\n        /* \"#utility.yul\":18554:18568   */\n      add\n        /* \"#utility.yul\":18544:18568   */\n      swap2\n      pop\n        /* \"#utility.yul\":18613:18615   */\n      0x20\n        /* \"#utility.yul\":18602:18611   */\n      dup6\n        /* \"#utility.yul\":18598:18616   */\n      add\n        /* \"#utility.yul\":18585:18616   */\n      swap5\n      pop\n        /* \"#utility.yul\":18459:18463   */\n      0x20\n        /* \"#utility.yul\":18456:18457   */\n      dup2\n        /* \"#utility.yul\":18452:18464   */\n      add\n        /* \"#utility.yul\":18447:18464   */\n      swap1\n      pop\n        /* \"#utility.yul\":18422:18630   */\n      jump(tag_430)\n    tag_432:\n        /* \"#utility.yul\":18658:18664   */\n      dup7\n        /* \"#utility.yul\":18649:18656   */\n      dup4\n        /* \"#utility.yul\":18646:18665   */\n      lt\n        /* \"#utility.yul\":18643:18822   */\n      iszero\n      tag_433\n      jumpi\n        /* \"#utility.yul\":18716:18725   */\n      dup5\n        /* \"#utility.yul\":18711:18714   */\n      dup10\n        /* \"#utility.yul\":18707:18726   */\n      add\n        /* \"#utility.yul\":18701:18727   */\n      mload\n        /* \"#utility.yul\":18759:18807   */\n      tag_434\n        /* \"#utility.yul\":18801:18805   */\n      0x1f\n        /* \"#utility.yul\":18793:18799   */\n      dup10\n        /* \"#utility.yul\":18789:18806   */\n      and\n        /* \"#utility.yul\":18778:18787   */\n      dup3\n        /* \"#utility.yul\":18759:18807   */\n      tag_225\n      jump\t// in\n    tag_434:\n        /* \"#utility.yul\":18751:18757   */\n      dup4\n        /* \"#utility.yul\":18744:18808   */\n      sstore\n        /* \"#utility.yul\":18666:18822   */\n      pop\n        /* \"#utility.yul\":18643:18822   */\n    tag_433:\n        /* \"#utility.yul\":18868:18869   */\n      0x01\n        /* \"#utility.yul\":18864:18865   */\n      0x02\n        /* \"#utility.yul\":18856:18862   */\n      dup9\n        /* \"#utility.yul\":18852:18866   */\n      mul\n        /* \"#utility.yul\":18848:18870   */\n      add\n        /* \"#utility.yul\":18842:18846   */\n      dup9\n        /* \"#utility.yul\":18835:18871   */\n      sstore\n        /* \"#utility.yul\":18270:18881   */\n      pop\n      pop\n      pop\n        /* \"#utility.yul\":18233:19120   */\n    tag_425:\n      pop\n        /* \"#utility.yul\":17823:19126   */\n      pop\n      pop\n      pop\n        /* \"#utility.yul\":17731:19126   */\n      pop\n      pop\n      jump\t// out\n        /* \"#utility.yul\":19132:19323   */\n    tag_113:\n        /* \"#utility.yul\":19172:19175   */\n      0x00\n        /* \"#utility.yul\":19191:19211   */\n      tag_436\n        /* \"#utility.yul\":19209:19210   */\n      dup3\n        /* \"#utility.yul\":19191:19211   */\n      tag_170\n      jump\t// in\n    tag_436:\n        /* \"#utility.yul\":19186:19211   */\n      swap2\n      pop\n        /* \"#utility.yul\":19225:19245   */\n      tag_437\n        /* \"#utility.yul\":19243:19244   */\n      dup4\n        /* \"#utility.yul\":19225:19245   */\n      tag_170\n      jump\t// in\n    tag_437:\n        /* \"#utility.yul\":19220:19245   */\n      swap3\n      pop\n        /* \"#utility.yul\":19268:19269   */\n      dup3\n        /* \"#utility.yul\":19265:19266   */\n      dup3\n        /* \"#utility.yul\":19261:19270   */\n      add\n        /* \"#utility.yul\":19254:19270   */\n      swap1\n      pop\n        /* \"#utility.yul\":19289:19292   */\n      dup1\n        /* \"#utility.yul\":19286:19287   */\n      dup3\n        /* \"#utility.yul\":19283:19293   */\n      gt\n        /* \"#utility.yul\":19280:19316   */\n      iszero\n      tag_438\n      jumpi\n        /* \"#utility.yul\":19296:19314   */\n      tag_439\n      tag_211\n      jump\t// in\n    tag_439:\n        /* \"#utility.yul\":19280:19316   */\n    tag_438:\n        /* \"#utility.yul\":19132:19323   */\n      swap3\n      swap2\n      pop\n      pop\n      jump\t// out\n        /* \"#utility.yul\":19329:19739   */\n    tag_116:\n        /* \"#utility.yul\":19369:19376   */\n      0x00\n        /* \"#utility.yul\":19392:19412   */\n      tag_441\n        /* \"#utility.yul\":19410:19411   */\n      dup3\n        /* \"#utility.yul\":19392:19412   */\n      tag_170\n      jump\t// in\n    tag_441:\n        /* \"#utility.yul\":19387:19412   */\n      swap2\n      pop\n        /* \"#utility.yul\":19426:19446   */\n      tag_442\n        /* \"#utility.yul\":19444:19445   */\n      dup4\n        /* \"#utility.yul\":19426:19446   */\n      tag_170\n      jump\t// in\n    tag_442:\n        /* \"#utility.yul\":19421:19446   */\n      swap3\n      pop\n        /* \"#utility.yul\":19481:19482   */\n      dup3\n        /* \"#utility.yul\":19478:19479   */\n      dup3\n        /* \"#utility.yul\":19474:19483   */\n      mul\n        /* \"#utility.yul\":19503:19533   */\n      tag_443\n        /* \"#utility.yul\":19521:19532   */\n      dup2\n        /* \"#utility.yul\":19503:19533   */\n      tag_170\n      jump\t// in\n    tag_443:\n        /* \"#utility.yul\":19492:19533   */\n      swap2\n      pop\n        /* \"#utility.yul\":19682:19683   */\n      dup3\n        /* \"#utility.yul\":19673:19680   */\n      dup3\n        /* \"#utility.yul\":19669:19684   */\n      div\n        /* \"#utility.yul\":19666:19667   */\n      dup5\n        /* \"#utility.yul\":19663:19685   */\n      eq\n        /* \"#utility.yul\":19643:19644   */\n      dup4\n        /* \"#utility.yul\":19636:19645   */\n      iszero\n        /* \"#utility.yul\":19616:19699   */\n      or\n        /* \"#utility.yul\":19593:19732   */\n      tag_444\n      jumpi\n        /* \"#utility.yul\":19712:19730   */\n      tag_445\n      tag_211\n      jump\t// in\n    tag_445:\n        /* \"#utility.yul\":19593:19732   */\n    tag_444:\n        /* \"#utility.yul\":19377:19739   */\n      pop\n        /* \"#utility.yul\":19329:19739   */\n      swap3\n      swap2\n      pop\n      pop\n      jump\t// out\n        /* \"#utility.yul\":19745:19925   */\n    tag_227:\n        /* \"#utility.yul\":19793:19870   */\n      0x4e487b7100000000000000000000000000000000000000000000000000000000\n        /* \"#utility.yul\":19790:19791   */\n      0x00\n        /* \"#utility.yul\":19783:19871   */\n      mstore\n        /* \"#utility.yul\":19890:19894   */\n      0x12\n        /* \"#utility.yul\":19887:19888   */\n      0x04\n        /* \"#utility.yul\":19880:19895   */\n      mstore\n        /* \"#utility.yul\":19914:19918   */\n      0x24\n        /* \"#utility.yul\":19911:19912   */\n      0x00\n        /* \"#utility.yul\":19904:19919   */\n      revert\n        /* \"#utility.yul\":19931:20116   */\n    tag_118:\n        /* \"#utility.yul\":19971:19972   */\n      0x00\n        /* \"#utility.yul\":19988:20008   */\n      tag_448\n        /* \"#utility.yul\":20006:20007   */\n      dup3\n        /* \"#utility.yul\":19988:20008   */\n      tag_170\n      jump\t// in\n    tag_448:\n        /* \"#utility.yul\":19983:20008   */\n      swap2\n      pop\n        /* \"#utility.yul\":20022:20042   */\n      tag_449\n        /* \"#utility.yul\":20040:20041   */\n      dup4\n        /* \"#utility.yul\":20022:20042   */\n      tag_170\n      jump\t// in\n    tag_449:\n        /* \"#utility.yul\":20017:20042   */\n      swap3\n      pop\n        /* \"#utility.yul\":20061:20062   */\n      dup3\n        /* \"#utility.yul\":20051:20086   */\n      tag_450\n      jumpi\n        /* \"#utility.yul\":20066:20084   */\n      tag_451\n      tag_227\n      jump\t// in\n    tag_451:\n        /* \"#utility.yul\":20051:20086   */\n    tag_450:\n        /* \"#utility.yul\":20108:20109   */\n      dup3\n        /* \"#utility.yul\":20105:20106   */\n      dup3\n        /* \"#utility.yul\":20101:20110   */\n      div\n        /* \"#utility.yul\":20096:20110   */\n      swap1\n      pop\n        /* \"#utility.yul\":19931:20116   */\n      swap3\n      swap2\n      pop\n      pop\n      jump\t// out\n        /* \"#utility.yul\":20146:20476   */\n    tag_228:\n        /* \"#utility.yul\":20262:20265   */\n      0x00\n        /* \"#utility.yul\":20283:20372   */\n      tag_453\n        /* \"#utility.yul\":20365:20371   */\n      dup4\n        /* \"#utility.yul\":20360:20363   */\n      dup6\n        /* \"#utility.yul\":20283:20372   */\n      tag_208\n      jump\t// in\n    tag_453:\n        /* \"#utility.yul\":20276:20372   */\n      swap4\n      pop\n        /* \"#utility.yul\":20382:20438   */\n      tag_454\n        /* \"#utility.yul\":20431:20437   */\n      dup4\n        /* \"#utility.yul\":20426:20429   */\n      dup6\n        /* \"#utility.yul\":20419:20424   */\n      dup5\n        /* \"#utility.yul\":20382:20438   */\n      tag_182\n      jump\t// in\n    tag_454:\n        /* \"#utility.yul\":20463:20469   */\n      dup3\n        /* \"#utility.yul\":20458:20461   */\n      dup5\n        /* \"#utility.yul\":20454:20470   */\n      add\n        /* \"#utility.yul\":20447:20470   */\n      swap1\n      pop\n        /* \"#utility.yul\":20146:20476   */\n      swap4\n      swap3\n      pop\n      pop\n      pop\n      jump\t// out\n        /* \"#utility.yul\":20482:20777   */\n    tag_140:\n        /* \"#utility.yul\":20624:20627   */\n      0x00\n        /* \"#utility.yul\":20646:20751   */\n      tag_456\n        /* \"#utility.yul\":20747:20750   */\n      dup3\n        /* \"#utility.yul\":20738:20744   */\n      dup5\n        /* \"#utility.yul\":20730:20736   */\n      dup7\n        /* \"#utility.yul\":20646:20751   */\n      tag_228\n      jump\t// in\n    tag_456:\n        /* \"#utility.yul\":20639:20751   */\n      swap2\n      pop\n        /* \"#utility.yul\":20768:20771   */\n      dup2\n        /* \"#utility.yul\":20761:20771   */\n      swap1\n      pop\n        /* \"#utility.yul\":20482:20777   */\n      swap4\n      swap3\n      pop\n      pop\n      pop\n      jump\t// out\n\n    auxdata: 0xa2646970667358221220e014417799ebf28378ff2ab503419f15b00e0fe7987d46c01197c145a9eeba8e64736f6c63430008120033\n}\n",
				"bytecode": {
					"linkReferences": {},
					"object": "608060405234801561001057600080fd5b50611d0b806100206000396000f3fe608060405234801561001057600080fd5b50600436106100885760003560e01c80638058316a1161005b5780638058316a146101135780639f11aa651461014a578063cb04bf7514610166578063f732ac771461019657610088565b806306661abd1461008d57806310a688e3146100ab57806327d3410c146100db578063690e87c8146100f7575b600080fd5b6100956101b2565b6040516100a29190611186565b60405180910390f35b6100c560048036038101906100c091906112fb565b6101b8565b6040516100d29190611541565b60405180910390f35b6100f560048036038101906100f0919061159b565b6103ce565b005b610111600480360381019061010c91906112fb565b6106f3565b005b61012d600480360381019061012891906112fb565b6107d2565b60405161014198979695949392919061165f565b60405180910390f35b610164600480360381019061015f91906112fb565b61096d565b005b610180600480360381019061017b919061174b565b610bdd565b60405161018d9190611541565b60405180910390f35b6101b060048036038101906101ab9190611798565b610e71565b005b60015481565b6101c0611100565b6000826040516101d09190611855565b908152602001604051809103902060405180610100016040529081600082015481526020016001820180546102049061189b565b80601f01602080910402602001604051908101604052809291908181526020018280546102309061189b565b801561027d5780601f106102525761010080835404028352916020019161027d565b820191906000526020600020905b81548152906001019060200180831161026057829003601f168201915b505050505081526020016002820180546102969061189b565b80601f01602080910402602001604051908101604052809291908181526020018280546102c29061189b565b801561030f5780601f106102e45761010080835404028352916020019161030f565b820191906000526020600020905b8154815290600101906020018083116102f257829003601f168201915b505050505081526020016003820160009054906101000a900473ffffffffffffffffffffffffffffffffffffffff1673ffffffffffffffffffffffffffffffffffffffff1673ffffffffffffffffffffffffffffffffffffffff1681526020016004820154815260200160058201548152602001600682015481526020016007820160009054906101000a900460ff1660028111156103b1576103b0611413565b5b60028111156103c3576103c2611413565b5b815250509050919050565b3373ffffffffffffffffffffffffffffffffffffffff16600260003373ffffffffffffffffffffffffffffffffffffffff1673ffffffffffffffffffffffffffffffffffffffff16815260200190815260200160002060010160009054906101000a900473ffffffffffffffffffffffffffffffffffffffff1673ffffffffffffffffffffffffffffffffffffffff161461046857600080fd5b6000600281111561047c5761047b611413565b5b600260003373ffffffffffffffffffffffffffffffffffffffff1673ffffffffffffffffffffffffffffffffffffffff168152602001908152602001600020600301836040516104cc9190611855565b908152602001604051809103902060009054906101000a900460ff1660028111156104fa576104f9611413565b5b14801561055957506000600281111561051657610515611413565b5b6000836040516105269190611855565b908152602001604051809103902060070160009054906101000a900460ff16600281111561055757610556611413565b5b145b61056257600080fd5b60011515811515036106315760008260405161057e9190611855565b908152602001604051809103902060050160008154809291906105a0906118fb565b91905055506001600260003373ffffffffffffffffffffffffffffffffffffffff1673ffffffffffffffffffffffffffffffffffffffff168152602001908152602001600020600301836040516105f79190611855565b908152602001604051809103902060006101000a81548160ff0219169083600281111561062757610626611413565b5b02179055506106ef565b6000826040516106419190611855565b90815260200160405180910390206006016000815480929190610663906118fb565b919050555060028060003373ffffffffffffffffffffffffffffffffffffffff1673ffffffffffffffffffffffffffffffffffffffff168152602001908152602001600020600301836040516106b99190611855565b908152602001604051809103902060006101000a81548160ff021916908360028111156106e9576106e8611413565b5b02179055505b5050565b8033600260003373ffffffffffffffffffffffffffffffffffffffff1673ffffffffffffffffffffffffffffffffffffffff1681526020019081526020016000206000016000600260003373ffffffffffffffffffffffffffffffffffffffff1673ffffffffffffffffffffffffffffffffffffffff16815260200190815260200160002060010160008491906101000a81548173ffffffffffffffffffffffffffffffffffffffff021916908373ffffffffffffffffffffffffffffffffffffffff1602179055508391905090816107cc9190611aef565b50505050565b6000818051602081018201805184825260208301602085012081835280955050505050506000915090508060000154908060010180546108119061189b565b80601f016020809104026020016040519081016040528092919081815260200182805461083d9061189b565b801561088a5780601f1061085f5761010080835404028352916020019161088a565b820191906000526020600020905b81548152906001019060200180831161086d57829003601f168201915b50505050509080600201805461089f9061189b565b80601f01602080910402602001604051908101604052809291908181526020018280546108cb9061189b565b80156109185780601f106108ed57610100808354040283529160200191610918565b820191906000526020600020905b8154815290600101906020018083116108fb57829003601f168201915b5050505050908060030160009054906101000a900473ffffffffffffffffffffffffffffffffffffffff16908060040154908060050154908060060154908060070160009054906101000a900460ff16905088565b3373ffffffffffffffffffffffffffffffffffffffff16600260003373ffffffffffffffffffffffffffffffffffffffff1673ffffffffffffffffffffffffffffffffffffffff16815260200190815260200160002060010160009054906101000a900473ffffffffffffffffffffffffffffffffffffffff1673ffffffffffffffffffffffffffffffffffffffff1614610a0757600080fd5b6064600082604051610a199190611855565b908152602001604051809103902060040154610a359190611bc1565b4211610a4057600080fd5b600a6007600154610a519190611bf5565b610a5b9190611c66565b600082604051610a6b9190611855565b908152602001604051809103902060060154600083604051610a8d9190611855565b908152602001604051809103902060050154610aa99190611bc1565b118015610b3b57506042600082604051610ac39190611855565b908152602001604051809103902060060154600083604051610ae59190611855565b908152602001604051809103902060050154610b019190611bc1565b6064600084604051610b139190611855565b908152602001604051809103902060050154610b2f9190611bf5565b610b399190611c66565b115b15610b8f576001600082604051610b529190611855565b908152602001604051809103902060070160006101000a81548160ff02191690836002811115610b8557610b84611413565b5b0217905550610bda565b6002600082604051610ba19190611855565b908152602001604051809103902060070160006101000a81548160ff02191690836002811115610bd457610bd3611413565b5b02179055505b50565b610be5611100565b60008383604051610bf7929190611cbc565b908152602001604051809103902060030160009054906101000a900473ffffffffffffffffffffffffffffffffffffffff1673ffffffffffffffffffffffffffffffffffffffff163373ffffffffffffffffffffffffffffffffffffffff1614610c6057600080fd5b60008383604051610c72929190611cbc565b90815260200160405180910390206040518061010001604052908160008201548152602001600182018054610ca69061189b565b80601f0160208091040260200160405190810160405280929190818152602001828054610cd29061189b565b8015610d1f5780601f10610cf457610100808354040283529160200191610d1f565b820191906000526020600020905b815481529060010190602001808311610d0257829003601f168201915b50505050508152602001600282018054610d389061189b565b80601f0160208091040260200160405190810160405280929190818152602001828054610d649061189b565b8015610db15780601f10610d8657610100808354040283529160200191610db1565b820191906000526020600020905b815481529060010190602001808311610d9457829003601f168201915b505050505081526020016003820160009054906101000a900473ffffffffffffffffffffffffffffffffffffffff1673ffffffffffffffffffffffffffffffffffffffff1673ffffffffffffffffffffffffffffffffffffffff1681526020016004820154815260200160058201548152602001600682015481526020016007820160009054906101000a900460ff166002811115610e5357610e52611413565b5b6002811115610e6557610e64611413565b5b81525050905092915050565b3373ffffffffffffffffffffffffffffffffffffffff16600260003373ffffffffffffffffffffffffffffffffffffffff1673ffffffffffffffffffffffffffffffffffffffff16815260200190815260200160002060010160009054906101000a900473ffffffffffffffffffffffffffffffffffffffff1673ffffffffffffffffffffffffffffffffffffffff1614610f0b57600080fd5b604051806101000160405280600160008154610f26906118fb565b919050819055815260200185858080601f016020809104026020016040519081016040528093929190818152602001838380828437600081840152601f19601f82011690508083019250505050505050815260200183838080601f016020809104026020016040519081016040528093929190818152602001838380828437600081840152601f19601f8201169050808301925050505050505081526020013373ffffffffffffffffffffffffffffffffffffffff16815260200142815260200160008152602001600081526020016000600281111561100957611008611413565b5b8152506000858560405161101e929190611cbc565b908152602001604051809103902060008201518160000155602082015181600101908161104b9190611aef565b5060408201518160020190816110619190611aef565b5060608201518160030160006101000a81548173ffffffffffffffffffffffffffffffffffffffff021916908373ffffffffffffffffffffffffffffffffffffffff1602179055506080820151816004015560a0820151816005015560c0820151816006015560e08201518160070160006101000a81548160ff021916908360028111156110f2576110f1611413565b5b021790555090505050505050565b604051806101000160405280600081526020016060815260200160608152602001600073ffffffffffffffffffffffffffffffffffffffff1681526020016000815260200160008152602001600081526020016000600281111561116757611166611413565b5b81525090565b6000819050919050565b6111808161116d565b82525050565b600060208201905061119b6000830184611177565b92915050565b6000604051905090565b600080fd5b600080fd5b600080fd5b600080fd5b6000601f19601f8301169050919050565b7f4e487b7100000000000000000000000000000000000000000000000000000000600052604160045260246000fd5b611208826111bf565b810181811067ffffffffffffffff82111715611227576112266111d0565b5b80604052505050565b600061123a6111a1565b905061124682826111ff565b919050565b600067ffffffffffffffff821115611266576112656111d0565b5b61126f826111bf565b9050602081019050919050565b82818337600083830152505050565b600061129e6112998461124b565b611230565b9050828152602081018484840111156112ba576112b96111ba565b5b6112c584828561127c565b509392505050565b600082601f8301126112e2576112e16111b5565b5b81356112f284826020860161128b565b91505092915050565b600060208284031215611311576113106111ab565b5b600082013567ffffffffffffffff81111561132f5761132e6111b0565b5b61133b848285016112cd565b91505092915050565b61134d8161116d565b82525050565b600081519050919050565b600082825260208201905092915050565b60005b8381101561138d578082015181840152602081019050611372565b60008484015250505050565b60006113a482611353565b6113ae818561135e565b93506113be81856020860161136f565b6113c7816111bf565b840191505092915050565b600073ffffffffffffffffffffffffffffffffffffffff82169050919050565b60006113fd826113d2565b9050919050565b61140d816113f2565b82525050565b7f4e487b7100000000000000000000000000000000000000000000000000000000600052602160045260246000fd5b6003811061145357611452611413565b5b50565b600081905061146482611442565b919050565b600061147482611456565b9050919050565b61148481611469565b82525050565b6000610100830160008301516114a36000860182611344565b50602083015184820360208601526114bb8282611399565b915050604083015184820360408601526114d58282611399565b91505060608301516114ea6060860182611404565b5060808301516114fd6080860182611344565b5060a083015161151060a0860182611344565b5060c083015161152360c0860182611344565b5060e083015161153660e086018261147b565b508091505092915050565b6000602082019050818103600083015261155b818461148a565b905092915050565b60008115159050919050565b61157881611563565b811461158357600080fd5b50565b6000813590506115958161156f565b92915050565b600080604083850312156115b2576115b16111ab565b5b600083013567ffffffffffffffff8111156115d0576115cf6111b0565b5b6115dc858286016112cd565b92505060206115ed85828601611586565b9150509250929050565b600082825260208201905092915050565b600061161382611353565b61161d81856115f7565b935061162d81856020860161136f565b611636816111bf565b840191505092915050565b61164a816113f2565b82525050565b61165981611469565b82525050565b600061010082019050611675600083018b611177565b8181036020830152611687818a611608565b9050818103604083015261169b8189611608565b90506116aa6060830188611641565b6116b76080830187611177565b6116c460a0830186611177565b6116d160c0830185611177565b6116de60e0830184611650565b9998505050505050505050565b600080fd5b600080fd5b60008083601f84011261170b5761170a6111b5565b5b8235905067ffffffffffffffff811115611728576117276116eb565b5b602083019150836001820283011115611744576117436116f0565b5b9250929050565b60008060208385031215611762576117616111ab565b5b600083013567ffffffffffffffff8111156117805761177f6111b0565b5b61178c858286016116f5565b92509250509250929050565b600080600080604085870312156117b2576117b16111ab565b5b600085013567ffffffffffffffff8111156117d0576117cf6111b0565b5b6117dc878288016116f5565b9450945050602085013567ffffffffffffffff8111156117ff576117fe6111b0565b5b61180b878288016116f5565b925092505092959194509250565b600081905092915050565b600061182f82611353565b6118398185611819565b935061184981856020860161136f565b80840191505092915050565b60006118618284611824565b915081905092915050565b7f4e487b7100000000000000000000000000000000000000000000000000000000600052602260045260246000fd5b600060028204905060018216806118b357607f821691505b6020821081036118c6576118c561186c565b5b50919050565b7f4e487b7100000000000000000000000000000000000000000000000000000000600052601160045260246000fd5b60006119068261116d565b91507fffffffffffffffffffffffffffffffffffffffffffffffffffffffffffffffff8203611938576119376118cc565b5b600182019050919050565b60008190508160005260206000209050919050565b60006020601f8301049050919050565b600082821b905092915050565b6000600883026119a57fffffffffffffffffffffffffffffffffffffffffffffffffffffffffffffffff82611968565b6119af8683611968565b95508019841693508086168417925050509392505050565b6000819050919050565b60006119ec6119e76119e28461116d565b6119c7565b61116d565b9050919050565b6000819050919050565b611a06836119d1565b611a1a611a12826119f3565b848454611975565b825550505050565b600090565b611a2f611a22565b611a3a8184846119fd565b505050565b5b81811015611a5e57611a53600082611a27565b600181019050611a40565b5050565b601f821115611aa357611a7481611943565b611a7d84611958565b81016020851015611a8c578190505b611aa0611a9885611958565b830182611a3f565b50505b505050565b600082821c905092915050565b6000611ac660001984600802611aa8565b1980831691505092915050565b6000611adf8383611ab5565b9150826002028217905092915050565b611af882611353565b67ffffffffffffffff811115611b1157611b106111d0565b5b611b1b825461189b565b611b26828285611a62565b600060209050601f831160018114611b595760008415611b47578287015190505b611b518582611ad3565b865550611bb9565b601f198416611b6786611943565b60005b82811015611b8f57848901518255600182019150602085019450602081019050611b6a565b86831015611bac5784890151611ba8601f891682611ab5565b8355505b6001600288020188555050505b505050505050565b6000611bcc8261116d565b9150611bd78361116d565b9250828201905080821115611bef57611bee6118cc565b5b92915050565b6000611c008261116d565b9150611c0b8361116d565b9250828202611c198161116d565b91508282048414831517611c3057611c2f6118cc565b5b5092915050565b7f4e487b7100000000000000000000000000000000000000000000000000000000600052601260045260246000fd5b6000611c718261116d565b9150611c7c8361116d565b925082611c8c57611c8b611c37565b5b828204905092915050565b6000611ca38385611819565b9350611cb083858461127c565b82840190509392505050565b6000611cc9828486611c97565b9150819050939250505056fea2646970667358221220e014417799ebf28378ff2ab503419f15b00e0fe7987d46c01197c145a9eeba8e64736f6c63430008120033",
					"opcodes": "PUSH1 0x80 PUSH1 0x40 MSTORE CALLVALUE DUP1 ISZERO PUSH2 0x10 JUMPI PUSH1 0x0 DUP1 REVERT JUMPDEST POP PUSH2 0x1D0B DUP1 PUSH2 0x20 PUSH1 0x0 CODECOPY PUSH1 0x0 RETURN INVALID PUSH1 0x80 PUSH1 0x40 MSTORE CALLVALUE DUP1 ISZERO PUSH2 0x10 JUMPI PUSH1 0x0 DUP1 REVERT JUMPDEST POP PUSH1 0x4 CALLDATASIZE LT PUSH2 0x88 JUMPI PUSH1 0x0 CALLDATALOAD PUSH1 0xE0 SHR DUP1 PUSH4 0x8058316A GT PUSH2 0x5B JUMPI DUP1 PUSH4 0x8058316A EQ PUSH2 0x113 JUMPI DUP1 PUSH4 0x9F11AA65 EQ PUSH2 0x14A JUMPI DUP1 PUSH4 0xCB04BF75 EQ PUSH2 0x166 JUMPI DUP1 PUSH4 0xF732AC77 EQ PUSH2 0x196 JUMPI PUSH2 0x88 JUMP JUMPDEST DUP1 PUSH4 0x6661ABD EQ PUSH2 0x8D JUMPI DUP1 PUSH4 0x10A688E3 EQ PUSH2 0xAB JUMPI DUP1 PUSH4 0x27D3410C EQ PUSH2 0xDB JUMPI DUP1 PUSH4 0x690E87C8 EQ PUSH2 0xF7 JUMPI JUMPDEST PUSH1 0x0 DUP1 REVERT JUMPDEST PUSH2 0x95 PUSH2 0x1B2 JUMP JUMPDEST PUSH1 0x40 MLOAD PUSH2 0xA2 SWAP2 SWAP1 PUSH2 0x1186 JUMP JUMPDEST PUSH1 0x40 MLOAD DUP1 SWAP2 SUB SWAP1 RETURN JUMPDEST PUSH2 0xC5 PUSH1 0x4 DUP1 CALLDATASIZE SUB DUP2 ADD SWAP1 PUSH2 0xC0 SWAP2 SWAP1 PUSH2 0x12FB JUMP JUMPDEST PUSH2 0x1B8 JUMP JUMPDEST PUSH1 0x40 MLOAD PUSH2 0xD2 SWAP2 SWAP1 PUSH2 0x1541 JUMP JUMPDEST PUSH1 0x40 MLOAD DUP1 SWAP2 SUB SWAP1 RETURN JUMPDEST PUSH2 0xF5 PUSH1 0x4 DUP1 CALLDATASIZE SUB DUP2 ADD SWAP1 PUSH2 0xF0 SWAP2 SWAP1 PUSH2 0x159B JUMP JUMPDEST PUSH2 0x3CE JUMP JUMPDEST STOP JUMPDEST PUSH2 0x111 PUSH1 0x4 DUP1 CALLDATASIZE SUB DUP2 ADD SWAP1 PUSH2 0x10C SWAP2 SWAP1 PUSH2 0x12FB JUMP JUMPDEST PUSH2 0x6F3 JUMP JUMPDEST STOP JUMPDEST PUSH2 0x12D PUSH1 0x4 DUP1 CALLDATASIZE SUB DUP2 ADD SWAP1 PUSH2 0x128 SWAP2 SWAP1 PUSH2 0x12FB JUMP JUMPDEST PUSH2 0x7D2 JUMP JUMPDEST PUSH1 0x40 MLOAD PUSH2 0x141 SWAP9 SWAP8 SWAP7 SWAP6 SWAP5 SWAP4 SWAP3 SWAP2 SWAP1 PUSH2 0x165F JUMP JUMPDEST PUSH1 0x40 MLOAD DUP1 SWAP2 SUB SWAP1 RETURN JUMPDEST PUSH2 0x164 PUSH1 0x4 DUP1 CALLDATASIZE SUB DUP2 ADD SWAP1 PUSH2 0x15F SWAP2 SWAP1 PUSH2 0x12FB JUMP JUMPDEST PUSH2 0x96D JUMP JUMPDEST STOP JUMPDEST PUSH2 0x180 PUSH1 0x4 DUP1 CALLDATASIZE SUB DUP2 ADD SWAP1 PUSH2 0x17B SWAP2 SWAP1 PUSH2 0x174B JUMP JUMPDEST PUSH2 0xBDD JUMP JUMPDEST PUSH1 0x40 MLOAD PUSH2 0x18D SWAP2 SWAP1 PUSH2 0x1541 JUMP JUMPDEST PUSH1 0x40 MLOAD DUP1 SWAP2 SUB SWAP1 RETURN JUMPDEST PUSH2 0x1B0 PUSH1 0x4 DUP1 CALLDATASIZE SUB DUP2 ADD SWAP1 PUSH2 0x1AB SWAP2 SWAP1 PUSH2 0x1798 JUMP JUMPDEST PUSH2 0xE71 JUMP JUMPDEST STOP JUMPDEST PUSH1 0x1 SLOAD DUP2 JUMP JUMPDEST PUSH2 0x1C0 PUSH2 0x1100 JUMP JUMPDEST PUSH1 0x0 DUP3 PUSH1 0x40 MLOAD PUSH2 0x1D0 SWAP2 SWAP1 PUSH2 0x1855 JUMP JUMPDEST SWAP1 DUP2 MSTORE PUSH1 0x20 ADD PUSH1 0x40 MLOAD DUP1 SWAP2 SUB SWAP1 KECCAK256 PUSH1 0x40 MLOAD DUP1 PUSH2 0x100 ADD PUSH1 0x40 MSTORE SWAP1 DUP2 PUSH1 0x0 DUP3 ADD SLOAD DUP2 MSTORE PUSH1 0x20 ADD PUSH1 0x1 DUP3 ADD DUP1 SLOAD PUSH2 0x204 SWAP1 PUSH2 0x189B JUMP JUMPDEST DUP1 PUSH1 0x1F ADD PUSH1 0x20 DUP1 SWAP2 DIV MUL PUSH1 0x20 ADD PUSH1 0x40 MLOAD SWAP1 DUP2 ADD PUSH1 0x40 MSTORE DUP1 SWAP3 SWAP2 SWAP1 DUP2 DUP2 MSTORE PUSH1 0x20 ADD DUP3 DUP1 SLOAD PUSH2 0x230 SWAP1 PUSH2 0x189B JUMP JUMPDEST DUP1 ISZERO PUSH2 0x27D JUMPI DUP1 PUSH1 0x1F LT PUSH2 0x252 JUMPI PUSH2 0x100 DUP1 DUP4 SLOAD DIV MUL DUP4 MSTORE SWAP2 PUSH1 0x20 ADD SWAP2 PUSH2 0x27D JUMP JUMPDEST DUP3 ADD SWAP2 SWAP1 PUSH1 0x0 MSTORE PUSH1 0x20 PUSH1 0x0 KECCAK256 SWAP1 JUMPDEST DUP2 SLOAD DUP2 MSTORE SWAP1 PUSH1 0x1 ADD SWAP1 PUSH1 0x20 ADD DUP1 DUP4 GT PUSH2 0x260 JUMPI DUP3 SWAP1 SUB PUSH1 0x1F AND DUP3 ADD SWAP2 JUMPDEST POP POP POP POP POP DUP2 MSTORE PUSH1 0x20 ADD PUSH1 0x2 DUP3 ADD DUP1 SLOAD PUSH2 0x296 SWAP1 PUSH2 0x189B JUMP JUMPDEST DUP1 PUSH1 0x1F ADD PUSH1 0x20 DUP1 SWAP2 DIV MUL PUSH1 0x20 ADD PUSH1 0x40 MLOAD SWAP1 DUP2 ADD PUSH1 0x40 MSTORE DUP1 SWAP3 SWAP2 SWAP1 DUP2 DUP2 MSTORE PUSH1 0x20 ADD DUP3 DUP1 SLOAD PUSH2 0x2C2 SWAP1 PUSH2 0x189B JUMP JUMPDEST DUP1 ISZERO PUSH2 0x30F JUMPI DUP1 PUSH1 0x1F LT PUSH2 0x2E4 JUMPI PUSH2 0x100 DUP1 DUP4 SLOAD DIV MUL DUP4 MSTORE SWAP2 PUSH1 0x20 ADD SWAP2 PUSH2 0x30F JUMP JUMPDEST DUP3 ADD SWAP2 SWAP1 PUSH1 0x0 MSTORE PUSH1 0x20 PUSH1 0x0 KECCAK256 SWAP1 JUMPDEST DUP2 SLOAD DUP2 MSTORE SWAP1 PUSH1 0x1 ADD SWAP1 PUSH1 0x20 ADD DUP1 DUP4 GT PUSH2 0x2F2 JUMPI DUP3 SWAP1 SUB PUSH1 0x1F AND DUP3 ADD SWAP2 JUMPDEST POP POP POP POP POP DUP2 MSTORE PUSH1 0x20 ADD PUSH1 0x3 DUP3 ADD PUSH1 0x0 SWAP1 SLOAD SWAP1 PUSH2 0x100 EXP SWAP1 DIV PUSH20 0xFFFFFFFFFFFFFFFFFFFFFFFFFFFFFFFFFFFFFFFF AND PUSH20 0xFFFFFFFFFFFFFFFFFFFFFFFFFFFFFFFFFFFFFFFF AND PUSH20 0xFFFFFFFFFFFFFFFFFFFFFFFFFFFFFFFFFFFFFFFF AND DUP2 MSTORE PUSH1 0x20 ADD PUSH1 0x4 DUP3 ADD SLOAD DUP2 MSTORE PUSH1 0x20 ADD PUSH1 0x5 DUP3 ADD SLOAD DUP2 MSTORE PUSH1 0x20 ADD PUSH1 0x6 DUP3 ADD SLOAD DUP2 MSTORE PUSH1 0x20 ADD PUSH1 0x7 DUP3 ADD PUSH1 0x0 SWAP1 SLOAD SWAP1 PUSH2 0x100 EXP SWAP1 DIV PUSH1 0xFF AND PUSH1 0x2 DUP2 GT ISZERO PUSH2 0x3B1 JUMPI PUSH2 0x3B0 PUSH2 0x1413 JUMP JUMPDEST JUMPDEST PUSH1 0x2 DUP2 GT ISZERO PUSH2 0x3C3 JUMPI PUSH2 0x3C2 PUSH2 0x1413 JUMP JUMPDEST JUMPDEST DUP2 MSTORE POP POP SWAP1 POP SWAP2 SWAP1 POP JUMP JUMPDEST CALLER PUSH20 0xFFFFFFFFFFFFFFFFFFFFFFFFFFFFFFFFFFFFFFFF AND PUSH1 0x2 PUSH1 0x0 CALLER PUSH20 0xFFFFFFFFFFFFFFFFFFFFFFFFFFFFFFFFFFFFFFFF AND PUSH20 0xFFFFFFFFFFFFFFFFFFFFFFFFFFFFFFFFFFFFFFFF AND DUP2 MSTORE PUSH1 0x20 ADD SWAP1 DUP2 MSTORE PUSH1 0x20 ADD PUSH1 0x0 KECCAK256 PUSH1 0x1 ADD PUSH1 0x0 SWAP1 SLOAD SWAP1 PUSH2 0x100 EXP SWAP1 DIV PUSH20 0xFFFFFFFFFFFFFFFFFFFFFFFFFFFFFFFFFFFFFFFF AND PUSH20 0xFFFFFFFFFFFFFFFFFFFFFFFFFFFFFFFFFFFFFFFF AND EQ PUSH2 0x468 JUMPI PUSH1 0x0 DUP1 REVERT JUMPDEST PUSH1 0x0 PUSH1 0x2 DUP2 GT ISZERO PUSH2 0x47C JUMPI PUSH2 0x47B PUSH2 0x1413 JUMP JUMPDEST JUMPDEST PUSH1 0x2 PUSH1 0x0 CALLER PUSH20 0xFFFFFFFFFFFFFFFFFFFFFFFFFFFFFFFFFFFFFFFF AND PUSH20 0xFFFFFFFFFFFFFFFFFFFFFFFFFFFFFFFFFFFFFFFF AND DUP2 MSTORE PUSH1 0x20 ADD SWAP1 DUP2 MSTORE PUSH1 0x20 ADD PUSH1 0x0 KECCAK256 PUSH1 0x3 ADD DUP4 PUSH1 0x40 MLOAD PUSH2 0x4CC SWAP2 SWAP1 PUSH2 0x1855 JUMP JUMPDEST SWAP1 DUP2 MSTORE PUSH1 0x20 ADD PUSH1 0x40 MLOAD DUP1 SWAP2 SUB SWAP1 KECCAK256 PUSH1 0x0 SWAP1 SLOAD SWAP1 PUSH2 0x100 EXP SWAP1 DIV PUSH1 0xFF AND PUSH1 0x2 DUP2 GT ISZERO PUSH2 0x4FA JUMPI PUSH2 0x4F9 PUSH2 0x1413 JUMP JUMPDEST JUMPDEST EQ DUP1 ISZERO PUSH2 0x559 JUMPI POP PUSH1 0x0 PUSH1 0x2 DUP2 GT ISZERO PUSH2 0x516 JUMPI PUSH2 0x515 PUSH2 0x1413 JUMP JUMPDEST JUMPDEST PUSH1 0x0 DUP4 PUSH1 0x40 MLOAD PUSH2 0x526 SWAP2 SWAP1 PUSH2 0x1855 JUMP JUMPDEST SWAP1 DUP2 MSTORE PUSH1 0x20 ADD PUSH1 0x40 MLOAD DUP1 SWAP2 SUB SWAP1 KECCAK256 PUSH1 0x7 ADD PUSH1 0x0 SWAP1 SLOAD SWAP1 PUSH2 0x100 EXP SWAP1 DIV PUSH1 0xFF AND PUSH1 0x2 DUP2 GT ISZERO PUSH2 0x557 JUMPI PUSH2 0x556 PUSH2 0x1413 JUMP JUMPDEST JUMPDEST EQ JUMPDEST PUSH2 0x562 JUMPI PUSH1 0x0 DUP1 REVERT JUMPDEST PUSH1 0x1 ISZERO ISZERO DUP2 ISZERO ISZERO SUB PUSH2 0x631 JUMPI PUSH1 0x0 DUP3 PUSH1 0x40 MLOAD PUSH2 0x57E SWAP2 SWAP1 PUSH2 0x1855 JUMP JUMPDEST SWAP1 DUP2 MSTORE PUSH1 0x20 ADD PUSH1 0x40 MLOAD DUP1 SWAP2 SUB SWAP1 KECCAK256 PUSH1 0x5 ADD PUSH1 0x0 DUP2 SLOAD DUP1 SWAP3 SWAP2 SWAP1 PUSH2 0x5A0 SWAP1 PUSH2 0x18FB JUMP JUMPDEST SWAP2 SWAP1 POP SSTORE POP PUSH1 0x1 PUSH1 0x2 PUSH1 0x0 CALLER PUSH20 0xFFFFFFFFFFFFFFFFFFFFFFFFFFFFFFFFFFFFFFFF AND PUSH20 0xFFFFFFFFFFFFFFFFFFFFFFFFFFFFFFFFFFFFFFFF AND DUP2 MSTORE PUSH1 0x20 ADD SWAP1 DUP2 MSTORE PUSH1 0x20 ADD PUSH1 0x0 KECCAK256 PUSH1 0x3 ADD DUP4 PUSH1 0x40 MLOAD PUSH2 0x5F7 SWAP2 SWAP1 PUSH2 0x1855 JUMP JUMPDEST SWAP1 DUP2 MSTORE PUSH1 0x20 ADD PUSH1 0x40 MLOAD DUP1 SWAP2 SUB SWAP1 KECCAK256 PUSH1 0x0 PUSH2 0x100 EXP DUP2 SLOAD DUP2 PUSH1 0xFF MUL NOT AND SWAP1 DUP4 PUSH1 0x2 DUP2 GT ISZERO PUSH2 0x627 JUMPI PUSH2 0x626 PUSH2 0x1413 JUMP JUMPDEST JUMPDEST MUL OR SWAP1 SSTORE POP PUSH2 0x6EF JUMP JUMPDEST PUSH1 0x0 DUP3 PUSH1 0x40 MLOAD PUSH2 0x641 SWAP2 SWAP1 PUSH2 0x1855 JUMP JUMPDEST SWAP1 DUP2 MSTORE PUSH1 0x20 ADD PUSH1 0x40 MLOAD DUP1 SWAP2 SUB SWAP1 KECCAK256 PUSH1 0x6 ADD PUSH1 0x0 DUP2 SLOAD DUP1 SWAP3 SWAP2 SWAP1 PUSH2 0x663 SWAP1 PUSH2 0x18FB JUMP JUMPDEST SWAP2 SWAP1 POP SSTORE POP PUSH1 0x2 DUP1 PUSH1 0x0 CALLER PUSH20 0xFFFFFFFFFFFFFFFFFFFFFFFFFFFFFFFFFFFFFFFF AND PUSH20 0xFFFFFFFFFFFFFFFFFFFFFFFFFFFFFFFFFFFFFFFF AND DUP2 MSTORE PUSH1 0x20 ADD SWAP1 DUP2 MSTORE PUSH1 0x20 ADD PUSH1 0x0 KECCAK256 PUSH1 0x3 ADD DUP4 PUSH1 0x40 MLOAD PUSH2 0x6B9 SWAP2 SWAP1 PUSH2 0x1855 JUMP JUMPDEST SWAP1 DUP2 MSTORE PUSH1 0x20 ADD PUSH1 0x40 MLOAD DUP1 SWAP2 SUB SWAP1 KECCAK256 PUSH1 0x0 PUSH2 0x100 EXP DUP2 SLOAD DUP2 PUSH1 0xFF MUL NOT AND SWAP1 DUP4 PUSH1 0x2 DUP2 GT ISZERO PUSH2 0x6E9 JUMPI PUSH2 0x6E8 PUSH2 0x1413 JUMP JUMPDEST JUMPDEST MUL OR SWAP1 SSTORE POP JUMPDEST POP POP JUMP JUMPDEST DUP1 CALLER PUSH1 0x2 PUSH1 0x0 CALLER PUSH20 0xFFFFFFFFFFFFFFFFFFFFFFFFFFFFFFFFFFFFFFFF AND PUSH20 0xFFFFFFFFFFFFFFFFFFFFFFFFFFFFFFFFFFFFFFFF AND DUP2 MSTORE PUSH1 0x20 ADD SWAP1 DUP2 MSTORE PUSH1 0x20 ADD PUSH1 0x0 KECCAK256 PUSH1 0x0 ADD PUSH1 0x0 PUSH1 0x2 PUSH1 0x0 CALLER PUSH20 0xFFFFFFFFFFFFFFFFFFFFFFFFFFFFFFFFFFFFFFFF AND PUSH20 0xFFFFFFFFFFFFFFFFFFFFFFFFFFFFFFFFFFFFFFFF AND DUP2 MSTORE PUSH1 0x20 ADD SWAP1 DUP2 MSTORE PUSH1 0x20 ADD PUSH1 0x0 KECCAK256 PUSH1 0x1 ADD PUSH1 0x0 DUP5 SWAP2 SWAP1 PUSH2 0x100 EXP DUP2 SLOAD DUP2 PUSH20 0xFFFFFFFFFFFFFFFFFFFFFFFFFFFFFFFFFFFFFFFF MUL NOT AND SWAP1 DUP4 PUSH20 0xFFFFFFFFFFFFFFFFFFFFFFFFFFFFFFFFFFFFFFFF AND MUL OR SWAP1 SSTORE POP DUP4 SWAP2 SWAP1 POP SWAP1 DUP2 PUSH2 0x7CC SWAP2 SWAP1 PUSH2 0x1AEF JUMP JUMPDEST POP POP POP POP JUMP JUMPDEST PUSH1 0x0 DUP2 DUP1 MLOAD PUSH1 0x20 DUP2 ADD DUP3 ADD DUP1 MLOAD DUP5 DUP3 MSTORE PUSH1 0x20 DUP4 ADD PUSH1 0x20 DUP6 ADD KECCAK256 DUP2 DUP4 MSTORE DUP1 SWAP6 POP POP POP POP POP POP PUSH1 0x0 SWAP2 POP SWAP1 POP DUP1 PUSH1 0x0 ADD SLOAD SWAP1 DUP1 PUSH1 0x1 ADD DUP1 SLOAD PUSH2 0x811 SWAP1 PUSH2 0x189B JUMP JUMPDEST DUP1 PUSH1 0x1F ADD PUSH1 0x20 DUP1 SWAP2 DIV MUL PUSH1 0x20 ADD PUSH1 0x40 MLOAD SWAP1 DUP2 ADD PUSH1 0x40 MSTORE DUP1 SWAP3 SWAP2 SWAP1 DUP2 DUP2 MSTORE PUSH1 0x20 ADD DUP3 DUP1 SLOAD PUSH2 0x83D SWAP1 PUSH2 0x189B JUMP JUMPDEST DUP1 ISZERO PUSH2 0x88A JUMPI DUP1 PUSH1 0x1F LT PUSH2 0x85F JUMPI PUSH2 0x100 DUP1 DUP4 SLOAD DIV MUL DUP4 MSTORE SWAP2 PUSH1 0x20 ADD SWAP2 PUSH2 0x88A JUMP JUMPDEST DUP3 ADD SWAP2 SWAP1 PUSH1 0x0 MSTORE PUSH1 0x20 PUSH1 0x0 KECCAK256 SWAP1 JUMPDEST DUP2 SLOAD DUP2 MSTORE SWAP1 PUSH1 0x1 ADD SWAP1 PUSH1 0x20 ADD DUP1 DUP4 GT PUSH2 0x86D JUMPI DUP3 SWAP1 SUB PUSH1 0x1F AND DUP3 ADD SWAP2 JUMPDEST POP POP POP POP POP SWAP1 DUP1 PUSH1 0x2 ADD DUP1 SLOAD PUSH2 0x89F SWAP1 PUSH2 0x189B JUMP JUMPDEST DUP1 PUSH1 0x1F ADD PUSH1 0x20 DUP1 SWAP2 DIV MUL PUSH1 0x20 ADD PUSH1 0x40 MLOAD SWAP1 DUP2 ADD PUSH1 0x40 MSTORE DUP1 SWAP3 SWAP2 SWAP1 DUP2 DUP2 MSTORE PUSH1 0x20 ADD DUP3 DUP1 SLOAD PUSH2 0x8CB SWAP1 PUSH2 0x189B JUMP JUMPDEST DUP1 ISZERO PUSH2 0x918 JUMPI DUP1 PUSH1 0x1F LT PUSH2 0x8ED JUMPI PUSH2 0x100 DUP1 DUP4 SLOAD DIV MUL DUP4 MSTORE SWAP2 PUSH1 0x20 ADD SWAP2 PUSH2 0x918 JUMP JUMPDEST DUP3 ADD SWAP2 SWAP1 PUSH1 0x0 MSTORE PUSH1 0x20 PUSH1 0x0 KECCAK256 SWAP1 JUMPDEST DUP2 SLOAD DUP2 MSTORE SWAP1 PUSH1 0x1 ADD SWAP1 PUSH1 0x20 ADD DUP1 DUP4 GT PUSH2 0x8FB JUMPI DUP3 SWAP1 SUB PUSH1 0x1F AND DUP3 ADD SWAP2 JUMPDEST POP POP POP POP POP SWAP1 DUP1 PUSH1 0x3 ADD PUSH1 0x0 SWAP1 SLOAD SWAP1 PUSH2 0x100 EXP SWAP1 DIV PUSH20 0xFFFFFFFFFFFFFFFFFFFFFFFFFFFFFFFFFFFFFFFF AND SWAP1 DUP1 PUSH1 0x4 ADD SLOAD SWAP1 DUP1 PUSH1 0x5 ADD SLOAD SWAP1 DUP1 PUSH1 0x6 ADD SLOAD SWAP1 DUP1 PUSH1 0x7 ADD PUSH1 0x0 SWAP1 SLOAD SWAP1 PUSH2 0x100 EXP SWAP1 DIV PUSH1 0xFF AND SWAP1 POP DUP9 JUMP JUMPDEST CALLER PUSH20 0xFFFFFFFFFFFFFFFFFFFFFFFFFFFFFFFFFFFFFFFF AND PUSH1 0x2 PUSH1 0x0 CALLER PUSH20 0xFFFFFFFFFFFFFFFFFFFFFFFFFFFFFFFFFFFFFFFF AND PUSH20 0xFFFFFFFFFFFFFFFFFFFFFFFFFFFFFFFFFFFFFFFF AND DUP2 MSTORE PUSH1 0x20 ADD SWAP1 DUP2 MSTORE PUSH1 0x20 ADD PUSH1 0x0 KECCAK256 PUSH1 0x1 ADD PUSH1 0x0 SWAP1 SLOAD SWAP1 PUSH2 0x100 EXP SWAP1 DIV PUSH20 0xFFFFFFFFFFFFFFFFFFFFFFFFFFFFFFFFFFFFFFFF AND PUSH20 0xFFFFFFFFFFFFFFFFFFFFFFFFFFFFFFFFFFFFFFFF AND EQ PUSH2 0xA07 JUMPI PUSH1 0x0 DUP1 REVERT JUMPDEST PUSH1 0x64 PUSH1 0x0 DUP3 PUSH1 0x40 MLOAD PUSH2 0xA19 SWAP2 SWAP1 PUSH2 0x1855 JUMP JUMPDEST SWAP1 DUP2 MSTORE PUSH1 0x20 ADD PUSH1 0x40 MLOAD DUP1 SWAP2 SUB SWAP1 KECCAK256 PUSH1 0x4 ADD SLOAD PUSH2 0xA35 SWAP2 SWAP1 PUSH2 0x1BC1 JUMP JUMPDEST TIMESTAMP GT PUSH2 0xA40 JUMPI PUSH1 0x0 DUP1 REVERT JUMPDEST PUSH1 0xA PUSH1 0x7 PUSH1 0x1 SLOAD PUSH2 0xA51 SWAP2 SWAP1 PUSH2 0x1BF5 JUMP JUMPDEST PUSH2 0xA5B SWAP2 SWAP1 PUSH2 0x1C66 JUMP JUMPDEST PUSH1 0x0 DUP3 PUSH1 0x40 MLOAD PUSH2 0xA6B SWAP2 SWAP1 PUSH2 0x1855 JUMP JUMPDEST SWAP1 DUP2 MSTORE PUSH1 0x20 ADD PUSH1 0x40 MLOAD DUP1 SWAP2 SUB SWAP1 KECCAK256 PUSH1 0x6 ADD SLOAD PUSH1 0x0 DUP4 PUSH1 0x40 MLOAD PUSH2 0xA8D SWAP2 SWAP1 PUSH2 0x1855 JUMP JUMPDEST SWAP1 DUP2 MSTORE PUSH1 0x20 ADD PUSH1 0x40 MLOAD DUP1 SWAP2 SUB SWAP1 KECCAK256 PUSH1 0x5 ADD SLOAD PUSH2 0xAA9 SWAP2 SWAP1 PUSH2 0x1BC1 JUMP JUMPDEST GT DUP1 ISZERO PUSH2 0xB3B JUMPI POP PUSH1 0x42 PUSH1 0x0 DUP3 PUSH1 0x40 MLOAD PUSH2 0xAC3 SWAP2 SWAP1 PUSH2 0x1855 JUMP JUMPDEST SWAP1 DUP2 MSTORE PUSH1 0x20 ADD PUSH1 0x40 MLOAD DUP1 SWAP2 SUB SWAP1 KECCAK256 PUSH1 0x6 ADD SLOAD PUSH1 0x0 DUP4 PUSH1 0x40 MLOAD PUSH2 0xAE5 SWAP2 SWAP1 PUSH2 0x1855 JUMP JUMPDEST SWAP1 DUP2 MSTORE PUSH1 0x20 ADD PUSH1 0x40 MLOAD DUP1 SWAP2 SUB SWAP1 KECCAK256 PUSH1 0x5 ADD SLOAD PUSH2 0xB01 SWAP2 SWAP1 PUSH2 0x1BC1 JUMP JUMPDEST PUSH1 0x64 PUSH1 0x0 DUP5 PUSH1 0x40 MLOAD PUSH2 0xB13 SWAP2 SWAP1 PUSH2 0x1855 JUMP JUMPDEST SWAP1 DUP2 MSTORE PUSH1 0x20 ADD PUSH1 0x40 MLOAD DUP1 SWAP2 SUB SWAP1 KECCAK256 PUSH1 0x5 ADD SLOAD PUSH2 0xB2F SWAP2 SWAP1 PUSH2 0x1BF5 JUMP JUMPDEST PUSH2 0xB39 SWAP2 SWAP1 PUSH2 0x1C66 JUMP JUMPDEST GT JUMPDEST ISZERO PUSH2 0xB8F JUMPI PUSH1 0x1 PUSH1 0x0 DUP3 PUSH1 0x40 MLOAD PUSH2 0xB52 SWAP2 SWAP1 PUSH2 0x1855 JUMP JUMPDEST SWAP1 DUP2 MSTORE PUSH1 0x20 ADD PUSH1 0x40 MLOAD DUP1 SWAP2 SUB SWAP1 KECCAK256 PUSH1 0x7 ADD PUSH1 0x0 PUSH2 0x100 EXP DUP2 SLOAD DUP2 PUSH1 0xFF MUL NOT AND SWAP1 DUP4 PUSH1 0x2 DUP2 GT ISZERO PUSH2 0xB85 JUMPI PUSH2 0xB84 PUSH2 0x1413 JUMP JUMPDEST JUMPDEST MUL OR SWAP1 SSTORE POP PUSH2 0xBDA JUMP JUMPDEST PUSH1 0x2 PUSH1 0x0 DUP3 PUSH1 0x40 MLOAD PUSH2 0xBA1 SWAP2 SWAP1 PUSH2 0x1855 JUMP JUMPDEST SWAP1 DUP2 MSTORE PUSH1 0x20 ADD PUSH1 0x40 MLOAD DUP1 SWAP2 SUB SWAP1 KECCAK256 PUSH1 0x7 ADD PUSH1 0x0 PUSH2 0x100 EXP DUP2 SLOAD DUP2 PUSH1 0xFF MUL NOT AND SWAP1 DUP4 PUSH1 0x2 DUP2 GT ISZERO PUSH2 0xBD4 JUMPI PUSH2 0xBD3 PUSH2 0x1413 JUMP JUMPDEST JUMPDEST MUL OR SWAP1 SSTORE POP JUMPDEST POP JUMP JUMPDEST PUSH2 0xBE5 PUSH2 0x1100 JUMP JUMPDEST PUSH1 0x0 DUP4 DUP4 PUSH1 0x40 MLOAD PUSH2 0xBF7 SWAP3 SWAP2 SWAP1 PUSH2 0x1CBC JUMP JUMPDEST SWAP1 DUP2 MSTORE PUSH1 0x20 ADD PUSH1 0x40 MLOAD DUP1 SWAP2 SUB SWAP1 KECCAK256 PUSH1 0x3 ADD PUSH1 0x0 SWAP1 SLOAD SWAP1 PUSH2 0x100 EXP SWAP1 DIV PUSH20 0xFFFFFFFFFFFFFFFFFFFFFFFFFFFFFFFFFFFFFFFF AND PUSH20 0xFFFFFFFFFFFFFFFFFFFFFFFFFFFFFFFFFFFFFFFF AND CALLER PUSH20 0xFFFFFFFFFFFFFFFFFFFFFFFFFFFFFFFFFFFFFFFF AND EQ PUSH2 0xC60 JUMPI PUSH1 0x0 DUP1 REVERT JUMPDEST PUSH1 0x0 DUP4 DUP4 PUSH1 0x40 MLOAD PUSH2 0xC72 SWAP3 SWAP2 SWAP1 PUSH2 0x1CBC JUMP JUMPDEST SWAP1 DUP2 MSTORE PUSH1 0x20 ADD PUSH1 0x40 MLOAD DUP1 SWAP2 SUB SWAP1 KECCAK256 PUSH1 0x40 MLOAD DUP1 PUSH2 0x100 ADD PUSH1 0x40 MSTORE SWAP1 DUP2 PUSH1 0x0 DUP3 ADD SLOAD DUP2 MSTORE PUSH1 0x20 ADD PUSH1 0x1 DUP3 ADD DUP1 SLOAD PUSH2 0xCA6 SWAP1 PUSH2 0x189B JUMP JUMPDEST DUP1 PUSH1 0x1F ADD PUSH1 0x20 DUP1 SWAP2 DIV MUL PUSH1 0x20 ADD PUSH1 0x40 MLOAD SWAP1 DUP2 ADD PUSH1 0x40 MSTORE DUP1 SWAP3 SWAP2 SWAP1 DUP2 DUP2 MSTORE PUSH1 0x20 ADD DUP3 DUP1 SLOAD PUSH2 0xCD2 SWAP1 PUSH2 0x189B JUMP JUMPDEST DUP1 ISZERO PUSH2 0xD1F JUMPI DUP1 PUSH1 0x1F LT PUSH2 0xCF4 JUMPI PUSH2 0x100 DUP1 DUP4 SLOAD DIV MUL DUP4 MSTORE SWAP2 PUSH1 0x20 ADD SWAP2 PUSH2 0xD1F JUMP JUMPDEST DUP3 ADD SWAP2 SWAP1 PUSH1 0x0 MSTORE PUSH1 0x20 PUSH1 0x0 KECCAK256 SWAP1 JUMPDEST DUP2 SLOAD DUP2 MSTORE SWAP1 PUSH1 0x1 ADD SWAP1 PUSH1 0x20 ADD DUP1 DUP4 GT PUSH2 0xD02 JUMPI DUP3 SWAP1 SUB PUSH1 0x1F AND DUP3 ADD SWAP2 JUMPDEST POP POP POP POP POP DUP2 MSTORE PUSH1 0x20 ADD PUSH1 0x2 DUP3 ADD DUP1 SLOAD PUSH2 0xD38 SWAP1 PUSH2 0x189B JUMP JUMPDEST DUP1 PUSH1 0x1F ADD PUSH1 0x20 DUP1 SWAP2 DIV MUL PUSH1 0x20 ADD PUSH1 0x40 MLOAD SWAP1 DUP2 ADD PUSH1 0x40 MSTORE DUP1 SWAP3 SWAP2 SWAP1 DUP2 DUP2 MSTORE PUSH1 0x20 ADD DUP3 DUP1 SLOAD PUSH2 0xD64 SWAP1 PUSH2 0x189B JUMP JUMPDEST DUP1 ISZERO PUSH2 0xDB1 JUMPI DUP1 PUSH1 0x1F LT PUSH2 0xD86 JUMPI PUSH2 0x100 DUP1 DUP4 SLOAD DIV MUL DUP4 MSTORE SWAP2 PUSH1 0x20 ADD SWAP2 PUSH2 0xDB1 JUMP JUMPDEST DUP3 ADD SWAP2 SWAP1 PUSH1 0x0 MSTORE PUSH1 0x20 PUSH1 0x0 KECCAK256 SWAP1 JUMPDEST DUP2 SLOAD DUP2 MSTORE SWAP1 PUSH1 0x1 ADD SWAP1 PUSH1 0x20 ADD DUP1 DUP4 GT PUSH2 0xD94 JUMPI DUP3 SWAP1 SUB PUSH1 0x1F AND DUP3 ADD SWAP2 JUMPDEST POP POP POP POP POP DUP2 MSTORE PUSH1 0x20 ADD PUSH1 0x3 DUP3 ADD PUSH1 0x0 SWAP1 SLOAD SWAP1 PUSH2 0x100 EXP SWAP1 DIV PUSH20 0xFFFFFFFFFFFFFFFFFFFFFFFFFFFFFFFFFFFFFFFF AND PUSH20 0xFFFFFFFFFFFFFFFFFFFFFFFFFFFFFFFFFFFFFFFF AND PUSH20 0xFFFFFFFFFFFFFFFFFFFFFFFFFFFFFFFFFFFFFFFF AND DUP2 MSTORE PUSH1 0x20 ADD PUSH1 0x4 DUP3 ADD SLOAD DUP2 MSTORE PUSH1 0x20 ADD PUSH1 0x5 DUP3 ADD SLOAD DUP2 MSTORE PUSH1 0x20 ADD PUSH1 0x6 DUP3 ADD SLOAD DUP2 MSTORE PUSH1 0x20 ADD PUSH1 0x7 DUP3 ADD PUSH1 0x0 SWAP1 SLOAD SWAP1 PUSH2 0x100 EXP SWAP1 DIV PUSH1 0xFF AND PUSH1 0x2 DUP2 GT ISZERO PUSH2 0xE53 JUMPI PUSH2 0xE52 PUSH2 0x1413 JUMP JUMPDEST JUMPDEST PUSH1 0x2 DUP2 GT ISZERO PUSH2 0xE65 JUMPI PUSH2 0xE64 PUSH2 0x1413 JUMP JUMPDEST JUMPDEST DUP2 MSTORE POP POP SWAP1 POP SWAP3 SWAP2 POP POP JUMP JUMPDEST CALLER PUSH20 0xFFFFFFFFFFFFFFFFFFFFFFFFFFFFFFFFFFFFFFFF AND PUSH1 0x2 PUSH1 0x0 CALLER PUSH20 0xFFFFFFFFFFFFFFFFFFFFFFFFFFFFFFFFFFFFFFFF AND PUSH20 0xFFFFFFFFFFFFFFFFFFFFFFFFFFFFFFFFFFFFFFFF AND DUP2 MSTORE PUSH1 0x20 ADD SWAP1 DUP2 MSTORE PUSH1 0x20 ADD PUSH1 0x0 KECCAK256 PUSH1 0x1 ADD PUSH1 0x0 SWAP1 SLOAD SWAP1 PUSH2 0x100 EXP SWAP1 DIV PUSH20 0xFFFFFFFFFFFFFFFFFFFFFFFFFFFFFFFFFFFFFFFF AND PUSH20 0xFFFFFFFFFFFFFFFFFFFFFFFFFFFFFFFFFFFFFFFF AND EQ PUSH2 0xF0B JUMPI PUSH1 0x0 DUP1 REVERT JUMPDEST PUSH1 0x40 MLOAD DUP1 PUSH2 0x100 ADD PUSH1 0x40 MSTORE DUP1 PUSH1 0x1 PUSH1 0x0 DUP2 SLOAD PUSH2 0xF26 SWAP1 PUSH2 0x18FB JUMP JUMPDEST SWAP2 SWAP1 POP DUP2 SWAP1 SSTORE DUP2 MSTORE PUSH1 0x20 ADD DUP6 DUP6 DUP1 DUP1 PUSH1 0x1F ADD PUSH1 0x20 DUP1 SWAP2 DIV MUL PUSH1 0x20 ADD PUSH1 0x40 MLOAD SWAP1 DUP2 ADD PUSH1 0x40 MSTORE DUP1 SWAP4 SWAP3 SWAP2 SWAP1 DUP2 DUP2 MSTORE PUSH1 0x20 ADD DUP4 DUP4 DUP1 DUP3 DUP5 CALLDATACOPY PUSH1 0x0 DUP2 DUP5 ADD MSTORE PUSH1 0x1F NOT PUSH1 0x1F DUP3 ADD AND SWAP1 POP DUP1 DUP4 ADD SWAP3 POP POP POP POP POP POP POP DUP2 MSTORE PUSH1 0x20 ADD DUP4 DUP4 DUP1 DUP1 PUSH1 0x1F ADD PUSH1 0x20 DUP1 SWAP2 DIV MUL PUSH1 0x20 ADD PUSH1 0x40 MLOAD SWAP1 DUP2 ADD PUSH1 0x40 MSTORE DUP1 SWAP4 SWAP3 SWAP2 SWAP1 DUP2 DUP2 MSTORE PUSH1 0x20 ADD DUP4 DUP4 DUP1 DUP3 DUP5 CALLDATACOPY PUSH1 0x0 DUP2 DUP5 ADD MSTORE PUSH1 0x1F NOT PUSH1 0x1F DUP3 ADD AND SWAP1 POP DUP1 DUP4 ADD SWAP3 POP POP POP POP POP POP POP DUP2 MSTORE PUSH1 0x20 ADD CALLER PUSH20 0xFFFFFFFFFFFFFFFFFFFFFFFFFFFFFFFFFFFFFFFF AND DUP2 MSTORE PUSH1 0x20 ADD TIMESTAMP DUP2 MSTORE PUSH1 0x20 ADD PUSH1 0x0 DUP2 MSTORE PUSH1 0x20 ADD PUSH1 0x0 DUP2 MSTORE PUSH1 0x20 ADD PUSH1 0x0 PUSH1 0x2 DUP2 GT ISZERO PUSH2 0x1009 JUMPI PUSH2 0x1008 PUSH2 0x1413 JUMP JUMPDEST JUMPDEST DUP2 MSTORE POP PUSH1 0x0 DUP6 DUP6 PUSH1 0x40 MLOAD PUSH2 0x101E SWAP3 SWAP2 SWAP1 PUSH2 0x1CBC JUMP JUMPDEST SWAP1 DUP2 MSTORE PUSH1 0x20 ADD PUSH1 0x40 MLOAD DUP1 SWAP2 SUB SWAP1 KECCAK256 PUSH1 0x0 DUP3 ADD MLOAD DUP2 PUSH1 0x0 ADD SSTORE PUSH1 0x20 DUP3 ADD MLOAD DUP2 PUSH1 0x1 ADD SWAP1 DUP2 PUSH2 0x104B SWAP2 SWAP1 PUSH2 0x1AEF JUMP JUMPDEST POP PUSH1 0x40 DUP3 ADD MLOAD DUP2 PUSH1 0x2 ADD SWAP1 DUP2 PUSH2 0x1061 SWAP2 SWAP1 PUSH2 0x1AEF JUMP JUMPDEST POP PUSH1 0x60 DUP3 ADD MLOAD DUP2 PUSH1 0x3 ADD PUSH1 0x0 PUSH2 0x100 EXP DUP2 SLOAD DUP2 PUSH20 0xFFFFFFFFFFFFFFFFFFFFFFFFFFFFFFFFFFFFFFFF MUL NOT AND SWAP1 DUP4 PUSH20 0xFFFFFFFFFFFFFFFFFFFFFFFFFFFFFFFFFFFFFFFF AND MUL OR SWAP1 SSTORE POP PUSH1 0x80 DUP3 ADD MLOAD DUP2 PUSH1 0x4 ADD SSTORE PUSH1 0xA0 DUP3 ADD MLOAD DUP2 PUSH1 0x5 ADD SSTORE PUSH1 0xC0 DUP3 ADD MLOAD DUP2 PUSH1 0x6 ADD SSTORE PUSH1 0xE0 DUP3 ADD MLOAD DUP2 PUSH1 0x7 ADD PUSH1 0x0 PUSH2 0x100 EXP DUP2 SLOAD DUP2 PUSH1 0xFF MUL NOT AND SWAP1 DUP4 PUSH1 0x2 DUP2 GT ISZERO PUSH2 0x10F2 JUMPI PUSH2 0x10F1 PUSH2 0x1413 JUMP JUMPDEST JUMPDEST MUL OR SWAP1 SSTORE POP SWAP1 POP POP POP POP POP POP JUMP JUMPDEST PUSH1 0x40 MLOAD DUP1 PUSH2 0x100 ADD PUSH1 0x40 MSTORE DUP1 PUSH1 0x0 DUP2 MSTORE PUSH1 0x20 ADD PUSH1 0x60 DUP2 MSTORE PUSH1 0x20 ADD PUSH1 0x60 DUP2 MSTORE PUSH1 0x20 ADD PUSH1 0x0 PUSH20 0xFFFFFFFFFFFFFFFFFFFFFFFFFFFFFFFFFFFFFFFF AND DUP2 MSTORE PUSH1 0x20 ADD PUSH1 0x0 DUP2 MSTORE PUSH1 0x20 ADD PUSH1 0x0 DUP2 MSTORE PUSH1 0x20 ADD PUSH1 0x0 DUP2 MSTORE PUSH1 0x20 ADD PUSH1 0x0 PUSH1 0x2 DUP2 GT ISZERO PUSH2 0x1167 JUMPI PUSH2 0x1166 PUSH2 0x1413 JUMP JUMPDEST JUMPDEST DUP2 MSTORE POP SWAP1 JUMP JUMPDEST PUSH1 0x0 DUP2 SWAP1 POP SWAP2 SWAP1 POP JUMP JUMPDEST PUSH2 0x1180 DUP2 PUSH2 0x116D JUMP JUMPDEST DUP3 MSTORE POP POP JUMP JUMPDEST PUSH1 0x0 PUSH1 0x20 DUP3 ADD SWAP1 POP PUSH2 0x119B PUSH1 0x0 DUP4 ADD DUP5 PUSH2 0x1177 JUMP JUMPDEST SWAP3 SWAP2 POP POP JUMP JUMPDEST PUSH1 0x0 PUSH1 0x40 MLOAD SWAP1 POP SWAP1 JUMP JUMPDEST PUSH1 0x0 DUP1 REVERT JUMPDEST PUSH1 0x0 DUP1 REVERT JUMPDEST PUSH1 0x0 DUP1 REVERT JUMPDEST PUSH1 0x0 DUP1 REVERT JUMPDEST PUSH1 0x0 PUSH1 0x1F NOT PUSH1 0x1F DUP4 ADD AND SWAP1 POP SWAP2 SWAP1 POP JUMP JUMPDEST PUSH32 0x4E487B7100000000000000000000000000000000000000000000000000000000 PUSH1 0x0 MSTORE PUSH1 0x41 PUSH1 0x4 MSTORE PUSH1 0x24 PUSH1 0x0 REVERT JUMPDEST PUSH2 0x1208 DUP3 PUSH2 0x11BF JUMP JUMPDEST DUP2 ADD DUP2 DUP2 LT PUSH8 0xFFFFFFFFFFFFFFFF DUP3 GT OR ISZERO PUSH2 0x1227 JUMPI PUSH2 0x1226 PUSH2 0x11D0 JUMP JUMPDEST JUMPDEST DUP1 PUSH1 0x40 MSTORE POP POP POP JUMP JUMPDEST PUSH1 0x0 PUSH2 0x123A PUSH2 0x11A1 JUMP JUMPDEST SWAP1 POP PUSH2 0x1246 DUP3 DUP3 PUSH2 0x11FF JUMP JUMPDEST SWAP2 SWAP1 POP JUMP JUMPDEST PUSH1 0x0 PUSH8 0xFFFFFFFFFFFFFFFF DUP3 GT ISZERO PUSH2 0x1266 JUMPI PUSH2 0x1265 PUSH2 0x11D0 JUMP JUMPDEST JUMPDEST PUSH2 0x126F DUP3 PUSH2 0x11BF JUMP JUMPDEST SWAP1 POP PUSH1 0x20 DUP2 ADD SWAP1 POP SWAP2 SWAP1 POP JUMP JUMPDEST DUP3 DUP2 DUP4 CALLDATACOPY PUSH1 0x0 DUP4 DUP4 ADD MSTORE POP POP POP JUMP JUMPDEST PUSH1 0x0 PUSH2 0x129E PUSH2 0x1299 DUP5 PUSH2 0x124B JUMP JUMPDEST PUSH2 0x1230 JUMP JUMPDEST SWAP1 POP DUP3 DUP2 MSTORE PUSH1 0x20 DUP2 ADD DUP5 DUP5 DUP5 ADD GT ISZERO PUSH2 0x12BA JUMPI PUSH2 0x12B9 PUSH2 0x11BA JUMP JUMPDEST JUMPDEST PUSH2 0x12C5 DUP5 DUP3 DUP6 PUSH2 0x127C JUMP JUMPDEST POP SWAP4 SWAP3 POP POP POP JUMP JUMPDEST PUSH1 0x0 DUP3 PUSH1 0x1F DUP4 ADD SLT PUSH2 0x12E2 JUMPI PUSH2 0x12E1 PUSH2 0x11B5 JUMP JUMPDEST JUMPDEST DUP2 CALLDATALOAD PUSH2 0x12F2 DUP5 DUP3 PUSH1 0x20 DUP7 ADD PUSH2 0x128B JUMP JUMPDEST SWAP2 POP POP SWAP3 SWAP2 POP POP JUMP JUMPDEST PUSH1 0x0 PUSH1 0x20 DUP3 DUP5 SUB SLT ISZERO PUSH2 0x1311 JUMPI PUSH2 0x1310 PUSH2 0x11AB JUMP JUMPDEST JUMPDEST PUSH1 0x0 DUP3 ADD CALLDATALOAD PUSH8 0xFFFFFFFFFFFFFFFF DUP2 GT ISZERO PUSH2 0x132F JUMPI PUSH2 0x132E PUSH2 0x11B0 JUMP JUMPDEST JUMPDEST PUSH2 0x133B DUP5 DUP3 DUP6 ADD PUSH2 0x12CD JUMP JUMPDEST SWAP2 POP POP SWAP3 SWAP2 POP POP JUMP JUMPDEST PUSH2 0x134D DUP2 PUSH2 0x116D JUMP JUMPDEST DUP3 MSTORE POP POP JUMP JUMPDEST PUSH1 0x0 DUP2 MLOAD SWAP1 POP SWAP2 SWAP1 POP JUMP JUMPDEST PUSH1 0x0 DUP3 DUP3 MSTORE PUSH1 0x20 DUP3 ADD SWAP1 POP SWAP3 SWAP2 POP POP JUMP JUMPDEST PUSH1 0x0 JUMPDEST DUP4 DUP2 LT ISZERO PUSH2 0x138D JUMPI DUP1 DUP3 ADD MLOAD DUP2 DUP5 ADD MSTORE PUSH1 0x20 DUP2 ADD SWAP1 POP PUSH2 0x1372 JUMP JUMPDEST PUSH1 0x0 DUP5 DUP5 ADD MSTORE POP POP POP POP JUMP JUMPDEST PUSH1 0x0 PUSH2 0x13A4 DUP3 PUSH2 0x1353 JUMP JUMPDEST PUSH2 0x13AE DUP2 DUP6 PUSH2 0x135E JUMP JUMPDEST SWAP4 POP PUSH2 0x13BE DUP2 DUP6 PUSH1 0x20 DUP7 ADD PUSH2 0x136F JUMP JUMPDEST PUSH2 0x13C7 DUP2 PUSH2 0x11BF JUMP JUMPDEST DUP5 ADD SWAP2 POP POP SWAP3 SWAP2 POP POP JUMP JUMPDEST PUSH1 0x0 PUSH20 0xFFFFFFFFFFFFFFFFFFFFFFFFFFFFFFFFFFFFFFFF DUP3 AND SWAP1 POP SWAP2 SWAP1 POP JUMP JUMPDEST PUSH1 0x0 PUSH2 0x13FD DUP3 PUSH2 0x13D2 JUMP JUMPDEST SWAP1 POP SWAP2 SWAP1 POP JUMP JUMPDEST PUSH2 0x140D DUP2 PUSH2 0x13F2 JUMP JUMPDEST DUP3 MSTORE POP POP JUMP JUMPDEST PUSH32 0x4E487B7100000000000000000000000000000000000000000000000000000000 PUSH1 0x0 MSTORE PUSH1 0x21 PUSH1 0x4 MSTORE PUSH1 0x24 PUSH1 0x0 REVERT JUMPDEST PUSH1 0x3 DUP2 LT PUSH2 0x1453 JUMPI PUSH2 0x1452 PUSH2 0x1413 JUMP JUMPDEST JUMPDEST POP JUMP JUMPDEST PUSH1 0x0 DUP2 SWAP1 POP PUSH2 0x1464 DUP3 PUSH2 0x1442 JUMP JUMPDEST SWAP2 SWAP1 POP JUMP JUMPDEST PUSH1 0x0 PUSH2 0x1474 DUP3 PUSH2 0x1456 JUMP JUMPDEST SWAP1 POP SWAP2 SWAP1 POP JUMP JUMPDEST PUSH2 0x1484 DUP2 PUSH2 0x1469 JUMP JUMPDEST DUP3 MSTORE POP POP JUMP JUMPDEST PUSH1 0x0 PUSH2 0x100 DUP4 ADD PUSH1 0x0 DUP4 ADD MLOAD PUSH2 0x14A3 PUSH1 0x0 DUP7 ADD DUP3 PUSH2 0x1344 JUMP JUMPDEST POP PUSH1 0x20 DUP4 ADD MLOAD DUP5 DUP3 SUB PUSH1 0x20 DUP7 ADD MSTORE PUSH2 0x14BB DUP3 DUP3 PUSH2 0x1399 JUMP JUMPDEST SWAP2 POP POP PUSH1 0x40 DUP4 ADD MLOAD DUP5 DUP3 SUB PUSH1 0x40 DUP7 ADD MSTORE PUSH2 0x14D5 DUP3 DUP3 PUSH2 0x1399 JUMP JUMPDEST SWAP2 POP POP PUSH1 0x60 DUP4 ADD MLOAD PUSH2 0x14EA PUSH1 0x60 DUP7 ADD DUP3 PUSH2 0x1404 JUMP JUMPDEST POP PUSH1 0x80 DUP4 ADD MLOAD PUSH2 0x14FD PUSH1 0x80 DUP7 ADD DUP3 PUSH2 0x1344 JUMP JUMPDEST POP PUSH1 0xA0 DUP4 ADD MLOAD PUSH2 0x1510 PUSH1 0xA0 DUP7 ADD DUP3 PUSH2 0x1344 JUMP JUMPDEST POP PUSH1 0xC0 DUP4 ADD MLOAD PUSH2 0x1523 PUSH1 0xC0 DUP7 ADD DUP3 PUSH2 0x1344 JUMP JUMPDEST POP PUSH1 0xE0 DUP4 ADD MLOAD PUSH2 0x1536 PUSH1 0xE0 DUP7 ADD DUP3 PUSH2 0x147B JUMP JUMPDEST POP DUP1 SWAP2 POP POP SWAP3 SWAP2 POP POP JUMP JUMPDEST PUSH1 0x0 PUSH1 0x20 DUP3 ADD SWAP1 POP DUP2 DUP2 SUB PUSH1 0x0 DUP4 ADD MSTORE PUSH2 0x155B DUP2 DUP5 PUSH2 0x148A JUMP JUMPDEST SWAP1 POP SWAP3 SWAP2 POP POP JUMP JUMPDEST PUSH1 0x0 DUP2 ISZERO ISZERO SWAP1 POP SWAP2 SWAP1 POP JUMP JUMPDEST PUSH2 0x1578 DUP2 PUSH2 0x1563 JUMP JUMPDEST DUP2 EQ PUSH2 0x1583 JUMPI PUSH1 0x0 DUP1 REVERT JUMPDEST POP JUMP JUMPDEST PUSH1 0x0 DUP2 CALLDATALOAD SWAP1 POP PUSH2 0x1595 DUP2 PUSH2 0x156F JUMP JUMPDEST SWAP3 SWAP2 POP POP JUMP JUMPDEST PUSH1 0x0 DUP1 PUSH1 0x40 DUP4 DUP6 SUB SLT ISZERO PUSH2 0x15B2 JUMPI PUSH2 0x15B1 PUSH2 0x11AB JUMP JUMPDEST JUMPDEST PUSH1 0x0 DUP4 ADD CALLDATALOAD PUSH8 0xFFFFFFFFFFFFFFFF DUP2 GT ISZERO PUSH2 0x15D0 JUMPI PUSH2 0x15CF PUSH2 0x11B0 JUMP JUMPDEST JUMPDEST PUSH2 0x15DC DUP6 DUP3 DUP7 ADD PUSH2 0x12CD JUMP JUMPDEST SWAP3 POP POP PUSH1 0x20 PUSH2 0x15ED DUP6 DUP3 DUP7 ADD PUSH2 0x1586 JUMP JUMPDEST SWAP2 POP POP SWAP3 POP SWAP3 SWAP1 POP JUMP JUMPDEST PUSH1 0x0 DUP3 DUP3 MSTORE PUSH1 0x20 DUP3 ADD SWAP1 POP SWAP3 SWAP2 POP POP JUMP JUMPDEST PUSH1 0x0 PUSH2 0x1613 DUP3 PUSH2 0x1353 JUMP JUMPDEST PUSH2 0x161D DUP2 DUP6 PUSH2 0x15F7 JUMP JUMPDEST SWAP4 POP PUSH2 0x162D DUP2 DUP6 PUSH1 0x20 DUP7 ADD PUSH2 0x136F JUMP JUMPDEST PUSH2 0x1636 DUP2 PUSH2 0x11BF JUMP JUMPDEST DUP5 ADD SWAP2 POP POP SWAP3 SWAP2 POP POP JUMP JUMPDEST PUSH2 0x164A DUP2 PUSH2 0x13F2 JUMP JUMPDEST DUP3 MSTORE POP POP JUMP JUMPDEST PUSH2 0x1659 DUP2 PUSH2 0x1469 JUMP JUMPDEST DUP3 MSTORE POP POP JUMP JUMPDEST PUSH1 0x0 PUSH2 0x100 DUP3 ADD SWAP1 POP PUSH2 0x1675 PUSH1 0x0 DUP4 ADD DUP12 PUSH2 0x1177 JUMP JUMPDEST DUP2 DUP2 SUB PUSH1 0x20 DUP4 ADD MSTORE PUSH2 0x1687 DUP2 DUP11 PUSH2 0x1608 JUMP JUMPDEST SWAP1 POP DUP2 DUP2 SUB PUSH1 0x40 DUP4 ADD MSTORE PUSH2 0x169B DUP2 DUP10 PUSH2 0x1608 JUMP JUMPDEST SWAP1 POP PUSH2 0x16AA PUSH1 0x60 DUP4 ADD DUP9 PUSH2 0x1641 JUMP JUMPDEST PUSH2 0x16B7 PUSH1 0x80 DUP4 ADD DUP8 PUSH2 0x1177 JUMP JUMPDEST PUSH2 0x16C4 PUSH1 0xA0 DUP4 ADD DUP7 PUSH2 0x1177 JUMP JUMPDEST PUSH2 0x16D1 PUSH1 0xC0 DUP4 ADD DUP6 PUSH2 0x1177 JUMP JUMPDEST PUSH2 0x16DE PUSH1 0xE0 DUP4 ADD DUP5 PUSH2 0x1650 JUMP JUMPDEST SWAP10 SWAP9 POP POP POP POP POP POP POP POP POP JUMP JUMPDEST PUSH1 0x0 DUP1 REVERT JUMPDEST PUSH1 0x0 DUP1 REVERT JUMPDEST PUSH1 0x0 DUP1 DUP4 PUSH1 0x1F DUP5 ADD SLT PUSH2 0x170B JUMPI PUSH2 0x170A PUSH2 0x11B5 JUMP JUMPDEST JUMPDEST DUP3 CALLDATALOAD SWAP1 POP PUSH8 0xFFFFFFFFFFFFFFFF DUP2 GT ISZERO PUSH2 0x1728 JUMPI PUSH2 0x1727 PUSH2 0x16EB JUMP JUMPDEST JUMPDEST PUSH1 0x20 DUP4 ADD SWAP2 POP DUP4 PUSH1 0x1 DUP3 MUL DUP4 ADD GT ISZERO PUSH2 0x1744 JUMPI PUSH2 0x1743 PUSH2 0x16F0 JUMP JUMPDEST JUMPDEST SWAP3 POP SWAP3 SWAP1 POP JUMP JUMPDEST PUSH1 0x0 DUP1 PUSH1 0x20 DUP4 DUP6 SUB SLT ISZERO PUSH2 0x1762 JUMPI PUSH2 0x1761 PUSH2 0x11AB JUMP JUMPDEST JUMPDEST PUSH1 0x0 DUP4 ADD CALLDATALOAD PUSH8 0xFFFFFFFFFFFFFFFF DUP2 GT ISZERO PUSH2 0x1780 JUMPI PUSH2 0x177F PUSH2 0x11B0 JUMP JUMPDEST JUMPDEST PUSH2 0x178C DUP6 DUP3 DUP7 ADD PUSH2 0x16F5 JUMP JUMPDEST SWAP3 POP SWAP3 POP POP SWAP3 POP SWAP3 SWAP1 POP JUMP JUMPDEST PUSH1 0x0 DUP1 PUSH1 0x0 DUP1 PUSH1 0x40 DUP6 DUP8 SUB SLT ISZERO PUSH2 0x17B2 JUMPI PUSH2 0x17B1 PUSH2 0x11AB JUMP JUMPDEST JUMPDEST PUSH1 0x0 DUP6 ADD CALLDATALOAD PUSH8 0xFFFFFFFFFFFFFFFF DUP2 GT ISZERO PUSH2 0x17D0 JUMPI PUSH2 0x17CF PUSH2 0x11B0 JUMP JUMPDEST JUMPDEST PUSH2 0x17DC DUP8 DUP3 DUP9 ADD PUSH2 0x16F5 JUMP JUMPDEST SWAP5 POP SWAP5 POP POP PUSH1 0x20 DUP6 ADD CALLDATALOAD PUSH8 0xFFFFFFFFFFFFFFFF DUP2 GT ISZERO PUSH2 0x17FF JUMPI PUSH2 0x17FE PUSH2 0x11B0 JUMP JUMPDEST JUMPDEST PUSH2 0x180B DUP8 DUP3 DUP9 ADD PUSH2 0x16F5 JUMP JUMPDEST SWAP3 POP SWAP3 POP POP SWAP3 SWAP6 SWAP2 SWAP5 POP SWAP3 POP JUMP JUMPDEST PUSH1 0x0 DUP2 SWAP1 POP SWAP3 SWAP2 POP POP JUMP JUMPDEST PUSH1 0x0 PUSH2 0x182F DUP3 PUSH2 0x1353 JUMP JUMPDEST PUSH2 0x1839 DUP2 DUP6 PUSH2 0x1819 JUMP JUMPDEST SWAP4 POP PUSH2 0x1849 DUP2 DUP6 PUSH1 0x20 DUP7 ADD PUSH2 0x136F JUMP JUMPDEST DUP1 DUP5 ADD SWAP2 POP POP SWAP3 SWAP2 POP POP JUMP JUMPDEST PUSH1 0x0 PUSH2 0x1861 DUP3 DUP5 PUSH2 0x1824 JUMP JUMPDEST SWAP2 POP DUP2 SWAP1 POP SWAP3 SWAP2 POP POP JUMP JUMPDEST PUSH32 0x4E487B7100000000000000000000000000000000000000000000000000000000 PUSH1 0x0 MSTORE PUSH1 0x22 PUSH1 0x4 MSTORE PUSH1 0x24 PUSH1 0x0 REVERT JUMPDEST PUSH1 0x0 PUSH1 0x2 DUP3 DIV SWAP1 POP PUSH1 0x1 DUP3 AND DUP1 PUSH2 0x18B3 JUMPI PUSH1 0x7F DUP3 AND SWAP2 POP JUMPDEST PUSH1 0x20 DUP3 LT DUP2 SUB PUSH2 0x18C6 JUMPI PUSH2 0x18C5 PUSH2 0x186C JUMP JUMPDEST JUMPDEST POP SWAP2 SWAP1 POP JUMP JUMPDEST PUSH32 0x4E487B7100000000000000000000000000000000000000000000000000000000 PUSH1 0x0 MSTORE PUSH1 0x11 PUSH1 0x4 MSTORE PUSH1 0x24 PUSH1 0x0 REVERT JUMPDEST PUSH1 0x0 PUSH2 0x1906 DUP3 PUSH2 0x116D JUMP JUMPDEST SWAP2 POP PUSH32 0xFFFFFFFFFFFFFFFFFFFFFFFFFFFFFFFFFFFFFFFFFFFFFFFFFFFFFFFFFFFFFFFF DUP3 SUB PUSH2 0x1938 JUMPI PUSH2 0x1937 PUSH2 0x18CC JUMP JUMPDEST JUMPDEST PUSH1 0x1 DUP3 ADD SWAP1 POP SWAP2 SWAP1 POP JUMP JUMPDEST PUSH1 0x0 DUP2 SWAP1 POP DUP2 PUSH1 0x0 MSTORE PUSH1 0x20 PUSH1 0x0 KECCAK256 SWAP1 POP SWAP2 SWAP1 POP JUMP JUMPDEST PUSH1 0x0 PUSH1 0x20 PUSH1 0x1F DUP4 ADD DIV SWAP1 POP SWAP2 SWAP1 POP JUMP JUMPDEST PUSH1 0x0 DUP3 DUP3 SHL SWAP1 POP SWAP3 SWAP2 POP POP JUMP JUMPDEST PUSH1 0x0 PUSH1 0x8 DUP4 MUL PUSH2 0x19A5 PUSH32 0xFFFFFFFFFFFFFFFFFFFFFFFFFFFFFFFFFFFFFFFFFFFFFFFFFFFFFFFFFFFFFFFF DUP3 PUSH2 0x1968 JUMP JUMPDEST PUSH2 0x19AF DUP7 DUP4 PUSH2 0x1968 JUMP JUMPDEST SWAP6 POP DUP1 NOT DUP5 AND SWAP4 POP DUP1 DUP7 AND DUP5 OR SWAP3 POP POP POP SWAP4 SWAP3 POP POP POP JUMP JUMPDEST PUSH1 0x0 DUP2 SWAP1 POP SWAP2 SWAP1 POP JUMP JUMPDEST PUSH1 0x0 PUSH2 0x19EC PUSH2 0x19E7 PUSH2 0x19E2 DUP5 PUSH2 0x116D JUMP JUMPDEST PUSH2 0x19C7 JUMP JUMPDEST PUSH2 0x116D JUMP JUMPDEST SWAP1 POP SWAP2 SWAP1 POP JUMP JUMPDEST PUSH1 0x0 DUP2 SWAP1 POP SWAP2 SWAP1 POP JUMP JUMPDEST PUSH2 0x1A06 DUP4 PUSH2 0x19D1 JUMP JUMPDEST PUSH2 0x1A1A PUSH2 0x1A12 DUP3 PUSH2 0x19F3 JUMP JUMPDEST DUP5 DUP5 SLOAD PUSH2 0x1975 JUMP JUMPDEST DUP3 SSTORE POP POP POP POP JUMP JUMPDEST PUSH1 0x0 SWAP1 JUMP JUMPDEST PUSH2 0x1A2F PUSH2 0x1A22 JUMP JUMPDEST PUSH2 0x1A3A DUP2 DUP5 DUP5 PUSH2 0x19FD JUMP JUMPDEST POP POP POP JUMP JUMPDEST JUMPDEST DUP2 DUP2 LT ISZERO PUSH2 0x1A5E JUMPI PUSH2 0x1A53 PUSH1 0x0 DUP3 PUSH2 0x1A27 JUMP JUMPDEST PUSH1 0x1 DUP2 ADD SWAP1 POP PUSH2 0x1A40 JUMP JUMPDEST POP POP JUMP JUMPDEST PUSH1 0x1F DUP3 GT ISZERO PUSH2 0x1AA3 JUMPI PUSH2 0x1A74 DUP2 PUSH2 0x1943 JUMP JUMPDEST PUSH2 0x1A7D DUP5 PUSH2 0x1958 JUMP JUMPDEST DUP2 ADD PUSH1 0x20 DUP6 LT ISZERO PUSH2 0x1A8C JUMPI DUP2 SWAP1 POP JUMPDEST PUSH2 0x1AA0 PUSH2 0x1A98 DUP6 PUSH2 0x1958 JUMP JUMPDEST DUP4 ADD DUP3 PUSH2 0x1A3F JUMP JUMPDEST POP POP JUMPDEST POP POP POP JUMP JUMPDEST PUSH1 0x0 DUP3 DUP3 SHR SWAP1 POP SWAP3 SWAP2 POP POP JUMP JUMPDEST PUSH1 0x0 PUSH2 0x1AC6 PUSH1 0x0 NOT DUP5 PUSH1 0x8 MUL PUSH2 0x1AA8 JUMP JUMPDEST NOT DUP1 DUP4 AND SWAP2 POP POP SWAP3 SWAP2 POP POP JUMP JUMPDEST PUSH1 0x0 PUSH2 0x1ADF DUP4 DUP4 PUSH2 0x1AB5 JUMP JUMPDEST SWAP2 POP DUP3 PUSH1 0x2 MUL DUP3 OR SWAP1 POP SWAP3 SWAP2 POP POP JUMP JUMPDEST PUSH2 0x1AF8 DUP3 PUSH2 0x1353 JUMP JUMPDEST PUSH8 0xFFFFFFFFFFFFFFFF DUP2 GT ISZERO PUSH2 0x1B11 JUMPI PUSH2 0x1B10 PUSH2 0x11D0 JUMP JUMPDEST JUMPDEST PUSH2 0x1B1B DUP3 SLOAD PUSH2 0x189B JUMP JUMPDEST PUSH2 0x1B26 DUP3 DUP3 DUP6 PUSH2 0x1A62 JUMP JUMPDEST PUSH1 0x0 PUSH1 0x20 SWAP1 POP PUSH1 0x1F DUP4 GT PUSH1 0x1 DUP2 EQ PUSH2 0x1B59 JUMPI PUSH1 0x0 DUP5 ISZERO PUSH2 0x1B47 JUMPI DUP3 DUP8 ADD MLOAD SWAP1 POP JUMPDEST PUSH2 0x1B51 DUP6 DUP3 PUSH2 0x1AD3 JUMP JUMPDEST DUP7 SSTORE POP PUSH2 0x1BB9 JUMP JUMPDEST PUSH1 0x1F NOT DUP5 AND PUSH2 0x1B67 DUP7 PUSH2 0x1943 JUMP JUMPDEST PUSH1 0x0 JUMPDEST DUP3 DUP2 LT ISZERO PUSH2 0x1B8F JUMPI DUP5 DUP10 ADD MLOAD DUP3 SSTORE PUSH1 0x1 DUP3 ADD SWAP2 POP PUSH1 0x20 DUP6 ADD SWAP5 POP PUSH1 0x20 DUP2 ADD SWAP1 POP PUSH2 0x1B6A JUMP JUMPDEST DUP7 DUP4 LT ISZERO PUSH2 0x1BAC JUMPI DUP5 DUP10 ADD MLOAD PUSH2 0x1BA8 PUSH1 0x1F DUP10 AND DUP3 PUSH2 0x1AB5 JUMP JUMPDEST DUP4 SSTORE POP JUMPDEST PUSH1 0x1 PUSH1 0x2 DUP9 MUL ADD DUP9 SSTORE POP POP POP JUMPDEST POP POP POP POP POP POP JUMP JUMPDEST PUSH1 0x0 PUSH2 0x1BCC DUP3 PUSH2 0x116D JUMP JUMPDEST SWAP2 POP PUSH2 0x1BD7 DUP4 PUSH2 0x116D JUMP JUMPDEST SWAP3 POP DUP3 DUP3 ADD SWAP1 POP DUP1 DUP3 GT ISZERO PUSH2 0x1BEF JUMPI PUSH2 0x1BEE PUSH2 0x18CC JUMP JUMPDEST JUMPDEST SWAP3 SWAP2 POP POP JUMP JUMPDEST PUSH1 0x0 PUSH2 0x1C00 DUP3 PUSH2 0x116D JUMP JUMPDEST SWAP2 POP PUSH2 0x1C0B DUP4 PUSH2 0x116D JUMP JUMPDEST SWAP3 POP DUP3 DUP3 MUL PUSH2 0x1C19 DUP2 PUSH2 0x116D JUMP JUMPDEST SWAP2 POP DUP3 DUP3 DIV DUP5 EQ DUP4 ISZERO OR PUSH2 0x1C30 JUMPI PUSH2 0x1C2F PUSH2 0x18CC JUMP JUMPDEST JUMPDEST POP SWAP3 SWAP2 POP POP JUMP JUMPDEST PUSH32 0x4E487B7100000000000000000000000000000000000000000000000000000000 PUSH1 0x0 MSTORE PUSH1 0x12 PUSH1 0x4 MSTORE PUSH1 0x24 PUSH1 0x0 REVERT JUMPDEST PUSH1 0x0 PUSH2 0x1C71 DUP3 PUSH2 0x116D JUMP JUMPDEST SWAP2 POP PUSH2 0x1C7C DUP4 PUSH2 0x116D JUMP JUMPDEST SWAP3 POP DUP3 PUSH2 0x1C8C JUMPI PUSH2 0x1C8B PUSH2 0x1C37 JUMP JUMPDEST JUMPDEST DUP3 DUP3 DIV SWAP1 POP SWAP3 SWAP2 POP POP JUMP JUMPDEST PUSH1 0x0 PUSH2 0x1CA3 DUP4 DUP6 PUSH2 0x1819 JUMP JUMPDEST SWAP4 POP PUSH2 0x1CB0 DUP4 DUP6 DUP5 PUSH2 0x127C JUMP JUMPDEST DUP3 DUP5 ADD SWAP1 POP SWAP4 SWAP3 POP POP POP JUMP JUMPDEST PUSH1 0x0 PUSH2 0x1CC9 DUP3 DUP5 DUP7 PUSH2 0x1C97 JUMP JUMPDEST SWAP2 POP DUP2 SWAP1 POP SWAP4 SWAP3 POP POP POP JUMP INVALID LOG2 PUSH5 0x6970667358 0x22 SLT KECCAK256 0xE0 EQ COINBASE PUSH24 0x99EBF28378FF2AB503419F15B00E0FE7987D46C01197C145 0xA9 0xEE 0xBA DUP15 PUSH5 0x736F6C6343 STOP ADDMOD SLT STOP CALLER "
				},
				"gasEstimates": {
					"creation": {
						"codeDepositCost": "1487000",
						"executionCost": "1555",
						"totalCost": "1488555"
					},
					"external": {
						"count()": "2430",
						"finishPoll(string)": "infinite",
						"getPoll(string)": "infinite",
						"polls(string)": "infinite",
						"pushUser(string)": "infinite",
						"searchSuggested(string)": "infinite",
						"suggest(string,string)": "infinite",
						"vote(string,bool)": "infinite"
					}
				},
				"methodIdentifiers": {
					"count()": "06661abd",
					"finishPoll(string)": "9f11aa65",
					"getPoll(string)": "10a688e3",
					"polls(string)": "8058316a",
					"pushUser(string)": "690e87c8",
					"searchSuggested(string)": "cb04bf75",
					"suggest(string,string)": "f732ac77",
					"vote(string,bool)": "27d3410c"
				}
			},
			"storageLayout": {
				"storage": [
					{
						"astId": 24,
						"contract": "contracts/0518/Quiz-2.sol:Q6",
						"label": "polls",
						"offset": 0,
						"slot": "0",
						"type": "t_mapping(t_string_memory_ptr,t_struct(poll)19_storage)"
					},
					{
						"astId": 26,
						"contract": "contracts/0518/Quiz-2.sol:Q6",
						"label": "count",
						"offset": 0,
						"slot": "1",
						"type": "t_uint256"
					},
					{
						"astId": 52,
						"contract": "contracts/0518/Quiz-2.sol:Q6",
						"label": "users",
						"offset": 0,
						"slot": "2",
						"type": "t_mapping(t_address,t_struct(user)47_storage)"
					}
				],
				"types": {
					"t_address": {
						"encoding": "inplace",
						"label": "address",
						"numberOfBytes": "20"
					},
					"t_array(t_string_storage)dyn_storage": {
						"base": "t_string_storage",
						"encoding": "dynamic_array",
						"label": "string[]",
						"numberOfBytes": "32"
					},
					"t_enum(pollStatus)34": {
						"encoding": "inplace",
						"label": "enum Q6.pollStatus",
						"numberOfBytes": "1"
					},
					"t_enum(votingStatus)30": {
						"encoding": "inplace",
						"label": "enum Q6.votingStatus",
						"numberOfBytes": "1"
					},
					"t_mapping(t_address,t_struct(user)47_storage)": {
						"encoding": "mapping",
						"key": "t_address",
						"label": "mapping(address => struct Q6.user)",
						"numberOfBytes": "32",
						"value": "t_struct(user)47_storage"
					},
					"t_mapping(t_string_memory_ptr,t_enum(votingStatus)30)": {
						"encoding": "mapping",
						"key": "t_string_memory_ptr",
						"label": "mapping(string => enum Q6.votingStatus)",
						"numberOfBytes": "32",
						"value": "t_enum(votingStatus)30"
					},
					"t_mapping(t_string_memory_ptr,t_struct(poll)19_storage)": {
						"encoding": "mapping",
						"key": "t_string_memory_ptr",
						"label": "mapping(string => struct Q6.poll)",
						"numberOfBytes": "32",
						"value": "t_struct(poll)19_storage"
					},
					"t_string_memory_ptr": {
						"encoding": "bytes",
						"label": "string",
						"numberOfBytes": "32"
					},
					"t_string_storage": {
						"encoding": "bytes",
						"label": "string",
						"numberOfBytes": "32"
					},
					"t_struct(poll)19_storage": {
						"encoding": "inplace",
						"label": "struct Q6.poll",
						"members": [
							{
								"astId": 3,
								"contract": "contracts/0518/Quiz-2.sol:Q6",
								"label": "number",
								"offset": 0,
								"slot": "0",
								"type": "t_uint256"
							},
							{
								"astId": 5,
								"contract": "contracts/0518/Quiz-2.sol:Q6",
								"label": "title",
								"offset": 0,
								"slot": "1",
								"type": "t_string_storage"
							},
							{
								"astId": 7,
								"contract": "contracts/0518/Quiz-2.sol:Q6",
								"label": "context",
								"offset": 0,
								"slot": "2",
								"type": "t_string_storage"
							},
							{
								"astId": 9,
								"contract": "contracts/0518/Quiz-2.sol:Q6",
								"label": "by",
								"offset": 0,
								"slot": "3",
								"type": "t_address"
							},
							{
								"astId": 11,
								"contract": "contracts/0518/Quiz-2.sol:Q6",
								"label": "time",
								"offset": 0,
								"slot": "4",
								"type": "t_uint256"
							},
							{
								"astId": 13,
								"contract": "contracts/0518/Quiz-2.sol:Q6",
								"label": "pros",
								"offset": 0,
								"slot": "5",
								"type": "t_uint256"
							},
							{
								"astId": 15,
								"contract": "contracts/0518/Quiz-2.sol:Q6",
								"label": "cons",
								"offset": 0,
								"slot": "6",
								"type": "t_uint256"
							},
							{
								"astId": 18,
								"contract": "contracts/0518/Quiz-2.sol:Q6",
								"label": "status",
								"offset": 0,
								"slot": "7",
								"type": "t_enum(pollStatus)34"
							}
						],
						"numberOfBytes": "256"
					},
					"t_struct(user)47_storage": {
						"encoding": "inplace",
						"label": "struct Q6.user",
						"members": [
							{
								"astId": 36,
								"contract": "contracts/0518/Quiz-2.sol:Q6",
								"label": "name",
								"offset": 0,
								"slot": "0",
								"type": "t_string_storage"
							},
							{
								"astId": 38,
								"contract": "contracts/0518/Quiz-2.sol:Q6",
								"label": "addr",
								"offset": 0,
								"slot": "1",
								"type": "t_address"
							},
							{
								"astId": 41,
								"contract": "contracts/0518/Quiz-2.sol:Q6",
								"label": "suggested",
								"offset": 0,
								"slot": "2",
								"type": "t_array(t_string_storage)dyn_storage"
							},
							{
								"astId": 46,
								"contract": "contracts/0518/Quiz-2.sol:Q6",
								"label": "voted",
								"offset": 0,
								"slot": "3",
								"type": "t_mapping(t_string_memory_ptr,t_enum(votingStatus)30)"
							}
						],
						"numberOfBytes": "128"
					},
					"t_uint256": {
						"encoding": "inplace",
						"label": "uint256",
						"numberOfBytes": "32"
					}
				}
			},
			"userdoc": {
				"kind": "user",
				"methods": {},
				"version": 1
			}
		}
	}
}