{
	"contracts/0518/Quiz-2.sol": {
		"TIME": {
			"abi": [
				{
					"inputs": [],
					"name": "currentBlockNumber",
					"outputs": [
						{
							"internalType": "uint256",
							"name": "",
							"type": "uint256"
						}
					],
					"stateMutability": "view",
					"type": "function"
				},
				{
					"inputs": [],
					"name": "currentTime",
					"outputs": [
						{
							"internalType": "uint256",
							"name": "",
							"type": "uint256"
						}
					],
					"stateMutability": "view",
					"type": "function"
				},
				{
					"inputs": [],
					"name": "currentTime2",
					"outputs": [
						{
							"internalType": "uint256",
							"name": "",
							"type": "uint256"
						}
					],
					"stateMutability": "view",
					"type": "function"
				}
			],
			"devdoc": {
				"kind": "dev",
				"methods": {},
				"version": 1
			},
			"evm": {
				"assembly": "    /* \"contracts/0518/Quiz-2.sol\":4790:5056  contract TIME {... */\n  mstore(0x40, 0x80)\n    /* \"contracts/0518/Quiz-2.sol\":4837:4852  block.timestamp */\n  timestamp\n    /* \"contracts/0518/Quiz-2.sol\":4811:4852  uint public currentTime = block.timestamp */\n  0x00\n  sstore\n    /* \"contracts/0518/Quiz-2.sol\":4790:5056  contract TIME {... */\n  callvalue\n  dup1\n  iszero\n  tag_1\n  jumpi\n  0x00\n  dup1\n  revert\ntag_1:\n  pop\n  dataSize(sub_0)\n  dup1\n  dataOffset(sub_0)\n  0x00\n  codecopy\n  0x00\n  return\nstop\n\nsub_0: assembly {\n        /* \"contracts/0518/Quiz-2.sol\":4790:5056  contract TIME {... */\n      mstore(0x40, 0x80)\n      callvalue\n      dup1\n      iszero\n      tag_1\n      jumpi\n      0x00\n      dup1\n      revert\n    tag_1:\n      pop\n      jumpi(tag_2, lt(calldatasize, 0x04))\n      shr(0xe0, calldataload(0x00))\n      dup1\n      0x378ec23b\n      eq\n      tag_3\n      jumpi\n      dup1\n      0x51beded3\n      eq\n      tag_4\n      jumpi\n      dup1\n      0xd18e81b3\n      eq\n      tag_5\n      jumpi\n    tag_2:\n      0x00\n      dup1\n      revert\n        /* \"contracts/0518/Quiz-2.sol\":4959:5053  function currentBlockNumber() public view returns(uint) {... */\n    tag_3:\n      tag_6\n      tag_7\n      jump\t// in\n    tag_6:\n      mload(0x40)\n      tag_8\n      swap2\n      swap1\n      tag_9\n      jump\t// in\n    tag_8:\n      mload(0x40)\n      dup1\n      swap2\n      sub\n      swap1\n      return\n        /* \"contracts/0518/Quiz-2.sol\":4859:4951  function  currentTime2() public view returns(uint) {... */\n    tag_4:\n      tag_10\n      tag_11\n      jump\t// in\n    tag_10:\n      mload(0x40)\n      tag_12\n      swap2\n      swap1\n      tag_9\n      jump\t// in\n    tag_12:\n      mload(0x40)\n      dup1\n      swap2\n      sub\n      swap1\n      return\n        /* \"contracts/0518/Quiz-2.sol\":4811:4852  uint public currentTime = block.timestamp */\n    tag_5:\n      tag_13\n      tag_14\n      jump\t// in\n    tag_13:\n      mload(0x40)\n      tag_15\n      swap2\n      swap1\n      tag_9\n      jump\t// in\n    tag_15:\n      mload(0x40)\n      dup1\n      swap2\n      sub\n      swap1\n      return\n        /* \"contracts/0518/Quiz-2.sol\":4959:5053  function currentBlockNumber() public view returns(uint) {... */\n    tag_7:\n        /* \"contracts/0518/Quiz-2.sol\":5009:5013  uint */\n      0x00\n        /* \"contracts/0518/Quiz-2.sol\":5033:5045  block.number */\n      number\n        /* \"contracts/0518/Quiz-2.sol\":5026:5045  return block.number */\n      swap1\n      pop\n        /* \"contracts/0518/Quiz-2.sol\":4959:5053  function currentBlockNumber() public view returns(uint) {... */\n      swap1\n      jump\t// out\n        /* \"contracts/0518/Quiz-2.sol\":4859:4951  function  currentTime2() public view returns(uint) {... */\n    tag_11:\n        /* \"contracts/0518/Quiz-2.sol\":4904:4908  uint */\n      0x00\n        /* \"contracts/0518/Quiz-2.sol\":4928:4943  block.timestamp */\n      timestamp\n        /* \"contracts/0518/Quiz-2.sol\":4921:4943  return block.timestamp */\n      swap1\n      pop\n        /* \"contracts/0518/Quiz-2.sol\":4859:4951  function  currentTime2() public view returns(uint) {... */\n      swap1\n      jump\t// out\n        /* \"contracts/0518/Quiz-2.sol\":4811:4852  uint public currentTime = block.timestamp */\n    tag_14:\n      sload(0x00)\n      dup2\n      jump\t// out\n        /* \"#utility.yul\":7:84   */\n    tag_18:\n        /* \"#utility.yul\":44:51   */\n      0x00\n        /* \"#utility.yul\":73:78   */\n      dup2\n        /* \"#utility.yul\":62:78   */\n      swap1\n      pop\n        /* \"#utility.yul\":7:84   */\n      swap2\n      swap1\n      pop\n      jump\t// out\n        /* \"#utility.yul\":90:208   */\n    tag_19:\n        /* \"#utility.yul\":177:201   */\n      tag_23\n        /* \"#utility.yul\":195:200   */\n      dup2\n        /* \"#utility.yul\":177:201   */\n      tag_18\n      jump\t// in\n    tag_23:\n        /* \"#utility.yul\":172:175   */\n      dup3\n        /* \"#utility.yul\":165:202   */\n      mstore\n        /* \"#utility.yul\":90:208   */\n      pop\n      pop\n      jump\t// out\n        /* \"#utility.yul\":214:436   */\n    tag_9:\n        /* \"#utility.yul\":307:311   */\n      0x00\n        /* \"#utility.yul\":345:347   */\n      0x20\n        /* \"#utility.yul\":334:343   */\n      dup3\n        /* \"#utility.yul\":330:348   */\n      add\n        /* \"#utility.yul\":322:348   */\n      swap1\n      pop\n        /* \"#utility.yul\":358:429   */\n      tag_25\n        /* \"#utility.yul\":426:427   */\n      0x00\n        /* \"#utility.yul\":415:424   */\n      dup4\n        /* \"#utility.yul\":411:428   */\n      add\n        /* \"#utility.yul\":402:408   */\n      dup5\n        /* \"#utility.yul\":358:429   */\n      tag_19\n      jump\t// in\n    tag_25:\n        /* \"#utility.yul\":214:436   */\n      swap3\n      swap2\n      pop\n      pop\n      jump\t// out\n\n    auxdata: 0xa2646970667358221220e7b9097dc833a4b6ab61fc6023366d9af69e81e3d375e5f2c125d2134be67da764736f6c63430008120033\n}\n",
				"bytecode": {
					"linkReferences": {},
					"object": "60806040524260005534801561001457600080fd5b5061010b806100246000396000f3fe6080604052348015600f57600080fd5b5060043610603c5760003560e01c8063378ec23b14604157806351beded314605b578063d18e81b3146075575b600080fd5b6047608f565b6040516052919060bc565b60405180910390f35b60616097565b604051606c919060bc565b60405180910390f35b607b609f565b6040516086919060bc565b60405180910390f35b600043905090565b600042905090565b60005481565b6000819050919050565b60b68160a5565b82525050565b600060208201905060cf600083018460af565b9291505056fea2646970667358221220e7b9097dc833a4b6ab61fc6023366d9af69e81e3d375e5f2c125d2134be67da764736f6c63430008120033",
					"opcodes": "PUSH1 0x80 PUSH1 0x40 MSTORE TIMESTAMP PUSH1 0x0 SSTORE CALLVALUE DUP1 ISZERO PUSH2 0x14 JUMPI PUSH1 0x0 DUP1 REVERT JUMPDEST POP PUSH2 0x10B DUP1 PUSH2 0x24 PUSH1 0x0 CODECOPY PUSH1 0x0 RETURN INVALID PUSH1 0x80 PUSH1 0x40 MSTORE CALLVALUE DUP1 ISZERO PUSH1 0xF JUMPI PUSH1 0x0 DUP1 REVERT JUMPDEST POP PUSH1 0x4 CALLDATASIZE LT PUSH1 0x3C JUMPI PUSH1 0x0 CALLDATALOAD PUSH1 0xE0 SHR DUP1 PUSH4 0x378EC23B EQ PUSH1 0x41 JUMPI DUP1 PUSH4 0x51BEDED3 EQ PUSH1 0x5B JUMPI DUP1 PUSH4 0xD18E81B3 EQ PUSH1 0x75 JUMPI JUMPDEST PUSH1 0x0 DUP1 REVERT JUMPDEST PUSH1 0x47 PUSH1 0x8F JUMP JUMPDEST PUSH1 0x40 MLOAD PUSH1 0x52 SWAP2 SWAP1 PUSH1 0xBC JUMP JUMPDEST PUSH1 0x40 MLOAD DUP1 SWAP2 SUB SWAP1 RETURN JUMPDEST PUSH1 0x61 PUSH1 0x97 JUMP JUMPDEST PUSH1 0x40 MLOAD PUSH1 0x6C SWAP2 SWAP1 PUSH1 0xBC JUMP JUMPDEST PUSH1 0x40 MLOAD DUP1 SWAP2 SUB SWAP1 RETURN JUMPDEST PUSH1 0x7B PUSH1 0x9F JUMP JUMPDEST PUSH1 0x40 MLOAD PUSH1 0x86 SWAP2 SWAP1 PUSH1 0xBC JUMP JUMPDEST PUSH1 0x40 MLOAD DUP1 SWAP2 SUB SWAP1 RETURN JUMPDEST PUSH1 0x0 NUMBER SWAP1 POP SWAP1 JUMP JUMPDEST PUSH1 0x0 TIMESTAMP SWAP1 POP SWAP1 JUMP JUMPDEST PUSH1 0x0 SLOAD DUP2 JUMP JUMPDEST PUSH1 0x0 DUP2 SWAP1 POP SWAP2 SWAP1 POP JUMP JUMPDEST PUSH1 0xB6 DUP2 PUSH1 0xA5 JUMP JUMPDEST DUP3 MSTORE POP POP JUMP JUMPDEST PUSH1 0x0 PUSH1 0x20 DUP3 ADD SWAP1 POP PUSH1 0xCF PUSH1 0x0 DUP4 ADD DUP5 PUSH1 0xAF JUMP JUMPDEST SWAP3 SWAP2 POP POP JUMP INVALID LOG2 PUSH5 0x6970667358 0x22 SLT KECCAK256 0xE7 0xB9 MULMOD PUSH30 0xC833A4B6AB61FC6023366D9AF69E81E3D375E5F2C125D2134BE67DA76473 PUSH16 0x6C634300081200330000000000000000 "
				},
				"gasEstimates": {
					"creation": {
						"codeDepositCost": "53400",
						"executionCost": "22210",
						"totalCost": "75610"
					},
					"external": {
						"currentBlockNumber()": "314",
						"currentTime()": "2451",
						"currentTime2()": "336"
					}
				},
				"methodIdentifiers": {
					"currentBlockNumber()": "378ec23b",
					"currentTime()": "d18e81b3",
					"currentTime2()": "51beded3"
				}
			},
			"storageLayout": {
				"storage": [
					{
						"astId": 306,
						"contract": "contracts/0518/Quiz-2.sol:TIME",
						"label": "currentTime",
						"offset": 0,
						"slot": "0",
						"type": "t_uint256"
					}
				],
				"types": {
					"t_uint256": {
						"encoding": "inplace",
						"label": "uint256",
						"numberOfBytes": "32"
					}
				}
			},
			"userdoc": {
				"kind": "user",
				"methods": {},
				"version": 1
			}
		}
	}
}