{
	"contracts/BABYLION/0517.sol": {
		"Quiz1": {
			"abi": [
				{
					"inputs": [],
					"stateMutability": "payable",
					"type": "constructor"
				},
				{
					"inputs": [
						{
							"internalType": "string",
							"name": "_name",
							"type": "string"
						}
					],
					"name": "JoinGame",
					"outputs": [],
					"stateMutability": "payable",
					"type": "function"
				},
				{
					"inputs": [
						{
							"internalType": "address",
							"name": "",
							"type": "address"
						}
					],
					"name": "Players",
					"outputs": [
						{
							"internalType": "string",
							"name": "name",
							"type": "string"
						},
						{
							"internalType": "uint256",
							"name": "score",
							"type": "uint256"
						},
						{
							"internalType": "bool",
							"name": "isWinner",
							"type": "bool"
						}
					],
					"stateMutability": "view",
					"type": "function"
				},
				{
					"inputs": [],
					"name": "determinWinner",
					"outputs": [],
					"stateMutability": "nonpayable",
					"type": "function"
				},
				{
					"inputs": [],
					"name": "distibutePrize",
					"outputs": [],
					"stateMutability": "nonpayable",
					"type": "function"
				},
				{
					"inputs": [],
					"name": "owner",
					"outputs": [
						{
							"internalType": "address",
							"name": "",
							"type": "address"
						}
					],
					"stateMutability": "view",
					"type": "function"
				},
				{
					"inputs": [
						{
							"internalType": "address",
							"name": "_player",
							"type": "address"
						},
						{
							"internalType": "uint256",
							"name": "_score",
							"type": "uint256"
						}
					],
					"name": "setScore",
					"outputs": [],
					"stateMutability": "nonpayable",
					"type": "function"
				},
				{
					"stateMutability": "payable",
					"type": "receive"
				}
			],
			"devdoc": {
				"kind": "dev",
				"methods": {},
				"version": 1
			},
			"evm": {
				"assembly": "    /* \"contracts/BABYLION/0517.sol\":71:3200  contract Quiz1{... */\n  mstore(0x40, 0x80)\n    /* \"contracts/BABYLION/0517.sol\":462:466  this */\n  address\n    /* \"contracts/BABYLION/0517.sol\":454:476  payable(this).transfer */\n  0xffffffffffffffffffffffffffffffffffffffff\n  and\n    /* \"contracts/BABYLION/0517.sol\":454:487  payable(this).transfer(msg.value) */\n  0x08fc\n    /* \"contracts/BABYLION/0517.sol\":477:486  msg.value */\n  callvalue\n    /* \"contracts/BABYLION/0517.sol\":454:487  payable(this).transfer(msg.value) */\n  swap1\n  dup2\n  iszero\n  mul\n  swap1\n  mload(0x40)\n  0x00\n  mload(0x40)\n  dup1\n  dup4\n  sub\n  dup2\n  dup6\n  dup9\n  dup9\n  call\n  swap4\n  pop\n  pop\n  pop\n  pop\n  iszero\n  dup1\n  iszero\n  tag_4\n  jumpi\n  returndatasize\n  0x00\n  dup1\n  returndatacopy\n  revert(0x00, returndatasize)\ntag_4:\n  pop\n    /* \"contracts/BABYLION/0517.sol\":507:549  0x5B38Da6a701c568545dCfcB03FcB875f56beddC4 */\n  0x5b38da6a701c568545dcfcb03fcb875f56beddc4\n    /* \"contracts/BABYLION/0517.sol\":498:503  owner */\n  0x00\n  dup1\n    /* \"contracts/BABYLION/0517.sol\":498:550  owner = (0x5B38Da6a701c568545dCfcB03FcB875f56beddC4) */\n  0x0100\n  exp\n  dup2\n  sload\n  dup2\n  0xffffffffffffffffffffffffffffffffffffffff\n  mul\n  not\n  and\n  swap1\n  dup4\n  0xffffffffffffffffffffffffffffffffffffffff\n  and\n  mul\n  or\n  swap1\n  sstore\n  pop\n    /* \"contracts/BABYLION/0517.sol\":574:583  msg.value */\n  callvalue\n    /* \"contracts/BABYLION/0517.sol\":561:571  totalPrize */\n  0x01\n    /* \"contracts/BABYLION/0517.sol\":561:583  totalPrize = msg.value */\n  dup2\n  swap1\n  sstore\n  pop\n    /* \"contracts/BABYLION/0517.sol\":71:3200  contract Quiz1{... */\n  dataSize(sub_0)\n  dup1\n  dataOffset(sub_0)\n  0x00\n  codecopy\n  0x00\n  return\nstop\n\nsub_0: assembly {\n        /* \"contracts/BABYLION/0517.sol\":71:3200  contract Quiz1{... */\n      mstore(0x40, 0x80)\n      jumpi(tag_1, lt(calldatasize, 0x04))\n      shr(0xe0, calldataload(0x00))\n      dup1\n      0x011028f8\n      eq\n      tag_3\n      jumpi\n      dup1\n      0x0371b6f0\n      eq\n      tag_4\n      jumpi\n      dup1\n      0x2bff8dd6\n      eq\n      tag_5\n      jumpi\n      dup1\n      0x8da5cb5b\n      eq\n      tag_6\n      jumpi\n      dup1\n      0xb18c5ad1\n      eq\n      tag_7\n      jumpi\n      dup1\n      0xee0fcc75\n      eq\n      tag_8\n      jumpi\n      jump(tag_2)\n    tag_1:\n      jumpi(tag_2, calldatasize)\n      stop\n    tag_2:\n      0x00\n      dup1\n      revert\n        /* \"contracts/BABYLION/0517.sol\":2930:3195  function distibutePrize() public owner_check {... */\n    tag_3:\n      callvalue\n      dup1\n      iszero\n      tag_11\n      jumpi\n      0x00\n      dup1\n      revert\n    tag_11:\n      pop\n      tag_12\n      tag_13\n      jump\t// in\n    tag_12:\n      stop\n        /* \"contracts/BABYLION/0517.sol\":1867:2842  function determinWinner() public  owner_check {... */\n    tag_4:\n      callvalue\n      dup1\n      iszero\n      tag_14\n      jumpi\n      0x00\n      dup1\n      revert\n    tag_14:\n      pop\n      tag_15\n      tag_16\n      jump\t// in\n    tag_15:\n      stop\n        /* \"contracts/BABYLION/0517.sol\":922:959  mapping(address=>User) public Players */\n    tag_5:\n      callvalue\n      dup1\n      iszero\n      tag_17\n      jumpi\n      0x00\n      dup1\n      revert\n    tag_17:\n      pop\n      tag_18\n      0x04\n      dup1\n      calldatasize\n      sub\n      dup2\n      add\n      swap1\n      tag_19\n      swap2\n      swap1\n      tag_20\n      jump\t// in\n    tag_19:\n      tag_21\n      jump\t// in\n    tag_18:\n      mload(0x40)\n      tag_22\n      swap4\n      swap3\n      swap2\n      swap1\n      tag_23\n      jump\t// in\n    tag_22:\n      mload(0x40)\n      dup1\n      swap2\n      sub\n      swap1\n      return\n        /* \"contracts/BABYLION/0517.sol\":370:391  address  public owner */\n    tag_6:\n      callvalue\n      dup1\n      iszero\n      tag_24\n      jumpi\n      0x00\n      dup1\n      revert\n    tag_24:\n      pop\n      tag_25\n      tag_26\n      jump\t// in\n    tag_25:\n      mload(0x40)\n      tag_27\n      swap2\n      swap1\n      tag_28\n      jump\t// in\n    tag_27:\n      mload(0x40)\n      dup1\n      swap2\n      sub\n      swap1\n      return\n        /* \"contracts/BABYLION/0517.sol\":1160:1467  function JoinGame(string memory _name) public payable {... */\n    tag_7:\n      tag_29\n      0x04\n      dup1\n      calldatasize\n      sub\n      dup2\n      add\n      swap1\n      tag_30\n      swap2\n      swap1\n      tag_31\n      jump\t// in\n    tag_30:\n      tag_32\n      jump\t// in\n    tag_29:\n      stop\n        /* \"contracts/BABYLION/0517.sol\":1578:1773  function setScore(address _player, uint _score) public owner_check {        ... */\n    tag_8:\n      callvalue\n      dup1\n      iszero\n      tag_33\n      jumpi\n      0x00\n      dup1\n      revert\n    tag_33:\n      pop\n      tag_34\n      0x04\n      dup1\n      calldatasize\n      sub\n      dup2\n      add\n      swap1\n      tag_35\n      swap2\n      swap1\n      tag_36\n      jump\t// in\n    tag_35:\n      tag_37\n      jump\t// in\n    tag_34:\n      stop\n        /* \"contracts/BABYLION/0517.sol\":2930:3195  function distibutePrize() public owner_check {... */\n    tag_13:\n        /* \"contracts/BABYLION/0517.sol\":839:844  owner */\n      0x00\n      dup1\n      sload\n      swap1\n      0x0100\n      exp\n      swap1\n      div\n      0xffffffffffffffffffffffffffffffffffffffff\n      and\n        /* \"contracts/BABYLION/0517.sol\":825:844  msg.sender == owner */\n      0xffffffffffffffffffffffffffffffffffffffff\n      and\n        /* \"contracts/BABYLION/0517.sol\":825:835  msg.sender */\n      caller\n        /* \"contracts/BABYLION/0517.sol\":825:844  msg.sender == owner */\n      0xffffffffffffffffffffffffffffffffffffffff\n      and\n      eq\n        /* \"contracts/BABYLION/0517.sol\":817:874  require(msg.sender == owner, \"Only owner can do this fn\") */\n      tag_39\n      jumpi\n      mload(0x40)\n      0x08c379a000000000000000000000000000000000000000000000000000000000\n      dup2\n      mstore\n      0x04\n      add\n      tag_40\n      swap1\n      tag_41\n      jump\t// in\n    tag_40:\n      mload(0x40)\n      dup1\n      swap2\n      sub\n      swap1\n      revert\n    tag_39:\n        /* \"contracts/BABYLION/0517.sol\":3009:3010  0 */\n      0x00\n        /* \"contracts/BABYLION/0517.sol\":2994:3000  Winner */\n      0x04\n        /* \"contracts/BABYLION/0517.sol\":2994:3007  Winner.length */\n      dup1\n      sload\n      swap1\n      pop\n        /* \"contracts/BABYLION/0517.sol\":2994:3010  Winner.length >0 */\n      gt\n        /* \"contracts/BABYLION/0517.sol\":2986:3027  require(Winner.length >0 , \"No winnners\") */\n      tag_43\n      jumpi\n      mload(0x40)\n      0x08c379a000000000000000000000000000000000000000000000000000000000\n      dup2\n      mstore\n      0x04\n      add\n      tag_44\n      swap1\n      tag_45\n      jump\t// in\n    tag_44:\n      mload(0x40)\n      dup1\n      swap2\n      sub\n      swap1\n      revert\n    tag_43:\n        /* \"contracts/BABYLION/0517.sol\":3038:3048  uint prize */\n      0x00\n        /* \"contracts/BABYLION/0517.sol\":3063:3069  Winner */\n      0x04\n        /* \"contracts/BABYLION/0517.sol\":3063:3076  Winner.length */\n      dup1\n      sload\n      swap1\n      pop\n        /* \"contracts/BABYLION/0517.sol\":3051:3061  totalPrize */\n      sload(0x01)\n        /* \"contracts/BABYLION/0517.sol\":3051:3076  totalPrize/ Winner.length */\n      tag_46\n      swap2\n      swap1\n      tag_47\n      jump\t// in\n    tag_46:\n        /* \"contracts/BABYLION/0517.sol\":3038:3076  uint prize = totalPrize/ Winner.length */\n      swap1\n      pop\n        /* \"contracts/BABYLION/0517.sol\":3096:3102  uint i */\n      0x00\n        /* \"contracts/BABYLION/0517.sol\":3092:3188  for(uint i=0; i<Winner.length; i++){... */\n    tag_48:\n        /* \"contracts/BABYLION/0517.sol\":3108:3114  Winner */\n      0x04\n        /* \"contracts/BABYLION/0517.sol\":3108:3121  Winner.length */\n      dup1\n      sload\n      swap1\n      pop\n        /* \"contracts/BABYLION/0517.sol\":3106:3107  i */\n      dup2\n        /* \"contracts/BABYLION/0517.sol\":3106:3121  i<Winner.length */\n      lt\n        /* \"contracts/BABYLION/0517.sol\":3092:3188  for(uint i=0; i<Winner.length; i++){... */\n      iszero\n      tag_49\n      jumpi\n        /* \"contracts/BABYLION/0517.sol\":3150:3156  Winner */\n      0x04\n        /* \"contracts/BABYLION/0517.sol\":3157:3158  i */\n      dup2\n        /* \"contracts/BABYLION/0517.sol\":3150:3159  Winner[i] */\n      dup2\n      sload\n      dup2\n      lt\n      tag_51\n      jumpi\n      tag_52\n      tag_53\n      jump\t// in\n    tag_52:\n    tag_51:\n      swap1\n      0x00\n      mstore\n      keccak256(0x00, 0x20)\n      add\n      0x00\n      swap1\n      sload\n      swap1\n      0x0100\n      exp\n      swap1\n      div\n      0xffffffffffffffffffffffffffffffffffffffff\n      and\n        /* \"contracts/BABYLION/0517.sol\":3142:3169  payable(Winner[i]).transfer */\n      0xffffffffffffffffffffffffffffffffffffffff\n      and\n        /* \"contracts/BABYLION/0517.sol\":3142:3176  payable(Winner[i]).transfer(prize) */\n      0x08fc\n        /* \"contracts/BABYLION/0517.sol\":3170:3175  prize */\n      dup4\n        /* \"contracts/BABYLION/0517.sol\":3142:3176  payable(Winner[i]).transfer(prize) */\n      swap1\n      dup2\n      iszero\n      mul\n      swap1\n      mload(0x40)\n      0x00\n      mload(0x40)\n      dup1\n      dup4\n      sub\n      dup2\n      dup6\n      dup9\n      dup9\n      call\n      swap4\n      pop\n      pop\n      pop\n      pop\n      iszero\n      dup1\n      iszero\n      tag_56\n      jumpi\n      returndatasize\n      0x00\n      dup1\n      returndatacopy\n      revert(0x00, returndatasize)\n    tag_56:\n      pop\n        /* \"contracts/BABYLION/0517.sol\":3123:3126  i++ */\n      dup1\n      dup1\n      tag_57\n      swap1\n      tag_58\n      jump\t// in\n    tag_57:\n      swap2\n      pop\n      pop\n        /* \"contracts/BABYLION/0517.sol\":3092:3188  for(uint i=0; i<Winner.length; i++){... */\n      jump(tag_48)\n    tag_49:\n      pop\n        /* \"contracts/BABYLION/0517.sol\":2975:3195  {... */\n      pop\n        /* \"contracts/BABYLION/0517.sol\":2930:3195  function distibutePrize() public owner_check {... */\n      jump\t// out\n        /* \"contracts/BABYLION/0517.sol\":1867:2842  function determinWinner() public  owner_check {... */\n    tag_16:\n        /* \"contracts/BABYLION/0517.sol\":839:844  owner */\n      0x00\n      dup1\n      sload\n      swap1\n      0x0100\n      exp\n      swap1\n      div\n      0xffffffffffffffffffffffffffffffffffffffff\n      and\n        /* \"contracts/BABYLION/0517.sol\":825:844  msg.sender == owner */\n      0xffffffffffffffffffffffffffffffffffffffff\n      and\n        /* \"contracts/BABYLION/0517.sol\":825:835  msg.sender */\n      caller\n        /* \"contracts/BABYLION/0517.sol\":825:844  msg.sender == owner */\n      0xffffffffffffffffffffffffffffffffffffffff\n      and\n      eq\n        /* \"contracts/BABYLION/0517.sol\":817:874  require(msg.sender == owner, \"Only owner can do this fn\") */\n      tag_60\n      jumpi\n      mload(0x40)\n      0x08c379a000000000000000000000000000000000000000000000000000000000\n      dup2\n      mstore\n      0x04\n      add\n      tag_61\n      swap1\n      tag_41\n      jump\t// in\n    tag_61:\n      mload(0x40)\n      dup1\n      swap2\n      sub\n      swap1\n      revert\n    tag_60:\n        /* \"contracts/BABYLION/0517.sol\":1924:1942  uint hightestScore */\n      0x00\n        /* \"contracts/BABYLION/0517.sol\":2042:2048  uint i */\n      dup1\n        /* \"contracts/BABYLION/0517.sol\":2037:2308  for( uint i =0 ; i < allPlayers.length; i++){... */\n    tag_63:\n        /* \"contracts/BABYLION/0517.sol\":2058:2068  allPlayers */\n      0x03\n        /* \"contracts/BABYLION/0517.sol\":2058:2075  allPlayers.length */\n      dup1\n      sload\n      swap1\n      pop\n        /* \"contracts/BABYLION/0517.sol\":2054:2055  i */\n      dup2\n        /* \"contracts/BABYLION/0517.sol\":2054:2075  i < allPlayers.length */\n      lt\n        /* \"contracts/BABYLION/0517.sol\":2037:2308  for( uint i =0 ; i < allPlayers.length; i++){... */\n      iszero\n      tag_64\n      jumpi\n        /* \"contracts/BABYLION/0517.sol\":2096:2108  address addr */\n      0x00\n        /* \"contracts/BABYLION/0517.sol\":2111:2121  allPlayers */\n      0x03\n        /* \"contracts/BABYLION/0517.sol\":2122:2123  i */\n      dup3\n        /* \"contracts/BABYLION/0517.sol\":2111:2124  allPlayers[i] */\n      dup2\n      sload\n      dup2\n      lt\n      tag_66\n      jumpi\n      tag_67\n      tag_53\n      jump\t// in\n    tag_67:\n    tag_66:\n      swap1\n      0x00\n      mstore\n      keccak256(0x00, 0x20)\n      add\n      0x00\n      swap1\n      sload\n      swap1\n      0x0100\n      exp\n      swap1\n      div\n      0xffffffffffffffffffffffffffffffffffffffff\n      and\n        /* \"contracts/BABYLION/0517.sol\":2096:2124  address addr = allPlayers[i] */\n      swap1\n      pop\n        /* \"contracts/BABYLION/0517.sol\":2139:2155  uint playerScore */\n      0x00\n        /* \"contracts/BABYLION/0517.sol\":2158:2165  Players */\n      0x02\n        /* \"contracts/BABYLION/0517.sol\":2158:2171  Players[addr] */\n      0x00\n        /* \"contracts/BABYLION/0517.sol\":2166:2170  addr */\n      dup4\n        /* \"contracts/BABYLION/0517.sol\":2158:2171  Players[addr] */\n      0xffffffffffffffffffffffffffffffffffffffff\n      and\n      0xffffffffffffffffffffffffffffffffffffffff\n      and\n      dup2\n      mstore\n      0x20\n      add\n      swap1\n      dup2\n      mstore\n      0x20\n      add\n      0x00\n      keccak256\n        /* \"contracts/BABYLION/0517.sol\":2158:2177  Players[addr].score */\n      0x01\n      add\n      sload\n        /* \"contracts/BABYLION/0517.sol\":2139:2177  uint playerScore = Players[addr].score */\n      swap1\n      pop\n        /* \"contracts/BABYLION/0517.sol\":2209:2222  hightestScore */\n      dup4\n        /* \"contracts/BABYLION/0517.sol\":2197:2208  playerScore */\n      dup2\n        /* \"contracts/BABYLION/0517.sol\":2197:2222  playerScore>hightestScore */\n      gt\n        /* \"contracts/BABYLION/0517.sol\":2194:2285  if(playerScore>hightestScore){... */\n      iszero\n      tag_69\n      jumpi\n        /* \"contracts/BABYLION/0517.sol\":2258:2269  playerScore */\n      dup1\n        /* \"contracts/BABYLION/0517.sol\":2242:2269  hightestScore = playerScore */\n      swap4\n      pop\n        /* \"contracts/BABYLION/0517.sol\":2194:2285  if(playerScore>hightestScore){... */\n    tag_69:\n        /* \"contracts/BABYLION/0517.sol\":2081:2308  {... */\n      pop\n      pop\n        /* \"contracts/BABYLION/0517.sol\":2077:2080  i++ */\n      dup1\n      dup1\n      tag_70\n      swap1\n      tag_58\n      jump\t// in\n    tag_70:\n      swap2\n      pop\n      pop\n        /* \"contracts/BABYLION/0517.sol\":2037:2308  for( uint i =0 ; i < allPlayers.length; i++){... */\n      jump(tag_63)\n    tag_64:\n      pop\n        /* \"contracts/BABYLION/0517.sol\":2325:2331  uint i */\n      0x00\n        /* \"contracts/BABYLION/0517.sol\":2320:2572  for( uint i = 0; i< allPlayers.length; i++){... */\n    tag_71:\n        /* \"contracts/BABYLION/0517.sol\":2340:2350  allPlayers */\n      0x03\n        /* \"contracts/BABYLION/0517.sol\":2340:2357  allPlayers.length */\n      dup1\n      sload\n      swap1\n      pop\n        /* \"contracts/BABYLION/0517.sol\":2337:2338  i */\n      dup2\n        /* \"contracts/BABYLION/0517.sol\":2337:2357  i< allPlayers.length */\n      lt\n        /* \"contracts/BABYLION/0517.sol\":2320:2572  for( uint i = 0; i< allPlayers.length; i++){... */\n      iszero\n      tag_72\n      jumpi\n        /* \"contracts/BABYLION/0517.sol\":2378:2390  address addr */\n      0x00\n        /* \"contracts/BABYLION/0517.sol\":2393:2403  allPlayers */\n      0x03\n        /* \"contracts/BABYLION/0517.sol\":2404:2405  i */\n      dup3\n        /* \"contracts/BABYLION/0517.sol\":2393:2406  allPlayers[i] */\n      dup2\n      sload\n      dup2\n      lt\n      tag_74\n      jumpi\n      tag_75\n      tag_53\n      jump\t// in\n    tag_75:\n    tag_74:\n      swap1\n      0x00\n      mstore\n      keccak256(0x00, 0x20)\n      add\n      0x00\n      swap1\n      sload\n      swap1\n      0x0100\n      exp\n      swap1\n      div\n      0xffffffffffffffffffffffffffffffffffffffff\n      and\n        /* \"contracts/BABYLION/0517.sol\":2378:2406  address addr = allPlayers[i] */\n      swap1\n      pop\n        /* \"contracts/BABYLION/0517.sol\":2447:2460  hightestScore */\n      dup3\n        /* \"contracts/BABYLION/0517.sol\":2424:2431  Players */\n      0x02\n        /* \"contracts/BABYLION/0517.sol\":2424:2437  Players[addr] */\n      0x00\n        /* \"contracts/BABYLION/0517.sol\":2432:2436  addr */\n      dup4\n        /* \"contracts/BABYLION/0517.sol\":2424:2437  Players[addr] */\n      0xffffffffffffffffffffffffffffffffffffffff\n      and\n      0xffffffffffffffffffffffffffffffffffffffff\n      and\n      dup2\n      mstore\n      0x20\n      add\n      swap1\n      dup2\n      mstore\n      0x20\n      add\n      0x00\n      keccak256\n        /* \"contracts/BABYLION/0517.sol\":2424:2443  Players[addr].score */\n      0x01\n      add\n      sload\n        /* \"contracts/BABYLION/0517.sol\":2424:2460  Players[addr].score == hightestScore */\n      sub\n        /* \"contracts/BABYLION/0517.sol\":2421:2561  if(Players[addr].score == hightestScore){... */\n      tag_77\n      jumpi\n        /* \"contracts/BABYLION/0517.sol\":2528:2534  Winner */\n      0x04\n        /* \"contracts/BABYLION/0517.sol\":2540:2544  addr */\n      dup2\n        /* \"contracts/BABYLION/0517.sol\":2528:2545  Winner.push(addr) */\n      swap1\n      dup1\n      0x01\n      dup2\n      sload\n      add\n      dup1\n      dup3\n      sstore\n      dup1\n      swap2\n      pop\n      pop\n      0x01\n      swap1\n      sub\n      swap1\n      0x00\n      mstore\n      keccak256(0x00, 0x20)\n      add\n      0x00\n      swap1\n      swap2\n      swap1\n      swap2\n      swap1\n      swap2\n      0x0100\n      exp\n      dup2\n      sload\n      dup2\n      0xffffffffffffffffffffffffffffffffffffffff\n      mul\n      not\n      and\n      swap1\n      dup4\n      0xffffffffffffffffffffffffffffffffffffffff\n      and\n      mul\n      or\n      swap1\n      sstore\n      pop\n        /* \"contracts/BABYLION/0517.sol\":2421:2561  if(Players[addr].score == hightestScore){... */\n    tag_77:\n        /* \"contracts/BABYLION/0517.sol\":2363:2572  {... */\n      pop\n        /* \"contracts/BABYLION/0517.sol\":2359:2362  i++ */\n      dup1\n      dup1\n      tag_79\n      swap1\n      tag_58\n      jump\t// in\n    tag_79:\n      swap2\n      pop\n      pop\n        /* \"contracts/BABYLION/0517.sol\":2320:2572  for( uint i = 0; i< allPlayers.length; i++){... */\n      jump(tag_71)\n    tag_72:\n      pop\n        /* \"contracts/BABYLION/0517.sol\":2586:2592  uint i */\n      0x00\n        /* \"contracts/BABYLION/0517.sol\":2582:2708  for(uint i=0; i<Winner.length; i++){... */\n    tag_80:\n        /* \"contracts/BABYLION/0517.sol\":2598:2604  Winner */\n      0x04\n        /* \"contracts/BABYLION/0517.sol\":2598:2611  Winner.length */\n      dup1\n      sload\n      swap1\n      pop\n        /* \"contracts/BABYLION/0517.sol\":2596:2597  i */\n      dup2\n        /* \"contracts/BABYLION/0517.sol\":2596:2611  i<Winner.length */\n      lt\n        /* \"contracts/BABYLION/0517.sol\":2582:2708  for(uint i=0; i<Winner.length; i++){... */\n      iszero\n      tag_81\n      jumpi\n        /* \"contracts/BABYLION/0517.sol\":2640:2646  Winner */\n      0x04\n        /* \"contracts/BABYLION/0517.sol\":2647:2648  i */\n      dup2\n        /* \"contracts/BABYLION/0517.sol\":2640:2649  Winner[i] */\n      dup2\n      sload\n      dup2\n      lt\n      tag_83\n      jumpi\n      tag_84\n      tag_53\n      jump\t// in\n    tag_84:\n    tag_83:\n      swap1\n      0x00\n      mstore\n      keccak256(0x00, 0x20)\n      add\n      0x00\n      swap1\n      sload\n      swap1\n      0x0100\n      exp\n      swap1\n      div\n      0xffffffffffffffffffffffffffffffffffffffff\n      and\n        /* \"contracts/BABYLION/0517.sol\":2632:2659  payable(Winner[i]).transfer */\n      0xffffffffffffffffffffffffffffffffffffffff\n      and\n        /* \"contracts/BABYLION/0517.sol\":2632:2696  payable(Winner[i]).transfer(address(this).balance/Winner.length) */\n      0x08fc\n        /* \"contracts/BABYLION/0517.sol\":2682:2688  Winner */\n      0x04\n        /* \"contracts/BABYLION/0517.sol\":2682:2695  Winner.length */\n      dup1\n      sload\n      swap1\n      pop\n        /* \"contracts/BABYLION/0517.sol\":2660:2681  address(this).balance */\n      selfbalance\n        /* \"contracts/BABYLION/0517.sol\":2660:2695  address(this).balance/Winner.length */\n      tag_86\n      swap2\n      swap1\n      tag_47\n      jump\t// in\n    tag_86:\n        /* \"contracts/BABYLION/0517.sol\":2632:2696  payable(Winner[i]).transfer(address(this).balance/Winner.length) */\n      swap1\n      dup2\n      iszero\n      mul\n      swap1\n      mload(0x40)\n      0x00\n      mload(0x40)\n      dup1\n      dup4\n      sub\n      dup2\n      dup6\n      dup9\n      dup9\n      call\n      swap4\n      pop\n      pop\n      pop\n      pop\n      iszero\n      dup1\n      iszero\n      tag_88\n      jumpi\n      returndatasize\n      0x00\n      dup1\n      returndatacopy\n      revert(0x00, returndatasize)\n    tag_88:\n      pop\n        /* \"contracts/BABYLION/0517.sol\":2613:2616  i++ */\n      dup1\n      dup1\n      tag_89\n      swap1\n      tag_58\n      jump\t// in\n    tag_89:\n      swap2\n      pop\n      pop\n        /* \"contracts/BABYLION/0517.sol\":2582:2708  for(uint i=0; i<Winner.length; i++){... */\n      jump(tag_80)\n    tag_81:\n      pop\n        /* \"contracts/BABYLION/0517.sol\":1913:2842  {... */\n      pop\n        /* \"contracts/BABYLION/0517.sol\":1867:2842  function determinWinner() public  owner_check {... */\n      jump\t// out\n        /* \"contracts/BABYLION/0517.sol\":922:959  mapping(address=>User) public Players */\n    tag_21:\n      mstore(0x20, 0x02)\n      dup1\n      0x00\n      mstore\n      keccak256(0x00, 0x40)\n      0x00\n      swap2\n      pop\n      swap1\n      pop\n      dup1\n      0x00\n      add\n      dup1\n      sload\n      tag_90\n      swap1\n      tag_91\n      jump\t// in\n    tag_90:\n      dup1\n      0x1f\n      add\n      0x20\n      dup1\n      swap2\n      div\n      mul\n      0x20\n      add\n      mload(0x40)\n      swap1\n      dup2\n      add\n      0x40\n      mstore\n      dup1\n      swap3\n      swap2\n      swap1\n      dup2\n      dup2\n      mstore\n      0x20\n      add\n      dup3\n      dup1\n      sload\n      tag_92\n      swap1\n      tag_91\n      jump\t// in\n    tag_92:\n      dup1\n      iszero\n      tag_93\n      jumpi\n      dup1\n      0x1f\n      lt\n      tag_94\n      jumpi\n      0x0100\n      dup1\n      dup4\n      sload\n      div\n      mul\n      dup4\n      mstore\n      swap2\n      0x20\n      add\n      swap2\n      jump(tag_93)\n    tag_94:\n      dup3\n      add\n      swap2\n      swap1\n      0x00\n      mstore\n      keccak256(0x00, 0x20)\n      swap1\n    tag_95:\n      dup2\n      sload\n      dup2\n      mstore\n      swap1\n      0x01\n      add\n      swap1\n      0x20\n      add\n      dup1\n      dup4\n      gt\n      tag_95\n      jumpi\n      dup3\n      swap1\n      sub\n      0x1f\n      and\n      dup3\n      add\n      swap2\n    tag_93:\n      pop\n      pop\n      pop\n      pop\n      pop\n      swap1\n      dup1\n      0x01\n      add\n      sload\n      swap1\n      dup1\n      0x02\n      add\n      0x00\n      swap1\n      sload\n      swap1\n      0x0100\n      exp\n      swap1\n      div\n      0xff\n      and\n      swap1\n      pop\n      dup4\n      jump\t// out\n        /* \"contracts/BABYLION/0517.sol\":370:391  address  public owner */\n    tag_26:\n      0x00\n      dup1\n      sload\n      swap1\n      0x0100\n      exp\n      swap1\n      div\n      0xffffffffffffffffffffffffffffffffffffffff\n      and\n      dup2\n      jump\t// out\n        /* \"contracts/BABYLION/0517.sol\":1160:1467  function JoinGame(string memory _name) public payable {... */\n    tag_32:\n        /* \"contracts/BABYLION/0517.sol\":1246:1253  2 ether */\n      0x1bc16d674ec80000\n        /* \"contracts/BABYLION/0517.sol\":1233:1242  msg.value */\n      callvalue\n        /* \"contracts/BABYLION/0517.sol\":1233:1253  msg.value == 2 ether */\n      eq\n        /* \"contracts/BABYLION/0517.sol\":1225:1254  require(msg.value == 2 ether) */\n      tag_97\n      jumpi\n      0x00\n      dup1\n      revert\n    tag_97:\n        /* \"contracts/BABYLION/0517.sol\":1297:1302  _name */\n      dup1\n        /* \"contracts/BABYLION/0517.sol\":1270:1277  Players */\n      0x02\n        /* \"contracts/BABYLION/0517.sol\":1270:1289  Players[msg.sender] */\n      0x00\n        /* \"contracts/BABYLION/0517.sol\":1278:1288  msg.sender */\n      caller\n        /* \"contracts/BABYLION/0517.sol\":1270:1289  Players[msg.sender] */\n      0xffffffffffffffffffffffffffffffffffffffff\n      and\n      0xffffffffffffffffffffffffffffffffffffffff\n      and\n      dup2\n      mstore\n      0x20\n      add\n      swap1\n      dup2\n      mstore\n      0x20\n      add\n      0x00\n      keccak256\n        /* \"contracts/BABYLION/0517.sol\":1270:1294  Players[msg.sender].name */\n      0x00\n      add\n        /* \"contracts/BABYLION/0517.sol\":1270:1302  Players[msg.sender].name = _name */\n      swap1\n      dup2\n      tag_98\n      swap2\n      swap1\n      tag_99\n      jump\t// in\n    tag_98:\n      pop\n        /* \"contracts/BABYLION/0517.sol\":1341:1342  0 */\n      0x00\n        /* \"contracts/BABYLION/0517.sol\":1313:1320  Players */\n      0x02\n        /* \"contracts/BABYLION/0517.sol\":1313:1332  Players[msg.sender] */\n      0x00\n        /* \"contracts/BABYLION/0517.sol\":1321:1331  msg.sender */\n      caller\n        /* \"contracts/BABYLION/0517.sol\":1313:1332  Players[msg.sender] */\n      0xffffffffffffffffffffffffffffffffffffffff\n      and\n      0xffffffffffffffffffffffffffffffffffffffff\n      and\n      dup2\n      mstore\n      0x20\n      add\n      swap1\n      dup2\n      mstore\n      0x20\n      add\n      0x00\n      keccak256\n        /* \"contracts/BABYLION/0517.sol\":1313:1338  Players[msg.sender].score */\n      0x01\n      add\n        /* \"contracts/BABYLION/0517.sol\":1313:1342  Players[msg.sender].score = 0 */\n      dup2\n      swap1\n      sstore\n      pop\n        /* \"contracts/BABYLION/0517.sol\":1384:1389  false */\n      0x00\n        /* \"contracts/BABYLION/0517.sol\":1353:1360  Players */\n      0x02\n        /* \"contracts/BABYLION/0517.sol\":1353:1372  Players[msg.sender] */\n      0x00\n        /* \"contracts/BABYLION/0517.sol\":1361:1371  msg.sender */\n      caller\n        /* \"contracts/BABYLION/0517.sol\":1353:1372  Players[msg.sender] */\n      0xffffffffffffffffffffffffffffffffffffffff\n      and\n      0xffffffffffffffffffffffffffffffffffffffff\n      and\n      dup2\n      mstore\n      0x20\n      add\n      swap1\n      dup2\n      mstore\n      0x20\n      add\n      0x00\n      keccak256\n        /* \"contracts/BABYLION/0517.sol\":1353:1381  Players[msg.sender].isWinner */\n      0x02\n      add\n      0x00\n        /* \"contracts/BABYLION/0517.sol\":1353:1389  Players[msg.sender].isWinner = false */\n      0x0100\n      exp\n      dup2\n      sload\n      dup2\n      0xff\n      mul\n      not\n      and\n      swap1\n      dup4\n      iszero\n      iszero\n      mul\n      or\n      swap1\n      sstore\n      pop\n        /* \"contracts/BABYLION/0517.sol\":1400:1410  allPlayers */\n      0x03\n        /* \"contracts/BABYLION/0517.sol\":1416:1426  msg.sender */\n      caller\n        /* \"contracts/BABYLION/0517.sol\":1400:1427  allPlayers.push(msg.sender) */\n      swap1\n      dup1\n      0x01\n      dup2\n      sload\n      add\n      dup1\n      dup3\n      sstore\n      dup1\n      swap2\n      pop\n      pop\n      0x01\n      swap1\n      sub\n      swap1\n      0x00\n      mstore\n      keccak256(0x00, 0x20)\n      add\n      0x00\n      swap1\n      swap2\n      swap1\n      swap2\n      swap1\n      swap2\n      0x0100\n      exp\n      dup2\n      sload\n      dup2\n      0xffffffffffffffffffffffffffffffffffffffff\n      mul\n      not\n      and\n      swap1\n      dup4\n      0xffffffffffffffffffffffffffffffffffffffff\n      and\n      mul\n      or\n      swap1\n      sstore\n      pop\n        /* \"contracts/BABYLION/0517.sol\":1452:1459  2 ether */\n      0x1bc16d674ec80000\n        /* \"contracts/BABYLION/0517.sol\":1438:1448  totalPrize */\n      0x01\n      0x00\n        /* \"contracts/BABYLION/0517.sol\":1438:1459  totalPrize += 2 ether */\n      dup3\n      dup3\n      sload\n      tag_101\n      swap2\n      swap1\n      tag_102\n      jump\t// in\n    tag_101:\n      swap3\n      pop\n      pop\n      dup2\n      swap1\n      sstore\n      pop\n        /* \"contracts/BABYLION/0517.sol\":1160:1467  function JoinGame(string memory _name) public payable {... */\n      pop\n      jump\t// out\n        /* \"contracts/BABYLION/0517.sol\":1578:1773  function setScore(address _player, uint _score) public owner_check {        ... */\n    tag_37:\n        /* \"contracts/BABYLION/0517.sol\":839:844  owner */\n      0x00\n      dup1\n      sload\n      swap1\n      0x0100\n      exp\n      swap1\n      div\n      0xffffffffffffffffffffffffffffffffffffffff\n      and\n        /* \"contracts/BABYLION/0517.sol\":825:844  msg.sender == owner */\n      0xffffffffffffffffffffffffffffffffffffffff\n      and\n        /* \"contracts/BABYLION/0517.sol\":825:835  msg.sender */\n      caller\n        /* \"contracts/BABYLION/0517.sol\":825:844  msg.sender == owner */\n      0xffffffffffffffffffffffffffffffffffffffff\n      and\n      eq\n        /* \"contracts/BABYLION/0517.sol\":817:874  require(msg.sender == owner, \"Only owner can do this fn\") */\n      tag_104\n      jumpi\n      mload(0x40)\n      0x08c379a000000000000000000000000000000000000000000000000000000000\n      dup2\n      mstore\n      0x04\n      add\n      tag_105\n      swap1\n      tag_41\n      jump\t// in\n    tag_105:\n      mload(0x40)\n      dup1\n      swap2\n      sub\n      swap1\n      revert\n    tag_104:\n        /* \"contracts/BABYLION/0517.sol\":1698:1699  0 */\n      0x00\n        /* \"contracts/BABYLION/0517.sol\":1672:1679  Players */\n      0x02\n        /* \"contracts/BABYLION/0517.sol\":1672:1688  Players[_player] */\n      0x00\n        /* \"contracts/BABYLION/0517.sol\":1680:1687  _player */\n      dup5\n        /* \"contracts/BABYLION/0517.sol\":1672:1688  Players[_player] */\n      0xffffffffffffffffffffffffffffffffffffffff\n      and\n      0xffffffffffffffffffffffffffffffffffffffff\n      and\n      dup2\n      mstore\n      0x20\n      add\n      swap1\n      dup2\n      mstore\n      0x20\n      add\n      0x00\n      keccak256\n        /* \"contracts/BABYLION/0517.sol\":1672:1694  Players[_player].score */\n      0x01\n      add\n      sload\n        /* \"contracts/BABYLION/0517.sol\":1672:1699  Players[_player].score == 0 */\n      eq\n        /* \"contracts/BABYLION/0517.sol\":1664:1721  require(Players[_player].score == 0, \"Score already set\") */\n      tag_107\n      jumpi\n      mload(0x40)\n      0x08c379a000000000000000000000000000000000000000000000000000000000\n      dup2\n      mstore\n      0x04\n      add\n      tag_108\n      swap1\n      tag_109\n      jump\t// in\n    tag_108:\n      mload(0x40)\n      dup1\n      swap2\n      sub\n      swap1\n      revert\n    tag_107:\n        /* \"contracts/BABYLION/0517.sol\":1757:1763  _score */\n      dup1\n        /* \"contracts/BABYLION/0517.sol\":1732:1739  Players */\n      0x02\n        /* \"contracts/BABYLION/0517.sol\":1732:1748  Players[_player] */\n      0x00\n        /* \"contracts/BABYLION/0517.sol\":1740:1747  _player */\n      dup5\n        /* \"contracts/BABYLION/0517.sol\":1732:1748  Players[_player] */\n      0xffffffffffffffffffffffffffffffffffffffff\n      and\n      0xffffffffffffffffffffffffffffffffffffffff\n      and\n      dup2\n      mstore\n      0x20\n      add\n      swap1\n      dup2\n      mstore\n      0x20\n      add\n      0x00\n      keccak256\n        /* \"contracts/BABYLION/0517.sol\":1732:1754  Players[_player].score */\n      0x01\n      add\n        /* \"contracts/BABYLION/0517.sol\":1732:1763  Players[_player].score = _score */\n      dup2\n      swap1\n      sstore\n      pop\n        /* \"contracts/BABYLION/0517.sol\":1578:1773  function setScore(address _player, uint _score) public owner_check {        ... */\n      pop\n      pop\n      jump\t// out\n        /* \"#utility.yul\":7:82   */\n    tag_110:\n        /* \"#utility.yul\":40:46   */\n      0x00\n        /* \"#utility.yul\":73:75   */\n      0x40\n        /* \"#utility.yul\":67:76   */\n      mload\n        /* \"#utility.yul\":57:76   */\n      swap1\n      pop\n        /* \"#utility.yul\":7:82   */\n      swap1\n      jump\t// out\n        /* \"#utility.yul\":88:205   */\n    tag_111:\n        /* \"#utility.yul\":197:198   */\n      0x00\n        /* \"#utility.yul\":194:195   */\n      dup1\n        /* \"#utility.yul\":187:199   */\n      revert\n        /* \"#utility.yul\":211:328   */\n    tag_112:\n        /* \"#utility.yul\":320:321   */\n      0x00\n        /* \"#utility.yul\":317:318   */\n      dup1\n        /* \"#utility.yul\":310:322   */\n      revert\n        /* \"#utility.yul\":334:460   */\n    tag_113:\n        /* \"#utility.yul\":371:378   */\n      0x00\n        /* \"#utility.yul\":411:453   */\n      0xffffffffffffffffffffffffffffffffffffffff\n        /* \"#utility.yul\":404:409   */\n      dup3\n        /* \"#utility.yul\":400:454   */\n      and\n        /* \"#utility.yul\":389:454   */\n      swap1\n      pop\n        /* \"#utility.yul\":334:460   */\n      swap2\n      swap1\n      pop\n      jump\t// out\n        /* \"#utility.yul\":466:562   */\n    tag_114:\n        /* \"#utility.yul\":503:510   */\n      0x00\n        /* \"#utility.yul\":532:556   */\n      tag_168\n        /* \"#utility.yul\":550:555   */\n      dup3\n        /* \"#utility.yul\":532:556   */\n      tag_113\n      jump\t// in\n    tag_168:\n        /* \"#utility.yul\":521:556   */\n      swap1\n      pop\n        /* \"#utility.yul\":466:562   */\n      swap2\n      swap1\n      pop\n      jump\t// out\n        /* \"#utility.yul\":568:690   */\n    tag_115:\n        /* \"#utility.yul\":641:665   */\n      tag_170\n        /* \"#utility.yul\":659:664   */\n      dup2\n        /* \"#utility.yul\":641:665   */\n      tag_114\n      jump\t// in\n    tag_170:\n        /* \"#utility.yul\":634:639   */\n      dup2\n        /* \"#utility.yul\":631:666   */\n      eq\n        /* \"#utility.yul\":621:684   */\n      tag_171\n      jumpi\n        /* \"#utility.yul\":680:681   */\n      0x00\n        /* \"#utility.yul\":677:678   */\n      dup1\n        /* \"#utility.yul\":670:682   */\n      revert\n        /* \"#utility.yul\":621:684   */\n    tag_171:\n        /* \"#utility.yul\":568:690   */\n      pop\n      jump\t// out\n        /* \"#utility.yul\":696:835   */\n    tag_116:\n        /* \"#utility.yul\":742:747   */\n      0x00\n        /* \"#utility.yul\":780:786   */\n      dup2\n        /* \"#utility.yul\":767:787   */\n      calldataload\n        /* \"#utility.yul\":758:787   */\n      swap1\n      pop\n        /* \"#utility.yul\":796:829   */\n      tag_173\n        /* \"#utility.yul\":823:828   */\n      dup2\n        /* \"#utility.yul\":796:829   */\n      tag_115\n      jump\t// in\n    tag_173:\n        /* \"#utility.yul\":696:835   */\n      swap3\n      swap2\n      pop\n      pop\n      jump\t// out\n        /* \"#utility.yul\":841:1170   */\n    tag_20:\n        /* \"#utility.yul\":900:906   */\n      0x00\n        /* \"#utility.yul\":949:951   */\n      0x20\n        /* \"#utility.yul\":937:946   */\n      dup3\n        /* \"#utility.yul\":928:935   */\n      dup5\n        /* \"#utility.yul\":924:947   */\n      sub\n        /* \"#utility.yul\":920:952   */\n      slt\n        /* \"#utility.yul\":917:1036   */\n      iszero\n      tag_175\n      jumpi\n        /* \"#utility.yul\":955:1034   */\n      tag_176\n      tag_111\n      jump\t// in\n    tag_176:\n        /* \"#utility.yul\":917:1036   */\n    tag_175:\n        /* \"#utility.yul\":1075:1076   */\n      0x00\n        /* \"#utility.yul\":1100:1153   */\n      tag_177\n        /* \"#utility.yul\":1145:1152   */\n      dup5\n        /* \"#utility.yul\":1136:1142   */\n      dup3\n        /* \"#utility.yul\":1125:1134   */\n      dup6\n        /* \"#utility.yul\":1121:1143   */\n      add\n        /* \"#utility.yul\":1100:1153   */\n      tag_116\n      jump\t// in\n    tag_177:\n        /* \"#utility.yul\":1090:1153   */\n      swap2\n      pop\n        /* \"#utility.yul\":1046:1163   */\n      pop\n        /* \"#utility.yul\":841:1170   */\n      swap3\n      swap2\n      pop\n      pop\n      jump\t// out\n        /* \"#utility.yul\":1176:1275   */\n    tag_117:\n        /* \"#utility.yul\":1228:1234   */\n      0x00\n        /* \"#utility.yul\":1262:1267   */\n      dup2\n        /* \"#utility.yul\":1256:1268   */\n      mload\n        /* \"#utility.yul\":1246:1268   */\n      swap1\n      pop\n        /* \"#utility.yul\":1176:1275   */\n      swap2\n      swap1\n      pop\n      jump\t// out\n        /* \"#utility.yul\":1281:1450   */\n    tag_118:\n        /* \"#utility.yul\":1365:1376   */\n      0x00\n        /* \"#utility.yul\":1399:1405   */\n      dup3\n        /* \"#utility.yul\":1394:1397   */\n      dup3\n        /* \"#utility.yul\":1387:1406   */\n      mstore\n        /* \"#utility.yul\":1439:1443   */\n      0x20\n        /* \"#utility.yul\":1434:1437   */\n      dup3\n        /* \"#utility.yul\":1430:1444   */\n      add\n        /* \"#utility.yul\":1415:1444   */\n      swap1\n      pop\n        /* \"#utility.yul\":1281:1450   */\n      swap3\n      swap2\n      pop\n      pop\n      jump\t// out\n        /* \"#utility.yul\":1456:1702   */\n    tag_119:\n        /* \"#utility.yul\":1537:1538   */\n      0x00\n        /* \"#utility.yul\":1547:1660   */\n    tag_181:\n        /* \"#utility.yul\":1561:1567   */\n      dup4\n        /* \"#utility.yul\":1558:1559   */\n      dup2\n        /* \"#utility.yul\":1555:1568   */\n      lt\n        /* \"#utility.yul\":1547:1660   */\n      iszero\n      tag_183\n      jumpi\n        /* \"#utility.yul\":1646:1647   */\n      dup1\n        /* \"#utility.yul\":1641:1644   */\n      dup3\n        /* \"#utility.yul\":1637:1648   */\n      add\n        /* \"#utility.yul\":1631:1649   */\n      mload\n        /* \"#utility.yul\":1627:1628   */\n      dup2\n        /* \"#utility.yul\":1622:1625   */\n      dup5\n        /* \"#utility.yul\":1618:1629   */\n      add\n        /* \"#utility.yul\":1611:1650   */\n      mstore\n        /* \"#utility.yul\":1583:1585   */\n      0x20\n        /* \"#utility.yul\":1580:1581   */\n      dup2\n        /* \"#utility.yul\":1576:1586   */\n      add\n        /* \"#utility.yul\":1571:1586   */\n      swap1\n      pop\n        /* \"#utility.yul\":1547:1660   */\n      jump(tag_181)\n    tag_183:\n        /* \"#utility.yul\":1694:1695   */\n      0x00\n        /* \"#utility.yul\":1685:1691   */\n      dup5\n        /* \"#utility.yul\":1680:1683   */\n      dup5\n        /* \"#utility.yul\":1676:1692   */\n      add\n        /* \"#utility.yul\":1669:1696   */\n      mstore\n        /* \"#utility.yul\":1518:1702   */\n      pop\n        /* \"#utility.yul\":1456:1702   */\n      pop\n      pop\n      pop\n      jump\t// out\n        /* \"#utility.yul\":1708:1810   */\n    tag_120:\n        /* \"#utility.yul\":1749:1755   */\n      0x00\n        /* \"#utility.yul\":1800:1802   */\n      0x1f\n        /* \"#utility.yul\":1796:1803   */\n      not\n        /* \"#utility.yul\":1791:1793   */\n      0x1f\n        /* \"#utility.yul\":1784:1789   */\n      dup4\n        /* \"#utility.yul\":1780:1794   */\n      add\n        /* \"#utility.yul\":1776:1804   */\n      and\n        /* \"#utility.yul\":1766:1804   */\n      swap1\n      pop\n        /* \"#utility.yul\":1708:1810   */\n      swap2\n      swap1\n      pop\n      jump\t// out\n        /* \"#utility.yul\":1816:2193   */\n    tag_121:\n        /* \"#utility.yul\":1904:1907   */\n      0x00\n        /* \"#utility.yul\":1932:1971   */\n      tag_186\n        /* \"#utility.yul\":1965:1970   */\n      dup3\n        /* \"#utility.yul\":1932:1971   */\n      tag_117\n      jump\t// in\n    tag_186:\n        /* \"#utility.yul\":1987:2058   */\n      tag_187\n        /* \"#utility.yul\":2051:2057   */\n      dup2\n        /* \"#utility.yul\":2046:2049   */\n      dup6\n        /* \"#utility.yul\":1987:2058   */\n      tag_118\n      jump\t// in\n    tag_187:\n        /* \"#utility.yul\":1980:2058   */\n      swap4\n      pop\n        /* \"#utility.yul\":2067:2132   */\n      tag_188\n        /* \"#utility.yul\":2125:2131   */\n      dup2\n        /* \"#utility.yul\":2120:2123   */\n      dup6\n        /* \"#utility.yul\":2113:2117   */\n      0x20\n        /* \"#utility.yul\":2106:2111   */\n      dup7\n        /* \"#utility.yul\":2102:2118   */\n      add\n        /* \"#utility.yul\":2067:2132   */\n      tag_119\n      jump\t// in\n    tag_188:\n        /* \"#utility.yul\":2157:2186   */\n      tag_189\n        /* \"#utility.yul\":2179:2185   */\n      dup2\n        /* \"#utility.yul\":2157:2186   */\n      tag_120\n      jump\t// in\n    tag_189:\n        /* \"#utility.yul\":2152:2155   */\n      dup5\n        /* \"#utility.yul\":2148:2187   */\n      add\n        /* \"#utility.yul\":2141:2187   */\n      swap2\n      pop\n        /* \"#utility.yul\":1908:2193   */\n      pop\n        /* \"#utility.yul\":1816:2193   */\n      swap3\n      swap2\n      pop\n      pop\n      jump\t// out\n        /* \"#utility.yul\":2199:2276   */\n    tag_122:\n        /* \"#utility.yul\":2236:2243   */\n      0x00\n        /* \"#utility.yul\":2265:2270   */\n      dup2\n        /* \"#utility.yul\":2254:2270   */\n      swap1\n      pop\n        /* \"#utility.yul\":2199:2276   */\n      swap2\n      swap1\n      pop\n      jump\t// out\n        /* \"#utility.yul\":2282:2400   */\n    tag_123:\n        /* \"#utility.yul\":2369:2393   */\n      tag_192\n        /* \"#utility.yul\":2387:2392   */\n      dup2\n        /* \"#utility.yul\":2369:2393   */\n      tag_122\n      jump\t// in\n    tag_192:\n        /* \"#utility.yul\":2364:2367   */\n      dup3\n        /* \"#utility.yul\":2357:2394   */\n      mstore\n        /* \"#utility.yul\":2282:2400   */\n      pop\n      pop\n      jump\t// out\n        /* \"#utility.yul\":2406:2496   */\n    tag_124:\n        /* \"#utility.yul\":2440:2447   */\n      0x00\n        /* \"#utility.yul\":2483:2488   */\n      dup2\n        /* \"#utility.yul\":2476:2489   */\n      iszero\n        /* \"#utility.yul\":2469:2490   */\n      iszero\n        /* \"#utility.yul\":2458:2490   */\n      swap1\n      pop\n        /* \"#utility.yul\":2406:2496   */\n      swap2\n      swap1\n      pop\n      jump\t// out\n        /* \"#utility.yul\":2502:2611   */\n    tag_125:\n        /* \"#utility.yul\":2583:2604   */\n      tag_195\n        /* \"#utility.yul\":2598:2603   */\n      dup2\n        /* \"#utility.yul\":2583:2604   */\n      tag_124\n      jump\t// in\n    tag_195:\n        /* \"#utility.yul\":2578:2581   */\n      dup3\n        /* \"#utility.yul\":2571:2605   */\n      mstore\n        /* \"#utility.yul\":2502:2611   */\n      pop\n      pop\n      jump\t// out\n        /* \"#utility.yul\":2617:3138   */\n    tag_23:\n        /* \"#utility.yul\":2780:2784   */\n      0x00\n        /* \"#utility.yul\":2818:2820   */\n      0x60\n        /* \"#utility.yul\":2807:2816   */\n      dup3\n        /* \"#utility.yul\":2803:2821   */\n      add\n        /* \"#utility.yul\":2795:2821   */\n      swap1\n      pop\n        /* \"#utility.yul\":2867:2876   */\n      dup2\n        /* \"#utility.yul\":2861:2865   */\n      dup2\n        /* \"#utility.yul\":2857:2877   */\n      sub\n        /* \"#utility.yul\":2853:2854   */\n      0x00\n        /* \"#utility.yul\":2842:2851   */\n      dup4\n        /* \"#utility.yul\":2838:2855   */\n      add\n        /* \"#utility.yul\":2831:2878   */\n      mstore\n        /* \"#utility.yul\":2895:2973   */\n      tag_197\n        /* \"#utility.yul\":2968:2972   */\n      dup2\n        /* \"#utility.yul\":2959:2965   */\n      dup7\n        /* \"#utility.yul\":2895:2973   */\n      tag_121\n      jump\t// in\n    tag_197:\n        /* \"#utility.yul\":2887:2973   */\n      swap1\n      pop\n        /* \"#utility.yul\":2983:3055   */\n      tag_198\n        /* \"#utility.yul\":3051:3053   */\n      0x20\n        /* \"#utility.yul\":3040:3049   */\n      dup4\n        /* \"#utility.yul\":3036:3054   */\n      add\n        /* \"#utility.yul\":3027:3033   */\n      dup6\n        /* \"#utility.yul\":2983:3055   */\n      tag_123\n      jump\t// in\n    tag_198:\n        /* \"#utility.yul\":3065:3131   */\n      tag_199\n        /* \"#utility.yul\":3127:3129   */\n      0x40\n        /* \"#utility.yul\":3116:3125   */\n      dup4\n        /* \"#utility.yul\":3112:3130   */\n      add\n        /* \"#utility.yul\":3103:3109   */\n      dup5\n        /* \"#utility.yul\":3065:3131   */\n      tag_125\n      jump\t// in\n    tag_199:\n        /* \"#utility.yul\":2617:3138   */\n      swap5\n      swap4\n      pop\n      pop\n      pop\n      pop\n      jump\t// out\n        /* \"#utility.yul\":3144:3262   */\n    tag_126:\n        /* \"#utility.yul\":3231:3255   */\n      tag_201\n        /* \"#utility.yul\":3249:3254   */\n      dup2\n        /* \"#utility.yul\":3231:3255   */\n      tag_114\n      jump\t// in\n    tag_201:\n        /* \"#utility.yul\":3226:3229   */\n      dup3\n        /* \"#utility.yul\":3219:3256   */\n      mstore\n        /* \"#utility.yul\":3144:3262   */\n      pop\n      pop\n      jump\t// out\n        /* \"#utility.yul\":3268:3490   */\n    tag_28:\n        /* \"#utility.yul\":3361:3365   */\n      0x00\n        /* \"#utility.yul\":3399:3401   */\n      0x20\n        /* \"#utility.yul\":3388:3397   */\n      dup3\n        /* \"#utility.yul\":3384:3402   */\n      add\n        /* \"#utility.yul\":3376:3402   */\n      swap1\n      pop\n        /* \"#utility.yul\":3412:3483   */\n      tag_203\n        /* \"#utility.yul\":3480:3481   */\n      0x00\n        /* \"#utility.yul\":3469:3478   */\n      dup4\n        /* \"#utility.yul\":3465:3482   */\n      add\n        /* \"#utility.yul\":3456:3462   */\n      dup5\n        /* \"#utility.yul\":3412:3483   */\n      tag_126\n      jump\t// in\n    tag_203:\n        /* \"#utility.yul\":3268:3490   */\n      swap3\n      swap2\n      pop\n      pop\n      jump\t// out\n        /* \"#utility.yul\":3496:3613   */\n    tag_127:\n        /* \"#utility.yul\":3605:3606   */\n      0x00\n        /* \"#utility.yul\":3602:3603   */\n      dup1\n        /* \"#utility.yul\":3595:3607   */\n      revert\n        /* \"#utility.yul\":3619:3736   */\n    tag_128:\n        /* \"#utility.yul\":3728:3729   */\n      0x00\n        /* \"#utility.yul\":3725:3726   */\n      dup1\n        /* \"#utility.yul\":3718:3730   */\n      revert\n        /* \"#utility.yul\":3742:3922   */\n    tag_129:\n        /* \"#utility.yul\":3790:3867   */\n      0x4e487b7100000000000000000000000000000000000000000000000000000000\n        /* \"#utility.yul\":3787:3788   */\n      0x00\n        /* \"#utility.yul\":3780:3868   */\n      mstore\n        /* \"#utility.yul\":3887:3891   */\n      0x41\n        /* \"#utility.yul\":3884:3885   */\n      0x04\n        /* \"#utility.yul\":3877:3892   */\n      mstore\n        /* \"#utility.yul\":3911:3915   */\n      0x24\n        /* \"#utility.yul\":3908:3909   */\n      0x00\n        /* \"#utility.yul\":3901:3916   */\n      revert\n        /* \"#utility.yul\":3928:4209   */\n    tag_130:\n        /* \"#utility.yul\":4011:4038   */\n      tag_208\n        /* \"#utility.yul\":4033:4037   */\n      dup3\n        /* \"#utility.yul\":4011:4038   */\n      tag_120\n      jump\t// in\n    tag_208:\n        /* \"#utility.yul\":4003:4009   */\n      dup2\n        /* \"#utility.yul\":3999:4039   */\n      add\n        /* \"#utility.yul\":4141:4147   */\n      dup2\n        /* \"#utility.yul\":4129:4139   */\n      dup2\n        /* \"#utility.yul\":4126:4148   */\n      lt\n        /* \"#utility.yul\":4105:4123   */\n      0xffffffffffffffff\n        /* \"#utility.yul\":4093:4103   */\n      dup3\n        /* \"#utility.yul\":4090:4124   */\n      gt\n        /* \"#utility.yul\":4087:4149   */\n      or\n        /* \"#utility.yul\":4084:4172   */\n      iszero\n      tag_209\n      jumpi\n        /* \"#utility.yul\":4152:4170   */\n      tag_210\n      tag_129\n      jump\t// in\n    tag_210:\n        /* \"#utility.yul\":4084:4172   */\n    tag_209:\n        /* \"#utility.yul\":4192:4202   */\n      dup1\n        /* \"#utility.yul\":4188:4190   */\n      0x40\n        /* \"#utility.yul\":4181:4203   */\n      mstore\n        /* \"#utility.yul\":3971:4209   */\n      pop\n        /* \"#utility.yul\":3928:4209   */\n      pop\n      pop\n      jump\t// out\n        /* \"#utility.yul\":4215:4344   */\n    tag_131:\n        /* \"#utility.yul\":4249:4255   */\n      0x00\n        /* \"#utility.yul\":4276:4296   */\n      tag_212\n      tag_110\n      jump\t// in\n    tag_212:\n        /* \"#utility.yul\":4266:4296   */\n      swap1\n      pop\n        /* \"#utility.yul\":4305:4338   */\n      tag_213\n        /* \"#utility.yul\":4333:4337   */\n      dup3\n        /* \"#utility.yul\":4325:4331   */\n      dup3\n        /* \"#utility.yul\":4305:4338   */\n      tag_130\n      jump\t// in\n    tag_213:\n        /* \"#utility.yul\":4215:4344   */\n      swap2\n      swap1\n      pop\n      jump\t// out\n        /* \"#utility.yul\":4350:4658   */\n    tag_132:\n        /* \"#utility.yul\":4412:4416   */\n      0x00\n        /* \"#utility.yul\":4502:4520   */\n      0xffffffffffffffff\n        /* \"#utility.yul\":4494:4500   */\n      dup3\n        /* \"#utility.yul\":4491:4521   */\n      gt\n        /* \"#utility.yul\":4488:4544   */\n      iszero\n      tag_215\n      jumpi\n        /* \"#utility.yul\":4524:4542   */\n      tag_216\n      tag_129\n      jump\t// in\n    tag_216:\n        /* \"#utility.yul\":4488:4544   */\n    tag_215:\n        /* \"#utility.yul\":4562:4591   */\n      tag_217\n        /* \"#utility.yul\":4584:4590   */\n      dup3\n        /* \"#utility.yul\":4562:4591   */\n      tag_120\n      jump\t// in\n    tag_217:\n        /* \"#utility.yul\":4554:4591   */\n      swap1\n      pop\n        /* \"#utility.yul\":4646:4650   */\n      0x20\n        /* \"#utility.yul\":4640:4644   */\n      dup2\n        /* \"#utility.yul\":4636:4651   */\n      add\n        /* \"#utility.yul\":4628:4651   */\n      swap1\n      pop\n        /* \"#utility.yul\":4350:4658   */\n      swap2\n      swap1\n      pop\n      jump\t// out\n        /* \"#utility.yul\":4664:4810   */\n    tag_133:\n        /* \"#utility.yul\":4761:4767   */\n      dup3\n        /* \"#utility.yul\":4756:4759   */\n      dup2\n        /* \"#utility.yul\":4751:4754   */\n      dup4\n        /* \"#utility.yul\":4738:4768   */\n      calldatacopy\n        /* \"#utility.yul\":4802:4803   */\n      0x00\n        /* \"#utility.yul\":4793:4799   */\n      dup4\n        /* \"#utility.yul\":4788:4791   */\n      dup4\n        /* \"#utility.yul\":4784:4800   */\n      add\n        /* \"#utility.yul\":4777:4804   */\n      mstore\n        /* \"#utility.yul\":4664:4810   */\n      pop\n      pop\n      pop\n      jump\t// out\n        /* \"#utility.yul\":4816:5241   */\n    tag_134:\n        /* \"#utility.yul\":4894:4899   */\n      0x00\n        /* \"#utility.yul\":4919:4985   */\n      tag_220\n        /* \"#utility.yul\":4935:4984   */\n      tag_221\n        /* \"#utility.yul\":4977:4983   */\n      dup5\n        /* \"#utility.yul\":4935:4984   */\n      tag_132\n      jump\t// in\n    tag_221:\n        /* \"#utility.yul\":4919:4985   */\n      tag_131\n      jump\t// in\n    tag_220:\n        /* \"#utility.yul\":4910:4985   */\n      swap1\n      pop\n        /* \"#utility.yul\":5008:5014   */\n      dup3\n        /* \"#utility.yul\":5001:5006   */\n      dup2\n        /* \"#utility.yul\":4994:5015   */\n      mstore\n        /* \"#utility.yul\":5046:5050   */\n      0x20\n        /* \"#utility.yul\":5039:5044   */\n      dup2\n        /* \"#utility.yul\":5035:5051   */\n      add\n        /* \"#utility.yul\":5084:5087   */\n      dup5\n        /* \"#utility.yul\":5075:5081   */\n      dup5\n        /* \"#utility.yul\":5070:5073   */\n      dup5\n        /* \"#utility.yul\":5066:5082   */\n      add\n        /* \"#utility.yul\":5063:5088   */\n      gt\n        /* \"#utility.yul\":5060:5172   */\n      iszero\n      tag_222\n      jumpi\n        /* \"#utility.yul\":5091:5170   */\n      tag_223\n      tag_128\n      jump\t// in\n    tag_223:\n        /* \"#utility.yul\":5060:5172   */\n    tag_222:\n        /* \"#utility.yul\":5181:5235   */\n      tag_224\n        /* \"#utility.yul\":5228:5234   */\n      dup5\n        /* \"#utility.yul\":5223:5226   */\n      dup3\n        /* \"#utility.yul\":5218:5221   */\n      dup6\n        /* \"#utility.yul\":5181:5235   */\n      tag_133\n      jump\t// in\n    tag_224:\n        /* \"#utility.yul\":4900:5241   */\n      pop\n        /* \"#utility.yul\":4816:5241   */\n      swap4\n      swap3\n      pop\n      pop\n      pop\n      jump\t// out\n        /* \"#utility.yul\":5261:5601   */\n    tag_135:\n        /* \"#utility.yul\":5317:5322   */\n      0x00\n        /* \"#utility.yul\":5366:5369   */\n      dup3\n        /* \"#utility.yul\":5359:5363   */\n      0x1f\n        /* \"#utility.yul\":5351:5357   */\n      dup4\n        /* \"#utility.yul\":5347:5364   */\n      add\n        /* \"#utility.yul\":5343:5370   */\n      slt\n        /* \"#utility.yul\":5333:5455   */\n      tag_226\n      jumpi\n        /* \"#utility.yul\":5374:5453   */\n      tag_227\n      tag_127\n      jump\t// in\n    tag_227:\n        /* \"#utility.yul\":5333:5455   */\n    tag_226:\n        /* \"#utility.yul\":5491:5497   */\n      dup2\n        /* \"#utility.yul\":5478:5498   */\n      calldataload\n        /* \"#utility.yul\":5516:5595   */\n      tag_228\n        /* \"#utility.yul\":5591:5594   */\n      dup5\n        /* \"#utility.yul\":5583:5589   */\n      dup3\n        /* \"#utility.yul\":5576:5580   */\n      0x20\n        /* \"#utility.yul\":5568:5574   */\n      dup7\n        /* \"#utility.yul\":5564:5581   */\n      add\n        /* \"#utility.yul\":5516:5595   */\n      tag_134\n      jump\t// in\n    tag_228:\n        /* \"#utility.yul\":5507:5595   */\n      swap2\n      pop\n        /* \"#utility.yul\":5323:5601   */\n      pop\n        /* \"#utility.yul\":5261:5601   */\n      swap3\n      swap2\n      pop\n      pop\n      jump\t// out\n        /* \"#utility.yul\":5607:6116   */\n    tag_31:\n        /* \"#utility.yul\":5676:5682   */\n      0x00\n        /* \"#utility.yul\":5725:5727   */\n      0x20\n        /* \"#utility.yul\":5713:5722   */\n      dup3\n        /* \"#utility.yul\":5704:5711   */\n      dup5\n        /* \"#utility.yul\":5700:5723   */\n      sub\n        /* \"#utility.yul\":5696:5728   */\n      slt\n        /* \"#utility.yul\":5693:5812   */\n      iszero\n      tag_230\n      jumpi\n        /* \"#utility.yul\":5731:5810   */\n      tag_231\n      tag_111\n      jump\t// in\n    tag_231:\n        /* \"#utility.yul\":5693:5812   */\n    tag_230:\n        /* \"#utility.yul\":5879:5880   */\n      0x00\n        /* \"#utility.yul\":5868:5877   */\n      dup3\n        /* \"#utility.yul\":5864:5881   */\n      add\n        /* \"#utility.yul\":5851:5882   */\n      calldataload\n        /* \"#utility.yul\":5909:5927   */\n      0xffffffffffffffff\n        /* \"#utility.yul\":5901:5907   */\n      dup2\n        /* \"#utility.yul\":5898:5928   */\n      gt\n        /* \"#utility.yul\":5895:6012   */\n      iszero\n      tag_232\n      jumpi\n        /* \"#utility.yul\":5931:6010   */\n      tag_233\n      tag_112\n      jump\t// in\n    tag_233:\n        /* \"#utility.yul\":5895:6012   */\n    tag_232:\n        /* \"#utility.yul\":6036:6099   */\n      tag_234\n        /* \"#utility.yul\":6091:6098   */\n      dup5\n        /* \"#utility.yul\":6082:6088   */\n      dup3\n        /* \"#utility.yul\":6071:6080   */\n      dup6\n        /* \"#utility.yul\":6067:6089   */\n      add\n        /* \"#utility.yul\":6036:6099   */\n      tag_135\n      jump\t// in\n    tag_234:\n        /* \"#utility.yul\":6026:6099   */\n      swap2\n      pop\n        /* \"#utility.yul\":5822:6109   */\n      pop\n        /* \"#utility.yul\":5607:6116   */\n      swap3\n      swap2\n      pop\n      pop\n      jump\t// out\n        /* \"#utility.yul\":6122:6244   */\n    tag_136:\n        /* \"#utility.yul\":6195:6219   */\n      tag_236\n        /* \"#utility.yul\":6213:6218   */\n      dup2\n        /* \"#utility.yul\":6195:6219   */\n      tag_122\n      jump\t// in\n    tag_236:\n        /* \"#utility.yul\":6188:6193   */\n      dup2\n        /* \"#utility.yul\":6185:6220   */\n      eq\n        /* \"#utility.yul\":6175:6238   */\n      tag_237\n      jumpi\n        /* \"#utility.yul\":6234:6235   */\n      0x00\n        /* \"#utility.yul\":6231:6232   */\n      dup1\n        /* \"#utility.yul\":6224:6236   */\n      revert\n        /* \"#utility.yul\":6175:6238   */\n    tag_237:\n        /* \"#utility.yul\":6122:6244   */\n      pop\n      jump\t// out\n        /* \"#utility.yul\":6250:6389   */\n    tag_137:\n        /* \"#utility.yul\":6296:6301   */\n      0x00\n        /* \"#utility.yul\":6334:6340   */\n      dup2\n        /* \"#utility.yul\":6321:6341   */\n      calldataload\n        /* \"#utility.yul\":6312:6341   */\n      swap1\n      pop\n        /* \"#utility.yul\":6350:6383   */\n      tag_239\n        /* \"#utility.yul\":6377:6382   */\n      dup2\n        /* \"#utility.yul\":6350:6383   */\n      tag_136\n      jump\t// in\n    tag_239:\n        /* \"#utility.yul\":6250:6389   */\n      swap3\n      swap2\n      pop\n      pop\n      jump\t// out\n        /* \"#utility.yul\":6395:6869   */\n    tag_36:\n        /* \"#utility.yul\":6463:6469   */\n      0x00\n        /* \"#utility.yul\":6471:6477   */\n      dup1\n        /* \"#utility.yul\":6520:6522   */\n      0x40\n        /* \"#utility.yul\":6508:6517   */\n      dup4\n        /* \"#utility.yul\":6499:6506   */\n      dup6\n        /* \"#utility.yul\":6495:6518   */\n      sub\n        /* \"#utility.yul\":6491:6523   */\n      slt\n        /* \"#utility.yul\":6488:6607   */\n      iszero\n      tag_241\n      jumpi\n        /* \"#utility.yul\":6526:6605   */\n      tag_242\n      tag_111\n      jump\t// in\n    tag_242:\n        /* \"#utility.yul\":6488:6607   */\n    tag_241:\n        /* \"#utility.yul\":6646:6647   */\n      0x00\n        /* \"#utility.yul\":6671:6724   */\n      tag_243\n        /* \"#utility.yul\":6716:6723   */\n      dup6\n        /* \"#utility.yul\":6707:6713   */\n      dup3\n        /* \"#utility.yul\":6696:6705   */\n      dup7\n        /* \"#utility.yul\":6692:6714   */\n      add\n        /* \"#utility.yul\":6671:6724   */\n      tag_116\n      jump\t// in\n    tag_243:\n        /* \"#utility.yul\":6661:6724   */\n      swap3\n      pop\n        /* \"#utility.yul\":6617:6734   */\n      pop\n        /* \"#utility.yul\":6773:6775   */\n      0x20\n        /* \"#utility.yul\":6799:6852   */\n      tag_244\n        /* \"#utility.yul\":6844:6851   */\n      dup6\n        /* \"#utility.yul\":6835:6841   */\n      dup3\n        /* \"#utility.yul\":6824:6833   */\n      dup7\n        /* \"#utility.yul\":6820:6842   */\n      add\n        /* \"#utility.yul\":6799:6852   */\n      tag_137\n      jump\t// in\n    tag_244:\n        /* \"#utility.yul\":6789:6852   */\n      swap2\n      pop\n        /* \"#utility.yul\":6744:6862   */\n      pop\n        /* \"#utility.yul\":6395:6869   */\n      swap3\n      pop\n      swap3\n      swap1\n      pop\n      jump\t// out\n        /* \"#utility.yul\":6875:7050   */\n    tag_138:\n        /* \"#utility.yul\":7015:7042   */\n      0x4f6e6c79206f776e65722063616e20646f207468697320666e00000000000000\n        /* \"#utility.yul\":7011:7012   */\n      0x00\n        /* \"#utility.yul\":7003:7009   */\n      dup3\n        /* \"#utility.yul\":6999:7013   */\n      add\n        /* \"#utility.yul\":6992:7043   */\n      mstore\n        /* \"#utility.yul\":6875:7050   */\n      pop\n      jump\t// out\n        /* \"#utility.yul\":7056:7422   */\n    tag_139:\n        /* \"#utility.yul\":7198:7201   */\n      0x00\n        /* \"#utility.yul\":7219:7286   */\n      tag_247\n        /* \"#utility.yul\":7283:7285   */\n      0x19\n        /* \"#utility.yul\":7278:7281   */\n      dup4\n        /* \"#utility.yul\":7219:7286   */\n      tag_118\n      jump\t// in\n    tag_247:\n        /* \"#utility.yul\":7212:7286   */\n      swap2\n      pop\n        /* \"#utility.yul\":7295:7388   */\n      tag_248\n        /* \"#utility.yul\":7384:7387   */\n      dup3\n        /* \"#utility.yul\":7295:7388   */\n      tag_138\n      jump\t// in\n    tag_248:\n        /* \"#utility.yul\":7413:7415   */\n      0x20\n        /* \"#utility.yul\":7408:7411   */\n      dup3\n        /* \"#utility.yul\":7404:7416   */\n      add\n        /* \"#utility.yul\":7397:7416   */\n      swap1\n      pop\n        /* \"#utility.yul\":7056:7422   */\n      swap2\n      swap1\n      pop\n      jump\t// out\n        /* \"#utility.yul\":7428:7847   */\n    tag_41:\n        /* \"#utility.yul\":7594:7598   */\n      0x00\n        /* \"#utility.yul\":7632:7634   */\n      0x20\n        /* \"#utility.yul\":7621:7630   */\n      dup3\n        /* \"#utility.yul\":7617:7635   */\n      add\n        /* \"#utility.yul\":7609:7635   */\n      swap1\n      pop\n        /* \"#utility.yul\":7681:7690   */\n      dup2\n        /* \"#utility.yul\":7675:7679   */\n      dup2\n        /* \"#utility.yul\":7671:7691   */\n      sub\n        /* \"#utility.yul\":7667:7668   */\n      0x00\n        /* \"#utility.yul\":7656:7665   */\n      dup4\n        /* \"#utility.yul\":7652:7669   */\n      add\n        /* \"#utility.yul\":7645:7692   */\n      mstore\n        /* \"#utility.yul\":7709:7840   */\n      tag_250\n        /* \"#utility.yul\":7835:7839   */\n      dup2\n        /* \"#utility.yul\":7709:7840   */\n      tag_139\n      jump\t// in\n    tag_250:\n        /* \"#utility.yul\":7701:7840   */\n      swap1\n      pop\n        /* \"#utility.yul\":7428:7847   */\n      swap2\n      swap1\n      pop\n      jump\t// out\n        /* \"#utility.yul\":7853:8014   */\n    tag_140:\n        /* \"#utility.yul\":7993:8006   */\n      0x4e6f2077696e6e6e657273000000000000000000000000000000000000000000\n        /* \"#utility.yul\":7989:7990   */\n      0x00\n        /* \"#utility.yul\":7981:7987   */\n      dup3\n        /* \"#utility.yul\":7977:7991   */\n      add\n        /* \"#utility.yul\":7970:8007   */\n      mstore\n        /* \"#utility.yul\":7853:8014   */\n      pop\n      jump\t// out\n        /* \"#utility.yul\":8020:8386   */\n    tag_141:\n        /* \"#utility.yul\":8162:8165   */\n      0x00\n        /* \"#utility.yul\":8183:8250   */\n      tag_253\n        /* \"#utility.yul\":8247:8249   */\n      0x0b\n        /* \"#utility.yul\":8242:8245   */\n      dup4\n        /* \"#utility.yul\":8183:8250   */\n      tag_118\n      jump\t// in\n    tag_253:\n        /* \"#utility.yul\":8176:8250   */\n      swap2\n      pop\n        /* \"#utility.yul\":8259:8352   */\n      tag_254\n        /* \"#utility.yul\":8348:8351   */\n      dup3\n        /* \"#utility.yul\":8259:8352   */\n      tag_140\n      jump\t// in\n    tag_254:\n        /* \"#utility.yul\":8377:8379   */\n      0x20\n        /* \"#utility.yul\":8372:8375   */\n      dup3\n        /* \"#utility.yul\":8368:8380   */\n      add\n        /* \"#utility.yul\":8361:8380   */\n      swap1\n      pop\n        /* \"#utility.yul\":8020:8386   */\n      swap2\n      swap1\n      pop\n      jump\t// out\n        /* \"#utility.yul\":8392:8811   */\n    tag_45:\n        /* \"#utility.yul\":8558:8562   */\n      0x00\n        /* \"#utility.yul\":8596:8598   */\n      0x20\n        /* \"#utility.yul\":8585:8594   */\n      dup3\n        /* \"#utility.yul\":8581:8599   */\n      add\n        /* \"#utility.yul\":8573:8599   */\n      swap1\n      pop\n        /* \"#utility.yul\":8645:8654   */\n      dup2\n        /* \"#utility.yul\":8639:8643   */\n      dup2\n        /* \"#utility.yul\":8635:8655   */\n      sub\n        /* \"#utility.yul\":8631:8632   */\n      0x00\n        /* \"#utility.yul\":8620:8629   */\n      dup4\n        /* \"#utility.yul\":8616:8633   */\n      add\n        /* \"#utility.yul\":8609:8656   */\n      mstore\n        /* \"#utility.yul\":8673:8804   */\n      tag_256\n        /* \"#utility.yul\":8799:8803   */\n      dup2\n        /* \"#utility.yul\":8673:8804   */\n      tag_141\n      jump\t// in\n    tag_256:\n        /* \"#utility.yul\":8665:8804   */\n      swap1\n      pop\n        /* \"#utility.yul\":8392:8811   */\n      swap2\n      swap1\n      pop\n      jump\t// out\n        /* \"#utility.yul\":8817:8997   */\n    tag_142:\n        /* \"#utility.yul\":8865:8942   */\n      0x4e487b7100000000000000000000000000000000000000000000000000000000\n        /* \"#utility.yul\":8862:8863   */\n      0x00\n        /* \"#utility.yul\":8855:8943   */\n      mstore\n        /* \"#utility.yul\":8962:8966   */\n      0x12\n        /* \"#utility.yul\":8959:8960   */\n      0x04\n        /* \"#utility.yul\":8952:8967   */\n      mstore\n        /* \"#utility.yul\":8986:8990   */\n      0x24\n        /* \"#utility.yul\":8983:8984   */\n      0x00\n        /* \"#utility.yul\":8976:8991   */\n      revert\n        /* \"#utility.yul\":9003:9183   */\n    tag_143:\n        /* \"#utility.yul\":9051:9128   */\n      0x4e487b7100000000000000000000000000000000000000000000000000000000\n        /* \"#utility.yul\":9048:9049   */\n      0x00\n        /* \"#utility.yul\":9041:9129   */\n      mstore\n        /* \"#utility.yul\":9148:9152   */\n      0x11\n        /* \"#utility.yul\":9145:9146   */\n      0x04\n        /* \"#utility.yul\":9138:9153   */\n      mstore\n        /* \"#utility.yul\":9172:9176   */\n      0x24\n        /* \"#utility.yul\":9169:9170   */\n      0x00\n        /* \"#utility.yul\":9162:9177   */\n      revert\n        /* \"#utility.yul\":9189:9374   */\n    tag_47:\n        /* \"#utility.yul\":9229:9230   */\n      0x00\n        /* \"#utility.yul\":9246:9266   */\n      tag_260\n        /* \"#utility.yul\":9264:9265   */\n      dup3\n        /* \"#utility.yul\":9246:9266   */\n      tag_122\n      jump\t// in\n    tag_260:\n        /* \"#utility.yul\":9241:9266   */\n      swap2\n      pop\n        /* \"#utility.yul\":9280:9300   */\n      tag_261\n        /* \"#utility.yul\":9298:9299   */\n      dup4\n        /* \"#utility.yul\":9280:9300   */\n      tag_122\n      jump\t// in\n    tag_261:\n        /* \"#utility.yul\":9275:9300   */\n      swap3\n      pop\n        /* \"#utility.yul\":9319:9320   */\n      dup3\n        /* \"#utility.yul\":9309:9344   */\n      tag_262\n      jumpi\n        /* \"#utility.yul\":9324:9342   */\n      tag_263\n      tag_142\n      jump\t// in\n    tag_263:\n        /* \"#utility.yul\":9309:9344   */\n    tag_262:\n        /* \"#utility.yul\":9366:9367   */\n      dup3\n        /* \"#utility.yul\":9363:9364   */\n      dup3\n        /* \"#utility.yul\":9359:9368   */\n      div\n        /* \"#utility.yul\":9354:9368   */\n      swap1\n      pop\n        /* \"#utility.yul\":9189:9374   */\n      swap3\n      swap2\n      pop\n      pop\n      jump\t// out\n        /* \"#utility.yul\":9380:9560   */\n    tag_53:\n        /* \"#utility.yul\":9428:9505   */\n      0x4e487b7100000000000000000000000000000000000000000000000000000000\n        /* \"#utility.yul\":9425:9426   */\n      0x00\n        /* \"#utility.yul\":9418:9506   */\n      mstore\n        /* \"#utility.yul\":9525:9529   */\n      0x32\n        /* \"#utility.yul\":9522:9523   */\n      0x04\n        /* \"#utility.yul\":9515:9530   */\n      mstore\n        /* \"#utility.yul\":9549:9553   */\n      0x24\n        /* \"#utility.yul\":9546:9547   */\n      0x00\n        /* \"#utility.yul\":9539:9554   */\n      revert\n        /* \"#utility.yul\":9566:9799   */\n    tag_58:\n        /* \"#utility.yul\":9605:9608   */\n      0x00\n        /* \"#utility.yul\":9628:9652   */\n      tag_266\n        /* \"#utility.yul\":9646:9651   */\n      dup3\n        /* \"#utility.yul\":9628:9652   */\n      tag_122\n      jump\t// in\n    tag_266:\n        /* \"#utility.yul\":9619:9652   */\n      swap2\n      pop\n        /* \"#utility.yul\":9674:9740   */\n      0xffffffffffffffffffffffffffffffffffffffffffffffffffffffffffffffff\n        /* \"#utility.yul\":9667:9672   */\n      dup3\n        /* \"#utility.yul\":9664:9741   */\n      sub\n        /* \"#utility.yul\":9661:9764   */\n      tag_267\n      jumpi\n        /* \"#utility.yul\":9744:9762   */\n      tag_268\n      tag_143\n      jump\t// in\n    tag_268:\n        /* \"#utility.yul\":9661:9764   */\n    tag_267:\n        /* \"#utility.yul\":9791:9792   */\n      0x01\n        /* \"#utility.yul\":9784:9789   */\n      dup3\n        /* \"#utility.yul\":9780:9793   */\n      add\n        /* \"#utility.yul\":9773:9793   */\n      swap1\n      pop\n        /* \"#utility.yul\":9566:9799   */\n      swap2\n      swap1\n      pop\n      jump\t// out\n        /* \"#utility.yul\":9805:9985   */\n    tag_144:\n        /* \"#utility.yul\":9853:9930   */\n      0x4e487b7100000000000000000000000000000000000000000000000000000000\n        /* \"#utility.yul\":9850:9851   */\n      0x00\n        /* \"#utility.yul\":9843:9931   */\n      mstore\n        /* \"#utility.yul\":9950:9954   */\n      0x22\n        /* \"#utility.yul\":9947:9948   */\n      0x04\n        /* \"#utility.yul\":9940:9955   */\n      mstore\n        /* \"#utility.yul\":9974:9978   */\n      0x24\n        /* \"#utility.yul\":9971:9972   */\n      0x00\n        /* \"#utility.yul\":9964:9979   */\n      revert\n        /* \"#utility.yul\":9991:10311   */\n    tag_91:\n        /* \"#utility.yul\":10035:10041   */\n      0x00\n        /* \"#utility.yul\":10072:10073   */\n      0x02\n        /* \"#utility.yul\":10066:10070   */\n      dup3\n        /* \"#utility.yul\":10062:10074   */\n      div\n        /* \"#utility.yul\":10052:10074   */\n      swap1\n      pop\n        /* \"#utility.yul\":10119:10120   */\n      0x01\n        /* \"#utility.yul\":10113:10117   */\n      dup3\n        /* \"#utility.yul\":10109:10121   */\n      and\n        /* \"#utility.yul\":10140:10158   */\n      dup1\n        /* \"#utility.yul\":10130:10211   */\n      tag_271\n      jumpi\n        /* \"#utility.yul\":10196:10200   */\n      0x7f\n        /* \"#utility.yul\":10188:10194   */\n      dup3\n        /* \"#utility.yul\":10184:10201   */\n      and\n        /* \"#utility.yul\":10174:10201   */\n      swap2\n      pop\n        /* \"#utility.yul\":10130:10211   */\n    tag_271:\n        /* \"#utility.yul\":10258:10260   */\n      0x20\n        /* \"#utility.yul\":10250:10256   */\n      dup3\n        /* \"#utility.yul\":10247:10261   */\n      lt\n        /* \"#utility.yul\":10227:10245   */\n      dup2\n        /* \"#utility.yul\":10224:10262   */\n      sub\n        /* \"#utility.yul\":10221:10305   */\n      tag_272\n      jumpi\n        /* \"#utility.yul\":10277:10295   */\n      tag_273\n      tag_144\n      jump\t// in\n    tag_273:\n        /* \"#utility.yul\":10221:10305   */\n    tag_272:\n        /* \"#utility.yul\":10042:10311   */\n      pop\n        /* \"#utility.yul\":9991:10311   */\n      swap2\n      swap1\n      pop\n      jump\t// out\n        /* \"#utility.yul\":10317:10458   */\n    tag_145:\n        /* \"#utility.yul\":10366:10370   */\n      0x00\n        /* \"#utility.yul\":10389:10392   */\n      dup2\n        /* \"#utility.yul\":10381:10392   */\n      swap1\n      pop\n        /* \"#utility.yul\":10412:10415   */\n      dup2\n        /* \"#utility.yul\":10409:10410   */\n      0x00\n        /* \"#utility.yul\":10402:10416   */\n      mstore\n        /* \"#utility.yul\":10446:10450   */\n      0x20\n        /* \"#utility.yul\":10443:10444   */\n      0x00\n        /* \"#utility.yul\":10433:10451   */\n      keccak256\n        /* \"#utility.yul\":10425:10451   */\n      swap1\n      pop\n        /* \"#utility.yul\":10317:10458   */\n      swap2\n      swap1\n      pop\n      jump\t// out\n        /* \"#utility.yul\":10464:10557   */\n    tag_146:\n        /* \"#utility.yul\":10501:10507   */\n      0x00\n        /* \"#utility.yul\":10548:10550   */\n      0x20\n        /* \"#utility.yul\":10543:10545   */\n      0x1f\n        /* \"#utility.yul\":10536:10541   */\n      dup4\n        /* \"#utility.yul\":10532:10546   */\n      add\n        /* \"#utility.yul\":10528:10551   */\n      div\n        /* \"#utility.yul\":10518:10551   */\n      swap1\n      pop\n        /* \"#utility.yul\":10464:10557   */\n      swap2\n      swap1\n      pop\n      jump\t// out\n        /* \"#utility.yul\":10563:10670   */\n    tag_147:\n        /* \"#utility.yul\":10607:10615   */\n      0x00\n        /* \"#utility.yul\":10657:10662   */\n      dup3\n        /* \"#utility.yul\":10651:10655   */\n      dup3\n        /* \"#utility.yul\":10647:10663   */\n      shl\n        /* \"#utility.yul\":10626:10663   */\n      swap1\n      pop\n        /* \"#utility.yul\":10563:10670   */\n      swap3\n      swap2\n      pop\n      pop\n      jump\t// out\n        /* \"#utility.yul\":10676:11069   */\n    tag_148:\n        /* \"#utility.yul\":10745:10751   */\n      0x00\n        /* \"#utility.yul\":10795:10796   */\n      0x08\n        /* \"#utility.yul\":10783:10793   */\n      dup4\n        /* \"#utility.yul\":10779:10797   */\n      mul\n        /* \"#utility.yul\":10818:10915   */\n      tag_278\n        /* \"#utility.yul\":10848:10914   */\n      0xffffffffffffffffffffffffffffffffffffffffffffffffffffffffffffffff\n        /* \"#utility.yul\":10837:10846   */\n      dup3\n        /* \"#utility.yul\":10818:10915   */\n      tag_147\n      jump\t// in\n    tag_278:\n        /* \"#utility.yul\":10936:10975   */\n      tag_279\n        /* \"#utility.yul\":10966:10974   */\n      dup7\n        /* \"#utility.yul\":10955:10964   */\n      dup4\n        /* \"#utility.yul\":10936:10975   */\n      tag_147\n      jump\t// in\n    tag_279:\n        /* \"#utility.yul\":10924:10975   */\n      swap6\n      pop\n        /* \"#utility.yul\":11008:11012   */\n      dup1\n        /* \"#utility.yul\":11004:11013   */\n      not\n        /* \"#utility.yul\":10997:11002   */\n      dup5\n        /* \"#utility.yul\":10993:11014   */\n      and\n        /* \"#utility.yul\":10984:11014   */\n      swap4\n      pop\n        /* \"#utility.yul\":11057:11061   */\n      dup1\n        /* \"#utility.yul\":11047:11055   */\n      dup7\n        /* \"#utility.yul\":11043:11062   */\n      and\n        /* \"#utility.yul\":11036:11041   */\n      dup5\n        /* \"#utility.yul\":11033:11063   */\n      or\n        /* \"#utility.yul\":11023:11063   */\n      swap3\n      pop\n        /* \"#utility.yul\":10752:11069   */\n      pop\n      pop\n        /* \"#utility.yul\":10676:11069   */\n      swap4\n      swap3\n      pop\n      pop\n      pop\n      jump\t// out\n        /* \"#utility.yul\":11075:11135   */\n    tag_149:\n        /* \"#utility.yul\":11103:11106   */\n      0x00\n        /* \"#utility.yul\":11124:11129   */\n      dup2\n        /* \"#utility.yul\":11117:11129   */\n      swap1\n      pop\n        /* \"#utility.yul\":11075:11135   */\n      swap2\n      swap1\n      pop\n      jump\t// out\n        /* \"#utility.yul\":11141:11283   */\n    tag_150:\n        /* \"#utility.yul\":11191:11200   */\n      0x00\n        /* \"#utility.yul\":11224:11277   */\n      tag_282\n        /* \"#utility.yul\":11242:11276   */\n      tag_283\n        /* \"#utility.yul\":11251:11275   */\n      tag_284\n        /* \"#utility.yul\":11269:11274   */\n      dup5\n        /* \"#utility.yul\":11251:11275   */\n      tag_122\n      jump\t// in\n    tag_284:\n        /* \"#utility.yul\":11242:11276   */\n      tag_149\n      jump\t// in\n    tag_283:\n        /* \"#utility.yul\":11224:11277   */\n      tag_122\n      jump\t// in\n    tag_282:\n        /* \"#utility.yul\":11211:11277   */\n      swap1\n      pop\n        /* \"#utility.yul\":11141:11283   */\n      swap2\n      swap1\n      pop\n      jump\t// out\n        /* \"#utility.yul\":11289:11364   */\n    tag_151:\n        /* \"#utility.yul\":11332:11335   */\n      0x00\n        /* \"#utility.yul\":11353:11358   */\n      dup2\n        /* \"#utility.yul\":11346:11358   */\n      swap1\n      pop\n        /* \"#utility.yul\":11289:11364   */\n      swap2\n      swap1\n      pop\n      jump\t// out\n        /* \"#utility.yul\":11370:11639   */\n    tag_152:\n        /* \"#utility.yul\":11480:11519   */\n      tag_287\n        /* \"#utility.yul\":11511:11518   */\n      dup4\n        /* \"#utility.yul\":11480:11519   */\n      tag_150\n      jump\t// in\n    tag_287:\n        /* \"#utility.yul\":11541:11632   */\n      tag_288\n        /* \"#utility.yul\":11590:11631   */\n      tag_289\n        /* \"#utility.yul\":11614:11630   */\n      dup3\n        /* \"#utility.yul\":11590:11631   */\n      tag_151\n      jump\t// in\n    tag_289:\n        /* \"#utility.yul\":11582:11588   */\n      dup5\n        /* \"#utility.yul\":11575:11579   */\n      dup5\n        /* \"#utility.yul\":11569:11580   */\n      sload\n        /* \"#utility.yul\":11541:11632   */\n      tag_148\n      jump\t// in\n    tag_288:\n        /* \"#utility.yul\":11535:11539   */\n      dup3\n        /* \"#utility.yul\":11528:11633   */\n      sstore\n        /* \"#utility.yul\":11446:11639   */\n      pop\n        /* \"#utility.yul\":11370:11639   */\n      pop\n      pop\n      pop\n      jump\t// out\n        /* \"#utility.yul\":11645:11718   */\n    tag_153:\n        /* \"#utility.yul\":11690:11693   */\n      0x00\n        /* \"#utility.yul\":11645:11718   */\n      swap1\n      jump\t// out\n        /* \"#utility.yul\":11724:11913   */\n    tag_154:\n        /* \"#utility.yul\":11801:11833   */\n      tag_292\n      tag_153\n      jump\t// in\n    tag_292:\n        /* \"#utility.yul\":11842:11907   */\n      tag_293\n        /* \"#utility.yul\":11900:11906   */\n      dup2\n        /* \"#utility.yul\":11892:11898   */\n      dup5\n        /* \"#utility.yul\":11886:11890   */\n      dup5\n        /* \"#utility.yul\":11842:11907   */\n      tag_152\n      jump\t// in\n    tag_293:\n        /* \"#utility.yul\":11777:11913   */\n      pop\n        /* \"#utility.yul\":11724:11913   */\n      pop\n      pop\n      jump\t// out\n        /* \"#utility.yul\":11919:12105   */\n    tag_155:\n        /* \"#utility.yul\":11979:12099   */\n    tag_295:\n        /* \"#utility.yul\":11996:11999   */\n      dup2\n        /* \"#utility.yul\":11989:11994   */\n      dup2\n        /* \"#utility.yul\":11986:12000   */\n      lt\n        /* \"#utility.yul\":11979:12099   */\n      iszero\n      tag_297\n      jumpi\n        /* \"#utility.yul\":12050:12089   */\n      tag_298\n        /* \"#utility.yul\":12087:12088   */\n      0x00\n        /* \"#utility.yul\":12080:12085   */\n      dup3\n        /* \"#utility.yul\":12050:12089   */\n      tag_154\n      jump\t// in\n    tag_298:\n        /* \"#utility.yul\":12023:12024   */\n      0x01\n        /* \"#utility.yul\":12016:12021   */\n      dup2\n        /* \"#utility.yul\":12012:12025   */\n      add\n        /* \"#utility.yul\":12003:12025   */\n      swap1\n      pop\n        /* \"#utility.yul\":11979:12099   */\n      jump(tag_295)\n    tag_297:\n        /* \"#utility.yul\":11919:12105   */\n      pop\n      pop\n      jump\t// out\n        /* \"#utility.yul\":12111:12654   */\n    tag_156:\n        /* \"#utility.yul\":12212:12214   */\n      0x1f\n        /* \"#utility.yul\":12207:12210   */\n      dup3\n        /* \"#utility.yul\":12204:12215   */\n      gt\n        /* \"#utility.yul\":12201:12647   */\n      iszero\n      tag_300\n      jumpi\n        /* \"#utility.yul\":12246:12284   */\n      tag_301\n        /* \"#utility.yul\":12278:12283   */\n      dup2\n        /* \"#utility.yul\":12246:12284   */\n      tag_145\n      jump\t// in\n    tag_301:\n        /* \"#utility.yul\":12330:12359   */\n      tag_302\n        /* \"#utility.yul\":12348:12358   */\n      dup5\n        /* \"#utility.yul\":12330:12359   */\n      tag_146\n      jump\t// in\n    tag_302:\n        /* \"#utility.yul\":12320:12328   */\n      dup2\n        /* \"#utility.yul\":12316:12360   */\n      add\n        /* \"#utility.yul\":12513:12515   */\n      0x20\n        /* \"#utility.yul\":12501:12511   */\n      dup6\n        /* \"#utility.yul\":12498:12516   */\n      lt\n        /* \"#utility.yul\":12495:12544   */\n      iszero\n      tag_303\n      jumpi\n        /* \"#utility.yul\":12534:12542   */\n      dup2\n        /* \"#utility.yul\":12519:12542   */\n      swap1\n      pop\n        /* \"#utility.yul\":12495:12544   */\n    tag_303:\n        /* \"#utility.yul\":12557:12637   */\n      tag_304\n        /* \"#utility.yul\":12613:12635   */\n      tag_305\n        /* \"#utility.yul\":12631:12634   */\n      dup6\n        /* \"#utility.yul\":12613:12635   */\n      tag_146\n      jump\t// in\n    tag_305:\n        /* \"#utility.yul\":12603:12611   */\n      dup4\n        /* \"#utility.yul\":12599:12636   */\n      add\n        /* \"#utility.yul\":12586:12597   */\n      dup3\n        /* \"#utility.yul\":12557:12637   */\n      tag_155\n      jump\t// in\n    tag_304:\n        /* \"#utility.yul\":12216:12647   */\n      pop\n      pop\n        /* \"#utility.yul\":12201:12647   */\n    tag_300:\n        /* \"#utility.yul\":12111:12654   */\n      pop\n      pop\n      pop\n      jump\t// out\n        /* \"#utility.yul\":12660:12777   */\n    tag_157:\n        /* \"#utility.yul\":12714:12722   */\n      0x00\n        /* \"#utility.yul\":12764:12769   */\n      dup3\n        /* \"#utility.yul\":12758:12762   */\n      dup3\n        /* \"#utility.yul\":12754:12770   */\n      shr\n        /* \"#utility.yul\":12733:12770   */\n      swap1\n      pop\n        /* \"#utility.yul\":12660:12777   */\n      swap3\n      swap2\n      pop\n      pop\n      jump\t// out\n        /* \"#utility.yul\":12783:12952   */\n    tag_158:\n        /* \"#utility.yul\":12827:12833   */\n      0x00\n        /* \"#utility.yul\":12860:12911   */\n      tag_308\n        /* \"#utility.yul\":12908:12909   */\n      0x00\n        /* \"#utility.yul\":12904:12910   */\n      not\n        /* \"#utility.yul\":12896:12901   */\n      dup5\n        /* \"#utility.yul\":12893:12894   */\n      0x08\n        /* \"#utility.yul\":12889:12902   */\n      mul\n        /* \"#utility.yul\":12860:12911   */\n      tag_157\n      jump\t// in\n    tag_308:\n        /* \"#utility.yul\":12856:12912   */\n      not\n        /* \"#utility.yul\":12941:12945   */\n      dup1\n        /* \"#utility.yul\":12935:12939   */\n      dup4\n        /* \"#utility.yul\":12931:12946   */\n      and\n        /* \"#utility.yul\":12921:12946   */\n      swap2\n      pop\n        /* \"#utility.yul\":12834:12952   */\n      pop\n        /* \"#utility.yul\":12783:12952   */\n      swap3\n      swap2\n      pop\n      pop\n      jump\t// out\n        /* \"#utility.yul\":12957:13252   */\n    tag_159:\n        /* \"#utility.yul\":13033:13037   */\n      0x00\n        /* \"#utility.yul\":13179:13208   */\n      tag_310\n        /* \"#utility.yul\":13204:13207   */\n      dup4\n        /* \"#utility.yul\":13198:13202   */\n      dup4\n        /* \"#utility.yul\":13179:13208   */\n      tag_158\n      jump\t// in\n    tag_310:\n        /* \"#utility.yul\":13171:13208   */\n      swap2\n      pop\n        /* \"#utility.yul\":13241:13244   */\n      dup3\n        /* \"#utility.yul\":13238:13239   */\n      0x02\n        /* \"#utility.yul\":13234:13245   */\n      mul\n        /* \"#utility.yul\":13228:13232   */\n      dup3\n        /* \"#utility.yul\":13225:13246   */\n      or\n        /* \"#utility.yul\":13217:13246   */\n      swap1\n      pop\n        /* \"#utility.yul\":12957:13252   */\n      swap3\n      swap2\n      pop\n      pop\n      jump\t// out\n        /* \"#utility.yul\":13257:14652   */\n    tag_99:\n        /* \"#utility.yul\":13374:13411   */\n      tag_312\n        /* \"#utility.yul\":13407:13410   */\n      dup3\n        /* \"#utility.yul\":13374:13411   */\n      tag_117\n      jump\t// in\n    tag_312:\n        /* \"#utility.yul\":13476:13494   */\n      0xffffffffffffffff\n        /* \"#utility.yul\":13468:13474   */\n      dup2\n        /* \"#utility.yul\":13465:13495   */\n      gt\n        /* \"#utility.yul\":13462:13518   */\n      iszero\n      tag_313\n      jumpi\n        /* \"#utility.yul\":13498:13516   */\n      tag_314\n      tag_129\n      jump\t// in\n    tag_314:\n        /* \"#utility.yul\":13462:13518   */\n    tag_313:\n        /* \"#utility.yul\":13542:13580   */\n      tag_315\n        /* \"#utility.yul\":13574:13578   */\n      dup3\n        /* \"#utility.yul\":13568:13579   */\n      sload\n        /* \"#utility.yul\":13542:13580   */\n      tag_91\n      jump\t// in\n    tag_315:\n        /* \"#utility.yul\":13627:13694   */\n      tag_316\n        /* \"#utility.yul\":13687:13693   */\n      dup3\n        /* \"#utility.yul\":13679:13685   */\n      dup3\n        /* \"#utility.yul\":13673:13677   */\n      dup6\n        /* \"#utility.yul\":13627:13694   */\n      tag_156\n      jump\t// in\n    tag_316:\n        /* \"#utility.yul\":13721:13722   */\n      0x00\n        /* \"#utility.yul\":13745:13749   */\n      0x20\n        /* \"#utility.yul\":13732:13749   */\n      swap1\n      pop\n        /* \"#utility.yul\":13777:13779   */\n      0x1f\n        /* \"#utility.yul\":13769:13775   */\n      dup4\n        /* \"#utility.yul\":13766:13780   */\n      gt\n        /* \"#utility.yul\":13794:13795   */\n      0x01\n        /* \"#utility.yul\":13789:14407   */\n      dup2\n      eq\n      tag_318\n      jumpi\n        /* \"#utility.yul\":14451:14452   */\n      0x00\n        /* \"#utility.yul\":14468:14474   */\n      dup5\n        /* \"#utility.yul\":14465:14542   */\n      iszero\n      tag_319\n      jumpi\n        /* \"#utility.yul\":14517:14526   */\n      dup3\n        /* \"#utility.yul\":14512:14515   */\n      dup8\n        /* \"#utility.yul\":14508:14527   */\n      add\n        /* \"#utility.yul\":14502:14528   */\n      mload\n        /* \"#utility.yul\":14493:14528   */\n      swap1\n      pop\n        /* \"#utility.yul\":14465:14542   */\n    tag_319:\n        /* \"#utility.yul\":14568:14635   */\n      tag_320\n        /* \"#utility.yul\":14628:14634   */\n      dup6\n        /* \"#utility.yul\":14621:14626   */\n      dup3\n        /* \"#utility.yul\":14568:14635   */\n      tag_159\n      jump\t// in\n    tag_320:\n        /* \"#utility.yul\":14562:14566   */\n      dup7\n        /* \"#utility.yul\":14555:14636   */\n      sstore\n        /* \"#utility.yul\":14424:14646   */\n      pop\n        /* \"#utility.yul\":13759:14646   */\n      jump(tag_317)\n        /* \"#utility.yul\":13789:14407   */\n    tag_318:\n        /* \"#utility.yul\":13841:13845   */\n      0x1f\n        /* \"#utility.yul\":13837:13846   */\n      not\n        /* \"#utility.yul\":13829:13835   */\n      dup5\n        /* \"#utility.yul\":13825:13847   */\n      and\n        /* \"#utility.yul\":13875:13912   */\n      tag_321\n        /* \"#utility.yul\":13907:13911   */\n      dup7\n        /* \"#utility.yul\":13875:13912   */\n      tag_145\n      jump\t// in\n    tag_321:\n        /* \"#utility.yul\":13934:13935   */\n      0x00\n        /* \"#utility.yul\":13948:14156   */\n    tag_322:\n        /* \"#utility.yul\":13962:13969   */\n      dup3\n        /* \"#utility.yul\":13959:13960   */\n      dup2\n        /* \"#utility.yul\":13956:13970   */\n      lt\n        /* \"#utility.yul\":13948:14156   */\n      iszero\n      tag_324\n      jumpi\n        /* \"#utility.yul\":14041:14050   */\n      dup5\n        /* \"#utility.yul\":14036:14039   */\n      dup10\n        /* \"#utility.yul\":14032:14051   */\n      add\n        /* \"#utility.yul\":14026:14052   */\n      mload\n        /* \"#utility.yul\":14018:14024   */\n      dup3\n        /* \"#utility.yul\":14011:14053   */\n      sstore\n        /* \"#utility.yul\":14092:14093   */\n      0x01\n        /* \"#utility.yul\":14084:14090   */\n      dup3\n        /* \"#utility.yul\":14080:14094   */\n      add\n        /* \"#utility.yul\":14070:14094   */\n      swap2\n      pop\n        /* \"#utility.yul\":14139:14141   */\n      0x20\n        /* \"#utility.yul\":14128:14137   */\n      dup6\n        /* \"#utility.yul\":14124:14142   */\n      add\n        /* \"#utility.yul\":14111:14142   */\n      swap5\n      pop\n        /* \"#utility.yul\":13985:13989   */\n      0x20\n        /* \"#utility.yul\":13982:13983   */\n      dup2\n        /* \"#utility.yul\":13978:13990   */\n      add\n        /* \"#utility.yul\":13973:13990   */\n      swap1\n      pop\n        /* \"#utility.yul\":13948:14156   */\n      jump(tag_322)\n    tag_324:\n        /* \"#utility.yul\":14184:14190   */\n      dup7\n        /* \"#utility.yul\":14175:14182   */\n      dup4\n        /* \"#utility.yul\":14172:14191   */\n      lt\n        /* \"#utility.yul\":14169:14348   */\n      iszero\n      tag_325\n      jumpi\n        /* \"#utility.yul\":14242:14251   */\n      dup5\n        /* \"#utility.yul\":14237:14240   */\n      dup10\n        /* \"#utility.yul\":14233:14252   */\n      add\n        /* \"#utility.yul\":14227:14253   */\n      mload\n        /* \"#utility.yul\":14285:14333   */\n      tag_326\n        /* \"#utility.yul\":14327:14331   */\n      0x1f\n        /* \"#utility.yul\":14319:14325   */\n      dup10\n        /* \"#utility.yul\":14315:14332   */\n      and\n        /* \"#utility.yul\":14304:14313   */\n      dup3\n        /* \"#utility.yul\":14285:14333   */\n      tag_158\n      jump\t// in\n    tag_326:\n        /* \"#utility.yul\":14277:14283   */\n      dup4\n        /* \"#utility.yul\":14270:14334   */\n      sstore\n        /* \"#utility.yul\":14192:14348   */\n      pop\n        /* \"#utility.yul\":14169:14348   */\n    tag_325:\n        /* \"#utility.yul\":14394:14395   */\n      0x01\n        /* \"#utility.yul\":14390:14391   */\n      0x02\n        /* \"#utility.yul\":14382:14388   */\n      dup9\n        /* \"#utility.yul\":14378:14392   */\n      mul\n        /* \"#utility.yul\":14374:14396   */\n      add\n        /* \"#utility.yul\":14368:14372   */\n      dup9\n        /* \"#utility.yul\":14361:14397   */\n      sstore\n        /* \"#utility.yul\":13796:14407   */\n      pop\n      pop\n      pop\n        /* \"#utility.yul\":13759:14646   */\n    tag_317:\n      pop\n        /* \"#utility.yul\":13349:14652   */\n      pop\n      pop\n      pop\n        /* \"#utility.yul\":13257:14652   */\n      pop\n      pop\n      jump\t// out\n        /* \"#utility.yul\":14658:14849   */\n    tag_102:\n        /* \"#utility.yul\":14698:14701   */\n      0x00\n        /* \"#utility.yul\":14717:14737   */\n      tag_328\n        /* \"#utility.yul\":14735:14736   */\n      dup3\n        /* \"#utility.yul\":14717:14737   */\n      tag_122\n      jump\t// in\n    tag_328:\n        /* \"#utility.yul\":14712:14737   */\n      swap2\n      pop\n        /* \"#utility.yul\":14751:14771   */\n      tag_329\n        /* \"#utility.yul\":14769:14770   */\n      dup4\n        /* \"#utility.yul\":14751:14771   */\n      tag_122\n      jump\t// in\n    tag_329:\n        /* \"#utility.yul\":14746:14771   */\n      swap3\n      pop\n        /* \"#utility.yul\":14794:14795   */\n      dup3\n        /* \"#utility.yul\":14791:14792   */\n      dup3\n        /* \"#utility.yul\":14787:14796   */\n      add\n        /* \"#utility.yul\":14780:14796   */\n      swap1\n      pop\n        /* \"#utility.yul\":14815:14818   */\n      dup1\n        /* \"#utility.yul\":14812:14813   */\n      dup3\n        /* \"#utility.yul\":14809:14819   */\n      gt\n        /* \"#utility.yul\":14806:14842   */\n      iszero\n      tag_330\n      jumpi\n        /* \"#utility.yul\":14822:14840   */\n      tag_331\n      tag_143\n      jump\t// in\n    tag_331:\n        /* \"#utility.yul\":14806:14842   */\n    tag_330:\n        /* \"#utility.yul\":14658:14849   */\n      swap3\n      swap2\n      pop\n      pop\n      jump\t// out\n        /* \"#utility.yul\":14855:15022   */\n    tag_160:\n        /* \"#utility.yul\":14995:15014   */\n      0x53636f726520616c726561647920736574000000000000000000000000000000\n        /* \"#utility.yul\":14991:14992   */\n      0x00\n        /* \"#utility.yul\":14983:14989   */\n      dup3\n        /* \"#utility.yul\":14979:14993   */\n      add\n        /* \"#utility.yul\":14972:15015   */\n      mstore\n        /* \"#utility.yul\":14855:15022   */\n      pop\n      jump\t// out\n        /* \"#utility.yul\":15028:15394   */\n    tag_161:\n        /* \"#utility.yul\":15170:15173   */\n      0x00\n        /* \"#utility.yul\":15191:15258   */\n      tag_334\n        /* \"#utility.yul\":15255:15257   */\n      0x11\n        /* \"#utility.yul\":15250:15253   */\n      dup4\n        /* \"#utility.yul\":15191:15258   */\n      tag_118\n      jump\t// in\n    tag_334:\n        /* \"#utility.yul\":15184:15258   */\n      swap2\n      pop\n        /* \"#utility.yul\":15267:15360   */\n      tag_335\n        /* \"#utility.yul\":15356:15359   */\n      dup3\n        /* \"#utility.yul\":15267:15360   */\n      tag_160\n      jump\t// in\n    tag_335:\n        /* \"#utility.yul\":15385:15387   */\n      0x20\n        /* \"#utility.yul\":15380:15383   */\n      dup3\n        /* \"#utility.yul\":15376:15388   */\n      add\n        /* \"#utility.yul\":15369:15388   */\n      swap1\n      pop\n        /* \"#utility.yul\":15028:15394   */\n      swap2\n      swap1\n      pop\n      jump\t// out\n        /* \"#utility.yul\":15400:15819   */\n    tag_109:\n        /* \"#utility.yul\":15566:15570   */\n      0x00\n        /* \"#utility.yul\":15604:15606   */\n      0x20\n        /* \"#utility.yul\":15593:15602   */\n      dup3\n        /* \"#utility.yul\":15589:15607   */\n      add\n        /* \"#utility.yul\":15581:15607   */\n      swap1\n      pop\n        /* \"#utility.yul\":15653:15662   */\n      dup2\n        /* \"#utility.yul\":15647:15651   */\n      dup2\n        /* \"#utility.yul\":15643:15663   */\n      sub\n        /* \"#utility.yul\":15639:15640   */\n      0x00\n        /* \"#utility.yul\":15628:15637   */\n      dup4\n        /* \"#utility.yul\":15624:15641   */\n      add\n        /* \"#utility.yul\":15617:15664   */\n      mstore\n        /* \"#utility.yul\":15681:15812   */\n      tag_337\n        /* \"#utility.yul\":15807:15811   */\n      dup2\n        /* \"#utility.yul\":15681:15812   */\n      tag_161\n      jump\t// in\n    tag_337:\n        /* \"#utility.yul\":15673:15812   */\n      swap1\n      pop\n        /* \"#utility.yul\":15400:15819   */\n      swap2\n      swap1\n      pop\n      jump\t// out\n\n    auxdata: 0xa264697066735822122052a33a0c88947b7c563eab5a5cdb9eb6aa48d7224107bad7f31479bd54de686f64736f6c63430008120033\n}\n",
				"bytecode": {
					"linkReferences": {},
					"object": "60806040523073ffffffffffffffffffffffffffffffffffffffff166108fc349081150290604051600060405180830381858888f1935050505015801561004a573d6000803e3d6000fd5b50735b38da6a701c568545dcfcb03fcb875f56beddc46000806101000a81548173ffffffffffffffffffffffffffffffffffffffff021916908373ffffffffffffffffffffffffffffffffffffffff1602179055503460018190555061130d806100b56000396000f3fe6080604052600436106100595760003560e01c8063011028f8146100655780630371b6f01461007c5780632bff8dd6146100935780638da5cb5b146100d2578063b18c5ad1146100fd578063ee0fcc751461011957610060565b3661006057005b600080fd5b34801561007157600080fd5b5061007a610142565b005b34801561008857600080fd5b506100916102db565b005b34801561009f57600080fd5b506100ba60048036038101906100b59190610a38565b6105f7565b6040516100c993929190610b29565b60405180910390f35b3480156100de57600080fd5b506100e76106b6565b6040516100f49190610b76565b60405180910390f35b61011760048036038101906101129190610cc6565b6106da565b005b34801561012557600080fd5b50610140600480360381019061013b9190610d3b565b610868565b005b60008054906101000a900473ffffffffffffffffffffffffffffffffffffffff1673ffffffffffffffffffffffffffffffffffffffff163373ffffffffffffffffffffffffffffffffffffffff16146101d0576040517f08c379a00000000000000000000000000000000000000000000000000000000081526004016101c790610dc7565b60405180910390fd5b600060048054905011610218576040517f08c379a000000000000000000000000000000000000000000000000000000000815260040161020f90610e33565b60405180910390fd5b600060048054905060015461022d9190610eb1565b905060005b6004805490508110156102d7576004818154811061025357610252610ee2565b5b9060005260206000200160009054906101000a900473ffffffffffffffffffffffffffffffffffffffff1673ffffffffffffffffffffffffffffffffffffffff166108fc839081150290604051600060405180830381858888f193505050501580156102c3573d6000803e3d6000fd5b5080806102cf90610f11565b915050610232565b5050565b60008054906101000a900473ffffffffffffffffffffffffffffffffffffffff1673ffffffffffffffffffffffffffffffffffffffff163373ffffffffffffffffffffffffffffffffffffffff1614610369576040517f08c379a000000000000000000000000000000000000000000000000000000000815260040161036090610dc7565b60405180910390fd5b6000805b600380549050811015610425576000600382815481106103905761038f610ee2565b5b9060005260206000200160009054906101000a900473ffffffffffffffffffffffffffffffffffffffff1690506000600260008373ffffffffffffffffffffffffffffffffffffffff1673ffffffffffffffffffffffffffffffffffffffff16815260200190815260200160002060010154905083811115610410578093505b5050808061041d90610f11565b91505061036d565b5060005b60038054905081101561053a5760006003828154811061044c5761044b610ee2565b5b9060005260206000200160009054906101000a900473ffffffffffffffffffffffffffffffffffffffff16905082600260008373ffffffffffffffffffffffffffffffffffffffff1673ffffffffffffffffffffffffffffffffffffffff1681526020019081526020016000206001015403610526576004819080600181540180825580915050600190039060005260206000200160009091909190916101000a81548173ffffffffffffffffffffffffffffffffffffffff021916908373ffffffffffffffffffffffffffffffffffffffff1602179055505b50808061053290610f11565b915050610429565b5060005b6004805490508110156105f3576004818154811061055f5761055e610ee2565b5b9060005260206000200160009054906101000a900473ffffffffffffffffffffffffffffffffffffffff1673ffffffffffffffffffffffffffffffffffffffff166108fc600480549050476105b49190610eb1565b9081150290604051600060405180830381858888f193505050501580156105df573d6000803e3d6000fd5b5080806105eb90610f11565b91505061053e565b5050565b600260205280600052604060002060009150905080600001805461061a90610f88565b80601f016020809104026020016040519081016040528092919081815260200182805461064690610f88565b80156106935780601f1061066857610100808354040283529160200191610693565b820191906000526020600020905b81548152906001019060200180831161067657829003601f168201915b5050505050908060010154908060020160009054906101000a900460ff16905083565b60008054906101000a900473ffffffffffffffffffffffffffffffffffffffff1681565b671bc16d674ec8000034146106ee57600080fd5b80600260003373ffffffffffffffffffffffffffffffffffffffff1673ffffffffffffffffffffffffffffffffffffffff168152602001908152602001600020600001908161073d9190611165565b506000600260003373ffffffffffffffffffffffffffffffffffffffff1673ffffffffffffffffffffffffffffffffffffffff168152602001908152602001600020600101819055506000600260003373ffffffffffffffffffffffffffffffffffffffff1673ffffffffffffffffffffffffffffffffffffffff16815260200190815260200160002060020160006101000a81548160ff0219169083151502179055506003339080600181540180825580915050600190039060005260206000200160009091909190916101000a81548173ffffffffffffffffffffffffffffffffffffffff021916908373ffffffffffffffffffffffffffffffffffffffff160217905550671bc16d674ec800006001600082825461085e9190611237565b9250508190555050565b60008054906101000a900473ffffffffffffffffffffffffffffffffffffffff1673ffffffffffffffffffffffffffffffffffffffff163373ffffffffffffffffffffffffffffffffffffffff16146108f6576040517f08c379a00000000000000000000000000000000000000000000000000000000081526004016108ed90610dc7565b60405180910390fd5b6000600260008473ffffffffffffffffffffffffffffffffffffffff1673ffffffffffffffffffffffffffffffffffffffff168152602001908152602001600020600101541461097b576040517f08c379a0000000000000000000000000000000000000000000000000000000008152600401610972906112b7565b60405180910390fd5b80600260008473ffffffffffffffffffffffffffffffffffffffff1673ffffffffffffffffffffffffffffffffffffffff168152602001908152602001600020600101819055505050565b6000604051905090565b600080fd5b600080fd5b600073ffffffffffffffffffffffffffffffffffffffff82169050919050565b6000610a05826109da565b9050919050565b610a15816109fa565b8114610a2057600080fd5b50565b600081359050610a3281610a0c565b92915050565b600060208284031215610a4e57610a4d6109d0565b5b6000610a5c84828501610a23565b91505092915050565b600081519050919050565b600082825260208201905092915050565b60005b83811015610a9f578082015181840152602081019050610a84565b60008484015250505050565b6000601f19601f8301169050919050565b6000610ac782610a65565b610ad18185610a70565b9350610ae1818560208601610a81565b610aea81610aab565b840191505092915050565b6000819050919050565b610b0881610af5565b82525050565b60008115159050919050565b610b2381610b0e565b82525050565b60006060820190508181036000830152610b438186610abc565b9050610b526020830185610aff565b610b5f6040830184610b1a565b949350505050565b610b70816109fa565b82525050565b6000602082019050610b8b6000830184610b67565b92915050565b600080fd5b600080fd5b7f4e487b7100000000000000000000000000000000000000000000000000000000600052604160045260246000fd5b610bd382610aab565b810181811067ffffffffffffffff82111715610bf257610bf1610b9b565b5b80604052505050565b6000610c056109c6565b9050610c118282610bca565b919050565b600067ffffffffffffffff821115610c3157610c30610b9b565b5b610c3a82610aab565b9050602081019050919050565b82818337600083830152505050565b6000610c69610c6484610c16565b610bfb565b905082815260208101848484011115610c8557610c84610b96565b5b610c90848285610c47565b509392505050565b600082601f830112610cad57610cac610b91565b5b8135610cbd848260208601610c56565b91505092915050565b600060208284031215610cdc57610cdb6109d0565b5b600082013567ffffffffffffffff811115610cfa57610cf96109d5565b5b610d0684828501610c98565b91505092915050565b610d1881610af5565b8114610d2357600080fd5b50565b600081359050610d3581610d0f565b92915050565b60008060408385031215610d5257610d516109d0565b5b6000610d6085828601610a23565b9250506020610d7185828601610d26565b9150509250929050565b7f4f6e6c79206f776e65722063616e20646f207468697320666e00000000000000600082015250565b6000610db1601983610a70565b9150610dbc82610d7b565b602082019050919050565b60006020820190508181036000830152610de081610da4565b9050919050565b7f4e6f2077696e6e6e657273000000000000000000000000000000000000000000600082015250565b6000610e1d600b83610a70565b9150610e2882610de7565b602082019050919050565b60006020820190508181036000830152610e4c81610e10565b9050919050565b7f4e487b7100000000000000000000000000000000000000000000000000000000600052601260045260246000fd5b7f4e487b7100000000000000000000000000000000000000000000000000000000600052601160045260246000fd5b6000610ebc82610af5565b9150610ec783610af5565b925082610ed757610ed6610e53565b5b828204905092915050565b7f4e487b7100000000000000000000000000000000000000000000000000000000600052603260045260246000fd5b6000610f1c82610af5565b91507fffffffffffffffffffffffffffffffffffffffffffffffffffffffffffffffff8203610f4e57610f4d610e82565b5b600182019050919050565b7f4e487b7100000000000000000000000000000000000000000000000000000000600052602260045260246000fd5b60006002820490506001821680610fa057607f821691505b602082108103610fb357610fb2610f59565b5b50919050565b60008190508160005260206000209050919050565b60006020601f8301049050919050565b600082821b905092915050565b60006008830261101b7fffffffffffffffffffffffffffffffffffffffffffffffffffffffffffffffff82610fde565b6110258683610fde565b95508019841693508086168417925050509392505050565b6000819050919050565b600061106261105d61105884610af5565b61103d565b610af5565b9050919050565b6000819050919050565b61107c83611047565b61109061108882611069565b848454610feb565b825550505050565b600090565b6110a5611098565b6110b0818484611073565b505050565b5b818110156110d4576110c960008261109d565b6001810190506110b6565b5050565b601f821115611119576110ea81610fb9565b6110f384610fce565b81016020851015611102578190505b61111661110e85610fce565b8301826110b5565b50505b505050565b600082821c905092915050565b600061113c6000198460080261111e565b1980831691505092915050565b6000611155838361112b565b9150826002028217905092915050565b61116e82610a65565b67ffffffffffffffff81111561118757611186610b9b565b5b6111918254610f88565b61119c8282856110d8565b600060209050601f8311600181146111cf57600084156111bd578287015190505b6111c78582611149565b86555061122f565b601f1984166111dd86610fb9565b60005b82811015611205578489015182556001820191506020850194506020810190506111e0565b86831015611222578489015161121e601f89168261112b565b8355505b6001600288020188555050505b505050505050565b600061124282610af5565b915061124d83610af5565b925082820190508082111561126557611264610e82565b5b92915050565b7f53636f726520616c726561647920736574000000000000000000000000000000600082015250565b60006112a1601183610a70565b91506112ac8261126b565b602082019050919050565b600060208201905081810360008301526112d081611294565b905091905056fea264697066735822122052a33a0c88947b7c563eab5a5cdb9eb6aa48d7224107bad7f31479bd54de686f64736f6c63430008120033",
					"opcodes": "PUSH1 0x80 PUSH1 0x40 MSTORE ADDRESS PUSH20 0xFFFFFFFFFFFFFFFFFFFFFFFFFFFFFFFFFFFFFFFF AND PUSH2 0x8FC CALLVALUE SWAP1 DUP2 ISZERO MUL SWAP1 PUSH1 0x40 MLOAD PUSH1 0x0 PUSH1 0x40 MLOAD DUP1 DUP4 SUB DUP2 DUP6 DUP9 DUP9 CALL SWAP4 POP POP POP POP ISZERO DUP1 ISZERO PUSH2 0x4A JUMPI RETURNDATASIZE PUSH1 0x0 DUP1 RETURNDATACOPY RETURNDATASIZE PUSH1 0x0 REVERT JUMPDEST POP PUSH20 0x5B38DA6A701C568545DCFCB03FCB875F56BEDDC4 PUSH1 0x0 DUP1 PUSH2 0x100 EXP DUP2 SLOAD DUP2 PUSH20 0xFFFFFFFFFFFFFFFFFFFFFFFFFFFFFFFFFFFFFFFF MUL NOT AND SWAP1 DUP4 PUSH20 0xFFFFFFFFFFFFFFFFFFFFFFFFFFFFFFFFFFFFFFFF AND MUL OR SWAP1 SSTORE POP CALLVALUE PUSH1 0x1 DUP2 SWAP1 SSTORE POP PUSH2 0x130D DUP1 PUSH2 0xB5 PUSH1 0x0 CODECOPY PUSH1 0x0 RETURN INVALID PUSH1 0x80 PUSH1 0x40 MSTORE PUSH1 0x4 CALLDATASIZE LT PUSH2 0x59 JUMPI PUSH1 0x0 CALLDATALOAD PUSH1 0xE0 SHR DUP1 PUSH4 0x11028F8 EQ PUSH2 0x65 JUMPI DUP1 PUSH4 0x371B6F0 EQ PUSH2 0x7C JUMPI DUP1 PUSH4 0x2BFF8DD6 EQ PUSH2 0x93 JUMPI DUP1 PUSH4 0x8DA5CB5B EQ PUSH2 0xD2 JUMPI DUP1 PUSH4 0xB18C5AD1 EQ PUSH2 0xFD JUMPI DUP1 PUSH4 0xEE0FCC75 EQ PUSH2 0x119 JUMPI PUSH2 0x60 JUMP JUMPDEST CALLDATASIZE PUSH2 0x60 JUMPI STOP JUMPDEST PUSH1 0x0 DUP1 REVERT JUMPDEST CALLVALUE DUP1 ISZERO PUSH2 0x71 JUMPI PUSH1 0x0 DUP1 REVERT JUMPDEST POP PUSH2 0x7A PUSH2 0x142 JUMP JUMPDEST STOP JUMPDEST CALLVALUE DUP1 ISZERO PUSH2 0x88 JUMPI PUSH1 0x0 DUP1 REVERT JUMPDEST POP PUSH2 0x91 PUSH2 0x2DB JUMP JUMPDEST STOP JUMPDEST CALLVALUE DUP1 ISZERO PUSH2 0x9F JUMPI PUSH1 0x0 DUP1 REVERT JUMPDEST POP PUSH2 0xBA PUSH1 0x4 DUP1 CALLDATASIZE SUB DUP2 ADD SWAP1 PUSH2 0xB5 SWAP2 SWAP1 PUSH2 0xA38 JUMP JUMPDEST PUSH2 0x5F7 JUMP JUMPDEST PUSH1 0x40 MLOAD PUSH2 0xC9 SWAP4 SWAP3 SWAP2 SWAP1 PUSH2 0xB29 JUMP JUMPDEST PUSH1 0x40 MLOAD DUP1 SWAP2 SUB SWAP1 RETURN JUMPDEST CALLVALUE DUP1 ISZERO PUSH2 0xDE JUMPI PUSH1 0x0 DUP1 REVERT JUMPDEST POP PUSH2 0xE7 PUSH2 0x6B6 JUMP JUMPDEST PUSH1 0x40 MLOAD PUSH2 0xF4 SWAP2 SWAP1 PUSH2 0xB76 JUMP JUMPDEST PUSH1 0x40 MLOAD DUP1 SWAP2 SUB SWAP1 RETURN JUMPDEST PUSH2 0x117 PUSH1 0x4 DUP1 CALLDATASIZE SUB DUP2 ADD SWAP1 PUSH2 0x112 SWAP2 SWAP1 PUSH2 0xCC6 JUMP JUMPDEST PUSH2 0x6DA JUMP JUMPDEST STOP JUMPDEST CALLVALUE DUP1 ISZERO PUSH2 0x125 JUMPI PUSH1 0x0 DUP1 REVERT JUMPDEST POP PUSH2 0x140 PUSH1 0x4 DUP1 CALLDATASIZE SUB DUP2 ADD SWAP1 PUSH2 0x13B SWAP2 SWAP1 PUSH2 0xD3B JUMP JUMPDEST PUSH2 0x868 JUMP JUMPDEST STOP JUMPDEST PUSH1 0x0 DUP1 SLOAD SWAP1 PUSH2 0x100 EXP SWAP1 DIV PUSH20 0xFFFFFFFFFFFFFFFFFFFFFFFFFFFFFFFFFFFFFFFF AND PUSH20 0xFFFFFFFFFFFFFFFFFFFFFFFFFFFFFFFFFFFFFFFF AND CALLER PUSH20 0xFFFFFFFFFFFFFFFFFFFFFFFFFFFFFFFFFFFFFFFF AND EQ PUSH2 0x1D0 JUMPI PUSH1 0x40 MLOAD PUSH32 0x8C379A000000000000000000000000000000000000000000000000000000000 DUP2 MSTORE PUSH1 0x4 ADD PUSH2 0x1C7 SWAP1 PUSH2 0xDC7 JUMP JUMPDEST PUSH1 0x40 MLOAD DUP1 SWAP2 SUB SWAP1 REVERT JUMPDEST PUSH1 0x0 PUSH1 0x4 DUP1 SLOAD SWAP1 POP GT PUSH2 0x218 JUMPI PUSH1 0x40 MLOAD PUSH32 0x8C379A000000000000000000000000000000000000000000000000000000000 DUP2 MSTORE PUSH1 0x4 ADD PUSH2 0x20F SWAP1 PUSH2 0xE33 JUMP JUMPDEST PUSH1 0x40 MLOAD DUP1 SWAP2 SUB SWAP1 REVERT JUMPDEST PUSH1 0x0 PUSH1 0x4 DUP1 SLOAD SWAP1 POP PUSH1 0x1 SLOAD PUSH2 0x22D SWAP2 SWAP1 PUSH2 0xEB1 JUMP JUMPDEST SWAP1 POP PUSH1 0x0 JUMPDEST PUSH1 0x4 DUP1 SLOAD SWAP1 POP DUP2 LT ISZERO PUSH2 0x2D7 JUMPI PUSH1 0x4 DUP2 DUP2 SLOAD DUP2 LT PUSH2 0x253 JUMPI PUSH2 0x252 PUSH2 0xEE2 JUMP JUMPDEST JUMPDEST SWAP1 PUSH1 0x0 MSTORE PUSH1 0x20 PUSH1 0x0 KECCAK256 ADD PUSH1 0x0 SWAP1 SLOAD SWAP1 PUSH2 0x100 EXP SWAP1 DIV PUSH20 0xFFFFFFFFFFFFFFFFFFFFFFFFFFFFFFFFFFFFFFFF AND PUSH20 0xFFFFFFFFFFFFFFFFFFFFFFFFFFFFFFFFFFFFFFFF AND PUSH2 0x8FC DUP4 SWAP1 DUP2 ISZERO MUL SWAP1 PUSH1 0x40 MLOAD PUSH1 0x0 PUSH1 0x40 MLOAD DUP1 DUP4 SUB DUP2 DUP6 DUP9 DUP9 CALL SWAP4 POP POP POP POP ISZERO DUP1 ISZERO PUSH2 0x2C3 JUMPI RETURNDATASIZE PUSH1 0x0 DUP1 RETURNDATACOPY RETURNDATASIZE PUSH1 0x0 REVERT JUMPDEST POP DUP1 DUP1 PUSH2 0x2CF SWAP1 PUSH2 0xF11 JUMP JUMPDEST SWAP2 POP POP PUSH2 0x232 JUMP JUMPDEST POP POP JUMP JUMPDEST PUSH1 0x0 DUP1 SLOAD SWAP1 PUSH2 0x100 EXP SWAP1 DIV PUSH20 0xFFFFFFFFFFFFFFFFFFFFFFFFFFFFFFFFFFFFFFFF AND PUSH20 0xFFFFFFFFFFFFFFFFFFFFFFFFFFFFFFFFFFFFFFFF AND CALLER PUSH20 0xFFFFFFFFFFFFFFFFFFFFFFFFFFFFFFFFFFFFFFFF AND EQ PUSH2 0x369 JUMPI PUSH1 0x40 MLOAD PUSH32 0x8C379A000000000000000000000000000000000000000000000000000000000 DUP2 MSTORE PUSH1 0x4 ADD PUSH2 0x360 SWAP1 PUSH2 0xDC7 JUMP JUMPDEST PUSH1 0x40 MLOAD DUP1 SWAP2 SUB SWAP1 REVERT JUMPDEST PUSH1 0x0 DUP1 JUMPDEST PUSH1 0x3 DUP1 SLOAD SWAP1 POP DUP2 LT ISZERO PUSH2 0x425 JUMPI PUSH1 0x0 PUSH1 0x3 DUP3 DUP2 SLOAD DUP2 LT PUSH2 0x390 JUMPI PUSH2 0x38F PUSH2 0xEE2 JUMP JUMPDEST JUMPDEST SWAP1 PUSH1 0x0 MSTORE PUSH1 0x20 PUSH1 0x0 KECCAK256 ADD PUSH1 0x0 SWAP1 SLOAD SWAP1 PUSH2 0x100 EXP SWAP1 DIV PUSH20 0xFFFFFFFFFFFFFFFFFFFFFFFFFFFFFFFFFFFFFFFF AND SWAP1 POP PUSH1 0x0 PUSH1 0x2 PUSH1 0x0 DUP4 PUSH20 0xFFFFFFFFFFFFFFFFFFFFFFFFFFFFFFFFFFFFFFFF AND PUSH20 0xFFFFFFFFFFFFFFFFFFFFFFFFFFFFFFFFFFFFFFFF AND DUP2 MSTORE PUSH1 0x20 ADD SWAP1 DUP2 MSTORE PUSH1 0x20 ADD PUSH1 0x0 KECCAK256 PUSH1 0x1 ADD SLOAD SWAP1 POP DUP4 DUP2 GT ISZERO PUSH2 0x410 JUMPI DUP1 SWAP4 POP JUMPDEST POP POP DUP1 DUP1 PUSH2 0x41D SWAP1 PUSH2 0xF11 JUMP JUMPDEST SWAP2 POP POP PUSH2 0x36D JUMP JUMPDEST POP PUSH1 0x0 JUMPDEST PUSH1 0x3 DUP1 SLOAD SWAP1 POP DUP2 LT ISZERO PUSH2 0x53A JUMPI PUSH1 0x0 PUSH1 0x3 DUP3 DUP2 SLOAD DUP2 LT PUSH2 0x44C JUMPI PUSH2 0x44B PUSH2 0xEE2 JUMP JUMPDEST JUMPDEST SWAP1 PUSH1 0x0 MSTORE PUSH1 0x20 PUSH1 0x0 KECCAK256 ADD PUSH1 0x0 SWAP1 SLOAD SWAP1 PUSH2 0x100 EXP SWAP1 DIV PUSH20 0xFFFFFFFFFFFFFFFFFFFFFFFFFFFFFFFFFFFFFFFF AND SWAP1 POP DUP3 PUSH1 0x2 PUSH1 0x0 DUP4 PUSH20 0xFFFFFFFFFFFFFFFFFFFFFFFFFFFFFFFFFFFFFFFF AND PUSH20 0xFFFFFFFFFFFFFFFFFFFFFFFFFFFFFFFFFFFFFFFF AND DUP2 MSTORE PUSH1 0x20 ADD SWAP1 DUP2 MSTORE PUSH1 0x20 ADD PUSH1 0x0 KECCAK256 PUSH1 0x1 ADD SLOAD SUB PUSH2 0x526 JUMPI PUSH1 0x4 DUP2 SWAP1 DUP1 PUSH1 0x1 DUP2 SLOAD ADD DUP1 DUP3 SSTORE DUP1 SWAP2 POP POP PUSH1 0x1 SWAP1 SUB SWAP1 PUSH1 0x0 MSTORE PUSH1 0x20 PUSH1 0x0 KECCAK256 ADD PUSH1 0x0 SWAP1 SWAP2 SWAP1 SWAP2 SWAP1 SWAP2 PUSH2 0x100 EXP DUP2 SLOAD DUP2 PUSH20 0xFFFFFFFFFFFFFFFFFFFFFFFFFFFFFFFFFFFFFFFF MUL NOT AND SWAP1 DUP4 PUSH20 0xFFFFFFFFFFFFFFFFFFFFFFFFFFFFFFFFFFFFFFFF AND MUL OR SWAP1 SSTORE POP JUMPDEST POP DUP1 DUP1 PUSH2 0x532 SWAP1 PUSH2 0xF11 JUMP JUMPDEST SWAP2 POP POP PUSH2 0x429 JUMP JUMPDEST POP PUSH1 0x0 JUMPDEST PUSH1 0x4 DUP1 SLOAD SWAP1 POP DUP2 LT ISZERO PUSH2 0x5F3 JUMPI PUSH1 0x4 DUP2 DUP2 SLOAD DUP2 LT PUSH2 0x55F JUMPI PUSH2 0x55E PUSH2 0xEE2 JUMP JUMPDEST JUMPDEST SWAP1 PUSH1 0x0 MSTORE PUSH1 0x20 PUSH1 0x0 KECCAK256 ADD PUSH1 0x0 SWAP1 SLOAD SWAP1 PUSH2 0x100 EXP SWAP1 DIV PUSH20 0xFFFFFFFFFFFFFFFFFFFFFFFFFFFFFFFFFFFFFFFF AND PUSH20 0xFFFFFFFFFFFFFFFFFFFFFFFFFFFFFFFFFFFFFFFF AND PUSH2 0x8FC PUSH1 0x4 DUP1 SLOAD SWAP1 POP SELFBALANCE PUSH2 0x5B4 SWAP2 SWAP1 PUSH2 0xEB1 JUMP JUMPDEST SWAP1 DUP2 ISZERO MUL SWAP1 PUSH1 0x40 MLOAD PUSH1 0x0 PUSH1 0x40 MLOAD DUP1 DUP4 SUB DUP2 DUP6 DUP9 DUP9 CALL SWAP4 POP POP POP POP ISZERO DUP1 ISZERO PUSH2 0x5DF JUMPI RETURNDATASIZE PUSH1 0x0 DUP1 RETURNDATACOPY RETURNDATASIZE PUSH1 0x0 REVERT JUMPDEST POP DUP1 DUP1 PUSH2 0x5EB SWAP1 PUSH2 0xF11 JUMP JUMPDEST SWAP2 POP POP PUSH2 0x53E JUMP JUMPDEST POP POP JUMP JUMPDEST PUSH1 0x2 PUSH1 0x20 MSTORE DUP1 PUSH1 0x0 MSTORE PUSH1 0x40 PUSH1 0x0 KECCAK256 PUSH1 0x0 SWAP2 POP SWAP1 POP DUP1 PUSH1 0x0 ADD DUP1 SLOAD PUSH2 0x61A SWAP1 PUSH2 0xF88 JUMP JUMPDEST DUP1 PUSH1 0x1F ADD PUSH1 0x20 DUP1 SWAP2 DIV MUL PUSH1 0x20 ADD PUSH1 0x40 MLOAD SWAP1 DUP2 ADD PUSH1 0x40 MSTORE DUP1 SWAP3 SWAP2 SWAP1 DUP2 DUP2 MSTORE PUSH1 0x20 ADD DUP3 DUP1 SLOAD PUSH2 0x646 SWAP1 PUSH2 0xF88 JUMP JUMPDEST DUP1 ISZERO PUSH2 0x693 JUMPI DUP1 PUSH1 0x1F LT PUSH2 0x668 JUMPI PUSH2 0x100 DUP1 DUP4 SLOAD DIV MUL DUP4 MSTORE SWAP2 PUSH1 0x20 ADD SWAP2 PUSH2 0x693 JUMP JUMPDEST DUP3 ADD SWAP2 SWAP1 PUSH1 0x0 MSTORE PUSH1 0x20 PUSH1 0x0 KECCAK256 SWAP1 JUMPDEST DUP2 SLOAD DUP2 MSTORE SWAP1 PUSH1 0x1 ADD SWAP1 PUSH1 0x20 ADD DUP1 DUP4 GT PUSH2 0x676 JUMPI DUP3 SWAP1 SUB PUSH1 0x1F AND DUP3 ADD SWAP2 JUMPDEST POP POP POP POP POP SWAP1 DUP1 PUSH1 0x1 ADD SLOAD SWAP1 DUP1 PUSH1 0x2 ADD PUSH1 0x0 SWAP1 SLOAD SWAP1 PUSH2 0x100 EXP SWAP1 DIV PUSH1 0xFF AND SWAP1 POP DUP4 JUMP JUMPDEST PUSH1 0x0 DUP1 SLOAD SWAP1 PUSH2 0x100 EXP SWAP1 DIV PUSH20 0xFFFFFFFFFFFFFFFFFFFFFFFFFFFFFFFFFFFFFFFF AND DUP2 JUMP JUMPDEST PUSH8 0x1BC16D674EC80000 CALLVALUE EQ PUSH2 0x6EE JUMPI PUSH1 0x0 DUP1 REVERT JUMPDEST DUP1 PUSH1 0x2 PUSH1 0x0 CALLER PUSH20 0xFFFFFFFFFFFFFFFFFFFFFFFFFFFFFFFFFFFFFFFF AND PUSH20 0xFFFFFFFFFFFFFFFFFFFFFFFFFFFFFFFFFFFFFFFF AND DUP2 MSTORE PUSH1 0x20 ADD SWAP1 DUP2 MSTORE PUSH1 0x20 ADD PUSH1 0x0 KECCAK256 PUSH1 0x0 ADD SWAP1 DUP2 PUSH2 0x73D SWAP2 SWAP1 PUSH2 0x1165 JUMP JUMPDEST POP PUSH1 0x0 PUSH1 0x2 PUSH1 0x0 CALLER PUSH20 0xFFFFFFFFFFFFFFFFFFFFFFFFFFFFFFFFFFFFFFFF AND PUSH20 0xFFFFFFFFFFFFFFFFFFFFFFFFFFFFFFFFFFFFFFFF AND DUP2 MSTORE PUSH1 0x20 ADD SWAP1 DUP2 MSTORE PUSH1 0x20 ADD PUSH1 0x0 KECCAK256 PUSH1 0x1 ADD DUP2 SWAP1 SSTORE POP PUSH1 0x0 PUSH1 0x2 PUSH1 0x0 CALLER PUSH20 0xFFFFFFFFFFFFFFFFFFFFFFFFFFFFFFFFFFFFFFFF AND PUSH20 0xFFFFFFFFFFFFFFFFFFFFFFFFFFFFFFFFFFFFFFFF AND DUP2 MSTORE PUSH1 0x20 ADD SWAP1 DUP2 MSTORE PUSH1 0x20 ADD PUSH1 0x0 KECCAK256 PUSH1 0x2 ADD PUSH1 0x0 PUSH2 0x100 EXP DUP2 SLOAD DUP2 PUSH1 0xFF MUL NOT AND SWAP1 DUP4 ISZERO ISZERO MUL OR SWAP1 SSTORE POP PUSH1 0x3 CALLER SWAP1 DUP1 PUSH1 0x1 DUP2 SLOAD ADD DUP1 DUP3 SSTORE DUP1 SWAP2 POP POP PUSH1 0x1 SWAP1 SUB SWAP1 PUSH1 0x0 MSTORE PUSH1 0x20 PUSH1 0x0 KECCAK256 ADD PUSH1 0x0 SWAP1 SWAP2 SWAP1 SWAP2 SWAP1 SWAP2 PUSH2 0x100 EXP DUP2 SLOAD DUP2 PUSH20 0xFFFFFFFFFFFFFFFFFFFFFFFFFFFFFFFFFFFFFFFF MUL NOT AND SWAP1 DUP4 PUSH20 0xFFFFFFFFFFFFFFFFFFFFFFFFFFFFFFFFFFFFFFFF AND MUL OR SWAP1 SSTORE POP PUSH8 0x1BC16D674EC80000 PUSH1 0x1 PUSH1 0x0 DUP3 DUP3 SLOAD PUSH2 0x85E SWAP2 SWAP1 PUSH2 0x1237 JUMP JUMPDEST SWAP3 POP POP DUP2 SWAP1 SSTORE POP POP JUMP JUMPDEST PUSH1 0x0 DUP1 SLOAD SWAP1 PUSH2 0x100 EXP SWAP1 DIV PUSH20 0xFFFFFFFFFFFFFFFFFFFFFFFFFFFFFFFFFFFFFFFF AND PUSH20 0xFFFFFFFFFFFFFFFFFFFFFFFFFFFFFFFFFFFFFFFF AND CALLER PUSH20 0xFFFFFFFFFFFFFFFFFFFFFFFFFFFFFFFFFFFFFFFF AND EQ PUSH2 0x8F6 JUMPI PUSH1 0x40 MLOAD PUSH32 0x8C379A000000000000000000000000000000000000000000000000000000000 DUP2 MSTORE PUSH1 0x4 ADD PUSH2 0x8ED SWAP1 PUSH2 0xDC7 JUMP JUMPDEST PUSH1 0x40 MLOAD DUP1 SWAP2 SUB SWAP1 REVERT JUMPDEST PUSH1 0x0 PUSH1 0x2 PUSH1 0x0 DUP5 PUSH20 0xFFFFFFFFFFFFFFFFFFFFFFFFFFFFFFFFFFFFFFFF AND PUSH20 0xFFFFFFFFFFFFFFFFFFFFFFFFFFFFFFFFFFFFFFFF AND DUP2 MSTORE PUSH1 0x20 ADD SWAP1 DUP2 MSTORE PUSH1 0x20 ADD PUSH1 0x0 KECCAK256 PUSH1 0x1 ADD SLOAD EQ PUSH2 0x97B JUMPI PUSH1 0x40 MLOAD PUSH32 0x8C379A000000000000000000000000000000000000000000000000000000000 DUP2 MSTORE PUSH1 0x4 ADD PUSH2 0x972 SWAP1 PUSH2 0x12B7 JUMP JUMPDEST PUSH1 0x40 MLOAD DUP1 SWAP2 SUB SWAP1 REVERT JUMPDEST DUP1 PUSH1 0x2 PUSH1 0x0 DUP5 PUSH20 0xFFFFFFFFFFFFFFFFFFFFFFFFFFFFFFFFFFFFFFFF AND PUSH20 0xFFFFFFFFFFFFFFFFFFFFFFFFFFFFFFFFFFFFFFFF AND DUP2 MSTORE PUSH1 0x20 ADD SWAP1 DUP2 MSTORE PUSH1 0x20 ADD PUSH1 0x0 KECCAK256 PUSH1 0x1 ADD DUP2 SWAP1 SSTORE POP POP POP JUMP JUMPDEST PUSH1 0x0 PUSH1 0x40 MLOAD SWAP1 POP SWAP1 JUMP JUMPDEST PUSH1 0x0 DUP1 REVERT JUMPDEST PUSH1 0x0 DUP1 REVERT JUMPDEST PUSH1 0x0 PUSH20 0xFFFFFFFFFFFFFFFFFFFFFFFFFFFFFFFFFFFFFFFF DUP3 AND SWAP1 POP SWAP2 SWAP1 POP JUMP JUMPDEST PUSH1 0x0 PUSH2 0xA05 DUP3 PUSH2 0x9DA JUMP JUMPDEST SWAP1 POP SWAP2 SWAP1 POP JUMP JUMPDEST PUSH2 0xA15 DUP2 PUSH2 0x9FA JUMP JUMPDEST DUP2 EQ PUSH2 0xA20 JUMPI PUSH1 0x0 DUP1 REVERT JUMPDEST POP JUMP JUMPDEST PUSH1 0x0 DUP2 CALLDATALOAD SWAP1 POP PUSH2 0xA32 DUP2 PUSH2 0xA0C JUMP JUMPDEST SWAP3 SWAP2 POP POP JUMP JUMPDEST PUSH1 0x0 PUSH1 0x20 DUP3 DUP5 SUB SLT ISZERO PUSH2 0xA4E JUMPI PUSH2 0xA4D PUSH2 0x9D0 JUMP JUMPDEST JUMPDEST PUSH1 0x0 PUSH2 0xA5C DUP5 DUP3 DUP6 ADD PUSH2 0xA23 JUMP JUMPDEST SWAP2 POP POP SWAP3 SWAP2 POP POP JUMP JUMPDEST PUSH1 0x0 DUP2 MLOAD SWAP1 POP SWAP2 SWAP1 POP JUMP JUMPDEST PUSH1 0x0 DUP3 DUP3 MSTORE PUSH1 0x20 DUP3 ADD SWAP1 POP SWAP3 SWAP2 POP POP JUMP JUMPDEST PUSH1 0x0 JUMPDEST DUP4 DUP2 LT ISZERO PUSH2 0xA9F JUMPI DUP1 DUP3 ADD MLOAD DUP2 DUP5 ADD MSTORE PUSH1 0x20 DUP2 ADD SWAP1 POP PUSH2 0xA84 JUMP JUMPDEST PUSH1 0x0 DUP5 DUP5 ADD MSTORE POP POP POP POP JUMP JUMPDEST PUSH1 0x0 PUSH1 0x1F NOT PUSH1 0x1F DUP4 ADD AND SWAP1 POP SWAP2 SWAP1 POP JUMP JUMPDEST PUSH1 0x0 PUSH2 0xAC7 DUP3 PUSH2 0xA65 JUMP JUMPDEST PUSH2 0xAD1 DUP2 DUP6 PUSH2 0xA70 JUMP JUMPDEST SWAP4 POP PUSH2 0xAE1 DUP2 DUP6 PUSH1 0x20 DUP7 ADD PUSH2 0xA81 JUMP JUMPDEST PUSH2 0xAEA DUP2 PUSH2 0xAAB JUMP JUMPDEST DUP5 ADD SWAP2 POP POP SWAP3 SWAP2 POP POP JUMP JUMPDEST PUSH1 0x0 DUP2 SWAP1 POP SWAP2 SWAP1 POP JUMP JUMPDEST PUSH2 0xB08 DUP2 PUSH2 0xAF5 JUMP JUMPDEST DUP3 MSTORE POP POP JUMP JUMPDEST PUSH1 0x0 DUP2 ISZERO ISZERO SWAP1 POP SWAP2 SWAP1 POP JUMP JUMPDEST PUSH2 0xB23 DUP2 PUSH2 0xB0E JUMP JUMPDEST DUP3 MSTORE POP POP JUMP JUMPDEST PUSH1 0x0 PUSH1 0x60 DUP3 ADD SWAP1 POP DUP2 DUP2 SUB PUSH1 0x0 DUP4 ADD MSTORE PUSH2 0xB43 DUP2 DUP7 PUSH2 0xABC JUMP JUMPDEST SWAP1 POP PUSH2 0xB52 PUSH1 0x20 DUP4 ADD DUP6 PUSH2 0xAFF JUMP JUMPDEST PUSH2 0xB5F PUSH1 0x40 DUP4 ADD DUP5 PUSH2 0xB1A JUMP JUMPDEST SWAP5 SWAP4 POP POP POP POP JUMP JUMPDEST PUSH2 0xB70 DUP2 PUSH2 0x9FA JUMP JUMPDEST DUP3 MSTORE POP POP JUMP JUMPDEST PUSH1 0x0 PUSH1 0x20 DUP3 ADD SWAP1 POP PUSH2 0xB8B PUSH1 0x0 DUP4 ADD DUP5 PUSH2 0xB67 JUMP JUMPDEST SWAP3 SWAP2 POP POP JUMP JUMPDEST PUSH1 0x0 DUP1 REVERT JUMPDEST PUSH1 0x0 DUP1 REVERT JUMPDEST PUSH32 0x4E487B7100000000000000000000000000000000000000000000000000000000 PUSH1 0x0 MSTORE PUSH1 0x41 PUSH1 0x4 MSTORE PUSH1 0x24 PUSH1 0x0 REVERT JUMPDEST PUSH2 0xBD3 DUP3 PUSH2 0xAAB JUMP JUMPDEST DUP2 ADD DUP2 DUP2 LT PUSH8 0xFFFFFFFFFFFFFFFF DUP3 GT OR ISZERO PUSH2 0xBF2 JUMPI PUSH2 0xBF1 PUSH2 0xB9B JUMP JUMPDEST JUMPDEST DUP1 PUSH1 0x40 MSTORE POP POP POP JUMP JUMPDEST PUSH1 0x0 PUSH2 0xC05 PUSH2 0x9C6 JUMP JUMPDEST SWAP1 POP PUSH2 0xC11 DUP3 DUP3 PUSH2 0xBCA JUMP JUMPDEST SWAP2 SWAP1 POP JUMP JUMPDEST PUSH1 0x0 PUSH8 0xFFFFFFFFFFFFFFFF DUP3 GT ISZERO PUSH2 0xC31 JUMPI PUSH2 0xC30 PUSH2 0xB9B JUMP JUMPDEST JUMPDEST PUSH2 0xC3A DUP3 PUSH2 0xAAB JUMP JUMPDEST SWAP1 POP PUSH1 0x20 DUP2 ADD SWAP1 POP SWAP2 SWAP1 POP JUMP JUMPDEST DUP3 DUP2 DUP4 CALLDATACOPY PUSH1 0x0 DUP4 DUP4 ADD MSTORE POP POP POP JUMP JUMPDEST PUSH1 0x0 PUSH2 0xC69 PUSH2 0xC64 DUP5 PUSH2 0xC16 JUMP JUMPDEST PUSH2 0xBFB JUMP JUMPDEST SWAP1 POP DUP3 DUP2 MSTORE PUSH1 0x20 DUP2 ADD DUP5 DUP5 DUP5 ADD GT ISZERO PUSH2 0xC85 JUMPI PUSH2 0xC84 PUSH2 0xB96 JUMP JUMPDEST JUMPDEST PUSH2 0xC90 DUP5 DUP3 DUP6 PUSH2 0xC47 JUMP JUMPDEST POP SWAP4 SWAP3 POP POP POP JUMP JUMPDEST PUSH1 0x0 DUP3 PUSH1 0x1F DUP4 ADD SLT PUSH2 0xCAD JUMPI PUSH2 0xCAC PUSH2 0xB91 JUMP JUMPDEST JUMPDEST DUP2 CALLDATALOAD PUSH2 0xCBD DUP5 DUP3 PUSH1 0x20 DUP7 ADD PUSH2 0xC56 JUMP JUMPDEST SWAP2 POP POP SWAP3 SWAP2 POP POP JUMP JUMPDEST PUSH1 0x0 PUSH1 0x20 DUP3 DUP5 SUB SLT ISZERO PUSH2 0xCDC JUMPI PUSH2 0xCDB PUSH2 0x9D0 JUMP JUMPDEST JUMPDEST PUSH1 0x0 DUP3 ADD CALLDATALOAD PUSH8 0xFFFFFFFFFFFFFFFF DUP2 GT ISZERO PUSH2 0xCFA JUMPI PUSH2 0xCF9 PUSH2 0x9D5 JUMP JUMPDEST JUMPDEST PUSH2 0xD06 DUP5 DUP3 DUP6 ADD PUSH2 0xC98 JUMP JUMPDEST SWAP2 POP POP SWAP3 SWAP2 POP POP JUMP JUMPDEST PUSH2 0xD18 DUP2 PUSH2 0xAF5 JUMP JUMPDEST DUP2 EQ PUSH2 0xD23 JUMPI PUSH1 0x0 DUP1 REVERT JUMPDEST POP JUMP JUMPDEST PUSH1 0x0 DUP2 CALLDATALOAD SWAP1 POP PUSH2 0xD35 DUP2 PUSH2 0xD0F JUMP JUMPDEST SWAP3 SWAP2 POP POP JUMP JUMPDEST PUSH1 0x0 DUP1 PUSH1 0x40 DUP4 DUP6 SUB SLT ISZERO PUSH2 0xD52 JUMPI PUSH2 0xD51 PUSH2 0x9D0 JUMP JUMPDEST JUMPDEST PUSH1 0x0 PUSH2 0xD60 DUP6 DUP3 DUP7 ADD PUSH2 0xA23 JUMP JUMPDEST SWAP3 POP POP PUSH1 0x20 PUSH2 0xD71 DUP6 DUP3 DUP7 ADD PUSH2 0xD26 JUMP JUMPDEST SWAP2 POP POP SWAP3 POP SWAP3 SWAP1 POP JUMP JUMPDEST PUSH32 0x4F6E6C79206F776E65722063616E20646F207468697320666E00000000000000 PUSH1 0x0 DUP3 ADD MSTORE POP JUMP JUMPDEST PUSH1 0x0 PUSH2 0xDB1 PUSH1 0x19 DUP4 PUSH2 0xA70 JUMP JUMPDEST SWAP2 POP PUSH2 0xDBC DUP3 PUSH2 0xD7B JUMP JUMPDEST PUSH1 0x20 DUP3 ADD SWAP1 POP SWAP2 SWAP1 POP JUMP JUMPDEST PUSH1 0x0 PUSH1 0x20 DUP3 ADD SWAP1 POP DUP2 DUP2 SUB PUSH1 0x0 DUP4 ADD MSTORE PUSH2 0xDE0 DUP2 PUSH2 0xDA4 JUMP JUMPDEST SWAP1 POP SWAP2 SWAP1 POP JUMP JUMPDEST PUSH32 0x4E6F2077696E6E6E657273000000000000000000000000000000000000000000 PUSH1 0x0 DUP3 ADD MSTORE POP JUMP JUMPDEST PUSH1 0x0 PUSH2 0xE1D PUSH1 0xB DUP4 PUSH2 0xA70 JUMP JUMPDEST SWAP2 POP PUSH2 0xE28 DUP3 PUSH2 0xDE7 JUMP JUMPDEST PUSH1 0x20 DUP3 ADD SWAP1 POP SWAP2 SWAP1 POP JUMP JUMPDEST PUSH1 0x0 PUSH1 0x20 DUP3 ADD SWAP1 POP DUP2 DUP2 SUB PUSH1 0x0 DUP4 ADD MSTORE PUSH2 0xE4C DUP2 PUSH2 0xE10 JUMP JUMPDEST SWAP1 POP SWAP2 SWAP1 POP JUMP JUMPDEST PUSH32 0x4E487B7100000000000000000000000000000000000000000000000000000000 PUSH1 0x0 MSTORE PUSH1 0x12 PUSH1 0x4 MSTORE PUSH1 0x24 PUSH1 0x0 REVERT JUMPDEST PUSH32 0x4E487B7100000000000000000000000000000000000000000000000000000000 PUSH1 0x0 MSTORE PUSH1 0x11 PUSH1 0x4 MSTORE PUSH1 0x24 PUSH1 0x0 REVERT JUMPDEST PUSH1 0x0 PUSH2 0xEBC DUP3 PUSH2 0xAF5 JUMP JUMPDEST SWAP2 POP PUSH2 0xEC7 DUP4 PUSH2 0xAF5 JUMP JUMPDEST SWAP3 POP DUP3 PUSH2 0xED7 JUMPI PUSH2 0xED6 PUSH2 0xE53 JUMP JUMPDEST JUMPDEST DUP3 DUP3 DIV SWAP1 POP SWAP3 SWAP2 POP POP JUMP JUMPDEST PUSH32 0x4E487B7100000000000000000000000000000000000000000000000000000000 PUSH1 0x0 MSTORE PUSH1 0x32 PUSH1 0x4 MSTORE PUSH1 0x24 PUSH1 0x0 REVERT JUMPDEST PUSH1 0x0 PUSH2 0xF1C DUP3 PUSH2 0xAF5 JUMP JUMPDEST SWAP2 POP PUSH32 0xFFFFFFFFFFFFFFFFFFFFFFFFFFFFFFFFFFFFFFFFFFFFFFFFFFFFFFFFFFFFFFFF DUP3 SUB PUSH2 0xF4E JUMPI PUSH2 0xF4D PUSH2 0xE82 JUMP JUMPDEST JUMPDEST PUSH1 0x1 DUP3 ADD SWAP1 POP SWAP2 SWAP1 POP JUMP JUMPDEST PUSH32 0x4E487B7100000000000000000000000000000000000000000000000000000000 PUSH1 0x0 MSTORE PUSH1 0x22 PUSH1 0x4 MSTORE PUSH1 0x24 PUSH1 0x0 REVERT JUMPDEST PUSH1 0x0 PUSH1 0x2 DUP3 DIV SWAP1 POP PUSH1 0x1 DUP3 AND DUP1 PUSH2 0xFA0 JUMPI PUSH1 0x7F DUP3 AND SWAP2 POP JUMPDEST PUSH1 0x20 DUP3 LT DUP2 SUB PUSH2 0xFB3 JUMPI PUSH2 0xFB2 PUSH2 0xF59 JUMP JUMPDEST JUMPDEST POP SWAP2 SWAP1 POP JUMP JUMPDEST PUSH1 0x0 DUP2 SWAP1 POP DUP2 PUSH1 0x0 MSTORE PUSH1 0x20 PUSH1 0x0 KECCAK256 SWAP1 POP SWAP2 SWAP1 POP JUMP JUMPDEST PUSH1 0x0 PUSH1 0x20 PUSH1 0x1F DUP4 ADD DIV SWAP1 POP SWAP2 SWAP1 POP JUMP JUMPDEST PUSH1 0x0 DUP3 DUP3 SHL SWAP1 POP SWAP3 SWAP2 POP POP JUMP JUMPDEST PUSH1 0x0 PUSH1 0x8 DUP4 MUL PUSH2 0x101B PUSH32 0xFFFFFFFFFFFFFFFFFFFFFFFFFFFFFFFFFFFFFFFFFFFFFFFFFFFFFFFFFFFFFFFF DUP3 PUSH2 0xFDE JUMP JUMPDEST PUSH2 0x1025 DUP7 DUP4 PUSH2 0xFDE JUMP JUMPDEST SWAP6 POP DUP1 NOT DUP5 AND SWAP4 POP DUP1 DUP7 AND DUP5 OR SWAP3 POP POP POP SWAP4 SWAP3 POP POP POP JUMP JUMPDEST PUSH1 0x0 DUP2 SWAP1 POP SWAP2 SWAP1 POP JUMP JUMPDEST PUSH1 0x0 PUSH2 0x1062 PUSH2 0x105D PUSH2 0x1058 DUP5 PUSH2 0xAF5 JUMP JUMPDEST PUSH2 0x103D JUMP JUMPDEST PUSH2 0xAF5 JUMP JUMPDEST SWAP1 POP SWAP2 SWAP1 POP JUMP JUMPDEST PUSH1 0x0 DUP2 SWAP1 POP SWAP2 SWAP1 POP JUMP JUMPDEST PUSH2 0x107C DUP4 PUSH2 0x1047 JUMP JUMPDEST PUSH2 0x1090 PUSH2 0x1088 DUP3 PUSH2 0x1069 JUMP JUMPDEST DUP5 DUP5 SLOAD PUSH2 0xFEB JUMP JUMPDEST DUP3 SSTORE POP POP POP POP JUMP JUMPDEST PUSH1 0x0 SWAP1 JUMP JUMPDEST PUSH2 0x10A5 PUSH2 0x1098 JUMP JUMPDEST PUSH2 0x10B0 DUP2 DUP5 DUP5 PUSH2 0x1073 JUMP JUMPDEST POP POP POP JUMP JUMPDEST JUMPDEST DUP2 DUP2 LT ISZERO PUSH2 0x10D4 JUMPI PUSH2 0x10C9 PUSH1 0x0 DUP3 PUSH2 0x109D JUMP JUMPDEST PUSH1 0x1 DUP2 ADD SWAP1 POP PUSH2 0x10B6 JUMP JUMPDEST POP POP JUMP JUMPDEST PUSH1 0x1F DUP3 GT ISZERO PUSH2 0x1119 JUMPI PUSH2 0x10EA DUP2 PUSH2 0xFB9 JUMP JUMPDEST PUSH2 0x10F3 DUP5 PUSH2 0xFCE JUMP JUMPDEST DUP2 ADD PUSH1 0x20 DUP6 LT ISZERO PUSH2 0x1102 JUMPI DUP2 SWAP1 POP JUMPDEST PUSH2 0x1116 PUSH2 0x110E DUP6 PUSH2 0xFCE JUMP JUMPDEST DUP4 ADD DUP3 PUSH2 0x10B5 JUMP JUMPDEST POP POP JUMPDEST POP POP POP JUMP JUMPDEST PUSH1 0x0 DUP3 DUP3 SHR SWAP1 POP SWAP3 SWAP2 POP POP JUMP JUMPDEST PUSH1 0x0 PUSH2 0x113C PUSH1 0x0 NOT DUP5 PUSH1 0x8 MUL PUSH2 0x111E JUMP JUMPDEST NOT DUP1 DUP4 AND SWAP2 POP POP SWAP3 SWAP2 POP POP JUMP JUMPDEST PUSH1 0x0 PUSH2 0x1155 DUP4 DUP4 PUSH2 0x112B JUMP JUMPDEST SWAP2 POP DUP3 PUSH1 0x2 MUL DUP3 OR SWAP1 POP SWAP3 SWAP2 POP POP JUMP JUMPDEST PUSH2 0x116E DUP3 PUSH2 0xA65 JUMP JUMPDEST PUSH8 0xFFFFFFFFFFFFFFFF DUP2 GT ISZERO PUSH2 0x1187 JUMPI PUSH2 0x1186 PUSH2 0xB9B JUMP JUMPDEST JUMPDEST PUSH2 0x1191 DUP3 SLOAD PUSH2 0xF88 JUMP JUMPDEST PUSH2 0x119C DUP3 DUP3 DUP6 PUSH2 0x10D8 JUMP JUMPDEST PUSH1 0x0 PUSH1 0x20 SWAP1 POP PUSH1 0x1F DUP4 GT PUSH1 0x1 DUP2 EQ PUSH2 0x11CF JUMPI PUSH1 0x0 DUP5 ISZERO PUSH2 0x11BD JUMPI DUP3 DUP8 ADD MLOAD SWAP1 POP JUMPDEST PUSH2 0x11C7 DUP6 DUP3 PUSH2 0x1149 JUMP JUMPDEST DUP7 SSTORE POP PUSH2 0x122F JUMP JUMPDEST PUSH1 0x1F NOT DUP5 AND PUSH2 0x11DD DUP7 PUSH2 0xFB9 JUMP JUMPDEST PUSH1 0x0 JUMPDEST DUP3 DUP2 LT ISZERO PUSH2 0x1205 JUMPI DUP5 DUP10 ADD MLOAD DUP3 SSTORE PUSH1 0x1 DUP3 ADD SWAP2 POP PUSH1 0x20 DUP6 ADD SWAP5 POP PUSH1 0x20 DUP2 ADD SWAP1 POP PUSH2 0x11E0 JUMP JUMPDEST DUP7 DUP4 LT ISZERO PUSH2 0x1222 JUMPI DUP5 DUP10 ADD MLOAD PUSH2 0x121E PUSH1 0x1F DUP10 AND DUP3 PUSH2 0x112B JUMP JUMPDEST DUP4 SSTORE POP JUMPDEST PUSH1 0x1 PUSH1 0x2 DUP9 MUL ADD DUP9 SSTORE POP POP POP JUMPDEST POP POP POP POP POP POP JUMP JUMPDEST PUSH1 0x0 PUSH2 0x1242 DUP3 PUSH2 0xAF5 JUMP JUMPDEST SWAP2 POP PUSH2 0x124D DUP4 PUSH2 0xAF5 JUMP JUMPDEST SWAP3 POP DUP3 DUP3 ADD SWAP1 POP DUP1 DUP3 GT ISZERO PUSH2 0x1265 JUMPI PUSH2 0x1264 PUSH2 0xE82 JUMP JUMPDEST JUMPDEST SWAP3 SWAP2 POP POP JUMP JUMPDEST PUSH32 0x53636F726520616C726561647920736574000000000000000000000000000000 PUSH1 0x0 DUP3 ADD MSTORE POP JUMP JUMPDEST PUSH1 0x0 PUSH2 0x12A1 PUSH1 0x11 DUP4 PUSH2 0xA70 JUMP JUMPDEST SWAP2 POP PUSH2 0x12AC DUP3 PUSH2 0x126B JUMP JUMPDEST PUSH1 0x20 DUP3 ADD SWAP1 POP SWAP2 SWAP1 POP JUMP JUMPDEST PUSH1 0x0 PUSH1 0x20 DUP3 ADD SWAP1 POP DUP2 DUP2 SUB PUSH1 0x0 DUP4 ADD MSTORE PUSH2 0x12D0 DUP2 PUSH2 0x1294 JUMP JUMPDEST SWAP1 POP SWAP2 SWAP1 POP JUMP INVALID LOG2 PUSH5 0x6970667358 0x22 SLT KECCAK256 MSTORE LOG3 GASPRICE 0xC DUP9 SWAP5 PUSH28 0x7C563EAB5A5CDB9EB6AA48D7224107BAD7F31479BD54DE686F64736F PUSH13 0x63430008120033000000000000 "
				},
				"gasEstimates": {
					"creation": {
						"codeDepositCost": "975400",
						"executionCost": "infinite",
						"totalCost": "infinite"
					},
					"external": {
						"JoinGame(string)": "infinite",
						"Players(address)": "infinite",
						"determinWinner()": "infinite",
						"distibutePrize()": "infinite",
						"owner()": "2555",
						"setScore(address,uint256)": "27312"
					}
				},
				"methodIdentifiers": {
					"JoinGame(string)": "b18c5ad1",
					"Players(address)": "2bff8dd6",
					"determinWinner()": "0371b6f0",
					"distibutePrize()": "011028f8",
					"owner()": "8da5cb5b",
					"setScore(address,uint256)": "ee0fcc75"
				}
			},
			"storageLayout": {
				"storage": [
					{
						"astId": 3,
						"contract": "contracts/BABYLION/0517.sol:Quiz1",
						"label": "owner",
						"offset": 0,
						"slot": "0",
						"type": "t_address"
					},
					{
						"astId": 5,
						"contract": "contracts/BABYLION/0517.sol:Quiz1",
						"label": "totalPrize",
						"offset": 0,
						"slot": "1",
						"type": "t_uint256"
					},
					{
						"astId": 56,
						"contract": "contracts/BABYLION/0517.sol:Quiz1",
						"label": "Players",
						"offset": 0,
						"slot": "2",
						"type": "t_mapping(t_address,t_struct(User)39_storage)"
					},
					{
						"astId": 59,
						"contract": "contracts/BABYLION/0517.sol:Quiz1",
						"label": "allPlayers",
						"offset": 0,
						"slot": "3",
						"type": "t_array(t_address)dyn_storage"
					},
					{
						"astId": 62,
						"contract": "contracts/BABYLION/0517.sol:Quiz1",
						"label": "Winner",
						"offset": 0,
						"slot": "4",
						"type": "t_array(t_address)dyn_storage"
					}
				],
				"types": {
					"t_address": {
						"encoding": "inplace",
						"label": "address",
						"numberOfBytes": "20"
					},
					"t_array(t_address)dyn_storage": {
						"base": "t_address",
						"encoding": "dynamic_array",
						"label": "address[]",
						"numberOfBytes": "32"
					},
					"t_bool": {
						"encoding": "inplace",
						"label": "bool",
						"numberOfBytes": "1"
					},
					"t_mapping(t_address,t_struct(User)39_storage)": {
						"encoding": "mapping",
						"key": "t_address",
						"label": "mapping(address => struct Quiz1.User)",
						"numberOfBytes": "32",
						"value": "t_struct(User)39_storage"
					},
					"t_string_storage": {
						"encoding": "bytes",
						"label": "string",
						"numberOfBytes": "32"
					},
					"t_struct(User)39_storage": {
						"encoding": "inplace",
						"label": "struct Quiz1.User",
						"members": [
							{
								"astId": 34,
								"contract": "contracts/BABYLION/0517.sol:Quiz1",
								"label": "name",
								"offset": 0,
								"slot": "0",
								"type": "t_string_storage"
							},
							{
								"astId": 36,
								"contract": "contracts/BABYLION/0517.sol:Quiz1",
								"label": "score",
								"offset": 0,
								"slot": "1",
								"type": "t_uint256"
							},
							{
								"astId": 38,
								"contract": "contracts/BABYLION/0517.sol:Quiz1",
								"label": "isWinner",
								"offset": 0,
								"slot": "2",
								"type": "t_bool"
							}
						],
						"numberOfBytes": "96"
					},
					"t_uint256": {
						"encoding": "inplace",
						"label": "uint256",
						"numberOfBytes": "32"
					}
				}
			},
			"userdoc": {
				"kind": "user",
				"methods": {},
				"version": 1
			}
		}
	}
}