{
	"contracts/BABYLION/0524.sol": {
		"Quiz": {
			"abi": [
				{
					"inputs": [],
					"stateMutability": "nonpayable",
					"type": "constructor"
				},
				{
					"inputs": [
						{
							"internalType": "string",
							"name": "_name",
							"type": "string"
						}
					],
					"name": "checkAct",
					"outputs": [],
					"stateMutability": "nonpayable",
					"type": "function"
				},
				{
					"inputs": [
						{
							"internalType": "string",
							"name": "_name",
							"type": "string"
						}
					],
					"name": "joinHealth",
					"outputs": [],
					"stateMutability": "nonpayable",
					"type": "function"
				},
				{
					"inputs": [],
					"name": "owner",
					"outputs": [
						{
							"internalType": "address payable",
							"name": "",
							"type": "address"
						}
					],
					"stateMutability": "view",
					"type": "function"
				},
				{
					"inputs": [
						{
							"internalType": "string",
							"name": "_name",
							"type": "string"
						}
					],
					"name": "pay",
					"outputs": [],
					"stateMutability": "payable",
					"type": "function"
				},
				{
					"inputs": [
						{
							"internalType": "string",
							"name": "_name",
							"type": "string"
						},
						{
							"internalType": "uint256",
							"name": "_n",
							"type": "uint256"
						}
					],
					"name": "setDay",
					"outputs": [],
					"stateMutability": "nonpayable",
					"type": "function"
				},
				{
					"inputs": [
						{
							"internalType": "string",
							"name": "_name",
							"type": "string"
						},
						{
							"internalType": "uint256",
							"name": "_n",
							"type": "uint256"
						}
					],
					"name": "setHours",
					"outputs": [],
					"stateMutability": "nonpayable",
					"type": "function"
				},
				{
					"inputs": [
						{
							"internalType": "string",
							"name": "_name",
							"type": "string"
						},
						{
							"internalType": "uint256",
							"name": "_n",
							"type": "uint256"
						}
					],
					"name": "setMinutes",
					"outputs": [],
					"stateMutability": "nonpayable",
					"type": "function"
				},
				{
					"inputs": [
						{
							"internalType": "string",
							"name": "_name",
							"type": "string"
						}
					],
					"name": "setUser",
					"outputs": [],
					"stateMutability": "nonpayable",
					"type": "function"
				},
				{
					"inputs": [
						{
							"internalType": "string",
							"name": "",
							"type": "string"
						}
					],
					"name": "userList",
					"outputs": [
						{
							"internalType": "string",
							"name": "name",
							"type": "string"
						},
						{
							"internalType": "uint256",
							"name": "deadline",
							"type": "uint256"
						},
						{
							"internalType": "uint256",
							"name": "ticket",
							"type": "uint256"
						},
						{
							"internalType": "enum Quiz.Status",
							"name": "act",
							"type": "uint8"
						}
					],
					"stateMutability": "view",
					"type": "function"
				},
				{
					"inputs": [],
					"name": "withdraw",
					"outputs": [],
					"stateMutability": "nonpayable",
					"type": "function"
				}
			],
			"devdoc": {
				"kind": "dev",
				"methods": {},
				"version": 1
			},
			"evm": {
				"assembly": "    /* \"contracts/BABYLION/0524.sol\":69:2813  contract Quiz{... */\n  mstore(0x40, 0x80)\n    /* \"contracts/BABYLION/0524.sol\":314:437  constructor() {... */\n  callvalue\n  dup1\n  iszero\n  tag_1\n  jumpi\n  0x00\n  dup1\n  revert\ntag_1:\n  pop\n    /* \"contracts/BABYLION/0524.sol\":355:397  0x5B38Da6a701c568545dCfcB03FcB875f56beddC4 */\n  0x5b38da6a701c568545dcfcb03fcb875f56beddc4\n    /* \"contracts/BABYLION/0524.sol\":339:344  owner */\n  0x00\n  dup1\n    /* \"contracts/BABYLION/0524.sol\":339:398  owner = payable(0x5B38Da6a701c568545dCfcB03FcB875f56beddC4) */\n  0x0100\n  exp\n  dup2\n  sload\n  dup2\n  0xffffffffffffffffffffffffffffffffffffffff\n  mul\n  not\n  and\n  swap1\n  dup4\n  0xffffffffffffffffffffffffffffffffffffffff\n  and\n  mul\n  or\n  swap1\n  sstore\n  pop\n    /* \"contracts/BABYLION/0524.sol\":69:2813  contract Quiz{... */\n  dataSize(sub_0)\n  dup1\n  dataOffset(sub_0)\n  0x00\n  codecopy\n  0x00\n  return\nstop\n\nsub_0: assembly {\n        /* \"contracts/BABYLION/0524.sol\":69:2813  contract Quiz{... */\n      mstore(0x40, 0x80)\n      jumpi(tag_1, lt(calldatasize, 0x04))\n      shr(0xe0, calldataload(0x00))\n      dup1\n      0x70079876\n      gt\n      tag_12\n      jumpi\n      dup1\n      0x70079876\n      eq\n      tag_7\n      jumpi\n      dup1\n      0x7d0068b9\n      eq\n      tag_8\n      jumpi\n      dup1\n      0x8da5cb5b\n      eq\n      tag_9\n      jumpi\n      dup1\n      0xd0020fad\n      eq\n      tag_10\n      jumpi\n      dup1\n      0xf30e1474\n      eq\n      tag_11\n      jumpi\n      jump(tag_1)\n    tag_12:\n      dup1\n      0x13cb8fda\n      eq\n      tag_2\n      jumpi\n      dup1\n      0x2b66d72e\n      eq\n      tag_3\n      jumpi\n      dup1\n      0x34c3f10e\n      eq\n      tag_4\n      jumpi\n      dup1\n      0x3ccfd60b\n      eq\n      tag_5\n      jumpi\n      dup1\n      0x4170be6e\n      eq\n      tag_6\n      jumpi\n    tag_1:\n      0x00\n      dup1\n      revert\n        /* \"contracts/BABYLION/0524.sol\":1106:1231  function setDay(string memory _name, uint _n) public checkowner {... */\n    tag_2:\n      callvalue\n      dup1\n      iszero\n      tag_13\n      jumpi\n      0x00\n      dup1\n      revert\n    tag_13:\n      pop\n      tag_14\n      0x04\n      dup1\n      calldatasize\n      sub\n      dup2\n      add\n      swap1\n      tag_15\n      swap2\n      swap1\n      tag_16\n      jump\t// in\n    tag_15:\n      tag_17\n      jump\t// in\n    tag_14:\n      stop\n        /* \"contracts/BABYLION/0524.sol\":2019:2307  function pay(string memory _name) public payable {... */\n    tag_3:\n      tag_18\n      0x04\n      dup1\n      calldatasize\n      sub\n      dup2\n      add\n      swap1\n      tag_19\n      swap2\n      swap1\n      tag_20\n      jump\t// in\n    tag_19:\n      tag_21\n      jump\t// in\n    tag_18:\n      stop\n        /* \"contracts/BABYLION/0524.sol\":1238:1363  function setHours(string memory _name, uint _n) public checkowner {... */\n    tag_4:\n      callvalue\n      dup1\n      iszero\n      tag_22\n      jumpi\n      0x00\n      dup1\n      revert\n    tag_22:\n      pop\n      tag_23\n      0x04\n      dup1\n      calldatasize\n      sub\n      dup2\n      add\n      swap1\n      tag_24\n      swap2\n      swap1\n      tag_16\n      jump\t// in\n    tag_24:\n      tag_25\n      jump\t// in\n    tag_23:\n      stop\n        /* \"contracts/BABYLION/0524.sol\":2716:2810  function withdraw() public checkowner {... */\n    tag_5:\n      callvalue\n      dup1\n      iszero\n      tag_26\n      jumpi\n      0x00\n      dup1\n      revert\n    tag_26:\n      pop\n      tag_27\n      tag_28\n      jump\t// in\n    tag_27:\n      stop\n        /* \"contracts/BABYLION/0524.sol\":2413:2559  function joinHealth(string memory _name) public {... */\n    tag_6:\n      callvalue\n      dup1\n      iszero\n      tag_29\n      jumpi\n      0x00\n      dup1\n      revert\n    tag_29:\n      pop\n      tag_30\n      0x04\n      dup1\n      calldatasize\n      sub\n      dup2\n      add\n      swap1\n      tag_31\n      swap2\n      swap1\n      tag_20\n      jump\t// in\n    tag_31:\n      tag_32\n      jump\t// in\n    tag_30:\n      stop\n        /* \"contracts/BABYLION/0524.sol\":1703:1894  function checkAct(string  memory _name) public {... */\n    tag_7:\n      callvalue\n      dup1\n      iszero\n      tag_33\n      jumpi\n      0x00\n      dup1\n      revert\n    tag_33:\n      pop\n      tag_34\n      0x04\n      dup1\n      calldatasize\n      sub\n      dup2\n      add\n      swap1\n      tag_35\n      swap2\n      swap1\n      tag_20\n      jump\t// in\n    tag_35:\n      tag_36\n      jump\t// in\n    tag_34:\n      stop\n        /* \"contracts/BABYLION/0524.sol\":1370:1495  function setMinutes(string memory _name, uint _n) public checkowner {... */\n    tag_8:\n      callvalue\n      dup1\n      iszero\n      tag_37\n      jumpi\n      0x00\n      dup1\n      revert\n    tag_37:\n      pop\n      tag_38\n      0x04\n      dup1\n      calldatasize\n      sub\n      dup2\n      add\n      swap1\n      tag_39\n      swap2\n      swap1\n      tag_16\n      jump\t// in\n    tag_39:\n      tag_40\n      jump\t// in\n    tag_38:\n      stop\n        /* \"contracts/BABYLION/0524.sol\":277:305  address payable public owner */\n    tag_9:\n      callvalue\n      dup1\n      iszero\n      tag_41\n      jumpi\n      0x00\n      dup1\n      revert\n    tag_41:\n      pop\n      tag_42\n      tag_43\n      jump\t// in\n    tag_42:\n      mload(0x40)\n      tag_44\n      swap2\n      swap1\n      tag_45\n      jump\t// in\n    tag_44:\n      mload(0x40)\n      dup1\n      swap2\n      sub\n      swap1\n      return\n        /* \"contracts/BABYLION/0524.sol\":965:1100  function setUser(string memory _name ) public checkowner {... */\n    tag_10:\n      callvalue\n      dup1\n      iszero\n      tag_46\n      jumpi\n      0x00\n      dup1\n      revert\n    tag_46:\n      pop\n      tag_47\n      0x04\n      dup1\n      calldatasize\n      sub\n      dup2\n      add\n      swap1\n      tag_48\n      swap2\n      swap1\n      tag_20\n      jump\t// in\n    tag_48:\n      tag_49\n      jump\t// in\n    tag_47:\n      stop\n        /* \"contracts/BABYLION/0524.sol\":841:878  mapping(string=>user) public userList */\n    tag_11:\n      callvalue\n      dup1\n      iszero\n      tag_50\n      jumpi\n      0x00\n      dup1\n      revert\n    tag_50:\n      pop\n      tag_51\n      0x04\n      dup1\n      calldatasize\n      sub\n      dup2\n      add\n      swap1\n      tag_52\n      swap2\n      swap1\n      tag_20\n      jump\t// in\n    tag_52:\n      tag_53\n      jump\t// in\n    tag_51:\n      mload(0x40)\n      tag_54\n      swap5\n      swap4\n      swap3\n      swap2\n      swap1\n      tag_55\n      jump\t// in\n    tag_54:\n      mload(0x40)\n      dup1\n      swap2\n      sub\n      swap1\n      return\n        /* \"contracts/BABYLION/0524.sol\":1106:1231  function setDay(string memory _name, uint _n) public checkowner {... */\n    tag_17:\n        /* \"contracts/BABYLION/0524.sol\":498:503  owner */\n      0x00\n      dup1\n      sload\n      swap1\n      0x0100\n      exp\n      swap1\n      div\n      0xffffffffffffffffffffffffffffffffffffffff\n      and\n        /* \"contracts/BABYLION/0524.sol\":484:503  msg.sender == owner */\n      0xffffffffffffffffffffffffffffffffffffffff\n      and\n        /* \"contracts/BABYLION/0524.sol\":484:494  msg.sender */\n      caller\n        /* \"contracts/BABYLION/0524.sol\":484:503  msg.sender == owner */\n      0xffffffffffffffffffffffffffffffffffffffff\n      and\n      eq\n        /* \"contracts/BABYLION/0524.sol\":476:504  require(msg.sender == owner) */\n      tag_57\n      jumpi\n      0x00\n      dup1\n      revert\n    tag_57:\n        /* \"contracts/BABYLION/0524.sol\":1220:1222  _n */\n      dup1\n        /* \"contracts/BABYLION/0524.sol\":1212:1217  86400 */\n      0x015180\n        /* \"contracts/BABYLION/0524.sol\":1212:1222  86400 * _n */\n      tag_59\n      swap2\n      swap1\n      tag_60\n      jump\t// in\n    tag_59:\n        /* \"contracts/BABYLION/0524.sol\":1181:1189  userList */\n      0x01\n        /* \"contracts/BABYLION/0524.sol\":1190:1195  _name */\n      dup4\n        /* \"contracts/BABYLION/0524.sol\":1181:1196  userList[_name] */\n      mload(0x40)\n      tag_61\n      swap2\n      swap1\n      tag_62\n      jump\t// in\n    tag_61:\n      swap1\n      dup2\n      mstore\n      0x20\n      add\n      mload(0x40)\n      dup1\n      swap2\n      sub\n      swap1\n      keccak256\n        /* \"contracts/BABYLION/0524.sol\":1181:1205  userList[_name].deadline */\n      0x01\n      add\n      0x00\n        /* \"contracts/BABYLION/0524.sol\":1181:1223  userList[_name].deadline +=   (86400 * _n) */\n      dup3\n      dup3\n      sload\n      tag_63\n      swap2\n      swap1\n      tag_64\n      jump\t// in\n    tag_63:\n      swap3\n      pop\n      pop\n      dup2\n      swap1\n      sstore\n      pop\n        /* \"contracts/BABYLION/0524.sol\":1106:1231  function setDay(string memory _name, uint _n) public checkowner {... */\n      pop\n      pop\n      jump\t// out\n        /* \"contracts/BABYLION/0524.sol\":2019:2307  function pay(string memory _name) public payable {... */\n    tag_21:\n        /* \"contracts/BABYLION/0524.sol\":2097:2107  0.02 ether */\n      0x470de4df820000\n        /* \"contracts/BABYLION/0524.sol\":2087:2096  msg.value */\n      callvalue\n        /* \"contracts/BABYLION/0524.sol\":2087:2107  msg.value>0.02 ether */\n      gt\n        /* \"contracts/BABYLION/0524.sol\":2087:2138  msg.value>0.02 ether && msg.value % 0.02 ether == 0 */\n      dup1\n      iszero\n      tag_66\n      jumpi\n      pop\n        /* \"contracts/BABYLION/0524.sol\":2137:2138  0 */\n      0x00\n        /* \"contracts/BABYLION/0524.sol\":2123:2133  0.02 ether */\n      0x470de4df820000\n        /* \"contracts/BABYLION/0524.sol\":2111:2120  msg.value */\n      callvalue\n        /* \"contracts/BABYLION/0524.sol\":2111:2133  msg.value % 0.02 ether */\n      tag_67\n      swap2\n      swap1\n      tag_68\n      jump\t// in\n    tag_67:\n        /* \"contracts/BABYLION/0524.sol\":2111:2138  msg.value % 0.02 ether == 0 */\n      eq\n        /* \"contracts/BABYLION/0524.sol\":2087:2138  msg.value>0.02 ether && msg.value % 0.02 ether == 0 */\n    tag_66:\n        /* \"contracts/BABYLION/0524.sol\":2079:2202  require(msg.value>0.02 ether && msg.value % 0.02 ether == 0, \"For more than 0.02 ether, please pay in units of 0.02 ether\") */\n      tag_69\n      jumpi\n      mload(0x40)\n      0x08c379a000000000000000000000000000000000000000000000000000000000\n      dup2\n      mstore\n      0x04\n      add\n      tag_70\n      swap1\n      tag_71\n      jump\t// in\n    tag_70:\n      mload(0x40)\n      dup1\n      swap2\n      sub\n      swap1\n      revert\n    tag_69:\n        /* \"contracts/BABYLION/0524.sol\":2213:2227  uint payamount */\n      0x00\n        /* \"contracts/BABYLION/0524.sol\":2243:2253  0.02 ether */\n      0x470de4df820000\n        /* \"contracts/BABYLION/0524.sol\":2231:2240  msg.value */\n      callvalue\n        /* \"contracts/BABYLION/0524.sol\":2231:2253  msg.value / 0.02 ether */\n      tag_72\n      swap2\n      swap1\n      tag_73\n      jump\t// in\n    tag_72:\n        /* \"contracts/BABYLION/0524.sol\":2213:2254  uint payamount = (msg.value / 0.02 ether) */\n      swap1\n      pop\n        /* \"contracts/BABYLION/0524.sol\":2290:2299  payamount */\n      dup1\n        /* \"contracts/BABYLION/0524.sol\":2265:2273  userList */\n      0x01\n        /* \"contracts/BABYLION/0524.sol\":2274:2279  _name */\n      dup4\n        /* \"contracts/BABYLION/0524.sol\":2265:2280  userList[_name] */\n      mload(0x40)\n      tag_74\n      swap2\n      swap1\n      tag_62\n      jump\t// in\n    tag_74:\n      swap1\n      dup2\n      mstore\n      0x20\n      add\n      mload(0x40)\n      dup1\n      swap2\n      sub\n      swap1\n      keccak256\n        /* \"contracts/BABYLION/0524.sol\":2265:2287  userList[_name].ticket */\n      0x02\n      add\n        /* \"contracts/BABYLION/0524.sol\":2265:2299  userList[_name].ticket = payamount */\n      dup2\n      swap1\n      sstore\n      pop\n        /* \"contracts/BABYLION/0524.sol\":2068:2307  {... */\n      pop\n        /* \"contracts/BABYLION/0524.sol\":2019:2307  function pay(string memory _name) public payable {... */\n      pop\n      jump\t// out\n        /* \"contracts/BABYLION/0524.sol\":1238:1363  function setHours(string memory _name, uint _n) public checkowner {... */\n    tag_25:\n        /* \"contracts/BABYLION/0524.sol\":498:503  owner */\n      0x00\n      dup1\n      sload\n      swap1\n      0x0100\n      exp\n      swap1\n      div\n      0xffffffffffffffffffffffffffffffffffffffff\n      and\n        /* \"contracts/BABYLION/0524.sol\":484:503  msg.sender == owner */\n      0xffffffffffffffffffffffffffffffffffffffff\n      and\n        /* \"contracts/BABYLION/0524.sol\":484:494  msg.sender */\n      caller\n        /* \"contracts/BABYLION/0524.sol\":484:503  msg.sender == owner */\n      0xffffffffffffffffffffffffffffffffffffffff\n      and\n      eq\n        /* \"contracts/BABYLION/0524.sol\":476:504  require(msg.sender == owner) */\n      tag_76\n      jumpi\n      0x00\n      dup1\n      revert\n    tag_76:\n        /* \"contracts/BABYLION/0524.sol\":1352:1354  _n */\n      dup1\n        /* \"contracts/BABYLION/0524.sol\":1345:1349  3600 */\n      0x0e10\n        /* \"contracts/BABYLION/0524.sol\":1345:1354  3600 * _n */\n      tag_78\n      swap2\n      swap1\n      tag_60\n      jump\t// in\n    tag_78:\n        /* \"contracts/BABYLION/0524.sol\":1315:1323  userList */\n      0x01\n        /* \"contracts/BABYLION/0524.sol\":1324:1329  _name */\n      dup4\n        /* \"contracts/BABYLION/0524.sol\":1315:1330  userList[_name] */\n      mload(0x40)\n      tag_79\n      swap2\n      swap1\n      tag_62\n      jump\t// in\n    tag_79:\n      swap1\n      dup2\n      mstore\n      0x20\n      add\n      mload(0x40)\n      dup1\n      swap2\n      sub\n      swap1\n      keccak256\n        /* \"contracts/BABYLION/0524.sol\":1315:1339  userList[_name].deadline */\n      0x01\n      add\n      0x00\n        /* \"contracts/BABYLION/0524.sol\":1315:1355  userList[_name].deadline +=  (3600 * _n) */\n      dup3\n      dup3\n      sload\n      tag_80\n      swap2\n      swap1\n      tag_64\n      jump\t// in\n    tag_80:\n      swap3\n      pop\n      pop\n      dup2\n      swap1\n      sstore\n      pop\n        /* \"contracts/BABYLION/0524.sol\":1238:1363  function setHours(string memory _name, uint _n) public checkowner {... */\n      pop\n      pop\n      jump\t// out\n        /* \"contracts/BABYLION/0524.sol\":2716:2810  function withdraw() public checkowner {... */\n    tag_28:\n        /* \"contracts/BABYLION/0524.sol\":498:503  owner */\n      0x00\n      dup1\n      sload\n      swap1\n      0x0100\n      exp\n      swap1\n      div\n      0xffffffffffffffffffffffffffffffffffffffff\n      and\n        /* \"contracts/BABYLION/0524.sol\":484:503  msg.sender == owner */\n      0xffffffffffffffffffffffffffffffffffffffff\n      and\n        /* \"contracts/BABYLION/0524.sol\":484:494  msg.sender */\n      caller\n        /* \"contracts/BABYLION/0524.sol\":484:503  msg.sender == owner */\n      0xffffffffffffffffffffffffffffffffffffffff\n      and\n      eq\n        /* \"contracts/BABYLION/0524.sol\":476:504  require(msg.sender == owner) */\n      tag_82\n      jumpi\n      0x00\n      dup1\n      revert\n    tag_82:\n        /* \"contracts/BABYLION/0524.sol\":2765:2770  owner */\n      0x00\n      dup1\n      sload\n      swap1\n      0x0100\n      exp\n      swap1\n      div\n      0xffffffffffffffffffffffffffffffffffffffff\n      and\n        /* \"contracts/BABYLION/0524.sol\":2765:2779  owner.transfer */\n      0xffffffffffffffffffffffffffffffffffffffff\n      and\n        /* \"contracts/BABYLION/0524.sol\":2765:2802  owner.transfer(address(this).balance) */\n      0x08fc\n        /* \"contracts/BABYLION/0524.sol\":2780:2801  address(this).balance */\n      selfbalance\n        /* \"contracts/BABYLION/0524.sol\":2765:2802  owner.transfer(address(this).balance) */\n      swap1\n      dup2\n      iszero\n      mul\n      swap1\n      mload(0x40)\n      0x00\n      mload(0x40)\n      dup1\n      dup4\n      sub\n      dup2\n      dup6\n      dup9\n      dup9\n      call\n      swap4\n      pop\n      pop\n      pop\n      pop\n      iszero\n      dup1\n      iszero\n      tag_85\n      jumpi\n      returndatasize\n      0x00\n      dup1\n      returndatacopy\n      revert(0x00, returndatasize)\n    tag_85:\n      pop\n        /* \"contracts/BABYLION/0524.sol\":2716:2810  function withdraw() public checkowner {... */\n      jump\t// out\n        /* \"contracts/BABYLION/0524.sol\":2413:2559  function joinHealth(string memory _name) public {... */\n    tag_32:\n        /* \"contracts/BABYLION/0524.sol\":2503:2512  Status.On */\n      0x00\n        /* \"contracts/BABYLION/0524.sol\":2480:2512  userList[_name].act == Status.On */\n      0x01\n      dup2\n      gt\n      iszero\n      tag_87\n      jumpi\n      tag_88\n      tag_89\n      jump\t// in\n    tag_88:\n    tag_87:\n        /* \"contracts/BABYLION/0524.sol\":2480:2488  userList */\n      0x01\n        /* \"contracts/BABYLION/0524.sol\":2489:2494  _name */\n      dup3\n        /* \"contracts/BABYLION/0524.sol\":2480:2495  userList[_name] */\n      mload(0x40)\n      tag_90\n      swap2\n      swap1\n      tag_62\n      jump\t// in\n    tag_90:\n      swap1\n      dup2\n      mstore\n      0x20\n      add\n      mload(0x40)\n      dup1\n      swap2\n      sub\n      swap1\n      keccak256\n        /* \"contracts/BABYLION/0524.sol\":2480:2499  userList[_name].act */\n      0x03\n      add\n      0x00\n      swap1\n      sload\n      swap1\n      0x0100\n      exp\n      swap1\n      div\n      0xff\n      and\n        /* \"contracts/BABYLION/0524.sol\":2480:2512  userList[_name].act == Status.On */\n      0x01\n      dup2\n      gt\n      iszero\n      tag_91\n      jumpi\n      tag_92\n      tag_89\n      jump\t// in\n    tag_92:\n    tag_91:\n      eq\n        /* \"contracts/BABYLION/0524.sol\":2472:2513  require(userList[_name].act == Status.On) */\n      tag_93\n      jumpi\n      0x00\n      dup1\n      revert\n    tag_93:\n        /* \"contracts/BABYLION/0524.sol\":2550:2551  1 */\n      0x01\n        /* \"contracts/BABYLION/0524.sol\":2524:2532  userList */\n      dup1\n        /* \"contracts/BABYLION/0524.sol\":2533:2538  _name */\n      dup3\n        /* \"contracts/BABYLION/0524.sol\":2524:2539  userList[_name] */\n      mload(0x40)\n      tag_94\n      swap2\n      swap1\n      tag_62\n      jump\t// in\n    tag_94:\n      swap1\n      dup2\n      mstore\n      0x20\n      add\n      mload(0x40)\n      dup1\n      swap2\n      sub\n      swap1\n      keccak256\n        /* \"contracts/BABYLION/0524.sol\":2524:2546  userList[_name].ticket */\n      0x02\n      add\n      0x00\n        /* \"contracts/BABYLION/0524.sol\":2524:2551  userList[_name].ticket -= 1 */\n      dup3\n      dup3\n      sload\n      tag_95\n      swap2\n      swap1\n      tag_96\n      jump\t// in\n    tag_95:\n      swap3\n      pop\n      pop\n      dup2\n      swap1\n      sstore\n      pop\n        /* \"contracts/BABYLION/0524.sol\":2413:2559  function joinHealth(string memory _name) public {... */\n      pop\n      jump\t// out\n        /* \"contracts/BABYLION/0524.sol\":1703:1894  function checkAct(string  memory _name) public {... */\n    tag_36:\n        /* \"contracts/BABYLION/0524.sol\":1787:1795  userList */\n      0x01\n        /* \"contracts/BABYLION/0524.sol\":1796:1801  _name */\n      dup2\n        /* \"contracts/BABYLION/0524.sol\":1787:1802  userList[_name] */\n      mload(0x40)\n      tag_98\n      swap2\n      swap1\n      tag_62\n      jump\t// in\n    tag_98:\n      swap1\n      dup2\n      mstore\n      0x20\n      add\n      mload(0x40)\n      dup1\n      swap2\n      sub\n      swap1\n      keccak256\n        /* \"contracts/BABYLION/0524.sol\":1787:1811  userList[_name].deadline */\n      0x01\n      add\n      sload\n        /* \"contracts/BABYLION/0524.sol\":1769:1784  block.timestamp */\n      timestamp\n        /* \"contracts/BABYLION/0524.sol\":1769:1811  block.timestamp < userList[_name].deadline */\n      lt\n        /* \"contracts/BABYLION/0524.sol\":1769:1842  block.timestamp < userList[_name].deadline && userList[_name].ticket != 0 */\n      dup1\n      iszero\n      tag_99\n      jumpi\n      pop\n        /* \"contracts/BABYLION/0524.sol\":1841:1842  0 */\n      0x00\n        /* \"contracts/BABYLION/0524.sol\":1815:1823  userList */\n      0x01\n        /* \"contracts/BABYLION/0524.sol\":1824:1829  _name */\n      dup3\n        /* \"contracts/BABYLION/0524.sol\":1815:1830  userList[_name] */\n      mload(0x40)\n      tag_100\n      swap2\n      swap1\n      tag_62\n      jump\t// in\n    tag_100:\n      swap1\n      dup2\n      mstore\n      0x20\n      add\n      mload(0x40)\n      dup1\n      swap2\n      sub\n      swap1\n      keccak256\n        /* \"contracts/BABYLION/0524.sol\":1815:1837  userList[_name].ticket */\n      0x02\n      add\n      sload\n        /* \"contracts/BABYLION/0524.sol\":1815:1842  userList[_name].ticket != 0 */\n      eq\n      iszero\n        /* \"contracts/BABYLION/0524.sol\":1769:1842  block.timestamp < userList[_name].deadline && userList[_name].ticket != 0 */\n    tag_99:\n        /* \"contracts/BABYLION/0524.sol\":1761:1844  require(block.timestamp < userList[_name].deadline && userList[_name].ticket != 0 ) */\n      tag_101\n      jumpi\n      0x00\n      dup1\n      revert\n    tag_101:\n        /* \"contracts/BABYLION/0524.sol\":1877:1886  Status.On */\n      0x00\n        /* \"contracts/BABYLION/0524.sol\":1855:1863  userList */\n      0x01\n        /* \"contracts/BABYLION/0524.sol\":1864:1869  _name */\n      dup3\n        /* \"contracts/BABYLION/0524.sol\":1855:1870  userList[_name] */\n      mload(0x40)\n      tag_102\n      swap2\n      swap1\n      tag_62\n      jump\t// in\n    tag_102:\n      swap1\n      dup2\n      mstore\n      0x20\n      add\n      mload(0x40)\n      dup1\n      swap2\n      sub\n      swap1\n      keccak256\n        /* \"contracts/BABYLION/0524.sol\":1855:1874  userList[_name].act */\n      0x03\n      add\n      0x00\n        /* \"contracts/BABYLION/0524.sol\":1855:1886  userList[_name].act = Status.On */\n      0x0100\n      exp\n      dup2\n      sload\n      dup2\n      0xff\n      mul\n      not\n      and\n      swap1\n      dup4\n      0x01\n      dup2\n      gt\n      iszero\n      tag_103\n      jumpi\n      tag_104\n      tag_89\n      jump\t// in\n    tag_104:\n    tag_103:\n      mul\n      or\n      swap1\n      sstore\n      pop\n        /* \"contracts/BABYLION/0524.sol\":1703:1894  function checkAct(string  memory _name) public {... */\n      pop\n      jump\t// out\n        /* \"contracts/BABYLION/0524.sol\":1370:1495  function setMinutes(string memory _name, uint _n) public checkowner {... */\n    tag_40:\n        /* \"contracts/BABYLION/0524.sol\":498:503  owner */\n      0x00\n      dup1\n      sload\n      swap1\n      0x0100\n      exp\n      swap1\n      div\n      0xffffffffffffffffffffffffffffffffffffffff\n      and\n        /* \"contracts/BABYLION/0524.sol\":484:503  msg.sender == owner */\n      0xffffffffffffffffffffffffffffffffffffffff\n      and\n        /* \"contracts/BABYLION/0524.sol\":484:494  msg.sender */\n      caller\n        /* \"contracts/BABYLION/0524.sol\":484:503  msg.sender == owner */\n      0xffffffffffffffffffffffffffffffffffffffff\n      and\n      eq\n        /* \"contracts/BABYLION/0524.sol\":476:504  require(msg.sender == owner) */\n      tag_106\n      jumpi\n      0x00\n      dup1\n      revert\n    tag_106:\n        /* \"contracts/BABYLION/0524.sol\":1484:1486  _n */\n      dup1\n        /* \"contracts/BABYLION/0524.sol\":1479:1481  60 */\n      0x3c\n        /* \"contracts/BABYLION/0524.sol\":1479:1486  60 * _n */\n      tag_108\n      swap2\n      swap1\n      tag_60\n      jump\t// in\n    tag_108:\n        /* \"contracts/BABYLION/0524.sol\":1449:1457  userList */\n      0x01\n        /* \"contracts/BABYLION/0524.sol\":1458:1463  _name */\n      dup4\n        /* \"contracts/BABYLION/0524.sol\":1449:1464  userList[_name] */\n      mload(0x40)\n      tag_109\n      swap2\n      swap1\n      tag_62\n      jump\t// in\n    tag_109:\n      swap1\n      dup2\n      mstore\n      0x20\n      add\n      mload(0x40)\n      dup1\n      swap2\n      sub\n      swap1\n      keccak256\n        /* \"contracts/BABYLION/0524.sol\":1449:1473  userList[_name].deadline */\n      0x01\n      add\n      0x00\n        /* \"contracts/BABYLION/0524.sol\":1449:1487  userList[_name].deadline +=  (60 * _n) */\n      dup3\n      dup3\n      sload\n      tag_110\n      swap2\n      swap1\n      tag_64\n      jump\t// in\n    tag_110:\n      swap3\n      pop\n      pop\n      dup2\n      swap1\n      sstore\n      pop\n        /* \"contracts/BABYLION/0524.sol\":1370:1495  function setMinutes(string memory _name, uint _n) public checkowner {... */\n      pop\n      pop\n      jump\t// out\n        /* \"contracts/BABYLION/0524.sol\":277:305  address payable public owner */\n    tag_43:\n      0x00\n      dup1\n      sload\n      swap1\n      0x0100\n      exp\n      swap1\n      div\n      0xffffffffffffffffffffffffffffffffffffffff\n      and\n      dup2\n      jump\t// out\n        /* \"contracts/BABYLION/0524.sol\":965:1100  function setUser(string memory _name ) public checkowner {... */\n    tag_49:\n        /* \"contracts/BABYLION/0524.sol\":498:503  owner */\n      0x00\n      dup1\n      sload\n      swap1\n      0x0100\n      exp\n      swap1\n      div\n      0xffffffffffffffffffffffffffffffffffffffff\n      and\n        /* \"contracts/BABYLION/0524.sol\":484:503  msg.sender == owner */\n      0xffffffffffffffffffffffffffffffffffffffff\n      and\n        /* \"contracts/BABYLION/0524.sol\":484:494  msg.sender */\n      caller\n        /* \"contracts/BABYLION/0524.sol\":484:503  msg.sender == owner */\n      0xffffffffffffffffffffffffffffffffffffffff\n      and\n      eq\n        /* \"contracts/BABYLION/0524.sol\":476:504  require(msg.sender == owner) */\n      tag_112\n      jumpi\n      0x00\n      dup1\n      revert\n    tag_112:\n        /* \"contracts/BABYLION/0524.sol\":1051:1092  user(_name, block.timestamp,0,Status.Off) */\n      mload(0x40)\n      dup1\n      0x80\n      add\n      0x40\n      mstore\n      dup1\n        /* \"contracts/BABYLION/0524.sol\":1056:1061  _name */\n      dup3\n        /* \"contracts/BABYLION/0524.sol\":1051:1092  user(_name, block.timestamp,0,Status.Off) */\n      dup2\n      mstore\n      0x20\n      add\n        /* \"contracts/BABYLION/0524.sol\":1063:1078  block.timestamp */\n      timestamp\n        /* \"contracts/BABYLION/0524.sol\":1051:1092  user(_name, block.timestamp,0,Status.Off) */\n      dup2\n      mstore\n      0x20\n      add\n        /* \"contracts/BABYLION/0524.sol\":1079:1080  0 */\n      0x00\n        /* \"contracts/BABYLION/0524.sol\":1051:1092  user(_name, block.timestamp,0,Status.Off) */\n      dup2\n      mstore\n      0x20\n      add\n        /* \"contracts/BABYLION/0524.sol\":1081:1091  Status.Off */\n      0x01\n        /* \"contracts/BABYLION/0524.sol\":1051:1092  user(_name, block.timestamp,0,Status.Off) */\n      dup1\n      dup2\n      gt\n      iszero\n      tag_114\n      jumpi\n      tag_115\n      tag_89\n      jump\t// in\n    tag_115:\n    tag_114:\n      dup2\n      mstore\n      pop\n        /* \"contracts/BABYLION/0524.sol\":1033:1041  userList */\n      0x01\n        /* \"contracts/BABYLION/0524.sol\":1042:1047  _name */\n      dup3\n        /* \"contracts/BABYLION/0524.sol\":1033:1048  userList[_name] */\n      mload(0x40)\n      tag_116\n      swap2\n      swap1\n      tag_62\n      jump\t// in\n    tag_116:\n      swap1\n      dup2\n      mstore\n      0x20\n      add\n      mload(0x40)\n      dup1\n      swap2\n      sub\n      swap1\n      keccak256\n        /* \"contracts/BABYLION/0524.sol\":1033:1092  userList[_name] = user(_name, block.timestamp,0,Status.Off) */\n      0x00\n      dup3\n      add\n      mload\n      dup2\n      0x00\n      add\n      swap1\n      dup2\n      tag_117\n      swap2\n      swap1\n      tag_118\n      jump\t// in\n    tag_117:\n      pop\n      0x20\n      dup3\n      add\n      mload\n      dup2\n      0x01\n      add\n      sstore\n      0x40\n      dup3\n      add\n      mload\n      dup2\n      0x02\n      add\n      sstore\n      0x60\n      dup3\n      add\n      mload\n      dup2\n      0x03\n      add\n      exp(0x0100, 0x00)\n      dup2\n      sload\n      dup2\n      0xff\n      mul\n      not\n      and\n      swap1\n      dup4\n      0x01\n      dup2\n      gt\n      iszero\n      tag_119\n      jumpi\n      tag_120\n      tag_89\n      jump\t// in\n    tag_120:\n    tag_119:\n      mul\n      or\n      swap1\n      sstore\n      pop\n      swap1\n      pop\n      pop\n        /* \"contracts/BABYLION/0524.sol\":965:1100  function setUser(string memory _name ) public checkowner {... */\n      pop\n      jump\t// out\n        /* \"contracts/BABYLION/0524.sol\":841:878  mapping(string=>user) public userList */\n    tag_53:\n      0x01\n      dup2\n      dup1\n      mload\n      0x20\n      dup2\n      add\n      dup3\n      add\n      dup1\n      mload\n      dup5\n      dup3\n      mstore\n      0x20\n      dup4\n      add\n      0x20\n      dup6\n      add\n      keccak256\n      dup2\n      dup4\n      mstore\n      dup1\n      swap6\n      pop\n      pop\n      pop\n      pop\n      pop\n      pop\n      0x00\n      swap2\n      pop\n      swap1\n      pop\n      dup1\n      0x00\n      add\n      dup1\n      sload\n      tag_121\n      swap1\n      tag_122\n      jump\t// in\n    tag_121:\n      dup1\n      0x1f\n      add\n      0x20\n      dup1\n      swap2\n      div\n      mul\n      0x20\n      add\n      mload(0x40)\n      swap1\n      dup2\n      add\n      0x40\n      mstore\n      dup1\n      swap3\n      swap2\n      swap1\n      dup2\n      dup2\n      mstore\n      0x20\n      add\n      dup3\n      dup1\n      sload\n      tag_123\n      swap1\n      tag_122\n      jump\t// in\n    tag_123:\n      dup1\n      iszero\n      tag_124\n      jumpi\n      dup1\n      0x1f\n      lt\n      tag_125\n      jumpi\n      0x0100\n      dup1\n      dup4\n      sload\n      div\n      mul\n      dup4\n      mstore\n      swap2\n      0x20\n      add\n      swap2\n      jump(tag_124)\n    tag_125:\n      dup3\n      add\n      swap2\n      swap1\n      0x00\n      mstore\n      keccak256(0x00, 0x20)\n      swap1\n    tag_126:\n      dup2\n      sload\n      dup2\n      mstore\n      swap1\n      0x01\n      add\n      swap1\n      0x20\n      add\n      dup1\n      dup4\n      gt\n      tag_126\n      jumpi\n      dup3\n      swap1\n      sub\n      0x1f\n      and\n      dup3\n      add\n      swap2\n    tag_124:\n      pop\n      pop\n      pop\n      pop\n      pop\n      swap1\n      dup1\n      0x01\n      add\n      sload\n      swap1\n      dup1\n      0x02\n      add\n      sload\n      swap1\n      dup1\n      0x03\n      add\n      0x00\n      swap1\n      sload\n      swap1\n      0x0100\n      exp\n      swap1\n      div\n      0xff\n      and\n      swap1\n      pop\n      dup5\n      jump\t// out\n        /* \"#utility.yul\":7:82   */\n    tag_127:\n        /* \"#utility.yul\":40:46   */\n      0x00\n        /* \"#utility.yul\":73:75   */\n      0x40\n        /* \"#utility.yul\":67:76   */\n      mload\n        /* \"#utility.yul\":57:76   */\n      swap1\n      pop\n        /* \"#utility.yul\":7:82   */\n      swap1\n      jump\t// out\n        /* \"#utility.yul\":88:205   */\n    tag_128:\n        /* \"#utility.yul\":197:198   */\n      0x00\n        /* \"#utility.yul\":194:195   */\n      dup1\n        /* \"#utility.yul\":187:199   */\n      revert\n        /* \"#utility.yul\":211:328   */\n    tag_129:\n        /* \"#utility.yul\":320:321   */\n      0x00\n        /* \"#utility.yul\":317:318   */\n      dup1\n        /* \"#utility.yul\":310:322   */\n      revert\n        /* \"#utility.yul\":334:451   */\n    tag_130:\n        /* \"#utility.yul\":443:444   */\n      0x00\n        /* \"#utility.yul\":440:441   */\n      dup1\n        /* \"#utility.yul\":433:445   */\n      revert\n        /* \"#utility.yul\":457:574   */\n    tag_131:\n        /* \"#utility.yul\":566:567   */\n      0x00\n        /* \"#utility.yul\":563:564   */\n      dup1\n        /* \"#utility.yul\":556:568   */\n      revert\n        /* \"#utility.yul\":580:682   */\n    tag_132:\n        /* \"#utility.yul\":621:627   */\n      0x00\n        /* \"#utility.yul\":672:674   */\n      0x1f\n        /* \"#utility.yul\":668:675   */\n      not\n        /* \"#utility.yul\":663:665   */\n      0x1f\n        /* \"#utility.yul\":656:661   */\n      dup4\n        /* \"#utility.yul\":652:666   */\n      add\n        /* \"#utility.yul\":648:676   */\n      and\n        /* \"#utility.yul\":638:676   */\n      swap1\n      pop\n        /* \"#utility.yul\":580:682   */\n      swap2\n      swap1\n      pop\n      jump\t// out\n        /* \"#utility.yul\":688:868   */\n    tag_133:\n        /* \"#utility.yul\":736:813   */\n      0x4e487b7100000000000000000000000000000000000000000000000000000000\n        /* \"#utility.yul\":733:734   */\n      0x00\n        /* \"#utility.yul\":726:814   */\n      mstore\n        /* \"#utility.yul\":833:837   */\n      0x41\n        /* \"#utility.yul\":830:831   */\n      0x04\n        /* \"#utility.yul\":823:838   */\n      mstore\n        /* \"#utility.yul\":857:861   */\n      0x24\n        /* \"#utility.yul\":854:855   */\n      0x00\n        /* \"#utility.yul\":847:862   */\n      revert\n        /* \"#utility.yul\":874:1155   */\n    tag_134:\n        /* \"#utility.yul\":957:984   */\n      tag_186\n        /* \"#utility.yul\":979:983   */\n      dup3\n        /* \"#utility.yul\":957:984   */\n      tag_132\n      jump\t// in\n    tag_186:\n        /* \"#utility.yul\":949:955   */\n      dup2\n        /* \"#utility.yul\":945:985   */\n      add\n        /* \"#utility.yul\":1087:1093   */\n      dup2\n        /* \"#utility.yul\":1075:1085   */\n      dup2\n        /* \"#utility.yul\":1072:1094   */\n      lt\n        /* \"#utility.yul\":1051:1069   */\n      0xffffffffffffffff\n        /* \"#utility.yul\":1039:1049   */\n      dup3\n        /* \"#utility.yul\":1036:1070   */\n      gt\n        /* \"#utility.yul\":1033:1095   */\n      or\n        /* \"#utility.yul\":1030:1118   */\n      iszero\n      tag_187\n      jumpi\n        /* \"#utility.yul\":1098:1116   */\n      tag_188\n      tag_133\n      jump\t// in\n    tag_188:\n        /* \"#utility.yul\":1030:1118   */\n    tag_187:\n        /* \"#utility.yul\":1138:1148   */\n      dup1\n        /* \"#utility.yul\":1134:1136   */\n      0x40\n        /* \"#utility.yul\":1127:1149   */\n      mstore\n        /* \"#utility.yul\":917:1155   */\n      pop\n        /* \"#utility.yul\":874:1155   */\n      pop\n      pop\n      jump\t// out\n        /* \"#utility.yul\":1161:1290   */\n    tag_135:\n        /* \"#utility.yul\":1195:1201   */\n      0x00\n        /* \"#utility.yul\":1222:1242   */\n      tag_190\n      tag_127\n      jump\t// in\n    tag_190:\n        /* \"#utility.yul\":1212:1242   */\n      swap1\n      pop\n        /* \"#utility.yul\":1251:1284   */\n      tag_191\n        /* \"#utility.yul\":1279:1283   */\n      dup3\n        /* \"#utility.yul\":1271:1277   */\n      dup3\n        /* \"#utility.yul\":1251:1284   */\n      tag_134\n      jump\t// in\n    tag_191:\n        /* \"#utility.yul\":1161:1290   */\n      swap2\n      swap1\n      pop\n      jump\t// out\n        /* \"#utility.yul\":1296:1604   */\n    tag_136:\n        /* \"#utility.yul\":1358:1362   */\n      0x00\n        /* \"#utility.yul\":1448:1466   */\n      0xffffffffffffffff\n        /* \"#utility.yul\":1440:1446   */\n      dup3\n        /* \"#utility.yul\":1437:1467   */\n      gt\n        /* \"#utility.yul\":1434:1490   */\n      iszero\n      tag_193\n      jumpi\n        /* \"#utility.yul\":1470:1488   */\n      tag_194\n      tag_133\n      jump\t// in\n    tag_194:\n        /* \"#utility.yul\":1434:1490   */\n    tag_193:\n        /* \"#utility.yul\":1508:1537   */\n      tag_195\n        /* \"#utility.yul\":1530:1536   */\n      dup3\n        /* \"#utility.yul\":1508:1537   */\n      tag_132\n      jump\t// in\n    tag_195:\n        /* \"#utility.yul\":1500:1537   */\n      swap1\n      pop\n        /* \"#utility.yul\":1592:1596   */\n      0x20\n        /* \"#utility.yul\":1586:1590   */\n      dup2\n        /* \"#utility.yul\":1582:1597   */\n      add\n        /* \"#utility.yul\":1574:1597   */\n      swap1\n      pop\n        /* \"#utility.yul\":1296:1604   */\n      swap2\n      swap1\n      pop\n      jump\t// out\n        /* \"#utility.yul\":1610:1756   */\n    tag_137:\n        /* \"#utility.yul\":1707:1713   */\n      dup3\n        /* \"#utility.yul\":1702:1705   */\n      dup2\n        /* \"#utility.yul\":1697:1700   */\n      dup4\n        /* \"#utility.yul\":1684:1714   */\n      calldatacopy\n        /* \"#utility.yul\":1748:1749   */\n      0x00\n        /* \"#utility.yul\":1739:1745   */\n      dup4\n        /* \"#utility.yul\":1734:1737   */\n      dup4\n        /* \"#utility.yul\":1730:1746   */\n      add\n        /* \"#utility.yul\":1723:1750   */\n      mstore\n        /* \"#utility.yul\":1610:1756   */\n      pop\n      pop\n      pop\n      jump\t// out\n        /* \"#utility.yul\":1762:2187   */\n    tag_138:\n        /* \"#utility.yul\":1840:1845   */\n      0x00\n        /* \"#utility.yul\":1865:1931   */\n      tag_198\n        /* \"#utility.yul\":1881:1930   */\n      tag_199\n        /* \"#utility.yul\":1923:1929   */\n      dup5\n        /* \"#utility.yul\":1881:1930   */\n      tag_136\n      jump\t// in\n    tag_199:\n        /* \"#utility.yul\":1865:1931   */\n      tag_135\n      jump\t// in\n    tag_198:\n        /* \"#utility.yul\":1856:1931   */\n      swap1\n      pop\n        /* \"#utility.yul\":1954:1960   */\n      dup3\n        /* \"#utility.yul\":1947:1952   */\n      dup2\n        /* \"#utility.yul\":1940:1961   */\n      mstore\n        /* \"#utility.yul\":1992:1996   */\n      0x20\n        /* \"#utility.yul\":1985:1990   */\n      dup2\n        /* \"#utility.yul\":1981:1997   */\n      add\n        /* \"#utility.yul\":2030:2033   */\n      dup5\n        /* \"#utility.yul\":2021:2027   */\n      dup5\n        /* \"#utility.yul\":2016:2019   */\n      dup5\n        /* \"#utility.yul\":2012:2028   */\n      add\n        /* \"#utility.yul\":2009:2034   */\n      gt\n        /* \"#utility.yul\":2006:2118   */\n      iszero\n      tag_200\n      jumpi\n        /* \"#utility.yul\":2037:2116   */\n      tag_201\n      tag_131\n      jump\t// in\n    tag_201:\n        /* \"#utility.yul\":2006:2118   */\n    tag_200:\n        /* \"#utility.yul\":2127:2181   */\n      tag_202\n        /* \"#utility.yul\":2174:2180   */\n      dup5\n        /* \"#utility.yul\":2169:2172   */\n      dup3\n        /* \"#utility.yul\":2164:2167   */\n      dup6\n        /* \"#utility.yul\":2127:2181   */\n      tag_137\n      jump\t// in\n    tag_202:\n        /* \"#utility.yul\":1846:2187   */\n      pop\n        /* \"#utility.yul\":1762:2187   */\n      swap4\n      swap3\n      pop\n      pop\n      pop\n      jump\t// out\n        /* \"#utility.yul\":2207:2547   */\n    tag_139:\n        /* \"#utility.yul\":2263:2268   */\n      0x00\n        /* \"#utility.yul\":2312:2315   */\n      dup3\n        /* \"#utility.yul\":2305:2309   */\n      0x1f\n        /* \"#utility.yul\":2297:2303   */\n      dup4\n        /* \"#utility.yul\":2293:2310   */\n      add\n        /* \"#utility.yul\":2289:2316   */\n      slt\n        /* \"#utility.yul\":2279:2401   */\n      tag_204\n      jumpi\n        /* \"#utility.yul\":2320:2399   */\n      tag_205\n      tag_130\n      jump\t// in\n    tag_205:\n        /* \"#utility.yul\":2279:2401   */\n    tag_204:\n        /* \"#utility.yul\":2437:2443   */\n      dup2\n        /* \"#utility.yul\":2424:2444   */\n      calldataload\n        /* \"#utility.yul\":2462:2541   */\n      tag_206\n        /* \"#utility.yul\":2537:2540   */\n      dup5\n        /* \"#utility.yul\":2529:2535   */\n      dup3\n        /* \"#utility.yul\":2522:2526   */\n      0x20\n        /* \"#utility.yul\":2514:2520   */\n      dup7\n        /* \"#utility.yul\":2510:2527   */\n      add\n        /* \"#utility.yul\":2462:2541   */\n      tag_138\n      jump\t// in\n    tag_206:\n        /* \"#utility.yul\":2453:2541   */\n      swap2\n      pop\n        /* \"#utility.yul\":2269:2547   */\n      pop\n        /* \"#utility.yul\":2207:2547   */\n      swap3\n      swap2\n      pop\n      pop\n      jump\t// out\n        /* \"#utility.yul\":2553:2630   */\n    tag_140:\n        /* \"#utility.yul\":2590:2597   */\n      0x00\n        /* \"#utility.yul\":2619:2624   */\n      dup2\n        /* \"#utility.yul\":2608:2624   */\n      swap1\n      pop\n        /* \"#utility.yul\":2553:2630   */\n      swap2\n      swap1\n      pop\n      jump\t// out\n        /* \"#utility.yul\":2636:2758   */\n    tag_141:\n        /* \"#utility.yul\":2709:2733   */\n      tag_209\n        /* \"#utility.yul\":2727:2732   */\n      dup2\n        /* \"#utility.yul\":2709:2733   */\n      tag_140\n      jump\t// in\n    tag_209:\n        /* \"#utility.yul\":2702:2707   */\n      dup2\n        /* \"#utility.yul\":2699:2734   */\n      eq\n        /* \"#utility.yul\":2689:2752   */\n      tag_210\n      jumpi\n        /* \"#utility.yul\":2748:2749   */\n      0x00\n        /* \"#utility.yul\":2745:2746   */\n      dup1\n        /* \"#utility.yul\":2738:2750   */\n      revert\n        /* \"#utility.yul\":2689:2752   */\n    tag_210:\n        /* \"#utility.yul\":2636:2758   */\n      pop\n      jump\t// out\n        /* \"#utility.yul\":2764:2903   */\n    tag_142:\n        /* \"#utility.yul\":2810:2815   */\n      0x00\n        /* \"#utility.yul\":2848:2854   */\n      dup2\n        /* \"#utility.yul\":2835:2855   */\n      calldataload\n        /* \"#utility.yul\":2826:2855   */\n      swap1\n      pop\n        /* \"#utility.yul\":2864:2897   */\n      tag_212\n        /* \"#utility.yul\":2891:2896   */\n      dup2\n        /* \"#utility.yul\":2864:2897   */\n      tag_141\n      jump\t// in\n    tag_212:\n        /* \"#utility.yul\":2764:2903   */\n      swap3\n      swap2\n      pop\n      pop\n      jump\t// out\n        /* \"#utility.yul\":2909:3563   */\n    tag_16:\n        /* \"#utility.yul\":2987:2993   */\n      0x00\n        /* \"#utility.yul\":2995:3001   */\n      dup1\n        /* \"#utility.yul\":3044:3046   */\n      0x40\n        /* \"#utility.yul\":3032:3041   */\n      dup4\n        /* \"#utility.yul\":3023:3030   */\n      dup6\n        /* \"#utility.yul\":3019:3042   */\n      sub\n        /* \"#utility.yul\":3015:3047   */\n      slt\n        /* \"#utility.yul\":3012:3131   */\n      iszero\n      tag_214\n      jumpi\n        /* \"#utility.yul\":3050:3129   */\n      tag_215\n      tag_128\n      jump\t// in\n    tag_215:\n        /* \"#utility.yul\":3012:3131   */\n    tag_214:\n        /* \"#utility.yul\":3198:3199   */\n      0x00\n        /* \"#utility.yul\":3187:3196   */\n      dup4\n        /* \"#utility.yul\":3183:3200   */\n      add\n        /* \"#utility.yul\":3170:3201   */\n      calldataload\n        /* \"#utility.yul\":3228:3246   */\n      0xffffffffffffffff\n        /* \"#utility.yul\":3220:3226   */\n      dup2\n        /* \"#utility.yul\":3217:3247   */\n      gt\n        /* \"#utility.yul\":3214:3331   */\n      iszero\n      tag_216\n      jumpi\n        /* \"#utility.yul\":3250:3329   */\n      tag_217\n      tag_129\n      jump\t// in\n    tag_217:\n        /* \"#utility.yul\":3214:3331   */\n    tag_216:\n        /* \"#utility.yul\":3355:3418   */\n      tag_218\n        /* \"#utility.yul\":3410:3417   */\n      dup6\n        /* \"#utility.yul\":3401:3407   */\n      dup3\n        /* \"#utility.yul\":3390:3399   */\n      dup7\n        /* \"#utility.yul\":3386:3408   */\n      add\n        /* \"#utility.yul\":3355:3418   */\n      tag_139\n      jump\t// in\n    tag_218:\n        /* \"#utility.yul\":3345:3418   */\n      swap3\n      pop\n        /* \"#utility.yul\":3141:3428   */\n      pop\n        /* \"#utility.yul\":3467:3469   */\n      0x20\n        /* \"#utility.yul\":3493:3546   */\n      tag_219\n        /* \"#utility.yul\":3538:3545   */\n      dup6\n        /* \"#utility.yul\":3529:3535   */\n      dup3\n        /* \"#utility.yul\":3518:3527   */\n      dup7\n        /* \"#utility.yul\":3514:3536   */\n      add\n        /* \"#utility.yul\":3493:3546   */\n      tag_142\n      jump\t// in\n    tag_219:\n        /* \"#utility.yul\":3483:3546   */\n      swap2\n      pop\n        /* \"#utility.yul\":3438:3556   */\n      pop\n        /* \"#utility.yul\":2909:3563   */\n      swap3\n      pop\n      swap3\n      swap1\n      pop\n      jump\t// out\n        /* \"#utility.yul\":3569:4078   */\n    tag_20:\n        /* \"#utility.yul\":3638:3644   */\n      0x00\n        /* \"#utility.yul\":3687:3689   */\n      0x20\n        /* \"#utility.yul\":3675:3684   */\n      dup3\n        /* \"#utility.yul\":3666:3673   */\n      dup5\n        /* \"#utility.yul\":3662:3685   */\n      sub\n        /* \"#utility.yul\":3658:3690   */\n      slt\n        /* \"#utility.yul\":3655:3774   */\n      iszero\n      tag_221\n      jumpi\n        /* \"#utility.yul\":3693:3772   */\n      tag_222\n      tag_128\n      jump\t// in\n    tag_222:\n        /* \"#utility.yul\":3655:3774   */\n    tag_221:\n        /* \"#utility.yul\":3841:3842   */\n      0x00\n        /* \"#utility.yul\":3830:3839   */\n      dup3\n        /* \"#utility.yul\":3826:3843   */\n      add\n        /* \"#utility.yul\":3813:3844   */\n      calldataload\n        /* \"#utility.yul\":3871:3889   */\n      0xffffffffffffffff\n        /* \"#utility.yul\":3863:3869   */\n      dup2\n        /* \"#utility.yul\":3860:3890   */\n      gt\n        /* \"#utility.yul\":3857:3974   */\n      iszero\n      tag_223\n      jumpi\n        /* \"#utility.yul\":3893:3972   */\n      tag_224\n      tag_129\n      jump\t// in\n    tag_224:\n        /* \"#utility.yul\":3857:3974   */\n    tag_223:\n        /* \"#utility.yul\":3998:4061   */\n      tag_225\n        /* \"#utility.yul\":4053:4060   */\n      dup5\n        /* \"#utility.yul\":4044:4050   */\n      dup3\n        /* \"#utility.yul\":4033:4042   */\n      dup6\n        /* \"#utility.yul\":4029:4051   */\n      add\n        /* \"#utility.yul\":3998:4061   */\n      tag_139\n      jump\t// in\n    tag_225:\n        /* \"#utility.yul\":3988:4061   */\n      swap2\n      pop\n        /* \"#utility.yul\":3784:4071   */\n      pop\n        /* \"#utility.yul\":3569:4078   */\n      swap3\n      swap2\n      pop\n      pop\n      jump\t// out\n        /* \"#utility.yul\":4084:4210   */\n    tag_143:\n        /* \"#utility.yul\":4121:4128   */\n      0x00\n        /* \"#utility.yul\":4161:4203   */\n      0xffffffffffffffffffffffffffffffffffffffff\n        /* \"#utility.yul\":4154:4159   */\n      dup3\n        /* \"#utility.yul\":4150:4204   */\n      and\n        /* \"#utility.yul\":4139:4204   */\n      swap1\n      pop\n        /* \"#utility.yul\":4084:4210   */\n      swap2\n      swap1\n      pop\n      jump\t// out\n        /* \"#utility.yul\":4216:4320   */\n    tag_144:\n        /* \"#utility.yul\":4261:4268   */\n      0x00\n        /* \"#utility.yul\":4290:4314   */\n      tag_228\n        /* \"#utility.yul\":4308:4313   */\n      dup3\n        /* \"#utility.yul\":4290:4314   */\n      tag_143\n      jump\t// in\n    tag_228:\n        /* \"#utility.yul\":4279:4314   */\n      swap1\n      pop\n        /* \"#utility.yul\":4216:4320   */\n      swap2\n      swap1\n      pop\n      jump\t// out\n        /* \"#utility.yul\":4326:4468   */\n    tag_145:\n        /* \"#utility.yul\":4429:4461   */\n      tag_230\n        /* \"#utility.yul\":4455:4460   */\n      dup2\n        /* \"#utility.yul\":4429:4461   */\n      tag_144\n      jump\t// in\n    tag_230:\n        /* \"#utility.yul\":4424:4427   */\n      dup3\n        /* \"#utility.yul\":4417:4462   */\n      mstore\n        /* \"#utility.yul\":4326:4468   */\n      pop\n      pop\n      jump\t// out\n        /* \"#utility.yul\":4474:4728   */\n    tag_45:\n        /* \"#utility.yul\":4583:4587   */\n      0x00\n        /* \"#utility.yul\":4621:4623   */\n      0x20\n        /* \"#utility.yul\":4610:4619   */\n      dup3\n        /* \"#utility.yul\":4606:4624   */\n      add\n        /* \"#utility.yul\":4598:4624   */\n      swap1\n      pop\n        /* \"#utility.yul\":4634:4721   */\n      tag_232\n        /* \"#utility.yul\":4718:4719   */\n      0x00\n        /* \"#utility.yul\":4707:4716   */\n      dup4\n        /* \"#utility.yul\":4703:4720   */\n      add\n        /* \"#utility.yul\":4694:4700   */\n      dup5\n        /* \"#utility.yul\":4634:4721   */\n      tag_145\n      jump\t// in\n    tag_232:\n        /* \"#utility.yul\":4474:4728   */\n      swap3\n      swap2\n      pop\n      pop\n      jump\t// out\n        /* \"#utility.yul\":4734:4833   */\n    tag_146:\n        /* \"#utility.yul\":4786:4792   */\n      0x00\n        /* \"#utility.yul\":4820:4825   */\n      dup2\n        /* \"#utility.yul\":4814:4826   */\n      mload\n        /* \"#utility.yul\":4804:4826   */\n      swap1\n      pop\n        /* \"#utility.yul\":4734:4833   */\n      swap2\n      swap1\n      pop\n      jump\t// out\n        /* \"#utility.yul\":4839:5008   */\n    tag_147:\n        /* \"#utility.yul\":4923:4934   */\n      0x00\n        /* \"#utility.yul\":4957:4963   */\n      dup3\n        /* \"#utility.yul\":4952:4955   */\n      dup3\n        /* \"#utility.yul\":4945:4964   */\n      mstore\n        /* \"#utility.yul\":4997:5001   */\n      0x20\n        /* \"#utility.yul\":4992:4995   */\n      dup3\n        /* \"#utility.yul\":4988:5002   */\n      add\n        /* \"#utility.yul\":4973:5002   */\n      swap1\n      pop\n        /* \"#utility.yul\":4839:5008   */\n      swap3\n      swap2\n      pop\n      pop\n      jump\t// out\n        /* \"#utility.yul\":5014:5260   */\n    tag_148:\n        /* \"#utility.yul\":5095:5096   */\n      0x00\n        /* \"#utility.yul\":5105:5218   */\n    tag_236:\n        /* \"#utility.yul\":5119:5125   */\n      dup4\n        /* \"#utility.yul\":5116:5117   */\n      dup2\n        /* \"#utility.yul\":5113:5126   */\n      lt\n        /* \"#utility.yul\":5105:5218   */\n      iszero\n      tag_238\n      jumpi\n        /* \"#utility.yul\":5204:5205   */\n      dup1\n        /* \"#utility.yul\":5199:5202   */\n      dup3\n        /* \"#utility.yul\":5195:5206   */\n      add\n        /* \"#utility.yul\":5189:5207   */\n      mload\n        /* \"#utility.yul\":5185:5186   */\n      dup2\n        /* \"#utility.yul\":5180:5183   */\n      dup5\n        /* \"#utility.yul\":5176:5187   */\n      add\n        /* \"#utility.yul\":5169:5208   */\n      mstore\n        /* \"#utility.yul\":5141:5143   */\n      0x20\n        /* \"#utility.yul\":5138:5139   */\n      dup2\n        /* \"#utility.yul\":5134:5144   */\n      add\n        /* \"#utility.yul\":5129:5144   */\n      swap1\n      pop\n        /* \"#utility.yul\":5105:5218   */\n      jump(tag_236)\n    tag_238:\n        /* \"#utility.yul\":5252:5253   */\n      0x00\n        /* \"#utility.yul\":5243:5249   */\n      dup5\n        /* \"#utility.yul\":5238:5241   */\n      dup5\n        /* \"#utility.yul\":5234:5250   */\n      add\n        /* \"#utility.yul\":5227:5254   */\n      mstore\n        /* \"#utility.yul\":5076:5260   */\n      pop\n        /* \"#utility.yul\":5014:5260   */\n      pop\n      pop\n      pop\n      jump\t// out\n        /* \"#utility.yul\":5266:5643   */\n    tag_149:\n        /* \"#utility.yul\":5354:5357   */\n      0x00\n        /* \"#utility.yul\":5382:5421   */\n      tag_240\n        /* \"#utility.yul\":5415:5420   */\n      dup3\n        /* \"#utility.yul\":5382:5421   */\n      tag_146\n      jump\t// in\n    tag_240:\n        /* \"#utility.yul\":5437:5508   */\n      tag_241\n        /* \"#utility.yul\":5501:5507   */\n      dup2\n        /* \"#utility.yul\":5496:5499   */\n      dup6\n        /* \"#utility.yul\":5437:5508   */\n      tag_147\n      jump\t// in\n    tag_241:\n        /* \"#utility.yul\":5430:5508   */\n      swap4\n      pop\n        /* \"#utility.yul\":5517:5582   */\n      tag_242\n        /* \"#utility.yul\":5575:5581   */\n      dup2\n        /* \"#utility.yul\":5570:5573   */\n      dup6\n        /* \"#utility.yul\":5563:5567   */\n      0x20\n        /* \"#utility.yul\":5556:5561   */\n      dup7\n        /* \"#utility.yul\":5552:5568   */\n      add\n        /* \"#utility.yul\":5517:5582   */\n      tag_148\n      jump\t// in\n    tag_242:\n        /* \"#utility.yul\":5607:5636   */\n      tag_243\n        /* \"#utility.yul\":5629:5635   */\n      dup2\n        /* \"#utility.yul\":5607:5636   */\n      tag_132\n      jump\t// in\n    tag_243:\n        /* \"#utility.yul\":5602:5605   */\n      dup5\n        /* \"#utility.yul\":5598:5637   */\n      add\n        /* \"#utility.yul\":5591:5637   */\n      swap2\n      pop\n        /* \"#utility.yul\":5358:5643   */\n      pop\n        /* \"#utility.yul\":5266:5643   */\n      swap3\n      swap2\n      pop\n      pop\n      jump\t// out\n        /* \"#utility.yul\":5649:5767   */\n    tag_150:\n        /* \"#utility.yul\":5736:5760   */\n      tag_245\n        /* \"#utility.yul\":5754:5759   */\n      dup2\n        /* \"#utility.yul\":5736:5760   */\n      tag_140\n      jump\t// in\n    tag_245:\n        /* \"#utility.yul\":5731:5734   */\n      dup3\n        /* \"#utility.yul\":5724:5761   */\n      mstore\n        /* \"#utility.yul\":5649:5767   */\n      pop\n      pop\n      jump\t// out\n        /* \"#utility.yul\":5773:5953   */\n    tag_89:\n        /* \"#utility.yul\":5821:5898   */\n      0x4e487b7100000000000000000000000000000000000000000000000000000000\n        /* \"#utility.yul\":5818:5819   */\n      0x00\n        /* \"#utility.yul\":5811:5899   */\n      mstore\n        /* \"#utility.yul\":5918:5922   */\n      0x21\n        /* \"#utility.yul\":5915:5916   */\n      0x04\n        /* \"#utility.yul\":5908:5923   */\n      mstore\n        /* \"#utility.yul\":5942:5946   */\n      0x24\n        /* \"#utility.yul\":5939:5940   */\n      0x00\n        /* \"#utility.yul\":5932:5947   */\n      revert\n        /* \"#utility.yul\":5959:6073   */\n    tag_151:\n        /* \"#utility.yul\":6041:6042   */\n      0x02\n        /* \"#utility.yul\":6034:6039   */\n      dup2\n        /* \"#utility.yul\":6031:6043   */\n      lt\n        /* \"#utility.yul\":6021:6067   */\n      tag_248\n      jumpi\n        /* \"#utility.yul\":6047:6065   */\n      tag_249\n      tag_89\n      jump\t// in\n    tag_249:\n        /* \"#utility.yul\":6021:6067   */\n    tag_248:\n        /* \"#utility.yul\":5959:6073   */\n      pop\n      jump\t// out\n        /* \"#utility.yul\":6079:6208   */\n    tag_152:\n        /* \"#utility.yul\":6125:6132   */\n      0x00\n        /* \"#utility.yul\":6154:6159   */\n      dup2\n        /* \"#utility.yul\":6143:6159   */\n      swap1\n      pop\n        /* \"#utility.yul\":6160:6202   */\n      tag_251\n        /* \"#utility.yul\":6196:6201   */\n      dup3\n        /* \"#utility.yul\":6160:6202   */\n      tag_151\n      jump\t// in\n    tag_251:\n        /* \"#utility.yul\":6079:6208   */\n      swap2\n      swap1\n      pop\n      jump\t// out\n        /* \"#utility.yul\":6214:6343   */\n    tag_153:\n        /* \"#utility.yul\":6271:6280   */\n      0x00\n        /* \"#utility.yul\":6304:6337   */\n      tag_253\n        /* \"#utility.yul\":6331:6336   */\n      dup3\n        /* \"#utility.yul\":6304:6337   */\n      tag_152\n      jump\t// in\n    tag_253:\n        /* \"#utility.yul\":6291:6337   */\n      swap1\n      pop\n        /* \"#utility.yul\":6214:6343   */\n      swap2\n      swap1\n      pop\n      jump\t// out\n        /* \"#utility.yul\":6349:6494   */\n    tag_154:\n        /* \"#utility.yul\":6443:6487   */\n      tag_255\n        /* \"#utility.yul\":6481:6486   */\n      dup2\n        /* \"#utility.yul\":6443:6487   */\n      tag_153\n      jump\t// in\n    tag_255:\n        /* \"#utility.yul\":6438:6441   */\n      dup3\n        /* \"#utility.yul\":6431:6488   */\n      mstore\n        /* \"#utility.yul\":6349:6494   */\n      pop\n      pop\n      jump\t// out\n        /* \"#utility.yul\":6500:7158   */\n    tag_55:\n        /* \"#utility.yul\":6704:6708   */\n      0x00\n        /* \"#utility.yul\":6742:6745   */\n      0x80\n        /* \"#utility.yul\":6731:6740   */\n      dup3\n        /* \"#utility.yul\":6727:6746   */\n      add\n        /* \"#utility.yul\":6719:6746   */\n      swap1\n      pop\n        /* \"#utility.yul\":6792:6801   */\n      dup2\n        /* \"#utility.yul\":6786:6790   */\n      dup2\n        /* \"#utility.yul\":6782:6802   */\n      sub\n        /* \"#utility.yul\":6778:6779   */\n      0x00\n        /* \"#utility.yul\":6767:6776   */\n      dup4\n        /* \"#utility.yul\":6763:6780   */\n      add\n        /* \"#utility.yul\":6756:6803   */\n      mstore\n        /* \"#utility.yul\":6820:6898   */\n      tag_257\n        /* \"#utility.yul\":6893:6897   */\n      dup2\n        /* \"#utility.yul\":6884:6890   */\n      dup8\n        /* \"#utility.yul\":6820:6898   */\n      tag_149\n      jump\t// in\n    tag_257:\n        /* \"#utility.yul\":6812:6898   */\n      swap1\n      pop\n        /* \"#utility.yul\":6908:6980   */\n      tag_258\n        /* \"#utility.yul\":6976:6978   */\n      0x20\n        /* \"#utility.yul\":6965:6974   */\n      dup4\n        /* \"#utility.yul\":6961:6979   */\n      add\n        /* \"#utility.yul\":6952:6958   */\n      dup7\n        /* \"#utility.yul\":6908:6980   */\n      tag_150\n      jump\t// in\n    tag_258:\n        /* \"#utility.yul\":6990:7062   */\n      tag_259\n        /* \"#utility.yul\":7058:7060   */\n      0x40\n        /* \"#utility.yul\":7047:7056   */\n      dup4\n        /* \"#utility.yul\":7043:7061   */\n      add\n        /* \"#utility.yul\":7034:7040   */\n      dup6\n        /* \"#utility.yul\":6990:7062   */\n      tag_150\n      jump\t// in\n    tag_259:\n        /* \"#utility.yul\":7072:7151   */\n      tag_260\n        /* \"#utility.yul\":7147:7149   */\n      0x60\n        /* \"#utility.yul\":7136:7145   */\n      dup4\n        /* \"#utility.yul\":7132:7150   */\n      add\n        /* \"#utility.yul\":7123:7129   */\n      dup5\n        /* \"#utility.yul\":7072:7151   */\n      tag_154\n      jump\t// in\n    tag_260:\n        /* \"#utility.yul\":6500:7158   */\n      swap6\n      swap5\n      pop\n      pop\n      pop\n      pop\n      pop\n      jump\t// out\n        /* \"#utility.yul\":7164:7344   */\n    tag_155:\n        /* \"#utility.yul\":7212:7289   */\n      0x4e487b7100000000000000000000000000000000000000000000000000000000\n        /* \"#utility.yul\":7209:7210   */\n      0x00\n        /* \"#utility.yul\":7202:7290   */\n      mstore\n        /* \"#utility.yul\":7309:7313   */\n      0x11\n        /* \"#utility.yul\":7306:7307   */\n      0x04\n        /* \"#utility.yul\":7299:7314   */\n      mstore\n        /* \"#utility.yul\":7333:7337   */\n      0x24\n        /* \"#utility.yul\":7330:7331   */\n      0x00\n        /* \"#utility.yul\":7323:7338   */\n      revert\n        /* \"#utility.yul\":7350:7760   */\n    tag_60:\n        /* \"#utility.yul\":7390:7397   */\n      0x00\n        /* \"#utility.yul\":7413:7433   */\n      tag_263\n        /* \"#utility.yul\":7431:7432   */\n      dup3\n        /* \"#utility.yul\":7413:7433   */\n      tag_140\n      jump\t// in\n    tag_263:\n        /* \"#utility.yul\":7408:7433   */\n      swap2\n      pop\n        /* \"#utility.yul\":7447:7467   */\n      tag_264\n        /* \"#utility.yul\":7465:7466   */\n      dup4\n        /* \"#utility.yul\":7447:7467   */\n      tag_140\n      jump\t// in\n    tag_264:\n        /* \"#utility.yul\":7442:7467   */\n      swap3\n      pop\n        /* \"#utility.yul\":7502:7503   */\n      dup3\n        /* \"#utility.yul\":7499:7500   */\n      dup3\n        /* \"#utility.yul\":7495:7504   */\n      mul\n        /* \"#utility.yul\":7524:7554   */\n      tag_265\n        /* \"#utility.yul\":7542:7553   */\n      dup2\n        /* \"#utility.yul\":7524:7554   */\n      tag_140\n      jump\t// in\n    tag_265:\n        /* \"#utility.yul\":7513:7554   */\n      swap2\n      pop\n        /* \"#utility.yul\":7703:7704   */\n      dup3\n        /* \"#utility.yul\":7694:7701   */\n      dup3\n        /* \"#utility.yul\":7690:7705   */\n      div\n        /* \"#utility.yul\":7687:7688   */\n      dup5\n        /* \"#utility.yul\":7684:7706   */\n      eq\n        /* \"#utility.yul\":7664:7665   */\n      dup4\n        /* \"#utility.yul\":7657:7666   */\n      iszero\n        /* \"#utility.yul\":7637:7720   */\n      or\n        /* \"#utility.yul\":7614:7753   */\n      tag_266\n      jumpi\n        /* \"#utility.yul\":7733:7751   */\n      tag_267\n      tag_155\n      jump\t// in\n    tag_267:\n        /* \"#utility.yul\":7614:7753   */\n    tag_266:\n        /* \"#utility.yul\":7398:7760   */\n      pop\n        /* \"#utility.yul\":7350:7760   */\n      swap3\n      swap2\n      pop\n      pop\n      jump\t// out\n        /* \"#utility.yul\":7766:7914   */\n    tag_156:\n        /* \"#utility.yul\":7868:7879   */\n      0x00\n        /* \"#utility.yul\":7905:7908   */\n      dup2\n        /* \"#utility.yul\":7890:7908   */\n      swap1\n      pop\n        /* \"#utility.yul\":7766:7914   */\n      swap3\n      swap2\n      pop\n      pop\n      jump\t// out\n        /* \"#utility.yul\":7920:8310   */\n    tag_157:\n        /* \"#utility.yul\":8026:8029   */\n      0x00\n        /* \"#utility.yul\":8054:8093   */\n      tag_270\n        /* \"#utility.yul\":8087:8092   */\n      dup3\n        /* \"#utility.yul\":8054:8093   */\n      tag_146\n      jump\t// in\n    tag_270:\n        /* \"#utility.yul\":8109:8198   */\n      tag_271\n        /* \"#utility.yul\":8191:8197   */\n      dup2\n        /* \"#utility.yul\":8186:8189   */\n      dup6\n        /* \"#utility.yul\":8109:8198   */\n      tag_156\n      jump\t// in\n    tag_271:\n        /* \"#utility.yul\":8102:8198   */\n      swap4\n      pop\n        /* \"#utility.yul\":8207:8272   */\n      tag_272\n        /* \"#utility.yul\":8265:8271   */\n      dup2\n        /* \"#utility.yul\":8260:8263   */\n      dup6\n        /* \"#utility.yul\":8253:8257   */\n      0x20\n        /* \"#utility.yul\":8246:8251   */\n      dup7\n        /* \"#utility.yul\":8242:8258   */\n      add\n        /* \"#utility.yul\":8207:8272   */\n      tag_148\n      jump\t// in\n    tag_272:\n        /* \"#utility.yul\":8297:8303   */\n      dup1\n        /* \"#utility.yul\":8292:8295   */\n      dup5\n        /* \"#utility.yul\":8288:8304   */\n      add\n        /* \"#utility.yul\":8281:8304   */\n      swap2\n      pop\n        /* \"#utility.yul\":8030:8310   */\n      pop\n        /* \"#utility.yul\":7920:8310   */\n      swap3\n      swap2\n      pop\n      pop\n      jump\t// out\n        /* \"#utility.yul\":8316:8591   */\n    tag_62:\n        /* \"#utility.yul\":8448:8451   */\n      0x00\n        /* \"#utility.yul\":8470:8565   */\n      tag_274\n        /* \"#utility.yul\":8561:8564   */\n      dup3\n        /* \"#utility.yul\":8552:8558   */\n      dup5\n        /* \"#utility.yul\":8470:8565   */\n      tag_157\n      jump\t// in\n    tag_274:\n        /* \"#utility.yul\":8463:8565   */\n      swap2\n      pop\n        /* \"#utility.yul\":8582:8585   */\n      dup2\n        /* \"#utility.yul\":8575:8585   */\n      swap1\n      pop\n        /* \"#utility.yul\":8316:8591   */\n      swap3\n      swap2\n      pop\n      pop\n      jump\t// out\n        /* \"#utility.yul\":8597:8788   */\n    tag_64:\n        /* \"#utility.yul\":8637:8640   */\n      0x00\n        /* \"#utility.yul\":8656:8676   */\n      tag_276\n        /* \"#utility.yul\":8674:8675   */\n      dup3\n        /* \"#utility.yul\":8656:8676   */\n      tag_140\n      jump\t// in\n    tag_276:\n        /* \"#utility.yul\":8651:8676   */\n      swap2\n      pop\n        /* \"#utility.yul\":8690:8710   */\n      tag_277\n        /* \"#utility.yul\":8708:8709   */\n      dup4\n        /* \"#utility.yul\":8690:8710   */\n      tag_140\n      jump\t// in\n    tag_277:\n        /* \"#utility.yul\":8685:8710   */\n      swap3\n      pop\n        /* \"#utility.yul\":8733:8734   */\n      dup3\n        /* \"#utility.yul\":8730:8731   */\n      dup3\n        /* \"#utility.yul\":8726:8735   */\n      add\n        /* \"#utility.yul\":8719:8735   */\n      swap1\n      pop\n        /* \"#utility.yul\":8754:8757   */\n      dup1\n        /* \"#utility.yul\":8751:8752   */\n      dup3\n        /* \"#utility.yul\":8748:8758   */\n      gt\n        /* \"#utility.yul\":8745:8781   */\n      iszero\n      tag_278\n      jumpi\n        /* \"#utility.yul\":8761:8779   */\n      tag_279\n      tag_155\n      jump\t// in\n    tag_279:\n        /* \"#utility.yul\":8745:8781   */\n    tag_278:\n        /* \"#utility.yul\":8597:8788   */\n      swap3\n      swap2\n      pop\n      pop\n      jump\t// out\n        /* \"#utility.yul\":8794:8974   */\n    tag_158:\n        /* \"#utility.yul\":8842:8919   */\n      0x4e487b7100000000000000000000000000000000000000000000000000000000\n        /* \"#utility.yul\":8839:8840   */\n      0x00\n        /* \"#utility.yul\":8832:8920   */\n      mstore\n        /* \"#utility.yul\":8939:8943   */\n      0x12\n        /* \"#utility.yul\":8936:8937   */\n      0x04\n        /* \"#utility.yul\":8929:8944   */\n      mstore\n        /* \"#utility.yul\":8963:8967   */\n      0x24\n        /* \"#utility.yul\":8960:8961   */\n      0x00\n        /* \"#utility.yul\":8953:8968   */\n      revert\n        /* \"#utility.yul\":8980:9156   */\n    tag_68:\n        /* \"#utility.yul\":9012:9013   */\n      0x00\n        /* \"#utility.yul\":9029:9049   */\n      tag_282\n        /* \"#utility.yul\":9047:9048   */\n      dup3\n        /* \"#utility.yul\":9029:9049   */\n      tag_140\n      jump\t// in\n    tag_282:\n        /* \"#utility.yul\":9024:9049   */\n      swap2\n      pop\n        /* \"#utility.yul\":9063:9083   */\n      tag_283\n        /* \"#utility.yul\":9081:9082   */\n      dup4\n        /* \"#utility.yul\":9063:9083   */\n      tag_140\n      jump\t// in\n    tag_283:\n        /* \"#utility.yul\":9058:9083   */\n      swap3\n      pop\n        /* \"#utility.yul\":9102:9103   */\n      dup3\n        /* \"#utility.yul\":9092:9127   */\n      tag_284\n      jumpi\n        /* \"#utility.yul\":9107:9125   */\n      tag_285\n      tag_158\n      jump\t// in\n    tag_285:\n        /* \"#utility.yul\":9092:9127   */\n    tag_284:\n        /* \"#utility.yul\":9148:9149   */\n      dup3\n        /* \"#utility.yul\":9145:9146   */\n      dup3\n        /* \"#utility.yul\":9141:9150   */\n      mod\n        /* \"#utility.yul\":9136:9150   */\n      swap1\n      pop\n        /* \"#utility.yul\":8980:9156   */\n      swap3\n      swap2\n      pop\n      pop\n      jump\t// out\n        /* \"#utility.yul\":9162:9408   */\n    tag_159:\n        /* \"#utility.yul\":9302:9336   */\n      0x466f72206d6f7265207468616e20302e30322065746865722c20706c65617365\n        /* \"#utility.yul\":9298:9299   */\n      0x00\n        /* \"#utility.yul\":9290:9296   */\n      dup3\n        /* \"#utility.yul\":9286:9300   */\n      add\n        /* \"#utility.yul\":9279:9337   */\n      mstore\n        /* \"#utility.yul\":9371:9400   */\n      0x2070617920696e20756e697473206f6620302e30322065746865720000000000\n        /* \"#utility.yul\":9366:9368   */\n      0x20\n        /* \"#utility.yul\":9358:9364   */\n      dup3\n        /* \"#utility.yul\":9354:9369   */\n      add\n        /* \"#utility.yul\":9347:9401   */\n      mstore\n        /* \"#utility.yul\":9162:9408   */\n      pop\n      jump\t// out\n        /* \"#utility.yul\":9414:9780   */\n    tag_160:\n        /* \"#utility.yul\":9556:9559   */\n      0x00\n        /* \"#utility.yul\":9577:9644   */\n      tag_288\n        /* \"#utility.yul\":9641:9643   */\n      0x3b\n        /* \"#utility.yul\":9636:9639   */\n      dup4\n        /* \"#utility.yul\":9577:9644   */\n      tag_147\n      jump\t// in\n    tag_288:\n        /* \"#utility.yul\":9570:9644   */\n      swap2\n      pop\n        /* \"#utility.yul\":9653:9746   */\n      tag_289\n        /* \"#utility.yul\":9742:9745   */\n      dup3\n        /* \"#utility.yul\":9653:9746   */\n      tag_159\n      jump\t// in\n    tag_289:\n        /* \"#utility.yul\":9771:9773   */\n      0x40\n        /* \"#utility.yul\":9766:9769   */\n      dup3\n        /* \"#utility.yul\":9762:9774   */\n      add\n        /* \"#utility.yul\":9755:9774   */\n      swap1\n      pop\n        /* \"#utility.yul\":9414:9780   */\n      swap2\n      swap1\n      pop\n      jump\t// out\n        /* \"#utility.yul\":9786:10205   */\n    tag_71:\n        /* \"#utility.yul\":9952:9956   */\n      0x00\n        /* \"#utility.yul\":9990:9992   */\n      0x20\n        /* \"#utility.yul\":9979:9988   */\n      dup3\n        /* \"#utility.yul\":9975:9993   */\n      add\n        /* \"#utility.yul\":9967:9993   */\n      swap1\n      pop\n        /* \"#utility.yul\":10039:10048   */\n      dup2\n        /* \"#utility.yul\":10033:10037   */\n      dup2\n        /* \"#utility.yul\":10029:10049   */\n      sub\n        /* \"#utility.yul\":10025:10026   */\n      0x00\n        /* \"#utility.yul\":10014:10023   */\n      dup4\n        /* \"#utility.yul\":10010:10027   */\n      add\n        /* \"#utility.yul\":10003:10050   */\n      mstore\n        /* \"#utility.yul\":10067:10198   */\n      tag_291\n        /* \"#utility.yul\":10193:10197   */\n      dup2\n        /* \"#utility.yul\":10067:10198   */\n      tag_160\n      jump\t// in\n    tag_291:\n        /* \"#utility.yul\":10059:10198   */\n      swap1\n      pop\n        /* \"#utility.yul\":9786:10205   */\n      swap2\n      swap1\n      pop\n      jump\t// out\n        /* \"#utility.yul\":10211:10396   */\n    tag_73:\n        /* \"#utility.yul\":10251:10252   */\n      0x00\n        /* \"#utility.yul\":10268:10288   */\n      tag_293\n        /* \"#utility.yul\":10286:10287   */\n      dup3\n        /* \"#utility.yul\":10268:10288   */\n      tag_140\n      jump\t// in\n    tag_293:\n        /* \"#utility.yul\":10263:10288   */\n      swap2\n      pop\n        /* \"#utility.yul\":10302:10322   */\n      tag_294\n        /* \"#utility.yul\":10320:10321   */\n      dup4\n        /* \"#utility.yul\":10302:10322   */\n      tag_140\n      jump\t// in\n    tag_294:\n        /* \"#utility.yul\":10297:10322   */\n      swap3\n      pop\n        /* \"#utility.yul\":10341:10342   */\n      dup3\n        /* \"#utility.yul\":10331:10366   */\n      tag_295\n      jumpi\n        /* \"#utility.yul\":10346:10364   */\n      tag_296\n      tag_158\n      jump\t// in\n    tag_296:\n        /* \"#utility.yul\":10331:10366   */\n    tag_295:\n        /* \"#utility.yul\":10388:10389   */\n      dup3\n        /* \"#utility.yul\":10385:10386   */\n      dup3\n        /* \"#utility.yul\":10381:10390   */\n      div\n        /* \"#utility.yul\":10376:10390   */\n      swap1\n      pop\n        /* \"#utility.yul\":10211:10396   */\n      swap3\n      swap2\n      pop\n      pop\n      jump\t// out\n        /* \"#utility.yul\":10402:10596   */\n    tag_96:\n        /* \"#utility.yul\":10442:10446   */\n      0x00\n        /* \"#utility.yul\":10462:10482   */\n      tag_298\n        /* \"#utility.yul\":10480:10481   */\n      dup3\n        /* \"#utility.yul\":10462:10482   */\n      tag_140\n      jump\t// in\n    tag_298:\n        /* \"#utility.yul\":10457:10482   */\n      swap2\n      pop\n        /* \"#utility.yul\":10496:10516   */\n      tag_299\n        /* \"#utility.yul\":10514:10515   */\n      dup4\n        /* \"#utility.yul\":10496:10516   */\n      tag_140\n      jump\t// in\n    tag_299:\n        /* \"#utility.yul\":10491:10516   */\n      swap3\n      pop\n        /* \"#utility.yul\":10540:10541   */\n      dup3\n        /* \"#utility.yul\":10537:10538   */\n      dup3\n        /* \"#utility.yul\":10533:10542   */\n      sub\n        /* \"#utility.yul\":10525:10542   */\n      swap1\n      pop\n        /* \"#utility.yul\":10564:10565   */\n      dup2\n        /* \"#utility.yul\":10558:10562   */\n      dup2\n        /* \"#utility.yul\":10555:10566   */\n      gt\n        /* \"#utility.yul\":10552:10589   */\n      iszero\n      tag_300\n      jumpi\n        /* \"#utility.yul\":10569:10587   */\n      tag_301\n      tag_155\n      jump\t// in\n    tag_301:\n        /* \"#utility.yul\":10552:10589   */\n    tag_300:\n        /* \"#utility.yul\":10402:10596   */\n      swap3\n      swap2\n      pop\n      pop\n      jump\t// out\n        /* \"#utility.yul\":10602:10782   */\n    tag_161:\n        /* \"#utility.yul\":10650:10727   */\n      0x4e487b7100000000000000000000000000000000000000000000000000000000\n        /* \"#utility.yul\":10647:10648   */\n      0x00\n        /* \"#utility.yul\":10640:10728   */\n      mstore\n        /* \"#utility.yul\":10747:10751   */\n      0x22\n        /* \"#utility.yul\":10744:10745   */\n      0x04\n        /* \"#utility.yul\":10737:10752   */\n      mstore\n        /* \"#utility.yul\":10771:10775   */\n      0x24\n        /* \"#utility.yul\":10768:10769   */\n      0x00\n        /* \"#utility.yul\":10761:10776   */\n      revert\n        /* \"#utility.yul\":10788:11108   */\n    tag_122:\n        /* \"#utility.yul\":10832:10838   */\n      0x00\n        /* \"#utility.yul\":10869:10870   */\n      0x02\n        /* \"#utility.yul\":10863:10867   */\n      dup3\n        /* \"#utility.yul\":10859:10871   */\n      div\n        /* \"#utility.yul\":10849:10871   */\n      swap1\n      pop\n        /* \"#utility.yul\":10916:10917   */\n      0x01\n        /* \"#utility.yul\":10910:10914   */\n      dup3\n        /* \"#utility.yul\":10906:10918   */\n      and\n        /* \"#utility.yul\":10937:10955   */\n      dup1\n        /* \"#utility.yul\":10927:11008   */\n      tag_304\n      jumpi\n        /* \"#utility.yul\":10993:10997   */\n      0x7f\n        /* \"#utility.yul\":10985:10991   */\n      dup3\n        /* \"#utility.yul\":10981:10998   */\n      and\n        /* \"#utility.yul\":10971:10998   */\n      swap2\n      pop\n        /* \"#utility.yul\":10927:11008   */\n    tag_304:\n        /* \"#utility.yul\":11055:11057   */\n      0x20\n        /* \"#utility.yul\":11047:11053   */\n      dup3\n        /* \"#utility.yul\":11044:11058   */\n      lt\n        /* \"#utility.yul\":11024:11042   */\n      dup2\n        /* \"#utility.yul\":11021:11059   */\n      sub\n        /* \"#utility.yul\":11018:11102   */\n      tag_305\n      jumpi\n        /* \"#utility.yul\":11074:11092   */\n      tag_306\n      tag_161\n      jump\t// in\n    tag_306:\n        /* \"#utility.yul\":11018:11102   */\n    tag_305:\n        /* \"#utility.yul\":10839:11108   */\n      pop\n        /* \"#utility.yul\":10788:11108   */\n      swap2\n      swap1\n      pop\n      jump\t// out\n        /* \"#utility.yul\":11114:11255   */\n    tag_162:\n        /* \"#utility.yul\":11163:11167   */\n      0x00\n        /* \"#utility.yul\":11186:11189   */\n      dup2\n        /* \"#utility.yul\":11178:11189   */\n      swap1\n      pop\n        /* \"#utility.yul\":11209:11212   */\n      dup2\n        /* \"#utility.yul\":11206:11207   */\n      0x00\n        /* \"#utility.yul\":11199:11213   */\n      mstore\n        /* \"#utility.yul\":11243:11247   */\n      0x20\n        /* \"#utility.yul\":11240:11241   */\n      0x00\n        /* \"#utility.yul\":11230:11248   */\n      keccak256\n        /* \"#utility.yul\":11222:11248   */\n      swap1\n      pop\n        /* \"#utility.yul\":11114:11255   */\n      swap2\n      swap1\n      pop\n      jump\t// out\n        /* \"#utility.yul\":11261:11354   */\n    tag_163:\n        /* \"#utility.yul\":11298:11304   */\n      0x00\n        /* \"#utility.yul\":11345:11347   */\n      0x20\n        /* \"#utility.yul\":11340:11342   */\n      0x1f\n        /* \"#utility.yul\":11333:11338   */\n      dup4\n        /* \"#utility.yul\":11329:11343   */\n      add\n        /* \"#utility.yul\":11325:11348   */\n      div\n        /* \"#utility.yul\":11315:11348   */\n      swap1\n      pop\n        /* \"#utility.yul\":11261:11354   */\n      swap2\n      swap1\n      pop\n      jump\t// out\n        /* \"#utility.yul\":11360:11467   */\n    tag_164:\n        /* \"#utility.yul\":11404:11412   */\n      0x00\n        /* \"#utility.yul\":11454:11459   */\n      dup3\n        /* \"#utility.yul\":11448:11452   */\n      dup3\n        /* \"#utility.yul\":11444:11460   */\n      shl\n        /* \"#utility.yul\":11423:11460   */\n      swap1\n      pop\n        /* \"#utility.yul\":11360:11467   */\n      swap3\n      swap2\n      pop\n      pop\n      jump\t// out\n        /* \"#utility.yul\":11473:11866   */\n    tag_165:\n        /* \"#utility.yul\":11542:11548   */\n      0x00\n        /* \"#utility.yul\":11592:11593   */\n      0x08\n        /* \"#utility.yul\":11580:11590   */\n      dup4\n        /* \"#utility.yul\":11576:11594   */\n      mul\n        /* \"#utility.yul\":11615:11712   */\n      tag_311\n        /* \"#utility.yul\":11645:11711   */\n      0xffffffffffffffffffffffffffffffffffffffffffffffffffffffffffffffff\n        /* \"#utility.yul\":11634:11643   */\n      dup3\n        /* \"#utility.yul\":11615:11712   */\n      tag_164\n      jump\t// in\n    tag_311:\n        /* \"#utility.yul\":11733:11772   */\n      tag_312\n        /* \"#utility.yul\":11763:11771   */\n      dup7\n        /* \"#utility.yul\":11752:11761   */\n      dup4\n        /* \"#utility.yul\":11733:11772   */\n      tag_164\n      jump\t// in\n    tag_312:\n        /* \"#utility.yul\":11721:11772   */\n      swap6\n      pop\n        /* \"#utility.yul\":11805:11809   */\n      dup1\n        /* \"#utility.yul\":11801:11810   */\n      not\n        /* \"#utility.yul\":11794:11799   */\n      dup5\n        /* \"#utility.yul\":11790:11811   */\n      and\n        /* \"#utility.yul\":11781:11811   */\n      swap4\n      pop\n        /* \"#utility.yul\":11854:11858   */\n      dup1\n        /* \"#utility.yul\":11844:11852   */\n      dup7\n        /* \"#utility.yul\":11840:11859   */\n      and\n        /* \"#utility.yul\":11833:11838   */\n      dup5\n        /* \"#utility.yul\":11830:11860   */\n      or\n        /* \"#utility.yul\":11820:11860   */\n      swap3\n      pop\n        /* \"#utility.yul\":11549:11866   */\n      pop\n      pop\n        /* \"#utility.yul\":11473:11866   */\n      swap4\n      swap3\n      pop\n      pop\n      pop\n      jump\t// out\n        /* \"#utility.yul\":11872:11932   */\n    tag_166:\n        /* \"#utility.yul\":11900:11903   */\n      0x00\n        /* \"#utility.yul\":11921:11926   */\n      dup2\n        /* \"#utility.yul\":11914:11926   */\n      swap1\n      pop\n        /* \"#utility.yul\":11872:11932   */\n      swap2\n      swap1\n      pop\n      jump\t// out\n        /* \"#utility.yul\":11938:12080   */\n    tag_167:\n        /* \"#utility.yul\":11988:11997   */\n      0x00\n        /* \"#utility.yul\":12021:12074   */\n      tag_315\n        /* \"#utility.yul\":12039:12073   */\n      tag_316\n        /* \"#utility.yul\":12048:12072   */\n      tag_317\n        /* \"#utility.yul\":12066:12071   */\n      dup5\n        /* \"#utility.yul\":12048:12072   */\n      tag_140\n      jump\t// in\n    tag_317:\n        /* \"#utility.yul\":12039:12073   */\n      tag_166\n      jump\t// in\n    tag_316:\n        /* \"#utility.yul\":12021:12074   */\n      tag_140\n      jump\t// in\n    tag_315:\n        /* \"#utility.yul\":12008:12074   */\n      swap1\n      pop\n        /* \"#utility.yul\":11938:12080   */\n      swap2\n      swap1\n      pop\n      jump\t// out\n        /* \"#utility.yul\":12086:12161   */\n    tag_168:\n        /* \"#utility.yul\":12129:12132   */\n      0x00\n        /* \"#utility.yul\":12150:12155   */\n      dup2\n        /* \"#utility.yul\":12143:12155   */\n      swap1\n      pop\n        /* \"#utility.yul\":12086:12161   */\n      swap2\n      swap1\n      pop\n      jump\t// out\n        /* \"#utility.yul\":12167:12436   */\n    tag_169:\n        /* \"#utility.yul\":12277:12316   */\n      tag_320\n        /* \"#utility.yul\":12308:12315   */\n      dup4\n        /* \"#utility.yul\":12277:12316   */\n      tag_167\n      jump\t// in\n    tag_320:\n        /* \"#utility.yul\":12338:12429   */\n      tag_321\n        /* \"#utility.yul\":12387:12428   */\n      tag_322\n        /* \"#utility.yul\":12411:12427   */\n      dup3\n        /* \"#utility.yul\":12387:12428   */\n      tag_168\n      jump\t// in\n    tag_322:\n        /* \"#utility.yul\":12379:12385   */\n      dup5\n        /* \"#utility.yul\":12372:12376   */\n      dup5\n        /* \"#utility.yul\":12366:12377   */\n      sload\n        /* \"#utility.yul\":12338:12429   */\n      tag_165\n      jump\t// in\n    tag_321:\n        /* \"#utility.yul\":12332:12336   */\n      dup3\n        /* \"#utility.yul\":12325:12430   */\n      sstore\n        /* \"#utility.yul\":12243:12436   */\n      pop\n        /* \"#utility.yul\":12167:12436   */\n      pop\n      pop\n      pop\n      jump\t// out\n        /* \"#utility.yul\":12442:12515   */\n    tag_170:\n        /* \"#utility.yul\":12487:12490   */\n      0x00\n        /* \"#utility.yul\":12442:12515   */\n      swap1\n      jump\t// out\n        /* \"#utility.yul\":12521:12710   */\n    tag_171:\n        /* \"#utility.yul\":12598:12630   */\n      tag_325\n      tag_170\n      jump\t// in\n    tag_325:\n        /* \"#utility.yul\":12639:12704   */\n      tag_326\n        /* \"#utility.yul\":12697:12703   */\n      dup2\n        /* \"#utility.yul\":12689:12695   */\n      dup5\n        /* \"#utility.yul\":12683:12687   */\n      dup5\n        /* \"#utility.yul\":12639:12704   */\n      tag_169\n      jump\t// in\n    tag_326:\n        /* \"#utility.yul\":12574:12710   */\n      pop\n        /* \"#utility.yul\":12521:12710   */\n      pop\n      pop\n      jump\t// out\n        /* \"#utility.yul\":12716:12902   */\n    tag_172:\n        /* \"#utility.yul\":12776:12896   */\n    tag_328:\n        /* \"#utility.yul\":12793:12796   */\n      dup2\n        /* \"#utility.yul\":12786:12791   */\n      dup2\n        /* \"#utility.yul\":12783:12797   */\n      lt\n        /* \"#utility.yul\":12776:12896   */\n      iszero\n      tag_330\n      jumpi\n        /* \"#utility.yul\":12847:12886   */\n      tag_331\n        /* \"#utility.yul\":12884:12885   */\n      0x00\n        /* \"#utility.yul\":12877:12882   */\n      dup3\n        /* \"#utility.yul\":12847:12886   */\n      tag_171\n      jump\t// in\n    tag_331:\n        /* \"#utility.yul\":12820:12821   */\n      0x01\n        /* \"#utility.yul\":12813:12818   */\n      dup2\n        /* \"#utility.yul\":12809:12822   */\n      add\n        /* \"#utility.yul\":12800:12822   */\n      swap1\n      pop\n        /* \"#utility.yul\":12776:12896   */\n      jump(tag_328)\n    tag_330:\n        /* \"#utility.yul\":12716:12902   */\n      pop\n      pop\n      jump\t// out\n        /* \"#utility.yul\":12908:13451   */\n    tag_173:\n        /* \"#utility.yul\":13009:13011   */\n      0x1f\n        /* \"#utility.yul\":13004:13007   */\n      dup3\n        /* \"#utility.yul\":13001:13012   */\n      gt\n        /* \"#utility.yul\":12998:13444   */\n      iszero\n      tag_333\n      jumpi\n        /* \"#utility.yul\":13043:13081   */\n      tag_334\n        /* \"#utility.yul\":13075:13080   */\n      dup2\n        /* \"#utility.yul\":13043:13081   */\n      tag_162\n      jump\t// in\n    tag_334:\n        /* \"#utility.yul\":13127:13156   */\n      tag_335\n        /* \"#utility.yul\":13145:13155   */\n      dup5\n        /* \"#utility.yul\":13127:13156   */\n      tag_163\n      jump\t// in\n    tag_335:\n        /* \"#utility.yul\":13117:13125   */\n      dup2\n        /* \"#utility.yul\":13113:13157   */\n      add\n        /* \"#utility.yul\":13310:13312   */\n      0x20\n        /* \"#utility.yul\":13298:13308   */\n      dup6\n        /* \"#utility.yul\":13295:13313   */\n      lt\n        /* \"#utility.yul\":13292:13341   */\n      iszero\n      tag_336\n      jumpi\n        /* \"#utility.yul\":13331:13339   */\n      dup2\n        /* \"#utility.yul\":13316:13339   */\n      swap1\n      pop\n        /* \"#utility.yul\":13292:13341   */\n    tag_336:\n        /* \"#utility.yul\":13354:13434   */\n      tag_337\n        /* \"#utility.yul\":13410:13432   */\n      tag_338\n        /* \"#utility.yul\":13428:13431   */\n      dup6\n        /* \"#utility.yul\":13410:13432   */\n      tag_163\n      jump\t// in\n    tag_338:\n        /* \"#utility.yul\":13400:13408   */\n      dup4\n        /* \"#utility.yul\":13396:13433   */\n      add\n        /* \"#utility.yul\":13383:13394   */\n      dup3\n        /* \"#utility.yul\":13354:13434   */\n      tag_172\n      jump\t// in\n    tag_337:\n        /* \"#utility.yul\":13013:13444   */\n      pop\n      pop\n        /* \"#utility.yul\":12998:13444   */\n    tag_333:\n        /* \"#utility.yul\":12908:13451   */\n      pop\n      pop\n      pop\n      jump\t// out\n        /* \"#utility.yul\":13457:13574   */\n    tag_174:\n        /* \"#utility.yul\":13511:13519   */\n      0x00\n        /* \"#utility.yul\":13561:13566   */\n      dup3\n        /* \"#utility.yul\":13555:13559   */\n      dup3\n        /* \"#utility.yul\":13551:13567   */\n      shr\n        /* \"#utility.yul\":13530:13567   */\n      swap1\n      pop\n        /* \"#utility.yul\":13457:13574   */\n      swap3\n      swap2\n      pop\n      pop\n      jump\t// out\n        /* \"#utility.yul\":13580:13749   */\n    tag_175:\n        /* \"#utility.yul\":13624:13630   */\n      0x00\n        /* \"#utility.yul\":13657:13708   */\n      tag_341\n        /* \"#utility.yul\":13705:13706   */\n      0x00\n        /* \"#utility.yul\":13701:13707   */\n      not\n        /* \"#utility.yul\":13693:13698   */\n      dup5\n        /* \"#utility.yul\":13690:13691   */\n      0x08\n        /* \"#utility.yul\":13686:13699   */\n      mul\n        /* \"#utility.yul\":13657:13708   */\n      tag_174\n      jump\t// in\n    tag_341:\n        /* \"#utility.yul\":13653:13709   */\n      not\n        /* \"#utility.yul\":13738:13742   */\n      dup1\n        /* \"#utility.yul\":13732:13736   */\n      dup4\n        /* \"#utility.yul\":13728:13743   */\n      and\n        /* \"#utility.yul\":13718:13743   */\n      swap2\n      pop\n        /* \"#utility.yul\":13631:13749   */\n      pop\n        /* \"#utility.yul\":13580:13749   */\n      swap3\n      swap2\n      pop\n      pop\n      jump\t// out\n        /* \"#utility.yul\":13754:14049   */\n    tag_176:\n        /* \"#utility.yul\":13830:13834   */\n      0x00\n        /* \"#utility.yul\":13976:14005   */\n      tag_343\n        /* \"#utility.yul\":14001:14004   */\n      dup4\n        /* \"#utility.yul\":13995:13999   */\n      dup4\n        /* \"#utility.yul\":13976:14005   */\n      tag_175\n      jump\t// in\n    tag_343:\n        /* \"#utility.yul\":13968:14005   */\n      swap2\n      pop\n        /* \"#utility.yul\":14038:14041   */\n      dup3\n        /* \"#utility.yul\":14035:14036   */\n      0x02\n        /* \"#utility.yul\":14031:14042   */\n      mul\n        /* \"#utility.yul\":14025:14029   */\n      dup3\n        /* \"#utility.yul\":14022:14043   */\n      or\n        /* \"#utility.yul\":14014:14043   */\n      swap1\n      pop\n        /* \"#utility.yul\":13754:14049   */\n      swap3\n      swap2\n      pop\n      pop\n      jump\t// out\n        /* \"#utility.yul\":14054:15449   */\n    tag_118:\n        /* \"#utility.yul\":14171:14208   */\n      tag_345\n        /* \"#utility.yul\":14204:14207   */\n      dup3\n        /* \"#utility.yul\":14171:14208   */\n      tag_146\n      jump\t// in\n    tag_345:\n        /* \"#utility.yul\":14273:14291   */\n      0xffffffffffffffff\n        /* \"#utility.yul\":14265:14271   */\n      dup2\n        /* \"#utility.yul\":14262:14292   */\n      gt\n        /* \"#utility.yul\":14259:14315   */\n      iszero\n      tag_346\n      jumpi\n        /* \"#utility.yul\":14295:14313   */\n      tag_347\n      tag_133\n      jump\t// in\n    tag_347:\n        /* \"#utility.yul\":14259:14315   */\n    tag_346:\n        /* \"#utility.yul\":14339:14377   */\n      tag_348\n        /* \"#utility.yul\":14371:14375   */\n      dup3\n        /* \"#utility.yul\":14365:14376   */\n      sload\n        /* \"#utility.yul\":14339:14377   */\n      tag_122\n      jump\t// in\n    tag_348:\n        /* \"#utility.yul\":14424:14491   */\n      tag_349\n        /* \"#utility.yul\":14484:14490   */\n      dup3\n        /* \"#utility.yul\":14476:14482   */\n      dup3\n        /* \"#utility.yul\":14470:14474   */\n      dup6\n        /* \"#utility.yul\":14424:14491   */\n      tag_173\n      jump\t// in\n    tag_349:\n        /* \"#utility.yul\":14518:14519   */\n      0x00\n        /* \"#utility.yul\":14542:14546   */\n      0x20\n        /* \"#utility.yul\":14529:14546   */\n      swap1\n      pop\n        /* \"#utility.yul\":14574:14576   */\n      0x1f\n        /* \"#utility.yul\":14566:14572   */\n      dup4\n        /* \"#utility.yul\":14563:14577   */\n      gt\n        /* \"#utility.yul\":14591:14592   */\n      0x01\n        /* \"#utility.yul\":14586:15204   */\n      dup2\n      eq\n      tag_351\n      jumpi\n        /* \"#utility.yul\":15248:15249   */\n      0x00\n        /* \"#utility.yul\":15265:15271   */\n      dup5\n        /* \"#utility.yul\":15262:15339   */\n      iszero\n      tag_352\n      jumpi\n        /* \"#utility.yul\":15314:15323   */\n      dup3\n        /* \"#utility.yul\":15309:15312   */\n      dup8\n        /* \"#utility.yul\":15305:15324   */\n      add\n        /* \"#utility.yul\":15299:15325   */\n      mload\n        /* \"#utility.yul\":15290:15325   */\n      swap1\n      pop\n        /* \"#utility.yul\":15262:15339   */\n    tag_352:\n        /* \"#utility.yul\":15365:15432   */\n      tag_353\n        /* \"#utility.yul\":15425:15431   */\n      dup6\n        /* \"#utility.yul\":15418:15423   */\n      dup3\n        /* \"#utility.yul\":15365:15432   */\n      tag_176\n      jump\t// in\n    tag_353:\n        /* \"#utility.yul\":15359:15363   */\n      dup7\n        /* \"#utility.yul\":15352:15433   */\n      sstore\n        /* \"#utility.yul\":15221:15443   */\n      pop\n        /* \"#utility.yul\":14556:15443   */\n      jump(tag_350)\n        /* \"#utility.yul\":14586:15204   */\n    tag_351:\n        /* \"#utility.yul\":14638:14642   */\n      0x1f\n        /* \"#utility.yul\":14634:14643   */\n      not\n        /* \"#utility.yul\":14626:14632   */\n      dup5\n        /* \"#utility.yul\":14622:14644   */\n      and\n        /* \"#utility.yul\":14672:14709   */\n      tag_354\n        /* \"#utility.yul\":14704:14708   */\n      dup7\n        /* \"#utility.yul\":14672:14709   */\n      tag_162\n      jump\t// in\n    tag_354:\n        /* \"#utility.yul\":14731:14732   */\n      0x00\n        /* \"#utility.yul\":14745:14953   */\n    tag_355:\n        /* \"#utility.yul\":14759:14766   */\n      dup3\n        /* \"#utility.yul\":14756:14757   */\n      dup2\n        /* \"#utility.yul\":14753:14767   */\n      lt\n        /* \"#utility.yul\":14745:14953   */\n      iszero\n      tag_357\n      jumpi\n        /* \"#utility.yul\":14838:14847   */\n      dup5\n        /* \"#utility.yul\":14833:14836   */\n      dup10\n        /* \"#utility.yul\":14829:14848   */\n      add\n        /* \"#utility.yul\":14823:14849   */\n      mload\n        /* \"#utility.yul\":14815:14821   */\n      dup3\n        /* \"#utility.yul\":14808:14850   */\n      sstore\n        /* \"#utility.yul\":14889:14890   */\n      0x01\n        /* \"#utility.yul\":14881:14887   */\n      dup3\n        /* \"#utility.yul\":14877:14891   */\n      add\n        /* \"#utility.yul\":14867:14891   */\n      swap2\n      pop\n        /* \"#utility.yul\":14936:14938   */\n      0x20\n        /* \"#utility.yul\":14925:14934   */\n      dup6\n        /* \"#utility.yul\":14921:14939   */\n      add\n        /* \"#utility.yul\":14908:14939   */\n      swap5\n      pop\n        /* \"#utility.yul\":14782:14786   */\n      0x20\n        /* \"#utility.yul\":14779:14780   */\n      dup2\n        /* \"#utility.yul\":14775:14787   */\n      add\n        /* \"#utility.yul\":14770:14787   */\n      swap1\n      pop\n        /* \"#utility.yul\":14745:14953   */\n      jump(tag_355)\n    tag_357:\n        /* \"#utility.yul\":14981:14987   */\n      dup7\n        /* \"#utility.yul\":14972:14979   */\n      dup4\n        /* \"#utility.yul\":14969:14988   */\n      lt\n        /* \"#utility.yul\":14966:15145   */\n      iszero\n      tag_358\n      jumpi\n        /* \"#utility.yul\":15039:15048   */\n      dup5\n        /* \"#utility.yul\":15034:15037   */\n      dup10\n        /* \"#utility.yul\":15030:15049   */\n      add\n        /* \"#utility.yul\":15024:15050   */\n      mload\n        /* \"#utility.yul\":15082:15130   */\n      tag_359\n        /* \"#utility.yul\":15124:15128   */\n      0x1f\n        /* \"#utility.yul\":15116:15122   */\n      dup10\n        /* \"#utility.yul\":15112:15129   */\n      and\n        /* \"#utility.yul\":15101:15110   */\n      dup3\n        /* \"#utility.yul\":15082:15130   */\n      tag_175\n      jump\t// in\n    tag_359:\n        /* \"#utility.yul\":15074:15080   */\n      dup4\n        /* \"#utility.yul\":15067:15131   */\n      sstore\n        /* \"#utility.yul\":14989:15145   */\n      pop\n        /* \"#utility.yul\":14966:15145   */\n    tag_358:\n        /* \"#utility.yul\":15191:15192   */\n      0x01\n        /* \"#utility.yul\":15187:15188   */\n      0x02\n        /* \"#utility.yul\":15179:15185   */\n      dup9\n        /* \"#utility.yul\":15175:15189   */\n      mul\n        /* \"#utility.yul\":15171:15193   */\n      add\n        /* \"#utility.yul\":15165:15169   */\n      dup9\n        /* \"#utility.yul\":15158:15194   */\n      sstore\n        /* \"#utility.yul\":14593:15204   */\n      pop\n      pop\n      pop\n        /* \"#utility.yul\":14556:15443   */\n    tag_350:\n      pop\n        /* \"#utility.yul\":14146:15449   */\n      pop\n      pop\n      pop\n        /* \"#utility.yul\":14054:15449   */\n      pop\n      pop\n      jump\t// out\n\n    auxdata: 0xa26469706673582212205c05019d520c3985d815761d0ebf65a0d13b49b879b491788eba76df39fcd18364736f6c63430008120033\n}\n",
				"bytecode": {
					"linkReferences": {},
					"object": "608060405234801561001057600080fd5b50735b38da6a701c568545dcfcb03fcb875f56beddc46000806101000a81548173ffffffffffffffffffffffffffffffffffffffff021916908373ffffffffffffffffffffffffffffffffffffffff160217905550611206806100746000396000f3fe6080604052600436106100915760003560e01c8063700798761161005957806370079876146101445780637d0068b91461016d5780638da5cb5b14610196578063d0020fad146101c1578063f30e1474146101ea57610091565b806313cb8fda146100965780632b66d72e146100bf57806334c3f10e146100db5780633ccfd60b146101045780634170be6e1461011b575b600080fd5b3480156100a257600080fd5b506100bd60048036038101906100b89190610a51565b61022a565b005b6100d960048036038101906100d49190610aad565b6102cc565b005b3480156100e757600080fd5b5061010260048036038101906100fd9190610a51565b610374565b005b34801561011057600080fd5b50610119610415565b005b34801561012757600080fd5b50610142600480360381019061013d9190610aad565b6104d6565b005b34801561015057600080fd5b5061016b60048036038101906101669190610aad565b610570565b005b34801561017957600080fd5b50610194600480360381019061018f9190610a51565b610618565b005b3480156101a257600080fd5b506101ab6106b8565b6040516101b89190610b37565b60405180910390f35b3480156101cd57600080fd5b506101e860048036038101906101e39190610aad565b6106dc565b005b3480156101f657600080fd5b50610211600480360381019061020c9190610aad565b6107e6565b6040516102219493929190610c57565b60405180910390f35b60008054906101000a900473ffffffffffffffffffffffffffffffffffffffff1673ffffffffffffffffffffffffffffffffffffffff163373ffffffffffffffffffffffffffffffffffffffff161461028257600080fd5b80620151806102919190610cd2565b6001836040516102a19190610d50565b908152602001604051809103902060010160008282546102c19190610d67565b925050819055505050565b66470de4df820000341180156102f45750600066470de4df820000346102f29190610dca565b145b610333576040517f08c379a000000000000000000000000000000000000000000000000000000000815260040161032a90610e6d565b60405180910390fd5b600066470de4df820000346103489190610e8d565b90508060018360405161035b9190610d50565b9081526020016040518091039020600201819055505050565b60008054906101000a900473ffffffffffffffffffffffffffffffffffffffff1673ffffffffffffffffffffffffffffffffffffffff163373ffffffffffffffffffffffffffffffffffffffff16146103cc57600080fd5b80610e106103da9190610cd2565b6001836040516103ea9190610d50565b9081526020016040518091039020600101600082825461040a9190610d67565b925050819055505050565b60008054906101000a900473ffffffffffffffffffffffffffffffffffffffff1673ffffffffffffffffffffffffffffffffffffffff163373ffffffffffffffffffffffffffffffffffffffff161461046d57600080fd5b60008054906101000a900473ffffffffffffffffffffffffffffffffffffffff1673ffffffffffffffffffffffffffffffffffffffff166108fc479081150290604051600060405180830381858888f193505050501580156104d3573d6000803e3d6000fd5b50565b600060018111156104ea576104e9610be0565b5b6001826040516104fa9190610d50565b908152602001604051809103902060030160009054906101000a900460ff16600181111561052b5761052a610be0565b5b1461053557600080fd5b600180826040516105469190610d50565b908152602001604051809103902060020160008282546105669190610ebe565b9250508190555050565b6001816040516105809190610d50565b908152602001604051809103902060010154421080156105c2575060006001826040516105ad9190610d50565b90815260200160405180910390206002015414155b6105cb57600080fd5b60006001826040516105dd9190610d50565b908152602001604051809103902060030160006101000a81548160ff021916908360018111156106105761060f610be0565b5b021790555050565b60008054906101000a900473ffffffffffffffffffffffffffffffffffffffff1673ffffffffffffffffffffffffffffffffffffffff163373ffffffffffffffffffffffffffffffffffffffff161461067057600080fd5b80603c61067d9190610cd2565b60018360405161068d9190610d50565b908152602001604051809103902060010160008282546106ad9190610d67565b925050819055505050565b60008054906101000a900473ffffffffffffffffffffffffffffffffffffffff1681565b60008054906101000a900473ffffffffffffffffffffffffffffffffffffffff1673ffffffffffffffffffffffffffffffffffffffff163373ffffffffffffffffffffffffffffffffffffffff161461073457600080fd5b60405180608001604052808281526020014281526020016000815260200160018081111561076557610764610be0565b5b8152506001826040516107789190610d50565b9081526020016040518091039020600082015181600001908161079b91906110fe565b50602082015181600101556040820151816002015560608201518160030160006101000a81548160ff021916908360018111156107db576107da610be0565b5b021790555090505050565b60018180516020810182018051848252602083016020850120818352809550505050505060009150905080600001805461081f90610f21565b80601f016020809104026020016040519081016040528092919081815260200182805461084b90610f21565b80156108985780601f1061086d57610100808354040283529160200191610898565b820191906000526020600020905b81548152906001019060200180831161087b57829003601f168201915b5050505050908060010154908060020154908060030160009054906101000a900460ff16905084565b6000604051905090565b600080fd5b600080fd5b600080fd5b600080fd5b6000601f19601f8301169050919050565b7f4e487b7100000000000000000000000000000000000000000000000000000000600052604160045260246000fd5b610928826108df565b810181811067ffffffffffffffff82111715610947576109466108f0565b5b80604052505050565b600061095a6108c1565b9050610966828261091f565b919050565b600067ffffffffffffffff821115610986576109856108f0565b5b61098f826108df565b9050602081019050919050565b82818337600083830152505050565b60006109be6109b98461096b565b610950565b9050828152602081018484840111156109da576109d96108da565b5b6109e584828561099c565b509392505050565b600082601f830112610a0257610a016108d5565b5b8135610a128482602086016109ab565b91505092915050565b6000819050919050565b610a2e81610a1b565b8114610a3957600080fd5b50565b600081359050610a4b81610a25565b92915050565b60008060408385031215610a6857610a676108cb565b5b600083013567ffffffffffffffff811115610a8657610a856108d0565b5b610a92858286016109ed565b9250506020610aa385828601610a3c565b9150509250929050565b600060208284031215610ac357610ac26108cb565b5b600082013567ffffffffffffffff811115610ae157610ae06108d0565b5b610aed848285016109ed565b91505092915050565b600073ffffffffffffffffffffffffffffffffffffffff82169050919050565b6000610b2182610af6565b9050919050565b610b3181610b16565b82525050565b6000602082019050610b4c6000830184610b28565b92915050565b600081519050919050565b600082825260208201905092915050565b60005b83811015610b8c578082015181840152602081019050610b71565b60008484015250505050565b6000610ba382610b52565b610bad8185610b5d565b9350610bbd818560208601610b6e565b610bc6816108df565b840191505092915050565b610bda81610a1b565b82525050565b7f4e487b7100000000000000000000000000000000000000000000000000000000600052602160045260246000fd5b60028110610c2057610c1f610be0565b5b50565b6000819050610c3182610c0f565b919050565b6000610c4182610c23565b9050919050565b610c5181610c36565b82525050565b60006080820190508181036000830152610c718187610b98565b9050610c806020830186610bd1565b610c8d6040830185610bd1565b610c9a6060830184610c48565b95945050505050565b7f4e487b7100000000000000000000000000000000000000000000000000000000600052601160045260246000fd5b6000610cdd82610a1b565b9150610ce883610a1b565b9250828202610cf681610a1b565b91508282048414831517610d0d57610d0c610ca3565b5b5092915050565b600081905092915050565b6000610d2a82610b52565b610d348185610d14565b9350610d44818560208601610b6e565b80840191505092915050565b6000610d5c8284610d1f565b915081905092915050565b6000610d7282610a1b565b9150610d7d83610a1b565b9250828201905080821115610d9557610d94610ca3565b5b92915050565b7f4e487b7100000000000000000000000000000000000000000000000000000000600052601260045260246000fd5b6000610dd582610a1b565b9150610de083610a1b565b925082610df057610def610d9b565b5b828206905092915050565b7f466f72206d6f7265207468616e20302e30322065746865722c20706c6561736560008201527f2070617920696e20756e697473206f6620302e30322065746865720000000000602082015250565b6000610e57603b83610b5d565b9150610e6282610dfb565b604082019050919050565b60006020820190508181036000830152610e8681610e4a565b9050919050565b6000610e9882610a1b565b9150610ea383610a1b565b925082610eb357610eb2610d9b565b5b828204905092915050565b6000610ec982610a1b565b9150610ed483610a1b565b9250828203905081811115610eec57610eeb610ca3565b5b92915050565b7f4e487b7100000000000000000000000000000000000000000000000000000000600052602260045260246000fd5b60006002820490506001821680610f3957607f821691505b602082108103610f4c57610f4b610ef2565b5b50919050565b60008190508160005260206000209050919050565b60006020601f8301049050919050565b600082821b905092915050565b600060088302610fb47fffffffffffffffffffffffffffffffffffffffffffffffffffffffffffffffff82610f77565b610fbe8683610f77565b95508019841693508086168417925050509392505050565b6000819050919050565b6000610ffb610ff6610ff184610a1b565b610fd6565b610a1b565b9050919050565b6000819050919050565b61101583610fe0565b61102961102182611002565b848454610f84565b825550505050565b600090565b61103e611031565b61104981848461100c565b505050565b5b8181101561106d57611062600082611036565b60018101905061104f565b5050565b601f8211156110b25761108381610f52565b61108c84610f67565b8101602085101561109b578190505b6110af6110a785610f67565b83018261104e565b50505b505050565b600082821c905092915050565b60006110d5600019846008026110b7565b1980831691505092915050565b60006110ee83836110c4565b9150826002028217905092915050565b61110782610b52565b67ffffffffffffffff8111156111205761111f6108f0565b5b61112a8254610f21565b611135828285611071565b600060209050601f8311600181146111685760008415611156578287015190505b61116085826110e2565b8655506111c8565b601f19841661117686610f52565b60005b8281101561119e57848901518255600182019150602085019450602081019050611179565b868310156111bb57848901516111b7601f8916826110c4565b8355505b6001600288020188555050505b50505050505056fea26469706673582212205c05019d520c3985d815761d0ebf65a0d13b49b879b491788eba76df39fcd18364736f6c63430008120033",
					"opcodes": "PUSH1 0x80 PUSH1 0x40 MSTORE CALLVALUE DUP1 ISZERO PUSH2 0x10 JUMPI PUSH1 0x0 DUP1 REVERT JUMPDEST POP PUSH20 0x5B38DA6A701C568545DCFCB03FCB875F56BEDDC4 PUSH1 0x0 DUP1 PUSH2 0x100 EXP DUP2 SLOAD DUP2 PUSH20 0xFFFFFFFFFFFFFFFFFFFFFFFFFFFFFFFFFFFFFFFF MUL NOT AND SWAP1 DUP4 PUSH20 0xFFFFFFFFFFFFFFFFFFFFFFFFFFFFFFFFFFFFFFFF AND MUL OR SWAP1 SSTORE POP PUSH2 0x1206 DUP1 PUSH2 0x74 PUSH1 0x0 CODECOPY PUSH1 0x0 RETURN INVALID PUSH1 0x80 PUSH1 0x40 MSTORE PUSH1 0x4 CALLDATASIZE LT PUSH2 0x91 JUMPI PUSH1 0x0 CALLDATALOAD PUSH1 0xE0 SHR DUP1 PUSH4 0x70079876 GT PUSH2 0x59 JUMPI DUP1 PUSH4 0x70079876 EQ PUSH2 0x144 JUMPI DUP1 PUSH4 0x7D0068B9 EQ PUSH2 0x16D JUMPI DUP1 PUSH4 0x8DA5CB5B EQ PUSH2 0x196 JUMPI DUP1 PUSH4 0xD0020FAD EQ PUSH2 0x1C1 JUMPI DUP1 PUSH4 0xF30E1474 EQ PUSH2 0x1EA JUMPI PUSH2 0x91 JUMP JUMPDEST DUP1 PUSH4 0x13CB8FDA EQ PUSH2 0x96 JUMPI DUP1 PUSH4 0x2B66D72E EQ PUSH2 0xBF JUMPI DUP1 PUSH4 0x34C3F10E EQ PUSH2 0xDB JUMPI DUP1 PUSH4 0x3CCFD60B EQ PUSH2 0x104 JUMPI DUP1 PUSH4 0x4170BE6E EQ PUSH2 0x11B JUMPI JUMPDEST PUSH1 0x0 DUP1 REVERT JUMPDEST CALLVALUE DUP1 ISZERO PUSH2 0xA2 JUMPI PUSH1 0x0 DUP1 REVERT JUMPDEST POP PUSH2 0xBD PUSH1 0x4 DUP1 CALLDATASIZE SUB DUP2 ADD SWAP1 PUSH2 0xB8 SWAP2 SWAP1 PUSH2 0xA51 JUMP JUMPDEST PUSH2 0x22A JUMP JUMPDEST STOP JUMPDEST PUSH2 0xD9 PUSH1 0x4 DUP1 CALLDATASIZE SUB DUP2 ADD SWAP1 PUSH2 0xD4 SWAP2 SWAP1 PUSH2 0xAAD JUMP JUMPDEST PUSH2 0x2CC JUMP JUMPDEST STOP JUMPDEST CALLVALUE DUP1 ISZERO PUSH2 0xE7 JUMPI PUSH1 0x0 DUP1 REVERT JUMPDEST POP PUSH2 0x102 PUSH1 0x4 DUP1 CALLDATASIZE SUB DUP2 ADD SWAP1 PUSH2 0xFD SWAP2 SWAP1 PUSH2 0xA51 JUMP JUMPDEST PUSH2 0x374 JUMP JUMPDEST STOP JUMPDEST CALLVALUE DUP1 ISZERO PUSH2 0x110 JUMPI PUSH1 0x0 DUP1 REVERT JUMPDEST POP PUSH2 0x119 PUSH2 0x415 JUMP JUMPDEST STOP JUMPDEST CALLVALUE DUP1 ISZERO PUSH2 0x127 JUMPI PUSH1 0x0 DUP1 REVERT JUMPDEST POP PUSH2 0x142 PUSH1 0x4 DUP1 CALLDATASIZE SUB DUP2 ADD SWAP1 PUSH2 0x13D SWAP2 SWAP1 PUSH2 0xAAD JUMP JUMPDEST PUSH2 0x4D6 JUMP JUMPDEST STOP JUMPDEST CALLVALUE DUP1 ISZERO PUSH2 0x150 JUMPI PUSH1 0x0 DUP1 REVERT JUMPDEST POP PUSH2 0x16B PUSH1 0x4 DUP1 CALLDATASIZE SUB DUP2 ADD SWAP1 PUSH2 0x166 SWAP2 SWAP1 PUSH2 0xAAD JUMP JUMPDEST PUSH2 0x570 JUMP JUMPDEST STOP JUMPDEST CALLVALUE DUP1 ISZERO PUSH2 0x179 JUMPI PUSH1 0x0 DUP1 REVERT JUMPDEST POP PUSH2 0x194 PUSH1 0x4 DUP1 CALLDATASIZE SUB DUP2 ADD SWAP1 PUSH2 0x18F SWAP2 SWAP1 PUSH2 0xA51 JUMP JUMPDEST PUSH2 0x618 JUMP JUMPDEST STOP JUMPDEST CALLVALUE DUP1 ISZERO PUSH2 0x1A2 JUMPI PUSH1 0x0 DUP1 REVERT JUMPDEST POP PUSH2 0x1AB PUSH2 0x6B8 JUMP JUMPDEST PUSH1 0x40 MLOAD PUSH2 0x1B8 SWAP2 SWAP1 PUSH2 0xB37 JUMP JUMPDEST PUSH1 0x40 MLOAD DUP1 SWAP2 SUB SWAP1 RETURN JUMPDEST CALLVALUE DUP1 ISZERO PUSH2 0x1CD JUMPI PUSH1 0x0 DUP1 REVERT JUMPDEST POP PUSH2 0x1E8 PUSH1 0x4 DUP1 CALLDATASIZE SUB DUP2 ADD SWAP1 PUSH2 0x1E3 SWAP2 SWAP1 PUSH2 0xAAD JUMP JUMPDEST PUSH2 0x6DC JUMP JUMPDEST STOP JUMPDEST CALLVALUE DUP1 ISZERO PUSH2 0x1F6 JUMPI PUSH1 0x0 DUP1 REVERT JUMPDEST POP PUSH2 0x211 PUSH1 0x4 DUP1 CALLDATASIZE SUB DUP2 ADD SWAP1 PUSH2 0x20C SWAP2 SWAP1 PUSH2 0xAAD JUMP JUMPDEST PUSH2 0x7E6 JUMP JUMPDEST PUSH1 0x40 MLOAD PUSH2 0x221 SWAP5 SWAP4 SWAP3 SWAP2 SWAP1 PUSH2 0xC57 JUMP JUMPDEST PUSH1 0x40 MLOAD DUP1 SWAP2 SUB SWAP1 RETURN JUMPDEST PUSH1 0x0 DUP1 SLOAD SWAP1 PUSH2 0x100 EXP SWAP1 DIV PUSH20 0xFFFFFFFFFFFFFFFFFFFFFFFFFFFFFFFFFFFFFFFF AND PUSH20 0xFFFFFFFFFFFFFFFFFFFFFFFFFFFFFFFFFFFFFFFF AND CALLER PUSH20 0xFFFFFFFFFFFFFFFFFFFFFFFFFFFFFFFFFFFFFFFF AND EQ PUSH2 0x282 JUMPI PUSH1 0x0 DUP1 REVERT JUMPDEST DUP1 PUSH3 0x15180 PUSH2 0x291 SWAP2 SWAP1 PUSH2 0xCD2 JUMP JUMPDEST PUSH1 0x1 DUP4 PUSH1 0x40 MLOAD PUSH2 0x2A1 SWAP2 SWAP1 PUSH2 0xD50 JUMP JUMPDEST SWAP1 DUP2 MSTORE PUSH1 0x20 ADD PUSH1 0x40 MLOAD DUP1 SWAP2 SUB SWAP1 KECCAK256 PUSH1 0x1 ADD PUSH1 0x0 DUP3 DUP3 SLOAD PUSH2 0x2C1 SWAP2 SWAP1 PUSH2 0xD67 JUMP JUMPDEST SWAP3 POP POP DUP2 SWAP1 SSTORE POP POP POP JUMP JUMPDEST PUSH7 0x470DE4DF820000 CALLVALUE GT DUP1 ISZERO PUSH2 0x2F4 JUMPI POP PUSH1 0x0 PUSH7 0x470DE4DF820000 CALLVALUE PUSH2 0x2F2 SWAP2 SWAP1 PUSH2 0xDCA JUMP JUMPDEST EQ JUMPDEST PUSH2 0x333 JUMPI PUSH1 0x40 MLOAD PUSH32 0x8C379A000000000000000000000000000000000000000000000000000000000 DUP2 MSTORE PUSH1 0x4 ADD PUSH2 0x32A SWAP1 PUSH2 0xE6D JUMP JUMPDEST PUSH1 0x40 MLOAD DUP1 SWAP2 SUB SWAP1 REVERT JUMPDEST PUSH1 0x0 PUSH7 0x470DE4DF820000 CALLVALUE PUSH2 0x348 SWAP2 SWAP1 PUSH2 0xE8D JUMP JUMPDEST SWAP1 POP DUP1 PUSH1 0x1 DUP4 PUSH1 0x40 MLOAD PUSH2 0x35B SWAP2 SWAP1 PUSH2 0xD50 JUMP JUMPDEST SWAP1 DUP2 MSTORE PUSH1 0x20 ADD PUSH1 0x40 MLOAD DUP1 SWAP2 SUB SWAP1 KECCAK256 PUSH1 0x2 ADD DUP2 SWAP1 SSTORE POP POP POP JUMP JUMPDEST PUSH1 0x0 DUP1 SLOAD SWAP1 PUSH2 0x100 EXP SWAP1 DIV PUSH20 0xFFFFFFFFFFFFFFFFFFFFFFFFFFFFFFFFFFFFFFFF AND PUSH20 0xFFFFFFFFFFFFFFFFFFFFFFFFFFFFFFFFFFFFFFFF AND CALLER PUSH20 0xFFFFFFFFFFFFFFFFFFFFFFFFFFFFFFFFFFFFFFFF AND EQ PUSH2 0x3CC JUMPI PUSH1 0x0 DUP1 REVERT JUMPDEST DUP1 PUSH2 0xE10 PUSH2 0x3DA SWAP2 SWAP1 PUSH2 0xCD2 JUMP JUMPDEST PUSH1 0x1 DUP4 PUSH1 0x40 MLOAD PUSH2 0x3EA SWAP2 SWAP1 PUSH2 0xD50 JUMP JUMPDEST SWAP1 DUP2 MSTORE PUSH1 0x20 ADD PUSH1 0x40 MLOAD DUP1 SWAP2 SUB SWAP1 KECCAK256 PUSH1 0x1 ADD PUSH1 0x0 DUP3 DUP3 SLOAD PUSH2 0x40A SWAP2 SWAP1 PUSH2 0xD67 JUMP JUMPDEST SWAP3 POP POP DUP2 SWAP1 SSTORE POP POP POP JUMP JUMPDEST PUSH1 0x0 DUP1 SLOAD SWAP1 PUSH2 0x100 EXP SWAP1 DIV PUSH20 0xFFFFFFFFFFFFFFFFFFFFFFFFFFFFFFFFFFFFFFFF AND PUSH20 0xFFFFFFFFFFFFFFFFFFFFFFFFFFFFFFFFFFFFFFFF AND CALLER PUSH20 0xFFFFFFFFFFFFFFFFFFFFFFFFFFFFFFFFFFFFFFFF AND EQ PUSH2 0x46D JUMPI PUSH1 0x0 DUP1 REVERT JUMPDEST PUSH1 0x0 DUP1 SLOAD SWAP1 PUSH2 0x100 EXP SWAP1 DIV PUSH20 0xFFFFFFFFFFFFFFFFFFFFFFFFFFFFFFFFFFFFFFFF AND PUSH20 0xFFFFFFFFFFFFFFFFFFFFFFFFFFFFFFFFFFFFFFFF AND PUSH2 0x8FC SELFBALANCE SWAP1 DUP2 ISZERO MUL SWAP1 PUSH1 0x40 MLOAD PUSH1 0x0 PUSH1 0x40 MLOAD DUP1 DUP4 SUB DUP2 DUP6 DUP9 DUP9 CALL SWAP4 POP POP POP POP ISZERO DUP1 ISZERO PUSH2 0x4D3 JUMPI RETURNDATASIZE PUSH1 0x0 DUP1 RETURNDATACOPY RETURNDATASIZE PUSH1 0x0 REVERT JUMPDEST POP JUMP JUMPDEST PUSH1 0x0 PUSH1 0x1 DUP2 GT ISZERO PUSH2 0x4EA JUMPI PUSH2 0x4E9 PUSH2 0xBE0 JUMP JUMPDEST JUMPDEST PUSH1 0x1 DUP3 PUSH1 0x40 MLOAD PUSH2 0x4FA SWAP2 SWAP1 PUSH2 0xD50 JUMP JUMPDEST SWAP1 DUP2 MSTORE PUSH1 0x20 ADD PUSH1 0x40 MLOAD DUP1 SWAP2 SUB SWAP1 KECCAK256 PUSH1 0x3 ADD PUSH1 0x0 SWAP1 SLOAD SWAP1 PUSH2 0x100 EXP SWAP1 DIV PUSH1 0xFF AND PUSH1 0x1 DUP2 GT ISZERO PUSH2 0x52B JUMPI PUSH2 0x52A PUSH2 0xBE0 JUMP JUMPDEST JUMPDEST EQ PUSH2 0x535 JUMPI PUSH1 0x0 DUP1 REVERT JUMPDEST PUSH1 0x1 DUP1 DUP3 PUSH1 0x40 MLOAD PUSH2 0x546 SWAP2 SWAP1 PUSH2 0xD50 JUMP JUMPDEST SWAP1 DUP2 MSTORE PUSH1 0x20 ADD PUSH1 0x40 MLOAD DUP1 SWAP2 SUB SWAP1 KECCAK256 PUSH1 0x2 ADD PUSH1 0x0 DUP3 DUP3 SLOAD PUSH2 0x566 SWAP2 SWAP1 PUSH2 0xEBE JUMP JUMPDEST SWAP3 POP POP DUP2 SWAP1 SSTORE POP POP JUMP JUMPDEST PUSH1 0x1 DUP2 PUSH1 0x40 MLOAD PUSH2 0x580 SWAP2 SWAP1 PUSH2 0xD50 JUMP JUMPDEST SWAP1 DUP2 MSTORE PUSH1 0x20 ADD PUSH1 0x40 MLOAD DUP1 SWAP2 SUB SWAP1 KECCAK256 PUSH1 0x1 ADD SLOAD TIMESTAMP LT DUP1 ISZERO PUSH2 0x5C2 JUMPI POP PUSH1 0x0 PUSH1 0x1 DUP3 PUSH1 0x40 MLOAD PUSH2 0x5AD SWAP2 SWAP1 PUSH2 0xD50 JUMP JUMPDEST SWAP1 DUP2 MSTORE PUSH1 0x20 ADD PUSH1 0x40 MLOAD DUP1 SWAP2 SUB SWAP1 KECCAK256 PUSH1 0x2 ADD SLOAD EQ ISZERO JUMPDEST PUSH2 0x5CB JUMPI PUSH1 0x0 DUP1 REVERT JUMPDEST PUSH1 0x0 PUSH1 0x1 DUP3 PUSH1 0x40 MLOAD PUSH2 0x5DD SWAP2 SWAP1 PUSH2 0xD50 JUMP JUMPDEST SWAP1 DUP2 MSTORE PUSH1 0x20 ADD PUSH1 0x40 MLOAD DUP1 SWAP2 SUB SWAP1 KECCAK256 PUSH1 0x3 ADD PUSH1 0x0 PUSH2 0x100 EXP DUP2 SLOAD DUP2 PUSH1 0xFF MUL NOT AND SWAP1 DUP4 PUSH1 0x1 DUP2 GT ISZERO PUSH2 0x610 JUMPI PUSH2 0x60F PUSH2 0xBE0 JUMP JUMPDEST JUMPDEST MUL OR SWAP1 SSTORE POP POP JUMP JUMPDEST PUSH1 0x0 DUP1 SLOAD SWAP1 PUSH2 0x100 EXP SWAP1 DIV PUSH20 0xFFFFFFFFFFFFFFFFFFFFFFFFFFFFFFFFFFFFFFFF AND PUSH20 0xFFFFFFFFFFFFFFFFFFFFFFFFFFFFFFFFFFFFFFFF AND CALLER PUSH20 0xFFFFFFFFFFFFFFFFFFFFFFFFFFFFFFFFFFFFFFFF AND EQ PUSH2 0x670 JUMPI PUSH1 0x0 DUP1 REVERT JUMPDEST DUP1 PUSH1 0x3C PUSH2 0x67D SWAP2 SWAP1 PUSH2 0xCD2 JUMP JUMPDEST PUSH1 0x1 DUP4 PUSH1 0x40 MLOAD PUSH2 0x68D SWAP2 SWAP1 PUSH2 0xD50 JUMP JUMPDEST SWAP1 DUP2 MSTORE PUSH1 0x20 ADD PUSH1 0x40 MLOAD DUP1 SWAP2 SUB SWAP1 KECCAK256 PUSH1 0x1 ADD PUSH1 0x0 DUP3 DUP3 SLOAD PUSH2 0x6AD SWAP2 SWAP1 PUSH2 0xD67 JUMP JUMPDEST SWAP3 POP POP DUP2 SWAP1 SSTORE POP POP POP JUMP JUMPDEST PUSH1 0x0 DUP1 SLOAD SWAP1 PUSH2 0x100 EXP SWAP1 DIV PUSH20 0xFFFFFFFFFFFFFFFFFFFFFFFFFFFFFFFFFFFFFFFF AND DUP2 JUMP JUMPDEST PUSH1 0x0 DUP1 SLOAD SWAP1 PUSH2 0x100 EXP SWAP1 DIV PUSH20 0xFFFFFFFFFFFFFFFFFFFFFFFFFFFFFFFFFFFFFFFF AND PUSH20 0xFFFFFFFFFFFFFFFFFFFFFFFFFFFFFFFFFFFFFFFF AND CALLER PUSH20 0xFFFFFFFFFFFFFFFFFFFFFFFFFFFFFFFFFFFFFFFF AND EQ PUSH2 0x734 JUMPI PUSH1 0x0 DUP1 REVERT JUMPDEST PUSH1 0x40 MLOAD DUP1 PUSH1 0x80 ADD PUSH1 0x40 MSTORE DUP1 DUP3 DUP2 MSTORE PUSH1 0x20 ADD TIMESTAMP DUP2 MSTORE PUSH1 0x20 ADD PUSH1 0x0 DUP2 MSTORE PUSH1 0x20 ADD PUSH1 0x1 DUP1 DUP2 GT ISZERO PUSH2 0x765 JUMPI PUSH2 0x764 PUSH2 0xBE0 JUMP JUMPDEST JUMPDEST DUP2 MSTORE POP PUSH1 0x1 DUP3 PUSH1 0x40 MLOAD PUSH2 0x778 SWAP2 SWAP1 PUSH2 0xD50 JUMP JUMPDEST SWAP1 DUP2 MSTORE PUSH1 0x20 ADD PUSH1 0x40 MLOAD DUP1 SWAP2 SUB SWAP1 KECCAK256 PUSH1 0x0 DUP3 ADD MLOAD DUP2 PUSH1 0x0 ADD SWAP1 DUP2 PUSH2 0x79B SWAP2 SWAP1 PUSH2 0x10FE JUMP JUMPDEST POP PUSH1 0x20 DUP3 ADD MLOAD DUP2 PUSH1 0x1 ADD SSTORE PUSH1 0x40 DUP3 ADD MLOAD DUP2 PUSH1 0x2 ADD SSTORE PUSH1 0x60 DUP3 ADD MLOAD DUP2 PUSH1 0x3 ADD PUSH1 0x0 PUSH2 0x100 EXP DUP2 SLOAD DUP2 PUSH1 0xFF MUL NOT AND SWAP1 DUP4 PUSH1 0x1 DUP2 GT ISZERO PUSH2 0x7DB JUMPI PUSH2 0x7DA PUSH2 0xBE0 JUMP JUMPDEST JUMPDEST MUL OR SWAP1 SSTORE POP SWAP1 POP POP POP JUMP JUMPDEST PUSH1 0x1 DUP2 DUP1 MLOAD PUSH1 0x20 DUP2 ADD DUP3 ADD DUP1 MLOAD DUP5 DUP3 MSTORE PUSH1 0x20 DUP4 ADD PUSH1 0x20 DUP6 ADD KECCAK256 DUP2 DUP4 MSTORE DUP1 SWAP6 POP POP POP POP POP POP PUSH1 0x0 SWAP2 POP SWAP1 POP DUP1 PUSH1 0x0 ADD DUP1 SLOAD PUSH2 0x81F SWAP1 PUSH2 0xF21 JUMP JUMPDEST DUP1 PUSH1 0x1F ADD PUSH1 0x20 DUP1 SWAP2 DIV MUL PUSH1 0x20 ADD PUSH1 0x40 MLOAD SWAP1 DUP2 ADD PUSH1 0x40 MSTORE DUP1 SWAP3 SWAP2 SWAP1 DUP2 DUP2 MSTORE PUSH1 0x20 ADD DUP3 DUP1 SLOAD PUSH2 0x84B SWAP1 PUSH2 0xF21 JUMP JUMPDEST DUP1 ISZERO PUSH2 0x898 JUMPI DUP1 PUSH1 0x1F LT PUSH2 0x86D JUMPI PUSH2 0x100 DUP1 DUP4 SLOAD DIV MUL DUP4 MSTORE SWAP2 PUSH1 0x20 ADD SWAP2 PUSH2 0x898 JUMP JUMPDEST DUP3 ADD SWAP2 SWAP1 PUSH1 0x0 MSTORE PUSH1 0x20 PUSH1 0x0 KECCAK256 SWAP1 JUMPDEST DUP2 SLOAD DUP2 MSTORE SWAP1 PUSH1 0x1 ADD SWAP1 PUSH1 0x20 ADD DUP1 DUP4 GT PUSH2 0x87B JUMPI DUP3 SWAP1 SUB PUSH1 0x1F AND DUP3 ADD SWAP2 JUMPDEST POP POP POP POP POP SWAP1 DUP1 PUSH1 0x1 ADD SLOAD SWAP1 DUP1 PUSH1 0x2 ADD SLOAD SWAP1 DUP1 PUSH1 0x3 ADD PUSH1 0x0 SWAP1 SLOAD SWAP1 PUSH2 0x100 EXP SWAP1 DIV PUSH1 0xFF AND SWAP1 POP DUP5 JUMP JUMPDEST PUSH1 0x0 PUSH1 0x40 MLOAD SWAP1 POP SWAP1 JUMP JUMPDEST PUSH1 0x0 DUP1 REVERT JUMPDEST PUSH1 0x0 DUP1 REVERT JUMPDEST PUSH1 0x0 DUP1 REVERT JUMPDEST PUSH1 0x0 DUP1 REVERT JUMPDEST PUSH1 0x0 PUSH1 0x1F NOT PUSH1 0x1F DUP4 ADD AND SWAP1 POP SWAP2 SWAP1 POP JUMP JUMPDEST PUSH32 0x4E487B7100000000000000000000000000000000000000000000000000000000 PUSH1 0x0 MSTORE PUSH1 0x41 PUSH1 0x4 MSTORE PUSH1 0x24 PUSH1 0x0 REVERT JUMPDEST PUSH2 0x928 DUP3 PUSH2 0x8DF JUMP JUMPDEST DUP2 ADD DUP2 DUP2 LT PUSH8 0xFFFFFFFFFFFFFFFF DUP3 GT OR ISZERO PUSH2 0x947 JUMPI PUSH2 0x946 PUSH2 0x8F0 JUMP JUMPDEST JUMPDEST DUP1 PUSH1 0x40 MSTORE POP POP POP JUMP JUMPDEST PUSH1 0x0 PUSH2 0x95A PUSH2 0x8C1 JUMP JUMPDEST SWAP1 POP PUSH2 0x966 DUP3 DUP3 PUSH2 0x91F JUMP JUMPDEST SWAP2 SWAP1 POP JUMP JUMPDEST PUSH1 0x0 PUSH8 0xFFFFFFFFFFFFFFFF DUP3 GT ISZERO PUSH2 0x986 JUMPI PUSH2 0x985 PUSH2 0x8F0 JUMP JUMPDEST JUMPDEST PUSH2 0x98F DUP3 PUSH2 0x8DF JUMP JUMPDEST SWAP1 POP PUSH1 0x20 DUP2 ADD SWAP1 POP SWAP2 SWAP1 POP JUMP JUMPDEST DUP3 DUP2 DUP4 CALLDATACOPY PUSH1 0x0 DUP4 DUP4 ADD MSTORE POP POP POP JUMP JUMPDEST PUSH1 0x0 PUSH2 0x9BE PUSH2 0x9B9 DUP5 PUSH2 0x96B JUMP JUMPDEST PUSH2 0x950 JUMP JUMPDEST SWAP1 POP DUP3 DUP2 MSTORE PUSH1 0x20 DUP2 ADD DUP5 DUP5 DUP5 ADD GT ISZERO PUSH2 0x9DA JUMPI PUSH2 0x9D9 PUSH2 0x8DA JUMP JUMPDEST JUMPDEST PUSH2 0x9E5 DUP5 DUP3 DUP6 PUSH2 0x99C JUMP JUMPDEST POP SWAP4 SWAP3 POP POP POP JUMP JUMPDEST PUSH1 0x0 DUP3 PUSH1 0x1F DUP4 ADD SLT PUSH2 0xA02 JUMPI PUSH2 0xA01 PUSH2 0x8D5 JUMP JUMPDEST JUMPDEST DUP2 CALLDATALOAD PUSH2 0xA12 DUP5 DUP3 PUSH1 0x20 DUP7 ADD PUSH2 0x9AB JUMP JUMPDEST SWAP2 POP POP SWAP3 SWAP2 POP POP JUMP JUMPDEST PUSH1 0x0 DUP2 SWAP1 POP SWAP2 SWAP1 POP JUMP JUMPDEST PUSH2 0xA2E DUP2 PUSH2 0xA1B JUMP JUMPDEST DUP2 EQ PUSH2 0xA39 JUMPI PUSH1 0x0 DUP1 REVERT JUMPDEST POP JUMP JUMPDEST PUSH1 0x0 DUP2 CALLDATALOAD SWAP1 POP PUSH2 0xA4B DUP2 PUSH2 0xA25 JUMP JUMPDEST SWAP3 SWAP2 POP POP JUMP JUMPDEST PUSH1 0x0 DUP1 PUSH1 0x40 DUP4 DUP6 SUB SLT ISZERO PUSH2 0xA68 JUMPI PUSH2 0xA67 PUSH2 0x8CB JUMP JUMPDEST JUMPDEST PUSH1 0x0 DUP4 ADD CALLDATALOAD PUSH8 0xFFFFFFFFFFFFFFFF DUP2 GT ISZERO PUSH2 0xA86 JUMPI PUSH2 0xA85 PUSH2 0x8D0 JUMP JUMPDEST JUMPDEST PUSH2 0xA92 DUP6 DUP3 DUP7 ADD PUSH2 0x9ED JUMP JUMPDEST SWAP3 POP POP PUSH1 0x20 PUSH2 0xAA3 DUP6 DUP3 DUP7 ADD PUSH2 0xA3C JUMP JUMPDEST SWAP2 POP POP SWAP3 POP SWAP3 SWAP1 POP JUMP JUMPDEST PUSH1 0x0 PUSH1 0x20 DUP3 DUP5 SUB SLT ISZERO PUSH2 0xAC3 JUMPI PUSH2 0xAC2 PUSH2 0x8CB JUMP JUMPDEST JUMPDEST PUSH1 0x0 DUP3 ADD CALLDATALOAD PUSH8 0xFFFFFFFFFFFFFFFF DUP2 GT ISZERO PUSH2 0xAE1 JUMPI PUSH2 0xAE0 PUSH2 0x8D0 JUMP JUMPDEST JUMPDEST PUSH2 0xAED DUP5 DUP3 DUP6 ADD PUSH2 0x9ED JUMP JUMPDEST SWAP2 POP POP SWAP3 SWAP2 POP POP JUMP JUMPDEST PUSH1 0x0 PUSH20 0xFFFFFFFFFFFFFFFFFFFFFFFFFFFFFFFFFFFFFFFF DUP3 AND SWAP1 POP SWAP2 SWAP1 POP JUMP JUMPDEST PUSH1 0x0 PUSH2 0xB21 DUP3 PUSH2 0xAF6 JUMP JUMPDEST SWAP1 POP SWAP2 SWAP1 POP JUMP JUMPDEST PUSH2 0xB31 DUP2 PUSH2 0xB16 JUMP JUMPDEST DUP3 MSTORE POP POP JUMP JUMPDEST PUSH1 0x0 PUSH1 0x20 DUP3 ADD SWAP1 POP PUSH2 0xB4C PUSH1 0x0 DUP4 ADD DUP5 PUSH2 0xB28 JUMP JUMPDEST SWAP3 SWAP2 POP POP JUMP JUMPDEST PUSH1 0x0 DUP2 MLOAD SWAP1 POP SWAP2 SWAP1 POP JUMP JUMPDEST PUSH1 0x0 DUP3 DUP3 MSTORE PUSH1 0x20 DUP3 ADD SWAP1 POP SWAP3 SWAP2 POP POP JUMP JUMPDEST PUSH1 0x0 JUMPDEST DUP4 DUP2 LT ISZERO PUSH2 0xB8C JUMPI DUP1 DUP3 ADD MLOAD DUP2 DUP5 ADD MSTORE PUSH1 0x20 DUP2 ADD SWAP1 POP PUSH2 0xB71 JUMP JUMPDEST PUSH1 0x0 DUP5 DUP5 ADD MSTORE POP POP POP POP JUMP JUMPDEST PUSH1 0x0 PUSH2 0xBA3 DUP3 PUSH2 0xB52 JUMP JUMPDEST PUSH2 0xBAD DUP2 DUP6 PUSH2 0xB5D JUMP JUMPDEST SWAP4 POP PUSH2 0xBBD DUP2 DUP6 PUSH1 0x20 DUP7 ADD PUSH2 0xB6E JUMP JUMPDEST PUSH2 0xBC6 DUP2 PUSH2 0x8DF JUMP JUMPDEST DUP5 ADD SWAP2 POP POP SWAP3 SWAP2 POP POP JUMP JUMPDEST PUSH2 0xBDA DUP2 PUSH2 0xA1B JUMP JUMPDEST DUP3 MSTORE POP POP JUMP JUMPDEST PUSH32 0x4E487B7100000000000000000000000000000000000000000000000000000000 PUSH1 0x0 MSTORE PUSH1 0x21 PUSH1 0x4 MSTORE PUSH1 0x24 PUSH1 0x0 REVERT JUMPDEST PUSH1 0x2 DUP2 LT PUSH2 0xC20 JUMPI PUSH2 0xC1F PUSH2 0xBE0 JUMP JUMPDEST JUMPDEST POP JUMP JUMPDEST PUSH1 0x0 DUP2 SWAP1 POP PUSH2 0xC31 DUP3 PUSH2 0xC0F JUMP JUMPDEST SWAP2 SWAP1 POP JUMP JUMPDEST PUSH1 0x0 PUSH2 0xC41 DUP3 PUSH2 0xC23 JUMP JUMPDEST SWAP1 POP SWAP2 SWAP1 POP JUMP JUMPDEST PUSH2 0xC51 DUP2 PUSH2 0xC36 JUMP JUMPDEST DUP3 MSTORE POP POP JUMP JUMPDEST PUSH1 0x0 PUSH1 0x80 DUP3 ADD SWAP1 POP DUP2 DUP2 SUB PUSH1 0x0 DUP4 ADD MSTORE PUSH2 0xC71 DUP2 DUP8 PUSH2 0xB98 JUMP JUMPDEST SWAP1 POP PUSH2 0xC80 PUSH1 0x20 DUP4 ADD DUP7 PUSH2 0xBD1 JUMP JUMPDEST PUSH2 0xC8D PUSH1 0x40 DUP4 ADD DUP6 PUSH2 0xBD1 JUMP JUMPDEST PUSH2 0xC9A PUSH1 0x60 DUP4 ADD DUP5 PUSH2 0xC48 JUMP JUMPDEST SWAP6 SWAP5 POP POP POP POP POP JUMP JUMPDEST PUSH32 0x4E487B7100000000000000000000000000000000000000000000000000000000 PUSH1 0x0 MSTORE PUSH1 0x11 PUSH1 0x4 MSTORE PUSH1 0x24 PUSH1 0x0 REVERT JUMPDEST PUSH1 0x0 PUSH2 0xCDD DUP3 PUSH2 0xA1B JUMP JUMPDEST SWAP2 POP PUSH2 0xCE8 DUP4 PUSH2 0xA1B JUMP JUMPDEST SWAP3 POP DUP3 DUP3 MUL PUSH2 0xCF6 DUP2 PUSH2 0xA1B JUMP JUMPDEST SWAP2 POP DUP3 DUP3 DIV DUP5 EQ DUP4 ISZERO OR PUSH2 0xD0D JUMPI PUSH2 0xD0C PUSH2 0xCA3 JUMP JUMPDEST JUMPDEST POP SWAP3 SWAP2 POP POP JUMP JUMPDEST PUSH1 0x0 DUP2 SWAP1 POP SWAP3 SWAP2 POP POP JUMP JUMPDEST PUSH1 0x0 PUSH2 0xD2A DUP3 PUSH2 0xB52 JUMP JUMPDEST PUSH2 0xD34 DUP2 DUP6 PUSH2 0xD14 JUMP JUMPDEST SWAP4 POP PUSH2 0xD44 DUP2 DUP6 PUSH1 0x20 DUP7 ADD PUSH2 0xB6E JUMP JUMPDEST DUP1 DUP5 ADD SWAP2 POP POP SWAP3 SWAP2 POP POP JUMP JUMPDEST PUSH1 0x0 PUSH2 0xD5C DUP3 DUP5 PUSH2 0xD1F JUMP JUMPDEST SWAP2 POP DUP2 SWAP1 POP SWAP3 SWAP2 POP POP JUMP JUMPDEST PUSH1 0x0 PUSH2 0xD72 DUP3 PUSH2 0xA1B JUMP JUMPDEST SWAP2 POP PUSH2 0xD7D DUP4 PUSH2 0xA1B JUMP JUMPDEST SWAP3 POP DUP3 DUP3 ADD SWAP1 POP DUP1 DUP3 GT ISZERO PUSH2 0xD95 JUMPI PUSH2 0xD94 PUSH2 0xCA3 JUMP JUMPDEST JUMPDEST SWAP3 SWAP2 POP POP JUMP JUMPDEST PUSH32 0x4E487B7100000000000000000000000000000000000000000000000000000000 PUSH1 0x0 MSTORE PUSH1 0x12 PUSH1 0x4 MSTORE PUSH1 0x24 PUSH1 0x0 REVERT JUMPDEST PUSH1 0x0 PUSH2 0xDD5 DUP3 PUSH2 0xA1B JUMP JUMPDEST SWAP2 POP PUSH2 0xDE0 DUP4 PUSH2 0xA1B JUMP JUMPDEST SWAP3 POP DUP3 PUSH2 0xDF0 JUMPI PUSH2 0xDEF PUSH2 0xD9B JUMP JUMPDEST JUMPDEST DUP3 DUP3 MOD SWAP1 POP SWAP3 SWAP2 POP POP JUMP JUMPDEST PUSH32 0x466F72206D6F7265207468616E20302E30322065746865722C20706C65617365 PUSH1 0x0 DUP3 ADD MSTORE PUSH32 0x2070617920696E20756E697473206F6620302E30322065746865720000000000 PUSH1 0x20 DUP3 ADD MSTORE POP JUMP JUMPDEST PUSH1 0x0 PUSH2 0xE57 PUSH1 0x3B DUP4 PUSH2 0xB5D JUMP JUMPDEST SWAP2 POP PUSH2 0xE62 DUP3 PUSH2 0xDFB JUMP JUMPDEST PUSH1 0x40 DUP3 ADD SWAP1 POP SWAP2 SWAP1 POP JUMP JUMPDEST PUSH1 0x0 PUSH1 0x20 DUP3 ADD SWAP1 POP DUP2 DUP2 SUB PUSH1 0x0 DUP4 ADD MSTORE PUSH2 0xE86 DUP2 PUSH2 0xE4A JUMP JUMPDEST SWAP1 POP SWAP2 SWAP1 POP JUMP JUMPDEST PUSH1 0x0 PUSH2 0xE98 DUP3 PUSH2 0xA1B JUMP JUMPDEST SWAP2 POP PUSH2 0xEA3 DUP4 PUSH2 0xA1B JUMP JUMPDEST SWAP3 POP DUP3 PUSH2 0xEB3 JUMPI PUSH2 0xEB2 PUSH2 0xD9B JUMP JUMPDEST JUMPDEST DUP3 DUP3 DIV SWAP1 POP SWAP3 SWAP2 POP POP JUMP JUMPDEST PUSH1 0x0 PUSH2 0xEC9 DUP3 PUSH2 0xA1B JUMP JUMPDEST SWAP2 POP PUSH2 0xED4 DUP4 PUSH2 0xA1B JUMP JUMPDEST SWAP3 POP DUP3 DUP3 SUB SWAP1 POP DUP2 DUP2 GT ISZERO PUSH2 0xEEC JUMPI PUSH2 0xEEB PUSH2 0xCA3 JUMP JUMPDEST JUMPDEST SWAP3 SWAP2 POP POP JUMP JUMPDEST PUSH32 0x4E487B7100000000000000000000000000000000000000000000000000000000 PUSH1 0x0 MSTORE PUSH1 0x22 PUSH1 0x4 MSTORE PUSH1 0x24 PUSH1 0x0 REVERT JUMPDEST PUSH1 0x0 PUSH1 0x2 DUP3 DIV SWAP1 POP PUSH1 0x1 DUP3 AND DUP1 PUSH2 0xF39 JUMPI PUSH1 0x7F DUP3 AND SWAP2 POP JUMPDEST PUSH1 0x20 DUP3 LT DUP2 SUB PUSH2 0xF4C JUMPI PUSH2 0xF4B PUSH2 0xEF2 JUMP JUMPDEST JUMPDEST POP SWAP2 SWAP1 POP JUMP JUMPDEST PUSH1 0x0 DUP2 SWAP1 POP DUP2 PUSH1 0x0 MSTORE PUSH1 0x20 PUSH1 0x0 KECCAK256 SWAP1 POP SWAP2 SWAP1 POP JUMP JUMPDEST PUSH1 0x0 PUSH1 0x20 PUSH1 0x1F DUP4 ADD DIV SWAP1 POP SWAP2 SWAP1 POP JUMP JUMPDEST PUSH1 0x0 DUP3 DUP3 SHL SWAP1 POP SWAP3 SWAP2 POP POP JUMP JUMPDEST PUSH1 0x0 PUSH1 0x8 DUP4 MUL PUSH2 0xFB4 PUSH32 0xFFFFFFFFFFFFFFFFFFFFFFFFFFFFFFFFFFFFFFFFFFFFFFFFFFFFFFFFFFFFFFFF DUP3 PUSH2 0xF77 JUMP JUMPDEST PUSH2 0xFBE DUP7 DUP4 PUSH2 0xF77 JUMP JUMPDEST SWAP6 POP DUP1 NOT DUP5 AND SWAP4 POP DUP1 DUP7 AND DUP5 OR SWAP3 POP POP POP SWAP4 SWAP3 POP POP POP JUMP JUMPDEST PUSH1 0x0 DUP2 SWAP1 POP SWAP2 SWAP1 POP JUMP JUMPDEST PUSH1 0x0 PUSH2 0xFFB PUSH2 0xFF6 PUSH2 0xFF1 DUP5 PUSH2 0xA1B JUMP JUMPDEST PUSH2 0xFD6 JUMP JUMPDEST PUSH2 0xA1B JUMP JUMPDEST SWAP1 POP SWAP2 SWAP1 POP JUMP JUMPDEST PUSH1 0x0 DUP2 SWAP1 POP SWAP2 SWAP1 POP JUMP JUMPDEST PUSH2 0x1015 DUP4 PUSH2 0xFE0 JUMP JUMPDEST PUSH2 0x1029 PUSH2 0x1021 DUP3 PUSH2 0x1002 JUMP JUMPDEST DUP5 DUP5 SLOAD PUSH2 0xF84 JUMP JUMPDEST DUP3 SSTORE POP POP POP POP JUMP JUMPDEST PUSH1 0x0 SWAP1 JUMP JUMPDEST PUSH2 0x103E PUSH2 0x1031 JUMP JUMPDEST PUSH2 0x1049 DUP2 DUP5 DUP5 PUSH2 0x100C JUMP JUMPDEST POP POP POP JUMP JUMPDEST JUMPDEST DUP2 DUP2 LT ISZERO PUSH2 0x106D JUMPI PUSH2 0x1062 PUSH1 0x0 DUP3 PUSH2 0x1036 JUMP JUMPDEST PUSH1 0x1 DUP2 ADD SWAP1 POP PUSH2 0x104F JUMP JUMPDEST POP POP JUMP JUMPDEST PUSH1 0x1F DUP3 GT ISZERO PUSH2 0x10B2 JUMPI PUSH2 0x1083 DUP2 PUSH2 0xF52 JUMP JUMPDEST PUSH2 0x108C DUP5 PUSH2 0xF67 JUMP JUMPDEST DUP2 ADD PUSH1 0x20 DUP6 LT ISZERO PUSH2 0x109B JUMPI DUP2 SWAP1 POP JUMPDEST PUSH2 0x10AF PUSH2 0x10A7 DUP6 PUSH2 0xF67 JUMP JUMPDEST DUP4 ADD DUP3 PUSH2 0x104E JUMP JUMPDEST POP POP JUMPDEST POP POP POP JUMP JUMPDEST PUSH1 0x0 DUP3 DUP3 SHR SWAP1 POP SWAP3 SWAP2 POP POP JUMP JUMPDEST PUSH1 0x0 PUSH2 0x10D5 PUSH1 0x0 NOT DUP5 PUSH1 0x8 MUL PUSH2 0x10B7 JUMP JUMPDEST NOT DUP1 DUP4 AND SWAP2 POP POP SWAP3 SWAP2 POP POP JUMP JUMPDEST PUSH1 0x0 PUSH2 0x10EE DUP4 DUP4 PUSH2 0x10C4 JUMP JUMPDEST SWAP2 POP DUP3 PUSH1 0x2 MUL DUP3 OR SWAP1 POP SWAP3 SWAP2 POP POP JUMP JUMPDEST PUSH2 0x1107 DUP3 PUSH2 0xB52 JUMP JUMPDEST PUSH8 0xFFFFFFFFFFFFFFFF DUP2 GT ISZERO PUSH2 0x1120 JUMPI PUSH2 0x111F PUSH2 0x8F0 JUMP JUMPDEST JUMPDEST PUSH2 0x112A DUP3 SLOAD PUSH2 0xF21 JUMP JUMPDEST PUSH2 0x1135 DUP3 DUP3 DUP6 PUSH2 0x1071 JUMP JUMPDEST PUSH1 0x0 PUSH1 0x20 SWAP1 POP PUSH1 0x1F DUP4 GT PUSH1 0x1 DUP2 EQ PUSH2 0x1168 JUMPI PUSH1 0x0 DUP5 ISZERO PUSH2 0x1156 JUMPI DUP3 DUP8 ADD MLOAD SWAP1 POP JUMPDEST PUSH2 0x1160 DUP6 DUP3 PUSH2 0x10E2 JUMP JUMPDEST DUP7 SSTORE POP PUSH2 0x11C8 JUMP JUMPDEST PUSH1 0x1F NOT DUP5 AND PUSH2 0x1176 DUP7 PUSH2 0xF52 JUMP JUMPDEST PUSH1 0x0 JUMPDEST DUP3 DUP2 LT ISZERO PUSH2 0x119E JUMPI DUP5 DUP10 ADD MLOAD DUP3 SSTORE PUSH1 0x1 DUP3 ADD SWAP2 POP PUSH1 0x20 DUP6 ADD SWAP5 POP PUSH1 0x20 DUP2 ADD SWAP1 POP PUSH2 0x1179 JUMP JUMPDEST DUP7 DUP4 LT ISZERO PUSH2 0x11BB JUMPI DUP5 DUP10 ADD MLOAD PUSH2 0x11B7 PUSH1 0x1F DUP10 AND DUP3 PUSH2 0x10C4 JUMP JUMPDEST DUP4 SSTORE POP JUMPDEST PUSH1 0x1 PUSH1 0x2 DUP9 MUL ADD DUP9 SSTORE POP POP POP JUMPDEST POP POP POP POP POP POP JUMP INVALID LOG2 PUSH5 0x6970667358 0x22 SLT KECCAK256 0x5C SDIV ADD SWAP14 MSTORE 0xC CODECOPY DUP6 0xD8 ISZERO PUSH23 0x1D0EBF65A0D13B49B879B491788EBA76DF39FCD1836473 PUSH16 0x6C634300081200330000000000000000 "
				},
				"gasEstimates": {
					"creation": {
						"codeDepositCost": "922800",
						"executionCost": "25229",
						"totalCost": "948029"
					},
					"external": {
						"checkAct(string)": "infinite",
						"joinHealth(string)": "infinite",
						"owner()": "2555",
						"pay(string)": "infinite",
						"setDay(string,uint256)": "infinite",
						"setHours(string,uint256)": "infinite",
						"setMinutes(string,uint256)": "infinite",
						"setUser(string)": "infinite",
						"userList(string)": "infinite",
						"withdraw()": "infinite"
					}
				},
				"methodIdentifiers": {
					"checkAct(string)": "70079876",
					"joinHealth(string)": "4170be6e",
					"owner()": "8da5cb5b",
					"pay(string)": "2b66d72e",
					"setDay(string,uint256)": "13cb8fda",
					"setHours(string,uint256)": "34c3f10e",
					"setMinutes(string,uint256)": "7d0068b9",
					"setUser(string)": "d0020fad",
					"userList(string)": "f30e1474",
					"withdraw()": "3ccfd60b"
				}
			},
			"storageLayout": {
				"storage": [
					{
						"astId": 3,
						"contract": "contracts/BABYLION/0524.sol:Quiz",
						"label": "owner",
						"offset": 0,
						"slot": "0",
						"type": "t_address_payable"
					},
					{
						"astId": 40,
						"contract": "contracts/BABYLION/0524.sol:Quiz",
						"label": "userList",
						"offset": 0,
						"slot": "1",
						"type": "t_mapping(t_string_memory_ptr,t_struct(user)35_storage)"
					}
				],
				"types": {
					"t_address_payable": {
						"encoding": "inplace",
						"label": "address payable",
						"numberOfBytes": "20"
					},
					"t_enum(Status)43": {
						"encoding": "inplace",
						"label": "enum Quiz.Status",
						"numberOfBytes": "1"
					},
					"t_mapping(t_string_memory_ptr,t_struct(user)35_storage)": {
						"encoding": "mapping",
						"key": "t_string_memory_ptr",
						"label": "mapping(string => struct Quiz.user)",
						"numberOfBytes": "32",
						"value": "t_struct(user)35_storage"
					},
					"t_string_memory_ptr": {
						"encoding": "bytes",
						"label": "string",
						"numberOfBytes": "32"
					},
					"t_string_storage": {
						"encoding": "bytes",
						"label": "string",
						"numberOfBytes": "32"
					},
					"t_struct(user)35_storage": {
						"encoding": "inplace",
						"label": "struct Quiz.user",
						"members": [
							{
								"astId": 27,
								"contract": "contracts/BABYLION/0524.sol:Quiz",
								"label": "name",
								"offset": 0,
								"slot": "0",
								"type": "t_string_storage"
							},
							{
								"astId": 29,
								"contract": "contracts/BABYLION/0524.sol:Quiz",
								"label": "deadline",
								"offset": 0,
								"slot": "1",
								"type": "t_uint256"
							},
							{
								"astId": 31,
								"contract": "contracts/BABYLION/0524.sol:Quiz",
								"label": "ticket",
								"offset": 0,
								"slot": "2",
								"type": "t_uint256"
							},
							{
								"astId": 34,
								"contract": "contracts/BABYLION/0524.sol:Quiz",
								"label": "act",
								"offset": 0,
								"slot": "3",
								"type": "t_enum(Status)43"
							}
						],
						"numberOfBytes": "128"
					},
					"t_uint256": {
						"encoding": "inplace",
						"label": "uint256",
						"numberOfBytes": "32"
					}
				}
			},
			"userdoc": {
				"kind": "user",
				"methods": {},
				"version": 1
			}
		}
	}
}