{
	"data": {
		"bytecode": {
			"linkReferences": {},
			"object": "608060405234801561001057600080fd5b506103bd806100206000396000f3fe608060405234801561001057600080fd5b50600436106100365760003560e01c806341b5039f1461003b578063c04f01fc1461006b575b600080fd5b61005560048036038101906100509190610101565b61009b565b604051610062919061013d565b60405180910390f35b61008560048036038101906100809190610158565b6100b0565b604051610092919061013d565b60405180910390f35b600081826100a991906101c7565b9050919050565b600081836100be919061033c565b905092915050565b600080fd5b6000819050919050565b6100de816100cb565b81146100e957600080fd5b50565b6000813590506100fb816100d5565b92915050565b600060208284031215610117576101166100c6565b5b6000610125848285016100ec565b91505092915050565b610137816100cb565b82525050565b6000602082019050610152600083018461012e565b92915050565b6000806040838503121561016f5761016e6100c6565b5b600061017d858286016100ec565b925050602061018e858286016100ec565b9150509250929050565b7f4e487b7100000000000000000000000000000000000000000000000000000000600052601160045260246000fd5b60006101d2826100cb565b91506101dd836100cb565b92508282026101eb816100cb565b9150828204841483151761020257610201610198565b5b5092915050565b60008160011c9050919050565b6000808291508390505b60018511156102605780860481111561023c5761023b610198565b5b600185161561024b5780820291505b808102905061025985610209565b9450610220565b94509492505050565b6000826102795760019050610335565b816102875760009050610335565b816001811461029d57600281146102a7576102d6565b6001915050610335565b60ff8411156102b9576102b8610198565b5b8360020a9150848211156102d0576102cf610198565b5b50610335565b5060208310610133831016604e8410600b841016171561030b5782820a90508381111561030657610305610198565b5b610335565b6103188484846001610216565b9250905081840481111561032f5761032e610198565b5b81810290505b9392505050565b6000610347826100cb565b9150610352836100cb565b925061037f7fffffffffffffffffffffffffffffffffffffffffffffffffffffffffffffffff8484610269565b90509291505056fea2646970667358221220d6db0719e9f2dbb3eacd92fc500f7e9252f5462e67a6206498c4de29bfcea87d64736f6c63430008120033",
			"opcodes": "PUSH1 0x80 PUSH1 0x40 MSTORE CALLVALUE DUP1 ISZERO PUSH2 0x10 JUMPI PUSH1 0x0 DUP1 REVERT JUMPDEST POP PUSH2 0x3BD DUP1 PUSH2 0x20 PUSH1 0x0 CODECOPY PUSH1 0x0 RETURN INVALID PUSH1 0x80 PUSH1 0x40 MSTORE CALLVALUE DUP1 ISZERO PUSH2 0x10 JUMPI PUSH1 0x0 DUP1 REVERT JUMPDEST POP PUSH1 0x4 CALLDATASIZE LT PUSH2 0x36 JUMPI PUSH1 0x0 CALLDATALOAD PUSH1 0xE0 SHR DUP1 PUSH4 0x41B5039F EQ PUSH2 0x3B JUMPI DUP1 PUSH4 0xC04F01FC EQ PUSH2 0x6B JUMPI JUMPDEST PUSH1 0x0 DUP1 REVERT JUMPDEST PUSH2 0x55 PUSH1 0x4 DUP1 CALLDATASIZE SUB DUP2 ADD SWAP1 PUSH2 0x50 SWAP2 SWAP1 PUSH2 0x101 JUMP JUMPDEST PUSH2 0x9B JUMP JUMPDEST PUSH1 0x40 MLOAD PUSH2 0x62 SWAP2 SWAP1 PUSH2 0x13D JUMP JUMPDEST PUSH1 0x40 MLOAD DUP1 SWAP2 SUB SWAP1 RETURN JUMPDEST PUSH2 0x85 PUSH1 0x4 DUP1 CALLDATASIZE SUB DUP2 ADD SWAP1 PUSH2 0x80 SWAP2 SWAP1 PUSH2 0x158 JUMP JUMPDEST PUSH2 0xB0 JUMP JUMPDEST PUSH1 0x40 MLOAD PUSH2 0x92 SWAP2 SWAP1 PUSH2 0x13D JUMP JUMPDEST PUSH1 0x40 MLOAD DUP1 SWAP2 SUB SWAP1 RETURN JUMPDEST PUSH1 0x0 DUP2 DUP3 PUSH2 0xA9 SWAP2 SWAP1 PUSH2 0x1C7 JUMP JUMPDEST SWAP1 POP SWAP2 SWAP1 POP JUMP JUMPDEST PUSH1 0x0 DUP2 DUP4 PUSH2 0xBE SWAP2 SWAP1 PUSH2 0x33C JUMP JUMPDEST SWAP1 POP SWAP3 SWAP2 POP POP JUMP JUMPDEST PUSH1 0x0 DUP1 REVERT JUMPDEST PUSH1 0x0 DUP2 SWAP1 POP SWAP2 SWAP1 POP JUMP JUMPDEST PUSH2 0xDE DUP2 PUSH2 0xCB JUMP JUMPDEST DUP2 EQ PUSH2 0xE9 JUMPI PUSH1 0x0 DUP1 REVERT JUMPDEST POP JUMP JUMPDEST PUSH1 0x0 DUP2 CALLDATALOAD SWAP1 POP PUSH2 0xFB DUP2 PUSH2 0xD5 JUMP JUMPDEST SWAP3 SWAP2 POP POP JUMP JUMPDEST PUSH1 0x0 PUSH1 0x20 DUP3 DUP5 SUB SLT ISZERO PUSH2 0x117 JUMPI PUSH2 0x116 PUSH2 0xC6 JUMP JUMPDEST JUMPDEST PUSH1 0x0 PUSH2 0x125 DUP5 DUP3 DUP6 ADD PUSH2 0xEC JUMP JUMPDEST SWAP2 POP POP SWAP3 SWAP2 POP POP JUMP JUMPDEST PUSH2 0x137 DUP2 PUSH2 0xCB JUMP JUMPDEST DUP3 MSTORE POP POP JUMP JUMPDEST PUSH1 0x0 PUSH1 0x20 DUP3 ADD SWAP1 POP PUSH2 0x152 PUSH1 0x0 DUP4 ADD DUP5 PUSH2 0x12E JUMP JUMPDEST SWAP3 SWAP2 POP POP JUMP JUMPDEST PUSH1 0x0 DUP1 PUSH1 0x40 DUP4 DUP6 SUB SLT ISZERO PUSH2 0x16F JUMPI PUSH2 0x16E PUSH2 0xC6 JUMP JUMPDEST JUMPDEST PUSH1 0x0 PUSH2 0x17D DUP6 DUP3 DUP7 ADD PUSH2 0xEC JUMP JUMPDEST SWAP3 POP POP PUSH1 0x20 PUSH2 0x18E DUP6 DUP3 DUP7 ADD PUSH2 0xEC JUMP JUMPDEST SWAP2 POP POP SWAP3 POP SWAP3 SWAP1 POP JUMP JUMPDEST PUSH32 0x4E487B7100000000000000000000000000000000000000000000000000000000 PUSH1 0x0 MSTORE PUSH1 0x11 PUSH1 0x4 MSTORE PUSH1 0x24 PUSH1 0x0 REVERT JUMPDEST PUSH1 0x0 PUSH2 0x1D2 DUP3 PUSH2 0xCB JUMP JUMPDEST SWAP2 POP PUSH2 0x1DD DUP4 PUSH2 0xCB JUMP JUMPDEST SWAP3 POP DUP3 DUP3 MUL PUSH2 0x1EB DUP2 PUSH2 0xCB JUMP JUMPDEST SWAP2 POP DUP3 DUP3 DIV DUP5 EQ DUP4 ISZERO OR PUSH2 0x202 JUMPI PUSH2 0x201 PUSH2 0x198 JUMP JUMPDEST JUMPDEST POP SWAP3 SWAP2 POP POP JUMP JUMPDEST PUSH1 0x0 DUP2 PUSH1 0x1 SHR SWAP1 POP SWAP2 SWAP1 POP JUMP JUMPDEST PUSH1 0x0 DUP1 DUP3 SWAP2 POP DUP4 SWAP1 POP JUMPDEST PUSH1 0x1 DUP6 GT ISZERO PUSH2 0x260 JUMPI DUP1 DUP7 DIV DUP2 GT ISZERO PUSH2 0x23C JUMPI PUSH2 0x23B PUSH2 0x198 JUMP JUMPDEST JUMPDEST PUSH1 0x1 DUP6 AND ISZERO PUSH2 0x24B JUMPI DUP1 DUP3 MUL SWAP2 POP JUMPDEST DUP1 DUP2 MUL SWAP1 POP PUSH2 0x259 DUP6 PUSH2 0x209 JUMP JUMPDEST SWAP5 POP PUSH2 0x220 JUMP JUMPDEST SWAP5 POP SWAP5 SWAP3 POP POP POP JUMP JUMPDEST PUSH1 0x0 DUP3 PUSH2 0x279 JUMPI PUSH1 0x1 SWAP1 POP PUSH2 0x335 JUMP JUMPDEST DUP2 PUSH2 0x287 JUMPI PUSH1 0x0 SWAP1 POP PUSH2 0x335 JUMP JUMPDEST DUP2 PUSH1 0x1 DUP2 EQ PUSH2 0x29D JUMPI PUSH1 0x2 DUP2 EQ PUSH2 0x2A7 JUMPI PUSH2 0x2D6 JUMP JUMPDEST PUSH1 0x1 SWAP2 POP POP PUSH2 0x335 JUMP JUMPDEST PUSH1 0xFF DUP5 GT ISZERO PUSH2 0x2B9 JUMPI PUSH2 0x2B8 PUSH2 0x198 JUMP JUMPDEST JUMPDEST DUP4 PUSH1 0x2 EXP SWAP2 POP DUP5 DUP3 GT ISZERO PUSH2 0x2D0 JUMPI PUSH2 0x2CF PUSH2 0x198 JUMP JUMPDEST JUMPDEST POP PUSH2 0x335 JUMP JUMPDEST POP PUSH1 0x20 DUP4 LT PUSH2 0x133 DUP4 LT AND PUSH1 0x4E DUP5 LT PUSH1 0xB DUP5 LT AND OR ISZERO PUSH2 0x30B JUMPI DUP3 DUP3 EXP SWAP1 POP DUP4 DUP2 GT ISZERO PUSH2 0x306 JUMPI PUSH2 0x305 PUSH2 0x198 JUMP JUMPDEST JUMPDEST PUSH2 0x335 JUMP JUMPDEST PUSH2 0x318 DUP5 DUP5 DUP5 PUSH1 0x1 PUSH2 0x216 JUMP JUMPDEST SWAP3 POP SWAP1 POP DUP2 DUP5 DIV DUP2 GT ISZERO PUSH2 0x32F JUMPI PUSH2 0x32E PUSH2 0x198 JUMP JUMPDEST JUMPDEST DUP2 DUP2 MUL SWAP1 POP JUMPDEST SWAP4 SWAP3 POP POP POP JUMP JUMPDEST PUSH1 0x0 PUSH2 0x347 DUP3 PUSH2 0xCB JUMP JUMPDEST SWAP2 POP PUSH2 0x352 DUP4 PUSH2 0xCB JUMP JUMPDEST SWAP3 POP PUSH2 0x37F PUSH32 0xFFFFFFFFFFFFFFFFFFFFFFFFFFFFFFFFFFFFFFFFFFFFFFFFFFFFFFFFFFFFFFFF DUP5 DUP5 PUSH2 0x269 JUMP JUMPDEST SWAP1 POP SWAP3 SWAP2 POP POP JUMP INVALID LOG2 PUSH5 0x6970667358 0x22 SLT KECCAK256 0xD6 0xDB SMOD NOT 0xE9 CALLCODE 0xDB 0xB3 0xEA 0xCD SWAP3 0xFC POP 0xF PUSH31 0x9252F5462E67A6206498C4DE29BFCEA87D64736F6C63430008120033000000 "
		},
		"gasEstimates": {
			"creation": {
				"codeDepositCost": "191400",
				"executionCost": "232",
				"totalCost": "191632"
			},
			"external": {
				"Square(uint256)": "infinite",
				"power(uint256,uint256)": "infinite"
			}
		},
		"methodIdentifiers": {
			"Square(uint256)": "41b5039f",
			"power(uint256,uint256)": "c04f01fc"
		}
	},
	"abi": [
		{
			"inputs": [
				{
					"internalType": "uint256",
					"name": "_a",
					"type": "uint256"
				}
			],
			"name": "Square",
			"outputs": [
				{
					"internalType": "uint256",
					"name": "",
					"type": "uint256"
				}
			],
			"stateMutability": "pure",
			"type": "function"
		},
		{
			"inputs": [
				{
					"internalType": "uint256",
					"name": "a",
					"type": "uint256"
				},
				{
					"internalType": "uint256",
					"name": "b",
					"type": "uint256"
				}
			],
			"name": "power",
			"outputs": [
				{
					"internalType": "uint256",
					"name": "",
					"type": "uint256"
				}
			],
			"stateMutability": "pure",
			"type": "function"
		}
	]
}