{
	"contracts/0516/Quiz.sol": {
		"FixedDynamic": {
			"abi": [
				{
					"inputs": [
						{
							"internalType": "uint256",
							"name": "",
							"type": "uint256"
						}
					],
					"name": "a",
					"outputs": [
						{
							"internalType": "uint256",
							"name": "",
							"type": "uint256"
						}
					],
					"stateMutability": "view",
					"type": "function"
				},
				{
					"inputs": [
						{
							"internalType": "uint256",
							"name": "",
							"type": "uint256"
						}
					],
					"name": "b",
					"outputs": [
						{
							"internalType": "uint256",
							"name": "",
							"type": "uint256"
						}
					],
					"stateMutability": "view",
					"type": "function"
				},
				{
					"inputs": [],
					"name": "getAB",
					"outputs": [
						{
							"internalType": "uint256[]",
							"name": "",
							"type": "uint256[]"
						},
						{
							"internalType": "uint256[4]",
							"name": "",
							"type": "uint256[4]"
						}
					],
					"stateMutability": "view",
					"type": "function"
				},
				{
					"inputs": [],
					"name": "getLengthOfB",
					"outputs": [
						{
							"internalType": "uint256",
							"name": "",
							"type": "uint256"
						}
					],
					"stateMutability": "view",
					"type": "function"
				},
				{
					"inputs": [
						{
							"internalType": "uint256",
							"name": "_n",
							"type": "uint256"
						}
					],
					"name": "pushA",
					"outputs": [],
					"stateMutability": "nonpayable",
					"type": "function"
				},
				{
					"inputs": [
						{
							"internalType": "uint256",
							"name": "_a",
							"type": "uint256"
						},
						{
							"internalType": "uint256",
							"name": "_b",
							"type": "uint256"
						}
					],
					"name": "pushB",
					"outputs": [],
					"stateMutability": "nonpayable",
					"type": "function"
				},
				{
					"inputs": [
						{
							"internalType": "uint256",
							"name": "_a",
							"type": "uint256"
						}
					],
					"name": "pushB2",
					"outputs": [],
					"stateMutability": "nonpayable",
					"type": "function"
				}
			],
			"devdoc": {
				"kind": "dev",
				"methods": {},
				"version": 1
			},
			"evm": {
				"assembly": "    /* \"contracts/0516/Quiz.sol\":9596:10297  contract FixedDynamic{... */\n  mstore(0x40, 0x80)\n  callvalue\n  dup1\n  iszero\n  tag_1\n  jumpi\n  0x00\n  dup1\n  revert\ntag_1:\n  pop\n  dataSize(sub_0)\n  dup1\n  dataOffset(sub_0)\n  0x00\n  codecopy\n  0x00\n  return\nstop\n\nsub_0: assembly {\n        /* \"contracts/0516/Quiz.sol\":9596:10297  contract FixedDynamic{... */\n      mstore(0x40, 0x80)\n      callvalue\n      dup1\n      iszero\n      tag_1\n      jumpi\n      0x00\n      dup1\n      revert\n    tag_1:\n      pop\n      jumpi(tag_2, lt(calldatasize, 0x04))\n      shr(0xe0, calldataload(0x00))\n      dup1\n      0xb97f7202\n      gt\n      tag_10\n      jumpi\n      dup1\n      0xb97f7202\n      eq\n      tag_6\n      jumpi\n      dup1\n      0xc1f69ac3\n      eq\n      tag_7\n      jumpi\n      dup1\n      0xcd580ff3\n      eq\n      tag_8\n      jumpi\n      dup1\n      0xf0fdf834\n      eq\n      tag_9\n      jumpi\n      jump(tag_2)\n    tag_10:\n      dup1\n      0x2b06cb2d\n      eq\n      tag_3\n      jumpi\n      dup1\n      0x2f7664fc\n      eq\n      tag_4\n      jumpi\n      dup1\n      0x40bb882d\n      eq\n      tag_5\n      jumpi\n    tag_2:\n      0x00\n      dup1\n      revert\n        /* \"contracts/0516/Quiz.sol\":9671:9770  function getAB() public view returns(uint[]  memory, uint[4] memory){... */\n    tag_3:\n      tag_11\n      tag_12\n      jump\t// in\n    tag_11:\n      mload(0x40)\n      tag_13\n      swap3\n      swap2\n      swap1\n      tag_14\n      jump\t// in\n    tag_13:\n      mload(0x40)\n      dup1\n      swap2\n      sub\n      swap1\n      return\n        /* \"contracts/0516/Quiz.sol\":10102:10294  function getLengthOfB() public view returns (uint){... */\n    tag_4:\n      tag_15\n      tag_16\n      jump\t// in\n    tag_15:\n      mload(0x40)\n      tag_17\n      swap2\n      swap1\n      tag_18\n      jump\t// in\n    tag_17:\n      mload(0x40)\n      dup1\n      swap2\n      sub\n      swap1\n      return\n        /* \"contracts/0516/Quiz.sol\":9778:9838  function pushA(uint _n) public {... */\n    tag_5:\n      tag_19\n      0x04\n      dup1\n      calldatasize\n      sub\n      dup2\n      add\n      swap1\n      tag_20\n      swap2\n      swap1\n      tag_21\n      jump\t// in\n    tag_20:\n      tag_22\n      jump\t// in\n    tag_19:\n      stop\n        /* \"contracts/0516/Quiz.sol\":9925:10094  function pushB2(uint _a)public {... */\n    tag_6:\n      tag_23\n      0x04\n      dup1\n      calldatasize\n      sub\n      dup2\n      add\n      swap1\n      tag_24\n      swap2\n      swap1\n      tag_21\n      jump\t// in\n    tag_24:\n      tag_25\n      jump\t// in\n    tag_23:\n      stop\n        /* \"contracts/0516/Quiz.sol\":9846:9919  function pushB(uint _a, uint _b) public {... */\n    tag_7:\n      tag_26\n      0x04\n      dup1\n      calldatasize\n      sub\n      dup2\n      add\n      swap1\n      tag_27\n      swap2\n      swap1\n      tag_28\n      jump\t// in\n    tag_27:\n      tag_29\n      jump\t// in\n    tag_26:\n      stop\n        /* \"contracts/0516/Quiz.sol\":9646:9662  uint[4] public b */\n    tag_8:\n      tag_30\n      0x04\n      dup1\n      calldatasize\n      sub\n      dup2\n      add\n      swap1\n      tag_31\n      swap2\n      swap1\n      tag_21\n      jump\t// in\n    tag_31:\n      tag_32\n      jump\t// in\n    tag_30:\n      mload(0x40)\n      tag_33\n      swap2\n      swap1\n      tag_18\n      jump\t// in\n    tag_33:\n      mload(0x40)\n      dup1\n      swap2\n      sub\n      swap1\n      return\n        /* \"contracts/0516/Quiz.sol\":9624:9639  uint[] public a */\n    tag_9:\n      tag_34\n      0x04\n      dup1\n      calldatasize\n      sub\n      dup2\n      add\n      swap1\n      tag_35\n      swap2\n      swap1\n      tag_21\n      jump\t// in\n    tag_35:\n      tag_36\n      jump\t// in\n    tag_34:\n      mload(0x40)\n      tag_37\n      swap2\n      swap1\n      tag_18\n      jump\t// in\n    tag_37:\n      mload(0x40)\n      dup1\n      swap2\n      sub\n      swap1\n      return\n        /* \"contracts/0516/Quiz.sol\":9671:9770  function getAB() public view returns(uint[]  memory, uint[4] memory){... */\n    tag_12:\n        /* \"contracts/0516/Quiz.sol\":9708:9722  uint[]  memory */\n      0x60\n        /* \"contracts/0516/Quiz.sol\":9724:9738  uint[4] memory */\n      tag_38\n      tag_39\n      jump\t// in\n    tag_38:\n        /* \"contracts/0516/Quiz.sol\":9758:9759  a */\n      0x00\n        /* \"contracts/0516/Quiz.sol\":9760:9761  b */\n      0x01\n        /* \"contracts/0516/Quiz.sol\":9750:9762  return (a,b) */\n      dup2\n      dup1\n      sload\n      dup1\n      0x20\n      mul\n      0x20\n      add\n      mload(0x40)\n      swap1\n      dup2\n      add\n      0x40\n      mstore\n      dup1\n      swap3\n      swap2\n      swap1\n      dup2\n      dup2\n      mstore\n      0x20\n      add\n      dup3\n      dup1\n      sload\n      dup1\n      iszero\n      tag_41\n      jumpi\n      0x20\n      mul\n      dup3\n      add\n      swap2\n      swap1\n      0x00\n      mstore\n      keccak256(0x00, 0x20)\n      swap1\n    tag_42:\n      dup2\n      sload\n      dup2\n      mstore\n      0x20\n      add\n      swap1\n      0x01\n      add\n      swap1\n      dup1\n      dup4\n      gt\n      tag_42\n      jumpi\n    tag_41:\n      pop\n      pop\n      pop\n      pop\n      pop\n      swap2\n      pop\n      dup1\n      0x04\n      dup1\n      0x20\n      mul\n      mload(0x40)\n      swap1\n      dup2\n      add\n      0x40\n      mstore\n      dup1\n      swap3\n      swap2\n      swap1\n      dup3\n      0x04\n      dup1\n      iszero\n      tag_43\n      jumpi\n      0x20\n      mul\n      dup3\n      add\n      swap2\n    tag_44:\n      dup2\n      sload\n      dup2\n      mstore\n      0x20\n      add\n      swap1\n      0x01\n      add\n      swap1\n      dup1\n      dup4\n      gt\n      tag_44\n      jumpi\n    tag_43:\n      pop\n      pop\n      pop\n      pop\n      pop\n      swap1\n      pop\n      swap2\n      pop\n      swap2\n      pop\n        /* \"contracts/0516/Quiz.sol\":9671:9770  function getAB() public view returns(uint[]  memory, uint[4] memory){... */\n      swap1\n      swap2\n      jump\t// out\n        /* \"contracts/0516/Quiz.sol\":10102:10294  function getLengthOfB() public view returns (uint){... */\n    tag_16:\n        /* \"contracts/0516/Quiz.sol\":10147:10151  uint */\n      0x00\n        /* \"contracts/0516/Quiz.sol\":10167:10173  uint i */\n      dup1\n        /* \"contracts/0516/Quiz.sol\":10174:10175  0 */\n      0x00\n        /* \"contracts/0516/Quiz.sol\":10167:10175  uint i=0 */\n      swap1\n      pop\n        /* \"contracts/0516/Quiz.sol\":10163:10268  for(uint i=0; i<4; i++){... */\n    tag_46:\n        /* \"contracts/0516/Quiz.sol\":10179:10180  4 */\n      0x04\n        /* \"contracts/0516/Quiz.sol\":10177:10178  i */\n      dup2\n        /* \"contracts/0516/Quiz.sol\":10177:10180  i<4 */\n      lt\n        /* \"contracts/0516/Quiz.sol\":10163:10268  for(uint i=0; i<4; i++){... */\n      iszero\n      tag_47\n      jumpi\n        /* \"contracts/0516/Quiz.sol\":10211:10212  0 */\n      0x00\n        /* \"contracts/0516/Quiz.sol\":10204:10205  b */\n      0x01\n        /* \"contracts/0516/Quiz.sol\":10206:10207  i */\n      dup3\n        /* \"contracts/0516/Quiz.sol\":10204:10208  b[i] */\n      0x04\n      dup2\n      lt\n      tag_49\n      jumpi\n      tag_50\n      tag_51\n      jump\t// in\n    tag_50:\n    tag_49:\n      add\n      sload\n        /* \"contracts/0516/Quiz.sol\":10204:10212  b[i] ==0 */\n      sub\n        /* \"contracts/0516/Quiz.sol\":10201:10257  if(b[i] ==0){... */\n      tag_53\n      jumpi\n        /* \"contracts/0516/Quiz.sol\":10240:10241  i */\n      dup1\n        /* \"contracts/0516/Quiz.sol\":10232:10241  return  i */\n      swap2\n      pop\n      pop\n      jump(tag_45)\n        /* \"contracts/0516/Quiz.sol\":10201:10257  if(b[i] ==0){... */\n    tag_53:\n        /* \"contracts/0516/Quiz.sol\":10182:10185  i++ */\n      dup1\n      dup1\n      tag_54\n      swap1\n      tag_55\n      jump\t// in\n    tag_54:\n      swap2\n      pop\n      pop\n        /* \"contracts/0516/Quiz.sol\":10163:10268  for(uint i=0; i<4; i++){... */\n      jump(tag_46)\n    tag_47:\n      pop\n        /* \"contracts/0516/Quiz.sol\":10285:10286  4 */\n      0x04\n        /* \"contracts/0516/Quiz.sol\":10278:10286  return 4 */\n      swap1\n      pop\n        /* \"contracts/0516/Quiz.sol\":10102:10294  function getLengthOfB() public view returns (uint){... */\n    tag_45:\n      swap1\n      jump\t// out\n        /* \"contracts/0516/Quiz.sol\":9778:9838  function pushA(uint _n) public {... */\n    tag_22:\n        /* \"contracts/0516/Quiz.sol\":9820:9821  a */\n      0x00\n        /* \"contracts/0516/Quiz.sol\":9827:9829  _n */\n      dup2\n        /* \"contracts/0516/Quiz.sol\":9820:9830  a.push(_n) */\n      swap1\n      dup1\n      0x01\n      dup2\n      sload\n      add\n      dup1\n      dup3\n      sstore\n      dup1\n      swap2\n      pop\n      pop\n      0x01\n      swap1\n      sub\n      swap1\n      0x00\n      mstore\n      keccak256(0x00, 0x20)\n      add\n      0x00\n      swap1\n      swap2\n      swap1\n      swap2\n      swap1\n      swap2\n      pop\n      sstore\n        /* \"contracts/0516/Quiz.sol\":9778:9838  function pushA(uint _n) public {... */\n      pop\n      jump\t// out\n        /* \"contracts/0516/Quiz.sol\":9925:10094  function pushB2(uint _a)public {... */\n    tag_25:\n        /* \"contracts/0516/Quiz.sol\":9982:9983  0 */\n      0x00\n        /* \"contracts/0516/Quiz.sol\":9976:9978  _a */\n      dup2\n        /* \"contracts/0516/Quiz.sol\":9976:9983  _a != 0 */\n      sub\n        /* \"contracts/0516/Quiz.sol\":9967:9985  require((_a != 0)) */\n      tag_59\n      jumpi\n      0x00\n      dup1\n      revert\n    tag_59:\n        /* \"contracts/0516/Quiz.sol\":10017:10018  4 */\n      0x04\n        /* \"contracts/0516/Quiz.sol\":9999:10013  getLengthOfB() */\n      tag_60\n        /* \"contracts/0516/Quiz.sol\":9999:10011  getLengthOfB */\n      tag_16\n        /* \"contracts/0516/Quiz.sol\":9999:10013  getLengthOfB() */\n      jump\t// in\n    tag_60:\n        /* \"contracts/0516/Quiz.sol\":9999:10018  getLengthOfB() == 4 */\n      sub\n        /* \"contracts/0516/Quiz.sol\":9996:10054  if(getLengthOfB() == 4){... */\n      tag_61\n      jumpi\n        /* \"contracts/0516/Quiz.sol\":10041:10042  b */\n      0x01\n      0x00\n        /* \"contracts/0516/Quiz.sol\":10034:10042  delete b */\n      tag_62\n      swap2\n      swap1\n      tag_63\n      jump\t// in\n    tag_62:\n        /* \"contracts/0516/Quiz.sol\":9996:10054  if(getLengthOfB() == 4){... */\n    tag_61:\n        /* \"contracts/0516/Quiz.sol\":10084:10086  _a */\n      dup1\n        /* \"contracts/0516/Quiz.sol\":10064:10065  b */\n      0x01\n        /* \"contracts/0516/Quiz.sol\":10066:10080  getLengthOfB() */\n      tag_64\n        /* \"contracts/0516/Quiz.sol\":10066:10078  getLengthOfB */\n      tag_16\n        /* \"contracts/0516/Quiz.sol\":10066:10080  getLengthOfB() */\n      jump\t// in\n    tag_64:\n        /* \"contracts/0516/Quiz.sol\":10064:10081  b[getLengthOfB()] */\n      0x04\n      dup2\n      lt\n      tag_65\n      jumpi\n      tag_66\n      tag_51\n      jump\t// in\n    tag_66:\n    tag_65:\n      add\n        /* \"contracts/0516/Quiz.sol\":10064:10086  b[getLengthOfB()] = _a */\n      dup2\n      swap1\n      sstore\n      pop\n        /* \"contracts/0516/Quiz.sol\":9925:10094  function pushB2(uint _a)public {... */\n      pop\n      jump\t// out\n        /* \"contracts/0516/Quiz.sol\":9846:9919  function pushB(uint _a, uint _b) public {... */\n    tag_29:\n        /* \"contracts/0516/Quiz.sol\":9907:9909  _b */\n      dup1\n        /* \"contracts/0516/Quiz.sol\":9897:9898  b */\n      0x01\n        /* \"contracts/0516/Quiz.sol\":9902:9903  1 */\n      dup1\n        /* \"contracts/0516/Quiz.sol\":9899:9901  _a */\n      dup5\n        /* \"contracts/0516/Quiz.sol\":9899:9903  _a-1 */\n      tag_69\n      swap2\n      swap1\n      tag_70\n      jump\t// in\n    tag_69:\n        /* \"contracts/0516/Quiz.sol\":9897:9904  b[_a-1] */\n      0x04\n      dup2\n      lt\n      tag_71\n      jumpi\n      tag_72\n      tag_51\n      jump\t// in\n    tag_72:\n    tag_71:\n      add\n        /* \"contracts/0516/Quiz.sol\":9897:9909  b[_a-1] = _b */\n      dup2\n      swap1\n      sstore\n      pop\n        /* \"contracts/0516/Quiz.sol\":9846:9919  function pushB(uint _a, uint _b) public {... */\n      pop\n      pop\n      jump\t// out\n        /* \"contracts/0516/Quiz.sol\":9646:9662  uint[4] public b */\n    tag_32:\n      0x01\n      dup2\n      0x04\n      dup2\n      lt\n      tag_74\n      jumpi\n      0x00\n      dup1\n      revert\n    tag_74:\n      add\n      0x00\n      swap2\n      pop\n      swap1\n      pop\n      sload\n      dup2\n      jump\t// out\n        /* \"contracts/0516/Quiz.sol\":9624:9639  uint[] public a */\n    tag_36:\n      0x00\n      dup2\n      dup2\n      sload\n      dup2\n      lt\n      tag_76\n      jumpi\n      0x00\n      dup1\n      revert\n    tag_76:\n      swap1\n      0x00\n      mstore\n      keccak256(0x00, 0x20)\n      add\n      0x00\n      swap2\n      pop\n      swap1\n      pop\n      sload\n      dup2\n      jump\t// out\n    tag_39:\n      mload(0x40)\n      dup1\n      0x80\n      add\n      0x40\n      mstore\n      dup1\n      0x04\n      swap1\n      0x20\n      dup3\n      mul\n      dup1\n      calldatasize\n      dup4\n      calldatacopy\n      dup1\n      dup3\n      add\n      swap2\n      pop\n      pop\n      swap1\n      pop\n      pop\n      swap1\n      jump\t// out\n    tag_63:\n      pop\n      0x00\n      dup2\n      sstore\n      0x01\n      add\n      0x00\n      dup2\n      sstore\n      0x01\n      add\n      0x00\n      dup2\n      sstore\n      0x01\n      add\n      0x00\n      swap1\n      sstore\n      jump\t// out\n        /* \"#utility.yul\":7:121   */\n    tag_78:\n        /* \"#utility.yul\":74:80   */\n      0x00\n        /* \"#utility.yul\":108:113   */\n      dup2\n        /* \"#utility.yul\":102:114   */\n      mload\n        /* \"#utility.yul\":92:114   */\n      swap1\n      pop\n        /* \"#utility.yul\":7:121   */\n      swap2\n      swap1\n      pop\n      jump\t// out\n        /* \"#utility.yul\":127:311   */\n    tag_79:\n        /* \"#utility.yul\":226:237   */\n      0x00\n        /* \"#utility.yul\":260:266   */\n      dup3\n        /* \"#utility.yul\":255:258   */\n      dup3\n        /* \"#utility.yul\":248:267   */\n      mstore\n        /* \"#utility.yul\":300:304   */\n      0x20\n        /* \"#utility.yul\":295:298   */\n      dup3\n        /* \"#utility.yul\":291:305   */\n      add\n        /* \"#utility.yul\":276:305   */\n      swap1\n      pop\n        /* \"#utility.yul\":127:311   */\n      swap3\n      swap2\n      pop\n      pop\n      jump\t// out\n        /* \"#utility.yul\":317:449   */\n    tag_80:\n        /* \"#utility.yul\":384:388   */\n      0x00\n        /* \"#utility.yul\":407:410   */\n      dup2\n        /* \"#utility.yul\":399:410   */\n      swap1\n      pop\n        /* \"#utility.yul\":437:441   */\n      0x20\n        /* \"#utility.yul\":432:435   */\n      dup3\n        /* \"#utility.yul\":428:442   */\n      add\n        /* \"#utility.yul\":420:442   */\n      swap1\n      pop\n        /* \"#utility.yul\":317:449   */\n      swap2\n      swap1\n      pop\n      jump\t// out\n        /* \"#utility.yul\":455:532   */\n    tag_81:\n        /* \"#utility.yul\":492:499   */\n      0x00\n        /* \"#utility.yul\":521:526   */\n      dup2\n        /* \"#utility.yul\":510:526   */\n      swap1\n      pop\n        /* \"#utility.yul\":455:532   */\n      swap2\n      swap1\n      pop\n      jump\t// out\n        /* \"#utility.yul\":538:646   */\n    tag_82:\n        /* \"#utility.yul\":615:639   */\n      tag_104\n        /* \"#utility.yul\":633:638   */\n      dup2\n        /* \"#utility.yul\":615:639   */\n      tag_81\n      jump\t// in\n    tag_104:\n        /* \"#utility.yul\":610:613   */\n      dup3\n        /* \"#utility.yul\":603:640   */\n      mstore\n        /* \"#utility.yul\":538:646   */\n      pop\n      pop\n      jump\t// out\n        /* \"#utility.yul\":652:831   */\n    tag_83:\n        /* \"#utility.yul\":721:731   */\n      0x00\n        /* \"#utility.yul\":742:788   */\n      tag_106\n        /* \"#utility.yul\":784:787   */\n      dup4\n        /* \"#utility.yul\":776:782   */\n      dup4\n        /* \"#utility.yul\":742:788   */\n      tag_82\n      jump\t// in\n    tag_106:\n        /* \"#utility.yul\":820:824   */\n      0x20\n        /* \"#utility.yul\":815:818   */\n      dup4\n        /* \"#utility.yul\":811:825   */\n      add\n        /* \"#utility.yul\":797:825   */\n      swap1\n      pop\n        /* \"#utility.yul\":652:831   */\n      swap3\n      swap2\n      pop\n      pop\n      jump\t// out\n        /* \"#utility.yul\":837:950   */\n    tag_84:\n        /* \"#utility.yul\":907:911   */\n      0x00\n        /* \"#utility.yul\":939:943   */\n      0x20\n        /* \"#utility.yul\":934:937   */\n      dup3\n        /* \"#utility.yul\":930:944   */\n      add\n        /* \"#utility.yul\":922:944   */\n      swap1\n      pop\n        /* \"#utility.yul\":837:950   */\n      swap2\n      swap1\n      pop\n      jump\t// out\n        /* \"#utility.yul\":986:1718   */\n    tag_85:\n        /* \"#utility.yul\":1105:1108   */\n      0x00\n        /* \"#utility.yul\":1134:1188   */\n      tag_109\n        /* \"#utility.yul\":1182:1187   */\n      dup3\n        /* \"#utility.yul\":1134:1188   */\n      tag_78\n      jump\t// in\n    tag_109:\n        /* \"#utility.yul\":1204:1290   */\n      tag_110\n        /* \"#utility.yul\":1283:1289   */\n      dup2\n        /* \"#utility.yul\":1278:1281   */\n      dup6\n        /* \"#utility.yul\":1204:1290   */\n      tag_79\n      jump\t// in\n    tag_110:\n        /* \"#utility.yul\":1197:1290   */\n      swap4\n      pop\n        /* \"#utility.yul\":1314:1370   */\n      tag_111\n        /* \"#utility.yul\":1364:1369   */\n      dup4\n        /* \"#utility.yul\":1314:1370   */\n      tag_80\n      jump\t// in\n    tag_111:\n        /* \"#utility.yul\":1393:1400   */\n      dup1\n        /* \"#utility.yul\":1424:1425   */\n      0x00\n        /* \"#utility.yul\":1409:1693   */\n    tag_112:\n        /* \"#utility.yul\":1434:1440   */\n      dup4\n        /* \"#utility.yul\":1431:1432   */\n      dup2\n        /* \"#utility.yul\":1428:1441   */\n      lt\n        /* \"#utility.yul\":1409:1693   */\n      iszero\n      tag_114\n      jumpi\n        /* \"#utility.yul\":1510:1516   */\n      dup2\n        /* \"#utility.yul\":1504:1517   */\n      mload\n        /* \"#utility.yul\":1537:1600   */\n      tag_115\n        /* \"#utility.yul\":1596:1599   */\n      dup9\n        /* \"#utility.yul\":1581:1594   */\n      dup3\n        /* \"#utility.yul\":1537:1600   */\n      tag_83\n      jump\t// in\n    tag_115:\n        /* \"#utility.yul\":1530:1600   */\n      swap8\n      pop\n        /* \"#utility.yul\":1623:1683   */\n      tag_116\n        /* \"#utility.yul\":1676:1682   */\n      dup4\n        /* \"#utility.yul\":1623:1683   */\n      tag_84\n      jump\t// in\n    tag_116:\n        /* \"#utility.yul\":1613:1683   */\n      swap3\n      pop\n        /* \"#utility.yul\":1469:1693   */\n      pop\n        /* \"#utility.yul\":1456:1457   */\n      0x01\n        /* \"#utility.yul\":1453:1454   */\n      dup2\n        /* \"#utility.yul\":1449:1458   */\n      add\n        /* \"#utility.yul\":1444:1458   */\n      swap1\n      pop\n        /* \"#utility.yul\":1409:1693   */\n      jump(tag_112)\n    tag_114:\n        /* \"#utility.yul\":1413:1427   */\n      pop\n        /* \"#utility.yul\":1709:1712   */\n      dup6\n        /* \"#utility.yul\":1702:1712   */\n      swap4\n      pop\n        /* \"#utility.yul\":1110:1718   */\n      pop\n      pop\n      pop\n        /* \"#utility.yul\":986:1718   */\n      swap3\n      swap2\n      pop\n      pop\n      jump\t// out\n        /* \"#utility.yul\":1724:1828   */\n    tag_86:\n        /* \"#utility.yul\":1789:1795   */\n      0x00\n        /* \"#utility.yul\":1817:1821   */\n      0x04\n        /* \"#utility.yul\":1807:1821   */\n      swap1\n      pop\n        /* \"#utility.yul\":1724:1828   */\n      swap2\n      swap1\n      pop\n      jump\t// out\n        /* \"#utility.yul\":1834:1977   */\n    tag_87:\n        /* \"#utility.yul\":1931:1942   */\n      0x00\n        /* \"#utility.yul\":1968:1971   */\n      dup2\n        /* \"#utility.yul\":1953:1971   */\n      swap1\n      pop\n        /* \"#utility.yul\":1834:1977   */\n      swap3\n      swap2\n      pop\n      pop\n      jump\t// out\n        /* \"#utility.yul\":1983:2081   */\n    tag_88:\n        /* \"#utility.yul\":2048:2052   */\n      0x00\n        /* \"#utility.yul\":2071:2074   */\n      dup2\n        /* \"#utility.yul\":2063:2074   */\n      swap1\n      pop\n        /* \"#utility.yul\":1983:2081   */\n      swap2\n      swap1\n      pop\n      jump\t// out\n        /* \"#utility.yul\":2087:2198   */\n    tag_89:\n        /* \"#utility.yul\":2155:2159   */\n      0x00\n        /* \"#utility.yul\":2187:2191   */\n      0x20\n        /* \"#utility.yul\":2182:2185   */\n      dup3\n        /* \"#utility.yul\":2178:2192   */\n      add\n        /* \"#utility.yul\":2170:2192   */\n      swap1\n      pop\n        /* \"#utility.yul\":2087:2198   */\n      swap2\n      swap1\n      pop\n      jump\t// out\n        /* \"#utility.yul\":2236:2930   */\n    tag_90:\n        /* \"#utility.yul\":2372:2424   */\n      tag_122\n        /* \"#utility.yul\":2418:2423   */\n      dup2\n        /* \"#utility.yul\":2372:2424   */\n      tag_86\n      jump\t// in\n    tag_122:\n        /* \"#utility.yul\":2440:2524   */\n      tag_123\n        /* \"#utility.yul\":2517:2523   */\n      dup2\n        /* \"#utility.yul\":2512:2515   */\n      dup5\n        /* \"#utility.yul\":2440:2524   */\n      tag_87\n      jump\t// in\n    tag_123:\n        /* \"#utility.yul\":2433:2524   */\n      swap3\n      pop\n        /* \"#utility.yul\":2548:2602   */\n      tag_124\n        /* \"#utility.yul\":2596:2601   */\n      dup3\n        /* \"#utility.yul\":2548:2602   */\n      tag_88\n      jump\t// in\n    tag_124:\n        /* \"#utility.yul\":2625:2632   */\n      dup1\n        /* \"#utility.yul\":2656:2657   */\n      0x00\n        /* \"#utility.yul\":2641:2923   */\n    tag_125:\n        /* \"#utility.yul\":2666:2672   */\n      dup4\n        /* \"#utility.yul\":2663:2664   */\n      dup2\n        /* \"#utility.yul\":2660:2673   */\n      lt\n        /* \"#utility.yul\":2641:2923   */\n      iszero\n      tag_127\n      jumpi\n        /* \"#utility.yul\":2742:2748   */\n      dup2\n        /* \"#utility.yul\":2736:2749   */\n      mload\n        /* \"#utility.yul\":2769:2832   */\n      tag_128\n        /* \"#utility.yul\":2828:2831   */\n      dup8\n        /* \"#utility.yul\":2813:2826   */\n      dup3\n        /* \"#utility.yul\":2769:2832   */\n      tag_83\n      jump\t// in\n    tag_128:\n        /* \"#utility.yul\":2762:2832   */\n      swap7\n      pop\n        /* \"#utility.yul\":2855:2913   */\n      tag_129\n        /* \"#utility.yul\":2906:2912   */\n      dup4\n        /* \"#utility.yul\":2855:2913   */\n      tag_89\n      jump\t// in\n    tag_129:\n        /* \"#utility.yul\":2845:2913   */\n      swap3\n      pop\n        /* \"#utility.yul\":2701:2923   */\n      pop\n        /* \"#utility.yul\":2688:2689   */\n      0x01\n        /* \"#utility.yul\":2685:2686   */\n      dup2\n        /* \"#utility.yul\":2681:2690   */\n      add\n        /* \"#utility.yul\":2676:2690   */\n      swap1\n      pop\n        /* \"#utility.yul\":2641:2923   */\n      jump(tag_125)\n    tag_127:\n        /* \"#utility.yul\":2645:2659   */\n      pop\n        /* \"#utility.yul\":2348:2930   */\n      pop\n      pop\n      pop\n        /* \"#utility.yul\":2236:2930   */\n      pop\n      pop\n      jump\t// out\n        /* \"#utility.yul\":2936:3512   */\n    tag_14:\n        /* \"#utility.yul\":3153:3157   */\n      0x00\n        /* \"#utility.yul\":3191:3194   */\n      0xa0\n        /* \"#utility.yul\":3180:3189   */\n      dup3\n        /* \"#utility.yul\":3176:3195   */\n      add\n        /* \"#utility.yul\":3168:3195   */\n      swap1\n      pop\n        /* \"#utility.yul\":3241:3250   */\n      dup2\n        /* \"#utility.yul\":3235:3239   */\n      dup2\n        /* \"#utility.yul\":3231:3251   */\n      sub\n        /* \"#utility.yul\":3227:3228   */\n      0x00\n        /* \"#utility.yul\":3216:3225   */\n      dup4\n        /* \"#utility.yul\":3212:3229   */\n      add\n        /* \"#utility.yul\":3205:3252   */\n      mstore\n        /* \"#utility.yul\":3269:3377   */\n      tag_131\n        /* \"#utility.yul\":3372:3376   */\n      dup2\n        /* \"#utility.yul\":3363:3369   */\n      dup6\n        /* \"#utility.yul\":3269:3377   */\n      tag_85\n      jump\t// in\n    tag_131:\n        /* \"#utility.yul\":3261:3377   */\n      swap1\n      pop\n        /* \"#utility.yul\":3387:3505   */\n      tag_132\n        /* \"#utility.yul\":3501:3503   */\n      0x20\n        /* \"#utility.yul\":3490:3499   */\n      dup4\n        /* \"#utility.yul\":3486:3504   */\n      add\n        /* \"#utility.yul\":3477:3483   */\n      dup5\n        /* \"#utility.yul\":3387:3505   */\n      tag_90\n      jump\t// in\n    tag_132:\n        /* \"#utility.yul\":2936:3512   */\n      swap4\n      swap3\n      pop\n      pop\n      pop\n      jump\t// out\n        /* \"#utility.yul\":3518:3636   */\n    tag_91:\n        /* \"#utility.yul\":3605:3629   */\n      tag_134\n        /* \"#utility.yul\":3623:3628   */\n      dup2\n        /* \"#utility.yul\":3605:3629   */\n      tag_81\n      jump\t// in\n    tag_134:\n        /* \"#utility.yul\":3600:3603   */\n      dup3\n        /* \"#utility.yul\":3593:3630   */\n      mstore\n        /* \"#utility.yul\":3518:3636   */\n      pop\n      pop\n      jump\t// out\n        /* \"#utility.yul\":3642:3864   */\n    tag_18:\n        /* \"#utility.yul\":3735:3739   */\n      0x00\n        /* \"#utility.yul\":3773:3775   */\n      0x20\n        /* \"#utility.yul\":3762:3771   */\n      dup3\n        /* \"#utility.yul\":3758:3776   */\n      add\n        /* \"#utility.yul\":3750:3776   */\n      swap1\n      pop\n        /* \"#utility.yul\":3786:3857   */\n      tag_136\n        /* \"#utility.yul\":3854:3855   */\n      0x00\n        /* \"#utility.yul\":3843:3852   */\n      dup4\n        /* \"#utility.yul\":3839:3856   */\n      add\n        /* \"#utility.yul\":3830:3836   */\n      dup5\n        /* \"#utility.yul\":3786:3857   */\n      tag_91\n      jump\t// in\n    tag_136:\n        /* \"#utility.yul\":3642:3864   */\n      swap3\n      swap2\n      pop\n      pop\n      jump\t// out\n        /* \"#utility.yul\":3951:4068   */\n    tag_93:\n        /* \"#utility.yul\":4060:4061   */\n      0x00\n        /* \"#utility.yul\":4057:4058   */\n      dup1\n        /* \"#utility.yul\":4050:4062   */\n      revert\n        /* \"#utility.yul\":4197:4319   */\n    tag_95:\n        /* \"#utility.yul\":4270:4294   */\n      tag_141\n        /* \"#utility.yul\":4288:4293   */\n      dup2\n        /* \"#utility.yul\":4270:4294   */\n      tag_81\n      jump\t// in\n    tag_141:\n        /* \"#utility.yul\":4263:4268   */\n      dup2\n        /* \"#utility.yul\":4260:4295   */\n      eq\n        /* \"#utility.yul\":4250:4313   */\n      tag_142\n      jumpi\n        /* \"#utility.yul\":4309:4310   */\n      0x00\n        /* \"#utility.yul\":4306:4307   */\n      dup1\n        /* \"#utility.yul\":4299:4311   */\n      revert\n        /* \"#utility.yul\":4250:4313   */\n    tag_142:\n        /* \"#utility.yul\":4197:4319   */\n      pop\n      jump\t// out\n        /* \"#utility.yul\":4325:4464   */\n    tag_96:\n        /* \"#utility.yul\":4371:4376   */\n      0x00\n        /* \"#utility.yul\":4409:4415   */\n      dup2\n        /* \"#utility.yul\":4396:4416   */\n      calldataload\n        /* \"#utility.yul\":4387:4416   */\n      swap1\n      pop\n        /* \"#utility.yul\":4425:4458   */\n      tag_144\n        /* \"#utility.yul\":4452:4457   */\n      dup2\n        /* \"#utility.yul\":4425:4458   */\n      tag_95\n      jump\t// in\n    tag_144:\n        /* \"#utility.yul\":4325:4464   */\n      swap3\n      swap2\n      pop\n      pop\n      jump\t// out\n        /* \"#utility.yul\":4470:4799   */\n    tag_21:\n        /* \"#utility.yul\":4529:4535   */\n      0x00\n        /* \"#utility.yul\":4578:4580   */\n      0x20\n        /* \"#utility.yul\":4566:4575   */\n      dup3\n        /* \"#utility.yul\":4557:4564   */\n      dup5\n        /* \"#utility.yul\":4553:4576   */\n      sub\n        /* \"#utility.yul\":4549:4581   */\n      slt\n        /* \"#utility.yul\":4546:4665   */\n      iszero\n      tag_146\n      jumpi\n        /* \"#utility.yul\":4584:4663   */\n      tag_147\n      tag_93\n      jump\t// in\n    tag_147:\n        /* \"#utility.yul\":4546:4665   */\n    tag_146:\n        /* \"#utility.yul\":4704:4705   */\n      0x00\n        /* \"#utility.yul\":4729:4782   */\n      tag_148\n        /* \"#utility.yul\":4774:4781   */\n      dup5\n        /* \"#utility.yul\":4765:4771   */\n      dup3\n        /* \"#utility.yul\":4754:4763   */\n      dup6\n        /* \"#utility.yul\":4750:4772   */\n      add\n        /* \"#utility.yul\":4729:4782   */\n      tag_96\n      jump\t// in\n    tag_148:\n        /* \"#utility.yul\":4719:4782   */\n      swap2\n      pop\n        /* \"#utility.yul\":4675:4792   */\n      pop\n        /* \"#utility.yul\":4470:4799   */\n      swap3\n      swap2\n      pop\n      pop\n      jump\t// out\n        /* \"#utility.yul\":4805:5279   */\n    tag_28:\n        /* \"#utility.yul\":4873:4879   */\n      0x00\n        /* \"#utility.yul\":4881:4887   */\n      dup1\n        /* \"#utility.yul\":4930:4932   */\n      0x40\n        /* \"#utility.yul\":4918:4927   */\n      dup4\n        /* \"#utility.yul\":4909:4916   */\n      dup6\n        /* \"#utility.yul\":4905:4928   */\n      sub\n        /* \"#utility.yul\":4901:4933   */\n      slt\n        /* \"#utility.yul\":4898:5017   */\n      iszero\n      tag_150\n      jumpi\n        /* \"#utility.yul\":4936:5015   */\n      tag_151\n      tag_93\n      jump\t// in\n    tag_151:\n        /* \"#utility.yul\":4898:5017   */\n    tag_150:\n        /* \"#utility.yul\":5056:5057   */\n      0x00\n        /* \"#utility.yul\":5081:5134   */\n      tag_152\n        /* \"#utility.yul\":5126:5133   */\n      dup6\n        /* \"#utility.yul\":5117:5123   */\n      dup3\n        /* \"#utility.yul\":5106:5115   */\n      dup7\n        /* \"#utility.yul\":5102:5124   */\n      add\n        /* \"#utility.yul\":5081:5134   */\n      tag_96\n      jump\t// in\n    tag_152:\n        /* \"#utility.yul\":5071:5134   */\n      swap3\n      pop\n        /* \"#utility.yul\":5027:5144   */\n      pop\n        /* \"#utility.yul\":5183:5185   */\n      0x20\n        /* \"#utility.yul\":5209:5262   */\n      tag_153\n        /* \"#utility.yul\":5254:5261   */\n      dup6\n        /* \"#utility.yul\":5245:5251   */\n      dup3\n        /* \"#utility.yul\":5234:5243   */\n      dup7\n        /* \"#utility.yul\":5230:5252   */\n      add\n        /* \"#utility.yul\":5209:5262   */\n      tag_96\n      jump\t// in\n    tag_153:\n        /* \"#utility.yul\":5199:5262   */\n      swap2\n      pop\n        /* \"#utility.yul\":5154:5272   */\n      pop\n        /* \"#utility.yul\":4805:5279   */\n      swap3\n      pop\n      swap3\n      swap1\n      pop\n      jump\t// out\n        /* \"#utility.yul\":5285:5465   */\n    tag_51:\n        /* \"#utility.yul\":5333:5410   */\n      0x4e487b7100000000000000000000000000000000000000000000000000000000\n        /* \"#utility.yul\":5330:5331   */\n      0x00\n        /* \"#utility.yul\":5323:5411   */\n      mstore\n        /* \"#utility.yul\":5430:5434   */\n      0x32\n        /* \"#utility.yul\":5427:5428   */\n      0x04\n        /* \"#utility.yul\":5420:5435   */\n      mstore\n        /* \"#utility.yul\":5454:5458   */\n      0x24\n        /* \"#utility.yul\":5451:5452   */\n      0x00\n        /* \"#utility.yul\":5444:5459   */\n      revert\n        /* \"#utility.yul\":5471:5651   */\n    tag_97:\n        /* \"#utility.yul\":5519:5596   */\n      0x4e487b7100000000000000000000000000000000000000000000000000000000\n        /* \"#utility.yul\":5516:5517   */\n      0x00\n        /* \"#utility.yul\":5509:5597   */\n      mstore\n        /* \"#utility.yul\":5616:5620   */\n      0x11\n        /* \"#utility.yul\":5613:5614   */\n      0x04\n        /* \"#utility.yul\":5606:5621   */\n      mstore\n        /* \"#utility.yul\":5640:5644   */\n      0x24\n        /* \"#utility.yul\":5637:5638   */\n      0x00\n        /* \"#utility.yul\":5630:5645   */\n      revert\n        /* \"#utility.yul\":5657:5890   */\n    tag_55:\n        /* \"#utility.yul\":5696:5699   */\n      0x00\n        /* \"#utility.yul\":5719:5743   */\n      tag_157\n        /* \"#utility.yul\":5737:5742   */\n      dup3\n        /* \"#utility.yul\":5719:5743   */\n      tag_81\n      jump\t// in\n    tag_157:\n        /* \"#utility.yul\":5710:5743   */\n      swap2\n      pop\n        /* \"#utility.yul\":5765:5831   */\n      0xffffffffffffffffffffffffffffffffffffffffffffffffffffffffffffffff\n        /* \"#utility.yul\":5758:5763   */\n      dup3\n        /* \"#utility.yul\":5755:5832   */\n      sub\n        /* \"#utility.yul\":5752:5855   */\n      tag_158\n      jumpi\n        /* \"#utility.yul\":5835:5853   */\n      tag_159\n      tag_97\n      jump\t// in\n    tag_159:\n        /* \"#utility.yul\":5752:5855   */\n    tag_158:\n        /* \"#utility.yul\":5882:5883   */\n      0x01\n        /* \"#utility.yul\":5875:5880   */\n      dup3\n        /* \"#utility.yul\":5871:5884   */\n      add\n        /* \"#utility.yul\":5864:5884   */\n      swap1\n      pop\n        /* \"#utility.yul\":5657:5890   */\n      swap2\n      swap1\n      pop\n      jump\t// out\n        /* \"#utility.yul\":5896:6090   */\n    tag_70:\n        /* \"#utility.yul\":5936:5940   */\n      0x00\n        /* \"#utility.yul\":5956:5976   */\n      tag_161\n        /* \"#utility.yul\":5974:5975   */\n      dup3\n        /* \"#utility.yul\":5956:5976   */\n      tag_81\n      jump\t// in\n    tag_161:\n        /* \"#utility.yul\":5951:5976   */\n      swap2\n      pop\n        /* \"#utility.yul\":5990:6010   */\n      tag_162\n        /* \"#utility.yul\":6008:6009   */\n      dup4\n        /* \"#utility.yul\":5990:6010   */\n      tag_81\n      jump\t// in\n    tag_162:\n        /* \"#utility.yul\":5985:6010   */\n      swap3\n      pop\n        /* \"#utility.yul\":6034:6035   */\n      dup3\n        /* \"#utility.yul\":6031:6032   */\n      dup3\n        /* \"#utility.yul\":6027:6036   */\n      sub\n        /* \"#utility.yul\":6019:6036   */\n      swap1\n      pop\n        /* \"#utility.yul\":6058:6059   */\n      dup2\n        /* \"#utility.yul\":6052:6056   */\n      dup2\n        /* \"#utility.yul\":6049:6060   */\n      gt\n        /* \"#utility.yul\":6046:6083   */\n      iszero\n      tag_163\n      jumpi\n        /* \"#utility.yul\":6063:6081   */\n      tag_164\n      tag_97\n      jump\t// in\n    tag_164:\n        /* \"#utility.yul\":6046:6083   */\n    tag_163:\n        /* \"#utility.yul\":5896:6090   */\n      swap3\n      swap2\n      pop\n      pop\n      jump\t// out\n\n    auxdata: 0xa2646970667358221220e1f4bb8a92644451cd7a6f5afdacfd1f40f85bee856ff566f5cc1d7c5d373f3f64736f6c63430008120033\n}\n",
				"bytecode": {
					"linkReferences": {},
					"object": "608060405234801561001057600080fd5b506106e2806100206000396000f3fe608060405234801561001057600080fd5b506004361061007d5760003560e01c8063b97f72021161005b578063b97f7202146100db578063c1f69ac3146100f7578063cd580ff314610113578063f0fdf834146101435761007d565b80632b06cb2d146100825780632f7664fc146100a157806340bb882d146100bf575b600080fd5b61008a610173565b6040516100989291906104da565b60405180910390f35b6100a961021a565b6040516100b69190610519565b60405180910390f35b6100d960048036038101906100d49190610565565b61026d565b005b6100f560048036038101906100f09190610565565b610299565b005b610111600480360381019061010c9190610592565b6102e8565b005b61012d60048036038101906101289190610565565b610311565b60405161013a9190610519565b60405180910390f35b61015d60048036038101906101589190610565565b61032c565b60405161016a9190610519565b60405180910390f35b606061017d610350565b60006001818054806020026020016040519081016040528092919081815260200182805480156101cc57602002820191906000526020600020905b8154815260200190600101908083116101b8575b505050505091508060048060200260405190810160405280929190826004801561020b576020028201915b8154815260200190600101908083116101f7575b50505050509050915091509091565b600080600090505b600481101561026457600060018260048110610241576102406105d2565b5b015403610251578091505061026a565b808061025c90610630565b915050610222565b50600490505b90565b600081908060018154018082558091505060019003906000526020600020016000909190919091505550565b600081036102a657600080fd5b60046102b061021a565b036102c457600160006102c39190610372565b5b8060016102cf61021a565b600481106102e0576102df6105d2565b5b018190555050565b80600180846102f79190610678565b60048110610308576103076105d2565b5b01819055505050565b6001816004811061032157600080fd5b016000915090505481565b6000818154811061033c57600080fd5b906000526020600020016000915090505481565b6040518060800160405280600490602082028036833780820191505090505090565b5060008155600101600081556001016000815560010160009055565b600081519050919050565b600082825260208201905092915050565b6000819050602082019050919050565b6000819050919050565b6103cd816103ba565b82525050565b60006103df83836103c4565b60208301905092915050565b6000602082019050919050565b60006104038261038e565b61040d8185610399565b9350610418836103aa565b8060005b8381101561044957815161043088826103d3565b975061043b836103eb565b92505060018101905061041c565b5085935050505092915050565b600060049050919050565b600081905092915050565b6000819050919050565b6000602082019050919050565b61048c81610456565b6104968184610461565b92506104a18261046c565b8060005b838110156104d25781516104b987826103d3565b96506104c483610476565b9250506001810190506104a5565b505050505050565b600060a08201905081810360008301526104f481856103f8565b90506105036020830184610483565b9392505050565b610513816103ba565b82525050565b600060208201905061052e600083018461050a565b92915050565b600080fd5b610542816103ba565b811461054d57600080fd5b50565b60008135905061055f81610539565b92915050565b60006020828403121561057b5761057a610534565b5b600061058984828501610550565b91505092915050565b600080604083850312156105a9576105a8610534565b5b60006105b785828601610550565b92505060206105c885828601610550565b9150509250929050565b7f4e487b7100000000000000000000000000000000000000000000000000000000600052603260045260246000fd5b7f4e487b7100000000000000000000000000000000000000000000000000000000600052601160045260246000fd5b600061063b826103ba565b91507fffffffffffffffffffffffffffffffffffffffffffffffffffffffffffffffff820361066d5761066c610601565b5b600182019050919050565b6000610683826103ba565b915061068e836103ba565b92508282039050818111156106a6576106a5610601565b5b9291505056fea2646970667358221220e1f4bb8a92644451cd7a6f5afdacfd1f40f85bee856ff566f5cc1d7c5d373f3f64736f6c63430008120033",
					"opcodes": "PUSH1 0x80 PUSH1 0x40 MSTORE CALLVALUE DUP1 ISZERO PUSH2 0x10 JUMPI PUSH1 0x0 DUP1 REVERT JUMPDEST POP PUSH2 0x6E2 DUP1 PUSH2 0x20 PUSH1 0x0 CODECOPY PUSH1 0x0 RETURN INVALID PUSH1 0x80 PUSH1 0x40 MSTORE CALLVALUE DUP1 ISZERO PUSH2 0x10 JUMPI PUSH1 0x0 DUP1 REVERT JUMPDEST POP PUSH1 0x4 CALLDATASIZE LT PUSH2 0x7D JUMPI PUSH1 0x0 CALLDATALOAD PUSH1 0xE0 SHR DUP1 PUSH4 0xB97F7202 GT PUSH2 0x5B JUMPI DUP1 PUSH4 0xB97F7202 EQ PUSH2 0xDB JUMPI DUP1 PUSH4 0xC1F69AC3 EQ PUSH2 0xF7 JUMPI DUP1 PUSH4 0xCD580FF3 EQ PUSH2 0x113 JUMPI DUP1 PUSH4 0xF0FDF834 EQ PUSH2 0x143 JUMPI PUSH2 0x7D JUMP JUMPDEST DUP1 PUSH4 0x2B06CB2D EQ PUSH2 0x82 JUMPI DUP1 PUSH4 0x2F7664FC EQ PUSH2 0xA1 JUMPI DUP1 PUSH4 0x40BB882D EQ PUSH2 0xBF JUMPI JUMPDEST PUSH1 0x0 DUP1 REVERT JUMPDEST PUSH2 0x8A PUSH2 0x173 JUMP JUMPDEST PUSH1 0x40 MLOAD PUSH2 0x98 SWAP3 SWAP2 SWAP1 PUSH2 0x4DA JUMP JUMPDEST PUSH1 0x40 MLOAD DUP1 SWAP2 SUB SWAP1 RETURN JUMPDEST PUSH2 0xA9 PUSH2 0x21A JUMP JUMPDEST PUSH1 0x40 MLOAD PUSH2 0xB6 SWAP2 SWAP1 PUSH2 0x519 JUMP JUMPDEST PUSH1 0x40 MLOAD DUP1 SWAP2 SUB SWAP1 RETURN JUMPDEST PUSH2 0xD9 PUSH1 0x4 DUP1 CALLDATASIZE SUB DUP2 ADD SWAP1 PUSH2 0xD4 SWAP2 SWAP1 PUSH2 0x565 JUMP JUMPDEST PUSH2 0x26D JUMP JUMPDEST STOP JUMPDEST PUSH2 0xF5 PUSH1 0x4 DUP1 CALLDATASIZE SUB DUP2 ADD SWAP1 PUSH2 0xF0 SWAP2 SWAP1 PUSH2 0x565 JUMP JUMPDEST PUSH2 0x299 JUMP JUMPDEST STOP JUMPDEST PUSH2 0x111 PUSH1 0x4 DUP1 CALLDATASIZE SUB DUP2 ADD SWAP1 PUSH2 0x10C SWAP2 SWAP1 PUSH2 0x592 JUMP JUMPDEST PUSH2 0x2E8 JUMP JUMPDEST STOP JUMPDEST PUSH2 0x12D PUSH1 0x4 DUP1 CALLDATASIZE SUB DUP2 ADD SWAP1 PUSH2 0x128 SWAP2 SWAP1 PUSH2 0x565 JUMP JUMPDEST PUSH2 0x311 JUMP JUMPDEST PUSH1 0x40 MLOAD PUSH2 0x13A SWAP2 SWAP1 PUSH2 0x519 JUMP JUMPDEST PUSH1 0x40 MLOAD DUP1 SWAP2 SUB SWAP1 RETURN JUMPDEST PUSH2 0x15D PUSH1 0x4 DUP1 CALLDATASIZE SUB DUP2 ADD SWAP1 PUSH2 0x158 SWAP2 SWAP1 PUSH2 0x565 JUMP JUMPDEST PUSH2 0x32C JUMP JUMPDEST PUSH1 0x40 MLOAD PUSH2 0x16A SWAP2 SWAP1 PUSH2 0x519 JUMP JUMPDEST PUSH1 0x40 MLOAD DUP1 SWAP2 SUB SWAP1 RETURN JUMPDEST PUSH1 0x60 PUSH2 0x17D PUSH2 0x350 JUMP JUMPDEST PUSH1 0x0 PUSH1 0x1 DUP2 DUP1 SLOAD DUP1 PUSH1 0x20 MUL PUSH1 0x20 ADD PUSH1 0x40 MLOAD SWAP1 DUP2 ADD PUSH1 0x40 MSTORE DUP1 SWAP3 SWAP2 SWAP1 DUP2 DUP2 MSTORE PUSH1 0x20 ADD DUP3 DUP1 SLOAD DUP1 ISZERO PUSH2 0x1CC JUMPI PUSH1 0x20 MUL DUP3 ADD SWAP2 SWAP1 PUSH1 0x0 MSTORE PUSH1 0x20 PUSH1 0x0 KECCAK256 SWAP1 JUMPDEST DUP2 SLOAD DUP2 MSTORE PUSH1 0x20 ADD SWAP1 PUSH1 0x1 ADD SWAP1 DUP1 DUP4 GT PUSH2 0x1B8 JUMPI JUMPDEST POP POP POP POP POP SWAP2 POP DUP1 PUSH1 0x4 DUP1 PUSH1 0x20 MUL PUSH1 0x40 MLOAD SWAP1 DUP2 ADD PUSH1 0x40 MSTORE DUP1 SWAP3 SWAP2 SWAP1 DUP3 PUSH1 0x4 DUP1 ISZERO PUSH2 0x20B JUMPI PUSH1 0x20 MUL DUP3 ADD SWAP2 JUMPDEST DUP2 SLOAD DUP2 MSTORE PUSH1 0x20 ADD SWAP1 PUSH1 0x1 ADD SWAP1 DUP1 DUP4 GT PUSH2 0x1F7 JUMPI JUMPDEST POP POP POP POP POP SWAP1 POP SWAP2 POP SWAP2 POP SWAP1 SWAP2 JUMP JUMPDEST PUSH1 0x0 DUP1 PUSH1 0x0 SWAP1 POP JUMPDEST PUSH1 0x4 DUP2 LT ISZERO PUSH2 0x264 JUMPI PUSH1 0x0 PUSH1 0x1 DUP3 PUSH1 0x4 DUP2 LT PUSH2 0x241 JUMPI PUSH2 0x240 PUSH2 0x5D2 JUMP JUMPDEST JUMPDEST ADD SLOAD SUB PUSH2 0x251 JUMPI DUP1 SWAP2 POP POP PUSH2 0x26A JUMP JUMPDEST DUP1 DUP1 PUSH2 0x25C SWAP1 PUSH2 0x630 JUMP JUMPDEST SWAP2 POP POP PUSH2 0x222 JUMP JUMPDEST POP PUSH1 0x4 SWAP1 POP JUMPDEST SWAP1 JUMP JUMPDEST PUSH1 0x0 DUP2 SWAP1 DUP1 PUSH1 0x1 DUP2 SLOAD ADD DUP1 DUP3 SSTORE DUP1 SWAP2 POP POP PUSH1 0x1 SWAP1 SUB SWAP1 PUSH1 0x0 MSTORE PUSH1 0x20 PUSH1 0x0 KECCAK256 ADD PUSH1 0x0 SWAP1 SWAP2 SWAP1 SWAP2 SWAP1 SWAP2 POP SSTORE POP JUMP JUMPDEST PUSH1 0x0 DUP2 SUB PUSH2 0x2A6 JUMPI PUSH1 0x0 DUP1 REVERT JUMPDEST PUSH1 0x4 PUSH2 0x2B0 PUSH2 0x21A JUMP JUMPDEST SUB PUSH2 0x2C4 JUMPI PUSH1 0x1 PUSH1 0x0 PUSH2 0x2C3 SWAP2 SWAP1 PUSH2 0x372 JUMP JUMPDEST JUMPDEST DUP1 PUSH1 0x1 PUSH2 0x2CF PUSH2 0x21A JUMP JUMPDEST PUSH1 0x4 DUP2 LT PUSH2 0x2E0 JUMPI PUSH2 0x2DF PUSH2 0x5D2 JUMP JUMPDEST JUMPDEST ADD DUP2 SWAP1 SSTORE POP POP JUMP JUMPDEST DUP1 PUSH1 0x1 DUP1 DUP5 PUSH2 0x2F7 SWAP2 SWAP1 PUSH2 0x678 JUMP JUMPDEST PUSH1 0x4 DUP2 LT PUSH2 0x308 JUMPI PUSH2 0x307 PUSH2 0x5D2 JUMP JUMPDEST JUMPDEST ADD DUP2 SWAP1 SSTORE POP POP POP JUMP JUMPDEST PUSH1 0x1 DUP2 PUSH1 0x4 DUP2 LT PUSH2 0x321 JUMPI PUSH1 0x0 DUP1 REVERT JUMPDEST ADD PUSH1 0x0 SWAP2 POP SWAP1 POP SLOAD DUP2 JUMP JUMPDEST PUSH1 0x0 DUP2 DUP2 SLOAD DUP2 LT PUSH2 0x33C JUMPI PUSH1 0x0 DUP1 REVERT JUMPDEST SWAP1 PUSH1 0x0 MSTORE PUSH1 0x20 PUSH1 0x0 KECCAK256 ADD PUSH1 0x0 SWAP2 POP SWAP1 POP SLOAD DUP2 JUMP JUMPDEST PUSH1 0x40 MLOAD DUP1 PUSH1 0x80 ADD PUSH1 0x40 MSTORE DUP1 PUSH1 0x4 SWAP1 PUSH1 0x20 DUP3 MUL DUP1 CALLDATASIZE DUP4 CALLDATACOPY DUP1 DUP3 ADD SWAP2 POP POP SWAP1 POP POP SWAP1 JUMP JUMPDEST POP PUSH1 0x0 DUP2 SSTORE PUSH1 0x1 ADD PUSH1 0x0 DUP2 SSTORE PUSH1 0x1 ADD PUSH1 0x0 DUP2 SSTORE PUSH1 0x1 ADD PUSH1 0x0 SWAP1 SSTORE JUMP JUMPDEST PUSH1 0x0 DUP2 MLOAD SWAP1 POP SWAP2 SWAP1 POP JUMP JUMPDEST PUSH1 0x0 DUP3 DUP3 MSTORE PUSH1 0x20 DUP3 ADD SWAP1 POP SWAP3 SWAP2 POP POP JUMP JUMPDEST PUSH1 0x0 DUP2 SWAP1 POP PUSH1 0x20 DUP3 ADD SWAP1 POP SWAP2 SWAP1 POP JUMP JUMPDEST PUSH1 0x0 DUP2 SWAP1 POP SWAP2 SWAP1 POP JUMP JUMPDEST PUSH2 0x3CD DUP2 PUSH2 0x3BA JUMP JUMPDEST DUP3 MSTORE POP POP JUMP JUMPDEST PUSH1 0x0 PUSH2 0x3DF DUP4 DUP4 PUSH2 0x3C4 JUMP JUMPDEST PUSH1 0x20 DUP4 ADD SWAP1 POP SWAP3 SWAP2 POP POP JUMP JUMPDEST PUSH1 0x0 PUSH1 0x20 DUP3 ADD SWAP1 POP SWAP2 SWAP1 POP JUMP JUMPDEST PUSH1 0x0 PUSH2 0x403 DUP3 PUSH2 0x38E JUMP JUMPDEST PUSH2 0x40D DUP2 DUP6 PUSH2 0x399 JUMP JUMPDEST SWAP4 POP PUSH2 0x418 DUP4 PUSH2 0x3AA JUMP JUMPDEST DUP1 PUSH1 0x0 JUMPDEST DUP4 DUP2 LT ISZERO PUSH2 0x449 JUMPI DUP2 MLOAD PUSH2 0x430 DUP9 DUP3 PUSH2 0x3D3 JUMP JUMPDEST SWAP8 POP PUSH2 0x43B DUP4 PUSH2 0x3EB JUMP JUMPDEST SWAP3 POP POP PUSH1 0x1 DUP2 ADD SWAP1 POP PUSH2 0x41C JUMP JUMPDEST POP DUP6 SWAP4 POP POP POP POP SWAP3 SWAP2 POP POP JUMP JUMPDEST PUSH1 0x0 PUSH1 0x4 SWAP1 POP SWAP2 SWAP1 POP JUMP JUMPDEST PUSH1 0x0 DUP2 SWAP1 POP SWAP3 SWAP2 POP POP JUMP JUMPDEST PUSH1 0x0 DUP2 SWAP1 POP SWAP2 SWAP1 POP JUMP JUMPDEST PUSH1 0x0 PUSH1 0x20 DUP3 ADD SWAP1 POP SWAP2 SWAP1 POP JUMP JUMPDEST PUSH2 0x48C DUP2 PUSH2 0x456 JUMP JUMPDEST PUSH2 0x496 DUP2 DUP5 PUSH2 0x461 JUMP JUMPDEST SWAP3 POP PUSH2 0x4A1 DUP3 PUSH2 0x46C JUMP JUMPDEST DUP1 PUSH1 0x0 JUMPDEST DUP4 DUP2 LT ISZERO PUSH2 0x4D2 JUMPI DUP2 MLOAD PUSH2 0x4B9 DUP8 DUP3 PUSH2 0x3D3 JUMP JUMPDEST SWAP7 POP PUSH2 0x4C4 DUP4 PUSH2 0x476 JUMP JUMPDEST SWAP3 POP POP PUSH1 0x1 DUP2 ADD SWAP1 POP PUSH2 0x4A5 JUMP JUMPDEST POP POP POP POP POP POP JUMP JUMPDEST PUSH1 0x0 PUSH1 0xA0 DUP3 ADD SWAP1 POP DUP2 DUP2 SUB PUSH1 0x0 DUP4 ADD MSTORE PUSH2 0x4F4 DUP2 DUP6 PUSH2 0x3F8 JUMP JUMPDEST SWAP1 POP PUSH2 0x503 PUSH1 0x20 DUP4 ADD DUP5 PUSH2 0x483 JUMP JUMPDEST SWAP4 SWAP3 POP POP POP JUMP JUMPDEST PUSH2 0x513 DUP2 PUSH2 0x3BA JUMP JUMPDEST DUP3 MSTORE POP POP JUMP JUMPDEST PUSH1 0x0 PUSH1 0x20 DUP3 ADD SWAP1 POP PUSH2 0x52E PUSH1 0x0 DUP4 ADD DUP5 PUSH2 0x50A JUMP JUMPDEST SWAP3 SWAP2 POP POP JUMP JUMPDEST PUSH1 0x0 DUP1 REVERT JUMPDEST PUSH2 0x542 DUP2 PUSH2 0x3BA JUMP JUMPDEST DUP2 EQ PUSH2 0x54D JUMPI PUSH1 0x0 DUP1 REVERT JUMPDEST POP JUMP JUMPDEST PUSH1 0x0 DUP2 CALLDATALOAD SWAP1 POP PUSH2 0x55F DUP2 PUSH2 0x539 JUMP JUMPDEST SWAP3 SWAP2 POP POP JUMP JUMPDEST PUSH1 0x0 PUSH1 0x20 DUP3 DUP5 SUB SLT ISZERO PUSH2 0x57B JUMPI PUSH2 0x57A PUSH2 0x534 JUMP JUMPDEST JUMPDEST PUSH1 0x0 PUSH2 0x589 DUP5 DUP3 DUP6 ADD PUSH2 0x550 JUMP JUMPDEST SWAP2 POP POP SWAP3 SWAP2 POP POP JUMP JUMPDEST PUSH1 0x0 DUP1 PUSH1 0x40 DUP4 DUP6 SUB SLT ISZERO PUSH2 0x5A9 JUMPI PUSH2 0x5A8 PUSH2 0x534 JUMP JUMPDEST JUMPDEST PUSH1 0x0 PUSH2 0x5B7 DUP6 DUP3 DUP7 ADD PUSH2 0x550 JUMP JUMPDEST SWAP3 POP POP PUSH1 0x20 PUSH2 0x5C8 DUP6 DUP3 DUP7 ADD PUSH2 0x550 JUMP JUMPDEST SWAP2 POP POP SWAP3 POP SWAP3 SWAP1 POP JUMP JUMPDEST PUSH32 0x4E487B7100000000000000000000000000000000000000000000000000000000 PUSH1 0x0 MSTORE PUSH1 0x32 PUSH1 0x4 MSTORE PUSH1 0x24 PUSH1 0x0 REVERT JUMPDEST PUSH32 0x4E487B7100000000000000000000000000000000000000000000000000000000 PUSH1 0x0 MSTORE PUSH1 0x11 PUSH1 0x4 MSTORE PUSH1 0x24 PUSH1 0x0 REVERT JUMPDEST PUSH1 0x0 PUSH2 0x63B DUP3 PUSH2 0x3BA JUMP JUMPDEST SWAP2 POP PUSH32 0xFFFFFFFFFFFFFFFFFFFFFFFFFFFFFFFFFFFFFFFFFFFFFFFFFFFFFFFFFFFFFFFF DUP3 SUB PUSH2 0x66D JUMPI PUSH2 0x66C PUSH2 0x601 JUMP JUMPDEST JUMPDEST PUSH1 0x1 DUP3 ADD SWAP1 POP SWAP2 SWAP1 POP JUMP JUMPDEST PUSH1 0x0 PUSH2 0x683 DUP3 PUSH2 0x3BA JUMP JUMPDEST SWAP2 POP PUSH2 0x68E DUP4 PUSH2 0x3BA JUMP JUMPDEST SWAP3 POP DUP3 DUP3 SUB SWAP1 POP DUP2 DUP2 GT ISZERO PUSH2 0x6A6 JUMPI PUSH2 0x6A5 PUSH2 0x601 JUMP JUMPDEST JUMPDEST SWAP3 SWAP2 POP POP JUMP INVALID LOG2 PUSH5 0x6970667358 0x22 SLT KECCAK256 0xE1 DELEGATECALL 0xBB DUP11 SWAP3 PUSH5 0x4451CD7A6F GAS REVERT 0xAC REVERT 0x1F BLOCKHASH 0xF8 JUMPDEST 0xEE DUP6 PUSH16 0xF566F5CC1D7C5D373F3F64736F6C6343 STOP ADDMOD SLT STOP CALLER "
				},
				"gasEstimates": {
					"creation": {
						"codeDepositCost": "352400",
						"executionCost": "393",
						"totalCost": "352793"
					},
					"external": {
						"a(uint256)": "infinite",
						"b(uint256)": "infinite",
						"getAB()": "infinite",
						"getLengthOfB()": "infinite",
						"pushA(uint256)": "46874",
						"pushB(uint256,uint256)": "infinite",
						"pushB2(uint256)": "infinite"
					}
				},
				"methodIdentifiers": {
					"a(uint256)": "f0fdf834",
					"b(uint256)": "cd580ff3",
					"getAB()": "2b06cb2d",
					"getLengthOfB()": "2f7664fc",
					"pushA(uint256)": "40bb882d",
					"pushB(uint256,uint256)": "c1f69ac3",
					"pushB2(uint256)": "b97f7202"
				}
			},
			"storageLayout": {
				"storage": [
					{
						"astId": 515,
						"contract": "contracts/0516/Quiz.sol:FixedDynamic",
						"label": "a",
						"offset": 0,
						"slot": "0",
						"type": "t_array(t_uint256)dyn_storage"
					},
					{
						"astId": 519,
						"contract": "contracts/0516/Quiz.sol:FixedDynamic",
						"label": "b",
						"offset": 0,
						"slot": "1",
						"type": "t_array(t_uint256)4_storage"
					}
				],
				"types": {
					"t_array(t_uint256)4_storage": {
						"base": "t_uint256",
						"encoding": "inplace",
						"label": "uint256[4]",
						"numberOfBytes": "128"
					},
					"t_array(t_uint256)dyn_storage": {
						"base": "t_uint256",
						"encoding": "dynamic_array",
						"label": "uint256[]",
						"numberOfBytes": "32"
					},
					"t_uint256": {
						"encoding": "inplace",
						"label": "uint256",
						"numberOfBytes": "32"
					}
				}
			},
			"userdoc": {
				"kind": "user",
				"methods": {},
				"version": 1
			}
		}
	}
}