{
	"contracts/0516/visibility.sol": {
		"MOM": {
			"abi": [
				{
					"inputs": [
						{
							"internalType": "address",
							"name": "_a",
							"type": "address"
						}
					],
					"stateMutability": "nonpayable",
					"type": "constructor"
				},
				{
					"inputs": [],
					"name": "getRealWallet",
					"outputs": [
						{
							"internalType": "uint256",
							"name": "",
							"type": "uint256"
						}
					],
					"stateMutability": "view",
					"type": "function"
				},
				{
					"inputs": [],
					"name": "getWallet",
					"outputs": [
						{
							"internalType": "uint256",
							"name": "",
							"type": "uint256"
						}
					],
					"stateMutability": "view",
					"type": "function"
				},
				{
					"inputs": [
						{
							"internalType": "address",
							"name": "_a",
							"type": "address"
						}
					],
					"name": "setDad",
					"outputs": [
						{
							"internalType": "uint256",
							"name": "",
							"type": "uint256"
						}
					],
					"stateMutability": "view",
					"type": "function"
				}
			],
			"devdoc": {
				"kind": "dev",
				"methods": {},
				"version": 1
			},
			"evm": {
				"assembly": "    /* \"contracts/0516/visibility.sol\":1574:2191  contract MOM {... */\n  mstore(0x40, 0x80)\n    /* \"contracts/0516/visibility.sol\":1608:1617  new DAD() */\n  mload(0x40)\n  tag_1\n  swap1\n  tag_2\n  jump\t// in\ntag_1:\n  mload(0x40)\n  dup1\n  swap2\n  sub\n  swap1\n  0x00\n  create\n  dup1\n  iszero\n  dup1\n  iszero\n  tag_3\n  jumpi\n  returndatasize\n  0x00\n  dup1\n  returndatacopy\n  revert(0x00, returndatasize)\ntag_3:\n  pop\n    /* \"contracts/0516/visibility.sol\":1594:1617  DAD husband = new DAD() */\n  0x00\n  dup1\n  0x0100\n  exp\n  dup2\n  sload\n  dup2\n  0xffffffffffffffffffffffffffffffffffffffff\n  mul\n  not\n  and\n  swap1\n  dup4\n  0xffffffffffffffffffffffffffffffffffffffff\n  and\n  mul\n  or\n  swap1\n  sstore\n  pop\n    /* \"contracts/0516/visibility.sol\":1677:1741  constructor(address _a) {... */\n  callvalue\n  dup1\n  iszero\n  tag_4\n  jumpi\n  0x00\n  dup1\n  revert\ntag_4:\n  pop\n  mload(0x40)\n  sub(codesize, bytecodeSize)\n  dup1\n  bytecodeSize\n  dup4\n  codecopy\n  dup2\n  dup2\n  add\n  0x40\n  mstore\n  dup2\n  add\n  swap1\n  tag_5\n  swap2\n  swap1\n  tag_6\n  jump\t// in\ntag_5:\n    /* \"contracts/0516/visibility.sol\":1730:1732  _a */\n  dup1\n    /* \"contracts/0516/visibility.sol\":1712:1723  realHusband */\n  0x01\n  0x00\n    /* \"contracts/0516/visibility.sol\":1712:1733  realHusband = DAD(_a) */\n  0x0100\n  exp\n  dup2\n  sload\n  dup2\n  0xffffffffffffffffffffffffffffffffffffffff\n  mul\n  not\n  and\n  swap1\n  dup4\n  0xffffffffffffffffffffffffffffffffffffffff\n  and\n  mul\n  or\n  swap1\n  sstore\n  pop\n    /* \"contracts/0516/visibility.sol\":1677:1741  constructor(address _a) {... */\n  pop\n    /* \"contracts/0516/visibility.sol\":1574:2191  contract MOM {... */\n  jump(tag_9)\ntag_2:\n  dataSize(sub_1)\n  dup1\n  dataOffset(sub_1)\n  dup4\n  codecopy\n  add\n  swap1\n  jump\t// out\n    /* \"#utility.yul\":88:205   */\ntag_11:\n    /* \"#utility.yul\":197:198   */\n  0x00\n    /* \"#utility.yul\":194:195   */\n  dup1\n    /* \"#utility.yul\":187:199   */\n  revert\n    /* \"#utility.yul\":334:460   */\ntag_13:\n    /* \"#utility.yul\":371:378   */\n  0x00\n    /* \"#utility.yul\":411:453   */\n  0xffffffffffffffffffffffffffffffffffffffff\n    /* \"#utility.yul\":404:409   */\n  dup3\n    /* \"#utility.yul\":400:454   */\n  and\n    /* \"#utility.yul\":389:454   */\n  swap1\n  pop\n    /* \"#utility.yul\":334:460   */\n  swap2\n  swap1\n  pop\n  jump\t// out\n    /* \"#utility.yul\":466:562   */\ntag_14:\n    /* \"#utility.yul\":503:510   */\n  0x00\n    /* \"#utility.yul\":532:556   */\n  tag_23\n    /* \"#utility.yul\":550:555   */\n  dup3\n    /* \"#utility.yul\":532:556   */\n  tag_13\n  jump\t// in\ntag_23:\n    /* \"#utility.yul\":521:556   */\n  swap1\n  pop\n    /* \"#utility.yul\":466:562   */\n  swap2\n  swap1\n  pop\n  jump\t// out\n    /* \"#utility.yul\":568:690   */\ntag_15:\n    /* \"#utility.yul\":641:665   */\n  tag_25\n    /* \"#utility.yul\":659:664   */\n  dup2\n    /* \"#utility.yul\":641:665   */\n  tag_14\n  jump\t// in\ntag_25:\n    /* \"#utility.yul\":634:639   */\n  dup2\n    /* \"#utility.yul\":631:666   */\n  eq\n    /* \"#utility.yul\":621:684   */\n  tag_26\n  jumpi\n    /* \"#utility.yul\":680:681   */\n  0x00\n    /* \"#utility.yul\":677:678   */\n  dup1\n    /* \"#utility.yul\":670:682   */\n  revert\n    /* \"#utility.yul\":621:684   */\ntag_26:\n    /* \"#utility.yul\":568:690   */\n  pop\n  jump\t// out\n    /* \"#utility.yul\":696:839   */\ntag_16:\n    /* \"#utility.yul\":753:758   */\n  0x00\n    /* \"#utility.yul\":784:790   */\n  dup2\n    /* \"#utility.yul\":778:791   */\n  mload\n    /* \"#utility.yul\":769:791   */\n  swap1\n  pop\n    /* \"#utility.yul\":800:833   */\n  tag_28\n    /* \"#utility.yul\":827:832   */\n  dup2\n    /* \"#utility.yul\":800:833   */\n  tag_15\n  jump\t// in\ntag_28:\n    /* \"#utility.yul\":696:839   */\n  swap3\n  swap2\n  pop\n  pop\n  jump\t// out\n    /* \"#utility.yul\":845:1196   */\ntag_6:\n    /* \"#utility.yul\":915:921   */\n  0x00\n    /* \"#utility.yul\":964:966   */\n  0x20\n    /* \"#utility.yul\":952:961   */\n  dup3\n    /* \"#utility.yul\":943:950   */\n  dup5\n    /* \"#utility.yul\":939:962   */\n  sub\n    /* \"#utility.yul\":935:967   */\n  slt\n    /* \"#utility.yul\":932:1051   */\n  iszero\n  tag_30\n  jumpi\n    /* \"#utility.yul\":970:1049   */\n  tag_31\n  tag_11\n  jump\t// in\ntag_31:\n    /* \"#utility.yul\":932:1051   */\ntag_30:\n    /* \"#utility.yul\":1090:1091   */\n  0x00\n    /* \"#utility.yul\":1115:1179   */\n  tag_32\n    /* \"#utility.yul\":1171:1178   */\n  dup5\n    /* \"#utility.yul\":1162:1168   */\n  dup3\n    /* \"#utility.yul\":1151:1160   */\n  dup6\n    /* \"#utility.yul\":1147:1169   */\n  add\n    /* \"#utility.yul\":1115:1179   */\n  tag_16\n  jump\t// in\ntag_32:\n    /* \"#utility.yul\":1105:1179   */\n  swap2\n  pop\n    /* \"#utility.yul\":1061:1189   */\n  pop\n    /* \"#utility.yul\":845:1196   */\n  swap3\n  swap2\n  pop\n  pop\n  jump\t// out\n    /* \"contracts/0516/visibility.sol\":1574:2191  contract MOM {... */\ntag_9:\n  dataSize(sub_0)\n  dup1\n  dataOffset(sub_0)\n  0x00\n  codecopy\n  0x00\n  return\nstop\n\nsub_0: assembly {\n        /* \"contracts/0516/visibility.sol\":1574:2191  contract MOM {... */\n      mstore(0x40, 0x80)\n      callvalue\n      dup1\n      iszero\n      tag_1\n      jumpi\n      0x00\n      dup1\n      revert\n    tag_1:\n      pop\n      jumpi(tag_2, lt(calldatasize, 0x04))\n      shr(0xe0, calldataload(0x00))\n      dup1\n      0x13299604\n      eq\n      tag_3\n      jumpi\n      dup1\n      0x1beb761a\n      eq\n      tag_4\n      jumpi\n      dup1\n      0x457cb82f\n      eq\n      tag_5\n      jumpi\n    tag_2:\n      0x00\n      dup1\n      revert\n        /* \"contracts/0516/visibility.sol\":1749:1839  function getWallet() public view returns (uint){... */\n    tag_3:\n      tag_6\n      tag_7\n      jump\t// in\n    tag_6:\n      mload(0x40)\n      tag_8\n      swap2\n      swap1\n      tag_9\n      jump\t// in\n    tag_8:\n      mload(0x40)\n      dup1\n      swap2\n      sub\n      swap1\n      return\n        /* \"contracts/0516/visibility.sol\":1847:1945  function getRealWallet() public view returns (uint) {... */\n    tag_4:\n      tag_10\n      tag_11\n      jump\t// in\n    tag_10:\n      mload(0x40)\n      tag_12\n      swap2\n      swap1\n      tag_9\n      jump\t// in\n    tag_12:\n      mload(0x40)\n      dup1\n      swap2\n      sub\n      swap1\n      return\n        /* \"contracts/0516/visibility.sol\":1953:2080  function setDad(address _a) public view returns(uint){... */\n    tag_5:\n      tag_13\n      0x04\n      dup1\n      calldatasize\n      sub\n      dup2\n      add\n      swap1\n      tag_14\n      swap2\n      swap1\n      tag_15\n      jump\t// in\n    tag_14:\n      tag_16\n      jump\t// in\n    tag_13:\n      mload(0x40)\n      tag_17\n      swap2\n      swap1\n      tag_9\n      jump\t// in\n    tag_17:\n      mload(0x40)\n      dup1\n      swap2\n      sub\n      swap1\n      return\n        /* \"contracts/0516/visibility.sol\":1749:1839  function getWallet() public view returns (uint){... */\n    tag_7:\n        /* \"contracts/0516/visibility.sol\":1791:1795  uint */\n      0x00\n        /* \"contracts/0516/visibility.sol\":1815:1822  husband */\n      dup1\n      0x00\n      swap1\n      sload\n      swap1\n      0x0100\n      exp\n      swap1\n      div\n      0xffffffffffffffffffffffffffffffffffffffff\n      and\n        /* \"contracts/0516/visibility.sol\":1815:1829  husband.wallet */\n      0xffffffffffffffffffffffffffffffffffffffff\n      and\n      0x521eb273\n        /* \"contracts/0516/visibility.sol\":1815:1831  husband.wallet() */\n      mload(0x40)\n      dup2\n      0xffffffff\n      and\n      0xe0\n      shl\n      dup2\n      mstore\n      0x04\n      add\n      0x20\n      mload(0x40)\n      dup1\n      dup4\n      sub\n      dup2\n      dup7\n      gas\n      staticcall\n      iszero\n      dup1\n      iszero\n      tag_20\n      jumpi\n      returndatasize\n      0x00\n      dup1\n      returndatacopy\n      revert(0x00, returndatasize)\n    tag_20:\n      pop\n      pop\n      pop\n      pop\n      mload(0x40)\n      returndatasize\n      not(0x1f)\n      0x1f\n      dup3\n      add\n      and\n      dup3\n      add\n      dup1\n      0x40\n      mstore\n      pop\n      dup2\n      add\n      swap1\n      tag_21\n      swap2\n      swap1\n      tag_22\n      jump\t// in\n    tag_21:\n        /* \"contracts/0516/visibility.sol\":1807:1831  return  husband.wallet() */\n      swap1\n      pop\n        /* \"contracts/0516/visibility.sol\":1749:1839  function getWallet() public view returns (uint){... */\n      swap1\n      jump\t// out\n        /* \"contracts/0516/visibility.sol\":1847:1945  function getRealWallet() public view returns (uint) {... */\n    tag_11:\n        /* \"contracts/0516/visibility.sol\":1893:1897  uint */\n      0x00\n        /* \"contracts/0516/visibility.sol\":1917:1928  realHusband */\n      0x01\n      0x00\n      swap1\n      sload\n      swap1\n      0x0100\n      exp\n      swap1\n      div\n      0xffffffffffffffffffffffffffffffffffffffff\n      and\n        /* \"contracts/0516/visibility.sol\":1917:1935  realHusband.wallet */\n      0xffffffffffffffffffffffffffffffffffffffff\n      and\n      0x521eb273\n        /* \"contracts/0516/visibility.sol\":1917:1937  realHusband.wallet() */\n      mload(0x40)\n      dup2\n      0xffffffff\n      and\n      0xe0\n      shl\n      dup2\n      mstore\n      0x04\n      add\n      0x20\n      mload(0x40)\n      dup1\n      dup4\n      sub\n      dup2\n      dup7\n      gas\n      staticcall\n      iszero\n      dup1\n      iszero\n      tag_25\n      jumpi\n      returndatasize\n      0x00\n      dup1\n      returndatacopy\n      revert(0x00, returndatasize)\n    tag_25:\n      pop\n      pop\n      pop\n      pop\n      mload(0x40)\n      returndatasize\n      not(0x1f)\n      0x1f\n      dup3\n      add\n      and\n      dup3\n      add\n      dup1\n      0x40\n      mstore\n      pop\n      dup2\n      add\n      swap1\n      tag_26\n      swap2\n      swap1\n      tag_22\n      jump\t// in\n    tag_26:\n        /* \"contracts/0516/visibility.sol\":1910:1937  return realHusband.wallet() */\n      swap1\n      pop\n        /* \"contracts/0516/visibility.sol\":1847:1945  function getRealWallet() public view returns (uint) {... */\n      swap1\n      jump\t// out\n        /* \"contracts/0516/visibility.sol\":1953:2080  function setDad(address _a) public view returns(uint){... */\n    tag_16:\n        /* \"contracts/0516/visibility.sol\":2001:2005  uint */\n      0x00\n        /* \"contracts/0516/visibility.sol\":2017:2028  DAD copyDad */\n      dup1\n        /* \"contracts/0516/visibility.sol\":2035:2037  _a */\n      dup3\n        /* \"contracts/0516/visibility.sol\":2017:2038  DAD copyDad = DAD(_a) */\n      swap1\n      pop\n        /* \"contracts/0516/visibility.sol\":2056:2063  copyDad */\n      dup1\n        /* \"contracts/0516/visibility.sol\":2056:2070  copyDad.wallet */\n      0xffffffffffffffffffffffffffffffffffffffff\n      and\n      0x521eb273\n        /* \"contracts/0516/visibility.sol\":2056:2072  copyDad.wallet() */\n      mload(0x40)\n      dup2\n      0xffffffff\n      and\n      0xe0\n      shl\n      dup2\n      mstore\n      0x04\n      add\n      0x20\n      mload(0x40)\n      dup1\n      dup4\n      sub\n      dup2\n      dup7\n      gas\n      staticcall\n      iszero\n      dup1\n      iszero\n      tag_29\n      jumpi\n      returndatasize\n      0x00\n      dup1\n      returndatacopy\n      revert(0x00, returndatasize)\n    tag_29:\n      pop\n      pop\n      pop\n      pop\n      mload(0x40)\n      returndatasize\n      not(0x1f)\n      0x1f\n      dup3\n      add\n      and\n      dup3\n      add\n      dup1\n      0x40\n      mstore\n      pop\n      dup2\n      add\n      swap1\n      tag_30\n      swap2\n      swap1\n      tag_22\n      jump\t// in\n    tag_30:\n        /* \"contracts/0516/visibility.sol\":2049:2072  return copyDad.wallet() */\n      swap2\n      pop\n      pop\n        /* \"contracts/0516/visibility.sol\":1953:2080  function setDad(address _a) public view returns(uint){... */\n      swap2\n      swap1\n      pop\n      jump\t// out\n        /* \"#utility.yul\":7:84   */\n    tag_31:\n        /* \"#utility.yul\":44:51   */\n      0x00\n        /* \"#utility.yul\":73:78   */\n      dup2\n        /* \"#utility.yul\":62:78   */\n      swap1\n      pop\n        /* \"#utility.yul\":7:84   */\n      swap2\n      swap1\n      pop\n      jump\t// out\n        /* \"#utility.yul\":90:208   */\n    tag_32:\n        /* \"#utility.yul\":177:201   */\n      tag_45\n        /* \"#utility.yul\":195:200   */\n      dup2\n        /* \"#utility.yul\":177:201   */\n      tag_31\n      jump\t// in\n    tag_45:\n        /* \"#utility.yul\":172:175   */\n      dup3\n        /* \"#utility.yul\":165:202   */\n      mstore\n        /* \"#utility.yul\":90:208   */\n      pop\n      pop\n      jump\t// out\n        /* \"#utility.yul\":214:436   */\n    tag_9:\n        /* \"#utility.yul\":307:311   */\n      0x00\n        /* \"#utility.yul\":345:347   */\n      0x20\n        /* \"#utility.yul\":334:343   */\n      dup3\n        /* \"#utility.yul\":330:348   */\n      add\n        /* \"#utility.yul\":322:348   */\n      swap1\n      pop\n        /* \"#utility.yul\":358:429   */\n      tag_47\n        /* \"#utility.yul\":426:427   */\n      0x00\n        /* \"#utility.yul\":415:424   */\n      dup4\n        /* \"#utility.yul\":411:428   */\n      add\n        /* \"#utility.yul\":402:408   */\n      dup5\n        /* \"#utility.yul\":358:429   */\n      tag_32\n      jump\t// in\n    tag_47:\n        /* \"#utility.yul\":214:436   */\n      swap3\n      swap2\n      pop\n      pop\n      jump\t// out\n        /* \"#utility.yul\":523:640   */\n    tag_34:\n        /* \"#utility.yul\":632:633   */\n      0x00\n        /* \"#utility.yul\":629:630   */\n      dup1\n        /* \"#utility.yul\":622:634   */\n      revert\n        /* \"#utility.yul\":769:895   */\n    tag_36:\n        /* \"#utility.yul\":806:813   */\n      0x00\n        /* \"#utility.yul\":846:888   */\n      0xffffffffffffffffffffffffffffffffffffffff\n        /* \"#utility.yul\":839:844   */\n      dup3\n        /* \"#utility.yul\":835:889   */\n      and\n        /* \"#utility.yul\":824:889   */\n      swap1\n      pop\n        /* \"#utility.yul\":769:895   */\n      swap2\n      swap1\n      pop\n      jump\t// out\n        /* \"#utility.yul\":901:997   */\n    tag_37:\n        /* \"#utility.yul\":938:945   */\n      0x00\n        /* \"#utility.yul\":967:991   */\n      tag_53\n        /* \"#utility.yul\":985:990   */\n      dup3\n        /* \"#utility.yul\":967:991   */\n      tag_36\n      jump\t// in\n    tag_53:\n        /* \"#utility.yul\":956:991   */\n      swap1\n      pop\n        /* \"#utility.yul\":901:997   */\n      swap2\n      swap1\n      pop\n      jump\t// out\n        /* \"#utility.yul\":1003:1125   */\n    tag_38:\n        /* \"#utility.yul\":1076:1100   */\n      tag_55\n        /* \"#utility.yul\":1094:1099   */\n      dup2\n        /* \"#utility.yul\":1076:1100   */\n      tag_37\n      jump\t// in\n    tag_55:\n        /* \"#utility.yul\":1069:1074   */\n      dup2\n        /* \"#utility.yul\":1066:1101   */\n      eq\n        /* \"#utility.yul\":1056:1119   */\n      tag_56\n      jumpi\n        /* \"#utility.yul\":1115:1116   */\n      0x00\n        /* \"#utility.yul\":1112:1113   */\n      dup1\n        /* \"#utility.yul\":1105:1117   */\n      revert\n        /* \"#utility.yul\":1056:1119   */\n    tag_56:\n        /* \"#utility.yul\":1003:1125   */\n      pop\n      jump\t// out\n        /* \"#utility.yul\":1131:1270   */\n    tag_39:\n        /* \"#utility.yul\":1177:1182   */\n      0x00\n        /* \"#utility.yul\":1215:1221   */\n      dup2\n        /* \"#utility.yul\":1202:1222   */\n      calldataload\n        /* \"#utility.yul\":1193:1222   */\n      swap1\n      pop\n        /* \"#utility.yul\":1231:1264   */\n      tag_58\n        /* \"#utility.yul\":1258:1263   */\n      dup2\n        /* \"#utility.yul\":1231:1264   */\n      tag_38\n      jump\t// in\n    tag_58:\n        /* \"#utility.yul\":1131:1270   */\n      swap3\n      swap2\n      pop\n      pop\n      jump\t// out\n        /* \"#utility.yul\":1276:1605   */\n    tag_15:\n        /* \"#utility.yul\":1335:1341   */\n      0x00\n        /* \"#utility.yul\":1384:1386   */\n      0x20\n        /* \"#utility.yul\":1372:1381   */\n      dup3\n        /* \"#utility.yul\":1363:1370   */\n      dup5\n        /* \"#utility.yul\":1359:1382   */\n      sub\n        /* \"#utility.yul\":1355:1387   */\n      slt\n        /* \"#utility.yul\":1352:1471   */\n      iszero\n      tag_60\n      jumpi\n        /* \"#utility.yul\":1390:1469   */\n      tag_61\n      tag_34\n      jump\t// in\n    tag_61:\n        /* \"#utility.yul\":1352:1471   */\n    tag_60:\n        /* \"#utility.yul\":1510:1511   */\n      0x00\n        /* \"#utility.yul\":1535:1588   */\n      tag_62\n        /* \"#utility.yul\":1580:1587   */\n      dup5\n        /* \"#utility.yul\":1571:1577   */\n      dup3\n        /* \"#utility.yul\":1560:1569   */\n      dup6\n        /* \"#utility.yul\":1556:1578   */\n      add\n        /* \"#utility.yul\":1535:1588   */\n      tag_39\n      jump\t// in\n    tag_62:\n        /* \"#utility.yul\":1525:1588   */\n      swap2\n      pop\n        /* \"#utility.yul\":1481:1598   */\n      pop\n        /* \"#utility.yul\":1276:1605   */\n      swap3\n      swap2\n      pop\n      pop\n      jump\t// out\n        /* \"#utility.yul\":1611:1733   */\n    tag_40:\n        /* \"#utility.yul\":1684:1708   */\n      tag_64\n        /* \"#utility.yul\":1702:1707   */\n      dup2\n        /* \"#utility.yul\":1684:1708   */\n      tag_31\n      jump\t// in\n    tag_64:\n        /* \"#utility.yul\":1677:1682   */\n      dup2\n        /* \"#utility.yul\":1674:1709   */\n      eq\n        /* \"#utility.yul\":1664:1727   */\n      tag_65\n      jumpi\n        /* \"#utility.yul\":1723:1724   */\n      0x00\n        /* \"#utility.yul\":1720:1721   */\n      dup1\n        /* \"#utility.yul\":1713:1725   */\n      revert\n        /* \"#utility.yul\":1664:1727   */\n    tag_65:\n        /* \"#utility.yul\":1611:1733   */\n      pop\n      jump\t// out\n        /* \"#utility.yul\":1739:1882   */\n    tag_41:\n        /* \"#utility.yul\":1796:1801   */\n      0x00\n        /* \"#utility.yul\":1827:1833   */\n      dup2\n        /* \"#utility.yul\":1821:1834   */\n      mload\n        /* \"#utility.yul\":1812:1834   */\n      swap1\n      pop\n        /* \"#utility.yul\":1843:1876   */\n      tag_67\n        /* \"#utility.yul\":1870:1875   */\n      dup2\n        /* \"#utility.yul\":1843:1876   */\n      tag_40\n      jump\t// in\n    tag_67:\n        /* \"#utility.yul\":1739:1882   */\n      swap3\n      swap2\n      pop\n      pop\n      jump\t// out\n        /* \"#utility.yul\":1888:2239   */\n    tag_22:\n        /* \"#utility.yul\":1958:1964   */\n      0x00\n        /* \"#utility.yul\":2007:2009   */\n      0x20\n        /* \"#utility.yul\":1995:2004   */\n      dup3\n        /* \"#utility.yul\":1986:1993   */\n      dup5\n        /* \"#utility.yul\":1982:2005   */\n      sub\n        /* \"#utility.yul\":1978:2010   */\n      slt\n        /* \"#utility.yul\":1975:2094   */\n      iszero\n      tag_69\n      jumpi\n        /* \"#utility.yul\":2013:2092   */\n      tag_70\n      tag_34\n      jump\t// in\n    tag_70:\n        /* \"#utility.yul\":1975:2094   */\n    tag_69:\n        /* \"#utility.yul\":2133:2134   */\n      0x00\n        /* \"#utility.yul\":2158:2222   */\n      tag_71\n        /* \"#utility.yul\":2214:2221   */\n      dup5\n        /* \"#utility.yul\":2205:2211   */\n      dup3\n        /* \"#utility.yul\":2194:2203   */\n      dup6\n        /* \"#utility.yul\":2190:2212   */\n      add\n        /* \"#utility.yul\":2158:2222   */\n      tag_41\n      jump\t// in\n    tag_71:\n        /* \"#utility.yul\":2148:2222   */\n      swap2\n      pop\n        /* \"#utility.yul\":2104:2232   */\n      pop\n        /* \"#utility.yul\":1888:2239   */\n      swap3\n      swap2\n      pop\n      pop\n      jump\t// out\n\n    auxdata: 0xa2646970667358221220a6a914cbabd71b52a7a0fe60eca2b1467d72ddaf0cc61ae9909f41e11cac907464736f6c63430008120033\n}\n\nsub_1: assembly {\n        /* \"contracts/0516/visibility.sol\":1020:1570  contract DAD {... */\n      mstore(0x40, 0x80)\n        /* \"contracts/0516/visibility.sol\":1126:1129  100 */\n      0x64\n        /* \"contracts/0516/visibility.sol\":1107:1129  uint public wallet=100 */\n      0x02\n      sstore\n        /* \"contracts/0516/visibility.sol\":1184:1188  1000 */\n      0x03e8\n        /* \"contracts/0516/visibility.sol\":1163:1188  uint internal crypto=1000 */\n      0x03\n      sstore\n        /* \"contracts/0516/visibility.sol\":1273:1278  10000 */\n      0x2710\n        /* \"contracts/0516/visibility.sol\":1250:1278  uint private emergency=10000 */\n      0x04\n      sstore\n        /* \"contracts/0516/visibility.sol\":1020:1570  contract DAD {... */\n      callvalue\n      dup1\n      iszero\n      tag_1\n      jumpi\n      0x00\n      dup1\n      revert\n    tag_1:\n      pop\n      dataSize(sub_0)\n      dup1\n      dataOffset(sub_0)\n      0x00\n      codecopy\n      0x00\n      return\n    stop\n\n    sub_0: assembly {\n            /* \"contracts/0516/visibility.sol\":1020:1570  contract DAD {... */\n          mstore(0x40, 0x80)\n          callvalue\n          dup1\n          iszero\n          tag_1\n          jumpi\n          0x00\n          dup1\n          revert\n        tag_1:\n          pop\n          jumpi(tag_2, lt(calldatasize, 0x04))\n          shr(0xe0, calldataload(0x00))\n          dup1\n          0x4df7e3d0\n          eq\n          tag_3\n          jumpi\n          dup1\n          0x521eb273\n          eq\n          tag_4\n          jumpi\n        tag_2:\n          0x00\n          dup1\n          revert\n            /* \"contracts/0516/visibility.sol\":1082:1098  address public b */\n        tag_3:\n          tag_5\n          tag_6\n          jump\t// in\n        tag_5:\n          mload(0x40)\n          tag_7\n          swap2\n          swap1\n          tag_8\n          jump\t// in\n        tag_7:\n          mload(0x40)\n          dup1\n          swap2\n          sub\n          swap1\n          return\n            /* \"contracts/0516/visibility.sol\":1107:1129  uint public wallet=100 */\n        tag_4:\n          tag_9\n          tag_10\n          jump\t// in\n        tag_9:\n          mload(0x40)\n          tag_11\n          swap2\n          swap1\n          tag_12\n          jump\t// in\n        tag_11:\n          mload(0x40)\n          dup1\n          swap2\n          sub\n          swap1\n          return\n            /* \"contracts/0516/visibility.sol\":1082:1098  address public b */\n        tag_6:\n          0x01\n          0x00\n          swap1\n          sload\n          swap1\n          0x0100\n          exp\n          swap1\n          div\n          0xffffffffffffffffffffffffffffffffffffffff\n          and\n          dup2\n          jump\t// out\n            /* \"contracts/0516/visibility.sol\":1107:1129  uint public wallet=100 */\n        tag_10:\n          sload(0x02)\n          dup2\n          jump\t// out\n            /* \"#utility.yul\":7:133   */\n        tag_13:\n            /* \"#utility.yul\":44:51   */\n          0x00\n            /* \"#utility.yul\":84:126   */\n          0xffffffffffffffffffffffffffffffffffffffff\n            /* \"#utility.yul\":77:82   */\n          dup3\n            /* \"#utility.yul\":73:127   */\n          and\n            /* \"#utility.yul\":62:127   */\n          swap1\n          pop\n            /* \"#utility.yul\":7:133   */\n          swap2\n          swap1\n          pop\n          jump\t// out\n            /* \"#utility.yul\":139:235   */\n        tag_14:\n            /* \"#utility.yul\":176:183   */\n          0x00\n            /* \"#utility.yul\":205:229   */\n          tag_21\n            /* \"#utility.yul\":223:228   */\n          dup3\n            /* \"#utility.yul\":205:229   */\n          tag_13\n          jump\t// in\n        tag_21:\n            /* \"#utility.yul\":194:229   */\n          swap1\n          pop\n            /* \"#utility.yul\":139:235   */\n          swap2\n          swap1\n          pop\n          jump\t// out\n            /* \"#utility.yul\":241:359   */\n        tag_15:\n            /* \"#utility.yul\":328:352   */\n          tag_23\n            /* \"#utility.yul\":346:351   */\n          dup2\n            /* \"#utility.yul\":328:352   */\n          tag_14\n          jump\t// in\n        tag_23:\n            /* \"#utility.yul\":323:326   */\n          dup3\n            /* \"#utility.yul\":316:353   */\n          mstore\n            /* \"#utility.yul\":241:359   */\n          pop\n          pop\n          jump\t// out\n            /* \"#utility.yul\":365:587   */\n        tag_8:\n            /* \"#utility.yul\":458:462   */\n          0x00\n            /* \"#utility.yul\":496:498   */\n          0x20\n            /* \"#utility.yul\":485:494   */\n          dup3\n            /* \"#utility.yul\":481:499   */\n          add\n            /* \"#utility.yul\":473:499   */\n          swap1\n          pop\n            /* \"#utility.yul\":509:580   */\n          tag_25\n            /* \"#utility.yul\":577:578   */\n          0x00\n            /* \"#utility.yul\":566:575   */\n          dup4\n            /* \"#utility.yul\":562:579   */\n          add\n            /* \"#utility.yul\":553:559   */\n          dup5\n            /* \"#utility.yul\":509:580   */\n          tag_15\n          jump\t// in\n        tag_25:\n            /* \"#utility.yul\":365:587   */\n          swap3\n          swap2\n          pop\n          pop\n          jump\t// out\n            /* \"#utility.yul\":593:670   */\n        tag_16:\n            /* \"#utility.yul\":630:637   */\n          0x00\n            /* \"#utility.yul\":659:664   */\n          dup2\n            /* \"#utility.yul\":648:664   */\n          swap1\n          pop\n            /* \"#utility.yul\":593:670   */\n          swap2\n          swap1\n          pop\n          jump\t// out\n            /* \"#utility.yul\":676:794   */\n        tag_17:\n            /* \"#utility.yul\":763:787   */\n          tag_28\n            /* \"#utility.yul\":781:786   */\n          dup2\n            /* \"#utility.yul\":763:787   */\n          tag_16\n          jump\t// in\n        tag_28:\n            /* \"#utility.yul\":758:761   */\n          dup3\n            /* \"#utility.yul\":751:788   */\n          mstore\n            /* \"#utility.yul\":676:794   */\n          pop\n          pop\n          jump\t// out\n            /* \"#utility.yul\":800:1022   */\n        tag_12:\n            /* \"#utility.yul\":893:897   */\n          0x00\n            /* \"#utility.yul\":931:933   */\n          0x20\n            /* \"#utility.yul\":920:929   */\n          dup3\n            /* \"#utility.yul\":916:934   */\n          add\n            /* \"#utility.yul\":908:934   */\n          swap1\n          pop\n            /* \"#utility.yul\":944:1015   */\n          tag_30\n            /* \"#utility.yul\":1012:1013   */\n          0x00\n            /* \"#utility.yul\":1001:1010   */\n          dup4\n            /* \"#utility.yul\":997:1014   */\n          add\n            /* \"#utility.yul\":988:994   */\n          dup5\n            /* \"#utility.yul\":944:1015   */\n          tag_17\n          jump\t// in\n        tag_30:\n            /* \"#utility.yul\":800:1022   */\n          swap3\n          swap2\n          pop\n          pop\n          jump\t// out\n\n        auxdata: 0xa264697066735822122064138f76a9b5f20d2b02040448bb2e7ddbf1b0996c3519800b5547b5bd75a32e64736f6c63430008120033\n    }\n}\n",
				"bytecode": {
					"linkReferences": {},
					"object": "6080604052604051610010906100e1565b604051809103906000f08015801561002c573d6000803e3d6000fd5b506000806101000a81548173ffffffffffffffffffffffffffffffffffffffff021916908373ffffffffffffffffffffffffffffffffffffffff16021790555034801561007857600080fd5b506040516106d83803806106d8833981810160405281019061009a9190610151565b80600160006101000a81548173ffffffffffffffffffffffffffffffffffffffff021916908373ffffffffffffffffffffffffffffffffffffffff1602179055505061017e565b61019a8061053e83390190565b600080fd5b600073ffffffffffffffffffffffffffffffffffffffff82169050919050565b600061011e826100f3565b9050919050565b61012e81610113565b811461013957600080fd5b50565b60008151905061014b81610125565b92915050565b600060208284031215610167576101666100ee565b5b60006101758482850161013c565b91505092915050565b6103b18061018d6000396000f3fe608060405234801561001057600080fd5b50600436106100415760003560e01c806313299604146100465780631beb761a14610064578063457cb82f14610082575b600080fd5b61004e6100b2565b60405161005b9190610277565b60405180910390f35b61006c610149565b6040516100799190610277565b60405180910390f35b61009c600480360381019061009791906102f5565b6101e1565b6040516100a99190610277565b60405180910390f35b60008060009054906101000a900473ffffffffffffffffffffffffffffffffffffffff1673ffffffffffffffffffffffffffffffffffffffff1663521eb2736040518163ffffffff1660e01b8152600401602060405180830381865afa158015610120573d6000803e3d6000fd5b505050506040513d601f19601f82011682018060405250810190610144919061034e565b905090565b6000600160009054906101000a900473ffffffffffffffffffffffffffffffffffffffff1673ffffffffffffffffffffffffffffffffffffffff1663521eb2736040518163ffffffff1660e01b8152600401602060405180830381865afa1580156101b8573d6000803e3d6000fd5b505050506040513d601f19601f820116820180604052508101906101dc919061034e565b905090565b6000808290508073ffffffffffffffffffffffffffffffffffffffff1663521eb2736040518163ffffffff1660e01b8152600401602060405180830381865afa158015610232573d6000803e3d6000fd5b505050506040513d601f19601f82011682018060405250810190610256919061034e565b915050919050565b6000819050919050565b6102718161025e565b82525050565b600060208201905061028c6000830184610268565b92915050565b600080fd5b600073ffffffffffffffffffffffffffffffffffffffff82169050919050565b60006102c282610297565b9050919050565b6102d2816102b7565b81146102dd57600080fd5b50565b6000813590506102ef816102c9565b92915050565b60006020828403121561030b5761030a610292565b5b6000610319848285016102e0565b91505092915050565b61032b8161025e565b811461033657600080fd5b50565b60008151905061034881610322565b92915050565b60006020828403121561036457610363610292565b5b600061037284828501610339565b9150509291505056fea2646970667358221220a6a914cbabd71b52a7a0fe60eca2b1467d72ddaf0cc61ae9909f41e11cac907464736f6c63430008120033608060405260646002556103e860035561271060045534801561002157600080fd5b50610169806100316000396000f3fe608060405234801561001057600080fd5b50600436106100365760003560e01c80634df7e3d01461003b578063521eb27314610059575b600080fd5b610043610077565b60405161005091906100e4565b60405180910390f35b61006161009d565b60405161006e9190610118565b60405180910390f35b600160009054906101000a900473ffffffffffffffffffffffffffffffffffffffff1681565b60025481565b600073ffffffffffffffffffffffffffffffffffffffff82169050919050565b60006100ce826100a3565b9050919050565b6100de816100c3565b82525050565b60006020820190506100f960008301846100d5565b92915050565b6000819050919050565b610112816100ff565b82525050565b600060208201905061012d6000830184610109565b9291505056fea264697066735822122064138f76a9b5f20d2b02040448bb2e7ddbf1b0996c3519800b5547b5bd75a32e64736f6c63430008120033",
					"opcodes": "PUSH1 0x80 PUSH1 0x40 MSTORE PUSH1 0x40 MLOAD PUSH2 0x10 SWAP1 PUSH2 0xE1 JUMP JUMPDEST PUSH1 0x40 MLOAD DUP1 SWAP2 SUB SWAP1 PUSH1 0x0 CREATE DUP1 ISZERO DUP1 ISZERO PUSH2 0x2C JUMPI RETURNDATASIZE PUSH1 0x0 DUP1 RETURNDATACOPY RETURNDATASIZE PUSH1 0x0 REVERT JUMPDEST POP PUSH1 0x0 DUP1 PUSH2 0x100 EXP DUP2 SLOAD DUP2 PUSH20 0xFFFFFFFFFFFFFFFFFFFFFFFFFFFFFFFFFFFFFFFF MUL NOT AND SWAP1 DUP4 PUSH20 0xFFFFFFFFFFFFFFFFFFFFFFFFFFFFFFFFFFFFFFFF AND MUL OR SWAP1 SSTORE POP CALLVALUE DUP1 ISZERO PUSH2 0x78 JUMPI PUSH1 0x0 DUP1 REVERT JUMPDEST POP PUSH1 0x40 MLOAD PUSH2 0x6D8 CODESIZE SUB DUP1 PUSH2 0x6D8 DUP4 CODECOPY DUP2 DUP2 ADD PUSH1 0x40 MSTORE DUP2 ADD SWAP1 PUSH2 0x9A SWAP2 SWAP1 PUSH2 0x151 JUMP JUMPDEST DUP1 PUSH1 0x1 PUSH1 0x0 PUSH2 0x100 EXP DUP2 SLOAD DUP2 PUSH20 0xFFFFFFFFFFFFFFFFFFFFFFFFFFFFFFFFFFFFFFFF MUL NOT AND SWAP1 DUP4 PUSH20 0xFFFFFFFFFFFFFFFFFFFFFFFFFFFFFFFFFFFFFFFF AND MUL OR SWAP1 SSTORE POP POP PUSH2 0x17E JUMP JUMPDEST PUSH2 0x19A DUP1 PUSH2 0x53E DUP4 CODECOPY ADD SWAP1 JUMP JUMPDEST PUSH1 0x0 DUP1 REVERT JUMPDEST PUSH1 0x0 PUSH20 0xFFFFFFFFFFFFFFFFFFFFFFFFFFFFFFFFFFFFFFFF DUP3 AND SWAP1 POP SWAP2 SWAP1 POP JUMP JUMPDEST PUSH1 0x0 PUSH2 0x11E DUP3 PUSH2 0xF3 JUMP JUMPDEST SWAP1 POP SWAP2 SWAP1 POP JUMP JUMPDEST PUSH2 0x12E DUP2 PUSH2 0x113 JUMP JUMPDEST DUP2 EQ PUSH2 0x139 JUMPI PUSH1 0x0 DUP1 REVERT JUMPDEST POP JUMP JUMPDEST PUSH1 0x0 DUP2 MLOAD SWAP1 POP PUSH2 0x14B DUP2 PUSH2 0x125 JUMP JUMPDEST SWAP3 SWAP2 POP POP JUMP JUMPDEST PUSH1 0x0 PUSH1 0x20 DUP3 DUP5 SUB SLT ISZERO PUSH2 0x167 JUMPI PUSH2 0x166 PUSH2 0xEE JUMP JUMPDEST JUMPDEST PUSH1 0x0 PUSH2 0x175 DUP5 DUP3 DUP6 ADD PUSH2 0x13C JUMP JUMPDEST SWAP2 POP POP SWAP3 SWAP2 POP POP JUMP JUMPDEST PUSH2 0x3B1 DUP1 PUSH2 0x18D PUSH1 0x0 CODECOPY PUSH1 0x0 RETURN INVALID PUSH1 0x80 PUSH1 0x40 MSTORE CALLVALUE DUP1 ISZERO PUSH2 0x10 JUMPI PUSH1 0x0 DUP1 REVERT JUMPDEST POP PUSH1 0x4 CALLDATASIZE LT PUSH2 0x41 JUMPI PUSH1 0x0 CALLDATALOAD PUSH1 0xE0 SHR DUP1 PUSH4 0x13299604 EQ PUSH2 0x46 JUMPI DUP1 PUSH4 0x1BEB761A EQ PUSH2 0x64 JUMPI DUP1 PUSH4 0x457CB82F EQ PUSH2 0x82 JUMPI JUMPDEST PUSH1 0x0 DUP1 REVERT JUMPDEST PUSH2 0x4E PUSH2 0xB2 JUMP JUMPDEST PUSH1 0x40 MLOAD PUSH2 0x5B SWAP2 SWAP1 PUSH2 0x277 JUMP JUMPDEST PUSH1 0x40 MLOAD DUP1 SWAP2 SUB SWAP1 RETURN JUMPDEST PUSH2 0x6C PUSH2 0x149 JUMP JUMPDEST PUSH1 0x40 MLOAD PUSH2 0x79 SWAP2 SWAP1 PUSH2 0x277 JUMP JUMPDEST PUSH1 0x40 MLOAD DUP1 SWAP2 SUB SWAP1 RETURN JUMPDEST PUSH2 0x9C PUSH1 0x4 DUP1 CALLDATASIZE SUB DUP2 ADD SWAP1 PUSH2 0x97 SWAP2 SWAP1 PUSH2 0x2F5 JUMP JUMPDEST PUSH2 0x1E1 JUMP JUMPDEST PUSH1 0x40 MLOAD PUSH2 0xA9 SWAP2 SWAP1 PUSH2 0x277 JUMP JUMPDEST PUSH1 0x40 MLOAD DUP1 SWAP2 SUB SWAP1 RETURN JUMPDEST PUSH1 0x0 DUP1 PUSH1 0x0 SWAP1 SLOAD SWAP1 PUSH2 0x100 EXP SWAP1 DIV PUSH20 0xFFFFFFFFFFFFFFFFFFFFFFFFFFFFFFFFFFFFFFFF AND PUSH20 0xFFFFFFFFFFFFFFFFFFFFFFFFFFFFFFFFFFFFFFFF AND PUSH4 0x521EB273 PUSH1 0x40 MLOAD DUP2 PUSH4 0xFFFFFFFF AND PUSH1 0xE0 SHL DUP2 MSTORE PUSH1 0x4 ADD PUSH1 0x20 PUSH1 0x40 MLOAD DUP1 DUP4 SUB DUP2 DUP7 GAS STATICCALL ISZERO DUP1 ISZERO PUSH2 0x120 JUMPI RETURNDATASIZE PUSH1 0x0 DUP1 RETURNDATACOPY RETURNDATASIZE PUSH1 0x0 REVERT JUMPDEST POP POP POP POP PUSH1 0x40 MLOAD RETURNDATASIZE PUSH1 0x1F NOT PUSH1 0x1F DUP3 ADD AND DUP3 ADD DUP1 PUSH1 0x40 MSTORE POP DUP2 ADD SWAP1 PUSH2 0x144 SWAP2 SWAP1 PUSH2 0x34E JUMP JUMPDEST SWAP1 POP SWAP1 JUMP JUMPDEST PUSH1 0x0 PUSH1 0x1 PUSH1 0x0 SWAP1 SLOAD SWAP1 PUSH2 0x100 EXP SWAP1 DIV PUSH20 0xFFFFFFFFFFFFFFFFFFFFFFFFFFFFFFFFFFFFFFFF AND PUSH20 0xFFFFFFFFFFFFFFFFFFFFFFFFFFFFFFFFFFFFFFFF AND PUSH4 0x521EB273 PUSH1 0x40 MLOAD DUP2 PUSH4 0xFFFFFFFF AND PUSH1 0xE0 SHL DUP2 MSTORE PUSH1 0x4 ADD PUSH1 0x20 PUSH1 0x40 MLOAD DUP1 DUP4 SUB DUP2 DUP7 GAS STATICCALL ISZERO DUP1 ISZERO PUSH2 0x1B8 JUMPI RETURNDATASIZE PUSH1 0x0 DUP1 RETURNDATACOPY RETURNDATASIZE PUSH1 0x0 REVERT JUMPDEST POP POP POP POP PUSH1 0x40 MLOAD RETURNDATASIZE PUSH1 0x1F NOT PUSH1 0x1F DUP3 ADD AND DUP3 ADD DUP1 PUSH1 0x40 MSTORE POP DUP2 ADD SWAP1 PUSH2 0x1DC SWAP2 SWAP1 PUSH2 0x34E JUMP JUMPDEST SWAP1 POP SWAP1 JUMP JUMPDEST PUSH1 0x0 DUP1 DUP3 SWAP1 POP DUP1 PUSH20 0xFFFFFFFFFFFFFFFFFFFFFFFFFFFFFFFFFFFFFFFF AND PUSH4 0x521EB273 PUSH1 0x40 MLOAD DUP2 PUSH4 0xFFFFFFFF AND PUSH1 0xE0 SHL DUP2 MSTORE PUSH1 0x4 ADD PUSH1 0x20 PUSH1 0x40 MLOAD DUP1 DUP4 SUB DUP2 DUP7 GAS STATICCALL ISZERO DUP1 ISZERO PUSH2 0x232 JUMPI RETURNDATASIZE PUSH1 0x0 DUP1 RETURNDATACOPY RETURNDATASIZE PUSH1 0x0 REVERT JUMPDEST POP POP POP POP PUSH1 0x40 MLOAD RETURNDATASIZE PUSH1 0x1F NOT PUSH1 0x1F DUP3 ADD AND DUP3 ADD DUP1 PUSH1 0x40 MSTORE POP DUP2 ADD SWAP1 PUSH2 0x256 SWAP2 SWAP1 PUSH2 0x34E JUMP JUMPDEST SWAP2 POP POP SWAP2 SWAP1 POP JUMP JUMPDEST PUSH1 0x0 DUP2 SWAP1 POP SWAP2 SWAP1 POP JUMP JUMPDEST PUSH2 0x271 DUP2 PUSH2 0x25E JUMP JUMPDEST DUP3 MSTORE POP POP JUMP JUMPDEST PUSH1 0x0 PUSH1 0x20 DUP3 ADD SWAP1 POP PUSH2 0x28C PUSH1 0x0 DUP4 ADD DUP5 PUSH2 0x268 JUMP JUMPDEST SWAP3 SWAP2 POP POP JUMP JUMPDEST PUSH1 0x0 DUP1 REVERT JUMPDEST PUSH1 0x0 PUSH20 0xFFFFFFFFFFFFFFFFFFFFFFFFFFFFFFFFFFFFFFFF DUP3 AND SWAP1 POP SWAP2 SWAP1 POP JUMP JUMPDEST PUSH1 0x0 PUSH2 0x2C2 DUP3 PUSH2 0x297 JUMP JUMPDEST SWAP1 POP SWAP2 SWAP1 POP JUMP JUMPDEST PUSH2 0x2D2 DUP2 PUSH2 0x2B7 JUMP JUMPDEST DUP2 EQ PUSH2 0x2DD JUMPI PUSH1 0x0 DUP1 REVERT JUMPDEST POP JUMP JUMPDEST PUSH1 0x0 DUP2 CALLDATALOAD SWAP1 POP PUSH2 0x2EF DUP2 PUSH2 0x2C9 JUMP JUMPDEST SWAP3 SWAP2 POP POP JUMP JUMPDEST PUSH1 0x0 PUSH1 0x20 DUP3 DUP5 SUB SLT ISZERO PUSH2 0x30B JUMPI PUSH2 0x30A PUSH2 0x292 JUMP JUMPDEST JUMPDEST PUSH1 0x0 PUSH2 0x319 DUP5 DUP3 DUP6 ADD PUSH2 0x2E0 JUMP JUMPDEST SWAP2 POP POP SWAP3 SWAP2 POP POP JUMP JUMPDEST PUSH2 0x32B DUP2 PUSH2 0x25E JUMP JUMPDEST DUP2 EQ PUSH2 0x336 JUMPI PUSH1 0x0 DUP1 REVERT JUMPDEST POP JUMP JUMPDEST PUSH1 0x0 DUP2 MLOAD SWAP1 POP PUSH2 0x348 DUP2 PUSH2 0x322 JUMP JUMPDEST SWAP3 SWAP2 POP POP JUMP JUMPDEST PUSH1 0x0 PUSH1 0x20 DUP3 DUP5 SUB SLT ISZERO PUSH2 0x364 JUMPI PUSH2 0x363 PUSH2 0x292 JUMP JUMPDEST JUMPDEST PUSH1 0x0 PUSH2 0x372 DUP5 DUP3 DUP6 ADD PUSH2 0x339 JUMP JUMPDEST SWAP2 POP POP SWAP3 SWAP2 POP POP JUMP INVALID LOG2 PUSH5 0x6970667358 0x22 SLT KECCAK256 0xA6 0xA9 EQ 0xCB 0xAB 0xD7 SHL MSTORE 0xA7 LOG0 INVALID PUSH1 0xEC LOG2 0xB1 CHAINID PUSH30 0x72DDAF0CC61AE9909F41E11CAC907464736F6C6343000812003360806040 MSTORE PUSH1 0x64 PUSH1 0x2 SSTORE PUSH2 0x3E8 PUSH1 0x3 SSTORE PUSH2 0x2710 PUSH1 0x4 SSTORE CALLVALUE DUP1 ISZERO PUSH2 0x21 JUMPI PUSH1 0x0 DUP1 REVERT JUMPDEST POP PUSH2 0x169 DUP1 PUSH2 0x31 PUSH1 0x0 CODECOPY PUSH1 0x0 RETURN INVALID PUSH1 0x80 PUSH1 0x40 MSTORE CALLVALUE DUP1 ISZERO PUSH2 0x10 JUMPI PUSH1 0x0 DUP1 REVERT JUMPDEST POP PUSH1 0x4 CALLDATASIZE LT PUSH2 0x36 JUMPI PUSH1 0x0 CALLDATALOAD PUSH1 0xE0 SHR DUP1 PUSH4 0x4DF7E3D0 EQ PUSH2 0x3B JUMPI DUP1 PUSH4 0x521EB273 EQ PUSH2 0x59 JUMPI JUMPDEST PUSH1 0x0 DUP1 REVERT JUMPDEST PUSH2 0x43 PUSH2 0x77 JUMP JUMPDEST PUSH1 0x40 MLOAD PUSH2 0x50 SWAP2 SWAP1 PUSH2 0xE4 JUMP JUMPDEST PUSH1 0x40 MLOAD DUP1 SWAP2 SUB SWAP1 RETURN JUMPDEST PUSH2 0x61 PUSH2 0x9D JUMP JUMPDEST PUSH1 0x40 MLOAD PUSH2 0x6E SWAP2 SWAP1 PUSH2 0x118 JUMP JUMPDEST PUSH1 0x40 MLOAD DUP1 SWAP2 SUB SWAP1 RETURN JUMPDEST PUSH1 0x1 PUSH1 0x0 SWAP1 SLOAD SWAP1 PUSH2 0x100 EXP SWAP1 DIV PUSH20 0xFFFFFFFFFFFFFFFFFFFFFFFFFFFFFFFFFFFFFFFF AND DUP2 JUMP JUMPDEST PUSH1 0x2 SLOAD DUP2 JUMP JUMPDEST PUSH1 0x0 PUSH20 0xFFFFFFFFFFFFFFFFFFFFFFFFFFFFFFFFFFFFFFFF DUP3 AND SWAP1 POP SWAP2 SWAP1 POP JUMP JUMPDEST PUSH1 0x0 PUSH2 0xCE DUP3 PUSH2 0xA3 JUMP JUMPDEST SWAP1 POP SWAP2 SWAP1 POP JUMP JUMPDEST PUSH2 0xDE DUP2 PUSH2 0xC3 JUMP JUMPDEST DUP3 MSTORE POP POP JUMP JUMPDEST PUSH1 0x0 PUSH1 0x20 DUP3 ADD SWAP1 POP PUSH2 0xF9 PUSH1 0x0 DUP4 ADD DUP5 PUSH2 0xD5 JUMP JUMPDEST SWAP3 SWAP2 POP POP JUMP JUMPDEST PUSH1 0x0 DUP2 SWAP1 POP SWAP2 SWAP1 POP JUMP JUMPDEST PUSH2 0x112 DUP2 PUSH2 0xFF JUMP JUMPDEST DUP3 MSTORE POP POP JUMP JUMPDEST PUSH1 0x0 PUSH1 0x20 DUP3 ADD SWAP1 POP PUSH2 0x12D PUSH1 0x0 DUP4 ADD DUP5 PUSH2 0x109 JUMP JUMPDEST SWAP3 SWAP2 POP POP JUMP INVALID LOG2 PUSH5 0x6970667358 0x22 SLT KECCAK256 PUSH5 0x138F76A9B5 CALLCODE 0xD 0x2B MUL DIV DIV BASEFEE 0xBB 0x2E PUSH30 0xDBF1B0996C3519800B5547B5BD75A32E64736F6C63430008120033000000 "
				},
				"gasEstimates": {
					"creation": {
						"codeDepositCost": "189000",
						"executionCost": "infinite",
						"totalCost": "infinite"
					},
					"external": {
						"getRealWallet()": "infinite",
						"getWallet()": "infinite",
						"setDad(address)": "infinite"
					}
				},
				"methodIdentifiers": {
					"getRealWallet()": "1beb761a",
					"getWallet()": "13299604",
					"setDad(address)": "457cb82f"
				}
			},
			"storageLayout": {
				"storage": [
					{
						"astId": 177,
						"contract": "contracts/0516/visibility.sol:MOM",
						"label": "husband",
						"offset": 0,
						"slot": "0",
						"type": "t_contract(DAD)170"
					},
					{
						"astId": 180,
						"contract": "contracts/0516/visibility.sol:MOM",
						"label": "realHusband",
						"offset": 0,
						"slot": "1",
						"type": "t_contract(DAD)170"
					}
				],
				"types": {
					"t_contract(DAD)170": {
						"encoding": "inplace",
						"label": "contract DAD",
						"numberOfBytes": "20"
					}
				}
			},
			"userdoc": {
				"kind": "user",
				"methods": {},
				"version": 1
			}
		}
	}
}