{
	"contracts/0516/visibility.sol": {
		"GrandChild": {
			"abi": [
				{
					"inputs": [
						{
							"internalType": "uint256",
							"name": "a",
							"type": "uint256"
						},
						{
							"internalType": "uint256",
							"name": "b",
							"type": "uint256"
						}
					],
					"name": "add",
					"outputs": [
						{
							"internalType": "uint256",
							"name": "",
							"type": "uint256"
						}
					],
					"stateMutability": "pure",
					"type": "function"
				},
				{
					"inputs": [
						{
							"internalType": "uint256",
							"name": "a",
							"type": "uint256"
						},
						{
							"internalType": "uint256",
							"name": "b",
							"type": "uint256"
						}
					],
					"name": "addDoubleTime",
					"outputs": [
						{
							"internalType": "uint256",
							"name": "",
							"type": "uint256"
						}
					],
					"stateMutability": "pure",
					"type": "function"
				},
				{
					"inputs": [
						{
							"internalType": "uint256",
							"name": "a",
							"type": "uint256"
						},
						{
							"internalType": "uint256",
							"name": "b",
							"type": "uint256"
						}
					],
					"name": "div",
					"outputs": [
						{
							"internalType": "uint256",
							"name": "",
							"type": "uint256"
						}
					],
					"stateMutability": "pure",
					"type": "function"
				},
				{
					"inputs": [
						{
							"internalType": "uint256",
							"name": "a",
							"type": "uint256"
						},
						{
							"internalType": "uint256",
							"name": "b",
							"type": "uint256"
						}
					],
					"name": "mul",
					"outputs": [
						{
							"internalType": "uint256",
							"name": "",
							"type": "uint256"
						}
					],
					"stateMutability": "pure",
					"type": "function"
				},
				{
					"inputs": [
						{
							"internalType": "uint256",
							"name": "a",
							"type": "uint256"
						},
						{
							"internalType": "uint256",
							"name": "b",
							"type": "uint256"
						}
					],
					"name": "mul2",
					"outputs": [
						{
							"internalType": "uint256",
							"name": "",
							"type": "uint256"
						}
					],
					"stateMutability": "pure",
					"type": "function"
				}
			],
			"devdoc": {
				"kind": "dev",
				"methods": {},
				"version": 1
			},
			"evm": {
				"assembly": "    /* \"contracts/0516/visibility.sol\":751:874  contract GrandChild is Child {... */\n  mstore(0x40, 0x80)\n  callvalue\n  dup1\n  iszero\n  tag_1\n  jumpi\n  0x00\n  dup1\n  revert\ntag_1:\n  pop\n  dataSize(sub_0)\n  dup1\n  dataOffset(sub_0)\n  0x00\n  codecopy\n  0x00\n  return\nstop\n\nsub_0: assembly {\n        /* \"contracts/0516/visibility.sol\":751:874  contract GrandChild is Child {... */\n      mstore(0x40, 0x80)\n      callvalue\n      dup1\n      iszero\n      tag_1\n      jumpi\n      0x00\n      dup1\n      revert\n    tag_1:\n      pop\n      jumpi(tag_2, lt(calldatasize, 0x04))\n      shr(0xe0, calldataload(0x00))\n      dup1\n      0x4b3f2ba9\n      eq\n      tag_3\n      jumpi\n      dup1\n      0x512db66d\n      eq\n      tag_4\n      jumpi\n      dup1\n      0x771602f7\n      eq\n      tag_5\n      jumpi\n      dup1\n      0xa391c15b\n      eq\n      tag_6\n      jumpi\n      dup1\n      0xc8a4ac9c\n      eq\n      tag_7\n      jumpi\n    tag_2:\n      0x00\n      dup1\n      revert\n        /* \"contracts/0516/visibility.sol\":410:505  function mul2(uint a, uint b) virtual public pure returns(uint) {... */\n    tag_3:\n      tag_8\n      0x04\n      dup1\n      calldatasize\n      sub\n      dup2\n      add\n      swap1\n      tag_9\n      swap2\n      swap1\n      tag_10\n      jump\t// in\n    tag_9:\n      tag_11\n      jump\t// in\n    tag_8:\n      mload(0x40)\n      tag_12\n      swap2\n      swap1\n      tag_13\n      jump\t// in\n    tag_12:\n      mload(0x40)\n      dup1\n      swap2\n      sub\n      swap1\n      return\n        /* \"contracts/0516/visibility.sol\":513:618  function addDoubleTime(uint a, uint b) public pure returns(uint) {... */\n    tag_4:\n      tag_14\n      0x04\n      dup1\n      calldatasize\n      sub\n      dup2\n      add\n      swap1\n      tag_15\n      swap2\n      swap1\n      tag_10\n      jump\t// in\n    tag_15:\n      tag_16\n      jump\t// in\n    tag_14:\n      mload(0x40)\n      tag_17\n      swap2\n      swap1\n      tag_13\n      jump\t// in\n    tag_17:\n      mload(0x40)\n      dup1\n      swap2\n      sub\n      swap1\n      return\n        /* \"contracts/0516/visibility.sol\":87:171  function add(uint a, uint b) public pure returns(uint) {... */\n    tag_5:\n      tag_18\n      0x04\n      dup1\n      calldatasize\n      sub\n      dup2\n      add\n      swap1\n      tag_19\n      swap2\n      swap1\n      tag_10\n      jump\t// in\n    tag_19:\n      tag_20\n      jump\t// in\n    tag_18:\n      mload(0x40)\n      tag_21\n      swap2\n      swap1\n      tag_13\n      jump\t// in\n    tag_21:\n      mload(0x40)\n      dup1\n      swap2\n      sub\n      swap1\n      return\n        /* \"contracts/0516/visibility.sol\":787:871  function div(uint a, uint b) public pure returns(uint) {... */\n    tag_6:\n      tag_22\n      0x04\n      dup1\n      calldatasize\n      sub\n      dup2\n      add\n      swap1\n      tag_23\n      swap2\n      swap1\n      tag_10\n      jump\t// in\n    tag_23:\n      tag_24\n      jump\t// in\n    tag_22:\n      mload(0x40)\n      tag_25\n      swap2\n      swap1\n      tag_13\n      jump\t// in\n    tag_25:\n      mload(0x40)\n      dup1\n      swap2\n      sub\n      swap1\n      return\n        /* \"contracts/0516/visibility.sol\":318:402  function mul(uint a, uint b) public pure returns(uint) {... */\n    tag_7:\n      tag_26\n      0x04\n      dup1\n      calldatasize\n      sub\n      dup2\n      add\n      swap1\n      tag_27\n      swap2\n      swap1\n      tag_10\n      jump\t// in\n    tag_27:\n      tag_28\n      jump\t// in\n    tag_26:\n      mload(0x40)\n      tag_29\n      swap2\n      swap1\n      tag_13\n      jump\t// in\n    tag_29:\n      mload(0x40)\n      dup1\n      swap2\n      sub\n      swap1\n      return\n        /* \"contracts/0516/visibility.sol\":410:505  function mul2(uint a, uint b) virtual public pure returns(uint) {... */\n    tag_11:\n        /* \"contracts/0516/visibility.sol\":468:472  uint */\n      0x00\n        /* \"contracts/0516/visibility.sol\":496:497  2 */\n      0x02\n        /* \"contracts/0516/visibility.sol\":494:495  b */\n      dup3\n        /* \"contracts/0516/visibility.sol\":492:493  a */\n      dup5\n        /* \"contracts/0516/visibility.sol\":492:495  a*b */\n      tag_31\n      swap2\n      swap1\n      tag_32\n      jump\t// in\n    tag_31:\n        /* \"contracts/0516/visibility.sol\":492:497  a*b*2 */\n      tag_33\n      swap2\n      swap1\n      tag_32\n      jump\t// in\n    tag_33:\n        /* \"contracts/0516/visibility.sol\":485:497  return a*b*2 */\n      swap1\n      pop\n        /* \"contracts/0516/visibility.sol\":410:505  function mul2(uint a, uint b) virtual public pure returns(uint) {... */\n      swap3\n      swap2\n      pop\n      pop\n      jump\t// out\n        /* \"contracts/0516/visibility.sol\":513:618  function addDoubleTime(uint a, uint b) public pure returns(uint) {... */\n    tag_16:\n        /* \"contracts/0516/visibility.sol\":572:576  uint */\n      0x00\n        /* \"contracts/0516/visibility.sol\":609:610  2 */\n      0x02\n        /* \"contracts/0516/visibility.sol\":596:608  Dad.add(a,b) */\n      tag_35\n        /* \"contracts/0516/visibility.sol\":604:605  a */\n      dup5\n        /* \"contracts/0516/visibility.sol\":606:607  b */\n      dup5\n        /* \"contracts/0516/visibility.sol\":596:603  Dad.add */\n      tag_20\n        /* \"contracts/0516/visibility.sol\":596:608  Dad.add(a,b) */\n      jump\t// in\n    tag_35:\n        /* \"contracts/0516/visibility.sol\":596:610  Dad.add(a,b)*2 */\n      tag_36\n      swap2\n      swap1\n      tag_32\n      jump\t// in\n    tag_36:\n        /* \"contracts/0516/visibility.sol\":589:610  return Dad.add(a,b)*2 */\n      swap1\n      pop\n        /* \"contracts/0516/visibility.sol\":513:618  function addDoubleTime(uint a, uint b) public pure returns(uint) {... */\n      swap3\n      swap2\n      pop\n      pop\n      jump\t// out\n        /* \"contracts/0516/visibility.sol\":87:171  function add(uint a, uint b) public pure returns(uint) {... */\n    tag_20:\n        /* \"contracts/0516/visibility.sol\":136:140  uint */\n      0x00\n        /* \"contracts/0516/visibility.sol\":162:163  b */\n      dup2\n        /* \"contracts/0516/visibility.sol\":160:161  a */\n      dup4\n        /* \"contracts/0516/visibility.sol\":160:163  a+b */\n      tag_38\n      swap2\n      swap1\n      tag_39\n      jump\t// in\n    tag_38:\n        /* \"contracts/0516/visibility.sol\":153:163  return a+b */\n      swap1\n      pop\n        /* \"contracts/0516/visibility.sol\":87:171  function add(uint a, uint b) public pure returns(uint) {... */\n      swap3\n      swap2\n      pop\n      pop\n      jump\t// out\n        /* \"contracts/0516/visibility.sol\":787:871  function div(uint a, uint b) public pure returns(uint) {... */\n    tag_24:\n        /* \"contracts/0516/visibility.sol\":836:840  uint */\n      0x00\n        /* \"contracts/0516/visibility.sol\":862:863  b */\n      dup2\n        /* \"contracts/0516/visibility.sol\":860:861  a */\n      dup4\n        /* \"contracts/0516/visibility.sol\":860:863  a/b */\n      tag_41\n      swap2\n      swap1\n      tag_42\n      jump\t// in\n    tag_41:\n        /* \"contracts/0516/visibility.sol\":853:863  return a/b */\n      swap1\n      pop\n        /* \"contracts/0516/visibility.sol\":787:871  function div(uint a, uint b) public pure returns(uint) {... */\n      swap3\n      swap2\n      pop\n      pop\n      jump\t// out\n        /* \"contracts/0516/visibility.sol\":318:402  function mul(uint a, uint b) public pure returns(uint) {... */\n    tag_28:\n        /* \"contracts/0516/visibility.sol\":367:371  uint */\n      0x00\n        /* \"contracts/0516/visibility.sol\":393:394  b */\n      dup2\n        /* \"contracts/0516/visibility.sol\":391:392  a */\n      dup4\n        /* \"contracts/0516/visibility.sol\":391:394  a*b */\n      tag_44\n      swap2\n      swap1\n      tag_32\n      jump\t// in\n    tag_44:\n        /* \"contracts/0516/visibility.sol\":384:394  return a*b */\n      swap1\n      pop\n        /* \"contracts/0516/visibility.sol\":318:402  function mul(uint a, uint b) public pure returns(uint) {... */\n      swap3\n      swap2\n      pop\n      pop\n      jump\t// out\n        /* \"#utility.yul\":88:205   */\n    tag_46:\n        /* \"#utility.yul\":197:198   */\n      0x00\n        /* \"#utility.yul\":194:195   */\n      dup1\n        /* \"#utility.yul\":187:199   */\n      revert\n        /* \"#utility.yul\":334:411   */\n    tag_48:\n        /* \"#utility.yul\":371:378   */\n      0x00\n        /* \"#utility.yul\":400:405   */\n      dup2\n        /* \"#utility.yul\":389:405   */\n      swap1\n      pop\n        /* \"#utility.yul\":334:411   */\n      swap2\n      swap1\n      pop\n      jump\t// out\n        /* \"#utility.yul\":417:539   */\n    tag_49:\n        /* \"#utility.yul\":490:514   */\n      tag_60\n        /* \"#utility.yul\":508:513   */\n      dup2\n        /* \"#utility.yul\":490:514   */\n      tag_48\n      jump\t// in\n    tag_60:\n        /* \"#utility.yul\":483:488   */\n      dup2\n        /* \"#utility.yul\":480:515   */\n      eq\n        /* \"#utility.yul\":470:533   */\n      tag_61\n      jumpi\n        /* \"#utility.yul\":529:530   */\n      0x00\n        /* \"#utility.yul\":526:527   */\n      dup1\n        /* \"#utility.yul\":519:531   */\n      revert\n        /* \"#utility.yul\":470:533   */\n    tag_61:\n        /* \"#utility.yul\":417:539   */\n      pop\n      jump\t// out\n        /* \"#utility.yul\":545:684   */\n    tag_50:\n        /* \"#utility.yul\":591:596   */\n      0x00\n        /* \"#utility.yul\":629:635   */\n      dup2\n        /* \"#utility.yul\":616:636   */\n      calldataload\n        /* \"#utility.yul\":607:636   */\n      swap1\n      pop\n        /* \"#utility.yul\":645:678   */\n      tag_63\n        /* \"#utility.yul\":672:677   */\n      dup2\n        /* \"#utility.yul\":645:678   */\n      tag_49\n      jump\t// in\n    tag_63:\n        /* \"#utility.yul\":545:684   */\n      swap3\n      swap2\n      pop\n      pop\n      jump\t// out\n        /* \"#utility.yul\":690:1164   */\n    tag_10:\n        /* \"#utility.yul\":758:764   */\n      0x00\n        /* \"#utility.yul\":766:772   */\n      dup1\n        /* \"#utility.yul\":815:817   */\n      0x40\n        /* \"#utility.yul\":803:812   */\n      dup4\n        /* \"#utility.yul\":794:801   */\n      dup6\n        /* \"#utility.yul\":790:813   */\n      sub\n        /* \"#utility.yul\":786:818   */\n      slt\n        /* \"#utility.yul\":783:902   */\n      iszero\n      tag_65\n      jumpi\n        /* \"#utility.yul\":821:900   */\n      tag_66\n      tag_46\n      jump\t// in\n    tag_66:\n        /* \"#utility.yul\":783:902   */\n    tag_65:\n        /* \"#utility.yul\":941:942   */\n      0x00\n        /* \"#utility.yul\":966:1019   */\n      tag_67\n        /* \"#utility.yul\":1011:1018   */\n      dup6\n        /* \"#utility.yul\":1002:1008   */\n      dup3\n        /* \"#utility.yul\":991:1000   */\n      dup7\n        /* \"#utility.yul\":987:1009   */\n      add\n        /* \"#utility.yul\":966:1019   */\n      tag_50\n      jump\t// in\n    tag_67:\n        /* \"#utility.yul\":956:1019   */\n      swap3\n      pop\n        /* \"#utility.yul\":912:1029   */\n      pop\n        /* \"#utility.yul\":1068:1070   */\n      0x20\n        /* \"#utility.yul\":1094:1147   */\n      tag_68\n        /* \"#utility.yul\":1139:1146   */\n      dup6\n        /* \"#utility.yul\":1130:1136   */\n      dup3\n        /* \"#utility.yul\":1119:1128   */\n      dup7\n        /* \"#utility.yul\":1115:1137   */\n      add\n        /* \"#utility.yul\":1094:1147   */\n      tag_50\n      jump\t// in\n    tag_68:\n        /* \"#utility.yul\":1084:1147   */\n      swap2\n      pop\n        /* \"#utility.yul\":1039:1157   */\n      pop\n        /* \"#utility.yul\":690:1164   */\n      swap3\n      pop\n      swap3\n      swap1\n      pop\n      jump\t// out\n        /* \"#utility.yul\":1170:1288   */\n    tag_51:\n        /* \"#utility.yul\":1257:1281   */\n      tag_70\n        /* \"#utility.yul\":1275:1280   */\n      dup2\n        /* \"#utility.yul\":1257:1281   */\n      tag_48\n      jump\t// in\n    tag_70:\n        /* \"#utility.yul\":1252:1255   */\n      dup3\n        /* \"#utility.yul\":1245:1282   */\n      mstore\n        /* \"#utility.yul\":1170:1288   */\n      pop\n      pop\n      jump\t// out\n        /* \"#utility.yul\":1294:1516   */\n    tag_13:\n        /* \"#utility.yul\":1387:1391   */\n      0x00\n        /* \"#utility.yul\":1425:1427   */\n      0x20\n        /* \"#utility.yul\":1414:1423   */\n      dup3\n        /* \"#utility.yul\":1410:1428   */\n      add\n        /* \"#utility.yul\":1402:1428   */\n      swap1\n      pop\n        /* \"#utility.yul\":1438:1509   */\n      tag_72\n        /* \"#utility.yul\":1506:1507   */\n      0x00\n        /* \"#utility.yul\":1495:1504   */\n      dup4\n        /* \"#utility.yul\":1491:1508   */\n      add\n        /* \"#utility.yul\":1482:1488   */\n      dup5\n        /* \"#utility.yul\":1438:1509   */\n      tag_51\n      jump\t// in\n    tag_72:\n        /* \"#utility.yul\":1294:1516   */\n      swap3\n      swap2\n      pop\n      pop\n      jump\t// out\n        /* \"#utility.yul\":1522:1702   */\n    tag_52:\n        /* \"#utility.yul\":1570:1647   */\n      0x4e487b7100000000000000000000000000000000000000000000000000000000\n        /* \"#utility.yul\":1567:1568   */\n      0x00\n        /* \"#utility.yul\":1560:1648   */\n      mstore\n        /* \"#utility.yul\":1667:1671   */\n      0x11\n        /* \"#utility.yul\":1664:1665   */\n      0x04\n        /* \"#utility.yul\":1657:1672   */\n      mstore\n        /* \"#utility.yul\":1691:1695   */\n      0x24\n        /* \"#utility.yul\":1688:1689   */\n      0x00\n        /* \"#utility.yul\":1681:1696   */\n      revert\n        /* \"#utility.yul\":1708:2118   */\n    tag_32:\n        /* \"#utility.yul\":1748:1755   */\n      0x00\n        /* \"#utility.yul\":1771:1791   */\n      tag_75\n        /* \"#utility.yul\":1789:1790   */\n      dup3\n        /* \"#utility.yul\":1771:1791   */\n      tag_48\n      jump\t// in\n    tag_75:\n        /* \"#utility.yul\":1766:1791   */\n      swap2\n      pop\n        /* \"#utility.yul\":1805:1825   */\n      tag_76\n        /* \"#utility.yul\":1823:1824   */\n      dup4\n        /* \"#utility.yul\":1805:1825   */\n      tag_48\n      jump\t// in\n    tag_76:\n        /* \"#utility.yul\":1800:1825   */\n      swap3\n      pop\n        /* \"#utility.yul\":1860:1861   */\n      dup3\n        /* \"#utility.yul\":1857:1858   */\n      dup3\n        /* \"#utility.yul\":1853:1862   */\n      mul\n        /* \"#utility.yul\":1882:1912   */\n      tag_77\n        /* \"#utility.yul\":1900:1911   */\n      dup2\n        /* \"#utility.yul\":1882:1912   */\n      tag_48\n      jump\t// in\n    tag_77:\n        /* \"#utility.yul\":1871:1912   */\n      swap2\n      pop\n        /* \"#utility.yul\":2061:2062   */\n      dup3\n        /* \"#utility.yul\":2052:2059   */\n      dup3\n        /* \"#utility.yul\":2048:2063   */\n      div\n        /* \"#utility.yul\":2045:2046   */\n      dup5\n        /* \"#utility.yul\":2042:2064   */\n      eq\n        /* \"#utility.yul\":2022:2023   */\n      dup4\n        /* \"#utility.yul\":2015:2024   */\n      iszero\n        /* \"#utility.yul\":1995:2078   */\n      or\n        /* \"#utility.yul\":1972:2111   */\n      tag_78\n      jumpi\n        /* \"#utility.yul\":2091:2109   */\n      tag_79\n      tag_52\n      jump\t// in\n    tag_79:\n        /* \"#utility.yul\":1972:2111   */\n    tag_78:\n        /* \"#utility.yul\":1756:2118   */\n      pop\n        /* \"#utility.yul\":1708:2118   */\n      swap3\n      swap2\n      pop\n      pop\n      jump\t// out\n        /* \"#utility.yul\":2124:2315   */\n    tag_39:\n        /* \"#utility.yul\":2164:2167   */\n      0x00\n        /* \"#utility.yul\":2183:2203   */\n      tag_81\n        /* \"#utility.yul\":2201:2202   */\n      dup3\n        /* \"#utility.yul\":2183:2203   */\n      tag_48\n      jump\t// in\n    tag_81:\n        /* \"#utility.yul\":2178:2203   */\n      swap2\n      pop\n        /* \"#utility.yul\":2217:2237   */\n      tag_82\n        /* \"#utility.yul\":2235:2236   */\n      dup4\n        /* \"#utility.yul\":2217:2237   */\n      tag_48\n      jump\t// in\n    tag_82:\n        /* \"#utility.yul\":2212:2237   */\n      swap3\n      pop\n        /* \"#utility.yul\":2260:2261   */\n      dup3\n        /* \"#utility.yul\":2257:2258   */\n      dup3\n        /* \"#utility.yul\":2253:2262   */\n      add\n        /* \"#utility.yul\":2246:2262   */\n      swap1\n      pop\n        /* \"#utility.yul\":2281:2284   */\n      dup1\n        /* \"#utility.yul\":2278:2279   */\n      dup3\n        /* \"#utility.yul\":2275:2285   */\n      gt\n        /* \"#utility.yul\":2272:2308   */\n      iszero\n      tag_83\n      jumpi\n        /* \"#utility.yul\":2288:2306   */\n      tag_84\n      tag_52\n      jump\t// in\n    tag_84:\n        /* \"#utility.yul\":2272:2308   */\n    tag_83:\n        /* \"#utility.yul\":2124:2315   */\n      swap3\n      swap2\n      pop\n      pop\n      jump\t// out\n        /* \"#utility.yul\":2321:2501   */\n    tag_53:\n        /* \"#utility.yul\":2369:2446   */\n      0x4e487b7100000000000000000000000000000000000000000000000000000000\n        /* \"#utility.yul\":2366:2367   */\n      0x00\n        /* \"#utility.yul\":2359:2447   */\n      mstore\n        /* \"#utility.yul\":2466:2470   */\n      0x12\n        /* \"#utility.yul\":2463:2464   */\n      0x04\n        /* \"#utility.yul\":2456:2471   */\n      mstore\n        /* \"#utility.yul\":2490:2494   */\n      0x24\n        /* \"#utility.yul\":2487:2488   */\n      0x00\n        /* \"#utility.yul\":2480:2495   */\n      revert\n        /* \"#utility.yul\":2507:2692   */\n    tag_42:\n        /* \"#utility.yul\":2547:2548   */\n      0x00\n        /* \"#utility.yul\":2564:2584   */\n      tag_87\n        /* \"#utility.yul\":2582:2583   */\n      dup3\n        /* \"#utility.yul\":2564:2584   */\n      tag_48\n      jump\t// in\n    tag_87:\n        /* \"#utility.yul\":2559:2584   */\n      swap2\n      pop\n        /* \"#utility.yul\":2598:2618   */\n      tag_88\n        /* \"#utility.yul\":2616:2617   */\n      dup4\n        /* \"#utility.yul\":2598:2618   */\n      tag_48\n      jump\t// in\n    tag_88:\n        /* \"#utility.yul\":2593:2618   */\n      swap3\n      pop\n        /* \"#utility.yul\":2637:2638   */\n      dup3\n        /* \"#utility.yul\":2627:2662   */\n      tag_89\n      jumpi\n        /* \"#utility.yul\":2642:2660   */\n      tag_90\n      tag_53\n      jump\t// in\n    tag_90:\n        /* \"#utility.yul\":2627:2662   */\n    tag_89:\n        /* \"#utility.yul\":2684:2685   */\n      dup3\n        /* \"#utility.yul\":2681:2682   */\n      dup3\n        /* \"#utility.yul\":2677:2686   */\n      div\n        /* \"#utility.yul\":2672:2686   */\n      swap1\n      pop\n        /* \"#utility.yul\":2507:2692   */\n      swap3\n      swap2\n      pop\n      pop\n      jump\t// out\n\n    auxdata: 0xa26469706673582212205dab93418ecc295e1f5006c6327d9e1d2806d3dff35f7179aff192d883a996c164736f6c63430008120033\n}\n",
				"bytecode": {
					"linkReferences": {},
					"object": "608060405234801561001057600080fd5b506103b0806100206000396000f3fe608060405234801561001057600080fd5b50600436106100575760003560e01c80634b3f2ba91461005c578063512db66d1461008c578063771602f7146100bc578063a391c15b146100ec578063c8a4ac9c1461011c575b600080fd5b6100766004803603810190610071919061020b565b61014c565b604051610083919061025a565b60405180910390f35b6100a660048036038101906100a1919061020b565b61016e565b6040516100b3919061025a565b60405180910390f35b6100d660048036038101906100d1919061020b565b61018e565b6040516100e3919061025a565b60405180910390f35b6101066004803603810190610101919061020b565b6101a4565b604051610113919061025a565b60405180910390f35b6101366004803603810190610131919061020b565b6101ba565b604051610143919061025a565b60405180910390f35b60006002828461015c91906102a4565b61016691906102a4565b905092915050565b6000600261017c848461018e565b61018691906102a4565b905092915050565b6000818361019c91906102e6565b905092915050565b600081836101b29190610349565b905092915050565b600081836101c891906102a4565b905092915050565b600080fd5b6000819050919050565b6101e8816101d5565b81146101f357600080fd5b50565b600081359050610205816101df565b92915050565b60008060408385031215610222576102216101d0565b5b6000610230858286016101f6565b9250506020610241858286016101f6565b9150509250929050565b610254816101d5565b82525050565b600060208201905061026f600083018461024b565b92915050565b7f4e487b7100000000000000000000000000000000000000000000000000000000600052601160045260246000fd5b60006102af826101d5565b91506102ba836101d5565b92508282026102c8816101d5565b915082820484148315176102df576102de610275565b5b5092915050565b60006102f1826101d5565b91506102fc836101d5565b925082820190508082111561031457610313610275565b5b92915050565b7f4e487b7100000000000000000000000000000000000000000000000000000000600052601260045260246000fd5b6000610354826101d5565b915061035f836101d5565b92508261036f5761036e61031a565b5b82820490509291505056fea26469706673582212205dab93418ecc295e1f5006c6327d9e1d2806d3dff35f7179aff192d883a996c164736f6c63430008120033",
					"opcodes": "PUSH1 0x80 PUSH1 0x40 MSTORE CALLVALUE DUP1 ISZERO PUSH2 0x10 JUMPI PUSH1 0x0 DUP1 REVERT JUMPDEST POP PUSH2 0x3B0 DUP1 PUSH2 0x20 PUSH1 0x0 CODECOPY PUSH1 0x0 RETURN INVALID PUSH1 0x80 PUSH1 0x40 MSTORE CALLVALUE DUP1 ISZERO PUSH2 0x10 JUMPI PUSH1 0x0 DUP1 REVERT JUMPDEST POP PUSH1 0x4 CALLDATASIZE LT PUSH2 0x57 JUMPI PUSH1 0x0 CALLDATALOAD PUSH1 0xE0 SHR DUP1 PUSH4 0x4B3F2BA9 EQ PUSH2 0x5C JUMPI DUP1 PUSH4 0x512DB66D EQ PUSH2 0x8C JUMPI DUP1 PUSH4 0x771602F7 EQ PUSH2 0xBC JUMPI DUP1 PUSH4 0xA391C15B EQ PUSH2 0xEC JUMPI DUP1 PUSH4 0xC8A4AC9C EQ PUSH2 0x11C JUMPI JUMPDEST PUSH1 0x0 DUP1 REVERT JUMPDEST PUSH2 0x76 PUSH1 0x4 DUP1 CALLDATASIZE SUB DUP2 ADD SWAP1 PUSH2 0x71 SWAP2 SWAP1 PUSH2 0x20B JUMP JUMPDEST PUSH2 0x14C JUMP JUMPDEST PUSH1 0x40 MLOAD PUSH2 0x83 SWAP2 SWAP1 PUSH2 0x25A JUMP JUMPDEST PUSH1 0x40 MLOAD DUP1 SWAP2 SUB SWAP1 RETURN JUMPDEST PUSH2 0xA6 PUSH1 0x4 DUP1 CALLDATASIZE SUB DUP2 ADD SWAP1 PUSH2 0xA1 SWAP2 SWAP1 PUSH2 0x20B JUMP JUMPDEST PUSH2 0x16E JUMP JUMPDEST PUSH1 0x40 MLOAD PUSH2 0xB3 SWAP2 SWAP1 PUSH2 0x25A JUMP JUMPDEST PUSH1 0x40 MLOAD DUP1 SWAP2 SUB SWAP1 RETURN JUMPDEST PUSH2 0xD6 PUSH1 0x4 DUP1 CALLDATASIZE SUB DUP2 ADD SWAP1 PUSH2 0xD1 SWAP2 SWAP1 PUSH2 0x20B JUMP JUMPDEST PUSH2 0x18E JUMP JUMPDEST PUSH1 0x40 MLOAD PUSH2 0xE3 SWAP2 SWAP1 PUSH2 0x25A JUMP JUMPDEST PUSH1 0x40 MLOAD DUP1 SWAP2 SUB SWAP1 RETURN JUMPDEST PUSH2 0x106 PUSH1 0x4 DUP1 CALLDATASIZE SUB DUP2 ADD SWAP1 PUSH2 0x101 SWAP2 SWAP1 PUSH2 0x20B JUMP JUMPDEST PUSH2 0x1A4 JUMP JUMPDEST PUSH1 0x40 MLOAD PUSH2 0x113 SWAP2 SWAP1 PUSH2 0x25A JUMP JUMPDEST PUSH1 0x40 MLOAD DUP1 SWAP2 SUB SWAP1 RETURN JUMPDEST PUSH2 0x136 PUSH1 0x4 DUP1 CALLDATASIZE SUB DUP2 ADD SWAP1 PUSH2 0x131 SWAP2 SWAP1 PUSH2 0x20B JUMP JUMPDEST PUSH2 0x1BA JUMP JUMPDEST PUSH1 0x40 MLOAD PUSH2 0x143 SWAP2 SWAP1 PUSH2 0x25A JUMP JUMPDEST PUSH1 0x40 MLOAD DUP1 SWAP2 SUB SWAP1 RETURN JUMPDEST PUSH1 0x0 PUSH1 0x2 DUP3 DUP5 PUSH2 0x15C SWAP2 SWAP1 PUSH2 0x2A4 JUMP JUMPDEST PUSH2 0x166 SWAP2 SWAP1 PUSH2 0x2A4 JUMP JUMPDEST SWAP1 POP SWAP3 SWAP2 POP POP JUMP JUMPDEST PUSH1 0x0 PUSH1 0x2 PUSH2 0x17C DUP5 DUP5 PUSH2 0x18E JUMP JUMPDEST PUSH2 0x186 SWAP2 SWAP1 PUSH2 0x2A4 JUMP JUMPDEST SWAP1 POP SWAP3 SWAP2 POP POP JUMP JUMPDEST PUSH1 0x0 DUP2 DUP4 PUSH2 0x19C SWAP2 SWAP1 PUSH2 0x2E6 JUMP JUMPDEST SWAP1 POP SWAP3 SWAP2 POP POP JUMP JUMPDEST PUSH1 0x0 DUP2 DUP4 PUSH2 0x1B2 SWAP2 SWAP1 PUSH2 0x349 JUMP JUMPDEST SWAP1 POP SWAP3 SWAP2 POP POP JUMP JUMPDEST PUSH1 0x0 DUP2 DUP4 PUSH2 0x1C8 SWAP2 SWAP1 PUSH2 0x2A4 JUMP JUMPDEST SWAP1 POP SWAP3 SWAP2 POP POP JUMP JUMPDEST PUSH1 0x0 DUP1 REVERT JUMPDEST PUSH1 0x0 DUP2 SWAP1 POP SWAP2 SWAP1 POP JUMP JUMPDEST PUSH2 0x1E8 DUP2 PUSH2 0x1D5 JUMP JUMPDEST DUP2 EQ PUSH2 0x1F3 JUMPI PUSH1 0x0 DUP1 REVERT JUMPDEST POP JUMP JUMPDEST PUSH1 0x0 DUP2 CALLDATALOAD SWAP1 POP PUSH2 0x205 DUP2 PUSH2 0x1DF JUMP JUMPDEST SWAP3 SWAP2 POP POP JUMP JUMPDEST PUSH1 0x0 DUP1 PUSH1 0x40 DUP4 DUP6 SUB SLT ISZERO PUSH2 0x222 JUMPI PUSH2 0x221 PUSH2 0x1D0 JUMP JUMPDEST JUMPDEST PUSH1 0x0 PUSH2 0x230 DUP6 DUP3 DUP7 ADD PUSH2 0x1F6 JUMP JUMPDEST SWAP3 POP POP PUSH1 0x20 PUSH2 0x241 DUP6 DUP3 DUP7 ADD PUSH2 0x1F6 JUMP JUMPDEST SWAP2 POP POP SWAP3 POP SWAP3 SWAP1 POP JUMP JUMPDEST PUSH2 0x254 DUP2 PUSH2 0x1D5 JUMP JUMPDEST DUP3 MSTORE POP POP JUMP JUMPDEST PUSH1 0x0 PUSH1 0x20 DUP3 ADD SWAP1 POP PUSH2 0x26F PUSH1 0x0 DUP4 ADD DUP5 PUSH2 0x24B JUMP JUMPDEST SWAP3 SWAP2 POP POP JUMP JUMPDEST PUSH32 0x4E487B7100000000000000000000000000000000000000000000000000000000 PUSH1 0x0 MSTORE PUSH1 0x11 PUSH1 0x4 MSTORE PUSH1 0x24 PUSH1 0x0 REVERT JUMPDEST PUSH1 0x0 PUSH2 0x2AF DUP3 PUSH2 0x1D5 JUMP JUMPDEST SWAP2 POP PUSH2 0x2BA DUP4 PUSH2 0x1D5 JUMP JUMPDEST SWAP3 POP DUP3 DUP3 MUL PUSH2 0x2C8 DUP2 PUSH2 0x1D5 JUMP JUMPDEST SWAP2 POP DUP3 DUP3 DIV DUP5 EQ DUP4 ISZERO OR PUSH2 0x2DF JUMPI PUSH2 0x2DE PUSH2 0x275 JUMP JUMPDEST JUMPDEST POP SWAP3 SWAP2 POP POP JUMP JUMPDEST PUSH1 0x0 PUSH2 0x2F1 DUP3 PUSH2 0x1D5 JUMP JUMPDEST SWAP2 POP PUSH2 0x2FC DUP4 PUSH2 0x1D5 JUMP JUMPDEST SWAP3 POP DUP3 DUP3 ADD SWAP1 POP DUP1 DUP3 GT ISZERO PUSH2 0x314 JUMPI PUSH2 0x313 PUSH2 0x275 JUMP JUMPDEST JUMPDEST SWAP3 SWAP2 POP POP JUMP JUMPDEST PUSH32 0x4E487B7100000000000000000000000000000000000000000000000000000000 PUSH1 0x0 MSTORE PUSH1 0x12 PUSH1 0x4 MSTORE PUSH1 0x24 PUSH1 0x0 REVERT JUMPDEST PUSH1 0x0 PUSH2 0x354 DUP3 PUSH2 0x1D5 JUMP JUMPDEST SWAP2 POP PUSH2 0x35F DUP4 PUSH2 0x1D5 JUMP JUMPDEST SWAP3 POP DUP3 PUSH2 0x36F JUMPI PUSH2 0x36E PUSH2 0x31A JUMP JUMPDEST JUMPDEST DUP3 DUP3 DIV SWAP1 POP SWAP3 SWAP2 POP POP JUMP INVALID LOG2 PUSH5 0x6970667358 0x22 SLT KECCAK256 0x5D 0xAB SWAP4 COINBASE DUP15 0xCC 0x29 0x5E 0x1F POP MOD 0xC6 ORIGIN PUSH30 0x9E1D2806D3DFF35F7179AFF192D883A996C164736F6C6343000812003300 "
				},
				"gasEstimates": {
					"creation": {
						"codeDepositCost": "188800",
						"executionCost": "232",
						"totalCost": "189032"
					},
					"external": {
						"add(uint256,uint256)": "infinite",
						"addDoubleTime(uint256,uint256)": "infinite",
						"div(uint256,uint256)": "infinite",
						"mul(uint256,uint256)": "infinite",
						"mul2(uint256,uint256)": "infinite"
					}
				},
				"methodIdentifiers": {
					"add(uint256,uint256)": "771602f7",
					"addDoubleTime(uint256,uint256)": "512db66d",
					"div(uint256,uint256)": "a391c15b",
					"mul(uint256,uint256)": "c8a4ac9c",
					"mul2(uint256,uint256)": "4b3f2ba9"
				}
			},
			"storageLayout": {
				"storage": [],
				"types": null
			},
			"userdoc": {
				"kind": "user",
				"methods": {},
				"version": 1
			}
		}
	}
}