{
	"contracts/0524/Note.sol": {
		"Test": {
			"abi": [
				{
					"inputs": [],
					"name": "A",
					"outputs": [
						{
							"internalType": "uint256",
							"name": "",
							"type": "uint256"
						}
					],
					"stateMutability": "view",
					"type": "function"
				},
				{
					"inputs": [
						{
							"internalType": "uint256",
							"name": "a",
							"type": "uint256"
						},
						{
							"internalType": "uint256",
							"name": "b",
							"type": "uint256"
						},
						{
							"internalType": "uint256",
							"name": "c",
							"type": "uint256"
						},
						{
							"internalType": "uint256",
							"name": "d",
							"type": "uint256"
						}
					],
					"name": "add",
					"outputs": [
						{
							"internalType": "uint256",
							"name": "",
							"type": "uint256"
						}
					],
					"stateMutability": "pure",
					"type": "function"
				},
				{
					"inputs": [
						{
							"internalType": "uint256",
							"name": "_n",
							"type": "uint256"
						}
					],
					"name": "changA",
					"outputs": [],
					"stateMutability": "nonpayable",
					"type": "function"
				}
			],
			"devdoc": {
				"kind": "dev",
				"methods": {},
				"version": 1
			},
			"evm": {
				"assembly": "    /* \"contracts/0524/Note.sol\":67:280  contract Test {... */\n  mstore(0x40, 0x80)\n  callvalue\n  dup1\n  iszero\n  tag_1\n  jumpi\n  0x00\n  dup1\n  revert\ntag_1:\n  pop\n  dataSize(sub_0)\n  dup1\n  dataOffset(sub_0)\n  0x00\n  codecopy\n  0x00\n  return\nstop\n\nsub_0: assembly {\n        /* \"contracts/0524/Note.sol\":67:280  contract Test {... */\n      mstore(0x40, 0x80)\n      callvalue\n      dup1\n      iszero\n      tag_1\n      jumpi\n      0x00\n      dup1\n      revert\n    tag_1:\n      pop\n      jumpi(tag_2, lt(calldatasize, 0x04))\n      shr(0xe0, calldataload(0x00))\n      dup1\n      0xa52042fd\n      eq\n      tag_3\n      jumpi\n      dup1\n      0xe022d77c\n      eq\n      tag_4\n      jumpi\n      dup1\n      0xf446c1d0\n      eq\n      tag_5\n      jumpi\n    tag_2:\n      0x00\n      dup1\n      revert\n        /* \"contracts/0524/Note.sol\":220:277  function changA(uint _n) public {... */\n    tag_3:\n      tag_6\n      0x04\n      dup1\n      calldatasize\n      sub\n      dup2\n      add\n      swap1\n      tag_7\n      swap2\n      swap1\n      tag_8\n      jump\t// in\n    tag_7:\n      tag_9\n      jump\t// in\n    tag_6:\n      stop\n        /* \"contracts/0524/Note.sol\":88:192  function add(uint a, uint b, uint c, uint d) public pure returns(uint) {... */\n    tag_4:\n      tag_10\n      0x04\n      dup1\n      calldatasize\n      sub\n      dup2\n      add\n      swap1\n      tag_11\n      swap2\n      swap1\n      tag_12\n      jump\t// in\n    tag_11:\n      tag_13\n      jump\t// in\n    tag_10:\n      mload(0x40)\n      tag_14\n      swap2\n      swap1\n      tag_15\n      jump\t// in\n    tag_14:\n      mload(0x40)\n      dup1\n      swap2\n      sub\n      swap1\n      return\n        /* \"contracts/0524/Note.sol\":198:211  uint public A */\n    tag_5:\n      tag_16\n      tag_17\n      jump\t// in\n    tag_16:\n      mload(0x40)\n      tag_18\n      swap2\n      swap1\n      tag_15\n      jump\t// in\n    tag_18:\n      mload(0x40)\n      dup1\n      swap2\n      sub\n      swap1\n      return\n        /* \"contracts/0524/Note.sol\":220:277  function changA(uint _n) public {... */\n    tag_9:\n        /* \"contracts/0524/Note.sol\":267:269  _n */\n      dup1\n        /* \"contracts/0524/Note.sol\":263:264  A */\n      0x00\n        /* \"contracts/0524/Note.sol\":263:269  A = _n */\n      dup2\n      swap1\n      sstore\n      pop\n        /* \"contracts/0524/Note.sol\":220:277  function changA(uint _n) public {... */\n      pop\n      jump\t// out\n        /* \"contracts/0524/Note.sol\":88:192  function add(uint a, uint b, uint c, uint d) public pure returns(uint) {... */\n    tag_13:\n        /* \"contracts/0524/Note.sol\":153:157  uint */\n      0x00\n        /* \"contracts/0524/Note.sol\":183:184  d */\n      dup2\n        /* \"contracts/0524/Note.sol\":181:182  c */\n      dup4\n        /* \"contracts/0524/Note.sol\":179:180  b */\n      dup6\n        /* \"contracts/0524/Note.sol\":177:178  a */\n      dup8\n        /* \"contracts/0524/Note.sol\":177:180  a+b */\n      tag_21\n      swap2\n      swap1\n      tag_22\n      jump\t// in\n    tag_21:\n        /* \"contracts/0524/Note.sol\":177:182  a+b+c */\n      tag_23\n      swap2\n      swap1\n      tag_22\n      jump\t// in\n    tag_23:\n        /* \"contracts/0524/Note.sol\":177:184  a+b+c+d */\n      tag_24\n      swap2\n      swap1\n      tag_22\n      jump\t// in\n    tag_24:\n        /* \"contracts/0524/Note.sol\":170:184  return a+b+c+d */\n      swap1\n      pop\n        /* \"contracts/0524/Note.sol\":88:192  function add(uint a, uint b, uint c, uint d) public pure returns(uint) {... */\n      swap5\n      swap4\n      pop\n      pop\n      pop\n      pop\n      jump\t// out\n        /* \"contracts/0524/Note.sol\":198:211  uint public A */\n    tag_17:\n      sload(0x00)\n      dup2\n      jump\t// out\n        /* \"#utility.yul\":88:205   */\n    tag_26:\n        /* \"#utility.yul\":197:198   */\n      0x00\n        /* \"#utility.yul\":194:195   */\n      dup1\n        /* \"#utility.yul\":187:199   */\n      revert\n        /* \"#utility.yul\":334:411   */\n    tag_28:\n        /* \"#utility.yul\":371:378   */\n      0x00\n        /* \"#utility.yul\":400:405   */\n      dup2\n        /* \"#utility.yul\":389:405   */\n      swap1\n      pop\n        /* \"#utility.yul\":334:411   */\n      swap2\n      swap1\n      pop\n      jump\t// out\n        /* \"#utility.yul\":417:539   */\n    tag_29:\n        /* \"#utility.yul\":490:514   */\n      tag_39\n        /* \"#utility.yul\":508:513   */\n      dup2\n        /* \"#utility.yul\":490:514   */\n      tag_28\n      jump\t// in\n    tag_39:\n        /* \"#utility.yul\":483:488   */\n      dup2\n        /* \"#utility.yul\":480:515   */\n      eq\n        /* \"#utility.yul\":470:533   */\n      tag_40\n      jumpi\n        /* \"#utility.yul\":529:530   */\n      0x00\n        /* \"#utility.yul\":526:527   */\n      dup1\n        /* \"#utility.yul\":519:531   */\n      revert\n        /* \"#utility.yul\":470:533   */\n    tag_40:\n        /* \"#utility.yul\":417:539   */\n      pop\n      jump\t// out\n        /* \"#utility.yul\":545:684   */\n    tag_30:\n        /* \"#utility.yul\":591:596   */\n      0x00\n        /* \"#utility.yul\":629:635   */\n      dup2\n        /* \"#utility.yul\":616:636   */\n      calldataload\n        /* \"#utility.yul\":607:636   */\n      swap1\n      pop\n        /* \"#utility.yul\":645:678   */\n      tag_42\n        /* \"#utility.yul\":672:677   */\n      dup2\n        /* \"#utility.yul\":645:678   */\n      tag_29\n      jump\t// in\n    tag_42:\n        /* \"#utility.yul\":545:684   */\n      swap3\n      swap2\n      pop\n      pop\n      jump\t// out\n        /* \"#utility.yul\":690:1019   */\n    tag_8:\n        /* \"#utility.yul\":749:755   */\n      0x00\n        /* \"#utility.yul\":798:800   */\n      0x20\n        /* \"#utility.yul\":786:795   */\n      dup3\n        /* \"#utility.yul\":777:784   */\n      dup5\n        /* \"#utility.yul\":773:796   */\n      sub\n        /* \"#utility.yul\":769:801   */\n      slt\n        /* \"#utility.yul\":766:885   */\n      iszero\n      tag_44\n      jumpi\n        /* \"#utility.yul\":804:883   */\n      tag_45\n      tag_26\n      jump\t// in\n    tag_45:\n        /* \"#utility.yul\":766:885   */\n    tag_44:\n        /* \"#utility.yul\":924:925   */\n      0x00\n        /* \"#utility.yul\":949:1002   */\n      tag_46\n        /* \"#utility.yul\":994:1001   */\n      dup5\n        /* \"#utility.yul\":985:991   */\n      dup3\n        /* \"#utility.yul\":974:983   */\n      dup6\n        /* \"#utility.yul\":970:992   */\n      add\n        /* \"#utility.yul\":949:1002   */\n      tag_30\n      jump\t// in\n    tag_46:\n        /* \"#utility.yul\":939:1002   */\n      swap2\n      pop\n        /* \"#utility.yul\":895:1012   */\n      pop\n        /* \"#utility.yul\":690:1019   */\n      swap3\n      swap2\n      pop\n      pop\n      jump\t// out\n        /* \"#utility.yul\":1025:1790   */\n    tag_12:\n        /* \"#utility.yul\":1111:1117   */\n      0x00\n        /* \"#utility.yul\":1119:1125   */\n      dup1\n        /* \"#utility.yul\":1127:1133   */\n      0x00\n        /* \"#utility.yul\":1135:1141   */\n      dup1\n        /* \"#utility.yul\":1184:1187   */\n      0x80\n        /* \"#utility.yul\":1172:1181   */\n      dup6\n        /* \"#utility.yul\":1163:1170   */\n      dup8\n        /* \"#utility.yul\":1159:1182   */\n      sub\n        /* \"#utility.yul\":1155:1188   */\n      slt\n        /* \"#utility.yul\":1152:1272   */\n      iszero\n      tag_48\n      jumpi\n        /* \"#utility.yul\":1191:1270   */\n      tag_49\n      tag_26\n      jump\t// in\n    tag_49:\n        /* \"#utility.yul\":1152:1272   */\n    tag_48:\n        /* \"#utility.yul\":1311:1312   */\n      0x00\n        /* \"#utility.yul\":1336:1389   */\n      tag_50\n        /* \"#utility.yul\":1381:1388   */\n      dup8\n        /* \"#utility.yul\":1372:1378   */\n      dup3\n        /* \"#utility.yul\":1361:1370   */\n      dup9\n        /* \"#utility.yul\":1357:1379   */\n      add\n        /* \"#utility.yul\":1336:1389   */\n      tag_30\n      jump\t// in\n    tag_50:\n        /* \"#utility.yul\":1326:1389   */\n      swap5\n      pop\n        /* \"#utility.yul\":1282:1399   */\n      pop\n        /* \"#utility.yul\":1438:1440   */\n      0x20\n        /* \"#utility.yul\":1464:1517   */\n      tag_51\n        /* \"#utility.yul\":1509:1516   */\n      dup8\n        /* \"#utility.yul\":1500:1506   */\n      dup3\n        /* \"#utility.yul\":1489:1498   */\n      dup9\n        /* \"#utility.yul\":1485:1507   */\n      add\n        /* \"#utility.yul\":1464:1517   */\n      tag_30\n      jump\t// in\n    tag_51:\n        /* \"#utility.yul\":1454:1517   */\n      swap4\n      pop\n        /* \"#utility.yul\":1409:1527   */\n      pop\n        /* \"#utility.yul\":1566:1568   */\n      0x40\n        /* \"#utility.yul\":1592:1645   */\n      tag_52\n        /* \"#utility.yul\":1637:1644   */\n      dup8\n        /* \"#utility.yul\":1628:1634   */\n      dup3\n        /* \"#utility.yul\":1617:1626   */\n      dup9\n        /* \"#utility.yul\":1613:1635   */\n      add\n        /* \"#utility.yul\":1592:1645   */\n      tag_30\n      jump\t// in\n    tag_52:\n        /* \"#utility.yul\":1582:1645   */\n      swap3\n      pop\n        /* \"#utility.yul\":1537:1655   */\n      pop\n        /* \"#utility.yul\":1694:1696   */\n      0x60\n        /* \"#utility.yul\":1720:1773   */\n      tag_53\n        /* \"#utility.yul\":1765:1772   */\n      dup8\n        /* \"#utility.yul\":1756:1762   */\n      dup3\n        /* \"#utility.yul\":1745:1754   */\n      dup9\n        /* \"#utility.yul\":1741:1763   */\n      add\n        /* \"#utility.yul\":1720:1773   */\n      tag_30\n      jump\t// in\n    tag_53:\n        /* \"#utility.yul\":1710:1773   */\n      swap2\n      pop\n        /* \"#utility.yul\":1665:1783   */\n      pop\n        /* \"#utility.yul\":1025:1790   */\n      swap3\n      swap6\n      swap2\n      swap5\n      pop\n      swap3\n      pop\n      jump\t// out\n        /* \"#utility.yul\":1796:1914   */\n    tag_31:\n        /* \"#utility.yul\":1883:1907   */\n      tag_55\n        /* \"#utility.yul\":1901:1906   */\n      dup2\n        /* \"#utility.yul\":1883:1907   */\n      tag_28\n      jump\t// in\n    tag_55:\n        /* \"#utility.yul\":1878:1881   */\n      dup3\n        /* \"#utility.yul\":1871:1908   */\n      mstore\n        /* \"#utility.yul\":1796:1914   */\n      pop\n      pop\n      jump\t// out\n        /* \"#utility.yul\":1920:2142   */\n    tag_15:\n        /* \"#utility.yul\":2013:2017   */\n      0x00\n        /* \"#utility.yul\":2051:2053   */\n      0x20\n        /* \"#utility.yul\":2040:2049   */\n      dup3\n        /* \"#utility.yul\":2036:2054   */\n      add\n        /* \"#utility.yul\":2028:2054   */\n      swap1\n      pop\n        /* \"#utility.yul\":2064:2135   */\n      tag_57\n        /* \"#utility.yul\":2132:2133   */\n      0x00\n        /* \"#utility.yul\":2121:2130   */\n      dup4\n        /* \"#utility.yul\":2117:2134   */\n      add\n        /* \"#utility.yul\":2108:2114   */\n      dup5\n        /* \"#utility.yul\":2064:2135   */\n      tag_31\n      jump\t// in\n    tag_57:\n        /* \"#utility.yul\":1920:2142   */\n      swap3\n      swap2\n      pop\n      pop\n      jump\t// out\n        /* \"#utility.yul\":2148:2328   */\n    tag_32:\n        /* \"#utility.yul\":2196:2273   */\n      0x4e487b7100000000000000000000000000000000000000000000000000000000\n        /* \"#utility.yul\":2193:2194   */\n      0x00\n        /* \"#utility.yul\":2186:2274   */\n      mstore\n        /* \"#utility.yul\":2293:2297   */\n      0x11\n        /* \"#utility.yul\":2290:2291   */\n      0x04\n        /* \"#utility.yul\":2283:2298   */\n      mstore\n        /* \"#utility.yul\":2317:2321   */\n      0x24\n        /* \"#utility.yul\":2314:2315   */\n      0x00\n        /* \"#utility.yul\":2307:2322   */\n      revert\n        /* \"#utility.yul\":2334:2525   */\n    tag_22:\n        /* \"#utility.yul\":2374:2377   */\n      0x00\n        /* \"#utility.yul\":2393:2413   */\n      tag_60\n        /* \"#utility.yul\":2411:2412   */\n      dup3\n        /* \"#utility.yul\":2393:2413   */\n      tag_28\n      jump\t// in\n    tag_60:\n        /* \"#utility.yul\":2388:2413   */\n      swap2\n      pop\n        /* \"#utility.yul\":2427:2447   */\n      tag_61\n        /* \"#utility.yul\":2445:2446   */\n      dup4\n        /* \"#utility.yul\":2427:2447   */\n      tag_28\n      jump\t// in\n    tag_61:\n        /* \"#utility.yul\":2422:2447   */\n      swap3\n      pop\n        /* \"#utility.yul\":2470:2471   */\n      dup3\n        /* \"#utility.yul\":2467:2468   */\n      dup3\n        /* \"#utility.yul\":2463:2472   */\n      add\n        /* \"#utility.yul\":2456:2472   */\n      swap1\n      pop\n        /* \"#utility.yul\":2491:2494   */\n      dup1\n        /* \"#utility.yul\":2488:2489   */\n      dup3\n        /* \"#utility.yul\":2485:2495   */\n      gt\n        /* \"#utility.yul\":2482:2518   */\n      iszero\n      tag_62\n      jumpi\n        /* \"#utility.yul\":2498:2516   */\n      tag_63\n      tag_32\n      jump\t// in\n    tag_63:\n        /* \"#utility.yul\":2482:2518   */\n    tag_62:\n        /* \"#utility.yul\":2334:2525   */\n      swap3\n      swap2\n      pop\n      pop\n      jump\t// out\n\n    auxdata: 0xa26469706673582212205726d414d7adac73e3296cbe41e8775784eef832e62d12624f7fe86a65b7962b64736f6c63430008120033\n}\n",
				"bytecode": {
					"linkReferences": {},
					"object": "608060405234801561001057600080fd5b50610280806100206000396000f3fe608060405234801561001057600080fd5b50600436106100415760003560e01c8063a52042fd14610046578063e022d77c14610062578063f446c1d014610092575b600080fd5b610060600480360381019061005b9190610129565b6100b0565b005b61007c60048036038101906100779190610156565b6100ba565b60405161008991906101cc565b60405180910390f35b61009a6100e8565b6040516100a791906101cc565b60405180910390f35b8060008190555050565b6000818385876100ca9190610216565b6100d49190610216565b6100de9190610216565b9050949350505050565b60005481565b600080fd5b6000819050919050565b610106816100f3565b811461011157600080fd5b50565b600081359050610123816100fd565b92915050565b60006020828403121561013f5761013e6100ee565b5b600061014d84828501610114565b91505092915050565b600080600080608085870312156101705761016f6100ee565b5b600061017e87828801610114565b945050602061018f87828801610114565b93505060406101a087828801610114565b92505060606101b187828801610114565b91505092959194509250565b6101c6816100f3565b82525050565b60006020820190506101e160008301846101bd565b92915050565b7f4e487b7100000000000000000000000000000000000000000000000000000000600052601160045260246000fd5b6000610221826100f3565b915061022c836100f3565b9250828201905080821115610244576102436101e7565b5b9291505056fea26469706673582212205726d414d7adac73e3296cbe41e8775784eef832e62d12624f7fe86a65b7962b64736f6c63430008120033",
					"opcodes": "PUSH1 0x80 PUSH1 0x40 MSTORE CALLVALUE DUP1 ISZERO PUSH2 0x10 JUMPI PUSH1 0x0 DUP1 REVERT JUMPDEST POP PUSH2 0x280 DUP1 PUSH2 0x20 PUSH1 0x0 CODECOPY PUSH1 0x0 RETURN INVALID PUSH1 0x80 PUSH1 0x40 MSTORE CALLVALUE DUP1 ISZERO PUSH2 0x10 JUMPI PUSH1 0x0 DUP1 REVERT JUMPDEST POP PUSH1 0x4 CALLDATASIZE LT PUSH2 0x41 JUMPI PUSH1 0x0 CALLDATALOAD PUSH1 0xE0 SHR DUP1 PUSH4 0xA52042FD EQ PUSH2 0x46 JUMPI DUP1 PUSH4 0xE022D77C EQ PUSH2 0x62 JUMPI DUP1 PUSH4 0xF446C1D0 EQ PUSH2 0x92 JUMPI JUMPDEST PUSH1 0x0 DUP1 REVERT JUMPDEST PUSH2 0x60 PUSH1 0x4 DUP1 CALLDATASIZE SUB DUP2 ADD SWAP1 PUSH2 0x5B SWAP2 SWAP1 PUSH2 0x129 JUMP JUMPDEST PUSH2 0xB0 JUMP JUMPDEST STOP JUMPDEST PUSH2 0x7C PUSH1 0x4 DUP1 CALLDATASIZE SUB DUP2 ADD SWAP1 PUSH2 0x77 SWAP2 SWAP1 PUSH2 0x156 JUMP JUMPDEST PUSH2 0xBA JUMP JUMPDEST PUSH1 0x40 MLOAD PUSH2 0x89 SWAP2 SWAP1 PUSH2 0x1CC JUMP JUMPDEST PUSH1 0x40 MLOAD DUP1 SWAP2 SUB SWAP1 RETURN JUMPDEST PUSH2 0x9A PUSH2 0xE8 JUMP JUMPDEST PUSH1 0x40 MLOAD PUSH2 0xA7 SWAP2 SWAP1 PUSH2 0x1CC JUMP JUMPDEST PUSH1 0x40 MLOAD DUP1 SWAP2 SUB SWAP1 RETURN JUMPDEST DUP1 PUSH1 0x0 DUP2 SWAP1 SSTORE POP POP JUMP JUMPDEST PUSH1 0x0 DUP2 DUP4 DUP6 DUP8 PUSH2 0xCA SWAP2 SWAP1 PUSH2 0x216 JUMP JUMPDEST PUSH2 0xD4 SWAP2 SWAP1 PUSH2 0x216 JUMP JUMPDEST PUSH2 0xDE SWAP2 SWAP1 PUSH2 0x216 JUMP JUMPDEST SWAP1 POP SWAP5 SWAP4 POP POP POP POP JUMP JUMPDEST PUSH1 0x0 SLOAD DUP2 JUMP JUMPDEST PUSH1 0x0 DUP1 REVERT JUMPDEST PUSH1 0x0 DUP2 SWAP1 POP SWAP2 SWAP1 POP JUMP JUMPDEST PUSH2 0x106 DUP2 PUSH2 0xF3 JUMP JUMPDEST DUP2 EQ PUSH2 0x111 JUMPI PUSH1 0x0 DUP1 REVERT JUMPDEST POP JUMP JUMPDEST PUSH1 0x0 DUP2 CALLDATALOAD SWAP1 POP PUSH2 0x123 DUP2 PUSH2 0xFD JUMP JUMPDEST SWAP3 SWAP2 POP POP JUMP JUMPDEST PUSH1 0x0 PUSH1 0x20 DUP3 DUP5 SUB SLT ISZERO PUSH2 0x13F JUMPI PUSH2 0x13E PUSH2 0xEE JUMP JUMPDEST JUMPDEST PUSH1 0x0 PUSH2 0x14D DUP5 DUP3 DUP6 ADD PUSH2 0x114 JUMP JUMPDEST SWAP2 POP POP SWAP3 SWAP2 POP POP JUMP JUMPDEST PUSH1 0x0 DUP1 PUSH1 0x0 DUP1 PUSH1 0x80 DUP6 DUP8 SUB SLT ISZERO PUSH2 0x170 JUMPI PUSH2 0x16F PUSH2 0xEE JUMP JUMPDEST JUMPDEST PUSH1 0x0 PUSH2 0x17E DUP8 DUP3 DUP9 ADD PUSH2 0x114 JUMP JUMPDEST SWAP5 POP POP PUSH1 0x20 PUSH2 0x18F DUP8 DUP3 DUP9 ADD PUSH2 0x114 JUMP JUMPDEST SWAP4 POP POP PUSH1 0x40 PUSH2 0x1A0 DUP8 DUP3 DUP9 ADD PUSH2 0x114 JUMP JUMPDEST SWAP3 POP POP PUSH1 0x60 PUSH2 0x1B1 DUP8 DUP3 DUP9 ADD PUSH2 0x114 JUMP JUMPDEST SWAP2 POP POP SWAP3 SWAP6 SWAP2 SWAP5 POP SWAP3 POP JUMP JUMPDEST PUSH2 0x1C6 DUP2 PUSH2 0xF3 JUMP JUMPDEST DUP3 MSTORE POP POP JUMP JUMPDEST PUSH1 0x0 PUSH1 0x20 DUP3 ADD SWAP1 POP PUSH2 0x1E1 PUSH1 0x0 DUP4 ADD DUP5 PUSH2 0x1BD JUMP JUMPDEST SWAP3 SWAP2 POP POP JUMP JUMPDEST PUSH32 0x4E487B7100000000000000000000000000000000000000000000000000000000 PUSH1 0x0 MSTORE PUSH1 0x11 PUSH1 0x4 MSTORE PUSH1 0x24 PUSH1 0x0 REVERT JUMPDEST PUSH1 0x0 PUSH2 0x221 DUP3 PUSH2 0xF3 JUMP JUMPDEST SWAP2 POP PUSH2 0x22C DUP4 PUSH2 0xF3 JUMP JUMPDEST SWAP3 POP DUP3 DUP3 ADD SWAP1 POP DUP1 DUP3 GT ISZERO PUSH2 0x244 JUMPI PUSH2 0x243 PUSH2 0x1E7 JUMP JUMPDEST JUMPDEST SWAP3 SWAP2 POP POP JUMP INVALID LOG2 PUSH5 0x6970667358 0x22 SLT KECCAK256 JUMPI 0x26 0xD4 EQ 0xD7 0xAD 0xAC PUSH20 0xE3296CBE41E8775784EEF832E62D12624F7FE86A PUSH6 0xB7962B64736F PUSH13 0x63430008120033000000000000 "
				},
				"gasEstimates": {
					"creation": {
						"codeDepositCost": "128000",
						"executionCost": "171",
						"totalCost": "128171"
					},
					"external": {
						"A()": "2451",
						"add(uint256,uint256,uint256,uint256)": "infinite",
						"changA(uint256)": "22498"
					}
				},
				"methodIdentifiers": {
					"A()": "f446c1d0",
					"add(uint256,uint256,uint256,uint256)": "e022d77c",
					"changA(uint256)": "a52042fd"
				}
			},
			"storageLayout": {
				"storage": [
					{
						"astId": 25,
						"contract": "contracts/0524/Note.sol:Test",
						"label": "A",
						"offset": 0,
						"slot": "0",
						"type": "t_uint256"
					}
				],
				"types": {
					"t_uint256": {
						"encoding": "inplace",
						"label": "uint256",
						"numberOfBytes": "32"
					}
				}
			},
			"userdoc": {
				"kind": "user",
				"methods": {},
				"version": 1
			}
		}
	}
}