{
	"contracts/Practice/4.sol": {
		"q2": {
			"abi": [
				{
					"inputs": [],
					"stateMutability": "nonpayable",
					"type": "constructor"
				},
				{
					"inputs": [
						{
							"internalType": "string",
							"name": "_B",
							"type": "string"
						}
					],
					"name": "changeB",
					"outputs": [],
					"stateMutability": "nonpayable",
					"type": "function"
				},
				{
					"inputs": [
						{
							"internalType": "string",
							"name": "_B",
							"type": "string"
						}
					],
					"name": "changeC",
					"outputs": [],
					"stateMutability": "nonpayable",
					"type": "function"
				}
			],
			"devdoc": {
				"kind": "dev",
				"methods": {},
				"version": 1
			},
			"evm": {
				"assembly": "    /* \"contracts/Practice/4.sol\":4533:4933  contract q2{... */\n  mstore(0x40, 0x80)\n    /* \"contracts/Practice/4.sol\":4740:4754  string a = \"A\" */\n  mload(0x40)\n  dup1\n  0x40\n  add\n  0x40\n  mstore\n  dup1\n  0x01\n  dup2\n  mstore\n  0x20\n  add\n  0x4100000000000000000000000000000000000000000000000000000000000000\n  dup2\n  mstore\n  pop\n  0x01\n  swap1\n  dup2\n  tag_1\n  swap2\n  swap1\n  tag_2\n  jump\t// in\ntag_1:\n  pop\n    /* \"contracts/Practice/4.sol\":4580:4639  constructor() {... */\n  callvalue\n  dup1\n  iszero\n  tag_3\n  jumpi\n  0x00\n  dup1\n  revert\ntag_3:\n  pop\n    /* \"contracts/Practice/4.sol\":4617:4627  msg.sender */\n  caller\n    /* \"contracts/Practice/4.sol\":4609:4614  owner */\n  0x00\n  dup1\n    /* \"contracts/Practice/4.sol\":4609:4627  owner = msg.sender */\n  0x0100\n  exp\n  dup2\n  sload\n  dup2\n  0xffffffffffffffffffffffffffffffffffffffff\n  mul\n  not\n  and\n  swap1\n  dup4\n  0xffffffffffffffffffffffffffffffffffffffff\n  and\n  mul\n  or\n  swap1\n  sstore\n  pop\n    /* \"contracts/Practice/4.sol\":4533:4933  contract q2{... */\n  jump(tag_6)\n    /* \"#utility.yul\":7:106   */\ntag_7:\n    /* \"#utility.yul\":59:65   */\n  0x00\n    /* \"#utility.yul\":93:98   */\n  dup2\n    /* \"#utility.yul\":87:99   */\n  mload\n    /* \"#utility.yul\":77:99   */\n  swap1\n  pop\n    /* \"#utility.yul\":7:106   */\n  swap2\n  swap1\n  pop\n  jump\t// out\n    /* \"#utility.yul\":112:292   */\ntag_8:\n    /* \"#utility.yul\":160:237   */\n  0x4e487b7100000000000000000000000000000000000000000000000000000000\n    /* \"#utility.yul\":157:158   */\n  0x00\n    /* \"#utility.yul\":150:238   */\n  mstore\n    /* \"#utility.yul\":257:261   */\n  0x41\n    /* \"#utility.yul\":254:255   */\n  0x04\n    /* \"#utility.yul\":247:262   */\n  mstore\n    /* \"#utility.yul\":281:285   */\n  0x24\n    /* \"#utility.yul\":278:279   */\n  0x00\n    /* \"#utility.yul\":271:286   */\n  revert\n    /* \"#utility.yul\":298:478   */\ntag_9:\n    /* \"#utility.yul\":346:423   */\n  0x4e487b7100000000000000000000000000000000000000000000000000000000\n    /* \"#utility.yul\":343:344   */\n  0x00\n    /* \"#utility.yul\":336:424   */\n  mstore\n    /* \"#utility.yul\":443:447   */\n  0x22\n    /* \"#utility.yul\":440:441   */\n  0x04\n    /* \"#utility.yul\":433:448   */\n  mstore\n    /* \"#utility.yul\":467:471   */\n  0x24\n    /* \"#utility.yul\":464:465   */\n  0x00\n    /* \"#utility.yul\":457:472   */\n  revert\n    /* \"#utility.yul\":484:804   */\ntag_10:\n    /* \"#utility.yul\":528:534   */\n  0x00\n    /* \"#utility.yul\":565:566   */\n  0x02\n    /* \"#utility.yul\":559:563   */\n  dup3\n    /* \"#utility.yul\":555:567   */\n  div\n    /* \"#utility.yul\":545:567   */\n  swap1\n  pop\n    /* \"#utility.yul\":612:613   */\n  0x01\n    /* \"#utility.yul\":606:610   */\n  dup3\n    /* \"#utility.yul\":602:614   */\n  and\n    /* \"#utility.yul\":633:651   */\n  dup1\n    /* \"#utility.yul\":623:704   */\n  tag_32\n  jumpi\n    /* \"#utility.yul\":689:693   */\n  0x7f\n    /* \"#utility.yul\":681:687   */\n  dup3\n    /* \"#utility.yul\":677:694   */\n  and\n    /* \"#utility.yul\":667:694   */\n  swap2\n  pop\n    /* \"#utility.yul\":623:704   */\ntag_32:\n    /* \"#utility.yul\":751:753   */\n  0x20\n    /* \"#utility.yul\":743:749   */\n  dup3\n    /* \"#utility.yul\":740:754   */\n  lt\n    /* \"#utility.yul\":720:738   */\n  dup2\n    /* \"#utility.yul\":717:755   */\n  sub\n    /* \"#utility.yul\":714:798   */\n  tag_33\n  jumpi\n    /* \"#utility.yul\":770:788   */\n  tag_34\n  tag_9\n  jump\t// in\ntag_34:\n    /* \"#utility.yul\":714:798   */\ntag_33:\n    /* \"#utility.yul\":535:804   */\n  pop\n    /* \"#utility.yul\":484:804   */\n  swap2\n  swap1\n  pop\n  jump\t// out\n    /* \"#utility.yul\":810:951   */\ntag_11:\n    /* \"#utility.yul\":859:863   */\n  0x00\n    /* \"#utility.yul\":882:885   */\n  dup2\n    /* \"#utility.yul\":874:885   */\n  swap1\n  pop\n    /* \"#utility.yul\":905:908   */\n  dup2\n    /* \"#utility.yul\":902:903   */\n  0x00\n    /* \"#utility.yul\":895:909   */\n  mstore\n    /* \"#utility.yul\":939:943   */\n  0x20\n    /* \"#utility.yul\":936:937   */\n  0x00\n    /* \"#utility.yul\":926:944   */\n  keccak256\n    /* \"#utility.yul\":918:944   */\n  swap1\n  pop\n    /* \"#utility.yul\":810:951   */\n  swap2\n  swap1\n  pop\n  jump\t// out\n    /* \"#utility.yul\":957:1050   */\ntag_12:\n    /* \"#utility.yul\":994:1000   */\n  0x00\n    /* \"#utility.yul\":1041:1043   */\n  0x20\n    /* \"#utility.yul\":1036:1038   */\n  0x1f\n    /* \"#utility.yul\":1029:1034   */\n  dup4\n    /* \"#utility.yul\":1025:1039   */\n  add\n    /* \"#utility.yul\":1021:1044   */\n  div\n    /* \"#utility.yul\":1011:1044   */\n  swap1\n  pop\n    /* \"#utility.yul\":957:1050   */\n  swap2\n  swap1\n  pop\n  jump\t// out\n    /* \"#utility.yul\":1056:1163   */\ntag_13:\n    /* \"#utility.yul\":1100:1108   */\n  0x00\n    /* \"#utility.yul\":1150:1155   */\n  dup3\n    /* \"#utility.yul\":1144:1148   */\n  dup3\n    /* \"#utility.yul\":1140:1156   */\n  shl\n    /* \"#utility.yul\":1119:1156   */\n  swap1\n  pop\n    /* \"#utility.yul\":1056:1163   */\n  swap3\n  swap2\n  pop\n  pop\n  jump\t// out\n    /* \"#utility.yul\":1169:1562   */\ntag_14:\n    /* \"#utility.yul\":1238:1244   */\n  0x00\n    /* \"#utility.yul\":1288:1289   */\n  0x08\n    /* \"#utility.yul\":1276:1286   */\n  dup4\n    /* \"#utility.yul\":1272:1290   */\n  mul\n    /* \"#utility.yul\":1311:1408   */\n  tag_39\n    /* \"#utility.yul\":1341:1407   */\n  0xffffffffffffffffffffffffffffffffffffffffffffffffffffffffffffffff\n    /* \"#utility.yul\":1330:1339   */\n  dup3\n    /* \"#utility.yul\":1311:1408   */\n  tag_13\n  jump\t// in\ntag_39:\n    /* \"#utility.yul\":1429:1468   */\n  tag_40\n    /* \"#utility.yul\":1459:1467   */\n  dup7\n    /* \"#utility.yul\":1448:1457   */\n  dup4\n    /* \"#utility.yul\":1429:1468   */\n  tag_13\n  jump\t// in\ntag_40:\n    /* \"#utility.yul\":1417:1468   */\n  swap6\n  pop\n    /* \"#utility.yul\":1501:1505   */\n  dup1\n    /* \"#utility.yul\":1497:1506   */\n  not\n    /* \"#utility.yul\":1490:1495   */\n  dup5\n    /* \"#utility.yul\":1486:1507   */\n  and\n    /* \"#utility.yul\":1477:1507   */\n  swap4\n  pop\n    /* \"#utility.yul\":1550:1554   */\n  dup1\n    /* \"#utility.yul\":1540:1548   */\n  dup7\n    /* \"#utility.yul\":1536:1555   */\n  and\n    /* \"#utility.yul\":1529:1534   */\n  dup5\n    /* \"#utility.yul\":1526:1556   */\n  or\n    /* \"#utility.yul\":1516:1556   */\n  swap3\n  pop\n    /* \"#utility.yul\":1245:1562   */\n  pop\n  pop\n    /* \"#utility.yul\":1169:1562   */\n  swap4\n  swap3\n  pop\n  pop\n  pop\n  jump\t// out\n    /* \"#utility.yul\":1568:1645   */\ntag_15:\n    /* \"#utility.yul\":1605:1612   */\n  0x00\n    /* \"#utility.yul\":1634:1639   */\n  dup2\n    /* \"#utility.yul\":1623:1639   */\n  swap1\n  pop\n    /* \"#utility.yul\":1568:1645   */\n  swap2\n  swap1\n  pop\n  jump\t// out\n    /* \"#utility.yul\":1651:1711   */\ntag_16:\n    /* \"#utility.yul\":1679:1682   */\n  0x00\n    /* \"#utility.yul\":1700:1705   */\n  dup2\n    /* \"#utility.yul\":1693:1705   */\n  swap1\n  pop\n    /* \"#utility.yul\":1651:1711   */\n  swap2\n  swap1\n  pop\n  jump\t// out\n    /* \"#utility.yul\":1717:1859   */\ntag_17:\n    /* \"#utility.yul\":1767:1776   */\n  0x00\n    /* \"#utility.yul\":1800:1853   */\n  tag_44\n    /* \"#utility.yul\":1818:1852   */\n  tag_45\n    /* \"#utility.yul\":1827:1851   */\n  tag_46\n    /* \"#utility.yul\":1845:1850   */\n  dup5\n    /* \"#utility.yul\":1827:1851   */\n  tag_15\n  jump\t// in\ntag_46:\n    /* \"#utility.yul\":1818:1852   */\n  tag_16\n  jump\t// in\ntag_45:\n    /* \"#utility.yul\":1800:1853   */\n  tag_15\n  jump\t// in\ntag_44:\n    /* \"#utility.yul\":1787:1853   */\n  swap1\n  pop\n    /* \"#utility.yul\":1717:1859   */\n  swap2\n  swap1\n  pop\n  jump\t// out\n    /* \"#utility.yul\":1865:1940   */\ntag_18:\n    /* \"#utility.yul\":1908:1911   */\n  0x00\n    /* \"#utility.yul\":1929:1934   */\n  dup2\n    /* \"#utility.yul\":1922:1934   */\n  swap1\n  pop\n    /* \"#utility.yul\":1865:1940   */\n  swap2\n  swap1\n  pop\n  jump\t// out\n    /* \"#utility.yul\":1946:2215   */\ntag_19:\n    /* \"#utility.yul\":2056:2095   */\n  tag_49\n    /* \"#utility.yul\":2087:2094   */\n  dup4\n    /* \"#utility.yul\":2056:2095   */\n  tag_17\n  jump\t// in\ntag_49:\n    /* \"#utility.yul\":2117:2208   */\n  tag_50\n    /* \"#utility.yul\":2166:2207   */\n  tag_51\n    /* \"#utility.yul\":2190:2206   */\n  dup3\n    /* \"#utility.yul\":2166:2207   */\n  tag_18\n  jump\t// in\ntag_51:\n    /* \"#utility.yul\":2158:2164   */\n  dup5\n    /* \"#utility.yul\":2151:2155   */\n  dup5\n    /* \"#utility.yul\":2145:2156   */\n  sload\n    /* \"#utility.yul\":2117:2208   */\n  tag_14\n  jump\t// in\ntag_50:\n    /* \"#utility.yul\":2111:2115   */\n  dup3\n    /* \"#utility.yul\":2104:2209   */\n  sstore\n    /* \"#utility.yul\":2022:2215   */\n  pop\n    /* \"#utility.yul\":1946:2215   */\n  pop\n  pop\n  pop\n  jump\t// out\n    /* \"#utility.yul\":2221:2294   */\ntag_20:\n    /* \"#utility.yul\":2266:2269   */\n  0x00\n    /* \"#utility.yul\":2221:2294   */\n  swap1\n  jump\t// out\n    /* \"#utility.yul\":2300:2489   */\ntag_21:\n    /* \"#utility.yul\":2377:2409   */\n  tag_54\n  tag_20\n  jump\t// in\ntag_54:\n    /* \"#utility.yul\":2418:2483   */\n  tag_55\n    /* \"#utility.yul\":2476:2482   */\n  dup2\n    /* \"#utility.yul\":2468:2474   */\n  dup5\n    /* \"#utility.yul\":2462:2466   */\n  dup5\n    /* \"#utility.yul\":2418:2483   */\n  tag_19\n  jump\t// in\ntag_55:\n    /* \"#utility.yul\":2353:2489   */\n  pop\n    /* \"#utility.yul\":2300:2489   */\n  pop\n  pop\n  jump\t// out\n    /* \"#utility.yul\":2495:2681   */\ntag_22:\n    /* \"#utility.yul\":2555:2675   */\ntag_57:\n    /* \"#utility.yul\":2572:2575   */\n  dup2\n    /* \"#utility.yul\":2565:2570   */\n  dup2\n    /* \"#utility.yul\":2562:2576   */\n  lt\n    /* \"#utility.yul\":2555:2675   */\n  iszero\n  tag_59\n  jumpi\n    /* \"#utility.yul\":2626:2665   */\n  tag_60\n    /* \"#utility.yul\":2663:2664   */\n  0x00\n    /* \"#utility.yul\":2656:2661   */\n  dup3\n    /* \"#utility.yul\":2626:2665   */\n  tag_21\n  jump\t// in\ntag_60:\n    /* \"#utility.yul\":2599:2600   */\n  0x01\n    /* \"#utility.yul\":2592:2597   */\n  dup2\n    /* \"#utility.yul\":2588:2601   */\n  add\n    /* \"#utility.yul\":2579:2601   */\n  swap1\n  pop\n    /* \"#utility.yul\":2555:2675   */\n  jump(tag_57)\ntag_59:\n    /* \"#utility.yul\":2495:2681   */\n  pop\n  pop\n  jump\t// out\n    /* \"#utility.yul\":2687:3230   */\ntag_23:\n    /* \"#utility.yul\":2788:2790   */\n  0x1f\n    /* \"#utility.yul\":2783:2786   */\n  dup3\n    /* \"#utility.yul\":2780:2791   */\n  gt\n    /* \"#utility.yul\":2777:3223   */\n  iszero\n  tag_62\n  jumpi\n    /* \"#utility.yul\":2822:2860   */\n  tag_63\n    /* \"#utility.yul\":2854:2859   */\n  dup2\n    /* \"#utility.yul\":2822:2860   */\n  tag_11\n  jump\t// in\ntag_63:\n    /* \"#utility.yul\":2906:2935   */\n  tag_64\n    /* \"#utility.yul\":2924:2934   */\n  dup5\n    /* \"#utility.yul\":2906:2935   */\n  tag_12\n  jump\t// in\ntag_64:\n    /* \"#utility.yul\":2896:2904   */\n  dup2\n    /* \"#utility.yul\":2892:2936   */\n  add\n    /* \"#utility.yul\":3089:3091   */\n  0x20\n    /* \"#utility.yul\":3077:3087   */\n  dup6\n    /* \"#utility.yul\":3074:3092   */\n  lt\n    /* \"#utility.yul\":3071:3120   */\n  iszero\n  tag_65\n  jumpi\n    /* \"#utility.yul\":3110:3118   */\n  dup2\n    /* \"#utility.yul\":3095:3118   */\n  swap1\n  pop\n    /* \"#utility.yul\":3071:3120   */\ntag_65:\n    /* \"#utility.yul\":3133:3213   */\n  tag_66\n    /* \"#utility.yul\":3189:3211   */\n  tag_67\n    /* \"#utility.yul\":3207:3210   */\n  dup6\n    /* \"#utility.yul\":3189:3211   */\n  tag_12\n  jump\t// in\ntag_67:\n    /* \"#utility.yul\":3179:3187   */\n  dup4\n    /* \"#utility.yul\":3175:3212   */\n  add\n    /* \"#utility.yul\":3162:3173   */\n  dup3\n    /* \"#utility.yul\":3133:3213   */\n  tag_22\n  jump\t// in\ntag_66:\n    /* \"#utility.yul\":2792:3223   */\n  pop\n  pop\n    /* \"#utility.yul\":2777:3223   */\ntag_62:\n    /* \"#utility.yul\":2687:3230   */\n  pop\n  pop\n  pop\n  jump\t// out\n    /* \"#utility.yul\":3236:3353   */\ntag_24:\n    /* \"#utility.yul\":3290:3298   */\n  0x00\n    /* \"#utility.yul\":3340:3345   */\n  dup3\n    /* \"#utility.yul\":3334:3338   */\n  dup3\n    /* \"#utility.yul\":3330:3346   */\n  shr\n    /* \"#utility.yul\":3309:3346   */\n  swap1\n  pop\n    /* \"#utility.yul\":3236:3353   */\n  swap3\n  swap2\n  pop\n  pop\n  jump\t// out\n    /* \"#utility.yul\":3359:3528   */\ntag_25:\n    /* \"#utility.yul\":3403:3409   */\n  0x00\n    /* \"#utility.yul\":3436:3487   */\n  tag_70\n    /* \"#utility.yul\":3484:3485   */\n  0x00\n    /* \"#utility.yul\":3480:3486   */\n  not\n    /* \"#utility.yul\":3472:3477   */\n  dup5\n    /* \"#utility.yul\":3469:3470   */\n  0x08\n    /* \"#utility.yul\":3465:3478   */\n  mul\n    /* \"#utility.yul\":3436:3487   */\n  tag_24\n  jump\t// in\ntag_70:\n    /* \"#utility.yul\":3432:3488   */\n  not\n    /* \"#utility.yul\":3517:3521   */\n  dup1\n    /* \"#utility.yul\":3511:3515   */\n  dup4\n    /* \"#utility.yul\":3507:3522   */\n  and\n    /* \"#utility.yul\":3497:3522   */\n  swap2\n  pop\n    /* \"#utility.yul\":3410:3528   */\n  pop\n    /* \"#utility.yul\":3359:3528   */\n  swap3\n  swap2\n  pop\n  pop\n  jump\t// out\n    /* \"#utility.yul\":3533:3828   */\ntag_26:\n    /* \"#utility.yul\":3609:3613   */\n  0x00\n    /* \"#utility.yul\":3755:3784   */\n  tag_72\n    /* \"#utility.yul\":3780:3783   */\n  dup4\n    /* \"#utility.yul\":3774:3778   */\n  dup4\n    /* \"#utility.yul\":3755:3784   */\n  tag_25\n  jump\t// in\ntag_72:\n    /* \"#utility.yul\":3747:3784   */\n  swap2\n  pop\n    /* \"#utility.yul\":3817:3820   */\n  dup3\n    /* \"#utility.yul\":3814:3815   */\n  0x02\n    /* \"#utility.yul\":3810:3821   */\n  mul\n    /* \"#utility.yul\":3804:3808   */\n  dup3\n    /* \"#utility.yul\":3801:3822   */\n  or\n    /* \"#utility.yul\":3793:3822   */\n  swap1\n  pop\n    /* \"#utility.yul\":3533:3828   */\n  swap3\n  swap2\n  pop\n  pop\n  jump\t// out\n    /* \"#utility.yul\":3833:5228   */\ntag_2:\n    /* \"#utility.yul\":3950:3987   */\n  tag_74\n    /* \"#utility.yul\":3983:3986   */\n  dup3\n    /* \"#utility.yul\":3950:3987   */\n  tag_7\n  jump\t// in\ntag_74:\n    /* \"#utility.yul\":4052:4070   */\n  0xffffffffffffffff\n    /* \"#utility.yul\":4044:4050   */\n  dup2\n    /* \"#utility.yul\":4041:4071   */\n  gt\n    /* \"#utility.yul\":4038:4094   */\n  iszero\n  tag_75\n  jumpi\n    /* \"#utility.yul\":4074:4092   */\n  tag_76\n  tag_8\n  jump\t// in\ntag_76:\n    /* \"#utility.yul\":4038:4094   */\ntag_75:\n    /* \"#utility.yul\":4118:4156   */\n  tag_77\n    /* \"#utility.yul\":4150:4154   */\n  dup3\n    /* \"#utility.yul\":4144:4155   */\n  sload\n    /* \"#utility.yul\":4118:4156   */\n  tag_10\n  jump\t// in\ntag_77:\n    /* \"#utility.yul\":4203:4270   */\n  tag_78\n    /* \"#utility.yul\":4263:4269   */\n  dup3\n    /* \"#utility.yul\":4255:4261   */\n  dup3\n    /* \"#utility.yul\":4249:4253   */\n  dup6\n    /* \"#utility.yul\":4203:4270   */\n  tag_23\n  jump\t// in\ntag_78:\n    /* \"#utility.yul\":4297:4298   */\n  0x00\n    /* \"#utility.yul\":4321:4325   */\n  0x20\n    /* \"#utility.yul\":4308:4325   */\n  swap1\n  pop\n    /* \"#utility.yul\":4353:4355   */\n  0x1f\n    /* \"#utility.yul\":4345:4351   */\n  dup4\n    /* \"#utility.yul\":4342:4356   */\n  gt\n    /* \"#utility.yul\":4370:4371   */\n  0x01\n    /* \"#utility.yul\":4365:4983   */\n  dup2\n  eq\n  tag_80\n  jumpi\n    /* \"#utility.yul\":5027:5028   */\n  0x00\n    /* \"#utility.yul\":5044:5050   */\n  dup5\n    /* \"#utility.yul\":5041:5118   */\n  iszero\n  tag_81\n  jumpi\n    /* \"#utility.yul\":5093:5102   */\n  dup3\n    /* \"#utility.yul\":5088:5091   */\n  dup8\n    /* \"#utility.yul\":5084:5103   */\n  add\n    /* \"#utility.yul\":5078:5104   */\n  mload\n    /* \"#utility.yul\":5069:5104   */\n  swap1\n  pop\n    /* \"#utility.yul\":5041:5118   */\ntag_81:\n    /* \"#utility.yul\":5144:5211   */\n  tag_82\n    /* \"#utility.yul\":5204:5210   */\n  dup6\n    /* \"#utility.yul\":5197:5202   */\n  dup3\n    /* \"#utility.yul\":5144:5211   */\n  tag_26\n  jump\t// in\ntag_82:\n    /* \"#utility.yul\":5138:5142   */\n  dup7\n    /* \"#utility.yul\":5131:5212   */\n  sstore\n    /* \"#utility.yul\":5000:5222   */\n  pop\n    /* \"#utility.yul\":4335:5222   */\n  jump(tag_79)\n    /* \"#utility.yul\":4365:4983   */\ntag_80:\n    /* \"#utility.yul\":4417:4421   */\n  0x1f\n    /* \"#utility.yul\":4413:4422   */\n  not\n    /* \"#utility.yul\":4405:4411   */\n  dup5\n    /* \"#utility.yul\":4401:4423   */\n  and\n    /* \"#utility.yul\":4451:4488   */\n  tag_83\n    /* \"#utility.yul\":4483:4487   */\n  dup7\n    /* \"#utility.yul\":4451:4488   */\n  tag_11\n  jump\t// in\ntag_83:\n    /* \"#utility.yul\":4510:4511   */\n  0x00\n    /* \"#utility.yul\":4524:4732   */\ntag_84:\n    /* \"#utility.yul\":4538:4545   */\n  dup3\n    /* \"#utility.yul\":4535:4536   */\n  dup2\n    /* \"#utility.yul\":4532:4546   */\n  lt\n    /* \"#utility.yul\":4524:4732   */\n  iszero\n  tag_86\n  jumpi\n    /* \"#utility.yul\":4617:4626   */\n  dup5\n    /* \"#utility.yul\":4612:4615   */\n  dup10\n    /* \"#utility.yul\":4608:4627   */\n  add\n    /* \"#utility.yul\":4602:4628   */\n  mload\n    /* \"#utility.yul\":4594:4600   */\n  dup3\n    /* \"#utility.yul\":4587:4629   */\n  sstore\n    /* \"#utility.yul\":4668:4669   */\n  0x01\n    /* \"#utility.yul\":4660:4666   */\n  dup3\n    /* \"#utility.yul\":4656:4670   */\n  add\n    /* \"#utility.yul\":4646:4670   */\n  swap2\n  pop\n    /* \"#utility.yul\":4715:4717   */\n  0x20\n    /* \"#utility.yul\":4704:4713   */\n  dup6\n    /* \"#utility.yul\":4700:4718   */\n  add\n    /* \"#utility.yul\":4687:4718   */\n  swap5\n  pop\n    /* \"#utility.yul\":4561:4565   */\n  0x20\n    /* \"#utility.yul\":4558:4559   */\n  dup2\n    /* \"#utility.yul\":4554:4566   */\n  add\n    /* \"#utility.yul\":4549:4566   */\n  swap1\n  pop\n    /* \"#utility.yul\":4524:4732   */\n  jump(tag_84)\ntag_86:\n    /* \"#utility.yul\":4760:4766   */\n  dup7\n    /* \"#utility.yul\":4751:4758   */\n  dup4\n    /* \"#utility.yul\":4748:4767   */\n  lt\n    /* \"#utility.yul\":4745:4924   */\n  iszero\n  tag_87\n  jumpi\n    /* \"#utility.yul\":4818:4827   */\n  dup5\n    /* \"#utility.yul\":4813:4816   */\n  dup10\n    /* \"#utility.yul\":4809:4828   */\n  add\n    /* \"#utility.yul\":4803:4829   */\n  mload\n    /* \"#utility.yul\":4861:4909   */\n  tag_88\n    /* \"#utility.yul\":4903:4907   */\n  0x1f\n    /* \"#utility.yul\":4895:4901   */\n  dup10\n    /* \"#utility.yul\":4891:4908   */\n  and\n    /* \"#utility.yul\":4880:4889   */\n  dup3\n    /* \"#utility.yul\":4861:4909   */\n  tag_25\n  jump\t// in\ntag_88:\n    /* \"#utility.yul\":4853:4859   */\n  dup4\n    /* \"#utility.yul\":4846:4910   */\n  sstore\n    /* \"#utility.yul\":4768:4924   */\n  pop\n    /* \"#utility.yul\":4745:4924   */\ntag_87:\n    /* \"#utility.yul\":4970:4971   */\n  0x01\n    /* \"#utility.yul\":4966:4967   */\n  0x02\n    /* \"#utility.yul\":4958:4964   */\n  dup9\n    /* \"#utility.yul\":4954:4968   */\n  mul\n    /* \"#utility.yul\":4950:4972   */\n  add\n    /* \"#utility.yul\":4944:4948   */\n  dup9\n    /* \"#utility.yul\":4937:4973   */\n  sstore\n    /* \"#utility.yul\":4372:4983   */\n  pop\n  pop\n  pop\n    /* \"#utility.yul\":4335:5222   */\ntag_79:\n  pop\n    /* \"#utility.yul\":3925:5228   */\n  pop\n  pop\n  pop\n    /* \"#utility.yul\":3833:5228   */\n  pop\n  pop\n  jump\t// out\n    /* \"contracts/Practice/4.sol\":4533:4933  contract q2{... */\ntag_6:\n  dataSize(sub_0)\n  dup1\n  dataOffset(sub_0)\n  0x00\n  codecopy\n  0x00\n  return\nstop\n\nsub_0: assembly {\n        /* \"contracts/Practice/4.sol\":4533:4933  contract q2{... */\n      mstore(0x40, 0x80)\n      callvalue\n      dup1\n      iszero\n      tag_1\n      jumpi\n      0x00\n      dup1\n      revert\n    tag_1:\n      pop\n      jumpi(tag_2, lt(calldatasize, 0x04))\n      shr(0xe0, calldataload(0x00))\n      dup1\n      0x048a6023\n      eq\n      tag_3\n      jumpi\n      dup1\n      0xe7c04e59\n      eq\n      tag_4\n      jumpi\n    tag_2:\n      0x00\n      dup1\n      revert\n        /* \"contracts/Practice/4.sol\":4848:4920  function changeC(string memory _B)public check {... */\n    tag_3:\n      tag_5\n      0x04\n      dup1\n      calldatasize\n      sub\n      dup2\n      add\n      swap1\n      tag_6\n      swap2\n      swap1\n      tag_7\n      jump\t// in\n    tag_6:\n      tag_8\n      jump\t// in\n    tag_5:\n      stop\n        /* \"contracts/Practice/4.sol\":4761:4842  function changeB(string memory _B)public check{... */\n    tag_4:\n      tag_9\n      0x04\n      dup1\n      calldatasize\n      sub\n      dup2\n      add\n      swap1\n      tag_10\n      swap2\n      swap1\n      tag_7\n      jump\t// in\n    tag_10:\n      tag_11\n      jump\t// in\n    tag_9:\n      stop\n        /* \"contracts/Practice/4.sol\":4848:4920  function changeC(string memory _B)public check {... */\n    tag_8:\n        /* \"contracts/Practice/4.sol\":4700:4705  owner */\n      0x00\n      dup1\n      sload\n      swap1\n      0x0100\n      exp\n      swap1\n      div\n      0xffffffffffffffffffffffffffffffffffffffff\n      and\n        /* \"contracts/Practice/4.sol\":4686:4705  msg.sender == owner */\n      0xffffffffffffffffffffffffffffffffffffffff\n      and\n        /* \"contracts/Practice/4.sol\":4686:4696  msg.sender */\n      caller\n        /* \"contracts/Practice/4.sol\":4686:4705  msg.sender == owner */\n      0xffffffffffffffffffffffffffffffffffffffff\n      and\n      eq\n        /* \"contracts/Practice/4.sol\":4678:4706  require(msg.sender == owner) */\n      tag_13\n      jumpi\n      0x00\n      dup1\n      revert\n    tag_13:\n        /* \"contracts/Practice/4.sol\":4910:4912  _B */\n      dup1\n        /* \"contracts/Practice/4.sol\":4906:4907  a */\n      0x01\n        /* \"contracts/Practice/4.sol\":4906:4912  a = _B */\n      swap1\n      dup2\n      tag_15\n      swap2\n      swap1\n      tag_16\n      jump\t// in\n    tag_15:\n      pop\n        /* \"contracts/Practice/4.sol\":4848:4920  function changeC(string memory _B)public check {... */\n      pop\n      jump\t// out\n        /* \"contracts/Practice/4.sol\":4761:4842  function changeB(string memory _B)public check{... */\n    tag_11:\n        /* \"contracts/Practice/4.sol\":4700:4705  owner */\n      0x00\n      dup1\n      sload\n      swap1\n      0x0100\n      exp\n      swap1\n      div\n      0xffffffffffffffffffffffffffffffffffffffff\n      and\n        /* \"contracts/Practice/4.sol\":4686:4705  msg.sender == owner */\n      0xffffffffffffffffffffffffffffffffffffffff\n      and\n        /* \"contracts/Practice/4.sol\":4686:4696  msg.sender */\n      caller\n        /* \"contracts/Practice/4.sol\":4686:4705  msg.sender == owner */\n      0xffffffffffffffffffffffffffffffffffffffff\n      and\n      eq\n        /* \"contracts/Practice/4.sol\":4678:4706  require(msg.sender == owner) */\n      tag_18\n      jumpi\n      0x00\n      dup1\n      revert\n    tag_18:\n        /* \"contracts/Practice/4.sol\":4832:4834  _B */\n      dup1\n        /* \"contracts/Practice/4.sol\":4828:4829  a */\n      0x01\n        /* \"contracts/Practice/4.sol\":4828:4834  a = _B */\n      swap1\n      dup2\n      tag_20\n      swap2\n      swap1\n      tag_16\n      jump\t// in\n    tag_20:\n      pop\n        /* \"contracts/Practice/4.sol\":4761:4842  function changeB(string memory _B)public check{... */\n      pop\n      jump\t// out\n        /* \"#utility.yul\":7:82   */\n    tag_21:\n        /* \"#utility.yul\":40:46   */\n      0x00\n        /* \"#utility.yul\":73:75   */\n      0x40\n        /* \"#utility.yul\":67:76   */\n      mload\n        /* \"#utility.yul\":57:76   */\n      swap1\n      pop\n        /* \"#utility.yul\":7:82   */\n      swap1\n      jump\t// out\n        /* \"#utility.yul\":88:205   */\n    tag_22:\n        /* \"#utility.yul\":197:198   */\n      0x00\n        /* \"#utility.yul\":194:195   */\n      dup1\n        /* \"#utility.yul\":187:199   */\n      revert\n        /* \"#utility.yul\":211:328   */\n    tag_23:\n        /* \"#utility.yul\":320:321   */\n      0x00\n        /* \"#utility.yul\":317:318   */\n      dup1\n        /* \"#utility.yul\":310:322   */\n      revert\n        /* \"#utility.yul\":334:451   */\n    tag_24:\n        /* \"#utility.yul\":443:444   */\n      0x00\n        /* \"#utility.yul\":440:441   */\n      dup1\n        /* \"#utility.yul\":433:445   */\n      revert\n        /* \"#utility.yul\":457:574   */\n    tag_25:\n        /* \"#utility.yul\":566:567   */\n      0x00\n        /* \"#utility.yul\":563:564   */\n      dup1\n        /* \"#utility.yul\":556:568   */\n      revert\n        /* \"#utility.yul\":580:682   */\n    tag_26:\n        /* \"#utility.yul\":621:627   */\n      0x00\n        /* \"#utility.yul\":672:674   */\n      0x1f\n        /* \"#utility.yul\":668:675   */\n      not\n        /* \"#utility.yul\":663:665   */\n      0x1f\n        /* \"#utility.yul\":656:661   */\n      dup4\n        /* \"#utility.yul\":652:666   */\n      add\n        /* \"#utility.yul\":648:676   */\n      and\n        /* \"#utility.yul\":638:676   */\n      swap1\n      pop\n        /* \"#utility.yul\":580:682   */\n      swap2\n      swap1\n      pop\n      jump\t// out\n        /* \"#utility.yul\":688:868   */\n    tag_27:\n        /* \"#utility.yul\":736:813   */\n      0x4e487b7100000000000000000000000000000000000000000000000000000000\n        /* \"#utility.yul\":733:734   */\n      0x00\n        /* \"#utility.yul\":726:814   */\n      mstore\n        /* \"#utility.yul\":833:837   */\n      0x41\n        /* \"#utility.yul\":830:831   */\n      0x04\n        /* \"#utility.yul\":823:838   */\n      mstore\n        /* \"#utility.yul\":857:861   */\n      0x24\n        /* \"#utility.yul\":854:855   */\n      0x00\n        /* \"#utility.yul\":847:862   */\n      revert\n        /* \"#utility.yul\":874:1155   */\n    tag_28:\n        /* \"#utility.yul\":957:984   */\n      tag_62\n        /* \"#utility.yul\":979:983   */\n      dup3\n        /* \"#utility.yul\":957:984   */\n      tag_26\n      jump\t// in\n    tag_62:\n        /* \"#utility.yul\":949:955   */\n      dup2\n        /* \"#utility.yul\":945:985   */\n      add\n        /* \"#utility.yul\":1087:1093   */\n      dup2\n        /* \"#utility.yul\":1075:1085   */\n      dup2\n        /* \"#utility.yul\":1072:1094   */\n      lt\n        /* \"#utility.yul\":1051:1069   */\n      0xffffffffffffffff\n        /* \"#utility.yul\":1039:1049   */\n      dup3\n        /* \"#utility.yul\":1036:1070   */\n      gt\n        /* \"#utility.yul\":1033:1095   */\n      or\n        /* \"#utility.yul\":1030:1118   */\n      iszero\n      tag_63\n      jumpi\n        /* \"#utility.yul\":1098:1116   */\n      tag_64\n      tag_27\n      jump\t// in\n    tag_64:\n        /* \"#utility.yul\":1030:1118   */\n    tag_63:\n        /* \"#utility.yul\":1138:1148   */\n      dup1\n        /* \"#utility.yul\":1134:1136   */\n      0x40\n        /* \"#utility.yul\":1127:1149   */\n      mstore\n        /* \"#utility.yul\":917:1155   */\n      pop\n        /* \"#utility.yul\":874:1155   */\n      pop\n      pop\n      jump\t// out\n        /* \"#utility.yul\":1161:1290   */\n    tag_29:\n        /* \"#utility.yul\":1195:1201   */\n      0x00\n        /* \"#utility.yul\":1222:1242   */\n      tag_66\n      tag_21\n      jump\t// in\n    tag_66:\n        /* \"#utility.yul\":1212:1242   */\n      swap1\n      pop\n        /* \"#utility.yul\":1251:1284   */\n      tag_67\n        /* \"#utility.yul\":1279:1283   */\n      dup3\n        /* \"#utility.yul\":1271:1277   */\n      dup3\n        /* \"#utility.yul\":1251:1284   */\n      tag_28\n      jump\t// in\n    tag_67:\n        /* \"#utility.yul\":1161:1290   */\n      swap2\n      swap1\n      pop\n      jump\t// out\n        /* \"#utility.yul\":1296:1604   */\n    tag_30:\n        /* \"#utility.yul\":1358:1362   */\n      0x00\n        /* \"#utility.yul\":1448:1466   */\n      0xffffffffffffffff\n        /* \"#utility.yul\":1440:1446   */\n      dup3\n        /* \"#utility.yul\":1437:1467   */\n      gt\n        /* \"#utility.yul\":1434:1490   */\n      iszero\n      tag_69\n      jumpi\n        /* \"#utility.yul\":1470:1488   */\n      tag_70\n      tag_27\n      jump\t// in\n    tag_70:\n        /* \"#utility.yul\":1434:1490   */\n    tag_69:\n        /* \"#utility.yul\":1508:1537   */\n      tag_71\n        /* \"#utility.yul\":1530:1536   */\n      dup3\n        /* \"#utility.yul\":1508:1537   */\n      tag_26\n      jump\t// in\n    tag_71:\n        /* \"#utility.yul\":1500:1537   */\n      swap1\n      pop\n        /* \"#utility.yul\":1592:1596   */\n      0x20\n        /* \"#utility.yul\":1586:1590   */\n      dup2\n        /* \"#utility.yul\":1582:1597   */\n      add\n        /* \"#utility.yul\":1574:1597   */\n      swap1\n      pop\n        /* \"#utility.yul\":1296:1604   */\n      swap2\n      swap1\n      pop\n      jump\t// out\n        /* \"#utility.yul\":1610:1756   */\n    tag_31:\n        /* \"#utility.yul\":1707:1713   */\n      dup3\n        /* \"#utility.yul\":1702:1705   */\n      dup2\n        /* \"#utility.yul\":1697:1700   */\n      dup4\n        /* \"#utility.yul\":1684:1714   */\n      calldatacopy\n        /* \"#utility.yul\":1748:1749   */\n      0x00\n        /* \"#utility.yul\":1739:1745   */\n      dup4\n        /* \"#utility.yul\":1734:1737   */\n      dup4\n        /* \"#utility.yul\":1730:1746   */\n      add\n        /* \"#utility.yul\":1723:1750   */\n      mstore\n        /* \"#utility.yul\":1610:1756   */\n      pop\n      pop\n      pop\n      jump\t// out\n        /* \"#utility.yul\":1762:2187   */\n    tag_32:\n        /* \"#utility.yul\":1840:1845   */\n      0x00\n        /* \"#utility.yul\":1865:1931   */\n      tag_74\n        /* \"#utility.yul\":1881:1930   */\n      tag_75\n        /* \"#utility.yul\":1923:1929   */\n      dup5\n        /* \"#utility.yul\":1881:1930   */\n      tag_30\n      jump\t// in\n    tag_75:\n        /* \"#utility.yul\":1865:1931   */\n      tag_29\n      jump\t// in\n    tag_74:\n        /* \"#utility.yul\":1856:1931   */\n      swap1\n      pop\n        /* \"#utility.yul\":1954:1960   */\n      dup3\n        /* \"#utility.yul\":1947:1952   */\n      dup2\n        /* \"#utility.yul\":1940:1961   */\n      mstore\n        /* \"#utility.yul\":1992:1996   */\n      0x20\n        /* \"#utility.yul\":1985:1990   */\n      dup2\n        /* \"#utility.yul\":1981:1997   */\n      add\n        /* \"#utility.yul\":2030:2033   */\n      dup5\n        /* \"#utility.yul\":2021:2027   */\n      dup5\n        /* \"#utility.yul\":2016:2019   */\n      dup5\n        /* \"#utility.yul\":2012:2028   */\n      add\n        /* \"#utility.yul\":2009:2034   */\n      gt\n        /* \"#utility.yul\":2006:2118   */\n      iszero\n      tag_76\n      jumpi\n        /* \"#utility.yul\":2037:2116   */\n      tag_77\n      tag_25\n      jump\t// in\n    tag_77:\n        /* \"#utility.yul\":2006:2118   */\n    tag_76:\n        /* \"#utility.yul\":2127:2181   */\n      tag_78\n        /* \"#utility.yul\":2174:2180   */\n      dup5\n        /* \"#utility.yul\":2169:2172   */\n      dup3\n        /* \"#utility.yul\":2164:2167   */\n      dup6\n        /* \"#utility.yul\":2127:2181   */\n      tag_31\n      jump\t// in\n    tag_78:\n        /* \"#utility.yul\":1846:2187   */\n      pop\n        /* \"#utility.yul\":1762:2187   */\n      swap4\n      swap3\n      pop\n      pop\n      pop\n      jump\t// out\n        /* \"#utility.yul\":2207:2547   */\n    tag_33:\n        /* \"#utility.yul\":2263:2268   */\n      0x00\n        /* \"#utility.yul\":2312:2315   */\n      dup3\n        /* \"#utility.yul\":2305:2309   */\n      0x1f\n        /* \"#utility.yul\":2297:2303   */\n      dup4\n        /* \"#utility.yul\":2293:2310   */\n      add\n        /* \"#utility.yul\":2289:2316   */\n      slt\n        /* \"#utility.yul\":2279:2401   */\n      tag_80\n      jumpi\n        /* \"#utility.yul\":2320:2399   */\n      tag_81\n      tag_24\n      jump\t// in\n    tag_81:\n        /* \"#utility.yul\":2279:2401   */\n    tag_80:\n        /* \"#utility.yul\":2437:2443   */\n      dup2\n        /* \"#utility.yul\":2424:2444   */\n      calldataload\n        /* \"#utility.yul\":2462:2541   */\n      tag_82\n        /* \"#utility.yul\":2537:2540   */\n      dup5\n        /* \"#utility.yul\":2529:2535   */\n      dup3\n        /* \"#utility.yul\":2522:2526   */\n      0x20\n        /* \"#utility.yul\":2514:2520   */\n      dup7\n        /* \"#utility.yul\":2510:2527   */\n      add\n        /* \"#utility.yul\":2462:2541   */\n      tag_32\n      jump\t// in\n    tag_82:\n        /* \"#utility.yul\":2453:2541   */\n      swap2\n      pop\n        /* \"#utility.yul\":2269:2547   */\n      pop\n        /* \"#utility.yul\":2207:2547   */\n      swap3\n      swap2\n      pop\n      pop\n      jump\t// out\n        /* \"#utility.yul\":2553:3062   */\n    tag_7:\n        /* \"#utility.yul\":2622:2628   */\n      0x00\n        /* \"#utility.yul\":2671:2673   */\n      0x20\n        /* \"#utility.yul\":2659:2668   */\n      dup3\n        /* \"#utility.yul\":2650:2657   */\n      dup5\n        /* \"#utility.yul\":2646:2669   */\n      sub\n        /* \"#utility.yul\":2642:2674   */\n      slt\n        /* \"#utility.yul\":2639:2758   */\n      iszero\n      tag_84\n      jumpi\n        /* \"#utility.yul\":2677:2756   */\n      tag_85\n      tag_22\n      jump\t// in\n    tag_85:\n        /* \"#utility.yul\":2639:2758   */\n    tag_84:\n        /* \"#utility.yul\":2825:2826   */\n      0x00\n        /* \"#utility.yul\":2814:2823   */\n      dup3\n        /* \"#utility.yul\":2810:2827   */\n      add\n        /* \"#utility.yul\":2797:2828   */\n      calldataload\n        /* \"#utility.yul\":2855:2873   */\n      0xffffffffffffffff\n        /* \"#utility.yul\":2847:2853   */\n      dup2\n        /* \"#utility.yul\":2844:2874   */\n      gt\n        /* \"#utility.yul\":2841:2958   */\n      iszero\n      tag_86\n      jumpi\n        /* \"#utility.yul\":2877:2956   */\n      tag_87\n      tag_23\n      jump\t// in\n    tag_87:\n        /* \"#utility.yul\":2841:2958   */\n    tag_86:\n        /* \"#utility.yul\":2982:3045   */\n      tag_88\n        /* \"#utility.yul\":3037:3044   */\n      dup5\n        /* \"#utility.yul\":3028:3034   */\n      dup3\n        /* \"#utility.yul\":3017:3026   */\n      dup6\n        /* \"#utility.yul\":3013:3035   */\n      add\n        /* \"#utility.yul\":2982:3045   */\n      tag_33\n      jump\t// in\n    tag_88:\n        /* \"#utility.yul\":2972:3045   */\n      swap2\n      pop\n        /* \"#utility.yul\":2768:3055   */\n      pop\n        /* \"#utility.yul\":2553:3062   */\n      swap3\n      swap2\n      pop\n      pop\n      jump\t// out\n        /* \"#utility.yul\":3068:3167   */\n    tag_34:\n        /* \"#utility.yul\":3120:3126   */\n      0x00\n        /* \"#utility.yul\":3154:3159   */\n      dup2\n        /* \"#utility.yul\":3148:3160   */\n      mload\n        /* \"#utility.yul\":3138:3160   */\n      swap1\n      pop\n        /* \"#utility.yul\":3068:3167   */\n      swap2\n      swap1\n      pop\n      jump\t// out\n        /* \"#utility.yul\":3173:3353   */\n    tag_35:\n        /* \"#utility.yul\":3221:3298   */\n      0x4e487b7100000000000000000000000000000000000000000000000000000000\n        /* \"#utility.yul\":3218:3219   */\n      0x00\n        /* \"#utility.yul\":3211:3299   */\n      mstore\n        /* \"#utility.yul\":3318:3322   */\n      0x22\n        /* \"#utility.yul\":3315:3316   */\n      0x04\n        /* \"#utility.yul\":3308:3323   */\n      mstore\n        /* \"#utility.yul\":3342:3346   */\n      0x24\n        /* \"#utility.yul\":3339:3340   */\n      0x00\n        /* \"#utility.yul\":3332:3347   */\n      revert\n        /* \"#utility.yul\":3359:3679   */\n    tag_36:\n        /* \"#utility.yul\":3403:3409   */\n      0x00\n        /* \"#utility.yul\":3440:3441   */\n      0x02\n        /* \"#utility.yul\":3434:3438   */\n      dup3\n        /* \"#utility.yul\":3430:3442   */\n      div\n        /* \"#utility.yul\":3420:3442   */\n      swap1\n      pop\n        /* \"#utility.yul\":3487:3488   */\n      0x01\n        /* \"#utility.yul\":3481:3485   */\n      dup3\n        /* \"#utility.yul\":3477:3489   */\n      and\n        /* \"#utility.yul\":3508:3526   */\n      dup1\n        /* \"#utility.yul\":3498:3579   */\n      tag_92\n      jumpi\n        /* \"#utility.yul\":3564:3568   */\n      0x7f\n        /* \"#utility.yul\":3556:3562   */\n      dup3\n        /* \"#utility.yul\":3552:3569   */\n      and\n        /* \"#utility.yul\":3542:3569   */\n      swap2\n      pop\n        /* \"#utility.yul\":3498:3579   */\n    tag_92:\n        /* \"#utility.yul\":3626:3628   */\n      0x20\n        /* \"#utility.yul\":3618:3624   */\n      dup3\n        /* \"#utility.yul\":3615:3629   */\n      lt\n        /* \"#utility.yul\":3595:3613   */\n      dup2\n        /* \"#utility.yul\":3592:3630   */\n      sub\n        /* \"#utility.yul\":3589:3673   */\n      tag_93\n      jumpi\n        /* \"#utility.yul\":3645:3663   */\n      tag_94\n      tag_35\n      jump\t// in\n    tag_94:\n        /* \"#utility.yul\":3589:3673   */\n    tag_93:\n        /* \"#utility.yul\":3410:3679   */\n      pop\n        /* \"#utility.yul\":3359:3679   */\n      swap2\n      swap1\n      pop\n      jump\t// out\n        /* \"#utility.yul\":3685:3826   */\n    tag_37:\n        /* \"#utility.yul\":3734:3738   */\n      0x00\n        /* \"#utility.yul\":3757:3760   */\n      dup2\n        /* \"#utility.yul\":3749:3760   */\n      swap1\n      pop\n        /* \"#utility.yul\":3780:3783   */\n      dup2\n        /* \"#utility.yul\":3777:3778   */\n      0x00\n        /* \"#utility.yul\":3770:3784   */\n      mstore\n        /* \"#utility.yul\":3814:3818   */\n      0x20\n        /* \"#utility.yul\":3811:3812   */\n      0x00\n        /* \"#utility.yul\":3801:3819   */\n      keccak256\n        /* \"#utility.yul\":3793:3819   */\n      swap1\n      pop\n        /* \"#utility.yul\":3685:3826   */\n      swap2\n      swap1\n      pop\n      jump\t// out\n        /* \"#utility.yul\":3832:3925   */\n    tag_38:\n        /* \"#utility.yul\":3869:3875   */\n      0x00\n        /* \"#utility.yul\":3916:3918   */\n      0x20\n        /* \"#utility.yul\":3911:3913   */\n      0x1f\n        /* \"#utility.yul\":3904:3909   */\n      dup4\n        /* \"#utility.yul\":3900:3914   */\n      add\n        /* \"#utility.yul\":3896:3919   */\n      div\n        /* \"#utility.yul\":3886:3919   */\n      swap1\n      pop\n        /* \"#utility.yul\":3832:3925   */\n      swap2\n      swap1\n      pop\n      jump\t// out\n        /* \"#utility.yul\":3931:4038   */\n    tag_39:\n        /* \"#utility.yul\":3975:3983   */\n      0x00\n        /* \"#utility.yul\":4025:4030   */\n      dup3\n        /* \"#utility.yul\":4019:4023   */\n      dup3\n        /* \"#utility.yul\":4015:4031   */\n      shl\n        /* \"#utility.yul\":3994:4031   */\n      swap1\n      pop\n        /* \"#utility.yul\":3931:4038   */\n      swap3\n      swap2\n      pop\n      pop\n      jump\t// out\n        /* \"#utility.yul\":4044:4437   */\n    tag_40:\n        /* \"#utility.yul\":4113:4119   */\n      0x00\n        /* \"#utility.yul\":4163:4164   */\n      0x08\n        /* \"#utility.yul\":4151:4161   */\n      dup4\n        /* \"#utility.yul\":4147:4165   */\n      mul\n        /* \"#utility.yul\":4186:4283   */\n      tag_99\n        /* \"#utility.yul\":4216:4282   */\n      0xffffffffffffffffffffffffffffffffffffffffffffffffffffffffffffffff\n        /* \"#utility.yul\":4205:4214   */\n      dup3\n        /* \"#utility.yul\":4186:4283   */\n      tag_39\n      jump\t// in\n    tag_99:\n        /* \"#utility.yul\":4304:4343   */\n      tag_100\n        /* \"#utility.yul\":4334:4342   */\n      dup7\n        /* \"#utility.yul\":4323:4332   */\n      dup4\n        /* \"#utility.yul\":4304:4343   */\n      tag_39\n      jump\t// in\n    tag_100:\n        /* \"#utility.yul\":4292:4343   */\n      swap6\n      pop\n        /* \"#utility.yul\":4376:4380   */\n      dup1\n        /* \"#utility.yul\":4372:4381   */\n      not\n        /* \"#utility.yul\":4365:4370   */\n      dup5\n        /* \"#utility.yul\":4361:4382   */\n      and\n        /* \"#utility.yul\":4352:4382   */\n      swap4\n      pop\n        /* \"#utility.yul\":4425:4429   */\n      dup1\n        /* \"#utility.yul\":4415:4423   */\n      dup7\n        /* \"#utility.yul\":4411:4430   */\n      and\n        /* \"#utility.yul\":4404:4409   */\n      dup5\n        /* \"#utility.yul\":4401:4431   */\n      or\n        /* \"#utility.yul\":4391:4431   */\n      swap3\n      pop\n        /* \"#utility.yul\":4120:4437   */\n      pop\n      pop\n        /* \"#utility.yul\":4044:4437   */\n      swap4\n      swap3\n      pop\n      pop\n      pop\n      jump\t// out\n        /* \"#utility.yul\":4443:4520   */\n    tag_41:\n        /* \"#utility.yul\":4480:4487   */\n      0x00\n        /* \"#utility.yul\":4509:4514   */\n      dup2\n        /* \"#utility.yul\":4498:4514   */\n      swap1\n      pop\n        /* \"#utility.yul\":4443:4520   */\n      swap2\n      swap1\n      pop\n      jump\t// out\n        /* \"#utility.yul\":4526:4586   */\n    tag_42:\n        /* \"#utility.yul\":4554:4557   */\n      0x00\n        /* \"#utility.yul\":4575:4580   */\n      dup2\n        /* \"#utility.yul\":4568:4580   */\n      swap1\n      pop\n        /* \"#utility.yul\":4526:4586   */\n      swap2\n      swap1\n      pop\n      jump\t// out\n        /* \"#utility.yul\":4592:4734   */\n    tag_43:\n        /* \"#utility.yul\":4642:4651   */\n      0x00\n        /* \"#utility.yul\":4675:4728   */\n      tag_104\n        /* \"#utility.yul\":4693:4727   */\n      tag_105\n        /* \"#utility.yul\":4702:4726   */\n      tag_106\n        /* \"#utility.yul\":4720:4725   */\n      dup5\n        /* \"#utility.yul\":4702:4726   */\n      tag_41\n      jump\t// in\n    tag_106:\n        /* \"#utility.yul\":4693:4727   */\n      tag_42\n      jump\t// in\n    tag_105:\n        /* \"#utility.yul\":4675:4728   */\n      tag_41\n      jump\t// in\n    tag_104:\n        /* \"#utility.yul\":4662:4728   */\n      swap1\n      pop\n        /* \"#utility.yul\":4592:4734   */\n      swap2\n      swap1\n      pop\n      jump\t// out\n        /* \"#utility.yul\":4740:4815   */\n    tag_44:\n        /* \"#utility.yul\":4783:4786   */\n      0x00\n        /* \"#utility.yul\":4804:4809   */\n      dup2\n        /* \"#utility.yul\":4797:4809   */\n      swap1\n      pop\n        /* \"#utility.yul\":4740:4815   */\n      swap2\n      swap1\n      pop\n      jump\t// out\n        /* \"#utility.yul\":4821:5090   */\n    tag_45:\n        /* \"#utility.yul\":4931:4970   */\n      tag_109\n        /* \"#utility.yul\":4962:4969   */\n      dup4\n        /* \"#utility.yul\":4931:4970   */\n      tag_43\n      jump\t// in\n    tag_109:\n        /* \"#utility.yul\":4992:5083   */\n      tag_110\n        /* \"#utility.yul\":5041:5082   */\n      tag_111\n        /* \"#utility.yul\":5065:5081   */\n      dup3\n        /* \"#utility.yul\":5041:5082   */\n      tag_44\n      jump\t// in\n    tag_111:\n        /* \"#utility.yul\":5033:5039   */\n      dup5\n        /* \"#utility.yul\":5026:5030   */\n      dup5\n        /* \"#utility.yul\":5020:5031   */\n      sload\n        /* \"#utility.yul\":4992:5083   */\n      tag_40\n      jump\t// in\n    tag_110:\n        /* \"#utility.yul\":4986:4990   */\n      dup3\n        /* \"#utility.yul\":4979:5084   */\n      sstore\n        /* \"#utility.yul\":4897:5090   */\n      pop\n        /* \"#utility.yul\":4821:5090   */\n      pop\n      pop\n      pop\n      jump\t// out\n        /* \"#utility.yul\":5096:5169   */\n    tag_46:\n        /* \"#utility.yul\":5141:5144   */\n      0x00\n        /* \"#utility.yul\":5096:5169   */\n      swap1\n      jump\t// out\n        /* \"#utility.yul\":5175:5364   */\n    tag_47:\n        /* \"#utility.yul\":5252:5284   */\n      tag_114\n      tag_46\n      jump\t// in\n    tag_114:\n        /* \"#utility.yul\":5293:5358   */\n      tag_115\n        /* \"#utility.yul\":5351:5357   */\n      dup2\n        /* \"#utility.yul\":5343:5349   */\n      dup5\n        /* \"#utility.yul\":5337:5341   */\n      dup5\n        /* \"#utility.yul\":5293:5358   */\n      tag_45\n      jump\t// in\n    tag_115:\n        /* \"#utility.yul\":5228:5364   */\n      pop\n        /* \"#utility.yul\":5175:5364   */\n      pop\n      pop\n      jump\t// out\n        /* \"#utility.yul\":5370:5556   */\n    tag_48:\n        /* \"#utility.yul\":5430:5550   */\n    tag_117:\n        /* \"#utility.yul\":5447:5450   */\n      dup2\n        /* \"#utility.yul\":5440:5445   */\n      dup2\n        /* \"#utility.yul\":5437:5451   */\n      lt\n        /* \"#utility.yul\":5430:5550   */\n      iszero\n      tag_119\n      jumpi\n        /* \"#utility.yul\":5501:5540   */\n      tag_120\n        /* \"#utility.yul\":5538:5539   */\n      0x00\n        /* \"#utility.yul\":5531:5536   */\n      dup3\n        /* \"#utility.yul\":5501:5540   */\n      tag_47\n      jump\t// in\n    tag_120:\n        /* \"#utility.yul\":5474:5475   */\n      0x01\n        /* \"#utility.yul\":5467:5472   */\n      dup2\n        /* \"#utility.yul\":5463:5476   */\n      add\n        /* \"#utility.yul\":5454:5476   */\n      swap1\n      pop\n        /* \"#utility.yul\":5430:5550   */\n      jump(tag_117)\n    tag_119:\n        /* \"#utility.yul\":5370:5556   */\n      pop\n      pop\n      jump\t// out\n        /* \"#utility.yul\":5562:6105   */\n    tag_49:\n        /* \"#utility.yul\":5663:5665   */\n      0x1f\n        /* \"#utility.yul\":5658:5661   */\n      dup3\n        /* \"#utility.yul\":5655:5666   */\n      gt\n        /* \"#utility.yul\":5652:6098   */\n      iszero\n      tag_122\n      jumpi\n        /* \"#utility.yul\":5697:5735   */\n      tag_123\n        /* \"#utility.yul\":5729:5734   */\n      dup2\n        /* \"#utility.yul\":5697:5735   */\n      tag_37\n      jump\t// in\n    tag_123:\n        /* \"#utility.yul\":5781:5810   */\n      tag_124\n        /* \"#utility.yul\":5799:5809   */\n      dup5\n        /* \"#utility.yul\":5781:5810   */\n      tag_38\n      jump\t// in\n    tag_124:\n        /* \"#utility.yul\":5771:5779   */\n      dup2\n        /* \"#utility.yul\":5767:5811   */\n      add\n        /* \"#utility.yul\":5964:5966   */\n      0x20\n        /* \"#utility.yul\":5952:5962   */\n      dup6\n        /* \"#utility.yul\":5949:5967   */\n      lt\n        /* \"#utility.yul\":5946:5995   */\n      iszero\n      tag_125\n      jumpi\n        /* \"#utility.yul\":5985:5993   */\n      dup2\n        /* \"#utility.yul\":5970:5993   */\n      swap1\n      pop\n        /* \"#utility.yul\":5946:5995   */\n    tag_125:\n        /* \"#utility.yul\":6008:6088   */\n      tag_126\n        /* \"#utility.yul\":6064:6086   */\n      tag_127\n        /* \"#utility.yul\":6082:6085   */\n      dup6\n        /* \"#utility.yul\":6064:6086   */\n      tag_38\n      jump\t// in\n    tag_127:\n        /* \"#utility.yul\":6054:6062   */\n      dup4\n        /* \"#utility.yul\":6050:6087   */\n      add\n        /* \"#utility.yul\":6037:6048   */\n      dup3\n        /* \"#utility.yul\":6008:6088   */\n      tag_48\n      jump\t// in\n    tag_126:\n        /* \"#utility.yul\":5667:6098   */\n      pop\n      pop\n        /* \"#utility.yul\":5652:6098   */\n    tag_122:\n        /* \"#utility.yul\":5562:6105   */\n      pop\n      pop\n      pop\n      jump\t// out\n        /* \"#utility.yul\":6111:6228   */\n    tag_50:\n        /* \"#utility.yul\":6165:6173   */\n      0x00\n        /* \"#utility.yul\":6215:6220   */\n      dup3\n        /* \"#utility.yul\":6209:6213   */\n      dup3\n        /* \"#utility.yul\":6205:6221   */\n      shr\n        /* \"#utility.yul\":6184:6221   */\n      swap1\n      pop\n        /* \"#utility.yul\":6111:6228   */\n      swap3\n      swap2\n      pop\n      pop\n      jump\t// out\n        /* \"#utility.yul\":6234:6403   */\n    tag_51:\n        /* \"#utility.yul\":6278:6284   */\n      0x00\n        /* \"#utility.yul\":6311:6362   */\n      tag_130\n        /* \"#utility.yul\":6359:6360   */\n      0x00\n        /* \"#utility.yul\":6355:6361   */\n      not\n        /* \"#utility.yul\":6347:6352   */\n      dup5\n        /* \"#utility.yul\":6344:6345   */\n      0x08\n        /* \"#utility.yul\":6340:6353   */\n      mul\n        /* \"#utility.yul\":6311:6362   */\n      tag_50\n      jump\t// in\n    tag_130:\n        /* \"#utility.yul\":6307:6363   */\n      not\n        /* \"#utility.yul\":6392:6396   */\n      dup1\n        /* \"#utility.yul\":6386:6390   */\n      dup4\n        /* \"#utility.yul\":6382:6397   */\n      and\n        /* \"#utility.yul\":6372:6397   */\n      swap2\n      pop\n        /* \"#utility.yul\":6285:6403   */\n      pop\n        /* \"#utility.yul\":6234:6403   */\n      swap3\n      swap2\n      pop\n      pop\n      jump\t// out\n        /* \"#utility.yul\":6408:6703   */\n    tag_52:\n        /* \"#utility.yul\":6484:6488   */\n      0x00\n        /* \"#utility.yul\":6630:6659   */\n      tag_132\n        /* \"#utility.yul\":6655:6658   */\n      dup4\n        /* \"#utility.yul\":6649:6653   */\n      dup4\n        /* \"#utility.yul\":6630:6659   */\n      tag_51\n      jump\t// in\n    tag_132:\n        /* \"#utility.yul\":6622:6659   */\n      swap2\n      pop\n        /* \"#utility.yul\":6692:6695   */\n      dup3\n        /* \"#utility.yul\":6689:6690   */\n      0x02\n        /* \"#utility.yul\":6685:6696   */\n      mul\n        /* \"#utility.yul\":6679:6683   */\n      dup3\n        /* \"#utility.yul\":6676:6697   */\n      or\n        /* \"#utility.yul\":6668:6697   */\n      swap1\n      pop\n        /* \"#utility.yul\":6408:6703   */\n      swap3\n      swap2\n      pop\n      pop\n      jump\t// out\n        /* \"#utility.yul\":6708:8103   */\n    tag_16:\n        /* \"#utility.yul\":6825:6862   */\n      tag_134\n        /* \"#utility.yul\":6858:6861   */\n      dup3\n        /* \"#utility.yul\":6825:6862   */\n      tag_34\n      jump\t// in\n    tag_134:\n        /* \"#utility.yul\":6927:6945   */\n      0xffffffffffffffff\n        /* \"#utility.yul\":6919:6925   */\n      dup2\n        /* \"#utility.yul\":6916:6946   */\n      gt\n        /* \"#utility.yul\":6913:6969   */\n      iszero\n      tag_135\n      jumpi\n        /* \"#utility.yul\":6949:6967   */\n      tag_136\n      tag_27\n      jump\t// in\n    tag_136:\n        /* \"#utility.yul\":6913:6969   */\n    tag_135:\n        /* \"#utility.yul\":6993:7031   */\n      tag_137\n        /* \"#utility.yul\":7025:7029   */\n      dup3\n        /* \"#utility.yul\":7019:7030   */\n      sload\n        /* \"#utility.yul\":6993:7031   */\n      tag_36\n      jump\t// in\n    tag_137:\n        /* \"#utility.yul\":7078:7145   */\n      tag_138\n        /* \"#utility.yul\":7138:7144   */\n      dup3\n        /* \"#utility.yul\":7130:7136   */\n      dup3\n        /* \"#utility.yul\":7124:7128   */\n      dup6\n        /* \"#utility.yul\":7078:7145   */\n      tag_49\n      jump\t// in\n    tag_138:\n        /* \"#utility.yul\":7172:7173   */\n      0x00\n        /* \"#utility.yul\":7196:7200   */\n      0x20\n        /* \"#utility.yul\":7183:7200   */\n      swap1\n      pop\n        /* \"#utility.yul\":7228:7230   */\n      0x1f\n        /* \"#utility.yul\":7220:7226   */\n      dup4\n        /* \"#utility.yul\":7217:7231   */\n      gt\n        /* \"#utility.yul\":7245:7246   */\n      0x01\n        /* \"#utility.yul\":7240:7858   */\n      dup2\n      eq\n      tag_140\n      jumpi\n        /* \"#utility.yul\":7902:7903   */\n      0x00\n        /* \"#utility.yul\":7919:7925   */\n      dup5\n        /* \"#utility.yul\":7916:7993   */\n      iszero\n      tag_141\n      jumpi\n        /* \"#utility.yul\":7968:7977   */\n      dup3\n        /* \"#utility.yul\":7963:7966   */\n      dup8\n        /* \"#utility.yul\":7959:7978   */\n      add\n        /* \"#utility.yul\":7953:7979   */\n      mload\n        /* \"#utility.yul\":7944:7979   */\n      swap1\n      pop\n        /* \"#utility.yul\":7916:7993   */\n    tag_141:\n        /* \"#utility.yul\":8019:8086   */\n      tag_142\n        /* \"#utility.yul\":8079:8085   */\n      dup6\n        /* \"#utility.yul\":8072:8077   */\n      dup3\n        /* \"#utility.yul\":8019:8086   */\n      tag_52\n      jump\t// in\n    tag_142:\n        /* \"#utility.yul\":8013:8017   */\n      dup7\n        /* \"#utility.yul\":8006:8087   */\n      sstore\n        /* \"#utility.yul\":7875:8097   */\n      pop\n        /* \"#utility.yul\":7210:8097   */\n      jump(tag_139)\n        /* \"#utility.yul\":7240:7858   */\n    tag_140:\n        /* \"#utility.yul\":7292:7296   */\n      0x1f\n        /* \"#utility.yul\":7288:7297   */\n      not\n        /* \"#utility.yul\":7280:7286   */\n      dup5\n        /* \"#utility.yul\":7276:7298   */\n      and\n        /* \"#utility.yul\":7326:7363   */\n      tag_143\n        /* \"#utility.yul\":7358:7362   */\n      dup7\n        /* \"#utility.yul\":7326:7363   */\n      tag_37\n      jump\t// in\n    tag_143:\n        /* \"#utility.yul\":7385:7386   */\n      0x00\n        /* \"#utility.yul\":7399:7607   */\n    tag_144:\n        /* \"#utility.yul\":7413:7420   */\n      dup3\n        /* \"#utility.yul\":7410:7411   */\n      dup2\n        /* \"#utility.yul\":7407:7421   */\n      lt\n        /* \"#utility.yul\":7399:7607   */\n      iszero\n      tag_146\n      jumpi\n        /* \"#utility.yul\":7492:7501   */\n      dup5\n        /* \"#utility.yul\":7487:7490   */\n      dup10\n        /* \"#utility.yul\":7483:7502   */\n      add\n        /* \"#utility.yul\":7477:7503   */\n      mload\n        /* \"#utility.yul\":7469:7475   */\n      dup3\n        /* \"#utility.yul\":7462:7504   */\n      sstore\n        /* \"#utility.yul\":7543:7544   */\n      0x01\n        /* \"#utility.yul\":7535:7541   */\n      dup3\n        /* \"#utility.yul\":7531:7545   */\n      add\n        /* \"#utility.yul\":7521:7545   */\n      swap2\n      pop\n        /* \"#utility.yul\":7590:7592   */\n      0x20\n        /* \"#utility.yul\":7579:7588   */\n      dup6\n        /* \"#utility.yul\":7575:7593   */\n      add\n        /* \"#utility.yul\":7562:7593   */\n      swap5\n      pop\n        /* \"#utility.yul\":7436:7440   */\n      0x20\n        /* \"#utility.yul\":7433:7434   */\n      dup2\n        /* \"#utility.yul\":7429:7441   */\n      add\n        /* \"#utility.yul\":7424:7441   */\n      swap1\n      pop\n        /* \"#utility.yul\":7399:7607   */\n      jump(tag_144)\n    tag_146:\n        /* \"#utility.yul\":7635:7641   */\n      dup7\n        /* \"#utility.yul\":7626:7633   */\n      dup4\n        /* \"#utility.yul\":7623:7642   */\n      lt\n        /* \"#utility.yul\":7620:7799   */\n      iszero\n      tag_147\n      jumpi\n        /* \"#utility.yul\":7693:7702   */\n      dup5\n        /* \"#utility.yul\":7688:7691   */\n      dup10\n        /* \"#utility.yul\":7684:7703   */\n      add\n        /* \"#utility.yul\":7678:7704   */\n      mload\n        /* \"#utility.yul\":7736:7784   */\n      tag_148\n        /* \"#utility.yul\":7778:7782   */\n      0x1f\n        /* \"#utility.yul\":7770:7776   */\n      dup10\n        /* \"#utility.yul\":7766:7783   */\n      and\n        /* \"#utility.yul\":7755:7764   */\n      dup3\n        /* \"#utility.yul\":7736:7784   */\n      tag_51\n      jump\t// in\n    tag_148:\n        /* \"#utility.yul\":7728:7734   */\n      dup4\n        /* \"#utility.yul\":7721:7785   */\n      sstore\n        /* \"#utility.yul\":7643:7799   */\n      pop\n        /* \"#utility.yul\":7620:7799   */\n    tag_147:\n        /* \"#utility.yul\":7845:7846   */\n      0x01\n        /* \"#utility.yul\":7841:7842   */\n      0x02\n        /* \"#utility.yul\":7833:7839   */\n      dup9\n        /* \"#utility.yul\":7829:7843   */\n      mul\n        /* \"#utility.yul\":7825:7847   */\n      add\n        /* \"#utility.yul\":7819:7823   */\n      dup9\n        /* \"#utility.yul\":7812:7848   */\n      sstore\n        /* \"#utility.yul\":7247:7858   */\n      pop\n      pop\n      pop\n        /* \"#utility.yul\":7210:8097   */\n    tag_139:\n      pop\n        /* \"#utility.yul\":6800:8103   */\n      pop\n      pop\n      pop\n        /* \"#utility.yul\":6708:8103   */\n      pop\n      pop\n      jump\t// out\n\n    auxdata: 0xa2646970667358221220c1e652d3dc5ffe66da0ce23b3aebbf7db621c023599d3244c1dbadd0b07e349364736f6c63430008120033\n}\n",
				"bytecode": {
					"linkReferences": {},
					"object": "60806040526040518060400160405280600181526020017f4100000000000000000000000000000000000000000000000000000000000000815250600190816200004a919062000319565b503480156200005857600080fd5b50336000806101000a81548173ffffffffffffffffffffffffffffffffffffffff021916908373ffffffffffffffffffffffffffffffffffffffff16021790555062000400565b600081519050919050565b7f4e487b7100000000000000000000000000000000000000000000000000000000600052604160045260246000fd5b7f4e487b7100000000000000000000000000000000000000000000000000000000600052602260045260246000fd5b600060028204905060018216806200012157607f821691505b602082108103620001375762000136620000d9565b5b50919050565b60008190508160005260206000209050919050565b60006020601f8301049050919050565b600082821b905092915050565b600060088302620001a17fffffffffffffffffffffffffffffffffffffffffffffffffffffffffffffffff8262000162565b620001ad868362000162565b95508019841693508086168417925050509392505050565b6000819050919050565b6000819050919050565b6000620001fa620001f4620001ee84620001c5565b620001cf565b620001c5565b9050919050565b6000819050919050565b6200021683620001d9565b6200022e620002258262000201565b8484546200016f565b825550505050565b600090565b6200024562000236565b620002528184846200020b565b505050565b5b818110156200027a576200026e6000826200023b565b60018101905062000258565b5050565b601f821115620002c95762000293816200013d565b6200029e8462000152565b81016020851015620002ae578190505b620002c6620002bd8562000152565b83018262000257565b50505b505050565b600082821c905092915050565b6000620002ee60001984600802620002ce565b1980831691505092915050565b6000620003098383620002db565b9150826002028217905092915050565b62000324826200009f565b67ffffffffffffffff81111562000340576200033f620000aa565b5b6200034c825462000108565b620003598282856200027e565b600060209050601f8311600181146200039157600084156200037c578287015190505b620003888582620002fb565b865550620003f8565b601f198416620003a1866200013d565b60005b82811015620003cb57848901518255600182019150602085019450602081019050620003a4565b86831015620003eb5784890151620003e7601f891682620002db565b8355505b6001600288020188555050505b505050505050565b61061580620004106000396000f3fe608060405234801561001057600080fd5b50600436106100365760003560e01c8063048a60231461003b578063e7c04e5914610057575b600080fd5b610055600480360381019061005091906102a3565b610073565b005b610071600480360381019061006c91906102a3565b6100de565b005b60008054906101000a900473ffffffffffffffffffffffffffffffffffffffff1673ffffffffffffffffffffffffffffffffffffffff163373ffffffffffffffffffffffffffffffffffffffff16146100cb57600080fd5b80600190816100da919061050d565b5050565b60008054906101000a900473ffffffffffffffffffffffffffffffffffffffff1673ffffffffffffffffffffffffffffffffffffffff163373ffffffffffffffffffffffffffffffffffffffff161461013657600080fd5b8060019081610145919061050d565b5050565b6000604051905090565b600080fd5b600080fd5b600080fd5b600080fd5b6000601f19601f8301169050919050565b7f4e487b7100000000000000000000000000000000000000000000000000000000600052604160045260246000fd5b6101b082610167565b810181811067ffffffffffffffff821117156101cf576101ce610178565b5b80604052505050565b60006101e2610149565b90506101ee82826101a7565b919050565b600067ffffffffffffffff82111561020e5761020d610178565b5b61021782610167565b9050602081019050919050565b82818337600083830152505050565b6000610246610241846101f3565b6101d8565b90508281526020810184848401111561026257610261610162565b5b61026d848285610224565b509392505050565b600082601f83011261028a5761028961015d565b5b813561029a848260208601610233565b91505092915050565b6000602082840312156102b9576102b8610153565b5b600082013567ffffffffffffffff8111156102d7576102d6610158565b5b6102e384828501610275565b91505092915050565b600081519050919050565b7f4e487b7100000000000000000000000000000000000000000000000000000000600052602260045260246000fd5b6000600282049050600182168061033e57607f821691505b602082108103610351576103506102f7565b5b50919050565b60008190508160005260206000209050919050565b60006020601f8301049050919050565b600082821b905092915050565b6000600883026103b97fffffffffffffffffffffffffffffffffffffffffffffffffffffffffffffffff8261037c565b6103c3868361037c565b95508019841693508086168417925050509392505050565b6000819050919050565b6000819050919050565b600061040a610405610400846103db565b6103e5565b6103db565b9050919050565b6000819050919050565b610424836103ef565b61043861043082610411565b848454610389565b825550505050565b600090565b61044d610440565b61045881848461041b565b505050565b5b8181101561047c57610471600082610445565b60018101905061045e565b5050565b601f8211156104c15761049281610357565b61049b8461036c565b810160208510156104aa578190505b6104be6104b68561036c565b83018261045d565b50505b505050565b600082821c905092915050565b60006104e4600019846008026104c6565b1980831691505092915050565b60006104fd83836104d3565b9150826002028217905092915050565b610516826102ec565b67ffffffffffffffff81111561052f5761052e610178565b5b6105398254610326565b610544828285610480565b600060209050601f8311600181146105775760008415610565578287015190505b61056f85826104f1565b8655506105d7565b601f19841661058586610357565b60005b828110156105ad57848901518255600182019150602085019450602081019050610588565b868310156105ca57848901516105c6601f8916826104d3565b8355505b6001600288020188555050505b50505050505056fea2646970667358221220c1e652d3dc5ffe66da0ce23b3aebbf7db621c023599d3244c1dbadd0b07e349364736f6c63430008120033",
					"opcodes": "PUSH1 0x80 PUSH1 0x40 MSTORE PUSH1 0x40 MLOAD DUP1 PUSH1 0x40 ADD PUSH1 0x40 MSTORE DUP1 PUSH1 0x1 DUP2 MSTORE PUSH1 0x20 ADD PUSH32 0x4100000000000000000000000000000000000000000000000000000000000000 DUP2 MSTORE POP PUSH1 0x1 SWAP1 DUP2 PUSH3 0x4A SWAP2 SWAP1 PUSH3 0x319 JUMP JUMPDEST POP CALLVALUE DUP1 ISZERO PUSH3 0x58 JUMPI PUSH1 0x0 DUP1 REVERT JUMPDEST POP CALLER PUSH1 0x0 DUP1 PUSH2 0x100 EXP DUP2 SLOAD DUP2 PUSH20 0xFFFFFFFFFFFFFFFFFFFFFFFFFFFFFFFFFFFFFFFF MUL NOT AND SWAP1 DUP4 PUSH20 0xFFFFFFFFFFFFFFFFFFFFFFFFFFFFFFFFFFFFFFFF AND MUL OR SWAP1 SSTORE POP PUSH3 0x400 JUMP JUMPDEST PUSH1 0x0 DUP2 MLOAD SWAP1 POP SWAP2 SWAP1 POP JUMP JUMPDEST PUSH32 0x4E487B7100000000000000000000000000000000000000000000000000000000 PUSH1 0x0 MSTORE PUSH1 0x41 PUSH1 0x4 MSTORE PUSH1 0x24 PUSH1 0x0 REVERT JUMPDEST PUSH32 0x4E487B7100000000000000000000000000000000000000000000000000000000 PUSH1 0x0 MSTORE PUSH1 0x22 PUSH1 0x4 MSTORE PUSH1 0x24 PUSH1 0x0 REVERT JUMPDEST PUSH1 0x0 PUSH1 0x2 DUP3 DIV SWAP1 POP PUSH1 0x1 DUP3 AND DUP1 PUSH3 0x121 JUMPI PUSH1 0x7F DUP3 AND SWAP2 POP JUMPDEST PUSH1 0x20 DUP3 LT DUP2 SUB PUSH3 0x137 JUMPI PUSH3 0x136 PUSH3 0xD9 JUMP JUMPDEST JUMPDEST POP SWAP2 SWAP1 POP JUMP JUMPDEST PUSH1 0x0 DUP2 SWAP1 POP DUP2 PUSH1 0x0 MSTORE PUSH1 0x20 PUSH1 0x0 KECCAK256 SWAP1 POP SWAP2 SWAP1 POP JUMP JUMPDEST PUSH1 0x0 PUSH1 0x20 PUSH1 0x1F DUP4 ADD DIV SWAP1 POP SWAP2 SWAP1 POP JUMP JUMPDEST PUSH1 0x0 DUP3 DUP3 SHL SWAP1 POP SWAP3 SWAP2 POP POP JUMP JUMPDEST PUSH1 0x0 PUSH1 0x8 DUP4 MUL PUSH3 0x1A1 PUSH32 0xFFFFFFFFFFFFFFFFFFFFFFFFFFFFFFFFFFFFFFFFFFFFFFFFFFFFFFFFFFFFFFFF DUP3 PUSH3 0x162 JUMP JUMPDEST PUSH3 0x1AD DUP7 DUP4 PUSH3 0x162 JUMP JUMPDEST SWAP6 POP DUP1 NOT DUP5 AND SWAP4 POP DUP1 DUP7 AND DUP5 OR SWAP3 POP POP POP SWAP4 SWAP3 POP POP POP JUMP JUMPDEST PUSH1 0x0 DUP2 SWAP1 POP SWAP2 SWAP1 POP JUMP JUMPDEST PUSH1 0x0 DUP2 SWAP1 POP SWAP2 SWAP1 POP JUMP JUMPDEST PUSH1 0x0 PUSH3 0x1FA PUSH3 0x1F4 PUSH3 0x1EE DUP5 PUSH3 0x1C5 JUMP JUMPDEST PUSH3 0x1CF JUMP JUMPDEST PUSH3 0x1C5 JUMP JUMPDEST SWAP1 POP SWAP2 SWAP1 POP JUMP JUMPDEST PUSH1 0x0 DUP2 SWAP1 POP SWAP2 SWAP1 POP JUMP JUMPDEST PUSH3 0x216 DUP4 PUSH3 0x1D9 JUMP JUMPDEST PUSH3 0x22E PUSH3 0x225 DUP3 PUSH3 0x201 JUMP JUMPDEST DUP5 DUP5 SLOAD PUSH3 0x16F JUMP JUMPDEST DUP3 SSTORE POP POP POP POP JUMP JUMPDEST PUSH1 0x0 SWAP1 JUMP JUMPDEST PUSH3 0x245 PUSH3 0x236 JUMP JUMPDEST PUSH3 0x252 DUP2 DUP5 DUP5 PUSH3 0x20B JUMP JUMPDEST POP POP POP JUMP JUMPDEST JUMPDEST DUP2 DUP2 LT ISZERO PUSH3 0x27A JUMPI PUSH3 0x26E PUSH1 0x0 DUP3 PUSH3 0x23B JUMP JUMPDEST PUSH1 0x1 DUP2 ADD SWAP1 POP PUSH3 0x258 JUMP JUMPDEST POP POP JUMP JUMPDEST PUSH1 0x1F DUP3 GT ISZERO PUSH3 0x2C9 JUMPI PUSH3 0x293 DUP2 PUSH3 0x13D JUMP JUMPDEST PUSH3 0x29E DUP5 PUSH3 0x152 JUMP JUMPDEST DUP2 ADD PUSH1 0x20 DUP6 LT ISZERO PUSH3 0x2AE JUMPI DUP2 SWAP1 POP JUMPDEST PUSH3 0x2C6 PUSH3 0x2BD DUP6 PUSH3 0x152 JUMP JUMPDEST DUP4 ADD DUP3 PUSH3 0x257 JUMP JUMPDEST POP POP JUMPDEST POP POP POP JUMP JUMPDEST PUSH1 0x0 DUP3 DUP3 SHR SWAP1 POP SWAP3 SWAP2 POP POP JUMP JUMPDEST PUSH1 0x0 PUSH3 0x2EE PUSH1 0x0 NOT DUP5 PUSH1 0x8 MUL PUSH3 0x2CE JUMP JUMPDEST NOT DUP1 DUP4 AND SWAP2 POP POP SWAP3 SWAP2 POP POP JUMP JUMPDEST PUSH1 0x0 PUSH3 0x309 DUP4 DUP4 PUSH3 0x2DB JUMP JUMPDEST SWAP2 POP DUP3 PUSH1 0x2 MUL DUP3 OR SWAP1 POP SWAP3 SWAP2 POP POP JUMP JUMPDEST PUSH3 0x324 DUP3 PUSH3 0x9F JUMP JUMPDEST PUSH8 0xFFFFFFFFFFFFFFFF DUP2 GT ISZERO PUSH3 0x340 JUMPI PUSH3 0x33F PUSH3 0xAA JUMP JUMPDEST JUMPDEST PUSH3 0x34C DUP3 SLOAD PUSH3 0x108 JUMP JUMPDEST PUSH3 0x359 DUP3 DUP3 DUP6 PUSH3 0x27E JUMP JUMPDEST PUSH1 0x0 PUSH1 0x20 SWAP1 POP PUSH1 0x1F DUP4 GT PUSH1 0x1 DUP2 EQ PUSH3 0x391 JUMPI PUSH1 0x0 DUP5 ISZERO PUSH3 0x37C JUMPI DUP3 DUP8 ADD MLOAD SWAP1 POP JUMPDEST PUSH3 0x388 DUP6 DUP3 PUSH3 0x2FB JUMP JUMPDEST DUP7 SSTORE POP PUSH3 0x3F8 JUMP JUMPDEST PUSH1 0x1F NOT DUP5 AND PUSH3 0x3A1 DUP7 PUSH3 0x13D JUMP JUMPDEST PUSH1 0x0 JUMPDEST DUP3 DUP2 LT ISZERO PUSH3 0x3CB JUMPI DUP5 DUP10 ADD MLOAD DUP3 SSTORE PUSH1 0x1 DUP3 ADD SWAP2 POP PUSH1 0x20 DUP6 ADD SWAP5 POP PUSH1 0x20 DUP2 ADD SWAP1 POP PUSH3 0x3A4 JUMP JUMPDEST DUP7 DUP4 LT ISZERO PUSH3 0x3EB JUMPI DUP5 DUP10 ADD MLOAD PUSH3 0x3E7 PUSH1 0x1F DUP10 AND DUP3 PUSH3 0x2DB JUMP JUMPDEST DUP4 SSTORE POP JUMPDEST PUSH1 0x1 PUSH1 0x2 DUP9 MUL ADD DUP9 SSTORE POP POP POP JUMPDEST POP POP POP POP POP POP JUMP JUMPDEST PUSH2 0x615 DUP1 PUSH3 0x410 PUSH1 0x0 CODECOPY PUSH1 0x0 RETURN INVALID PUSH1 0x80 PUSH1 0x40 MSTORE CALLVALUE DUP1 ISZERO PUSH2 0x10 JUMPI PUSH1 0x0 DUP1 REVERT JUMPDEST POP PUSH1 0x4 CALLDATASIZE LT PUSH2 0x36 JUMPI PUSH1 0x0 CALLDATALOAD PUSH1 0xE0 SHR DUP1 PUSH4 0x48A6023 EQ PUSH2 0x3B JUMPI DUP1 PUSH4 0xE7C04E59 EQ PUSH2 0x57 JUMPI JUMPDEST PUSH1 0x0 DUP1 REVERT JUMPDEST PUSH2 0x55 PUSH1 0x4 DUP1 CALLDATASIZE SUB DUP2 ADD SWAP1 PUSH2 0x50 SWAP2 SWAP1 PUSH2 0x2A3 JUMP JUMPDEST PUSH2 0x73 JUMP JUMPDEST STOP JUMPDEST PUSH2 0x71 PUSH1 0x4 DUP1 CALLDATASIZE SUB DUP2 ADD SWAP1 PUSH2 0x6C SWAP2 SWAP1 PUSH2 0x2A3 JUMP JUMPDEST PUSH2 0xDE JUMP JUMPDEST STOP JUMPDEST PUSH1 0x0 DUP1 SLOAD SWAP1 PUSH2 0x100 EXP SWAP1 DIV PUSH20 0xFFFFFFFFFFFFFFFFFFFFFFFFFFFFFFFFFFFFFFFF AND PUSH20 0xFFFFFFFFFFFFFFFFFFFFFFFFFFFFFFFFFFFFFFFF AND CALLER PUSH20 0xFFFFFFFFFFFFFFFFFFFFFFFFFFFFFFFFFFFFFFFF AND EQ PUSH2 0xCB JUMPI PUSH1 0x0 DUP1 REVERT JUMPDEST DUP1 PUSH1 0x1 SWAP1 DUP2 PUSH2 0xDA SWAP2 SWAP1 PUSH2 0x50D JUMP JUMPDEST POP POP JUMP JUMPDEST PUSH1 0x0 DUP1 SLOAD SWAP1 PUSH2 0x100 EXP SWAP1 DIV PUSH20 0xFFFFFFFFFFFFFFFFFFFFFFFFFFFFFFFFFFFFFFFF AND PUSH20 0xFFFFFFFFFFFFFFFFFFFFFFFFFFFFFFFFFFFFFFFF AND CALLER PUSH20 0xFFFFFFFFFFFFFFFFFFFFFFFFFFFFFFFFFFFFFFFF AND EQ PUSH2 0x136 JUMPI PUSH1 0x0 DUP1 REVERT JUMPDEST DUP1 PUSH1 0x1 SWAP1 DUP2 PUSH2 0x145 SWAP2 SWAP1 PUSH2 0x50D JUMP JUMPDEST POP POP JUMP JUMPDEST PUSH1 0x0 PUSH1 0x40 MLOAD SWAP1 POP SWAP1 JUMP JUMPDEST PUSH1 0x0 DUP1 REVERT JUMPDEST PUSH1 0x0 DUP1 REVERT JUMPDEST PUSH1 0x0 DUP1 REVERT JUMPDEST PUSH1 0x0 DUP1 REVERT JUMPDEST PUSH1 0x0 PUSH1 0x1F NOT PUSH1 0x1F DUP4 ADD AND SWAP1 POP SWAP2 SWAP1 POP JUMP JUMPDEST PUSH32 0x4E487B7100000000000000000000000000000000000000000000000000000000 PUSH1 0x0 MSTORE PUSH1 0x41 PUSH1 0x4 MSTORE PUSH1 0x24 PUSH1 0x0 REVERT JUMPDEST PUSH2 0x1B0 DUP3 PUSH2 0x167 JUMP JUMPDEST DUP2 ADD DUP2 DUP2 LT PUSH8 0xFFFFFFFFFFFFFFFF DUP3 GT OR ISZERO PUSH2 0x1CF JUMPI PUSH2 0x1CE PUSH2 0x178 JUMP JUMPDEST JUMPDEST DUP1 PUSH1 0x40 MSTORE POP POP POP JUMP JUMPDEST PUSH1 0x0 PUSH2 0x1E2 PUSH2 0x149 JUMP JUMPDEST SWAP1 POP PUSH2 0x1EE DUP3 DUP3 PUSH2 0x1A7 JUMP JUMPDEST SWAP2 SWAP1 POP JUMP JUMPDEST PUSH1 0x0 PUSH8 0xFFFFFFFFFFFFFFFF DUP3 GT ISZERO PUSH2 0x20E JUMPI PUSH2 0x20D PUSH2 0x178 JUMP JUMPDEST JUMPDEST PUSH2 0x217 DUP3 PUSH2 0x167 JUMP JUMPDEST SWAP1 POP PUSH1 0x20 DUP2 ADD SWAP1 POP SWAP2 SWAP1 POP JUMP JUMPDEST DUP3 DUP2 DUP4 CALLDATACOPY PUSH1 0x0 DUP4 DUP4 ADD MSTORE POP POP POP JUMP JUMPDEST PUSH1 0x0 PUSH2 0x246 PUSH2 0x241 DUP5 PUSH2 0x1F3 JUMP JUMPDEST PUSH2 0x1D8 JUMP JUMPDEST SWAP1 POP DUP3 DUP2 MSTORE PUSH1 0x20 DUP2 ADD DUP5 DUP5 DUP5 ADD GT ISZERO PUSH2 0x262 JUMPI PUSH2 0x261 PUSH2 0x162 JUMP JUMPDEST JUMPDEST PUSH2 0x26D DUP5 DUP3 DUP6 PUSH2 0x224 JUMP JUMPDEST POP SWAP4 SWAP3 POP POP POP JUMP JUMPDEST PUSH1 0x0 DUP3 PUSH1 0x1F DUP4 ADD SLT PUSH2 0x28A JUMPI PUSH2 0x289 PUSH2 0x15D JUMP JUMPDEST JUMPDEST DUP2 CALLDATALOAD PUSH2 0x29A DUP5 DUP3 PUSH1 0x20 DUP7 ADD PUSH2 0x233 JUMP JUMPDEST SWAP2 POP POP SWAP3 SWAP2 POP POP JUMP JUMPDEST PUSH1 0x0 PUSH1 0x20 DUP3 DUP5 SUB SLT ISZERO PUSH2 0x2B9 JUMPI PUSH2 0x2B8 PUSH2 0x153 JUMP JUMPDEST JUMPDEST PUSH1 0x0 DUP3 ADD CALLDATALOAD PUSH8 0xFFFFFFFFFFFFFFFF DUP2 GT ISZERO PUSH2 0x2D7 JUMPI PUSH2 0x2D6 PUSH2 0x158 JUMP JUMPDEST JUMPDEST PUSH2 0x2E3 DUP5 DUP3 DUP6 ADD PUSH2 0x275 JUMP JUMPDEST SWAP2 POP POP SWAP3 SWAP2 POP POP JUMP JUMPDEST PUSH1 0x0 DUP2 MLOAD SWAP1 POP SWAP2 SWAP1 POP JUMP JUMPDEST PUSH32 0x4E487B7100000000000000000000000000000000000000000000000000000000 PUSH1 0x0 MSTORE PUSH1 0x22 PUSH1 0x4 MSTORE PUSH1 0x24 PUSH1 0x0 REVERT JUMPDEST PUSH1 0x0 PUSH1 0x2 DUP3 DIV SWAP1 POP PUSH1 0x1 DUP3 AND DUP1 PUSH2 0x33E JUMPI PUSH1 0x7F DUP3 AND SWAP2 POP JUMPDEST PUSH1 0x20 DUP3 LT DUP2 SUB PUSH2 0x351 JUMPI PUSH2 0x350 PUSH2 0x2F7 JUMP JUMPDEST JUMPDEST POP SWAP2 SWAP1 POP JUMP JUMPDEST PUSH1 0x0 DUP2 SWAP1 POP DUP2 PUSH1 0x0 MSTORE PUSH1 0x20 PUSH1 0x0 KECCAK256 SWAP1 POP SWAP2 SWAP1 POP JUMP JUMPDEST PUSH1 0x0 PUSH1 0x20 PUSH1 0x1F DUP4 ADD DIV SWAP1 POP SWAP2 SWAP1 POP JUMP JUMPDEST PUSH1 0x0 DUP3 DUP3 SHL SWAP1 POP SWAP3 SWAP2 POP POP JUMP JUMPDEST PUSH1 0x0 PUSH1 0x8 DUP4 MUL PUSH2 0x3B9 PUSH32 0xFFFFFFFFFFFFFFFFFFFFFFFFFFFFFFFFFFFFFFFFFFFFFFFFFFFFFFFFFFFFFFFF DUP3 PUSH2 0x37C JUMP JUMPDEST PUSH2 0x3C3 DUP7 DUP4 PUSH2 0x37C JUMP JUMPDEST SWAP6 POP DUP1 NOT DUP5 AND SWAP4 POP DUP1 DUP7 AND DUP5 OR SWAP3 POP POP POP SWAP4 SWAP3 POP POP POP JUMP JUMPDEST PUSH1 0x0 DUP2 SWAP1 POP SWAP2 SWAP1 POP JUMP JUMPDEST PUSH1 0x0 DUP2 SWAP1 POP SWAP2 SWAP1 POP JUMP JUMPDEST PUSH1 0x0 PUSH2 0x40A PUSH2 0x405 PUSH2 0x400 DUP5 PUSH2 0x3DB JUMP JUMPDEST PUSH2 0x3E5 JUMP JUMPDEST PUSH2 0x3DB JUMP JUMPDEST SWAP1 POP SWAP2 SWAP1 POP JUMP JUMPDEST PUSH1 0x0 DUP2 SWAP1 POP SWAP2 SWAP1 POP JUMP JUMPDEST PUSH2 0x424 DUP4 PUSH2 0x3EF JUMP JUMPDEST PUSH2 0x438 PUSH2 0x430 DUP3 PUSH2 0x411 JUMP JUMPDEST DUP5 DUP5 SLOAD PUSH2 0x389 JUMP JUMPDEST DUP3 SSTORE POP POP POP POP JUMP JUMPDEST PUSH1 0x0 SWAP1 JUMP JUMPDEST PUSH2 0x44D PUSH2 0x440 JUMP JUMPDEST PUSH2 0x458 DUP2 DUP5 DUP5 PUSH2 0x41B JUMP JUMPDEST POP POP POP JUMP JUMPDEST JUMPDEST DUP2 DUP2 LT ISZERO PUSH2 0x47C JUMPI PUSH2 0x471 PUSH1 0x0 DUP3 PUSH2 0x445 JUMP JUMPDEST PUSH1 0x1 DUP2 ADD SWAP1 POP PUSH2 0x45E JUMP JUMPDEST POP POP JUMP JUMPDEST PUSH1 0x1F DUP3 GT ISZERO PUSH2 0x4C1 JUMPI PUSH2 0x492 DUP2 PUSH2 0x357 JUMP JUMPDEST PUSH2 0x49B DUP5 PUSH2 0x36C JUMP JUMPDEST DUP2 ADD PUSH1 0x20 DUP6 LT ISZERO PUSH2 0x4AA JUMPI DUP2 SWAP1 POP JUMPDEST PUSH2 0x4BE PUSH2 0x4B6 DUP6 PUSH2 0x36C JUMP JUMPDEST DUP4 ADD DUP3 PUSH2 0x45D JUMP JUMPDEST POP POP JUMPDEST POP POP POP JUMP JUMPDEST PUSH1 0x0 DUP3 DUP3 SHR SWAP1 POP SWAP3 SWAP2 POP POP JUMP JUMPDEST PUSH1 0x0 PUSH2 0x4E4 PUSH1 0x0 NOT DUP5 PUSH1 0x8 MUL PUSH2 0x4C6 JUMP JUMPDEST NOT DUP1 DUP4 AND SWAP2 POP POP SWAP3 SWAP2 POP POP JUMP JUMPDEST PUSH1 0x0 PUSH2 0x4FD DUP4 DUP4 PUSH2 0x4D3 JUMP JUMPDEST SWAP2 POP DUP3 PUSH1 0x2 MUL DUP3 OR SWAP1 POP SWAP3 SWAP2 POP POP JUMP JUMPDEST PUSH2 0x516 DUP3 PUSH2 0x2EC JUMP JUMPDEST PUSH8 0xFFFFFFFFFFFFFFFF DUP2 GT ISZERO PUSH2 0x52F JUMPI PUSH2 0x52E PUSH2 0x178 JUMP JUMPDEST JUMPDEST PUSH2 0x539 DUP3 SLOAD PUSH2 0x326 JUMP JUMPDEST PUSH2 0x544 DUP3 DUP3 DUP6 PUSH2 0x480 JUMP JUMPDEST PUSH1 0x0 PUSH1 0x20 SWAP1 POP PUSH1 0x1F DUP4 GT PUSH1 0x1 DUP2 EQ PUSH2 0x577 JUMPI PUSH1 0x0 DUP5 ISZERO PUSH2 0x565 JUMPI DUP3 DUP8 ADD MLOAD SWAP1 POP JUMPDEST PUSH2 0x56F DUP6 DUP3 PUSH2 0x4F1 JUMP JUMPDEST DUP7 SSTORE POP PUSH2 0x5D7 JUMP JUMPDEST PUSH1 0x1F NOT DUP5 AND PUSH2 0x585 DUP7 PUSH2 0x357 JUMP JUMPDEST PUSH1 0x0 JUMPDEST DUP3 DUP2 LT ISZERO PUSH2 0x5AD JUMPI DUP5 DUP10 ADD MLOAD DUP3 SSTORE PUSH1 0x1 DUP3 ADD SWAP2 POP PUSH1 0x20 DUP6 ADD SWAP5 POP PUSH1 0x20 DUP2 ADD SWAP1 POP PUSH2 0x588 JUMP JUMPDEST DUP7 DUP4 LT ISZERO PUSH2 0x5CA JUMPI DUP5 DUP10 ADD MLOAD PUSH2 0x5C6 PUSH1 0x1F DUP10 AND DUP3 PUSH2 0x4D3 JUMP JUMPDEST DUP4 SSTORE POP JUMPDEST PUSH1 0x1 PUSH1 0x2 DUP9 MUL ADD DUP9 SSTORE POP POP POP JUMPDEST POP POP POP POP POP POP JUMP INVALID LOG2 PUSH5 0x6970667358 0x22 SLT KECCAK256 0xC1 0xE6 MSTORE 0xD3 0xDC 0x5F INVALID PUSH7 0xDA0CE23B3AEBBF PUSH30 0xB621C023599D3244C1DBADD0B07E349364736F6C63430008120033000000 "
				},
				"gasEstimates": {
					"creation": {
						"codeDepositCost": "311400",
						"executionCost": "infinite",
						"totalCost": "infinite"
					},
					"external": {
						"changeB(string)": "infinite",
						"changeC(string)": "infinite"
					}
				},
				"methodIdentifiers": {
					"changeB(string)": "e7c04e59",
					"changeC(string)": "048a6023"
				}
			},
			"storageLayout": {
				"storage": [
					{
						"astId": 283,
						"contract": "contracts/Practice/4.sol:q2",
						"label": "owner",
						"offset": 0,
						"slot": "0",
						"type": "t_address"
					},
					{
						"astId": 306,
						"contract": "contracts/Practice/4.sol:q2",
						"label": "a",
						"offset": 0,
						"slot": "1",
						"type": "t_string_storage"
					}
				],
				"types": {
					"t_address": {
						"encoding": "inplace",
						"label": "address",
						"numberOfBytes": "20"
					},
					"t_string_storage": {
						"encoding": "bytes",
						"label": "string",
						"numberOfBytes": "32"
					}
				}
			},
			"userdoc": {
				"kind": "user",
				"methods": {},
				"version": 1
			}
		}
	}
}