{
	"contracts/Practice/4.sol": {
		"q4": {
			"abi": [
				{
					"inputs": [],
					"name": "center",
					"outputs": [
						{
							"internalType": "uint256[]",
							"name": "",
							"type": "uint256[]"
						}
					],
					"stateMutability": "view",
					"type": "function"
				},
				{
					"inputs": [],
					"name": "getfs",
					"outputs": [
						{
							"internalType": "uint256[]",
							"name": "",
							"type": "uint256[]"
						}
					],
					"stateMutability": "view",
					"type": "function"
				},
				{
					"inputs": [],
					"name": "oruem",
					"outputs": [],
					"stateMutability": "nonpayable",
					"type": "function"
				},
				{
					"inputs": [
						{
							"internalType": "uint256",
							"name": "_a",
							"type": "uint256"
						}
					],
					"name": "setfs",
					"outputs": [],
					"stateMutability": "nonpayable",
					"type": "function"
				}
			],
			"devdoc": {
				"kind": "dev",
				"methods": {},
				"version": 1
			},
			"evm": {
				"assembly": "    /* \"contracts/Practice/4.sol\":5945:6928  contract q4{... */\n  mstore(0x40, 0x80)\n  callvalue\n  dup1\n  iszero\n  tag_1\n  jumpi\n  0x00\n  dup1\n  revert\ntag_1:\n  pop\n  dataSize(sub_0)\n  dup1\n  dataOffset(sub_0)\n  0x00\n  codecopy\n  0x00\n  return\nstop\n\nsub_0: assembly {\n        /* \"contracts/Practice/4.sol\":5945:6928  contract q4{... */\n      mstore(0x40, 0x80)\n      callvalue\n      dup1\n      iszero\n      tag_1\n      jumpi\n      0x00\n      dup1\n      revert\n    tag_1:\n      pop\n      jumpi(tag_2, lt(calldatasize, 0x04))\n      shr(0xe0, calldataload(0x00))\n      dup1\n      0x130747d1\n      eq\n      tag_3\n      jumpi\n      dup1\n      0x1f02d715\n      eq\n      tag_4\n      jumpi\n      dup1\n      0x396c9312\n      eq\n      tag_5\n      jumpi\n      dup1\n      0xbe3970fe\n      eq\n      tag_6\n      jumpi\n    tag_2:\n      0x00\n      dup1\n      revert\n        /* \"contracts/Practice/4.sol\":5980:6041  function setfs(uint _a) public {... */\n    tag_3:\n      tag_7\n      0x04\n      dup1\n      calldatasize\n      sub\n      dup2\n      add\n      swap1\n      tag_8\n      swap2\n      swap1\n      tag_9\n      jump\t// in\n    tag_8:\n      tag_10\n      jump\t// in\n    tag_7:\n      stop\n        /* \"contracts/Practice/4.sol\":6134:6597  function center() public view returns(uint[] memory) {... */\n    tag_4:\n      tag_11\n      tag_12\n      jump\t// in\n    tag_11:\n      mload(0x40)\n      tag_13\n      swap2\n      swap1\n      tag_14\n      jump\t// in\n    tag_13:\n      mload(0x40)\n      dup1\n      swap2\n      sub\n      swap1\n      return\n        /* \"contracts/Practice/4.sol\":6603:6921  function oruem() public {                          ... */\n    tag_5:\n      tag_15\n      tag_16\n      jump\t// in\n    tag_15:\n      stop\n        /* \"contracts/Practice/4.sol\":6047:6128  function getfs() public view returns (uint[] memory) {... */\n    tag_6:\n      tag_17\n      tag_18\n      jump\t// in\n    tag_17:\n      mload(0x40)\n      tag_19\n      swap2\n      swap1\n      tag_14\n      jump\t// in\n    tag_19:\n      mload(0x40)\n      dup1\n      swap2\n      sub\n      swap1\n      return\n        /* \"contracts/Practice/4.sol\":5980:6041  function setfs(uint _a) public {... */\n    tag_10:\n        /* \"contracts/Practice/4.sol\":6022:6024  fs */\n      0x00\n        /* \"contracts/Practice/4.sol\":6030:6032  _a */\n      dup2\n        /* \"contracts/Practice/4.sol\":6022:6033  fs.push(_a) */\n      swap1\n      dup1\n      0x01\n      dup2\n      sload\n      add\n      dup1\n      dup3\n      sstore\n      dup1\n      swap2\n      pop\n      pop\n      0x01\n      swap1\n      sub\n      swap1\n      0x00\n      mstore\n      keccak256(0x00, 0x20)\n      add\n      0x00\n      swap1\n      swap2\n      swap1\n      swap2\n      swap1\n      swap2\n      pop\n      sstore\n        /* \"contracts/Practice/4.sol\":5980:6041  function setfs(uint _a) public {... */\n      pop\n      jump\t// out\n        /* \"contracts/Practice/4.sol\":6134:6597  function center() public view returns(uint[] memory) {... */\n    tag_12:\n        /* \"contracts/Practice/4.sol\":6172:6185  uint[] memory */\n      0x60\n        /* \"contracts/Practice/4.sol\":6242:6258  uint[] memory a1 */\n      0x00\n        /* \"contracts/Practice/4.sol\":6271:6272  1 */\n      0x01\n        /* \"contracts/Practice/4.sol\":6260:6273  new uint[](1) */\n      0xffffffffffffffff\n      dup2\n      gt\n      iszero\n      tag_23\n      jumpi\n      tag_24\n      tag_25\n      jump\t// in\n    tag_24:\n    tag_23:\n      mload(0x40)\n      swap1\n      dup1\n      dup3\n      mstore\n      dup1\n      0x20\n      mul\n      0x20\n      add\n      dup3\n      add\n      0x40\n      mstore\n      dup1\n      iszero\n      tag_26\n      jumpi\n      dup2\n      0x20\n      add\n      0x20\n      dup3\n      mul\n      dup1\n      calldatasize\n      dup4\n      calldatacopy\n      dup1\n      dup3\n      add\n      swap2\n      pop\n      pop\n      swap1\n      pop\n    tag_26:\n      pop\n        /* \"contracts/Practice/4.sol\":6242:6273  uint[] memory a1= new uint[](1) */\n      swap1\n      pop\n        /* \"contracts/Practice/4.sol\":6284:6300  uint[] memory a2 */\n      0x00\n        /* \"contracts/Practice/4.sol\":6314:6315  2 */\n      0x02\n        /* \"contracts/Practice/4.sol\":6303:6316  new uint[](2) */\n      0xffffffffffffffff\n      dup2\n      gt\n      iszero\n      tag_27\n      jumpi\n      tag_28\n      tag_25\n      jump\t// in\n    tag_28:\n    tag_27:\n      mload(0x40)\n      swap1\n      dup1\n      dup3\n      mstore\n      dup1\n      0x20\n      mul\n      0x20\n      add\n      dup3\n      add\n      0x40\n      mstore\n      dup1\n      iszero\n      tag_29\n      jumpi\n      dup2\n      0x20\n      add\n      0x20\n      dup3\n      mul\n      dup1\n      calldatasize\n      dup4\n      calldatacopy\n      dup1\n      dup3\n      add\n      swap2\n      pop\n      pop\n      swap1\n      pop\n    tag_29:\n      pop\n        /* \"contracts/Practice/4.sol\":6284:6316  uint[] memory a2 = new uint[](2) */\n      swap1\n      pop\n        /* \"contracts/Practice/4.sol\":6345:6346  1 */\n      0x01\n        /* \"contracts/Practice/4.sol\":6340:6341  2 */\n      0x02\n        /* \"contracts/Practice/4.sol\":6330:6332  fs */\n      0x00\n        /* \"contracts/Practice/4.sol\":6330:6339  fs.length */\n      dup1\n      sload\n      swap1\n      pop\n        /* \"contracts/Practice/4.sol\":6330:6341  fs.length%2 */\n      tag_30\n      swap2\n      swap1\n      tag_31\n      jump\t// in\n    tag_30:\n        /* \"contracts/Practice/4.sol\":6330:6346  fs.length%2 == 1 */\n      sub\n        /* \"contracts/Practice/4.sol\":6327:6590  if(fs.length%2 == 1 ){... */\n      tag_32\n      jumpi\n        /* \"contracts/Practice/4.sol\":6369:6371  fs */\n      0x00\n        /* \"contracts/Practice/4.sol\":6383:6384  2 */\n      0x02\n        /* \"contracts/Practice/4.sol\":6373:6375  fs */\n      0x00\n        /* \"contracts/Practice/4.sol\":6373:6382  fs.length */\n      dup1\n      sload\n      swap1\n      pop\n        /* \"contracts/Practice/4.sol\":6373:6384  fs.length/2 */\n      tag_33\n      swap2\n      swap1\n      tag_34\n      jump\t// in\n    tag_33:\n        /* \"contracts/Practice/4.sol\":6369:6386  fs[(fs.length/2)] */\n      dup2\n      sload\n      dup2\n      lt\n      tag_35\n      jumpi\n      tag_36\n      tag_37\n      jump\t// in\n    tag_36:\n    tag_35:\n      swap1\n      0x00\n      mstore\n      keccak256(0x00, 0x20)\n      add\n      sload\n        /* \"contracts/Practice/4.sol\":6362:6364  a1 */\n      dup3\n        /* \"contracts/Practice/4.sol\":6365:6366  0 */\n      0x00\n        /* \"contracts/Practice/4.sol\":6362:6367  a1[0] */\n      dup2\n      mload\n      dup2\n      lt\n      tag_39\n      jumpi\n      tag_40\n      tag_37\n      jump\t// in\n    tag_40:\n    tag_39:\n      0x20\n      mul\n      0x20\n      add\n      add\n        /* \"contracts/Practice/4.sol\":6362:6386  a1[0] =fs[(fs.length/2)] */\n      dup2\n      dup2\n      mstore\n      pop\n      pop\n        /* \"contracts/Practice/4.sol\":6407:6409  a1 */\n      dup2\n        /* \"contracts/Practice/4.sol\":6400:6409  return a1 */\n      swap3\n      pop\n      pop\n      pop\n      jump(tag_22)\n        /* \"contracts/Practice/4.sol\":6327:6590  if(fs.length%2 == 1 ){... */\n    tag_32:\n        /* \"contracts/Practice/4.sol\":6458:6460  fs */\n      0x00\n        /* \"contracts/Practice/4.sol\":6475:6476  1 */\n      0x01\n        /* \"contracts/Practice/4.sol\":6472:6473  2 */\n      0x02\n        /* \"contracts/Practice/4.sol\":6462:6464  fs */\n      0x00\n        /* \"contracts/Practice/4.sol\":6462:6471  fs.length */\n      dup1\n      sload\n      swap1\n      pop\n        /* \"contracts/Practice/4.sol\":6462:6473  fs.length/2 */\n      tag_42\n      swap2\n      swap1\n      tag_34\n      jump\t// in\n    tag_42:\n        /* \"contracts/Practice/4.sol\":6461:6476  (fs.length/2)-1 */\n      tag_43\n      swap2\n      swap1\n      tag_44\n      jump\t// in\n    tag_43:\n        /* \"contracts/Practice/4.sol\":6458:6477  fs[(fs.length/2)-1] */\n      dup2\n      sload\n      dup2\n      lt\n      tag_45\n      jumpi\n      tag_46\n      tag_37\n      jump\t// in\n    tag_46:\n    tag_45:\n      swap1\n      0x00\n      mstore\n      keccak256(0x00, 0x20)\n      add\n      sload\n        /* \"contracts/Practice/4.sol\":6450:6452  a2 */\n      dup2\n        /* \"contracts/Practice/4.sol\":6453:6454  0 */\n      0x00\n        /* \"contracts/Practice/4.sol\":6450:6455  a2[0] */\n      dup2\n      mload\n      dup2\n      lt\n      tag_48\n      jumpi\n      tag_49\n      tag_37\n      jump\t// in\n    tag_49:\n    tag_48:\n      0x20\n      mul\n      0x20\n      add\n      add\n        /* \"contracts/Practice/4.sol\":6450:6477  a2[0] = fs[(fs.length/2)-1] */\n      dup2\n      dup2\n      mstore\n      pop\n      pop\n        /* \"contracts/Practice/4.sol\":6500:6502  fs */\n      0x00\n        /* \"contracts/Practice/4.sol\":6514:6515  2 */\n      0x02\n        /* \"contracts/Practice/4.sol\":6504:6506  fs */\n      0x00\n        /* \"contracts/Practice/4.sol\":6504:6513  fs.length */\n      dup1\n      sload\n      swap1\n      pop\n        /* \"contracts/Practice/4.sol\":6504:6515  fs.length/2 */\n      tag_50\n      swap2\n      swap1\n      tag_34\n      jump\t// in\n    tag_50:\n        /* \"contracts/Practice/4.sol\":6500:6517  fs[(fs.length/2)] */\n      dup2\n      sload\n      dup2\n      lt\n      tag_51\n      jumpi\n      tag_52\n      tag_37\n      jump\t// in\n    tag_52:\n    tag_51:\n      swap1\n      0x00\n      mstore\n      keccak256(0x00, 0x20)\n      add\n      sload\n        /* \"contracts/Practice/4.sol\":6492:6494  a2 */\n      dup2\n        /* \"contracts/Practice/4.sol\":6495:6496  1 */\n      0x01\n        /* \"contracts/Practice/4.sol\":6492:6497  a2[1] */\n      dup2\n      mload\n      dup2\n      lt\n      tag_54\n      jumpi\n      tag_55\n      tag_37\n      jump\t// in\n    tag_55:\n    tag_54:\n      0x20\n      mul\n      0x20\n      add\n      add\n        /* \"contracts/Practice/4.sol\":6492:6517  a2[1] = fs[(fs.length/2)] */\n      dup2\n      dup2\n      mstore\n      pop\n      pop\n        /* \"contracts/Practice/4.sol\":6539:6541  a2 */\n      dup1\n        /* \"contracts/Practice/4.sol\":6532:6541  return a2 */\n      swap3\n      pop\n      pop\n      pop\n        /* \"contracts/Practice/4.sol\":6134:6597  function center() public view returns(uint[] memory) {... */\n    tag_22:\n      swap1\n      jump\t// out\n        /* \"contracts/Practice/4.sol\":6603:6921  function oruem() public {                          ... */\n    tag_16:\n        /* \"contracts/Practice/4.sol\":6672:6678  uint i */\n      0x00\n        /* \"contracts/Practice/4.sol\":6668:6910  for(uint i=0;i<fs.length-1;i++) {... */\n    tag_57:\n        /* \"contracts/Practice/4.sol\":6693:6694  1 */\n      0x01\n        /* \"contracts/Practice/4.sol\":6683:6685  fs */\n      0x00\n        /* \"contracts/Practice/4.sol\":6683:6692  fs.length */\n      dup1\n      sload\n      swap1\n      pop\n        /* \"contracts/Practice/4.sol\":6683:6694  fs.length-1 */\n      tag_60\n      swap2\n      swap1\n      tag_44\n      jump\t// in\n    tag_60:\n        /* \"contracts/Practice/4.sol\":6681:6682  i */\n      dup2\n        /* \"contracts/Practice/4.sol\":6681:6694  i<fs.length-1 */\n      lt\n        /* \"contracts/Practice/4.sol\":6668:6910  for(uint i=0;i<fs.length-1;i++) {... */\n      iszero\n      tag_58\n      jumpi\n        /* \"contracts/Practice/4.sol\":6727:6733  uint j */\n      0x00\n        /* \"contracts/Practice/4.sol\":6736:6737  1 */\n      0x01\n        /* \"contracts/Practice/4.sol\":6734:6735  i */\n      dup3\n        /* \"contracts/Practice/4.sol\":6734:6737  i+1 */\n      tag_64\n      swap2\n      swap1\n      tag_65\n      jump\t// in\n    tag_64:\n        /* \"contracts/Practice/4.sol\":6727:6737  uint j=i+1 */\n      swap1\n      pop\n        /* \"contracts/Practice/4.sol\":6723:6895  for(uint j=i+1; j<fs.length ;j++) {... */\n    tag_61:\n        /* \"contracts/Practice/4.sol\":6741:6743  fs */\n      0x00\n        /* \"contracts/Practice/4.sol\":6741:6750  fs.length */\n      dup1\n      sload\n      swap1\n      pop\n        /* \"contracts/Practice/4.sol\":6739:6740  j */\n      dup2\n        /* \"contracts/Practice/4.sol\":6739:6750  j<fs.length */\n      lt\n        /* \"contracts/Practice/4.sol\":6723:6895  for(uint j=i+1; j<fs.length ;j++) {... */\n      iszero\n      tag_62\n      jumpi\n        /* \"contracts/Practice/4.sol\":6794:6796  fs */\n      0x00\n        /* \"contracts/Practice/4.sol\":6797:6798  j */\n      dup2\n        /* \"contracts/Practice/4.sol\":6794:6799  fs[j] */\n      dup2\n      sload\n      dup2\n      lt\n      tag_66\n      jumpi\n      tag_67\n      tag_37\n      jump\t// in\n    tag_67:\n    tag_66:\n      swap1\n      0x00\n      mstore\n      keccak256(0x00, 0x20)\n      add\n      sload\n        /* \"contracts/Practice/4.sol\":6787:6789  fs */\n      0x00\n        /* \"contracts/Practice/4.sol\":6790:6791  i */\n      dup4\n        /* \"contracts/Practice/4.sol\":6787:6792  fs[i] */\n      dup2\n      sload\n      dup2\n      lt\n      tag_69\n      jumpi\n      tag_70\n      tag_37\n      jump\t// in\n    tag_70:\n    tag_69:\n      swap1\n      0x00\n      mstore\n      keccak256(0x00, 0x20)\n      add\n      sload\n        /* \"contracts/Practice/4.sol\":6787:6799  fs[i]< fs[j] */\n      lt\n        /* \"contracts/Practice/4.sol\":6784:6880  if(fs[i]< fs[j]) {... */\n      iszero\n      tag_72\n      jumpi\n        /* \"contracts/Practice/4.sol\":6847:6849  fs */\n      0x00\n        /* \"contracts/Practice/4.sol\":6850:6851  j */\n      dup2\n        /* \"contracts/Practice/4.sol\":6847:6852  fs[j] */\n      dup2\n      sload\n      dup2\n      lt\n      tag_73\n      jumpi\n      tag_74\n      tag_37\n      jump\t// in\n    tag_74:\n    tag_73:\n      swap1\n      0x00\n      mstore\n      keccak256(0x00, 0x20)\n      add\n      sload\n        /* \"contracts/Practice/4.sol\":6854:6856  fs */\n      0x00\n        /* \"contracts/Practice/4.sol\":6857:6858  i */\n      dup4\n        /* \"contracts/Practice/4.sol\":6854:6859  fs[i] */\n      dup2\n      sload\n      dup2\n      lt\n      tag_76\n      jumpi\n      tag_77\n      tag_37\n      jump\t// in\n    tag_77:\n    tag_76:\n      swap1\n      0x00\n      mstore\n      keccak256(0x00, 0x20)\n      add\n      sload\n        /* \"contracts/Practice/4.sol\":6830:6832  fs */\n      0x00\n        /* \"contracts/Practice/4.sol\":6833:6834  i */\n      dup5\n        /* \"contracts/Practice/4.sol\":6830:6835  fs[i] */\n      dup2\n      sload\n      dup2\n      lt\n      tag_79\n      jumpi\n      tag_80\n      tag_37\n      jump\t// in\n    tag_80:\n    tag_79:\n      swap1\n      0x00\n      mstore\n      keccak256(0x00, 0x20)\n      add\n      0x00\n        /* \"contracts/Practice/4.sol\":6837:6839  fs */\n      dup1\n        /* \"contracts/Practice/4.sol\":6840:6841  j */\n      dup6\n        /* \"contracts/Practice/4.sol\":6837:6842  fs[j] */\n      dup2\n      sload\n      dup2\n      lt\n      tag_82\n      jumpi\n      tag_83\n      tag_37\n      jump\t// in\n    tag_83:\n    tag_82:\n      swap1\n      0x00\n      mstore\n      keccak256(0x00, 0x20)\n      add\n      0x00\n        /* \"contracts/Practice/4.sol\":6829:6860  (fs[i], fs[j]) = (fs[j], fs[i]) */\n      dup5\n      swap2\n      swap1\n      pop\n      sstore\n      dup4\n      swap2\n      swap1\n      pop\n      sstore\n      pop\n      pop\n        /* \"contracts/Practice/4.sol\":6784:6880  if(fs[i]< fs[j]) {... */\n    tag_72:\n        /* \"contracts/Practice/4.sol\":6752:6755  j++ */\n      dup1\n      dup1\n      tag_85\n      swap1\n      tag_86\n      jump\t// in\n    tag_85:\n      swap2\n      pop\n      pop\n        /* \"contracts/Practice/4.sol\":6723:6895  for(uint j=i+1; j<fs.length ;j++) {... */\n      jump(tag_61)\n    tag_62:\n      pop\n        /* \"contracts/Practice/4.sol\":6695:6698  i++ */\n      dup1\n      dup1\n      tag_87\n      swap1\n      tag_86\n      jump\t// in\n    tag_87:\n      swap2\n      pop\n      pop\n        /* \"contracts/Practice/4.sol\":6668:6910  for(uint i=0;i<fs.length-1;i++) {... */\n      jump(tag_57)\n    tag_58:\n      pop\n        /* \"contracts/Practice/4.sol\":6603:6921  function oruem() public {                          ... */\n      jump\t// out\n        /* \"contracts/Practice/4.sol\":6047:6128  function getfs() public view returns (uint[] memory) {... */\n    tag_18:\n        /* \"contracts/Practice/4.sol\":6085:6098  uint[] memory */\n      0x60\n        /* \"contracts/Practice/4.sol\":6118:6120  fs */\n      0x00\n        /* \"contracts/Practice/4.sol\":6111:6120  return fs */\n      dup1\n      sload\n      dup1\n      0x20\n      mul\n      0x20\n      add\n      mload(0x40)\n      swap1\n      dup2\n      add\n      0x40\n      mstore\n      dup1\n      swap3\n      swap2\n      swap1\n      dup2\n      dup2\n      mstore\n      0x20\n      add\n      dup3\n      dup1\n      sload\n      dup1\n      iszero\n      tag_89\n      jumpi\n      0x20\n      mul\n      dup3\n      add\n      swap2\n      swap1\n      0x00\n      mstore\n      keccak256(0x00, 0x20)\n      swap1\n    tag_90:\n      dup2\n      sload\n      dup2\n      mstore\n      0x20\n      add\n      swap1\n      0x01\n      add\n      swap1\n      dup1\n      dup4\n      gt\n      tag_90\n      jumpi\n    tag_89:\n      pop\n      pop\n      pop\n      pop\n      pop\n      swap1\n      pop\n        /* \"contracts/Practice/4.sol\":6047:6128  function getfs() public view returns (uint[] memory) {... */\n      swap1\n      jump\t// out\n        /* \"#utility.yul\":88:205   */\n    tag_92:\n        /* \"#utility.yul\":197:198   */\n      0x00\n        /* \"#utility.yul\":194:195   */\n      dup1\n        /* \"#utility.yul\":187:199   */\n      revert\n        /* \"#utility.yul\":334:411   */\n    tag_94:\n        /* \"#utility.yul\":371:378   */\n      0x00\n        /* \"#utility.yul\":400:405   */\n      dup2\n        /* \"#utility.yul\":389:405   */\n      swap1\n      pop\n        /* \"#utility.yul\":334:411   */\n      swap2\n      swap1\n      pop\n      jump\t// out\n        /* \"#utility.yul\":417:539   */\n    tag_95:\n        /* \"#utility.yul\":490:514   */\n      tag_112\n        /* \"#utility.yul\":508:513   */\n      dup2\n        /* \"#utility.yul\":490:514   */\n      tag_94\n      jump\t// in\n    tag_112:\n        /* \"#utility.yul\":483:488   */\n      dup2\n        /* \"#utility.yul\":480:515   */\n      eq\n        /* \"#utility.yul\":470:533   */\n      tag_113\n      jumpi\n        /* \"#utility.yul\":529:530   */\n      0x00\n        /* \"#utility.yul\":526:527   */\n      dup1\n        /* \"#utility.yul\":519:531   */\n      revert\n        /* \"#utility.yul\":470:533   */\n    tag_113:\n        /* \"#utility.yul\":417:539   */\n      pop\n      jump\t// out\n        /* \"#utility.yul\":545:684   */\n    tag_96:\n        /* \"#utility.yul\":591:596   */\n      0x00\n        /* \"#utility.yul\":629:635   */\n      dup2\n        /* \"#utility.yul\":616:636   */\n      calldataload\n        /* \"#utility.yul\":607:636   */\n      swap1\n      pop\n        /* \"#utility.yul\":645:678   */\n      tag_115\n        /* \"#utility.yul\":672:677   */\n      dup2\n        /* \"#utility.yul\":645:678   */\n      tag_95\n      jump\t// in\n    tag_115:\n        /* \"#utility.yul\":545:684   */\n      swap3\n      swap2\n      pop\n      pop\n      jump\t// out\n        /* \"#utility.yul\":690:1019   */\n    tag_9:\n        /* \"#utility.yul\":749:755   */\n      0x00\n        /* \"#utility.yul\":798:800   */\n      0x20\n        /* \"#utility.yul\":786:795   */\n      dup3\n        /* \"#utility.yul\":777:784   */\n      dup5\n        /* \"#utility.yul\":773:796   */\n      sub\n        /* \"#utility.yul\":769:801   */\n      slt\n        /* \"#utility.yul\":766:885   */\n      iszero\n      tag_117\n      jumpi\n        /* \"#utility.yul\":804:883   */\n      tag_118\n      tag_92\n      jump\t// in\n    tag_118:\n        /* \"#utility.yul\":766:885   */\n    tag_117:\n        /* \"#utility.yul\":924:925   */\n      0x00\n        /* \"#utility.yul\":949:1002   */\n      tag_119\n        /* \"#utility.yul\":994:1001   */\n      dup5\n        /* \"#utility.yul\":985:991   */\n      dup3\n        /* \"#utility.yul\":974:983   */\n      dup6\n        /* \"#utility.yul\":970:992   */\n      add\n        /* \"#utility.yul\":949:1002   */\n      tag_96\n      jump\t// in\n    tag_119:\n        /* \"#utility.yul\":939:1002   */\n      swap2\n      pop\n        /* \"#utility.yul\":895:1012   */\n      pop\n        /* \"#utility.yul\":690:1019   */\n      swap3\n      swap2\n      pop\n      pop\n      jump\t// out\n        /* \"#utility.yul\":1025:1139   */\n    tag_97:\n        /* \"#utility.yul\":1092:1098   */\n      0x00\n        /* \"#utility.yul\":1126:1131   */\n      dup2\n        /* \"#utility.yul\":1120:1132   */\n      mload\n        /* \"#utility.yul\":1110:1132   */\n      swap1\n      pop\n        /* \"#utility.yul\":1025:1139   */\n      swap2\n      swap1\n      pop\n      jump\t// out\n        /* \"#utility.yul\":1145:1329   */\n    tag_98:\n        /* \"#utility.yul\":1244:1255   */\n      0x00\n        /* \"#utility.yul\":1278:1284   */\n      dup3\n        /* \"#utility.yul\":1273:1276   */\n      dup3\n        /* \"#utility.yul\":1266:1285   */\n      mstore\n        /* \"#utility.yul\":1318:1322   */\n      0x20\n        /* \"#utility.yul\":1313:1316   */\n      dup3\n        /* \"#utility.yul\":1309:1323   */\n      add\n        /* \"#utility.yul\":1294:1323   */\n      swap1\n      pop\n        /* \"#utility.yul\":1145:1329   */\n      swap3\n      swap2\n      pop\n      pop\n      jump\t// out\n        /* \"#utility.yul\":1335:1467   */\n    tag_99:\n        /* \"#utility.yul\":1402:1406   */\n      0x00\n        /* \"#utility.yul\":1425:1428   */\n      dup2\n        /* \"#utility.yul\":1417:1428   */\n      swap1\n      pop\n        /* \"#utility.yul\":1455:1459   */\n      0x20\n        /* \"#utility.yul\":1450:1453   */\n      dup3\n        /* \"#utility.yul\":1446:1460   */\n      add\n        /* \"#utility.yul\":1438:1460   */\n      swap1\n      pop\n        /* \"#utility.yul\":1335:1467   */\n      swap2\n      swap1\n      pop\n      jump\t// out\n        /* \"#utility.yul\":1473:1581   */\n    tag_100:\n        /* \"#utility.yul\":1550:1574   */\n      tag_124\n        /* \"#utility.yul\":1568:1573   */\n      dup2\n        /* \"#utility.yul\":1550:1574   */\n      tag_94\n      jump\t// in\n    tag_124:\n        /* \"#utility.yul\":1545:1548   */\n      dup3\n        /* \"#utility.yul\":1538:1575   */\n      mstore\n        /* \"#utility.yul\":1473:1581   */\n      pop\n      pop\n      jump\t// out\n        /* \"#utility.yul\":1587:1766   */\n    tag_101:\n        /* \"#utility.yul\":1656:1666   */\n      0x00\n        /* \"#utility.yul\":1677:1723   */\n      tag_126\n        /* \"#utility.yul\":1719:1722   */\n      dup4\n        /* \"#utility.yul\":1711:1717   */\n      dup4\n        /* \"#utility.yul\":1677:1723   */\n      tag_100\n      jump\t// in\n    tag_126:\n        /* \"#utility.yul\":1755:1759   */\n      0x20\n        /* \"#utility.yul\":1750:1753   */\n      dup4\n        /* \"#utility.yul\":1746:1760   */\n      add\n        /* \"#utility.yul\":1732:1760   */\n      swap1\n      pop\n        /* \"#utility.yul\":1587:1766   */\n      swap3\n      swap2\n      pop\n      pop\n      jump\t// out\n        /* \"#utility.yul\":1772:1885   */\n    tag_102:\n        /* \"#utility.yul\":1842:1846   */\n      0x00\n        /* \"#utility.yul\":1874:1878   */\n      0x20\n        /* \"#utility.yul\":1869:1872   */\n      dup3\n        /* \"#utility.yul\":1865:1879   */\n      add\n        /* \"#utility.yul\":1857:1879   */\n      swap1\n      pop\n        /* \"#utility.yul\":1772:1885   */\n      swap2\n      swap1\n      pop\n      jump\t// out\n        /* \"#utility.yul\":1921:2653   */\n    tag_103:\n        /* \"#utility.yul\":2040:2043   */\n      0x00\n        /* \"#utility.yul\":2069:2123   */\n      tag_129\n        /* \"#utility.yul\":2117:2122   */\n      dup3\n        /* \"#utility.yul\":2069:2123   */\n      tag_97\n      jump\t// in\n    tag_129:\n        /* \"#utility.yul\":2139:2225   */\n      tag_130\n        /* \"#utility.yul\":2218:2224   */\n      dup2\n        /* \"#utility.yul\":2213:2216   */\n      dup6\n        /* \"#utility.yul\":2139:2225   */\n      tag_98\n      jump\t// in\n    tag_130:\n        /* \"#utility.yul\":2132:2225   */\n      swap4\n      pop\n        /* \"#utility.yul\":2249:2305   */\n      tag_131\n        /* \"#utility.yul\":2299:2304   */\n      dup4\n        /* \"#utility.yul\":2249:2305   */\n      tag_99\n      jump\t// in\n    tag_131:\n        /* \"#utility.yul\":2328:2335   */\n      dup1\n        /* \"#utility.yul\":2359:2360   */\n      0x00\n        /* \"#utility.yul\":2344:2628   */\n    tag_132:\n        /* \"#utility.yul\":2369:2375   */\n      dup4\n        /* \"#utility.yul\":2366:2367   */\n      dup2\n        /* \"#utility.yul\":2363:2376   */\n      lt\n        /* \"#utility.yul\":2344:2628   */\n      iszero\n      tag_134\n      jumpi\n        /* \"#utility.yul\":2445:2451   */\n      dup2\n        /* \"#utility.yul\":2439:2452   */\n      mload\n        /* \"#utility.yul\":2472:2535   */\n      tag_135\n        /* \"#utility.yul\":2531:2534   */\n      dup9\n        /* \"#utility.yul\":2516:2529   */\n      dup3\n        /* \"#utility.yul\":2472:2535   */\n      tag_101\n      jump\t// in\n    tag_135:\n        /* \"#utility.yul\":2465:2535   */\n      swap8\n      pop\n        /* \"#utility.yul\":2558:2618   */\n      tag_136\n        /* \"#utility.yul\":2611:2617   */\n      dup4\n        /* \"#utility.yul\":2558:2618   */\n      tag_102\n      jump\t// in\n    tag_136:\n        /* \"#utility.yul\":2548:2618   */\n      swap3\n      pop\n        /* \"#utility.yul\":2404:2628   */\n      pop\n        /* \"#utility.yul\":2391:2392   */\n      0x01\n        /* \"#utility.yul\":2388:2389   */\n      dup2\n        /* \"#utility.yul\":2384:2393   */\n      add\n        /* \"#utility.yul\":2379:2393   */\n      swap1\n      pop\n        /* \"#utility.yul\":2344:2628   */\n      jump(tag_132)\n    tag_134:\n        /* \"#utility.yul\":2348:2362   */\n      pop\n        /* \"#utility.yul\":2644:2647   */\n      dup6\n        /* \"#utility.yul\":2637:2647   */\n      swap4\n      pop\n        /* \"#utility.yul\":2045:2653   */\n      pop\n      pop\n      pop\n        /* \"#utility.yul\":1921:2653   */\n      swap3\n      swap2\n      pop\n      pop\n      jump\t// out\n        /* \"#utility.yul\":2659:3032   */\n    tag_14:\n        /* \"#utility.yul\":2802:2806   */\n      0x00\n        /* \"#utility.yul\":2840:2842   */\n      0x20\n        /* \"#utility.yul\":2829:2838   */\n      dup3\n        /* \"#utility.yul\":2825:2843   */\n      add\n        /* \"#utility.yul\":2817:2843   */\n      swap1\n      pop\n        /* \"#utility.yul\":2889:2898   */\n      dup2\n        /* \"#utility.yul\":2883:2887   */\n      dup2\n        /* \"#utility.yul\":2879:2899   */\n      sub\n        /* \"#utility.yul\":2875:2876   */\n      0x00\n        /* \"#utility.yul\":2864:2873   */\n      dup4\n        /* \"#utility.yul\":2860:2877   */\n      add\n        /* \"#utility.yul\":2853:2900   */\n      mstore\n        /* \"#utility.yul\":2917:3025   */\n      tag_138\n        /* \"#utility.yul\":3020:3024   */\n      dup2\n        /* \"#utility.yul\":3011:3017   */\n      dup5\n        /* \"#utility.yul\":2917:3025   */\n      tag_103\n      jump\t// in\n    tag_138:\n        /* \"#utility.yul\":2909:3025   */\n      swap1\n      pop\n        /* \"#utility.yul\":2659:3032   */\n      swap3\n      swap2\n      pop\n      pop\n      jump\t// out\n        /* \"#utility.yul\":3038:3218   */\n    tag_25:\n        /* \"#utility.yul\":3086:3163   */\n      0x4e487b7100000000000000000000000000000000000000000000000000000000\n        /* \"#utility.yul\":3083:3084   */\n      0x00\n        /* \"#utility.yul\":3076:3164   */\n      mstore\n        /* \"#utility.yul\":3183:3187   */\n      0x41\n        /* \"#utility.yul\":3180:3181   */\n      0x04\n        /* \"#utility.yul\":3173:3188   */\n      mstore\n        /* \"#utility.yul\":3207:3211   */\n      0x24\n        /* \"#utility.yul\":3204:3205   */\n      0x00\n        /* \"#utility.yul\":3197:3212   */\n      revert\n        /* \"#utility.yul\":3224:3404   */\n    tag_104:\n        /* \"#utility.yul\":3272:3349   */\n      0x4e487b7100000000000000000000000000000000000000000000000000000000\n        /* \"#utility.yul\":3269:3270   */\n      0x00\n        /* \"#utility.yul\":3262:3350   */\n      mstore\n        /* \"#utility.yul\":3369:3373   */\n      0x12\n        /* \"#utility.yul\":3366:3367   */\n      0x04\n        /* \"#utility.yul\":3359:3374   */\n      mstore\n        /* \"#utility.yul\":3393:3397   */\n      0x24\n        /* \"#utility.yul\":3390:3391   */\n      0x00\n        /* \"#utility.yul\":3383:3398   */\n      revert\n        /* \"#utility.yul\":3410:3586   */\n    tag_31:\n        /* \"#utility.yul\":3442:3443   */\n      0x00\n        /* \"#utility.yul\":3459:3479   */\n      tag_142\n        /* \"#utility.yul\":3477:3478   */\n      dup3\n        /* \"#utility.yul\":3459:3479   */\n      tag_94\n      jump\t// in\n    tag_142:\n        /* \"#utility.yul\":3454:3479   */\n      swap2\n      pop\n        /* \"#utility.yul\":3493:3513   */\n      tag_143\n        /* \"#utility.yul\":3511:3512   */\n      dup4\n        /* \"#utility.yul\":3493:3513   */\n      tag_94\n      jump\t// in\n    tag_143:\n        /* \"#utility.yul\":3488:3513   */\n      swap3\n      pop\n        /* \"#utility.yul\":3532:3533   */\n      dup3\n        /* \"#utility.yul\":3522:3557   */\n      tag_144\n      jumpi\n        /* \"#utility.yul\":3537:3555   */\n      tag_145\n      tag_104\n      jump\t// in\n    tag_145:\n        /* \"#utility.yul\":3522:3557   */\n    tag_144:\n        /* \"#utility.yul\":3578:3579   */\n      dup3\n        /* \"#utility.yul\":3575:3576   */\n      dup3\n        /* \"#utility.yul\":3571:3580   */\n      mod\n        /* \"#utility.yul\":3566:3580   */\n      swap1\n      pop\n        /* \"#utility.yul\":3410:3586   */\n      swap3\n      swap2\n      pop\n      pop\n      jump\t// out\n        /* \"#utility.yul\":3592:3772   */\n    tag_105:\n        /* \"#utility.yul\":3640:3717   */\n      0x4e487b7100000000000000000000000000000000000000000000000000000000\n        /* \"#utility.yul\":3637:3638   */\n      0x00\n        /* \"#utility.yul\":3630:3718   */\n      mstore\n        /* \"#utility.yul\":3737:3741   */\n      0x11\n        /* \"#utility.yul\":3734:3735   */\n      0x04\n        /* \"#utility.yul\":3727:3742   */\n      mstore\n        /* \"#utility.yul\":3761:3765   */\n      0x24\n        /* \"#utility.yul\":3758:3759   */\n      0x00\n        /* \"#utility.yul\":3751:3766   */\n      revert\n        /* \"#utility.yul\":3778:3963   */\n    tag_34:\n        /* \"#utility.yul\":3818:3819   */\n      0x00\n        /* \"#utility.yul\":3835:3855   */\n      tag_148\n        /* \"#utility.yul\":3853:3854   */\n      dup3\n        /* \"#utility.yul\":3835:3855   */\n      tag_94\n      jump\t// in\n    tag_148:\n        /* \"#utility.yul\":3830:3855   */\n      swap2\n      pop\n        /* \"#utility.yul\":3869:3889   */\n      tag_149\n        /* \"#utility.yul\":3887:3888   */\n      dup4\n        /* \"#utility.yul\":3869:3889   */\n      tag_94\n      jump\t// in\n    tag_149:\n        /* \"#utility.yul\":3864:3889   */\n      swap3\n      pop\n        /* \"#utility.yul\":3908:3909   */\n      dup3\n        /* \"#utility.yul\":3898:3933   */\n      tag_150\n      jumpi\n        /* \"#utility.yul\":3913:3931   */\n      tag_151\n      tag_104\n      jump\t// in\n    tag_151:\n        /* \"#utility.yul\":3898:3933   */\n    tag_150:\n        /* \"#utility.yul\":3955:3956   */\n      dup3\n        /* \"#utility.yul\":3952:3953   */\n      dup3\n        /* \"#utility.yul\":3948:3957   */\n      div\n        /* \"#utility.yul\":3943:3957   */\n      swap1\n      pop\n        /* \"#utility.yul\":3778:3963   */\n      swap3\n      swap2\n      pop\n      pop\n      jump\t// out\n        /* \"#utility.yul\":3969:4149   */\n    tag_37:\n        /* \"#utility.yul\":4017:4094   */\n      0x4e487b7100000000000000000000000000000000000000000000000000000000\n        /* \"#utility.yul\":4014:4015   */\n      0x00\n        /* \"#utility.yul\":4007:4095   */\n      mstore\n        /* \"#utility.yul\":4114:4118   */\n      0x32\n        /* \"#utility.yul\":4111:4112   */\n      0x04\n        /* \"#utility.yul\":4104:4119   */\n      mstore\n        /* \"#utility.yul\":4138:4142   */\n      0x24\n        /* \"#utility.yul\":4135:4136   */\n      0x00\n        /* \"#utility.yul\":4128:4143   */\n      revert\n        /* \"#utility.yul\":4155:4349   */\n    tag_44:\n        /* \"#utility.yul\":4195:4199   */\n      0x00\n        /* \"#utility.yul\":4215:4235   */\n      tag_154\n        /* \"#utility.yul\":4233:4234   */\n      dup3\n        /* \"#utility.yul\":4215:4235   */\n      tag_94\n      jump\t// in\n    tag_154:\n        /* \"#utility.yul\":4210:4235   */\n      swap2\n      pop\n        /* \"#utility.yul\":4249:4269   */\n      tag_155\n        /* \"#utility.yul\":4267:4268   */\n      dup4\n        /* \"#utility.yul\":4249:4269   */\n      tag_94\n      jump\t// in\n    tag_155:\n        /* \"#utility.yul\":4244:4269   */\n      swap3\n      pop\n        /* \"#utility.yul\":4293:4294   */\n      dup3\n        /* \"#utility.yul\":4290:4291   */\n      dup3\n        /* \"#utility.yul\":4286:4295   */\n      sub\n        /* \"#utility.yul\":4278:4295   */\n      swap1\n      pop\n        /* \"#utility.yul\":4317:4318   */\n      dup2\n        /* \"#utility.yul\":4311:4315   */\n      dup2\n        /* \"#utility.yul\":4308:4319   */\n      gt\n        /* \"#utility.yul\":4305:4342   */\n      iszero\n      tag_156\n      jumpi\n        /* \"#utility.yul\":4322:4340   */\n      tag_157\n      tag_105\n      jump\t// in\n    tag_157:\n        /* \"#utility.yul\":4305:4342   */\n    tag_156:\n        /* \"#utility.yul\":4155:4349   */\n      swap3\n      swap2\n      pop\n      pop\n      jump\t// out\n        /* \"#utility.yul\":4355:4546   */\n    tag_65:\n        /* \"#utility.yul\":4395:4398   */\n      0x00\n        /* \"#utility.yul\":4414:4434   */\n      tag_159\n        /* \"#utility.yul\":4432:4433   */\n      dup3\n        /* \"#utility.yul\":4414:4434   */\n      tag_94\n      jump\t// in\n    tag_159:\n        /* \"#utility.yul\":4409:4434   */\n      swap2\n      pop\n        /* \"#utility.yul\":4448:4468   */\n      tag_160\n        /* \"#utility.yul\":4466:4467   */\n      dup4\n        /* \"#utility.yul\":4448:4468   */\n      tag_94\n      jump\t// in\n    tag_160:\n        /* \"#utility.yul\":4443:4468   */\n      swap3\n      pop\n        /* \"#utility.yul\":4491:4492   */\n      dup3\n        /* \"#utility.yul\":4488:4489   */\n      dup3\n        /* \"#utility.yul\":4484:4493   */\n      add\n        /* \"#utility.yul\":4477:4493   */\n      swap1\n      pop\n        /* \"#utility.yul\":4512:4515   */\n      dup1\n        /* \"#utility.yul\":4509:4510   */\n      dup3\n        /* \"#utility.yul\":4506:4516   */\n      gt\n        /* \"#utility.yul\":4503:4539   */\n      iszero\n      tag_161\n      jumpi\n        /* \"#utility.yul\":4519:4537   */\n      tag_162\n      tag_105\n      jump\t// in\n    tag_162:\n        /* \"#utility.yul\":4503:4539   */\n    tag_161:\n        /* \"#utility.yul\":4355:4546   */\n      swap3\n      swap2\n      pop\n      pop\n      jump\t// out\n        /* \"#utility.yul\":4552:4785   */\n    tag_86:\n        /* \"#utility.yul\":4591:4594   */\n      0x00\n        /* \"#utility.yul\":4614:4638   */\n      tag_164\n        /* \"#utility.yul\":4632:4637   */\n      dup3\n        /* \"#utility.yul\":4614:4638   */\n      tag_94\n      jump\t// in\n    tag_164:\n        /* \"#utility.yul\":4605:4638   */\n      swap2\n      pop\n        /* \"#utility.yul\":4660:4726   */\n      0xffffffffffffffffffffffffffffffffffffffffffffffffffffffffffffffff\n        /* \"#utility.yul\":4653:4658   */\n      dup3\n        /* \"#utility.yul\":4650:4727   */\n      sub\n        /* \"#utility.yul\":4647:4750   */\n      tag_165\n      jumpi\n        /* \"#utility.yul\":4730:4748   */\n      tag_166\n      tag_105\n      jump\t// in\n    tag_166:\n        /* \"#utility.yul\":4647:4750   */\n    tag_165:\n        /* \"#utility.yul\":4777:4778   */\n      0x01\n        /* \"#utility.yul\":4770:4775   */\n      dup3\n        /* \"#utility.yul\":4766:4779   */\n      add\n        /* \"#utility.yul\":4759:4779   */\n      swap1\n      pop\n        /* \"#utility.yul\":4552:4785   */\n      swap2\n      swap1\n      pop\n      jump\t// out\n\n    auxdata: 0xa2646970667358221220684b18b042face40a41b5076e915fd47d7dc242c1f61c568e0ddf984b66bfce664736f6c63430008120033\n}\n",
				"bytecode": {
					"linkReferences": {},
					"object": "608060405234801561001057600080fd5b5061077c806100206000396000f3fe608060405234801561001057600080fd5b506004361061004c5760003560e01c8063130747d1146100515780631f02d7151461006d578063396c93121461008b578063be3970fe14610095575b600080fd5b61006b6004803603810190610066919061046b565b6100b3565b005b6100756100df565b6040516100829190610556565b60405180910390f35b6100936102a5565b005b61009d6103d8565b6040516100aa9190610556565b60405180910390f35b600081908060018154018082558091505060019003906000526020600020016000909190919091505550565b60606000600167ffffffffffffffff8111156100fe576100fd610578565b5b60405190808252806020026020018201604052801561012c5781602001602082028036833780820191505090505b5090506000600267ffffffffffffffff81111561014c5761014b610578565b5b60405190808252806020026020018201604052801561017a5781602001602082028036833780820191505090505b5090506001600260008054905061019191906105d6565b036101f057600060026000805490506101aa9190610636565b815481106101bb576101ba610667565b5b9060005260206000200154826000815181106101da576101d9610667565b5b60200260200101818152505081925050506102a2565b6000600160026000805490506102069190610636565b6102109190610696565b8154811061022157610220610667565b5b9060005260206000200154816000815181106102405761023f610667565b5b602002602001018181525050600060026000805490506102609190610636565b8154811061027157610270610667565b5b9060005260206000200154816001815181106102905761028f610667565b5b60200260200101818152505080925050505b90565b60005b60016000805490506102ba9190610696565b8110156103d55760006001826102d091906106ca565b90505b6000805490508110156103c157600081815481106102f4576102f3610667565b5b90600052602060002001546000838154811061031357610312610667565b5b906000526020600020015410156103ae576000818154811061033857610337610667565b5b90600052602060002001546000838154811061035757610356610667565b5b90600052602060002001546000848154811061037657610375610667565b5b90600052602060002001600080858154811061039557610394610667565b5b9060005260206000200160008491905055839190505550505b80806103b9906106fe565b9150506102d3565b5080806103cd906106fe565b9150506102a8565b50565b6060600080548060200260200160405190810160405280929190818152602001828054801561042657602002820191906000526020600020905b815481526020019060010190808311610412575b5050505050905090565b600080fd5b6000819050919050565b61044881610435565b811461045357600080fd5b50565b6000813590506104658161043f565b92915050565b60006020828403121561048157610480610430565b5b600061048f84828501610456565b91505092915050565b600081519050919050565b600082825260208201905092915050565b6000819050602082019050919050565b6104cd81610435565b82525050565b60006104df83836104c4565b60208301905092915050565b6000602082019050919050565b600061050382610498565b61050d81856104a3565b9350610518836104b4565b8060005b8381101561054957815161053088826104d3565b975061053b836104eb565b92505060018101905061051c565b5085935050505092915050565b6000602082019050818103600083015261057081846104f8565b905092915050565b7f4e487b7100000000000000000000000000000000000000000000000000000000600052604160045260246000fd5b7f4e487b7100000000000000000000000000000000000000000000000000000000600052601260045260246000fd5b60006105e182610435565b91506105ec83610435565b9250826105fc576105fb6105a7565b5b828206905092915050565b7f4e487b7100000000000000000000000000000000000000000000000000000000600052601160045260246000fd5b600061064182610435565b915061064c83610435565b92508261065c5761065b6105a7565b5b828204905092915050565b7f4e487b7100000000000000000000000000000000000000000000000000000000600052603260045260246000fd5b60006106a182610435565b91506106ac83610435565b92508282039050818111156106c4576106c3610607565b5b92915050565b60006106d582610435565b91506106e083610435565b92508282019050808211156106f8576106f7610607565b5b92915050565b600061070982610435565b91507fffffffffffffffffffffffffffffffffffffffffffffffffffffffffffffffff820361073b5761073a610607565b5b60018201905091905056fea2646970667358221220684b18b042face40a41b5076e915fd47d7dc242c1f61c568e0ddf984b66bfce664736f6c63430008120033",
					"opcodes": "PUSH1 0x80 PUSH1 0x40 MSTORE CALLVALUE DUP1 ISZERO PUSH2 0x10 JUMPI PUSH1 0x0 DUP1 REVERT JUMPDEST POP PUSH2 0x77C DUP1 PUSH2 0x20 PUSH1 0x0 CODECOPY PUSH1 0x0 RETURN INVALID PUSH1 0x80 PUSH1 0x40 MSTORE CALLVALUE DUP1 ISZERO PUSH2 0x10 JUMPI PUSH1 0x0 DUP1 REVERT JUMPDEST POP PUSH1 0x4 CALLDATASIZE LT PUSH2 0x4C JUMPI PUSH1 0x0 CALLDATALOAD PUSH1 0xE0 SHR DUP1 PUSH4 0x130747D1 EQ PUSH2 0x51 JUMPI DUP1 PUSH4 0x1F02D715 EQ PUSH2 0x6D JUMPI DUP1 PUSH4 0x396C9312 EQ PUSH2 0x8B JUMPI DUP1 PUSH4 0xBE3970FE EQ PUSH2 0x95 JUMPI JUMPDEST PUSH1 0x0 DUP1 REVERT JUMPDEST PUSH2 0x6B PUSH1 0x4 DUP1 CALLDATASIZE SUB DUP2 ADD SWAP1 PUSH2 0x66 SWAP2 SWAP1 PUSH2 0x46B JUMP JUMPDEST PUSH2 0xB3 JUMP JUMPDEST STOP JUMPDEST PUSH2 0x75 PUSH2 0xDF JUMP JUMPDEST PUSH1 0x40 MLOAD PUSH2 0x82 SWAP2 SWAP1 PUSH2 0x556 JUMP JUMPDEST PUSH1 0x40 MLOAD DUP1 SWAP2 SUB SWAP1 RETURN JUMPDEST PUSH2 0x93 PUSH2 0x2A5 JUMP JUMPDEST STOP JUMPDEST PUSH2 0x9D PUSH2 0x3D8 JUMP JUMPDEST PUSH1 0x40 MLOAD PUSH2 0xAA SWAP2 SWAP1 PUSH2 0x556 JUMP JUMPDEST PUSH1 0x40 MLOAD DUP1 SWAP2 SUB SWAP1 RETURN JUMPDEST PUSH1 0x0 DUP2 SWAP1 DUP1 PUSH1 0x1 DUP2 SLOAD ADD DUP1 DUP3 SSTORE DUP1 SWAP2 POP POP PUSH1 0x1 SWAP1 SUB SWAP1 PUSH1 0x0 MSTORE PUSH1 0x20 PUSH1 0x0 KECCAK256 ADD PUSH1 0x0 SWAP1 SWAP2 SWAP1 SWAP2 SWAP1 SWAP2 POP SSTORE POP JUMP JUMPDEST PUSH1 0x60 PUSH1 0x0 PUSH1 0x1 PUSH8 0xFFFFFFFFFFFFFFFF DUP2 GT ISZERO PUSH2 0xFE JUMPI PUSH2 0xFD PUSH2 0x578 JUMP JUMPDEST JUMPDEST PUSH1 0x40 MLOAD SWAP1 DUP1 DUP3 MSTORE DUP1 PUSH1 0x20 MUL PUSH1 0x20 ADD DUP3 ADD PUSH1 0x40 MSTORE DUP1 ISZERO PUSH2 0x12C JUMPI DUP2 PUSH1 0x20 ADD PUSH1 0x20 DUP3 MUL DUP1 CALLDATASIZE DUP4 CALLDATACOPY DUP1 DUP3 ADD SWAP2 POP POP SWAP1 POP JUMPDEST POP SWAP1 POP PUSH1 0x0 PUSH1 0x2 PUSH8 0xFFFFFFFFFFFFFFFF DUP2 GT ISZERO PUSH2 0x14C JUMPI PUSH2 0x14B PUSH2 0x578 JUMP JUMPDEST JUMPDEST PUSH1 0x40 MLOAD SWAP1 DUP1 DUP3 MSTORE DUP1 PUSH1 0x20 MUL PUSH1 0x20 ADD DUP3 ADD PUSH1 0x40 MSTORE DUP1 ISZERO PUSH2 0x17A JUMPI DUP2 PUSH1 0x20 ADD PUSH1 0x20 DUP3 MUL DUP1 CALLDATASIZE DUP4 CALLDATACOPY DUP1 DUP3 ADD SWAP2 POP POP SWAP1 POP JUMPDEST POP SWAP1 POP PUSH1 0x1 PUSH1 0x2 PUSH1 0x0 DUP1 SLOAD SWAP1 POP PUSH2 0x191 SWAP2 SWAP1 PUSH2 0x5D6 JUMP JUMPDEST SUB PUSH2 0x1F0 JUMPI PUSH1 0x0 PUSH1 0x2 PUSH1 0x0 DUP1 SLOAD SWAP1 POP PUSH2 0x1AA SWAP2 SWAP1 PUSH2 0x636 JUMP JUMPDEST DUP2 SLOAD DUP2 LT PUSH2 0x1BB JUMPI PUSH2 0x1BA PUSH2 0x667 JUMP JUMPDEST JUMPDEST SWAP1 PUSH1 0x0 MSTORE PUSH1 0x20 PUSH1 0x0 KECCAK256 ADD SLOAD DUP3 PUSH1 0x0 DUP2 MLOAD DUP2 LT PUSH2 0x1DA JUMPI PUSH2 0x1D9 PUSH2 0x667 JUMP JUMPDEST JUMPDEST PUSH1 0x20 MUL PUSH1 0x20 ADD ADD DUP2 DUP2 MSTORE POP POP DUP2 SWAP3 POP POP POP PUSH2 0x2A2 JUMP JUMPDEST PUSH1 0x0 PUSH1 0x1 PUSH1 0x2 PUSH1 0x0 DUP1 SLOAD SWAP1 POP PUSH2 0x206 SWAP2 SWAP1 PUSH2 0x636 JUMP JUMPDEST PUSH2 0x210 SWAP2 SWAP1 PUSH2 0x696 JUMP JUMPDEST DUP2 SLOAD DUP2 LT PUSH2 0x221 JUMPI PUSH2 0x220 PUSH2 0x667 JUMP JUMPDEST JUMPDEST SWAP1 PUSH1 0x0 MSTORE PUSH1 0x20 PUSH1 0x0 KECCAK256 ADD SLOAD DUP2 PUSH1 0x0 DUP2 MLOAD DUP2 LT PUSH2 0x240 JUMPI PUSH2 0x23F PUSH2 0x667 JUMP JUMPDEST JUMPDEST PUSH1 0x20 MUL PUSH1 0x20 ADD ADD DUP2 DUP2 MSTORE POP POP PUSH1 0x0 PUSH1 0x2 PUSH1 0x0 DUP1 SLOAD SWAP1 POP PUSH2 0x260 SWAP2 SWAP1 PUSH2 0x636 JUMP JUMPDEST DUP2 SLOAD DUP2 LT PUSH2 0x271 JUMPI PUSH2 0x270 PUSH2 0x667 JUMP JUMPDEST JUMPDEST SWAP1 PUSH1 0x0 MSTORE PUSH1 0x20 PUSH1 0x0 KECCAK256 ADD SLOAD DUP2 PUSH1 0x1 DUP2 MLOAD DUP2 LT PUSH2 0x290 JUMPI PUSH2 0x28F PUSH2 0x667 JUMP JUMPDEST JUMPDEST PUSH1 0x20 MUL PUSH1 0x20 ADD ADD DUP2 DUP2 MSTORE POP POP DUP1 SWAP3 POP POP POP JUMPDEST SWAP1 JUMP JUMPDEST PUSH1 0x0 JUMPDEST PUSH1 0x1 PUSH1 0x0 DUP1 SLOAD SWAP1 POP PUSH2 0x2BA SWAP2 SWAP1 PUSH2 0x696 JUMP JUMPDEST DUP2 LT ISZERO PUSH2 0x3D5 JUMPI PUSH1 0x0 PUSH1 0x1 DUP3 PUSH2 0x2D0 SWAP2 SWAP1 PUSH2 0x6CA JUMP JUMPDEST SWAP1 POP JUMPDEST PUSH1 0x0 DUP1 SLOAD SWAP1 POP DUP2 LT ISZERO PUSH2 0x3C1 JUMPI PUSH1 0x0 DUP2 DUP2 SLOAD DUP2 LT PUSH2 0x2F4 JUMPI PUSH2 0x2F3 PUSH2 0x667 JUMP JUMPDEST JUMPDEST SWAP1 PUSH1 0x0 MSTORE PUSH1 0x20 PUSH1 0x0 KECCAK256 ADD SLOAD PUSH1 0x0 DUP4 DUP2 SLOAD DUP2 LT PUSH2 0x313 JUMPI PUSH2 0x312 PUSH2 0x667 JUMP JUMPDEST JUMPDEST SWAP1 PUSH1 0x0 MSTORE PUSH1 0x20 PUSH1 0x0 KECCAK256 ADD SLOAD LT ISZERO PUSH2 0x3AE JUMPI PUSH1 0x0 DUP2 DUP2 SLOAD DUP2 LT PUSH2 0x338 JUMPI PUSH2 0x337 PUSH2 0x667 JUMP JUMPDEST JUMPDEST SWAP1 PUSH1 0x0 MSTORE PUSH1 0x20 PUSH1 0x0 KECCAK256 ADD SLOAD PUSH1 0x0 DUP4 DUP2 SLOAD DUP2 LT PUSH2 0x357 JUMPI PUSH2 0x356 PUSH2 0x667 JUMP JUMPDEST JUMPDEST SWAP1 PUSH1 0x0 MSTORE PUSH1 0x20 PUSH1 0x0 KECCAK256 ADD SLOAD PUSH1 0x0 DUP5 DUP2 SLOAD DUP2 LT PUSH2 0x376 JUMPI PUSH2 0x375 PUSH2 0x667 JUMP JUMPDEST JUMPDEST SWAP1 PUSH1 0x0 MSTORE PUSH1 0x20 PUSH1 0x0 KECCAK256 ADD PUSH1 0x0 DUP1 DUP6 DUP2 SLOAD DUP2 LT PUSH2 0x395 JUMPI PUSH2 0x394 PUSH2 0x667 JUMP JUMPDEST JUMPDEST SWAP1 PUSH1 0x0 MSTORE PUSH1 0x20 PUSH1 0x0 KECCAK256 ADD PUSH1 0x0 DUP5 SWAP2 SWAP1 POP SSTORE DUP4 SWAP2 SWAP1 POP SSTORE POP POP JUMPDEST DUP1 DUP1 PUSH2 0x3B9 SWAP1 PUSH2 0x6FE JUMP JUMPDEST SWAP2 POP POP PUSH2 0x2D3 JUMP JUMPDEST POP DUP1 DUP1 PUSH2 0x3CD SWAP1 PUSH2 0x6FE JUMP JUMPDEST SWAP2 POP POP PUSH2 0x2A8 JUMP JUMPDEST POP JUMP JUMPDEST PUSH1 0x60 PUSH1 0x0 DUP1 SLOAD DUP1 PUSH1 0x20 MUL PUSH1 0x20 ADD PUSH1 0x40 MLOAD SWAP1 DUP2 ADD PUSH1 0x40 MSTORE DUP1 SWAP3 SWAP2 SWAP1 DUP2 DUP2 MSTORE PUSH1 0x20 ADD DUP3 DUP1 SLOAD DUP1 ISZERO PUSH2 0x426 JUMPI PUSH1 0x20 MUL DUP3 ADD SWAP2 SWAP1 PUSH1 0x0 MSTORE PUSH1 0x20 PUSH1 0x0 KECCAK256 SWAP1 JUMPDEST DUP2 SLOAD DUP2 MSTORE PUSH1 0x20 ADD SWAP1 PUSH1 0x1 ADD SWAP1 DUP1 DUP4 GT PUSH2 0x412 JUMPI JUMPDEST POP POP POP POP POP SWAP1 POP SWAP1 JUMP JUMPDEST PUSH1 0x0 DUP1 REVERT JUMPDEST PUSH1 0x0 DUP2 SWAP1 POP SWAP2 SWAP1 POP JUMP JUMPDEST PUSH2 0x448 DUP2 PUSH2 0x435 JUMP JUMPDEST DUP2 EQ PUSH2 0x453 JUMPI PUSH1 0x0 DUP1 REVERT JUMPDEST POP JUMP JUMPDEST PUSH1 0x0 DUP2 CALLDATALOAD SWAP1 POP PUSH2 0x465 DUP2 PUSH2 0x43F JUMP JUMPDEST SWAP3 SWAP2 POP POP JUMP JUMPDEST PUSH1 0x0 PUSH1 0x20 DUP3 DUP5 SUB SLT ISZERO PUSH2 0x481 JUMPI PUSH2 0x480 PUSH2 0x430 JUMP JUMPDEST JUMPDEST PUSH1 0x0 PUSH2 0x48F DUP5 DUP3 DUP6 ADD PUSH2 0x456 JUMP JUMPDEST SWAP2 POP POP SWAP3 SWAP2 POP POP JUMP JUMPDEST PUSH1 0x0 DUP2 MLOAD SWAP1 POP SWAP2 SWAP1 POP JUMP JUMPDEST PUSH1 0x0 DUP3 DUP3 MSTORE PUSH1 0x20 DUP3 ADD SWAP1 POP SWAP3 SWAP2 POP POP JUMP JUMPDEST PUSH1 0x0 DUP2 SWAP1 POP PUSH1 0x20 DUP3 ADD SWAP1 POP SWAP2 SWAP1 POP JUMP JUMPDEST PUSH2 0x4CD DUP2 PUSH2 0x435 JUMP JUMPDEST DUP3 MSTORE POP POP JUMP JUMPDEST PUSH1 0x0 PUSH2 0x4DF DUP4 DUP4 PUSH2 0x4C4 JUMP JUMPDEST PUSH1 0x20 DUP4 ADD SWAP1 POP SWAP3 SWAP2 POP POP JUMP JUMPDEST PUSH1 0x0 PUSH1 0x20 DUP3 ADD SWAP1 POP SWAP2 SWAP1 POP JUMP JUMPDEST PUSH1 0x0 PUSH2 0x503 DUP3 PUSH2 0x498 JUMP JUMPDEST PUSH2 0x50D DUP2 DUP6 PUSH2 0x4A3 JUMP JUMPDEST SWAP4 POP PUSH2 0x518 DUP4 PUSH2 0x4B4 JUMP JUMPDEST DUP1 PUSH1 0x0 JUMPDEST DUP4 DUP2 LT ISZERO PUSH2 0x549 JUMPI DUP2 MLOAD PUSH2 0x530 DUP9 DUP3 PUSH2 0x4D3 JUMP JUMPDEST SWAP8 POP PUSH2 0x53B DUP4 PUSH2 0x4EB JUMP JUMPDEST SWAP3 POP POP PUSH1 0x1 DUP2 ADD SWAP1 POP PUSH2 0x51C JUMP JUMPDEST POP DUP6 SWAP4 POP POP POP POP SWAP3 SWAP2 POP POP JUMP JUMPDEST PUSH1 0x0 PUSH1 0x20 DUP3 ADD SWAP1 POP DUP2 DUP2 SUB PUSH1 0x0 DUP4 ADD MSTORE PUSH2 0x570 DUP2 DUP5 PUSH2 0x4F8 JUMP JUMPDEST SWAP1 POP SWAP3 SWAP2 POP POP JUMP JUMPDEST PUSH32 0x4E487B7100000000000000000000000000000000000000000000000000000000 PUSH1 0x0 MSTORE PUSH1 0x41 PUSH1 0x4 MSTORE PUSH1 0x24 PUSH1 0x0 REVERT JUMPDEST PUSH32 0x4E487B7100000000000000000000000000000000000000000000000000000000 PUSH1 0x0 MSTORE PUSH1 0x12 PUSH1 0x4 MSTORE PUSH1 0x24 PUSH1 0x0 REVERT JUMPDEST PUSH1 0x0 PUSH2 0x5E1 DUP3 PUSH2 0x435 JUMP JUMPDEST SWAP2 POP PUSH2 0x5EC DUP4 PUSH2 0x435 JUMP JUMPDEST SWAP3 POP DUP3 PUSH2 0x5FC JUMPI PUSH2 0x5FB PUSH2 0x5A7 JUMP JUMPDEST JUMPDEST DUP3 DUP3 MOD SWAP1 POP SWAP3 SWAP2 POP POP JUMP JUMPDEST PUSH32 0x4E487B7100000000000000000000000000000000000000000000000000000000 PUSH1 0x0 MSTORE PUSH1 0x11 PUSH1 0x4 MSTORE PUSH1 0x24 PUSH1 0x0 REVERT JUMPDEST PUSH1 0x0 PUSH2 0x641 DUP3 PUSH2 0x435 JUMP JUMPDEST SWAP2 POP PUSH2 0x64C DUP4 PUSH2 0x435 JUMP JUMPDEST SWAP3 POP DUP3 PUSH2 0x65C JUMPI PUSH2 0x65B PUSH2 0x5A7 JUMP JUMPDEST JUMPDEST DUP3 DUP3 DIV SWAP1 POP SWAP3 SWAP2 POP POP JUMP JUMPDEST PUSH32 0x4E487B7100000000000000000000000000000000000000000000000000000000 PUSH1 0x0 MSTORE PUSH1 0x32 PUSH1 0x4 MSTORE PUSH1 0x24 PUSH1 0x0 REVERT JUMPDEST PUSH1 0x0 PUSH2 0x6A1 DUP3 PUSH2 0x435 JUMP JUMPDEST SWAP2 POP PUSH2 0x6AC DUP4 PUSH2 0x435 JUMP JUMPDEST SWAP3 POP DUP3 DUP3 SUB SWAP1 POP DUP2 DUP2 GT ISZERO PUSH2 0x6C4 JUMPI PUSH2 0x6C3 PUSH2 0x607 JUMP JUMPDEST JUMPDEST SWAP3 SWAP2 POP POP JUMP JUMPDEST PUSH1 0x0 PUSH2 0x6D5 DUP3 PUSH2 0x435 JUMP JUMPDEST SWAP2 POP PUSH2 0x6E0 DUP4 PUSH2 0x435 JUMP JUMPDEST SWAP3 POP DUP3 DUP3 ADD SWAP1 POP DUP1 DUP3 GT ISZERO PUSH2 0x6F8 JUMPI PUSH2 0x6F7 PUSH2 0x607 JUMP JUMPDEST JUMPDEST SWAP3 SWAP2 POP POP JUMP JUMPDEST PUSH1 0x0 PUSH2 0x709 DUP3 PUSH2 0x435 JUMP JUMPDEST SWAP2 POP PUSH32 0xFFFFFFFFFFFFFFFFFFFFFFFFFFFFFFFFFFFFFFFFFFFFFFFFFFFFFFFFFFFFFFFF DUP3 SUB PUSH2 0x73B JUMPI PUSH2 0x73A PUSH2 0x607 JUMP JUMPDEST JUMPDEST PUSH1 0x1 DUP3 ADD SWAP1 POP SWAP2 SWAP1 POP JUMP INVALID LOG2 PUSH5 0x6970667358 0x22 SLT KECCAK256 PUSH9 0x4B18B042FACE40A41B POP PUSH23 0xE915FD47D7DC242C1F61C568E0DDF984B66BFCE664736F PUSH13 0x63430008120033000000000000 "
				},
				"gasEstimates": {
					"creation": {
						"codeDepositCost": "383200",
						"executionCost": "418",
						"totalCost": "383618"
					},
					"external": {
						"center()": "infinite",
						"getfs()": "infinite",
						"oruem()": "infinite",
						"setfs(uint256)": "46807"
					}
				},
				"methodIdentifiers": {
					"center()": "1f02d715",
					"getfs()": "be3970fe",
					"oruem()": "396c9312",
					"setfs(uint256)": "130747d1"
				}
			},
			"storageLayout": {
				"storage": [
					{
						"astId": 334,
						"contract": "contracts/Practice/4.sol:q4",
						"label": "fs",
						"offset": 0,
						"slot": "0",
						"type": "t_array(t_uint256)dyn_storage"
					}
				],
				"types": {
					"t_array(t_uint256)dyn_storage": {
						"base": "t_uint256",
						"encoding": "dynamic_array",
						"label": "uint256[]",
						"numberOfBytes": "32"
					},
					"t_uint256": {
						"encoding": "inplace",
						"label": "uint256",
						"numberOfBytes": "32"
					}
				}
			},
			"userdoc": {
				"kind": "user",
				"methods": {},
				"version": 1
			}
		}
	}
}