{
	"contracts/Practice/4.sol": {
		"ps": {
			"abi": [
				{
					"inputs": [
						{
							"internalType": "uint256",
							"name": "a",
							"type": "uint256"
						}
					],
					"name": "Change",
					"outputs": [],
					"stateMutability": "nonpayable",
					"type": "function"
				},
				{
					"inputs": [],
					"name": "donationether",
					"outputs": [],
					"stateMutability": "payable",
					"type": "function"
				},
				{
					"inputs": [],
					"name": "donationfinney",
					"outputs": [],
					"stateMutability": "payable",
					"type": "function"
				},
				{
					"inputs": [],
					"name": "donationwei",
					"outputs": [],
					"stateMutability": "payable",
					"type": "function"
				},
				{
					"inputs": [
						{
							"internalType": "string",
							"name": "_name",
							"type": "string"
						}
					],
					"name": "getAlice",
					"outputs": [
						{
							"internalType": "bool",
							"name": "",
							"type": "bool"
						}
					],
					"stateMutability": "pure",
					"type": "function"
				},
				{
					"inputs": [],
					"name": "getAvg",
					"outputs": [
						{
							"internalType": "uint256",
							"name": "",
							"type": "uint256"
						}
					],
					"stateMutability": "view",
					"type": "function"
				},
				{
					"inputs": [
						{
							"internalType": "string",
							"name": "_name",
							"type": "string"
						},
						{
							"internalType": "uint256",
							"name": "_number",
							"type": "uint256"
						},
						{
							"internalType": "string",
							"name": "_birth",
							"type": "string"
						}
					],
					"name": "pushUsers",
					"outputs": [],
					"stateMutability": "nonpayable",
					"type": "function"
				},
				{
					"inputs": [
						{
							"internalType": "string",
							"name": "_name",
							"type": "string"
						},
						{
							"internalType": "uint256",
							"name": "_score",
							"type": "uint256"
						}
					],
					"name": "setStudent",
					"outputs": [],
					"stateMutability": "nonpayable",
					"type": "function"
				},
				{
					"inputs": [],
					"name": "st",
					"outputs": [
						{
							"internalType": "enum ps.status",
							"name": "",
							"type": "uint8"
						}
					],
					"stateMutability": "view",
					"type": "function"
				},
				{
					"inputs": [
						{
							"internalType": "uint256",
							"name": "_a",
							"type": "uint256"
						}
					],
					"name": "three",
					"outputs": [],
					"stateMutability": "nonpayable",
					"type": "function"
				},
				{
					"inputs": [
						{
							"internalType": "string",
							"name": "",
							"type": "string"
						}
					],
					"name": "userlist",
					"outputs": [
						{
							"internalType": "string",
							"name": "name",
							"type": "string"
						},
						{
							"internalType": "uint256",
							"name": "number",
							"type": "uint256"
						},
						{
							"internalType": "address",
							"name": "by",
							"type": "address"
						},
						{
							"internalType": "string",
							"name": "birth",
							"type": "string"
						}
					],
					"stateMutability": "view",
					"type": "function"
				},
				{
					"inputs": [],
					"name": "withdraw",
					"outputs": [],
					"stateMutability": "nonpayable",
					"type": "function"
				}
			],
			"devdoc": {
				"kind": "dev",
				"methods": {},
				"version": 1
			},
			"evm": {
				"assembly": "    /* \"contracts/Practice/4.sol\":67:4106  contract ps{... */\n  mstore(0x40, 0x80)\n  callvalue\n  dup1\n  iszero\n  tag_1\n  jumpi\n  0x00\n  dup1\n  revert\ntag_1:\n  pop\n  dataSize(sub_0)\n  dup1\n  dataOffset(sub_0)\n  0x00\n  codecopy\n  0x00\n  return\nstop\n\nsub_0: assembly {\n        /* \"contracts/Practice/4.sol\":67:4106  contract ps{... */\n      mstore(0x40, 0x80)\n      jumpi(tag_1, lt(calldatasize, 0x04))\n      shr(0xe0, calldataload(0x00))\n      dup1\n      0x73f0cc2d\n      gt\n      tag_14\n      jumpi\n      dup1\n      0x73f0cc2d\n      eq\n      tag_8\n      jumpi\n      dup1\n      0x9b4d52dd\n      eq\n      tag_9\n      jumpi\n      dup1\n      0xa7697424\n      eq\n      tag_10\n      jumpi\n      dup1\n      0xbd329568\n      eq\n      tag_11\n      jumpi\n      dup1\n      0xf7406283\n      eq\n      tag_12\n      jumpi\n      dup1\n      0xf956bf4a\n      eq\n      tag_13\n      jumpi\n      jump(tag_1)\n    tag_14:\n      dup1\n      0x17b64668\n      eq\n      tag_2\n      jumpi\n      dup1\n      0x20fcc983\n      eq\n      tag_3\n      jumpi\n      dup1\n      0x390b6a4c\n      eq\n      tag_4\n      jumpi\n      dup1\n      0x3ccfd60b\n      eq\n      tag_5\n      jumpi\n      dup1\n      0x44faf9e9\n      eq\n      tag_6\n      jumpi\n      dup1\n      0x62e92d8a\n      eq\n      tag_7\n      jumpi\n    tag_1:\n      0x00\n      dup1\n      revert\n        /* \"contracts/Practice/4.sol\":3569:3660  function donationwei() public payable{... */\n    tag_2:\n      tag_15\n      tag_16\n      jump\t// in\n    tag_15:\n      stop\n        /* \"contracts/Practice/4.sol\":1289:1446  function pushUsers(string memory _name,uint _number, string memory _birth ) public {... */\n    tag_3:\n      callvalue\n      dup1\n      iszero\n      tag_17\n      jumpi\n      0x00\n      dup1\n      revert\n    tag_17:\n      pop\n      tag_18\n      0x04\n      dup1\n      calldatasize\n      sub\n      dup2\n      add\n      swap1\n      tag_19\n      swap2\n      swap1\n      tag_20\n      jump\t// in\n    tag_19:\n      tag_21\n      jump\t// in\n    tag_18:\n      stop\n        /* \"contracts/Practice/4.sol\":1936:2153  function getAvg() public view returns(uint) {... */\n    tag_4:\n      callvalue\n      dup1\n      iszero\n      tag_22\n      jumpi\n      0x00\n      dup1\n      revert\n    tag_22:\n      pop\n      tag_23\n      tag_24\n      jump\t// in\n    tag_23:\n      mload(0x40)\n      tag_25\n      swap2\n      swap1\n      tag_26\n      jump\t// in\n    tag_25:\n      mload(0x40)\n      dup1\n      swap2\n      sub\n      swap1\n      return\n        /* \"contracts/Practice/4.sol\":3887:4103  function withdraw() public {... */\n    tag_5:\n      callvalue\n      dup1\n      iszero\n      tag_27\n      jumpi\n      0x00\n      dup1\n      revert\n    tag_27:\n      pop\n      tag_28\n      tag_29\n      jump\t// in\n    tag_28:\n      stop\n        /* \"contracts/Practice/4.sol\":3671:3771  function donationfinney() public payable{... */\n    tag_6:\n      tag_30\n      tag_31\n      jump\t// in\n    tag_30:\n      stop\n        /* \"contracts/Practice/4.sol\":213:543  function getAlice(string memory _name) public pure returns(bool){... */\n    tag_7:\n      callvalue\n      dup1\n      iszero\n      tag_32\n      jumpi\n      0x00\n      dup1\n      revert\n    tag_32:\n      pop\n      tag_33\n      0x04\n      dup1\n      calldatasize\n      sub\n      dup2\n      add\n      swap1\n      tag_34\n      swap2\n      swap1\n      tag_35\n      jump\t// in\n    tag_34:\n      tag_36\n      jump\t// in\n    tag_33:\n      mload(0x40)\n      tag_37\n      swap2\n      swap1\n      tag_38\n      jump\t// in\n    tag_37:\n      mload(0x40)\n      dup1\n      swap2\n      sub\n      swap1\n      return\n        /* \"contracts/Practice/4.sol\":3028:3044  status public st */\n    tag_8:\n      callvalue\n      dup1\n      iszero\n      tag_39\n      jumpi\n      0x00\n      dup1\n      revert\n    tag_39:\n      pop\n      tag_40\n      tag_41\n      jump\t// in\n    tag_40:\n      mload(0x40)\n      tag_42\n      swap2\n      swap1\n      tag_43\n      jump\t// in\n    tag_42:\n      mload(0x40)\n      dup1\n      swap2\n      sub\n      swap1\n      return\n        /* \"contracts/Practice/4.sol\":1805:1930  function setStudent(string memory _name, uint _score) public {... */\n    tag_9:\n      callvalue\n      dup1\n      iszero\n      tag_44\n      jumpi\n      0x00\n      dup1\n      revert\n    tag_44:\n      pop\n      tag_45\n      0x04\n      dup1\n      calldatasize\n      sub\n      dup2\n      add\n      swap1\n      tag_46\n      swap2\n      swap1\n      tag_47\n      jump\t// in\n    tag_46:\n      tag_48\n      jump\t// in\n    tag_45:\n      stop\n        /* \"contracts/Practice/4.sol\":747:872  function three(uint _a) public {... */\n    tag_10:\n      callvalue\n      dup1\n      iszero\n      tag_49\n      jumpi\n      0x00\n      dup1\n      revert\n    tag_49:\n      pop\n      tag_50\n      0x04\n      dup1\n      calldatasize\n      sub\n      dup2\n      add\n      swap1\n      tag_51\n      swap2\n      swap1\n      tag_52\n      jump\t// in\n    tag_51:\n      tag_53\n      jump\t// in\n    tag_50:\n      stop\n        /* \"contracts/Practice/4.sol\":1245:1282  mapping(string=>user) public userlist */\n    tag_11:\n      callvalue\n      dup1\n      iszero\n      tag_54\n      jumpi\n      0x00\n      dup1\n      revert\n    tag_54:\n      pop\n      tag_55\n      0x04\n      dup1\n      calldatasize\n      sub\n      dup2\n      add\n      swap1\n      tag_56\n      swap2\n      swap1\n      tag_35\n      jump\t// in\n    tag_56:\n      tag_57\n      jump\t// in\n    tag_55:\n      mload(0x40)\n      tag_58\n      swap5\n      swap4\n      swap3\n      swap2\n      swap1\n      tag_59\n      jump\t// in\n    tag_58:\n      mload(0x40)\n      dup1\n      swap2\n      sub\n      swap1\n      return\n        /* \"contracts/Practice/4.sol\":3782:3877  function donationether() public payable{... */\n    tag_12:\n      tag_60\n      tag_61\n      jump\t// in\n    tag_60:\n      stop\n        /* \"contracts/Practice/4.sol\":3051:3278  function Change(uint a) public {... */\n    tag_13:\n      callvalue\n      dup1\n      iszero\n      tag_62\n      jumpi\n      0x00\n      dup1\n      revert\n    tag_62:\n      pop\n      tag_63\n      0x04\n      dup1\n      calldatasize\n      sub\n      dup2\n      add\n      swap1\n      tag_64\n      swap2\n      swap1\n      tag_52\n      jump\t// in\n    tag_64:\n      tag_65\n      jump\t// in\n    tag_63:\n      stop\n        /* \"contracts/Practice/4.sol\":3569:3660  function donationwei() public payable{... */\n    tag_16:\n        /* \"contracts/Practice/4.sol\":3642:3647  1 wei */\n      0x01\n        /* \"contracts/Practice/4.sol\":3629:3638  msg.value */\n      callvalue\n        /* \"contracts/Practice/4.sol\":3629:3647  msg.value == 1 wei */\n      eq\n        /* \"contracts/Practice/4.sol\":3621:3648  require(msg.value == 1 wei) */\n      tag_67\n      jumpi\n      0x00\n      dup1\n      revert\n    tag_67:\n        /* \"contracts/Practice/4.sol\":3569:3660  function donationwei() public payable{... */\n      jump\t// out\n        /* \"contracts/Practice/4.sol\":1289:1446  function pushUsers(string memory _name,uint _number, string memory _birth ) public {... */\n    tag_21:\n        /* \"contracts/Practice/4.sol\":1401:1438  user(_name,_number,msg.sender,_birth) */\n      mload(0x40)\n      dup1\n      0x80\n      add\n      0x40\n      mstore\n      dup1\n        /* \"contracts/Practice/4.sol\":1406:1411  _name */\n      dup5\n        /* \"contracts/Practice/4.sol\":1401:1438  user(_name,_number,msg.sender,_birth) */\n      dup2\n      mstore\n      0x20\n      add\n        /* \"contracts/Practice/4.sol\":1412:1419  _number */\n      dup4\n        /* \"contracts/Practice/4.sol\":1401:1438  user(_name,_number,msg.sender,_birth) */\n      dup2\n      mstore\n      0x20\n      add\n        /* \"contracts/Practice/4.sol\":1420:1430  msg.sender */\n      caller\n        /* \"contracts/Practice/4.sol\":1401:1438  user(_name,_number,msg.sender,_birth) */\n      0xffffffffffffffffffffffffffffffffffffffff\n      and\n      dup2\n      mstore\n      0x20\n      add\n        /* \"contracts/Practice/4.sol\":1431:1437  _birth */\n      dup3\n        /* \"contracts/Practice/4.sol\":1401:1438  user(_name,_number,msg.sender,_birth) */\n      dup2\n      mstore\n      pop\n        /* \"contracts/Practice/4.sol\":1383:1391  userlist */\n      0x01\n        /* \"contracts/Practice/4.sol\":1392:1397  _name */\n      dup5\n        /* \"contracts/Practice/4.sol\":1383:1398  userlist[_name] */\n      mload(0x40)\n      tag_69\n      swap2\n      swap1\n      tag_70\n      jump\t// in\n    tag_69:\n      swap1\n      dup2\n      mstore\n      0x20\n      add\n      mload(0x40)\n      dup1\n      swap2\n      sub\n      swap1\n      keccak256\n        /* \"contracts/Practice/4.sol\":1383:1438  userlist[_name] = user(_name,_number,msg.sender,_birth) */\n      0x00\n      dup3\n      add\n      mload\n      dup2\n      0x00\n      add\n      swap1\n      dup2\n      tag_71\n      swap2\n      swap1\n      tag_72\n      jump\t// in\n    tag_71:\n      pop\n      0x20\n      dup3\n      add\n      mload\n      dup2\n      0x01\n      add\n      sstore\n      0x40\n      dup3\n      add\n      mload\n      dup2\n      0x02\n      add\n      exp(0x0100, 0x00)\n      dup2\n      sload\n      dup2\n      0xffffffffffffffffffffffffffffffffffffffff\n      mul\n      not\n      and\n      swap1\n      dup4\n      0xffffffffffffffffffffffffffffffffffffffff\n      and\n      mul\n      or\n      swap1\n      sstore\n      pop\n      0x60\n      dup3\n      add\n      mload\n      dup2\n      0x03\n      add\n      swap1\n      dup2\n      tag_73\n      swap2\n      swap1\n      tag_72\n      jump\t// in\n    tag_73:\n      pop\n      swap1\n      pop\n      pop\n        /* \"contracts/Practice/4.sol\":1289:1446  function pushUsers(string memory _name,uint _number, string memory _birth ) public {... */\n      pop\n      pop\n      pop\n      jump\t// out\n        /* \"contracts/Practice/4.sol\":1936:2153  function getAvg() public view returns(uint) {... */\n    tag_24:\n        /* \"contracts/Practice/4.sol\":1974:1978  uint */\n      0x00\n        /* \"contracts/Practice/4.sol\":1991:2002  uint _score */\n      dup1\n        /* \"contracts/Practice/4.sol\":2017:2023  uint i */\n      0x00\n        /* \"contracts/Practice/4.sol\":2013:2104  for(uint i=0; i<students.length; i++){... */\n    tag_75:\n        /* \"contracts/Practice/4.sol\":2029:2037  students */\n      0x02\n        /* \"contracts/Practice/4.sol\":2029:2044  students.length */\n      dup1\n      sload\n      swap1\n      pop\n        /* \"contracts/Practice/4.sol\":2027:2028  i */\n      dup2\n        /* \"contracts/Practice/4.sol\":2027:2044  i<students.length */\n      lt\n        /* \"contracts/Practice/4.sol\":2013:2104  for(uint i=0; i<students.length; i++){... */\n      iszero\n      tag_76\n      jumpi\n        /* \"contracts/Practice/4.sol\":2075:2083  students */\n      0x02\n        /* \"contracts/Practice/4.sol\":2084:2085  i */\n      dup2\n        /* \"contracts/Practice/4.sol\":2075:2086  students[i] */\n      dup2\n      sload\n      dup2\n      lt\n      tag_78\n      jumpi\n      tag_79\n      tag_80\n      jump\t// in\n    tag_79:\n    tag_78:\n      swap1\n      0x00\n      mstore\n      keccak256(0x00, 0x20)\n      swap1\n      0x03\n      mul\n      add\n        /* \"contracts/Practice/4.sol\":2075:2092  students[i].score */\n      0x02\n      add\n      sload\n        /* \"contracts/Practice/4.sol\":2065:2092  _score += students[i].score */\n      dup3\n      tag_82\n      swap2\n      swap1\n      tag_83\n      jump\t// in\n    tag_82:\n      swap2\n      pop\n        /* \"contracts/Practice/4.sol\":2046:2049  i++ */\n      dup1\n      dup1\n      tag_84\n      swap1\n      tag_85\n      jump\t// in\n    tag_84:\n      swap2\n      pop\n      pop\n        /* \"contracts/Practice/4.sol\":2013:2104  for(uint i=0; i<students.length; i++){... */\n      jump(tag_75)\n    tag_76:\n      pop\n        /* \"contracts/Practice/4.sol\":2129:2137  students */\n      0x02\n        /* \"contracts/Practice/4.sol\":2129:2144  students.length */\n      dup1\n      sload\n      swap1\n      pop\n        /* \"contracts/Practice/4.sol\":2122:2128  _score */\n      dup2\n        /* \"contracts/Practice/4.sol\":2122:2144  _score/students.length */\n      tag_86\n      swap2\n      swap1\n      tag_87\n      jump\t// in\n    tag_86:\n        /* \"contracts/Practice/4.sol\":2114:2145  return (_score/students.length) */\n      swap2\n      pop\n      pop\n        /* \"contracts/Practice/4.sol\":1936:2153  function getAvg() public view returns(uint) {... */\n      swap1\n      jump\t// out\n        /* \"contracts/Practice/4.sol\":3887:4103  function withdraw() public {... */\n    tag_29:\n        /* \"contracts/Practice/4.sol\":3929:3942  address owner */\n      0x00\n        /* \"contracts/Practice/4.sol\":3945:3987  0x5B38Da6a701c568545dCfcB03FcB875f56beddC4 */\n      0x5b38da6a701c568545dcfcb03fcb875f56beddc4\n        /* \"contracts/Practice/4.sol\":3929:3987  address owner = 0x5B38Da6a701c568545dCfcB03FcB875f56beddC4 */\n      swap1\n      pop\n        /* \"contracts/Practice/4.sol\":4024:4029  owner */\n      dup1\n        /* \"contracts/Practice/4.sol\":4010:4029  msg.sender == owner */\n      0xffffffffffffffffffffffffffffffffffffffff\n      and\n        /* \"contracts/Practice/4.sol\":4010:4020  msg.sender */\n      caller\n        /* \"contracts/Practice/4.sol\":4010:4029  msg.sender == owner */\n      0xffffffffffffffffffffffffffffffffffffffff\n      and\n      eq\n        /* \"contracts/Practice/4.sol\":4002:4030  require(msg.sender == owner) */\n      tag_89\n      jumpi\n      0x00\n      dup1\n      revert\n    tag_89:\n        /* \"contracts/Practice/4.sol\":4053:4058  owner */\n      dup1\n        /* \"contracts/Practice/4.sol\":4045:4068  payable(owner).transfer */\n      0xffffffffffffffffffffffffffffffffffffffff\n      and\n        /* \"contracts/Practice/4.sol\":4045:4091  payable(owner).transfer(address(this).balance) */\n      0x08fc\n        /* \"contracts/Practice/4.sol\":4069:4090  address(this).balance */\n      selfbalance\n        /* \"contracts/Practice/4.sol\":4045:4091  payable(owner).transfer(address(this).balance) */\n      swap1\n      dup2\n      iszero\n      mul\n      swap1\n      mload(0x40)\n      0x00\n      mload(0x40)\n      dup1\n      dup4\n      sub\n      dup2\n      dup6\n      dup9\n      dup9\n      call\n      swap4\n      pop\n      pop\n      pop\n      pop\n      iszero\n      dup1\n      iszero\n      tag_91\n      jumpi\n      returndatasize\n      0x00\n      dup1\n      returndatacopy\n      revert(0x00, returndatasize)\n    tag_91:\n      pop\n        /* \"contracts/Practice/4.sol\":3914:4103  {... */\n      pop\n        /* \"contracts/Practice/4.sol\":3887:4103  function withdraw() public {... */\n      jump\t// out\n        /* \"contracts/Practice/4.sol\":3671:3771  function donationfinney() public payable{... */\n    tag_31:\n        /* \"contracts/Practice/4.sol\":3747:3758  0.001 ether */\n      0x038d7ea4c68000\n        /* \"contracts/Practice/4.sol\":3734:3743  msg.value */\n      callvalue\n        /* \"contracts/Practice/4.sol\":3734:3758  msg.value == 0.001 ether */\n      eq\n        /* \"contracts/Practice/4.sol\":3726:3759  require(msg.value == 0.001 ether) */\n      tag_93\n      jumpi\n      0x00\n      dup1\n      revert\n    tag_93:\n        /* \"contracts/Practice/4.sol\":3671:3771  function donationfinney() public payable{... */\n      jump\t// out\n        /* \"contracts/Practice/4.sol\":213:543  function getAlice(string memory _name) public pure returns(bool){... */\n    tag_36:\n        /* \"contracts/Practice/4.sol\":272:276  bool */\n      0x00\n        /* \"contracts/Practice/4.sol\":339:364  abi.encodePacked(\"Alice\") */\n      add(0x20, mload(0x40))\n      tag_95\n      swap1\n      tag_96\n      jump\t// in\n    tag_95:\n      mload(0x40)\n      0x20\n      dup2\n      dup4\n      sub\n      sub\n      dup2\n      mstore\n      swap1\n      0x40\n      mstore\n        /* \"contracts/Practice/4.sol\":329:365  keccak256(abi.encodePacked(\"Alice\")) */\n      dup1\n      mload\n      swap1\n      0x20\n      add\n      keccak256\n        /* \"contracts/Practice/4.sol\":318:323  _name */\n      dup3\n        /* \"contracts/Practice/4.sol\":301:324  abi.encodePacked(_name) */\n      add(0x20, mload(0x40))\n      tag_97\n      swap2\n      swap1\n      tag_70\n      jump\t// in\n    tag_97:\n      mload(0x40)\n      0x20\n      dup2\n      dup4\n      sub\n      sub\n      dup2\n      mstore\n      swap1\n      0x40\n      mstore\n        /* \"contracts/Practice/4.sol\":291:325  keccak256(abi.encodePacked(_name)) */\n      dup1\n      mload\n      swap1\n      0x20\n      add\n      keccak256\n        /* \"contracts/Practice/4.sol\":291:365  keccak256(abi.encodePacked(_name)) == keccak256(abi.encodePacked(\"Alice\")) */\n      eq\n        /* \"contracts/Practice/4.sol\":291:441  keccak256(abi.encodePacked(_name)) == keccak256(abi.encodePacked(\"Alice\")) || keccak256(abi.encodePacked(_name)) == keccak256(abi.encodePacked(\"Bob\")) */\n      dup1\n      tag_98\n      jumpi\n      pop\n        /* \"contracts/Practice/4.sol\":417:440  abi.encodePacked(\"Bob\") */\n      add(0x20, mload(0x40))\n      tag_99\n      swap1\n      tag_100\n      jump\t// in\n    tag_99:\n      mload(0x40)\n      0x20\n      dup2\n      dup4\n      sub\n      sub\n      dup2\n      mstore\n      swap1\n      0x40\n      mstore\n        /* \"contracts/Practice/4.sol\":407:441  keccak256(abi.encodePacked(\"Bob\")) */\n      dup1\n      mload\n      swap1\n      0x20\n      add\n      keccak256\n        /* \"contracts/Practice/4.sol\":396:401  _name */\n      dup3\n        /* \"contracts/Practice/4.sol\":379:402  abi.encodePacked(_name) */\n      add(0x20, mload(0x40))\n      tag_101\n      swap2\n      swap1\n      tag_70\n      jump\t// in\n    tag_101:\n      mload(0x40)\n      0x20\n      dup2\n      dup4\n      sub\n      sub\n      dup2\n      mstore\n      swap1\n      0x40\n      mstore\n        /* \"contracts/Practice/4.sol\":369:403  keccak256(abi.encodePacked(_name)) */\n      dup1\n      mload\n      swap1\n      0x20\n      add\n      keccak256\n        /* \"contracts/Practice/4.sol\":369:441  keccak256(abi.encodePacked(_name)) == keccak256(abi.encodePacked(\"Bob\")) */\n      eq\n        /* \"contracts/Practice/4.sol\":291:441  keccak256(abi.encodePacked(_name)) == keccak256(abi.encodePacked(\"Alice\")) || keccak256(abi.encodePacked(_name)) == keccak256(abi.encodePacked(\"Bob\")) */\n    tag_98:\n        /* \"contracts/Practice/4.sol\":288:536  if(keccak256(abi.encodePacked(_name)) == keccak256(abi.encodePacked(\"Alice\")) || keccak256(abi.encodePacked(_name)) == keccak256(abi.encodePacked(\"Bob\"))){... */\n      iszero\n      tag_102\n      jumpi\n        /* \"contracts/Practice/4.sol\":464:468  true */\n      0x01\n        /* \"contracts/Practice/4.sol\":457:468  return true */\n      swap1\n      pop\n      jump(tag_94)\n        /* \"contracts/Practice/4.sol\":288:536  if(keccak256(abi.encodePacked(_name)) == keccak256(abi.encodePacked(\"Alice\")) || keccak256(abi.encodePacked(_name)) == keccak256(abi.encodePacked(\"Bob\"))){... */\n    tag_102:\n        /* \"contracts/Practice/4.sol\":519:524  false */\n      0x00\n        /* \"contracts/Practice/4.sol\":512:524  return false */\n      swap1\n      pop\n        /* \"contracts/Practice/4.sol\":213:543  function getAlice(string memory _name) public pure returns(bool){... */\n    tag_94:\n      swap2\n      swap1\n      pop\n      jump\t// out\n        /* \"contracts/Practice/4.sol\":3028:3044  status public st */\n    tag_41:\n      0x04\n      0x00\n      swap1\n      sload\n      swap1\n      0x0100\n      exp\n      swap1\n      div\n      0xff\n      and\n      dup2\n      jump\t// out\n        /* \"contracts/Practice/4.sol\":1805:1930  function setStudent(string memory _name, uint _score) public {... */\n    tag_48:\n        /* \"contracts/Practice/4.sol\":1877:1885  students */\n      0x02\n        /* \"contracts/Practice/4.sol\":1891:1921  Student(_name,count++, _score) */\n      mload(0x40)\n      dup1\n      0x60\n      add\n      0x40\n      mstore\n      dup1\n        /* \"contracts/Practice/4.sol\":1899:1904  _name */\n      dup5\n        /* \"contracts/Practice/4.sol\":1891:1921  Student(_name,count++, _score) */\n      dup2\n      mstore\n      0x20\n      add\n        /* \"contracts/Practice/4.sol\":1905:1910  count */\n      0x03\n      0x00\n        /* \"contracts/Practice/4.sol\":1905:1912  count++ */\n      dup2\n      sload\n      dup1\n      swap3\n      swap2\n      swap1\n      tag_105\n      swap1\n      tag_85\n      jump\t// in\n    tag_105:\n      swap2\n      swap1\n      pop\n      sstore\n        /* \"contracts/Practice/4.sol\":1891:1921  Student(_name,count++, _score) */\n      dup2\n      mstore\n      0x20\n      add\n        /* \"contracts/Practice/4.sol\":1914:1920  _score */\n      dup4\n        /* \"contracts/Practice/4.sol\":1891:1921  Student(_name,count++, _score) */\n      dup2\n      mstore\n      pop\n        /* \"contracts/Practice/4.sol\":1877:1922  students.push(Student(_name,count++, _score)) */\n      swap1\n      dup1\n      0x01\n      dup2\n      sload\n      add\n      dup1\n      dup3\n      sstore\n      dup1\n      swap2\n      pop\n      pop\n      0x01\n      swap1\n      sub\n      swap1\n      0x00\n      mstore\n      keccak256(0x00, 0x20)\n      swap1\n      0x03\n      mul\n      add\n      0x00\n      swap1\n      swap2\n      swap1\n      swap2\n      swap1\n      swap2\n      pop\n      0x00\n      dup3\n      add\n      mload\n      dup2\n      0x00\n      add\n      swap1\n      dup2\n      tag_107\n      swap2\n      swap1\n      tag_72\n      jump\t// in\n    tag_107:\n      pop\n      0x20\n      dup3\n      add\n      mload\n      dup2\n      0x01\n      add\n      sstore\n      0x40\n      dup3\n      add\n      mload\n      dup2\n      0x02\n      add\n      sstore\n      pop\n      pop\n        /* \"contracts/Practice/4.sol\":1805:1930  function setStudent(string memory _name, uint _score) public {... */\n      pop\n      pop\n      jump\t// out\n        /* \"contracts/Practice/4.sol\":747:872  function three(uint _a) public {... */\n    tag_53:\n        /* \"contracts/Practice/4.sol\":805:806  0 */\n      0x00\n        /* \"contracts/Practice/4.sol\":800:801  3 */\n      0x03\n        /* \"contracts/Practice/4.sol\":797:799  _a */\n      dup3\n        /* \"contracts/Practice/4.sol\":797:801  _a%3 */\n      tag_109\n      swap2\n      swap1\n      tag_110\n      jump\t// in\n    tag_109:\n        /* \"contracts/Practice/4.sol\":797:806  _a%3 == 0 */\n      eq\n        /* \"contracts/Practice/4.sol\":789:807  require(_a%3 == 0) */\n      tag_111\n      jumpi\n      0x00\n      dup1\n      revert\n    tag_111:\n        /* \"contracts/Practice/4.sol\":835:836  0 */\n      0x00\n        /* \"contracts/Practice/4.sol\":829:831  10 */\n      0x0a\n        /* \"contracts/Practice/4.sol\":826:828  _a */\n      dup3\n        /* \"contracts/Practice/4.sol\":826:831  _a%10 */\n      tag_112\n      swap2\n      swap1\n      tag_110\n      jump\t// in\n    tag_112:\n        /* \"contracts/Practice/4.sol\":826:836  _a%10 == 0 */\n      eq\n        /* \"contracts/Practice/4.sol\":818:837  require(_a%10 == 0) */\n      tag_113\n      jumpi\n      0x00\n      dup1\n      revert\n    tag_113:\n        /* \"contracts/Practice/4.sol\":848:853  array */\n      0x00\n        /* \"contracts/Practice/4.sol\":859:861  _a */\n      dup2\n        /* \"contracts/Practice/4.sol\":848:862  array.push(_a) */\n      swap1\n      dup1\n      0x01\n      dup2\n      sload\n      add\n      dup1\n      dup3\n      sstore\n      dup1\n      swap2\n      pop\n      pop\n      0x01\n      swap1\n      sub\n      swap1\n      0x00\n      mstore\n      keccak256(0x00, 0x20)\n      add\n      0x00\n      swap1\n      swap2\n      swap1\n      swap2\n      swap1\n      swap2\n      pop\n      sstore\n        /* \"contracts/Practice/4.sol\":747:872  function three(uint _a) public {... */\n      pop\n      jump\t// out\n        /* \"contracts/Practice/4.sol\":1245:1282  mapping(string=>user) public userlist */\n    tag_57:\n      0x01\n      dup2\n      dup1\n      mload\n      0x20\n      dup2\n      add\n      dup3\n      add\n      dup1\n      mload\n      dup5\n      dup3\n      mstore\n      0x20\n      dup4\n      add\n      0x20\n      dup6\n      add\n      keccak256\n      dup2\n      dup4\n      mstore\n      dup1\n      swap6\n      pop\n      pop\n      pop\n      pop\n      pop\n      pop\n      0x00\n      swap2\n      pop\n      swap1\n      pop\n      dup1\n      0x00\n      add\n      dup1\n      sload\n      tag_115\n      swap1\n      tag_116\n      jump\t// in\n    tag_115:\n      dup1\n      0x1f\n      add\n      0x20\n      dup1\n      swap2\n      div\n      mul\n      0x20\n      add\n      mload(0x40)\n      swap1\n      dup2\n      add\n      0x40\n      mstore\n      dup1\n      swap3\n      swap2\n      swap1\n      dup2\n      dup2\n      mstore\n      0x20\n      add\n      dup3\n      dup1\n      sload\n      tag_117\n      swap1\n      tag_116\n      jump\t// in\n    tag_117:\n      dup1\n      iszero\n      tag_118\n      jumpi\n      dup1\n      0x1f\n      lt\n      tag_119\n      jumpi\n      0x0100\n      dup1\n      dup4\n      sload\n      div\n      mul\n      dup4\n      mstore\n      swap2\n      0x20\n      add\n      swap2\n      jump(tag_118)\n    tag_119:\n      dup3\n      add\n      swap2\n      swap1\n      0x00\n      mstore\n      keccak256(0x00, 0x20)\n      swap1\n    tag_120:\n      dup2\n      sload\n      dup2\n      mstore\n      swap1\n      0x01\n      add\n      swap1\n      0x20\n      add\n      dup1\n      dup4\n      gt\n      tag_120\n      jumpi\n      dup3\n      swap1\n      sub\n      0x1f\n      and\n      dup3\n      add\n      swap2\n    tag_118:\n      pop\n      pop\n      pop\n      pop\n      pop\n      swap1\n      dup1\n      0x01\n      add\n      sload\n      swap1\n      dup1\n      0x02\n      add\n      0x00\n      swap1\n      sload\n      swap1\n      0x0100\n      exp\n      swap1\n      div\n      0xffffffffffffffffffffffffffffffffffffffff\n      and\n      swap1\n      dup1\n      0x03\n      add\n      dup1\n      sload\n      tag_121\n      swap1\n      tag_116\n      jump\t// in\n    tag_121:\n      dup1\n      0x1f\n      add\n      0x20\n      dup1\n      swap2\n      div\n      mul\n      0x20\n      add\n      mload(0x40)\n      swap1\n      dup2\n      add\n      0x40\n      mstore\n      dup1\n      swap3\n      swap2\n      swap1\n      dup2\n      dup2\n      mstore\n      0x20\n      add\n      dup3\n      dup1\n      sload\n      tag_122\n      swap1\n      tag_116\n      jump\t// in\n    tag_122:\n      dup1\n      iszero\n      tag_123\n      jumpi\n      dup1\n      0x1f\n      lt\n      tag_124\n      jumpi\n      0x0100\n      dup1\n      dup4\n      sload\n      div\n      mul\n      dup4\n      mstore\n      swap2\n      0x20\n      add\n      swap2\n      jump(tag_123)\n    tag_124:\n      dup3\n      add\n      swap2\n      swap1\n      0x00\n      mstore\n      keccak256(0x00, 0x20)\n      swap1\n    tag_125:\n      dup2\n      sload\n      dup2\n      mstore\n      swap1\n      0x01\n      add\n      swap1\n      0x20\n      add\n      dup1\n      dup4\n      gt\n      tag_125\n      jumpi\n      dup3\n      swap1\n      sub\n      0x1f\n      and\n      dup3\n      add\n      swap2\n    tag_123:\n      pop\n      pop\n      pop\n      pop\n      pop\n      swap1\n      pop\n      dup5\n      jump\t// out\n        /* \"contracts/Practice/4.sol\":3782:3877  function donationether() public payable{... */\n    tag_61:\n        /* \"contracts/Practice/4.sol\":3857:3864  1 ether */\n      0x0de0b6b3a7640000\n        /* \"contracts/Practice/4.sol\":3844:3853  msg.value */\n      callvalue\n        /* \"contracts/Practice/4.sol\":3844:3864  msg.value == 1 ether */\n      eq\n        /* \"contracts/Practice/4.sol\":3836:3865  require(msg.value == 1 ether) */\n      tag_127\n      jumpi\n      0x00\n      dup1\n      revert\n    tag_127:\n        /* \"contracts/Practice/4.sol\":3782:3877  function donationether() public payable{... */\n      jump\t// out\n        /* \"contracts/Practice/4.sol\":3051:3278  function Change(uint a) public {... */\n    tag_65:\n        /* \"contracts/Practice/4.sol\":3099:3100  7 */\n      0x07\n        /* \"contracts/Practice/4.sol\":3096:3097  a */\n      dup2\n        /* \"contracts/Practice/4.sol\":3096:3100  a>=7 */\n      lt\n        /* \"contracts/Practice/4.sol\":3093:3261  if(a>=7){... */\n      tag_129\n      jumpi\n        /* \"contracts/Practice/4.sol\":3121:3132  status.high */\n      0x00\n        /* \"contracts/Practice/4.sol\":3116:3118  st */\n      0x04\n      0x00\n        /* \"contracts/Practice/4.sol\":3116:3132  st = status.high */\n      0x0100\n      exp\n      dup2\n      sload\n      dup2\n      0xff\n      mul\n      not\n      and\n      swap1\n      dup4\n      0x02\n      dup2\n      gt\n      iszero\n      tag_130\n      jumpi\n      tag_131\n      tag_132\n      jump\t// in\n    tag_131:\n    tag_130:\n      mul\n      or\n      swap1\n      sstore\n      pop\n        /* \"contracts/Practice/4.sol\":3093:3261  if(a>=7){... */\n      jump(tag_133)\n    tag_129:\n        /* \"contracts/Practice/4.sol\":3157:3158  4 */\n      0x04\n        /* \"contracts/Practice/4.sol\":3154:3155  a */\n      dup2\n        /* \"contracts/Practice/4.sol\":3154:3158  a>=4 */\n      lt\n      iszero\n        /* \"contracts/Practice/4.sol\":3154:3165  a>=4 && a<7 */\n      dup1\n      iszero\n      tag_134\n      jumpi\n      pop\n        /* \"contracts/Practice/4.sol\":3164:3165  7 */\n      0x07\n        /* \"contracts/Practice/4.sol\":3162:3163  a */\n      dup2\n        /* \"contracts/Practice/4.sol\":3162:3165  a<7 */\n      lt\n        /* \"contracts/Practice/4.sol\":3154:3165  a>=4 && a<7 */\n    tag_134:\n        /* \"contracts/Practice/4.sol\":3150:3261  if( a>=4 && a<7){... */\n      iszero\n      tag_135\n      jumpi\n        /* \"contracts/Practice/4.sol\":3186:3200  status.neutral */\n      0x01\n        /* \"contracts/Practice/4.sol\":3181:3183  st */\n      0x04\n      0x00\n        /* \"contracts/Practice/4.sol\":3181:3200  st = status.neutral */\n      0x0100\n      exp\n      dup2\n      sload\n      dup2\n      0xff\n      mul\n      not\n      and\n      swap1\n      dup4\n      0x02\n      dup2\n      gt\n      iszero\n      tag_136\n      jumpi\n      tag_137\n      tag_132\n      jump\t// in\n    tag_137:\n    tag_136:\n      mul\n      or\n      swap1\n      sstore\n      pop\n        /* \"contracts/Practice/4.sol\":3150:3261  if( a>=4 && a<7){... */\n      jump(tag_138)\n    tag_135:\n        /* \"contracts/Practice/4.sol\":3239:3249  status.low */\n      0x02\n        /* \"contracts/Practice/4.sol\":3234:3236  st */\n      0x04\n      0x00\n        /* \"contracts/Practice/4.sol\":3234:3249  st = status.low */\n      0x0100\n      exp\n      dup2\n      sload\n      dup2\n      0xff\n      mul\n      not\n      and\n      swap1\n      dup4\n      0x02\n      dup2\n      gt\n      iszero\n      tag_139\n      jumpi\n      tag_140\n      tag_132\n      jump\t// in\n    tag_140:\n    tag_139:\n      mul\n      or\n      swap1\n      sstore\n      pop\n        /* \"contracts/Practice/4.sol\":3150:3261  if( a>=4 && a<7){... */\n    tag_138:\n        /* \"contracts/Practice/4.sol\":3093:3261  if(a>=7){... */\n    tag_133:\n        /* \"contracts/Practice/4.sol\":3051:3278  function Change(uint a) public {... */\n      pop\n      jump\t// out\n        /* \"#utility.yul\":7:82   */\n    tag_141:\n        /* \"#utility.yul\":40:46   */\n      0x00\n        /* \"#utility.yul\":73:75   */\n      0x40\n        /* \"#utility.yul\":67:76   */\n      mload\n        /* \"#utility.yul\":57:76   */\n      swap1\n      pop\n        /* \"#utility.yul\":7:82   */\n      swap1\n      jump\t// out\n        /* \"#utility.yul\":88:205   */\n    tag_142:\n        /* \"#utility.yul\":197:198   */\n      0x00\n        /* \"#utility.yul\":194:195   */\n      dup1\n        /* \"#utility.yul\":187:199   */\n      revert\n        /* \"#utility.yul\":211:328   */\n    tag_143:\n        /* \"#utility.yul\":320:321   */\n      0x00\n        /* \"#utility.yul\":317:318   */\n      dup1\n        /* \"#utility.yul\":310:322   */\n      revert\n        /* \"#utility.yul\":334:451   */\n    tag_144:\n        /* \"#utility.yul\":443:444   */\n      0x00\n        /* \"#utility.yul\":440:441   */\n      dup1\n        /* \"#utility.yul\":433:445   */\n      revert\n        /* \"#utility.yul\":457:574   */\n    tag_145:\n        /* \"#utility.yul\":566:567   */\n      0x00\n        /* \"#utility.yul\":563:564   */\n      dup1\n        /* \"#utility.yul\":556:568   */\n      revert\n        /* \"#utility.yul\":580:682   */\n    tag_146:\n        /* \"#utility.yul\":621:627   */\n      0x00\n        /* \"#utility.yul\":672:674   */\n      0x1f\n        /* \"#utility.yul\":668:675   */\n      not\n        /* \"#utility.yul\":663:665   */\n      0x1f\n        /* \"#utility.yul\":656:661   */\n      dup4\n        /* \"#utility.yul\":652:666   */\n      add\n        /* \"#utility.yul\":648:676   */\n      and\n        /* \"#utility.yul\":638:676   */\n      swap1\n      pop\n        /* \"#utility.yul\":580:682   */\n      swap2\n      swap1\n      pop\n      jump\t// out\n        /* \"#utility.yul\":688:868   */\n    tag_147:\n        /* \"#utility.yul\":736:813   */\n      0x4e487b7100000000000000000000000000000000000000000000000000000000\n        /* \"#utility.yul\":733:734   */\n      0x00\n        /* \"#utility.yul\":726:814   */\n      mstore\n        /* \"#utility.yul\":833:837   */\n      0x41\n        /* \"#utility.yul\":830:831   */\n      0x04\n        /* \"#utility.yul\":823:838   */\n      mstore\n        /* \"#utility.yul\":857:861   */\n      0x24\n        /* \"#utility.yul\":854:855   */\n      0x00\n        /* \"#utility.yul\":847:862   */\n      revert\n        /* \"#utility.yul\":874:1155   */\n    tag_148:\n        /* \"#utility.yul\":957:984   */\n      tag_204\n        /* \"#utility.yul\":979:983   */\n      dup3\n        /* \"#utility.yul\":957:984   */\n      tag_146\n      jump\t// in\n    tag_204:\n        /* \"#utility.yul\":949:955   */\n      dup2\n        /* \"#utility.yul\":945:985   */\n      add\n        /* \"#utility.yul\":1087:1093   */\n      dup2\n        /* \"#utility.yul\":1075:1085   */\n      dup2\n        /* \"#utility.yul\":1072:1094   */\n      lt\n        /* \"#utility.yul\":1051:1069   */\n      0xffffffffffffffff\n        /* \"#utility.yul\":1039:1049   */\n      dup3\n        /* \"#utility.yul\":1036:1070   */\n      gt\n        /* \"#utility.yul\":1033:1095   */\n      or\n        /* \"#utility.yul\":1030:1118   */\n      iszero\n      tag_205\n      jumpi\n        /* \"#utility.yul\":1098:1116   */\n      tag_206\n      tag_147\n      jump\t// in\n    tag_206:\n        /* \"#utility.yul\":1030:1118   */\n    tag_205:\n        /* \"#utility.yul\":1138:1148   */\n      dup1\n        /* \"#utility.yul\":1134:1136   */\n      0x40\n        /* \"#utility.yul\":1127:1149   */\n      mstore\n        /* \"#utility.yul\":917:1155   */\n      pop\n        /* \"#utility.yul\":874:1155   */\n      pop\n      pop\n      jump\t// out\n        /* \"#utility.yul\":1161:1290   */\n    tag_149:\n        /* \"#utility.yul\":1195:1201   */\n      0x00\n        /* \"#utility.yul\":1222:1242   */\n      tag_208\n      tag_141\n      jump\t// in\n    tag_208:\n        /* \"#utility.yul\":1212:1242   */\n      swap1\n      pop\n        /* \"#utility.yul\":1251:1284   */\n      tag_209\n        /* \"#utility.yul\":1279:1283   */\n      dup3\n        /* \"#utility.yul\":1271:1277   */\n      dup3\n        /* \"#utility.yul\":1251:1284   */\n      tag_148\n      jump\t// in\n    tag_209:\n        /* \"#utility.yul\":1161:1290   */\n      swap2\n      swap1\n      pop\n      jump\t// out\n        /* \"#utility.yul\":1296:1604   */\n    tag_150:\n        /* \"#utility.yul\":1358:1362   */\n      0x00\n        /* \"#utility.yul\":1448:1466   */\n      0xffffffffffffffff\n        /* \"#utility.yul\":1440:1446   */\n      dup3\n        /* \"#utility.yul\":1437:1467   */\n      gt\n        /* \"#utility.yul\":1434:1490   */\n      iszero\n      tag_211\n      jumpi\n        /* \"#utility.yul\":1470:1488   */\n      tag_212\n      tag_147\n      jump\t// in\n    tag_212:\n        /* \"#utility.yul\":1434:1490   */\n    tag_211:\n        /* \"#utility.yul\":1508:1537   */\n      tag_213\n        /* \"#utility.yul\":1530:1536   */\n      dup3\n        /* \"#utility.yul\":1508:1537   */\n      tag_146\n      jump\t// in\n    tag_213:\n        /* \"#utility.yul\":1500:1537   */\n      swap1\n      pop\n        /* \"#utility.yul\":1592:1596   */\n      0x20\n        /* \"#utility.yul\":1586:1590   */\n      dup2\n        /* \"#utility.yul\":1582:1597   */\n      add\n        /* \"#utility.yul\":1574:1597   */\n      swap1\n      pop\n        /* \"#utility.yul\":1296:1604   */\n      swap2\n      swap1\n      pop\n      jump\t// out\n        /* \"#utility.yul\":1610:1756   */\n    tag_151:\n        /* \"#utility.yul\":1707:1713   */\n      dup3\n        /* \"#utility.yul\":1702:1705   */\n      dup2\n        /* \"#utility.yul\":1697:1700   */\n      dup4\n        /* \"#utility.yul\":1684:1714   */\n      calldatacopy\n        /* \"#utility.yul\":1748:1749   */\n      0x00\n        /* \"#utility.yul\":1739:1745   */\n      dup4\n        /* \"#utility.yul\":1734:1737   */\n      dup4\n        /* \"#utility.yul\":1730:1746   */\n      add\n        /* \"#utility.yul\":1723:1750   */\n      mstore\n        /* \"#utility.yul\":1610:1756   */\n      pop\n      pop\n      pop\n      jump\t// out\n        /* \"#utility.yul\":1762:2187   */\n    tag_152:\n        /* \"#utility.yul\":1840:1845   */\n      0x00\n        /* \"#utility.yul\":1865:1931   */\n      tag_216\n        /* \"#utility.yul\":1881:1930   */\n      tag_217\n        /* \"#utility.yul\":1923:1929   */\n      dup5\n        /* \"#utility.yul\":1881:1930   */\n      tag_150\n      jump\t// in\n    tag_217:\n        /* \"#utility.yul\":1865:1931   */\n      tag_149\n      jump\t// in\n    tag_216:\n        /* \"#utility.yul\":1856:1931   */\n      swap1\n      pop\n        /* \"#utility.yul\":1954:1960   */\n      dup3\n        /* \"#utility.yul\":1947:1952   */\n      dup2\n        /* \"#utility.yul\":1940:1961   */\n      mstore\n        /* \"#utility.yul\":1992:1996   */\n      0x20\n        /* \"#utility.yul\":1985:1990   */\n      dup2\n        /* \"#utility.yul\":1981:1997   */\n      add\n        /* \"#utility.yul\":2030:2033   */\n      dup5\n        /* \"#utility.yul\":2021:2027   */\n      dup5\n        /* \"#utility.yul\":2016:2019   */\n      dup5\n        /* \"#utility.yul\":2012:2028   */\n      add\n        /* \"#utility.yul\":2009:2034   */\n      gt\n        /* \"#utility.yul\":2006:2118   */\n      iszero\n      tag_218\n      jumpi\n        /* \"#utility.yul\":2037:2116   */\n      tag_219\n      tag_145\n      jump\t// in\n    tag_219:\n        /* \"#utility.yul\":2006:2118   */\n    tag_218:\n        /* \"#utility.yul\":2127:2181   */\n      tag_220\n        /* \"#utility.yul\":2174:2180   */\n      dup5\n        /* \"#utility.yul\":2169:2172   */\n      dup3\n        /* \"#utility.yul\":2164:2167   */\n      dup6\n        /* \"#utility.yul\":2127:2181   */\n      tag_151\n      jump\t// in\n    tag_220:\n        /* \"#utility.yul\":1846:2187   */\n      pop\n        /* \"#utility.yul\":1762:2187   */\n      swap4\n      swap3\n      pop\n      pop\n      pop\n      jump\t// out\n        /* \"#utility.yul\":2207:2547   */\n    tag_153:\n        /* \"#utility.yul\":2263:2268   */\n      0x00\n        /* \"#utility.yul\":2312:2315   */\n      dup3\n        /* \"#utility.yul\":2305:2309   */\n      0x1f\n        /* \"#utility.yul\":2297:2303   */\n      dup4\n        /* \"#utility.yul\":2293:2310   */\n      add\n        /* \"#utility.yul\":2289:2316   */\n      slt\n        /* \"#utility.yul\":2279:2401   */\n      tag_222\n      jumpi\n        /* \"#utility.yul\":2320:2399   */\n      tag_223\n      tag_144\n      jump\t// in\n    tag_223:\n        /* \"#utility.yul\":2279:2401   */\n    tag_222:\n        /* \"#utility.yul\":2437:2443   */\n      dup2\n        /* \"#utility.yul\":2424:2444   */\n      calldataload\n        /* \"#utility.yul\":2462:2541   */\n      tag_224\n        /* \"#utility.yul\":2537:2540   */\n      dup5\n        /* \"#utility.yul\":2529:2535   */\n      dup3\n        /* \"#utility.yul\":2522:2526   */\n      0x20\n        /* \"#utility.yul\":2514:2520   */\n      dup7\n        /* \"#utility.yul\":2510:2527   */\n      add\n        /* \"#utility.yul\":2462:2541   */\n      tag_152\n      jump\t// in\n    tag_224:\n        /* \"#utility.yul\":2453:2541   */\n      swap2\n      pop\n        /* \"#utility.yul\":2269:2547   */\n      pop\n        /* \"#utility.yul\":2207:2547   */\n      swap3\n      swap2\n      pop\n      pop\n      jump\t// out\n        /* \"#utility.yul\":2553:2630   */\n    tag_154:\n        /* \"#utility.yul\":2590:2597   */\n      0x00\n        /* \"#utility.yul\":2619:2624   */\n      dup2\n        /* \"#utility.yul\":2608:2624   */\n      swap1\n      pop\n        /* \"#utility.yul\":2553:2630   */\n      swap2\n      swap1\n      pop\n      jump\t// out\n        /* \"#utility.yul\":2636:2758   */\n    tag_155:\n        /* \"#utility.yul\":2709:2733   */\n      tag_227\n        /* \"#utility.yul\":2727:2732   */\n      dup2\n        /* \"#utility.yul\":2709:2733   */\n      tag_154\n      jump\t// in\n    tag_227:\n        /* \"#utility.yul\":2702:2707   */\n      dup2\n        /* \"#utility.yul\":2699:2734   */\n      eq\n        /* \"#utility.yul\":2689:2752   */\n      tag_228\n      jumpi\n        /* \"#utility.yul\":2748:2749   */\n      0x00\n        /* \"#utility.yul\":2745:2746   */\n      dup1\n        /* \"#utility.yul\":2738:2750   */\n      revert\n        /* \"#utility.yul\":2689:2752   */\n    tag_228:\n        /* \"#utility.yul\":2636:2758   */\n      pop\n      jump\t// out\n        /* \"#utility.yul\":2764:2903   */\n    tag_156:\n        /* \"#utility.yul\":2810:2815   */\n      0x00\n        /* \"#utility.yul\":2848:2854   */\n      dup2\n        /* \"#utility.yul\":2835:2855   */\n      calldataload\n        /* \"#utility.yul\":2826:2855   */\n      swap1\n      pop\n        /* \"#utility.yul\":2864:2897   */\n      tag_230\n        /* \"#utility.yul\":2891:2896   */\n      dup2\n        /* \"#utility.yul\":2864:2897   */\n      tag_155\n      jump\t// in\n    tag_230:\n        /* \"#utility.yul\":2764:2903   */\n      swap3\n      swap2\n      pop\n      pop\n      jump\t// out\n        /* \"#utility.yul\":2909:3888   */\n    tag_20:\n        /* \"#utility.yul\":3006:3012   */\n      0x00\n        /* \"#utility.yul\":3014:3020   */\n      dup1\n        /* \"#utility.yul\":3022:3028   */\n      0x00\n        /* \"#utility.yul\":3071:3073   */\n      0x60\n        /* \"#utility.yul\":3059:3068   */\n      dup5\n        /* \"#utility.yul\":3050:3057   */\n      dup7\n        /* \"#utility.yul\":3046:3069   */\n      sub\n        /* \"#utility.yul\":3042:3074   */\n      slt\n        /* \"#utility.yul\":3039:3158   */\n      iszero\n      tag_232\n      jumpi\n        /* \"#utility.yul\":3077:3156   */\n      tag_233\n      tag_142\n      jump\t// in\n    tag_233:\n        /* \"#utility.yul\":3039:3158   */\n    tag_232:\n        /* \"#utility.yul\":3225:3226   */\n      0x00\n        /* \"#utility.yul\":3214:3223   */\n      dup5\n        /* \"#utility.yul\":3210:3227   */\n      add\n        /* \"#utility.yul\":3197:3228   */\n      calldataload\n        /* \"#utility.yul\":3255:3273   */\n      0xffffffffffffffff\n        /* \"#utility.yul\":3247:3253   */\n      dup2\n        /* \"#utility.yul\":3244:3274   */\n      gt\n        /* \"#utility.yul\":3241:3358   */\n      iszero\n      tag_234\n      jumpi\n        /* \"#utility.yul\":3277:3356   */\n      tag_235\n      tag_143\n      jump\t// in\n    tag_235:\n        /* \"#utility.yul\":3241:3358   */\n    tag_234:\n        /* \"#utility.yul\":3382:3445   */\n      tag_236\n        /* \"#utility.yul\":3437:3444   */\n      dup7\n        /* \"#utility.yul\":3428:3434   */\n      dup3\n        /* \"#utility.yul\":3417:3426   */\n      dup8\n        /* \"#utility.yul\":3413:3435   */\n      add\n        /* \"#utility.yul\":3382:3445   */\n      tag_153\n      jump\t// in\n    tag_236:\n        /* \"#utility.yul\":3372:3445   */\n      swap4\n      pop\n        /* \"#utility.yul\":3168:3455   */\n      pop\n        /* \"#utility.yul\":3494:3496   */\n      0x20\n        /* \"#utility.yul\":3520:3573   */\n      tag_237\n        /* \"#utility.yul\":3565:3572   */\n      dup7\n        /* \"#utility.yul\":3556:3562   */\n      dup3\n        /* \"#utility.yul\":3545:3554   */\n      dup8\n        /* \"#utility.yul\":3541:3563   */\n      add\n        /* \"#utility.yul\":3520:3573   */\n      tag_156\n      jump\t// in\n    tag_237:\n        /* \"#utility.yul\":3510:3573   */\n      swap3\n      pop\n        /* \"#utility.yul\":3465:3583   */\n      pop\n        /* \"#utility.yul\":3650:3652   */\n      0x40\n        /* \"#utility.yul\":3639:3648   */\n      dup5\n        /* \"#utility.yul\":3635:3653   */\n      add\n        /* \"#utility.yul\":3622:3654   */\n      calldataload\n        /* \"#utility.yul\":3681:3699   */\n      0xffffffffffffffff\n        /* \"#utility.yul\":3673:3679   */\n      dup2\n        /* \"#utility.yul\":3670:3700   */\n      gt\n        /* \"#utility.yul\":3667:3784   */\n      iszero\n      tag_238\n      jumpi\n        /* \"#utility.yul\":3703:3782   */\n      tag_239\n      tag_143\n      jump\t// in\n    tag_239:\n        /* \"#utility.yul\":3667:3784   */\n    tag_238:\n        /* \"#utility.yul\":3808:3871   */\n      tag_240\n        /* \"#utility.yul\":3863:3870   */\n      dup7\n        /* \"#utility.yul\":3854:3860   */\n      dup3\n        /* \"#utility.yul\":3843:3852   */\n      dup8\n        /* \"#utility.yul\":3839:3861   */\n      add\n        /* \"#utility.yul\":3808:3871   */\n      tag_153\n      jump\t// in\n    tag_240:\n        /* \"#utility.yul\":3798:3871   */\n      swap2\n      pop\n        /* \"#utility.yul\":3593:3881   */\n      pop\n        /* \"#utility.yul\":2909:3888   */\n      swap3\n      pop\n      swap3\n      pop\n      swap3\n      jump\t// out\n        /* \"#utility.yul\":3894:4012   */\n    tag_157:\n        /* \"#utility.yul\":3981:4005   */\n      tag_242\n        /* \"#utility.yul\":3999:4004   */\n      dup2\n        /* \"#utility.yul\":3981:4005   */\n      tag_154\n      jump\t// in\n    tag_242:\n        /* \"#utility.yul\":3976:3979   */\n      dup3\n        /* \"#utility.yul\":3969:4006   */\n      mstore\n        /* \"#utility.yul\":3894:4012   */\n      pop\n      pop\n      jump\t// out\n        /* \"#utility.yul\":4018:4240   */\n    tag_26:\n        /* \"#utility.yul\":4111:4115   */\n      0x00\n        /* \"#utility.yul\":4149:4151   */\n      0x20\n        /* \"#utility.yul\":4138:4147   */\n      dup3\n        /* \"#utility.yul\":4134:4152   */\n      add\n        /* \"#utility.yul\":4126:4152   */\n      swap1\n      pop\n        /* \"#utility.yul\":4162:4233   */\n      tag_244\n        /* \"#utility.yul\":4230:4231   */\n      0x00\n        /* \"#utility.yul\":4219:4228   */\n      dup4\n        /* \"#utility.yul\":4215:4232   */\n      add\n        /* \"#utility.yul\":4206:4212   */\n      dup5\n        /* \"#utility.yul\":4162:4233   */\n      tag_157\n      jump\t// in\n    tag_244:\n        /* \"#utility.yul\":4018:4240   */\n      swap3\n      swap2\n      pop\n      pop\n      jump\t// out\n        /* \"#utility.yul\":4246:4755   */\n    tag_35:\n        /* \"#utility.yul\":4315:4321   */\n      0x00\n        /* \"#utility.yul\":4364:4366   */\n      0x20\n        /* \"#utility.yul\":4352:4361   */\n      dup3\n        /* \"#utility.yul\":4343:4350   */\n      dup5\n        /* \"#utility.yul\":4339:4362   */\n      sub\n        /* \"#utility.yul\":4335:4367   */\n      slt\n        /* \"#utility.yul\":4332:4451   */\n      iszero\n      tag_246\n      jumpi\n        /* \"#utility.yul\":4370:4449   */\n      tag_247\n      tag_142\n      jump\t// in\n    tag_247:\n        /* \"#utility.yul\":4332:4451   */\n    tag_246:\n        /* \"#utility.yul\":4518:4519   */\n      0x00\n        /* \"#utility.yul\":4507:4516   */\n      dup3\n        /* \"#utility.yul\":4503:4520   */\n      add\n        /* \"#utility.yul\":4490:4521   */\n      calldataload\n        /* \"#utility.yul\":4548:4566   */\n      0xffffffffffffffff\n        /* \"#utility.yul\":4540:4546   */\n      dup2\n        /* \"#utility.yul\":4537:4567   */\n      gt\n        /* \"#utility.yul\":4534:4651   */\n      iszero\n      tag_248\n      jumpi\n        /* \"#utility.yul\":4570:4649   */\n      tag_249\n      tag_143\n      jump\t// in\n    tag_249:\n        /* \"#utility.yul\":4534:4651   */\n    tag_248:\n        /* \"#utility.yul\":4675:4738   */\n      tag_250\n        /* \"#utility.yul\":4730:4737   */\n      dup5\n        /* \"#utility.yul\":4721:4727   */\n      dup3\n        /* \"#utility.yul\":4710:4719   */\n      dup6\n        /* \"#utility.yul\":4706:4728   */\n      add\n        /* \"#utility.yul\":4675:4738   */\n      tag_153\n      jump\t// in\n    tag_250:\n        /* \"#utility.yul\":4665:4738   */\n      swap2\n      pop\n        /* \"#utility.yul\":4461:4748   */\n      pop\n        /* \"#utility.yul\":4246:4755   */\n      swap3\n      swap2\n      pop\n      pop\n      jump\t// out\n        /* \"#utility.yul\":4761:4851   */\n    tag_158:\n        /* \"#utility.yul\":4795:4802   */\n      0x00\n        /* \"#utility.yul\":4838:4843   */\n      dup2\n        /* \"#utility.yul\":4831:4844   */\n      iszero\n        /* \"#utility.yul\":4824:4845   */\n      iszero\n        /* \"#utility.yul\":4813:4845   */\n      swap1\n      pop\n        /* \"#utility.yul\":4761:4851   */\n      swap2\n      swap1\n      pop\n      jump\t// out\n        /* \"#utility.yul\":4857:4966   */\n    tag_159:\n        /* \"#utility.yul\":4938:4959   */\n      tag_253\n        /* \"#utility.yul\":4953:4958   */\n      dup2\n        /* \"#utility.yul\":4938:4959   */\n      tag_158\n      jump\t// in\n    tag_253:\n        /* \"#utility.yul\":4933:4936   */\n      dup3\n        /* \"#utility.yul\":4926:4960   */\n      mstore\n        /* \"#utility.yul\":4857:4966   */\n      pop\n      pop\n      jump\t// out\n        /* \"#utility.yul\":4972:5182   */\n    tag_38:\n        /* \"#utility.yul\":5059:5063   */\n      0x00\n        /* \"#utility.yul\":5097:5099   */\n      0x20\n        /* \"#utility.yul\":5086:5095   */\n      dup3\n        /* \"#utility.yul\":5082:5100   */\n      add\n        /* \"#utility.yul\":5074:5100   */\n      swap1\n      pop\n        /* \"#utility.yul\":5110:5175   */\n      tag_255\n        /* \"#utility.yul\":5172:5173   */\n      0x00\n        /* \"#utility.yul\":5161:5170   */\n      dup4\n        /* \"#utility.yul\":5157:5174   */\n      add\n        /* \"#utility.yul\":5148:5154   */\n      dup5\n        /* \"#utility.yul\":5110:5175   */\n      tag_159\n      jump\t// in\n    tag_255:\n        /* \"#utility.yul\":4972:5182   */\n      swap3\n      swap2\n      pop\n      pop\n      jump\t// out\n        /* \"#utility.yul\":5188:5368   */\n    tag_132:\n        /* \"#utility.yul\":5236:5313   */\n      0x4e487b7100000000000000000000000000000000000000000000000000000000\n        /* \"#utility.yul\":5233:5234   */\n      0x00\n        /* \"#utility.yul\":5226:5314   */\n      mstore\n        /* \"#utility.yul\":5333:5337   */\n      0x21\n        /* \"#utility.yul\":5330:5331   */\n      0x04\n        /* \"#utility.yul\":5323:5338   */\n      mstore\n        /* \"#utility.yul\":5357:5361   */\n      0x24\n        /* \"#utility.yul\":5354:5355   */\n      0x00\n        /* \"#utility.yul\":5347:5362   */\n      revert\n        /* \"#utility.yul\":5374:5489   */\n    tag_160:\n        /* \"#utility.yul\":5457:5458   */\n      0x03\n        /* \"#utility.yul\":5450:5455   */\n      dup2\n        /* \"#utility.yul\":5447:5459   */\n      lt\n        /* \"#utility.yul\":5437:5483   */\n      tag_258\n      jumpi\n        /* \"#utility.yul\":5463:5481   */\n      tag_259\n      tag_132\n      jump\t// in\n    tag_259:\n        /* \"#utility.yul\":5437:5483   */\n    tag_258:\n        /* \"#utility.yul\":5374:5489   */\n      pop\n      jump\t// out\n        /* \"#utility.yul\":5495:5626   */\n    tag_161:\n        /* \"#utility.yul\":5542:5549   */\n      0x00\n        /* \"#utility.yul\":5571:5576   */\n      dup2\n        /* \"#utility.yul\":5560:5576   */\n      swap1\n      pop\n        /* \"#utility.yul\":5577:5620   */\n      tag_261\n        /* \"#utility.yul\":5614:5619   */\n      dup3\n        /* \"#utility.yul\":5577:5620   */\n      tag_160\n      jump\t// in\n    tag_261:\n        /* \"#utility.yul\":5495:5626   */\n      swap2\n      swap1\n      pop\n      jump\t// out\n        /* \"#utility.yul\":5632:5763   */\n    tag_162:\n        /* \"#utility.yul\":5690:5699   */\n      0x00\n        /* \"#utility.yul\":5723:5757   */\n      tag_263\n        /* \"#utility.yul\":5751:5756   */\n      dup3\n        /* \"#utility.yul\":5723:5757   */\n      tag_161\n      jump\t// in\n    tag_263:\n        /* \"#utility.yul\":5710:5757   */\n      swap1\n      pop\n        /* \"#utility.yul\":5632:5763   */\n      swap2\n      swap1\n      pop\n      jump\t// out\n        /* \"#utility.yul\":5769:5916   */\n    tag_163:\n        /* \"#utility.yul\":5864:5909   */\n      tag_265\n        /* \"#utility.yul\":5903:5908   */\n      dup2\n        /* \"#utility.yul\":5864:5909   */\n      tag_162\n      jump\t// in\n    tag_265:\n        /* \"#utility.yul\":5859:5862   */\n      dup3\n        /* \"#utility.yul\":5852:5910   */\n      mstore\n        /* \"#utility.yul\":5769:5916   */\n      pop\n      pop\n      jump\t// out\n        /* \"#utility.yul\":5922:6160   */\n    tag_43:\n        /* \"#utility.yul\":6023:6027   */\n      0x00\n        /* \"#utility.yul\":6061:6063   */\n      0x20\n        /* \"#utility.yul\":6050:6059   */\n      dup3\n        /* \"#utility.yul\":6046:6064   */\n      add\n        /* \"#utility.yul\":6038:6064   */\n      swap1\n      pop\n        /* \"#utility.yul\":6074:6153   */\n      tag_267\n        /* \"#utility.yul\":6150:6151   */\n      0x00\n        /* \"#utility.yul\":6139:6148   */\n      dup4\n        /* \"#utility.yul\":6135:6152   */\n      add\n        /* \"#utility.yul\":6126:6132   */\n      dup5\n        /* \"#utility.yul\":6074:6153   */\n      tag_163\n      jump\t// in\n    tag_267:\n        /* \"#utility.yul\":5922:6160   */\n      swap3\n      swap2\n      pop\n      pop\n      jump\t// out\n        /* \"#utility.yul\":6166:6820   */\n    tag_47:\n        /* \"#utility.yul\":6244:6250   */\n      0x00\n        /* \"#utility.yul\":6252:6258   */\n      dup1\n        /* \"#utility.yul\":6301:6303   */\n      0x40\n        /* \"#utility.yul\":6289:6298   */\n      dup4\n        /* \"#utility.yul\":6280:6287   */\n      dup6\n        /* \"#utility.yul\":6276:6299   */\n      sub\n        /* \"#utility.yul\":6272:6304   */\n      slt\n        /* \"#utility.yul\":6269:6388   */\n      iszero\n      tag_269\n      jumpi\n        /* \"#utility.yul\":6307:6386   */\n      tag_270\n      tag_142\n      jump\t// in\n    tag_270:\n        /* \"#utility.yul\":6269:6388   */\n    tag_269:\n        /* \"#utility.yul\":6455:6456   */\n      0x00\n        /* \"#utility.yul\":6444:6453   */\n      dup4\n        /* \"#utility.yul\":6440:6457   */\n      add\n        /* \"#utility.yul\":6427:6458   */\n      calldataload\n        /* \"#utility.yul\":6485:6503   */\n      0xffffffffffffffff\n        /* \"#utility.yul\":6477:6483   */\n      dup2\n        /* \"#utility.yul\":6474:6504   */\n      gt\n        /* \"#utility.yul\":6471:6588   */\n      iszero\n      tag_271\n      jumpi\n        /* \"#utility.yul\":6507:6586   */\n      tag_272\n      tag_143\n      jump\t// in\n    tag_272:\n        /* \"#utility.yul\":6471:6588   */\n    tag_271:\n        /* \"#utility.yul\":6612:6675   */\n      tag_273\n        /* \"#utility.yul\":6667:6674   */\n      dup6\n        /* \"#utility.yul\":6658:6664   */\n      dup3\n        /* \"#utility.yul\":6647:6656   */\n      dup7\n        /* \"#utility.yul\":6643:6665   */\n      add\n        /* \"#utility.yul\":6612:6675   */\n      tag_153\n      jump\t// in\n    tag_273:\n        /* \"#utility.yul\":6602:6675   */\n      swap3\n      pop\n        /* \"#utility.yul\":6398:6685   */\n      pop\n        /* \"#utility.yul\":6724:6726   */\n      0x20\n        /* \"#utility.yul\":6750:6803   */\n      tag_274\n        /* \"#utility.yul\":6795:6802   */\n      dup6\n        /* \"#utility.yul\":6786:6792   */\n      dup3\n        /* \"#utility.yul\":6775:6784   */\n      dup7\n        /* \"#utility.yul\":6771:6793   */\n      add\n        /* \"#utility.yul\":6750:6803   */\n      tag_156\n      jump\t// in\n    tag_274:\n        /* \"#utility.yul\":6740:6803   */\n      swap2\n      pop\n        /* \"#utility.yul\":6695:6813   */\n      pop\n        /* \"#utility.yul\":6166:6820   */\n      swap3\n      pop\n      swap3\n      swap1\n      pop\n      jump\t// out\n        /* \"#utility.yul\":6826:7155   */\n    tag_52:\n        /* \"#utility.yul\":6885:6891   */\n      0x00\n        /* \"#utility.yul\":6934:6936   */\n      0x20\n        /* \"#utility.yul\":6922:6931   */\n      dup3\n        /* \"#utility.yul\":6913:6920   */\n      dup5\n        /* \"#utility.yul\":6909:6932   */\n      sub\n        /* \"#utility.yul\":6905:6937   */\n      slt\n        /* \"#utility.yul\":6902:7021   */\n      iszero\n      tag_276\n      jumpi\n        /* \"#utility.yul\":6940:7019   */\n      tag_277\n      tag_142\n      jump\t// in\n    tag_277:\n        /* \"#utility.yul\":6902:7021   */\n    tag_276:\n        /* \"#utility.yul\":7060:7061   */\n      0x00\n        /* \"#utility.yul\":7085:7138   */\n      tag_278\n        /* \"#utility.yul\":7130:7137   */\n      dup5\n        /* \"#utility.yul\":7121:7127   */\n      dup3\n        /* \"#utility.yul\":7110:7119   */\n      dup6\n        /* \"#utility.yul\":7106:7128   */\n      add\n        /* \"#utility.yul\":7085:7138   */\n      tag_156\n      jump\t// in\n    tag_278:\n        /* \"#utility.yul\":7075:7138   */\n      swap2\n      pop\n        /* \"#utility.yul\":7031:7148   */\n      pop\n        /* \"#utility.yul\":6826:7155   */\n      swap3\n      swap2\n      pop\n      pop\n      jump\t// out\n        /* \"#utility.yul\":7161:7260   */\n    tag_164:\n        /* \"#utility.yul\":7213:7219   */\n      0x00\n        /* \"#utility.yul\":7247:7252   */\n      dup2\n        /* \"#utility.yul\":7241:7253   */\n      mload\n        /* \"#utility.yul\":7231:7253   */\n      swap1\n      pop\n        /* \"#utility.yul\":7161:7260   */\n      swap2\n      swap1\n      pop\n      jump\t// out\n        /* \"#utility.yul\":7266:7435   */\n    tag_165:\n        /* \"#utility.yul\":7350:7361   */\n      0x00\n        /* \"#utility.yul\":7384:7390   */\n      dup3\n        /* \"#utility.yul\":7379:7382   */\n      dup3\n        /* \"#utility.yul\":7372:7391   */\n      mstore\n        /* \"#utility.yul\":7424:7428   */\n      0x20\n        /* \"#utility.yul\":7419:7422   */\n      dup3\n        /* \"#utility.yul\":7415:7429   */\n      add\n        /* \"#utility.yul\":7400:7429   */\n      swap1\n      pop\n        /* \"#utility.yul\":7266:7435   */\n      swap3\n      swap2\n      pop\n      pop\n      jump\t// out\n        /* \"#utility.yul\":7441:7687   */\n    tag_166:\n        /* \"#utility.yul\":7522:7523   */\n      0x00\n        /* \"#utility.yul\":7532:7645   */\n    tag_282:\n        /* \"#utility.yul\":7546:7552   */\n      dup4\n        /* \"#utility.yul\":7543:7544   */\n      dup2\n        /* \"#utility.yul\":7540:7553   */\n      lt\n        /* \"#utility.yul\":7532:7645   */\n      iszero\n      tag_284\n      jumpi\n        /* \"#utility.yul\":7631:7632   */\n      dup1\n        /* \"#utility.yul\":7626:7629   */\n      dup3\n        /* \"#utility.yul\":7622:7633   */\n      add\n        /* \"#utility.yul\":7616:7634   */\n      mload\n        /* \"#utility.yul\":7612:7613   */\n      dup2\n        /* \"#utility.yul\":7607:7610   */\n      dup5\n        /* \"#utility.yul\":7603:7614   */\n      add\n        /* \"#utility.yul\":7596:7635   */\n      mstore\n        /* \"#utility.yul\":7568:7570   */\n      0x20\n        /* \"#utility.yul\":7565:7566   */\n      dup2\n        /* \"#utility.yul\":7561:7571   */\n      add\n        /* \"#utility.yul\":7556:7571   */\n      swap1\n      pop\n        /* \"#utility.yul\":7532:7645   */\n      jump(tag_282)\n    tag_284:\n        /* \"#utility.yul\":7679:7680   */\n      0x00\n        /* \"#utility.yul\":7670:7676   */\n      dup5\n        /* \"#utility.yul\":7665:7668   */\n      dup5\n        /* \"#utility.yul\":7661:7677   */\n      add\n        /* \"#utility.yul\":7654:7681   */\n      mstore\n        /* \"#utility.yul\":7503:7687   */\n      pop\n        /* \"#utility.yul\":7441:7687   */\n      pop\n      pop\n      pop\n      jump\t// out\n        /* \"#utility.yul\":7693:8070   */\n    tag_167:\n        /* \"#utility.yul\":7781:7784   */\n      0x00\n        /* \"#utility.yul\":7809:7848   */\n      tag_286\n        /* \"#utility.yul\":7842:7847   */\n      dup3\n        /* \"#utility.yul\":7809:7848   */\n      tag_164\n      jump\t// in\n    tag_286:\n        /* \"#utility.yul\":7864:7935   */\n      tag_287\n        /* \"#utility.yul\":7928:7934   */\n      dup2\n        /* \"#utility.yul\":7923:7926   */\n      dup6\n        /* \"#utility.yul\":7864:7935   */\n      tag_165\n      jump\t// in\n    tag_287:\n        /* \"#utility.yul\":7857:7935   */\n      swap4\n      pop\n        /* \"#utility.yul\":7944:8009   */\n      tag_288\n        /* \"#utility.yul\":8002:8008   */\n      dup2\n        /* \"#utility.yul\":7997:8000   */\n      dup6\n        /* \"#utility.yul\":7990:7994   */\n      0x20\n        /* \"#utility.yul\":7983:7988   */\n      dup7\n        /* \"#utility.yul\":7979:7995   */\n      add\n        /* \"#utility.yul\":7944:8009   */\n      tag_166\n      jump\t// in\n    tag_288:\n        /* \"#utility.yul\":8034:8063   */\n      tag_289\n        /* \"#utility.yul\":8056:8062   */\n      dup2\n        /* \"#utility.yul\":8034:8063   */\n      tag_146\n      jump\t// in\n    tag_289:\n        /* \"#utility.yul\":8029:8032   */\n      dup5\n        /* \"#utility.yul\":8025:8064   */\n      add\n        /* \"#utility.yul\":8018:8064   */\n      swap2\n      pop\n        /* \"#utility.yul\":7785:8070   */\n      pop\n        /* \"#utility.yul\":7693:8070   */\n      swap3\n      swap2\n      pop\n      pop\n      jump\t// out\n        /* \"#utility.yul\":8076:8202   */\n    tag_168:\n        /* \"#utility.yul\":8113:8120   */\n      0x00\n        /* \"#utility.yul\":8153:8195   */\n      0xffffffffffffffffffffffffffffffffffffffff\n        /* \"#utility.yul\":8146:8151   */\n      dup3\n        /* \"#utility.yul\":8142:8196   */\n      and\n        /* \"#utility.yul\":8131:8196   */\n      swap1\n      pop\n        /* \"#utility.yul\":8076:8202   */\n      swap2\n      swap1\n      pop\n      jump\t// out\n        /* \"#utility.yul\":8208:8304   */\n    tag_169:\n        /* \"#utility.yul\":8245:8252   */\n      0x00\n        /* \"#utility.yul\":8274:8298   */\n      tag_292\n        /* \"#utility.yul\":8292:8297   */\n      dup3\n        /* \"#utility.yul\":8274:8298   */\n      tag_168\n      jump\t// in\n    tag_292:\n        /* \"#utility.yul\":8263:8298   */\n      swap1\n      pop\n        /* \"#utility.yul\":8208:8304   */\n      swap2\n      swap1\n      pop\n      jump\t// out\n        /* \"#utility.yul\":8310:8428   */\n    tag_170:\n        /* \"#utility.yul\":8397:8421   */\n      tag_294\n        /* \"#utility.yul\":8415:8420   */\n      dup2\n        /* \"#utility.yul\":8397:8421   */\n      tag_169\n      jump\t// in\n    tag_294:\n        /* \"#utility.yul\":8392:8395   */\n      dup3\n        /* \"#utility.yul\":8385:8422   */\n      mstore\n        /* \"#utility.yul\":8310:8428   */\n      pop\n      pop\n      jump\t// out\n        /* \"#utility.yul\":8434:9169   */\n    tag_59:\n        /* \"#utility.yul\":8651:8655   */\n      0x00\n        /* \"#utility.yul\":8689:8692   */\n      0x80\n        /* \"#utility.yul\":8678:8687   */\n      dup3\n        /* \"#utility.yul\":8674:8693   */\n      add\n        /* \"#utility.yul\":8666:8693   */\n      swap1\n      pop\n        /* \"#utility.yul\":8739:8748   */\n      dup2\n        /* \"#utility.yul\":8733:8737   */\n      dup2\n        /* \"#utility.yul\":8729:8749   */\n      sub\n        /* \"#utility.yul\":8725:8726   */\n      0x00\n        /* \"#utility.yul\":8714:8723   */\n      dup4\n        /* \"#utility.yul\":8710:8727   */\n      add\n        /* \"#utility.yul\":8703:8750   */\n      mstore\n        /* \"#utility.yul\":8767:8845   */\n      tag_296\n        /* \"#utility.yul\":8840:8844   */\n      dup2\n        /* \"#utility.yul\":8831:8837   */\n      dup8\n        /* \"#utility.yul\":8767:8845   */\n      tag_167\n      jump\t// in\n    tag_296:\n        /* \"#utility.yul\":8759:8845   */\n      swap1\n      pop\n        /* \"#utility.yul\":8855:8927   */\n      tag_297\n        /* \"#utility.yul\":8923:8925   */\n      0x20\n        /* \"#utility.yul\":8912:8921   */\n      dup4\n        /* \"#utility.yul\":8908:8926   */\n      add\n        /* \"#utility.yul\":8899:8905   */\n      dup7\n        /* \"#utility.yul\":8855:8927   */\n      tag_157\n      jump\t// in\n    tag_297:\n        /* \"#utility.yul\":8937:9009   */\n      tag_298\n        /* \"#utility.yul\":9005:9007   */\n      0x40\n        /* \"#utility.yul\":8994:9003   */\n      dup4\n        /* \"#utility.yul\":8990:9008   */\n      add\n        /* \"#utility.yul\":8981:8987   */\n      dup6\n        /* \"#utility.yul\":8937:9009   */\n      tag_170\n      jump\t// in\n    tag_298:\n        /* \"#utility.yul\":9056:9065   */\n      dup2\n        /* \"#utility.yul\":9050:9054   */\n      dup2\n        /* \"#utility.yul\":9046:9066   */\n      sub\n        /* \"#utility.yul\":9041:9043   */\n      0x60\n        /* \"#utility.yul\":9030:9039   */\n      dup4\n        /* \"#utility.yul\":9026:9044   */\n      add\n        /* \"#utility.yul\":9019:9067   */\n      mstore\n        /* \"#utility.yul\":9084:9162   */\n      tag_299\n        /* \"#utility.yul\":9157:9161   */\n      dup2\n        /* \"#utility.yul\":9148:9154   */\n      dup5\n        /* \"#utility.yul\":9084:9162   */\n      tag_167\n      jump\t// in\n    tag_299:\n        /* \"#utility.yul\":9076:9162   */\n      swap1\n      pop\n        /* \"#utility.yul\":8434:9169   */\n      swap6\n      swap5\n      pop\n      pop\n      pop\n      pop\n      pop\n      jump\t// out\n        /* \"#utility.yul\":9175:9323   */\n    tag_171:\n        /* \"#utility.yul\":9277:9288   */\n      0x00\n        /* \"#utility.yul\":9314:9317   */\n      dup2\n        /* \"#utility.yul\":9299:9317   */\n      swap1\n      pop\n        /* \"#utility.yul\":9175:9323   */\n      swap3\n      swap2\n      pop\n      pop\n      jump\t// out\n        /* \"#utility.yul\":9329:9719   */\n    tag_172:\n        /* \"#utility.yul\":9435:9438   */\n      0x00\n        /* \"#utility.yul\":9463:9502   */\n      tag_302\n        /* \"#utility.yul\":9496:9501   */\n      dup3\n        /* \"#utility.yul\":9463:9502   */\n      tag_164\n      jump\t// in\n    tag_302:\n        /* \"#utility.yul\":9518:9607   */\n      tag_303\n        /* \"#utility.yul\":9600:9606   */\n      dup2\n        /* \"#utility.yul\":9595:9598   */\n      dup6\n        /* \"#utility.yul\":9518:9607   */\n      tag_171\n      jump\t// in\n    tag_303:\n        /* \"#utility.yul\":9511:9607   */\n      swap4\n      pop\n        /* \"#utility.yul\":9616:9681   */\n      tag_304\n        /* \"#utility.yul\":9674:9680   */\n      dup2\n        /* \"#utility.yul\":9669:9672   */\n      dup6\n        /* \"#utility.yul\":9662:9666   */\n      0x20\n        /* \"#utility.yul\":9655:9660   */\n      dup7\n        /* \"#utility.yul\":9651:9667   */\n      add\n        /* \"#utility.yul\":9616:9681   */\n      tag_166\n      jump\t// in\n    tag_304:\n        /* \"#utility.yul\":9706:9712   */\n      dup1\n        /* \"#utility.yul\":9701:9704   */\n      dup5\n        /* \"#utility.yul\":9697:9713   */\n      add\n        /* \"#utility.yul\":9690:9713   */\n      swap2\n      pop\n        /* \"#utility.yul\":9439:9719   */\n      pop\n        /* \"#utility.yul\":9329:9719   */\n      swap3\n      swap2\n      pop\n      pop\n      jump\t// out\n        /* \"#utility.yul\":9725:10000   */\n    tag_70:\n        /* \"#utility.yul\":9857:9860   */\n      0x00\n        /* \"#utility.yul\":9879:9974   */\n      tag_306\n        /* \"#utility.yul\":9970:9973   */\n      dup3\n        /* \"#utility.yul\":9961:9967   */\n      dup5\n        /* \"#utility.yul\":9879:9974   */\n      tag_172\n      jump\t// in\n    tag_306:\n        /* \"#utility.yul\":9872:9974   */\n      swap2\n      pop\n        /* \"#utility.yul\":9991:9994   */\n      dup2\n        /* \"#utility.yul\":9984:9994   */\n      swap1\n      pop\n        /* \"#utility.yul\":9725:10000   */\n      swap3\n      swap2\n      pop\n      pop\n      jump\t// out\n        /* \"#utility.yul\":10006:10186   */\n    tag_173:\n        /* \"#utility.yul\":10054:10131   */\n      0x4e487b7100000000000000000000000000000000000000000000000000000000\n        /* \"#utility.yul\":10051:10052   */\n      0x00\n        /* \"#utility.yul\":10044:10132   */\n      mstore\n        /* \"#utility.yul\":10151:10155   */\n      0x22\n        /* \"#utility.yul\":10148:10149   */\n      0x04\n        /* \"#utility.yul\":10141:10156   */\n      mstore\n        /* \"#utility.yul\":10175:10179   */\n      0x24\n        /* \"#utility.yul\":10172:10173   */\n      0x00\n        /* \"#utility.yul\":10165:10180   */\n      revert\n        /* \"#utility.yul\":10192:10512   */\n    tag_116:\n        /* \"#utility.yul\":10236:10242   */\n      0x00\n        /* \"#utility.yul\":10273:10274   */\n      0x02\n        /* \"#utility.yul\":10267:10271   */\n      dup3\n        /* \"#utility.yul\":10263:10275   */\n      div\n        /* \"#utility.yul\":10253:10275   */\n      swap1\n      pop\n        /* \"#utility.yul\":10320:10321   */\n      0x01\n        /* \"#utility.yul\":10314:10318   */\n      dup3\n        /* \"#utility.yul\":10310:10322   */\n      and\n        /* \"#utility.yul\":10341:10359   */\n      dup1\n        /* \"#utility.yul\":10331:10412   */\n      tag_309\n      jumpi\n        /* \"#utility.yul\":10397:10401   */\n      0x7f\n        /* \"#utility.yul\":10389:10395   */\n      dup3\n        /* \"#utility.yul\":10385:10402   */\n      and\n        /* \"#utility.yul\":10375:10402   */\n      swap2\n      pop\n        /* \"#utility.yul\":10331:10412   */\n    tag_309:\n        /* \"#utility.yul\":10459:10461   */\n      0x20\n        /* \"#utility.yul\":10451:10457   */\n      dup3\n        /* \"#utility.yul\":10448:10462   */\n      lt\n        /* \"#utility.yul\":10428:10446   */\n      dup2\n        /* \"#utility.yul\":10425:10463   */\n      sub\n        /* \"#utility.yul\":10422:10506   */\n      tag_310\n      jumpi\n        /* \"#utility.yul\":10478:10496   */\n      tag_311\n      tag_173\n      jump\t// in\n    tag_311:\n        /* \"#utility.yul\":10422:10506   */\n    tag_310:\n        /* \"#utility.yul\":10243:10512   */\n      pop\n        /* \"#utility.yul\":10192:10512   */\n      swap2\n      swap1\n      pop\n      jump\t// out\n        /* \"#utility.yul\":10518:10659   */\n    tag_174:\n        /* \"#utility.yul\":10567:10571   */\n      0x00\n        /* \"#utility.yul\":10590:10593   */\n      dup2\n        /* \"#utility.yul\":10582:10593   */\n      swap1\n      pop\n        /* \"#utility.yul\":10613:10616   */\n      dup2\n        /* \"#utility.yul\":10610:10611   */\n      0x00\n        /* \"#utility.yul\":10603:10617   */\n      mstore\n        /* \"#utility.yul\":10647:10651   */\n      0x20\n        /* \"#utility.yul\":10644:10645   */\n      0x00\n        /* \"#utility.yul\":10634:10652   */\n      keccak256\n        /* \"#utility.yul\":10626:10652   */\n      swap1\n      pop\n        /* \"#utility.yul\":10518:10659   */\n      swap2\n      swap1\n      pop\n      jump\t// out\n        /* \"#utility.yul\":10665:10758   */\n    tag_175:\n        /* \"#utility.yul\":10702:10708   */\n      0x00\n        /* \"#utility.yul\":10749:10751   */\n      0x20\n        /* \"#utility.yul\":10744:10746   */\n      0x1f\n        /* \"#utility.yul\":10737:10742   */\n      dup4\n        /* \"#utility.yul\":10733:10747   */\n      add\n        /* \"#utility.yul\":10729:10752   */\n      div\n        /* \"#utility.yul\":10719:10752   */\n      swap1\n      pop\n        /* \"#utility.yul\":10665:10758   */\n      swap2\n      swap1\n      pop\n      jump\t// out\n        /* \"#utility.yul\":10764:10871   */\n    tag_176:\n        /* \"#utility.yul\":10808:10816   */\n      0x00\n        /* \"#utility.yul\":10858:10863   */\n      dup3\n        /* \"#utility.yul\":10852:10856   */\n      dup3\n        /* \"#utility.yul\":10848:10864   */\n      shl\n        /* \"#utility.yul\":10827:10864   */\n      swap1\n      pop\n        /* \"#utility.yul\":10764:10871   */\n      swap3\n      swap2\n      pop\n      pop\n      jump\t// out\n        /* \"#utility.yul\":10877:11270   */\n    tag_177:\n        /* \"#utility.yul\":10946:10952   */\n      0x00\n        /* \"#utility.yul\":10996:10997   */\n      0x08\n        /* \"#utility.yul\":10984:10994   */\n      dup4\n        /* \"#utility.yul\":10980:10998   */\n      mul\n        /* \"#utility.yul\":11019:11116   */\n      tag_316\n        /* \"#utility.yul\":11049:11115   */\n      0xffffffffffffffffffffffffffffffffffffffffffffffffffffffffffffffff\n        /* \"#utility.yul\":11038:11047   */\n      dup3\n        /* \"#utility.yul\":11019:11116   */\n      tag_176\n      jump\t// in\n    tag_316:\n        /* \"#utility.yul\":11137:11176   */\n      tag_317\n        /* \"#utility.yul\":11167:11175   */\n      dup7\n        /* \"#utility.yul\":11156:11165   */\n      dup4\n        /* \"#utility.yul\":11137:11176   */\n      tag_176\n      jump\t// in\n    tag_317:\n        /* \"#utility.yul\":11125:11176   */\n      swap6\n      pop\n        /* \"#utility.yul\":11209:11213   */\n      dup1\n        /* \"#utility.yul\":11205:11214   */\n      not\n        /* \"#utility.yul\":11198:11203   */\n      dup5\n        /* \"#utility.yul\":11194:11215   */\n      and\n        /* \"#utility.yul\":11185:11215   */\n      swap4\n      pop\n        /* \"#utility.yul\":11258:11262   */\n      dup1\n        /* \"#utility.yul\":11248:11256   */\n      dup7\n        /* \"#utility.yul\":11244:11263   */\n      and\n        /* \"#utility.yul\":11237:11242   */\n      dup5\n        /* \"#utility.yul\":11234:11264   */\n      or\n        /* \"#utility.yul\":11224:11264   */\n      swap3\n      pop\n        /* \"#utility.yul\":10953:11270   */\n      pop\n      pop\n        /* \"#utility.yul\":10877:11270   */\n      swap4\n      swap3\n      pop\n      pop\n      pop\n      jump\t// out\n        /* \"#utility.yul\":11276:11336   */\n    tag_178:\n        /* \"#utility.yul\":11304:11307   */\n      0x00\n        /* \"#utility.yul\":11325:11330   */\n      dup2\n        /* \"#utility.yul\":11318:11330   */\n      swap1\n      pop\n        /* \"#utility.yul\":11276:11336   */\n      swap2\n      swap1\n      pop\n      jump\t// out\n        /* \"#utility.yul\":11342:11484   */\n    tag_179:\n        /* \"#utility.yul\":11392:11401   */\n      0x00\n        /* \"#utility.yul\":11425:11478   */\n      tag_320\n        /* \"#utility.yul\":11443:11477   */\n      tag_321\n        /* \"#utility.yul\":11452:11476   */\n      tag_322\n        /* \"#utility.yul\":11470:11475   */\n      dup5\n        /* \"#utility.yul\":11452:11476   */\n      tag_154\n      jump\t// in\n    tag_322:\n        /* \"#utility.yul\":11443:11477   */\n      tag_178\n      jump\t// in\n    tag_321:\n        /* \"#utility.yul\":11425:11478   */\n      tag_154\n      jump\t// in\n    tag_320:\n        /* \"#utility.yul\":11412:11478   */\n      swap1\n      pop\n        /* \"#utility.yul\":11342:11484   */\n      swap2\n      swap1\n      pop\n      jump\t// out\n        /* \"#utility.yul\":11490:11565   */\n    tag_180:\n        /* \"#utility.yul\":11533:11536   */\n      0x00\n        /* \"#utility.yul\":11554:11559   */\n      dup2\n        /* \"#utility.yul\":11547:11559   */\n      swap1\n      pop\n        /* \"#utility.yul\":11490:11565   */\n      swap2\n      swap1\n      pop\n      jump\t// out\n        /* \"#utility.yul\":11571:11840   */\n    tag_181:\n        /* \"#utility.yul\":11681:11720   */\n      tag_325\n        /* \"#utility.yul\":11712:11719   */\n      dup4\n        /* \"#utility.yul\":11681:11720   */\n      tag_179\n      jump\t// in\n    tag_325:\n        /* \"#utility.yul\":11742:11833   */\n      tag_326\n        /* \"#utility.yul\":11791:11832   */\n      tag_327\n        /* \"#utility.yul\":11815:11831   */\n      dup3\n        /* \"#utility.yul\":11791:11832   */\n      tag_180\n      jump\t// in\n    tag_327:\n        /* \"#utility.yul\":11783:11789   */\n      dup5\n        /* \"#utility.yul\":11776:11780   */\n      dup5\n        /* \"#utility.yul\":11770:11781   */\n      sload\n        /* \"#utility.yul\":11742:11833   */\n      tag_177\n      jump\t// in\n    tag_326:\n        /* \"#utility.yul\":11736:11740   */\n      dup3\n        /* \"#utility.yul\":11729:11834   */\n      sstore\n        /* \"#utility.yul\":11647:11840   */\n      pop\n        /* \"#utility.yul\":11571:11840   */\n      pop\n      pop\n      pop\n      jump\t// out\n        /* \"#utility.yul\":11846:11919   */\n    tag_182:\n        /* \"#utility.yul\":11891:11894   */\n      0x00\n        /* \"#utility.yul\":11846:11919   */\n      swap1\n      jump\t// out\n        /* \"#utility.yul\":11925:12114   */\n    tag_183:\n        /* \"#utility.yul\":12002:12034   */\n      tag_330\n      tag_182\n      jump\t// in\n    tag_330:\n        /* \"#utility.yul\":12043:12108   */\n      tag_331\n        /* \"#utility.yul\":12101:12107   */\n      dup2\n        /* \"#utility.yul\":12093:12099   */\n      dup5\n        /* \"#utility.yul\":12087:12091   */\n      dup5\n        /* \"#utility.yul\":12043:12108   */\n      tag_181\n      jump\t// in\n    tag_331:\n        /* \"#utility.yul\":11978:12114   */\n      pop\n        /* \"#utility.yul\":11925:12114   */\n      pop\n      pop\n      jump\t// out\n        /* \"#utility.yul\":12120:12306   */\n    tag_184:\n        /* \"#utility.yul\":12180:12300   */\n    tag_333:\n        /* \"#utility.yul\":12197:12200   */\n      dup2\n        /* \"#utility.yul\":12190:12195   */\n      dup2\n        /* \"#utility.yul\":12187:12201   */\n      lt\n        /* \"#utility.yul\":12180:12300   */\n      iszero\n      tag_335\n      jumpi\n        /* \"#utility.yul\":12251:12290   */\n      tag_336\n        /* \"#utility.yul\":12288:12289   */\n      0x00\n        /* \"#utility.yul\":12281:12286   */\n      dup3\n        /* \"#utility.yul\":12251:12290   */\n      tag_183\n      jump\t// in\n    tag_336:\n        /* \"#utility.yul\":12224:12225   */\n      0x01\n        /* \"#utility.yul\":12217:12222   */\n      dup2\n        /* \"#utility.yul\":12213:12226   */\n      add\n        /* \"#utility.yul\":12204:12226   */\n      swap1\n      pop\n        /* \"#utility.yul\":12180:12300   */\n      jump(tag_333)\n    tag_335:\n        /* \"#utility.yul\":12120:12306   */\n      pop\n      pop\n      jump\t// out\n        /* \"#utility.yul\":12312:12855   */\n    tag_185:\n        /* \"#utility.yul\":12413:12415   */\n      0x1f\n        /* \"#utility.yul\":12408:12411   */\n      dup3\n        /* \"#utility.yul\":12405:12416   */\n      gt\n        /* \"#utility.yul\":12402:12848   */\n      iszero\n      tag_338\n      jumpi\n        /* \"#utility.yul\":12447:12485   */\n      tag_339\n        /* \"#utility.yul\":12479:12484   */\n      dup2\n        /* \"#utility.yul\":12447:12485   */\n      tag_174\n      jump\t// in\n    tag_339:\n        /* \"#utility.yul\":12531:12560   */\n      tag_340\n        /* \"#utility.yul\":12549:12559   */\n      dup5\n        /* \"#utility.yul\":12531:12560   */\n      tag_175\n      jump\t// in\n    tag_340:\n        /* \"#utility.yul\":12521:12529   */\n      dup2\n        /* \"#utility.yul\":12517:12561   */\n      add\n        /* \"#utility.yul\":12714:12716   */\n      0x20\n        /* \"#utility.yul\":12702:12712   */\n      dup6\n        /* \"#utility.yul\":12699:12717   */\n      lt\n        /* \"#utility.yul\":12696:12745   */\n      iszero\n      tag_341\n      jumpi\n        /* \"#utility.yul\":12735:12743   */\n      dup2\n        /* \"#utility.yul\":12720:12743   */\n      swap1\n      pop\n        /* \"#utility.yul\":12696:12745   */\n    tag_341:\n        /* \"#utility.yul\":12758:12838   */\n      tag_342\n        /* \"#utility.yul\":12814:12836   */\n      tag_343\n        /* \"#utility.yul\":12832:12835   */\n      dup6\n        /* \"#utility.yul\":12814:12836   */\n      tag_175\n      jump\t// in\n    tag_343:\n        /* \"#utility.yul\":12804:12812   */\n      dup4\n        /* \"#utility.yul\":12800:12837   */\n      add\n        /* \"#utility.yul\":12787:12798   */\n      dup3\n        /* \"#utility.yul\":12758:12838   */\n      tag_184\n      jump\t// in\n    tag_342:\n        /* \"#utility.yul\":12417:12848   */\n      pop\n      pop\n        /* \"#utility.yul\":12402:12848   */\n    tag_338:\n        /* \"#utility.yul\":12312:12855   */\n      pop\n      pop\n      pop\n      jump\t// out\n        /* \"#utility.yul\":12861:12978   */\n    tag_186:\n        /* \"#utility.yul\":12915:12923   */\n      0x00\n        /* \"#utility.yul\":12965:12970   */\n      dup3\n        /* \"#utility.yul\":12959:12963   */\n      dup3\n        /* \"#utility.yul\":12955:12971   */\n      shr\n        /* \"#utility.yul\":12934:12971   */\n      swap1\n      pop\n        /* \"#utility.yul\":12861:12978   */\n      swap3\n      swap2\n      pop\n      pop\n      jump\t// out\n        /* \"#utility.yul\":12984:13153   */\n    tag_187:\n        /* \"#utility.yul\":13028:13034   */\n      0x00\n        /* \"#utility.yul\":13061:13112   */\n      tag_346\n        /* \"#utility.yul\":13109:13110   */\n      0x00\n        /* \"#utility.yul\":13105:13111   */\n      not\n        /* \"#utility.yul\":13097:13102   */\n      dup5\n        /* \"#utility.yul\":13094:13095   */\n      0x08\n        /* \"#utility.yul\":13090:13103   */\n      mul\n        /* \"#utility.yul\":13061:13112   */\n      tag_186\n      jump\t// in\n    tag_346:\n        /* \"#utility.yul\":13057:13113   */\n      not\n        /* \"#utility.yul\":13142:13146   */\n      dup1\n        /* \"#utility.yul\":13136:13140   */\n      dup4\n        /* \"#utility.yul\":13132:13147   */\n      and\n        /* \"#utility.yul\":13122:13147   */\n      swap2\n      pop\n        /* \"#utility.yul\":13035:13153   */\n      pop\n        /* \"#utility.yul\":12984:13153   */\n      swap3\n      swap2\n      pop\n      pop\n      jump\t// out\n        /* \"#utility.yul\":13158:13453   */\n    tag_188:\n        /* \"#utility.yul\":13234:13238   */\n      0x00\n        /* \"#utility.yul\":13380:13409   */\n      tag_348\n        /* \"#utility.yul\":13405:13408   */\n      dup4\n        /* \"#utility.yul\":13399:13403   */\n      dup4\n        /* \"#utility.yul\":13380:13409   */\n      tag_187\n      jump\t// in\n    tag_348:\n        /* \"#utility.yul\":13372:13409   */\n      swap2\n      pop\n        /* \"#utility.yul\":13442:13445   */\n      dup3\n        /* \"#utility.yul\":13439:13440   */\n      0x02\n        /* \"#utility.yul\":13435:13446   */\n      mul\n        /* \"#utility.yul\":13429:13433   */\n      dup3\n        /* \"#utility.yul\":13426:13447   */\n      or\n        /* \"#utility.yul\":13418:13447   */\n      swap1\n      pop\n        /* \"#utility.yul\":13158:13453   */\n      swap3\n      swap2\n      pop\n      pop\n      jump\t// out\n        /* \"#utility.yul\":13458:14853   */\n    tag_72:\n        /* \"#utility.yul\":13575:13612   */\n      tag_350\n        /* \"#utility.yul\":13608:13611   */\n      dup3\n        /* \"#utility.yul\":13575:13612   */\n      tag_164\n      jump\t// in\n    tag_350:\n        /* \"#utility.yul\":13677:13695   */\n      0xffffffffffffffff\n        /* \"#utility.yul\":13669:13675   */\n      dup2\n        /* \"#utility.yul\":13666:13696   */\n      gt\n        /* \"#utility.yul\":13663:13719   */\n      iszero\n      tag_351\n      jumpi\n        /* \"#utility.yul\":13699:13717   */\n      tag_352\n      tag_147\n      jump\t// in\n    tag_352:\n        /* \"#utility.yul\":13663:13719   */\n    tag_351:\n        /* \"#utility.yul\":13743:13781   */\n      tag_353\n        /* \"#utility.yul\":13775:13779   */\n      dup3\n        /* \"#utility.yul\":13769:13780   */\n      sload\n        /* \"#utility.yul\":13743:13781   */\n      tag_116\n      jump\t// in\n    tag_353:\n        /* \"#utility.yul\":13828:13895   */\n      tag_354\n        /* \"#utility.yul\":13888:13894   */\n      dup3\n        /* \"#utility.yul\":13880:13886   */\n      dup3\n        /* \"#utility.yul\":13874:13878   */\n      dup6\n        /* \"#utility.yul\":13828:13895   */\n      tag_185\n      jump\t// in\n    tag_354:\n        /* \"#utility.yul\":13922:13923   */\n      0x00\n        /* \"#utility.yul\":13946:13950   */\n      0x20\n        /* \"#utility.yul\":13933:13950   */\n      swap1\n      pop\n        /* \"#utility.yul\":13978:13980   */\n      0x1f\n        /* \"#utility.yul\":13970:13976   */\n      dup4\n        /* \"#utility.yul\":13967:13981   */\n      gt\n        /* \"#utility.yul\":13995:13996   */\n      0x01\n        /* \"#utility.yul\":13990:14608   */\n      dup2\n      eq\n      tag_356\n      jumpi\n        /* \"#utility.yul\":14652:14653   */\n      0x00\n        /* \"#utility.yul\":14669:14675   */\n      dup5\n        /* \"#utility.yul\":14666:14743   */\n      iszero\n      tag_357\n      jumpi\n        /* \"#utility.yul\":14718:14727   */\n      dup3\n        /* \"#utility.yul\":14713:14716   */\n      dup8\n        /* \"#utility.yul\":14709:14728   */\n      add\n        /* \"#utility.yul\":14703:14729   */\n      mload\n        /* \"#utility.yul\":14694:14729   */\n      swap1\n      pop\n        /* \"#utility.yul\":14666:14743   */\n    tag_357:\n        /* \"#utility.yul\":14769:14836   */\n      tag_358\n        /* \"#utility.yul\":14829:14835   */\n      dup6\n        /* \"#utility.yul\":14822:14827   */\n      dup3\n        /* \"#utility.yul\":14769:14836   */\n      tag_188\n      jump\t// in\n    tag_358:\n        /* \"#utility.yul\":14763:14767   */\n      dup7\n        /* \"#utility.yul\":14756:14837   */\n      sstore\n        /* \"#utility.yul\":14625:14847   */\n      pop\n        /* \"#utility.yul\":13960:14847   */\n      jump(tag_355)\n        /* \"#utility.yul\":13990:14608   */\n    tag_356:\n        /* \"#utility.yul\":14042:14046   */\n      0x1f\n        /* \"#utility.yul\":14038:14047   */\n      not\n        /* \"#utility.yul\":14030:14036   */\n      dup5\n        /* \"#utility.yul\":14026:14048   */\n      and\n        /* \"#utility.yul\":14076:14113   */\n      tag_359\n        /* \"#utility.yul\":14108:14112   */\n      dup7\n        /* \"#utility.yul\":14076:14113   */\n      tag_174\n      jump\t// in\n    tag_359:\n        /* \"#utility.yul\":14135:14136   */\n      0x00\n        /* \"#utility.yul\":14149:14357   */\n    tag_360:\n        /* \"#utility.yul\":14163:14170   */\n      dup3\n        /* \"#utility.yul\":14160:14161   */\n      dup2\n        /* \"#utility.yul\":14157:14171   */\n      lt\n        /* \"#utility.yul\":14149:14357   */\n      iszero\n      tag_362\n      jumpi\n        /* \"#utility.yul\":14242:14251   */\n      dup5\n        /* \"#utility.yul\":14237:14240   */\n      dup10\n        /* \"#utility.yul\":14233:14252   */\n      add\n        /* \"#utility.yul\":14227:14253   */\n      mload\n        /* \"#utility.yul\":14219:14225   */\n      dup3\n        /* \"#utility.yul\":14212:14254   */\n      sstore\n        /* \"#utility.yul\":14293:14294   */\n      0x01\n        /* \"#utility.yul\":14285:14291   */\n      dup3\n        /* \"#utility.yul\":14281:14295   */\n      add\n        /* \"#utility.yul\":14271:14295   */\n      swap2\n      pop\n        /* \"#utility.yul\":14340:14342   */\n      0x20\n        /* \"#utility.yul\":14329:14338   */\n      dup6\n        /* \"#utility.yul\":14325:14343   */\n      add\n        /* \"#utility.yul\":14312:14343   */\n      swap5\n      pop\n        /* \"#utility.yul\":14186:14190   */\n      0x20\n        /* \"#utility.yul\":14183:14184   */\n      dup2\n        /* \"#utility.yul\":14179:14191   */\n      add\n        /* \"#utility.yul\":14174:14191   */\n      swap1\n      pop\n        /* \"#utility.yul\":14149:14357   */\n      jump(tag_360)\n    tag_362:\n        /* \"#utility.yul\":14385:14391   */\n      dup7\n        /* \"#utility.yul\":14376:14383   */\n      dup4\n        /* \"#utility.yul\":14373:14392   */\n      lt\n        /* \"#utility.yul\":14370:14549   */\n      iszero\n      tag_363\n      jumpi\n        /* \"#utility.yul\":14443:14452   */\n      dup5\n        /* \"#utility.yul\":14438:14441   */\n      dup10\n        /* \"#utility.yul\":14434:14453   */\n      add\n        /* \"#utility.yul\":14428:14454   */\n      mload\n        /* \"#utility.yul\":14486:14534   */\n      tag_364\n        /* \"#utility.yul\":14528:14532   */\n      0x1f\n        /* \"#utility.yul\":14520:14526   */\n      dup10\n        /* \"#utility.yul\":14516:14533   */\n      and\n        /* \"#utility.yul\":14505:14514   */\n      dup3\n        /* \"#utility.yul\":14486:14534   */\n      tag_187\n      jump\t// in\n    tag_364:\n        /* \"#utility.yul\":14478:14484   */\n      dup4\n        /* \"#utility.yul\":14471:14535   */\n      sstore\n        /* \"#utility.yul\":14393:14549   */\n      pop\n        /* \"#utility.yul\":14370:14549   */\n    tag_363:\n        /* \"#utility.yul\":14595:14596   */\n      0x01\n        /* \"#utility.yul\":14591:14592   */\n      0x02\n        /* \"#utility.yul\":14583:14589   */\n      dup9\n        /* \"#utility.yul\":14579:14593   */\n      mul\n        /* \"#utility.yul\":14575:14597   */\n      add\n        /* \"#utility.yul\":14569:14573   */\n      dup9\n        /* \"#utility.yul\":14562:14598   */\n      sstore\n        /* \"#utility.yul\":13997:14608   */\n      pop\n      pop\n      pop\n        /* \"#utility.yul\":13960:14847   */\n    tag_355:\n      pop\n        /* \"#utility.yul\":13550:14853   */\n      pop\n      pop\n      pop\n        /* \"#utility.yul\":13458:14853   */\n      pop\n      pop\n      jump\t// out\n        /* \"#utility.yul\":14859:15039   */\n    tag_80:\n        /* \"#utility.yul\":14907:14984   */\n      0x4e487b7100000000000000000000000000000000000000000000000000000000\n        /* \"#utility.yul\":14904:14905   */\n      0x00\n        /* \"#utility.yul\":14897:14985   */\n      mstore\n        /* \"#utility.yul\":15004:15008   */\n      0x32\n        /* \"#utility.yul\":15001:15002   */\n      0x04\n        /* \"#utility.yul\":14994:15009   */\n      mstore\n        /* \"#utility.yul\":15028:15032   */\n      0x24\n        /* \"#utility.yul\":15025:15026   */\n      0x00\n        /* \"#utility.yul\":15018:15033   */\n      revert\n        /* \"#utility.yul\":15045:15225   */\n    tag_189:\n        /* \"#utility.yul\":15093:15170   */\n      0x4e487b7100000000000000000000000000000000000000000000000000000000\n        /* \"#utility.yul\":15090:15091   */\n      0x00\n        /* \"#utility.yul\":15083:15171   */\n      mstore\n        /* \"#utility.yul\":15190:15194   */\n      0x11\n        /* \"#utility.yul\":15187:15188   */\n      0x04\n        /* \"#utility.yul\":15180:15195   */\n      mstore\n        /* \"#utility.yul\":15214:15218   */\n      0x24\n        /* \"#utility.yul\":15211:15212   */\n      0x00\n        /* \"#utility.yul\":15204:15219   */\n      revert\n        /* \"#utility.yul\":15231:15422   */\n    tag_83:\n        /* \"#utility.yul\":15271:15274   */\n      0x00\n        /* \"#utility.yul\":15290:15310   */\n      tag_368\n        /* \"#utility.yul\":15308:15309   */\n      dup3\n        /* \"#utility.yul\":15290:15310   */\n      tag_154\n      jump\t// in\n    tag_368:\n        /* \"#utility.yul\":15285:15310   */\n      swap2\n      pop\n        /* \"#utility.yul\":15324:15344   */\n      tag_369\n        /* \"#utility.yul\":15342:15343   */\n      dup4\n        /* \"#utility.yul\":15324:15344   */\n      tag_154\n      jump\t// in\n    tag_369:\n        /* \"#utility.yul\":15319:15344   */\n      swap3\n      pop\n        /* \"#utility.yul\":15367:15368   */\n      dup3\n        /* \"#utility.yul\":15364:15365   */\n      dup3\n        /* \"#utility.yul\":15360:15369   */\n      add\n        /* \"#utility.yul\":15353:15369   */\n      swap1\n      pop\n        /* \"#utility.yul\":15388:15391   */\n      dup1\n        /* \"#utility.yul\":15385:15386   */\n      dup3\n        /* \"#utility.yul\":15382:15392   */\n      gt\n        /* \"#utility.yul\":15379:15415   */\n      iszero\n      tag_370\n      jumpi\n        /* \"#utility.yul\":15395:15413   */\n      tag_371\n      tag_189\n      jump\t// in\n    tag_371:\n        /* \"#utility.yul\":15379:15415   */\n    tag_370:\n        /* \"#utility.yul\":15231:15422   */\n      swap3\n      swap2\n      pop\n      pop\n      jump\t// out\n        /* \"#utility.yul\":15428:15661   */\n    tag_85:\n        /* \"#utility.yul\":15467:15470   */\n      0x00\n        /* \"#utility.yul\":15490:15514   */\n      tag_373\n        /* \"#utility.yul\":15508:15513   */\n      dup3\n        /* \"#utility.yul\":15490:15514   */\n      tag_154\n      jump\t// in\n    tag_373:\n        /* \"#utility.yul\":15481:15514   */\n      swap2\n      pop\n        /* \"#utility.yul\":15536:15602   */\n      0xffffffffffffffffffffffffffffffffffffffffffffffffffffffffffffffff\n        /* \"#utility.yul\":15529:15534   */\n      dup3\n        /* \"#utility.yul\":15526:15603   */\n      sub\n        /* \"#utility.yul\":15523:15626   */\n      tag_374\n      jumpi\n        /* \"#utility.yul\":15606:15624   */\n      tag_375\n      tag_189\n      jump\t// in\n    tag_375:\n        /* \"#utility.yul\":15523:15626   */\n    tag_374:\n        /* \"#utility.yul\":15653:15654   */\n      0x01\n        /* \"#utility.yul\":15646:15651   */\n      dup3\n        /* \"#utility.yul\":15642:15655   */\n      add\n        /* \"#utility.yul\":15635:15655   */\n      swap1\n      pop\n        /* \"#utility.yul\":15428:15661   */\n      swap2\n      swap1\n      pop\n      jump\t// out\n        /* \"#utility.yul\":15667:15847   */\n    tag_190:\n        /* \"#utility.yul\":15715:15792   */\n      0x4e487b7100000000000000000000000000000000000000000000000000000000\n        /* \"#utility.yul\":15712:15713   */\n      0x00\n        /* \"#utility.yul\":15705:15793   */\n      mstore\n        /* \"#utility.yul\":15812:15816   */\n      0x12\n        /* \"#utility.yul\":15809:15810   */\n      0x04\n        /* \"#utility.yul\":15802:15817   */\n      mstore\n        /* \"#utility.yul\":15836:15840   */\n      0x24\n        /* \"#utility.yul\":15833:15834   */\n      0x00\n        /* \"#utility.yul\":15826:15841   */\n      revert\n        /* \"#utility.yul\":15853:16038   */\n    tag_87:\n        /* \"#utility.yul\":15893:15894   */\n      0x00\n        /* \"#utility.yul\":15910:15930   */\n      tag_378\n        /* \"#utility.yul\":15928:15929   */\n      dup3\n        /* \"#utility.yul\":15910:15930   */\n      tag_154\n      jump\t// in\n    tag_378:\n        /* \"#utility.yul\":15905:15930   */\n      swap2\n      pop\n        /* \"#utility.yul\":15944:15964   */\n      tag_379\n        /* \"#utility.yul\":15962:15963   */\n      dup4\n        /* \"#utility.yul\":15944:15964   */\n      tag_154\n      jump\t// in\n    tag_379:\n        /* \"#utility.yul\":15939:15964   */\n      swap3\n      pop\n        /* \"#utility.yul\":15983:15984   */\n      dup3\n        /* \"#utility.yul\":15973:16008   */\n      tag_380\n      jumpi\n        /* \"#utility.yul\":15988:16006   */\n      tag_381\n      tag_190\n      jump\t// in\n    tag_381:\n        /* \"#utility.yul\":15973:16008   */\n    tag_380:\n        /* \"#utility.yul\":16030:16031   */\n      dup3\n        /* \"#utility.yul\":16027:16028   */\n      dup3\n        /* \"#utility.yul\":16023:16032   */\n      div\n        /* \"#utility.yul\":16018:16032   */\n      swap1\n      pop\n        /* \"#utility.yul\":15853:16038   */\n      swap3\n      swap2\n      pop\n      pop\n      jump\t// out\n        /* \"#utility.yul\":16044:16199   */\n    tag_191:\n        /* \"#utility.yul\":16184:16191   */\n      0x416c696365000000000000000000000000000000000000000000000000000000\n        /* \"#utility.yul\":16180:16181   */\n      0x00\n        /* \"#utility.yul\":16172:16178   */\n      dup3\n        /* \"#utility.yul\":16168:16182   */\n      add\n        /* \"#utility.yul\":16161:16192   */\n      mstore\n        /* \"#utility.yul\":16044:16199   */\n      pop\n      jump\t// out\n        /* \"#utility.yul\":16205:16605   */\n    tag_192:\n        /* \"#utility.yul\":16365:16368   */\n      0x00\n        /* \"#utility.yul\":16386:16470   */\n      tag_384\n        /* \"#utility.yul\":16468:16469   */\n      0x05\n        /* \"#utility.yul\":16463:16466   */\n      dup4\n        /* \"#utility.yul\":16386:16470   */\n      tag_171\n      jump\t// in\n    tag_384:\n        /* \"#utility.yul\":16379:16470   */\n      swap2\n      pop\n        /* \"#utility.yul\":16479:16572   */\n      tag_385\n        /* \"#utility.yul\":16568:16571   */\n      dup3\n        /* \"#utility.yul\":16479:16572   */\n      tag_191\n      jump\t// in\n    tag_385:\n        /* \"#utility.yul\":16597:16598   */\n      0x05\n        /* \"#utility.yul\":16592:16595   */\n      dup3\n        /* \"#utility.yul\":16588:16599   */\n      add\n        /* \"#utility.yul\":16581:16599   */\n      swap1\n      pop\n        /* \"#utility.yul\":16205:16605   */\n      swap2\n      swap1\n      pop\n      jump\t// out\n        /* \"#utility.yul\":16611:16992   */\n    tag_96:\n        /* \"#utility.yul\":16796:16799   */\n      0x00\n        /* \"#utility.yul\":16818:16966   */\n      tag_387\n        /* \"#utility.yul\":16962:16965   */\n      dup3\n        /* \"#utility.yul\":16818:16966   */\n      tag_192\n      jump\t// in\n    tag_387:\n        /* \"#utility.yul\":16811:16966   */\n      swap2\n      pop\n        /* \"#utility.yul\":16983:16986   */\n      dup2\n        /* \"#utility.yul\":16976:16986   */\n      swap1\n      pop\n        /* \"#utility.yul\":16611:16992   */\n      swap2\n      swap1\n      pop\n      jump\t// out\n        /* \"#utility.yul\":16998:17151   */\n    tag_193:\n        /* \"#utility.yul\":17138:17143   */\n      0x426f620000000000000000000000000000000000000000000000000000000000\n        /* \"#utility.yul\":17134:17135   */\n      0x00\n        /* \"#utility.yul\":17126:17132   */\n      dup3\n        /* \"#utility.yul\":17122:17136   */\n      add\n        /* \"#utility.yul\":17115:17144   */\n      mstore\n        /* \"#utility.yul\":16998:17151   */\n      pop\n      jump\t// out\n        /* \"#utility.yul\":17157:17557   */\n    tag_194:\n        /* \"#utility.yul\":17317:17320   */\n      0x00\n        /* \"#utility.yul\":17338:17422   */\n      tag_390\n        /* \"#utility.yul\":17420:17421   */\n      0x03\n        /* \"#utility.yul\":17415:17418   */\n      dup4\n        /* \"#utility.yul\":17338:17422   */\n      tag_171\n      jump\t// in\n    tag_390:\n        /* \"#utility.yul\":17331:17422   */\n      swap2\n      pop\n        /* \"#utility.yul\":17431:17524   */\n      tag_391\n        /* \"#utility.yul\":17520:17523   */\n      dup3\n        /* \"#utility.yul\":17431:17524   */\n      tag_193\n      jump\t// in\n    tag_391:\n        /* \"#utility.yul\":17549:17550   */\n      0x03\n        /* \"#utility.yul\":17544:17547   */\n      dup3\n        /* \"#utility.yul\":17540:17551   */\n      add\n        /* \"#utility.yul\":17533:17551   */\n      swap1\n      pop\n        /* \"#utility.yul\":17157:17557   */\n      swap2\n      swap1\n      pop\n      jump\t// out\n        /* \"#utility.yul\":17563:17944   */\n    tag_100:\n        /* \"#utility.yul\":17748:17751   */\n      0x00\n        /* \"#utility.yul\":17770:17918   */\n      tag_393\n        /* \"#utility.yul\":17914:17917   */\n      dup3\n        /* \"#utility.yul\":17770:17918   */\n      tag_194\n      jump\t// in\n    tag_393:\n        /* \"#utility.yul\":17763:17918   */\n      swap2\n      pop\n        /* \"#utility.yul\":17935:17938   */\n      dup2\n        /* \"#utility.yul\":17928:17938   */\n      swap1\n      pop\n        /* \"#utility.yul\":17563:17944   */\n      swap2\n      swap1\n      pop\n      jump\t// out\n        /* \"#utility.yul\":17950:18126   */\n    tag_110:\n        /* \"#utility.yul\":17982:17983   */\n      0x00\n        /* \"#utility.yul\":17999:18019   */\n      tag_395\n        /* \"#utility.yul\":18017:18018   */\n      dup3\n        /* \"#utility.yul\":17999:18019   */\n      tag_154\n      jump\t// in\n    tag_395:\n        /* \"#utility.yul\":17994:18019   */\n      swap2\n      pop\n        /* \"#utility.yul\":18033:18053   */\n      tag_396\n        /* \"#utility.yul\":18051:18052   */\n      dup4\n        /* \"#utility.yul\":18033:18053   */\n      tag_154\n      jump\t// in\n    tag_396:\n        /* \"#utility.yul\":18028:18053   */\n      swap3\n      pop\n        /* \"#utility.yul\":18072:18073   */\n      dup3\n        /* \"#utility.yul\":18062:18097   */\n      tag_397\n      jumpi\n        /* \"#utility.yul\":18077:18095   */\n      tag_398\n      tag_190\n      jump\t// in\n    tag_398:\n        /* \"#utility.yul\":18062:18097   */\n    tag_397:\n        /* \"#utility.yul\":18118:18119   */\n      dup3\n        /* \"#utility.yul\":18115:18116   */\n      dup3\n        /* \"#utility.yul\":18111:18120   */\n      mod\n        /* \"#utility.yul\":18106:18120   */\n      swap1\n      pop\n        /* \"#utility.yul\":17950:18126   */\n      swap3\n      swap2\n      pop\n      pop\n      jump\t// out\n\n    auxdata: 0xa26469706673582212203f5b1db15a813ba024de19ba9ea7c7cd9517b74a4fee307e6a5c1b0661060c3764736f6c63430008120033\n}\n",
				"bytecode": {
					"linkReferences": {},
					"object": "608060405234801561001057600080fd5b506112da806100206000396000f3fe6080604052600436106100a75760003560e01c806373f0cc2d1161006457806373f0cc2d146101685780639b4d52dd14610193578063a7697424146101bc578063bd329568146101e5578063f740628314610225578063f956bf4a1461022f576100a7565b806317b64668146100ac57806320fcc983146100b6578063390b6a4c146100df5780633ccfd60b1461010a57806344faf9e91461012157806362e92d8a1461012b575b600080fd5b6100b4610258565b005b3480156100c257600080fd5b506100dd60048036038101906100d891906109e4565b610267565b005b3480156100eb57600080fd5b506100f4610341565b6040516101019190610a7e565b60405180910390f35b34801561011657600080fd5b5061011f6103b2565b005b61012961044d565b005b34801561013757600080fd5b50610152600480360381019061014d9190610a99565b610462565b60405161015f9190610afd565b60405180910390f35b34801561017457600080fd5b5061017d61051d565b60405161018a9190610b8f565b60405180910390f35b34801561019f57600080fd5b506101ba60048036038101906101b59190610baa565b610530565b005b3480156101c857600080fd5b506101e360048036038101906101de9190610c06565b6105bc565b005b3480156101f157600080fd5b5061020c60048036038101906102079190610a99565b61061a565b60405161021c9493929190610cf3565b60405180910390f35b61022d610790565b005b34801561023b57600080fd5b5061025660048036038101906102519190610c06565b6107a6565b005b6001341461026557600080fd5b565b60405180608001604052808481526020018381526020013373ffffffffffffffffffffffffffffffffffffffff168152602001828152506001846040516102ae9190610d82565b908152602001604051809103902060008201518160000190816102d19190610fa5565b506020820151816001015560408201518160020160006101000a81548173ffffffffffffffffffffffffffffffffffffffff021916908373ffffffffffffffffffffffffffffffffffffffff16021790555060608201518160030190816103389190610fa5565b50905050505050565b60008060005b60028054905081101561039a576002818154811061036857610367611077565b5b9060005260206000209060030201600201548261038591906110d5565b9150808061039290611109565b915050610347565b50600280549050816103ac9190611180565b91505090565b6000735b38da6a701c568545dcfcb03fcb875f56beddc490508073ffffffffffffffffffffffffffffffffffffffff163373ffffffffffffffffffffffffffffffffffffffff161461040357600080fd5b8073ffffffffffffffffffffffffffffffffffffffff166108fc479081150290604051600060405180830381858888f19350505050158015610449573d6000803e3d6000fd5b5050565b66038d7ea4c68000341461046057600080fd5b565b6000604051602001610473906111fd565b604051602081830303815290604052805190602001208260405160200161049a9190610d82565b60405160208183030381529060405280519060200120148061050557506040516020016104c69061125e565b60405160208183030381529060405280519060200120826040516020016104ed9190610d82565b60405160208183030381529060405280519060200120145b156105135760019050610518565b600090505b919050565b600460009054906101000a900460ff1681565b600260405180606001604052808481526020016003600081548092919061055690611109565b91905055815260200183815250908060018154018082558091505060019003906000526020600020906003020160009091909190915060008201518160000190816105a19190610fa5565b50602082015181600101556040820151816002015550505050565b60006003826105cb9190611273565b146105d557600080fd5b6000600a826105e49190611273565b146105ee57600080fd5b600081908060018154018082558091505060019003906000526020600020016000909190919091505550565b60018180516020810182018051848252602083016020850120818352809550505050505060009150905080600001805461065390610dc8565b80601f016020809104026020016040519081016040528092919081815260200182805461067f90610dc8565b80156106cc5780601f106106a1576101008083540402835291602001916106cc565b820191906000526020600020905b8154815290600101906020018083116106af57829003601f168201915b5050505050908060010154908060020160009054906101000a900473ffffffffffffffffffffffffffffffffffffffff169080600301805461070d90610dc8565b80601f016020809104026020016040519081016040528092919081815260200182805461073990610dc8565b80156107865780601f1061075b57610100808354040283529160200191610786565b820191906000526020600020905b81548152906001019060200180831161076957829003601f168201915b5050505050905084565b670de0b6b3a764000034146107a457600080fd5b565b600781106107de576000600460006101000a81548160ff021916908360028111156107d4576107d3610b18565b5b0217905550610851565b600481101580156107ef5750600781105b15610824576001600460006101000a81548160ff0219169083600281111561081a57610819610b18565b5b0217905550610850565b6002600460006101000a81548160ff0219169083600281111561084a57610849610b18565b5b02179055505b5b50565b6000604051905090565b600080fd5b600080fd5b600080fd5b600080fd5b6000601f19601f8301169050919050565b7f4e487b7100000000000000000000000000000000000000000000000000000000600052604160045260246000fd5b6108bb82610872565b810181811067ffffffffffffffff821117156108da576108d9610883565b5b80604052505050565b60006108ed610854565b90506108f982826108b2565b919050565b600067ffffffffffffffff82111561091957610918610883565b5b61092282610872565b9050602081019050919050565b82818337600083830152505050565b600061095161094c846108fe565b6108e3565b90508281526020810184848401111561096d5761096c61086d565b5b61097884828561092f565b509392505050565b600082601f83011261099557610994610868565b5b81356109a584826020860161093e565b91505092915050565b6000819050919050565b6109c1816109ae565b81146109cc57600080fd5b50565b6000813590506109de816109b8565b92915050565b6000806000606084860312156109fd576109fc61085e565b5b600084013567ffffffffffffffff811115610a1b57610a1a610863565b5b610a2786828701610980565b9350506020610a38868287016109cf565b925050604084013567ffffffffffffffff811115610a5957610a58610863565b5b610a6586828701610980565b9150509250925092565b610a78816109ae565b82525050565b6000602082019050610a936000830184610a6f565b92915050565b600060208284031215610aaf57610aae61085e565b5b600082013567ffffffffffffffff811115610acd57610acc610863565b5b610ad984828501610980565b91505092915050565b60008115159050919050565b610af781610ae2565b82525050565b6000602082019050610b126000830184610aee565b92915050565b7f4e487b7100000000000000000000000000000000000000000000000000000000600052602160045260246000fd5b60038110610b5857610b57610b18565b5b50565b6000819050610b6982610b47565b919050565b6000610b7982610b5b565b9050919050565b610b8981610b6e565b82525050565b6000602082019050610ba46000830184610b80565b92915050565b60008060408385031215610bc157610bc061085e565b5b600083013567ffffffffffffffff811115610bdf57610bde610863565b5b610beb85828601610980565b9250506020610bfc858286016109cf565b9150509250929050565b600060208284031215610c1c57610c1b61085e565b5b6000610c2a848285016109cf565b91505092915050565b600081519050919050565b600082825260208201905092915050565b60005b83811015610c6d578082015181840152602081019050610c52565b60008484015250505050565b6000610c8482610c33565b610c8e8185610c3e565b9350610c9e818560208601610c4f565b610ca781610872565b840191505092915050565b600073ffffffffffffffffffffffffffffffffffffffff82169050919050565b6000610cdd82610cb2565b9050919050565b610ced81610cd2565b82525050565b60006080820190508181036000830152610d0d8187610c79565b9050610d1c6020830186610a6f565b610d296040830185610ce4565b8181036060830152610d3b8184610c79565b905095945050505050565b600081905092915050565b6000610d5c82610c33565b610d668185610d46565b9350610d76818560208601610c4f565b80840191505092915050565b6000610d8e8284610d51565b915081905092915050565b7f4e487b7100000000000000000000000000000000000000000000000000000000600052602260045260246000fd5b60006002820490506001821680610de057607f821691505b602082108103610df357610df2610d99565b5b50919050565b60008190508160005260206000209050919050565b60006020601f8301049050919050565b600082821b905092915050565b600060088302610e5b7fffffffffffffffffffffffffffffffffffffffffffffffffffffffffffffffff82610e1e565b610e658683610e1e565b95508019841693508086168417925050509392505050565b6000819050919050565b6000610ea2610e9d610e98846109ae565b610e7d565b6109ae565b9050919050565b6000819050919050565b610ebc83610e87565b610ed0610ec882610ea9565b848454610e2b565b825550505050565b600090565b610ee5610ed8565b610ef0818484610eb3565b505050565b5b81811015610f1457610f09600082610edd565b600181019050610ef6565b5050565b601f821115610f5957610f2a81610df9565b610f3384610e0e565b81016020851015610f42578190505b610f56610f4e85610e0e565b830182610ef5565b50505b505050565b600082821c905092915050565b6000610f7c60001984600802610f5e565b1980831691505092915050565b6000610f958383610f6b565b9150826002028217905092915050565b610fae82610c33565b67ffffffffffffffff811115610fc757610fc6610883565b5b610fd18254610dc8565b610fdc828285610f18565b600060209050601f83116001811461100f5760008415610ffd578287015190505b6110078582610f89565b86555061106f565b601f19841661101d86610df9565b60005b8281101561104557848901518255600182019150602085019450602081019050611020565b86831015611062578489015161105e601f891682610f6b565b8355505b6001600288020188555050505b505050505050565b7f4e487b7100000000000000000000000000000000000000000000000000000000600052603260045260246000fd5b7f4e487b7100000000000000000000000000000000000000000000000000000000600052601160045260246000fd5b60006110e0826109ae565b91506110eb836109ae565b9250828201905080821115611103576111026110a6565b5b92915050565b6000611114826109ae565b91507fffffffffffffffffffffffffffffffffffffffffffffffffffffffffffffffff8203611146576111456110a6565b5b600182019050919050565b7f4e487b7100000000000000000000000000000000000000000000000000000000600052601260045260246000fd5b600061118b826109ae565b9150611196836109ae565b9250826111a6576111a5611151565b5b828204905092915050565b7f416c696365000000000000000000000000000000000000000000000000000000600082015250565b60006111e7600583610d46565b91506111f2826111b1565b600582019050919050565b6000611208826111da565b9150819050919050565b7f426f620000000000000000000000000000000000000000000000000000000000600082015250565b6000611248600383610d46565b915061125382611212565b600382019050919050565b60006112698261123b565b9150819050919050565b600061127e826109ae565b9150611289836109ae565b92508261129957611298611151565b5b82820690509291505056fea26469706673582212203f5b1db15a813ba024de19ba9ea7c7cd9517b74a4fee307e6a5c1b0661060c3764736f6c63430008120033",
					"opcodes": "PUSH1 0x80 PUSH1 0x40 MSTORE CALLVALUE DUP1 ISZERO PUSH2 0x10 JUMPI PUSH1 0x0 DUP1 REVERT JUMPDEST POP PUSH2 0x12DA DUP1 PUSH2 0x20 PUSH1 0x0 CODECOPY PUSH1 0x0 RETURN INVALID PUSH1 0x80 PUSH1 0x40 MSTORE PUSH1 0x4 CALLDATASIZE LT PUSH2 0xA7 JUMPI PUSH1 0x0 CALLDATALOAD PUSH1 0xE0 SHR DUP1 PUSH4 0x73F0CC2D GT PUSH2 0x64 JUMPI DUP1 PUSH4 0x73F0CC2D EQ PUSH2 0x168 JUMPI DUP1 PUSH4 0x9B4D52DD EQ PUSH2 0x193 JUMPI DUP1 PUSH4 0xA7697424 EQ PUSH2 0x1BC JUMPI DUP1 PUSH4 0xBD329568 EQ PUSH2 0x1E5 JUMPI DUP1 PUSH4 0xF7406283 EQ PUSH2 0x225 JUMPI DUP1 PUSH4 0xF956BF4A EQ PUSH2 0x22F JUMPI PUSH2 0xA7 JUMP JUMPDEST DUP1 PUSH4 0x17B64668 EQ PUSH2 0xAC JUMPI DUP1 PUSH4 0x20FCC983 EQ PUSH2 0xB6 JUMPI DUP1 PUSH4 0x390B6A4C EQ PUSH2 0xDF JUMPI DUP1 PUSH4 0x3CCFD60B EQ PUSH2 0x10A JUMPI DUP1 PUSH4 0x44FAF9E9 EQ PUSH2 0x121 JUMPI DUP1 PUSH4 0x62E92D8A EQ PUSH2 0x12B JUMPI JUMPDEST PUSH1 0x0 DUP1 REVERT JUMPDEST PUSH2 0xB4 PUSH2 0x258 JUMP JUMPDEST STOP JUMPDEST CALLVALUE DUP1 ISZERO PUSH2 0xC2 JUMPI PUSH1 0x0 DUP1 REVERT JUMPDEST POP PUSH2 0xDD PUSH1 0x4 DUP1 CALLDATASIZE SUB DUP2 ADD SWAP1 PUSH2 0xD8 SWAP2 SWAP1 PUSH2 0x9E4 JUMP JUMPDEST PUSH2 0x267 JUMP JUMPDEST STOP JUMPDEST CALLVALUE DUP1 ISZERO PUSH2 0xEB JUMPI PUSH1 0x0 DUP1 REVERT JUMPDEST POP PUSH2 0xF4 PUSH2 0x341 JUMP JUMPDEST PUSH1 0x40 MLOAD PUSH2 0x101 SWAP2 SWAP1 PUSH2 0xA7E JUMP JUMPDEST PUSH1 0x40 MLOAD DUP1 SWAP2 SUB SWAP1 RETURN JUMPDEST CALLVALUE DUP1 ISZERO PUSH2 0x116 JUMPI PUSH1 0x0 DUP1 REVERT JUMPDEST POP PUSH2 0x11F PUSH2 0x3B2 JUMP JUMPDEST STOP JUMPDEST PUSH2 0x129 PUSH2 0x44D JUMP JUMPDEST STOP JUMPDEST CALLVALUE DUP1 ISZERO PUSH2 0x137 JUMPI PUSH1 0x0 DUP1 REVERT JUMPDEST POP PUSH2 0x152 PUSH1 0x4 DUP1 CALLDATASIZE SUB DUP2 ADD SWAP1 PUSH2 0x14D SWAP2 SWAP1 PUSH2 0xA99 JUMP JUMPDEST PUSH2 0x462 JUMP JUMPDEST PUSH1 0x40 MLOAD PUSH2 0x15F SWAP2 SWAP1 PUSH2 0xAFD JUMP JUMPDEST PUSH1 0x40 MLOAD DUP1 SWAP2 SUB SWAP1 RETURN JUMPDEST CALLVALUE DUP1 ISZERO PUSH2 0x174 JUMPI PUSH1 0x0 DUP1 REVERT JUMPDEST POP PUSH2 0x17D PUSH2 0x51D JUMP JUMPDEST PUSH1 0x40 MLOAD PUSH2 0x18A SWAP2 SWAP1 PUSH2 0xB8F JUMP JUMPDEST PUSH1 0x40 MLOAD DUP1 SWAP2 SUB SWAP1 RETURN JUMPDEST CALLVALUE DUP1 ISZERO PUSH2 0x19F JUMPI PUSH1 0x0 DUP1 REVERT JUMPDEST POP PUSH2 0x1BA PUSH1 0x4 DUP1 CALLDATASIZE SUB DUP2 ADD SWAP1 PUSH2 0x1B5 SWAP2 SWAP1 PUSH2 0xBAA JUMP JUMPDEST PUSH2 0x530 JUMP JUMPDEST STOP JUMPDEST CALLVALUE DUP1 ISZERO PUSH2 0x1C8 JUMPI PUSH1 0x0 DUP1 REVERT JUMPDEST POP PUSH2 0x1E3 PUSH1 0x4 DUP1 CALLDATASIZE SUB DUP2 ADD SWAP1 PUSH2 0x1DE SWAP2 SWAP1 PUSH2 0xC06 JUMP JUMPDEST PUSH2 0x5BC JUMP JUMPDEST STOP JUMPDEST CALLVALUE DUP1 ISZERO PUSH2 0x1F1 JUMPI PUSH1 0x0 DUP1 REVERT JUMPDEST POP PUSH2 0x20C PUSH1 0x4 DUP1 CALLDATASIZE SUB DUP2 ADD SWAP1 PUSH2 0x207 SWAP2 SWAP1 PUSH2 0xA99 JUMP JUMPDEST PUSH2 0x61A JUMP JUMPDEST PUSH1 0x40 MLOAD PUSH2 0x21C SWAP5 SWAP4 SWAP3 SWAP2 SWAP1 PUSH2 0xCF3 JUMP JUMPDEST PUSH1 0x40 MLOAD DUP1 SWAP2 SUB SWAP1 RETURN JUMPDEST PUSH2 0x22D PUSH2 0x790 JUMP JUMPDEST STOP JUMPDEST CALLVALUE DUP1 ISZERO PUSH2 0x23B JUMPI PUSH1 0x0 DUP1 REVERT JUMPDEST POP PUSH2 0x256 PUSH1 0x4 DUP1 CALLDATASIZE SUB DUP2 ADD SWAP1 PUSH2 0x251 SWAP2 SWAP1 PUSH2 0xC06 JUMP JUMPDEST PUSH2 0x7A6 JUMP JUMPDEST STOP JUMPDEST PUSH1 0x1 CALLVALUE EQ PUSH2 0x265 JUMPI PUSH1 0x0 DUP1 REVERT JUMPDEST JUMP JUMPDEST PUSH1 0x40 MLOAD DUP1 PUSH1 0x80 ADD PUSH1 0x40 MSTORE DUP1 DUP5 DUP2 MSTORE PUSH1 0x20 ADD DUP4 DUP2 MSTORE PUSH1 0x20 ADD CALLER PUSH20 0xFFFFFFFFFFFFFFFFFFFFFFFFFFFFFFFFFFFFFFFF AND DUP2 MSTORE PUSH1 0x20 ADD DUP3 DUP2 MSTORE POP PUSH1 0x1 DUP5 PUSH1 0x40 MLOAD PUSH2 0x2AE SWAP2 SWAP1 PUSH2 0xD82 JUMP JUMPDEST SWAP1 DUP2 MSTORE PUSH1 0x20 ADD PUSH1 0x40 MLOAD DUP1 SWAP2 SUB SWAP1 KECCAK256 PUSH1 0x0 DUP3 ADD MLOAD DUP2 PUSH1 0x0 ADD SWAP1 DUP2 PUSH2 0x2D1 SWAP2 SWAP1 PUSH2 0xFA5 JUMP JUMPDEST POP PUSH1 0x20 DUP3 ADD MLOAD DUP2 PUSH1 0x1 ADD SSTORE PUSH1 0x40 DUP3 ADD MLOAD DUP2 PUSH1 0x2 ADD PUSH1 0x0 PUSH2 0x100 EXP DUP2 SLOAD DUP2 PUSH20 0xFFFFFFFFFFFFFFFFFFFFFFFFFFFFFFFFFFFFFFFF MUL NOT AND SWAP1 DUP4 PUSH20 0xFFFFFFFFFFFFFFFFFFFFFFFFFFFFFFFFFFFFFFFF AND MUL OR SWAP1 SSTORE POP PUSH1 0x60 DUP3 ADD MLOAD DUP2 PUSH1 0x3 ADD SWAP1 DUP2 PUSH2 0x338 SWAP2 SWAP1 PUSH2 0xFA5 JUMP JUMPDEST POP SWAP1 POP POP POP POP POP JUMP JUMPDEST PUSH1 0x0 DUP1 PUSH1 0x0 JUMPDEST PUSH1 0x2 DUP1 SLOAD SWAP1 POP DUP2 LT ISZERO PUSH2 0x39A JUMPI PUSH1 0x2 DUP2 DUP2 SLOAD DUP2 LT PUSH2 0x368 JUMPI PUSH2 0x367 PUSH2 0x1077 JUMP JUMPDEST JUMPDEST SWAP1 PUSH1 0x0 MSTORE PUSH1 0x20 PUSH1 0x0 KECCAK256 SWAP1 PUSH1 0x3 MUL ADD PUSH1 0x2 ADD SLOAD DUP3 PUSH2 0x385 SWAP2 SWAP1 PUSH2 0x10D5 JUMP JUMPDEST SWAP2 POP DUP1 DUP1 PUSH2 0x392 SWAP1 PUSH2 0x1109 JUMP JUMPDEST SWAP2 POP POP PUSH2 0x347 JUMP JUMPDEST POP PUSH1 0x2 DUP1 SLOAD SWAP1 POP DUP2 PUSH2 0x3AC SWAP2 SWAP1 PUSH2 0x1180 JUMP JUMPDEST SWAP2 POP POP SWAP1 JUMP JUMPDEST PUSH1 0x0 PUSH20 0x5B38DA6A701C568545DCFCB03FCB875F56BEDDC4 SWAP1 POP DUP1 PUSH20 0xFFFFFFFFFFFFFFFFFFFFFFFFFFFFFFFFFFFFFFFF AND CALLER PUSH20 0xFFFFFFFFFFFFFFFFFFFFFFFFFFFFFFFFFFFFFFFF AND EQ PUSH2 0x403 JUMPI PUSH1 0x0 DUP1 REVERT JUMPDEST DUP1 PUSH20 0xFFFFFFFFFFFFFFFFFFFFFFFFFFFFFFFFFFFFFFFF AND PUSH2 0x8FC SELFBALANCE SWAP1 DUP2 ISZERO MUL SWAP1 PUSH1 0x40 MLOAD PUSH1 0x0 PUSH1 0x40 MLOAD DUP1 DUP4 SUB DUP2 DUP6 DUP9 DUP9 CALL SWAP4 POP POP POP POP ISZERO DUP1 ISZERO PUSH2 0x449 JUMPI RETURNDATASIZE PUSH1 0x0 DUP1 RETURNDATACOPY RETURNDATASIZE PUSH1 0x0 REVERT JUMPDEST POP POP JUMP JUMPDEST PUSH7 0x38D7EA4C68000 CALLVALUE EQ PUSH2 0x460 JUMPI PUSH1 0x0 DUP1 REVERT JUMPDEST JUMP JUMPDEST PUSH1 0x0 PUSH1 0x40 MLOAD PUSH1 0x20 ADD PUSH2 0x473 SWAP1 PUSH2 0x11FD JUMP JUMPDEST PUSH1 0x40 MLOAD PUSH1 0x20 DUP2 DUP4 SUB SUB DUP2 MSTORE SWAP1 PUSH1 0x40 MSTORE DUP1 MLOAD SWAP1 PUSH1 0x20 ADD KECCAK256 DUP3 PUSH1 0x40 MLOAD PUSH1 0x20 ADD PUSH2 0x49A SWAP2 SWAP1 PUSH2 0xD82 JUMP JUMPDEST PUSH1 0x40 MLOAD PUSH1 0x20 DUP2 DUP4 SUB SUB DUP2 MSTORE SWAP1 PUSH1 0x40 MSTORE DUP1 MLOAD SWAP1 PUSH1 0x20 ADD KECCAK256 EQ DUP1 PUSH2 0x505 JUMPI POP PUSH1 0x40 MLOAD PUSH1 0x20 ADD PUSH2 0x4C6 SWAP1 PUSH2 0x125E JUMP JUMPDEST PUSH1 0x40 MLOAD PUSH1 0x20 DUP2 DUP4 SUB SUB DUP2 MSTORE SWAP1 PUSH1 0x40 MSTORE DUP1 MLOAD SWAP1 PUSH1 0x20 ADD KECCAK256 DUP3 PUSH1 0x40 MLOAD PUSH1 0x20 ADD PUSH2 0x4ED SWAP2 SWAP1 PUSH2 0xD82 JUMP JUMPDEST PUSH1 0x40 MLOAD PUSH1 0x20 DUP2 DUP4 SUB SUB DUP2 MSTORE SWAP1 PUSH1 0x40 MSTORE DUP1 MLOAD SWAP1 PUSH1 0x20 ADD KECCAK256 EQ JUMPDEST ISZERO PUSH2 0x513 JUMPI PUSH1 0x1 SWAP1 POP PUSH2 0x518 JUMP JUMPDEST PUSH1 0x0 SWAP1 POP JUMPDEST SWAP2 SWAP1 POP JUMP JUMPDEST PUSH1 0x4 PUSH1 0x0 SWAP1 SLOAD SWAP1 PUSH2 0x100 EXP SWAP1 DIV PUSH1 0xFF AND DUP2 JUMP JUMPDEST PUSH1 0x2 PUSH1 0x40 MLOAD DUP1 PUSH1 0x60 ADD PUSH1 0x40 MSTORE DUP1 DUP5 DUP2 MSTORE PUSH1 0x20 ADD PUSH1 0x3 PUSH1 0x0 DUP2 SLOAD DUP1 SWAP3 SWAP2 SWAP1 PUSH2 0x556 SWAP1 PUSH2 0x1109 JUMP JUMPDEST SWAP2 SWAP1 POP SSTORE DUP2 MSTORE PUSH1 0x20 ADD DUP4 DUP2 MSTORE POP SWAP1 DUP1 PUSH1 0x1 DUP2 SLOAD ADD DUP1 DUP3 SSTORE DUP1 SWAP2 POP POP PUSH1 0x1 SWAP1 SUB SWAP1 PUSH1 0x0 MSTORE PUSH1 0x20 PUSH1 0x0 KECCAK256 SWAP1 PUSH1 0x3 MUL ADD PUSH1 0x0 SWAP1 SWAP2 SWAP1 SWAP2 SWAP1 SWAP2 POP PUSH1 0x0 DUP3 ADD MLOAD DUP2 PUSH1 0x0 ADD SWAP1 DUP2 PUSH2 0x5A1 SWAP2 SWAP1 PUSH2 0xFA5 JUMP JUMPDEST POP PUSH1 0x20 DUP3 ADD MLOAD DUP2 PUSH1 0x1 ADD SSTORE PUSH1 0x40 DUP3 ADD MLOAD DUP2 PUSH1 0x2 ADD SSTORE POP POP POP POP JUMP JUMPDEST PUSH1 0x0 PUSH1 0x3 DUP3 PUSH2 0x5CB SWAP2 SWAP1 PUSH2 0x1273 JUMP JUMPDEST EQ PUSH2 0x5D5 JUMPI PUSH1 0x0 DUP1 REVERT JUMPDEST PUSH1 0x0 PUSH1 0xA DUP3 PUSH2 0x5E4 SWAP2 SWAP1 PUSH2 0x1273 JUMP JUMPDEST EQ PUSH2 0x5EE JUMPI PUSH1 0x0 DUP1 REVERT JUMPDEST PUSH1 0x0 DUP2 SWAP1 DUP1 PUSH1 0x1 DUP2 SLOAD ADD DUP1 DUP3 SSTORE DUP1 SWAP2 POP POP PUSH1 0x1 SWAP1 SUB SWAP1 PUSH1 0x0 MSTORE PUSH1 0x20 PUSH1 0x0 KECCAK256 ADD PUSH1 0x0 SWAP1 SWAP2 SWAP1 SWAP2 SWAP1 SWAP2 POP SSTORE POP JUMP JUMPDEST PUSH1 0x1 DUP2 DUP1 MLOAD PUSH1 0x20 DUP2 ADD DUP3 ADD DUP1 MLOAD DUP5 DUP3 MSTORE PUSH1 0x20 DUP4 ADD PUSH1 0x20 DUP6 ADD KECCAK256 DUP2 DUP4 MSTORE DUP1 SWAP6 POP POP POP POP POP POP PUSH1 0x0 SWAP2 POP SWAP1 POP DUP1 PUSH1 0x0 ADD DUP1 SLOAD PUSH2 0x653 SWAP1 PUSH2 0xDC8 JUMP JUMPDEST DUP1 PUSH1 0x1F ADD PUSH1 0x20 DUP1 SWAP2 DIV MUL PUSH1 0x20 ADD PUSH1 0x40 MLOAD SWAP1 DUP2 ADD PUSH1 0x40 MSTORE DUP1 SWAP3 SWAP2 SWAP1 DUP2 DUP2 MSTORE PUSH1 0x20 ADD DUP3 DUP1 SLOAD PUSH2 0x67F SWAP1 PUSH2 0xDC8 JUMP JUMPDEST DUP1 ISZERO PUSH2 0x6CC JUMPI DUP1 PUSH1 0x1F LT PUSH2 0x6A1 JUMPI PUSH2 0x100 DUP1 DUP4 SLOAD DIV MUL DUP4 MSTORE SWAP2 PUSH1 0x20 ADD SWAP2 PUSH2 0x6CC JUMP JUMPDEST DUP3 ADD SWAP2 SWAP1 PUSH1 0x0 MSTORE PUSH1 0x20 PUSH1 0x0 KECCAK256 SWAP1 JUMPDEST DUP2 SLOAD DUP2 MSTORE SWAP1 PUSH1 0x1 ADD SWAP1 PUSH1 0x20 ADD DUP1 DUP4 GT PUSH2 0x6AF JUMPI DUP3 SWAP1 SUB PUSH1 0x1F AND DUP3 ADD SWAP2 JUMPDEST POP POP POP POP POP SWAP1 DUP1 PUSH1 0x1 ADD SLOAD SWAP1 DUP1 PUSH1 0x2 ADD PUSH1 0x0 SWAP1 SLOAD SWAP1 PUSH2 0x100 EXP SWAP1 DIV PUSH20 0xFFFFFFFFFFFFFFFFFFFFFFFFFFFFFFFFFFFFFFFF AND SWAP1 DUP1 PUSH1 0x3 ADD DUP1 SLOAD PUSH2 0x70D SWAP1 PUSH2 0xDC8 JUMP JUMPDEST DUP1 PUSH1 0x1F ADD PUSH1 0x20 DUP1 SWAP2 DIV MUL PUSH1 0x20 ADD PUSH1 0x40 MLOAD SWAP1 DUP2 ADD PUSH1 0x40 MSTORE DUP1 SWAP3 SWAP2 SWAP1 DUP2 DUP2 MSTORE PUSH1 0x20 ADD DUP3 DUP1 SLOAD PUSH2 0x739 SWAP1 PUSH2 0xDC8 JUMP JUMPDEST DUP1 ISZERO PUSH2 0x786 JUMPI DUP1 PUSH1 0x1F LT PUSH2 0x75B JUMPI PUSH2 0x100 DUP1 DUP4 SLOAD DIV MUL DUP4 MSTORE SWAP2 PUSH1 0x20 ADD SWAP2 PUSH2 0x786 JUMP JUMPDEST DUP3 ADD SWAP2 SWAP1 PUSH1 0x0 MSTORE PUSH1 0x20 PUSH1 0x0 KECCAK256 SWAP1 JUMPDEST DUP2 SLOAD DUP2 MSTORE SWAP1 PUSH1 0x1 ADD SWAP1 PUSH1 0x20 ADD DUP1 DUP4 GT PUSH2 0x769 JUMPI DUP3 SWAP1 SUB PUSH1 0x1F AND DUP3 ADD SWAP2 JUMPDEST POP POP POP POP POP SWAP1 POP DUP5 JUMP JUMPDEST PUSH8 0xDE0B6B3A7640000 CALLVALUE EQ PUSH2 0x7A4 JUMPI PUSH1 0x0 DUP1 REVERT JUMPDEST JUMP JUMPDEST PUSH1 0x7 DUP2 LT PUSH2 0x7DE JUMPI PUSH1 0x0 PUSH1 0x4 PUSH1 0x0 PUSH2 0x100 EXP DUP2 SLOAD DUP2 PUSH1 0xFF MUL NOT AND SWAP1 DUP4 PUSH1 0x2 DUP2 GT ISZERO PUSH2 0x7D4 JUMPI PUSH2 0x7D3 PUSH2 0xB18 JUMP JUMPDEST JUMPDEST MUL OR SWAP1 SSTORE POP PUSH2 0x851 JUMP JUMPDEST PUSH1 0x4 DUP2 LT ISZERO DUP1 ISZERO PUSH2 0x7EF JUMPI POP PUSH1 0x7 DUP2 LT JUMPDEST ISZERO PUSH2 0x824 JUMPI PUSH1 0x1 PUSH1 0x4 PUSH1 0x0 PUSH2 0x100 EXP DUP2 SLOAD DUP2 PUSH1 0xFF MUL NOT AND SWAP1 DUP4 PUSH1 0x2 DUP2 GT ISZERO PUSH2 0x81A JUMPI PUSH2 0x819 PUSH2 0xB18 JUMP JUMPDEST JUMPDEST MUL OR SWAP1 SSTORE POP PUSH2 0x850 JUMP JUMPDEST PUSH1 0x2 PUSH1 0x4 PUSH1 0x0 PUSH2 0x100 EXP DUP2 SLOAD DUP2 PUSH1 0xFF MUL NOT AND SWAP1 DUP4 PUSH1 0x2 DUP2 GT ISZERO PUSH2 0x84A JUMPI PUSH2 0x849 PUSH2 0xB18 JUMP JUMPDEST JUMPDEST MUL OR SWAP1 SSTORE POP JUMPDEST JUMPDEST POP JUMP JUMPDEST PUSH1 0x0 PUSH1 0x40 MLOAD SWAP1 POP SWAP1 JUMP JUMPDEST PUSH1 0x0 DUP1 REVERT JUMPDEST PUSH1 0x0 DUP1 REVERT JUMPDEST PUSH1 0x0 DUP1 REVERT JUMPDEST PUSH1 0x0 DUP1 REVERT JUMPDEST PUSH1 0x0 PUSH1 0x1F NOT PUSH1 0x1F DUP4 ADD AND SWAP1 POP SWAP2 SWAP1 POP JUMP JUMPDEST PUSH32 0x4E487B7100000000000000000000000000000000000000000000000000000000 PUSH1 0x0 MSTORE PUSH1 0x41 PUSH1 0x4 MSTORE PUSH1 0x24 PUSH1 0x0 REVERT JUMPDEST PUSH2 0x8BB DUP3 PUSH2 0x872 JUMP JUMPDEST DUP2 ADD DUP2 DUP2 LT PUSH8 0xFFFFFFFFFFFFFFFF DUP3 GT OR ISZERO PUSH2 0x8DA JUMPI PUSH2 0x8D9 PUSH2 0x883 JUMP JUMPDEST JUMPDEST DUP1 PUSH1 0x40 MSTORE POP POP POP JUMP JUMPDEST PUSH1 0x0 PUSH2 0x8ED PUSH2 0x854 JUMP JUMPDEST SWAP1 POP PUSH2 0x8F9 DUP3 DUP3 PUSH2 0x8B2 JUMP JUMPDEST SWAP2 SWAP1 POP JUMP JUMPDEST PUSH1 0x0 PUSH8 0xFFFFFFFFFFFFFFFF DUP3 GT ISZERO PUSH2 0x919 JUMPI PUSH2 0x918 PUSH2 0x883 JUMP JUMPDEST JUMPDEST PUSH2 0x922 DUP3 PUSH2 0x872 JUMP JUMPDEST SWAP1 POP PUSH1 0x20 DUP2 ADD SWAP1 POP SWAP2 SWAP1 POP JUMP JUMPDEST DUP3 DUP2 DUP4 CALLDATACOPY PUSH1 0x0 DUP4 DUP4 ADD MSTORE POP POP POP JUMP JUMPDEST PUSH1 0x0 PUSH2 0x951 PUSH2 0x94C DUP5 PUSH2 0x8FE JUMP JUMPDEST PUSH2 0x8E3 JUMP JUMPDEST SWAP1 POP DUP3 DUP2 MSTORE PUSH1 0x20 DUP2 ADD DUP5 DUP5 DUP5 ADD GT ISZERO PUSH2 0x96D JUMPI PUSH2 0x96C PUSH2 0x86D JUMP JUMPDEST JUMPDEST PUSH2 0x978 DUP5 DUP3 DUP6 PUSH2 0x92F JUMP JUMPDEST POP SWAP4 SWAP3 POP POP POP JUMP JUMPDEST PUSH1 0x0 DUP3 PUSH1 0x1F DUP4 ADD SLT PUSH2 0x995 JUMPI PUSH2 0x994 PUSH2 0x868 JUMP JUMPDEST JUMPDEST DUP2 CALLDATALOAD PUSH2 0x9A5 DUP5 DUP3 PUSH1 0x20 DUP7 ADD PUSH2 0x93E JUMP JUMPDEST SWAP2 POP POP SWAP3 SWAP2 POP POP JUMP JUMPDEST PUSH1 0x0 DUP2 SWAP1 POP SWAP2 SWAP1 POP JUMP JUMPDEST PUSH2 0x9C1 DUP2 PUSH2 0x9AE JUMP JUMPDEST DUP2 EQ PUSH2 0x9CC JUMPI PUSH1 0x0 DUP1 REVERT JUMPDEST POP JUMP JUMPDEST PUSH1 0x0 DUP2 CALLDATALOAD SWAP1 POP PUSH2 0x9DE DUP2 PUSH2 0x9B8 JUMP JUMPDEST SWAP3 SWAP2 POP POP JUMP JUMPDEST PUSH1 0x0 DUP1 PUSH1 0x0 PUSH1 0x60 DUP5 DUP7 SUB SLT ISZERO PUSH2 0x9FD JUMPI PUSH2 0x9FC PUSH2 0x85E JUMP JUMPDEST JUMPDEST PUSH1 0x0 DUP5 ADD CALLDATALOAD PUSH8 0xFFFFFFFFFFFFFFFF DUP2 GT ISZERO PUSH2 0xA1B JUMPI PUSH2 0xA1A PUSH2 0x863 JUMP JUMPDEST JUMPDEST PUSH2 0xA27 DUP7 DUP3 DUP8 ADD PUSH2 0x980 JUMP JUMPDEST SWAP4 POP POP PUSH1 0x20 PUSH2 0xA38 DUP7 DUP3 DUP8 ADD PUSH2 0x9CF JUMP JUMPDEST SWAP3 POP POP PUSH1 0x40 DUP5 ADD CALLDATALOAD PUSH8 0xFFFFFFFFFFFFFFFF DUP2 GT ISZERO PUSH2 0xA59 JUMPI PUSH2 0xA58 PUSH2 0x863 JUMP JUMPDEST JUMPDEST PUSH2 0xA65 DUP7 DUP3 DUP8 ADD PUSH2 0x980 JUMP JUMPDEST SWAP2 POP POP SWAP3 POP SWAP3 POP SWAP3 JUMP JUMPDEST PUSH2 0xA78 DUP2 PUSH2 0x9AE JUMP JUMPDEST DUP3 MSTORE POP POP JUMP JUMPDEST PUSH1 0x0 PUSH1 0x20 DUP3 ADD SWAP1 POP PUSH2 0xA93 PUSH1 0x0 DUP4 ADD DUP5 PUSH2 0xA6F JUMP JUMPDEST SWAP3 SWAP2 POP POP JUMP JUMPDEST PUSH1 0x0 PUSH1 0x20 DUP3 DUP5 SUB SLT ISZERO PUSH2 0xAAF JUMPI PUSH2 0xAAE PUSH2 0x85E JUMP JUMPDEST JUMPDEST PUSH1 0x0 DUP3 ADD CALLDATALOAD PUSH8 0xFFFFFFFFFFFFFFFF DUP2 GT ISZERO PUSH2 0xACD JUMPI PUSH2 0xACC PUSH2 0x863 JUMP JUMPDEST JUMPDEST PUSH2 0xAD9 DUP5 DUP3 DUP6 ADD PUSH2 0x980 JUMP JUMPDEST SWAP2 POP POP SWAP3 SWAP2 POP POP JUMP JUMPDEST PUSH1 0x0 DUP2 ISZERO ISZERO SWAP1 POP SWAP2 SWAP1 POP JUMP JUMPDEST PUSH2 0xAF7 DUP2 PUSH2 0xAE2 JUMP JUMPDEST DUP3 MSTORE POP POP JUMP JUMPDEST PUSH1 0x0 PUSH1 0x20 DUP3 ADD SWAP1 POP PUSH2 0xB12 PUSH1 0x0 DUP4 ADD DUP5 PUSH2 0xAEE JUMP JUMPDEST SWAP3 SWAP2 POP POP JUMP JUMPDEST PUSH32 0x4E487B7100000000000000000000000000000000000000000000000000000000 PUSH1 0x0 MSTORE PUSH1 0x21 PUSH1 0x4 MSTORE PUSH1 0x24 PUSH1 0x0 REVERT JUMPDEST PUSH1 0x3 DUP2 LT PUSH2 0xB58 JUMPI PUSH2 0xB57 PUSH2 0xB18 JUMP JUMPDEST JUMPDEST POP JUMP JUMPDEST PUSH1 0x0 DUP2 SWAP1 POP PUSH2 0xB69 DUP3 PUSH2 0xB47 JUMP JUMPDEST SWAP2 SWAP1 POP JUMP JUMPDEST PUSH1 0x0 PUSH2 0xB79 DUP3 PUSH2 0xB5B JUMP JUMPDEST SWAP1 POP SWAP2 SWAP1 POP JUMP JUMPDEST PUSH2 0xB89 DUP2 PUSH2 0xB6E JUMP JUMPDEST DUP3 MSTORE POP POP JUMP JUMPDEST PUSH1 0x0 PUSH1 0x20 DUP3 ADD SWAP1 POP PUSH2 0xBA4 PUSH1 0x0 DUP4 ADD DUP5 PUSH2 0xB80 JUMP JUMPDEST SWAP3 SWAP2 POP POP JUMP JUMPDEST PUSH1 0x0 DUP1 PUSH1 0x40 DUP4 DUP6 SUB SLT ISZERO PUSH2 0xBC1 JUMPI PUSH2 0xBC0 PUSH2 0x85E JUMP JUMPDEST JUMPDEST PUSH1 0x0 DUP4 ADD CALLDATALOAD PUSH8 0xFFFFFFFFFFFFFFFF DUP2 GT ISZERO PUSH2 0xBDF JUMPI PUSH2 0xBDE PUSH2 0x863 JUMP JUMPDEST JUMPDEST PUSH2 0xBEB DUP6 DUP3 DUP7 ADD PUSH2 0x980 JUMP JUMPDEST SWAP3 POP POP PUSH1 0x20 PUSH2 0xBFC DUP6 DUP3 DUP7 ADD PUSH2 0x9CF JUMP JUMPDEST SWAP2 POP POP SWAP3 POP SWAP3 SWAP1 POP JUMP JUMPDEST PUSH1 0x0 PUSH1 0x20 DUP3 DUP5 SUB SLT ISZERO PUSH2 0xC1C JUMPI PUSH2 0xC1B PUSH2 0x85E JUMP JUMPDEST JUMPDEST PUSH1 0x0 PUSH2 0xC2A DUP5 DUP3 DUP6 ADD PUSH2 0x9CF JUMP JUMPDEST SWAP2 POP POP SWAP3 SWAP2 POP POP JUMP JUMPDEST PUSH1 0x0 DUP2 MLOAD SWAP1 POP SWAP2 SWAP1 POP JUMP JUMPDEST PUSH1 0x0 DUP3 DUP3 MSTORE PUSH1 0x20 DUP3 ADD SWAP1 POP SWAP3 SWAP2 POP POP JUMP JUMPDEST PUSH1 0x0 JUMPDEST DUP4 DUP2 LT ISZERO PUSH2 0xC6D JUMPI DUP1 DUP3 ADD MLOAD DUP2 DUP5 ADD MSTORE PUSH1 0x20 DUP2 ADD SWAP1 POP PUSH2 0xC52 JUMP JUMPDEST PUSH1 0x0 DUP5 DUP5 ADD MSTORE POP POP POP POP JUMP JUMPDEST PUSH1 0x0 PUSH2 0xC84 DUP3 PUSH2 0xC33 JUMP JUMPDEST PUSH2 0xC8E DUP2 DUP6 PUSH2 0xC3E JUMP JUMPDEST SWAP4 POP PUSH2 0xC9E DUP2 DUP6 PUSH1 0x20 DUP7 ADD PUSH2 0xC4F JUMP JUMPDEST PUSH2 0xCA7 DUP2 PUSH2 0x872 JUMP JUMPDEST DUP5 ADD SWAP2 POP POP SWAP3 SWAP2 POP POP JUMP JUMPDEST PUSH1 0x0 PUSH20 0xFFFFFFFFFFFFFFFFFFFFFFFFFFFFFFFFFFFFFFFF DUP3 AND SWAP1 POP SWAP2 SWAP1 POP JUMP JUMPDEST PUSH1 0x0 PUSH2 0xCDD DUP3 PUSH2 0xCB2 JUMP JUMPDEST SWAP1 POP SWAP2 SWAP1 POP JUMP JUMPDEST PUSH2 0xCED DUP2 PUSH2 0xCD2 JUMP JUMPDEST DUP3 MSTORE POP POP JUMP JUMPDEST PUSH1 0x0 PUSH1 0x80 DUP3 ADD SWAP1 POP DUP2 DUP2 SUB PUSH1 0x0 DUP4 ADD MSTORE PUSH2 0xD0D DUP2 DUP8 PUSH2 0xC79 JUMP JUMPDEST SWAP1 POP PUSH2 0xD1C PUSH1 0x20 DUP4 ADD DUP7 PUSH2 0xA6F JUMP JUMPDEST PUSH2 0xD29 PUSH1 0x40 DUP4 ADD DUP6 PUSH2 0xCE4 JUMP JUMPDEST DUP2 DUP2 SUB PUSH1 0x60 DUP4 ADD MSTORE PUSH2 0xD3B DUP2 DUP5 PUSH2 0xC79 JUMP JUMPDEST SWAP1 POP SWAP6 SWAP5 POP POP POP POP POP JUMP JUMPDEST PUSH1 0x0 DUP2 SWAP1 POP SWAP3 SWAP2 POP POP JUMP JUMPDEST PUSH1 0x0 PUSH2 0xD5C DUP3 PUSH2 0xC33 JUMP JUMPDEST PUSH2 0xD66 DUP2 DUP6 PUSH2 0xD46 JUMP JUMPDEST SWAP4 POP PUSH2 0xD76 DUP2 DUP6 PUSH1 0x20 DUP7 ADD PUSH2 0xC4F JUMP JUMPDEST DUP1 DUP5 ADD SWAP2 POP POP SWAP3 SWAP2 POP POP JUMP JUMPDEST PUSH1 0x0 PUSH2 0xD8E DUP3 DUP5 PUSH2 0xD51 JUMP JUMPDEST SWAP2 POP DUP2 SWAP1 POP SWAP3 SWAP2 POP POP JUMP JUMPDEST PUSH32 0x4E487B7100000000000000000000000000000000000000000000000000000000 PUSH1 0x0 MSTORE PUSH1 0x22 PUSH1 0x4 MSTORE PUSH1 0x24 PUSH1 0x0 REVERT JUMPDEST PUSH1 0x0 PUSH1 0x2 DUP3 DIV SWAP1 POP PUSH1 0x1 DUP3 AND DUP1 PUSH2 0xDE0 JUMPI PUSH1 0x7F DUP3 AND SWAP2 POP JUMPDEST PUSH1 0x20 DUP3 LT DUP2 SUB PUSH2 0xDF3 JUMPI PUSH2 0xDF2 PUSH2 0xD99 JUMP JUMPDEST JUMPDEST POP SWAP2 SWAP1 POP JUMP JUMPDEST PUSH1 0x0 DUP2 SWAP1 POP DUP2 PUSH1 0x0 MSTORE PUSH1 0x20 PUSH1 0x0 KECCAK256 SWAP1 POP SWAP2 SWAP1 POP JUMP JUMPDEST PUSH1 0x0 PUSH1 0x20 PUSH1 0x1F DUP4 ADD DIV SWAP1 POP SWAP2 SWAP1 POP JUMP JUMPDEST PUSH1 0x0 DUP3 DUP3 SHL SWAP1 POP SWAP3 SWAP2 POP POP JUMP JUMPDEST PUSH1 0x0 PUSH1 0x8 DUP4 MUL PUSH2 0xE5B PUSH32 0xFFFFFFFFFFFFFFFFFFFFFFFFFFFFFFFFFFFFFFFFFFFFFFFFFFFFFFFFFFFFFFFF DUP3 PUSH2 0xE1E JUMP JUMPDEST PUSH2 0xE65 DUP7 DUP4 PUSH2 0xE1E JUMP JUMPDEST SWAP6 POP DUP1 NOT DUP5 AND SWAP4 POP DUP1 DUP7 AND DUP5 OR SWAP3 POP POP POP SWAP4 SWAP3 POP POP POP JUMP JUMPDEST PUSH1 0x0 DUP2 SWAP1 POP SWAP2 SWAP1 POP JUMP JUMPDEST PUSH1 0x0 PUSH2 0xEA2 PUSH2 0xE9D PUSH2 0xE98 DUP5 PUSH2 0x9AE JUMP JUMPDEST PUSH2 0xE7D JUMP JUMPDEST PUSH2 0x9AE JUMP JUMPDEST SWAP1 POP SWAP2 SWAP1 POP JUMP JUMPDEST PUSH1 0x0 DUP2 SWAP1 POP SWAP2 SWAP1 POP JUMP JUMPDEST PUSH2 0xEBC DUP4 PUSH2 0xE87 JUMP JUMPDEST PUSH2 0xED0 PUSH2 0xEC8 DUP3 PUSH2 0xEA9 JUMP JUMPDEST DUP5 DUP5 SLOAD PUSH2 0xE2B JUMP JUMPDEST DUP3 SSTORE POP POP POP POP JUMP JUMPDEST PUSH1 0x0 SWAP1 JUMP JUMPDEST PUSH2 0xEE5 PUSH2 0xED8 JUMP JUMPDEST PUSH2 0xEF0 DUP2 DUP5 DUP5 PUSH2 0xEB3 JUMP JUMPDEST POP POP POP JUMP JUMPDEST JUMPDEST DUP2 DUP2 LT ISZERO PUSH2 0xF14 JUMPI PUSH2 0xF09 PUSH1 0x0 DUP3 PUSH2 0xEDD JUMP JUMPDEST PUSH1 0x1 DUP2 ADD SWAP1 POP PUSH2 0xEF6 JUMP JUMPDEST POP POP JUMP JUMPDEST PUSH1 0x1F DUP3 GT ISZERO PUSH2 0xF59 JUMPI PUSH2 0xF2A DUP2 PUSH2 0xDF9 JUMP JUMPDEST PUSH2 0xF33 DUP5 PUSH2 0xE0E JUMP JUMPDEST DUP2 ADD PUSH1 0x20 DUP6 LT ISZERO PUSH2 0xF42 JUMPI DUP2 SWAP1 POP JUMPDEST PUSH2 0xF56 PUSH2 0xF4E DUP6 PUSH2 0xE0E JUMP JUMPDEST DUP4 ADD DUP3 PUSH2 0xEF5 JUMP JUMPDEST POP POP JUMPDEST POP POP POP JUMP JUMPDEST PUSH1 0x0 DUP3 DUP3 SHR SWAP1 POP SWAP3 SWAP2 POP POP JUMP JUMPDEST PUSH1 0x0 PUSH2 0xF7C PUSH1 0x0 NOT DUP5 PUSH1 0x8 MUL PUSH2 0xF5E JUMP JUMPDEST NOT DUP1 DUP4 AND SWAP2 POP POP SWAP3 SWAP2 POP POP JUMP JUMPDEST PUSH1 0x0 PUSH2 0xF95 DUP4 DUP4 PUSH2 0xF6B JUMP JUMPDEST SWAP2 POP DUP3 PUSH1 0x2 MUL DUP3 OR SWAP1 POP SWAP3 SWAP2 POP POP JUMP JUMPDEST PUSH2 0xFAE DUP3 PUSH2 0xC33 JUMP JUMPDEST PUSH8 0xFFFFFFFFFFFFFFFF DUP2 GT ISZERO PUSH2 0xFC7 JUMPI PUSH2 0xFC6 PUSH2 0x883 JUMP JUMPDEST JUMPDEST PUSH2 0xFD1 DUP3 SLOAD PUSH2 0xDC8 JUMP JUMPDEST PUSH2 0xFDC DUP3 DUP3 DUP6 PUSH2 0xF18 JUMP JUMPDEST PUSH1 0x0 PUSH1 0x20 SWAP1 POP PUSH1 0x1F DUP4 GT PUSH1 0x1 DUP2 EQ PUSH2 0x100F JUMPI PUSH1 0x0 DUP5 ISZERO PUSH2 0xFFD JUMPI DUP3 DUP8 ADD MLOAD SWAP1 POP JUMPDEST PUSH2 0x1007 DUP6 DUP3 PUSH2 0xF89 JUMP JUMPDEST DUP7 SSTORE POP PUSH2 0x106F JUMP JUMPDEST PUSH1 0x1F NOT DUP5 AND PUSH2 0x101D DUP7 PUSH2 0xDF9 JUMP JUMPDEST PUSH1 0x0 JUMPDEST DUP3 DUP2 LT ISZERO PUSH2 0x1045 JUMPI DUP5 DUP10 ADD MLOAD DUP3 SSTORE PUSH1 0x1 DUP3 ADD SWAP2 POP PUSH1 0x20 DUP6 ADD SWAP5 POP PUSH1 0x20 DUP2 ADD SWAP1 POP PUSH2 0x1020 JUMP JUMPDEST DUP7 DUP4 LT ISZERO PUSH2 0x1062 JUMPI DUP5 DUP10 ADD MLOAD PUSH2 0x105E PUSH1 0x1F DUP10 AND DUP3 PUSH2 0xF6B JUMP JUMPDEST DUP4 SSTORE POP JUMPDEST PUSH1 0x1 PUSH1 0x2 DUP9 MUL ADD DUP9 SSTORE POP POP POP JUMPDEST POP POP POP POP POP POP JUMP JUMPDEST PUSH32 0x4E487B7100000000000000000000000000000000000000000000000000000000 PUSH1 0x0 MSTORE PUSH1 0x32 PUSH1 0x4 MSTORE PUSH1 0x24 PUSH1 0x0 REVERT JUMPDEST PUSH32 0x4E487B7100000000000000000000000000000000000000000000000000000000 PUSH1 0x0 MSTORE PUSH1 0x11 PUSH1 0x4 MSTORE PUSH1 0x24 PUSH1 0x0 REVERT JUMPDEST PUSH1 0x0 PUSH2 0x10E0 DUP3 PUSH2 0x9AE JUMP JUMPDEST SWAP2 POP PUSH2 0x10EB DUP4 PUSH2 0x9AE JUMP JUMPDEST SWAP3 POP DUP3 DUP3 ADD SWAP1 POP DUP1 DUP3 GT ISZERO PUSH2 0x1103 JUMPI PUSH2 0x1102 PUSH2 0x10A6 JUMP JUMPDEST JUMPDEST SWAP3 SWAP2 POP POP JUMP JUMPDEST PUSH1 0x0 PUSH2 0x1114 DUP3 PUSH2 0x9AE JUMP JUMPDEST SWAP2 POP PUSH32 0xFFFFFFFFFFFFFFFFFFFFFFFFFFFFFFFFFFFFFFFFFFFFFFFFFFFFFFFFFFFFFFFF DUP3 SUB PUSH2 0x1146 JUMPI PUSH2 0x1145 PUSH2 0x10A6 JUMP JUMPDEST JUMPDEST PUSH1 0x1 DUP3 ADD SWAP1 POP SWAP2 SWAP1 POP JUMP JUMPDEST PUSH32 0x4E487B7100000000000000000000000000000000000000000000000000000000 PUSH1 0x0 MSTORE PUSH1 0x12 PUSH1 0x4 MSTORE PUSH1 0x24 PUSH1 0x0 REVERT JUMPDEST PUSH1 0x0 PUSH2 0x118B DUP3 PUSH2 0x9AE JUMP JUMPDEST SWAP2 POP PUSH2 0x1196 DUP4 PUSH2 0x9AE JUMP JUMPDEST SWAP3 POP DUP3 PUSH2 0x11A6 JUMPI PUSH2 0x11A5 PUSH2 0x1151 JUMP JUMPDEST JUMPDEST DUP3 DUP3 DIV SWAP1 POP SWAP3 SWAP2 POP POP JUMP JUMPDEST PUSH32 0x416C696365000000000000000000000000000000000000000000000000000000 PUSH1 0x0 DUP3 ADD MSTORE POP JUMP JUMPDEST PUSH1 0x0 PUSH2 0x11E7 PUSH1 0x5 DUP4 PUSH2 0xD46 JUMP JUMPDEST SWAP2 POP PUSH2 0x11F2 DUP3 PUSH2 0x11B1 JUMP JUMPDEST PUSH1 0x5 DUP3 ADD SWAP1 POP SWAP2 SWAP1 POP JUMP JUMPDEST PUSH1 0x0 PUSH2 0x1208 DUP3 PUSH2 0x11DA JUMP JUMPDEST SWAP2 POP DUP2 SWAP1 POP SWAP2 SWAP1 POP JUMP JUMPDEST PUSH32 0x426F620000000000000000000000000000000000000000000000000000000000 PUSH1 0x0 DUP3 ADD MSTORE POP JUMP JUMPDEST PUSH1 0x0 PUSH2 0x1248 PUSH1 0x3 DUP4 PUSH2 0xD46 JUMP JUMPDEST SWAP2 POP PUSH2 0x1253 DUP3 PUSH2 0x1212 JUMP JUMPDEST PUSH1 0x3 DUP3 ADD SWAP1 POP SWAP2 SWAP1 POP JUMP JUMPDEST PUSH1 0x0 PUSH2 0x1269 DUP3 PUSH2 0x123B JUMP JUMPDEST SWAP2 POP DUP2 SWAP1 POP SWAP2 SWAP1 POP JUMP JUMPDEST PUSH1 0x0 PUSH2 0x127E DUP3 PUSH2 0x9AE JUMP JUMPDEST SWAP2 POP PUSH2 0x1289 DUP4 PUSH2 0x9AE JUMP JUMPDEST SWAP3 POP DUP3 PUSH2 0x1299 JUMPI PUSH2 0x1298 PUSH2 0x1151 JUMP JUMPDEST JUMPDEST DUP3 DUP3 MOD SWAP1 POP SWAP3 SWAP2 POP POP JUMP INVALID LOG2 PUSH5 0x6970667358 0x22 SLT KECCAK256 EXTCODEHASH JUMPDEST SAR 0xB1 GAS DUP2 EXTCODESIZE LOG0 0x24 0xDE NOT 0xBA SWAP15 0xA7 0xC7 0xCD SWAP6 OR 0xB7 0x4A 0x4F 0xEE ADDRESS PUSH31 0x6A5C1B0661060C3764736F6C63430008120033000000000000000000000000 "
				},
				"gasEstimates": {
					"creation": {
						"codeDepositCost": "965200",
						"executionCost": "1001",
						"totalCost": "966201"
					},
					"external": {
						"Change(uint256)": "24898",
						"donationether()": "230",
						"donationfinney()": "231",
						"donationwei()": "143",
						"getAlice(string)": "infinite",
						"getAvg()": "infinite",
						"pushUsers(string,uint256,string)": "infinite",
						"setStudent(string,uint256)": "infinite",
						"st()": "2560",
						"three(uint256)": "infinite",
						"userlist(string)": "infinite",
						"withdraw()": "infinite"
					}
				},
				"methodIdentifiers": {
					"Change(uint256)": "f956bf4a",
					"donationether()": "f7406283",
					"donationfinney()": "44faf9e9",
					"donationwei()": "17b64668",
					"getAlice(string)": "62e92d8a",
					"getAvg()": "390b6a4c",
					"pushUsers(string,uint256,string)": "20fcc983",
					"setStudent(string,uint256)": "9b4d52dd",
					"st()": "73f0cc2d",
					"three(uint256)": "a7697424",
					"userlist(string)": "bd329568",
					"withdraw()": "3ccfd60b"
				}
			},
			"storageLayout": {
				"storage": [
					{
						"astId": 46,
						"contract": "contracts/Practice/4.sol:ps",
						"label": "array",
						"offset": 0,
						"slot": "0",
						"type": "t_array(t_uint256)dyn_storage"
					},
					{
						"astId": 88,
						"contract": "contracts/Practice/4.sol:ps",
						"label": "userlist",
						"offset": 0,
						"slot": "1",
						"type": "t_mapping(t_string_memory_ptr,t_struct(user)83_storage)"
					},
					{
						"astId": 121,
						"contract": "contracts/Practice/4.sol:ps",
						"label": "students",
						"offset": 0,
						"slot": "2",
						"type": "t_array(t_struct(Student)117_storage)dyn_storage"
					},
					{
						"astId": 123,
						"contract": "contracts/Practice/4.sol:ps",
						"label": "count",
						"offset": 0,
						"slot": "3",
						"type": "t_uint256"
					},
					{
						"astId": 184,
						"contract": "contracts/Practice/4.sol:ps",
						"label": "st",
						"offset": 0,
						"slot": "4",
						"type": "t_enum(status)181"
					}
				],
				"types": {
					"t_address": {
						"encoding": "inplace",
						"label": "address",
						"numberOfBytes": "20"
					},
					"t_array(t_struct(Student)117_storage)dyn_storage": {
						"base": "t_struct(Student)117_storage",
						"encoding": "dynamic_array",
						"label": "struct ps.Student[]",
						"numberOfBytes": "32"
					},
					"t_array(t_uint256)dyn_storage": {
						"base": "t_uint256",
						"encoding": "dynamic_array",
						"label": "uint256[]",
						"numberOfBytes": "32"
					},
					"t_enum(status)181": {
						"encoding": "inplace",
						"label": "enum ps.status",
						"numberOfBytes": "1"
					},
					"t_mapping(t_string_memory_ptr,t_struct(user)83_storage)": {
						"encoding": "mapping",
						"key": "t_string_memory_ptr",
						"label": "mapping(string => struct ps.user)",
						"numberOfBytes": "32",
						"value": "t_struct(user)83_storage"
					},
					"t_string_memory_ptr": {
						"encoding": "bytes",
						"label": "string",
						"numberOfBytes": "32"
					},
					"t_string_storage": {
						"encoding": "bytes",
						"label": "string",
						"numberOfBytes": "32"
					},
					"t_struct(Student)117_storage": {
						"encoding": "inplace",
						"label": "struct ps.Student",
						"members": [
							{
								"astId": 112,
								"contract": "contracts/Practice/4.sol:ps",
								"label": "name",
								"offset": 0,
								"slot": "0",
								"type": "t_string_storage"
							},
							{
								"astId": 114,
								"contract": "contracts/Practice/4.sol:ps",
								"label": "number",
								"offset": 0,
								"slot": "1",
								"type": "t_uint256"
							},
							{
								"astId": 116,
								"contract": "contracts/Practice/4.sol:ps",
								"label": "score",
								"offset": 0,
								"slot": "2",
								"type": "t_uint256"
							}
						],
						"numberOfBytes": "96"
					},
					"t_struct(user)83_storage": {
						"encoding": "inplace",
						"label": "struct ps.user",
						"members": [
							{
								"astId": 76,
								"contract": "contracts/Practice/4.sol:ps",
								"label": "name",
								"offset": 0,
								"slot": "0",
								"type": "t_string_storage"
							},
							{
								"astId": 78,
								"contract": "contracts/Practice/4.sol:ps",
								"label": "number",
								"offset": 0,
								"slot": "1",
								"type": "t_uint256"
							},
							{
								"astId": 80,
								"contract": "contracts/Practice/4.sol:ps",
								"label": "by",
								"offset": 0,
								"slot": "2",
								"type": "t_address"
							},
							{
								"astId": 82,
								"contract": "contracts/Practice/4.sol:ps",
								"label": "birth",
								"offset": 0,
								"slot": "3",
								"type": "t_string_storage"
							}
						],
						"numberOfBytes": "128"
					},
					"t_uint256": {
						"encoding": "inplace",
						"label": "uint256",
						"numberOfBytes": "32"
					}
				}
			},
			"userdoc": {
				"kind": "user",
				"methods": {},
				"version": 1
			}
		}
	}
}