{
	"contracts/Practice/2.sol": {
		"ps": {
			"abi": [
				{
					"inputs": [
						{
							"internalType": "uint256",
							"name": "_a",
							"type": "uint256"
						},
						{
							"internalType": "uint256",
							"name": "_b",
							"type": "uint256"
						},
						{
							"internalType": "uint256",
							"name": "_c",
							"type": "uint256"
						}
					],
					"name": "Mul",
					"outputs": [
						{
							"internalType": "uint256",
							"name": "",
							"type": "uint256"
						}
					],
					"stateMutability": "pure",
					"type": "function"
				},
				{
					"inputs": [
						{
							"internalType": "uint256",
							"name": "_a",
							"type": "uint256"
						}
					],
					"name": "Odd",
					"outputs": [],
					"stateMutability": "nonpayable",
					"type": "function"
				},
				{
					"inputs": [
						{
							"internalType": "uint256",
							"name": "_a",
							"type": "uint256"
						}
					],
					"name": "abc",
					"outputs": [
						{
							"internalType": "string",
							"name": "",
							"type": "string"
						}
					],
					"stateMutability": "pure",
					"type": "function"
				},
				{
					"inputs": [],
					"name": "addarray",
					"outputs": [
						{
							"internalType": "uint256",
							"name": "",
							"type": "uint256"
						}
					],
					"stateMutability": "view",
					"type": "function"
				},
				{
					"inputs": [
						{
							"internalType": "uint256",
							"name": "n",
							"type": "uint256"
						}
					],
					"name": "autoPush",
					"outputs": [],
					"stateMutability": "nonpayable",
					"type": "function"
				},
				{
					"inputs": [
						{
							"internalType": "uint256",
							"name": "_a",
							"type": "uint256"
						},
						{
							"internalType": "uint256",
							"name": "_b",
							"type": "uint256"
						},
						{
							"internalType": "uint256",
							"name": "_c",
							"type": "uint256"
						}
					],
					"name": "com",
					"outputs": [
						{
							"internalType": "uint256",
							"name": "",
							"type": "uint256"
						}
					],
					"stateMutability": "pure",
					"type": "function"
				},
				{
					"inputs": [
						{
							"internalType": "uint256",
							"name": "_a",
							"type": "uint256"
						}
					],
					"name": "double",
					"outputs": [
						{
							"internalType": "uint256",
							"name": "",
							"type": "uint256"
						}
					],
					"stateMutability": "pure",
					"type": "function"
				},
				{
					"inputs": [],
					"name": "getAP",
					"outputs": [
						{
							"internalType": "uint256[]",
							"name": "",
							"type": "uint256[]"
						}
					],
					"stateMutability": "view",
					"type": "function"
				},
				{
					"inputs": [],
					"name": "getArray",
					"outputs": [
						{
							"internalType": "uint256[]",
							"name": "",
							"type": "uint256[]"
						}
					],
					"stateMutability": "view",
					"type": "function"
				},
				{
					"inputs": [
						{
							"internalType": "string",
							"name": "_name",
							"type": "string"
						}
					],
					"name": "getBirth",
					"outputs": [
						{
							"internalType": "string",
							"name": "",
							"type": "string"
						}
					],
					"stateMutability": "view",
					"type": "function"
				},
				{
					"inputs": [
						{
							"internalType": "string",
							"name": "_name",
							"type": "string"
						}
					],
					"name": "getBob",
					"outputs": [
						{
							"internalType": "bool",
							"name": "",
							"type": "bool"
						}
					],
					"stateMutability": "pure",
					"type": "function"
				},
				{
					"inputs": [],
					"name": "getC",
					"outputs": [
						{
							"internalType": "uint256[]",
							"name": "",
							"type": "uint256[]"
						}
					],
					"stateMutability": "view",
					"type": "function"
				},
				{
					"inputs": [],
					"name": "getOdd",
					"outputs": [
						{
							"internalType": "uint256[]",
							"name": "",
							"type": "uint256[]"
						}
					],
					"stateMutability": "view",
					"type": "function"
				},
				{
					"inputs": [],
					"name": "getStudents",
					"outputs": [
						{
							"components": [
								{
									"internalType": "uint256",
									"name": "number",
									"type": "uint256"
								},
								{
									"internalType": "string",
									"name": "name",
									"type": "string"
								},
								{
									"internalType": "string[]",
									"name": "classes",
									"type": "string[]"
								}
							],
							"internalType": "struct ps.student[]",
							"name": "",
							"type": "tuple[]"
						}
					],
					"stateMutability": "view",
					"type": "function"
				},
				{
					"inputs": [
						{
							"internalType": "uint256",
							"name": "_a",
							"type": "uint256"
						}
					],
					"name": "pusharray",
					"outputs": [],
					"stateMutability": "nonpayable",
					"type": "function"
				},
				{
					"inputs": [
						{
							"internalType": "string",
							"name": "_name",
							"type": "string"
						},
						{
							"internalType": "string",
							"name": "_birth",
							"type": "string"
						}
					],
					"name": "setBirth",
					"outputs": [],
					"stateMutability": "nonpayable",
					"type": "function"
				},
				{
					"inputs": [
						{
							"internalType": "uint256",
							"name": "_a",
							"type": "uint256"
						}
					],
					"name": "setC",
					"outputs": [],
					"stateMutability": "nonpayable",
					"type": "function"
				},
				{
					"inputs": [
						{
							"internalType": "string",
							"name": "_name",
							"type": "string"
						},
						{
							"internalType": "string[]",
							"name": "_classes",
							"type": "string[]"
						}
					],
					"name": "setStudents",
					"outputs": [],
					"stateMutability": "nonpayable",
					"type": "function"
				},
				{
					"inputs": [
						{
							"internalType": "uint256",
							"name": "_a",
							"type": "uint256"
						},
						{
							"internalType": "uint256",
							"name": "_b",
							"type": "uint256"
						},
						{
							"internalType": "uint256",
							"name": "_c",
							"type": "uint256"
						}
					],
					"name": "sum",
					"outputs": [
						{
							"internalType": "uint256",
							"name": "",
							"type": "uint256"
						}
					],
					"stateMutability": "pure",
					"type": "function"
				},
				{
					"inputs": [],
					"name": "triple",
					"outputs": [],
					"stateMutability": "nonpayable",
					"type": "function"
				}
			],
			"devdoc": {
				"kind": "dev",
				"methods": {},
				"version": 1
			},
			"evm": {
				"assembly": "    /* \"contracts/Practice/2.sol\":67:4747  contract ps{... */\n  mstore(0x40, 0x80)\n  callvalue\n  dup1\n  iszero\n  tag_1\n  jumpi\n  0x00\n  dup1\n  revert\ntag_1:\n  pop\n  dataSize(sub_0)\n  dup1\n  dataOffset(sub_0)\n  0x00\n  codecopy\n  0x00\n  return\nstop\n\nsub_0: assembly {\n        /* \"contracts/Practice/2.sol\":67:4747  contract ps{... */\n      mstore(0x40, 0x80)\n      callvalue\n      dup1\n      iszero\n      tag_1\n      jumpi\n      0x00\n      dup1\n      revert\n    tag_1:\n      pop\n      jumpi(tag_2, lt(calldatasize, 0x04))\n      shr(0xe0, calldataload(0x00))\n      dup1\n      0xa2375d1e\n      gt\n      tag_23\n      jumpi\n      dup1\n      0xdf380dd3\n      gt\n      tag_24\n      jumpi\n      dup1\n      0xdf380dd3\n      eq\n      tag_18\n      jumpi\n      dup1\n      0xeeb4914e\n      eq\n      tag_19\n      jumpi\n      dup1\n      0xeee97206\n      eq\n      tag_20\n      jumpi\n      dup1\n      0xf1d064b3\n      eq\n      tag_21\n      jumpi\n      dup1\n      0xfbd78ac1\n      eq\n      tag_22\n      jumpi\n      jump(tag_2)\n    tag_24:\n      dup1\n      0xa2375d1e\n      eq\n      tag_13\n      jumpi\n      dup1\n      0xb47b3463\n      eq\n      tag_14\n      jumpi\n      dup1\n      0xcc75c4b1\n      eq\n      tag_15\n      jumpi\n      dup1\n      0xd504ea1d\n      eq\n      tag_16\n      jumpi\n      dup1\n      0xde9b7a3d\n      eq\n      tag_17\n      jumpi\n      jump(tag_2)\n    tag_23:\n      dup1\n      0x56f030bb\n      gt\n      tag_25\n      jumpi\n      dup1\n      0x56f030bb\n      eq\n      tag_8\n      jumpi\n      dup1\n      0x66a2eec4\n      eq\n      tag_9\n      jumpi\n      dup1\n      0x922e883a\n      eq\n      tag_10\n      jumpi\n      dup1\n      0x929fe481\n      eq\n      tag_11\n      jumpi\n      dup1\n      0x9450268b\n      eq\n      tag_12\n      jumpi\n      jump(tag_2)\n    tag_25:\n      dup1\n      0x0d756616\n      eq\n      tag_3\n      jumpi\n      dup1\n      0x159c10ee\n      eq\n      tag_4\n      jumpi\n      dup1\n      0x3448b2e1\n      eq\n      tag_5\n      jumpi\n      dup1\n      0x4cc27654\n      eq\n      tag_6\n      jumpi\n      dup1\n      0x54204ad4\n      eq\n      tag_7\n      jumpi\n    tag_2:\n      0x00\n      dup1\n      revert\n        /* \"contracts/Practice/2.sol\":2700:2764  function pusharray(uint _a) public {... */\n    tag_3:\n      tag_26\n      0x04\n      dup1\n      calldatasize\n      sub\n      dup2\n      add\n      swap1\n      tag_27\n      swap2\n      swap1\n      tag_28\n      jump\t// in\n    tag_27:\n      tag_29\n      jump\t// in\n    tag_26:\n      stop\n        /* \"contracts/Practice/2.sol\":372:464  function getOdd() public view returns(uint [] memory)    {... */\n    tag_4:\n      tag_30\n      tag_31\n      jump\t// in\n    tag_30:\n      mload(0x40)\n      tag_32\n      swap2\n      swap1\n      tag_33\n      jump\t// in\n    tag_32:\n      mload(0x40)\n      dup1\n      swap2\n      sub\n      swap1\n      return\n        /* \"contracts/Practice/2.sol\":3830:3945  function getBirth(string memory _name) public view returns(string memory) {... */\n    tag_5:\n      tag_34\n      0x04\n      dup1\n      calldatasize\n      sub\n      dup2\n      add\n      swap1\n      tag_35\n      swap2\n      swap1\n      tag_36\n      jump\t// in\n    tag_35:\n      tag_37\n      jump\t// in\n    tag_34:\n      mload(0x40)\n      tag_38\n      swap2\n      swap1\n      tag_39\n      jump\t// in\n    tag_38:\n      mload(0x40)\n      dup1\n      swap2\n      sub\n      swap1\n      return\n        /* \"contracts/Practice/2.sol\":2408:2471  function getAP() public view returns( uint[] memory){return A;} */\n    tag_6:\n      tag_40\n      tag_41\n      jump\t// in\n    tag_40:\n      mload(0x40)\n      tag_42\n      swap2\n      swap1\n      tag_33\n      jump\t// in\n    tag_42:\n      mload(0x40)\n      dup1\n      swap2\n      sub\n      swap1\n      return\n        /* \"contracts/Practice/2.sol\":4709:4744  function triple() public {... */\n    tag_7:\n      tag_43\n      tag_44\n      jump\t// in\n    tag_43:\n      stop\n        /* \"contracts/Practice/2.sol\":1867:2040  function setStudents(string memory _name, string[] memory _classes) public {... */\n    tag_8:\n      tag_45\n      0x04\n      dup1\n      calldatasize\n      sub\n      dup2\n      add\n      swap1\n      tag_46\n      swap2\n      swap1\n      tag_47\n      jump\t// in\n    tag_46:\n      tag_48\n      jump\t// in\n    tag_45:\n      stop\n        /* \"contracts/Practice/2.sol\":872:977  function com(uint _a, uint _b, uint _c) public pure returns(uint ){... */\n    tag_9:\n      tag_49\n      0x04\n      dup1\n      calldatasize\n      sub\n      dup2\n      add\n      swap1\n      tag_50\n      swap2\n      swap1\n      tag_51\n      jump\t// in\n    tag_50:\n      tag_52\n      jump\t// in\n    tag_49:\n      mload(0x40)\n      tag_53\n      swap2\n      swap1\n      tag_54\n      jump\t// in\n    tag_53:\n      mload(0x40)\n      dup1\n      swap2\n      sub\n      swap1\n      return\n        /* \"contracts/Practice/2.sol\":239:362  function Odd (uint _a) public {... */\n    tag_10:\n      tag_55\n      0x04\n      dup1\n      calldatasize\n      sub\n      dup2\n      add\n      swap1\n      tag_56\n      swap2\n      swap1\n      tag_28\n      jump\t// in\n    tag_56:\n      tag_57\n      jump\t// in\n    tag_55:\n      stop\n        /* \"contracts/Practice/2.sol\":3237:3464  function getBob(string memory _name) public pure returns(bool) {... */\n    tag_11:\n      tag_58\n      0x04\n      dup1\n      calldatasize\n      sub\n      dup2\n      add\n      swap1\n      tag_59\n      swap2\n      swap1\n      tag_36\n      jump\t// in\n    tag_59:\n      tag_60\n      jump\t// in\n    tag_58:\n      mload(0x40)\n      tag_61\n      swap2\n      swap1\n      tag_62\n      jump\t// in\n    tag_61:\n      mload(0x40)\n      dup1\n      swap2\n      sub\n      swap1\n      return\n        /* \"contracts/Practice/2.sol\":648:754  function sum(uint _a, uint _b, uint _c) public pure returns(uint ){... */\n    tag_12:\n      tag_63\n      0x04\n      dup1\n      calldatasize\n      sub\n      dup2\n      add\n      swap1\n      tag_64\n      swap2\n      swap1\n      tag_51\n      jump\t// in\n    tag_64:\n      tag_65\n      jump\t// in\n    tag_63:\n      mload(0x40)\n      tag_66\n      swap2\n      swap1\n      tag_54\n      jump\t// in\n    tag_66:\n      mload(0x40)\n      dup1\n      swap2\n      sub\n      swap1\n      return\n        /* \"contracts/Practice/2.sol\":4626:4703  function getC() public view returns(uint[] memory){... */\n    tag_13:\n      tag_67\n      tag_68\n      jump\t// in\n    tag_67:\n      mload(0x40)\n      tag_69\n      swap2\n      swap1\n      tag_33\n      jump\t// in\n    tag_69:\n      mload(0x40)\n      dup1\n      swap2\n      sub\n      swap1\n      return\n        /* \"contracts/Practice/2.sol\":2290:2402  function autoPush(uint n) public {... */\n    tag_14:\n      tag_70\n      0x04\n      dup1\n      calldatasize\n      sub\n      dup2\n      add\n      swap1\n      tag_71\n      swap2\n      swap1\n      tag_28\n      jump\t// in\n    tag_71:\n      tag_72\n      jump\t// in\n    tag_70:\n      stop\n        /* \"contracts/Practice/2.sol\":1151:1384  function abc(uint _a) public pure returns(string memory){... */\n    tag_15:\n      tag_73\n      0x04\n      dup1\n      calldatasize\n      sub\n      dup2\n      add\n      swap1\n      tag_74\n      swap2\n      swap1\n      tag_28\n      jump\t// in\n    tag_74:\n      tag_75\n      jump\t// in\n    tag_73:\n      mload(0x40)\n      tag_76\n      swap2\n      swap1\n      tag_39\n      jump\t// in\n    tag_76:\n      mload(0x40)\n      dup1\n      swap2\n      sub\n      swap1\n      return\n        /* \"contracts/Practice/2.sol\":2770:2851  function getArray() public view returns(uint[] memory){... */\n    tag_16:\n      tag_77\n      tag_78\n      jump\t// in\n    tag_77:\n      mload(0x40)\n      tag_79\n      swap2\n      swap1\n      tag_33\n      jump\t// in\n    tag_79:\n      mload(0x40)\n      dup1\n      swap2\n      sub\n      swap1\n      return\n        /* \"contracts/Practice/2.sol\":2857:3033  function addarray() public view returns(uint){... */\n    tag_17:\n      tag_80\n      tag_81\n      jump\t// in\n    tag_80:\n      mload(0x40)\n      tag_82\n      swap2\n      swap1\n      tag_54\n      jump\t// in\n    tag_82:\n      mload(0x40)\n      dup1\n      swap2\n      sub\n      swap1\n      return\n        /* \"contracts/Practice/2.sol\":760:866  function Mul(uint _a, uint _b, uint _c) public pure returns(uint ){... */\n    tag_18:\n      tag_83\n      0x04\n      dup1\n      calldatasize\n      sub\n      dup2\n      add\n      swap1\n      tag_84\n      swap2\n      swap1\n      tag_51\n      jump\t// in\n    tag_84:\n      tag_85\n      jump\t// in\n    tag_83:\n      mload(0x40)\n      tag_86\n      swap2\n      swap1\n      tag_54\n      jump\t// in\n    tag_86:\n      mload(0x40)\n      dup1\n      swap2\n      sub\n      swap1\n      return\n        /* \"contracts/Practice/2.sol\":4561:4620  function setC(uint _a) public {... */\n    tag_19:\n      tag_87\n      0x04\n      dup1\n      calldatasize\n      sub\n      dup2\n      add\n      swap1\n      tag_88\n      swap2\n      swap1\n      tag_28\n      jump\t// in\n    tag_88:\n      tag_89\n      jump\t// in\n    tag_87:\n      stop\n        /* \"contracts/Practice/2.sol\":4123:4233  function double(uint _a) public pure returns(uint) {... */\n    tag_20:\n      tag_90\n      0x04\n      dup1\n      calldatasize\n      sub\n      dup2\n      add\n      swap1\n      tag_91\n      swap2\n      swap1\n      tag_28\n      jump\t// in\n    tag_91:\n      tag_92\n      jump\t// in\n    tag_90:\n      mload(0x40)\n      tag_93\n      swap2\n      swap1\n      tag_54\n      jump\t// in\n    tag_93:\n      mload(0x40)\n      dup1\n      swap2\n      sub\n      swap1\n      return\n        /* \"contracts/Practice/2.sol\":2046:2140  function getStudents() public view returns(student[] memory){... */\n    tag_21:\n      tag_94\n      tag_95\n      jump\t// in\n    tag_94:\n      mload(0x40)\n      tag_96\n      swap2\n      swap1\n      tag_97\n      jump\t// in\n    tag_96:\n      mload(0x40)\n      dup1\n      swap2\n      sub\n      swap1\n      return\n        /* \"contracts/Practice/2.sol\":3713:3824  function setBirth(string memory _name, string memory _birth) public {... */\n    tag_22:\n      tag_98\n      0x04\n      dup1\n      calldatasize\n      sub\n      dup2\n      add\n      swap1\n      tag_99\n      swap2\n      swap1\n      tag_100\n      jump\t// in\n    tag_99:\n      tag_101\n      jump\t// in\n    tag_98:\n      stop\n        /* \"contracts/Practice/2.sol\":2700:2764  function pusharray(uint _a) public {... */\n    tag_29:\n        /* \"contracts/Practice/2.sol\":2746:2747  B */\n      0x03\n        /* \"contracts/Practice/2.sol\":2753:2755  _a */\n      dup2\n        /* \"contracts/Practice/2.sol\":2746:2756  B.push(_a) */\n      swap1\n      dup1\n      0x01\n      dup2\n      sload\n      add\n      dup1\n      dup3\n      sstore\n      dup1\n      swap2\n      pop\n      pop\n      0x01\n      swap1\n      sub\n      swap1\n      0x00\n      mstore\n      keccak256(0x00, 0x20)\n      add\n      0x00\n      swap1\n      swap2\n      swap1\n      swap2\n      swap1\n      swap2\n      pop\n      sstore\n        /* \"contracts/Practice/2.sol\":2700:2764  function pusharray(uint _a) public {... */\n      pop\n      jump\t// out\n        /* \"contracts/Practice/2.sol\":372:464  function getOdd() public view returns(uint [] memory)    {... */\n    tag_31:\n        /* \"contracts/Practice/2.sol\":410:424  uint [] memory */\n      0x60\n        /* \"contracts/Practice/2.sol\":451:452  a */\n      0x00\n        /* \"contracts/Practice/2.sol\":444:452  return a */\n      dup1\n      sload\n      dup1\n      0x20\n      mul\n      0x20\n      add\n      mload(0x40)\n      swap1\n      dup2\n      add\n      0x40\n      mstore\n      dup1\n      swap3\n      swap2\n      swap1\n      dup2\n      dup2\n      mstore\n      0x20\n      add\n      dup3\n      dup1\n      sload\n      dup1\n      iszero\n      tag_105\n      jumpi\n      0x20\n      mul\n      dup3\n      add\n      swap2\n      swap1\n      0x00\n      mstore\n      keccak256(0x00, 0x20)\n      swap1\n    tag_106:\n      dup2\n      sload\n      dup2\n      mstore\n      0x20\n      add\n      swap1\n      0x01\n      add\n      swap1\n      dup1\n      dup4\n      gt\n      tag_106\n      jumpi\n    tag_105:\n      pop\n      pop\n      pop\n      pop\n      pop\n      swap1\n      pop\n        /* \"contracts/Practice/2.sol\":372:464  function getOdd() public view returns(uint [] memory)    {... */\n      swap1\n      jump\t// out\n        /* \"contracts/Practice/2.sol\":3830:3945  function getBirth(string memory _name) public view returns(string memory) {... */\n    tag_37:\n        /* \"contracts/Practice/2.sol\":3889:3902  string memory */\n      0x60\n        /* \"contracts/Practice/2.sol\":3922:3930  birthday */\n      0x04\n        /* \"contracts/Practice/2.sol\":3931:3936  _name */\n      dup3\n        /* \"contracts/Practice/2.sol\":3922:3937  birthday[_name] */\n      mload(0x40)\n      tag_108\n      swap2\n      swap1\n      tag_109\n      jump\t// in\n    tag_108:\n      swap1\n      dup2\n      mstore\n      0x20\n      add\n      mload(0x40)\n      dup1\n      swap2\n      sub\n      swap1\n      keccak256\n        /* \"contracts/Practice/2.sol\":3915:3937  return birthday[_name] */\n      dup1\n      sload\n      tag_110\n      swap1\n      tag_111\n      jump\t// in\n    tag_110:\n      dup1\n      0x1f\n      add\n      0x20\n      dup1\n      swap2\n      div\n      mul\n      0x20\n      add\n      mload(0x40)\n      swap1\n      dup2\n      add\n      0x40\n      mstore\n      dup1\n      swap3\n      swap2\n      swap1\n      dup2\n      dup2\n      mstore\n      0x20\n      add\n      dup3\n      dup1\n      sload\n      tag_112\n      swap1\n      tag_111\n      jump\t// in\n    tag_112:\n      dup1\n      iszero\n      tag_113\n      jumpi\n      dup1\n      0x1f\n      lt\n      tag_114\n      jumpi\n      0x0100\n      dup1\n      dup4\n      sload\n      div\n      mul\n      dup4\n      mstore\n      swap2\n      0x20\n      add\n      swap2\n      jump(tag_113)\n    tag_114:\n      dup3\n      add\n      swap2\n      swap1\n      0x00\n      mstore\n      keccak256(0x00, 0x20)\n      swap1\n    tag_115:\n      dup2\n      sload\n      dup2\n      mstore\n      swap1\n      0x01\n      add\n      swap1\n      0x20\n      add\n      dup1\n      dup4\n      gt\n      tag_115\n      jumpi\n      dup3\n      swap1\n      sub\n      0x1f\n      and\n      dup3\n      add\n      swap2\n    tag_113:\n      pop\n      pop\n      pop\n      pop\n      pop\n      swap1\n      pop\n        /* \"contracts/Practice/2.sol\":3830:3945  function getBirth(string memory _name) public view returns(string memory) {... */\n      swap2\n      swap1\n      pop\n      jump\t// out\n        /* \"contracts/Practice/2.sol\":2408:2471  function getAP() public view returns( uint[] memory){return A;} */\n    tag_41:\n        /* \"contracts/Practice/2.sol\":2446:2459  uint[] memory */\n      0x60\n        /* \"contracts/Practice/2.sol\":2468:2469  A */\n      0x02\n        /* \"contracts/Practice/2.sol\":2461:2469  return A */\n      dup1\n      sload\n      dup1\n      0x20\n      mul\n      0x20\n      add\n      mload(0x40)\n      swap1\n      dup2\n      add\n      0x40\n      mstore\n      dup1\n      swap3\n      swap2\n      swap1\n      dup2\n      dup2\n      mstore\n      0x20\n      add\n      dup3\n      dup1\n      sload\n      dup1\n      iszero\n      tag_117\n      jumpi\n      0x20\n      mul\n      dup3\n      add\n      swap2\n      swap1\n      0x00\n      mstore\n      keccak256(0x00, 0x20)\n      swap1\n    tag_118:\n      dup2\n      sload\n      dup2\n      mstore\n      0x20\n      add\n      swap1\n      0x01\n      add\n      swap1\n      dup1\n      dup4\n      gt\n      tag_118\n      jumpi\n    tag_117:\n      pop\n      pop\n      pop\n      pop\n      pop\n      swap1\n      pop\n        /* \"contracts/Practice/2.sol\":2408:2471  function getAP() public view returns( uint[] memory){return A;} */\n      swap1\n      jump\t// out\n        /* \"contracts/Practice/2.sol\":4709:4744  function triple() public {... */\n    tag_44:\n      jump\t// out\n        /* \"contracts/Practice/2.sol\":1867:2040  function setStudents(string memory _name, string[] memory _classes) public {... */\n    tag_48:\n        /* \"contracts/Practice/2.sol\":1974:1982  students */\n      0x01\n        /* \"contracts/Practice/2.sol\":1988:2031  student(students.length+1, _name, _classes) */\n      mload(0x40)\n      dup1\n      0x60\n      add\n      0x40\n      mstore\n      dup1\n        /* \"contracts/Practice/2.sol\":2012:2013  1 */\n      0x01\n        /* \"contracts/Practice/2.sol\":1996:2004  students */\n      dup1\n        /* \"contracts/Practice/2.sol\":1996:2011  students.length */\n      dup1\n      sload\n      swap1\n      pop\n        /* \"contracts/Practice/2.sol\":1996:2013  students.length+1 */\n      tag_121\n      swap2\n      swap1\n      tag_122\n      jump\t// in\n    tag_121:\n        /* \"contracts/Practice/2.sol\":1988:2031  student(students.length+1, _name, _classes) */\n      dup2\n      mstore\n      0x20\n      add\n        /* \"contracts/Practice/2.sol\":2015:2020  _name */\n      dup5\n        /* \"contracts/Practice/2.sol\":1988:2031  student(students.length+1, _name, _classes) */\n      dup2\n      mstore\n      0x20\n      add\n        /* \"contracts/Practice/2.sol\":2022:2030  _classes */\n      dup4\n        /* \"contracts/Practice/2.sol\":1988:2031  student(students.length+1, _name, _classes) */\n      dup2\n      mstore\n      pop\n        /* \"contracts/Practice/2.sol\":1974:2032  students.push(student(students.length+1, _name, _classes)) */\n      swap1\n      dup1\n      0x01\n      dup2\n      sload\n      add\n      dup1\n      dup3\n      sstore\n      dup1\n      swap2\n      pop\n      pop\n      0x01\n      swap1\n      sub\n      swap1\n      0x00\n      mstore\n      keccak256(0x00, 0x20)\n      swap1\n      0x03\n      mul\n      add\n      0x00\n      swap1\n      swap2\n      swap1\n      swap2\n      swap1\n      swap2\n      pop\n      0x00\n      dup3\n      add\n      mload\n      dup2\n      0x00\n      add\n      sstore\n      0x20\n      dup3\n      add\n      mload\n      dup2\n      0x01\n      add\n      swap1\n      dup2\n      tag_124\n      swap2\n      swap1\n      tag_125\n      jump\t// in\n    tag_124:\n      pop\n      0x40\n      dup3\n      add\n      mload\n      dup2\n      0x02\n      add\n      swap1\n      dup1\n      mload\n      swap1\n      0x20\n      add\n      swap1\n      tag_126\n      swap3\n      swap2\n      swap1\n      tag_127\n      jump\t// in\n    tag_126:\n      pop\n      pop\n      pop\n        /* \"contracts/Practice/2.sol\":1867:2040  function setStudents(string memory _name, string[] memory _classes) public {... */\n      pop\n      pop\n      jump\t// out\n        /* \"contracts/Practice/2.sol\":872:977  function com(uint _a, uint _b, uint _c) public pure returns(uint ){... */\n    tag_52:\n        /* \"contracts/Practice/2.sol\":932:936  uint */\n      0x00\n        /* \"contracts/Practice/2.sol\":966:968  _c */\n      dup2\n        /* \"contracts/Practice/2.sol\":961:963  _b */\n      dup4\n        /* \"contracts/Practice/2.sol\":957:959  _a */\n      dup6\n        /* \"contracts/Practice/2.sol\":957:963  _a *_b */\n      tag_129\n      swap2\n      swap1\n      tag_130\n      jump\t// in\n    tag_129:\n        /* \"contracts/Practice/2.sol\":957:968  _a *_b + _c */\n      tag_131\n      swap2\n      swap1\n      tag_122\n      jump\t// in\n    tag_131:\n        /* \"contracts/Practice/2.sol\":949:969  return (_a *_b + _c) */\n      swap1\n      pop\n        /* \"contracts/Practice/2.sol\":872:977  function com(uint _a, uint _b, uint _c) public pure returns(uint ){... */\n      swap4\n      swap3\n      pop\n      pop\n      pop\n      jump\t// out\n        /* \"contracts/Practice/2.sol\":239:362  function Odd (uint _a) public {... */\n    tag_57:\n        /* \"contracts/Practice/2.sol\":299:300  0 */\n      0x00\n        /* \"contracts/Practice/2.sol\":295:296  2 */\n      0x02\n        /* \"contracts/Practice/2.sol\":292:294  _a */\n      dup3\n        /* \"contracts/Practice/2.sol\":292:296  _a%2 */\n      tag_133\n      swap2\n      swap1\n      tag_134\n      jump\t// in\n    tag_133:\n        /* \"contracts/Practice/2.sol\":292:300  _a%2 ==0 */\n      eq\n        /* \"contracts/Practice/2.sol\":284:301  require(_a%2 ==0) */\n      tag_135\n      jumpi\n      0x00\n      dup1\n      revert\n    tag_135:\n        /* \"contracts/Practice/2.sol\":331:332  a */\n      0x00\n        /* \"contracts/Practice/2.sol\":338:340  _a */\n      dup2\n        /* \"contracts/Practice/2.sol\":331:341  a.push(_a) */\n      swap1\n      dup1\n      0x01\n      dup2\n      sload\n      add\n      dup1\n      dup3\n      sstore\n      dup1\n      swap2\n      pop\n      pop\n      0x01\n      swap1\n      sub\n      swap1\n      0x00\n      mstore\n      keccak256(0x00, 0x20)\n      add\n      0x00\n      swap1\n      swap2\n      swap1\n      swap2\n      swap1\n      swap2\n      pop\n      sstore\n        /* \"contracts/Practice/2.sol\":239:362  function Odd (uint _a) public {... */\n      pop\n      jump\t// out\n        /* \"contracts/Practice/2.sol\":3237:3464  function getBob(string memory _name) public pure returns(bool) {... */\n    tag_60:\n        /* \"contracts/Practice/2.sol\":3294:3298  bool */\n      0x00\n        /* \"contracts/Practice/2.sol\":3350:3373  abi.encodePacked(\"Bob\") */\n      add(0x20, mload(0x40))\n      tag_138\n      swap1\n      tag_139\n      jump\t// in\n    tag_138:\n      mload(0x40)\n      0x20\n      dup2\n      dup4\n      sub\n      sub\n      dup2\n      mstore\n      swap1\n      0x40\n      mstore\n        /* \"contracts/Practice/2.sol\":3340:3374  keccak256(abi.encodePacked(\"Bob\")) */\n      dup1\n      mload\n      swap1\n      0x20\n      add\n      keccak256\n        /* \"contracts/Practice/2.sol\":3330:3335  _name */\n      dup3\n        /* \"contracts/Practice/2.sol\":3314:3337  keccak256(bytes(_name)) */\n      dup1\n      mload\n      swap1\n      0x20\n      add\n      keccak256\n        /* \"contracts/Practice/2.sol\":3314:3374  keccak256(bytes(_name))== keccak256(abi.encodePacked(\"Bob\")) */\n      sub\n        /* \"contracts/Practice/2.sol\":3311:3457  if(keccak256(bytes(_name))== keccak256(abi.encodePacked(\"Bob\"))){... */\n      tag_140\n      jumpi\n        /* \"contracts/Practice/2.sol\":3397:3401  true */\n      0x01\n        /* \"contracts/Practice/2.sol\":3390:3401  return true */\n      swap1\n      pop\n      jump(tag_137)\n        /* \"contracts/Practice/2.sol\":3311:3457  if(keccak256(bytes(_name))== keccak256(abi.encodePacked(\"Bob\"))){... */\n    tag_140:\n        /* \"contracts/Practice/2.sol\":3440:3445  false */\n      0x00\n        /* \"contracts/Practice/2.sol\":3433:3445  return false */\n      swap1\n      pop\n        /* \"contracts/Practice/2.sol\":3237:3464  function getBob(string memory _name) public pure returns(bool) {... */\n    tag_137:\n      swap2\n      swap1\n      pop\n      jump\t// out\n        /* \"contracts/Practice/2.sol\":648:754  function sum(uint _a, uint _b, uint _c) public pure returns(uint ){... */\n    tag_65:\n        /* \"contracts/Practice/2.sol\":708:712  uint */\n      0x00\n        /* \"contracts/Practice/2.sol\":743:745  _c */\n      dup2\n        /* \"contracts/Practice/2.sol\":738:740  _b */\n      dup4\n        /* \"contracts/Practice/2.sol\":733:735  _a */\n      dup6\n        /* \"contracts/Practice/2.sol\":733:740  _a + _b */\n      tag_143\n      swap2\n      swap1\n      tag_122\n      jump\t// in\n    tag_143:\n        /* \"contracts/Practice/2.sol\":733:745  _a + _b + _c */\n      tag_144\n      swap2\n      swap1\n      tag_122\n      jump\t// in\n    tag_144:\n        /* \"contracts/Practice/2.sol\":725:746  return (_a + _b + _c) */\n      swap1\n      pop\n        /* \"contracts/Practice/2.sol\":648:754  function sum(uint _a, uint _b, uint _c) public pure returns(uint ){... */\n      swap4\n      swap3\n      pop\n      pop\n      pop\n      jump\t// out\n        /* \"contracts/Practice/2.sol\":4626:4703  function getC() public view returns(uint[] memory){... */\n    tag_68:\n        /* \"contracts/Practice/2.sol\":4662:4675  uint[] memory */\n      0x60\n        /* \"contracts/Practice/2.sol\":4694:4695  C */\n      0x05\n        /* \"contracts/Practice/2.sol\":4687:4695  return C */\n      dup1\n      sload\n      dup1\n      0x20\n      mul\n      0x20\n      add\n      mload(0x40)\n      swap1\n      dup2\n      add\n      0x40\n      mstore\n      dup1\n      swap3\n      swap2\n      swap1\n      dup2\n      dup2\n      mstore\n      0x20\n      add\n      dup3\n      dup1\n      sload\n      dup1\n      iszero\n      tag_146\n      jumpi\n      0x20\n      mul\n      dup3\n      add\n      swap2\n      swap1\n      0x00\n      mstore\n      keccak256(0x00, 0x20)\n      swap1\n    tag_147:\n      dup2\n      sload\n      dup2\n      mstore\n      0x20\n      add\n      swap1\n      0x01\n      add\n      swap1\n      dup1\n      dup4\n      gt\n      tag_147\n      jumpi\n    tag_146:\n      pop\n      pop\n      pop\n      pop\n      pop\n      swap1\n      pop\n        /* \"contracts/Practice/2.sol\":4626:4703  function getC() public view returns(uint[] memory){... */\n      swap1\n      jump\t// out\n        /* \"contracts/Practice/2.sol\":2290:2402  function autoPush(uint n) public {... */\n    tag_72:\n        /* \"contracts/Practice/2.sol\":2338:2344  uint i */\n      0x00\n        /* \"contracts/Practice/2.sol\":2334:2395  for(uint i=0; i<n+1; i++){... */\n    tag_149:\n        /* \"contracts/Practice/2.sol\":2352:2353  1 */\n      0x01\n        /* \"contracts/Practice/2.sol\":2350:2351  n */\n      dup3\n        /* \"contracts/Practice/2.sol\":2350:2353  n+1 */\n      tag_152\n      swap2\n      swap1\n      tag_122\n      jump\t// in\n    tag_152:\n        /* \"contracts/Practice/2.sol\":2348:2349  i */\n      dup2\n        /* \"contracts/Practice/2.sol\":2348:2353  i<n+1 */\n      lt\n        /* \"contracts/Practice/2.sol\":2334:2395  for(uint i=0; i<n+1; i++){... */\n      iszero\n      tag_150\n      jumpi\n        /* \"contracts/Practice/2.sol\":2374:2375  A */\n      0x02\n        /* \"contracts/Practice/2.sol\":2381:2382  i */\n      dup2\n        /* \"contracts/Practice/2.sol\":2374:2383  A.push(i) */\n      swap1\n      dup1\n      0x01\n      dup2\n      sload\n      add\n      dup1\n      dup3\n      sstore\n      dup1\n      swap2\n      pop\n      pop\n      0x01\n      swap1\n      sub\n      swap1\n      0x00\n      mstore\n      keccak256(0x00, 0x20)\n      add\n      0x00\n      swap1\n      swap2\n      swap1\n      swap2\n      swap1\n      swap2\n      pop\n      sstore\n        /* \"contracts/Practice/2.sol\":2355:2358  i++ */\n      dup1\n      dup1\n      tag_154\n      swap1\n      tag_155\n      jump\t// in\n    tag_154:\n      swap2\n      pop\n      pop\n        /* \"contracts/Practice/2.sol\":2334:2395  for(uint i=0; i<n+1; i++){... */\n      jump(tag_149)\n    tag_150:\n      pop\n        /* \"contracts/Practice/2.sol\":2290:2402  function autoPush(uint n) public {... */\n      pop\n      jump\t// out\n        /* \"contracts/Practice/2.sol\":1151:1384  function abc(uint _a) public pure returns(string memory){... */\n    tag_75:\n        /* \"contracts/Practice/2.sol\":1193:1206  string memory */\n      0x60\n        /* \"contracts/Practice/2.sol\":1229:1230  0 */\n      0x00\n        /* \"contracts/Practice/2.sol\":1224:1225  3 */\n      0x03\n        /* \"contracts/Practice/2.sol\":1221:1223  _a */\n      dup4\n        /* \"contracts/Practice/2.sol\":1221:1225  _a%3 */\n      tag_157\n      swap2\n      swap1\n      tag_134\n      jump\t// in\n    tag_157:\n        /* \"contracts/Practice/2.sol\":1221:1230  _a%3 == 0 */\n      sub\n        /* \"contracts/Practice/2.sol\":1218:1377  if(_a%3 == 0){... */\n      tag_158\n      jumpi\n        /* \"contracts/Practice/2.sol\":1246:1256  return \"A\" */\n      mload(0x40)\n      dup1\n      0x40\n      add\n      0x40\n      mstore\n      dup1\n      0x01\n      dup2\n      mstore\n      0x20\n      add\n      0x4100000000000000000000000000000000000000000000000000000000000000\n      dup2\n      mstore\n      pop\n      swap1\n      pop\n      jump(tag_156)\n        /* \"contracts/Practice/2.sol\":1218:1377  if(_a%3 == 0){... */\n    tag_158:\n        /* \"contracts/Practice/2.sol\":1296:1297  1 */\n      0x01\n        /* \"contracts/Practice/2.sol\":1292:1293  3 */\n      0x03\n        /* \"contracts/Practice/2.sol\":1289:1291  _a */\n      dup4\n        /* \"contracts/Practice/2.sol\":1289:1293  _a%3 */\n      tag_160\n      swap2\n      swap1\n      tag_134\n      jump\t// in\n    tag_160:\n        /* \"contracts/Practice/2.sol\":1289:1297  _a%3 ==1 */\n      sub\n        /* \"contracts/Practice/2.sol\":1286:1377  if(_a%3 ==1){... */\n      tag_161\n      jumpi\n        /* \"contracts/Practice/2.sol\":1313:1323  return \"B\" */\n      mload(0x40)\n      dup1\n      0x40\n      add\n      0x40\n      mstore\n      dup1\n      0x01\n      dup2\n      mstore\n      0x20\n      add\n      0x4200000000000000000000000000000000000000000000000000000000000000\n      dup2\n      mstore\n      pop\n      swap1\n      pop\n      jump(tag_156)\n        /* \"contracts/Practice/2.sol\":1286:1377  if(_a%3 ==1){... */\n    tag_161:\n        /* \"contracts/Practice/2.sol\":1355:1365  return \"C\" */\n      mload(0x40)\n      dup1\n      0x40\n      add\n      0x40\n      mstore\n      dup1\n      0x01\n      dup2\n      mstore\n      0x20\n      add\n      0x4300000000000000000000000000000000000000000000000000000000000000\n      dup2\n      mstore\n      pop\n      swap1\n      pop\n        /* \"contracts/Practice/2.sol\":1151:1384  function abc(uint _a) public pure returns(string memory){... */\n    tag_156:\n      swap2\n      swap1\n      pop\n      jump\t// out\n        /* \"contracts/Practice/2.sol\":2770:2851  function getArray() public view returns(uint[] memory){... */\n    tag_78:\n        /* \"contracts/Practice/2.sol\":2810:2823  uint[] memory */\n      0x60\n        /* \"contracts/Practice/2.sol\":2842:2843  B */\n      0x03\n        /* \"contracts/Practice/2.sol\":2835:2843  return B */\n      dup1\n      sload\n      dup1\n      0x20\n      mul\n      0x20\n      add\n      mload(0x40)\n      swap1\n      dup2\n      add\n      0x40\n      mstore\n      dup1\n      swap3\n      swap2\n      swap1\n      dup2\n      dup2\n      mstore\n      0x20\n      add\n      dup3\n      dup1\n      sload\n      dup1\n      iszero\n      tag_164\n      jumpi\n      0x20\n      mul\n      dup3\n      add\n      swap2\n      swap1\n      0x00\n      mstore\n      keccak256(0x00, 0x20)\n      swap1\n    tag_165:\n      dup2\n      sload\n      dup2\n      mstore\n      0x20\n      add\n      swap1\n      0x01\n      add\n      swap1\n      dup1\n      dup4\n      gt\n      tag_165\n      jumpi\n    tag_164:\n      pop\n      pop\n      pop\n      pop\n      pop\n      swap1\n      pop\n        /* \"contracts/Practice/2.sol\":2770:2851  function getArray() public view returns(uint[] memory){... */\n      swap1\n      jump\t// out\n        /* \"contracts/Practice/2.sol\":2857:3033  function addarray() public view returns(uint){... */\n    tag_81:\n        /* \"contracts/Practice/2.sol\":2897:2901  uint */\n      0x00\n        /* \"contracts/Practice/2.sol\":2913:2919  uint b */\n      dup1\n        /* \"contracts/Practice/2.sol\":2934:2940  uint i */\n      0x00\n        /* \"contracts/Practice/2.sol\":2930:3007  for(uint i=0; i<B.length; i++)... */\n    tag_167:\n        /* \"contracts/Practice/2.sol\":2946:2947  B */\n      0x03\n        /* \"contracts/Practice/2.sol\":2946:2954  B.length */\n      dup1\n      sload\n      swap1\n      pop\n        /* \"contracts/Practice/2.sol\":2944:2945  i */\n      dup2\n        /* \"contracts/Practice/2.sol\":2944:2954  i<B.length */\n      lt\n        /* \"contracts/Practice/2.sol\":2930:3007  for(uint i=0; i<B.length; i++)... */\n      iszero\n      tag_168\n      jumpi\n        /* \"contracts/Practice/2.sol\":2991:2992  B */\n      0x03\n        /* \"contracts/Practice/2.sol\":2993:2994  i */\n      dup2\n        /* \"contracts/Practice/2.sol\":2991:2995  B[i] */\n      dup2\n      sload\n      dup2\n      lt\n      tag_170\n      jumpi\n      tag_171\n      tag_172\n      jump\t// in\n    tag_171:\n    tag_170:\n      swap1\n      0x00\n      mstore\n      keccak256(0x00, 0x20)\n      add\n      sload\n        /* \"contracts/Practice/2.sol\":2989:2990  b */\n      dup3\n        /* \"contracts/Practice/2.sol\":2989:2995  b+B[i] */\n      tag_174\n      swap2\n      swap1\n      tag_122\n      jump\t// in\n    tag_174:\n        /* \"contracts/Practice/2.sol\":2985:2995  b = b+B[i] */\n      swap2\n      pop\n        /* \"contracts/Practice/2.sol\":2956:2959  i++ */\n      dup1\n      dup1\n      tag_175\n      swap1\n      tag_155\n      jump\t// in\n    tag_175:\n      swap2\n      pop\n      pop\n        /* \"contracts/Practice/2.sol\":2930:3007  for(uint i=0; i<B.length; i++)... */\n      jump(tag_167)\n    tag_168:\n      pop\n        /* \"contracts/Practice/2.sol\":3024:3025  b */\n      dup1\n        /* \"contracts/Practice/2.sol\":3017:3025  return b */\n      swap2\n      pop\n      pop\n        /* \"contracts/Practice/2.sol\":2857:3033  function addarray() public view returns(uint){... */\n      swap1\n      jump\t// out\n        /* \"contracts/Practice/2.sol\":760:866  function Mul(uint _a, uint _b, uint _c) public pure returns(uint ){... */\n    tag_85:\n        /* \"contracts/Practice/2.sol\":820:824  uint */\n      0x00\n        /* \"contracts/Practice/2.sol\":855:857  _c */\n      dup2\n        /* \"contracts/Practice/2.sol\":850:852  _b */\n      dup4\n        /* \"contracts/Practice/2.sol\":845:847  _a */\n      dup6\n        /* \"contracts/Practice/2.sol\":845:852  _a * _b */\n      tag_177\n      swap2\n      swap1\n      tag_130\n      jump\t// in\n    tag_177:\n        /* \"contracts/Practice/2.sol\":845:857  _a * _b * _c */\n      tag_178\n      swap2\n      swap1\n      tag_130\n      jump\t// in\n    tag_178:\n        /* \"contracts/Practice/2.sol\":837:858  return (_a * _b * _c) */\n      swap1\n      pop\n        /* \"contracts/Practice/2.sol\":760:866  function Mul(uint _a, uint _b, uint _c) public pure returns(uint ){... */\n      swap4\n      swap3\n      pop\n      pop\n      pop\n      jump\t// out\n        /* \"contracts/Practice/2.sol\":4561:4620  function setC(uint _a) public {... */\n    tag_89:\n        /* \"contracts/Practice/2.sol\":4602:4603  C */\n      0x05\n        /* \"contracts/Practice/2.sol\":4609:4611  _a */\n      dup2\n        /* \"contracts/Practice/2.sol\":4602:4612  C.push(_a) */\n      swap1\n      dup1\n      0x01\n      dup2\n      sload\n      add\n      dup1\n      dup3\n      sstore\n      dup1\n      swap2\n      pop\n      pop\n      0x01\n      swap1\n      sub\n      swap1\n      0x00\n      mstore\n      keccak256(0x00, 0x20)\n      add\n      0x00\n      swap1\n      swap2\n      swap1\n      swap2\n      swap1\n      swap2\n      pop\n      sstore\n        /* \"contracts/Practice/2.sol\":4561:4620  function setC(uint _a) public {... */\n      pop\n      jump\t// out\n        /* \"contracts/Practice/2.sol\":4123:4233  function double(uint _a) public pure returns(uint) {... */\n    tag_92:\n        /* \"contracts/Practice/2.sol\":4168:4172  uint */\n      0x00\n        /* \"contracts/Practice/2.sol\":4196:4201  10000 */\n      0x2710\n        /* \"contracts/Practice/2.sol\":4193:4195  _a */\n      dup3\n        /* \"contracts/Practice/2.sol\":4193:4201  _a<10000 */\n      lt\n        /* \"contracts/Practice/2.sol\":4185:4202  require(_a<10000) */\n      tag_182\n      jumpi\n      0x00\n      dup1\n      revert\n    tag_182:\n        /* \"contracts/Practice/2.sol\":4224:4225  2 */\n      0x02\n        /* \"contracts/Practice/2.sol\":4220:4222  _a */\n      dup3\n        /* \"contracts/Practice/2.sol\":4220:4225  _a *2 */\n      tag_183\n      swap2\n      swap1\n      tag_130\n      jump\t// in\n    tag_183:\n        /* \"contracts/Practice/2.sol\":4213:4225  return _a *2 */\n      swap1\n      pop\n        /* \"contracts/Practice/2.sol\":4123:4233  function double(uint _a) public pure returns(uint) {... */\n      swap2\n      swap1\n      pop\n      jump\t// out\n        /* \"contracts/Practice/2.sol\":2046:2140  function getStudents() public view returns(student[] memory){... */\n    tag_95:\n        /* \"contracts/Practice/2.sol\":2089:2105  student[] memory */\n      0x60\n        /* \"contracts/Practice/2.sol\":2124:2132  students */\n      0x01\n        /* \"contracts/Practice/2.sol\":2117:2132  return students */\n      dup1\n      sload\n      dup1\n      0x20\n      mul\n      0x20\n      add\n      mload(0x40)\n      swap1\n      dup2\n      add\n      0x40\n      mstore\n      dup1\n      swap3\n      swap2\n      swap1\n      dup2\n      dup2\n      mstore\n      0x20\n      add\n      0x00\n      swap1\n    tag_185:\n      dup3\n      dup3\n      lt\n      iszero\n      tag_186\n      jumpi\n      dup4\n      dup3\n      swap1\n      0x00\n      mstore\n      keccak256(0x00, 0x20)\n      swap1\n      0x03\n      mul\n      add\n      mload(0x40)\n      dup1\n      0x60\n      add\n      0x40\n      mstore\n      swap1\n      dup2\n      0x00\n      dup3\n      add\n      sload\n      dup2\n      mstore\n      0x20\n      add\n      0x01\n      dup3\n      add\n      dup1\n      sload\n      tag_188\n      swap1\n      tag_111\n      jump\t// in\n    tag_188:\n      dup1\n      0x1f\n      add\n      0x20\n      dup1\n      swap2\n      div\n      mul\n      0x20\n      add\n      mload(0x40)\n      swap1\n      dup2\n      add\n      0x40\n      mstore\n      dup1\n      swap3\n      swap2\n      swap1\n      dup2\n      dup2\n      mstore\n      0x20\n      add\n      dup3\n      dup1\n      sload\n      tag_189\n      swap1\n      tag_111\n      jump\t// in\n    tag_189:\n      dup1\n      iszero\n      tag_190\n      jumpi\n      dup1\n      0x1f\n      lt\n      tag_191\n      jumpi\n      0x0100\n      dup1\n      dup4\n      sload\n      div\n      mul\n      dup4\n      mstore\n      swap2\n      0x20\n      add\n      swap2\n      jump(tag_190)\n    tag_191:\n      dup3\n      add\n      swap2\n      swap1\n      0x00\n      mstore\n      keccak256(0x00, 0x20)\n      swap1\n    tag_192:\n      dup2\n      sload\n      dup2\n      mstore\n      swap1\n      0x01\n      add\n      swap1\n      0x20\n      add\n      dup1\n      dup4\n      gt\n      tag_192\n      jumpi\n      dup3\n      swap1\n      sub\n      0x1f\n      and\n      dup3\n      add\n      swap2\n    tag_190:\n      pop\n      pop\n      pop\n      pop\n      pop\n      dup2\n      mstore\n      0x20\n      add\n      0x02\n      dup3\n      add\n      dup1\n      sload\n      dup1\n      0x20\n      mul\n      0x20\n      add\n      mload(0x40)\n      swap1\n      dup2\n      add\n      0x40\n      mstore\n      dup1\n      swap3\n      swap2\n      swap1\n      dup2\n      dup2\n      mstore\n      0x20\n      add\n      0x00\n      swap1\n    tag_193:\n      dup3\n      dup3\n      lt\n      iszero\n      tag_194\n      jumpi\n      dup4\n      dup3\n      swap1\n      0x00\n      mstore\n      keccak256(0x00, 0x20)\n      add\n      dup1\n      sload\n      tag_196\n      swap1\n      tag_111\n      jump\t// in\n    tag_196:\n      dup1\n      0x1f\n      add\n      0x20\n      dup1\n      swap2\n      div\n      mul\n      0x20\n      add\n      mload(0x40)\n      swap1\n      dup2\n      add\n      0x40\n      mstore\n      dup1\n      swap3\n      swap2\n      swap1\n      dup2\n      dup2\n      mstore\n      0x20\n      add\n      dup3\n      dup1\n      sload\n      tag_197\n      swap1\n      tag_111\n      jump\t// in\n    tag_197:\n      dup1\n      iszero\n      tag_198\n      jumpi\n      dup1\n      0x1f\n      lt\n      tag_199\n      jumpi\n      0x0100\n      dup1\n      dup4\n      sload\n      div\n      mul\n      dup4\n      mstore\n      swap2\n      0x20\n      add\n      swap2\n      jump(tag_198)\n    tag_199:\n      dup3\n      add\n      swap2\n      swap1\n      0x00\n      mstore\n      keccak256(0x00, 0x20)\n      swap1\n    tag_200:\n      dup2\n      sload\n      dup2\n      mstore\n      swap1\n      0x01\n      add\n      swap1\n      0x20\n      add\n      dup1\n      dup4\n      gt\n      tag_200\n      jumpi\n      dup3\n      swap1\n      sub\n      0x1f\n      and\n      dup3\n      add\n      swap2\n    tag_198:\n      pop\n      pop\n      pop\n      pop\n      pop\n      dup2\n      mstore\n      0x20\n      add\n      swap1\n      0x01\n      add\n      swap1\n      jump(tag_193)\n    tag_194:\n      pop\n      pop\n      pop\n      pop\n      dup2\n      mstore\n      pop\n      pop\n      dup2\n      mstore\n      0x20\n      add\n      swap1\n      0x01\n      add\n      swap1\n      jump(tag_185)\n    tag_186:\n      pop\n      pop\n      pop\n      pop\n      swap1\n      pop\n        /* \"contracts/Practice/2.sol\":2046:2140  function getStudents() public view returns(student[] memory){... */\n      swap1\n      jump\t// out\n        /* \"contracts/Practice/2.sol\":3713:3824  function setBirth(string memory _name, string memory _birth) public {... */\n    tag_101:\n        /* \"contracts/Practice/2.sol\":3810:3816  _birth */\n      dup1\n        /* \"contracts/Practice/2.sol\":3792:3800  birthday */\n      0x04\n        /* \"contracts/Practice/2.sol\":3801:3806  _name */\n      dup4\n        /* \"contracts/Practice/2.sol\":3792:3807  birthday[_name] */\n      mload(0x40)\n      tag_202\n      swap2\n      swap1\n      tag_109\n      jump\t// in\n    tag_202:\n      swap1\n      dup2\n      mstore\n      0x20\n      add\n      mload(0x40)\n      dup1\n      swap2\n      sub\n      swap1\n      keccak256\n        /* \"contracts/Practice/2.sol\":3792:3816  birthday[_name] = _birth */\n      swap1\n      dup2\n      tag_203\n      swap2\n      swap1\n      tag_125\n      jump\t// in\n    tag_203:\n      pop\n        /* \"contracts/Practice/2.sol\":3713:3824  function setBirth(string memory _name, string memory _birth) public {... */\n      pop\n      pop\n      jump\t// out\n    tag_127:\n      dup3\n      dup1\n      sload\n      dup3\n      dup3\n      sstore\n      swap1\n      0x00\n      mstore\n      keccak256(0x00, 0x20)\n      swap1\n      dup2\n      add\n      swap3\n      dup3\n      iszero\n      tag_204\n      jumpi\n      swap2\n      0x20\n      mul\n      dup3\n      add\n    tag_205:\n      dup3\n      dup2\n      gt\n      iszero\n      tag_206\n      jumpi\n      dup3\n      mload\n      dup3\n      swap1\n      dup2\n      tag_207\n      swap2\n      swap1\n      tag_125\n      jump\t// in\n    tag_207:\n      pop\n      swap2\n      0x20\n      add\n      swap2\n      swap1\n      0x01\n      add\n      swap1\n      jump(tag_205)\n    tag_206:\n    tag_204:\n      pop\n      swap1\n      pop\n      tag_208\n      swap2\n      swap1\n      tag_209\n      jump\t// in\n    tag_208:\n      pop\n      swap1\n      jump\t// out\n    tag_209:\n    tag_210:\n      dup1\n      dup3\n      gt\n      iszero\n      tag_211\n      jumpi\n      0x00\n      dup2\n      dup2\n      tag_212\n      swap2\n      swap1\n      tag_213\n      jump\t// in\n    tag_212:\n      pop\n      0x01\n      add\n      jump(tag_210)\n    tag_211:\n      pop\n      swap1\n      jump\t// out\n    tag_213:\n      pop\n      dup1\n      sload\n      tag_214\n      swap1\n      tag_111\n      jump\t// in\n    tag_214:\n      0x00\n      dup3\n      sstore\n      dup1\n      0x1f\n      lt\n      tag_216\n      jumpi\n      pop\n      jump(tag_215)\n    tag_216:\n      0x1f\n      add\n      0x20\n      swap1\n      div\n      swap1\n      0x00\n      mstore\n      keccak256(0x00, 0x20)\n      swap1\n      dup2\n      add\n      swap1\n      tag_217\n      swap2\n      swap1\n      tag_218\n      jump\t// in\n    tag_217:\n    tag_215:\n      pop\n      jump\t// out\n    tag_218:\n    tag_219:\n      dup1\n      dup3\n      gt\n      iszero\n      tag_220\n      jumpi\n      0x00\n      dup2\n      0x00\n      swap1\n      sstore\n      pop\n      0x01\n      add\n      jump(tag_219)\n    tag_220:\n      pop\n      swap1\n      jump\t// out\n        /* \"#utility.yul\":7:82   */\n    tag_221:\n        /* \"#utility.yul\":40:46   */\n      0x00\n        /* \"#utility.yul\":73:75   */\n      0x40\n        /* \"#utility.yul\":67:76   */\n      mload\n        /* \"#utility.yul\":57:76   */\n      swap1\n      pop\n        /* \"#utility.yul\":7:82   */\n      swap1\n      jump\t// out\n        /* \"#utility.yul\":88:205   */\n    tag_222:\n        /* \"#utility.yul\":197:198   */\n      0x00\n        /* \"#utility.yul\":194:195   */\n      dup1\n        /* \"#utility.yul\":187:199   */\n      revert\n        /* \"#utility.yul\":211:328   */\n    tag_223:\n        /* \"#utility.yul\":320:321   */\n      0x00\n        /* \"#utility.yul\":317:318   */\n      dup1\n        /* \"#utility.yul\":310:322   */\n      revert\n        /* \"#utility.yul\":334:411   */\n    tag_224:\n        /* \"#utility.yul\":371:378   */\n      0x00\n        /* \"#utility.yul\":400:405   */\n      dup2\n        /* \"#utility.yul\":389:405   */\n      swap1\n      pop\n        /* \"#utility.yul\":334:411   */\n      swap2\n      swap1\n      pop\n      jump\t// out\n        /* \"#utility.yul\":417:539   */\n    tag_225:\n        /* \"#utility.yul\":490:514   */\n      tag_298\n        /* \"#utility.yul\":508:513   */\n      dup2\n        /* \"#utility.yul\":490:514   */\n      tag_224\n      jump\t// in\n    tag_298:\n        /* \"#utility.yul\":483:488   */\n      dup2\n        /* \"#utility.yul\":480:515   */\n      eq\n        /* \"#utility.yul\":470:533   */\n      tag_299\n      jumpi\n        /* \"#utility.yul\":529:530   */\n      0x00\n        /* \"#utility.yul\":526:527   */\n      dup1\n        /* \"#utility.yul\":519:531   */\n      revert\n        /* \"#utility.yul\":470:533   */\n    tag_299:\n        /* \"#utility.yul\":417:539   */\n      pop\n      jump\t// out\n        /* \"#utility.yul\":545:684   */\n    tag_226:\n        /* \"#utility.yul\":591:596   */\n      0x00\n        /* \"#utility.yul\":629:635   */\n      dup2\n        /* \"#utility.yul\":616:636   */\n      calldataload\n        /* \"#utility.yul\":607:636   */\n      swap1\n      pop\n        /* \"#utility.yul\":645:678   */\n      tag_301\n        /* \"#utility.yul\":672:677   */\n      dup2\n        /* \"#utility.yul\":645:678   */\n      tag_225\n      jump\t// in\n    tag_301:\n        /* \"#utility.yul\":545:684   */\n      swap3\n      swap2\n      pop\n      pop\n      jump\t// out\n        /* \"#utility.yul\":690:1019   */\n    tag_28:\n        /* \"#utility.yul\":749:755   */\n      0x00\n        /* \"#utility.yul\":798:800   */\n      0x20\n        /* \"#utility.yul\":786:795   */\n      dup3\n        /* \"#utility.yul\":777:784   */\n      dup5\n        /* \"#utility.yul\":773:796   */\n      sub\n        /* \"#utility.yul\":769:801   */\n      slt\n        /* \"#utility.yul\":766:885   */\n      iszero\n      tag_303\n      jumpi\n        /* \"#utility.yul\":804:883   */\n      tag_304\n      tag_222\n      jump\t// in\n    tag_304:\n        /* \"#utility.yul\":766:885   */\n    tag_303:\n        /* \"#utility.yul\":924:925   */\n      0x00\n        /* \"#utility.yul\":949:1002   */\n      tag_305\n        /* \"#utility.yul\":994:1001   */\n      dup5\n        /* \"#utility.yul\":985:991   */\n      dup3\n        /* \"#utility.yul\":974:983   */\n      dup6\n        /* \"#utility.yul\":970:992   */\n      add\n        /* \"#utility.yul\":949:1002   */\n      tag_226\n      jump\t// in\n    tag_305:\n        /* \"#utility.yul\":939:1002   */\n      swap2\n      pop\n        /* \"#utility.yul\":895:1012   */\n      pop\n        /* \"#utility.yul\":690:1019   */\n      swap3\n      swap2\n      pop\n      pop\n      jump\t// out\n        /* \"#utility.yul\":1025:1139   */\n    tag_227:\n        /* \"#utility.yul\":1092:1098   */\n      0x00\n        /* \"#utility.yul\":1126:1131   */\n      dup2\n        /* \"#utility.yul\":1120:1132   */\n      mload\n        /* \"#utility.yul\":1110:1132   */\n      swap1\n      pop\n        /* \"#utility.yul\":1025:1139   */\n      swap2\n      swap1\n      pop\n      jump\t// out\n        /* \"#utility.yul\":1145:1329   */\n    tag_228:\n        /* \"#utility.yul\":1244:1255   */\n      0x00\n        /* \"#utility.yul\":1278:1284   */\n      dup3\n        /* \"#utility.yul\":1273:1276   */\n      dup3\n        /* \"#utility.yul\":1266:1285   */\n      mstore\n        /* \"#utility.yul\":1318:1322   */\n      0x20\n        /* \"#utility.yul\":1313:1316   */\n      dup3\n        /* \"#utility.yul\":1309:1323   */\n      add\n        /* \"#utility.yul\":1294:1323   */\n      swap1\n      pop\n        /* \"#utility.yul\":1145:1329   */\n      swap3\n      swap2\n      pop\n      pop\n      jump\t// out\n        /* \"#utility.yul\":1335:1467   */\n    tag_229:\n        /* \"#utility.yul\":1402:1406   */\n      0x00\n        /* \"#utility.yul\":1425:1428   */\n      dup2\n        /* \"#utility.yul\":1417:1428   */\n      swap1\n      pop\n        /* \"#utility.yul\":1455:1459   */\n      0x20\n        /* \"#utility.yul\":1450:1453   */\n      dup3\n        /* \"#utility.yul\":1446:1460   */\n      add\n        /* \"#utility.yul\":1438:1460   */\n      swap1\n      pop\n        /* \"#utility.yul\":1335:1467   */\n      swap2\n      swap1\n      pop\n      jump\t// out\n        /* \"#utility.yul\":1473:1581   */\n    tag_230:\n        /* \"#utility.yul\":1550:1574   */\n      tag_310\n        /* \"#utility.yul\":1568:1573   */\n      dup2\n        /* \"#utility.yul\":1550:1574   */\n      tag_224\n      jump\t// in\n    tag_310:\n        /* \"#utility.yul\":1545:1548   */\n      dup3\n        /* \"#utility.yul\":1538:1575   */\n      mstore\n        /* \"#utility.yul\":1473:1581   */\n      pop\n      pop\n      jump\t// out\n        /* \"#utility.yul\":1587:1766   */\n    tag_231:\n        /* \"#utility.yul\":1656:1666   */\n      0x00\n        /* \"#utility.yul\":1677:1723   */\n      tag_312\n        /* \"#utility.yul\":1719:1722   */\n      dup4\n        /* \"#utility.yul\":1711:1717   */\n      dup4\n        /* \"#utility.yul\":1677:1723   */\n      tag_230\n      jump\t// in\n    tag_312:\n        /* \"#utility.yul\":1755:1759   */\n      0x20\n        /* \"#utility.yul\":1750:1753   */\n      dup4\n        /* \"#utility.yul\":1746:1760   */\n      add\n        /* \"#utility.yul\":1732:1760   */\n      swap1\n      pop\n        /* \"#utility.yul\":1587:1766   */\n      swap3\n      swap2\n      pop\n      pop\n      jump\t// out\n        /* \"#utility.yul\":1772:1885   */\n    tag_232:\n        /* \"#utility.yul\":1842:1846   */\n      0x00\n        /* \"#utility.yul\":1874:1878   */\n      0x20\n        /* \"#utility.yul\":1869:1872   */\n      dup3\n        /* \"#utility.yul\":1865:1879   */\n      add\n        /* \"#utility.yul\":1857:1879   */\n      swap1\n      pop\n        /* \"#utility.yul\":1772:1885   */\n      swap2\n      swap1\n      pop\n      jump\t// out\n        /* \"#utility.yul\":1921:2653   */\n    tag_233:\n        /* \"#utility.yul\":2040:2043   */\n      0x00\n        /* \"#utility.yul\":2069:2123   */\n      tag_315\n        /* \"#utility.yul\":2117:2122   */\n      dup3\n        /* \"#utility.yul\":2069:2123   */\n      tag_227\n      jump\t// in\n    tag_315:\n        /* \"#utility.yul\":2139:2225   */\n      tag_316\n        /* \"#utility.yul\":2218:2224   */\n      dup2\n        /* \"#utility.yul\":2213:2216   */\n      dup6\n        /* \"#utility.yul\":2139:2225   */\n      tag_228\n      jump\t// in\n    tag_316:\n        /* \"#utility.yul\":2132:2225   */\n      swap4\n      pop\n        /* \"#utility.yul\":2249:2305   */\n      tag_317\n        /* \"#utility.yul\":2299:2304   */\n      dup4\n        /* \"#utility.yul\":2249:2305   */\n      tag_229\n      jump\t// in\n    tag_317:\n        /* \"#utility.yul\":2328:2335   */\n      dup1\n        /* \"#utility.yul\":2359:2360   */\n      0x00\n        /* \"#utility.yul\":2344:2628   */\n    tag_318:\n        /* \"#utility.yul\":2369:2375   */\n      dup4\n        /* \"#utility.yul\":2366:2367   */\n      dup2\n        /* \"#utility.yul\":2363:2376   */\n      lt\n        /* \"#utility.yul\":2344:2628   */\n      iszero\n      tag_320\n      jumpi\n        /* \"#utility.yul\":2445:2451   */\n      dup2\n        /* \"#utility.yul\":2439:2452   */\n      mload\n        /* \"#utility.yul\":2472:2535   */\n      tag_321\n        /* \"#utility.yul\":2531:2534   */\n      dup9\n        /* \"#utility.yul\":2516:2529   */\n      dup3\n        /* \"#utility.yul\":2472:2535   */\n      tag_231\n      jump\t// in\n    tag_321:\n        /* \"#utility.yul\":2465:2535   */\n      swap8\n      pop\n        /* \"#utility.yul\":2558:2618   */\n      tag_322\n        /* \"#utility.yul\":2611:2617   */\n      dup4\n        /* \"#utility.yul\":2558:2618   */\n      tag_232\n      jump\t// in\n    tag_322:\n        /* \"#utility.yul\":2548:2618   */\n      swap3\n      pop\n        /* \"#utility.yul\":2404:2628   */\n      pop\n        /* \"#utility.yul\":2391:2392   */\n      0x01\n        /* \"#utility.yul\":2388:2389   */\n      dup2\n        /* \"#utility.yul\":2384:2393   */\n      add\n        /* \"#utility.yul\":2379:2393   */\n      swap1\n      pop\n        /* \"#utility.yul\":2344:2628   */\n      jump(tag_318)\n    tag_320:\n        /* \"#utility.yul\":2348:2362   */\n      pop\n        /* \"#utility.yul\":2644:2647   */\n      dup6\n        /* \"#utility.yul\":2637:2647   */\n      swap4\n      pop\n        /* \"#utility.yul\":2045:2653   */\n      pop\n      pop\n      pop\n        /* \"#utility.yul\":1921:2653   */\n      swap3\n      swap2\n      pop\n      pop\n      jump\t// out\n        /* \"#utility.yul\":2659:3032   */\n    tag_33:\n        /* \"#utility.yul\":2802:2806   */\n      0x00\n        /* \"#utility.yul\":2840:2842   */\n      0x20\n        /* \"#utility.yul\":2829:2838   */\n      dup3\n        /* \"#utility.yul\":2825:2843   */\n      add\n        /* \"#utility.yul\":2817:2843   */\n      swap1\n      pop\n        /* \"#utility.yul\":2889:2898   */\n      dup2\n        /* \"#utility.yul\":2883:2887   */\n      dup2\n        /* \"#utility.yul\":2879:2899   */\n      sub\n        /* \"#utility.yul\":2875:2876   */\n      0x00\n        /* \"#utility.yul\":2864:2873   */\n      dup4\n        /* \"#utility.yul\":2860:2877   */\n      add\n        /* \"#utility.yul\":2853:2900   */\n      mstore\n        /* \"#utility.yul\":2917:3025   */\n      tag_324\n        /* \"#utility.yul\":3020:3024   */\n      dup2\n        /* \"#utility.yul\":3011:3017   */\n      dup5\n        /* \"#utility.yul\":2917:3025   */\n      tag_233\n      jump\t// in\n    tag_324:\n        /* \"#utility.yul\":2909:3025   */\n      swap1\n      pop\n        /* \"#utility.yul\":2659:3032   */\n      swap3\n      swap2\n      pop\n      pop\n      jump\t// out\n        /* \"#utility.yul\":3038:3155   */\n    tag_234:\n        /* \"#utility.yul\":3147:3148   */\n      0x00\n        /* \"#utility.yul\":3144:3145   */\n      dup1\n        /* \"#utility.yul\":3137:3149   */\n      revert\n        /* \"#utility.yul\":3161:3278   */\n    tag_235:\n        /* \"#utility.yul\":3270:3271   */\n      0x00\n        /* \"#utility.yul\":3267:3268   */\n      dup1\n        /* \"#utility.yul\":3260:3272   */\n      revert\n        /* \"#utility.yul\":3284:3386   */\n    tag_236:\n        /* \"#utility.yul\":3325:3331   */\n      0x00\n        /* \"#utility.yul\":3376:3378   */\n      0x1f\n        /* \"#utility.yul\":3372:3379   */\n      not\n        /* \"#utility.yul\":3367:3369   */\n      0x1f\n        /* \"#utility.yul\":3360:3365   */\n      dup4\n        /* \"#utility.yul\":3356:3370   */\n      add\n        /* \"#utility.yul\":3352:3380   */\n      and\n        /* \"#utility.yul\":3342:3380   */\n      swap1\n      pop\n        /* \"#utility.yul\":3284:3386   */\n      swap2\n      swap1\n      pop\n      jump\t// out\n        /* \"#utility.yul\":3392:3572   */\n    tag_237:\n        /* \"#utility.yul\":3440:3517   */\n      0x4e487b7100000000000000000000000000000000000000000000000000000000\n        /* \"#utility.yul\":3437:3438   */\n      0x00\n        /* \"#utility.yul\":3430:3518   */\n      mstore\n        /* \"#utility.yul\":3537:3541   */\n      0x41\n        /* \"#utility.yul\":3534:3535   */\n      0x04\n        /* \"#utility.yul\":3527:3542   */\n      mstore\n        /* \"#utility.yul\":3561:3565   */\n      0x24\n        /* \"#utility.yul\":3558:3559   */\n      0x00\n        /* \"#utility.yul\":3551:3566   */\n      revert\n        /* \"#utility.yul\":3578:3859   */\n    tag_238:\n        /* \"#utility.yul\":3661:3688   */\n      tag_330\n        /* \"#utility.yul\":3683:3687   */\n      dup3\n        /* \"#utility.yul\":3661:3688   */\n      tag_236\n      jump\t// in\n    tag_330:\n        /* \"#utility.yul\":3653:3659   */\n      dup2\n        /* \"#utility.yul\":3649:3689   */\n      add\n        /* \"#utility.yul\":3791:3797   */\n      dup2\n        /* \"#utility.yul\":3779:3789   */\n      dup2\n        /* \"#utility.yul\":3776:3798   */\n      lt\n        /* \"#utility.yul\":3755:3773   */\n      0xffffffffffffffff\n        /* \"#utility.yul\":3743:3753   */\n      dup3\n        /* \"#utility.yul\":3740:3774   */\n      gt\n        /* \"#utility.yul\":3737:3799   */\n      or\n        /* \"#utility.yul\":3734:3822   */\n      iszero\n      tag_331\n      jumpi\n        /* \"#utility.yul\":3802:3820   */\n      tag_332\n      tag_237\n      jump\t// in\n    tag_332:\n        /* \"#utility.yul\":3734:3822   */\n    tag_331:\n        /* \"#utility.yul\":3842:3852   */\n      dup1\n        /* \"#utility.yul\":3838:3840   */\n      0x40\n        /* \"#utility.yul\":3831:3853   */\n      mstore\n        /* \"#utility.yul\":3621:3859   */\n      pop\n        /* \"#utility.yul\":3578:3859   */\n      pop\n      pop\n      jump\t// out\n        /* \"#utility.yul\":3865:3994   */\n    tag_239:\n        /* \"#utility.yul\":3899:3905   */\n      0x00\n        /* \"#utility.yul\":3926:3946   */\n      tag_334\n      tag_221\n      jump\t// in\n    tag_334:\n        /* \"#utility.yul\":3916:3946   */\n      swap1\n      pop\n        /* \"#utility.yul\":3955:3988   */\n      tag_335\n        /* \"#utility.yul\":3983:3987   */\n      dup3\n        /* \"#utility.yul\":3975:3981   */\n      dup3\n        /* \"#utility.yul\":3955:3988   */\n      tag_238\n      jump\t// in\n    tag_335:\n        /* \"#utility.yul\":3865:3994   */\n      swap2\n      swap1\n      pop\n      jump\t// out\n        /* \"#utility.yul\":4000:4308   */\n    tag_240:\n        /* \"#utility.yul\":4062:4066   */\n      0x00\n        /* \"#utility.yul\":4152:4170   */\n      0xffffffffffffffff\n        /* \"#utility.yul\":4144:4150   */\n      dup3\n        /* \"#utility.yul\":4141:4171   */\n      gt\n        /* \"#utility.yul\":4138:4194   */\n      iszero\n      tag_337\n      jumpi\n        /* \"#utility.yul\":4174:4192   */\n      tag_338\n      tag_237\n      jump\t// in\n    tag_338:\n        /* \"#utility.yul\":4138:4194   */\n    tag_337:\n        /* \"#utility.yul\":4212:4241   */\n      tag_339\n        /* \"#utility.yul\":4234:4240   */\n      dup3\n        /* \"#utility.yul\":4212:4241   */\n      tag_236\n      jump\t// in\n    tag_339:\n        /* \"#utility.yul\":4204:4241   */\n      swap1\n      pop\n        /* \"#utility.yul\":4296:4300   */\n      0x20\n        /* \"#utility.yul\":4290:4294   */\n      dup2\n        /* \"#utility.yul\":4286:4301   */\n      add\n        /* \"#utility.yul\":4278:4301   */\n      swap1\n      pop\n        /* \"#utility.yul\":4000:4308   */\n      swap2\n      swap1\n      pop\n      jump\t// out\n        /* \"#utility.yul\":4314:4460   */\n    tag_241:\n        /* \"#utility.yul\":4411:4417   */\n      dup3\n        /* \"#utility.yul\":4406:4409   */\n      dup2\n        /* \"#utility.yul\":4401:4404   */\n      dup4\n        /* \"#utility.yul\":4388:4418   */\n      calldatacopy\n        /* \"#utility.yul\":4452:4453   */\n      0x00\n        /* \"#utility.yul\":4443:4449   */\n      dup4\n        /* \"#utility.yul\":4438:4441   */\n      dup4\n        /* \"#utility.yul\":4434:4450   */\n      add\n        /* \"#utility.yul\":4427:4454   */\n      mstore\n        /* \"#utility.yul\":4314:4460   */\n      pop\n      pop\n      pop\n      jump\t// out\n        /* \"#utility.yul\":4466:4891   */\n    tag_242:\n        /* \"#utility.yul\":4544:4549   */\n      0x00\n        /* \"#utility.yul\":4569:4635   */\n      tag_342\n        /* \"#utility.yul\":4585:4634   */\n      tag_343\n        /* \"#utility.yul\":4627:4633   */\n      dup5\n        /* \"#utility.yul\":4585:4634   */\n      tag_240\n      jump\t// in\n    tag_343:\n        /* \"#utility.yul\":4569:4635   */\n      tag_239\n      jump\t// in\n    tag_342:\n        /* \"#utility.yul\":4560:4635   */\n      swap1\n      pop\n        /* \"#utility.yul\":4658:4664   */\n      dup3\n        /* \"#utility.yul\":4651:4656   */\n      dup2\n        /* \"#utility.yul\":4644:4665   */\n      mstore\n        /* \"#utility.yul\":4696:4700   */\n      0x20\n        /* \"#utility.yul\":4689:4694   */\n      dup2\n        /* \"#utility.yul\":4685:4701   */\n      add\n        /* \"#utility.yul\":4734:4737   */\n      dup5\n        /* \"#utility.yul\":4725:4731   */\n      dup5\n        /* \"#utility.yul\":4720:4723   */\n      dup5\n        /* \"#utility.yul\":4716:4732   */\n      add\n        /* \"#utility.yul\":4713:4738   */\n      gt\n        /* \"#utility.yul\":4710:4822   */\n      iszero\n      tag_344\n      jumpi\n        /* \"#utility.yul\":4741:4820   */\n      tag_345\n      tag_235\n      jump\t// in\n    tag_345:\n        /* \"#utility.yul\":4710:4822   */\n    tag_344:\n        /* \"#utility.yul\":4831:4885   */\n      tag_346\n        /* \"#utility.yul\":4878:4884   */\n      dup5\n        /* \"#utility.yul\":4873:4876   */\n      dup3\n        /* \"#utility.yul\":4868:4871   */\n      dup6\n        /* \"#utility.yul\":4831:4885   */\n      tag_241\n      jump\t// in\n    tag_346:\n        /* \"#utility.yul\":4550:4891   */\n      pop\n        /* \"#utility.yul\":4466:4891   */\n      swap4\n      swap3\n      pop\n      pop\n      pop\n      jump\t// out\n        /* \"#utility.yul\":4911:5251   */\n    tag_243:\n        /* \"#utility.yul\":4967:4972   */\n      0x00\n        /* \"#utility.yul\":5016:5019   */\n      dup3\n        /* \"#utility.yul\":5009:5013   */\n      0x1f\n        /* \"#utility.yul\":5001:5007   */\n      dup4\n        /* \"#utility.yul\":4997:5014   */\n      add\n        /* \"#utility.yul\":4993:5020   */\n      slt\n        /* \"#utility.yul\":4983:5105   */\n      tag_348\n      jumpi\n        /* \"#utility.yul\":5024:5103   */\n      tag_349\n      tag_234\n      jump\t// in\n    tag_349:\n        /* \"#utility.yul\":4983:5105   */\n    tag_348:\n        /* \"#utility.yul\":5141:5147   */\n      dup2\n        /* \"#utility.yul\":5128:5148   */\n      calldataload\n        /* \"#utility.yul\":5166:5245   */\n      tag_350\n        /* \"#utility.yul\":5241:5244   */\n      dup5\n        /* \"#utility.yul\":5233:5239   */\n      dup3\n        /* \"#utility.yul\":5226:5230   */\n      0x20\n        /* \"#utility.yul\":5218:5224   */\n      dup7\n        /* \"#utility.yul\":5214:5231   */\n      add\n        /* \"#utility.yul\":5166:5245   */\n      tag_242\n      jump\t// in\n    tag_350:\n        /* \"#utility.yul\":5157:5245   */\n      swap2\n      pop\n        /* \"#utility.yul\":4973:5251   */\n      pop\n        /* \"#utility.yul\":4911:5251   */\n      swap3\n      swap2\n      pop\n      pop\n      jump\t// out\n        /* \"#utility.yul\":5257:5766   */\n    tag_36:\n        /* \"#utility.yul\":5326:5332   */\n      0x00\n        /* \"#utility.yul\":5375:5377   */\n      0x20\n        /* \"#utility.yul\":5363:5372   */\n      dup3\n        /* \"#utility.yul\":5354:5361   */\n      dup5\n        /* \"#utility.yul\":5350:5373   */\n      sub\n        /* \"#utility.yul\":5346:5378   */\n      slt\n        /* \"#utility.yul\":5343:5462   */\n      iszero\n      tag_352\n      jumpi\n        /* \"#utility.yul\":5381:5460   */\n      tag_353\n      tag_222\n      jump\t// in\n    tag_353:\n        /* \"#utility.yul\":5343:5462   */\n    tag_352:\n        /* \"#utility.yul\":5529:5530   */\n      0x00\n        /* \"#utility.yul\":5518:5527   */\n      dup3\n        /* \"#utility.yul\":5514:5531   */\n      add\n        /* \"#utility.yul\":5501:5532   */\n      calldataload\n        /* \"#utility.yul\":5559:5577   */\n      0xffffffffffffffff\n        /* \"#utility.yul\":5551:5557   */\n      dup2\n        /* \"#utility.yul\":5548:5578   */\n      gt\n        /* \"#utility.yul\":5545:5662   */\n      iszero\n      tag_354\n      jumpi\n        /* \"#utility.yul\":5581:5660   */\n      tag_355\n      tag_223\n      jump\t// in\n    tag_355:\n        /* \"#utility.yul\":5545:5662   */\n    tag_354:\n        /* \"#utility.yul\":5686:5749   */\n      tag_356\n        /* \"#utility.yul\":5741:5748   */\n      dup5\n        /* \"#utility.yul\":5732:5738   */\n      dup3\n        /* \"#utility.yul\":5721:5730   */\n      dup6\n        /* \"#utility.yul\":5717:5739   */\n      add\n        /* \"#utility.yul\":5686:5749   */\n      tag_243\n      jump\t// in\n    tag_356:\n        /* \"#utility.yul\":5676:5749   */\n      swap2\n      pop\n        /* \"#utility.yul\":5472:5759   */\n      pop\n        /* \"#utility.yul\":5257:5766   */\n      swap3\n      swap2\n      pop\n      pop\n      jump\t// out\n        /* \"#utility.yul\":5772:5871   */\n    tag_244:\n        /* \"#utility.yul\":5824:5830   */\n      0x00\n        /* \"#utility.yul\":5858:5863   */\n      dup2\n        /* \"#utility.yul\":5852:5864   */\n      mload\n        /* \"#utility.yul\":5842:5864   */\n      swap1\n      pop\n        /* \"#utility.yul\":5772:5871   */\n      swap2\n      swap1\n      pop\n      jump\t// out\n        /* \"#utility.yul\":5877:6046   */\n    tag_245:\n        /* \"#utility.yul\":5961:5972   */\n      0x00\n        /* \"#utility.yul\":5995:6001   */\n      dup3\n        /* \"#utility.yul\":5990:5993   */\n      dup3\n        /* \"#utility.yul\":5983:6002   */\n      mstore\n        /* \"#utility.yul\":6035:6039   */\n      0x20\n        /* \"#utility.yul\":6030:6033   */\n      dup3\n        /* \"#utility.yul\":6026:6040   */\n      add\n        /* \"#utility.yul\":6011:6040   */\n      swap1\n      pop\n        /* \"#utility.yul\":5877:6046   */\n      swap3\n      swap2\n      pop\n      pop\n      jump\t// out\n        /* \"#utility.yul\":6052:6298   */\n    tag_246:\n        /* \"#utility.yul\":6133:6134   */\n      0x00\n        /* \"#utility.yul\":6143:6256   */\n    tag_360:\n        /* \"#utility.yul\":6157:6163   */\n      dup4\n        /* \"#utility.yul\":6154:6155   */\n      dup2\n        /* \"#utility.yul\":6151:6164   */\n      lt\n        /* \"#utility.yul\":6143:6256   */\n      iszero\n      tag_362\n      jumpi\n        /* \"#utility.yul\":6242:6243   */\n      dup1\n        /* \"#utility.yul\":6237:6240   */\n      dup3\n        /* \"#utility.yul\":6233:6244   */\n      add\n        /* \"#utility.yul\":6227:6245   */\n      mload\n        /* \"#utility.yul\":6223:6224   */\n      dup2\n        /* \"#utility.yul\":6218:6221   */\n      dup5\n        /* \"#utility.yul\":6214:6225   */\n      add\n        /* \"#utility.yul\":6207:6246   */\n      mstore\n        /* \"#utility.yul\":6179:6181   */\n      0x20\n        /* \"#utility.yul\":6176:6177   */\n      dup2\n        /* \"#utility.yul\":6172:6182   */\n      add\n        /* \"#utility.yul\":6167:6182   */\n      swap1\n      pop\n        /* \"#utility.yul\":6143:6256   */\n      jump(tag_360)\n    tag_362:\n        /* \"#utility.yul\":6290:6291   */\n      0x00\n        /* \"#utility.yul\":6281:6287   */\n      dup5\n        /* \"#utility.yul\":6276:6279   */\n      dup5\n        /* \"#utility.yul\":6272:6288   */\n      add\n        /* \"#utility.yul\":6265:6292   */\n      mstore\n        /* \"#utility.yul\":6114:6298   */\n      pop\n        /* \"#utility.yul\":6052:6298   */\n      pop\n      pop\n      pop\n      jump\t// out\n        /* \"#utility.yul\":6304:6681   */\n    tag_247:\n        /* \"#utility.yul\":6392:6395   */\n      0x00\n        /* \"#utility.yul\":6420:6459   */\n      tag_364\n        /* \"#utility.yul\":6453:6458   */\n      dup3\n        /* \"#utility.yul\":6420:6459   */\n      tag_244\n      jump\t// in\n    tag_364:\n        /* \"#utility.yul\":6475:6546   */\n      tag_365\n        /* \"#utility.yul\":6539:6545   */\n      dup2\n        /* \"#utility.yul\":6534:6537   */\n      dup6\n        /* \"#utility.yul\":6475:6546   */\n      tag_245\n      jump\t// in\n    tag_365:\n        /* \"#utility.yul\":6468:6546   */\n      swap4\n      pop\n        /* \"#utility.yul\":6555:6620   */\n      tag_366\n        /* \"#utility.yul\":6613:6619   */\n      dup2\n        /* \"#utility.yul\":6608:6611   */\n      dup6\n        /* \"#utility.yul\":6601:6605   */\n      0x20\n        /* \"#utility.yul\":6594:6599   */\n      dup7\n        /* \"#utility.yul\":6590:6606   */\n      add\n        /* \"#utility.yul\":6555:6620   */\n      tag_246\n      jump\t// in\n    tag_366:\n        /* \"#utility.yul\":6645:6674   */\n      tag_367\n        /* \"#utility.yul\":6667:6673   */\n      dup2\n        /* \"#utility.yul\":6645:6674   */\n      tag_236\n      jump\t// in\n    tag_367:\n        /* \"#utility.yul\":6640:6643   */\n      dup5\n        /* \"#utility.yul\":6636:6675   */\n      add\n        /* \"#utility.yul\":6629:6675   */\n      swap2\n      pop\n        /* \"#utility.yul\":6396:6681   */\n      pop\n        /* \"#utility.yul\":6304:6681   */\n      swap3\n      swap2\n      pop\n      pop\n      jump\t// out\n        /* \"#utility.yul\":6687:7000   */\n    tag_39:\n        /* \"#utility.yul\":6800:6804   */\n      0x00\n        /* \"#utility.yul\":6838:6840   */\n      0x20\n        /* \"#utility.yul\":6827:6836   */\n      dup3\n        /* \"#utility.yul\":6823:6841   */\n      add\n        /* \"#utility.yul\":6815:6841   */\n      swap1\n      pop\n        /* \"#utility.yul\":6887:6896   */\n      dup2\n        /* \"#utility.yul\":6881:6885   */\n      dup2\n        /* \"#utility.yul\":6877:6897   */\n      sub\n        /* \"#utility.yul\":6873:6874   */\n      0x00\n        /* \"#utility.yul\":6862:6871   */\n      dup4\n        /* \"#utility.yul\":6858:6875   */\n      add\n        /* \"#utility.yul\":6851:6898   */\n      mstore\n        /* \"#utility.yul\":6915:6993   */\n      tag_369\n        /* \"#utility.yul\":6988:6992   */\n      dup2\n        /* \"#utility.yul\":6979:6985   */\n      dup5\n        /* \"#utility.yul\":6915:6993   */\n      tag_247\n      jump\t// in\n    tag_369:\n        /* \"#utility.yul\":6907:6993   */\n      swap1\n      pop\n        /* \"#utility.yul\":6687:7000   */\n      swap3\n      swap2\n      pop\n      pop\n      jump\t// out\n        /* \"#utility.yul\":7006:7327   */\n    tag_248:\n        /* \"#utility.yul\":7093:7097   */\n      0x00\n        /* \"#utility.yul\":7183:7201   */\n      0xffffffffffffffff\n        /* \"#utility.yul\":7175:7181   */\n      dup3\n        /* \"#utility.yul\":7172:7202   */\n      gt\n        /* \"#utility.yul\":7169:7225   */\n      iszero\n      tag_371\n      jumpi\n        /* \"#utility.yul\":7205:7223   */\n      tag_372\n      tag_237\n      jump\t// in\n    tag_372:\n        /* \"#utility.yul\":7169:7225   */\n    tag_371:\n        /* \"#utility.yul\":7255:7259   */\n      0x20\n        /* \"#utility.yul\":7247:7253   */\n      dup3\n        /* \"#utility.yul\":7243:7260   */\n      mul\n        /* \"#utility.yul\":7235:7260   */\n      swap1\n      pop\n        /* \"#utility.yul\":7315:7319   */\n      0x20\n        /* \"#utility.yul\":7309:7313   */\n      dup2\n        /* \"#utility.yul\":7305:7320   */\n      add\n        /* \"#utility.yul\":7297:7320   */\n      swap1\n      pop\n        /* \"#utility.yul\":7006:7327   */\n      swap2\n      swap1\n      pop\n      jump\t// out\n        /* \"#utility.yul\":7333:7450   */\n    tag_249:\n        /* \"#utility.yul\":7442:7443   */\n      0x00\n        /* \"#utility.yul\":7439:7440   */\n      dup1\n        /* \"#utility.yul\":7432:7444   */\n      revert\n        /* \"#utility.yul\":7472:8417   */\n    tag_250:\n        /* \"#utility.yul\":7578:7583   */\n      0x00\n        /* \"#utility.yul\":7603:7694   */\n      tag_375\n        /* \"#utility.yul\":7619:7693   */\n      tag_376\n        /* \"#utility.yul\":7686:7692   */\n      dup5\n        /* \"#utility.yul\":7619:7693   */\n      tag_248\n      jump\t// in\n    tag_376:\n        /* \"#utility.yul\":7603:7694   */\n      tag_239\n      jump\t// in\n    tag_375:\n        /* \"#utility.yul\":7594:7694   */\n      swap1\n      pop\n        /* \"#utility.yul\":7714:7719   */\n      dup1\n        /* \"#utility.yul\":7743:7749   */\n      dup4\n        /* \"#utility.yul\":7736:7741   */\n      dup3\n        /* \"#utility.yul\":7729:7750   */\n      mstore\n        /* \"#utility.yul\":7777:7781   */\n      0x20\n        /* \"#utility.yul\":7770:7775   */\n      dup3\n        /* \"#utility.yul\":7766:7782   */\n      add\n        /* \"#utility.yul\":7759:7782   */\n      swap1\n      pop\n        /* \"#utility.yul\":7830:7834   */\n      0x20\n        /* \"#utility.yul\":7822:7828   */\n      dup5\n        /* \"#utility.yul\":7818:7835   */\n      mul\n        /* \"#utility.yul\":7810:7816   */\n      dup4\n        /* \"#utility.yul\":7806:7836   */\n      add\n        /* \"#utility.yul\":7859:7862   */\n      dup6\n        /* \"#utility.yul\":7851:7857   */\n      dup2\n        /* \"#utility.yul\":7848:7863   */\n      gt\n        /* \"#utility.yul\":7845:7967   */\n      iszero\n      tag_377\n      jumpi\n        /* \"#utility.yul\":7878:7957   */\n      tag_378\n      tag_249\n      jump\t// in\n    tag_378:\n        /* \"#utility.yul\":7845:7967   */\n    tag_377:\n        /* \"#utility.yul\":7993:7999   */\n      dup4\n        /* \"#utility.yul\":7976:8411   */\n    tag_379:\n        /* \"#utility.yul\":8010:8016   */\n      dup2\n        /* \"#utility.yul\":8005:8008   */\n      dup2\n        /* \"#utility.yul\":8002:8017   */\n      lt\n        /* \"#utility.yul\":7976:8411   */\n      iszero\n      tag_381\n      jumpi\n        /* \"#utility.yul\":8099:8102   */\n      dup1\n        /* \"#utility.yul\":8086:8103   */\n      calldataload\n        /* \"#utility.yul\":8135:8153   */\n      0xffffffffffffffff\n        /* \"#utility.yul\":8122:8133   */\n      dup2\n        /* \"#utility.yul\":8119:8154   */\n      gt\n        /* \"#utility.yul\":8116:8238   */\n      iszero\n      tag_382\n      jumpi\n        /* \"#utility.yul\":8157:8236   */\n      tag_383\n      tag_234\n      jump\t// in\n    tag_383:\n        /* \"#utility.yul\":8116:8238   */\n    tag_382:\n        /* \"#utility.yul\":8281:8292   */\n      dup1\n        /* \"#utility.yul\":8273:8279   */\n      dup7\n        /* \"#utility.yul\":8269:8293   */\n      add\n        /* \"#utility.yul\":8319:8366   */\n      tag_384\n        /* \"#utility.yul\":8362:8365   */\n      dup10\n        /* \"#utility.yul\":8350:8360   */\n      dup3\n        /* \"#utility.yul\":8319:8366   */\n      tag_243\n      jump\t// in\n    tag_384:\n        /* \"#utility.yul\":8314:8317   */\n      dup6\n        /* \"#utility.yul\":8307:8367   */\n      mstore\n        /* \"#utility.yul\":8396:8400   */\n      0x20\n        /* \"#utility.yul\":8391:8394   */\n      dup6\n        /* \"#utility.yul\":8387:8401   */\n      add\n        /* \"#utility.yul\":8380:8401   */\n      swap5\n      pop\n        /* \"#utility.yul\":8052:8411   */\n      pop\n      pop\n        /* \"#utility.yul\":8036:8040   */\n      0x20\n        /* \"#utility.yul\":8031:8034   */\n      dup2\n        /* \"#utility.yul\":8027:8041   */\n      add\n        /* \"#utility.yul\":8020:8041   */\n      swap1\n      pop\n        /* \"#utility.yul\":7976:8411   */\n      jump(tag_379)\n    tag_381:\n        /* \"#utility.yul\":7980:8001   */\n      pop\n        /* \"#utility.yul\":7584:8417   */\n      pop\n      pop\n        /* \"#utility.yul\":7472:8417   */\n      swap4\n      swap3\n      pop\n      pop\n      pop\n      jump\t// out\n        /* \"#utility.yul\":8439:8829   */\n    tag_251:\n        /* \"#utility.yul\":8520:8525   */\n      0x00\n        /* \"#utility.yul\":8569:8572   */\n      dup3\n        /* \"#utility.yul\":8562:8566   */\n      0x1f\n        /* \"#utility.yul\":8554:8560   */\n      dup4\n        /* \"#utility.yul\":8550:8567   */\n      add\n        /* \"#utility.yul\":8546:8573   */\n      slt\n        /* \"#utility.yul\":8536:8658   */\n      tag_386\n      jumpi\n        /* \"#utility.yul\":8577:8656   */\n      tag_387\n      tag_234\n      jump\t// in\n    tag_387:\n        /* \"#utility.yul\":8536:8658   */\n    tag_386:\n        /* \"#utility.yul\":8694:8700   */\n      dup2\n        /* \"#utility.yul\":8681:8701   */\n      calldataload\n        /* \"#utility.yul\":8719:8823   */\n      tag_388\n        /* \"#utility.yul\":8819:8822   */\n      dup5\n        /* \"#utility.yul\":8811:8817   */\n      dup3\n        /* \"#utility.yul\":8804:8808   */\n      0x20\n        /* \"#utility.yul\":8796:8802   */\n      dup7\n        /* \"#utility.yul\":8792:8809   */\n      add\n        /* \"#utility.yul\":8719:8823   */\n      tag_250\n      jump\t// in\n    tag_388:\n        /* \"#utility.yul\":8710:8823   */\n      swap2\n      pop\n        /* \"#utility.yul\":8526:8829   */\n      pop\n        /* \"#utility.yul\":8439:8829   */\n      swap3\n      swap2\n      pop\n      pop\n      jump\t// out\n        /* \"#utility.yul\":8835:9719   */\n    tag_47:\n        /* \"#utility.yul\":8948:8954   */\n      0x00\n        /* \"#utility.yul\":8956:8962   */\n      dup1\n        /* \"#utility.yul\":9005:9007   */\n      0x40\n        /* \"#utility.yul\":8993:9002   */\n      dup4\n        /* \"#utility.yul\":8984:8991   */\n      dup6\n        /* \"#utility.yul\":8980:9003   */\n      sub\n        /* \"#utility.yul\":8976:9008   */\n      slt\n        /* \"#utility.yul\":8973:9092   */\n      iszero\n      tag_390\n      jumpi\n        /* \"#utility.yul\":9011:9090   */\n      tag_391\n      tag_222\n      jump\t// in\n    tag_391:\n        /* \"#utility.yul\":8973:9092   */\n    tag_390:\n        /* \"#utility.yul\":9159:9160   */\n      0x00\n        /* \"#utility.yul\":9148:9157   */\n      dup4\n        /* \"#utility.yul\":9144:9161   */\n      add\n        /* \"#utility.yul\":9131:9162   */\n      calldataload\n        /* \"#utility.yul\":9189:9207   */\n      0xffffffffffffffff\n        /* \"#utility.yul\":9181:9187   */\n      dup2\n        /* \"#utility.yul\":9178:9208   */\n      gt\n        /* \"#utility.yul\":9175:9292   */\n      iszero\n      tag_392\n      jumpi\n        /* \"#utility.yul\":9211:9290   */\n      tag_393\n      tag_223\n      jump\t// in\n    tag_393:\n        /* \"#utility.yul\":9175:9292   */\n    tag_392:\n        /* \"#utility.yul\":9316:9379   */\n      tag_394\n        /* \"#utility.yul\":9371:9378   */\n      dup6\n        /* \"#utility.yul\":9362:9368   */\n      dup3\n        /* \"#utility.yul\":9351:9360   */\n      dup7\n        /* \"#utility.yul\":9347:9369   */\n      add\n        /* \"#utility.yul\":9316:9379   */\n      tag_243\n      jump\t// in\n    tag_394:\n        /* \"#utility.yul\":9306:9379   */\n      swap3\n      pop\n        /* \"#utility.yul\":9102:9389   */\n      pop\n        /* \"#utility.yul\":9456:9458   */\n      0x20\n        /* \"#utility.yul\":9445:9454   */\n      dup4\n        /* \"#utility.yul\":9441:9459   */\n      add\n        /* \"#utility.yul\":9428:9460   */\n      calldataload\n        /* \"#utility.yul\":9487:9505   */\n      0xffffffffffffffff\n        /* \"#utility.yul\":9479:9485   */\n      dup2\n        /* \"#utility.yul\":9476:9506   */\n      gt\n        /* \"#utility.yul\":9473:9590   */\n      iszero\n      tag_395\n      jumpi\n        /* \"#utility.yul\":9509:9588   */\n      tag_396\n      tag_223\n      jump\t// in\n    tag_396:\n        /* \"#utility.yul\":9473:9590   */\n    tag_395:\n        /* \"#utility.yul\":9614:9702   */\n      tag_397\n        /* \"#utility.yul\":9694:9701   */\n      dup6\n        /* \"#utility.yul\":9685:9691   */\n      dup3\n        /* \"#utility.yul\":9674:9683   */\n      dup7\n        /* \"#utility.yul\":9670:9692   */\n      add\n        /* \"#utility.yul\":9614:9702   */\n      tag_251\n      jump\t// in\n    tag_397:\n        /* \"#utility.yul\":9604:9702   */\n      swap2\n      pop\n        /* \"#utility.yul\":9399:9712   */\n      pop\n        /* \"#utility.yul\":8835:9719   */\n      swap3\n      pop\n      swap3\n      swap1\n      pop\n      jump\t// out\n        /* \"#utility.yul\":9725:10344   */\n    tag_51:\n        /* \"#utility.yul\":9802:9808   */\n      0x00\n        /* \"#utility.yul\":9810:9816   */\n      dup1\n        /* \"#utility.yul\":9818:9824   */\n      0x00\n        /* \"#utility.yul\":9867:9869   */\n      0x60\n        /* \"#utility.yul\":9855:9864   */\n      dup5\n        /* \"#utility.yul\":9846:9853   */\n      dup7\n        /* \"#utility.yul\":9842:9865   */\n      sub\n        /* \"#utility.yul\":9838:9870   */\n      slt\n        /* \"#utility.yul\":9835:9954   */\n      iszero\n      tag_399\n      jumpi\n        /* \"#utility.yul\":9873:9952   */\n      tag_400\n      tag_222\n      jump\t// in\n    tag_400:\n        /* \"#utility.yul\":9835:9954   */\n    tag_399:\n        /* \"#utility.yul\":9993:9994   */\n      0x00\n        /* \"#utility.yul\":10018:10071   */\n      tag_401\n        /* \"#utility.yul\":10063:10070   */\n      dup7\n        /* \"#utility.yul\":10054:10060   */\n      dup3\n        /* \"#utility.yul\":10043:10052   */\n      dup8\n        /* \"#utility.yul\":10039:10061   */\n      add\n        /* \"#utility.yul\":10018:10071   */\n      tag_226\n      jump\t// in\n    tag_401:\n        /* \"#utility.yul\":10008:10071   */\n      swap4\n      pop\n        /* \"#utility.yul\":9964:10081   */\n      pop\n        /* \"#utility.yul\":10120:10122   */\n      0x20\n        /* \"#utility.yul\":10146:10199   */\n      tag_402\n        /* \"#utility.yul\":10191:10198   */\n      dup7\n        /* \"#utility.yul\":10182:10188   */\n      dup3\n        /* \"#utility.yul\":10171:10180   */\n      dup8\n        /* \"#utility.yul\":10167:10189   */\n      add\n        /* \"#utility.yul\":10146:10199   */\n      tag_226\n      jump\t// in\n    tag_402:\n        /* \"#utility.yul\":10136:10199   */\n      swap3\n      pop\n        /* \"#utility.yul\":10091:10209   */\n      pop\n        /* \"#utility.yul\":10248:10250   */\n      0x40\n        /* \"#utility.yul\":10274:10327   */\n      tag_403\n        /* \"#utility.yul\":10319:10326   */\n      dup7\n        /* \"#utility.yul\":10310:10316   */\n      dup3\n        /* \"#utility.yul\":10299:10308   */\n      dup8\n        /* \"#utility.yul\":10295:10317   */\n      add\n        /* \"#utility.yul\":10274:10327   */\n      tag_226\n      jump\t// in\n    tag_403:\n        /* \"#utility.yul\":10264:10327   */\n      swap2\n      pop\n        /* \"#utility.yul\":10219:10337   */\n      pop\n        /* \"#utility.yul\":9725:10344   */\n      swap3\n      pop\n      swap3\n      pop\n      swap3\n      jump\t// out\n        /* \"#utility.yul\":10350:10468   */\n    tag_252:\n        /* \"#utility.yul\":10437:10461   */\n      tag_405\n        /* \"#utility.yul\":10455:10460   */\n      dup2\n        /* \"#utility.yul\":10437:10461   */\n      tag_224\n      jump\t// in\n    tag_405:\n        /* \"#utility.yul\":10432:10435   */\n      dup3\n        /* \"#utility.yul\":10425:10462   */\n      mstore\n        /* \"#utility.yul\":10350:10468   */\n      pop\n      pop\n      jump\t// out\n        /* \"#utility.yul\":10474:10696   */\n    tag_54:\n        /* \"#utility.yul\":10567:10571   */\n      0x00\n        /* \"#utility.yul\":10605:10607   */\n      0x20\n        /* \"#utility.yul\":10594:10603   */\n      dup3\n        /* \"#utility.yul\":10590:10608   */\n      add\n        /* \"#utility.yul\":10582:10608   */\n      swap1\n      pop\n        /* \"#utility.yul\":10618:10689   */\n      tag_407\n        /* \"#utility.yul\":10686:10687   */\n      0x00\n        /* \"#utility.yul\":10675:10684   */\n      dup4\n        /* \"#utility.yul\":10671:10688   */\n      add\n        /* \"#utility.yul\":10662:10668   */\n      dup5\n        /* \"#utility.yul\":10618:10689   */\n      tag_252\n      jump\t// in\n    tag_407:\n        /* \"#utility.yul\":10474:10696   */\n      swap3\n      swap2\n      pop\n      pop\n      jump\t// out\n        /* \"#utility.yul\":10702:10792   */\n    tag_253:\n        /* \"#utility.yul\":10736:10743   */\n      0x00\n        /* \"#utility.yul\":10779:10784   */\n      dup2\n        /* \"#utility.yul\":10772:10785   */\n      iszero\n        /* \"#utility.yul\":10765:10786   */\n      iszero\n        /* \"#utility.yul\":10754:10786   */\n      swap1\n      pop\n        /* \"#utility.yul\":10702:10792   */\n      swap2\n      swap1\n      pop\n      jump\t// out\n        /* \"#utility.yul\":10798:10907   */\n    tag_254:\n        /* \"#utility.yul\":10879:10900   */\n      tag_410\n        /* \"#utility.yul\":10894:10899   */\n      dup2\n        /* \"#utility.yul\":10879:10900   */\n      tag_253\n      jump\t// in\n    tag_410:\n        /* \"#utility.yul\":10874:10877   */\n      dup3\n        /* \"#utility.yul\":10867:10901   */\n      mstore\n        /* \"#utility.yul\":10798:10907   */\n      pop\n      pop\n      jump\t// out\n        /* \"#utility.yul\":10913:11123   */\n    tag_62:\n        /* \"#utility.yul\":11000:11004   */\n      0x00\n        /* \"#utility.yul\":11038:11040   */\n      0x20\n        /* \"#utility.yul\":11027:11036   */\n      dup3\n        /* \"#utility.yul\":11023:11041   */\n      add\n        /* \"#utility.yul\":11015:11041   */\n      swap1\n      pop\n        /* \"#utility.yul\":11051:11116   */\n      tag_412\n        /* \"#utility.yul\":11113:11114   */\n      0x00\n        /* \"#utility.yul\":11102:11111   */\n      dup4\n        /* \"#utility.yul\":11098:11115   */\n      add\n        /* \"#utility.yul\":11089:11095   */\n      dup5\n        /* \"#utility.yul\":11051:11116   */\n      tag_254\n      jump\t// in\n    tag_412:\n        /* \"#utility.yul\":10913:11123   */\n      swap3\n      swap2\n      pop\n      pop\n      jump\t// out\n        /* \"#utility.yul\":11129:11267   */\n    tag_255:\n        /* \"#utility.yul\":11220:11226   */\n      0x00\n        /* \"#utility.yul\":11254:11259   */\n      dup2\n        /* \"#utility.yul\":11248:11260   */\n      mload\n        /* \"#utility.yul\":11238:11260   */\n      swap1\n      pop\n        /* \"#utility.yul\":11129:11267   */\n      swap2\n      swap1\n      pop\n      jump\t// out\n        /* \"#utility.yul\":11273:11481   */\n    tag_256:\n        /* \"#utility.yul\":11396:11407   */\n      0x00\n        /* \"#utility.yul\":11430:11436   */\n      dup3\n        /* \"#utility.yul\":11425:11428   */\n      dup3\n        /* \"#utility.yul\":11418:11437   */\n      mstore\n        /* \"#utility.yul\":11470:11474   */\n      0x20\n        /* \"#utility.yul\":11465:11468   */\n      dup3\n        /* \"#utility.yul\":11461:11475   */\n      add\n        /* \"#utility.yul\":11446:11475   */\n      swap1\n      pop\n        /* \"#utility.yul\":11273:11481   */\n      swap3\n      swap2\n      pop\n      pop\n      jump\t// out\n        /* \"#utility.yul\":11487:11643   */\n    tag_257:\n        /* \"#utility.yul\":11578:11582   */\n      0x00\n        /* \"#utility.yul\":11601:11604   */\n      dup2\n        /* \"#utility.yul\":11593:11604   */\n      swap1\n      pop\n        /* \"#utility.yul\":11631:11635   */\n      0x20\n        /* \"#utility.yul\":11626:11629   */\n      dup3\n        /* \"#utility.yul\":11622:11636   */\n      add\n        /* \"#utility.yul\":11614:11636   */\n      swap1\n      pop\n        /* \"#utility.yul\":11487:11643   */\n      swap2\n      swap1\n      pop\n      jump\t// out\n        /* \"#utility.yul\":11649:11808   */\n    tag_258:\n        /* \"#utility.yul\":11723:11734   */\n      0x00\n        /* \"#utility.yul\":11757:11763   */\n      dup3\n        /* \"#utility.yul\":11752:11755   */\n      dup3\n        /* \"#utility.yul\":11745:11764   */\n      mstore\n        /* \"#utility.yul\":11797:11801   */\n      0x20\n        /* \"#utility.yul\":11792:11795   */\n      dup3\n        /* \"#utility.yul\":11788:11802   */\n      add\n        /* \"#utility.yul\":11773:11802   */\n      swap1\n      pop\n        /* \"#utility.yul\":11649:11808   */\n      swap3\n      swap2\n      pop\n      pop\n      jump\t// out\n        /* \"#utility.yul\":11814:12171   */\n    tag_259:\n        /* \"#utility.yul\":11892:11895   */\n      0x00\n        /* \"#utility.yul\":11920:11959   */\n      tag_418\n        /* \"#utility.yul\":11953:11958   */\n      dup3\n        /* \"#utility.yul\":11920:11959   */\n      tag_244\n      jump\t// in\n    tag_418:\n        /* \"#utility.yul\":11975:12036   */\n      tag_419\n        /* \"#utility.yul\":12029:12035   */\n      dup2\n        /* \"#utility.yul\":12024:12027   */\n      dup6\n        /* \"#utility.yul\":11975:12036   */\n      tag_258\n      jump\t// in\n    tag_419:\n        /* \"#utility.yul\":11968:12036   */\n      swap4\n      pop\n        /* \"#utility.yul\":12045:12110   */\n      tag_420\n        /* \"#utility.yul\":12103:12109   */\n      dup2\n        /* \"#utility.yul\":12098:12101   */\n      dup6\n        /* \"#utility.yul\":12091:12095   */\n      0x20\n        /* \"#utility.yul\":12084:12089   */\n      dup7\n        /* \"#utility.yul\":12080:12096   */\n      add\n        /* \"#utility.yul\":12045:12110   */\n      tag_246\n      jump\t// in\n    tag_420:\n        /* \"#utility.yul\":12135:12164   */\n      tag_421\n        /* \"#utility.yul\":12157:12163   */\n      dup2\n        /* \"#utility.yul\":12135:12164   */\n      tag_236\n      jump\t// in\n    tag_421:\n        /* \"#utility.yul\":12130:12133   */\n      dup5\n        /* \"#utility.yul\":12126:12165   */\n      add\n        /* \"#utility.yul\":12119:12165   */\n      swap2\n      pop\n        /* \"#utility.yul\":11896:12171   */\n      pop\n        /* \"#utility.yul\":11814:12171   */\n      swap3\n      swap2\n      pop\n      pop\n      jump\t// out\n        /* \"#utility.yul\":12177:12301   */\n    tag_260:\n        /* \"#utility.yul\":12254:12260   */\n      0x00\n        /* \"#utility.yul\":12288:12293   */\n      dup2\n        /* \"#utility.yul\":12282:12294   */\n      mload\n        /* \"#utility.yul\":12272:12294   */\n      swap1\n      pop\n        /* \"#utility.yul\":12177:12301   */\n      swap2\n      swap1\n      pop\n      jump\t// out\n        /* \"#utility.yul\":12307:12491   */\n    tag_261:\n        /* \"#utility.yul\":12406:12417   */\n      0x00\n        /* \"#utility.yul\":12440:12446   */\n      dup3\n        /* \"#utility.yul\":12435:12438   */\n      dup3\n        /* \"#utility.yul\":12428:12447   */\n      mstore\n        /* \"#utility.yul\":12480:12484   */\n      0x20\n        /* \"#utility.yul\":12475:12478   */\n      dup3\n        /* \"#utility.yul\":12471:12485   */\n      add\n        /* \"#utility.yul\":12456:12485   */\n      swap1\n      pop\n        /* \"#utility.yul\":12307:12491   */\n      swap3\n      swap2\n      pop\n      pop\n      jump\t// out\n        /* \"#utility.yul\":12497:12639   */\n    tag_262:\n        /* \"#utility.yul\":12574:12578   */\n      0x00\n        /* \"#utility.yul\":12597:12600   */\n      dup2\n        /* \"#utility.yul\":12589:12600   */\n      swap1\n      pop\n        /* \"#utility.yul\":12627:12631   */\n      0x20\n        /* \"#utility.yul\":12622:12625   */\n      dup3\n        /* \"#utility.yul\":12618:12632   */\n      add\n        /* \"#utility.yul\":12610:12632   */\n      swap1\n      pop\n        /* \"#utility.yul\":12497:12639   */\n      swap2\n      swap1\n      pop\n      jump\t// out\n        /* \"#utility.yul\":12645:12841   */\n    tag_263:\n        /* \"#utility.yul\":12734:12744   */\n      0x00\n        /* \"#utility.yul\":12769:12835   */\n      tag_426\n        /* \"#utility.yul\":12831:12834   */\n      dup4\n        /* \"#utility.yul\":12823:12829   */\n      dup4\n        /* \"#utility.yul\":12769:12835   */\n      tag_259\n      jump\t// in\n    tag_426:\n        /* \"#utility.yul\":12755:12835   */\n      swap1\n      pop\n        /* \"#utility.yul\":12645:12841   */\n      swap3\n      swap2\n      pop\n      pop\n      jump\t// out\n        /* \"#utility.yul\":12847:12970   */\n    tag_264:\n        /* \"#utility.yul\":12927:12931   */\n      0x00\n        /* \"#utility.yul\":12959:12963   */\n      0x20\n        /* \"#utility.yul\":12954:12957   */\n      dup3\n        /* \"#utility.yul\":12950:12964   */\n      add\n        /* \"#utility.yul\":12942:12964   */\n      swap1\n      pop\n        /* \"#utility.yul\":12847:12970   */\n      swap2\n      swap1\n      pop\n      jump\t// out\n        /* \"#utility.yul\":13004:13975   */\n    tag_265:\n        /* \"#utility.yul\":13133:13136   */\n      0x00\n        /* \"#utility.yul\":13162:13226   */\n      tag_429\n        /* \"#utility.yul\":13220:13225   */\n      dup3\n        /* \"#utility.yul\":13162:13226   */\n      tag_260\n      jump\t// in\n    tag_429:\n        /* \"#utility.yul\":13242:13328   */\n      tag_430\n        /* \"#utility.yul\":13321:13327   */\n      dup2\n        /* \"#utility.yul\":13316:13319   */\n      dup6\n        /* \"#utility.yul\":13242:13328   */\n      tag_261\n      jump\t// in\n    tag_430:\n        /* \"#utility.yul\":13235:13328   */\n      swap4\n      pop\n        /* \"#utility.yul\":13354:13357   */\n      dup4\n        /* \"#utility.yul\":13399:13403   */\n      0x20\n        /* \"#utility.yul\":13391:13397   */\n      dup3\n        /* \"#utility.yul\":13387:13404   */\n      mul\n        /* \"#utility.yul\":13382:13385   */\n      dup6\n        /* \"#utility.yul\":13378:13405   */\n      add\n        /* \"#utility.yul\":13429:13495   */\n      tag_431\n        /* \"#utility.yul\":13489:13494   */\n      dup6\n        /* \"#utility.yul\":13429:13495   */\n      tag_262\n      jump\t// in\n    tag_431:\n        /* \"#utility.yul\":13518:13525   */\n      dup1\n        /* \"#utility.yul\":13549:13550   */\n      0x00\n        /* \"#utility.yul\":13534:13930   */\n    tag_432:\n        /* \"#utility.yul\":13559:13565   */\n      dup6\n        /* \"#utility.yul\":13556:13557   */\n      dup2\n        /* \"#utility.yul\":13553:13566   */\n      lt\n        /* \"#utility.yul\":13534:13930   */\n      iszero\n      tag_434\n      jumpi\n        /* \"#utility.yul\":13630:13639   */\n      dup5\n        /* \"#utility.yul\":13624:13628   */\n      dup5\n        /* \"#utility.yul\":13620:13640   */\n      sub\n        /* \"#utility.yul\":13615:13618   */\n      dup10\n        /* \"#utility.yul\":13608:13641   */\n      mstore\n        /* \"#utility.yul\":13681:13687   */\n      dup2\n        /* \"#utility.yul\":13675:13688   */\n      mload\n        /* \"#utility.yul\":13709:13793   */\n      tag_435\n        /* \"#utility.yul\":13788:13792   */\n      dup6\n        /* \"#utility.yul\":13773:13786   */\n      dup3\n        /* \"#utility.yul\":13709:13793   */\n      tag_263\n      jump\t// in\n    tag_435:\n        /* \"#utility.yul\":13701:13793   */\n      swap5\n      pop\n        /* \"#utility.yul\":13816:13886   */\n      tag_436\n        /* \"#utility.yul\":13879:13885   */\n      dup4\n        /* \"#utility.yul\":13816:13886   */\n      tag_264\n      jump\t// in\n    tag_436:\n        /* \"#utility.yul\":13806:13886   */\n      swap3\n      pop\n        /* \"#utility.yul\":13915:13919   */\n      0x20\n        /* \"#utility.yul\":13910:13913   */\n      dup11\n        /* \"#utility.yul\":13906:13920   */\n      add\n        /* \"#utility.yul\":13899:13920   */\n      swap10\n      pop\n        /* \"#utility.yul\":13594:13930   */\n      pop\n        /* \"#utility.yul\":13581:13582   */\n      0x01\n        /* \"#utility.yul\":13578:13579   */\n      dup2\n        /* \"#utility.yul\":13574:13583   */\n      add\n        /* \"#utility.yul\":13569:13583   */\n      swap1\n      pop\n        /* \"#utility.yul\":13534:13930   */\n      jump(tag_432)\n    tag_434:\n        /* \"#utility.yul\":13538:13552   */\n      pop\n        /* \"#utility.yul\":13946:13950   */\n      dup3\n        /* \"#utility.yul\":13939:13950   */\n      swap8\n      pop\n        /* \"#utility.yul\":13966:13969   */\n      dup8\n        /* \"#utility.yul\":13959:13969   */\n      swap6\n      pop\n        /* \"#utility.yul\":13138:13975   */\n      pop\n      pop\n      pop\n      pop\n      pop\n        /* \"#utility.yul\":13004:13975   */\n      swap3\n      swap2\n      pop\n      pop\n      jump\t// out\n        /* \"#utility.yul\":14027:14921   */\n    tag_266:\n        /* \"#utility.yul\":14134:14137   */\n      0x00\n        /* \"#utility.yul\":14170:14174   */\n      0x60\n        /* \"#utility.yul\":14165:14168   */\n      dup4\n        /* \"#utility.yul\":14161:14175   */\n      add\n        /* \"#utility.yul\":14259:14263   */\n      0x00\n        /* \"#utility.yul\":14252:14257   */\n      dup4\n        /* \"#utility.yul\":14248:14264   */\n      add\n        /* \"#utility.yul\":14242:14265   */\n      mload\n        /* \"#utility.yul\":14278:14341   */\n      tag_438\n        /* \"#utility.yul\":14335:14339   */\n      0x00\n        /* \"#utility.yul\":14330:14333   */\n      dup7\n        /* \"#utility.yul\":14326:14340   */\n      add\n        /* \"#utility.yul\":14312:14324   */\n      dup3\n        /* \"#utility.yul\":14278:14341   */\n      tag_230\n      jump\t// in\n    tag_438:\n        /* \"#utility.yul\":14185:14351   */\n      pop\n        /* \"#utility.yul\":14433:14437   */\n      0x20\n        /* \"#utility.yul\":14426:14431   */\n      dup4\n        /* \"#utility.yul\":14422:14438   */\n      add\n        /* \"#utility.yul\":14416:14439   */\n      mload\n        /* \"#utility.yul\":14486:14489   */\n      dup5\n        /* \"#utility.yul\":14480:14484   */\n      dup3\n        /* \"#utility.yul\":14476:14490   */\n      sub\n        /* \"#utility.yul\":14469:14473   */\n      0x20\n        /* \"#utility.yul\":14464:14467   */\n      dup7\n        /* \"#utility.yul\":14460:14474   */\n      add\n        /* \"#utility.yul\":14453:14491   */\n      mstore\n        /* \"#utility.yul\":14512:14585   */\n      tag_439\n        /* \"#utility.yul\":14580:14584   */\n      dup3\n        /* \"#utility.yul\":14566:14578   */\n      dup3\n        /* \"#utility.yul\":14512:14585   */\n      tag_259\n      jump\t// in\n    tag_439:\n        /* \"#utility.yul\":14504:14585   */\n      swap2\n      pop\n        /* \"#utility.yul\":14361:14596   */\n      pop\n        /* \"#utility.yul\":14681:14685   */\n      0x40\n        /* \"#utility.yul\":14674:14679   */\n      dup4\n        /* \"#utility.yul\":14670:14686   */\n      add\n        /* \"#utility.yul\":14664:14687   */\n      mload\n        /* \"#utility.yul\":14734:14737   */\n      dup5\n        /* \"#utility.yul\":14728:14732   */\n      dup3\n        /* \"#utility.yul\":14724:14738   */\n      sub\n        /* \"#utility.yul\":14717:14721   */\n      0x40\n        /* \"#utility.yul\":14712:14715   */\n      dup7\n        /* \"#utility.yul\":14708:14722   */\n      add\n        /* \"#utility.yul\":14701:14739   */\n      mstore\n        /* \"#utility.yul\":14760:14883   */\n      tag_440\n        /* \"#utility.yul\":14878:14882   */\n      dup3\n        /* \"#utility.yul\":14864:14876   */\n      dup3\n        /* \"#utility.yul\":14760:14883   */\n      tag_265\n      jump\t// in\n    tag_440:\n        /* \"#utility.yul\":14752:14883   */\n      swap2\n      pop\n        /* \"#utility.yul\":14606:14894   */\n      pop\n        /* \"#utility.yul\":14911:14915   */\n      dup1\n        /* \"#utility.yul\":14904:14915   */\n      swap2\n      pop\n        /* \"#utility.yul\":14139:14921   */\n      pop\n        /* \"#utility.yul\":14027:14921   */\n      swap3\n      swap2\n      pop\n      pop\n      jump\t// out\n        /* \"#utility.yul\":14927:15179   */\n    tag_267:\n        /* \"#utility.yul\":15044:15054   */\n      0x00\n        /* \"#utility.yul\":15079:15173   */\n      tag_442\n        /* \"#utility.yul\":15169:15172   */\n      dup4\n        /* \"#utility.yul\":15161:15167   */\n      dup4\n        /* \"#utility.yul\":15079:15173   */\n      tag_266\n      jump\t// in\n    tag_442:\n        /* \"#utility.yul\":15065:15173   */\n      swap1\n      pop\n        /* \"#utility.yul\":14927:15179   */\n      swap3\n      swap2\n      pop\n      pop\n      jump\t// out\n        /* \"#utility.yul\":15185:15322   */\n    tag_268:\n        /* \"#utility.yul\":15279:15283   */\n      0x00\n        /* \"#utility.yul\":15311:15315   */\n      0x20\n        /* \"#utility.yul\":15306:15309   */\n      dup3\n        /* \"#utility.yul\":15302:15316   */\n      add\n        /* \"#utility.yul\":15294:15316   */\n      swap1\n      pop\n        /* \"#utility.yul\":15185:15322   */\n      swap2\n      swap1\n      pop\n      jump\t// out\n        /* \"#utility.yul\":15378:16481   */\n    tag_269:\n        /* \"#utility.yul\":15545:15548   */\n      0x00\n        /* \"#utility.yul\":15574:15652   */\n      tag_445\n        /* \"#utility.yul\":15646:15651   */\n      dup3\n        /* \"#utility.yul\":15574:15652   */\n      tag_255\n      jump\t// in\n    tag_445:\n        /* \"#utility.yul\":15668:15778   */\n      tag_446\n        /* \"#utility.yul\":15771:15777   */\n      dup2\n        /* \"#utility.yul\":15766:15769   */\n      dup6\n        /* \"#utility.yul\":15668:15778   */\n      tag_256\n      jump\t// in\n    tag_446:\n        /* \"#utility.yul\":15661:15778   */\n      swap4\n      pop\n        /* \"#utility.yul\":15804:15807   */\n      dup4\n        /* \"#utility.yul\":15849:15853   */\n      0x20\n        /* \"#utility.yul\":15841:15847   */\n      dup3\n        /* \"#utility.yul\":15837:15854   */\n      mul\n        /* \"#utility.yul\":15832:15835   */\n      dup6\n        /* \"#utility.yul\":15828:15855   */\n      add\n        /* \"#utility.yul\":15879:15959   */\n      tag_447\n        /* \"#utility.yul\":15953:15958   */\n      dup6\n        /* \"#utility.yul\":15879:15959   */\n      tag_257\n      jump\t// in\n    tag_447:\n        /* \"#utility.yul\":15982:15989   */\n      dup1\n        /* \"#utility.yul\":16013:16014   */\n      0x00\n        /* \"#utility.yul\":15998:16436   */\n    tag_448:\n        /* \"#utility.yul\":16023:16029   */\n      dup6\n        /* \"#utility.yul\":16020:16021   */\n      dup2\n        /* \"#utility.yul\":16017:16030   */\n      lt\n        /* \"#utility.yul\":15998:16436   */\n      iszero\n      tag_450\n      jumpi\n        /* \"#utility.yul\":16094:16103   */\n      dup5\n        /* \"#utility.yul\":16088:16092   */\n      dup5\n        /* \"#utility.yul\":16084:16104   */\n      sub\n        /* \"#utility.yul\":16079:16082   */\n      dup10\n        /* \"#utility.yul\":16072:16105   */\n      mstore\n        /* \"#utility.yul\":16145:16151   */\n      dup2\n        /* \"#utility.yul\":16139:16152   */\n      mload\n        /* \"#utility.yul\":16173:16285   */\n      tag_451\n        /* \"#utility.yul\":16280:16284   */\n      dup6\n        /* \"#utility.yul\":16265:16278   */\n      dup3\n        /* \"#utility.yul\":16173:16285   */\n      tag_267\n      jump\t// in\n    tag_451:\n        /* \"#utility.yul\":16165:16285   */\n      swap5\n      pop\n        /* \"#utility.yul\":16308:16392   */\n      tag_452\n        /* \"#utility.yul\":16385:16391   */\n      dup4\n        /* \"#utility.yul\":16308:16392   */\n      tag_268\n      jump\t// in\n    tag_452:\n        /* \"#utility.yul\":16298:16392   */\n      swap3\n      pop\n        /* \"#utility.yul\":16421:16425   */\n      0x20\n        /* \"#utility.yul\":16416:16419   */\n      dup11\n        /* \"#utility.yul\":16412:16426   */\n      add\n        /* \"#utility.yul\":16405:16426   */\n      swap10\n      pop\n        /* \"#utility.yul\":16058:16436   */\n      pop\n        /* \"#utility.yul\":16045:16046   */\n      0x01\n        /* \"#utility.yul\":16042:16043   */\n      dup2\n        /* \"#utility.yul\":16038:16047   */\n      add\n        /* \"#utility.yul\":16033:16047   */\n      swap1\n      pop\n        /* \"#utility.yul\":15998:16436   */\n      jump(tag_448)\n    tag_450:\n        /* \"#utility.yul\":16002:16016   */\n      pop\n        /* \"#utility.yul\":16452:16456   */\n      dup3\n        /* \"#utility.yul\":16445:16456   */\n      swap8\n      pop\n        /* \"#utility.yul\":16472:16475   */\n      dup8\n        /* \"#utility.yul\":16465:16475   */\n      swap6\n      pop\n        /* \"#utility.yul\":15550:16481   */\n      pop\n      pop\n      pop\n      pop\n      pop\n        /* \"#utility.yul\":15378:16481   */\n      swap3\n      swap2\n      pop\n      pop\n      jump\t// out\n        /* \"#utility.yul\":16487:16956   */\n    tag_97:\n        /* \"#utility.yul\":16678:16682   */\n      0x00\n        /* \"#utility.yul\":16716:16718   */\n      0x20\n        /* \"#utility.yul\":16705:16714   */\n      dup3\n        /* \"#utility.yul\":16701:16719   */\n      add\n        /* \"#utility.yul\":16693:16719   */\n      swap1\n      pop\n        /* \"#utility.yul\":16765:16774   */\n      dup2\n        /* \"#utility.yul\":16759:16763   */\n      dup2\n        /* \"#utility.yul\":16755:16775   */\n      sub\n        /* \"#utility.yul\":16751:16752   */\n      0x00\n        /* \"#utility.yul\":16740:16749   */\n      dup4\n        /* \"#utility.yul\":16736:16753   */\n      add\n        /* \"#utility.yul\":16729:16776   */\n      mstore\n        /* \"#utility.yul\":16793:16949   */\n      tag_454\n        /* \"#utility.yul\":16944:16948   */\n      dup2\n        /* \"#utility.yul\":16935:16941   */\n      dup5\n        /* \"#utility.yul\":16793:16949   */\n      tag_269\n      jump\t// in\n    tag_454:\n        /* \"#utility.yul\":16785:16949   */\n      swap1\n      pop\n        /* \"#utility.yul\":16487:16956   */\n      swap3\n      swap2\n      pop\n      pop\n      jump\t// out\n        /* \"#utility.yul\":16962:17796   */\n    tag_100:\n        /* \"#utility.yul\":17050:17056   */\n      0x00\n        /* \"#utility.yul\":17058:17064   */\n      dup1\n        /* \"#utility.yul\":17107:17109   */\n      0x40\n        /* \"#utility.yul\":17095:17104   */\n      dup4\n        /* \"#utility.yul\":17086:17093   */\n      dup6\n        /* \"#utility.yul\":17082:17105   */\n      sub\n        /* \"#utility.yul\":17078:17110   */\n      slt\n        /* \"#utility.yul\":17075:17194   */\n      iszero\n      tag_456\n      jumpi\n        /* \"#utility.yul\":17113:17192   */\n      tag_457\n      tag_222\n      jump\t// in\n    tag_457:\n        /* \"#utility.yul\":17075:17194   */\n    tag_456:\n        /* \"#utility.yul\":17261:17262   */\n      0x00\n        /* \"#utility.yul\":17250:17259   */\n      dup4\n        /* \"#utility.yul\":17246:17263   */\n      add\n        /* \"#utility.yul\":17233:17264   */\n      calldataload\n        /* \"#utility.yul\":17291:17309   */\n      0xffffffffffffffff\n        /* \"#utility.yul\":17283:17289   */\n      dup2\n        /* \"#utility.yul\":17280:17310   */\n      gt\n        /* \"#utility.yul\":17277:17394   */\n      iszero\n      tag_458\n      jumpi\n        /* \"#utility.yul\":17313:17392   */\n      tag_459\n      tag_223\n      jump\t// in\n    tag_459:\n        /* \"#utility.yul\":17277:17394   */\n    tag_458:\n        /* \"#utility.yul\":17418:17481   */\n      tag_460\n        /* \"#utility.yul\":17473:17480   */\n      dup6\n        /* \"#utility.yul\":17464:17470   */\n      dup3\n        /* \"#utility.yul\":17453:17462   */\n      dup7\n        /* \"#utility.yul\":17449:17471   */\n      add\n        /* \"#utility.yul\":17418:17481   */\n      tag_243\n      jump\t// in\n    tag_460:\n        /* \"#utility.yul\":17408:17481   */\n      swap3\n      pop\n        /* \"#utility.yul\":17204:17491   */\n      pop\n        /* \"#utility.yul\":17558:17560   */\n      0x20\n        /* \"#utility.yul\":17547:17556   */\n      dup4\n        /* \"#utility.yul\":17543:17561   */\n      add\n        /* \"#utility.yul\":17530:17562   */\n      calldataload\n        /* \"#utility.yul\":17589:17607   */\n      0xffffffffffffffff\n        /* \"#utility.yul\":17581:17587   */\n      dup2\n        /* \"#utility.yul\":17578:17608   */\n      gt\n        /* \"#utility.yul\":17575:17692   */\n      iszero\n      tag_461\n      jumpi\n        /* \"#utility.yul\":17611:17690   */\n      tag_462\n      tag_223\n      jump\t// in\n    tag_462:\n        /* \"#utility.yul\":17575:17692   */\n    tag_461:\n        /* \"#utility.yul\":17716:17779   */\n      tag_463\n        /* \"#utility.yul\":17771:17778   */\n      dup6\n        /* \"#utility.yul\":17762:17768   */\n      dup3\n        /* \"#utility.yul\":17751:17760   */\n      dup7\n        /* \"#utility.yul\":17747:17769   */\n      add\n        /* \"#utility.yul\":17716:17779   */\n      tag_243\n      jump\t// in\n    tag_463:\n        /* \"#utility.yul\":17706:17779   */\n      swap2\n      pop\n        /* \"#utility.yul\":17501:17789   */\n      pop\n        /* \"#utility.yul\":16962:17796   */\n      swap3\n      pop\n      swap3\n      swap1\n      pop\n      jump\t// out\n        /* \"#utility.yul\":17802:17950   */\n    tag_270:\n        /* \"#utility.yul\":17904:17915   */\n      0x00\n        /* \"#utility.yul\":17941:17944   */\n      dup2\n        /* \"#utility.yul\":17926:17944   */\n      swap1\n      pop\n        /* \"#utility.yul\":17802:17950   */\n      swap3\n      swap2\n      pop\n      pop\n      jump\t// out\n        /* \"#utility.yul\":17956:18346   */\n    tag_271:\n        /* \"#utility.yul\":18062:18065   */\n      0x00\n        /* \"#utility.yul\":18090:18129   */\n      tag_466\n        /* \"#utility.yul\":18123:18128   */\n      dup3\n        /* \"#utility.yul\":18090:18129   */\n      tag_244\n      jump\t// in\n    tag_466:\n        /* \"#utility.yul\":18145:18234   */\n      tag_467\n        /* \"#utility.yul\":18227:18233   */\n      dup2\n        /* \"#utility.yul\":18222:18225   */\n      dup6\n        /* \"#utility.yul\":18145:18234   */\n      tag_270\n      jump\t// in\n    tag_467:\n        /* \"#utility.yul\":18138:18234   */\n      swap4\n      pop\n        /* \"#utility.yul\":18243:18308   */\n      tag_468\n        /* \"#utility.yul\":18301:18307   */\n      dup2\n        /* \"#utility.yul\":18296:18299   */\n      dup6\n        /* \"#utility.yul\":18289:18293   */\n      0x20\n        /* \"#utility.yul\":18282:18287   */\n      dup7\n        /* \"#utility.yul\":18278:18294   */\n      add\n        /* \"#utility.yul\":18243:18308   */\n      tag_246\n      jump\t// in\n    tag_468:\n        /* \"#utility.yul\":18333:18339   */\n      dup1\n        /* \"#utility.yul\":18328:18331   */\n      dup5\n        /* \"#utility.yul\":18324:18340   */\n      add\n        /* \"#utility.yul\":18317:18340   */\n      swap2\n      pop\n        /* \"#utility.yul\":18066:18346   */\n      pop\n        /* \"#utility.yul\":17956:18346   */\n      swap3\n      swap2\n      pop\n      pop\n      jump\t// out\n        /* \"#utility.yul\":18352:18627   */\n    tag_109:\n        /* \"#utility.yul\":18484:18487   */\n      0x00\n        /* \"#utility.yul\":18506:18601   */\n      tag_470\n        /* \"#utility.yul\":18597:18600   */\n      dup3\n        /* \"#utility.yul\":18588:18594   */\n      dup5\n        /* \"#utility.yul\":18506:18601   */\n      tag_271\n      jump\t// in\n    tag_470:\n        /* \"#utility.yul\":18499:18601   */\n      swap2\n      pop\n        /* \"#utility.yul\":18618:18621   */\n      dup2\n        /* \"#utility.yul\":18611:18621   */\n      swap1\n      pop\n        /* \"#utility.yul\":18352:18627   */\n      swap3\n      swap2\n      pop\n      pop\n      jump\t// out\n        /* \"#utility.yul\":18633:18813   */\n    tag_272:\n        /* \"#utility.yul\":18681:18758   */\n      0x4e487b7100000000000000000000000000000000000000000000000000000000\n        /* \"#utility.yul\":18678:18679   */\n      0x00\n        /* \"#utility.yul\":18671:18759   */\n      mstore\n        /* \"#utility.yul\":18778:18782   */\n      0x22\n        /* \"#utility.yul\":18775:18776   */\n      0x04\n        /* \"#utility.yul\":18768:18783   */\n      mstore\n        /* \"#utility.yul\":18802:18806   */\n      0x24\n        /* \"#utility.yul\":18799:18800   */\n      0x00\n        /* \"#utility.yul\":18792:18807   */\n      revert\n        /* \"#utility.yul\":18819:19139   */\n    tag_111:\n        /* \"#utility.yul\":18863:18869   */\n      0x00\n        /* \"#utility.yul\":18900:18901   */\n      0x02\n        /* \"#utility.yul\":18894:18898   */\n      dup3\n        /* \"#utility.yul\":18890:18902   */\n      div\n        /* \"#utility.yul\":18880:18902   */\n      swap1\n      pop\n        /* \"#utility.yul\":18947:18948   */\n      0x01\n        /* \"#utility.yul\":18941:18945   */\n      dup3\n        /* \"#utility.yul\":18937:18949   */\n      and\n        /* \"#utility.yul\":18968:18986   */\n      dup1\n        /* \"#utility.yul\":18958:19039   */\n      tag_473\n      jumpi\n        /* \"#utility.yul\":19024:19028   */\n      0x7f\n        /* \"#utility.yul\":19016:19022   */\n      dup3\n        /* \"#utility.yul\":19012:19029   */\n      and\n        /* \"#utility.yul\":19002:19029   */\n      swap2\n      pop\n        /* \"#utility.yul\":18958:19039   */\n    tag_473:\n        /* \"#utility.yul\":19086:19088   */\n      0x20\n        /* \"#utility.yul\":19078:19084   */\n      dup3\n        /* \"#utility.yul\":19075:19089   */\n      lt\n        /* \"#utility.yul\":19055:19073   */\n      dup2\n        /* \"#utility.yul\":19052:19090   */\n      sub\n        /* \"#utility.yul\":19049:19133   */\n      tag_474\n      jumpi\n        /* \"#utility.yul\":19105:19123   */\n      tag_475\n      tag_272\n      jump\t// in\n    tag_475:\n        /* \"#utility.yul\":19049:19133   */\n    tag_474:\n        /* \"#utility.yul\":18870:19139   */\n      pop\n        /* \"#utility.yul\":18819:19139   */\n      swap2\n      swap1\n      pop\n      jump\t// out\n        /* \"#utility.yul\":19145:19325   */\n    tag_273:\n        /* \"#utility.yul\":19193:19270   */\n      0x4e487b7100000000000000000000000000000000000000000000000000000000\n        /* \"#utility.yul\":19190:19191   */\n      0x00\n        /* \"#utility.yul\":19183:19271   */\n      mstore\n        /* \"#utility.yul\":19290:19294   */\n      0x11\n        /* \"#utility.yul\":19287:19288   */\n      0x04\n        /* \"#utility.yul\":19280:19295   */\n      mstore\n        /* \"#utility.yul\":19314:19318   */\n      0x24\n        /* \"#utility.yul\":19311:19312   */\n      0x00\n        /* \"#utility.yul\":19304:19319   */\n      revert\n        /* \"#utility.yul\":19331:19522   */\n    tag_122:\n        /* \"#utility.yul\":19371:19374   */\n      0x00\n        /* \"#utility.yul\":19390:19410   */\n      tag_478\n        /* \"#utility.yul\":19408:19409   */\n      dup3\n        /* \"#utility.yul\":19390:19410   */\n      tag_224\n      jump\t// in\n    tag_478:\n        /* \"#utility.yul\":19385:19410   */\n      swap2\n      pop\n        /* \"#utility.yul\":19424:19444   */\n      tag_479\n        /* \"#utility.yul\":19442:19443   */\n      dup4\n        /* \"#utility.yul\":19424:19444   */\n      tag_224\n      jump\t// in\n    tag_479:\n        /* \"#utility.yul\":19419:19444   */\n      swap3\n      pop\n        /* \"#utility.yul\":19467:19468   */\n      dup3\n        /* \"#utility.yul\":19464:19465   */\n      dup3\n        /* \"#utility.yul\":19460:19469   */\n      add\n        /* \"#utility.yul\":19453:19469   */\n      swap1\n      pop\n        /* \"#utility.yul\":19488:19491   */\n      dup1\n        /* \"#utility.yul\":19485:19486   */\n      dup3\n        /* \"#utility.yul\":19482:19492   */\n      gt\n        /* \"#utility.yul\":19479:19515   */\n      iszero\n      tag_480\n      jumpi\n        /* \"#utility.yul\":19495:19513   */\n      tag_481\n      tag_273\n      jump\t// in\n    tag_481:\n        /* \"#utility.yul\":19479:19515   */\n    tag_480:\n        /* \"#utility.yul\":19331:19522   */\n      swap3\n      swap2\n      pop\n      pop\n      jump\t// out\n        /* \"#utility.yul\":19528:19669   */\n    tag_274:\n        /* \"#utility.yul\":19577:19581   */\n      0x00\n        /* \"#utility.yul\":19600:19603   */\n      dup2\n        /* \"#utility.yul\":19592:19603   */\n      swap1\n      pop\n        /* \"#utility.yul\":19623:19626   */\n      dup2\n        /* \"#utility.yul\":19620:19621   */\n      0x00\n        /* \"#utility.yul\":19613:19627   */\n      mstore\n        /* \"#utility.yul\":19657:19661   */\n      0x20\n        /* \"#utility.yul\":19654:19655   */\n      0x00\n        /* \"#utility.yul\":19644:19662   */\n      keccak256\n        /* \"#utility.yul\":19636:19662   */\n      swap1\n      pop\n        /* \"#utility.yul\":19528:19669   */\n      swap2\n      swap1\n      pop\n      jump\t// out\n        /* \"#utility.yul\":19675:19768   */\n    tag_275:\n        /* \"#utility.yul\":19712:19718   */\n      0x00\n        /* \"#utility.yul\":19759:19761   */\n      0x20\n        /* \"#utility.yul\":19754:19756   */\n      0x1f\n        /* \"#utility.yul\":19747:19752   */\n      dup4\n        /* \"#utility.yul\":19743:19757   */\n      add\n        /* \"#utility.yul\":19739:19762   */\n      div\n        /* \"#utility.yul\":19729:19762   */\n      swap1\n      pop\n        /* \"#utility.yul\":19675:19768   */\n      swap2\n      swap1\n      pop\n      jump\t// out\n        /* \"#utility.yul\":19774:19881   */\n    tag_276:\n        /* \"#utility.yul\":19818:19826   */\n      0x00\n        /* \"#utility.yul\":19868:19873   */\n      dup3\n        /* \"#utility.yul\":19862:19866   */\n      dup3\n        /* \"#utility.yul\":19858:19874   */\n      shl\n        /* \"#utility.yul\":19837:19874   */\n      swap1\n      pop\n        /* \"#utility.yul\":19774:19881   */\n      swap3\n      swap2\n      pop\n      pop\n      jump\t// out\n        /* \"#utility.yul\":19887:20280   */\n    tag_277:\n        /* \"#utility.yul\":19956:19962   */\n      0x00\n        /* \"#utility.yul\":20006:20007   */\n      0x08\n        /* \"#utility.yul\":19994:20004   */\n      dup4\n        /* \"#utility.yul\":19990:20008   */\n      mul\n        /* \"#utility.yul\":20029:20126   */\n      tag_486\n        /* \"#utility.yul\":20059:20125   */\n      0xffffffffffffffffffffffffffffffffffffffffffffffffffffffffffffffff\n        /* \"#utility.yul\":20048:20057   */\n      dup3\n        /* \"#utility.yul\":20029:20126   */\n      tag_276\n      jump\t// in\n    tag_486:\n        /* \"#utility.yul\":20147:20186   */\n      tag_487\n        /* \"#utility.yul\":20177:20185   */\n      dup7\n        /* \"#utility.yul\":20166:20175   */\n      dup4\n        /* \"#utility.yul\":20147:20186   */\n      tag_276\n      jump\t// in\n    tag_487:\n        /* \"#utility.yul\":20135:20186   */\n      swap6\n      pop\n        /* \"#utility.yul\":20219:20223   */\n      dup1\n        /* \"#utility.yul\":20215:20224   */\n      not\n        /* \"#utility.yul\":20208:20213   */\n      dup5\n        /* \"#utility.yul\":20204:20225   */\n      and\n        /* \"#utility.yul\":20195:20225   */\n      swap4\n      pop\n        /* \"#utility.yul\":20268:20272   */\n      dup1\n        /* \"#utility.yul\":20258:20266   */\n      dup7\n        /* \"#utility.yul\":20254:20273   */\n      and\n        /* \"#utility.yul\":20247:20252   */\n      dup5\n        /* \"#utility.yul\":20244:20274   */\n      or\n        /* \"#utility.yul\":20234:20274   */\n      swap3\n      pop\n        /* \"#utility.yul\":19963:20280   */\n      pop\n      pop\n        /* \"#utility.yul\":19887:20280   */\n      swap4\n      swap3\n      pop\n      pop\n      pop\n      jump\t// out\n        /* \"#utility.yul\":20286:20346   */\n    tag_278:\n        /* \"#utility.yul\":20314:20317   */\n      0x00\n        /* \"#utility.yul\":20335:20340   */\n      dup2\n        /* \"#utility.yul\":20328:20340   */\n      swap1\n      pop\n        /* \"#utility.yul\":20286:20346   */\n      swap2\n      swap1\n      pop\n      jump\t// out\n        /* \"#utility.yul\":20352:20494   */\n    tag_279:\n        /* \"#utility.yul\":20402:20411   */\n      0x00\n        /* \"#utility.yul\":20435:20488   */\n      tag_490\n        /* \"#utility.yul\":20453:20487   */\n      tag_491\n        /* \"#utility.yul\":20462:20486   */\n      tag_492\n        /* \"#utility.yul\":20480:20485   */\n      dup5\n        /* \"#utility.yul\":20462:20486   */\n      tag_224\n      jump\t// in\n    tag_492:\n        /* \"#utility.yul\":20453:20487   */\n      tag_278\n      jump\t// in\n    tag_491:\n        /* \"#utility.yul\":20435:20488   */\n      tag_224\n      jump\t// in\n    tag_490:\n        /* \"#utility.yul\":20422:20488   */\n      swap1\n      pop\n        /* \"#utility.yul\":20352:20494   */\n      swap2\n      swap1\n      pop\n      jump\t// out\n        /* \"#utility.yul\":20500:20575   */\n    tag_280:\n        /* \"#utility.yul\":20543:20546   */\n      0x00\n        /* \"#utility.yul\":20564:20569   */\n      dup2\n        /* \"#utility.yul\":20557:20569   */\n      swap1\n      pop\n        /* \"#utility.yul\":20500:20575   */\n      swap2\n      swap1\n      pop\n      jump\t// out\n        /* \"#utility.yul\":20581:20850   */\n    tag_281:\n        /* \"#utility.yul\":20691:20730   */\n      tag_495\n        /* \"#utility.yul\":20722:20729   */\n      dup4\n        /* \"#utility.yul\":20691:20730   */\n      tag_279\n      jump\t// in\n    tag_495:\n        /* \"#utility.yul\":20752:20843   */\n      tag_496\n        /* \"#utility.yul\":20801:20842   */\n      tag_497\n        /* \"#utility.yul\":20825:20841   */\n      dup3\n        /* \"#utility.yul\":20801:20842   */\n      tag_280\n      jump\t// in\n    tag_497:\n        /* \"#utility.yul\":20793:20799   */\n      dup5\n        /* \"#utility.yul\":20786:20790   */\n      dup5\n        /* \"#utility.yul\":20780:20791   */\n      sload\n        /* \"#utility.yul\":20752:20843   */\n      tag_277\n      jump\t// in\n    tag_496:\n        /* \"#utility.yul\":20746:20750   */\n      dup3\n        /* \"#utility.yul\":20739:20844   */\n      sstore\n        /* \"#utility.yul\":20657:20850   */\n      pop\n        /* \"#utility.yul\":20581:20850   */\n      pop\n      pop\n      pop\n      jump\t// out\n        /* \"#utility.yul\":20856:20929   */\n    tag_282:\n        /* \"#utility.yul\":20901:20904   */\n      0x00\n        /* \"#utility.yul\":20856:20929   */\n      swap1\n      jump\t// out\n        /* \"#utility.yul\":20935:21124   */\n    tag_283:\n        /* \"#utility.yul\":21012:21044   */\n      tag_500\n      tag_282\n      jump\t// in\n    tag_500:\n        /* \"#utility.yul\":21053:21118   */\n      tag_501\n        /* \"#utility.yul\":21111:21117   */\n      dup2\n        /* \"#utility.yul\":21103:21109   */\n      dup5\n        /* \"#utility.yul\":21097:21101   */\n      dup5\n        /* \"#utility.yul\":21053:21118   */\n      tag_281\n      jump\t// in\n    tag_501:\n        /* \"#utility.yul\":20988:21124   */\n      pop\n        /* \"#utility.yul\":20935:21124   */\n      pop\n      pop\n      jump\t// out\n        /* \"#utility.yul\":21130:21316   */\n    tag_284:\n        /* \"#utility.yul\":21190:21310   */\n    tag_503:\n        /* \"#utility.yul\":21207:21210   */\n      dup2\n        /* \"#utility.yul\":21200:21205   */\n      dup2\n        /* \"#utility.yul\":21197:21211   */\n      lt\n        /* \"#utility.yul\":21190:21310   */\n      iszero\n      tag_505\n      jumpi\n        /* \"#utility.yul\":21261:21300   */\n      tag_506\n        /* \"#utility.yul\":21298:21299   */\n      0x00\n        /* \"#utility.yul\":21291:21296   */\n      dup3\n        /* \"#utility.yul\":21261:21300   */\n      tag_283\n      jump\t// in\n    tag_506:\n        /* \"#utility.yul\":21234:21235   */\n      0x01\n        /* \"#utility.yul\":21227:21232   */\n      dup2\n        /* \"#utility.yul\":21223:21236   */\n      add\n        /* \"#utility.yul\":21214:21236   */\n      swap1\n      pop\n        /* \"#utility.yul\":21190:21310   */\n      jump(tag_503)\n    tag_505:\n        /* \"#utility.yul\":21130:21316   */\n      pop\n      pop\n      jump\t// out\n        /* \"#utility.yul\":21322:21865   */\n    tag_285:\n        /* \"#utility.yul\":21423:21425   */\n      0x1f\n        /* \"#utility.yul\":21418:21421   */\n      dup3\n        /* \"#utility.yul\":21415:21426   */\n      gt\n        /* \"#utility.yul\":21412:21858   */\n      iszero\n      tag_508\n      jumpi\n        /* \"#utility.yul\":21457:21495   */\n      tag_509\n        /* \"#utility.yul\":21489:21494   */\n      dup2\n        /* \"#utility.yul\":21457:21495   */\n      tag_274\n      jump\t// in\n    tag_509:\n        /* \"#utility.yul\":21541:21570   */\n      tag_510\n        /* \"#utility.yul\":21559:21569   */\n      dup5\n        /* \"#utility.yul\":21541:21570   */\n      tag_275\n      jump\t// in\n    tag_510:\n        /* \"#utility.yul\":21531:21539   */\n      dup2\n        /* \"#utility.yul\":21527:21571   */\n      add\n        /* \"#utility.yul\":21724:21726   */\n      0x20\n        /* \"#utility.yul\":21712:21722   */\n      dup6\n        /* \"#utility.yul\":21709:21727   */\n      lt\n        /* \"#utility.yul\":21706:21755   */\n      iszero\n      tag_511\n      jumpi\n        /* \"#utility.yul\":21745:21753   */\n      dup2\n        /* \"#utility.yul\":21730:21753   */\n      swap1\n      pop\n        /* \"#utility.yul\":21706:21755   */\n    tag_511:\n        /* \"#utility.yul\":21768:21848   */\n      tag_512\n        /* \"#utility.yul\":21824:21846   */\n      tag_513\n        /* \"#utility.yul\":21842:21845   */\n      dup6\n        /* \"#utility.yul\":21824:21846   */\n      tag_275\n      jump\t// in\n    tag_513:\n        /* \"#utility.yul\":21814:21822   */\n      dup4\n        /* \"#utility.yul\":21810:21847   */\n      add\n        /* \"#utility.yul\":21797:21808   */\n      dup3\n        /* \"#utility.yul\":21768:21848   */\n      tag_284\n      jump\t// in\n    tag_512:\n        /* \"#utility.yul\":21427:21858   */\n      pop\n      pop\n        /* \"#utility.yul\":21412:21858   */\n    tag_508:\n        /* \"#utility.yul\":21322:21865   */\n      pop\n      pop\n      pop\n      jump\t// out\n        /* \"#utility.yul\":21871:21988   */\n    tag_286:\n        /* \"#utility.yul\":21925:21933   */\n      0x00\n        /* \"#utility.yul\":21975:21980   */\n      dup3\n        /* \"#utility.yul\":21969:21973   */\n      dup3\n        /* \"#utility.yul\":21965:21981   */\n      shr\n        /* \"#utility.yul\":21944:21981   */\n      swap1\n      pop\n        /* \"#utility.yul\":21871:21988   */\n      swap3\n      swap2\n      pop\n      pop\n      jump\t// out\n        /* \"#utility.yul\":21994:22163   */\n    tag_287:\n        /* \"#utility.yul\":22038:22044   */\n      0x00\n        /* \"#utility.yul\":22071:22122   */\n      tag_516\n        /* \"#utility.yul\":22119:22120   */\n      0x00\n        /* \"#utility.yul\":22115:22121   */\n      not\n        /* \"#utility.yul\":22107:22112   */\n      dup5\n        /* \"#utility.yul\":22104:22105   */\n      0x08\n        /* \"#utility.yul\":22100:22113   */\n      mul\n        /* \"#utility.yul\":22071:22122   */\n      tag_286\n      jump\t// in\n    tag_516:\n        /* \"#utility.yul\":22067:22123   */\n      not\n        /* \"#utility.yul\":22152:22156   */\n      dup1\n        /* \"#utility.yul\":22146:22150   */\n      dup4\n        /* \"#utility.yul\":22142:22157   */\n      and\n        /* \"#utility.yul\":22132:22157   */\n      swap2\n      pop\n        /* \"#utility.yul\":22045:22163   */\n      pop\n        /* \"#utility.yul\":21994:22163   */\n      swap3\n      swap2\n      pop\n      pop\n      jump\t// out\n        /* \"#utility.yul\":22168:22463   */\n    tag_288:\n        /* \"#utility.yul\":22244:22248   */\n      0x00\n        /* \"#utility.yul\":22390:22419   */\n      tag_518\n        /* \"#utility.yul\":22415:22418   */\n      dup4\n        /* \"#utility.yul\":22409:22413   */\n      dup4\n        /* \"#utility.yul\":22390:22419   */\n      tag_287\n      jump\t// in\n    tag_518:\n        /* \"#utility.yul\":22382:22419   */\n      swap2\n      pop\n        /* \"#utility.yul\":22452:22455   */\n      dup3\n        /* \"#utility.yul\":22449:22450   */\n      0x02\n        /* \"#utility.yul\":22445:22456   */\n      mul\n        /* \"#utility.yul\":22439:22443   */\n      dup3\n        /* \"#utility.yul\":22436:22457   */\n      or\n        /* \"#utility.yul\":22428:22457   */\n      swap1\n      pop\n        /* \"#utility.yul\":22168:22463   */\n      swap3\n      swap2\n      pop\n      pop\n      jump\t// out\n        /* \"#utility.yul\":22468:23863   */\n    tag_125:\n        /* \"#utility.yul\":22585:22622   */\n      tag_520\n        /* \"#utility.yul\":22618:22621   */\n      dup3\n        /* \"#utility.yul\":22585:22622   */\n      tag_244\n      jump\t// in\n    tag_520:\n        /* \"#utility.yul\":22687:22705   */\n      0xffffffffffffffff\n        /* \"#utility.yul\":22679:22685   */\n      dup2\n        /* \"#utility.yul\":22676:22706   */\n      gt\n        /* \"#utility.yul\":22673:22729   */\n      iszero\n      tag_521\n      jumpi\n        /* \"#utility.yul\":22709:22727   */\n      tag_522\n      tag_237\n      jump\t// in\n    tag_522:\n        /* \"#utility.yul\":22673:22729   */\n    tag_521:\n        /* \"#utility.yul\":22753:22791   */\n      tag_523\n        /* \"#utility.yul\":22785:22789   */\n      dup3\n        /* \"#utility.yul\":22779:22790   */\n      sload\n        /* \"#utility.yul\":22753:22791   */\n      tag_111\n      jump\t// in\n    tag_523:\n        /* \"#utility.yul\":22838:22905   */\n      tag_524\n        /* \"#utility.yul\":22898:22904   */\n      dup3\n        /* \"#utility.yul\":22890:22896   */\n      dup3\n        /* \"#utility.yul\":22884:22888   */\n      dup6\n        /* \"#utility.yul\":22838:22905   */\n      tag_285\n      jump\t// in\n    tag_524:\n        /* \"#utility.yul\":22932:22933   */\n      0x00\n        /* \"#utility.yul\":22956:22960   */\n      0x20\n        /* \"#utility.yul\":22943:22960   */\n      swap1\n      pop\n        /* \"#utility.yul\":22988:22990   */\n      0x1f\n        /* \"#utility.yul\":22980:22986   */\n      dup4\n        /* \"#utility.yul\":22977:22991   */\n      gt\n        /* \"#utility.yul\":23005:23006   */\n      0x01\n        /* \"#utility.yul\":23000:23618   */\n      dup2\n      eq\n      tag_526\n      jumpi\n        /* \"#utility.yul\":23662:23663   */\n      0x00\n        /* \"#utility.yul\":23679:23685   */\n      dup5\n        /* \"#utility.yul\":23676:23753   */\n      iszero\n      tag_527\n      jumpi\n        /* \"#utility.yul\":23728:23737   */\n      dup3\n        /* \"#utility.yul\":23723:23726   */\n      dup8\n        /* \"#utility.yul\":23719:23738   */\n      add\n        /* \"#utility.yul\":23713:23739   */\n      mload\n        /* \"#utility.yul\":23704:23739   */\n      swap1\n      pop\n        /* \"#utility.yul\":23676:23753   */\n    tag_527:\n        /* \"#utility.yul\":23779:23846   */\n      tag_528\n        /* \"#utility.yul\":23839:23845   */\n      dup6\n        /* \"#utility.yul\":23832:23837   */\n      dup3\n        /* \"#utility.yul\":23779:23846   */\n      tag_288\n      jump\t// in\n    tag_528:\n        /* \"#utility.yul\":23773:23777   */\n      dup7\n        /* \"#utility.yul\":23766:23847   */\n      sstore\n        /* \"#utility.yul\":23635:23857   */\n      pop\n        /* \"#utility.yul\":22970:23857   */\n      jump(tag_525)\n        /* \"#utility.yul\":23000:23618   */\n    tag_526:\n        /* \"#utility.yul\":23052:23056   */\n      0x1f\n        /* \"#utility.yul\":23048:23057   */\n      not\n        /* \"#utility.yul\":23040:23046   */\n      dup5\n        /* \"#utility.yul\":23036:23058   */\n      and\n        /* \"#utility.yul\":23086:23123   */\n      tag_529\n        /* \"#utility.yul\":23118:23122   */\n      dup7\n        /* \"#utility.yul\":23086:23123   */\n      tag_274\n      jump\t// in\n    tag_529:\n        /* \"#utility.yul\":23145:23146   */\n      0x00\n        /* \"#utility.yul\":23159:23367   */\n    tag_530:\n        /* \"#utility.yul\":23173:23180   */\n      dup3\n        /* \"#utility.yul\":23170:23171   */\n      dup2\n        /* \"#utility.yul\":23167:23181   */\n      lt\n        /* \"#utility.yul\":23159:23367   */\n      iszero\n      tag_532\n      jumpi\n        /* \"#utility.yul\":23252:23261   */\n      dup5\n        /* \"#utility.yul\":23247:23250   */\n      dup10\n        /* \"#utility.yul\":23243:23262   */\n      add\n        /* \"#utility.yul\":23237:23263   */\n      mload\n        /* \"#utility.yul\":23229:23235   */\n      dup3\n        /* \"#utility.yul\":23222:23264   */\n      sstore\n        /* \"#utility.yul\":23303:23304   */\n      0x01\n        /* \"#utility.yul\":23295:23301   */\n      dup3\n        /* \"#utility.yul\":23291:23305   */\n      add\n        /* \"#utility.yul\":23281:23305   */\n      swap2\n      pop\n        /* \"#utility.yul\":23350:23352   */\n      0x20\n        /* \"#utility.yul\":23339:23348   */\n      dup6\n        /* \"#utility.yul\":23335:23353   */\n      add\n        /* \"#utility.yul\":23322:23353   */\n      swap5\n      pop\n        /* \"#utility.yul\":23196:23200   */\n      0x20\n        /* \"#utility.yul\":23193:23194   */\n      dup2\n        /* \"#utility.yul\":23189:23201   */\n      add\n        /* \"#utility.yul\":23184:23201   */\n      swap1\n      pop\n        /* \"#utility.yul\":23159:23367   */\n      jump(tag_530)\n    tag_532:\n        /* \"#utility.yul\":23395:23401   */\n      dup7\n        /* \"#utility.yul\":23386:23393   */\n      dup4\n        /* \"#utility.yul\":23383:23402   */\n      lt\n        /* \"#utility.yul\":23380:23559   */\n      iszero\n      tag_533\n      jumpi\n        /* \"#utility.yul\":23453:23462   */\n      dup5\n        /* \"#utility.yul\":23448:23451   */\n      dup10\n        /* \"#utility.yul\":23444:23463   */\n      add\n        /* \"#utility.yul\":23438:23464   */\n      mload\n        /* \"#utility.yul\":23496:23544   */\n      tag_534\n        /* \"#utility.yul\":23538:23542   */\n      0x1f\n        /* \"#utility.yul\":23530:23536   */\n      dup10\n        /* \"#utility.yul\":23526:23543   */\n      and\n        /* \"#utility.yul\":23515:23524   */\n      dup3\n        /* \"#utility.yul\":23496:23544   */\n      tag_287\n      jump\t// in\n    tag_534:\n        /* \"#utility.yul\":23488:23494   */\n      dup4\n        /* \"#utility.yul\":23481:23545   */\n      sstore\n        /* \"#utility.yul\":23403:23559   */\n      pop\n        /* \"#utility.yul\":23380:23559   */\n    tag_533:\n        /* \"#utility.yul\":23605:23606   */\n      0x01\n        /* \"#utility.yul\":23601:23602   */\n      0x02\n        /* \"#utility.yul\":23593:23599   */\n      dup9\n        /* \"#utility.yul\":23589:23603   */\n      mul\n        /* \"#utility.yul\":23585:23607   */\n      add\n        /* \"#utility.yul\":23579:23583   */\n      dup9\n        /* \"#utility.yul\":23572:23608   */\n      sstore\n        /* \"#utility.yul\":23007:23618   */\n      pop\n      pop\n      pop\n        /* \"#utility.yul\":22970:23857   */\n    tag_525:\n      pop\n        /* \"#utility.yul\":22560:23863   */\n      pop\n      pop\n      pop\n        /* \"#utility.yul\":22468:23863   */\n      pop\n      pop\n      jump\t// out\n        /* \"#utility.yul\":23869:24279   */\n    tag_130:\n        /* \"#utility.yul\":23909:23916   */\n      0x00\n        /* \"#utility.yul\":23932:23952   */\n      tag_536\n        /* \"#utility.yul\":23950:23951   */\n      dup3\n        /* \"#utility.yul\":23932:23952   */\n      tag_224\n      jump\t// in\n    tag_536:\n        /* \"#utility.yul\":23927:23952   */\n      swap2\n      pop\n        /* \"#utility.yul\":23966:23986   */\n      tag_537\n        /* \"#utility.yul\":23984:23985   */\n      dup4\n        /* \"#utility.yul\":23966:23986   */\n      tag_224\n      jump\t// in\n    tag_537:\n        /* \"#utility.yul\":23961:23986   */\n      swap3\n      pop\n        /* \"#utility.yul\":24021:24022   */\n      dup3\n        /* \"#utility.yul\":24018:24019   */\n      dup3\n        /* \"#utility.yul\":24014:24023   */\n      mul\n        /* \"#utility.yul\":24043:24073   */\n      tag_538\n        /* \"#utility.yul\":24061:24072   */\n      dup2\n        /* \"#utility.yul\":24043:24073   */\n      tag_224\n      jump\t// in\n    tag_538:\n        /* \"#utility.yul\":24032:24073   */\n      swap2\n      pop\n        /* \"#utility.yul\":24222:24223   */\n      dup3\n        /* \"#utility.yul\":24213:24220   */\n      dup3\n        /* \"#utility.yul\":24209:24224   */\n      div\n        /* \"#utility.yul\":24206:24207   */\n      dup5\n        /* \"#utility.yul\":24203:24225   */\n      eq\n        /* \"#utility.yul\":24183:24184   */\n      dup4\n        /* \"#utility.yul\":24176:24185   */\n      iszero\n        /* \"#utility.yul\":24156:24239   */\n      or\n        /* \"#utility.yul\":24133:24272   */\n      tag_539\n      jumpi\n        /* \"#utility.yul\":24252:24270   */\n      tag_540\n      tag_273\n      jump\t// in\n    tag_540:\n        /* \"#utility.yul\":24133:24272   */\n    tag_539:\n        /* \"#utility.yul\":23917:24279   */\n      pop\n        /* \"#utility.yul\":23869:24279   */\n      swap3\n      swap2\n      pop\n      pop\n      jump\t// out\n        /* \"#utility.yul\":24285:24465   */\n    tag_289:\n        /* \"#utility.yul\":24333:24410   */\n      0x4e487b7100000000000000000000000000000000000000000000000000000000\n        /* \"#utility.yul\":24330:24331   */\n      0x00\n        /* \"#utility.yul\":24323:24411   */\n      mstore\n        /* \"#utility.yul\":24430:24434   */\n      0x12\n        /* \"#utility.yul\":24427:24428   */\n      0x04\n        /* \"#utility.yul\":24420:24435   */\n      mstore\n        /* \"#utility.yul\":24454:24458   */\n      0x24\n        /* \"#utility.yul\":24451:24452   */\n      0x00\n        /* \"#utility.yul\":24444:24459   */\n      revert\n        /* \"#utility.yul\":24471:24647   */\n    tag_134:\n        /* \"#utility.yul\":24503:24504   */\n      0x00\n        /* \"#utility.yul\":24520:24540   */\n      tag_543\n        /* \"#utility.yul\":24538:24539   */\n      dup3\n        /* \"#utility.yul\":24520:24540   */\n      tag_224\n      jump\t// in\n    tag_543:\n        /* \"#utility.yul\":24515:24540   */\n      swap2\n      pop\n        /* \"#utility.yul\":24554:24574   */\n      tag_544\n        /* \"#utility.yul\":24572:24573   */\n      dup4\n        /* \"#utility.yul\":24554:24574   */\n      tag_224\n      jump\t// in\n    tag_544:\n        /* \"#utility.yul\":24549:24574   */\n      swap3\n      pop\n        /* \"#utility.yul\":24593:24594   */\n      dup3\n        /* \"#utility.yul\":24583:24618   */\n      tag_545\n      jumpi\n        /* \"#utility.yul\":24598:24616   */\n      tag_546\n      tag_289\n      jump\t// in\n    tag_546:\n        /* \"#utility.yul\":24583:24618   */\n    tag_545:\n        /* \"#utility.yul\":24639:24640   */\n      dup3\n        /* \"#utility.yul\":24636:24637   */\n      dup3\n        /* \"#utility.yul\":24632:24641   */\n      mod\n        /* \"#utility.yul\":24627:24641   */\n      swap1\n      pop\n        /* \"#utility.yul\":24471:24647   */\n      swap3\n      swap2\n      pop\n      pop\n      jump\t// out\n        /* \"#utility.yul\":24653:24806   */\n    tag_290:\n        /* \"#utility.yul\":24793:24798   */\n      0x426f620000000000000000000000000000000000000000000000000000000000\n        /* \"#utility.yul\":24789:24790   */\n      0x00\n        /* \"#utility.yul\":24781:24787   */\n      dup3\n        /* \"#utility.yul\":24777:24791   */\n      add\n        /* \"#utility.yul\":24770:24799   */\n      mstore\n        /* \"#utility.yul\":24653:24806   */\n      pop\n      jump\t// out\n        /* \"#utility.yul\":24812:25212   */\n    tag_291:\n        /* \"#utility.yul\":24972:24975   */\n      0x00\n        /* \"#utility.yul\":24993:25077   */\n      tag_549\n        /* \"#utility.yul\":25075:25076   */\n      0x03\n        /* \"#utility.yul\":25070:25073   */\n      dup4\n        /* \"#utility.yul\":24993:25077   */\n      tag_270\n      jump\t// in\n    tag_549:\n        /* \"#utility.yul\":24986:25077   */\n      swap2\n      pop\n        /* \"#utility.yul\":25086:25179   */\n      tag_550\n        /* \"#utility.yul\":25175:25178   */\n      dup3\n        /* \"#utility.yul\":25086:25179   */\n      tag_290\n      jump\t// in\n    tag_550:\n        /* \"#utility.yul\":25204:25205   */\n      0x03\n        /* \"#utility.yul\":25199:25202   */\n      dup3\n        /* \"#utility.yul\":25195:25206   */\n      add\n        /* \"#utility.yul\":25188:25206   */\n      swap1\n      pop\n        /* \"#utility.yul\":24812:25212   */\n      swap2\n      swap1\n      pop\n      jump\t// out\n        /* \"#utility.yul\":25218:25599   */\n    tag_139:\n        /* \"#utility.yul\":25403:25406   */\n      0x00\n        /* \"#utility.yul\":25425:25573   */\n      tag_552\n        /* \"#utility.yul\":25569:25572   */\n      dup3\n        /* \"#utility.yul\":25425:25573   */\n      tag_291\n      jump\t// in\n    tag_552:\n        /* \"#utility.yul\":25418:25573   */\n      swap2\n      pop\n        /* \"#utility.yul\":25590:25593   */\n      dup2\n        /* \"#utility.yul\":25583:25593   */\n      swap1\n      pop\n        /* \"#utility.yul\":25218:25599   */\n      swap2\n      swap1\n      pop\n      jump\t// out\n        /* \"#utility.yul\":25605:25838   */\n    tag_155:\n        /* \"#utility.yul\":25644:25647   */\n      0x00\n        /* \"#utility.yul\":25667:25691   */\n      tag_554\n        /* \"#utility.yul\":25685:25690   */\n      dup3\n        /* \"#utility.yul\":25667:25691   */\n      tag_224\n      jump\t// in\n    tag_554:\n        /* \"#utility.yul\":25658:25691   */\n      swap2\n      pop\n        /* \"#utility.yul\":25713:25779   */\n      0xffffffffffffffffffffffffffffffffffffffffffffffffffffffffffffffff\n        /* \"#utility.yul\":25706:25711   */\n      dup3\n        /* \"#utility.yul\":25703:25780   */\n      sub\n        /* \"#utility.yul\":25700:25803   */\n      tag_555\n      jumpi\n        /* \"#utility.yul\":25783:25801   */\n      tag_556\n      tag_273\n      jump\t// in\n    tag_556:\n        /* \"#utility.yul\":25700:25803   */\n    tag_555:\n        /* \"#utility.yul\":25830:25831   */\n      0x01\n        /* \"#utility.yul\":25823:25828   */\n      dup3\n        /* \"#utility.yul\":25819:25832   */\n      add\n        /* \"#utility.yul\":25812:25832   */\n      swap1\n      pop\n        /* \"#utility.yul\":25605:25838   */\n      swap2\n      swap1\n      pop\n      jump\t// out\n        /* \"#utility.yul\":25844:26024   */\n    tag_172:\n        /* \"#utility.yul\":25892:25969   */\n      0x4e487b7100000000000000000000000000000000000000000000000000000000\n        /* \"#utility.yul\":25889:25890   */\n      0x00\n        /* \"#utility.yul\":25882:25970   */\n      mstore\n        /* \"#utility.yul\":25989:25993   */\n      0x32\n        /* \"#utility.yul\":25986:25987   */\n      0x04\n        /* \"#utility.yul\":25979:25994   */\n      mstore\n        /* \"#utility.yul\":26013:26017   */\n      0x24\n        /* \"#utility.yul\":26010:26011   */\n      0x00\n        /* \"#utility.yul\":26003:26018   */\n      revert\n\n    auxdata: 0xa26469706673582212202fe8bb00f198d0f3610e71930b4eefca025f7388860c57596f4001e89c13698464736f6c63430008120033\n}\n",
				"bytecode": {
					"linkReferences": {},
					"object": "608060405234801561001057600080fd5b50611a0c806100206000396000f3fe608060405234801561001057600080fd5b506004361061012c5760003560e01c8063a2375d1e116100ad578063df380dd311610071578063df380dd314610331578063eeb4914e14610361578063eee972061461037d578063f1d064b3146103ad578063fbd78ac1146103cb5761012c565b8063a2375d1e1461028b578063b47b3463146102a9578063cc75c4b1146102c5578063d504ea1d146102f5578063de9b7a3d146103135761012c565b806356f030bb116100f457806356f030bb146101c357806366a2eec4146101df578063922e883a1461020f578063929fe4811461022b5780639450268b1461025b5761012c565b80630d75661614610131578063159c10ee1461014d5780633448b2e11461016b5780634cc276541461019b57806354204ad4146101b9575b600080fd5b61014b60048036038101906101469190610cbb565b6103e7565b005b610155610413565b6040516101629190610da6565b60405180910390f35b61018560048036038101906101809190610f0e565b61046b565b6040516101929190610fd6565b60405180910390f35b6101a361051b565b6040516101b09190610da6565b60405180910390f35b6101c1610573565b005b6101dd60048036038101906101d891906110de565b610575565b005b6101f960048036038101906101f49190611156565b61060e565b60405161020691906111b8565b60405180910390f35b61022960048036038101906102249190610cbb565b610630565b005b61024560048036038101906102409190610f0e565b610675565b60405161025291906111ee565b60405180910390f35b61027560048036038101906102709190611156565b6106bc565b60405161028291906111b8565b60405180910390f35b6102936106de565b6040516102a09190610da6565b60405180910390f35b6102c360048036038101906102be9190610cbb565b610736565b005b6102df60048036038101906102da9190610cbb565b61078d565b6040516102ec9190610fd6565b60405180910390f35b6102fd61086f565b60405161030a9190610da6565b60405180910390f35b61031b6108c7565b60405161032891906111b8565b60405180910390f35b61034b60048036038101906103469190611156565b610921565b60405161035891906111b8565b60405180910390f35b61037b60048036038101906103769190610cbb565b610943565b005b61039760048036038101906103929190610cbb565b61096f565b6040516103a491906111b8565b60405180910390f35b6103b5610993565b6040516103c2919061142e565b60405180910390f35b6103e560048036038101906103e09190611450565b610b67565b005b600381908060018154018082558091505060019003906000526020600020016000909190919091505550565b6060600080548060200260200160405190810160405280929190818152602001828054801561046157602002820191906000526020600020905b81548152602001906001019080831161044d575b5050505050905090565b606060048260405161047d9190611504565b908152602001604051809103902080546104969061154a565b80601f01602080910402602001604051908101604052809291908181526020018280546104c29061154a565b801561050f5780601f106104e45761010080835404028352916020019161050f565b820191906000526020600020905b8154815290600101906020018083116104f257829003601f168201915b50505050509050919050565b6060600280548060200260200160405190810160405280929190818152602001828054801561056957602002820191906000526020600020905b815481526020019060010190808311610555575b5050505050905090565b565b600160405180606001604052806001808054905061059391906115aa565b81526020018481526020018381525090806001815401808255809150506001900390600052602060002090600302016000909190919091506000820151816000015560208201518160010190816105ea919061178a565b506040820151816002019080519060200190610607929190610b97565b5050505050565b600081838561061d919061185c565b61062791906115aa565b90509392505050565b600060028261063f91906118cd565b1461064957600080fd5b600081908060018154018082558091505060019003906000526020600020016000909190919091505550565b60006040516020016106869061194a565b604051602081830303815290604052805190602001208280519060200120036106b257600190506106b7565b600090505b919050565b60008183856106cb91906115aa565b6106d591906115aa565b90509392505050565b6060600580548060200260200160405190810160405280929190818152602001828054801561072c57602002820191906000526020600020905b815481526020019060010190808311610718575b5050505050905090565b60005b60018261074691906115aa565b81101561078957600281908060018154018082558091505060019003906000526020600020016000909190919091505580806107819061195f565b915050610739565b5050565b6060600060038361079e91906118cd565b036107e0576040518060400160405280600181526020017f4100000000000000000000000000000000000000000000000000000000000000815250905061086a565b60016003836107ef91906118cd565b03610831576040518060400160405280600181526020017f4200000000000000000000000000000000000000000000000000000000000000815250905061086a565b6040518060400160405280600181526020017f430000000000000000000000000000000000000000000000000000000000000081525090505b919050565b606060038054806020026020016040519081016040528092919081815260200182805480156108bd57602002820191906000526020600020905b8154815260200190600101908083116108a9575b5050505050905090565b60008060005b60038054905081101561091957600381815481106108ee576108ed6119a7565b5b90600052602060002001548261090491906115aa565b915080806109119061195f565b9150506108cd565b508091505090565b6000818385610930919061185c565b61093a919061185c565b90509392505050565b600581908060018154018082558091505060019003906000526020600020016000909190919091505550565b6000612710821061097f57600080fd5b60028261098c919061185c565b9050919050565b60606001805480602002602001604051908101604052809291908181526020016000905b82821015610b5e5783829060005260206000209060030201604051806060016040529081600082015481526020016001820180546109f49061154a565b80601f0160208091040260200160405190810160405280929190818152602001828054610a209061154a565b8015610a6d5780601f10610a4257610100808354040283529160200191610a6d565b820191906000526020600020905b815481529060010190602001808311610a5057829003601f168201915b5050505050815260200160028201805480602002602001604051908101604052809291908181526020016000905b82821015610b47578382906000526020600020018054610aba9061154a565b80601f0160208091040260200160405190810160405280929190818152602001828054610ae69061154a565b8015610b335780601f10610b0857610100808354040283529160200191610b33565b820191906000526020600020905b815481529060010190602001808311610b1657829003601f168201915b505050505081526020019060010190610a9b565b5050505081525050815260200190600101906109b7565b50505050905090565b80600483604051610b789190611504565b90815260200160405180910390209081610b92919061178a565b505050565b828054828255906000526020600020908101928215610bdf579160200282015b82811115610bde578251829081610bce919061178a565b5091602001919060010190610bb7565b5b509050610bec9190610bf0565b5090565b5b80821115610c105760008181610c079190610c14565b50600101610bf1565b5090565b508054610c209061154a565b6000825580601f10610c325750610c51565b601f016020900490600052602060002090810190610c509190610c54565b5b50565b5b80821115610c6d576000816000905550600101610c55565b5090565b6000604051905090565b600080fd5b600080fd5b6000819050919050565b610c9881610c85565b8114610ca357600080fd5b50565b600081359050610cb581610c8f565b92915050565b600060208284031215610cd157610cd0610c7b565b5b6000610cdf84828501610ca6565b91505092915050565b600081519050919050565b600082825260208201905092915050565b6000819050602082019050919050565b610d1d81610c85565b82525050565b6000610d2f8383610d14565b60208301905092915050565b6000602082019050919050565b6000610d5382610ce8565b610d5d8185610cf3565b9350610d6883610d04565b8060005b83811015610d99578151610d808882610d23565b9750610d8b83610d3b565b925050600181019050610d6c565b5085935050505092915050565b60006020820190508181036000830152610dc08184610d48565b905092915050565b600080fd5b600080fd5b6000601f19601f8301169050919050565b7f4e487b7100000000000000000000000000000000000000000000000000000000600052604160045260246000fd5b610e1b82610dd2565b810181811067ffffffffffffffff82111715610e3a57610e39610de3565b5b80604052505050565b6000610e4d610c71565b9050610e598282610e12565b919050565b600067ffffffffffffffff821115610e7957610e78610de3565b5b610e8282610dd2565b9050602081019050919050565b82818337600083830152505050565b6000610eb1610eac84610e5e565b610e43565b905082815260208101848484011115610ecd57610ecc610dcd565b5b610ed8848285610e8f565b509392505050565b600082601f830112610ef557610ef4610dc8565b5b8135610f05848260208601610e9e565b91505092915050565b600060208284031215610f2457610f23610c7b565b5b600082013567ffffffffffffffff811115610f4257610f41610c80565b5b610f4e84828501610ee0565b91505092915050565b600081519050919050565b600082825260208201905092915050565b60005b83811015610f91578082015181840152602081019050610f76565b60008484015250505050565b6000610fa882610f57565b610fb28185610f62565b9350610fc2818560208601610f73565b610fcb81610dd2565b840191505092915050565b60006020820190508181036000830152610ff08184610f9d565b905092915050565b600067ffffffffffffffff82111561101357611012610de3565b5b602082029050602081019050919050565b600080fd5b600061103c61103784610ff8565b610e43565b9050808382526020820190506020840283018581111561105f5761105e611024565b5b835b818110156110a657803567ffffffffffffffff81111561108457611083610dc8565b5b8086016110918982610ee0565b85526020850194505050602081019050611061565b5050509392505050565b600082601f8301126110c5576110c4610dc8565b5b81356110d5848260208601611029565b91505092915050565b600080604083850312156110f5576110f4610c7b565b5b600083013567ffffffffffffffff81111561111357611112610c80565b5b61111f85828601610ee0565b925050602083013567ffffffffffffffff8111156111405761113f610c80565b5b61114c858286016110b0565b9150509250929050565b60008060006060848603121561116f5761116e610c7b565b5b600061117d86828701610ca6565b935050602061118e86828701610ca6565b925050604061119f86828701610ca6565b9150509250925092565b6111b281610c85565b82525050565b60006020820190506111cd60008301846111a9565b92915050565b60008115159050919050565b6111e8816111d3565b82525050565b600060208201905061120360008301846111df565b92915050565b600081519050919050565b600082825260208201905092915050565b6000819050602082019050919050565b600082825260208201905092915050565b600061125182610f57565b61125b8185611235565b935061126b818560208601610f73565b61127481610dd2565b840191505092915050565b600081519050919050565b600082825260208201905092915050565b6000819050602082019050919050565b60006112b78383611246565b905092915050565b6000602082019050919050565b60006112d78261127f565b6112e1818561128a565b9350836020820285016112f38561129b565b8060005b8581101561132f578484038952815161131085826112ab565b945061131b836112bf565b925060208a019950506001810190506112f7565b50829750879550505050505092915050565b60006060830160008301516113596000860182610d14565b50602083015184820360208601526113718282611246565b9150506040830151848203604086015261138b82826112cc565b9150508091505092915050565b60006113a48383611341565b905092915050565b6000602082019050919050565b60006113c482611209565b6113ce8185611214565b9350836020820285016113e085611225565b8060005b8581101561141c57848403895281516113fd8582611398565b9450611408836113ac565b925060208a019950506001810190506113e4565b50829750879550505050505092915050565b6000602082019050818103600083015261144881846113b9565b905092915050565b6000806040838503121561146757611466610c7b565b5b600083013567ffffffffffffffff81111561148557611484610c80565b5b61149185828601610ee0565b925050602083013567ffffffffffffffff8111156114b2576114b1610c80565b5b6114be85828601610ee0565b9150509250929050565b600081905092915050565b60006114de82610f57565b6114e881856114c8565b93506114f8818560208601610f73565b80840191505092915050565b600061151082846114d3565b915081905092915050565b7f4e487b7100000000000000000000000000000000000000000000000000000000600052602260045260246000fd5b6000600282049050600182168061156257607f821691505b6020821081036115755761157461151b565b5b50919050565b7f4e487b7100000000000000000000000000000000000000000000000000000000600052601160045260246000fd5b60006115b582610c85565b91506115c083610c85565b92508282019050808211156115d8576115d761157b565b5b92915050565b60008190508160005260206000209050919050565b60006020601f8301049050919050565b600082821b905092915050565b6000600883026116407fffffffffffffffffffffffffffffffffffffffffffffffffffffffffffffffff82611603565b61164a8683611603565b95508019841693508086168417925050509392505050565b6000819050919050565b600061168761168261167d84610c85565b611662565b610c85565b9050919050565b6000819050919050565b6116a18361166c565b6116b56116ad8261168e565b848454611610565b825550505050565b600090565b6116ca6116bd565b6116d5818484611698565b505050565b5b818110156116f9576116ee6000826116c2565b6001810190506116db565b5050565b601f82111561173e5761170f816115de565b611718846115f3565b81016020851015611727578190505b61173b611733856115f3565b8301826116da565b50505b505050565b600082821c905092915050565b600061176160001984600802611743565b1980831691505092915050565b600061177a8383611750565b9150826002028217905092915050565b61179382610f57565b67ffffffffffffffff8111156117ac576117ab610de3565b5b6117b6825461154a565b6117c18282856116fd565b600060209050601f8311600181146117f457600084156117e2578287015190505b6117ec858261176e565b865550611854565b601f198416611802866115de565b60005b8281101561182a57848901518255600182019150602085019450602081019050611805565b868310156118475784890151611843601f891682611750565b8355505b6001600288020188555050505b505050505050565b600061186782610c85565b915061187283610c85565b925082820261188081610c85565b915082820484148315176118975761189661157b565b5b5092915050565b7f4e487b7100000000000000000000000000000000000000000000000000000000600052601260045260246000fd5b60006118d882610c85565b91506118e383610c85565b9250826118f3576118f261189e565b5b828206905092915050565b7f426f620000000000000000000000000000000000000000000000000000000000600082015250565b60006119346003836114c8565b915061193f826118fe565b600382019050919050565b600061195582611927565b9150819050919050565b600061196a82610c85565b91507fffffffffffffffffffffffffffffffffffffffffffffffffffffffffffffffff820361199c5761199b61157b565b5b600182019050919050565b7f4e487b7100000000000000000000000000000000000000000000000000000000600052603260045260246000fdfea26469706673582212202fe8bb00f198d0f3610e71930b4eefca025f7388860c57596f4001e89c13698464736f6c63430008120033",
					"opcodes": "PUSH1 0x80 PUSH1 0x40 MSTORE CALLVALUE DUP1 ISZERO PUSH2 0x10 JUMPI PUSH1 0x0 DUP1 REVERT JUMPDEST POP PUSH2 0x1A0C DUP1 PUSH2 0x20 PUSH1 0x0 CODECOPY PUSH1 0x0 RETURN INVALID PUSH1 0x80 PUSH1 0x40 MSTORE CALLVALUE DUP1 ISZERO PUSH2 0x10 JUMPI PUSH1 0x0 DUP1 REVERT JUMPDEST POP PUSH1 0x4 CALLDATASIZE LT PUSH2 0x12C JUMPI PUSH1 0x0 CALLDATALOAD PUSH1 0xE0 SHR DUP1 PUSH4 0xA2375D1E GT PUSH2 0xAD JUMPI DUP1 PUSH4 0xDF380DD3 GT PUSH2 0x71 JUMPI DUP1 PUSH4 0xDF380DD3 EQ PUSH2 0x331 JUMPI DUP1 PUSH4 0xEEB4914E EQ PUSH2 0x361 JUMPI DUP1 PUSH4 0xEEE97206 EQ PUSH2 0x37D JUMPI DUP1 PUSH4 0xF1D064B3 EQ PUSH2 0x3AD JUMPI DUP1 PUSH4 0xFBD78AC1 EQ PUSH2 0x3CB JUMPI PUSH2 0x12C JUMP JUMPDEST DUP1 PUSH4 0xA2375D1E EQ PUSH2 0x28B JUMPI DUP1 PUSH4 0xB47B3463 EQ PUSH2 0x2A9 JUMPI DUP1 PUSH4 0xCC75C4B1 EQ PUSH2 0x2C5 JUMPI DUP1 PUSH4 0xD504EA1D EQ PUSH2 0x2F5 JUMPI DUP1 PUSH4 0xDE9B7A3D EQ PUSH2 0x313 JUMPI PUSH2 0x12C JUMP JUMPDEST DUP1 PUSH4 0x56F030BB GT PUSH2 0xF4 JUMPI DUP1 PUSH4 0x56F030BB EQ PUSH2 0x1C3 JUMPI DUP1 PUSH4 0x66A2EEC4 EQ PUSH2 0x1DF JUMPI DUP1 PUSH4 0x922E883A EQ PUSH2 0x20F JUMPI DUP1 PUSH4 0x929FE481 EQ PUSH2 0x22B JUMPI DUP1 PUSH4 0x9450268B EQ PUSH2 0x25B JUMPI PUSH2 0x12C JUMP JUMPDEST DUP1 PUSH4 0xD756616 EQ PUSH2 0x131 JUMPI DUP1 PUSH4 0x159C10EE EQ PUSH2 0x14D JUMPI DUP1 PUSH4 0x3448B2E1 EQ PUSH2 0x16B JUMPI DUP1 PUSH4 0x4CC27654 EQ PUSH2 0x19B JUMPI DUP1 PUSH4 0x54204AD4 EQ PUSH2 0x1B9 JUMPI JUMPDEST PUSH1 0x0 DUP1 REVERT JUMPDEST PUSH2 0x14B PUSH1 0x4 DUP1 CALLDATASIZE SUB DUP2 ADD SWAP1 PUSH2 0x146 SWAP2 SWAP1 PUSH2 0xCBB JUMP JUMPDEST PUSH2 0x3E7 JUMP JUMPDEST STOP JUMPDEST PUSH2 0x155 PUSH2 0x413 JUMP JUMPDEST PUSH1 0x40 MLOAD PUSH2 0x162 SWAP2 SWAP1 PUSH2 0xDA6 JUMP JUMPDEST PUSH1 0x40 MLOAD DUP1 SWAP2 SUB SWAP1 RETURN JUMPDEST PUSH2 0x185 PUSH1 0x4 DUP1 CALLDATASIZE SUB DUP2 ADD SWAP1 PUSH2 0x180 SWAP2 SWAP1 PUSH2 0xF0E JUMP JUMPDEST PUSH2 0x46B JUMP JUMPDEST PUSH1 0x40 MLOAD PUSH2 0x192 SWAP2 SWAP1 PUSH2 0xFD6 JUMP JUMPDEST PUSH1 0x40 MLOAD DUP1 SWAP2 SUB SWAP1 RETURN JUMPDEST PUSH2 0x1A3 PUSH2 0x51B JUMP JUMPDEST PUSH1 0x40 MLOAD PUSH2 0x1B0 SWAP2 SWAP1 PUSH2 0xDA6 JUMP JUMPDEST PUSH1 0x40 MLOAD DUP1 SWAP2 SUB SWAP1 RETURN JUMPDEST PUSH2 0x1C1 PUSH2 0x573 JUMP JUMPDEST STOP JUMPDEST PUSH2 0x1DD PUSH1 0x4 DUP1 CALLDATASIZE SUB DUP2 ADD SWAP1 PUSH2 0x1D8 SWAP2 SWAP1 PUSH2 0x10DE JUMP JUMPDEST PUSH2 0x575 JUMP JUMPDEST STOP JUMPDEST PUSH2 0x1F9 PUSH1 0x4 DUP1 CALLDATASIZE SUB DUP2 ADD SWAP1 PUSH2 0x1F4 SWAP2 SWAP1 PUSH2 0x1156 JUMP JUMPDEST PUSH2 0x60E JUMP JUMPDEST PUSH1 0x40 MLOAD PUSH2 0x206 SWAP2 SWAP1 PUSH2 0x11B8 JUMP JUMPDEST PUSH1 0x40 MLOAD DUP1 SWAP2 SUB SWAP1 RETURN JUMPDEST PUSH2 0x229 PUSH1 0x4 DUP1 CALLDATASIZE SUB DUP2 ADD SWAP1 PUSH2 0x224 SWAP2 SWAP1 PUSH2 0xCBB JUMP JUMPDEST PUSH2 0x630 JUMP JUMPDEST STOP JUMPDEST PUSH2 0x245 PUSH1 0x4 DUP1 CALLDATASIZE SUB DUP2 ADD SWAP1 PUSH2 0x240 SWAP2 SWAP1 PUSH2 0xF0E JUMP JUMPDEST PUSH2 0x675 JUMP JUMPDEST PUSH1 0x40 MLOAD PUSH2 0x252 SWAP2 SWAP1 PUSH2 0x11EE JUMP JUMPDEST PUSH1 0x40 MLOAD DUP1 SWAP2 SUB SWAP1 RETURN JUMPDEST PUSH2 0x275 PUSH1 0x4 DUP1 CALLDATASIZE SUB DUP2 ADD SWAP1 PUSH2 0x270 SWAP2 SWAP1 PUSH2 0x1156 JUMP JUMPDEST PUSH2 0x6BC JUMP JUMPDEST PUSH1 0x40 MLOAD PUSH2 0x282 SWAP2 SWAP1 PUSH2 0x11B8 JUMP JUMPDEST PUSH1 0x40 MLOAD DUP1 SWAP2 SUB SWAP1 RETURN JUMPDEST PUSH2 0x293 PUSH2 0x6DE JUMP JUMPDEST PUSH1 0x40 MLOAD PUSH2 0x2A0 SWAP2 SWAP1 PUSH2 0xDA6 JUMP JUMPDEST PUSH1 0x40 MLOAD DUP1 SWAP2 SUB SWAP1 RETURN JUMPDEST PUSH2 0x2C3 PUSH1 0x4 DUP1 CALLDATASIZE SUB DUP2 ADD SWAP1 PUSH2 0x2BE SWAP2 SWAP1 PUSH2 0xCBB JUMP JUMPDEST PUSH2 0x736 JUMP JUMPDEST STOP JUMPDEST PUSH2 0x2DF PUSH1 0x4 DUP1 CALLDATASIZE SUB DUP2 ADD SWAP1 PUSH2 0x2DA SWAP2 SWAP1 PUSH2 0xCBB JUMP JUMPDEST PUSH2 0x78D JUMP JUMPDEST PUSH1 0x40 MLOAD PUSH2 0x2EC SWAP2 SWAP1 PUSH2 0xFD6 JUMP JUMPDEST PUSH1 0x40 MLOAD DUP1 SWAP2 SUB SWAP1 RETURN JUMPDEST PUSH2 0x2FD PUSH2 0x86F JUMP JUMPDEST PUSH1 0x40 MLOAD PUSH2 0x30A SWAP2 SWAP1 PUSH2 0xDA6 JUMP JUMPDEST PUSH1 0x40 MLOAD DUP1 SWAP2 SUB SWAP1 RETURN JUMPDEST PUSH2 0x31B PUSH2 0x8C7 JUMP JUMPDEST PUSH1 0x40 MLOAD PUSH2 0x328 SWAP2 SWAP1 PUSH2 0x11B8 JUMP JUMPDEST PUSH1 0x40 MLOAD DUP1 SWAP2 SUB SWAP1 RETURN JUMPDEST PUSH2 0x34B PUSH1 0x4 DUP1 CALLDATASIZE SUB DUP2 ADD SWAP1 PUSH2 0x346 SWAP2 SWAP1 PUSH2 0x1156 JUMP JUMPDEST PUSH2 0x921 JUMP JUMPDEST PUSH1 0x40 MLOAD PUSH2 0x358 SWAP2 SWAP1 PUSH2 0x11B8 JUMP JUMPDEST PUSH1 0x40 MLOAD DUP1 SWAP2 SUB SWAP1 RETURN JUMPDEST PUSH2 0x37B PUSH1 0x4 DUP1 CALLDATASIZE SUB DUP2 ADD SWAP1 PUSH2 0x376 SWAP2 SWAP1 PUSH2 0xCBB JUMP JUMPDEST PUSH2 0x943 JUMP JUMPDEST STOP JUMPDEST PUSH2 0x397 PUSH1 0x4 DUP1 CALLDATASIZE SUB DUP2 ADD SWAP1 PUSH2 0x392 SWAP2 SWAP1 PUSH2 0xCBB JUMP JUMPDEST PUSH2 0x96F JUMP JUMPDEST PUSH1 0x40 MLOAD PUSH2 0x3A4 SWAP2 SWAP1 PUSH2 0x11B8 JUMP JUMPDEST PUSH1 0x40 MLOAD DUP1 SWAP2 SUB SWAP1 RETURN JUMPDEST PUSH2 0x3B5 PUSH2 0x993 JUMP JUMPDEST PUSH1 0x40 MLOAD PUSH2 0x3C2 SWAP2 SWAP1 PUSH2 0x142E JUMP JUMPDEST PUSH1 0x40 MLOAD DUP1 SWAP2 SUB SWAP1 RETURN JUMPDEST PUSH2 0x3E5 PUSH1 0x4 DUP1 CALLDATASIZE SUB DUP2 ADD SWAP1 PUSH2 0x3E0 SWAP2 SWAP1 PUSH2 0x1450 JUMP JUMPDEST PUSH2 0xB67 JUMP JUMPDEST STOP JUMPDEST PUSH1 0x3 DUP2 SWAP1 DUP1 PUSH1 0x1 DUP2 SLOAD ADD DUP1 DUP3 SSTORE DUP1 SWAP2 POP POP PUSH1 0x1 SWAP1 SUB SWAP1 PUSH1 0x0 MSTORE PUSH1 0x20 PUSH1 0x0 KECCAK256 ADD PUSH1 0x0 SWAP1 SWAP2 SWAP1 SWAP2 SWAP1 SWAP2 POP SSTORE POP JUMP JUMPDEST PUSH1 0x60 PUSH1 0x0 DUP1 SLOAD DUP1 PUSH1 0x20 MUL PUSH1 0x20 ADD PUSH1 0x40 MLOAD SWAP1 DUP2 ADD PUSH1 0x40 MSTORE DUP1 SWAP3 SWAP2 SWAP1 DUP2 DUP2 MSTORE PUSH1 0x20 ADD DUP3 DUP1 SLOAD DUP1 ISZERO PUSH2 0x461 JUMPI PUSH1 0x20 MUL DUP3 ADD SWAP2 SWAP1 PUSH1 0x0 MSTORE PUSH1 0x20 PUSH1 0x0 KECCAK256 SWAP1 JUMPDEST DUP2 SLOAD DUP2 MSTORE PUSH1 0x20 ADD SWAP1 PUSH1 0x1 ADD SWAP1 DUP1 DUP4 GT PUSH2 0x44D JUMPI JUMPDEST POP POP POP POP POP SWAP1 POP SWAP1 JUMP JUMPDEST PUSH1 0x60 PUSH1 0x4 DUP3 PUSH1 0x40 MLOAD PUSH2 0x47D SWAP2 SWAP1 PUSH2 0x1504 JUMP JUMPDEST SWAP1 DUP2 MSTORE PUSH1 0x20 ADD PUSH1 0x40 MLOAD DUP1 SWAP2 SUB SWAP1 KECCAK256 DUP1 SLOAD PUSH2 0x496 SWAP1 PUSH2 0x154A JUMP JUMPDEST DUP1 PUSH1 0x1F ADD PUSH1 0x20 DUP1 SWAP2 DIV MUL PUSH1 0x20 ADD PUSH1 0x40 MLOAD SWAP1 DUP2 ADD PUSH1 0x40 MSTORE DUP1 SWAP3 SWAP2 SWAP1 DUP2 DUP2 MSTORE PUSH1 0x20 ADD DUP3 DUP1 SLOAD PUSH2 0x4C2 SWAP1 PUSH2 0x154A JUMP JUMPDEST DUP1 ISZERO PUSH2 0x50F JUMPI DUP1 PUSH1 0x1F LT PUSH2 0x4E4 JUMPI PUSH2 0x100 DUP1 DUP4 SLOAD DIV MUL DUP4 MSTORE SWAP2 PUSH1 0x20 ADD SWAP2 PUSH2 0x50F JUMP JUMPDEST DUP3 ADD SWAP2 SWAP1 PUSH1 0x0 MSTORE PUSH1 0x20 PUSH1 0x0 KECCAK256 SWAP1 JUMPDEST DUP2 SLOAD DUP2 MSTORE SWAP1 PUSH1 0x1 ADD SWAP1 PUSH1 0x20 ADD DUP1 DUP4 GT PUSH2 0x4F2 JUMPI DUP3 SWAP1 SUB PUSH1 0x1F AND DUP3 ADD SWAP2 JUMPDEST POP POP POP POP POP SWAP1 POP SWAP2 SWAP1 POP JUMP JUMPDEST PUSH1 0x60 PUSH1 0x2 DUP1 SLOAD DUP1 PUSH1 0x20 MUL PUSH1 0x20 ADD PUSH1 0x40 MLOAD SWAP1 DUP2 ADD PUSH1 0x40 MSTORE DUP1 SWAP3 SWAP2 SWAP1 DUP2 DUP2 MSTORE PUSH1 0x20 ADD DUP3 DUP1 SLOAD DUP1 ISZERO PUSH2 0x569 JUMPI PUSH1 0x20 MUL DUP3 ADD SWAP2 SWAP1 PUSH1 0x0 MSTORE PUSH1 0x20 PUSH1 0x0 KECCAK256 SWAP1 JUMPDEST DUP2 SLOAD DUP2 MSTORE PUSH1 0x20 ADD SWAP1 PUSH1 0x1 ADD SWAP1 DUP1 DUP4 GT PUSH2 0x555 JUMPI JUMPDEST POP POP POP POP POP SWAP1 POP SWAP1 JUMP JUMPDEST JUMP JUMPDEST PUSH1 0x1 PUSH1 0x40 MLOAD DUP1 PUSH1 0x60 ADD PUSH1 0x40 MSTORE DUP1 PUSH1 0x1 DUP1 DUP1 SLOAD SWAP1 POP PUSH2 0x593 SWAP2 SWAP1 PUSH2 0x15AA JUMP JUMPDEST DUP2 MSTORE PUSH1 0x20 ADD DUP5 DUP2 MSTORE PUSH1 0x20 ADD DUP4 DUP2 MSTORE POP SWAP1 DUP1 PUSH1 0x1 DUP2 SLOAD ADD DUP1 DUP3 SSTORE DUP1 SWAP2 POP POP PUSH1 0x1 SWAP1 SUB SWAP1 PUSH1 0x0 MSTORE PUSH1 0x20 PUSH1 0x0 KECCAK256 SWAP1 PUSH1 0x3 MUL ADD PUSH1 0x0 SWAP1 SWAP2 SWAP1 SWAP2 SWAP1 SWAP2 POP PUSH1 0x0 DUP3 ADD MLOAD DUP2 PUSH1 0x0 ADD SSTORE PUSH1 0x20 DUP3 ADD MLOAD DUP2 PUSH1 0x1 ADD SWAP1 DUP2 PUSH2 0x5EA SWAP2 SWAP1 PUSH2 0x178A JUMP JUMPDEST POP PUSH1 0x40 DUP3 ADD MLOAD DUP2 PUSH1 0x2 ADD SWAP1 DUP1 MLOAD SWAP1 PUSH1 0x20 ADD SWAP1 PUSH2 0x607 SWAP3 SWAP2 SWAP1 PUSH2 0xB97 JUMP JUMPDEST POP POP POP POP POP JUMP JUMPDEST PUSH1 0x0 DUP2 DUP4 DUP6 PUSH2 0x61D SWAP2 SWAP1 PUSH2 0x185C JUMP JUMPDEST PUSH2 0x627 SWAP2 SWAP1 PUSH2 0x15AA JUMP JUMPDEST SWAP1 POP SWAP4 SWAP3 POP POP POP JUMP JUMPDEST PUSH1 0x0 PUSH1 0x2 DUP3 PUSH2 0x63F SWAP2 SWAP1 PUSH2 0x18CD JUMP JUMPDEST EQ PUSH2 0x649 JUMPI PUSH1 0x0 DUP1 REVERT JUMPDEST PUSH1 0x0 DUP2 SWAP1 DUP1 PUSH1 0x1 DUP2 SLOAD ADD DUP1 DUP3 SSTORE DUP1 SWAP2 POP POP PUSH1 0x1 SWAP1 SUB SWAP1 PUSH1 0x0 MSTORE PUSH1 0x20 PUSH1 0x0 KECCAK256 ADD PUSH1 0x0 SWAP1 SWAP2 SWAP1 SWAP2 SWAP1 SWAP2 POP SSTORE POP JUMP JUMPDEST PUSH1 0x0 PUSH1 0x40 MLOAD PUSH1 0x20 ADD PUSH2 0x686 SWAP1 PUSH2 0x194A JUMP JUMPDEST PUSH1 0x40 MLOAD PUSH1 0x20 DUP2 DUP4 SUB SUB DUP2 MSTORE SWAP1 PUSH1 0x40 MSTORE DUP1 MLOAD SWAP1 PUSH1 0x20 ADD KECCAK256 DUP3 DUP1 MLOAD SWAP1 PUSH1 0x20 ADD KECCAK256 SUB PUSH2 0x6B2 JUMPI PUSH1 0x1 SWAP1 POP PUSH2 0x6B7 JUMP JUMPDEST PUSH1 0x0 SWAP1 POP JUMPDEST SWAP2 SWAP1 POP JUMP JUMPDEST PUSH1 0x0 DUP2 DUP4 DUP6 PUSH2 0x6CB SWAP2 SWAP1 PUSH2 0x15AA JUMP JUMPDEST PUSH2 0x6D5 SWAP2 SWAP1 PUSH2 0x15AA JUMP JUMPDEST SWAP1 POP SWAP4 SWAP3 POP POP POP JUMP JUMPDEST PUSH1 0x60 PUSH1 0x5 DUP1 SLOAD DUP1 PUSH1 0x20 MUL PUSH1 0x20 ADD PUSH1 0x40 MLOAD SWAP1 DUP2 ADD PUSH1 0x40 MSTORE DUP1 SWAP3 SWAP2 SWAP1 DUP2 DUP2 MSTORE PUSH1 0x20 ADD DUP3 DUP1 SLOAD DUP1 ISZERO PUSH2 0x72C JUMPI PUSH1 0x20 MUL DUP3 ADD SWAP2 SWAP1 PUSH1 0x0 MSTORE PUSH1 0x20 PUSH1 0x0 KECCAK256 SWAP1 JUMPDEST DUP2 SLOAD DUP2 MSTORE PUSH1 0x20 ADD SWAP1 PUSH1 0x1 ADD SWAP1 DUP1 DUP4 GT PUSH2 0x718 JUMPI JUMPDEST POP POP POP POP POP SWAP1 POP SWAP1 JUMP JUMPDEST PUSH1 0x0 JUMPDEST PUSH1 0x1 DUP3 PUSH2 0x746 SWAP2 SWAP1 PUSH2 0x15AA JUMP JUMPDEST DUP2 LT ISZERO PUSH2 0x789 JUMPI PUSH1 0x2 DUP2 SWAP1 DUP1 PUSH1 0x1 DUP2 SLOAD ADD DUP1 DUP3 SSTORE DUP1 SWAP2 POP POP PUSH1 0x1 SWAP1 SUB SWAP1 PUSH1 0x0 MSTORE PUSH1 0x20 PUSH1 0x0 KECCAK256 ADD PUSH1 0x0 SWAP1 SWAP2 SWAP1 SWAP2 SWAP1 SWAP2 POP SSTORE DUP1 DUP1 PUSH2 0x781 SWAP1 PUSH2 0x195F JUMP JUMPDEST SWAP2 POP POP PUSH2 0x739 JUMP JUMPDEST POP POP JUMP JUMPDEST PUSH1 0x60 PUSH1 0x0 PUSH1 0x3 DUP4 PUSH2 0x79E SWAP2 SWAP1 PUSH2 0x18CD JUMP JUMPDEST SUB PUSH2 0x7E0 JUMPI PUSH1 0x40 MLOAD DUP1 PUSH1 0x40 ADD PUSH1 0x40 MSTORE DUP1 PUSH1 0x1 DUP2 MSTORE PUSH1 0x20 ADD PUSH32 0x4100000000000000000000000000000000000000000000000000000000000000 DUP2 MSTORE POP SWAP1 POP PUSH2 0x86A JUMP JUMPDEST PUSH1 0x1 PUSH1 0x3 DUP4 PUSH2 0x7EF SWAP2 SWAP1 PUSH2 0x18CD JUMP JUMPDEST SUB PUSH2 0x831 JUMPI PUSH1 0x40 MLOAD DUP1 PUSH1 0x40 ADD PUSH1 0x40 MSTORE DUP1 PUSH1 0x1 DUP2 MSTORE PUSH1 0x20 ADD PUSH32 0x4200000000000000000000000000000000000000000000000000000000000000 DUP2 MSTORE POP SWAP1 POP PUSH2 0x86A JUMP JUMPDEST PUSH1 0x40 MLOAD DUP1 PUSH1 0x40 ADD PUSH1 0x40 MSTORE DUP1 PUSH1 0x1 DUP2 MSTORE PUSH1 0x20 ADD PUSH32 0x4300000000000000000000000000000000000000000000000000000000000000 DUP2 MSTORE POP SWAP1 POP JUMPDEST SWAP2 SWAP1 POP JUMP JUMPDEST PUSH1 0x60 PUSH1 0x3 DUP1 SLOAD DUP1 PUSH1 0x20 MUL PUSH1 0x20 ADD PUSH1 0x40 MLOAD SWAP1 DUP2 ADD PUSH1 0x40 MSTORE DUP1 SWAP3 SWAP2 SWAP1 DUP2 DUP2 MSTORE PUSH1 0x20 ADD DUP3 DUP1 SLOAD DUP1 ISZERO PUSH2 0x8BD JUMPI PUSH1 0x20 MUL DUP3 ADD SWAP2 SWAP1 PUSH1 0x0 MSTORE PUSH1 0x20 PUSH1 0x0 KECCAK256 SWAP1 JUMPDEST DUP2 SLOAD DUP2 MSTORE PUSH1 0x20 ADD SWAP1 PUSH1 0x1 ADD SWAP1 DUP1 DUP4 GT PUSH2 0x8A9 JUMPI JUMPDEST POP POP POP POP POP SWAP1 POP SWAP1 JUMP JUMPDEST PUSH1 0x0 DUP1 PUSH1 0x0 JUMPDEST PUSH1 0x3 DUP1 SLOAD SWAP1 POP DUP2 LT ISZERO PUSH2 0x919 JUMPI PUSH1 0x3 DUP2 DUP2 SLOAD DUP2 LT PUSH2 0x8EE JUMPI PUSH2 0x8ED PUSH2 0x19A7 JUMP JUMPDEST JUMPDEST SWAP1 PUSH1 0x0 MSTORE PUSH1 0x20 PUSH1 0x0 KECCAK256 ADD SLOAD DUP3 PUSH2 0x904 SWAP2 SWAP1 PUSH2 0x15AA JUMP JUMPDEST SWAP2 POP DUP1 DUP1 PUSH2 0x911 SWAP1 PUSH2 0x195F JUMP JUMPDEST SWAP2 POP POP PUSH2 0x8CD JUMP JUMPDEST POP DUP1 SWAP2 POP POP SWAP1 JUMP JUMPDEST PUSH1 0x0 DUP2 DUP4 DUP6 PUSH2 0x930 SWAP2 SWAP1 PUSH2 0x185C JUMP JUMPDEST PUSH2 0x93A SWAP2 SWAP1 PUSH2 0x185C JUMP JUMPDEST SWAP1 POP SWAP4 SWAP3 POP POP POP JUMP JUMPDEST PUSH1 0x5 DUP2 SWAP1 DUP1 PUSH1 0x1 DUP2 SLOAD ADD DUP1 DUP3 SSTORE DUP1 SWAP2 POP POP PUSH1 0x1 SWAP1 SUB SWAP1 PUSH1 0x0 MSTORE PUSH1 0x20 PUSH1 0x0 KECCAK256 ADD PUSH1 0x0 SWAP1 SWAP2 SWAP1 SWAP2 SWAP1 SWAP2 POP SSTORE POP JUMP JUMPDEST PUSH1 0x0 PUSH2 0x2710 DUP3 LT PUSH2 0x97F JUMPI PUSH1 0x0 DUP1 REVERT JUMPDEST PUSH1 0x2 DUP3 PUSH2 0x98C SWAP2 SWAP1 PUSH2 0x185C JUMP JUMPDEST SWAP1 POP SWAP2 SWAP1 POP JUMP JUMPDEST PUSH1 0x60 PUSH1 0x1 DUP1 SLOAD DUP1 PUSH1 0x20 MUL PUSH1 0x20 ADD PUSH1 0x40 MLOAD SWAP1 DUP2 ADD PUSH1 0x40 MSTORE DUP1 SWAP3 SWAP2 SWAP1 DUP2 DUP2 MSTORE PUSH1 0x20 ADD PUSH1 0x0 SWAP1 JUMPDEST DUP3 DUP3 LT ISZERO PUSH2 0xB5E JUMPI DUP4 DUP3 SWAP1 PUSH1 0x0 MSTORE PUSH1 0x20 PUSH1 0x0 KECCAK256 SWAP1 PUSH1 0x3 MUL ADD PUSH1 0x40 MLOAD DUP1 PUSH1 0x60 ADD PUSH1 0x40 MSTORE SWAP1 DUP2 PUSH1 0x0 DUP3 ADD SLOAD DUP2 MSTORE PUSH1 0x20 ADD PUSH1 0x1 DUP3 ADD DUP1 SLOAD PUSH2 0x9F4 SWAP1 PUSH2 0x154A JUMP JUMPDEST DUP1 PUSH1 0x1F ADD PUSH1 0x20 DUP1 SWAP2 DIV MUL PUSH1 0x20 ADD PUSH1 0x40 MLOAD SWAP1 DUP2 ADD PUSH1 0x40 MSTORE DUP1 SWAP3 SWAP2 SWAP1 DUP2 DUP2 MSTORE PUSH1 0x20 ADD DUP3 DUP1 SLOAD PUSH2 0xA20 SWAP1 PUSH2 0x154A JUMP JUMPDEST DUP1 ISZERO PUSH2 0xA6D JUMPI DUP1 PUSH1 0x1F LT PUSH2 0xA42 JUMPI PUSH2 0x100 DUP1 DUP4 SLOAD DIV MUL DUP4 MSTORE SWAP2 PUSH1 0x20 ADD SWAP2 PUSH2 0xA6D JUMP JUMPDEST DUP3 ADD SWAP2 SWAP1 PUSH1 0x0 MSTORE PUSH1 0x20 PUSH1 0x0 KECCAK256 SWAP1 JUMPDEST DUP2 SLOAD DUP2 MSTORE SWAP1 PUSH1 0x1 ADD SWAP1 PUSH1 0x20 ADD DUP1 DUP4 GT PUSH2 0xA50 JUMPI DUP3 SWAP1 SUB PUSH1 0x1F AND DUP3 ADD SWAP2 JUMPDEST POP POP POP POP POP DUP2 MSTORE PUSH1 0x20 ADD PUSH1 0x2 DUP3 ADD DUP1 SLOAD DUP1 PUSH1 0x20 MUL PUSH1 0x20 ADD PUSH1 0x40 MLOAD SWAP1 DUP2 ADD PUSH1 0x40 MSTORE DUP1 SWAP3 SWAP2 SWAP1 DUP2 DUP2 MSTORE PUSH1 0x20 ADD PUSH1 0x0 SWAP1 JUMPDEST DUP3 DUP3 LT ISZERO PUSH2 0xB47 JUMPI DUP4 DUP3 SWAP1 PUSH1 0x0 MSTORE PUSH1 0x20 PUSH1 0x0 KECCAK256 ADD DUP1 SLOAD PUSH2 0xABA SWAP1 PUSH2 0x154A JUMP JUMPDEST DUP1 PUSH1 0x1F ADD PUSH1 0x20 DUP1 SWAP2 DIV MUL PUSH1 0x20 ADD PUSH1 0x40 MLOAD SWAP1 DUP2 ADD PUSH1 0x40 MSTORE DUP1 SWAP3 SWAP2 SWAP1 DUP2 DUP2 MSTORE PUSH1 0x20 ADD DUP3 DUP1 SLOAD PUSH2 0xAE6 SWAP1 PUSH2 0x154A JUMP JUMPDEST DUP1 ISZERO PUSH2 0xB33 JUMPI DUP1 PUSH1 0x1F LT PUSH2 0xB08 JUMPI PUSH2 0x100 DUP1 DUP4 SLOAD DIV MUL DUP4 MSTORE SWAP2 PUSH1 0x20 ADD SWAP2 PUSH2 0xB33 JUMP JUMPDEST DUP3 ADD SWAP2 SWAP1 PUSH1 0x0 MSTORE PUSH1 0x20 PUSH1 0x0 KECCAK256 SWAP1 JUMPDEST DUP2 SLOAD DUP2 MSTORE SWAP1 PUSH1 0x1 ADD SWAP1 PUSH1 0x20 ADD DUP1 DUP4 GT PUSH2 0xB16 JUMPI DUP3 SWAP1 SUB PUSH1 0x1F AND DUP3 ADD SWAP2 JUMPDEST POP POP POP POP POP DUP2 MSTORE PUSH1 0x20 ADD SWAP1 PUSH1 0x1 ADD SWAP1 PUSH2 0xA9B JUMP JUMPDEST POP POP POP POP DUP2 MSTORE POP POP DUP2 MSTORE PUSH1 0x20 ADD SWAP1 PUSH1 0x1 ADD SWAP1 PUSH2 0x9B7 JUMP JUMPDEST POP POP POP POP SWAP1 POP SWAP1 JUMP JUMPDEST DUP1 PUSH1 0x4 DUP4 PUSH1 0x40 MLOAD PUSH2 0xB78 SWAP2 SWAP1 PUSH2 0x1504 JUMP JUMPDEST SWAP1 DUP2 MSTORE PUSH1 0x20 ADD PUSH1 0x40 MLOAD DUP1 SWAP2 SUB SWAP1 KECCAK256 SWAP1 DUP2 PUSH2 0xB92 SWAP2 SWAP1 PUSH2 0x178A JUMP JUMPDEST POP POP POP JUMP JUMPDEST DUP3 DUP1 SLOAD DUP3 DUP3 SSTORE SWAP1 PUSH1 0x0 MSTORE PUSH1 0x20 PUSH1 0x0 KECCAK256 SWAP1 DUP2 ADD SWAP3 DUP3 ISZERO PUSH2 0xBDF JUMPI SWAP2 PUSH1 0x20 MUL DUP3 ADD JUMPDEST DUP3 DUP2 GT ISZERO PUSH2 0xBDE JUMPI DUP3 MLOAD DUP3 SWAP1 DUP2 PUSH2 0xBCE SWAP2 SWAP1 PUSH2 0x178A JUMP JUMPDEST POP SWAP2 PUSH1 0x20 ADD SWAP2 SWAP1 PUSH1 0x1 ADD SWAP1 PUSH2 0xBB7 JUMP JUMPDEST JUMPDEST POP SWAP1 POP PUSH2 0xBEC SWAP2 SWAP1 PUSH2 0xBF0 JUMP JUMPDEST POP SWAP1 JUMP JUMPDEST JUMPDEST DUP1 DUP3 GT ISZERO PUSH2 0xC10 JUMPI PUSH1 0x0 DUP2 DUP2 PUSH2 0xC07 SWAP2 SWAP1 PUSH2 0xC14 JUMP JUMPDEST POP PUSH1 0x1 ADD PUSH2 0xBF1 JUMP JUMPDEST POP SWAP1 JUMP JUMPDEST POP DUP1 SLOAD PUSH2 0xC20 SWAP1 PUSH2 0x154A JUMP JUMPDEST PUSH1 0x0 DUP3 SSTORE DUP1 PUSH1 0x1F LT PUSH2 0xC32 JUMPI POP PUSH2 0xC51 JUMP JUMPDEST PUSH1 0x1F ADD PUSH1 0x20 SWAP1 DIV SWAP1 PUSH1 0x0 MSTORE PUSH1 0x20 PUSH1 0x0 KECCAK256 SWAP1 DUP2 ADD SWAP1 PUSH2 0xC50 SWAP2 SWAP1 PUSH2 0xC54 JUMP JUMPDEST JUMPDEST POP JUMP JUMPDEST JUMPDEST DUP1 DUP3 GT ISZERO PUSH2 0xC6D JUMPI PUSH1 0x0 DUP2 PUSH1 0x0 SWAP1 SSTORE POP PUSH1 0x1 ADD PUSH2 0xC55 JUMP JUMPDEST POP SWAP1 JUMP JUMPDEST PUSH1 0x0 PUSH1 0x40 MLOAD SWAP1 POP SWAP1 JUMP JUMPDEST PUSH1 0x0 DUP1 REVERT JUMPDEST PUSH1 0x0 DUP1 REVERT JUMPDEST PUSH1 0x0 DUP2 SWAP1 POP SWAP2 SWAP1 POP JUMP JUMPDEST PUSH2 0xC98 DUP2 PUSH2 0xC85 JUMP JUMPDEST DUP2 EQ PUSH2 0xCA3 JUMPI PUSH1 0x0 DUP1 REVERT JUMPDEST POP JUMP JUMPDEST PUSH1 0x0 DUP2 CALLDATALOAD SWAP1 POP PUSH2 0xCB5 DUP2 PUSH2 0xC8F JUMP JUMPDEST SWAP3 SWAP2 POP POP JUMP JUMPDEST PUSH1 0x0 PUSH1 0x20 DUP3 DUP5 SUB SLT ISZERO PUSH2 0xCD1 JUMPI PUSH2 0xCD0 PUSH2 0xC7B JUMP JUMPDEST JUMPDEST PUSH1 0x0 PUSH2 0xCDF DUP5 DUP3 DUP6 ADD PUSH2 0xCA6 JUMP JUMPDEST SWAP2 POP POP SWAP3 SWAP2 POP POP JUMP JUMPDEST PUSH1 0x0 DUP2 MLOAD SWAP1 POP SWAP2 SWAP1 POP JUMP JUMPDEST PUSH1 0x0 DUP3 DUP3 MSTORE PUSH1 0x20 DUP3 ADD SWAP1 POP SWAP3 SWAP2 POP POP JUMP JUMPDEST PUSH1 0x0 DUP2 SWAP1 POP PUSH1 0x20 DUP3 ADD SWAP1 POP SWAP2 SWAP1 POP JUMP JUMPDEST PUSH2 0xD1D DUP2 PUSH2 0xC85 JUMP JUMPDEST DUP3 MSTORE POP POP JUMP JUMPDEST PUSH1 0x0 PUSH2 0xD2F DUP4 DUP4 PUSH2 0xD14 JUMP JUMPDEST PUSH1 0x20 DUP4 ADD SWAP1 POP SWAP3 SWAP2 POP POP JUMP JUMPDEST PUSH1 0x0 PUSH1 0x20 DUP3 ADD SWAP1 POP SWAP2 SWAP1 POP JUMP JUMPDEST PUSH1 0x0 PUSH2 0xD53 DUP3 PUSH2 0xCE8 JUMP JUMPDEST PUSH2 0xD5D DUP2 DUP6 PUSH2 0xCF3 JUMP JUMPDEST SWAP4 POP PUSH2 0xD68 DUP4 PUSH2 0xD04 JUMP JUMPDEST DUP1 PUSH1 0x0 JUMPDEST DUP4 DUP2 LT ISZERO PUSH2 0xD99 JUMPI DUP2 MLOAD PUSH2 0xD80 DUP9 DUP3 PUSH2 0xD23 JUMP JUMPDEST SWAP8 POP PUSH2 0xD8B DUP4 PUSH2 0xD3B JUMP JUMPDEST SWAP3 POP POP PUSH1 0x1 DUP2 ADD SWAP1 POP PUSH2 0xD6C JUMP JUMPDEST POP DUP6 SWAP4 POP POP POP POP SWAP3 SWAP2 POP POP JUMP JUMPDEST PUSH1 0x0 PUSH1 0x20 DUP3 ADD SWAP1 POP DUP2 DUP2 SUB PUSH1 0x0 DUP4 ADD MSTORE PUSH2 0xDC0 DUP2 DUP5 PUSH2 0xD48 JUMP JUMPDEST SWAP1 POP SWAP3 SWAP2 POP POP JUMP JUMPDEST PUSH1 0x0 DUP1 REVERT JUMPDEST PUSH1 0x0 DUP1 REVERT JUMPDEST PUSH1 0x0 PUSH1 0x1F NOT PUSH1 0x1F DUP4 ADD AND SWAP1 POP SWAP2 SWAP1 POP JUMP JUMPDEST PUSH32 0x4E487B7100000000000000000000000000000000000000000000000000000000 PUSH1 0x0 MSTORE PUSH1 0x41 PUSH1 0x4 MSTORE PUSH1 0x24 PUSH1 0x0 REVERT JUMPDEST PUSH2 0xE1B DUP3 PUSH2 0xDD2 JUMP JUMPDEST DUP2 ADD DUP2 DUP2 LT PUSH8 0xFFFFFFFFFFFFFFFF DUP3 GT OR ISZERO PUSH2 0xE3A JUMPI PUSH2 0xE39 PUSH2 0xDE3 JUMP JUMPDEST JUMPDEST DUP1 PUSH1 0x40 MSTORE POP POP POP JUMP JUMPDEST PUSH1 0x0 PUSH2 0xE4D PUSH2 0xC71 JUMP JUMPDEST SWAP1 POP PUSH2 0xE59 DUP3 DUP3 PUSH2 0xE12 JUMP JUMPDEST SWAP2 SWAP1 POP JUMP JUMPDEST PUSH1 0x0 PUSH8 0xFFFFFFFFFFFFFFFF DUP3 GT ISZERO PUSH2 0xE79 JUMPI PUSH2 0xE78 PUSH2 0xDE3 JUMP JUMPDEST JUMPDEST PUSH2 0xE82 DUP3 PUSH2 0xDD2 JUMP JUMPDEST SWAP1 POP PUSH1 0x20 DUP2 ADD SWAP1 POP SWAP2 SWAP1 POP JUMP JUMPDEST DUP3 DUP2 DUP4 CALLDATACOPY PUSH1 0x0 DUP4 DUP4 ADD MSTORE POP POP POP JUMP JUMPDEST PUSH1 0x0 PUSH2 0xEB1 PUSH2 0xEAC DUP5 PUSH2 0xE5E JUMP JUMPDEST PUSH2 0xE43 JUMP JUMPDEST SWAP1 POP DUP3 DUP2 MSTORE PUSH1 0x20 DUP2 ADD DUP5 DUP5 DUP5 ADD GT ISZERO PUSH2 0xECD JUMPI PUSH2 0xECC PUSH2 0xDCD JUMP JUMPDEST JUMPDEST PUSH2 0xED8 DUP5 DUP3 DUP6 PUSH2 0xE8F JUMP JUMPDEST POP SWAP4 SWAP3 POP POP POP JUMP JUMPDEST PUSH1 0x0 DUP3 PUSH1 0x1F DUP4 ADD SLT PUSH2 0xEF5 JUMPI PUSH2 0xEF4 PUSH2 0xDC8 JUMP JUMPDEST JUMPDEST DUP2 CALLDATALOAD PUSH2 0xF05 DUP5 DUP3 PUSH1 0x20 DUP7 ADD PUSH2 0xE9E JUMP JUMPDEST SWAP2 POP POP SWAP3 SWAP2 POP POP JUMP JUMPDEST PUSH1 0x0 PUSH1 0x20 DUP3 DUP5 SUB SLT ISZERO PUSH2 0xF24 JUMPI PUSH2 0xF23 PUSH2 0xC7B JUMP JUMPDEST JUMPDEST PUSH1 0x0 DUP3 ADD CALLDATALOAD PUSH8 0xFFFFFFFFFFFFFFFF DUP2 GT ISZERO PUSH2 0xF42 JUMPI PUSH2 0xF41 PUSH2 0xC80 JUMP JUMPDEST JUMPDEST PUSH2 0xF4E DUP5 DUP3 DUP6 ADD PUSH2 0xEE0 JUMP JUMPDEST SWAP2 POP POP SWAP3 SWAP2 POP POP JUMP JUMPDEST PUSH1 0x0 DUP2 MLOAD SWAP1 POP SWAP2 SWAP1 POP JUMP JUMPDEST PUSH1 0x0 DUP3 DUP3 MSTORE PUSH1 0x20 DUP3 ADD SWAP1 POP SWAP3 SWAP2 POP POP JUMP JUMPDEST PUSH1 0x0 JUMPDEST DUP4 DUP2 LT ISZERO PUSH2 0xF91 JUMPI DUP1 DUP3 ADD MLOAD DUP2 DUP5 ADD MSTORE PUSH1 0x20 DUP2 ADD SWAP1 POP PUSH2 0xF76 JUMP JUMPDEST PUSH1 0x0 DUP5 DUP5 ADD MSTORE POP POP POP POP JUMP JUMPDEST PUSH1 0x0 PUSH2 0xFA8 DUP3 PUSH2 0xF57 JUMP JUMPDEST PUSH2 0xFB2 DUP2 DUP6 PUSH2 0xF62 JUMP JUMPDEST SWAP4 POP PUSH2 0xFC2 DUP2 DUP6 PUSH1 0x20 DUP7 ADD PUSH2 0xF73 JUMP JUMPDEST PUSH2 0xFCB DUP2 PUSH2 0xDD2 JUMP JUMPDEST DUP5 ADD SWAP2 POP POP SWAP3 SWAP2 POP POP JUMP JUMPDEST PUSH1 0x0 PUSH1 0x20 DUP3 ADD SWAP1 POP DUP2 DUP2 SUB PUSH1 0x0 DUP4 ADD MSTORE PUSH2 0xFF0 DUP2 DUP5 PUSH2 0xF9D JUMP JUMPDEST SWAP1 POP SWAP3 SWAP2 POP POP JUMP JUMPDEST PUSH1 0x0 PUSH8 0xFFFFFFFFFFFFFFFF DUP3 GT ISZERO PUSH2 0x1013 JUMPI PUSH2 0x1012 PUSH2 0xDE3 JUMP JUMPDEST JUMPDEST PUSH1 0x20 DUP3 MUL SWAP1 POP PUSH1 0x20 DUP2 ADD SWAP1 POP SWAP2 SWAP1 POP JUMP JUMPDEST PUSH1 0x0 DUP1 REVERT JUMPDEST PUSH1 0x0 PUSH2 0x103C PUSH2 0x1037 DUP5 PUSH2 0xFF8 JUMP JUMPDEST PUSH2 0xE43 JUMP JUMPDEST SWAP1 POP DUP1 DUP4 DUP3 MSTORE PUSH1 0x20 DUP3 ADD SWAP1 POP PUSH1 0x20 DUP5 MUL DUP4 ADD DUP6 DUP2 GT ISZERO PUSH2 0x105F JUMPI PUSH2 0x105E PUSH2 0x1024 JUMP JUMPDEST JUMPDEST DUP4 JUMPDEST DUP2 DUP2 LT ISZERO PUSH2 0x10A6 JUMPI DUP1 CALLDATALOAD PUSH8 0xFFFFFFFFFFFFFFFF DUP2 GT ISZERO PUSH2 0x1084 JUMPI PUSH2 0x1083 PUSH2 0xDC8 JUMP JUMPDEST JUMPDEST DUP1 DUP7 ADD PUSH2 0x1091 DUP10 DUP3 PUSH2 0xEE0 JUMP JUMPDEST DUP6 MSTORE PUSH1 0x20 DUP6 ADD SWAP5 POP POP POP PUSH1 0x20 DUP2 ADD SWAP1 POP PUSH2 0x1061 JUMP JUMPDEST POP POP POP SWAP4 SWAP3 POP POP POP JUMP JUMPDEST PUSH1 0x0 DUP3 PUSH1 0x1F DUP4 ADD SLT PUSH2 0x10C5 JUMPI PUSH2 0x10C4 PUSH2 0xDC8 JUMP JUMPDEST JUMPDEST DUP2 CALLDATALOAD PUSH2 0x10D5 DUP5 DUP3 PUSH1 0x20 DUP7 ADD PUSH2 0x1029 JUMP JUMPDEST SWAP2 POP POP SWAP3 SWAP2 POP POP JUMP JUMPDEST PUSH1 0x0 DUP1 PUSH1 0x40 DUP4 DUP6 SUB SLT ISZERO PUSH2 0x10F5 JUMPI PUSH2 0x10F4 PUSH2 0xC7B JUMP JUMPDEST JUMPDEST PUSH1 0x0 DUP4 ADD CALLDATALOAD PUSH8 0xFFFFFFFFFFFFFFFF DUP2 GT ISZERO PUSH2 0x1113 JUMPI PUSH2 0x1112 PUSH2 0xC80 JUMP JUMPDEST JUMPDEST PUSH2 0x111F DUP6 DUP3 DUP7 ADD PUSH2 0xEE0 JUMP JUMPDEST SWAP3 POP POP PUSH1 0x20 DUP4 ADD CALLDATALOAD PUSH8 0xFFFFFFFFFFFFFFFF DUP2 GT ISZERO PUSH2 0x1140 JUMPI PUSH2 0x113F PUSH2 0xC80 JUMP JUMPDEST JUMPDEST PUSH2 0x114C DUP6 DUP3 DUP7 ADD PUSH2 0x10B0 JUMP JUMPDEST SWAP2 POP POP SWAP3 POP SWAP3 SWAP1 POP JUMP JUMPDEST PUSH1 0x0 DUP1 PUSH1 0x0 PUSH1 0x60 DUP5 DUP7 SUB SLT ISZERO PUSH2 0x116F JUMPI PUSH2 0x116E PUSH2 0xC7B JUMP JUMPDEST JUMPDEST PUSH1 0x0 PUSH2 0x117D DUP7 DUP3 DUP8 ADD PUSH2 0xCA6 JUMP JUMPDEST SWAP4 POP POP PUSH1 0x20 PUSH2 0x118E DUP7 DUP3 DUP8 ADD PUSH2 0xCA6 JUMP JUMPDEST SWAP3 POP POP PUSH1 0x40 PUSH2 0x119F DUP7 DUP3 DUP8 ADD PUSH2 0xCA6 JUMP JUMPDEST SWAP2 POP POP SWAP3 POP SWAP3 POP SWAP3 JUMP JUMPDEST PUSH2 0x11B2 DUP2 PUSH2 0xC85 JUMP JUMPDEST DUP3 MSTORE POP POP JUMP JUMPDEST PUSH1 0x0 PUSH1 0x20 DUP3 ADD SWAP1 POP PUSH2 0x11CD PUSH1 0x0 DUP4 ADD DUP5 PUSH2 0x11A9 JUMP JUMPDEST SWAP3 SWAP2 POP POP JUMP JUMPDEST PUSH1 0x0 DUP2 ISZERO ISZERO SWAP1 POP SWAP2 SWAP1 POP JUMP JUMPDEST PUSH2 0x11E8 DUP2 PUSH2 0x11D3 JUMP JUMPDEST DUP3 MSTORE POP POP JUMP JUMPDEST PUSH1 0x0 PUSH1 0x20 DUP3 ADD SWAP1 POP PUSH2 0x1203 PUSH1 0x0 DUP4 ADD DUP5 PUSH2 0x11DF JUMP JUMPDEST SWAP3 SWAP2 POP POP JUMP JUMPDEST PUSH1 0x0 DUP2 MLOAD SWAP1 POP SWAP2 SWAP1 POP JUMP JUMPDEST PUSH1 0x0 DUP3 DUP3 MSTORE PUSH1 0x20 DUP3 ADD SWAP1 POP SWAP3 SWAP2 POP POP JUMP JUMPDEST PUSH1 0x0 DUP2 SWAP1 POP PUSH1 0x20 DUP3 ADD SWAP1 POP SWAP2 SWAP1 POP JUMP JUMPDEST PUSH1 0x0 DUP3 DUP3 MSTORE PUSH1 0x20 DUP3 ADD SWAP1 POP SWAP3 SWAP2 POP POP JUMP JUMPDEST PUSH1 0x0 PUSH2 0x1251 DUP3 PUSH2 0xF57 JUMP JUMPDEST PUSH2 0x125B DUP2 DUP6 PUSH2 0x1235 JUMP JUMPDEST SWAP4 POP PUSH2 0x126B DUP2 DUP6 PUSH1 0x20 DUP7 ADD PUSH2 0xF73 JUMP JUMPDEST PUSH2 0x1274 DUP2 PUSH2 0xDD2 JUMP JUMPDEST DUP5 ADD SWAP2 POP POP SWAP3 SWAP2 POP POP JUMP JUMPDEST PUSH1 0x0 DUP2 MLOAD SWAP1 POP SWAP2 SWAP1 POP JUMP JUMPDEST PUSH1 0x0 DUP3 DUP3 MSTORE PUSH1 0x20 DUP3 ADD SWAP1 POP SWAP3 SWAP2 POP POP JUMP JUMPDEST PUSH1 0x0 DUP2 SWAP1 POP PUSH1 0x20 DUP3 ADD SWAP1 POP SWAP2 SWAP1 POP JUMP JUMPDEST PUSH1 0x0 PUSH2 0x12B7 DUP4 DUP4 PUSH2 0x1246 JUMP JUMPDEST SWAP1 POP SWAP3 SWAP2 POP POP JUMP JUMPDEST PUSH1 0x0 PUSH1 0x20 DUP3 ADD SWAP1 POP SWAP2 SWAP1 POP JUMP JUMPDEST PUSH1 0x0 PUSH2 0x12D7 DUP3 PUSH2 0x127F JUMP JUMPDEST PUSH2 0x12E1 DUP2 DUP6 PUSH2 0x128A JUMP JUMPDEST SWAP4 POP DUP4 PUSH1 0x20 DUP3 MUL DUP6 ADD PUSH2 0x12F3 DUP6 PUSH2 0x129B JUMP JUMPDEST DUP1 PUSH1 0x0 JUMPDEST DUP6 DUP2 LT ISZERO PUSH2 0x132F JUMPI DUP5 DUP5 SUB DUP10 MSTORE DUP2 MLOAD PUSH2 0x1310 DUP6 DUP3 PUSH2 0x12AB JUMP JUMPDEST SWAP5 POP PUSH2 0x131B DUP4 PUSH2 0x12BF JUMP JUMPDEST SWAP3 POP PUSH1 0x20 DUP11 ADD SWAP10 POP POP PUSH1 0x1 DUP2 ADD SWAP1 POP PUSH2 0x12F7 JUMP JUMPDEST POP DUP3 SWAP8 POP DUP8 SWAP6 POP POP POP POP POP POP SWAP3 SWAP2 POP POP JUMP JUMPDEST PUSH1 0x0 PUSH1 0x60 DUP4 ADD PUSH1 0x0 DUP4 ADD MLOAD PUSH2 0x1359 PUSH1 0x0 DUP7 ADD DUP3 PUSH2 0xD14 JUMP JUMPDEST POP PUSH1 0x20 DUP4 ADD MLOAD DUP5 DUP3 SUB PUSH1 0x20 DUP7 ADD MSTORE PUSH2 0x1371 DUP3 DUP3 PUSH2 0x1246 JUMP JUMPDEST SWAP2 POP POP PUSH1 0x40 DUP4 ADD MLOAD DUP5 DUP3 SUB PUSH1 0x40 DUP7 ADD MSTORE PUSH2 0x138B DUP3 DUP3 PUSH2 0x12CC JUMP JUMPDEST SWAP2 POP POP DUP1 SWAP2 POP POP SWAP3 SWAP2 POP POP JUMP JUMPDEST PUSH1 0x0 PUSH2 0x13A4 DUP4 DUP4 PUSH2 0x1341 JUMP JUMPDEST SWAP1 POP SWAP3 SWAP2 POP POP JUMP JUMPDEST PUSH1 0x0 PUSH1 0x20 DUP3 ADD SWAP1 POP SWAP2 SWAP1 POP JUMP JUMPDEST PUSH1 0x0 PUSH2 0x13C4 DUP3 PUSH2 0x1209 JUMP JUMPDEST PUSH2 0x13CE DUP2 DUP6 PUSH2 0x1214 JUMP JUMPDEST SWAP4 POP DUP4 PUSH1 0x20 DUP3 MUL DUP6 ADD PUSH2 0x13E0 DUP6 PUSH2 0x1225 JUMP JUMPDEST DUP1 PUSH1 0x0 JUMPDEST DUP6 DUP2 LT ISZERO PUSH2 0x141C JUMPI DUP5 DUP5 SUB DUP10 MSTORE DUP2 MLOAD PUSH2 0x13FD DUP6 DUP3 PUSH2 0x1398 JUMP JUMPDEST SWAP5 POP PUSH2 0x1408 DUP4 PUSH2 0x13AC JUMP JUMPDEST SWAP3 POP PUSH1 0x20 DUP11 ADD SWAP10 POP POP PUSH1 0x1 DUP2 ADD SWAP1 POP PUSH2 0x13E4 JUMP JUMPDEST POP DUP3 SWAP8 POP DUP8 SWAP6 POP POP POP POP POP POP SWAP3 SWAP2 POP POP JUMP JUMPDEST PUSH1 0x0 PUSH1 0x20 DUP3 ADD SWAP1 POP DUP2 DUP2 SUB PUSH1 0x0 DUP4 ADD MSTORE PUSH2 0x1448 DUP2 DUP5 PUSH2 0x13B9 JUMP JUMPDEST SWAP1 POP SWAP3 SWAP2 POP POP JUMP JUMPDEST PUSH1 0x0 DUP1 PUSH1 0x40 DUP4 DUP6 SUB SLT ISZERO PUSH2 0x1467 JUMPI PUSH2 0x1466 PUSH2 0xC7B JUMP JUMPDEST JUMPDEST PUSH1 0x0 DUP4 ADD CALLDATALOAD PUSH8 0xFFFFFFFFFFFFFFFF DUP2 GT ISZERO PUSH2 0x1485 JUMPI PUSH2 0x1484 PUSH2 0xC80 JUMP JUMPDEST JUMPDEST PUSH2 0x1491 DUP6 DUP3 DUP7 ADD PUSH2 0xEE0 JUMP JUMPDEST SWAP3 POP POP PUSH1 0x20 DUP4 ADD CALLDATALOAD PUSH8 0xFFFFFFFFFFFFFFFF DUP2 GT ISZERO PUSH2 0x14B2 JUMPI PUSH2 0x14B1 PUSH2 0xC80 JUMP JUMPDEST JUMPDEST PUSH2 0x14BE DUP6 DUP3 DUP7 ADD PUSH2 0xEE0 JUMP JUMPDEST SWAP2 POP POP SWAP3 POP SWAP3 SWAP1 POP JUMP JUMPDEST PUSH1 0x0 DUP2 SWAP1 POP SWAP3 SWAP2 POP POP JUMP JUMPDEST PUSH1 0x0 PUSH2 0x14DE DUP3 PUSH2 0xF57 JUMP JUMPDEST PUSH2 0x14E8 DUP2 DUP6 PUSH2 0x14C8 JUMP JUMPDEST SWAP4 POP PUSH2 0x14F8 DUP2 DUP6 PUSH1 0x20 DUP7 ADD PUSH2 0xF73 JUMP JUMPDEST DUP1 DUP5 ADD SWAP2 POP POP SWAP3 SWAP2 POP POP JUMP JUMPDEST PUSH1 0x0 PUSH2 0x1510 DUP3 DUP5 PUSH2 0x14D3 JUMP JUMPDEST SWAP2 POP DUP2 SWAP1 POP SWAP3 SWAP2 POP POP JUMP JUMPDEST PUSH32 0x4E487B7100000000000000000000000000000000000000000000000000000000 PUSH1 0x0 MSTORE PUSH1 0x22 PUSH1 0x4 MSTORE PUSH1 0x24 PUSH1 0x0 REVERT JUMPDEST PUSH1 0x0 PUSH1 0x2 DUP3 DIV SWAP1 POP PUSH1 0x1 DUP3 AND DUP1 PUSH2 0x1562 JUMPI PUSH1 0x7F DUP3 AND SWAP2 POP JUMPDEST PUSH1 0x20 DUP3 LT DUP2 SUB PUSH2 0x1575 JUMPI PUSH2 0x1574 PUSH2 0x151B JUMP JUMPDEST JUMPDEST POP SWAP2 SWAP1 POP JUMP JUMPDEST PUSH32 0x4E487B7100000000000000000000000000000000000000000000000000000000 PUSH1 0x0 MSTORE PUSH1 0x11 PUSH1 0x4 MSTORE PUSH1 0x24 PUSH1 0x0 REVERT JUMPDEST PUSH1 0x0 PUSH2 0x15B5 DUP3 PUSH2 0xC85 JUMP JUMPDEST SWAP2 POP PUSH2 0x15C0 DUP4 PUSH2 0xC85 JUMP JUMPDEST SWAP3 POP DUP3 DUP3 ADD SWAP1 POP DUP1 DUP3 GT ISZERO PUSH2 0x15D8 JUMPI PUSH2 0x15D7 PUSH2 0x157B JUMP JUMPDEST JUMPDEST SWAP3 SWAP2 POP POP JUMP JUMPDEST PUSH1 0x0 DUP2 SWAP1 POP DUP2 PUSH1 0x0 MSTORE PUSH1 0x20 PUSH1 0x0 KECCAK256 SWAP1 POP SWAP2 SWAP1 POP JUMP JUMPDEST PUSH1 0x0 PUSH1 0x20 PUSH1 0x1F DUP4 ADD DIV SWAP1 POP SWAP2 SWAP1 POP JUMP JUMPDEST PUSH1 0x0 DUP3 DUP3 SHL SWAP1 POP SWAP3 SWAP2 POP POP JUMP JUMPDEST PUSH1 0x0 PUSH1 0x8 DUP4 MUL PUSH2 0x1640 PUSH32 0xFFFFFFFFFFFFFFFFFFFFFFFFFFFFFFFFFFFFFFFFFFFFFFFFFFFFFFFFFFFFFFFF DUP3 PUSH2 0x1603 JUMP JUMPDEST PUSH2 0x164A DUP7 DUP4 PUSH2 0x1603 JUMP JUMPDEST SWAP6 POP DUP1 NOT DUP5 AND SWAP4 POP DUP1 DUP7 AND DUP5 OR SWAP3 POP POP POP SWAP4 SWAP3 POP POP POP JUMP JUMPDEST PUSH1 0x0 DUP2 SWAP1 POP SWAP2 SWAP1 POP JUMP JUMPDEST PUSH1 0x0 PUSH2 0x1687 PUSH2 0x1682 PUSH2 0x167D DUP5 PUSH2 0xC85 JUMP JUMPDEST PUSH2 0x1662 JUMP JUMPDEST PUSH2 0xC85 JUMP JUMPDEST SWAP1 POP SWAP2 SWAP1 POP JUMP JUMPDEST PUSH1 0x0 DUP2 SWAP1 POP SWAP2 SWAP1 POP JUMP JUMPDEST PUSH2 0x16A1 DUP4 PUSH2 0x166C JUMP JUMPDEST PUSH2 0x16B5 PUSH2 0x16AD DUP3 PUSH2 0x168E JUMP JUMPDEST DUP5 DUP5 SLOAD PUSH2 0x1610 JUMP JUMPDEST DUP3 SSTORE POP POP POP POP JUMP JUMPDEST PUSH1 0x0 SWAP1 JUMP JUMPDEST PUSH2 0x16CA PUSH2 0x16BD JUMP JUMPDEST PUSH2 0x16D5 DUP2 DUP5 DUP5 PUSH2 0x1698 JUMP JUMPDEST POP POP POP JUMP JUMPDEST JUMPDEST DUP2 DUP2 LT ISZERO PUSH2 0x16F9 JUMPI PUSH2 0x16EE PUSH1 0x0 DUP3 PUSH2 0x16C2 JUMP JUMPDEST PUSH1 0x1 DUP2 ADD SWAP1 POP PUSH2 0x16DB JUMP JUMPDEST POP POP JUMP JUMPDEST PUSH1 0x1F DUP3 GT ISZERO PUSH2 0x173E JUMPI PUSH2 0x170F DUP2 PUSH2 0x15DE JUMP JUMPDEST PUSH2 0x1718 DUP5 PUSH2 0x15F3 JUMP JUMPDEST DUP2 ADD PUSH1 0x20 DUP6 LT ISZERO PUSH2 0x1727 JUMPI DUP2 SWAP1 POP JUMPDEST PUSH2 0x173B PUSH2 0x1733 DUP6 PUSH2 0x15F3 JUMP JUMPDEST DUP4 ADD DUP3 PUSH2 0x16DA JUMP JUMPDEST POP POP JUMPDEST POP POP POP JUMP JUMPDEST PUSH1 0x0 DUP3 DUP3 SHR SWAP1 POP SWAP3 SWAP2 POP POP JUMP JUMPDEST PUSH1 0x0 PUSH2 0x1761 PUSH1 0x0 NOT DUP5 PUSH1 0x8 MUL PUSH2 0x1743 JUMP JUMPDEST NOT DUP1 DUP4 AND SWAP2 POP POP SWAP3 SWAP2 POP POP JUMP JUMPDEST PUSH1 0x0 PUSH2 0x177A DUP4 DUP4 PUSH2 0x1750 JUMP JUMPDEST SWAP2 POP DUP3 PUSH1 0x2 MUL DUP3 OR SWAP1 POP SWAP3 SWAP2 POP POP JUMP JUMPDEST PUSH2 0x1793 DUP3 PUSH2 0xF57 JUMP JUMPDEST PUSH8 0xFFFFFFFFFFFFFFFF DUP2 GT ISZERO PUSH2 0x17AC JUMPI PUSH2 0x17AB PUSH2 0xDE3 JUMP JUMPDEST JUMPDEST PUSH2 0x17B6 DUP3 SLOAD PUSH2 0x154A JUMP JUMPDEST PUSH2 0x17C1 DUP3 DUP3 DUP6 PUSH2 0x16FD JUMP JUMPDEST PUSH1 0x0 PUSH1 0x20 SWAP1 POP PUSH1 0x1F DUP4 GT PUSH1 0x1 DUP2 EQ PUSH2 0x17F4 JUMPI PUSH1 0x0 DUP5 ISZERO PUSH2 0x17E2 JUMPI DUP3 DUP8 ADD MLOAD SWAP1 POP JUMPDEST PUSH2 0x17EC DUP6 DUP3 PUSH2 0x176E JUMP JUMPDEST DUP7 SSTORE POP PUSH2 0x1854 JUMP JUMPDEST PUSH1 0x1F NOT DUP5 AND PUSH2 0x1802 DUP7 PUSH2 0x15DE JUMP JUMPDEST PUSH1 0x0 JUMPDEST DUP3 DUP2 LT ISZERO PUSH2 0x182A JUMPI DUP5 DUP10 ADD MLOAD DUP3 SSTORE PUSH1 0x1 DUP3 ADD SWAP2 POP PUSH1 0x20 DUP6 ADD SWAP5 POP PUSH1 0x20 DUP2 ADD SWAP1 POP PUSH2 0x1805 JUMP JUMPDEST DUP7 DUP4 LT ISZERO PUSH2 0x1847 JUMPI DUP5 DUP10 ADD MLOAD PUSH2 0x1843 PUSH1 0x1F DUP10 AND DUP3 PUSH2 0x1750 JUMP JUMPDEST DUP4 SSTORE POP JUMPDEST PUSH1 0x1 PUSH1 0x2 DUP9 MUL ADD DUP9 SSTORE POP POP POP JUMPDEST POP POP POP POP POP POP JUMP JUMPDEST PUSH1 0x0 PUSH2 0x1867 DUP3 PUSH2 0xC85 JUMP JUMPDEST SWAP2 POP PUSH2 0x1872 DUP4 PUSH2 0xC85 JUMP JUMPDEST SWAP3 POP DUP3 DUP3 MUL PUSH2 0x1880 DUP2 PUSH2 0xC85 JUMP JUMPDEST SWAP2 POP DUP3 DUP3 DIV DUP5 EQ DUP4 ISZERO OR PUSH2 0x1897 JUMPI PUSH2 0x1896 PUSH2 0x157B JUMP JUMPDEST JUMPDEST POP SWAP3 SWAP2 POP POP JUMP JUMPDEST PUSH32 0x4E487B7100000000000000000000000000000000000000000000000000000000 PUSH1 0x0 MSTORE PUSH1 0x12 PUSH1 0x4 MSTORE PUSH1 0x24 PUSH1 0x0 REVERT JUMPDEST PUSH1 0x0 PUSH2 0x18D8 DUP3 PUSH2 0xC85 JUMP JUMPDEST SWAP2 POP PUSH2 0x18E3 DUP4 PUSH2 0xC85 JUMP JUMPDEST SWAP3 POP DUP3 PUSH2 0x18F3 JUMPI PUSH2 0x18F2 PUSH2 0x189E JUMP JUMPDEST JUMPDEST DUP3 DUP3 MOD SWAP1 POP SWAP3 SWAP2 POP POP JUMP JUMPDEST PUSH32 0x426F620000000000000000000000000000000000000000000000000000000000 PUSH1 0x0 DUP3 ADD MSTORE POP JUMP JUMPDEST PUSH1 0x0 PUSH2 0x1934 PUSH1 0x3 DUP4 PUSH2 0x14C8 JUMP JUMPDEST SWAP2 POP PUSH2 0x193F DUP3 PUSH2 0x18FE JUMP JUMPDEST PUSH1 0x3 DUP3 ADD SWAP1 POP SWAP2 SWAP1 POP JUMP JUMPDEST PUSH1 0x0 PUSH2 0x1955 DUP3 PUSH2 0x1927 JUMP JUMPDEST SWAP2 POP DUP2 SWAP1 POP SWAP2 SWAP1 POP JUMP JUMPDEST PUSH1 0x0 PUSH2 0x196A DUP3 PUSH2 0xC85 JUMP JUMPDEST SWAP2 POP PUSH32 0xFFFFFFFFFFFFFFFFFFFFFFFFFFFFFFFFFFFFFFFFFFFFFFFFFFFFFFFFFFFFFFFF DUP3 SUB PUSH2 0x199C JUMPI PUSH2 0x199B PUSH2 0x157B JUMP JUMPDEST JUMPDEST PUSH1 0x1 DUP3 ADD SWAP1 POP SWAP2 SWAP1 POP JUMP JUMPDEST PUSH32 0x4E487B7100000000000000000000000000000000000000000000000000000000 PUSH1 0x0 MSTORE PUSH1 0x32 PUSH1 0x4 MSTORE PUSH1 0x24 PUSH1 0x0 REVERT INVALID LOG2 PUSH5 0x6970667358 0x22 SLT KECCAK256 0x2F 0xE8 0xBB STOP CALL SWAP9 0xD0 RETURN PUSH2 0xE71 SWAP4 SIGNEXTEND 0x4E 0xEF 0xCA MUL 0x5F PUSH20 0x88860C57596F4001E89C13698464736F6C634300 ADDMOD SLT STOP CALLER "
				},
				"gasEstimates": {
					"creation": {
						"codeDepositCost": "1333600",
						"executionCost": "1390",
						"totalCost": "1334990"
					},
					"external": {
						"Mul(uint256,uint256,uint256)": "infinite",
						"Odd(uint256)": "infinite",
						"abc(uint256)": "infinite",
						"addarray()": "infinite",
						"autoPush(uint256)": "infinite",
						"com(uint256,uint256,uint256)": "infinite",
						"double(uint256)": "infinite",
						"getAP()": "infinite",
						"getArray()": "infinite",
						"getBirth(string)": "infinite",
						"getBob(string)": "infinite",
						"getC()": "infinite",
						"getOdd()": "infinite",
						"getStudents()": "infinite",
						"pusharray(uint256)": "46853",
						"setBirth(string,string)": "infinite",
						"setC(uint256)": "46873",
						"setStudents(string,string[])": "infinite",
						"sum(uint256,uint256,uint256)": "infinite",
						"triple()": "256"
					}
				},
				"methodIdentifiers": {
					"Mul(uint256,uint256,uint256)": "df380dd3",
					"Odd(uint256)": "922e883a",
					"abc(uint256)": "cc75c4b1",
					"addarray()": "de9b7a3d",
					"autoPush(uint256)": "b47b3463",
					"com(uint256,uint256,uint256)": "66a2eec4",
					"double(uint256)": "eee97206",
					"getAP()": "4cc27654",
					"getArray()": "d504ea1d",
					"getBirth(string)": "3448b2e1",
					"getBob(string)": "929fe481",
					"getC()": "a2375d1e",
					"getOdd()": "159c10ee",
					"getStudents()": "f1d064b3",
					"pusharray(uint256)": "0d756616",
					"setBirth(string,string)": "fbd78ac1",
					"setC(uint256)": "eeb4914e",
					"setStudents(string,string[])": "56f030bb",
					"sum(uint256,uint256,uint256)": "9450268b",
					"triple()": "54204ad4"
				}
			},
			"storageLayout": {
				"storage": [
					{
						"astId": 4,
						"contract": "contracts/Practice/2.sol:ps",
						"label": "a",
						"offset": 0,
						"slot": "0",
						"type": "t_array(t_uint256)dyn_storage"
					},
					{
						"astId": 131,
						"contract": "contracts/Practice/2.sol:ps",
						"label": "students",
						"offset": 0,
						"slot": "1",
						"type": "t_array(t_struct(student)127_storage)dyn_storage"
					},
					{
						"astId": 166,
						"contract": "contracts/Practice/2.sol:ps",
						"label": "A",
						"offset": 0,
						"slot": "2",
						"type": "t_array(t_uint256)dyn_storage"
					},
					{
						"astId": 204,
						"contract": "contracts/Practice/2.sol:ps",
						"label": "B",
						"offset": 0,
						"slot": "3",
						"type": "t_array(t_uint256)dyn_storage"
					},
					{
						"astId": 289,
						"contract": "contracts/Practice/2.sol:ps",
						"label": "birthday",
						"offset": 0,
						"slot": "4",
						"type": "t_mapping(t_string_memory_ptr,t_string_storage)"
					},
					{
						"astId": 336,
						"contract": "contracts/Practice/2.sol:ps",
						"label": "C",
						"offset": 0,
						"slot": "5",
						"type": "t_array(t_uint256)dyn_storage"
					}
				],
				"types": {
					"t_array(t_string_storage)dyn_storage": {
						"base": "t_string_storage",
						"encoding": "dynamic_array",
						"label": "string[]",
						"numberOfBytes": "32"
					},
					"t_array(t_struct(student)127_storage)dyn_storage": {
						"base": "t_struct(student)127_storage",
						"encoding": "dynamic_array",
						"label": "struct ps.student[]",
						"numberOfBytes": "32"
					},
					"t_array(t_uint256)dyn_storage": {
						"base": "t_uint256",
						"encoding": "dynamic_array",
						"label": "uint256[]",
						"numberOfBytes": "32"
					},
					"t_mapping(t_string_memory_ptr,t_string_storage)": {
						"encoding": "mapping",
						"key": "t_string_memory_ptr",
						"label": "mapping(string => string)",
						"numberOfBytes": "32",
						"value": "t_string_storage"
					},
					"t_string_memory_ptr": {
						"encoding": "bytes",
						"label": "string",
						"numberOfBytes": "32"
					},
					"t_string_storage": {
						"encoding": "bytes",
						"label": "string",
						"numberOfBytes": "32"
					},
					"t_struct(student)127_storage": {
						"encoding": "inplace",
						"label": "struct ps.student",
						"members": [
							{
								"astId": 121,
								"contract": "contracts/Practice/2.sol:ps",
								"label": "number",
								"offset": 0,
								"slot": "0",
								"type": "t_uint256"
							},
							{
								"astId": 123,
								"contract": "contracts/Practice/2.sol:ps",
								"label": "name",
								"offset": 0,
								"slot": "1",
								"type": "t_string_storage"
							},
							{
								"astId": 126,
								"contract": "contracts/Practice/2.sol:ps",
								"label": "classes",
								"offset": 0,
								"slot": "2",
								"type": "t_array(t_string_storage)dyn_storage"
							}
						],
						"numberOfBytes": "96"
					},
					"t_uint256": {
						"encoding": "inplace",
						"label": "uint256",
						"numberOfBytes": "32"
					}
				}
			},
			"userdoc": {
				"kind": "user",
				"methods": {},
				"version": 1
			}
		}
	}
}