{
	"contracts/0523/Quiz.sol": {
		"Quiz": {
			"abi": [
				{
					"inputs": [
						{
							"internalType": "uint256[4]",
							"name": "_num",
							"type": "uint256[4]"
						},
						{
							"internalType": "string",
							"name": "_alpha",
							"type": "string"
						},
						{
							"internalType": "string",
							"name": "_beta",
							"type": "string"
						}
					],
					"name": "JoinGame",
					"outputs": [],
					"stateMutability": "payable",
					"type": "function"
				},
				{
					"inputs": [],
					"name": "checkNum",
					"outputs": [
						{
							"internalType": "uint256",
							"name": "",
							"type": "uint256"
						}
					],
					"stateMutability": "view",
					"type": "function"
				},
				{
					"inputs": [
						{
							"internalType": "address",
							"name": "",
							"type": "address"
						}
					],
					"name": "selectNum",
					"outputs": [
						{
							"internalType": "string",
							"name": "letter1",
							"type": "string"
						},
						{
							"internalType": "string",
							"name": "letter2",
							"type": "string"
						}
					],
					"stateMutability": "view",
					"type": "function"
				}
			],
			"devdoc": {
				"kind": "dev",
				"methods": {},
				"version": 1
			},
			"evm": {
				"assembly": "    /* \"contracts/0523/Quiz.sol\":133:2784  contract Quiz{... */\n  mstore(0x40, 0x80)\n  callvalue\n  dup1\n  iszero\n  tag_1\n  jumpi\n  0x00\n  dup1\n  revert\ntag_1:\n  pop\n  dataSize(sub_0)\n  dup1\n  dataOffset(sub_0)\n  0x00\n  codecopy\n  0x00\n  return\nstop\n\nsub_0: assembly {\n        /* \"contracts/0523/Quiz.sol\":133:2784  contract Quiz{... */\n      mstore(0x40, 0x80)\n      jumpi(tag_1, lt(calldatasize, 0x04))\n      shr(0xe0, calldataload(0x00))\n      dup1\n      0x28960ca0\n      eq\n      tag_2\n      jumpi\n      dup1\n      0x4a08e5c2\n      eq\n      tag_3\n      jumpi\n      dup1\n      0x54e7fc3e\n      eq\n      tag_4\n      jumpi\n    tag_1:\n      0x00\n      dup1\n      revert\n        /* \"contracts/0523/Quiz.sol\":753:1081  function JoinGame(uint[4] memory _num, string memory _alpha, string memory _beta) public payable  {... */\n    tag_2:\n      tag_5\n      0x04\n      dup1\n      calldatasize\n      sub\n      dup2\n      add\n      swap1\n      tag_6\n      swap2\n      swap1\n      tag_7\n      jump\t// in\n    tag_6:\n      tag_8\n      jump\t// in\n    tag_5:\n      stop\n        /* \"contracts/0523/Quiz.sol\":1109:2334  function checkNum() public view returns (uint) {... */\n    tag_3:\n      callvalue\n      dup1\n      iszero\n      tag_9\n      jumpi\n      0x00\n      dup1\n      revert\n    tag_9:\n      pop\n      tag_10\n      tag_11\n      jump\t// in\n    tag_10:\n      mload(0x40)\n      tag_12\n      swap2\n      swap1\n      tag_13\n      jump\t// in\n    tag_12:\n      mload(0x40)\n      dup1\n      swap2\n      sub\n      swap1\n      return\n        /* \"contracts/0523/Quiz.sol\":698:742  mapping(address => Numbers) public selectNum */\n    tag_4:\n      callvalue\n      dup1\n      iszero\n      tag_14\n      jumpi\n      0x00\n      dup1\n      revert\n    tag_14:\n      pop\n      tag_15\n      0x04\n      dup1\n      calldatasize\n      sub\n      dup2\n      add\n      swap1\n      tag_16\n      swap2\n      swap1\n      tag_17\n      jump\t// in\n    tag_16:\n      tag_18\n      jump\t// in\n    tag_15:\n      mload(0x40)\n      tag_19\n      swap3\n      swap2\n      swap1\n      tag_20\n      jump\t// in\n    tag_19:\n      mload(0x40)\n      dup1\n      swap2\n      sub\n      swap1\n      return\n        /* \"contracts/0523/Quiz.sol\":753:1081  function JoinGame(uint[4] memory _num, string memory _alpha, string memory _beta) public payable  {... */\n    tag_8:\n        /* \"contracts/0523/Quiz.sol\":884:894  0.05 ether */\n      0xb1a2bc2ec50000\n        /* \"contracts/0523/Quiz.sol\":871:880  msg.value */\n      callvalue\n        /* \"contracts/0523/Quiz.sol\":871:894  msg.value == 0.05 ether */\n      eq\n        /* \"contracts/0523/Quiz.sol\":863:895  require(msg.value == 0.05 ether) */\n      tag_22\n      jumpi\n      0x00\n      dup1\n      revert\n    tag_22:\n        /* \"contracts/0523/Quiz.sol\":993:1021  Numbers(_num, _alpha, _beta) */\n      mload(0x40)\n      dup1\n      0x60\n      add\n      0x40\n      mstore\n      dup1\n        /* \"contracts/0523/Quiz.sol\":1001:1005  _num */\n      dup5\n        /* \"contracts/0523/Quiz.sol\":993:1021  Numbers(_num, _alpha, _beta) */\n      dup2\n      mstore\n      0x20\n      add\n        /* \"contracts/0523/Quiz.sol\":1007:1013  _alpha */\n      dup4\n        /* \"contracts/0523/Quiz.sol\":993:1021  Numbers(_num, _alpha, _beta) */\n      dup2\n      mstore\n      0x20\n      add\n        /* \"contracts/0523/Quiz.sol\":1015:1020  _beta */\n      dup3\n        /* \"contracts/0523/Quiz.sol\":993:1021  Numbers(_num, _alpha, _beta) */\n      dup2\n      mstore\n      pop\n        /* \"contracts/0523/Quiz.sol\":969:978  selectNum */\n      0x00\n        /* \"contracts/0523/Quiz.sol\":969:990  selectNum[msg.sender] */\n      dup1\n        /* \"contracts/0523/Quiz.sol\":979:989  msg.sender */\n      caller\n        /* \"contracts/0523/Quiz.sol\":969:990  selectNum[msg.sender] */\n      0xffffffffffffffffffffffffffffffffffffffff\n      and\n      0xffffffffffffffffffffffffffffffffffffffff\n      and\n      dup2\n      mstore\n      0x20\n      add\n      swap1\n      dup2\n      mstore\n      0x20\n      add\n      0x00\n      keccak256\n        /* \"contracts/0523/Quiz.sol\":969:1021  selectNum[msg.sender] = Numbers(_num, _alpha, _beta) */\n      0x00\n      dup3\n      add\n      mload\n      dup2\n      0x00\n      add\n      swap1\n      0x04\n      tag_23\n      swap3\n      swap2\n      swap1\n      tag_24\n      jump\t// in\n    tag_23:\n      pop\n      0x20\n      dup3\n      add\n      mload\n      dup2\n      0x04\n      add\n      swap1\n      dup2\n      tag_25\n      swap2\n      swap1\n      tag_26\n      jump\t// in\n    tag_25:\n      pop\n      0x40\n      dup3\n      add\n      mload\n      dup2\n      0x05\n      add\n      swap1\n      dup2\n      tag_27\n      swap2\n      swap1\n      tag_26\n      jump\t// in\n    tag_27:\n      pop\n      swap1\n      pop\n      pop\n        /* \"contracts/0523/Quiz.sol\":1041:1051  msg.sender */\n      caller\n        /* \"contracts/0523/Quiz.sol\":1032:1061  payable (msg.sender).transfer */\n      0xffffffffffffffffffffffffffffffffffffffff\n      and\n        /* \"contracts/0523/Quiz.sol\":1032:1073  payable (msg.sender).transfer(checkNum()) */\n      0x08fc\n        /* \"contracts/0523/Quiz.sol\":1062:1072  checkNum() */\n      tag_28\n        /* \"contracts/0523/Quiz.sol\":1062:1070  checkNum */\n      tag_11\n        /* \"contracts/0523/Quiz.sol\":1062:1072  checkNum() */\n      jump\t// in\n    tag_28:\n        /* \"contracts/0523/Quiz.sol\":1032:1073  payable (msg.sender).transfer(checkNum()) */\n      swap1\n      dup2\n      iszero\n      mul\n      swap1\n      mload(0x40)\n      0x00\n      mload(0x40)\n      dup1\n      dup4\n      sub\n      dup2\n      dup6\n      dup9\n      dup9\n      call\n      swap4\n      pop\n      pop\n      pop\n      pop\n      iszero\n      dup1\n      iszero\n      tag_30\n      jumpi\n      returndatasize\n      0x00\n      dup1\n      returndatacopy\n      revert(0x00, returndatasize)\n    tag_30:\n      pop\n        /* \"contracts/0523/Quiz.sol\":753:1081  function JoinGame(uint[4] memory _num, string memory _alpha, string memory _beta) public payable  {... */\n      pop\n      pop\n      pop\n      jump\t// out\n        /* \"contracts/0523/Quiz.sol\":1109:2334  function checkNum() public view returns (uint) {... */\n    tag_11:\n        /* \"contracts/0523/Quiz.sol\":1150:1154  uint */\n      0x00\n        /* \"contracts/0523/Quiz.sol\":1210:1235  uint[4] memory winningNum */\n      tag_32\n      tag_33\n      jump\t// in\n    tag_32:\n        /* \"contracts/0523/Quiz.sol\":1263:1264  1 */\n      0x01\n        /* \"contracts/0523/Quiz.sol\":1247:1257  winningNum */\n      dup2\n        /* \"contracts/0523/Quiz.sol\":1258:1259  0 */\n      0x00\n        /* \"contracts/0523/Quiz.sol\":1247:1260  winningNum[0] */\n      0x04\n      dup2\n      lt\n      tag_34\n      jumpi\n      tag_35\n      tag_36\n      jump\t// in\n    tag_35:\n    tag_34:\n      0x20\n      mul\n      add\n        /* \"contracts/0523/Quiz.sol\":1247:1264  winningNum[0] = 1 */\n      dup2\n      dup2\n      mstore\n      pop\n      pop\n        /* \"contracts/0523/Quiz.sol\":1291:1292  2 */\n      0x02\n        /* \"contracts/0523/Quiz.sol\":1275:1285  winningNum */\n      dup2\n        /* \"contracts/0523/Quiz.sol\":1286:1287  1 */\n      0x01\n        /* \"contracts/0523/Quiz.sol\":1275:1288  winningNum[1] */\n      0x04\n      dup2\n      lt\n      tag_37\n      jumpi\n      tag_38\n      tag_36\n      jump\t// in\n    tag_38:\n    tag_37:\n      0x20\n      mul\n      add\n        /* \"contracts/0523/Quiz.sol\":1275:1292  winningNum[1] = 2 */\n      dup2\n      dup2\n      mstore\n      pop\n      pop\n        /* \"contracts/0523/Quiz.sol\":1319:1320  3 */\n      0x03\n        /* \"contracts/0523/Quiz.sol\":1303:1313  winningNum */\n      dup2\n        /* \"contracts/0523/Quiz.sol\":1314:1315  2 */\n      0x02\n        /* \"contracts/0523/Quiz.sol\":1303:1316  winningNum[2] */\n      0x04\n      dup2\n      lt\n      tag_39\n      jumpi\n      tag_40\n      tag_36\n      jump\t// in\n    tag_40:\n    tag_39:\n      0x20\n      mul\n      add\n        /* \"contracts/0523/Quiz.sol\":1303:1320  winningNum[2] = 3 */\n      dup2\n      dup2\n      mstore\n      pop\n      pop\n        /* \"contracts/0523/Quiz.sol\":1347:1348  4 */\n      0x04\n        /* \"contracts/0523/Quiz.sol\":1331:1341  winningNum */\n      dup2\n        /* \"contracts/0523/Quiz.sol\":1342:1343  3 */\n      0x03\n        /* \"contracts/0523/Quiz.sol\":1331:1344  winningNum[3] */\n      0x04\n      dup2\n      lt\n      tag_41\n      jumpi\n      tag_42\n      tag_36\n      jump\t// in\n    tag_42:\n    tag_41:\n      0x20\n      mul\n      add\n        /* \"contracts/0523/Quiz.sol\":1331:1348  winningNum[3] = 4 */\n      dup2\n      dup2\n      mstore\n      pop\n      pop\n        /* \"contracts/0523/Quiz.sol\":1361:1390  Numbers memory winningNumbers */\n      0x00\n        /* \"contracts/0523/Quiz.sol\":1393:1422  Numbers(winningNum, \"A\", \"B\") */\n      mload(0x40)\n      dup1\n      0x60\n      add\n      0x40\n      mstore\n      dup1\n        /* \"contracts/0523/Quiz.sol\":1401:1411  winningNum */\n      dup4\n        /* \"contracts/0523/Quiz.sol\":1393:1422  Numbers(winningNum, \"A\", \"B\") */\n      dup2\n      mstore\n      0x20\n      add\n      mload(0x40)\n      dup1\n      0x40\n      add\n      0x40\n      mstore\n      dup1\n      0x01\n      dup2\n      mstore\n      0x20\n      add\n      0x4100000000000000000000000000000000000000000000000000000000000000\n      dup2\n      mstore\n      pop\n      dup2\n      mstore\n      0x20\n      add\n      mload(0x40)\n      dup1\n      0x40\n      add\n      0x40\n      mstore\n      dup1\n      0x01\n      dup2\n      mstore\n      0x20\n      add\n      0x4200000000000000000000000000000000000000000000000000000000000000\n      dup2\n      mstore\n      pop\n      dup2\n      mstore\n      pop\n        /* \"contracts/0523/Quiz.sol\":1361:1422  Numbers memory winningNumbers = Numbers(winningNum, \"A\", \"B\") */\n      swap1\n      pop\n        /* \"contracts/0523/Quiz.sol\":1433:1454  Numbers memory player */\n      0x00\n        /* \"contracts/0523/Quiz.sol\":1457:1466  selectNum */\n      dup1\n        /* \"contracts/0523/Quiz.sol\":1457:1478  selectNum[msg.sender] */\n      0x00\n        /* \"contracts/0523/Quiz.sol\":1467:1477  msg.sender */\n      caller\n        /* \"contracts/0523/Quiz.sol\":1457:1478  selectNum[msg.sender] */\n      0xffffffffffffffffffffffffffffffffffffffff\n      and\n      0xffffffffffffffffffffffffffffffffffffffff\n      and\n      dup2\n      mstore\n      0x20\n      add\n      swap1\n      dup2\n      mstore\n      0x20\n      add\n      0x00\n      keccak256\n        /* \"contracts/0523/Quiz.sol\":1433:1478  Numbers memory player = selectNum[msg.sender] */\n      mload(0x40)\n      dup1\n      0x60\n      add\n      0x40\n      mstore\n      swap1\n      dup2\n      0x00\n      dup3\n      add\n      0x04\n      dup1\n      0x20\n      mul\n      mload(0x40)\n      swap1\n      dup2\n      add\n      0x40\n      mstore\n      dup1\n      swap3\n      swap2\n      swap1\n      dup3\n      0x04\n      dup1\n      iszero\n      tag_43\n      jumpi\n      0x20\n      mul\n      dup3\n      add\n      swap2\n    tag_44:\n      dup2\n      sload\n      dup2\n      mstore\n      0x20\n      add\n      swap1\n      0x01\n      add\n      swap1\n      dup1\n      dup4\n      gt\n      tag_44\n      jumpi\n    tag_43:\n      pop\n      pop\n      pop\n      pop\n      pop\n      dup2\n      mstore\n      0x20\n      add\n      0x04\n      dup3\n      add\n      dup1\n      sload\n      tag_45\n      swap1\n      tag_46\n      jump\t// in\n    tag_45:\n      dup1\n      0x1f\n      add\n      0x20\n      dup1\n      swap2\n      div\n      mul\n      0x20\n      add\n      mload(0x40)\n      swap1\n      dup2\n      add\n      0x40\n      mstore\n      dup1\n      swap3\n      swap2\n      swap1\n      dup2\n      dup2\n      mstore\n      0x20\n      add\n      dup3\n      dup1\n      sload\n      tag_47\n      swap1\n      tag_46\n      jump\t// in\n    tag_47:\n      dup1\n      iszero\n      tag_48\n      jumpi\n      dup1\n      0x1f\n      lt\n      tag_49\n      jumpi\n      0x0100\n      dup1\n      dup4\n      sload\n      div\n      mul\n      dup4\n      mstore\n      swap2\n      0x20\n      add\n      swap2\n      jump(tag_48)\n    tag_49:\n      dup3\n      add\n      swap2\n      swap1\n      0x00\n      mstore\n      keccak256(0x00, 0x20)\n      swap1\n    tag_50:\n      dup2\n      sload\n      dup2\n      mstore\n      swap1\n      0x01\n      add\n      swap1\n      0x20\n      add\n      dup1\n      dup4\n      gt\n      tag_50\n      jumpi\n      dup3\n      swap1\n      sub\n      0x1f\n      and\n      dup3\n      add\n      swap2\n    tag_48:\n      pop\n      pop\n      pop\n      pop\n      pop\n      dup2\n      mstore\n      0x20\n      add\n      0x05\n      dup3\n      add\n      dup1\n      sload\n      tag_51\n      swap1\n      tag_46\n      jump\t// in\n    tag_51:\n      dup1\n      0x1f\n      add\n      0x20\n      dup1\n      swap2\n      div\n      mul\n      0x20\n      add\n      mload(0x40)\n      swap1\n      dup2\n      add\n      0x40\n      mstore\n      dup1\n      swap3\n      swap2\n      swap1\n      dup2\n      dup2\n      mstore\n      0x20\n      add\n      dup3\n      dup1\n      sload\n      tag_52\n      swap1\n      tag_46\n      jump\t// in\n    tag_52:\n      dup1\n      iszero\n      tag_53\n      jumpi\n      dup1\n      0x1f\n      lt\n      tag_54\n      jumpi\n      0x0100\n      dup1\n      dup4\n      sload\n      div\n      mul\n      dup4\n      mstore\n      swap2\n      0x20\n      add\n      swap2\n      jump(tag_53)\n    tag_54:\n      dup3\n      add\n      swap2\n      swap1\n      0x00\n      mstore\n      keccak256(0x00, 0x20)\n      swap1\n    tag_55:\n      dup2\n      sload\n      dup2\n      mstore\n      swap1\n      0x01\n      add\n      swap1\n      0x20\n      add\n      dup1\n      dup4\n      gt\n      tag_55\n      jumpi\n      dup3\n      swap1\n      sub\n      0x1f\n      and\n      dup3\n      add\n      swap2\n    tag_53:\n      pop\n      pop\n      pop\n      pop\n      pop\n      dup2\n      mstore\n      pop\n      pop\n      swap1\n      pop\n        /* \"contracts/0523/Quiz.sol\":1499:1514  uint correctNum */\n      0x00\n        /* \"contracts/0523/Quiz.sol\":1532:1538  uint i */\n      dup1\n        /* \"contracts/0523/Quiz.sol\":1541:1542  0 */\n      0x00\n        /* \"contracts/0523/Quiz.sol\":1532:1542  uint i = 0 */\n      swap1\n      pop\n        /* \"contracts/0523/Quiz.sol\":1527:1679  for (uint i = 0; i < 4; i++) {... */\n    tag_56:\n        /* \"contracts/0523/Quiz.sol\":1548:1549  4 */\n      0x04\n        /* \"contracts/0523/Quiz.sol\":1544:1545  i */\n      dup2\n        /* \"contracts/0523/Quiz.sol\":1544:1549  i < 4 */\n      lt\n        /* \"contracts/0523/Quiz.sol\":1527:1679  for (uint i = 0; i < 4; i++) {... */\n      iszero\n      tag_57\n      jumpi\n        /* \"contracts/0523/Quiz.sol\":1595:1609  winningNumbers */\n      dup4\n        /* \"contracts/0523/Quiz.sol\":1595:1616  winningNumbers.digits */\n      0x00\n      add\n      mload\n        /* \"contracts/0523/Quiz.sol\":1617:1618  i */\n      dup2\n        /* \"contracts/0523/Quiz.sol\":1595:1619  winningNumbers.digits[i] */\n      0x04\n      dup2\n      lt\n      tag_59\n      jumpi\n      tag_60\n      tag_36\n      jump\t// in\n    tag_60:\n    tag_59:\n      0x20\n      mul\n      add\n      mload\n        /* \"contracts/0523/Quiz.sol\":1575:1581  player */\n      dup4\n        /* \"contracts/0523/Quiz.sol\":1575:1588  player.digits */\n      0x00\n      add\n      mload\n        /* \"contracts/0523/Quiz.sol\":1589:1590  i */\n      dup3\n        /* \"contracts/0523/Quiz.sol\":1575:1591  player.digits[i] */\n      0x04\n      dup2\n      lt\n      tag_61\n      jumpi\n      tag_62\n      tag_36\n      jump\t// in\n    tag_62:\n    tag_61:\n      0x20\n      mul\n      add\n      mload\n        /* \"contracts/0523/Quiz.sol\":1575:1619  player.digits[i] == winningNumbers.digits[i] */\n      sub\n        /* \"contracts/0523/Quiz.sol\":1571:1668  if (player.digits[i] == winningNumbers.digits[i]) {... */\n      tag_63\n      jumpi\n        /* \"contracts/0523/Quiz.sol\":1640:1652  correctNum++ */\n      dup2\n      dup1\n      tag_64\n      swap1\n      tag_65\n      jump\t// in\n    tag_64:\n      swap3\n      pop\n      pop\n        /* \"contracts/0523/Quiz.sol\":1571:1668  if (player.digits[i] == winningNumbers.digits[i]) {... */\n    tag_63:\n        /* \"contracts/0523/Quiz.sol\":1551:1554  i++ */\n      dup1\n      dup1\n      tag_66\n      swap1\n      tag_65\n      jump\t// in\n    tag_66:\n      swap2\n      pop\n      pop\n        /* \"contracts/0523/Quiz.sol\":1527:1679  for (uint i = 0; i < 4; i++) {... */\n      jump(tag_56)\n    tag_57:\n      pop\n        /* \"contracts/0523/Quiz.sol\":1778:1792  winningNumbers */\n      dup3\n        /* \"contracts/0523/Quiz.sol\":1778:1800  winningNumbers.letter1 */\n      0x20\n      add\n      mload\n        /* \"contracts/0523/Quiz.sol\":1761:1801  abi.encodePacked(winningNumbers.letter1) */\n      add(0x20, mload(0x40))\n      tag_67\n      swap2\n      swap1\n      tag_68\n      jump\t// in\n    tag_67:\n      mload(0x40)\n      0x20\n      dup2\n      dup4\n      sub\n      sub\n      dup2\n      mstore\n      swap1\n      0x40\n      mstore\n        /* \"contracts/0523/Quiz.sol\":1751:1802  keccak256(abi.encodePacked(winningNumbers.letter1)) */\n      dup1\n      mload\n      swap1\n      0x20\n      add\n      keccak256\n        /* \"contracts/0523/Quiz.sol\":1730:1736  player */\n      dup3\n        /* \"contracts/0523/Quiz.sol\":1730:1744  player.letter1 */\n      0x20\n      add\n      mload\n        /* \"contracts/0523/Quiz.sol\":1713:1745  abi.encodePacked(player.letter1) */\n      add(0x20, mload(0x40))\n      tag_69\n      swap2\n      swap1\n      tag_68\n      jump\t// in\n    tag_69:\n      mload(0x40)\n      0x20\n      dup2\n      dup4\n      sub\n      sub\n      dup2\n      mstore\n      swap1\n      0x40\n      mstore\n        /* \"contracts/0523/Quiz.sol\":1703:1746  keccak256(abi.encodePacked(player.letter1)) */\n      dup1\n      mload\n      swap1\n      0x20\n      add\n      keccak256\n        /* \"contracts/0523/Quiz.sol\":1703:1802  keccak256(abi.encodePacked(player.letter1))  == keccak256(abi.encodePacked(winningNumbers.letter1)) */\n      sub\n        /* \"contracts/0523/Quiz.sol\":1699:1843  if (keccak256(abi.encodePacked(player.letter1))  == keccak256(abi.encodePacked(winningNumbers.letter1))) {... */\n      tag_70\n      jumpi\n        /* \"contracts/0523/Quiz.sol\":1819:1831  correctNum++ */\n      dup1\n      dup1\n      tag_71\n      swap1\n      tag_65\n      jump\t// in\n    tag_71:\n      swap2\n      pop\n      pop\n        /* \"contracts/0523/Quiz.sol\":1699:1843  if (keccak256(abi.encodePacked(player.letter1))  == keccak256(abi.encodePacked(winningNumbers.letter1))) {... */\n    tag_70:\n        /* \"contracts/0523/Quiz.sol\":1932:1946  winningNumbers */\n      dup3\n        /* \"contracts/0523/Quiz.sol\":1932:1954  winningNumbers.letter2 */\n      0x40\n      add\n      mload\n        /* \"contracts/0523/Quiz.sol\":1915:1955  abi.encodePacked(winningNumbers.letter2) */\n      add(0x20, mload(0x40))\n      tag_72\n      swap2\n      swap1\n      tag_68\n      jump\t// in\n    tag_72:\n      mload(0x40)\n      0x20\n      dup2\n      dup4\n      sub\n      sub\n      dup2\n      mstore\n      swap1\n      0x40\n      mstore\n        /* \"contracts/0523/Quiz.sol\":1905:1956  keccak256(abi.encodePacked(winningNumbers.letter2)) */\n      dup1\n      mload\n      swap1\n      0x20\n      add\n      keccak256\n        /* \"contracts/0523/Quiz.sol\":1884:1890  player */\n      dup3\n        /* \"contracts/0523/Quiz.sol\":1884:1898  player.letter2 */\n      0x40\n      add\n      mload\n        /* \"contracts/0523/Quiz.sol\":1867:1899  abi.encodePacked(player.letter2) */\n      add(0x20, mload(0x40))\n      tag_73\n      swap2\n      swap1\n      tag_68\n      jump\t// in\n    tag_73:\n      mload(0x40)\n      0x20\n      dup2\n      dup4\n      sub\n      sub\n      dup2\n      mstore\n      swap1\n      0x40\n      mstore\n        /* \"contracts/0523/Quiz.sol\":1857:1900  keccak256(abi.encodePacked(player.letter2)) */\n      dup1\n      mload\n      swap1\n      0x20\n      add\n      keccak256\n        /* \"contracts/0523/Quiz.sol\":1857:1956  keccak256(abi.encodePacked(player.letter2))  == keccak256(abi.encodePacked(winningNumbers.letter2)) */\n      sub\n        /* \"contracts/0523/Quiz.sol\":1853:1997  if (keccak256(abi.encodePacked(player.letter2))  == keccak256(abi.encodePacked(winningNumbers.letter2))) {... */\n      tag_74\n      jumpi\n        /* \"contracts/0523/Quiz.sol\":1973:1985  correctNum++ */\n      dup1\n      dup1\n      tag_75\n      swap1\n      tag_65\n      jump\t// in\n    tag_75:\n      swap2\n      pop\n      pop\n        /* \"contracts/0523/Quiz.sol\":1853:1997  if (keccak256(abi.encodePacked(player.letter2))  == keccak256(abi.encodePacked(winningNumbers.letter2))) {... */\n    tag_74:\n        /* \"contracts/0523/Quiz.sol\":2029:2030  6 */\n      0x06\n        /* \"contracts/0523/Quiz.sol\":2015:2025  correctNum */\n      dup2\n        /* \"contracts/0523/Quiz.sol\":2015:2030  correctNum == 6 */\n      sub\n        /* \"contracts/0523/Quiz.sol\":2011:2327  if (correctNum == 6) {... */\n      tag_76\n      jumpi\n        /* \"contracts/0523/Quiz.sol\":2054:2061  1 ether */\n      0x0de0b6b3a7640000\n        /* \"contracts/0523/Quiz.sol\":2047:2061  return 1 ether */\n      swap5\n      pop\n      pop\n      pop\n      pop\n      pop\n      jump(tag_31)\n        /* \"contracts/0523/Quiz.sol\":2011:2327  if (correctNum == 6) {... */\n    tag_76:\n        /* \"contracts/0523/Quiz.sol\":2097:2098  5 */\n      0x05\n        /* \"contracts/0523/Quiz.sol\":2083:2093  correctNum */\n      dup2\n        /* \"contracts/0523/Quiz.sol\":2083:2098  correctNum == 5 */\n      sub\n        /* \"contracts/0523/Quiz.sol\":2079:2327  if (correctNum == 5 ) {... */\n      tag_78\n      jumpi\n        /* \"contracts/0523/Quiz.sol\":2123:2133  0.75 ether */\n      0x0a688906bd8b0000\n        /* \"contracts/0523/Quiz.sol\":2116:2133  return 0.75 ether */\n      swap5\n      pop\n      pop\n      pop\n      pop\n      pop\n      jump(tag_31)\n        /* \"contracts/0523/Quiz.sol\":2079:2327  if (correctNum == 5 ) {... */\n    tag_78:\n        /* \"contracts/0523/Quiz.sol\":2169:2170  4 */\n      0x04\n        /* \"contracts/0523/Quiz.sol\":2155:2165  correctNum */\n      dup2\n        /* \"contracts/0523/Quiz.sol\":2155:2170  correctNum == 4 */\n      sub\n        /* \"contracts/0523/Quiz.sol\":2151:2327  if (correctNum == 4) {... */\n      tag_80\n      jumpi\n        /* \"contracts/0523/Quiz.sol\":2194:2204  0.25 ether */\n      0x03782dace9d90000\n        /* \"contracts/0523/Quiz.sol\":2187:2204  return 0.25 ether */\n      swap5\n      pop\n      pop\n      pop\n      pop\n      pop\n      jump(tag_31)\n        /* \"contracts/0523/Quiz.sol\":2151:2327  if (correctNum == 4) {... */\n    tag_80:\n        /* \"contracts/0523/Quiz.sol\":2240:2241  3 */\n      0x03\n        /* \"contracts/0523/Quiz.sol\":2226:2236  correctNum */\n      dup2\n        /* \"contracts/0523/Quiz.sol\":2226:2241  correctNum == 3 */\n      sub\n        /* \"contracts/0523/Quiz.sol\":2222:2327  if (correctNum == 3) {... */\n      tag_82\n      jumpi\n        /* \"contracts/0523/Quiz.sol\":2265:2274  0.1 ether */\n      0x016345785d8a0000\n        /* \"contracts/0523/Quiz.sol\":2258:2274  return 0.1 ether */\n      swap5\n      pop\n      pop\n      pop\n      pop\n      pop\n      jump(tag_31)\n        /* \"contracts/0523/Quiz.sol\":2222:2327  if (correctNum == 3) {... */\n    tag_82:\n        /* \"contracts/0523/Quiz.sol\":2314:2315  0 */\n      0x00\n        /* \"contracts/0523/Quiz.sol\":2307:2315  return 0 */\n      swap5\n      pop\n      pop\n      pop\n      pop\n      pop\n        /* \"contracts/0523/Quiz.sol\":1109:2334  function checkNum() public view returns (uint) {... */\n    tag_31:\n      swap1\n      jump\t// out\n        /* \"contracts/0523/Quiz.sol\":698:742  mapping(address => Numbers) public selectNum */\n    tag_18:\n      mstore(0x20, 0x00)\n      dup1\n      0x00\n      mstore\n      keccak256(0x00, 0x40)\n      0x00\n      swap2\n      pop\n      swap1\n      pop\n      dup1\n      0x04\n      add\n      dup1\n      sload\n      tag_84\n      swap1\n      tag_46\n      jump\t// in\n    tag_84:\n      dup1\n      0x1f\n      add\n      0x20\n      dup1\n      swap2\n      div\n      mul\n      0x20\n      add\n      mload(0x40)\n      swap1\n      dup2\n      add\n      0x40\n      mstore\n      dup1\n      swap3\n      swap2\n      swap1\n      dup2\n      dup2\n      mstore\n      0x20\n      add\n      dup3\n      dup1\n      sload\n      tag_85\n      swap1\n      tag_46\n      jump\t// in\n    tag_85:\n      dup1\n      iszero\n      tag_86\n      jumpi\n      dup1\n      0x1f\n      lt\n      tag_87\n      jumpi\n      0x0100\n      dup1\n      dup4\n      sload\n      div\n      mul\n      dup4\n      mstore\n      swap2\n      0x20\n      add\n      swap2\n      jump(tag_86)\n    tag_87:\n      dup3\n      add\n      swap2\n      swap1\n      0x00\n      mstore\n      keccak256(0x00, 0x20)\n      swap1\n    tag_88:\n      dup2\n      sload\n      dup2\n      mstore\n      swap1\n      0x01\n      add\n      swap1\n      0x20\n      add\n      dup1\n      dup4\n      gt\n      tag_88\n      jumpi\n      dup3\n      swap1\n      sub\n      0x1f\n      and\n      dup3\n      add\n      swap2\n    tag_86:\n      pop\n      pop\n      pop\n      pop\n      pop\n      swap1\n      dup1\n      0x05\n      add\n      dup1\n      sload\n      tag_89\n      swap1\n      tag_46\n      jump\t// in\n    tag_89:\n      dup1\n      0x1f\n      add\n      0x20\n      dup1\n      swap2\n      div\n      mul\n      0x20\n      add\n      mload(0x40)\n      swap1\n      dup2\n      add\n      0x40\n      mstore\n      dup1\n      swap3\n      swap2\n      swap1\n      dup2\n      dup2\n      mstore\n      0x20\n      add\n      dup3\n      dup1\n      sload\n      tag_90\n      swap1\n      tag_46\n      jump\t// in\n    tag_90:\n      dup1\n      iszero\n      tag_91\n      jumpi\n      dup1\n      0x1f\n      lt\n      tag_92\n      jumpi\n      0x0100\n      dup1\n      dup4\n      sload\n      div\n      mul\n      dup4\n      mstore\n      swap2\n      0x20\n      add\n      swap2\n      jump(tag_91)\n    tag_92:\n      dup3\n      add\n      swap2\n      swap1\n      0x00\n      mstore\n      keccak256(0x00, 0x20)\n      swap1\n    tag_93:\n      dup2\n      sload\n      dup2\n      mstore\n      swap1\n      0x01\n      add\n      swap1\n      0x20\n      add\n      dup1\n      dup4\n      gt\n      tag_93\n      jumpi\n      dup3\n      swap1\n      sub\n      0x1f\n      and\n      dup3\n      add\n      swap2\n    tag_91:\n      pop\n      pop\n      pop\n      pop\n      pop\n      swap1\n      pop\n      dup3\n      jump\t// out\n    tag_24:\n      dup3\n      0x04\n      dup2\n      add\n      swap3\n      dup3\n      iszero\n      tag_94\n      jumpi\n      swap2\n      0x20\n      mul\n      dup3\n      add\n    tag_95:\n      dup3\n      dup2\n      gt\n      iszero\n      tag_96\n      jumpi\n      dup3\n      mload\n      dup3\n      sstore\n      swap2\n      0x20\n      add\n      swap2\n      swap1\n      0x01\n      add\n      swap1\n      jump(tag_95)\n    tag_96:\n    tag_94:\n      pop\n      swap1\n      pop\n      tag_97\n      swap2\n      swap1\n      tag_98\n      jump\t// in\n    tag_97:\n      pop\n      swap1\n      jump\t// out\n    tag_33:\n      mload(0x40)\n      dup1\n      0x80\n      add\n      0x40\n      mstore\n      dup1\n      0x04\n      swap1\n      0x20\n      dup3\n      mul\n      dup1\n      calldatasize\n      dup4\n      calldatacopy\n      dup1\n      dup3\n      add\n      swap2\n      pop\n      pop\n      swap1\n      pop\n      pop\n      swap1\n      jump\t// out\n    tag_98:\n    tag_99:\n      dup1\n      dup3\n      gt\n      iszero\n      tag_100\n      jumpi\n      0x00\n      dup2\n      0x00\n      swap1\n      sstore\n      pop\n      0x01\n      add\n      jump(tag_99)\n    tag_100:\n      pop\n      swap1\n      jump\t// out\n        /* \"#utility.yul\":7:82   */\n    tag_101:\n        /* \"#utility.yul\":40:46   */\n      0x00\n        /* \"#utility.yul\":73:75   */\n      0x40\n        /* \"#utility.yul\":67:76   */\n      mload\n        /* \"#utility.yul\":57:76   */\n      swap1\n      pop\n        /* \"#utility.yul\":7:82   */\n      swap1\n      jump\t// out\n        /* \"#utility.yul\":88:205   */\n    tag_102:\n        /* \"#utility.yul\":197:198   */\n      0x00\n        /* \"#utility.yul\":194:195   */\n      dup1\n        /* \"#utility.yul\":187:199   */\n      revert\n        /* \"#utility.yul\":211:328   */\n    tag_103:\n        /* \"#utility.yul\":320:321   */\n      0x00\n        /* \"#utility.yul\":317:318   */\n      dup1\n        /* \"#utility.yul\":310:322   */\n      revert\n        /* \"#utility.yul\":334:451   */\n    tag_104:\n        /* \"#utility.yul\":443:444   */\n      0x00\n        /* \"#utility.yul\":440:441   */\n      dup1\n        /* \"#utility.yul\":433:445   */\n      revert\n        /* \"#utility.yul\":457:559   */\n    tag_105:\n        /* \"#utility.yul\":498:504   */\n      0x00\n        /* \"#utility.yul\":549:551   */\n      0x1f\n        /* \"#utility.yul\":545:552   */\n      not\n        /* \"#utility.yul\":540:542   */\n      0x1f\n        /* \"#utility.yul\":533:538   */\n      dup4\n        /* \"#utility.yul\":529:543   */\n      add\n        /* \"#utility.yul\":525:553   */\n      and\n        /* \"#utility.yul\":515:553   */\n      swap1\n      pop\n        /* \"#utility.yul\":457:559   */\n      swap2\n      swap1\n      pop\n      jump\t// out\n        /* \"#utility.yul\":565:745   */\n    tag_106:\n        /* \"#utility.yul\":613:690   */\n      0x4e487b7100000000000000000000000000000000000000000000000000000000\n        /* \"#utility.yul\":610:611   */\n      0x00\n        /* \"#utility.yul\":603:691   */\n      mstore\n        /* \"#utility.yul\":710:714   */\n      0x41\n        /* \"#utility.yul\":707:708   */\n      0x04\n        /* \"#utility.yul\":700:715   */\n      mstore\n        /* \"#utility.yul\":734:738   */\n      0x24\n        /* \"#utility.yul\":731:732   */\n      0x00\n        /* \"#utility.yul\":724:739   */\n      revert\n        /* \"#utility.yul\":751:1032   */\n    tag_107:\n        /* \"#utility.yul\":834:861   */\n      tag_157\n        /* \"#utility.yul\":856:860   */\n      dup3\n        /* \"#utility.yul\":834:861   */\n      tag_105\n      jump\t// in\n    tag_157:\n        /* \"#utility.yul\":826:832   */\n      dup2\n        /* \"#utility.yul\":822:862   */\n      add\n        /* \"#utility.yul\":964:970   */\n      dup2\n        /* \"#utility.yul\":952:962   */\n      dup2\n        /* \"#utility.yul\":949:971   */\n      lt\n        /* \"#utility.yul\":928:946   */\n      0xffffffffffffffff\n        /* \"#utility.yul\":916:926   */\n      dup3\n        /* \"#utility.yul\":913:947   */\n      gt\n        /* \"#utility.yul\":910:972   */\n      or\n        /* \"#utility.yul\":907:995   */\n      iszero\n      tag_158\n      jumpi\n        /* \"#utility.yul\":975:993   */\n      tag_159\n      tag_106\n      jump\t// in\n    tag_159:\n        /* \"#utility.yul\":907:995   */\n    tag_158:\n        /* \"#utility.yul\":1015:1025   */\n      dup1\n        /* \"#utility.yul\":1011:1013   */\n      0x40\n        /* \"#utility.yul\":1004:1026   */\n      mstore\n        /* \"#utility.yul\":794:1032   */\n      pop\n        /* \"#utility.yul\":751:1032   */\n      pop\n      pop\n      jump\t// out\n        /* \"#utility.yul\":1038:1167   */\n    tag_108:\n        /* \"#utility.yul\":1072:1078   */\n      0x00\n        /* \"#utility.yul\":1099:1119   */\n      tag_161\n      tag_101\n      jump\t// in\n    tag_161:\n        /* \"#utility.yul\":1089:1119   */\n      swap1\n      pop\n        /* \"#utility.yul\":1128:1161   */\n      tag_162\n        /* \"#utility.yul\":1156:1160   */\n      dup3\n        /* \"#utility.yul\":1148:1154   */\n      dup3\n        /* \"#utility.yul\":1128:1161   */\n      tag_107\n      jump\t// in\n    tag_162:\n        /* \"#utility.yul\":1038:1167   */\n      swap2\n      swap1\n      pop\n      jump\t// out\n        /* \"#utility.yul\":1173:1422   */\n    tag_109:\n        /* \"#utility.yul\":1248:1252   */\n      0x00\n        /* \"#utility.yul\":1338:1356   */\n      0xffffffffffffffff\n        /* \"#utility.yul\":1330:1336   */\n      dup3\n        /* \"#utility.yul\":1327:1357   */\n      gt\n        /* \"#utility.yul\":1324:1380   */\n      iszero\n      tag_164\n      jumpi\n        /* \"#utility.yul\":1360:1378   */\n      tag_165\n      tag_106\n      jump\t// in\n    tag_165:\n        /* \"#utility.yul\":1324:1380   */\n    tag_164:\n        /* \"#utility.yul\":1410:1414   */\n      0x20\n        /* \"#utility.yul\":1402:1408   */\n      dup3\n        /* \"#utility.yul\":1398:1415   */\n      mul\n        /* \"#utility.yul\":1390:1415   */\n      swap1\n      pop\n        /* \"#utility.yul\":1173:1422   */\n      swap2\n      swap1\n      pop\n      jump\t// out\n        /* \"#utility.yul\":1428:1545   */\n    tag_110:\n        /* \"#utility.yul\":1537:1538   */\n      0x00\n        /* \"#utility.yul\":1534:1535   */\n      dup1\n        /* \"#utility.yul\":1527:1539   */\n      revert\n        /* \"#utility.yul\":1551:1628   */\n    tag_111:\n        /* \"#utility.yul\":1588:1595   */\n      0x00\n        /* \"#utility.yul\":1617:1622   */\n      dup2\n        /* \"#utility.yul\":1606:1622   */\n      swap1\n      pop\n        /* \"#utility.yul\":1551:1628   */\n      swap2\n      swap1\n      pop\n      jump\t// out\n        /* \"#utility.yul\":1634:1756   */\n    tag_112:\n        /* \"#utility.yul\":1707:1731   */\n      tag_169\n        /* \"#utility.yul\":1725:1730   */\n      dup2\n        /* \"#utility.yul\":1707:1731   */\n      tag_111\n      jump\t// in\n    tag_169:\n        /* \"#utility.yul\":1700:1705   */\n      dup2\n        /* \"#utility.yul\":1697:1732   */\n      eq\n        /* \"#utility.yul\":1687:1750   */\n      tag_170\n      jumpi\n        /* \"#utility.yul\":1746:1747   */\n      0x00\n        /* \"#utility.yul\":1743:1744   */\n      dup1\n        /* \"#utility.yul\":1736:1748   */\n      revert\n        /* \"#utility.yul\":1687:1750   */\n    tag_170:\n        /* \"#utility.yul\":1634:1756   */\n      pop\n      jump\t// out\n        /* \"#utility.yul\":1762:1901   */\n    tag_113:\n        /* \"#utility.yul\":1808:1813   */\n      0x00\n        /* \"#utility.yul\":1846:1852   */\n      dup2\n        /* \"#utility.yul\":1833:1853   */\n      calldataload\n        /* \"#utility.yul\":1824:1853   */\n      swap1\n      pop\n        /* \"#utility.yul\":1862:1895   */\n      tag_172\n        /* \"#utility.yul\":1889:1894   */\n      dup2\n        /* \"#utility.yul\":1862:1895   */\n      tag_112\n      jump\t// in\n    tag_172:\n        /* \"#utility.yul\":1762:1901   */\n      swap3\n      swap2\n      pop\n      pop\n      jump\t// out\n        /* \"#utility.yul\":1925:2568   */\n    tag_114:\n        /* \"#utility.yul\":2019:2024   */\n      0x00\n        /* \"#utility.yul\":2044:2123   */\n      tag_174\n        /* \"#utility.yul\":2060:2122   */\n      tag_175\n        /* \"#utility.yul\":2115:2121   */\n      dup5\n        /* \"#utility.yul\":2060:2122   */\n      tag_109\n      jump\t// in\n    tag_175:\n        /* \"#utility.yul\":2044:2123   */\n      tag_108\n      jump\t// in\n    tag_174:\n        /* \"#utility.yul\":2035:2123   */\n      swap1\n      pop\n        /* \"#utility.yul\":2143:2148   */\n      dup1\n        /* \"#utility.yul\":2196:2200   */\n      0x20\n        /* \"#utility.yul\":2188:2194   */\n      dup5\n        /* \"#utility.yul\":2184:2201   */\n      mul\n        /* \"#utility.yul\":2176:2182   */\n      dup4\n        /* \"#utility.yul\":2172:2202   */\n      add\n        /* \"#utility.yul\":2225:2228   */\n      dup6\n        /* \"#utility.yul\":2217:2223   */\n      dup2\n        /* \"#utility.yul\":2214:2229   */\n      gt\n        /* \"#utility.yul\":2211:2333   */\n      iszero\n      tag_176\n      jumpi\n        /* \"#utility.yul\":2244:2323   */\n      tag_177\n      tag_110\n      jump\t// in\n    tag_177:\n        /* \"#utility.yul\":2211:2333   */\n    tag_176:\n        /* \"#utility.yul\":2359:2365   */\n      dup4\n        /* \"#utility.yul\":2342:2562   */\n    tag_178:\n        /* \"#utility.yul\":2376:2382   */\n      dup2\n        /* \"#utility.yul\":2371:2374   */\n      dup2\n        /* \"#utility.yul\":2368:2383   */\n      lt\n        /* \"#utility.yul\":2342:2562   */\n      iszero\n      tag_180\n      jumpi\n        /* \"#utility.yul\":2451:2454   */\n      dup1\n        /* \"#utility.yul\":2480:2517   */\n      tag_181\n        /* \"#utility.yul\":2513:2516   */\n      dup9\n        /* \"#utility.yul\":2501:2511   */\n      dup3\n        /* \"#utility.yul\":2480:2517   */\n      tag_113\n      jump\t// in\n    tag_181:\n        /* \"#utility.yul\":2475:2478   */\n      dup5\n        /* \"#utility.yul\":2468:2518   */\n      mstore\n        /* \"#utility.yul\":2547:2551   */\n      0x20\n        /* \"#utility.yul\":2542:2545   */\n      dup5\n        /* \"#utility.yul\":2538:2552   */\n      add\n        /* \"#utility.yul\":2531:2552   */\n      swap4\n      pop\n        /* \"#utility.yul\":2418:2562   */\n      pop\n        /* \"#utility.yul\":2402:2406   */\n      0x20\n        /* \"#utility.yul\":2397:2400   */\n      dup2\n        /* \"#utility.yul\":2393:2407   */\n      add\n        /* \"#utility.yul\":2386:2407   */\n      swap1\n      pop\n        /* \"#utility.yul\":2342:2562   */\n      jump(tag_178)\n    tag_180:\n        /* \"#utility.yul\":2346:2367   */\n      pop\n        /* \"#utility.yul\":2025:2568   */\n      pop\n      pop\n        /* \"#utility.yul\":1925:2568   */\n      swap4\n      swap3\n      pop\n      pop\n      pop\n      jump\t// out\n        /* \"#utility.yul\":2592:2931   */\n    tag_115:\n        /* \"#utility.yul\":2661:2666   */\n      0x00\n        /* \"#utility.yul\":2710:2713   */\n      dup3\n        /* \"#utility.yul\":2703:2707   */\n      0x1f\n        /* \"#utility.yul\":2695:2701   */\n      dup4\n        /* \"#utility.yul\":2691:2708   */\n      add\n        /* \"#utility.yul\":2687:2714   */\n      slt\n        /* \"#utility.yul\":2677:2799   */\n      tag_183\n      jumpi\n        /* \"#utility.yul\":2718:2797   */\n      tag_184\n      tag_104\n      jump\t// in\n    tag_184:\n        /* \"#utility.yul\":2677:2799   */\n    tag_183:\n        /* \"#utility.yul\":2822:2826   */\n      0x04\n        /* \"#utility.yul\":2844:2925   */\n      tag_185\n        /* \"#utility.yul\":2921:2924   */\n      dup5\n        /* \"#utility.yul\":2913:2919   */\n      dup3\n        /* \"#utility.yul\":2905:2911   */\n      dup6\n        /* \"#utility.yul\":2844:2925   */\n      tag_114\n      jump\t// in\n    tag_185:\n        /* \"#utility.yul\":2835:2925   */\n      swap2\n      pop\n        /* \"#utility.yul\":2667:2931   */\n      pop\n        /* \"#utility.yul\":2592:2931   */\n      swap3\n      swap2\n      pop\n      pop\n      jump\t// out\n        /* \"#utility.yul\":2937:3054   */\n    tag_116:\n        /* \"#utility.yul\":3046:3047   */\n      0x00\n        /* \"#utility.yul\":3043:3044   */\n      dup1\n        /* \"#utility.yul\":3036:3048   */\n      revert\n        /* \"#utility.yul\":3060:3368   */\n    tag_117:\n        /* \"#utility.yul\":3122:3126   */\n      0x00\n        /* \"#utility.yul\":3212:3230   */\n      0xffffffffffffffff\n        /* \"#utility.yul\":3204:3210   */\n      dup3\n        /* \"#utility.yul\":3201:3231   */\n      gt\n        /* \"#utility.yul\":3198:3254   */\n      iszero\n      tag_188\n      jumpi\n        /* \"#utility.yul\":3234:3252   */\n      tag_189\n      tag_106\n      jump\t// in\n    tag_189:\n        /* \"#utility.yul\":3198:3254   */\n    tag_188:\n        /* \"#utility.yul\":3272:3301   */\n      tag_190\n        /* \"#utility.yul\":3294:3300   */\n      dup3\n        /* \"#utility.yul\":3272:3301   */\n      tag_105\n      jump\t// in\n    tag_190:\n        /* \"#utility.yul\":3264:3301   */\n      swap1\n      pop\n        /* \"#utility.yul\":3356:3360   */\n      0x20\n        /* \"#utility.yul\":3350:3354   */\n      dup2\n        /* \"#utility.yul\":3346:3361   */\n      add\n        /* \"#utility.yul\":3338:3361   */\n      swap1\n      pop\n        /* \"#utility.yul\":3060:3368   */\n      swap2\n      swap1\n      pop\n      jump\t// out\n        /* \"#utility.yul\":3374:3520   */\n    tag_118:\n        /* \"#utility.yul\":3471:3477   */\n      dup3\n        /* \"#utility.yul\":3466:3469   */\n      dup2\n        /* \"#utility.yul\":3461:3464   */\n      dup4\n        /* \"#utility.yul\":3448:3478   */\n      calldatacopy\n        /* \"#utility.yul\":3512:3513   */\n      0x00\n        /* \"#utility.yul\":3503:3509   */\n      dup4\n        /* \"#utility.yul\":3498:3501   */\n      dup4\n        /* \"#utility.yul\":3494:3510   */\n      add\n        /* \"#utility.yul\":3487:3514   */\n      mstore\n        /* \"#utility.yul\":3374:3520   */\n      pop\n      pop\n      pop\n      jump\t// out\n        /* \"#utility.yul\":3526:3951   */\n    tag_119:\n        /* \"#utility.yul\":3604:3609   */\n      0x00\n        /* \"#utility.yul\":3629:3695   */\n      tag_193\n        /* \"#utility.yul\":3645:3694   */\n      tag_194\n        /* \"#utility.yul\":3687:3693   */\n      dup5\n        /* \"#utility.yul\":3645:3694   */\n      tag_117\n      jump\t// in\n    tag_194:\n        /* \"#utility.yul\":3629:3695   */\n      tag_108\n      jump\t// in\n    tag_193:\n        /* \"#utility.yul\":3620:3695   */\n      swap1\n      pop\n        /* \"#utility.yul\":3718:3724   */\n      dup3\n        /* \"#utility.yul\":3711:3716   */\n      dup2\n        /* \"#utility.yul\":3704:3725   */\n      mstore\n        /* \"#utility.yul\":3756:3760   */\n      0x20\n        /* \"#utility.yul\":3749:3754   */\n      dup2\n        /* \"#utility.yul\":3745:3761   */\n      add\n        /* \"#utility.yul\":3794:3797   */\n      dup5\n        /* \"#utility.yul\":3785:3791   */\n      dup5\n        /* \"#utility.yul\":3780:3783   */\n      dup5\n        /* \"#utility.yul\":3776:3792   */\n      add\n        /* \"#utility.yul\":3773:3798   */\n      gt\n        /* \"#utility.yul\":3770:3882   */\n      iszero\n      tag_195\n      jumpi\n        /* \"#utility.yul\":3801:3880   */\n      tag_196\n      tag_116\n      jump\t// in\n    tag_196:\n        /* \"#utility.yul\":3770:3882   */\n    tag_195:\n        /* \"#utility.yul\":3891:3945   */\n      tag_197\n        /* \"#utility.yul\":3938:3944   */\n      dup5\n        /* \"#utility.yul\":3933:3936   */\n      dup3\n        /* \"#utility.yul\":3928:3931   */\n      dup6\n        /* \"#utility.yul\":3891:3945   */\n      tag_118\n      jump\t// in\n    tag_197:\n        /* \"#utility.yul\":3610:3951   */\n      pop\n        /* \"#utility.yul\":3526:3951   */\n      swap4\n      swap3\n      pop\n      pop\n      pop\n      jump\t// out\n        /* \"#utility.yul\":3971:4311   */\n    tag_120:\n        /* \"#utility.yul\":4027:4032   */\n      0x00\n        /* \"#utility.yul\":4076:4079   */\n      dup3\n        /* \"#utility.yul\":4069:4073   */\n      0x1f\n        /* \"#utility.yul\":4061:4067   */\n      dup4\n        /* \"#utility.yul\":4057:4074   */\n      add\n        /* \"#utility.yul\":4053:4080   */\n      slt\n        /* \"#utility.yul\":4043:4165   */\n      tag_199\n      jumpi\n        /* \"#utility.yul\":4084:4163   */\n      tag_200\n      tag_104\n      jump\t// in\n    tag_200:\n        /* \"#utility.yul\":4043:4165   */\n    tag_199:\n        /* \"#utility.yul\":4201:4207   */\n      dup2\n        /* \"#utility.yul\":4188:4208   */\n      calldataload\n        /* \"#utility.yul\":4226:4305   */\n      tag_201\n        /* \"#utility.yul\":4301:4304   */\n      dup5\n        /* \"#utility.yul\":4293:4299   */\n      dup3\n        /* \"#utility.yul\":4286:4290   */\n      0x20\n        /* \"#utility.yul\":4278:4284   */\n      dup7\n        /* \"#utility.yul\":4274:4291   */\n      add\n        /* \"#utility.yul\":4226:4305   */\n      tag_119\n      jump\t// in\n    tag_201:\n        /* \"#utility.yul\":4217:4305   */\n      swap2\n      pop\n        /* \"#utility.yul\":4033:4311   */\n      pop\n        /* \"#utility.yul\":3971:4311   */\n      swap3\n      swap2\n      pop\n      pop\n      jump\t// out\n        /* \"#utility.yul\":4317:5345   */\n    tag_7:\n        /* \"#utility.yul\":4437:4443   */\n      0x00\n        /* \"#utility.yul\":4445:4451   */\n      dup1\n        /* \"#utility.yul\":4453:4459   */\n      0x00\n        /* \"#utility.yul\":4502:4505   */\n      0xc0\n        /* \"#utility.yul\":4490:4499   */\n      dup5\n        /* \"#utility.yul\":4481:4488   */\n      dup7\n        /* \"#utility.yul\":4477:4500   */\n      sub\n        /* \"#utility.yul\":4473:4506   */\n      slt\n        /* \"#utility.yul\":4470:4590   */\n      iszero\n      tag_203\n      jumpi\n        /* \"#utility.yul\":4509:4588   */\n      tag_204\n      tag_102\n      jump\t// in\n    tag_204:\n        /* \"#utility.yul\":4470:4590   */\n    tag_203:\n        /* \"#utility.yul\":4629:4630   */\n      0x00\n        /* \"#utility.yul\":4654:4730   */\n      tag_205\n        /* \"#utility.yul\":4722:4729   */\n      dup7\n        /* \"#utility.yul\":4713:4719   */\n      dup3\n        /* \"#utility.yul\":4702:4711   */\n      dup8\n        /* \"#utility.yul\":4698:4720   */\n      add\n        /* \"#utility.yul\":4654:4730   */\n      tag_115\n      jump\t// in\n    tag_205:\n        /* \"#utility.yul\":4644:4730   */\n      swap4\n      pop\n        /* \"#utility.yul\":4600:4740   */\n      pop\n        /* \"#utility.yul\":4807:4810   */\n      0x80\n        /* \"#utility.yul\":4796:4805   */\n      dup5\n        /* \"#utility.yul\":4792:4811   */\n      add\n        /* \"#utility.yul\":4779:4812   */\n      calldataload\n        /* \"#utility.yul\":4839:4857   */\n      0xffffffffffffffff\n        /* \"#utility.yul\":4831:4837   */\n      dup2\n        /* \"#utility.yul\":4828:4858   */\n      gt\n        /* \"#utility.yul\":4825:4942   */\n      iszero\n      tag_206\n      jumpi\n        /* \"#utility.yul\":4861:4940   */\n      tag_207\n      tag_103\n      jump\t// in\n    tag_207:\n        /* \"#utility.yul\":4825:4942   */\n    tag_206:\n        /* \"#utility.yul\":4966:5029   */\n      tag_208\n        /* \"#utility.yul\":5021:5028   */\n      dup7\n        /* \"#utility.yul\":5012:5018   */\n      dup3\n        /* \"#utility.yul\":5001:5010   */\n      dup8\n        /* \"#utility.yul\":4997:5019   */\n      add\n        /* \"#utility.yul\":4966:5029   */\n      tag_120\n      jump\t// in\n    tag_208:\n        /* \"#utility.yul\":4956:5029   */\n      swap3\n      pop\n        /* \"#utility.yul\":4750:5039   */\n      pop\n        /* \"#utility.yul\":5106:5109   */\n      0xa0\n        /* \"#utility.yul\":5095:5104   */\n      dup5\n        /* \"#utility.yul\":5091:5110   */\n      add\n        /* \"#utility.yul\":5078:5111   */\n      calldataload\n        /* \"#utility.yul\":5138:5156   */\n      0xffffffffffffffff\n        /* \"#utility.yul\":5130:5136   */\n      dup2\n        /* \"#utility.yul\":5127:5157   */\n      gt\n        /* \"#utility.yul\":5124:5241   */\n      iszero\n      tag_209\n      jumpi\n        /* \"#utility.yul\":5160:5239   */\n      tag_210\n      tag_103\n      jump\t// in\n    tag_210:\n        /* \"#utility.yul\":5124:5241   */\n    tag_209:\n        /* \"#utility.yul\":5265:5328   */\n      tag_211\n        /* \"#utility.yul\":5320:5327   */\n      dup7\n        /* \"#utility.yul\":5311:5317   */\n      dup3\n        /* \"#utility.yul\":5300:5309   */\n      dup8\n        /* \"#utility.yul\":5296:5318   */\n      add\n        /* \"#utility.yul\":5265:5328   */\n      tag_120\n      jump\t// in\n    tag_211:\n        /* \"#utility.yul\":5255:5328   */\n      swap2\n      pop\n        /* \"#utility.yul\":5049:5338   */\n      pop\n        /* \"#utility.yul\":4317:5345   */\n      swap3\n      pop\n      swap3\n      pop\n      swap3\n      jump\t// out\n        /* \"#utility.yul\":5351:5469   */\n    tag_121:\n        /* \"#utility.yul\":5438:5462   */\n      tag_213\n        /* \"#utility.yul\":5456:5461   */\n      dup2\n        /* \"#utility.yul\":5438:5462   */\n      tag_111\n      jump\t// in\n    tag_213:\n        /* \"#utility.yul\":5433:5436   */\n      dup3\n        /* \"#utility.yul\":5426:5463   */\n      mstore\n        /* \"#utility.yul\":5351:5469   */\n      pop\n      pop\n      jump\t// out\n        /* \"#utility.yul\":5475:5697   */\n    tag_13:\n        /* \"#utility.yul\":5568:5572   */\n      0x00\n        /* \"#utility.yul\":5606:5608   */\n      0x20\n        /* \"#utility.yul\":5595:5604   */\n      dup3\n        /* \"#utility.yul\":5591:5609   */\n      add\n        /* \"#utility.yul\":5583:5609   */\n      swap1\n      pop\n        /* \"#utility.yul\":5619:5690   */\n      tag_215\n        /* \"#utility.yul\":5687:5688   */\n      0x00\n        /* \"#utility.yul\":5676:5685   */\n      dup4\n        /* \"#utility.yul\":5672:5689   */\n      add\n        /* \"#utility.yul\":5663:5669   */\n      dup5\n        /* \"#utility.yul\":5619:5690   */\n      tag_121\n      jump\t// in\n    tag_215:\n        /* \"#utility.yul\":5475:5697   */\n      swap3\n      swap2\n      pop\n      pop\n      jump\t// out\n        /* \"#utility.yul\":5703:5829   */\n    tag_122:\n        /* \"#utility.yul\":5740:5747   */\n      0x00\n        /* \"#utility.yul\":5780:5822   */\n      0xffffffffffffffffffffffffffffffffffffffff\n        /* \"#utility.yul\":5773:5778   */\n      dup3\n        /* \"#utility.yul\":5769:5823   */\n      and\n        /* \"#utility.yul\":5758:5823   */\n      swap1\n      pop\n        /* \"#utility.yul\":5703:5829   */\n      swap2\n      swap1\n      pop\n      jump\t// out\n        /* \"#utility.yul\":5835:5931   */\n    tag_123:\n        /* \"#utility.yul\":5872:5879   */\n      0x00\n        /* \"#utility.yul\":5901:5925   */\n      tag_218\n        /* \"#utility.yul\":5919:5924   */\n      dup3\n        /* \"#utility.yul\":5901:5925   */\n      tag_122\n      jump\t// in\n    tag_218:\n        /* \"#utility.yul\":5890:5925   */\n      swap1\n      pop\n        /* \"#utility.yul\":5835:5931   */\n      swap2\n      swap1\n      pop\n      jump\t// out\n        /* \"#utility.yul\":5937:6059   */\n    tag_124:\n        /* \"#utility.yul\":6010:6034   */\n      tag_220\n        /* \"#utility.yul\":6028:6033   */\n      dup2\n        /* \"#utility.yul\":6010:6034   */\n      tag_123\n      jump\t// in\n    tag_220:\n        /* \"#utility.yul\":6003:6008   */\n      dup2\n        /* \"#utility.yul\":6000:6035   */\n      eq\n        /* \"#utility.yul\":5990:6053   */\n      tag_221\n      jumpi\n        /* \"#utility.yul\":6049:6050   */\n      0x00\n        /* \"#utility.yul\":6046:6047   */\n      dup1\n        /* \"#utility.yul\":6039:6051   */\n      revert\n        /* \"#utility.yul\":5990:6053   */\n    tag_221:\n        /* \"#utility.yul\":5937:6059   */\n      pop\n      jump\t// out\n        /* \"#utility.yul\":6065:6204   */\n    tag_125:\n        /* \"#utility.yul\":6111:6116   */\n      0x00\n        /* \"#utility.yul\":6149:6155   */\n      dup2\n        /* \"#utility.yul\":6136:6156   */\n      calldataload\n        /* \"#utility.yul\":6127:6156   */\n      swap1\n      pop\n        /* \"#utility.yul\":6165:6198   */\n      tag_223\n        /* \"#utility.yul\":6192:6197   */\n      dup2\n        /* \"#utility.yul\":6165:6198   */\n      tag_124\n      jump\t// in\n    tag_223:\n        /* \"#utility.yul\":6065:6204   */\n      swap3\n      swap2\n      pop\n      pop\n      jump\t// out\n        /* \"#utility.yul\":6210:6539   */\n    tag_17:\n        /* \"#utility.yul\":6269:6275   */\n      0x00\n        /* \"#utility.yul\":6318:6320   */\n      0x20\n        /* \"#utility.yul\":6306:6315   */\n      dup3\n        /* \"#utility.yul\":6297:6304   */\n      dup5\n        /* \"#utility.yul\":6293:6316   */\n      sub\n        /* \"#utility.yul\":6289:6321   */\n      slt\n        /* \"#utility.yul\":6286:6405   */\n      iszero\n      tag_225\n      jumpi\n        /* \"#utility.yul\":6324:6403   */\n      tag_226\n      tag_102\n      jump\t// in\n    tag_226:\n        /* \"#utility.yul\":6286:6405   */\n    tag_225:\n        /* \"#utility.yul\":6444:6445   */\n      0x00\n        /* \"#utility.yul\":6469:6522   */\n      tag_227\n        /* \"#utility.yul\":6514:6521   */\n      dup5\n        /* \"#utility.yul\":6505:6511   */\n      dup3\n        /* \"#utility.yul\":6494:6503   */\n      dup6\n        /* \"#utility.yul\":6490:6512   */\n      add\n        /* \"#utility.yul\":6469:6522   */\n      tag_125\n      jump\t// in\n    tag_227:\n        /* \"#utility.yul\":6459:6522   */\n      swap2\n      pop\n        /* \"#utility.yul\":6415:6532   */\n      pop\n        /* \"#utility.yul\":6210:6539   */\n      swap3\n      swap2\n      pop\n      pop\n      jump\t// out\n        /* \"#utility.yul\":6545:6644   */\n    tag_126:\n        /* \"#utility.yul\":6597:6603   */\n      0x00\n        /* \"#utility.yul\":6631:6636   */\n      dup2\n        /* \"#utility.yul\":6625:6637   */\n      mload\n        /* \"#utility.yul\":6615:6637   */\n      swap1\n      pop\n        /* \"#utility.yul\":6545:6644   */\n      swap2\n      swap1\n      pop\n      jump\t// out\n        /* \"#utility.yul\":6650:6819   */\n    tag_127:\n        /* \"#utility.yul\":6734:6745   */\n      0x00\n        /* \"#utility.yul\":6768:6774   */\n      dup3\n        /* \"#utility.yul\":6763:6766   */\n      dup3\n        /* \"#utility.yul\":6756:6775   */\n      mstore\n        /* \"#utility.yul\":6808:6812   */\n      0x20\n        /* \"#utility.yul\":6803:6806   */\n      dup3\n        /* \"#utility.yul\":6799:6813   */\n      add\n        /* \"#utility.yul\":6784:6813   */\n      swap1\n      pop\n        /* \"#utility.yul\":6650:6819   */\n      swap3\n      swap2\n      pop\n      pop\n      jump\t// out\n        /* \"#utility.yul\":6825:7071   */\n    tag_128:\n        /* \"#utility.yul\":6906:6907   */\n      0x00\n        /* \"#utility.yul\":6916:7029   */\n    tag_231:\n        /* \"#utility.yul\":6930:6936   */\n      dup4\n        /* \"#utility.yul\":6927:6928   */\n      dup2\n        /* \"#utility.yul\":6924:6937   */\n      lt\n        /* \"#utility.yul\":6916:7029   */\n      iszero\n      tag_233\n      jumpi\n        /* \"#utility.yul\":7015:7016   */\n      dup1\n        /* \"#utility.yul\":7010:7013   */\n      dup3\n        /* \"#utility.yul\":7006:7017   */\n      add\n        /* \"#utility.yul\":7000:7018   */\n      mload\n        /* \"#utility.yul\":6996:6997   */\n      dup2\n        /* \"#utility.yul\":6991:6994   */\n      dup5\n        /* \"#utility.yul\":6987:6998   */\n      add\n        /* \"#utility.yul\":6980:7019   */\n      mstore\n        /* \"#utility.yul\":6952:6954   */\n      0x20\n        /* \"#utility.yul\":6949:6950   */\n      dup2\n        /* \"#utility.yul\":6945:6955   */\n      add\n        /* \"#utility.yul\":6940:6955   */\n      swap1\n      pop\n        /* \"#utility.yul\":6916:7029   */\n      jump(tag_231)\n    tag_233:\n        /* \"#utility.yul\":7063:7064   */\n      0x00\n        /* \"#utility.yul\":7054:7060   */\n      dup5\n        /* \"#utility.yul\":7049:7052   */\n      dup5\n        /* \"#utility.yul\":7045:7061   */\n      add\n        /* \"#utility.yul\":7038:7065   */\n      mstore\n        /* \"#utility.yul\":6887:7071   */\n      pop\n        /* \"#utility.yul\":6825:7071   */\n      pop\n      pop\n      pop\n      jump\t// out\n        /* \"#utility.yul\":7077:7454   */\n    tag_129:\n        /* \"#utility.yul\":7165:7168   */\n      0x00\n        /* \"#utility.yul\":7193:7232   */\n      tag_235\n        /* \"#utility.yul\":7226:7231   */\n      dup3\n        /* \"#utility.yul\":7193:7232   */\n      tag_126\n      jump\t// in\n    tag_235:\n        /* \"#utility.yul\":7248:7319   */\n      tag_236\n        /* \"#utility.yul\":7312:7318   */\n      dup2\n        /* \"#utility.yul\":7307:7310   */\n      dup6\n        /* \"#utility.yul\":7248:7319   */\n      tag_127\n      jump\t// in\n    tag_236:\n        /* \"#utility.yul\":7241:7319   */\n      swap4\n      pop\n        /* \"#utility.yul\":7328:7393   */\n      tag_237\n        /* \"#utility.yul\":7386:7392   */\n      dup2\n        /* \"#utility.yul\":7381:7384   */\n      dup6\n        /* \"#utility.yul\":7374:7378   */\n      0x20\n        /* \"#utility.yul\":7367:7372   */\n      dup7\n        /* \"#utility.yul\":7363:7379   */\n      add\n        /* \"#utility.yul\":7328:7393   */\n      tag_128\n      jump\t// in\n    tag_237:\n        /* \"#utility.yul\":7418:7447   */\n      tag_238\n        /* \"#utility.yul\":7440:7446   */\n      dup2\n        /* \"#utility.yul\":7418:7447   */\n      tag_105\n      jump\t// in\n    tag_238:\n        /* \"#utility.yul\":7413:7416   */\n      dup5\n        /* \"#utility.yul\":7409:7448   */\n      add\n        /* \"#utility.yul\":7402:7448   */\n      swap2\n      pop\n        /* \"#utility.yul\":7169:7454   */\n      pop\n        /* \"#utility.yul\":7077:7454   */\n      swap3\n      swap2\n      pop\n      pop\n      jump\t// out\n        /* \"#utility.yul\":7460:7974   */\n    tag_20:\n        /* \"#utility.yul\":7621:7625   */\n      0x00\n        /* \"#utility.yul\":7659:7661   */\n      0x40\n        /* \"#utility.yul\":7648:7657   */\n      dup3\n        /* \"#utility.yul\":7644:7662   */\n      add\n        /* \"#utility.yul\":7636:7662   */\n      swap1\n      pop\n        /* \"#utility.yul\":7708:7717   */\n      dup2\n        /* \"#utility.yul\":7702:7706   */\n      dup2\n        /* \"#utility.yul\":7698:7718   */\n      sub\n        /* \"#utility.yul\":7694:7695   */\n      0x00\n        /* \"#utility.yul\":7683:7692   */\n      dup4\n        /* \"#utility.yul\":7679:7696   */\n      add\n        /* \"#utility.yul\":7672:7719   */\n      mstore\n        /* \"#utility.yul\":7736:7814   */\n      tag_240\n        /* \"#utility.yul\":7809:7813   */\n      dup2\n        /* \"#utility.yul\":7800:7806   */\n      dup6\n        /* \"#utility.yul\":7736:7814   */\n      tag_129\n      jump\t// in\n    tag_240:\n        /* \"#utility.yul\":7728:7814   */\n      swap1\n      pop\n        /* \"#utility.yul\":7861:7870   */\n      dup2\n        /* \"#utility.yul\":7855:7859   */\n      dup2\n        /* \"#utility.yul\":7851:7871   */\n      sub\n        /* \"#utility.yul\":7846:7848   */\n      0x20\n        /* \"#utility.yul\":7835:7844   */\n      dup4\n        /* \"#utility.yul\":7831:7849   */\n      add\n        /* \"#utility.yul\":7824:7872   */\n      mstore\n        /* \"#utility.yul\":7889:7967   */\n      tag_241\n        /* \"#utility.yul\":7962:7966   */\n      dup2\n        /* \"#utility.yul\":7953:7959   */\n      dup5\n        /* \"#utility.yul\":7889:7967   */\n      tag_129\n      jump\t// in\n    tag_241:\n        /* \"#utility.yul\":7881:7967   */\n      swap1\n      pop\n        /* \"#utility.yul\":7460:7974   */\n      swap4\n      swap3\n      pop\n      pop\n      pop\n      jump\t// out\n        /* \"#utility.yul\":7980:8160   */\n    tag_130:\n        /* \"#utility.yul\":8028:8105   */\n      0x4e487b7100000000000000000000000000000000000000000000000000000000\n        /* \"#utility.yul\":8025:8026   */\n      0x00\n        /* \"#utility.yul\":8018:8106   */\n      mstore\n        /* \"#utility.yul\":8125:8129   */\n      0x22\n        /* \"#utility.yul\":8122:8123   */\n      0x04\n        /* \"#utility.yul\":8115:8130   */\n      mstore\n        /* \"#utility.yul\":8149:8153   */\n      0x24\n        /* \"#utility.yul\":8146:8147   */\n      0x00\n        /* \"#utility.yul\":8139:8154   */\n      revert\n        /* \"#utility.yul\":8166:8486   */\n    tag_46:\n        /* \"#utility.yul\":8210:8216   */\n      0x00\n        /* \"#utility.yul\":8247:8248   */\n      0x02\n        /* \"#utility.yul\":8241:8245   */\n      dup3\n        /* \"#utility.yul\":8237:8249   */\n      div\n        /* \"#utility.yul\":8227:8249   */\n      swap1\n      pop\n        /* \"#utility.yul\":8294:8295   */\n      0x01\n        /* \"#utility.yul\":8288:8292   */\n      dup3\n        /* \"#utility.yul\":8284:8296   */\n      and\n        /* \"#utility.yul\":8315:8333   */\n      dup1\n        /* \"#utility.yul\":8305:8386   */\n      tag_244\n      jumpi\n        /* \"#utility.yul\":8371:8375   */\n      0x7f\n        /* \"#utility.yul\":8363:8369   */\n      dup3\n        /* \"#utility.yul\":8359:8376   */\n      and\n        /* \"#utility.yul\":8349:8376   */\n      swap2\n      pop\n        /* \"#utility.yul\":8305:8386   */\n    tag_244:\n        /* \"#utility.yul\":8433:8435   */\n      0x20\n        /* \"#utility.yul\":8425:8431   */\n      dup3\n        /* \"#utility.yul\":8422:8436   */\n      lt\n        /* \"#utility.yul\":8402:8420   */\n      dup2\n        /* \"#utility.yul\":8399:8437   */\n      sub\n        /* \"#utility.yul\":8396:8480   */\n      tag_245\n      jumpi\n        /* \"#utility.yul\":8452:8470   */\n      tag_246\n      tag_130\n      jump\t// in\n    tag_246:\n        /* \"#utility.yul\":8396:8480   */\n    tag_245:\n        /* \"#utility.yul\":8217:8486   */\n      pop\n        /* \"#utility.yul\":8166:8486   */\n      swap2\n      swap1\n      pop\n      jump\t// out\n        /* \"#utility.yul\":8492:8633   */\n    tag_131:\n        /* \"#utility.yul\":8541:8545   */\n      0x00\n        /* \"#utility.yul\":8564:8567   */\n      dup2\n        /* \"#utility.yul\":8556:8567   */\n      swap1\n      pop\n        /* \"#utility.yul\":8587:8590   */\n      dup2\n        /* \"#utility.yul\":8584:8585   */\n      0x00\n        /* \"#utility.yul\":8577:8591   */\n      mstore\n        /* \"#utility.yul\":8621:8625   */\n      0x20\n        /* \"#utility.yul\":8618:8619   */\n      0x00\n        /* \"#utility.yul\":8608:8626   */\n      keccak256\n        /* \"#utility.yul\":8600:8626   */\n      swap1\n      pop\n        /* \"#utility.yul\":8492:8633   */\n      swap2\n      swap1\n      pop\n      jump\t// out\n        /* \"#utility.yul\":8639:8732   */\n    tag_132:\n        /* \"#utility.yul\":8676:8682   */\n      0x00\n        /* \"#utility.yul\":8723:8725   */\n      0x20\n        /* \"#utility.yul\":8718:8720   */\n      0x1f\n        /* \"#utility.yul\":8711:8716   */\n      dup4\n        /* \"#utility.yul\":8707:8721   */\n      add\n        /* \"#utility.yul\":8703:8726   */\n      div\n        /* \"#utility.yul\":8693:8726   */\n      swap1\n      pop\n        /* \"#utility.yul\":8639:8732   */\n      swap2\n      swap1\n      pop\n      jump\t// out\n        /* \"#utility.yul\":8738:8845   */\n    tag_133:\n        /* \"#utility.yul\":8782:8790   */\n      0x00\n        /* \"#utility.yul\":8832:8837   */\n      dup3\n        /* \"#utility.yul\":8826:8830   */\n      dup3\n        /* \"#utility.yul\":8822:8838   */\n      shl\n        /* \"#utility.yul\":8801:8838   */\n      swap1\n      pop\n        /* \"#utility.yul\":8738:8845   */\n      swap3\n      swap2\n      pop\n      pop\n      jump\t// out\n        /* \"#utility.yul\":8851:9244   */\n    tag_134:\n        /* \"#utility.yul\":8920:8926   */\n      0x00\n        /* \"#utility.yul\":8970:8971   */\n      0x08\n        /* \"#utility.yul\":8958:8968   */\n      dup4\n        /* \"#utility.yul\":8954:8972   */\n      mul\n        /* \"#utility.yul\":8993:9090   */\n      tag_251\n        /* \"#utility.yul\":9023:9089   */\n      0xffffffffffffffffffffffffffffffffffffffffffffffffffffffffffffffff\n        /* \"#utility.yul\":9012:9021   */\n      dup3\n        /* \"#utility.yul\":8993:9090   */\n      tag_133\n      jump\t// in\n    tag_251:\n        /* \"#utility.yul\":9111:9150   */\n      tag_252\n        /* \"#utility.yul\":9141:9149   */\n      dup7\n        /* \"#utility.yul\":9130:9139   */\n      dup4\n        /* \"#utility.yul\":9111:9150   */\n      tag_133\n      jump\t// in\n    tag_252:\n        /* \"#utility.yul\":9099:9150   */\n      swap6\n      pop\n        /* \"#utility.yul\":9183:9187   */\n      dup1\n        /* \"#utility.yul\":9179:9188   */\n      not\n        /* \"#utility.yul\":9172:9177   */\n      dup5\n        /* \"#utility.yul\":9168:9189   */\n      and\n        /* \"#utility.yul\":9159:9189   */\n      swap4\n      pop\n        /* \"#utility.yul\":9232:9236   */\n      dup1\n        /* \"#utility.yul\":9222:9230   */\n      dup7\n        /* \"#utility.yul\":9218:9237   */\n      and\n        /* \"#utility.yul\":9211:9216   */\n      dup5\n        /* \"#utility.yul\":9208:9238   */\n      or\n        /* \"#utility.yul\":9198:9238   */\n      swap3\n      pop\n        /* \"#utility.yul\":8927:9244   */\n      pop\n      pop\n        /* \"#utility.yul\":8851:9244   */\n      swap4\n      swap3\n      pop\n      pop\n      pop\n      jump\t// out\n        /* \"#utility.yul\":9250:9310   */\n    tag_135:\n        /* \"#utility.yul\":9278:9281   */\n      0x00\n        /* \"#utility.yul\":9299:9304   */\n      dup2\n        /* \"#utility.yul\":9292:9304   */\n      swap1\n      pop\n        /* \"#utility.yul\":9250:9310   */\n      swap2\n      swap1\n      pop\n      jump\t// out\n        /* \"#utility.yul\":9316:9458   */\n    tag_136:\n        /* \"#utility.yul\":9366:9375   */\n      0x00\n        /* \"#utility.yul\":9399:9452   */\n      tag_255\n        /* \"#utility.yul\":9417:9451   */\n      tag_256\n        /* \"#utility.yul\":9426:9450   */\n      tag_257\n        /* \"#utility.yul\":9444:9449   */\n      dup5\n        /* \"#utility.yul\":9426:9450   */\n      tag_111\n      jump\t// in\n    tag_257:\n        /* \"#utility.yul\":9417:9451   */\n      tag_135\n      jump\t// in\n    tag_256:\n        /* \"#utility.yul\":9399:9452   */\n      tag_111\n      jump\t// in\n    tag_255:\n        /* \"#utility.yul\":9386:9452   */\n      swap1\n      pop\n        /* \"#utility.yul\":9316:9458   */\n      swap2\n      swap1\n      pop\n      jump\t// out\n        /* \"#utility.yul\":9464:9539   */\n    tag_137:\n        /* \"#utility.yul\":9507:9510   */\n      0x00\n        /* \"#utility.yul\":9528:9533   */\n      dup2\n        /* \"#utility.yul\":9521:9533   */\n      swap1\n      pop\n        /* \"#utility.yul\":9464:9539   */\n      swap2\n      swap1\n      pop\n      jump\t// out\n        /* \"#utility.yul\":9545:9814   */\n    tag_138:\n        /* \"#utility.yul\":9655:9694   */\n      tag_260\n        /* \"#utility.yul\":9686:9693   */\n      dup4\n        /* \"#utility.yul\":9655:9694   */\n      tag_136\n      jump\t// in\n    tag_260:\n        /* \"#utility.yul\":9716:9807   */\n      tag_261\n        /* \"#utility.yul\":9765:9806   */\n      tag_262\n        /* \"#utility.yul\":9789:9805   */\n      dup3\n        /* \"#utility.yul\":9765:9806   */\n      tag_137\n      jump\t// in\n    tag_262:\n        /* \"#utility.yul\":9757:9763   */\n      dup5\n        /* \"#utility.yul\":9750:9754   */\n      dup5\n        /* \"#utility.yul\":9744:9755   */\n      sload\n        /* \"#utility.yul\":9716:9807   */\n      tag_134\n      jump\t// in\n    tag_261:\n        /* \"#utility.yul\":9710:9714   */\n      dup3\n        /* \"#utility.yul\":9703:9808   */\n      sstore\n        /* \"#utility.yul\":9621:9814   */\n      pop\n        /* \"#utility.yul\":9545:9814   */\n      pop\n      pop\n      pop\n      jump\t// out\n        /* \"#utility.yul\":9820:9893   */\n    tag_139:\n        /* \"#utility.yul\":9865:9868   */\n      0x00\n        /* \"#utility.yul\":9820:9893   */\n      swap1\n      jump\t// out\n        /* \"#utility.yul\":9899:10088   */\n    tag_140:\n        /* \"#utility.yul\":9976:10008   */\n      tag_265\n      tag_139\n      jump\t// in\n    tag_265:\n        /* \"#utility.yul\":10017:10082   */\n      tag_266\n        /* \"#utility.yul\":10075:10081   */\n      dup2\n        /* \"#utility.yul\":10067:10073   */\n      dup5\n        /* \"#utility.yul\":10061:10065   */\n      dup5\n        /* \"#utility.yul\":10017:10082   */\n      tag_138\n      jump\t// in\n    tag_266:\n        /* \"#utility.yul\":9952:10088   */\n      pop\n        /* \"#utility.yul\":9899:10088   */\n      pop\n      pop\n      jump\t// out\n        /* \"#utility.yul\":10094:10280   */\n    tag_141:\n        /* \"#utility.yul\":10154:10274   */\n    tag_268:\n        /* \"#utility.yul\":10171:10174   */\n      dup2\n        /* \"#utility.yul\":10164:10169   */\n      dup2\n        /* \"#utility.yul\":10161:10175   */\n      lt\n        /* \"#utility.yul\":10154:10274   */\n      iszero\n      tag_270\n      jumpi\n        /* \"#utility.yul\":10225:10264   */\n      tag_271\n        /* \"#utility.yul\":10262:10263   */\n      0x00\n        /* \"#utility.yul\":10255:10260   */\n      dup3\n        /* \"#utility.yul\":10225:10264   */\n      tag_140\n      jump\t// in\n    tag_271:\n        /* \"#utility.yul\":10198:10199   */\n      0x01\n        /* \"#utility.yul\":10191:10196   */\n      dup2\n        /* \"#utility.yul\":10187:10200   */\n      add\n        /* \"#utility.yul\":10178:10200   */\n      swap1\n      pop\n        /* \"#utility.yul\":10154:10274   */\n      jump(tag_268)\n    tag_270:\n        /* \"#utility.yul\":10094:10280   */\n      pop\n      pop\n      jump\t// out\n        /* \"#utility.yul\":10286:10829   */\n    tag_142:\n        /* \"#utility.yul\":10387:10389   */\n      0x1f\n        /* \"#utility.yul\":10382:10385   */\n      dup3\n        /* \"#utility.yul\":10379:10390   */\n      gt\n        /* \"#utility.yul\":10376:10822   */\n      iszero\n      tag_273\n      jumpi\n        /* \"#utility.yul\":10421:10459   */\n      tag_274\n        /* \"#utility.yul\":10453:10458   */\n      dup2\n        /* \"#utility.yul\":10421:10459   */\n      tag_131\n      jump\t// in\n    tag_274:\n        /* \"#utility.yul\":10505:10534   */\n      tag_275\n        /* \"#utility.yul\":10523:10533   */\n      dup5\n        /* \"#utility.yul\":10505:10534   */\n      tag_132\n      jump\t// in\n    tag_275:\n        /* \"#utility.yul\":10495:10503   */\n      dup2\n        /* \"#utility.yul\":10491:10535   */\n      add\n        /* \"#utility.yul\":10688:10690   */\n      0x20\n        /* \"#utility.yul\":10676:10686   */\n      dup6\n        /* \"#utility.yul\":10673:10691   */\n      lt\n        /* \"#utility.yul\":10670:10719   */\n      iszero\n      tag_276\n      jumpi\n        /* \"#utility.yul\":10709:10717   */\n      dup2\n        /* \"#utility.yul\":10694:10717   */\n      swap1\n      pop\n        /* \"#utility.yul\":10670:10719   */\n    tag_276:\n        /* \"#utility.yul\":10732:10812   */\n      tag_277\n        /* \"#utility.yul\":10788:10810   */\n      tag_278\n        /* \"#utility.yul\":10806:10809   */\n      dup6\n        /* \"#utility.yul\":10788:10810   */\n      tag_132\n      jump\t// in\n    tag_278:\n        /* \"#utility.yul\":10778:10786   */\n      dup4\n        /* \"#utility.yul\":10774:10811   */\n      add\n        /* \"#utility.yul\":10761:10772   */\n      dup3\n        /* \"#utility.yul\":10732:10812   */\n      tag_141\n      jump\t// in\n    tag_277:\n        /* \"#utility.yul\":10391:10822   */\n      pop\n      pop\n        /* \"#utility.yul\":10376:10822   */\n    tag_273:\n        /* \"#utility.yul\":10286:10829   */\n      pop\n      pop\n      pop\n      jump\t// out\n        /* \"#utility.yul\":10835:10952   */\n    tag_143:\n        /* \"#utility.yul\":10889:10897   */\n      0x00\n        /* \"#utility.yul\":10939:10944   */\n      dup3\n        /* \"#utility.yul\":10933:10937   */\n      dup3\n        /* \"#utility.yul\":10929:10945   */\n      shr\n        /* \"#utility.yul\":10908:10945   */\n      swap1\n      pop\n        /* \"#utility.yul\":10835:10952   */\n      swap3\n      swap2\n      pop\n      pop\n      jump\t// out\n        /* \"#utility.yul\":10958:11127   */\n    tag_144:\n        /* \"#utility.yul\":11002:11008   */\n      0x00\n        /* \"#utility.yul\":11035:11086   */\n      tag_281\n        /* \"#utility.yul\":11083:11084   */\n      0x00\n        /* \"#utility.yul\":11079:11085   */\n      not\n        /* \"#utility.yul\":11071:11076   */\n      dup5\n        /* \"#utility.yul\":11068:11069   */\n      0x08\n        /* \"#utility.yul\":11064:11077   */\n      mul\n        /* \"#utility.yul\":11035:11086   */\n      tag_143\n      jump\t// in\n    tag_281:\n        /* \"#utility.yul\":11031:11087   */\n      not\n        /* \"#utility.yul\":11116:11120   */\n      dup1\n        /* \"#utility.yul\":11110:11114   */\n      dup4\n        /* \"#utility.yul\":11106:11121   */\n      and\n        /* \"#utility.yul\":11096:11121   */\n      swap2\n      pop\n        /* \"#utility.yul\":11009:11127   */\n      pop\n        /* \"#utility.yul\":10958:11127   */\n      swap3\n      swap2\n      pop\n      pop\n      jump\t// out\n        /* \"#utility.yul\":11132:11427   */\n    tag_145:\n        /* \"#utility.yul\":11208:11212   */\n      0x00\n        /* \"#utility.yul\":11354:11383   */\n      tag_283\n        /* \"#utility.yul\":11379:11382   */\n      dup4\n        /* \"#utility.yul\":11373:11377   */\n      dup4\n        /* \"#utility.yul\":11354:11383   */\n      tag_144\n      jump\t// in\n    tag_283:\n        /* \"#utility.yul\":11346:11383   */\n      swap2\n      pop\n        /* \"#utility.yul\":11416:11419   */\n      dup3\n        /* \"#utility.yul\":11413:11414   */\n      0x02\n        /* \"#utility.yul\":11409:11420   */\n      mul\n        /* \"#utility.yul\":11403:11407   */\n      dup3\n        /* \"#utility.yul\":11400:11421   */\n      or\n        /* \"#utility.yul\":11392:11421   */\n      swap1\n      pop\n        /* \"#utility.yul\":11132:11427   */\n      swap3\n      swap2\n      pop\n      pop\n      jump\t// out\n        /* \"#utility.yul\":11432:12827   */\n    tag_26:\n        /* \"#utility.yul\":11549:11586   */\n      tag_285\n        /* \"#utility.yul\":11582:11585   */\n      dup3\n        /* \"#utility.yul\":11549:11586   */\n      tag_126\n      jump\t// in\n    tag_285:\n        /* \"#utility.yul\":11651:11669   */\n      0xffffffffffffffff\n        /* \"#utility.yul\":11643:11649   */\n      dup2\n        /* \"#utility.yul\":11640:11670   */\n      gt\n        /* \"#utility.yul\":11637:11693   */\n      iszero\n      tag_286\n      jumpi\n        /* \"#utility.yul\":11673:11691   */\n      tag_287\n      tag_106\n      jump\t// in\n    tag_287:\n        /* \"#utility.yul\":11637:11693   */\n    tag_286:\n        /* \"#utility.yul\":11717:11755   */\n      tag_288\n        /* \"#utility.yul\":11749:11753   */\n      dup3\n        /* \"#utility.yul\":11743:11754   */\n      sload\n        /* \"#utility.yul\":11717:11755   */\n      tag_46\n      jump\t// in\n    tag_288:\n        /* \"#utility.yul\":11802:11869   */\n      tag_289\n        /* \"#utility.yul\":11862:11868   */\n      dup3\n        /* \"#utility.yul\":11854:11860   */\n      dup3\n        /* \"#utility.yul\":11848:11852   */\n      dup6\n        /* \"#utility.yul\":11802:11869   */\n      tag_142\n      jump\t// in\n    tag_289:\n        /* \"#utility.yul\":11896:11897   */\n      0x00\n        /* \"#utility.yul\":11920:11924   */\n      0x20\n        /* \"#utility.yul\":11907:11924   */\n      swap1\n      pop\n        /* \"#utility.yul\":11952:11954   */\n      0x1f\n        /* \"#utility.yul\":11944:11950   */\n      dup4\n        /* \"#utility.yul\":11941:11955   */\n      gt\n        /* \"#utility.yul\":11969:11970   */\n      0x01\n        /* \"#utility.yul\":11964:12582   */\n      dup2\n      eq\n      tag_291\n      jumpi\n        /* \"#utility.yul\":12626:12627   */\n      0x00\n        /* \"#utility.yul\":12643:12649   */\n      dup5\n        /* \"#utility.yul\":12640:12717   */\n      iszero\n      tag_292\n      jumpi\n        /* \"#utility.yul\":12692:12701   */\n      dup3\n        /* \"#utility.yul\":12687:12690   */\n      dup8\n        /* \"#utility.yul\":12683:12702   */\n      add\n        /* \"#utility.yul\":12677:12703   */\n      mload\n        /* \"#utility.yul\":12668:12703   */\n      swap1\n      pop\n        /* \"#utility.yul\":12640:12717   */\n    tag_292:\n        /* \"#utility.yul\":12743:12810   */\n      tag_293\n        /* \"#utility.yul\":12803:12809   */\n      dup6\n        /* \"#utility.yul\":12796:12801   */\n      dup3\n        /* \"#utility.yul\":12743:12810   */\n      tag_145\n      jump\t// in\n    tag_293:\n        /* \"#utility.yul\":12737:12741   */\n      dup7\n        /* \"#utility.yul\":12730:12811   */\n      sstore\n        /* \"#utility.yul\":12599:12821   */\n      pop\n        /* \"#utility.yul\":11934:12821   */\n      jump(tag_290)\n        /* \"#utility.yul\":11964:12582   */\n    tag_291:\n        /* \"#utility.yul\":12016:12020   */\n      0x1f\n        /* \"#utility.yul\":12012:12021   */\n      not\n        /* \"#utility.yul\":12004:12010   */\n      dup5\n        /* \"#utility.yul\":12000:12022   */\n      and\n        /* \"#utility.yul\":12050:12087   */\n      tag_294\n        /* \"#utility.yul\":12082:12086   */\n      dup7\n        /* \"#utility.yul\":12050:12087   */\n      tag_131\n      jump\t// in\n    tag_294:\n        /* \"#utility.yul\":12109:12110   */\n      0x00\n        /* \"#utility.yul\":12123:12331   */\n    tag_295:\n        /* \"#utility.yul\":12137:12144   */\n      dup3\n        /* \"#utility.yul\":12134:12135   */\n      dup2\n        /* \"#utility.yul\":12131:12145   */\n      lt\n        /* \"#utility.yul\":12123:12331   */\n      iszero\n      tag_297\n      jumpi\n        /* \"#utility.yul\":12216:12225   */\n      dup5\n        /* \"#utility.yul\":12211:12214   */\n      dup10\n        /* \"#utility.yul\":12207:12226   */\n      add\n        /* \"#utility.yul\":12201:12227   */\n      mload\n        /* \"#utility.yul\":12193:12199   */\n      dup3\n        /* \"#utility.yul\":12186:12228   */\n      sstore\n        /* \"#utility.yul\":12267:12268   */\n      0x01\n        /* \"#utility.yul\":12259:12265   */\n      dup3\n        /* \"#utility.yul\":12255:12269   */\n      add\n        /* \"#utility.yul\":12245:12269   */\n      swap2\n      pop\n        /* \"#utility.yul\":12314:12316   */\n      0x20\n        /* \"#utility.yul\":12303:12312   */\n      dup6\n        /* \"#utility.yul\":12299:12317   */\n      add\n        /* \"#utility.yul\":12286:12317   */\n      swap5\n      pop\n        /* \"#utility.yul\":12160:12164   */\n      0x20\n        /* \"#utility.yul\":12157:12158   */\n      dup2\n        /* \"#utility.yul\":12153:12165   */\n      add\n        /* \"#utility.yul\":12148:12165   */\n      swap1\n      pop\n        /* \"#utility.yul\":12123:12331   */\n      jump(tag_295)\n    tag_297:\n        /* \"#utility.yul\":12359:12365   */\n      dup7\n        /* \"#utility.yul\":12350:12357   */\n      dup4\n        /* \"#utility.yul\":12347:12366   */\n      lt\n        /* \"#utility.yul\":12344:12523   */\n      iszero\n      tag_298\n      jumpi\n        /* \"#utility.yul\":12417:12426   */\n      dup5\n        /* \"#utility.yul\":12412:12415   */\n      dup10\n        /* \"#utility.yul\":12408:12427   */\n      add\n        /* \"#utility.yul\":12402:12428   */\n      mload\n        /* \"#utility.yul\":12460:12508   */\n      tag_299\n        /* \"#utility.yul\":12502:12506   */\n      0x1f\n        /* \"#utility.yul\":12494:12500   */\n      dup10\n        /* \"#utility.yul\":12490:12507   */\n      and\n        /* \"#utility.yul\":12479:12488   */\n      dup3\n        /* \"#utility.yul\":12460:12508   */\n      tag_144\n      jump\t// in\n    tag_299:\n        /* \"#utility.yul\":12452:12458   */\n      dup4\n        /* \"#utility.yul\":12445:12509   */\n      sstore\n        /* \"#utility.yul\":12367:12523   */\n      pop\n        /* \"#utility.yul\":12344:12523   */\n    tag_298:\n        /* \"#utility.yul\":12569:12570   */\n      0x01\n        /* \"#utility.yul\":12565:12566   */\n      0x02\n        /* \"#utility.yul\":12557:12563   */\n      dup9\n        /* \"#utility.yul\":12553:12567   */\n      mul\n        /* \"#utility.yul\":12549:12571   */\n      add\n        /* \"#utility.yul\":12543:12547   */\n      dup9\n        /* \"#utility.yul\":12536:12572   */\n      sstore\n        /* \"#utility.yul\":11971:12582   */\n      pop\n      pop\n      pop\n        /* \"#utility.yul\":11934:12821   */\n    tag_290:\n      pop\n        /* \"#utility.yul\":11524:12827   */\n      pop\n      pop\n      pop\n        /* \"#utility.yul\":11432:12827   */\n      pop\n      pop\n      jump\t// out\n        /* \"#utility.yul\":12833:13013   */\n    tag_36:\n        /* \"#utility.yul\":12881:12958   */\n      0x4e487b7100000000000000000000000000000000000000000000000000000000\n        /* \"#utility.yul\":12878:12879   */\n      0x00\n        /* \"#utility.yul\":12871:12959   */\n      mstore\n        /* \"#utility.yul\":12978:12982   */\n      0x32\n        /* \"#utility.yul\":12975:12976   */\n      0x04\n        /* \"#utility.yul\":12968:12983   */\n      mstore\n        /* \"#utility.yul\":13002:13006   */\n      0x24\n        /* \"#utility.yul\":12999:13000   */\n      0x00\n        /* \"#utility.yul\":12992:13007   */\n      revert\n        /* \"#utility.yul\":13019:13199   */\n    tag_146:\n        /* \"#utility.yul\":13067:13144   */\n      0x4e487b7100000000000000000000000000000000000000000000000000000000\n        /* \"#utility.yul\":13064:13065   */\n      0x00\n        /* \"#utility.yul\":13057:13145   */\n      mstore\n        /* \"#utility.yul\":13164:13168   */\n      0x11\n        /* \"#utility.yul\":13161:13162   */\n      0x04\n        /* \"#utility.yul\":13154:13169   */\n      mstore\n        /* \"#utility.yul\":13188:13192   */\n      0x24\n        /* \"#utility.yul\":13185:13186   */\n      0x00\n        /* \"#utility.yul\":13178:13193   */\n      revert\n        /* \"#utility.yul\":13205:13438   */\n    tag_65:\n        /* \"#utility.yul\":13244:13247   */\n      0x00\n        /* \"#utility.yul\":13267:13291   */\n      tag_303\n        /* \"#utility.yul\":13285:13290   */\n      dup3\n        /* \"#utility.yul\":13267:13291   */\n      tag_111\n      jump\t// in\n    tag_303:\n        /* \"#utility.yul\":13258:13291   */\n      swap2\n      pop\n        /* \"#utility.yul\":13313:13379   */\n      0xffffffffffffffffffffffffffffffffffffffffffffffffffffffffffffffff\n        /* \"#utility.yul\":13306:13311   */\n      dup3\n        /* \"#utility.yul\":13303:13380   */\n      sub\n        /* \"#utility.yul\":13300:13403   */\n      tag_304\n      jumpi\n        /* \"#utility.yul\":13383:13401   */\n      tag_305\n      tag_146\n      jump\t// in\n    tag_305:\n        /* \"#utility.yul\":13300:13403   */\n    tag_304:\n        /* \"#utility.yul\":13430:13431   */\n      0x01\n        /* \"#utility.yul\":13423:13428   */\n      dup3\n        /* \"#utility.yul\":13419:13432   */\n      add\n        /* \"#utility.yul\":13412:13432   */\n      swap1\n      pop\n        /* \"#utility.yul\":13205:13438   */\n      swap2\n      swap1\n      pop\n      jump\t// out\n        /* \"#utility.yul\":13444:13592   */\n    tag_147:\n        /* \"#utility.yul\":13546:13557   */\n      0x00\n        /* \"#utility.yul\":13583:13586   */\n      dup2\n        /* \"#utility.yul\":13568:13586   */\n      swap1\n      pop\n        /* \"#utility.yul\":13444:13592   */\n      swap3\n      swap2\n      pop\n      pop\n      jump\t// out\n        /* \"#utility.yul\":13598:13988   */\n    tag_148:\n        /* \"#utility.yul\":13704:13707   */\n      0x00\n        /* \"#utility.yul\":13732:13771   */\n      tag_308\n        /* \"#utility.yul\":13765:13770   */\n      dup3\n        /* \"#utility.yul\":13732:13771   */\n      tag_126\n      jump\t// in\n    tag_308:\n        /* \"#utility.yul\":13787:13876   */\n      tag_309\n        /* \"#utility.yul\":13869:13875   */\n      dup2\n        /* \"#utility.yul\":13864:13867   */\n      dup6\n        /* \"#utility.yul\":13787:13876   */\n      tag_147\n      jump\t// in\n    tag_309:\n        /* \"#utility.yul\":13780:13876   */\n      swap4\n      pop\n        /* \"#utility.yul\":13885:13950   */\n      tag_310\n        /* \"#utility.yul\":13943:13949   */\n      dup2\n        /* \"#utility.yul\":13938:13941   */\n      dup6\n        /* \"#utility.yul\":13931:13935   */\n      0x20\n        /* \"#utility.yul\":13924:13929   */\n      dup7\n        /* \"#utility.yul\":13920:13936   */\n      add\n        /* \"#utility.yul\":13885:13950   */\n      tag_128\n      jump\t// in\n    tag_310:\n        /* \"#utility.yul\":13975:13981   */\n      dup1\n        /* \"#utility.yul\":13970:13973   */\n      dup5\n        /* \"#utility.yul\":13966:13982   */\n      add\n        /* \"#utility.yul\":13959:13982   */\n      swap2\n      pop\n        /* \"#utility.yul\":13708:13988   */\n      pop\n        /* \"#utility.yul\":13598:13988   */\n      swap3\n      swap2\n      pop\n      pop\n      jump\t// out\n        /* \"#utility.yul\":13994:14269   */\n    tag_68:\n        /* \"#utility.yul\":14126:14129   */\n      0x00\n        /* \"#utility.yul\":14148:14243   */\n      tag_312\n        /* \"#utility.yul\":14239:14242   */\n      dup3\n        /* \"#utility.yul\":14230:14236   */\n      dup5\n        /* \"#utility.yul\":14148:14243   */\n      tag_148\n      jump\t// in\n    tag_312:\n        /* \"#utility.yul\":14141:14243   */\n      swap2\n      pop\n        /* \"#utility.yul\":14260:14263   */\n      dup2\n        /* \"#utility.yul\":14253:14263   */\n      swap1\n      pop\n        /* \"#utility.yul\":13994:14269   */\n      swap3\n      swap2\n      pop\n      pop\n      jump\t// out\n\n    auxdata: 0xa2646970667358221220f55fa8173ba81dffadbd32c26a6d3fd5ee7157b79e986919c63e3555eccf54f064736f6c63430008120033\n}\n",
				"bytecode": {
					"linkReferences": {},
					"object": "608060405234801561001057600080fd5b50611046806100206000396000f3fe6080604052600436106100345760003560e01c806328960ca0146100395780634a08e5c21461005557806354e7fc3e14610080575b600080fd5b610053600480360381019061004e9190610a43565b6100be565b005b34801561006157600080fd5b5061006a6101c4565b6040516100779190610add565b60405180910390f35b34801561008c57600080fd5b506100a760048036038101906100a29190610b56565b61064a565b6040516100b5929190610c02565b60405180910390f35b66b1a2bc2ec5000034146100d157600080fd5b6040518060600160405280848152602001838152602001828152506000803373ffffffffffffffffffffffffffffffffffffffff1673ffffffffffffffffffffffffffffffffffffffff16815260200190815260200160002060008201518160000190600461014192919061077e565b5060208201518160040190816101579190610e45565b50604082015181600501908161016d9190610e45565b509050503373ffffffffffffffffffffffffffffffffffffffff166108fc6101936101c4565b9081150290604051600060405180830381858888f193505050501580156101be573d6000803e3d6000fd5b50505050565b60006101ce6107be565b6001816000600481106101e4576101e3610f17565b5b60200201818152505060028160016004811061020357610202610f17565b5b60200201818152505060038160026004811061022257610221610f17565b5b60200201818152505060048160036004811061024157610240610f17565b5b602002018181525050600060405180606001604052808381526020016040518060400160405280600181526020017f410000000000000000000000000000000000000000000000000000000000000081525081526020016040518060400160405280600181526020017f4200000000000000000000000000000000000000000000000000000000000000815250815250905060008060003373ffffffffffffffffffffffffffffffffffffffff1673ffffffffffffffffffffffffffffffffffffffff1681526020019081526020016000206040518060600160405290816000820160048060200260405190810160405280929190826004801561035a576020028201915b815481526020019060010190808311610346575b5050505050815260200160048201805461037390610c68565b80601f016020809104026020016040519081016040528092919081815260200182805461039f90610c68565b80156103ec5780601f106103c1576101008083540402835291602001916103ec565b820191906000526020600020905b8154815290600101906020018083116103cf57829003601f168201915b5050505050815260200160058201805461040590610c68565b80601f016020809104026020016040519081016040528092919081815260200182805461043190610c68565b801561047e5780601f106104535761010080835404028352916020019161047e565b820191906000526020600020905b81548152906001019060200180831161046157829003601f168201915b5050505050815250509050600080600090505b60048110156104f957836000015181600481106104b1576104b0610f17565b5b6020020151836000015182600481106104cd576104cc610f17565b5b6020020151036104e65781806104e290610f75565b9250505b80806104f190610f75565b915050610491565b50826020015160405160200161050f9190610ff9565b60405160208183030381529060405280519060200120826020015160405160200161053a9190610ff9565b604051602081830303815290604052805190602001200361056457808061056090610f75565b9150505b82604001516040516020016105799190610ff9565b6040516020818303038152906040528051906020012082604001516040516020016105a49190610ff9565b60405160208183030381529060405280519060200120036105ce5780806105ca90610f75565b9150505b600681036105ea57670de0b6b3a7640000945050505050610647565b6005810361060657670a688906bd8b0000945050505050610647565b60048103610622576703782dace9d90000945050505050610647565b6003810361063e5767016345785d8a0000945050505050610647565b60009450505050505b90565b600060205280600052604060002060009150905080600401805461066d90610c68565b80601f016020809104026020016040519081016040528092919081815260200182805461069990610c68565b80156106e65780601f106106bb576101008083540402835291602001916106e6565b820191906000526020600020905b8154815290600101906020018083116106c957829003601f168201915b5050505050908060050180546106fb90610c68565b80601f016020809104026020016040519081016040528092919081815260200182805461072790610c68565b80156107745780601f1061074957610100808354040283529160200191610774565b820191906000526020600020905b81548152906001019060200180831161075757829003601f168201915b5050505050905082565b82600481019282156107ad579160200282015b828111156107ac578251825591602001919060010190610791565b5b5090506107ba91906107e0565b5090565b6040518060800160405280600490602082028036833780820191505090505090565b5b808211156107f95760008160009055506001016107e1565b5090565b6000604051905090565b600080fd5b600080fd5b600080fd5b6000601f19601f8301169050919050565b7f4e487b7100000000000000000000000000000000000000000000000000000000600052604160045260246000fd5b61085f82610816565b810181811067ffffffffffffffff8211171561087e5761087d610827565b5b80604052505050565b60006108916107fd565b905061089d8282610856565b919050565b600067ffffffffffffffff8211156108bd576108bc610827565b5b602082029050919050565b600080fd5b6000819050919050565b6108e0816108cd565b81146108eb57600080fd5b50565b6000813590506108fd816108d7565b92915050565b6000610916610911846108a2565b610887565b905080602084028301858111156109305761092f6108c8565b5b835b81811015610959578061094588826108ee565b845260208401935050602081019050610932565b5050509392505050565b600082601f83011261097857610977610811565b5b6004610985848285610903565b91505092915050565b600080fd5b600067ffffffffffffffff8211156109ae576109ad610827565b5b6109b782610816565b9050602081019050919050565b82818337600083830152505050565b60006109e66109e184610993565b610887565b905082815260208101848484011115610a0257610a0161098e565b5b610a0d8482856109c4565b509392505050565b600082601f830112610a2a57610a29610811565b5b8135610a3a8482602086016109d3565b91505092915050565b600080600060c08486031215610a5c57610a5b610807565b5b6000610a6a86828701610963565b935050608084013567ffffffffffffffff811115610a8b57610a8a61080c565b5b610a9786828701610a15565b92505060a084013567ffffffffffffffff811115610ab857610ab761080c565b5b610ac486828701610a15565b9150509250925092565b610ad7816108cd565b82525050565b6000602082019050610af26000830184610ace565b92915050565b600073ffffffffffffffffffffffffffffffffffffffff82169050919050565b6000610b2382610af8565b9050919050565b610b3381610b18565b8114610b3e57600080fd5b50565b600081359050610b5081610b2a565b92915050565b600060208284031215610b6c57610b6b610807565b5b6000610b7a84828501610b41565b91505092915050565b600081519050919050565b600082825260208201905092915050565b60005b83811015610bbd578082015181840152602081019050610ba2565b60008484015250505050565b6000610bd482610b83565b610bde8185610b8e565b9350610bee818560208601610b9f565b610bf781610816565b840191505092915050565b60006040820190508181036000830152610c1c8185610bc9565b90508181036020830152610c308184610bc9565b90509392505050565b7f4e487b7100000000000000000000000000000000000000000000000000000000600052602260045260246000fd5b60006002820490506001821680610c8057607f821691505b602082108103610c9357610c92610c39565b5b50919050565b60008190508160005260206000209050919050565b60006020601f8301049050919050565b600082821b905092915050565b600060088302610cfb7fffffffffffffffffffffffffffffffffffffffffffffffffffffffffffffffff82610cbe565b610d058683610cbe565b95508019841693508086168417925050509392505050565b6000819050919050565b6000610d42610d3d610d38846108cd565b610d1d565b6108cd565b9050919050565b6000819050919050565b610d5c83610d27565b610d70610d6882610d49565b848454610ccb565b825550505050565b600090565b610d85610d78565b610d90818484610d53565b505050565b5b81811015610db457610da9600082610d7d565b600181019050610d96565b5050565b601f821115610df957610dca81610c99565b610dd384610cae565b81016020851015610de2578190505b610df6610dee85610cae565b830182610d95565b50505b505050565b600082821c905092915050565b6000610e1c60001984600802610dfe565b1980831691505092915050565b6000610e358383610e0b565b9150826002028217905092915050565b610e4e82610b83565b67ffffffffffffffff811115610e6757610e66610827565b5b610e718254610c68565b610e7c828285610db8565b600060209050601f831160018114610eaf5760008415610e9d578287015190505b610ea78582610e29565b865550610f0f565b601f198416610ebd86610c99565b60005b82811015610ee557848901518255600182019150602085019450602081019050610ec0565b86831015610f025784890151610efe601f891682610e0b565b8355505b6001600288020188555050505b505050505050565b7f4e487b7100000000000000000000000000000000000000000000000000000000600052603260045260246000fd5b7f4e487b7100000000000000000000000000000000000000000000000000000000600052601160045260246000fd5b6000610f80826108cd565b91507fffffffffffffffffffffffffffffffffffffffffffffffffffffffffffffffff8203610fb257610fb1610f46565b5b600182019050919050565b600081905092915050565b6000610fd382610b83565b610fdd8185610fbd565b9350610fed818560208601610b9f565b80840191505092915050565b60006110058284610fc8565b91508190509291505056fea2646970667358221220f55fa8173ba81dffadbd32c26a6d3fd5ee7157b79e986919c63e3555eccf54f064736f6c63430008120033",
					"opcodes": "PUSH1 0x80 PUSH1 0x40 MSTORE CALLVALUE DUP1 ISZERO PUSH2 0x10 JUMPI PUSH1 0x0 DUP1 REVERT JUMPDEST POP PUSH2 0x1046 DUP1 PUSH2 0x20 PUSH1 0x0 CODECOPY PUSH1 0x0 RETURN INVALID PUSH1 0x80 PUSH1 0x40 MSTORE PUSH1 0x4 CALLDATASIZE LT PUSH2 0x34 JUMPI PUSH1 0x0 CALLDATALOAD PUSH1 0xE0 SHR DUP1 PUSH4 0x28960CA0 EQ PUSH2 0x39 JUMPI DUP1 PUSH4 0x4A08E5C2 EQ PUSH2 0x55 JUMPI DUP1 PUSH4 0x54E7FC3E EQ PUSH2 0x80 JUMPI JUMPDEST PUSH1 0x0 DUP1 REVERT JUMPDEST PUSH2 0x53 PUSH1 0x4 DUP1 CALLDATASIZE SUB DUP2 ADD SWAP1 PUSH2 0x4E SWAP2 SWAP1 PUSH2 0xA43 JUMP JUMPDEST PUSH2 0xBE JUMP JUMPDEST STOP JUMPDEST CALLVALUE DUP1 ISZERO PUSH2 0x61 JUMPI PUSH1 0x0 DUP1 REVERT JUMPDEST POP PUSH2 0x6A PUSH2 0x1C4 JUMP JUMPDEST PUSH1 0x40 MLOAD PUSH2 0x77 SWAP2 SWAP1 PUSH2 0xADD JUMP JUMPDEST PUSH1 0x40 MLOAD DUP1 SWAP2 SUB SWAP1 RETURN JUMPDEST CALLVALUE DUP1 ISZERO PUSH2 0x8C JUMPI PUSH1 0x0 DUP1 REVERT JUMPDEST POP PUSH2 0xA7 PUSH1 0x4 DUP1 CALLDATASIZE SUB DUP2 ADD SWAP1 PUSH2 0xA2 SWAP2 SWAP1 PUSH2 0xB56 JUMP JUMPDEST PUSH2 0x64A JUMP JUMPDEST PUSH1 0x40 MLOAD PUSH2 0xB5 SWAP3 SWAP2 SWAP1 PUSH2 0xC02 JUMP JUMPDEST PUSH1 0x40 MLOAD DUP1 SWAP2 SUB SWAP1 RETURN JUMPDEST PUSH7 0xB1A2BC2EC50000 CALLVALUE EQ PUSH2 0xD1 JUMPI PUSH1 0x0 DUP1 REVERT JUMPDEST PUSH1 0x40 MLOAD DUP1 PUSH1 0x60 ADD PUSH1 0x40 MSTORE DUP1 DUP5 DUP2 MSTORE PUSH1 0x20 ADD DUP4 DUP2 MSTORE PUSH1 0x20 ADD DUP3 DUP2 MSTORE POP PUSH1 0x0 DUP1 CALLER PUSH20 0xFFFFFFFFFFFFFFFFFFFFFFFFFFFFFFFFFFFFFFFF AND PUSH20 0xFFFFFFFFFFFFFFFFFFFFFFFFFFFFFFFFFFFFFFFF AND DUP2 MSTORE PUSH1 0x20 ADD SWAP1 DUP2 MSTORE PUSH1 0x20 ADD PUSH1 0x0 KECCAK256 PUSH1 0x0 DUP3 ADD MLOAD DUP2 PUSH1 0x0 ADD SWAP1 PUSH1 0x4 PUSH2 0x141 SWAP3 SWAP2 SWAP1 PUSH2 0x77E JUMP JUMPDEST POP PUSH1 0x20 DUP3 ADD MLOAD DUP2 PUSH1 0x4 ADD SWAP1 DUP2 PUSH2 0x157 SWAP2 SWAP1 PUSH2 0xE45 JUMP JUMPDEST POP PUSH1 0x40 DUP3 ADD MLOAD DUP2 PUSH1 0x5 ADD SWAP1 DUP2 PUSH2 0x16D SWAP2 SWAP1 PUSH2 0xE45 JUMP JUMPDEST POP SWAP1 POP POP CALLER PUSH20 0xFFFFFFFFFFFFFFFFFFFFFFFFFFFFFFFFFFFFFFFF AND PUSH2 0x8FC PUSH2 0x193 PUSH2 0x1C4 JUMP JUMPDEST SWAP1 DUP2 ISZERO MUL SWAP1 PUSH1 0x40 MLOAD PUSH1 0x0 PUSH1 0x40 MLOAD DUP1 DUP4 SUB DUP2 DUP6 DUP9 DUP9 CALL SWAP4 POP POP POP POP ISZERO DUP1 ISZERO PUSH2 0x1BE JUMPI RETURNDATASIZE PUSH1 0x0 DUP1 RETURNDATACOPY RETURNDATASIZE PUSH1 0x0 REVERT JUMPDEST POP POP POP POP JUMP JUMPDEST PUSH1 0x0 PUSH2 0x1CE PUSH2 0x7BE JUMP JUMPDEST PUSH1 0x1 DUP2 PUSH1 0x0 PUSH1 0x4 DUP2 LT PUSH2 0x1E4 JUMPI PUSH2 0x1E3 PUSH2 0xF17 JUMP JUMPDEST JUMPDEST PUSH1 0x20 MUL ADD DUP2 DUP2 MSTORE POP POP PUSH1 0x2 DUP2 PUSH1 0x1 PUSH1 0x4 DUP2 LT PUSH2 0x203 JUMPI PUSH2 0x202 PUSH2 0xF17 JUMP JUMPDEST JUMPDEST PUSH1 0x20 MUL ADD DUP2 DUP2 MSTORE POP POP PUSH1 0x3 DUP2 PUSH1 0x2 PUSH1 0x4 DUP2 LT PUSH2 0x222 JUMPI PUSH2 0x221 PUSH2 0xF17 JUMP JUMPDEST JUMPDEST PUSH1 0x20 MUL ADD DUP2 DUP2 MSTORE POP POP PUSH1 0x4 DUP2 PUSH1 0x3 PUSH1 0x4 DUP2 LT PUSH2 0x241 JUMPI PUSH2 0x240 PUSH2 0xF17 JUMP JUMPDEST JUMPDEST PUSH1 0x20 MUL ADD DUP2 DUP2 MSTORE POP POP PUSH1 0x0 PUSH1 0x40 MLOAD DUP1 PUSH1 0x60 ADD PUSH1 0x40 MSTORE DUP1 DUP4 DUP2 MSTORE PUSH1 0x20 ADD PUSH1 0x40 MLOAD DUP1 PUSH1 0x40 ADD PUSH1 0x40 MSTORE DUP1 PUSH1 0x1 DUP2 MSTORE PUSH1 0x20 ADD PUSH32 0x4100000000000000000000000000000000000000000000000000000000000000 DUP2 MSTORE POP DUP2 MSTORE PUSH1 0x20 ADD PUSH1 0x40 MLOAD DUP1 PUSH1 0x40 ADD PUSH1 0x40 MSTORE DUP1 PUSH1 0x1 DUP2 MSTORE PUSH1 0x20 ADD PUSH32 0x4200000000000000000000000000000000000000000000000000000000000000 DUP2 MSTORE POP DUP2 MSTORE POP SWAP1 POP PUSH1 0x0 DUP1 PUSH1 0x0 CALLER PUSH20 0xFFFFFFFFFFFFFFFFFFFFFFFFFFFFFFFFFFFFFFFF AND PUSH20 0xFFFFFFFFFFFFFFFFFFFFFFFFFFFFFFFFFFFFFFFF AND DUP2 MSTORE PUSH1 0x20 ADD SWAP1 DUP2 MSTORE PUSH1 0x20 ADD PUSH1 0x0 KECCAK256 PUSH1 0x40 MLOAD DUP1 PUSH1 0x60 ADD PUSH1 0x40 MSTORE SWAP1 DUP2 PUSH1 0x0 DUP3 ADD PUSH1 0x4 DUP1 PUSH1 0x20 MUL PUSH1 0x40 MLOAD SWAP1 DUP2 ADD PUSH1 0x40 MSTORE DUP1 SWAP3 SWAP2 SWAP1 DUP3 PUSH1 0x4 DUP1 ISZERO PUSH2 0x35A JUMPI PUSH1 0x20 MUL DUP3 ADD SWAP2 JUMPDEST DUP2 SLOAD DUP2 MSTORE PUSH1 0x20 ADD SWAP1 PUSH1 0x1 ADD SWAP1 DUP1 DUP4 GT PUSH2 0x346 JUMPI JUMPDEST POP POP POP POP POP DUP2 MSTORE PUSH1 0x20 ADD PUSH1 0x4 DUP3 ADD DUP1 SLOAD PUSH2 0x373 SWAP1 PUSH2 0xC68 JUMP JUMPDEST DUP1 PUSH1 0x1F ADD PUSH1 0x20 DUP1 SWAP2 DIV MUL PUSH1 0x20 ADD PUSH1 0x40 MLOAD SWAP1 DUP2 ADD PUSH1 0x40 MSTORE DUP1 SWAP3 SWAP2 SWAP1 DUP2 DUP2 MSTORE PUSH1 0x20 ADD DUP3 DUP1 SLOAD PUSH2 0x39F SWAP1 PUSH2 0xC68 JUMP JUMPDEST DUP1 ISZERO PUSH2 0x3EC JUMPI DUP1 PUSH1 0x1F LT PUSH2 0x3C1 JUMPI PUSH2 0x100 DUP1 DUP4 SLOAD DIV MUL DUP4 MSTORE SWAP2 PUSH1 0x20 ADD SWAP2 PUSH2 0x3EC JUMP JUMPDEST DUP3 ADD SWAP2 SWAP1 PUSH1 0x0 MSTORE PUSH1 0x20 PUSH1 0x0 KECCAK256 SWAP1 JUMPDEST DUP2 SLOAD DUP2 MSTORE SWAP1 PUSH1 0x1 ADD SWAP1 PUSH1 0x20 ADD DUP1 DUP4 GT PUSH2 0x3CF JUMPI DUP3 SWAP1 SUB PUSH1 0x1F AND DUP3 ADD SWAP2 JUMPDEST POP POP POP POP POP DUP2 MSTORE PUSH1 0x20 ADD PUSH1 0x5 DUP3 ADD DUP1 SLOAD PUSH2 0x405 SWAP1 PUSH2 0xC68 JUMP JUMPDEST DUP1 PUSH1 0x1F ADD PUSH1 0x20 DUP1 SWAP2 DIV MUL PUSH1 0x20 ADD PUSH1 0x40 MLOAD SWAP1 DUP2 ADD PUSH1 0x40 MSTORE DUP1 SWAP3 SWAP2 SWAP1 DUP2 DUP2 MSTORE PUSH1 0x20 ADD DUP3 DUP1 SLOAD PUSH2 0x431 SWAP1 PUSH2 0xC68 JUMP JUMPDEST DUP1 ISZERO PUSH2 0x47E JUMPI DUP1 PUSH1 0x1F LT PUSH2 0x453 JUMPI PUSH2 0x100 DUP1 DUP4 SLOAD DIV MUL DUP4 MSTORE SWAP2 PUSH1 0x20 ADD SWAP2 PUSH2 0x47E JUMP JUMPDEST DUP3 ADD SWAP2 SWAP1 PUSH1 0x0 MSTORE PUSH1 0x20 PUSH1 0x0 KECCAK256 SWAP1 JUMPDEST DUP2 SLOAD DUP2 MSTORE SWAP1 PUSH1 0x1 ADD SWAP1 PUSH1 0x20 ADD DUP1 DUP4 GT PUSH2 0x461 JUMPI DUP3 SWAP1 SUB PUSH1 0x1F AND DUP3 ADD SWAP2 JUMPDEST POP POP POP POP POP DUP2 MSTORE POP POP SWAP1 POP PUSH1 0x0 DUP1 PUSH1 0x0 SWAP1 POP JUMPDEST PUSH1 0x4 DUP2 LT ISZERO PUSH2 0x4F9 JUMPI DUP4 PUSH1 0x0 ADD MLOAD DUP2 PUSH1 0x4 DUP2 LT PUSH2 0x4B1 JUMPI PUSH2 0x4B0 PUSH2 0xF17 JUMP JUMPDEST JUMPDEST PUSH1 0x20 MUL ADD MLOAD DUP4 PUSH1 0x0 ADD MLOAD DUP3 PUSH1 0x4 DUP2 LT PUSH2 0x4CD JUMPI PUSH2 0x4CC PUSH2 0xF17 JUMP JUMPDEST JUMPDEST PUSH1 0x20 MUL ADD MLOAD SUB PUSH2 0x4E6 JUMPI DUP2 DUP1 PUSH2 0x4E2 SWAP1 PUSH2 0xF75 JUMP JUMPDEST SWAP3 POP POP JUMPDEST DUP1 DUP1 PUSH2 0x4F1 SWAP1 PUSH2 0xF75 JUMP JUMPDEST SWAP2 POP POP PUSH2 0x491 JUMP JUMPDEST POP DUP3 PUSH1 0x20 ADD MLOAD PUSH1 0x40 MLOAD PUSH1 0x20 ADD PUSH2 0x50F SWAP2 SWAP1 PUSH2 0xFF9 JUMP JUMPDEST PUSH1 0x40 MLOAD PUSH1 0x20 DUP2 DUP4 SUB SUB DUP2 MSTORE SWAP1 PUSH1 0x40 MSTORE DUP1 MLOAD SWAP1 PUSH1 0x20 ADD KECCAK256 DUP3 PUSH1 0x20 ADD MLOAD PUSH1 0x40 MLOAD PUSH1 0x20 ADD PUSH2 0x53A SWAP2 SWAP1 PUSH2 0xFF9 JUMP JUMPDEST PUSH1 0x40 MLOAD PUSH1 0x20 DUP2 DUP4 SUB SUB DUP2 MSTORE SWAP1 PUSH1 0x40 MSTORE DUP1 MLOAD SWAP1 PUSH1 0x20 ADD KECCAK256 SUB PUSH2 0x564 JUMPI DUP1 DUP1 PUSH2 0x560 SWAP1 PUSH2 0xF75 JUMP JUMPDEST SWAP2 POP POP JUMPDEST DUP3 PUSH1 0x40 ADD MLOAD PUSH1 0x40 MLOAD PUSH1 0x20 ADD PUSH2 0x579 SWAP2 SWAP1 PUSH2 0xFF9 JUMP JUMPDEST PUSH1 0x40 MLOAD PUSH1 0x20 DUP2 DUP4 SUB SUB DUP2 MSTORE SWAP1 PUSH1 0x40 MSTORE DUP1 MLOAD SWAP1 PUSH1 0x20 ADD KECCAK256 DUP3 PUSH1 0x40 ADD MLOAD PUSH1 0x40 MLOAD PUSH1 0x20 ADD PUSH2 0x5A4 SWAP2 SWAP1 PUSH2 0xFF9 JUMP JUMPDEST PUSH1 0x40 MLOAD PUSH1 0x20 DUP2 DUP4 SUB SUB DUP2 MSTORE SWAP1 PUSH1 0x40 MSTORE DUP1 MLOAD SWAP1 PUSH1 0x20 ADD KECCAK256 SUB PUSH2 0x5CE JUMPI DUP1 DUP1 PUSH2 0x5CA SWAP1 PUSH2 0xF75 JUMP JUMPDEST SWAP2 POP POP JUMPDEST PUSH1 0x6 DUP2 SUB PUSH2 0x5EA JUMPI PUSH8 0xDE0B6B3A7640000 SWAP5 POP POP POP POP POP PUSH2 0x647 JUMP JUMPDEST PUSH1 0x5 DUP2 SUB PUSH2 0x606 JUMPI PUSH8 0xA688906BD8B0000 SWAP5 POP POP POP POP POP PUSH2 0x647 JUMP JUMPDEST PUSH1 0x4 DUP2 SUB PUSH2 0x622 JUMPI PUSH8 0x3782DACE9D90000 SWAP5 POP POP POP POP POP PUSH2 0x647 JUMP JUMPDEST PUSH1 0x3 DUP2 SUB PUSH2 0x63E JUMPI PUSH8 0x16345785D8A0000 SWAP5 POP POP POP POP POP PUSH2 0x647 JUMP JUMPDEST PUSH1 0x0 SWAP5 POP POP POP POP POP JUMPDEST SWAP1 JUMP JUMPDEST PUSH1 0x0 PUSH1 0x20 MSTORE DUP1 PUSH1 0x0 MSTORE PUSH1 0x40 PUSH1 0x0 KECCAK256 PUSH1 0x0 SWAP2 POP SWAP1 POP DUP1 PUSH1 0x4 ADD DUP1 SLOAD PUSH2 0x66D SWAP1 PUSH2 0xC68 JUMP JUMPDEST DUP1 PUSH1 0x1F ADD PUSH1 0x20 DUP1 SWAP2 DIV MUL PUSH1 0x20 ADD PUSH1 0x40 MLOAD SWAP1 DUP2 ADD PUSH1 0x40 MSTORE DUP1 SWAP3 SWAP2 SWAP1 DUP2 DUP2 MSTORE PUSH1 0x20 ADD DUP3 DUP1 SLOAD PUSH2 0x699 SWAP1 PUSH2 0xC68 JUMP JUMPDEST DUP1 ISZERO PUSH2 0x6E6 JUMPI DUP1 PUSH1 0x1F LT PUSH2 0x6BB JUMPI PUSH2 0x100 DUP1 DUP4 SLOAD DIV MUL DUP4 MSTORE SWAP2 PUSH1 0x20 ADD SWAP2 PUSH2 0x6E6 JUMP JUMPDEST DUP3 ADD SWAP2 SWAP1 PUSH1 0x0 MSTORE PUSH1 0x20 PUSH1 0x0 KECCAK256 SWAP1 JUMPDEST DUP2 SLOAD DUP2 MSTORE SWAP1 PUSH1 0x1 ADD SWAP1 PUSH1 0x20 ADD DUP1 DUP4 GT PUSH2 0x6C9 JUMPI DUP3 SWAP1 SUB PUSH1 0x1F AND DUP3 ADD SWAP2 JUMPDEST POP POP POP POP POP SWAP1 DUP1 PUSH1 0x5 ADD DUP1 SLOAD PUSH2 0x6FB SWAP1 PUSH2 0xC68 JUMP JUMPDEST DUP1 PUSH1 0x1F ADD PUSH1 0x20 DUP1 SWAP2 DIV MUL PUSH1 0x20 ADD PUSH1 0x40 MLOAD SWAP1 DUP2 ADD PUSH1 0x40 MSTORE DUP1 SWAP3 SWAP2 SWAP1 DUP2 DUP2 MSTORE PUSH1 0x20 ADD DUP3 DUP1 SLOAD PUSH2 0x727 SWAP1 PUSH2 0xC68 JUMP JUMPDEST DUP1 ISZERO PUSH2 0x774 JUMPI DUP1 PUSH1 0x1F LT PUSH2 0x749 JUMPI PUSH2 0x100 DUP1 DUP4 SLOAD DIV MUL DUP4 MSTORE SWAP2 PUSH1 0x20 ADD SWAP2 PUSH2 0x774 JUMP JUMPDEST DUP3 ADD SWAP2 SWAP1 PUSH1 0x0 MSTORE PUSH1 0x20 PUSH1 0x0 KECCAK256 SWAP1 JUMPDEST DUP2 SLOAD DUP2 MSTORE SWAP1 PUSH1 0x1 ADD SWAP1 PUSH1 0x20 ADD DUP1 DUP4 GT PUSH2 0x757 JUMPI DUP3 SWAP1 SUB PUSH1 0x1F AND DUP3 ADD SWAP2 JUMPDEST POP POP POP POP POP SWAP1 POP DUP3 JUMP JUMPDEST DUP3 PUSH1 0x4 DUP2 ADD SWAP3 DUP3 ISZERO PUSH2 0x7AD JUMPI SWAP2 PUSH1 0x20 MUL DUP3 ADD JUMPDEST DUP3 DUP2 GT ISZERO PUSH2 0x7AC JUMPI DUP3 MLOAD DUP3 SSTORE SWAP2 PUSH1 0x20 ADD SWAP2 SWAP1 PUSH1 0x1 ADD SWAP1 PUSH2 0x791 JUMP JUMPDEST JUMPDEST POP SWAP1 POP PUSH2 0x7BA SWAP2 SWAP1 PUSH2 0x7E0 JUMP JUMPDEST POP SWAP1 JUMP JUMPDEST PUSH1 0x40 MLOAD DUP1 PUSH1 0x80 ADD PUSH1 0x40 MSTORE DUP1 PUSH1 0x4 SWAP1 PUSH1 0x20 DUP3 MUL DUP1 CALLDATASIZE DUP4 CALLDATACOPY DUP1 DUP3 ADD SWAP2 POP POP SWAP1 POP POP SWAP1 JUMP JUMPDEST JUMPDEST DUP1 DUP3 GT ISZERO PUSH2 0x7F9 JUMPI PUSH1 0x0 DUP2 PUSH1 0x0 SWAP1 SSTORE POP PUSH1 0x1 ADD PUSH2 0x7E1 JUMP JUMPDEST POP SWAP1 JUMP JUMPDEST PUSH1 0x0 PUSH1 0x40 MLOAD SWAP1 POP SWAP1 JUMP JUMPDEST PUSH1 0x0 DUP1 REVERT JUMPDEST PUSH1 0x0 DUP1 REVERT JUMPDEST PUSH1 0x0 DUP1 REVERT JUMPDEST PUSH1 0x0 PUSH1 0x1F NOT PUSH1 0x1F DUP4 ADD AND SWAP1 POP SWAP2 SWAP1 POP JUMP JUMPDEST PUSH32 0x4E487B7100000000000000000000000000000000000000000000000000000000 PUSH1 0x0 MSTORE PUSH1 0x41 PUSH1 0x4 MSTORE PUSH1 0x24 PUSH1 0x0 REVERT JUMPDEST PUSH2 0x85F DUP3 PUSH2 0x816 JUMP JUMPDEST DUP2 ADD DUP2 DUP2 LT PUSH8 0xFFFFFFFFFFFFFFFF DUP3 GT OR ISZERO PUSH2 0x87E JUMPI PUSH2 0x87D PUSH2 0x827 JUMP JUMPDEST JUMPDEST DUP1 PUSH1 0x40 MSTORE POP POP POP JUMP JUMPDEST PUSH1 0x0 PUSH2 0x891 PUSH2 0x7FD JUMP JUMPDEST SWAP1 POP PUSH2 0x89D DUP3 DUP3 PUSH2 0x856 JUMP JUMPDEST SWAP2 SWAP1 POP JUMP JUMPDEST PUSH1 0x0 PUSH8 0xFFFFFFFFFFFFFFFF DUP3 GT ISZERO PUSH2 0x8BD JUMPI PUSH2 0x8BC PUSH2 0x827 JUMP JUMPDEST JUMPDEST PUSH1 0x20 DUP3 MUL SWAP1 POP SWAP2 SWAP1 POP JUMP JUMPDEST PUSH1 0x0 DUP1 REVERT JUMPDEST PUSH1 0x0 DUP2 SWAP1 POP SWAP2 SWAP1 POP JUMP JUMPDEST PUSH2 0x8E0 DUP2 PUSH2 0x8CD JUMP JUMPDEST DUP2 EQ PUSH2 0x8EB JUMPI PUSH1 0x0 DUP1 REVERT JUMPDEST POP JUMP JUMPDEST PUSH1 0x0 DUP2 CALLDATALOAD SWAP1 POP PUSH2 0x8FD DUP2 PUSH2 0x8D7 JUMP JUMPDEST SWAP3 SWAP2 POP POP JUMP JUMPDEST PUSH1 0x0 PUSH2 0x916 PUSH2 0x911 DUP5 PUSH2 0x8A2 JUMP JUMPDEST PUSH2 0x887 JUMP JUMPDEST SWAP1 POP DUP1 PUSH1 0x20 DUP5 MUL DUP4 ADD DUP6 DUP2 GT ISZERO PUSH2 0x930 JUMPI PUSH2 0x92F PUSH2 0x8C8 JUMP JUMPDEST JUMPDEST DUP4 JUMPDEST DUP2 DUP2 LT ISZERO PUSH2 0x959 JUMPI DUP1 PUSH2 0x945 DUP9 DUP3 PUSH2 0x8EE JUMP JUMPDEST DUP5 MSTORE PUSH1 0x20 DUP5 ADD SWAP4 POP POP PUSH1 0x20 DUP2 ADD SWAP1 POP PUSH2 0x932 JUMP JUMPDEST POP POP POP SWAP4 SWAP3 POP POP POP JUMP JUMPDEST PUSH1 0x0 DUP3 PUSH1 0x1F DUP4 ADD SLT PUSH2 0x978 JUMPI PUSH2 0x977 PUSH2 0x811 JUMP JUMPDEST JUMPDEST PUSH1 0x4 PUSH2 0x985 DUP5 DUP3 DUP6 PUSH2 0x903 JUMP JUMPDEST SWAP2 POP POP SWAP3 SWAP2 POP POP JUMP JUMPDEST PUSH1 0x0 DUP1 REVERT JUMPDEST PUSH1 0x0 PUSH8 0xFFFFFFFFFFFFFFFF DUP3 GT ISZERO PUSH2 0x9AE JUMPI PUSH2 0x9AD PUSH2 0x827 JUMP JUMPDEST JUMPDEST PUSH2 0x9B7 DUP3 PUSH2 0x816 JUMP JUMPDEST SWAP1 POP PUSH1 0x20 DUP2 ADD SWAP1 POP SWAP2 SWAP1 POP JUMP JUMPDEST DUP3 DUP2 DUP4 CALLDATACOPY PUSH1 0x0 DUP4 DUP4 ADD MSTORE POP POP POP JUMP JUMPDEST PUSH1 0x0 PUSH2 0x9E6 PUSH2 0x9E1 DUP5 PUSH2 0x993 JUMP JUMPDEST PUSH2 0x887 JUMP JUMPDEST SWAP1 POP DUP3 DUP2 MSTORE PUSH1 0x20 DUP2 ADD DUP5 DUP5 DUP5 ADD GT ISZERO PUSH2 0xA02 JUMPI PUSH2 0xA01 PUSH2 0x98E JUMP JUMPDEST JUMPDEST PUSH2 0xA0D DUP5 DUP3 DUP6 PUSH2 0x9C4 JUMP JUMPDEST POP SWAP4 SWAP3 POP POP POP JUMP JUMPDEST PUSH1 0x0 DUP3 PUSH1 0x1F DUP4 ADD SLT PUSH2 0xA2A JUMPI PUSH2 0xA29 PUSH2 0x811 JUMP JUMPDEST JUMPDEST DUP2 CALLDATALOAD PUSH2 0xA3A DUP5 DUP3 PUSH1 0x20 DUP7 ADD PUSH2 0x9D3 JUMP JUMPDEST SWAP2 POP POP SWAP3 SWAP2 POP POP JUMP JUMPDEST PUSH1 0x0 DUP1 PUSH1 0x0 PUSH1 0xC0 DUP5 DUP7 SUB SLT ISZERO PUSH2 0xA5C JUMPI PUSH2 0xA5B PUSH2 0x807 JUMP JUMPDEST JUMPDEST PUSH1 0x0 PUSH2 0xA6A DUP7 DUP3 DUP8 ADD PUSH2 0x963 JUMP JUMPDEST SWAP4 POP POP PUSH1 0x80 DUP5 ADD CALLDATALOAD PUSH8 0xFFFFFFFFFFFFFFFF DUP2 GT ISZERO PUSH2 0xA8B JUMPI PUSH2 0xA8A PUSH2 0x80C JUMP JUMPDEST JUMPDEST PUSH2 0xA97 DUP7 DUP3 DUP8 ADD PUSH2 0xA15 JUMP JUMPDEST SWAP3 POP POP PUSH1 0xA0 DUP5 ADD CALLDATALOAD PUSH8 0xFFFFFFFFFFFFFFFF DUP2 GT ISZERO PUSH2 0xAB8 JUMPI PUSH2 0xAB7 PUSH2 0x80C JUMP JUMPDEST JUMPDEST PUSH2 0xAC4 DUP7 DUP3 DUP8 ADD PUSH2 0xA15 JUMP JUMPDEST SWAP2 POP POP SWAP3 POP SWAP3 POP SWAP3 JUMP JUMPDEST PUSH2 0xAD7 DUP2 PUSH2 0x8CD JUMP JUMPDEST DUP3 MSTORE POP POP JUMP JUMPDEST PUSH1 0x0 PUSH1 0x20 DUP3 ADD SWAP1 POP PUSH2 0xAF2 PUSH1 0x0 DUP4 ADD DUP5 PUSH2 0xACE JUMP JUMPDEST SWAP3 SWAP2 POP POP JUMP JUMPDEST PUSH1 0x0 PUSH20 0xFFFFFFFFFFFFFFFFFFFFFFFFFFFFFFFFFFFFFFFF DUP3 AND SWAP1 POP SWAP2 SWAP1 POP JUMP JUMPDEST PUSH1 0x0 PUSH2 0xB23 DUP3 PUSH2 0xAF8 JUMP JUMPDEST SWAP1 POP SWAP2 SWAP1 POP JUMP JUMPDEST PUSH2 0xB33 DUP2 PUSH2 0xB18 JUMP JUMPDEST DUP2 EQ PUSH2 0xB3E JUMPI PUSH1 0x0 DUP1 REVERT JUMPDEST POP JUMP JUMPDEST PUSH1 0x0 DUP2 CALLDATALOAD SWAP1 POP PUSH2 0xB50 DUP2 PUSH2 0xB2A JUMP JUMPDEST SWAP3 SWAP2 POP POP JUMP JUMPDEST PUSH1 0x0 PUSH1 0x20 DUP3 DUP5 SUB SLT ISZERO PUSH2 0xB6C JUMPI PUSH2 0xB6B PUSH2 0x807 JUMP JUMPDEST JUMPDEST PUSH1 0x0 PUSH2 0xB7A DUP5 DUP3 DUP6 ADD PUSH2 0xB41 JUMP JUMPDEST SWAP2 POP POP SWAP3 SWAP2 POP POP JUMP JUMPDEST PUSH1 0x0 DUP2 MLOAD SWAP1 POP SWAP2 SWAP1 POP JUMP JUMPDEST PUSH1 0x0 DUP3 DUP3 MSTORE PUSH1 0x20 DUP3 ADD SWAP1 POP SWAP3 SWAP2 POP POP JUMP JUMPDEST PUSH1 0x0 JUMPDEST DUP4 DUP2 LT ISZERO PUSH2 0xBBD JUMPI DUP1 DUP3 ADD MLOAD DUP2 DUP5 ADD MSTORE PUSH1 0x20 DUP2 ADD SWAP1 POP PUSH2 0xBA2 JUMP JUMPDEST PUSH1 0x0 DUP5 DUP5 ADD MSTORE POP POP POP POP JUMP JUMPDEST PUSH1 0x0 PUSH2 0xBD4 DUP3 PUSH2 0xB83 JUMP JUMPDEST PUSH2 0xBDE DUP2 DUP6 PUSH2 0xB8E JUMP JUMPDEST SWAP4 POP PUSH2 0xBEE DUP2 DUP6 PUSH1 0x20 DUP7 ADD PUSH2 0xB9F JUMP JUMPDEST PUSH2 0xBF7 DUP2 PUSH2 0x816 JUMP JUMPDEST DUP5 ADD SWAP2 POP POP SWAP3 SWAP2 POP POP JUMP JUMPDEST PUSH1 0x0 PUSH1 0x40 DUP3 ADD SWAP1 POP DUP2 DUP2 SUB PUSH1 0x0 DUP4 ADD MSTORE PUSH2 0xC1C DUP2 DUP6 PUSH2 0xBC9 JUMP JUMPDEST SWAP1 POP DUP2 DUP2 SUB PUSH1 0x20 DUP4 ADD MSTORE PUSH2 0xC30 DUP2 DUP5 PUSH2 0xBC9 JUMP JUMPDEST SWAP1 POP SWAP4 SWAP3 POP POP POP JUMP JUMPDEST PUSH32 0x4E487B7100000000000000000000000000000000000000000000000000000000 PUSH1 0x0 MSTORE PUSH1 0x22 PUSH1 0x4 MSTORE PUSH1 0x24 PUSH1 0x0 REVERT JUMPDEST PUSH1 0x0 PUSH1 0x2 DUP3 DIV SWAP1 POP PUSH1 0x1 DUP3 AND DUP1 PUSH2 0xC80 JUMPI PUSH1 0x7F DUP3 AND SWAP2 POP JUMPDEST PUSH1 0x20 DUP3 LT DUP2 SUB PUSH2 0xC93 JUMPI PUSH2 0xC92 PUSH2 0xC39 JUMP JUMPDEST JUMPDEST POP SWAP2 SWAP1 POP JUMP JUMPDEST PUSH1 0x0 DUP2 SWAP1 POP DUP2 PUSH1 0x0 MSTORE PUSH1 0x20 PUSH1 0x0 KECCAK256 SWAP1 POP SWAP2 SWAP1 POP JUMP JUMPDEST PUSH1 0x0 PUSH1 0x20 PUSH1 0x1F DUP4 ADD DIV SWAP1 POP SWAP2 SWAP1 POP JUMP JUMPDEST PUSH1 0x0 DUP3 DUP3 SHL SWAP1 POP SWAP3 SWAP2 POP POP JUMP JUMPDEST PUSH1 0x0 PUSH1 0x8 DUP4 MUL PUSH2 0xCFB PUSH32 0xFFFFFFFFFFFFFFFFFFFFFFFFFFFFFFFFFFFFFFFFFFFFFFFFFFFFFFFFFFFFFFFF DUP3 PUSH2 0xCBE JUMP JUMPDEST PUSH2 0xD05 DUP7 DUP4 PUSH2 0xCBE JUMP JUMPDEST SWAP6 POP DUP1 NOT DUP5 AND SWAP4 POP DUP1 DUP7 AND DUP5 OR SWAP3 POP POP POP SWAP4 SWAP3 POP POP POP JUMP JUMPDEST PUSH1 0x0 DUP2 SWAP1 POP SWAP2 SWAP1 POP JUMP JUMPDEST PUSH1 0x0 PUSH2 0xD42 PUSH2 0xD3D PUSH2 0xD38 DUP5 PUSH2 0x8CD JUMP JUMPDEST PUSH2 0xD1D JUMP JUMPDEST PUSH2 0x8CD JUMP JUMPDEST SWAP1 POP SWAP2 SWAP1 POP JUMP JUMPDEST PUSH1 0x0 DUP2 SWAP1 POP SWAP2 SWAP1 POP JUMP JUMPDEST PUSH2 0xD5C DUP4 PUSH2 0xD27 JUMP JUMPDEST PUSH2 0xD70 PUSH2 0xD68 DUP3 PUSH2 0xD49 JUMP JUMPDEST DUP5 DUP5 SLOAD PUSH2 0xCCB JUMP JUMPDEST DUP3 SSTORE POP POP POP POP JUMP JUMPDEST PUSH1 0x0 SWAP1 JUMP JUMPDEST PUSH2 0xD85 PUSH2 0xD78 JUMP JUMPDEST PUSH2 0xD90 DUP2 DUP5 DUP5 PUSH2 0xD53 JUMP JUMPDEST POP POP POP JUMP JUMPDEST JUMPDEST DUP2 DUP2 LT ISZERO PUSH2 0xDB4 JUMPI PUSH2 0xDA9 PUSH1 0x0 DUP3 PUSH2 0xD7D JUMP JUMPDEST PUSH1 0x1 DUP2 ADD SWAP1 POP PUSH2 0xD96 JUMP JUMPDEST POP POP JUMP JUMPDEST PUSH1 0x1F DUP3 GT ISZERO PUSH2 0xDF9 JUMPI PUSH2 0xDCA DUP2 PUSH2 0xC99 JUMP JUMPDEST PUSH2 0xDD3 DUP5 PUSH2 0xCAE JUMP JUMPDEST DUP2 ADD PUSH1 0x20 DUP6 LT ISZERO PUSH2 0xDE2 JUMPI DUP2 SWAP1 POP JUMPDEST PUSH2 0xDF6 PUSH2 0xDEE DUP6 PUSH2 0xCAE JUMP JUMPDEST DUP4 ADD DUP3 PUSH2 0xD95 JUMP JUMPDEST POP POP JUMPDEST POP POP POP JUMP JUMPDEST PUSH1 0x0 DUP3 DUP3 SHR SWAP1 POP SWAP3 SWAP2 POP POP JUMP JUMPDEST PUSH1 0x0 PUSH2 0xE1C PUSH1 0x0 NOT DUP5 PUSH1 0x8 MUL PUSH2 0xDFE JUMP JUMPDEST NOT DUP1 DUP4 AND SWAP2 POP POP SWAP3 SWAP2 POP POP JUMP JUMPDEST PUSH1 0x0 PUSH2 0xE35 DUP4 DUP4 PUSH2 0xE0B JUMP JUMPDEST SWAP2 POP DUP3 PUSH1 0x2 MUL DUP3 OR SWAP1 POP SWAP3 SWAP2 POP POP JUMP JUMPDEST PUSH2 0xE4E DUP3 PUSH2 0xB83 JUMP JUMPDEST PUSH8 0xFFFFFFFFFFFFFFFF DUP2 GT ISZERO PUSH2 0xE67 JUMPI PUSH2 0xE66 PUSH2 0x827 JUMP JUMPDEST JUMPDEST PUSH2 0xE71 DUP3 SLOAD PUSH2 0xC68 JUMP JUMPDEST PUSH2 0xE7C DUP3 DUP3 DUP6 PUSH2 0xDB8 JUMP JUMPDEST PUSH1 0x0 PUSH1 0x20 SWAP1 POP PUSH1 0x1F DUP4 GT PUSH1 0x1 DUP2 EQ PUSH2 0xEAF JUMPI PUSH1 0x0 DUP5 ISZERO PUSH2 0xE9D JUMPI DUP3 DUP8 ADD MLOAD SWAP1 POP JUMPDEST PUSH2 0xEA7 DUP6 DUP3 PUSH2 0xE29 JUMP JUMPDEST DUP7 SSTORE POP PUSH2 0xF0F JUMP JUMPDEST PUSH1 0x1F NOT DUP5 AND PUSH2 0xEBD DUP7 PUSH2 0xC99 JUMP JUMPDEST PUSH1 0x0 JUMPDEST DUP3 DUP2 LT ISZERO PUSH2 0xEE5 JUMPI DUP5 DUP10 ADD MLOAD DUP3 SSTORE PUSH1 0x1 DUP3 ADD SWAP2 POP PUSH1 0x20 DUP6 ADD SWAP5 POP PUSH1 0x20 DUP2 ADD SWAP1 POP PUSH2 0xEC0 JUMP JUMPDEST DUP7 DUP4 LT ISZERO PUSH2 0xF02 JUMPI DUP5 DUP10 ADD MLOAD PUSH2 0xEFE PUSH1 0x1F DUP10 AND DUP3 PUSH2 0xE0B JUMP JUMPDEST DUP4 SSTORE POP JUMPDEST PUSH1 0x1 PUSH1 0x2 DUP9 MUL ADD DUP9 SSTORE POP POP POP JUMPDEST POP POP POP POP POP POP JUMP JUMPDEST PUSH32 0x4E487B7100000000000000000000000000000000000000000000000000000000 PUSH1 0x0 MSTORE PUSH1 0x32 PUSH1 0x4 MSTORE PUSH1 0x24 PUSH1 0x0 REVERT JUMPDEST PUSH32 0x4E487B7100000000000000000000000000000000000000000000000000000000 PUSH1 0x0 MSTORE PUSH1 0x11 PUSH1 0x4 MSTORE PUSH1 0x24 PUSH1 0x0 REVERT JUMPDEST PUSH1 0x0 PUSH2 0xF80 DUP3 PUSH2 0x8CD JUMP JUMPDEST SWAP2 POP PUSH32 0xFFFFFFFFFFFFFFFFFFFFFFFFFFFFFFFFFFFFFFFFFFFFFFFFFFFFFFFFFFFFFFFF DUP3 SUB PUSH2 0xFB2 JUMPI PUSH2 0xFB1 PUSH2 0xF46 JUMP JUMPDEST JUMPDEST PUSH1 0x1 DUP3 ADD SWAP1 POP SWAP2 SWAP1 POP JUMP JUMPDEST PUSH1 0x0 DUP2 SWAP1 POP SWAP3 SWAP2 POP POP JUMP JUMPDEST PUSH1 0x0 PUSH2 0xFD3 DUP3 PUSH2 0xB83 JUMP JUMPDEST PUSH2 0xFDD DUP2 DUP6 PUSH2 0xFBD JUMP JUMPDEST SWAP4 POP PUSH2 0xFED DUP2 DUP6 PUSH1 0x20 DUP7 ADD PUSH2 0xB9F JUMP JUMPDEST DUP1 DUP5 ADD SWAP2 POP POP SWAP3 SWAP2 POP POP JUMP JUMPDEST PUSH1 0x0 PUSH2 0x1005 DUP3 DUP5 PUSH2 0xFC8 JUMP JUMPDEST SWAP2 POP DUP2 SWAP1 POP SWAP3 SWAP2 POP POP JUMP INVALID LOG2 PUSH5 0x6970667358 0x22 SLT KECCAK256 CREATE2 0x5F 0xA8 OR EXTCODESIZE 0xA8 SAR SELFDESTRUCT 0xAD 0xBD ORIGIN 0xC2 PUSH11 0x6D3FD5EE7157B79E986919 0xC6 RETURNDATACOPY CALLDATALOAD SSTORE 0xEC 0xCF SLOAD CREATE PUSH5 0x736F6C6343 STOP ADDMOD SLT STOP CALLER "
				},
				"gasEstimates": {
					"creation": {
						"codeDepositCost": "833200",
						"executionCost": "870",
						"totalCost": "834070"
					},
					"external": {
						"JoinGame(uint256[4],string,string)": "infinite",
						"checkNum()": "infinite",
						"selectNum(address)": "infinite"
					}
				},
				"methodIdentifiers": {
					"JoinGame(uint256[4],string,string)": "28960ca0",
					"checkNum()": "4a08e5c2",
					"selectNum(address)": "54e7fc3e"
				}
			},
			"storageLayout": {
				"storage": [
					{
						"astId": 1056,
						"contract": "contracts/0523/Quiz.sol:Quiz",
						"label": "selectNum",
						"offset": 0,
						"slot": "0",
						"type": "t_mapping(t_address,t_struct(Numbers)1051_storage)"
					}
				],
				"types": {
					"t_address": {
						"encoding": "inplace",
						"label": "address",
						"numberOfBytes": "20"
					},
					"t_array(t_uint256)4_storage": {
						"base": "t_uint256",
						"encoding": "inplace",
						"label": "uint256[4]",
						"numberOfBytes": "128"
					},
					"t_mapping(t_address,t_struct(Numbers)1051_storage)": {
						"encoding": "mapping",
						"key": "t_address",
						"label": "mapping(address => struct Quiz.Numbers)",
						"numberOfBytes": "32",
						"value": "t_struct(Numbers)1051_storage"
					},
					"t_string_storage": {
						"encoding": "bytes",
						"label": "string",
						"numberOfBytes": "32"
					},
					"t_struct(Numbers)1051_storage": {
						"encoding": "inplace",
						"label": "struct Quiz.Numbers",
						"members": [
							{
								"astId": 1046,
								"contract": "contracts/0523/Quiz.sol:Quiz",
								"label": "digits",
								"offset": 0,
								"slot": "0",
								"type": "t_array(t_uint256)4_storage"
							},
							{
								"astId": 1048,
								"contract": "contracts/0523/Quiz.sol:Quiz",
								"label": "letter1",
								"offset": 0,
								"slot": "4",
								"type": "t_string_storage"
							},
							{
								"astId": 1050,
								"contract": "contracts/0523/Quiz.sol:Quiz",
								"label": "letter2",
								"offset": 0,
								"slot": "5",
								"type": "t_string_storage"
							}
						],
						"numberOfBytes": "192"
					},
					"t_uint256": {
						"encoding": "inplace",
						"label": "uint256",
						"numberOfBytes": "32"
					}
				}
			},
			"userdoc": {
				"kind": "user",
				"methods": {},
				"version": 1
			}
		}
	}
}