{
	"contracts/0523/Quiz.sol": {
		"Q8_3": {
			"abi": [
				{
					"inputs": [
						{
							"internalType": "bytes1",
							"name": "a",
							"type": "bytes1"
						},
						{
							"internalType": "bytes1",
							"name": "b",
							"type": "bytes1"
						}
					],
					"name": "bytesAverage",
					"outputs": [
						{
							"internalType": "bytes1",
							"name": "",
							"type": "bytes1"
						}
					],
					"stateMutability": "pure",
					"type": "function"
				},
				{
					"inputs": [
						{
							"internalType": "bytes1[]",
							"name": "numbers",
							"type": "bytes1[]"
						}
					],
					"name": "getMedian_Number",
					"outputs": [
						{
							"internalType": "bytes1",
							"name": "",
							"type": "bytes1"
						}
					],
					"stateMutability": "pure",
					"type": "function"
				},
				{
					"inputs": [
						{
							"internalType": "string[]",
							"name": "_myLetter",
							"type": "string[]"
						}
					],
					"name": "isSameLetter",
					"outputs": [
						{
							"internalType": "uint256",
							"name": "",
							"type": "uint256"
						}
					],
					"stateMutability": "view",
					"type": "function"
				},
				{
					"inputs": [
						{
							"internalType": "string",
							"name": "_a",
							"type": "string"
						},
						{
							"internalType": "string",
							"name": "_b",
							"type": "string"
						}
					],
					"name": "letterCompare",
					"outputs": [
						{
							"internalType": "bool",
							"name": "",
							"type": "bool"
						}
					],
					"stateMutability": "pure",
					"type": "function"
				},
				{
					"inputs": [
						{
							"internalType": "string[]",
							"name": "_letters",
							"type": "string[]"
						}
					],
					"name": "setLotto",
					"outputs": [],
					"stateMutability": "payable",
					"type": "function"
				},
				{
					"inputs": [
						{
							"internalType": "string[]",
							"name": "_set1",
							"type": "string[]"
						},
						{
							"internalType": "string[]",
							"name": "_set2",
							"type": "string[]"
						},
						{
							"internalType": "string[]",
							"name": "_set3",
							"type": "string[]"
						},
						{
							"internalType": "string[]",
							"name": "_set4",
							"type": "string[]"
						},
						{
							"internalType": "string[]",
							"name": "_set5",
							"type": "string[]"
						},
						{
							"internalType": "string[]",
							"name": "_set6",
							"type": "string[]"
						}
					],
					"name": "setLotto",
					"outputs": [],
					"stateMutability": "nonpayable",
					"type": "function"
				},
				{
					"inputs": [
						{
							"internalType": "string[]",
							"name": "_a",
							"type": "string[]"
						}
					],
					"name": "stringArrayToBytes1Array",
					"outputs": [
						{
							"internalType": "bytes1[]",
							"name": "",
							"type": "bytes1[]"
						}
					],
					"stateMutability": "pure",
					"type": "function"
				}
			],
			"devdoc": {
				"kind": "dev",
				"methods": {},
				"version": 1
			},
			"evm": {
				"assembly": "    /* \"contracts/0523/Quiz.sol\":2788:5881  contract Q8_3 {... */\n  mstore(0x40, 0x80)\n  callvalue\n  dup1\n  iszero\n  tag_1\n  jumpi\n  0x00\n  dup1\n  revert\ntag_1:\n  pop\n  dataSize(sub_0)\n  dup1\n  dataOffset(sub_0)\n  0x00\n  codecopy\n  0x00\n  return\nstop\n\nsub_0: assembly {\n        /* \"contracts/0523/Quiz.sol\":2788:5881  contract Q8_3 {... */\n      mstore(0x40, 0x80)\n      jumpi(tag_1, lt(calldatasize, 0x04))\n      shr(0xe0, calldataload(0x00))\n      dup1\n      0x961d7d5a\n      gt\n      tag_9\n      jumpi\n      dup1\n      0x961d7d5a\n      eq\n      tag_5\n      jumpi\n      dup1\n      0xa074dc3d\n      eq\n      tag_6\n      jumpi\n      dup1\n      0xbd41a34f\n      eq\n      tag_7\n      jumpi\n      dup1\n      0xd563b7f2\n      eq\n      tag_8\n      jumpi\n      jump(tag_1)\n    tag_9:\n      dup1\n      0x68c47d19\n      eq\n      tag_2\n      jumpi\n      dup1\n      0x699bf15f\n      eq\n      tag_3\n      jumpi\n      dup1\n      0x8faa222a\n      eq\n      tag_4\n      jumpi\n    tag_1:\n      0x00\n      dup1\n      revert\n        /* \"contracts/0523/Quiz.sol\":5391:5691  function isSameLetter(string[] calldata _myLetter) public view returns(uint) {... */\n    tag_2:\n      callvalue\n      dup1\n      iszero\n      tag_10\n      jumpi\n      0x00\n      dup1\n      revert\n    tag_10:\n      pop\n      tag_11\n      0x04\n      dup1\n      calldatasize\n      sub\n      dup2\n      add\n      swap1\n      tag_12\n      swap2\n      swap1\n      tag_13\n      jump\t// in\n    tag_12:\n      tag_14\n      jump\t// in\n    tag_11:\n      mload(0x40)\n      tag_15\n      swap2\n      swap1\n      tag_16\n      jump\t// in\n    tag_15:\n      mload(0x40)\n      dup1\n      swap2\n      sub\n      swap1\n      return\n        /* \"contracts/0523/Quiz.sol\":4782:4960  function setLotto(string[] calldata _letters) public payable {... */\n    tag_3:\n      tag_17\n      0x04\n      dup1\n      calldatasize\n      sub\n      dup2\n      add\n      swap1\n      tag_18\n      swap2\n      swap1\n      tag_13\n      jump\t// in\n    tag_18:\n      tag_19\n      jump\t// in\n    tag_17:\n      stop\n        /* \"contracts/0523/Quiz.sol\":3986:4113  function bytesAverage(bytes1 a, bytes1 b) public pure returns(bytes1) {... */\n    tag_4:\n      callvalue\n      dup1\n      iszero\n      tag_20\n      jumpi\n      0x00\n      dup1\n      revert\n    tag_20:\n      pop\n      tag_21\n      0x04\n      dup1\n      calldatasize\n      sub\n      dup2\n      add\n      swap1\n      tag_22\n      swap2\n      swap1\n      tag_23\n      jump\t// in\n    tag_22:\n      tag_24\n      jump\t// in\n    tag_21:\n      mload(0x40)\n      tag_25\n      swap2\n      swap1\n      tag_26\n      jump\t// in\n    tag_25:\n      mload(0x40)\n      dup1\n      swap2\n      sub\n      swap1\n      return\n        /* \"contracts/0523/Quiz.sol\":2877:3678  function setLotto(string[] memory _set1, string[] memory _set2, string[] memory _set3, string[] memory _set4, string[] memory _set5, string[] memory _set6) public {... */\n    tag_5:\n      callvalue\n      dup1\n      iszero\n      tag_27\n      jumpi\n      0x00\n      dup1\n      revert\n    tag_27:\n      pop\n      tag_28\n      0x04\n      dup1\n      calldatasize\n      sub\n      dup2\n      add\n      swap1\n      tag_29\n      swap2\n      swap1\n      tag_30\n      jump\t// in\n    tag_29:\n      tag_31\n      jump\t// in\n    tag_28:\n      stop\n        /* \"contracts/0523/Quiz.sol\":5699:5878  function letterCompare(string memory _a, string calldata _b) public pure returns(bool) {... */\n    tag_6:\n      callvalue\n      dup1\n      iszero\n      tag_32\n      jumpi\n      0x00\n      dup1\n      revert\n    tag_32:\n      pop\n      tag_33\n      0x04\n      dup1\n      calldatasize\n      sub\n      dup2\n      add\n      swap1\n      tag_34\n      swap2\n      swap1\n      tag_35\n      jump\t// in\n    tag_34:\n      tag_36\n      jump\t// in\n    tag_33:\n      mload(0x40)\n      tag_37\n      swap2\n      swap1\n      tag_38\n      jump\t// in\n    tag_37:\n      mload(0x40)\n      dup1\n      swap2\n      sub\n      swap1\n      return\n        /* \"contracts/0523/Quiz.sol\":4122:4644  function getMedian_Number(bytes1[] memory numbers) public pure returns(bytes1){... */\n    tag_7:\n      callvalue\n      dup1\n      iszero\n      tag_39\n      jumpi\n      0x00\n      dup1\n      revert\n    tag_39:\n      pop\n      tag_40\n      0x04\n      dup1\n      calldatasize\n      sub\n      dup2\n      add\n      swap1\n      tag_41\n      swap2\n      swap1\n      tag_42\n      jump\t// in\n    tag_41:\n      tag_43\n      jump\t// in\n    tag_40:\n      mload(0x40)\n      tag_44\n      swap2\n      swap1\n      tag_26\n      jump\t// in\n    tag_44:\n      mload(0x40)\n      dup1\n      swap2\n      sub\n      swap1\n      return\n        /* \"contracts/0523/Quiz.sol\":3686:3978  function stringArrayToBytes1Array(string[] memory _a) public pure returns(bytes1[] memory) {... */\n    tag_8:\n      callvalue\n      dup1\n      iszero\n      tag_45\n      jumpi\n      0x00\n      dup1\n      revert\n    tag_45:\n      pop\n      tag_46\n      0x04\n      dup1\n      calldatasize\n      sub\n      dup2\n      add\n      swap1\n      tag_47\n      swap2\n      swap1\n      tag_48\n      jump\t// in\n    tag_47:\n      tag_49\n      jump\t// in\n    tag_46:\n      mload(0x40)\n      tag_50\n      swap2\n      swap1\n      tag_51\n      jump\t// in\n    tag_50:\n      mload(0x40)\n      dup1\n      swap2\n      sub\n      swap1\n      return\n        /* \"contracts/0523/Quiz.sol\":5391:5691  function isSameLetter(string[] calldata _myLetter) public view returns(uint) {... */\n    tag_14:\n        /* \"contracts/0523/Quiz.sol\":5462:5466  uint */\n      0x00\n        /* \"contracts/0523/Quiz.sol\":5479:5489  uint count */\n      dup1\n        /* \"contracts/0523/Quiz.sol\":5504:5510  uint i */\n      0x00\n        /* \"contracts/0523/Quiz.sol\":5500:5661  for(uint i=0; i<targetLetters.length; i++) {... */\n    tag_53:\n        /* \"contracts/0523/Quiz.sol\":5516:5536  targetLetters.length */\n      0x06\n        /* \"contracts/0523/Quiz.sol\":5514:5515  i */\n      dup2\n        /* \"contracts/0523/Quiz.sol\":5514:5536  i<targetLetters.length */\n      lt\n        /* \"contracts/0523/Quiz.sol\":5500:5661  for(uint i=0; i<targetLetters.length; i++) {... */\n      iszero\n      tag_54\n      jumpi\n        /* \"contracts/0523/Quiz.sol\":5561:5606  letterCompare(targetLetters[i], _myLetter[i]) */\n      tag_56\n        /* \"contracts/0523/Quiz.sol\":5575:5588  targetLetters */\n      0x00\n        /* \"contracts/0523/Quiz.sol\":5589:5590  i */\n      dup3\n        /* \"contracts/0523/Quiz.sol\":5575:5591  targetLetters[i] */\n      0x06\n      dup2\n      lt\n      tag_57\n      jumpi\n      tag_58\n      tag_59\n      jump\t// in\n    tag_58:\n    tag_57:\n      add\n        /* \"contracts/0523/Quiz.sol\":5561:5606  letterCompare(targetLetters[i], _myLetter[i]) */\n      dup1\n      sload\n      tag_61\n      swap1\n      tag_62\n      jump\t// in\n    tag_61:\n      dup1\n      0x1f\n      add\n      0x20\n      dup1\n      swap2\n      div\n      mul\n      0x20\n      add\n      mload(0x40)\n      swap1\n      dup2\n      add\n      0x40\n      mstore\n      dup1\n      swap3\n      swap2\n      swap1\n      dup2\n      dup2\n      mstore\n      0x20\n      add\n      dup3\n      dup1\n      sload\n      tag_63\n      swap1\n      tag_62\n      jump\t// in\n    tag_63:\n      dup1\n      iszero\n      tag_64\n      jumpi\n      dup1\n      0x1f\n      lt\n      tag_65\n      jumpi\n      0x0100\n      dup1\n      dup4\n      sload\n      div\n      mul\n      dup4\n      mstore\n      swap2\n      0x20\n      add\n      swap2\n      jump(tag_64)\n    tag_65:\n      dup3\n      add\n      swap2\n      swap1\n      0x00\n      mstore\n      keccak256(0x00, 0x20)\n      swap1\n    tag_66:\n      dup2\n      sload\n      dup2\n      mstore\n      swap1\n      0x01\n      add\n      swap1\n      0x20\n      add\n      dup1\n      dup4\n      gt\n      tag_66\n      jumpi\n      dup3\n      swap1\n      sub\n      0x1f\n      and\n      dup3\n      add\n      swap2\n    tag_64:\n      pop\n      pop\n      pop\n      pop\n      pop\n        /* \"contracts/0523/Quiz.sol\":5593:5602  _myLetter */\n      dup7\n      dup7\n        /* \"contracts/0523/Quiz.sol\":5603:5604  i */\n      dup5\n        /* \"contracts/0523/Quiz.sol\":5593:5605  _myLetter[i] */\n      dup2\n      dup2\n      lt\n      tag_67\n      jumpi\n      tag_68\n      tag_59\n      jump\t// in\n    tag_68:\n    tag_67:\n      swap1\n      pop\n      0x20\n      mul\n      dup2\n      add\n      swap1\n      tag_69\n      swap2\n      swap1\n      tag_70\n      jump\t// in\n    tag_69:\n        /* \"contracts/0523/Quiz.sol\":5561:5574  letterCompare */\n      tag_36\n        /* \"contracts/0523/Quiz.sol\":5561:5606  letterCompare(targetLetters[i], _myLetter[i]) */\n      jump\t// in\n    tag_56:\n        /* \"contracts/0523/Quiz.sol\":5558:5650  if(letterCompare(targetLetters[i], _myLetter[i])) {... */\n      iszero\n      tag_71\n      jumpi\n        /* \"contracts/0523/Quiz.sol\":5627:5634  count++ */\n      dup2\n      dup1\n      tag_72\n      swap1\n      tag_73\n      jump\t// in\n    tag_72:\n      swap3\n      pop\n      pop\n        /* \"contracts/0523/Quiz.sol\":5558:5650  if(letterCompare(targetLetters[i], _myLetter[i])) {... */\n    tag_71:\n        /* \"contracts/0523/Quiz.sol\":5538:5541  i++ */\n      dup1\n      dup1\n      tag_74\n      swap1\n      tag_73\n      jump\t// in\n    tag_74:\n      swap2\n      pop\n      pop\n        /* \"contracts/0523/Quiz.sol\":5500:5661  for(uint i=0; i<targetLetters.length; i++) {... */\n      jump(tag_53)\n    tag_54:\n      pop\n        /* \"contracts/0523/Quiz.sol\":5678:5683  count */\n      dup1\n        /* \"contracts/0523/Quiz.sol\":5671:5683  return count */\n      swap2\n      pop\n      pop\n        /* \"contracts/0523/Quiz.sol\":5391:5691  function isSameLetter(string[] calldata _myLetter) public view returns(uint) {... */\n      swap3\n      swap2\n      pop\n      pop\n      jump\t// out\n        /* \"contracts/0523/Quiz.sol\":4782:4960  function setLotto(string[] calldata _letters) public payable {... */\n    tag_19:\n        /* \"contracts/0523/Quiz.sol\":4873:4883  0.05 ether */\n      0xb1a2bc2ec50000\n        /* \"contracts/0523/Quiz.sol\":4862:4871  msg.value */\n      callvalue\n        /* \"contracts/0523/Quiz.sol\":4862:4883  msg.value==0.05 ether */\n      eq\n        /* \"contracts/0523/Quiz.sol\":4854:4884  require(msg.value==0.05 ether) */\n      tag_76\n      jumpi\n      0x00\n      dup1\n      revert\n    tag_76:\n        /* \"contracts/0523/Quiz.sol\":4895:4903  uint fit */\n      0x00\n        /* \"contracts/0523/Quiz.sol\":4906:4928  isSameLetter(_letters) */\n      tag_77\n        /* \"contracts/0523/Quiz.sol\":4919:4927  _letters */\n      dup4\n      dup4\n        /* \"contracts/0523/Quiz.sol\":4906:4918  isSameLetter */\n      tag_14\n        /* \"contracts/0523/Quiz.sol\":4906:4928  isSameLetter(_letters) */\n      jump\t// in\n    tag_77:\n        /* \"contracts/0523/Quiz.sol\":4895:4928  uint fit = isSameLetter(_letters) */\n      swap1\n      pop\n        /* \"contracts/0523/Quiz.sol\":4939:4952  getPrize(fit) */\n      tag_78\n        /* \"contracts/0523/Quiz.sol\":4948:4951  fit */\n      dup2\n        /* \"contracts/0523/Quiz.sol\":4939:4947  getPrize */\n      tag_79\n        /* \"contracts/0523/Quiz.sol\":4939:4952  getPrize(fit) */\n      jump\t// in\n    tag_78:\n        /* \"contracts/0523/Quiz.sol\":4843:4960  {... */\n      pop\n        /* \"contracts/0523/Quiz.sol\":4782:4960  function setLotto(string[] calldata _letters) public payable {... */\n      pop\n      pop\n      jump\t// out\n        /* \"contracts/0523/Quiz.sol\":3986:4113  function bytesAverage(bytes1 a, bytes1 b) public pure returns(bytes1) {... */\n    tag_24:\n        /* \"contracts/0523/Quiz.sol\":4048:4054  bytes1 */\n      0x00\n        /* \"contracts/0523/Quiz.sol\":4103:4104  2 */\n      0x02\n        /* \"contracts/0523/Quiz.sol\":4099:4100  b */\n      dup3\n        /* \"contracts/0523/Quiz.sol\":4093:4101  uint8(b) */\n      0xf8\n      shr\n        /* \"contracts/0523/Quiz.sol\":4088:4089  a */\n      dup5\n        /* \"contracts/0523/Quiz.sol\":4082:4090  uint8(a) */\n      0xf8\n      shr\n        /* \"contracts/0523/Quiz.sol\":4082:4101  uint8(a) + uint8(b) */\n      tag_81\n      swap2\n      swap1\n      tag_82\n      jump\t// in\n    tag_81:\n        /* \"contracts/0523/Quiz.sol\":4081:4104  (uint8(a) + uint8(b))/2 */\n      tag_83\n      swap2\n      swap1\n      tag_84\n      jump\t// in\n    tag_83:\n        /* \"contracts/0523/Quiz.sol\":4074:4105  bytes1((uint8(a) + uint8(b))/2) */\n      0xf8\n      shl\n        /* \"contracts/0523/Quiz.sol\":4067:4105  return bytes1((uint8(a) + uint8(b))/2) */\n      swap1\n      pop\n        /* \"contracts/0523/Quiz.sol\":3986:4113  function bytesAverage(bytes1 a, bytes1 b) public pure returns(bytes1) {... */\n      swap3\n      swap2\n      pop\n      pop\n      jump\t// out\n        /* \"contracts/0523/Quiz.sol\":2877:3678  function setLotto(string[] memory _set1, string[] memory _set2, string[] memory _set3, string[] memory _set4, string[] memory _set5, string[] memory _set6) public {... */\n    tag_31:\n        /* \"contracts/0523/Quiz.sol\":3094:3143  getMedian_Number(stringArrayToBytes1Array(_set1)) */\n      tag_86\n        /* \"contracts/0523/Quiz.sol\":3111:3142  stringArrayToBytes1Array(_set1) */\n      tag_87\n        /* \"contracts/0523/Quiz.sol\":3136:3141  _set1 */\n      dup8\n        /* \"contracts/0523/Quiz.sol\":3111:3135  stringArrayToBytes1Array */\n      tag_49\n        /* \"contracts/0523/Quiz.sol\":3111:3142  stringArrayToBytes1Array(_set1) */\n      jump\t// in\n    tag_87:\n        /* \"contracts/0523/Quiz.sol\":3094:3110  getMedian_Number */\n      tag_43\n        /* \"contracts/0523/Quiz.sol\":3094:3143  getMedian_Number(stringArrayToBytes1Array(_set1)) */\n      jump\t// in\n    tag_86:\n        /* \"contracts/0523/Quiz.sol\":3077:3144  abi.encodePacked(getMedian_Number(stringArrayToBytes1Array(_set1))) */\n      add(0x20, mload(0x40))\n      tag_88\n      swap2\n      swap1\n      tag_89\n      jump\t// in\n    tag_88:\n      mload(0x40)\n      0x20\n      dup2\n      dup4\n      sub\n      sub\n      dup2\n      mstore\n      swap1\n      0x40\n      mstore\n        /* \"contracts/0523/Quiz.sol\":3051:3064  targetLetters */\n      0x00\n        /* \"contracts/0523/Quiz.sol\":3065:3066  0 */\n      dup1\n        /* \"contracts/0523/Quiz.sol\":3051:3067  targetLetters[0] */\n      0x06\n      dup2\n      lt\n      tag_90\n      jumpi\n      tag_91\n      tag_59\n      jump\t// in\n    tag_91:\n    tag_90:\n      add\n        /* \"contracts/0523/Quiz.sol\":3051:3145  targetLetters[0] = string(abi.encodePacked(getMedian_Number(stringArrayToBytes1Array(_set1)))) */\n      swap1\n      dup2\n      tag_93\n      swap2\n      swap1\n      tag_94\n      jump\t// in\n    tag_93:\n      pop\n        /* \"contracts/0523/Quiz.sol\":3199:3248  getMedian_Number(stringArrayToBytes1Array(_set2)) */\n      tag_95\n        /* \"contracts/0523/Quiz.sol\":3216:3247  stringArrayToBytes1Array(_set2) */\n      tag_96\n        /* \"contracts/0523/Quiz.sol\":3241:3246  _set2 */\n      dup7\n        /* \"contracts/0523/Quiz.sol\":3216:3240  stringArrayToBytes1Array */\n      tag_49\n        /* \"contracts/0523/Quiz.sol\":3216:3247  stringArrayToBytes1Array(_set2) */\n      jump\t// in\n    tag_96:\n        /* \"contracts/0523/Quiz.sol\":3199:3215  getMedian_Number */\n      tag_43\n        /* \"contracts/0523/Quiz.sol\":3199:3248  getMedian_Number(stringArrayToBytes1Array(_set2)) */\n      jump\t// in\n    tag_95:\n        /* \"contracts/0523/Quiz.sol\":3182:3249  abi.encodePacked(getMedian_Number(stringArrayToBytes1Array(_set2))) */\n      add(0x20, mload(0x40))\n      tag_97\n      swap2\n      swap1\n      tag_89\n      jump\t// in\n    tag_97:\n      mload(0x40)\n      0x20\n      dup2\n      dup4\n      sub\n      sub\n      dup2\n      mstore\n      swap1\n      0x40\n      mstore\n        /* \"contracts/0523/Quiz.sol\":3156:3169  targetLetters */\n      0x00\n        /* \"contracts/0523/Quiz.sol\":3170:3171  1 */\n      0x01\n        /* \"contracts/0523/Quiz.sol\":3156:3172  targetLetters[1] */\n      0x06\n      dup2\n      lt\n      tag_98\n      jumpi\n      tag_99\n      tag_59\n      jump\t// in\n    tag_99:\n    tag_98:\n      add\n        /* \"contracts/0523/Quiz.sol\":3156:3250  targetLetters[1] = string(abi.encodePacked(getMedian_Number(stringArrayToBytes1Array(_set2)))) */\n      swap1\n      dup2\n      tag_101\n      swap2\n      swap1\n      tag_94\n      jump\t// in\n    tag_101:\n      pop\n        /* \"contracts/0523/Quiz.sol\":3304:3353  getMedian_Number(stringArrayToBytes1Array(_set3)) */\n      tag_102\n        /* \"contracts/0523/Quiz.sol\":3321:3352  stringArrayToBytes1Array(_set3) */\n      tag_103\n        /* \"contracts/0523/Quiz.sol\":3346:3351  _set3 */\n      dup6\n        /* \"contracts/0523/Quiz.sol\":3321:3345  stringArrayToBytes1Array */\n      tag_49\n        /* \"contracts/0523/Quiz.sol\":3321:3352  stringArrayToBytes1Array(_set3) */\n      jump\t// in\n    tag_103:\n        /* \"contracts/0523/Quiz.sol\":3304:3320  getMedian_Number */\n      tag_43\n        /* \"contracts/0523/Quiz.sol\":3304:3353  getMedian_Number(stringArrayToBytes1Array(_set3)) */\n      jump\t// in\n    tag_102:\n        /* \"contracts/0523/Quiz.sol\":3287:3354  abi.encodePacked(getMedian_Number(stringArrayToBytes1Array(_set3))) */\n      add(0x20, mload(0x40))\n      tag_104\n      swap2\n      swap1\n      tag_89\n      jump\t// in\n    tag_104:\n      mload(0x40)\n      0x20\n      dup2\n      dup4\n      sub\n      sub\n      dup2\n      mstore\n      swap1\n      0x40\n      mstore\n        /* \"contracts/0523/Quiz.sol\":3261:3274  targetLetters */\n      0x00\n        /* \"contracts/0523/Quiz.sol\":3275:3276  2 */\n      0x02\n        /* \"contracts/0523/Quiz.sol\":3261:3277  targetLetters[2] */\n      0x06\n      dup2\n      lt\n      tag_105\n      jumpi\n      tag_106\n      tag_59\n      jump\t// in\n    tag_106:\n    tag_105:\n      add\n        /* \"contracts/0523/Quiz.sol\":3261:3355  targetLetters[2] = string(abi.encodePacked(getMedian_Number(stringArrayToBytes1Array(_set3)))) */\n      swap1\n      dup2\n      tag_108\n      swap2\n      swap1\n      tag_94\n      jump\t// in\n    tag_108:\n      pop\n        /* \"contracts/0523/Quiz.sol\":3409:3458  getMedian_Number(stringArrayToBytes1Array(_set4)) */\n      tag_109\n        /* \"contracts/0523/Quiz.sol\":3426:3457  stringArrayToBytes1Array(_set4) */\n      tag_110\n        /* \"contracts/0523/Quiz.sol\":3451:3456  _set4 */\n      dup5\n        /* \"contracts/0523/Quiz.sol\":3426:3450  stringArrayToBytes1Array */\n      tag_49\n        /* \"contracts/0523/Quiz.sol\":3426:3457  stringArrayToBytes1Array(_set4) */\n      jump\t// in\n    tag_110:\n        /* \"contracts/0523/Quiz.sol\":3409:3425  getMedian_Number */\n      tag_43\n        /* \"contracts/0523/Quiz.sol\":3409:3458  getMedian_Number(stringArrayToBytes1Array(_set4)) */\n      jump\t// in\n    tag_109:\n        /* \"contracts/0523/Quiz.sol\":3392:3459  abi.encodePacked(getMedian_Number(stringArrayToBytes1Array(_set4))) */\n      add(0x20, mload(0x40))\n      tag_111\n      swap2\n      swap1\n      tag_89\n      jump\t// in\n    tag_111:\n      mload(0x40)\n      0x20\n      dup2\n      dup4\n      sub\n      sub\n      dup2\n      mstore\n      swap1\n      0x40\n      mstore\n        /* \"contracts/0523/Quiz.sol\":3366:3379  targetLetters */\n      0x00\n        /* \"contracts/0523/Quiz.sol\":3380:3381  3 */\n      0x03\n        /* \"contracts/0523/Quiz.sol\":3366:3382  targetLetters[3] */\n      0x06\n      dup2\n      lt\n      tag_112\n      jumpi\n      tag_113\n      tag_59\n      jump\t// in\n    tag_113:\n    tag_112:\n      add\n        /* \"contracts/0523/Quiz.sol\":3366:3460  targetLetters[3] = string(abi.encodePacked(getMedian_Number(stringArrayToBytes1Array(_set4)))) */\n      swap1\n      dup2\n      tag_115\n      swap2\n      swap1\n      tag_94\n      jump\t// in\n    tag_115:\n      pop\n        /* \"contracts/0523/Quiz.sol\":3514:3563  getMedian_Number(stringArrayToBytes1Array(_set5)) */\n      tag_116\n        /* \"contracts/0523/Quiz.sol\":3531:3562  stringArrayToBytes1Array(_set5) */\n      tag_117\n        /* \"contracts/0523/Quiz.sol\":3556:3561  _set5 */\n      dup4\n        /* \"contracts/0523/Quiz.sol\":3531:3555  stringArrayToBytes1Array */\n      tag_49\n        /* \"contracts/0523/Quiz.sol\":3531:3562  stringArrayToBytes1Array(_set5) */\n      jump\t// in\n    tag_117:\n        /* \"contracts/0523/Quiz.sol\":3514:3530  getMedian_Number */\n      tag_43\n        /* \"contracts/0523/Quiz.sol\":3514:3563  getMedian_Number(stringArrayToBytes1Array(_set5)) */\n      jump\t// in\n    tag_116:\n        /* \"contracts/0523/Quiz.sol\":3497:3564  abi.encodePacked(getMedian_Number(stringArrayToBytes1Array(_set5))) */\n      add(0x20, mload(0x40))\n      tag_118\n      swap2\n      swap1\n      tag_89\n      jump\t// in\n    tag_118:\n      mload(0x40)\n      0x20\n      dup2\n      dup4\n      sub\n      sub\n      dup2\n      mstore\n      swap1\n      0x40\n      mstore\n        /* \"contracts/0523/Quiz.sol\":3471:3484  targetLetters */\n      0x00\n        /* \"contracts/0523/Quiz.sol\":3485:3486  4 */\n      0x04\n        /* \"contracts/0523/Quiz.sol\":3471:3487  targetLetters[4] */\n      0x06\n      dup2\n      lt\n      tag_119\n      jumpi\n      tag_120\n      tag_59\n      jump\t// in\n    tag_120:\n    tag_119:\n      add\n        /* \"contracts/0523/Quiz.sol\":3471:3565  targetLetters[4] = string(abi.encodePacked(getMedian_Number(stringArrayToBytes1Array(_set5)))) */\n      swap1\n      dup2\n      tag_122\n      swap2\n      swap1\n      tag_94\n      jump\t// in\n    tag_122:\n      pop\n        /* \"contracts/0523/Quiz.sol\":3619:3668  getMedian_Number(stringArrayToBytes1Array(_set6)) */\n      tag_123\n        /* \"contracts/0523/Quiz.sol\":3636:3667  stringArrayToBytes1Array(_set6) */\n      tag_124\n        /* \"contracts/0523/Quiz.sol\":3661:3666  _set6 */\n      dup3\n        /* \"contracts/0523/Quiz.sol\":3636:3660  stringArrayToBytes1Array */\n      tag_49\n        /* \"contracts/0523/Quiz.sol\":3636:3667  stringArrayToBytes1Array(_set6) */\n      jump\t// in\n    tag_124:\n        /* \"contracts/0523/Quiz.sol\":3619:3635  getMedian_Number */\n      tag_43\n        /* \"contracts/0523/Quiz.sol\":3619:3668  getMedian_Number(stringArrayToBytes1Array(_set6)) */\n      jump\t// in\n    tag_123:\n        /* \"contracts/0523/Quiz.sol\":3602:3669  abi.encodePacked(getMedian_Number(stringArrayToBytes1Array(_set6))) */\n      add(0x20, mload(0x40))\n      tag_125\n      swap2\n      swap1\n      tag_89\n      jump\t// in\n    tag_125:\n      mload(0x40)\n      0x20\n      dup2\n      dup4\n      sub\n      sub\n      dup2\n      mstore\n      swap1\n      0x40\n      mstore\n        /* \"contracts/0523/Quiz.sol\":3576:3589  targetLetters */\n      0x00\n        /* \"contracts/0523/Quiz.sol\":3590:3591  5 */\n      0x05\n        /* \"contracts/0523/Quiz.sol\":3576:3592  targetLetters[5] */\n      0x06\n      dup2\n      lt\n      tag_126\n      jumpi\n      tag_127\n      tag_59\n      jump\t// in\n    tag_127:\n    tag_126:\n      add\n        /* \"contracts/0523/Quiz.sol\":3576:3670  targetLetters[5] = string(abi.encodePacked(getMedian_Number(stringArrayToBytes1Array(_set6)))) */\n      swap1\n      dup2\n      tag_129\n      swap2\n      swap1\n      tag_94\n      jump\t// in\n    tag_129:\n      pop\n        /* \"contracts/0523/Quiz.sol\":2877:3678  function setLotto(string[] memory _set1, string[] memory _set2, string[] memory _set3, string[] memory _set4, string[] memory _set5, string[] memory _set6) public {... */\n      pop\n      pop\n      pop\n      pop\n      pop\n      pop\n      jump\t// out\n        /* \"contracts/0523/Quiz.sol\":5699:5878  function letterCompare(string memory _a, string calldata _b) public pure returns(bool) {... */\n    tag_36:\n        /* \"contracts/0523/Quiz.sol\":5780:5784  bool */\n      0x00\n        /* \"contracts/0523/Quiz.sol\":5866:5868  _b */\n      dup3\n      dup3\n        /* \"contracts/0523/Quiz.sol\":5849:5869  abi.encodePacked(_b) */\n      add(0x20, mload(0x40))\n      tag_131\n      swap3\n      swap2\n      swap1\n      tag_132\n      jump\t// in\n    tag_131:\n      mload(0x40)\n      0x20\n      dup2\n      dup4\n      sub\n      sub\n      dup2\n      mstore\n      swap1\n      0x40\n      mstore\n        /* \"contracts/0523/Quiz.sol\":5839:5870  keccak256(abi.encodePacked(_b)) */\n      dup1\n      mload\n      swap1\n      0x20\n      add\n      keccak256\n        /* \"contracts/0523/Quiz.sol\":5831:5833  _a */\n      dup5\n        /* \"contracts/0523/Quiz.sol\":5814:5834  abi.encodePacked(_a) */\n      add(0x20, mload(0x40))\n      tag_133\n      swap2\n      swap1\n      tag_134\n      jump\t// in\n    tag_133:\n      mload(0x40)\n      0x20\n      dup2\n      dup4\n      sub\n      sub\n      dup2\n      mstore\n      swap1\n      0x40\n      mstore\n        /* \"contracts/0523/Quiz.sol\":5804:5835  keccak256(abi.encodePacked(_a)) */\n      dup1\n      mload\n      swap1\n      0x20\n      add\n      keccak256\n        /* \"contracts/0523/Quiz.sol\":5804:5870  keccak256(abi.encodePacked(_a)) == keccak256(abi.encodePacked(_b)) */\n      eq\n        /* \"contracts/0523/Quiz.sol\":5797:5870  return keccak256(abi.encodePacked(_a)) == keccak256(abi.encodePacked(_b)) */\n      swap1\n      pop\n        /* \"contracts/0523/Quiz.sol\":5699:5878  function letterCompare(string memory _a, string calldata _b) public pure returns(bool) {... */\n      swap4\n      swap3\n      pop\n      pop\n      pop\n      jump\t// out\n        /* \"contracts/0523/Quiz.sol\":4122:4644  function getMedian_Number(bytes1[] memory numbers) public pure returns(bytes1){... */\n    tag_43:\n        /* \"contracts/0523/Quiz.sol\":4193:4199  bytes1 */\n      0x00\n        /* \"contracts/0523/Quiz.sol\":4211:4218  uint _l */\n      dup1\n        /* \"contracts/0523/Quiz.sol\":4221:4228  numbers */\n      dup3\n        /* \"contracts/0523/Quiz.sol\":4221:4235  numbers.length */\n      mload\n        /* \"contracts/0523/Quiz.sol\":4211:4235  uint _l = numbers.length */\n      swap1\n      pop\n        /* \"contracts/0523/Quiz.sol\":4250:4256  uint i */\n      0x00\n        /* \"contracts/0523/Quiz.sol\":4246:4480  for(uint i=0;i<_l-1;i++) {... */\n    tag_136:\n        /* \"contracts/0523/Quiz.sol\":4264:4265  1 */\n      0x01\n        /* \"contracts/0523/Quiz.sol\":4261:4263  _l */\n      dup3\n        /* \"contracts/0523/Quiz.sol\":4261:4265  _l-1 */\n      tag_139\n      swap2\n      swap1\n      tag_140\n      jump\t// in\n    tag_139:\n        /* \"contracts/0523/Quiz.sol\":4259:4260  i */\n      dup2\n        /* \"contracts/0523/Quiz.sol\":4259:4265  i<_l-1 */\n      lt\n        /* \"contracts/0523/Quiz.sol\":4246:4480  for(uint i=0;i<_l-1;i++) {... */\n      iszero\n      tag_137\n      jumpi\n        /* \"contracts/0523/Quiz.sol\":4290:4296  uint j */\n      0x00\n        /* \"contracts/0523/Quiz.sol\":4299:4300  1 */\n      0x01\n        /* \"contracts/0523/Quiz.sol\":4297:4298  i */\n      dup3\n        /* \"contracts/0523/Quiz.sol\":4297:4300  i+1 */\n      tag_144\n      swap2\n      swap1\n      tag_145\n      jump\t// in\n    tag_144:\n        /* \"contracts/0523/Quiz.sol\":4290:4300  uint j=i+1 */\n      swap1\n      pop\n        /* \"contracts/0523/Quiz.sol\":4286:4469  for(uint j=i+1; j<_l ;j++) {... */\n    tag_141:\n        /* \"contracts/0523/Quiz.sol\":4304:4306  _l */\n      dup3\n        /* \"contracts/0523/Quiz.sol\":4302:4303  j */\n      dup2\n        /* \"contracts/0523/Quiz.sol\":4302:4306  j<_l */\n      lt\n        /* \"contracts/0523/Quiz.sol\":4286:4469  for(uint j=i+1; j<_l ;j++) {... */\n      iszero\n      tag_142\n      jumpi\n        /* \"contracts/0523/Quiz.sol\":4348:4355  numbers */\n      dup5\n        /* \"contracts/0523/Quiz.sol\":4356:4357  j */\n      dup2\n        /* \"contracts/0523/Quiz.sol\":4348:4358  numbers[j] */\n      dup2\n      mload\n      dup2\n      lt\n      tag_146\n      jumpi\n      tag_147\n      tag_59\n      jump\t// in\n    tag_147:\n    tag_146:\n      0x20\n      mul\n      0x20\n      add\n      add\n      mload\n        /* \"contracts/0523/Quiz.sol\":4335:4358  numbers[i] < numbers[j] */\n      not(0xffffffffffffffffffffffffffffffffffffffffffffffffffffffffffffff)\n      and\n        /* \"contracts/0523/Quiz.sol\":4335:4342  numbers */\n      dup6\n        /* \"contracts/0523/Quiz.sol\":4343:4344  i */\n      dup4\n        /* \"contracts/0523/Quiz.sol\":4335:4345  numbers[i] */\n      dup2\n      mload\n      dup2\n      lt\n      tag_148\n      jumpi\n      tag_149\n      tag_59\n      jump\t// in\n    tag_149:\n    tag_148:\n      0x20\n      mul\n      0x20\n      add\n      add\n      mload\n        /* \"contracts/0523/Quiz.sol\":4335:4358  numbers[i] < numbers[j] */\n      not(0xffffffffffffffffffffffffffffffffffffffffffffffffffffffffffffff)\n      and\n      lt\n        /* \"contracts/0523/Quiz.sol\":4332:4454  if(numbers[i] < numbers[j]) {... */\n      iszero\n      tag_150\n      jumpi\n        /* \"contracts/0523/Quiz.sol\":4411:4418  numbers */\n      dup5\n        /* \"contracts/0523/Quiz.sol\":4419:4420  j */\n      dup2\n        /* \"contracts/0523/Quiz.sol\":4411:4421  numbers[j] */\n      dup2\n      mload\n      dup2\n      lt\n      tag_151\n      jumpi\n      tag_152\n      tag_59\n      jump\t// in\n    tag_152:\n    tag_151:\n      0x20\n      mul\n      0x20\n      add\n      add\n      mload\n        /* \"contracts/0523/Quiz.sol\":4423:4430  numbers */\n      dup6\n        /* \"contracts/0523/Quiz.sol\":4431:4432  i */\n      dup4\n        /* \"contracts/0523/Quiz.sol\":4423:4433  numbers[i] */\n      dup2\n      mload\n      dup2\n      lt\n      tag_153\n      jumpi\n      tag_154\n      tag_59\n      jump\t// in\n    tag_154:\n    tag_153:\n      0x20\n      mul\n      0x20\n      add\n      add\n      mload\n        /* \"contracts/0523/Quiz.sol\":4384:4391  numbers */\n      dup7\n        /* \"contracts/0523/Quiz.sol\":4392:4393  i */\n      dup5\n        /* \"contracts/0523/Quiz.sol\":4384:4394  numbers[i] */\n      dup2\n      mload\n      dup2\n      lt\n      tag_155\n      jumpi\n      tag_156\n      tag_59\n      jump\t// in\n    tag_156:\n    tag_155:\n      0x20\n      mul\n      0x20\n      add\n      add\n        /* \"contracts/0523/Quiz.sol\":4396:4403  numbers */\n      dup8\n        /* \"contracts/0523/Quiz.sol\":4404:4405  j */\n      dup5\n        /* \"contracts/0523/Quiz.sol\":4396:4406  numbers[j] */\n      dup2\n      mload\n      dup2\n      lt\n      tag_157\n      jumpi\n      tag_158\n      tag_59\n      jump\t// in\n    tag_158:\n    tag_157:\n      0x20\n      mul\n      0x20\n      add\n      add\n        /* \"contracts/0523/Quiz.sol\":4383:4434  (numbers[i], numbers[j]) = (numbers[j], numbers[i]) */\n      dup3\n      not(0xffffffffffffffffffffffffffffffffffffffffffffffffffffffffffffff)\n      and\n      not(0xffffffffffffffffffffffffffffffffffffffffffffffffffffffffffffff)\n      and\n      dup2\n      mstore\n      pop\n      dup3\n      not(0xffffffffffffffffffffffffffffffffffffffffffffffffffffffffffffff)\n      and\n      not(0xffffffffffffffffffffffffffffffffffffffffffffffffffffffffffffff)\n      and\n      dup2\n      mstore\n      pop\n      pop\n      pop\n        /* \"contracts/0523/Quiz.sol\":4332:4454  if(numbers[i] < numbers[j]) {... */\n    tag_150:\n        /* \"contracts/0523/Quiz.sol\":4308:4311  j++ */\n      dup1\n      dup1\n      tag_159\n      swap1\n      tag_73\n      jump\t// in\n    tag_159:\n      swap2\n      pop\n      pop\n        /* \"contracts/0523/Quiz.sol\":4286:4469  for(uint j=i+1; j<_l ;j++) {... */\n      jump(tag_141)\n    tag_142:\n      pop\n        /* \"contracts/0523/Quiz.sol\":4266:4269  i++ */\n      dup1\n      dup1\n      tag_160\n      swap1\n      tag_73\n      jump\t// in\n    tag_160:\n      swap2\n      pop\n      pop\n        /* \"contracts/0523/Quiz.sol\":4246:4480  for(uint i=0;i<_l-1;i++) {... */\n      jump(tag_136)\n    tag_137:\n      pop\n        /* \"contracts/0523/Quiz.sol\":4501:4502  0 */\n      0x00\n        /* \"contracts/0523/Quiz.sol\":4497:4498  2 */\n      0x02\n        /* \"contracts/0523/Quiz.sol\":4493:4495  _l */\n      dup3\n        /* \"contracts/0523/Quiz.sol\":4493:4498  _l %2 */\n      tag_161\n      swap2\n      swap1\n      tag_162\n      jump\t// in\n    tag_161:\n        /* \"contracts/0523/Quiz.sol\":4493:4502  _l %2 ==0 */\n      sub\n        /* \"contracts/0523/Quiz.sol\":4490:4637  if(_l %2 ==0) {... */\n      tag_163\n      jumpi\n        /* \"contracts/0523/Quiz.sol\":4526:4570  bytesAverage(numbers[_l/2-1], numbers[_l/2]) */\n      tag_164\n        /* \"contracts/0523/Quiz.sol\":4539:4546  numbers */\n      dup4\n        /* \"contracts/0523/Quiz.sol\":4552:4553  1 */\n      0x01\n        /* \"contracts/0523/Quiz.sol\":4550:4551  2 */\n      0x02\n        /* \"contracts/0523/Quiz.sol\":4547:4549  _l */\n      dup5\n        /* \"contracts/0523/Quiz.sol\":4547:4551  _l/2 */\n      tag_165\n      swap2\n      swap1\n      tag_166\n      jump\t// in\n    tag_165:\n        /* \"contracts/0523/Quiz.sol\":4547:4553  _l/2-1 */\n      tag_167\n      swap2\n      swap1\n      tag_140\n      jump\t// in\n    tag_167:\n        /* \"contracts/0523/Quiz.sol\":4539:4554  numbers[_l/2-1] */\n      dup2\n      mload\n      dup2\n      lt\n      tag_168\n      jumpi\n      tag_169\n      tag_59\n      jump\t// in\n    tag_169:\n    tag_168:\n      0x20\n      mul\n      0x20\n      add\n      add\n      mload\n        /* \"contracts/0523/Quiz.sol\":4556:4563  numbers */\n      dup5\n        /* \"contracts/0523/Quiz.sol\":4567:4568  2 */\n      0x02\n        /* \"contracts/0523/Quiz.sol\":4564:4566  _l */\n      dup5\n        /* \"contracts/0523/Quiz.sol\":4564:4568  _l/2 */\n      tag_170\n      swap2\n      swap1\n      tag_166\n      jump\t// in\n    tag_170:\n        /* \"contracts/0523/Quiz.sol\":4556:4569  numbers[_l/2] */\n      dup2\n      mload\n      dup2\n      lt\n      tag_171\n      jumpi\n      tag_172\n      tag_59\n      jump\t// in\n    tag_172:\n    tag_171:\n      0x20\n      mul\n      0x20\n      add\n      add\n      mload\n        /* \"contracts/0523/Quiz.sol\":4526:4538  bytesAverage */\n      tag_24\n        /* \"contracts/0523/Quiz.sol\":4526:4570  bytesAverage(numbers[_l/2-1], numbers[_l/2]) */\n      jump\t// in\n    tag_164:\n        /* \"contracts/0523/Quiz.sol\":4519:4570  return bytesAverage(numbers[_l/2-1], numbers[_l/2]) */\n      swap2\n      pop\n      pop\n      jump(tag_135)\n        /* \"contracts/0523/Quiz.sol\":4490:4637  if(_l %2 ==0) {... */\n    tag_163:\n        /* \"contracts/0523/Quiz.sol\":4611:4618  numbers */\n      dup3\n        /* \"contracts/0523/Quiz.sol\":4622:4623  2 */\n      0x02\n        /* \"contracts/0523/Quiz.sol\":4619:4621  _l */\n      dup3\n        /* \"contracts/0523/Quiz.sol\":4619:4623  _l/2 */\n      tag_174\n      swap2\n      swap1\n      tag_166\n      jump\t// in\n    tag_174:\n        /* \"contracts/0523/Quiz.sol\":4611:4624  numbers[_l/2] */\n      dup2\n      mload\n      dup2\n      lt\n      tag_175\n      jumpi\n      tag_176\n      tag_59\n      jump\t// in\n    tag_176:\n    tag_175:\n      0x20\n      mul\n      0x20\n      add\n      add\n      mload\n        /* \"contracts/0523/Quiz.sol\":4603:4625  return (numbers[_l/2]) */\n      swap2\n      pop\n      pop\n        /* \"contracts/0523/Quiz.sol\":4122:4644  function getMedian_Number(bytes1[] memory numbers) public pure returns(bytes1){... */\n    tag_135:\n      swap2\n      swap1\n      pop\n      jump\t// out\n        /* \"contracts/0523/Quiz.sol\":3686:3978  function stringArrayToBytes1Array(string[] memory _a) public pure returns(bytes1[] memory) {... */\n    tag_49:\n        /* \"contracts/0523/Quiz.sol\":3760:3775  bytes1[] memory */\n      0x60\n        /* \"contracts/0523/Quiz.sol\":3788:3795  uint _n */\n      0x00\n        /* \"contracts/0523/Quiz.sol\":3798:3800  _a */\n      dup3\n        /* \"contracts/0523/Quiz.sol\":3798:3807  _a.length */\n      mload\n        /* \"contracts/0523/Quiz.sol\":3788:3807  uint _n = _a.length */\n      swap1\n      pop\n        /* \"contracts/0523/Quiz.sol\":3818:3836  bytes1[] memory _b */\n      0x00\n        /* \"contracts/0523/Quiz.sol\":3852:3854  _n */\n      dup2\n        /* \"contracts/0523/Quiz.sol\":3839:3855  new bytes1[](_n) */\n      0xffffffffffffffff\n      dup2\n      gt\n      iszero\n      tag_178\n      jumpi\n      tag_179\n      tag_180\n      jump\t// in\n    tag_179:\n    tag_178:\n      mload(0x40)\n      swap1\n      dup1\n      dup3\n      mstore\n      dup1\n      0x20\n      mul\n      0x20\n      add\n      dup3\n      add\n      0x40\n      mstore\n      dup1\n      iszero\n      tag_181\n      jumpi\n      dup2\n      0x20\n      add\n      0x20\n      dup3\n      mul\n      dup1\n      calldatasize\n      dup4\n      calldatacopy\n      dup1\n      dup3\n      add\n      swap2\n      pop\n      pop\n      swap1\n      pop\n    tag_181:\n      pop\n        /* \"contracts/0523/Quiz.sol\":3818:3855  bytes1[] memory _b = new bytes1[](_n) */\n      swap1\n      pop\n        /* \"contracts/0523/Quiz.sol\":3870:3876  uint i */\n      0x00\n        /* \"contracts/0523/Quiz.sol\":3866:3951  for(uint i=0; i<_n;i++) {... */\n    tag_182:\n        /* \"contracts/0523/Quiz.sol\":3882:3884  _n */\n      dup3\n        /* \"contracts/0523/Quiz.sol\":3880:3881  i */\n      dup2\n        /* \"contracts/0523/Quiz.sol\":3880:3884  i<_n */\n      lt\n        /* \"contracts/0523/Quiz.sol\":3866:3951  for(uint i=0; i<_n;i++) {... */\n      iszero\n      tag_183\n      jumpi\n        /* \"contracts/0523/Quiz.sol\":3930:3932  _a */\n      dup5\n        /* \"contracts/0523/Quiz.sol\":3933:3934  i */\n      dup2\n        /* \"contracts/0523/Quiz.sol\":3930:3935  _a[i] */\n      dup2\n      mload\n      dup2\n      lt\n      tag_185\n      jumpi\n      tag_186\n      tag_59\n      jump\t// in\n    tag_186:\n    tag_185:\n      0x20\n      mul\n      0x20\n      add\n      add\n      mload\n        /* \"contracts/0523/Quiz.sol\":3913:3936  abi.encodePacked(_a[i]) */\n      add(0x20, mload(0x40))\n      tag_187\n      swap2\n      swap1\n      tag_134\n      jump\t// in\n    tag_187:\n      mload(0x40)\n      0x20\n      dup2\n      dup4\n      sub\n      sub\n      dup2\n      mstore\n      swap1\n      0x40\n      mstore\n        /* \"contracts/0523/Quiz.sol\":3937:3938  0 */\n      0x00\n        /* \"contracts/0523/Quiz.sol\":3913:3939  abi.encodePacked(_a[i])[0] */\n      dup2\n      mload\n      dup2\n      lt\n      tag_188\n      jumpi\n      tag_189\n      tag_59\n      jump\t// in\n    tag_189:\n    tag_188:\n      0x20\n      add\n      add\n      mload\n      0xf8\n      shr\n      0xf8\n      shl\n        /* \"contracts/0523/Quiz.sol\":3905:3907  _b */\n      dup3\n        /* \"contracts/0523/Quiz.sol\":3908:3909  i */\n      dup3\n        /* \"contracts/0523/Quiz.sol\":3905:3910  _b[i] */\n      dup2\n      mload\n      dup2\n      lt\n      tag_190\n      jumpi\n      tag_191\n      tag_59\n      jump\t// in\n    tag_191:\n    tag_190:\n      0x20\n      mul\n      0x20\n      add\n      add\n        /* \"contracts/0523/Quiz.sol\":3905:3939  _b[i] = abi.encodePacked(_a[i])[0] */\n      swap1\n      not(0xffffffffffffffffffffffffffffffffffffffffffffffffffffffffffffff)\n      and\n      swap1\n      dup2\n      not(0xffffffffffffffffffffffffffffffffffffffffffffffffffffffffffffff)\n      and\n      dup2\n      mstore\n      pop\n      pop\n        /* \"contracts/0523/Quiz.sol\":3885:3888  i++ */\n      dup1\n      dup1\n      tag_192\n      swap1\n      tag_73\n      jump\t// in\n    tag_192:\n      swap2\n      pop\n      pop\n        /* \"contracts/0523/Quiz.sol\":3866:3951  for(uint i=0; i<_n;i++) {... */\n      jump(tag_182)\n    tag_183:\n      pop\n        /* \"contracts/0523/Quiz.sol\":3968:3970  _b */\n      dup1\n        /* \"contracts/0523/Quiz.sol\":3961:3970  return _b */\n      swap3\n      pop\n      pop\n      pop\n        /* \"contracts/0523/Quiz.sol\":3686:3978  function stringArrayToBytes1Array(string[] memory _a) public pure returns(bytes1[] memory) {... */\n      swap2\n      swap1\n      pop\n      jump\t// out\n        /* \"contracts/0523/Quiz.sol\":4968:5383  function getPrize(uint _n) private /*public으로 하면 자선사업가*/ {... */\n    tag_79:\n        /* \"contracts/0523/Quiz.sol\":5061:5062  6 */\n      0x06\n        /* \"contracts/0523/Quiz.sol\":5057:5059  _n */\n      dup2\n        /* \"contracts/0523/Quiz.sol\":5057:5062  _n==6 */\n      sub\n        /* \"contracts/0523/Quiz.sol\":5054:5376  if(_n==6) {... */\n      tag_194\n      jumpi\n        /* \"contracts/0523/Quiz.sol\":5087:5097  msg.sender */\n      caller\n        /* \"contracts/0523/Quiz.sol\":5079:5107  payable(msg.sender).transfer */\n      0xffffffffffffffffffffffffffffffffffffffff\n      and\n        /* \"contracts/0523/Quiz.sol\":5079:5116  payable(msg.sender).transfer(1 ether) */\n      0x08fc\n        /* \"contracts/0523/Quiz.sol\":5108:5115  1 ether */\n      0x0de0b6b3a7640000\n        /* \"contracts/0523/Quiz.sol\":5079:5116  payable(msg.sender).transfer(1 ether) */\n      swap1\n      dup2\n      iszero\n      mul\n      swap1\n      mload(0x40)\n      0x00\n      mload(0x40)\n      dup1\n      dup4\n      sub\n      dup2\n      dup6\n      dup9\n      dup9\n      call\n      swap4\n      pop\n      pop\n      pop\n      pop\n      iszero\n      dup1\n      iszero\n      tag_196\n      jumpi\n      returndatasize\n      0x00\n      dup1\n      returndatacopy\n      revert(0x00, returndatasize)\n    tag_196:\n      pop\n        /* \"contracts/0523/Quiz.sol\":5054:5376  if(_n==6) {... */\n      jump(tag_197)\n    tag_194:\n        /* \"contracts/0523/Quiz.sol\":5141:5142  5 */\n      0x05\n        /* \"contracts/0523/Quiz.sol\":5137:5139  _n */\n      dup2\n        /* \"contracts/0523/Quiz.sol\":5137:5142  _n==5 */\n      sub\n        /* \"contracts/0523/Quiz.sol\":5134:5376  if(_n==5) {... */\n      tag_198\n      jumpi\n        /* \"contracts/0523/Quiz.sol\":5167:5177  msg.sender */\n      caller\n        /* \"contracts/0523/Quiz.sol\":5159:5187  payable(msg.sender).transfer */\n      0xffffffffffffffffffffffffffffffffffffffff\n      and\n        /* \"contracts/0523/Quiz.sol\":5159:5199  payable(msg.sender).transfer(0.75 ether) */\n      0x08fc\n        /* \"contracts/0523/Quiz.sol\":5188:5198  0.75 ether */\n      0x0a688906bd8b0000\n        /* \"contracts/0523/Quiz.sol\":5159:5199  payable(msg.sender).transfer(0.75 ether) */\n      swap1\n      dup2\n      iszero\n      mul\n      swap1\n      mload(0x40)\n      0x00\n      mload(0x40)\n      dup1\n      dup4\n      sub\n      dup2\n      dup6\n      dup9\n      dup9\n      call\n      swap4\n      pop\n      pop\n      pop\n      pop\n      iszero\n      dup1\n      iszero\n      tag_200\n      jumpi\n      returndatasize\n      0x00\n      dup1\n      returndatacopy\n      revert(0x00, returndatasize)\n    tag_200:\n      pop\n        /* \"contracts/0523/Quiz.sol\":5134:5376  if(_n==5) {... */\n      jump(tag_201)\n    tag_198:\n        /* \"contracts/0523/Quiz.sol\":5224:5225  4 */\n      0x04\n        /* \"contracts/0523/Quiz.sol\":5220:5222  _n */\n      dup2\n        /* \"contracts/0523/Quiz.sol\":5220:5225  _n==4 */\n      sub\n        /* \"contracts/0523/Quiz.sol\":5217:5376  if(_n==4) {... */\n      tag_202\n      jumpi\n        /* \"contracts/0523/Quiz.sol\":5250:5260  msg.sender */\n      caller\n        /* \"contracts/0523/Quiz.sol\":5242:5270  payable(msg.sender).transfer */\n      0xffffffffffffffffffffffffffffffffffffffff\n      and\n        /* \"contracts/0523/Quiz.sol\":5242:5282  payable(msg.sender).transfer(0.25 ether) */\n      0x08fc\n        /* \"contracts/0523/Quiz.sol\":5271:5281  0.25 ether */\n      0x03782dace9d90000\n        /* \"contracts/0523/Quiz.sol\":5242:5282  payable(msg.sender).transfer(0.25 ether) */\n      swap1\n      dup2\n      iszero\n      mul\n      swap1\n      mload(0x40)\n      0x00\n      mload(0x40)\n      dup1\n      dup4\n      sub\n      dup2\n      dup6\n      dup9\n      dup9\n      call\n      swap4\n      pop\n      pop\n      pop\n      pop\n      iszero\n      dup1\n      iszero\n      tag_204\n      jumpi\n      returndatasize\n      0x00\n      dup1\n      returndatacopy\n      revert(0x00, returndatasize)\n    tag_204:\n      pop\n        /* \"contracts/0523/Quiz.sol\":5217:5376  if(_n==4) {... */\n      jump(tag_205)\n    tag_202:\n        /* \"contracts/0523/Quiz.sol\":5307:5308  3 */\n      0x03\n        /* \"contracts/0523/Quiz.sol\":5303:5305  _n */\n      dup2\n        /* \"contracts/0523/Quiz.sol\":5303:5308  _n==3 */\n      sub\n        /* \"contracts/0523/Quiz.sol\":5300:5376  if(_n==3) {... */\n      tag_206\n      jumpi\n        /* \"contracts/0523/Quiz.sol\":5333:5343  msg.sender */\n      caller\n        /* \"contracts/0523/Quiz.sol\":5325:5353  payable(msg.sender).transfer */\n      0xffffffffffffffffffffffffffffffffffffffff\n      and\n        /* \"contracts/0523/Quiz.sol\":5325:5364  payable(msg.sender).transfer(0.1 ether) */\n      0x08fc\n        /* \"contracts/0523/Quiz.sol\":5354:5363  0.1 ether */\n      0x016345785d8a0000\n        /* \"contracts/0523/Quiz.sol\":5325:5364  payable(msg.sender).transfer(0.1 ether) */\n      swap1\n      dup2\n      iszero\n      mul\n      swap1\n      mload(0x40)\n      0x00\n      mload(0x40)\n      dup1\n      dup4\n      sub\n      dup2\n      dup6\n      dup9\n      dup9\n      call\n      swap4\n      pop\n      pop\n      pop\n      pop\n      iszero\n      dup1\n      iszero\n      tag_208\n      jumpi\n      returndatasize\n      0x00\n      dup1\n      returndatacopy\n      revert(0x00, returndatasize)\n    tag_208:\n      pop\n        /* \"contracts/0523/Quiz.sol\":5300:5376  if(_n==3) {... */\n    tag_206:\n        /* \"contracts/0523/Quiz.sol\":5217:5376  if(_n==4) {... */\n    tag_205:\n        /* \"contracts/0523/Quiz.sol\":5134:5376  if(_n==5) {... */\n    tag_201:\n        /* \"contracts/0523/Quiz.sol\":5054:5376  if(_n==6) {... */\n    tag_197:\n        /* \"contracts/0523/Quiz.sol\":4968:5383  function getPrize(uint _n) private /*public으로 하면 자선사업가*/ {... */\n      pop\n      jump\t// out\n        /* \"#utility.yul\":7:82   */\n    tag_209:\n        /* \"#utility.yul\":40:46   */\n      0x00\n        /* \"#utility.yul\":73:75   */\n      0x40\n        /* \"#utility.yul\":67:76   */\n      mload\n        /* \"#utility.yul\":57:76   */\n      swap1\n      pop\n        /* \"#utility.yul\":7:82   */\n      swap1\n      jump\t// out\n        /* \"#utility.yul\":88:205   */\n    tag_210:\n        /* \"#utility.yul\":197:198   */\n      0x00\n        /* \"#utility.yul\":194:195   */\n      dup1\n        /* \"#utility.yul\":187:199   */\n      revert\n        /* \"#utility.yul\":211:328   */\n    tag_211:\n        /* \"#utility.yul\":320:321   */\n      0x00\n        /* \"#utility.yul\":317:318   */\n      dup1\n        /* \"#utility.yul\":310:322   */\n      revert\n        /* \"#utility.yul\":334:451   */\n    tag_212:\n        /* \"#utility.yul\":443:444   */\n      0x00\n        /* \"#utility.yul\":440:441   */\n      dup1\n        /* \"#utility.yul\":433:445   */\n      revert\n        /* \"#utility.yul\":457:574   */\n    tag_213:\n        /* \"#utility.yul\":566:567   */\n      0x00\n        /* \"#utility.yul\":563:564   */\n      dup1\n        /* \"#utility.yul\":556:568   */\n      revert\n        /* \"#utility.yul\":580:697   */\n    tag_214:\n        /* \"#utility.yul\":689:690   */\n      0x00\n        /* \"#utility.yul\":686:687   */\n      dup1\n        /* \"#utility.yul\":679:691   */\n      revert\n        /* \"#utility.yul\":719:1299   */\n    tag_215:\n        /* \"#utility.yul\":804:812   */\n      0x00\n        /* \"#utility.yul\":814:820   */\n      dup1\n        /* \"#utility.yul\":864:867   */\n      dup4\n        /* \"#utility.yul\":857:861   */\n      0x1f\n        /* \"#utility.yul\":849:855   */\n      dup5\n        /* \"#utility.yul\":845:862   */\n      add\n        /* \"#utility.yul\":841:868   */\n      slt\n        /* \"#utility.yul\":831:953   */\n      tag_283\n      jumpi\n        /* \"#utility.yul\":872:951   */\n      tag_284\n      tag_212\n      jump\t// in\n    tag_284:\n        /* \"#utility.yul\":831:953   */\n    tag_283:\n        /* \"#utility.yul\":985:991   */\n      dup3\n        /* \"#utility.yul\":972:992   */\n      calldataload\n        /* \"#utility.yul\":962:992   */\n      swap1\n      pop\n        /* \"#utility.yul\":1015:1033   */\n      0xffffffffffffffff\n        /* \"#utility.yul\":1007:1013   */\n      dup2\n        /* \"#utility.yul\":1004:1034   */\n      gt\n        /* \"#utility.yul\":1001:1118   */\n      iszero\n      tag_285\n      jumpi\n        /* \"#utility.yul\":1037:1116   */\n      tag_286\n      tag_213\n      jump\t// in\n    tag_286:\n        /* \"#utility.yul\":1001:1118   */\n    tag_285:\n        /* \"#utility.yul\":1151:1155   */\n      0x20\n        /* \"#utility.yul\":1143:1149   */\n      dup4\n        /* \"#utility.yul\":1139:1156   */\n      add\n        /* \"#utility.yul\":1127:1156   */\n      swap2\n      pop\n        /* \"#utility.yul\":1205:1208   */\n      dup4\n        /* \"#utility.yul\":1197:1201   */\n      0x20\n        /* \"#utility.yul\":1189:1195   */\n      dup3\n        /* \"#utility.yul\":1185:1202   */\n      mul\n        /* \"#utility.yul\":1175:1183   */\n      dup4\n        /* \"#utility.yul\":1171:1203   */\n      add\n        /* \"#utility.yul\":1168:1209   */\n      gt\n        /* \"#utility.yul\":1165:1293   */\n      iszero\n      tag_287\n      jumpi\n        /* \"#utility.yul\":1212:1291   */\n      tag_288\n      tag_214\n      jump\t// in\n    tag_288:\n        /* \"#utility.yul\":1165:1293   */\n    tag_287:\n        /* \"#utility.yul\":719:1299   */\n      swap3\n      pop\n      swap3\n      swap1\n      pop\n      jump\t// out\n        /* \"#utility.yul\":1305:1888   */\n    tag_13:\n        /* \"#utility.yul\":1403:1409   */\n      0x00\n        /* \"#utility.yul\":1411:1417   */\n      dup1\n        /* \"#utility.yul\":1460:1462   */\n      0x20\n        /* \"#utility.yul\":1448:1457   */\n      dup4\n        /* \"#utility.yul\":1439:1446   */\n      dup6\n        /* \"#utility.yul\":1435:1458   */\n      sub\n        /* \"#utility.yul\":1431:1463   */\n      slt\n        /* \"#utility.yul\":1428:1547   */\n      iszero\n      tag_290\n      jumpi\n        /* \"#utility.yul\":1466:1545   */\n      tag_291\n      tag_210\n      jump\t// in\n    tag_291:\n        /* \"#utility.yul\":1428:1547   */\n    tag_290:\n        /* \"#utility.yul\":1614:1615   */\n      0x00\n        /* \"#utility.yul\":1603:1612   */\n      dup4\n        /* \"#utility.yul\":1599:1616   */\n      add\n        /* \"#utility.yul\":1586:1617   */\n      calldataload\n        /* \"#utility.yul\":1644:1662   */\n      0xffffffffffffffff\n        /* \"#utility.yul\":1636:1642   */\n      dup2\n        /* \"#utility.yul\":1633:1663   */\n      gt\n        /* \"#utility.yul\":1630:1747   */\n      iszero\n      tag_292\n      jumpi\n        /* \"#utility.yul\":1666:1745   */\n      tag_293\n      tag_211\n      jump\t// in\n    tag_293:\n        /* \"#utility.yul\":1630:1747   */\n    tag_292:\n        /* \"#utility.yul\":1779:1871   */\n      tag_294\n        /* \"#utility.yul\":1863:1870   */\n      dup6\n        /* \"#utility.yul\":1854:1860   */\n      dup3\n        /* \"#utility.yul\":1843:1852   */\n      dup7\n        /* \"#utility.yul\":1839:1861   */\n      add\n        /* \"#utility.yul\":1779:1871   */\n      tag_215\n      jump\t// in\n    tag_294:\n        /* \"#utility.yul\":1761:1871   */\n      swap3\n      pop\n      swap3\n      pop\n        /* \"#utility.yul\":1557:1881   */\n      pop\n        /* \"#utility.yul\":1305:1888   */\n      swap3\n      pop\n      swap3\n      swap1\n      pop\n      jump\t// out\n        /* \"#utility.yul\":1894:1971   */\n    tag_216:\n        /* \"#utility.yul\":1931:1938   */\n      0x00\n        /* \"#utility.yul\":1960:1965   */\n      dup2\n        /* \"#utility.yul\":1949:1965   */\n      swap1\n      pop\n        /* \"#utility.yul\":1894:1971   */\n      swap2\n      swap1\n      pop\n      jump\t// out\n        /* \"#utility.yul\":1977:2095   */\n    tag_217:\n        /* \"#utility.yul\":2064:2088   */\n      tag_297\n        /* \"#utility.yul\":2082:2087   */\n      dup2\n        /* \"#utility.yul\":2064:2088   */\n      tag_216\n      jump\t// in\n    tag_297:\n        /* \"#utility.yul\":2059:2062   */\n      dup3\n        /* \"#utility.yul\":2052:2089   */\n      mstore\n        /* \"#utility.yul\":1977:2095   */\n      pop\n      pop\n      jump\t// out\n        /* \"#utility.yul\":2101:2323   */\n    tag_16:\n        /* \"#utility.yul\":2194:2198   */\n      0x00\n        /* \"#utility.yul\":2232:2234   */\n      0x20\n        /* \"#utility.yul\":2221:2230   */\n      dup3\n        /* \"#utility.yul\":2217:2235   */\n      add\n        /* \"#utility.yul\":2209:2235   */\n      swap1\n      pop\n        /* \"#utility.yul\":2245:2316   */\n      tag_299\n        /* \"#utility.yul\":2313:2314   */\n      0x00\n        /* \"#utility.yul\":2302:2311   */\n      dup4\n        /* \"#utility.yul\":2298:2315   */\n      add\n        /* \"#utility.yul\":2289:2295   */\n      dup5\n        /* \"#utility.yul\":2245:2316   */\n      tag_217\n      jump\t// in\n    tag_299:\n        /* \"#utility.yul\":2101:2323   */\n      swap3\n      swap2\n      pop\n      pop\n      jump\t// out\n        /* \"#utility.yul\":2329:2478   */\n    tag_218:\n        /* \"#utility.yul\":2365:2372   */\n      0x00\n        /* \"#utility.yul\":2405:2471   */\n      0xff00000000000000000000000000000000000000000000000000000000000000\n        /* \"#utility.yul\":2398:2403   */\n      dup3\n        /* \"#utility.yul\":2394:2472   */\n      and\n        /* \"#utility.yul\":2383:2472   */\n      swap1\n      pop\n        /* \"#utility.yul\":2329:2478   */\n      swap2\n      swap1\n      pop\n      jump\t// out\n        /* \"#utility.yul\":2484:2604   */\n    tag_219:\n        /* \"#utility.yul\":2556:2579   */\n      tag_302\n        /* \"#utility.yul\":2573:2578   */\n      dup2\n        /* \"#utility.yul\":2556:2579   */\n      tag_218\n      jump\t// in\n    tag_302:\n        /* \"#utility.yul\":2549:2554   */\n      dup2\n        /* \"#utility.yul\":2546:2580   */\n      eq\n        /* \"#utility.yul\":2536:2598   */\n      tag_303\n      jumpi\n        /* \"#utility.yul\":2594:2595   */\n      0x00\n        /* \"#utility.yul\":2591:2592   */\n      dup1\n        /* \"#utility.yul\":2584:2596   */\n      revert\n        /* \"#utility.yul\":2536:2598   */\n    tag_303:\n        /* \"#utility.yul\":2484:2604   */\n      pop\n      jump\t// out\n        /* \"#utility.yul\":2610:2747   */\n    tag_220:\n        /* \"#utility.yul\":2655:2660   */\n      0x00\n        /* \"#utility.yul\":2693:2699   */\n      dup2\n        /* \"#utility.yul\":2680:2700   */\n      calldataload\n        /* \"#utility.yul\":2671:2700   */\n      swap1\n      pop\n        /* \"#utility.yul\":2709:2741   */\n      tag_305\n        /* \"#utility.yul\":2735:2740   */\n      dup2\n        /* \"#utility.yul\":2709:2741   */\n      tag_219\n      jump\t// in\n    tag_305:\n        /* \"#utility.yul\":2610:2747   */\n      swap3\n      swap2\n      pop\n      pop\n      jump\t// out\n        /* \"#utility.yul\":2753:3223   */\n    tag_23:\n        /* \"#utility.yul\":2819:2825   */\n      0x00\n        /* \"#utility.yul\":2827:2833   */\n      dup1\n        /* \"#utility.yul\":2876:2878   */\n      0x40\n        /* \"#utility.yul\":2864:2873   */\n      dup4\n        /* \"#utility.yul\":2855:2862   */\n      dup6\n        /* \"#utility.yul\":2851:2874   */\n      sub\n        /* \"#utility.yul\":2847:2879   */\n      slt\n        /* \"#utility.yul\":2844:2963   */\n      iszero\n      tag_307\n      jumpi\n        /* \"#utility.yul\":2882:2961   */\n      tag_308\n      tag_210\n      jump\t// in\n    tag_308:\n        /* \"#utility.yul\":2844:2963   */\n    tag_307:\n        /* \"#utility.yul\":3002:3003   */\n      0x00\n        /* \"#utility.yul\":3027:3079   */\n      tag_309\n        /* \"#utility.yul\":3071:3078   */\n      dup6\n        /* \"#utility.yul\":3062:3068   */\n      dup3\n        /* \"#utility.yul\":3051:3060   */\n      dup7\n        /* \"#utility.yul\":3047:3069   */\n      add\n        /* \"#utility.yul\":3027:3079   */\n      tag_220\n      jump\t// in\n    tag_309:\n        /* \"#utility.yul\":3017:3079   */\n      swap3\n      pop\n        /* \"#utility.yul\":2973:3089   */\n      pop\n        /* \"#utility.yul\":3128:3130   */\n      0x20\n        /* \"#utility.yul\":3154:3206   */\n      tag_310\n        /* \"#utility.yul\":3198:3205   */\n      dup6\n        /* \"#utility.yul\":3189:3195   */\n      dup3\n        /* \"#utility.yul\":3178:3187   */\n      dup7\n        /* \"#utility.yul\":3174:3196   */\n      add\n        /* \"#utility.yul\":3154:3206   */\n      tag_220\n      jump\t// in\n    tag_310:\n        /* \"#utility.yul\":3144:3206   */\n      swap2\n      pop\n        /* \"#utility.yul\":3099:3216   */\n      pop\n        /* \"#utility.yul\":2753:3223   */\n      swap3\n      pop\n      swap3\n      swap1\n      pop\n      jump\t// out\n        /* \"#utility.yul\":3229:3344   */\n    tag_221:\n        /* \"#utility.yul\":3314:3337   */\n      tag_312\n        /* \"#utility.yul\":3331:3336   */\n      dup2\n        /* \"#utility.yul\":3314:3337   */\n      tag_218\n      jump\t// in\n    tag_312:\n        /* \"#utility.yul\":3309:3312   */\n      dup3\n        /* \"#utility.yul\":3302:3338   */\n      mstore\n        /* \"#utility.yul\":3229:3344   */\n      pop\n      pop\n      jump\t// out\n        /* \"#utility.yul\":3350:3568   */\n    tag_26:\n        /* \"#utility.yul\":3441:3445   */\n      0x00\n        /* \"#utility.yul\":3479:3481   */\n      0x20\n        /* \"#utility.yul\":3468:3477   */\n      dup3\n        /* \"#utility.yul\":3464:3482   */\n      add\n        /* \"#utility.yul\":3456:3482   */\n      swap1\n      pop\n        /* \"#utility.yul\":3492:3561   */\n      tag_314\n        /* \"#utility.yul\":3558:3559   */\n      0x00\n        /* \"#utility.yul\":3547:3556   */\n      dup4\n        /* \"#utility.yul\":3543:3560   */\n      add\n        /* \"#utility.yul\":3534:3540   */\n      dup5\n        /* \"#utility.yul\":3492:3561   */\n      tag_221\n      jump\t// in\n    tag_314:\n        /* \"#utility.yul\":3350:3568   */\n      swap3\n      swap2\n      pop\n      pop\n      jump\t// out\n        /* \"#utility.yul\":3574:3676   */\n    tag_222:\n        /* \"#utility.yul\":3615:3621   */\n      0x00\n        /* \"#utility.yul\":3666:3668   */\n      0x1f\n        /* \"#utility.yul\":3662:3669   */\n      not\n        /* \"#utility.yul\":3657:3659   */\n      0x1f\n        /* \"#utility.yul\":3650:3655   */\n      dup4\n        /* \"#utility.yul\":3646:3660   */\n      add\n        /* \"#utility.yul\":3642:3670   */\n      and\n        /* \"#utility.yul\":3632:3670   */\n      swap1\n      pop\n        /* \"#utility.yul\":3574:3676   */\n      swap2\n      swap1\n      pop\n      jump\t// out\n        /* \"#utility.yul\":3682:3862   */\n    tag_180:\n        /* \"#utility.yul\":3730:3807   */\n      0x4e487b7100000000000000000000000000000000000000000000000000000000\n        /* \"#utility.yul\":3727:3728   */\n      0x00\n        /* \"#utility.yul\":3720:3808   */\n      mstore\n        /* \"#utility.yul\":3827:3831   */\n      0x41\n        /* \"#utility.yul\":3824:3825   */\n      0x04\n        /* \"#utility.yul\":3817:3832   */\n      mstore\n        /* \"#utility.yul\":3851:3855   */\n      0x24\n        /* \"#utility.yul\":3848:3849   */\n      0x00\n        /* \"#utility.yul\":3841:3856   */\n      revert\n        /* \"#utility.yul\":3868:4149   */\n    tag_223:\n        /* \"#utility.yul\":3951:3978   */\n      tag_318\n        /* \"#utility.yul\":3973:3977   */\n      dup3\n        /* \"#utility.yul\":3951:3978   */\n      tag_222\n      jump\t// in\n    tag_318:\n        /* \"#utility.yul\":3943:3949   */\n      dup2\n        /* \"#utility.yul\":3939:3979   */\n      add\n        /* \"#utility.yul\":4081:4087   */\n      dup2\n        /* \"#utility.yul\":4069:4079   */\n      dup2\n        /* \"#utility.yul\":4066:4088   */\n      lt\n        /* \"#utility.yul\":4045:4063   */\n      0xffffffffffffffff\n        /* \"#utility.yul\":4033:4043   */\n      dup3\n        /* \"#utility.yul\":4030:4064   */\n      gt\n        /* \"#utility.yul\":4027:4089   */\n      or\n        /* \"#utility.yul\":4024:4112   */\n      iszero\n      tag_319\n      jumpi\n        /* \"#utility.yul\":4092:4110   */\n      tag_320\n      tag_180\n      jump\t// in\n    tag_320:\n        /* \"#utility.yul\":4024:4112   */\n    tag_319:\n        /* \"#utility.yul\":4132:4142   */\n      dup1\n        /* \"#utility.yul\":4128:4130   */\n      0x40\n        /* \"#utility.yul\":4121:4143   */\n      mstore\n        /* \"#utility.yul\":3911:4149   */\n      pop\n        /* \"#utility.yul\":3868:4149   */\n      pop\n      pop\n      jump\t// out\n        /* \"#utility.yul\":4155:4284   */\n    tag_224:\n        /* \"#utility.yul\":4189:4195   */\n      0x00\n        /* \"#utility.yul\":4216:4236   */\n      tag_322\n      tag_209\n      jump\t// in\n    tag_322:\n        /* \"#utility.yul\":4206:4236   */\n      swap1\n      pop\n        /* \"#utility.yul\":4245:4278   */\n      tag_323\n        /* \"#utility.yul\":4273:4277   */\n      dup3\n        /* \"#utility.yul\":4265:4271   */\n      dup3\n        /* \"#utility.yul\":4245:4278   */\n      tag_223\n      jump\t// in\n    tag_323:\n        /* \"#utility.yul\":4155:4284   */\n      swap2\n      swap1\n      pop\n      jump\t// out\n        /* \"#utility.yul\":4290:4611   */\n    tag_225:\n        /* \"#utility.yul\":4377:4381   */\n      0x00\n        /* \"#utility.yul\":4467:4485   */\n      0xffffffffffffffff\n        /* \"#utility.yul\":4459:4465   */\n      dup3\n        /* \"#utility.yul\":4456:4486   */\n      gt\n        /* \"#utility.yul\":4453:4509   */\n      iszero\n      tag_325\n      jumpi\n        /* \"#utility.yul\":4489:4507   */\n      tag_326\n      tag_180\n      jump\t// in\n    tag_326:\n        /* \"#utility.yul\":4453:4509   */\n    tag_325:\n        /* \"#utility.yul\":4539:4543   */\n      0x20\n        /* \"#utility.yul\":4531:4537   */\n      dup3\n        /* \"#utility.yul\":4527:4544   */\n      mul\n        /* \"#utility.yul\":4519:4544   */\n      swap1\n      pop\n        /* \"#utility.yul\":4599:4603   */\n      0x20\n        /* \"#utility.yul\":4593:4597   */\n      dup2\n        /* \"#utility.yul\":4589:4604   */\n      add\n        /* \"#utility.yul\":4581:4604   */\n      swap1\n      pop\n        /* \"#utility.yul\":4290:4611   */\n      swap2\n      swap1\n      pop\n      jump\t// out\n        /* \"#utility.yul\":4617:4734   */\n    tag_226:\n        /* \"#utility.yul\":4726:4727   */\n      0x00\n        /* \"#utility.yul\":4723:4724   */\n      dup1\n        /* \"#utility.yul\":4716:4728   */\n      revert\n        /* \"#utility.yul\":4740:5048   */\n    tag_227:\n        /* \"#utility.yul\":4802:4806   */\n      0x00\n        /* \"#utility.yul\":4892:4910   */\n      0xffffffffffffffff\n        /* \"#utility.yul\":4884:4890   */\n      dup3\n        /* \"#utility.yul\":4881:4911   */\n      gt\n        /* \"#utility.yul\":4878:4934   */\n      iszero\n      tag_329\n      jumpi\n        /* \"#utility.yul\":4914:4932   */\n      tag_330\n      tag_180\n      jump\t// in\n    tag_330:\n        /* \"#utility.yul\":4878:4934   */\n    tag_329:\n        /* \"#utility.yul\":4952:4981   */\n      tag_331\n        /* \"#utility.yul\":4974:4980   */\n      dup3\n        /* \"#utility.yul\":4952:4981   */\n      tag_222\n      jump\t// in\n    tag_331:\n        /* \"#utility.yul\":4944:4981   */\n      swap1\n      pop\n        /* \"#utility.yul\":5036:5040   */\n      0x20\n        /* \"#utility.yul\":5030:5034   */\n      dup2\n        /* \"#utility.yul\":5026:5041   */\n      add\n        /* \"#utility.yul\":5018:5041   */\n      swap1\n      pop\n        /* \"#utility.yul\":4740:5048   */\n      swap2\n      swap1\n      pop\n      jump\t// out\n        /* \"#utility.yul\":5054:5200   */\n    tag_228:\n        /* \"#utility.yul\":5151:5157   */\n      dup3\n        /* \"#utility.yul\":5146:5149   */\n      dup2\n        /* \"#utility.yul\":5141:5144   */\n      dup4\n        /* \"#utility.yul\":5128:5158   */\n      calldatacopy\n        /* \"#utility.yul\":5192:5193   */\n      0x00\n        /* \"#utility.yul\":5183:5189   */\n      dup4\n        /* \"#utility.yul\":5178:5181   */\n      dup4\n        /* \"#utility.yul\":5174:5190   */\n      add\n        /* \"#utility.yul\":5167:5194   */\n      mstore\n        /* \"#utility.yul\":5054:5200   */\n      pop\n      pop\n      pop\n      jump\t// out\n        /* \"#utility.yul\":5206:5631   */\n    tag_229:\n        /* \"#utility.yul\":5284:5289   */\n      0x00\n        /* \"#utility.yul\":5309:5375   */\n      tag_334\n        /* \"#utility.yul\":5325:5374   */\n      tag_335\n        /* \"#utility.yul\":5367:5373   */\n      dup5\n        /* \"#utility.yul\":5325:5374   */\n      tag_227\n      jump\t// in\n    tag_335:\n        /* \"#utility.yul\":5309:5375   */\n      tag_224\n      jump\t// in\n    tag_334:\n        /* \"#utility.yul\":5300:5375   */\n      swap1\n      pop\n        /* \"#utility.yul\":5398:5404   */\n      dup3\n        /* \"#utility.yul\":5391:5396   */\n      dup2\n        /* \"#utility.yul\":5384:5405   */\n      mstore\n        /* \"#utility.yul\":5436:5440   */\n      0x20\n        /* \"#utility.yul\":5429:5434   */\n      dup2\n        /* \"#utility.yul\":5425:5441   */\n      add\n        /* \"#utility.yul\":5474:5477   */\n      dup5\n        /* \"#utility.yul\":5465:5471   */\n      dup5\n        /* \"#utility.yul\":5460:5463   */\n      dup5\n        /* \"#utility.yul\":5456:5472   */\n      add\n        /* \"#utility.yul\":5453:5478   */\n      gt\n        /* \"#utility.yul\":5450:5562   */\n      iszero\n      tag_336\n      jumpi\n        /* \"#utility.yul\":5481:5560   */\n      tag_337\n      tag_226\n      jump\t// in\n    tag_337:\n        /* \"#utility.yul\":5450:5562   */\n    tag_336:\n        /* \"#utility.yul\":5571:5625   */\n      tag_338\n        /* \"#utility.yul\":5618:5624   */\n      dup5\n        /* \"#utility.yul\":5613:5616   */\n      dup3\n        /* \"#utility.yul\":5608:5611   */\n      dup6\n        /* \"#utility.yul\":5571:5625   */\n      tag_228\n      jump\t// in\n    tag_338:\n        /* \"#utility.yul\":5290:5631   */\n      pop\n        /* \"#utility.yul\":5206:5631   */\n      swap4\n      swap3\n      pop\n      pop\n      pop\n      jump\t// out\n        /* \"#utility.yul\":5651:5991   */\n    tag_230:\n        /* \"#utility.yul\":5707:5712   */\n      0x00\n        /* \"#utility.yul\":5756:5759   */\n      dup3\n        /* \"#utility.yul\":5749:5753   */\n      0x1f\n        /* \"#utility.yul\":5741:5747   */\n      dup4\n        /* \"#utility.yul\":5737:5754   */\n      add\n        /* \"#utility.yul\":5733:5760   */\n      slt\n        /* \"#utility.yul\":5723:5845   */\n      tag_340\n      jumpi\n        /* \"#utility.yul\":5764:5843   */\n      tag_341\n      tag_212\n      jump\t// in\n    tag_341:\n        /* \"#utility.yul\":5723:5845   */\n    tag_340:\n        /* \"#utility.yul\":5881:5887   */\n      dup2\n        /* \"#utility.yul\":5868:5888   */\n      calldataload\n        /* \"#utility.yul\":5906:5985   */\n      tag_342\n        /* \"#utility.yul\":5981:5984   */\n      dup5\n        /* \"#utility.yul\":5973:5979   */\n      dup3\n        /* \"#utility.yul\":5966:5970   */\n      0x20\n        /* \"#utility.yul\":5958:5964   */\n      dup7\n        /* \"#utility.yul\":5954:5971   */\n      add\n        /* \"#utility.yul\":5906:5985   */\n      tag_229\n      jump\t// in\n    tag_342:\n        /* \"#utility.yul\":5897:5985   */\n      swap2\n      pop\n        /* \"#utility.yul\":5713:5991   */\n      pop\n        /* \"#utility.yul\":5651:5991   */\n      swap3\n      swap2\n      pop\n      pop\n      jump\t// out\n        /* \"#utility.yul\":6013:6958   */\n    tag_231:\n        /* \"#utility.yul\":6119:6124   */\n      0x00\n        /* \"#utility.yul\":6144:6235   */\n      tag_344\n        /* \"#utility.yul\":6160:6234   */\n      tag_345\n        /* \"#utility.yul\":6227:6233   */\n      dup5\n        /* \"#utility.yul\":6160:6234   */\n      tag_225\n      jump\t// in\n    tag_345:\n        /* \"#utility.yul\":6144:6235   */\n      tag_224\n      jump\t// in\n    tag_344:\n        /* \"#utility.yul\":6135:6235   */\n      swap1\n      pop\n        /* \"#utility.yul\":6255:6260   */\n      dup1\n        /* \"#utility.yul\":6284:6290   */\n      dup4\n        /* \"#utility.yul\":6277:6282   */\n      dup3\n        /* \"#utility.yul\":6270:6291   */\n      mstore\n        /* \"#utility.yul\":6318:6322   */\n      0x20\n        /* \"#utility.yul\":6311:6316   */\n      dup3\n        /* \"#utility.yul\":6307:6323   */\n      add\n        /* \"#utility.yul\":6300:6323   */\n      swap1\n      pop\n        /* \"#utility.yul\":6371:6375   */\n      0x20\n        /* \"#utility.yul\":6363:6369   */\n      dup5\n        /* \"#utility.yul\":6359:6376   */\n      mul\n        /* \"#utility.yul\":6351:6357   */\n      dup4\n        /* \"#utility.yul\":6347:6377   */\n      add\n        /* \"#utility.yul\":6400:6403   */\n      dup6\n        /* \"#utility.yul\":6392:6398   */\n      dup2\n        /* \"#utility.yul\":6389:6404   */\n      gt\n        /* \"#utility.yul\":6386:6508   */\n      iszero\n      tag_346\n      jumpi\n        /* \"#utility.yul\":6419:6498   */\n      tag_347\n      tag_214\n      jump\t// in\n    tag_347:\n        /* \"#utility.yul\":6386:6508   */\n    tag_346:\n        /* \"#utility.yul\":6534:6540   */\n      dup4\n        /* \"#utility.yul\":6517:6952   */\n    tag_348:\n        /* \"#utility.yul\":6551:6557   */\n      dup2\n        /* \"#utility.yul\":6546:6549   */\n      dup2\n        /* \"#utility.yul\":6543:6558   */\n      lt\n        /* \"#utility.yul\":6517:6952   */\n      iszero\n      tag_350\n      jumpi\n        /* \"#utility.yul\":6640:6643   */\n      dup1\n        /* \"#utility.yul\":6627:6644   */\n      calldataload\n        /* \"#utility.yul\":6676:6694   */\n      0xffffffffffffffff\n        /* \"#utility.yul\":6663:6674   */\n      dup2\n        /* \"#utility.yul\":6660:6695   */\n      gt\n        /* \"#utility.yul\":6657:6779   */\n      iszero\n      tag_351\n      jumpi\n        /* \"#utility.yul\":6698:6777   */\n      tag_352\n      tag_212\n      jump\t// in\n    tag_352:\n        /* \"#utility.yul\":6657:6779   */\n    tag_351:\n        /* \"#utility.yul\":6822:6833   */\n      dup1\n        /* \"#utility.yul\":6814:6820   */\n      dup7\n        /* \"#utility.yul\":6810:6834   */\n      add\n        /* \"#utility.yul\":6860:6907   */\n      tag_353\n        /* \"#utility.yul\":6903:6906   */\n      dup10\n        /* \"#utility.yul\":6891:6901   */\n      dup3\n        /* \"#utility.yul\":6860:6907   */\n      tag_230\n      jump\t// in\n    tag_353:\n        /* \"#utility.yul\":6855:6858   */\n      dup6\n        /* \"#utility.yul\":6848:6908   */\n      mstore\n        /* \"#utility.yul\":6937:6941   */\n      0x20\n        /* \"#utility.yul\":6932:6935   */\n      dup6\n        /* \"#utility.yul\":6928:6942   */\n      add\n        /* \"#utility.yul\":6921:6942   */\n      swap5\n      pop\n        /* \"#utility.yul\":6593:6952   */\n      pop\n      pop\n        /* \"#utility.yul\":6577:6581   */\n      0x20\n        /* \"#utility.yul\":6572:6575   */\n      dup2\n        /* \"#utility.yul\":6568:6582   */\n      add\n        /* \"#utility.yul\":6561:6582   */\n      swap1\n      pop\n        /* \"#utility.yul\":6517:6952   */\n      jump(tag_348)\n    tag_350:\n        /* \"#utility.yul\":6521:6542   */\n      pop\n        /* \"#utility.yul\":6125:6958   */\n      pop\n      pop\n        /* \"#utility.yul\":6013:6958   */\n      swap4\n      swap3\n      pop\n      pop\n      pop\n      jump\t// out\n        /* \"#utility.yul\":6980:7370   */\n    tag_232:\n        /* \"#utility.yul\":7061:7066   */\n      0x00\n        /* \"#utility.yul\":7110:7113   */\n      dup3\n        /* \"#utility.yul\":7103:7107   */\n      0x1f\n        /* \"#utility.yul\":7095:7101   */\n      dup4\n        /* \"#utility.yul\":7091:7108   */\n      add\n        /* \"#utility.yul\":7087:7114   */\n      slt\n        /* \"#utility.yul\":7077:7199   */\n      tag_355\n      jumpi\n        /* \"#utility.yul\":7118:7197   */\n      tag_356\n      tag_212\n      jump\t// in\n    tag_356:\n        /* \"#utility.yul\":7077:7199   */\n    tag_355:\n        /* \"#utility.yul\":7235:7241   */\n      dup2\n        /* \"#utility.yul\":7222:7242   */\n      calldataload\n        /* \"#utility.yul\":7260:7364   */\n      tag_357\n        /* \"#utility.yul\":7360:7363   */\n      dup5\n        /* \"#utility.yul\":7352:7358   */\n      dup3\n        /* \"#utility.yul\":7345:7349   */\n      0x20\n        /* \"#utility.yul\":7337:7343   */\n      dup7\n        /* \"#utility.yul\":7333:7350   */\n      add\n        /* \"#utility.yul\":7260:7364   */\n      tag_231\n      jump\t// in\n    tag_357:\n        /* \"#utility.yul\":7251:7364   */\n      swap2\n      pop\n        /* \"#utility.yul\":7067:7370   */\n      pop\n        /* \"#utility.yul\":6980:7370   */\n      swap3\n      swap2\n      pop\n      pop\n      jump\t// out\n        /* \"#utility.yul\":7376:9813   */\n    tag_30:\n        /* \"#utility.yul\":7690:7696   */\n      0x00\n        /* \"#utility.yul\":7698:7704   */\n      dup1\n        /* \"#utility.yul\":7706:7712   */\n      0x00\n        /* \"#utility.yul\":7714:7720   */\n      dup1\n        /* \"#utility.yul\":7722:7728   */\n      0x00\n        /* \"#utility.yul\":7730:7736   */\n      dup1\n        /* \"#utility.yul\":7779:7782   */\n      0xc0\n        /* \"#utility.yul\":7767:7776   */\n      dup8\n        /* \"#utility.yul\":7758:7765   */\n      dup10\n        /* \"#utility.yul\":7754:7777   */\n      sub\n        /* \"#utility.yul\":7750:7783   */\n      slt\n        /* \"#utility.yul\":7747:7867   */\n      iszero\n      tag_359\n      jumpi\n        /* \"#utility.yul\":7786:7865   */\n      tag_360\n      tag_210\n      jump\t// in\n    tag_360:\n        /* \"#utility.yul\":7747:7867   */\n    tag_359:\n        /* \"#utility.yul\":7934:7935   */\n      0x00\n        /* \"#utility.yul\":7923:7932   */\n      dup8\n        /* \"#utility.yul\":7919:7936   */\n      add\n        /* \"#utility.yul\":7906:7937   */\n      calldataload\n        /* \"#utility.yul\":7964:7982   */\n      0xffffffffffffffff\n        /* \"#utility.yul\":7956:7962   */\n      dup2\n        /* \"#utility.yul\":7953:7983   */\n      gt\n        /* \"#utility.yul\":7950:8067   */\n      iszero\n      tag_361\n      jumpi\n        /* \"#utility.yul\":7986:8065   */\n      tag_362\n      tag_211\n      jump\t// in\n    tag_362:\n        /* \"#utility.yul\":7950:8067   */\n    tag_361:\n        /* \"#utility.yul\":8091:8179   */\n      tag_363\n        /* \"#utility.yul\":8171:8178   */\n      dup10\n        /* \"#utility.yul\":8162:8168   */\n      dup3\n        /* \"#utility.yul\":8151:8160   */\n      dup11\n        /* \"#utility.yul\":8147:8169   */\n      add\n        /* \"#utility.yul\":8091:8179   */\n      tag_232\n      jump\t// in\n    tag_363:\n        /* \"#utility.yul\":8081:8179   */\n      swap7\n      pop\n        /* \"#utility.yul\":7877:8189   */\n      pop\n        /* \"#utility.yul\":8256:8258   */\n      0x20\n        /* \"#utility.yul\":8245:8254   */\n      dup8\n        /* \"#utility.yul\":8241:8259   */\n      add\n        /* \"#utility.yul\":8228:8260   */\n      calldataload\n        /* \"#utility.yul\":8287:8305   */\n      0xffffffffffffffff\n        /* \"#utility.yul\":8279:8285   */\n      dup2\n        /* \"#utility.yul\":8276:8306   */\n      gt\n        /* \"#utility.yul\":8273:8390   */\n      iszero\n      tag_364\n      jumpi\n        /* \"#utility.yul\":8309:8388   */\n      tag_365\n      tag_211\n      jump\t// in\n    tag_365:\n        /* \"#utility.yul\":8273:8390   */\n    tag_364:\n        /* \"#utility.yul\":8414:8502   */\n      tag_366\n        /* \"#utility.yul\":8494:8501   */\n      dup10\n        /* \"#utility.yul\":8485:8491   */\n      dup3\n        /* \"#utility.yul\":8474:8483   */\n      dup11\n        /* \"#utility.yul\":8470:8492   */\n      add\n        /* \"#utility.yul\":8414:8502   */\n      tag_232\n      jump\t// in\n    tag_366:\n        /* \"#utility.yul\":8404:8502   */\n      swap6\n      pop\n        /* \"#utility.yul\":8199:8512   */\n      pop\n        /* \"#utility.yul\":8579:8581   */\n      0x40\n        /* \"#utility.yul\":8568:8577   */\n      dup8\n        /* \"#utility.yul\":8564:8582   */\n      add\n        /* \"#utility.yul\":8551:8583   */\n      calldataload\n        /* \"#utility.yul\":8610:8628   */\n      0xffffffffffffffff\n        /* \"#utility.yul\":8602:8608   */\n      dup2\n        /* \"#utility.yul\":8599:8629   */\n      gt\n        /* \"#utility.yul\":8596:8713   */\n      iszero\n      tag_367\n      jumpi\n        /* \"#utility.yul\":8632:8711   */\n      tag_368\n      tag_211\n      jump\t// in\n    tag_368:\n        /* \"#utility.yul\":8596:8713   */\n    tag_367:\n        /* \"#utility.yul\":8737:8825   */\n      tag_369\n        /* \"#utility.yul\":8817:8824   */\n      dup10\n        /* \"#utility.yul\":8808:8814   */\n      dup3\n        /* \"#utility.yul\":8797:8806   */\n      dup11\n        /* \"#utility.yul\":8793:8815   */\n      add\n        /* \"#utility.yul\":8737:8825   */\n      tag_232\n      jump\t// in\n    tag_369:\n        /* \"#utility.yul\":8727:8825   */\n      swap5\n      pop\n        /* \"#utility.yul\":8522:8835   */\n      pop\n        /* \"#utility.yul\":8902:8904   */\n      0x60\n        /* \"#utility.yul\":8891:8900   */\n      dup8\n        /* \"#utility.yul\":8887:8905   */\n      add\n        /* \"#utility.yul\":8874:8906   */\n      calldataload\n        /* \"#utility.yul\":8933:8951   */\n      0xffffffffffffffff\n        /* \"#utility.yul\":8925:8931   */\n      dup2\n        /* \"#utility.yul\":8922:8952   */\n      gt\n        /* \"#utility.yul\":8919:9036   */\n      iszero\n      tag_370\n      jumpi\n        /* \"#utility.yul\":8955:9034   */\n      tag_371\n      tag_211\n      jump\t// in\n    tag_371:\n        /* \"#utility.yul\":8919:9036   */\n    tag_370:\n        /* \"#utility.yul\":9060:9148   */\n      tag_372\n        /* \"#utility.yul\":9140:9147   */\n      dup10\n        /* \"#utility.yul\":9131:9137   */\n      dup3\n        /* \"#utility.yul\":9120:9129   */\n      dup11\n        /* \"#utility.yul\":9116:9138   */\n      add\n        /* \"#utility.yul\":9060:9148   */\n      tag_232\n      jump\t// in\n    tag_372:\n        /* \"#utility.yul\":9050:9148   */\n      swap4\n      pop\n        /* \"#utility.yul\":8845:9158   */\n      pop\n        /* \"#utility.yul\":9225:9228   */\n      0x80\n        /* \"#utility.yul\":9214:9223   */\n      dup8\n        /* \"#utility.yul\":9210:9229   */\n      add\n        /* \"#utility.yul\":9197:9230   */\n      calldataload\n        /* \"#utility.yul\":9257:9275   */\n      0xffffffffffffffff\n        /* \"#utility.yul\":9249:9255   */\n      dup2\n        /* \"#utility.yul\":9246:9276   */\n      gt\n        /* \"#utility.yul\":9243:9360   */\n      iszero\n      tag_373\n      jumpi\n        /* \"#utility.yul\":9279:9358   */\n      tag_374\n      tag_211\n      jump\t// in\n    tag_374:\n        /* \"#utility.yul\":9243:9360   */\n    tag_373:\n        /* \"#utility.yul\":9384:9472   */\n      tag_375\n        /* \"#utility.yul\":9464:9471   */\n      dup10\n        /* \"#utility.yul\":9455:9461   */\n      dup3\n        /* \"#utility.yul\":9444:9453   */\n      dup11\n        /* \"#utility.yul\":9440:9462   */\n      add\n        /* \"#utility.yul\":9384:9472   */\n      tag_232\n      jump\t// in\n    tag_375:\n        /* \"#utility.yul\":9374:9472   */\n      swap3\n      pop\n        /* \"#utility.yul\":9168:9482   */\n      pop\n        /* \"#utility.yul\":9549:9552   */\n      0xa0\n        /* \"#utility.yul\":9538:9547   */\n      dup8\n        /* \"#utility.yul\":9534:9553   */\n      add\n        /* \"#utility.yul\":9521:9554   */\n      calldataload\n        /* \"#utility.yul\":9581:9599   */\n      0xffffffffffffffff\n        /* \"#utility.yul\":9573:9579   */\n      dup2\n        /* \"#utility.yul\":9570:9600   */\n      gt\n        /* \"#utility.yul\":9567:9684   */\n      iszero\n      tag_376\n      jumpi\n        /* \"#utility.yul\":9603:9682   */\n      tag_377\n      tag_211\n      jump\t// in\n    tag_377:\n        /* \"#utility.yul\":9567:9684   */\n    tag_376:\n        /* \"#utility.yul\":9708:9796   */\n      tag_378\n        /* \"#utility.yul\":9788:9795   */\n      dup10\n        /* \"#utility.yul\":9779:9785   */\n      dup3\n        /* \"#utility.yul\":9768:9777   */\n      dup11\n        /* \"#utility.yul\":9764:9786   */\n      add\n        /* \"#utility.yul\":9708:9796   */\n      tag_232\n      jump\t// in\n    tag_378:\n        /* \"#utility.yul\":9698:9796   */\n      swap2\n      pop\n        /* \"#utility.yul\":9492:9806   */\n      pop\n        /* \"#utility.yul\":7376:9813   */\n      swap3\n      swap6\n      pop\n      swap3\n      swap6\n      pop\n      swap3\n      swap6\n      jump\t// out\n        /* \"#utility.yul\":9833:10386   */\n    tag_233:\n        /* \"#utility.yul\":9891:9899   */\n      0x00\n        /* \"#utility.yul\":9901:9907   */\n      dup1\n        /* \"#utility.yul\":9951:9954   */\n      dup4\n        /* \"#utility.yul\":9944:9948   */\n      0x1f\n        /* \"#utility.yul\":9936:9942   */\n      dup5\n        /* \"#utility.yul\":9932:9949   */\n      add\n        /* \"#utility.yul\":9928:9955   */\n      slt\n        /* \"#utility.yul\":9918:10040   */\n      tag_380\n      jumpi\n        /* \"#utility.yul\":9959:10038   */\n      tag_381\n      tag_212\n      jump\t// in\n    tag_381:\n        /* \"#utility.yul\":9918:10040   */\n    tag_380:\n        /* \"#utility.yul\":10072:10078   */\n      dup3\n        /* \"#utility.yul\":10059:10079   */\n      calldataload\n        /* \"#utility.yul\":10049:10079   */\n      swap1\n      pop\n        /* \"#utility.yul\":10102:10120   */\n      0xffffffffffffffff\n        /* \"#utility.yul\":10094:10100   */\n      dup2\n        /* \"#utility.yul\":10091:10121   */\n      gt\n        /* \"#utility.yul\":10088:10205   */\n      iszero\n      tag_382\n      jumpi\n        /* \"#utility.yul\":10124:10203   */\n      tag_383\n      tag_213\n      jump\t// in\n    tag_383:\n        /* \"#utility.yul\":10088:10205   */\n    tag_382:\n        /* \"#utility.yul\":10238:10242   */\n      0x20\n        /* \"#utility.yul\":10230:10236   */\n      dup4\n        /* \"#utility.yul\":10226:10243   */\n      add\n        /* \"#utility.yul\":10214:10243   */\n      swap2\n      pop\n        /* \"#utility.yul\":10292:10295   */\n      dup4\n        /* \"#utility.yul\":10284:10288   */\n      0x01\n        /* \"#utility.yul\":10276:10282   */\n      dup3\n        /* \"#utility.yul\":10272:10289   */\n      mul\n        /* \"#utility.yul\":10262:10270   */\n      dup4\n        /* \"#utility.yul\":10258:10290   */\n      add\n        /* \"#utility.yul\":10255:10296   */\n      gt\n        /* \"#utility.yul\":10252:10380   */\n      iszero\n      tag_384\n      jumpi\n        /* \"#utility.yul\":10299:10378   */\n      tag_385\n      tag_214\n      jump\t// in\n    tag_385:\n        /* \"#utility.yul\":10252:10380   */\n    tag_384:\n        /* \"#utility.yul\":9833:10386   */\n      swap3\n      pop\n      swap3\n      swap1\n      pop\n      jump\t// out\n        /* \"#utility.yul\":10392:11246   */\n    tag_35:\n        /* \"#utility.yul\":10482:10488   */\n      0x00\n        /* \"#utility.yul\":10490:10496   */\n      dup1\n        /* \"#utility.yul\":10498:10504   */\n      0x00\n        /* \"#utility.yul\":10547:10549   */\n      0x40\n        /* \"#utility.yul\":10535:10544   */\n      dup5\n        /* \"#utility.yul\":10526:10533   */\n      dup7\n        /* \"#utility.yul\":10522:10545   */\n      sub\n        /* \"#utility.yul\":10518:10550   */\n      slt\n        /* \"#utility.yul\":10515:10634   */\n      iszero\n      tag_387\n      jumpi\n        /* \"#utility.yul\":10553:10632   */\n      tag_388\n      tag_210\n      jump\t// in\n    tag_388:\n        /* \"#utility.yul\":10515:10634   */\n    tag_387:\n        /* \"#utility.yul\":10701:10702   */\n      0x00\n        /* \"#utility.yul\":10690:10699   */\n      dup5\n        /* \"#utility.yul\":10686:10703   */\n      add\n        /* \"#utility.yul\":10673:10704   */\n      calldataload\n        /* \"#utility.yul\":10731:10749   */\n      0xffffffffffffffff\n        /* \"#utility.yul\":10723:10729   */\n      dup2\n        /* \"#utility.yul\":10720:10750   */\n      gt\n        /* \"#utility.yul\":10717:10834   */\n      iszero\n      tag_389\n      jumpi\n        /* \"#utility.yul\":10753:10832   */\n      tag_390\n      tag_211\n      jump\t// in\n    tag_390:\n        /* \"#utility.yul\":10717:10834   */\n    tag_389:\n        /* \"#utility.yul\":10858:10921   */\n      tag_391\n        /* \"#utility.yul\":10913:10920   */\n      dup7\n        /* \"#utility.yul\":10904:10910   */\n      dup3\n        /* \"#utility.yul\":10893:10902   */\n      dup8\n        /* \"#utility.yul\":10889:10911   */\n      add\n        /* \"#utility.yul\":10858:10921   */\n      tag_230\n      jump\t// in\n    tag_391:\n        /* \"#utility.yul\":10848:10921   */\n      swap4\n      pop\n        /* \"#utility.yul\":10644:10931   */\n      pop\n        /* \"#utility.yul\":10998:11000   */\n      0x20\n        /* \"#utility.yul\":10987:10996   */\n      dup5\n        /* \"#utility.yul\":10983:11001   */\n      add\n        /* \"#utility.yul\":10970:11002   */\n      calldataload\n        /* \"#utility.yul\":11029:11047   */\n      0xffffffffffffffff\n        /* \"#utility.yul\":11021:11027   */\n      dup2\n        /* \"#utility.yul\":11018:11048   */\n      gt\n        /* \"#utility.yul\":11015:11132   */\n      iszero\n      tag_392\n      jumpi\n        /* \"#utility.yul\":11051:11130   */\n      tag_393\n      tag_211\n      jump\t// in\n    tag_393:\n        /* \"#utility.yul\":11015:11132   */\n    tag_392:\n        /* \"#utility.yul\":11164:11229   */\n      tag_394\n        /* \"#utility.yul\":11221:11228   */\n      dup7\n        /* \"#utility.yul\":11212:11218   */\n      dup3\n        /* \"#utility.yul\":11201:11210   */\n      dup8\n        /* \"#utility.yul\":11197:11219   */\n      add\n        /* \"#utility.yul\":11164:11229   */\n      tag_233\n      jump\t// in\n    tag_394:\n        /* \"#utility.yul\":11146:11229   */\n      swap3\n      pop\n      swap3\n      pop\n        /* \"#utility.yul\":10941:11239   */\n      pop\n        /* \"#utility.yul\":10392:11246   */\n      swap3\n      pop\n      swap3\n      pop\n      swap3\n      jump\t// out\n        /* \"#utility.yul\":11252:11342   */\n    tag_234:\n        /* \"#utility.yul\":11286:11293   */\n      0x00\n        /* \"#utility.yul\":11329:11334   */\n      dup2\n        /* \"#utility.yul\":11322:11335   */\n      iszero\n        /* \"#utility.yul\":11315:11336   */\n      iszero\n        /* \"#utility.yul\":11304:11336   */\n      swap1\n      pop\n        /* \"#utility.yul\":11252:11342   */\n      swap2\n      swap1\n      pop\n      jump\t// out\n        /* \"#utility.yul\":11348:11457   */\n    tag_235:\n        /* \"#utility.yul\":11429:11450   */\n      tag_397\n        /* \"#utility.yul\":11444:11449   */\n      dup2\n        /* \"#utility.yul\":11429:11450   */\n      tag_234\n      jump\t// in\n    tag_397:\n        /* \"#utility.yul\":11424:11427   */\n      dup3\n        /* \"#utility.yul\":11417:11451   */\n      mstore\n        /* \"#utility.yul\":11348:11457   */\n      pop\n      pop\n      jump\t// out\n        /* \"#utility.yul\":11463:11673   */\n    tag_38:\n        /* \"#utility.yul\":11550:11554   */\n      0x00\n        /* \"#utility.yul\":11588:11590   */\n      0x20\n        /* \"#utility.yul\":11577:11586   */\n      dup3\n        /* \"#utility.yul\":11573:11591   */\n      add\n        /* \"#utility.yul\":11565:11591   */\n      swap1\n      pop\n        /* \"#utility.yul\":11601:11666   */\n      tag_399\n        /* \"#utility.yul\":11663:11664   */\n      0x00\n        /* \"#utility.yul\":11652:11661   */\n      dup4\n        /* \"#utility.yul\":11648:11665   */\n      add\n        /* \"#utility.yul\":11639:11645   */\n      dup5\n        /* \"#utility.yul\":11601:11666   */\n      tag_235\n      jump\t// in\n    tag_399:\n        /* \"#utility.yul\":11463:11673   */\n      swap3\n      swap2\n      pop\n      pop\n      jump\t// out\n        /* \"#utility.yul\":11679:11989   */\n    tag_236:\n        /* \"#utility.yul\":11755:11759   */\n      0x00\n        /* \"#utility.yul\":11845:11863   */\n      0xffffffffffffffff\n        /* \"#utility.yul\":11837:11843   */\n      dup3\n        /* \"#utility.yul\":11834:11864   */\n      gt\n        /* \"#utility.yul\":11831:11887   */\n      iszero\n      tag_401\n      jumpi\n        /* \"#utility.yul\":11867:11885   */\n      tag_402\n      tag_180\n      jump\t// in\n    tag_402:\n        /* \"#utility.yul\":11831:11887   */\n    tag_401:\n        /* \"#utility.yul\":11917:11921   */\n      0x20\n        /* \"#utility.yul\":11909:11915   */\n      dup3\n        /* \"#utility.yul\":11905:11922   */\n      mul\n        /* \"#utility.yul\":11897:11922   */\n      swap1\n      pop\n        /* \"#utility.yul\":11977:11981   */\n      0x20\n        /* \"#utility.yul\":11971:11975   */\n      dup2\n        /* \"#utility.yul\":11967:11982   */\n      add\n        /* \"#utility.yul\":11959:11982   */\n      swap1\n      pop\n        /* \"#utility.yul\":11679:11989   */\n      swap2\n      swap1\n      pop\n      jump\t// out\n        /* \"#utility.yul\":12011:12718   */\n    tag_237:\n        /* \"#utility.yul\":12106:12111   */\n      0x00\n        /* \"#utility.yul\":12131:12211   */\n      tag_404\n        /* \"#utility.yul\":12147:12210   */\n      tag_405\n        /* \"#utility.yul\":12203:12209   */\n      dup5\n        /* \"#utility.yul\":12147:12210   */\n      tag_236\n      jump\t// in\n    tag_405:\n        /* \"#utility.yul\":12131:12211   */\n      tag_224\n      jump\t// in\n    tag_404:\n        /* \"#utility.yul\":12122:12211   */\n      swap1\n      pop\n        /* \"#utility.yul\":12231:12236   */\n      dup1\n        /* \"#utility.yul\":12260:12266   */\n      dup4\n        /* \"#utility.yul\":12253:12258   */\n      dup3\n        /* \"#utility.yul\":12246:12267   */\n      mstore\n        /* \"#utility.yul\":12294:12298   */\n      0x20\n        /* \"#utility.yul\":12287:12292   */\n      dup3\n        /* \"#utility.yul\":12283:12299   */\n      add\n        /* \"#utility.yul\":12276:12299   */\n      swap1\n      pop\n        /* \"#utility.yul\":12347:12351   */\n      0x20\n        /* \"#utility.yul\":12339:12345   */\n      dup5\n        /* \"#utility.yul\":12335:12352   */\n      mul\n        /* \"#utility.yul\":12327:12333   */\n      dup4\n        /* \"#utility.yul\":12323:12353   */\n      add\n        /* \"#utility.yul\":12376:12379   */\n      dup6\n        /* \"#utility.yul\":12368:12374   */\n      dup2\n        /* \"#utility.yul\":12365:12380   */\n      gt\n        /* \"#utility.yul\":12362:12484   */\n      iszero\n      tag_406\n      jumpi\n        /* \"#utility.yul\":12395:12474   */\n      tag_407\n      tag_214\n      jump\t// in\n    tag_407:\n        /* \"#utility.yul\":12362:12484   */\n    tag_406:\n        /* \"#utility.yul\":12510:12516   */\n      dup4\n        /* \"#utility.yul\":12493:12712   */\n    tag_408:\n        /* \"#utility.yul\":12527:12533   */\n      dup2\n        /* \"#utility.yul\":12522:12525   */\n      dup2\n        /* \"#utility.yul\":12519:12534   */\n      lt\n        /* \"#utility.yul\":12493:12712   */\n      iszero\n      tag_410\n      jumpi\n        /* \"#utility.yul\":12602:12605   */\n      dup1\n        /* \"#utility.yul\":12631:12667   */\n      tag_411\n        /* \"#utility.yul\":12663:12666   */\n      dup9\n        /* \"#utility.yul\":12651:12661   */\n      dup3\n        /* \"#utility.yul\":12631:12667   */\n      tag_220\n      jump\t// in\n    tag_411:\n        /* \"#utility.yul\":12626:12629   */\n      dup5\n        /* \"#utility.yul\":12619:12668   */\n      mstore\n        /* \"#utility.yul\":12697:12701   */\n      0x20\n        /* \"#utility.yul\":12692:12695   */\n      dup5\n        /* \"#utility.yul\":12688:12702   */\n      add\n        /* \"#utility.yul\":12681:12702   */\n      swap4\n      pop\n        /* \"#utility.yul\":12569:12712   */\n      pop\n        /* \"#utility.yul\":12553:12557   */\n      0x20\n        /* \"#utility.yul\":12548:12551   */\n      dup2\n        /* \"#utility.yul\":12544:12558   */\n      add\n        /* \"#utility.yul\":12537:12558   */\n      swap1\n      pop\n        /* \"#utility.yul\":12493:12712   */\n      jump(tag_408)\n    tag_410:\n        /* \"#utility.yul\":12497:12518   */\n      pop\n        /* \"#utility.yul\":12112:12718   */\n      pop\n      pop\n        /* \"#utility.yul\":12011:12718   */\n      swap4\n      swap3\n      pop\n      pop\n      pop\n      jump\t// out\n        /* \"#utility.yul\":12740:13108   */\n    tag_238:\n        /* \"#utility.yul\":12810:12815   */\n      0x00\n        /* \"#utility.yul\":12859:12862   */\n      dup3\n        /* \"#utility.yul\":12852:12856   */\n      0x1f\n        /* \"#utility.yul\":12844:12850   */\n      dup4\n        /* \"#utility.yul\":12840:12857   */\n      add\n        /* \"#utility.yul\":12836:12863   */\n      slt\n        /* \"#utility.yul\":12826:12948   */\n      tag_413\n      jumpi\n        /* \"#utility.yul\":12867:12946   */\n      tag_414\n      tag_212\n      jump\t// in\n    tag_414:\n        /* \"#utility.yul\":12826:12948   */\n    tag_413:\n        /* \"#utility.yul\":12984:12990   */\n      dup2\n        /* \"#utility.yul\":12971:12991   */\n      calldataload\n        /* \"#utility.yul\":13009:13102   */\n      tag_415\n        /* \"#utility.yul\":13098:13101   */\n      dup5\n        /* \"#utility.yul\":13090:13096   */\n      dup3\n        /* \"#utility.yul\":13083:13087   */\n      0x20\n        /* \"#utility.yul\":13075:13081   */\n      dup7\n        /* \"#utility.yul\":13071:13088   */\n      add\n        /* \"#utility.yul\":13009:13102   */\n      tag_237\n      jump\t// in\n    tag_415:\n        /* \"#utility.yul\":13000:13102   */\n      swap2\n      pop\n        /* \"#utility.yul\":12816:13108   */\n      pop\n        /* \"#utility.yul\":12740:13108   */\n      swap3\n      swap2\n      pop\n      pop\n      jump\t// out\n        /* \"#utility.yul\":13114:13651   */\n    tag_42:\n        /* \"#utility.yul\":13197:13203   */\n      0x00\n        /* \"#utility.yul\":13246:13248   */\n      0x20\n        /* \"#utility.yul\":13234:13243   */\n      dup3\n        /* \"#utility.yul\":13225:13232   */\n      dup5\n        /* \"#utility.yul\":13221:13244   */\n      sub\n        /* \"#utility.yul\":13217:13249   */\n      slt\n        /* \"#utility.yul\":13214:13333   */\n      iszero\n      tag_417\n      jumpi\n        /* \"#utility.yul\":13252:13331   */\n      tag_418\n      tag_210\n      jump\t// in\n    tag_418:\n        /* \"#utility.yul\":13214:13333   */\n    tag_417:\n        /* \"#utility.yul\":13400:13401   */\n      0x00\n        /* \"#utility.yul\":13389:13398   */\n      dup3\n        /* \"#utility.yul\":13385:13402   */\n      add\n        /* \"#utility.yul\":13372:13403   */\n      calldataload\n        /* \"#utility.yul\":13430:13448   */\n      0xffffffffffffffff\n        /* \"#utility.yul\":13422:13428   */\n      dup2\n        /* \"#utility.yul\":13419:13449   */\n      gt\n        /* \"#utility.yul\":13416:13533   */\n      iszero\n      tag_419\n      jumpi\n        /* \"#utility.yul\":13452:13531   */\n      tag_420\n      tag_211\n      jump\t// in\n    tag_420:\n        /* \"#utility.yul\":13416:13533   */\n    tag_419:\n        /* \"#utility.yul\":13557:13634   */\n      tag_421\n        /* \"#utility.yul\":13626:13633   */\n      dup5\n        /* \"#utility.yul\":13617:13623   */\n      dup3\n        /* \"#utility.yul\":13606:13615   */\n      dup6\n        /* \"#utility.yul\":13602:13624   */\n      add\n        /* \"#utility.yul\":13557:13634   */\n      tag_238\n      jump\t// in\n    tag_421:\n        /* \"#utility.yul\":13547:13634   */\n      swap2\n      pop\n        /* \"#utility.yul\":13343:13644   */\n      pop\n        /* \"#utility.yul\":13114:13651   */\n      swap3\n      swap2\n      pop\n      pop\n      jump\t// out\n        /* \"#utility.yul\":13657:14216   */\n    tag_48:\n        /* \"#utility.yul\":13751:13757   */\n      0x00\n        /* \"#utility.yul\":13800:13802   */\n      0x20\n        /* \"#utility.yul\":13788:13797   */\n      dup3\n        /* \"#utility.yul\":13779:13786   */\n      dup5\n        /* \"#utility.yul\":13775:13798   */\n      sub\n        /* \"#utility.yul\":13771:13803   */\n      slt\n        /* \"#utility.yul\":13768:13887   */\n      iszero\n      tag_423\n      jumpi\n        /* \"#utility.yul\":13806:13885   */\n      tag_424\n      tag_210\n      jump\t// in\n    tag_424:\n        /* \"#utility.yul\":13768:13887   */\n    tag_423:\n        /* \"#utility.yul\":13954:13955   */\n      0x00\n        /* \"#utility.yul\":13943:13952   */\n      dup3\n        /* \"#utility.yul\":13939:13956   */\n      add\n        /* \"#utility.yul\":13926:13957   */\n      calldataload\n        /* \"#utility.yul\":13984:14002   */\n      0xffffffffffffffff\n        /* \"#utility.yul\":13976:13982   */\n      dup2\n        /* \"#utility.yul\":13973:14003   */\n      gt\n        /* \"#utility.yul\":13970:14087   */\n      iszero\n      tag_425\n      jumpi\n        /* \"#utility.yul\":14006:14085   */\n      tag_426\n      tag_211\n      jump\t// in\n    tag_426:\n        /* \"#utility.yul\":13970:14087   */\n    tag_425:\n        /* \"#utility.yul\":14111:14199   */\n      tag_427\n        /* \"#utility.yul\":14191:14198   */\n      dup5\n        /* \"#utility.yul\":14182:14188   */\n      dup3\n        /* \"#utility.yul\":14171:14180   */\n      dup6\n        /* \"#utility.yul\":14167:14189   */\n      add\n        /* \"#utility.yul\":14111:14199   */\n      tag_232\n      jump\t// in\n    tag_427:\n        /* \"#utility.yul\":14101:14199   */\n      swap2\n      pop\n        /* \"#utility.yul\":13897:14209   */\n      pop\n        /* \"#utility.yul\":13657:14216   */\n      swap3\n      swap2\n      pop\n      pop\n      jump\t// out\n        /* \"#utility.yul\":14222:14335   */\n    tag_239:\n        /* \"#utility.yul\":14288:14294   */\n      0x00\n        /* \"#utility.yul\":14322:14327   */\n      dup2\n        /* \"#utility.yul\":14316:14328   */\n      mload\n        /* \"#utility.yul\":14306:14328   */\n      swap1\n      pop\n        /* \"#utility.yul\":14222:14335   */\n      swap2\n      swap1\n      pop\n      jump\t// out\n        /* \"#utility.yul\":14341:14524   */\n    tag_240:\n        /* \"#utility.yul\":14439:14450   */\n      0x00\n        /* \"#utility.yul\":14473:14479   */\n      dup3\n        /* \"#utility.yul\":14468:14471   */\n      dup3\n        /* \"#utility.yul\":14461:14480   */\n      mstore\n        /* \"#utility.yul\":14513:14517   */\n      0x20\n        /* \"#utility.yul\":14508:14511   */\n      dup3\n        /* \"#utility.yul\":14504:14518   */\n      add\n        /* \"#utility.yul\":14489:14518   */\n      swap1\n      pop\n        /* \"#utility.yul\":14341:14524   */\n      swap3\n      swap2\n      pop\n      pop\n      jump\t// out\n        /* \"#utility.yul\":14530:14661   */\n    tag_241:\n        /* \"#utility.yul\":14596:14600   */\n      0x00\n        /* \"#utility.yul\":14619:14622   */\n      dup2\n        /* \"#utility.yul\":14611:14622   */\n      swap1\n      pop\n        /* \"#utility.yul\":14649:14653   */\n      0x20\n        /* \"#utility.yul\":14644:14647   */\n      dup3\n        /* \"#utility.yul\":14640:14654   */\n      add\n        /* \"#utility.yul\":14632:14654   */\n      swap1\n      pop\n        /* \"#utility.yul\":14530:14661   */\n      swap2\n      swap1\n      pop\n      jump\t// out\n        /* \"#utility.yul\":14667:14772   */\n    tag_242:\n        /* \"#utility.yul\":14742:14765   */\n      tag_432\n        /* \"#utility.yul\":14759:14764   */\n      dup2\n        /* \"#utility.yul\":14742:14765   */\n      tag_218\n      jump\t// in\n    tag_432:\n        /* \"#utility.yul\":14737:14740   */\n      dup3\n        /* \"#utility.yul\":14730:14766   */\n      mstore\n        /* \"#utility.yul\":14667:14772   */\n      pop\n      pop\n      jump\t// out\n        /* \"#utility.yul\":14778:14953   */\n    tag_243:\n        /* \"#utility.yul\":14845:14855   */\n      0x00\n        /* \"#utility.yul\":14866:14910   */\n      tag_434\n        /* \"#utility.yul\":14906:14909   */\n      dup4\n        /* \"#utility.yul\":14898:14904   */\n      dup4\n        /* \"#utility.yul\":14866:14910   */\n      tag_242\n      jump\t// in\n    tag_434:\n        /* \"#utility.yul\":14942:14946   */\n      0x20\n        /* \"#utility.yul\":14937:14940   */\n      dup4\n        /* \"#utility.yul\":14933:14947   */\n      add\n        /* \"#utility.yul\":14919:14947   */\n      swap1\n      pop\n        /* \"#utility.yul\":14778:14953   */\n      swap3\n      swap2\n      pop\n      pop\n      jump\t// out\n        /* \"#utility.yul\":14959:15071   */\n    tag_244:\n        /* \"#utility.yul\":15028:15032   */\n      0x00\n        /* \"#utility.yul\":15060:15064   */\n      0x20\n        /* \"#utility.yul\":15055:15058   */\n      dup3\n        /* \"#utility.yul\":15051:15065   */\n      add\n        /* \"#utility.yul\":15043:15065   */\n      swap1\n      pop\n        /* \"#utility.yul\":14959:15071   */\n      swap2\n      swap1\n      pop\n      jump\t// out\n        /* \"#utility.yul\":15105:15829   */\n    tag_245:\n        /* \"#utility.yul\":15222:15225   */\n      0x00\n        /* \"#utility.yul\":15251:15304   */\n      tag_437\n        /* \"#utility.yul\":15298:15303   */\n      dup3\n        /* \"#utility.yul\":15251:15304   */\n      tag_239\n      jump\t// in\n    tag_437:\n        /* \"#utility.yul\":15320:15405   */\n      tag_438\n        /* \"#utility.yul\":15398:15404   */\n      dup2\n        /* \"#utility.yul\":15393:15396   */\n      dup6\n        /* \"#utility.yul\":15320:15405   */\n      tag_240\n      jump\t// in\n    tag_438:\n        /* \"#utility.yul\":15313:15405   */\n      swap4\n      pop\n        /* \"#utility.yul\":15429:15484   */\n      tag_439\n        /* \"#utility.yul\":15478:15483   */\n      dup4\n        /* \"#utility.yul\":15429:15484   */\n      tag_241\n      jump\t// in\n    tag_439:\n        /* \"#utility.yul\":15507:15514   */\n      dup1\n        /* \"#utility.yul\":15538:15539   */\n      0x00\n        /* \"#utility.yul\":15523:15804   */\n    tag_440:\n        /* \"#utility.yul\":15548:15554   */\n      dup4\n        /* \"#utility.yul\":15545:15546   */\n      dup2\n        /* \"#utility.yul\":15542:15555   */\n      lt\n        /* \"#utility.yul\":15523:15804   */\n      iszero\n      tag_442\n      jumpi\n        /* \"#utility.yul\":15624:15630   */\n      dup2\n        /* \"#utility.yul\":15618:15631   */\n      mload\n        /* \"#utility.yul\":15651:15712   */\n      tag_443\n        /* \"#utility.yul\":15708:15711   */\n      dup9\n        /* \"#utility.yul\":15693:15706   */\n      dup3\n        /* \"#utility.yul\":15651:15712   */\n      tag_243\n      jump\t// in\n    tag_443:\n        /* \"#utility.yul\":15644:15712   */\n      swap8\n      pop\n        /* \"#utility.yul\":15735:15794   */\n      tag_444\n        /* \"#utility.yul\":15787:15793   */\n      dup4\n        /* \"#utility.yul\":15735:15794   */\n      tag_244\n      jump\t// in\n    tag_444:\n        /* \"#utility.yul\":15725:15794   */\n      swap3\n      pop\n        /* \"#utility.yul\":15583:15804   */\n      pop\n        /* \"#utility.yul\":15570:15571   */\n      0x01\n        /* \"#utility.yul\":15567:15568   */\n      dup2\n        /* \"#utility.yul\":15563:15572   */\n      add\n        /* \"#utility.yul\":15558:15572   */\n      swap1\n      pop\n        /* \"#utility.yul\":15523:15804   */\n      jump(tag_440)\n    tag_442:\n        /* \"#utility.yul\":15527:15541   */\n      pop\n        /* \"#utility.yul\":15820:15823   */\n      dup6\n        /* \"#utility.yul\":15813:15823   */\n      swap4\n      pop\n        /* \"#utility.yul\":15227:15829   */\n      pop\n      pop\n      pop\n        /* \"#utility.yul\":15105:15829   */\n      swap3\n      swap2\n      pop\n      pop\n      jump\t// out\n        /* \"#utility.yul\":15835:16204   */\n    tag_51:\n        /* \"#utility.yul\":15976:15980   */\n      0x00\n        /* \"#utility.yul\":16014:16016   */\n      0x20\n        /* \"#utility.yul\":16003:16012   */\n      dup3\n        /* \"#utility.yul\":15999:16017   */\n      add\n        /* \"#utility.yul\":15991:16017   */\n      swap1\n      pop\n        /* \"#utility.yul\":16063:16072   */\n      dup2\n        /* \"#utility.yul\":16057:16061   */\n      dup2\n        /* \"#utility.yul\":16053:16073   */\n      sub\n        /* \"#utility.yul\":16049:16050   */\n      0x00\n        /* \"#utility.yul\":16038:16047   */\n      dup4\n        /* \"#utility.yul\":16034:16051   */\n      add\n        /* \"#utility.yul\":16027:16074   */\n      mstore\n        /* \"#utility.yul\":16091:16197   */\n      tag_446\n        /* \"#utility.yul\":16192:16196   */\n      dup2\n        /* \"#utility.yul\":16183:16189   */\n      dup5\n        /* \"#utility.yul\":16091:16197   */\n      tag_245\n      jump\t// in\n    tag_446:\n        /* \"#utility.yul\":16083:16197   */\n      swap1\n      pop\n        /* \"#utility.yul\":15835:16204   */\n      swap3\n      swap2\n      pop\n      pop\n      jump\t// out\n        /* \"#utility.yul\":16210:16390   */\n    tag_59:\n        /* \"#utility.yul\":16258:16335   */\n      0x4e487b7100000000000000000000000000000000000000000000000000000000\n        /* \"#utility.yul\":16255:16256   */\n      0x00\n        /* \"#utility.yul\":16248:16336   */\n      mstore\n        /* \"#utility.yul\":16355:16359   */\n      0x32\n        /* \"#utility.yul\":16352:16353   */\n      0x04\n        /* \"#utility.yul\":16345:16360   */\n      mstore\n        /* \"#utility.yul\":16379:16383   */\n      0x24\n        /* \"#utility.yul\":16376:16377   */\n      0x00\n        /* \"#utility.yul\":16369:16384   */\n      revert\n        /* \"#utility.yul\":16396:16576   */\n    tag_246:\n        /* \"#utility.yul\":16444:16521   */\n      0x4e487b7100000000000000000000000000000000000000000000000000000000\n        /* \"#utility.yul\":16441:16442   */\n      0x00\n        /* \"#utility.yul\":16434:16522   */\n      mstore\n        /* \"#utility.yul\":16541:16545   */\n      0x22\n        /* \"#utility.yul\":16538:16539   */\n      0x04\n        /* \"#utility.yul\":16531:16546   */\n      mstore\n        /* \"#utility.yul\":16565:16569   */\n      0x24\n        /* \"#utility.yul\":16562:16563   */\n      0x00\n        /* \"#utility.yul\":16555:16570   */\n      revert\n        /* \"#utility.yul\":16582:16902   */\n    tag_62:\n        /* \"#utility.yul\":16626:16632   */\n      0x00\n        /* \"#utility.yul\":16663:16664   */\n      0x02\n        /* \"#utility.yul\":16657:16661   */\n      dup3\n        /* \"#utility.yul\":16653:16665   */\n      div\n        /* \"#utility.yul\":16643:16665   */\n      swap1\n      pop\n        /* \"#utility.yul\":16710:16711   */\n      0x01\n        /* \"#utility.yul\":16704:16708   */\n      dup3\n        /* \"#utility.yul\":16700:16712   */\n      and\n        /* \"#utility.yul\":16731:16749   */\n      dup1\n        /* \"#utility.yul\":16721:16802   */\n      tag_450\n      jumpi\n        /* \"#utility.yul\":16787:16791   */\n      0x7f\n        /* \"#utility.yul\":16779:16785   */\n      dup3\n        /* \"#utility.yul\":16775:16792   */\n      and\n        /* \"#utility.yul\":16765:16792   */\n      swap2\n      pop\n        /* \"#utility.yul\":16721:16802   */\n    tag_450:\n        /* \"#utility.yul\":16849:16851   */\n      0x20\n        /* \"#utility.yul\":16841:16847   */\n      dup3\n        /* \"#utility.yul\":16838:16852   */\n      lt\n        /* \"#utility.yul\":16818:16836   */\n      dup2\n        /* \"#utility.yul\":16815:16853   */\n      sub\n        /* \"#utility.yul\":16812:16896   */\n      tag_451\n      jumpi\n        /* \"#utility.yul\":16868:16886   */\n      tag_452\n      tag_246\n      jump\t// in\n    tag_452:\n        /* \"#utility.yul\":16812:16896   */\n    tag_451:\n        /* \"#utility.yul\":16633:16902   */\n      pop\n        /* \"#utility.yul\":16582:16902   */\n      swap2\n      swap1\n      pop\n      jump\t// out\n        /* \"#utility.yul\":16908:17025   */\n    tag_247:\n        /* \"#utility.yul\":17017:17018   */\n      0x00\n        /* \"#utility.yul\":17014:17015   */\n      dup1\n        /* \"#utility.yul\":17007:17019   */\n      revert\n        /* \"#utility.yul\":17031:17148   */\n    tag_248:\n        /* \"#utility.yul\":17140:17141   */\n      0x00\n        /* \"#utility.yul\":17137:17138   */\n      dup1\n        /* \"#utility.yul\":17130:17142   */\n      revert\n        /* \"#utility.yul\":17154:17271   */\n    tag_249:\n        /* \"#utility.yul\":17263:17264   */\n      0x00\n        /* \"#utility.yul\":17260:17261   */\n      dup1\n        /* \"#utility.yul\":17253:17265   */\n      revert\n        /* \"#utility.yul\":17277:18002   */\n    tag_70:\n        /* \"#utility.yul\":17355:17359   */\n      0x00\n        /* \"#utility.yul\":17361:17367   */\n      dup1\n        /* \"#utility.yul\":17417:17428   */\n      dup4\n        /* \"#utility.yul\":17404:17429   */\n      calldataload\n        /* \"#utility.yul\":17517:17518   */\n      0x01\n        /* \"#utility.yul\":17511:17515   */\n      0x20\n        /* \"#utility.yul\":17507:17519   */\n      sub\n        /* \"#utility.yul\":17496:17504   */\n      dup5\n        /* \"#utility.yul\":17480:17494   */\n      calldatasize\n        /* \"#utility.yul\":17476:17505   */\n      sub\n        /* \"#utility.yul\":17472:17520   */\n      sub\n        /* \"#utility.yul\":17452:17470   */\n      dup2\n        /* \"#utility.yul\":17448:17521   */\n      slt\n        /* \"#utility.yul\":17438:17606   */\n      tag_457\n      jumpi\n        /* \"#utility.yul\":17525:17604   */\n      tag_458\n      tag_247\n      jump\t// in\n    tag_458:\n        /* \"#utility.yul\":17438:17606   */\n    tag_457:\n        /* \"#utility.yul\":17637:17655   */\n      dup1\n        /* \"#utility.yul\":17627:17635   */\n      dup5\n        /* \"#utility.yul\":17623:17656   */\n      add\n        /* \"#utility.yul\":17615:17656   */\n      swap3\n      pop\n        /* \"#utility.yul\":17689:17693   */\n      dup3\n        /* \"#utility.yul\":17676:17694   */\n      calldataload\n        /* \"#utility.yul\":17666:17694   */\n      swap2\n      pop\n        /* \"#utility.yul\":17717:17735   */\n      0xffffffffffffffff\n        /* \"#utility.yul\":17709:17715   */\n      dup3\n        /* \"#utility.yul\":17706:17736   */\n      gt\n        /* \"#utility.yul\":17703:17820   */\n      iszero\n      tag_459\n      jumpi\n        /* \"#utility.yul\":17739:17818   */\n      tag_460\n      tag_248\n      jump\t// in\n    tag_460:\n        /* \"#utility.yul\":17703:17820   */\n    tag_459:\n        /* \"#utility.yul\":17847:17849   */\n      0x20\n        /* \"#utility.yul\":17841:17845   */\n      dup4\n        /* \"#utility.yul\":17837:17850   */\n      add\n        /* \"#utility.yul\":17829:17850   */\n      swap3\n      pop\n        /* \"#utility.yul\":17904:17908   */\n      0x01\n        /* \"#utility.yul\":17896:17902   */\n      dup3\n        /* \"#utility.yul\":17892:17909   */\n      mul\n        /* \"#utility.yul\":17876:17890   */\n      calldatasize\n        /* \"#utility.yul\":17872:17910   */\n      sub\n        /* \"#utility.yul\":17866:17870   */\n      dup4\n        /* \"#utility.yul\":17862:17911   */\n      sgt\n        /* \"#utility.yul\":17859:17995   */\n      iszero\n      tag_461\n      jumpi\n        /* \"#utility.yul\":17914:17993   */\n      tag_462\n      tag_249\n      jump\t// in\n    tag_462:\n        /* \"#utility.yul\":17859:17995   */\n    tag_461:\n        /* \"#utility.yul\":17368:18002   */\n      pop\n        /* \"#utility.yul\":17277:18002   */\n      swap3\n      pop\n      swap3\n      swap1\n      pop\n      jump\t// out\n        /* \"#utility.yul\":18008:18188   */\n    tag_250:\n        /* \"#utility.yul\":18056:18133   */\n      0x4e487b7100000000000000000000000000000000000000000000000000000000\n        /* \"#utility.yul\":18053:18054   */\n      0x00\n        /* \"#utility.yul\":18046:18134   */\n      mstore\n        /* \"#utility.yul\":18153:18157   */\n      0x11\n        /* \"#utility.yul\":18150:18151   */\n      0x04\n        /* \"#utility.yul\":18143:18158   */\n      mstore\n        /* \"#utility.yul\":18177:18181   */\n      0x24\n        /* \"#utility.yul\":18174:18175   */\n      0x00\n        /* \"#utility.yul\":18167:18182   */\n      revert\n        /* \"#utility.yul\":18194:18427   */\n    tag_73:\n        /* \"#utility.yul\":18233:18236   */\n      0x00\n        /* \"#utility.yul\":18256:18280   */\n      tag_465\n        /* \"#utility.yul\":18274:18279   */\n      dup3\n        /* \"#utility.yul\":18256:18280   */\n      tag_216\n      jump\t// in\n    tag_465:\n        /* \"#utility.yul\":18247:18280   */\n      swap2\n      pop\n        /* \"#utility.yul\":18302:18368   */\n      0xffffffffffffffffffffffffffffffffffffffffffffffffffffffffffffffff\n        /* \"#utility.yul\":18295:18300   */\n      dup3\n        /* \"#utility.yul\":18292:18369   */\n      sub\n        /* \"#utility.yul\":18289:18392   */\n      tag_466\n      jumpi\n        /* \"#utility.yul\":18372:18390   */\n      tag_467\n      tag_250\n      jump\t// in\n    tag_467:\n        /* \"#utility.yul\":18289:18392   */\n    tag_466:\n        /* \"#utility.yul\":18419:18420   */\n      0x01\n        /* \"#utility.yul\":18412:18417   */\n      dup3\n        /* \"#utility.yul\":18408:18421   */\n      add\n        /* \"#utility.yul\":18401:18421   */\n      swap1\n      pop\n        /* \"#utility.yul\":18194:18427   */\n      swap2\n      swap1\n      pop\n      jump\t// out\n        /* \"#utility.yul\":18433:18519   */\n    tag_251:\n        /* \"#utility.yul\":18468:18475   */\n      0x00\n        /* \"#utility.yul\":18508:18512   */\n      0xff\n        /* \"#utility.yul\":18501:18506   */\n      dup3\n        /* \"#utility.yul\":18497:18513   */\n      and\n        /* \"#utility.yul\":18486:18513   */\n      swap1\n      pop\n        /* \"#utility.yul\":18433:18519   */\n      swap2\n      swap1\n      pop\n      jump\t// out\n        /* \"#utility.yul\":18525:18713   */\n    tag_82:\n        /* \"#utility.yul\":18563:18566   */\n      0x00\n        /* \"#utility.yul\":18582:18600   */\n      tag_470\n        /* \"#utility.yul\":18598:18599   */\n      dup3\n        /* \"#utility.yul\":18582:18600   */\n      tag_251\n      jump\t// in\n    tag_470:\n        /* \"#utility.yul\":18577:18600   */\n      swap2\n      pop\n        /* \"#utility.yul\":18614:18632   */\n      tag_471\n        /* \"#utility.yul\":18630:18631   */\n      dup4\n        /* \"#utility.yul\":18614:18632   */\n      tag_251\n      jump\t// in\n    tag_471:\n        /* \"#utility.yul\":18609:18632   */\n      swap3\n      pop\n        /* \"#utility.yul\":18655:18656   */\n      dup3\n        /* \"#utility.yul\":18652:18653   */\n      dup3\n        /* \"#utility.yul\":18648:18657   */\n      add\n        /* \"#utility.yul\":18641:18657   */\n      swap1\n      pop\n        /* \"#utility.yul\":18678:18682   */\n      0xff\n        /* \"#utility.yul\":18673:18676   */\n      dup2\n        /* \"#utility.yul\":18670:18683   */\n      gt\n        /* \"#utility.yul\":18667:18706   */\n      iszero\n      tag_472\n      jumpi\n        /* \"#utility.yul\":18686:18704   */\n      tag_473\n      tag_250\n      jump\t// in\n    tag_473:\n        /* \"#utility.yul\":18667:18706   */\n    tag_472:\n        /* \"#utility.yul\":18525:18713   */\n      swap3\n      swap2\n      pop\n      pop\n      jump\t// out\n        /* \"#utility.yul\":18719:18899   */\n    tag_252:\n        /* \"#utility.yul\":18767:18844   */\n      0x4e487b7100000000000000000000000000000000000000000000000000000000\n        /* \"#utility.yul\":18764:18765   */\n      0x00\n        /* \"#utility.yul\":18757:18845   */\n      mstore\n        /* \"#utility.yul\":18864:18868   */\n      0x12\n        /* \"#utility.yul\":18861:18862   */\n      0x04\n        /* \"#utility.yul\":18854:18869   */\n      mstore\n        /* \"#utility.yul\":18888:18892   */\n      0x24\n        /* \"#utility.yul\":18885:18886   */\n      0x00\n        /* \"#utility.yul\":18878:18893   */\n      revert\n        /* \"#utility.yul\":18905:19084   */\n    tag_84:\n        /* \"#utility.yul\":18943:18944   */\n      0x00\n        /* \"#utility.yul\":18960:18978   */\n      tag_476\n        /* \"#utility.yul\":18976:18977   */\n      dup3\n        /* \"#utility.yul\":18960:18978   */\n      tag_251\n      jump\t// in\n    tag_476:\n        /* \"#utility.yul\":18955:18978   */\n      swap2\n      pop\n        /* \"#utility.yul\":18992:19010   */\n      tag_477\n        /* \"#utility.yul\":19008:19009   */\n      dup4\n        /* \"#utility.yul\":18992:19010   */\n      tag_251\n      jump\t// in\n    tag_477:\n        /* \"#utility.yul\":18987:19010   */\n      swap3\n      pop\n        /* \"#utility.yul\":19029:19030   */\n      dup3\n        /* \"#utility.yul\":19019:19054   */\n      tag_478\n      jumpi\n        /* \"#utility.yul\":19034:19052   */\n      tag_479\n      tag_252\n      jump\t// in\n    tag_479:\n        /* \"#utility.yul\":19019:19054   */\n    tag_478:\n        /* \"#utility.yul\":19076:19077   */\n      dup3\n        /* \"#utility.yul\":19073:19074   */\n      dup3\n        /* \"#utility.yul\":19069:19078   */\n      div\n        /* \"#utility.yul\":19064:19078   */\n      swap1\n      pop\n        /* \"#utility.yul\":18905:19084   */\n      swap3\n      swap2\n      pop\n      pop\n      jump\t// out\n        /* \"#utility.yul\":19090:19168   */\n    tag_253:\n        /* \"#utility.yul\":19128:19135   */\n      0x00\n        /* \"#utility.yul\":19157:19162   */\n      dup2\n        /* \"#utility.yul\":19146:19162   */\n      swap1\n      pop\n        /* \"#utility.yul\":19090:19168   */\n      swap2\n      swap1\n      pop\n      jump\t// out\n        /* \"#utility.yul\":19174:19327   */\n    tag_254:\n        /* \"#utility.yul\":19277:19320   */\n      tag_482\n        /* \"#utility.yul\":19296:19319   */\n      tag_483\n        /* \"#utility.yul\":19313:19318   */\n      dup3\n        /* \"#utility.yul\":19296:19319   */\n      tag_218\n      jump\t// in\n    tag_483:\n        /* \"#utility.yul\":19277:19320   */\n      tag_253\n      jump\t// in\n    tag_482:\n        /* \"#utility.yul\":19272:19275   */\n      dup3\n        /* \"#utility.yul\":19265:19321   */\n      mstore\n        /* \"#utility.yul\":19174:19327   */\n      pop\n      pop\n      jump\t// out\n        /* \"#utility.yul\":19333:19584   */\n    tag_89:\n        /* \"#utility.yul\":19443:19446   */\n      0x00\n        /* \"#utility.yul\":19458:19531   */\n      tag_485\n        /* \"#utility.yul\":19527:19530   */\n      dup3\n        /* \"#utility.yul\":19518:19524   */\n      dup5\n        /* \"#utility.yul\":19458:19531   */\n      tag_254\n      jump\t// in\n    tag_485:\n        /* \"#utility.yul\":19556:19557   */\n      0x01\n        /* \"#utility.yul\":19551:19554   */\n      dup3\n        /* \"#utility.yul\":19547:19558   */\n      add\n        /* \"#utility.yul\":19540:19558   */\n      swap2\n      pop\n        /* \"#utility.yul\":19575:19578   */\n      dup2\n        /* \"#utility.yul\":19568:19578   */\n      swap1\n      pop\n        /* \"#utility.yul\":19333:19584   */\n      swap3\n      swap2\n      pop\n      pop\n      jump\t// out\n        /* \"#utility.yul\":19590:19689   */\n    tag_255:\n        /* \"#utility.yul\":19642:19648   */\n      0x00\n        /* \"#utility.yul\":19676:19681   */\n      dup2\n        /* \"#utility.yul\":19670:19682   */\n      mload\n        /* \"#utility.yul\":19660:19682   */\n      swap1\n      pop\n        /* \"#utility.yul\":19590:19689   */\n      swap2\n      swap1\n      pop\n      jump\t// out\n        /* \"#utility.yul\":19695:19836   */\n    tag_256:\n        /* \"#utility.yul\":19744:19748   */\n      0x00\n        /* \"#utility.yul\":19767:19770   */\n      dup2\n        /* \"#utility.yul\":19759:19770   */\n      swap1\n      pop\n        /* \"#utility.yul\":19790:19793   */\n      dup2\n        /* \"#utility.yul\":19787:19788   */\n      0x00\n        /* \"#utility.yul\":19780:19794   */\n      mstore\n        /* \"#utility.yul\":19824:19828   */\n      0x20\n        /* \"#utility.yul\":19821:19822   */\n      0x00\n        /* \"#utility.yul\":19811:19829   */\n      keccak256\n        /* \"#utility.yul\":19803:19829   */\n      swap1\n      pop\n        /* \"#utility.yul\":19695:19836   */\n      swap2\n      swap1\n      pop\n      jump\t// out\n        /* \"#utility.yul\":19842:19935   */\n    tag_257:\n        /* \"#utility.yul\":19879:19885   */\n      0x00\n        /* \"#utility.yul\":19926:19928   */\n      0x20\n        /* \"#utility.yul\":19921:19923   */\n      0x1f\n        /* \"#utility.yul\":19914:19919   */\n      dup4\n        /* \"#utility.yul\":19910:19924   */\n      add\n        /* \"#utility.yul\":19906:19929   */\n      div\n        /* \"#utility.yul\":19896:19929   */\n      swap1\n      pop\n        /* \"#utility.yul\":19842:19935   */\n      swap2\n      swap1\n      pop\n      jump\t// out\n        /* \"#utility.yul\":19941:20048   */\n    tag_258:\n        /* \"#utility.yul\":19985:19993   */\n      0x00\n        /* \"#utility.yul\":20035:20040   */\n      dup3\n        /* \"#utility.yul\":20029:20033   */\n      dup3\n        /* \"#utility.yul\":20025:20041   */\n      shl\n        /* \"#utility.yul\":20004:20041   */\n      swap1\n      pop\n        /* \"#utility.yul\":19941:20048   */\n      swap3\n      swap2\n      pop\n      pop\n      jump\t// out\n        /* \"#utility.yul\":20054:20447   */\n    tag_259:\n        /* \"#utility.yul\":20123:20129   */\n      0x00\n        /* \"#utility.yul\":20173:20174   */\n      0x08\n        /* \"#utility.yul\":20161:20171   */\n      dup4\n        /* \"#utility.yul\":20157:20175   */\n      mul\n        /* \"#utility.yul\":20196:20293   */\n      tag_491\n        /* \"#utility.yul\":20226:20292   */\n      0xffffffffffffffffffffffffffffffffffffffffffffffffffffffffffffffff\n        /* \"#utility.yul\":20215:20224   */\n      dup3\n        /* \"#utility.yul\":20196:20293   */\n      tag_258\n      jump\t// in\n    tag_491:\n        /* \"#utility.yul\":20314:20353   */\n      tag_492\n        /* \"#utility.yul\":20344:20352   */\n      dup7\n        /* \"#utility.yul\":20333:20342   */\n      dup4\n        /* \"#utility.yul\":20314:20353   */\n      tag_258\n      jump\t// in\n    tag_492:\n        /* \"#utility.yul\":20302:20353   */\n      swap6\n      pop\n        /* \"#utility.yul\":20386:20390   */\n      dup1\n        /* \"#utility.yul\":20382:20391   */\n      not\n        /* \"#utility.yul\":20375:20380   */\n      dup5\n        /* \"#utility.yul\":20371:20392   */\n      and\n        /* \"#utility.yul\":20362:20392   */\n      swap4\n      pop\n        /* \"#utility.yul\":20435:20439   */\n      dup1\n        /* \"#utility.yul\":20425:20433   */\n      dup7\n        /* \"#utility.yul\":20421:20440   */\n      and\n        /* \"#utility.yul\":20414:20419   */\n      dup5\n        /* \"#utility.yul\":20411:20441   */\n      or\n        /* \"#utility.yul\":20401:20441   */\n      swap3\n      pop\n        /* \"#utility.yul\":20130:20447   */\n      pop\n      pop\n        /* \"#utility.yul\":20054:20447   */\n      swap4\n      swap3\n      pop\n      pop\n      pop\n      jump\t// out\n        /* \"#utility.yul\":20453:20513   */\n    tag_260:\n        /* \"#utility.yul\":20481:20484   */\n      0x00\n        /* \"#utility.yul\":20502:20507   */\n      dup2\n        /* \"#utility.yul\":20495:20507   */\n      swap1\n      pop\n        /* \"#utility.yul\":20453:20513   */\n      swap2\n      swap1\n      pop\n      jump\t// out\n        /* \"#utility.yul\":20519:20661   */\n    tag_261:\n        /* \"#utility.yul\":20569:20578   */\n      0x00\n        /* \"#utility.yul\":20602:20655   */\n      tag_495\n        /* \"#utility.yul\":20620:20654   */\n      tag_496\n        /* \"#utility.yul\":20629:20653   */\n      tag_497\n        /* \"#utility.yul\":20647:20652   */\n      dup5\n        /* \"#utility.yul\":20629:20653   */\n      tag_216\n      jump\t// in\n    tag_497:\n        /* \"#utility.yul\":20620:20654   */\n      tag_260\n      jump\t// in\n    tag_496:\n        /* \"#utility.yul\":20602:20655   */\n      tag_216\n      jump\t// in\n    tag_495:\n        /* \"#utility.yul\":20589:20655   */\n      swap1\n      pop\n        /* \"#utility.yul\":20519:20661   */\n      swap2\n      swap1\n      pop\n      jump\t// out\n        /* \"#utility.yul\":20667:20742   */\n    tag_262:\n        /* \"#utility.yul\":20710:20713   */\n      0x00\n        /* \"#utility.yul\":20731:20736   */\n      dup2\n        /* \"#utility.yul\":20724:20736   */\n      swap1\n      pop\n        /* \"#utility.yul\":20667:20742   */\n      swap2\n      swap1\n      pop\n      jump\t// out\n        /* \"#utility.yul\":20748:21017   */\n    tag_263:\n        /* \"#utility.yul\":20858:20897   */\n      tag_500\n        /* \"#utility.yul\":20889:20896   */\n      dup4\n        /* \"#utility.yul\":20858:20897   */\n      tag_261\n      jump\t// in\n    tag_500:\n        /* \"#utility.yul\":20919:21010   */\n      tag_501\n        /* \"#utility.yul\":20968:21009   */\n      tag_502\n        /* \"#utility.yul\":20992:21008   */\n      dup3\n        /* \"#utility.yul\":20968:21009   */\n      tag_262\n      jump\t// in\n    tag_502:\n        /* \"#utility.yul\":20960:20966   */\n      dup5\n        /* \"#utility.yul\":20953:20957   */\n      dup5\n        /* \"#utility.yul\":20947:20958   */\n      sload\n        /* \"#utility.yul\":20919:21010   */\n      tag_259\n      jump\t// in\n    tag_501:\n        /* \"#utility.yul\":20913:20917   */\n      dup3\n        /* \"#utility.yul\":20906:21011   */\n      sstore\n        /* \"#utility.yul\":20824:21017   */\n      pop\n        /* \"#utility.yul\":20748:21017   */\n      pop\n      pop\n      pop\n      jump\t// out\n        /* \"#utility.yul\":21023:21096   */\n    tag_264:\n        /* \"#utility.yul\":21068:21071   */\n      0x00\n        /* \"#utility.yul\":21023:21096   */\n      swap1\n      jump\t// out\n        /* \"#utility.yul\":21102:21291   */\n    tag_265:\n        /* \"#utility.yul\":21179:21211   */\n      tag_505\n      tag_264\n      jump\t// in\n    tag_505:\n        /* \"#utility.yul\":21220:21285   */\n      tag_506\n        /* \"#utility.yul\":21278:21284   */\n      dup2\n        /* \"#utility.yul\":21270:21276   */\n      dup5\n        /* \"#utility.yul\":21264:21268   */\n      dup5\n        /* \"#utility.yul\":21220:21285   */\n      tag_263\n      jump\t// in\n    tag_506:\n        /* \"#utility.yul\":21155:21291   */\n      pop\n        /* \"#utility.yul\":21102:21291   */\n      pop\n      pop\n      jump\t// out\n        /* \"#utility.yul\":21297:21483   */\n    tag_266:\n        /* \"#utility.yul\":21357:21477   */\n    tag_508:\n        /* \"#utility.yul\":21374:21377   */\n      dup2\n        /* \"#utility.yul\":21367:21372   */\n      dup2\n        /* \"#utility.yul\":21364:21378   */\n      lt\n        /* \"#utility.yul\":21357:21477   */\n      iszero\n      tag_510\n      jumpi\n        /* \"#utility.yul\":21428:21467   */\n      tag_511\n        /* \"#utility.yul\":21465:21466   */\n      0x00\n        /* \"#utility.yul\":21458:21463   */\n      dup3\n        /* \"#utility.yul\":21428:21467   */\n      tag_265\n      jump\t// in\n    tag_511:\n        /* \"#utility.yul\":21401:21402   */\n      0x01\n        /* \"#utility.yul\":21394:21399   */\n      dup2\n        /* \"#utility.yul\":21390:21403   */\n      add\n        /* \"#utility.yul\":21381:21403   */\n      swap1\n      pop\n        /* \"#utility.yul\":21357:21477   */\n      jump(tag_508)\n    tag_510:\n        /* \"#utility.yul\":21297:21483   */\n      pop\n      pop\n      jump\t// out\n        /* \"#utility.yul\":21489:22032   */\n    tag_267:\n        /* \"#utility.yul\":21590:21592   */\n      0x1f\n        /* \"#utility.yul\":21585:21588   */\n      dup3\n        /* \"#utility.yul\":21582:21593   */\n      gt\n        /* \"#utility.yul\":21579:22025   */\n      iszero\n      tag_513\n      jumpi\n        /* \"#utility.yul\":21624:21662   */\n      tag_514\n        /* \"#utility.yul\":21656:21661   */\n      dup2\n        /* \"#utility.yul\":21624:21662   */\n      tag_256\n      jump\t// in\n    tag_514:\n        /* \"#utility.yul\":21708:21737   */\n      tag_515\n        /* \"#utility.yul\":21726:21736   */\n      dup5\n        /* \"#utility.yul\":21708:21737   */\n      tag_257\n      jump\t// in\n    tag_515:\n        /* \"#utility.yul\":21698:21706   */\n      dup2\n        /* \"#utility.yul\":21694:21738   */\n      add\n        /* \"#utility.yul\":21891:21893   */\n      0x20\n        /* \"#utility.yul\":21879:21889   */\n      dup6\n        /* \"#utility.yul\":21876:21894   */\n      lt\n        /* \"#utility.yul\":21873:21922   */\n      iszero\n      tag_516\n      jumpi\n        /* \"#utility.yul\":21912:21920   */\n      dup2\n        /* \"#utility.yul\":21897:21920   */\n      swap1\n      pop\n        /* \"#utility.yul\":21873:21922   */\n    tag_516:\n        /* \"#utility.yul\":21935:22015   */\n      tag_517\n        /* \"#utility.yul\":21991:22013   */\n      tag_518\n        /* \"#utility.yul\":22009:22012   */\n      dup6\n        /* \"#utility.yul\":21991:22013   */\n      tag_257\n      jump\t// in\n    tag_518:\n        /* \"#utility.yul\":21981:21989   */\n      dup4\n        /* \"#utility.yul\":21977:22014   */\n      add\n        /* \"#utility.yul\":21964:21975   */\n      dup3\n        /* \"#utility.yul\":21935:22015   */\n      tag_266\n      jump\t// in\n    tag_517:\n        /* \"#utility.yul\":21594:22025   */\n      pop\n      pop\n        /* \"#utility.yul\":21579:22025   */\n    tag_513:\n        /* \"#utility.yul\":21489:22032   */\n      pop\n      pop\n      pop\n      jump\t// out\n        /* \"#utility.yul\":22038:22155   */\n    tag_268:\n        /* \"#utility.yul\":22092:22100   */\n      0x00\n        /* \"#utility.yul\":22142:22147   */\n      dup3\n        /* \"#utility.yul\":22136:22140   */\n      dup3\n        /* \"#utility.yul\":22132:22148   */\n      shr\n        /* \"#utility.yul\":22111:22148   */\n      swap1\n      pop\n        /* \"#utility.yul\":22038:22155   */\n      swap3\n      swap2\n      pop\n      pop\n      jump\t// out\n        /* \"#utility.yul\":22161:22330   */\n    tag_269:\n        /* \"#utility.yul\":22205:22211   */\n      0x00\n        /* \"#utility.yul\":22238:22289   */\n      tag_521\n        /* \"#utility.yul\":22286:22287   */\n      0x00\n        /* \"#utility.yul\":22282:22288   */\n      not\n        /* \"#utility.yul\":22274:22279   */\n      dup5\n        /* \"#utility.yul\":22271:22272   */\n      0x08\n        /* \"#utility.yul\":22267:22280   */\n      mul\n        /* \"#utility.yul\":22238:22289   */\n      tag_268\n      jump\t// in\n    tag_521:\n        /* \"#utility.yul\":22234:22290   */\n      not\n        /* \"#utility.yul\":22319:22323   */\n      dup1\n        /* \"#utility.yul\":22313:22317   */\n      dup4\n        /* \"#utility.yul\":22309:22324   */\n      and\n        /* \"#utility.yul\":22299:22324   */\n      swap2\n      pop\n        /* \"#utility.yul\":22212:22330   */\n      pop\n        /* \"#utility.yul\":22161:22330   */\n      swap3\n      swap2\n      pop\n      pop\n      jump\t// out\n        /* \"#utility.yul\":22335:22630   */\n    tag_270:\n        /* \"#utility.yul\":22411:22415   */\n      0x00\n        /* \"#utility.yul\":22557:22586   */\n      tag_523\n        /* \"#utility.yul\":22582:22585   */\n      dup4\n        /* \"#utility.yul\":22576:22580   */\n      dup4\n        /* \"#utility.yul\":22557:22586   */\n      tag_269\n      jump\t// in\n    tag_523:\n        /* \"#utility.yul\":22549:22586   */\n      swap2\n      pop\n        /* \"#utility.yul\":22619:22622   */\n      dup3\n        /* \"#utility.yul\":22616:22617   */\n      0x02\n        /* \"#utility.yul\":22612:22623   */\n      mul\n        /* \"#utility.yul\":22606:22610   */\n      dup3\n        /* \"#utility.yul\":22603:22624   */\n      or\n        /* \"#utility.yul\":22595:22624   */\n      swap1\n      pop\n        /* \"#utility.yul\":22335:22630   */\n      swap3\n      swap2\n      pop\n      pop\n      jump\t// out\n        /* \"#utility.yul\":22635:24030   */\n    tag_94:\n        /* \"#utility.yul\":22752:22789   */\n      tag_525\n        /* \"#utility.yul\":22785:22788   */\n      dup3\n        /* \"#utility.yul\":22752:22789   */\n      tag_255\n      jump\t// in\n    tag_525:\n        /* \"#utility.yul\":22854:22872   */\n      0xffffffffffffffff\n        /* \"#utility.yul\":22846:22852   */\n      dup2\n        /* \"#utility.yul\":22843:22873   */\n      gt\n        /* \"#utility.yul\":22840:22896   */\n      iszero\n      tag_526\n      jumpi\n        /* \"#utility.yul\":22876:22894   */\n      tag_527\n      tag_180\n      jump\t// in\n    tag_527:\n        /* \"#utility.yul\":22840:22896   */\n    tag_526:\n        /* \"#utility.yul\":22920:22958   */\n      tag_528\n        /* \"#utility.yul\":22952:22956   */\n      dup3\n        /* \"#utility.yul\":22946:22957   */\n      sload\n        /* \"#utility.yul\":22920:22958   */\n      tag_62\n      jump\t// in\n    tag_528:\n        /* \"#utility.yul\":23005:23072   */\n      tag_529\n        /* \"#utility.yul\":23065:23071   */\n      dup3\n        /* \"#utility.yul\":23057:23063   */\n      dup3\n        /* \"#utility.yul\":23051:23055   */\n      dup6\n        /* \"#utility.yul\":23005:23072   */\n      tag_267\n      jump\t// in\n    tag_529:\n        /* \"#utility.yul\":23099:23100   */\n      0x00\n        /* \"#utility.yul\":23123:23127   */\n      0x20\n        /* \"#utility.yul\":23110:23127   */\n      swap1\n      pop\n        /* \"#utility.yul\":23155:23157   */\n      0x1f\n        /* \"#utility.yul\":23147:23153   */\n      dup4\n        /* \"#utility.yul\":23144:23158   */\n      gt\n        /* \"#utility.yul\":23172:23173   */\n      0x01\n        /* \"#utility.yul\":23167:23785   */\n      dup2\n      eq\n      tag_531\n      jumpi\n        /* \"#utility.yul\":23829:23830   */\n      0x00\n        /* \"#utility.yul\":23846:23852   */\n      dup5\n        /* \"#utility.yul\":23843:23920   */\n      iszero\n      tag_532\n      jumpi\n        /* \"#utility.yul\":23895:23904   */\n      dup3\n        /* \"#utility.yul\":23890:23893   */\n      dup8\n        /* \"#utility.yul\":23886:23905   */\n      add\n        /* \"#utility.yul\":23880:23906   */\n      mload\n        /* \"#utility.yul\":23871:23906   */\n      swap1\n      pop\n        /* \"#utility.yul\":23843:23920   */\n    tag_532:\n        /* \"#utility.yul\":23946:24013   */\n      tag_533\n        /* \"#utility.yul\":24006:24012   */\n      dup6\n        /* \"#utility.yul\":23999:24004   */\n      dup3\n        /* \"#utility.yul\":23946:24013   */\n      tag_270\n      jump\t// in\n    tag_533:\n        /* \"#utility.yul\":23940:23944   */\n      dup7\n        /* \"#utility.yul\":23933:24014   */\n      sstore\n        /* \"#utility.yul\":23802:24024   */\n      pop\n        /* \"#utility.yul\":23137:24024   */\n      jump(tag_530)\n        /* \"#utility.yul\":23167:23785   */\n    tag_531:\n        /* \"#utility.yul\":23219:23223   */\n      0x1f\n        /* \"#utility.yul\":23215:23224   */\n      not\n        /* \"#utility.yul\":23207:23213   */\n      dup5\n        /* \"#utility.yul\":23203:23225   */\n      and\n        /* \"#utility.yul\":23253:23290   */\n      tag_534\n        /* \"#utility.yul\":23285:23289   */\n      dup7\n        /* \"#utility.yul\":23253:23290   */\n      tag_256\n      jump\t// in\n    tag_534:\n        /* \"#utility.yul\":23312:23313   */\n      0x00\n        /* \"#utility.yul\":23326:23534   */\n    tag_535:\n        /* \"#utility.yul\":23340:23347   */\n      dup3\n        /* \"#utility.yul\":23337:23338   */\n      dup2\n        /* \"#utility.yul\":23334:23348   */\n      lt\n        /* \"#utility.yul\":23326:23534   */\n      iszero\n      tag_537\n      jumpi\n        /* \"#utility.yul\":23419:23428   */\n      dup5\n        /* \"#utility.yul\":23414:23417   */\n      dup10\n        /* \"#utility.yul\":23410:23429   */\n      add\n        /* \"#utility.yul\":23404:23430   */\n      mload\n        /* \"#utility.yul\":23396:23402   */\n      dup3\n        /* \"#utility.yul\":23389:23431   */\n      sstore\n        /* \"#utility.yul\":23470:23471   */\n      0x01\n        /* \"#utility.yul\":23462:23468   */\n      dup3\n        /* \"#utility.yul\":23458:23472   */\n      add\n        /* \"#utility.yul\":23448:23472   */\n      swap2\n      pop\n        /* \"#utility.yul\":23517:23519   */\n      0x20\n        /* \"#utility.yul\":23506:23515   */\n      dup6\n        /* \"#utility.yul\":23502:23520   */\n      add\n        /* \"#utility.yul\":23489:23520   */\n      swap5\n      pop\n        /* \"#utility.yul\":23363:23367   */\n      0x20\n        /* \"#utility.yul\":23360:23361   */\n      dup2\n        /* \"#utility.yul\":23356:23368   */\n      add\n        /* \"#utility.yul\":23351:23368   */\n      swap1\n      pop\n        /* \"#utility.yul\":23326:23534   */\n      jump(tag_535)\n    tag_537:\n        /* \"#utility.yul\":23562:23568   */\n      dup7\n        /* \"#utility.yul\":23553:23560   */\n      dup4\n        /* \"#utility.yul\":23550:23569   */\n      lt\n        /* \"#utility.yul\":23547:23726   */\n      iszero\n      tag_538\n      jumpi\n        /* \"#utility.yul\":23620:23629   */\n      dup5\n        /* \"#utility.yul\":23615:23618   */\n      dup10\n        /* \"#utility.yul\":23611:23630   */\n      add\n        /* \"#utility.yul\":23605:23631   */\n      mload\n        /* \"#utility.yul\":23663:23711   */\n      tag_539\n        /* \"#utility.yul\":23705:23709   */\n      0x1f\n        /* \"#utility.yul\":23697:23703   */\n      dup10\n        /* \"#utility.yul\":23693:23710   */\n      and\n        /* \"#utility.yul\":23682:23691   */\n      dup3\n        /* \"#utility.yul\":23663:23711   */\n      tag_269\n      jump\t// in\n    tag_539:\n        /* \"#utility.yul\":23655:23661   */\n      dup4\n        /* \"#utility.yul\":23648:23712   */\n      sstore\n        /* \"#utility.yul\":23570:23726   */\n      pop\n        /* \"#utility.yul\":23547:23726   */\n    tag_538:\n        /* \"#utility.yul\":23772:23773   */\n      0x01\n        /* \"#utility.yul\":23768:23769   */\n      0x02\n        /* \"#utility.yul\":23760:23766   */\n      dup9\n        /* \"#utility.yul\":23756:23770   */\n      mul\n        /* \"#utility.yul\":23752:23774   */\n      add\n        /* \"#utility.yul\":23746:23750   */\n      dup9\n        /* \"#utility.yul\":23739:23775   */\n      sstore\n        /* \"#utility.yul\":23174:23785   */\n      pop\n      pop\n      pop\n        /* \"#utility.yul\":23137:24024   */\n    tag_530:\n      pop\n        /* \"#utility.yul\":22727:24030   */\n      pop\n      pop\n      pop\n        /* \"#utility.yul\":22635:24030   */\n      pop\n      pop\n      jump\t// out\n        /* \"#utility.yul\":24036:24184   */\n    tag_271:\n        /* \"#utility.yul\":24138:24149   */\n      0x00\n        /* \"#utility.yul\":24175:24178   */\n      dup2\n        /* \"#utility.yul\":24160:24178   */\n      swap1\n      pop\n        /* \"#utility.yul\":24036:24184   */\n      swap3\n      swap2\n      pop\n      pop\n      jump\t// out\n        /* \"#utility.yul\":24214:24544   */\n    tag_272:\n        /* \"#utility.yul\":24330:24333   */\n      0x00\n        /* \"#utility.yul\":24351:24440   */\n      tag_542\n        /* \"#utility.yul\":24433:24439   */\n      dup4\n        /* \"#utility.yul\":24428:24431   */\n      dup6\n        /* \"#utility.yul\":24351:24440   */\n      tag_271\n      jump\t// in\n    tag_542:\n        /* \"#utility.yul\":24344:24440   */\n      swap4\n      pop\n        /* \"#utility.yul\":24450:24506   */\n      tag_543\n        /* \"#utility.yul\":24499:24505   */\n      dup4\n        /* \"#utility.yul\":24494:24497   */\n      dup6\n        /* \"#utility.yul\":24487:24492   */\n      dup5\n        /* \"#utility.yul\":24450:24506   */\n      tag_228\n      jump\t// in\n    tag_543:\n        /* \"#utility.yul\":24531:24537   */\n      dup3\n        /* \"#utility.yul\":24526:24529   */\n      dup5\n        /* \"#utility.yul\":24522:24538   */\n      add\n        /* \"#utility.yul\":24515:24538   */\n      swap1\n      pop\n        /* \"#utility.yul\":24214:24544   */\n      swap4\n      swap3\n      pop\n      pop\n      pop\n      jump\t// out\n        /* \"#utility.yul\":24550:24845   */\n    tag_132:\n        /* \"#utility.yul\":24692:24695   */\n      0x00\n        /* \"#utility.yul\":24714:24819   */\n      tag_545\n        /* \"#utility.yul\":24815:24818   */\n      dup3\n        /* \"#utility.yul\":24806:24812   */\n      dup5\n        /* \"#utility.yul\":24798:24804   */\n      dup7\n        /* \"#utility.yul\":24714:24819   */\n      tag_272\n      jump\t// in\n    tag_545:\n        /* \"#utility.yul\":24707:24819   */\n      swap2\n      pop\n        /* \"#utility.yul\":24836:24839   */\n      dup2\n        /* \"#utility.yul\":24829:24839   */\n      swap1\n      pop\n        /* \"#utility.yul\":24550:24845   */\n      swap4\n      swap3\n      pop\n      pop\n      pop\n      jump\t// out\n        /* \"#utility.yul\":24851:25097   */\n    tag_273:\n        /* \"#utility.yul\":24932:24933   */\n      0x00\n        /* \"#utility.yul\":24942:25055   */\n    tag_547:\n        /* \"#utility.yul\":24956:24962   */\n      dup4\n        /* \"#utility.yul\":24953:24954   */\n      dup2\n        /* \"#utility.yul\":24950:24963   */\n      lt\n        /* \"#utility.yul\":24942:25055   */\n      iszero\n      tag_549\n      jumpi\n        /* \"#utility.yul\":25041:25042   */\n      dup1\n        /* \"#utility.yul\":25036:25039   */\n      dup3\n        /* \"#utility.yul\":25032:25043   */\n      add\n        /* \"#utility.yul\":25026:25044   */\n      mload\n        /* \"#utility.yul\":25022:25023   */\n      dup2\n        /* \"#utility.yul\":25017:25020   */\n      dup5\n        /* \"#utility.yul\":25013:25024   */\n      add\n        /* \"#utility.yul\":25006:25045   */\n      mstore\n        /* \"#utility.yul\":24978:24980   */\n      0x20\n        /* \"#utility.yul\":24975:24976   */\n      dup2\n        /* \"#utility.yul\":24971:24981   */\n      add\n        /* \"#utility.yul\":24966:24981   */\n      swap1\n      pop\n        /* \"#utility.yul\":24942:25055   */\n      jump(tag_547)\n    tag_549:\n        /* \"#utility.yul\":25089:25090   */\n      0x00\n        /* \"#utility.yul\":25080:25086   */\n      dup5\n        /* \"#utility.yul\":25075:25078   */\n      dup5\n        /* \"#utility.yul\":25071:25087   */\n      add\n        /* \"#utility.yul\":25064:25091   */\n      mstore\n        /* \"#utility.yul\":24913:25097   */\n      pop\n        /* \"#utility.yul\":24851:25097   */\n      pop\n      pop\n      pop\n      jump\t// out\n        /* \"#utility.yul\":25103:25493   */\n    tag_274:\n        /* \"#utility.yul\":25209:25212   */\n      0x00\n        /* \"#utility.yul\":25237:25276   */\n      tag_551\n        /* \"#utility.yul\":25270:25275   */\n      dup3\n        /* \"#utility.yul\":25237:25276   */\n      tag_255\n      jump\t// in\n    tag_551:\n        /* \"#utility.yul\":25292:25381   */\n      tag_552\n        /* \"#utility.yul\":25374:25380   */\n      dup2\n        /* \"#utility.yul\":25369:25372   */\n      dup6\n        /* \"#utility.yul\":25292:25381   */\n      tag_271\n      jump\t// in\n    tag_552:\n        /* \"#utility.yul\":25285:25381   */\n      swap4\n      pop\n        /* \"#utility.yul\":25390:25455   */\n      tag_553\n        /* \"#utility.yul\":25448:25454   */\n      dup2\n        /* \"#utility.yul\":25443:25446   */\n      dup6\n        /* \"#utility.yul\":25436:25440   */\n      0x20\n        /* \"#utility.yul\":25429:25434   */\n      dup7\n        /* \"#utility.yul\":25425:25441   */\n      add\n        /* \"#utility.yul\":25390:25455   */\n      tag_273\n      jump\t// in\n    tag_553:\n        /* \"#utility.yul\":25480:25486   */\n      dup1\n        /* \"#utility.yul\":25475:25478   */\n      dup5\n        /* \"#utility.yul\":25471:25487   */\n      add\n        /* \"#utility.yul\":25464:25487   */\n      swap2\n      pop\n        /* \"#utility.yul\":25213:25493   */\n      pop\n        /* \"#utility.yul\":25103:25493   */\n      swap3\n      swap2\n      pop\n      pop\n      jump\t// out\n        /* \"#utility.yul\":25499:25774   */\n    tag_134:\n        /* \"#utility.yul\":25631:25634   */\n      0x00\n        /* \"#utility.yul\":25653:25748   */\n      tag_555\n        /* \"#utility.yul\":25744:25747   */\n      dup3\n        /* \"#utility.yul\":25735:25741   */\n      dup5\n        /* \"#utility.yul\":25653:25748   */\n      tag_274\n      jump\t// in\n    tag_555:\n        /* \"#utility.yul\":25646:25748   */\n      swap2\n      pop\n        /* \"#utility.yul\":25765:25768   */\n      dup2\n        /* \"#utility.yul\":25758:25768   */\n      swap1\n      pop\n        /* \"#utility.yul\":25499:25774   */\n      swap3\n      swap2\n      pop\n      pop\n      jump\t// out\n        /* \"#utility.yul\":25780:25974   */\n    tag_140:\n        /* \"#utility.yul\":25820:25824   */\n      0x00\n        /* \"#utility.yul\":25840:25860   */\n      tag_557\n        /* \"#utility.yul\":25858:25859   */\n      dup3\n        /* \"#utility.yul\":25840:25860   */\n      tag_216\n      jump\t// in\n    tag_557:\n        /* \"#utility.yul\":25835:25860   */\n      swap2\n      pop\n        /* \"#utility.yul\":25874:25894   */\n      tag_558\n        /* \"#utility.yul\":25892:25893   */\n      dup4\n        /* \"#utility.yul\":25874:25894   */\n      tag_216\n      jump\t// in\n    tag_558:\n        /* \"#utility.yul\":25869:25894   */\n      swap3\n      pop\n        /* \"#utility.yul\":25918:25919   */\n      dup3\n        /* \"#utility.yul\":25915:25916   */\n      dup3\n        /* \"#utility.yul\":25911:25920   */\n      sub\n        /* \"#utility.yul\":25903:25920   */\n      swap1\n      pop\n        /* \"#utility.yul\":25942:25943   */\n      dup2\n        /* \"#utility.yul\":25936:25940   */\n      dup2\n        /* \"#utility.yul\":25933:25944   */\n      gt\n        /* \"#utility.yul\":25930:25967   */\n      iszero\n      tag_559\n      jumpi\n        /* \"#utility.yul\":25947:25965   */\n      tag_560\n      tag_250\n      jump\t// in\n    tag_560:\n        /* \"#utility.yul\":25930:25967   */\n    tag_559:\n        /* \"#utility.yul\":25780:25974   */\n      swap3\n      swap2\n      pop\n      pop\n      jump\t// out\n        /* \"#utility.yul\":25980:26171   */\n    tag_145:\n        /* \"#utility.yul\":26020:26023   */\n      0x00\n        /* \"#utility.yul\":26039:26059   */\n      tag_562\n        /* \"#utility.yul\":26057:26058   */\n      dup3\n        /* \"#utility.yul\":26039:26059   */\n      tag_216\n      jump\t// in\n    tag_562:\n        /* \"#utility.yul\":26034:26059   */\n      swap2\n      pop\n        /* \"#utility.yul\":26073:26093   */\n      tag_563\n        /* \"#utility.yul\":26091:26092   */\n      dup4\n        /* \"#utility.yul\":26073:26093   */\n      tag_216\n      jump\t// in\n    tag_563:\n        /* \"#utility.yul\":26068:26093   */\n      swap3\n      pop\n        /* \"#utility.yul\":26116:26117   */\n      dup3\n        /* \"#utility.yul\":26113:26114   */\n      dup3\n        /* \"#utility.yul\":26109:26118   */\n      add\n        /* \"#utility.yul\":26102:26118   */\n      swap1\n      pop\n        /* \"#utility.yul\":26137:26140   */\n      dup1\n        /* \"#utility.yul\":26134:26135   */\n      dup3\n        /* \"#utility.yul\":26131:26141   */\n      gt\n        /* \"#utility.yul\":26128:26164   */\n      iszero\n      tag_564\n      jumpi\n        /* \"#utility.yul\":26144:26162   */\n      tag_565\n      tag_250\n      jump\t// in\n    tag_565:\n        /* \"#utility.yul\":26128:26164   */\n    tag_564:\n        /* \"#utility.yul\":25980:26171   */\n      swap3\n      swap2\n      pop\n      pop\n      jump\t// out\n        /* \"#utility.yul\":26177:26353   */\n    tag_162:\n        /* \"#utility.yul\":26209:26210   */\n      0x00\n        /* \"#utility.yul\":26226:26246   */\n      tag_567\n        /* \"#utility.yul\":26244:26245   */\n      dup3\n        /* \"#utility.yul\":26226:26246   */\n      tag_216\n      jump\t// in\n    tag_567:\n        /* \"#utility.yul\":26221:26246   */\n      swap2\n      pop\n        /* \"#utility.yul\":26260:26280   */\n      tag_568\n        /* \"#utility.yul\":26278:26279   */\n      dup4\n        /* \"#utility.yul\":26260:26280   */\n      tag_216\n      jump\t// in\n    tag_568:\n        /* \"#utility.yul\":26255:26280   */\n      swap3\n      pop\n        /* \"#utility.yul\":26299:26300   */\n      dup3\n        /* \"#utility.yul\":26289:26324   */\n      tag_569\n      jumpi\n        /* \"#utility.yul\":26304:26322   */\n      tag_570\n      tag_252\n      jump\t// in\n    tag_570:\n        /* \"#utility.yul\":26289:26324   */\n    tag_569:\n        /* \"#utility.yul\":26345:26346   */\n      dup3\n        /* \"#utility.yul\":26342:26343   */\n      dup3\n        /* \"#utility.yul\":26338:26347   */\n      mod\n        /* \"#utility.yul\":26333:26347   */\n      swap1\n      pop\n        /* \"#utility.yul\":26177:26353   */\n      swap3\n      swap2\n      pop\n      pop\n      jump\t// out\n        /* \"#utility.yul\":26359:26544   */\n    tag_166:\n        /* \"#utility.yul\":26399:26400   */\n      0x00\n        /* \"#utility.yul\":26416:26436   */\n      tag_572\n        /* \"#utility.yul\":26434:26435   */\n      dup3\n        /* \"#utility.yul\":26416:26436   */\n      tag_216\n      jump\t// in\n    tag_572:\n        /* \"#utility.yul\":26411:26436   */\n      swap2\n      pop\n        /* \"#utility.yul\":26450:26470   */\n      tag_573\n        /* \"#utility.yul\":26468:26469   */\n      dup4\n        /* \"#utility.yul\":26450:26470   */\n      tag_216\n      jump\t// in\n    tag_573:\n        /* \"#utility.yul\":26445:26470   */\n      swap3\n      pop\n        /* \"#utility.yul\":26489:26490   */\n      dup3\n        /* \"#utility.yul\":26479:26514   */\n      tag_574\n      jumpi\n        /* \"#utility.yul\":26494:26512   */\n      tag_575\n      tag_252\n      jump\t// in\n    tag_575:\n        /* \"#utility.yul\":26479:26514   */\n    tag_574:\n        /* \"#utility.yul\":26536:26537   */\n      dup3\n        /* \"#utility.yul\":26533:26534   */\n      dup3\n        /* \"#utility.yul\":26529:26538   */\n      div\n        /* \"#utility.yul\":26524:26538   */\n      swap1\n      pop\n        /* \"#utility.yul\":26359:26544   */\n      swap3\n      swap2\n      pop\n      pop\n      jump\t// out\n\n    auxdata: 0xa264697066735822122058ca124609fd1d08510ed3c09183b85182c5bcf8e16f33425cc83c60be5311c964736f6c63430008120033\n}\n",
				"bytecode": {
					"linkReferences": {},
					"object": "608060405234801561001057600080fd5b506119c8806100206000396000f3fe6080604052600436106100705760003560e01c8063961d7d5a1161004e578063961d7d5a1461010b578063a074dc3d14610134578063bd41a34f14610171578063d563b7f2146101ae57610070565b806368c47d1914610075578063699bf15f146100b25780638faa222a146100ce575b600080fd5b34801561008157600080fd5b5061009c60048036038101906100979190610b57565b6101eb565b6040516100a99190610bbd565b60405180910390f35b6100cc60048036038101906100c79190610b57565b6102f7565b005b3480156100da57600080fd5b506100f560048036038101906100f09190610c30565b610326565b6040516101029190610c7f565b60405180910390f35b34801561011757600080fd5b50610132600480360381019061012d9190610ebc565b610351565b005b34801561014057600080fd5b5061015b60048036038101906101569190611047565b61054a565b60405161016891906110de565b60405180910390f35b34801561017d57600080fd5b50610198600480360381019061019391906111bc565b6105a6565b6040516101a59190610c7f565b60405180910390f35b3480156101ba57600080fd5b506101d560048036038101906101d09190611205565b610831565b6040516101e2919061130c565b60405180910390f35b60008060005b60068110156102ec576102c5600082600681106102115761021061132e565b5b01805461021d9061138c565b80601f01602080910402602001604051908101604052809291908181526020018280546102499061138c565b80156102965780601f1061026b57610100808354040283529160200191610296565b820191906000526020600020905b81548152906001019060200180831161027957829003601f168201915b50505050508686848181106102ae576102ad61132e565b5b90506020028101906102c091906113cc565b61054a565b156102d95781806102d59061145e565b9250505b80806102e49061145e565b9150506101f1565b508091505092915050565b66b1a2bc2ec50000341461030a57600080fd5b600061031683836101eb565b90506103218161096c565b505050565b600060028260f81c8460f81c61033c91906114b3565b6103469190611517565b60f81b905092915050565b61036261035d87610831565b6105a6565b6040516020016103729190611569565b604051602081830303815290604052600080600681106103955761039461132e565b5b0190816103a2919061173b565b506103b46103af86610831565b6105a6565b6040516020016103c49190611569565b60405160208183030381529060405260006001600681106103e8576103e761132e565b5b0190816103f5919061173b565b5061040761040285610831565b6105a6565b6040516020016104179190611569565b604051602081830303815290604052600060026006811061043b5761043a61132e565b5b019081610448919061173b565b5061045a61045584610831565b6105a6565b60405160200161046a9190611569565b604051602081830303815290604052600060036006811061048e5761048d61132e565b5b01908161049b919061173b565b506104ad6104a883610831565b6105a6565b6040516020016104bd9190611569565b60405160208183030381529060405260006004600681106104e1576104e061132e565b5b0190816104ee919061173b565b506105006104fb82610831565b6105a6565b6040516020016105109190611569565b60405160208183030381529060405260006005600681106105345761053361132e565b5b019081610541919061173b565b50505050505050565b6000828260405160200161055f92919061183d565b604051602081830303815290604052805190602001208460405160200161058691906118b1565b604051602081830303815290604052805190602001201490509392505050565b6000808251905060005b6001826105bd91906118c8565b8110156107825760006001826105d391906118fc565b90505b8281101561076e578481815181106105f1576105f061132e565b5b60200260200101517effffffffffffffffffffffffffffffffffffffffffffffffffffffffffffff191685838151811061062e5761062d61132e565b5b60200260200101517effffffffffffffffffffffffffffffffffffffffffffffffffffffffffffff1916101561075b578481815181106106715761067061132e565b5b602002602001015185838151811061068c5761068b61132e565b5b60200260200101518684815181106106a7576106a661132e565b5b602002602001018784815181106106c1576106c061132e565b5b60200260200101827effffffffffffffffffffffffffffffffffffffffffffffffffffffffffffff19167effffffffffffffffffffffffffffffffffffffffffffffffffffffffffffff1916815250827effffffffffffffffffffffffffffffffffffffffffffffffffffffffffffff19167effffffffffffffffffffffffffffffffffffffffffffffffffffffffffffff191681525050505b80806107669061145e565b9150506105d6565b50808061077a9061145e565b9150506105b0565b5060006002826107929190611930565b03610801576107f98360016002846107aa9190611961565b6107b491906118c8565b815181106107c5576107c461132e565b5b6020026020010151846002846107db9190611961565b815181106107ec576107eb61132e565b5b6020026020010151610326565b91505061082c565b8260028261080f9190611961565b815181106108205761081f61132e565b5b60200260200101519150505b919050565b606060008251905060008167ffffffffffffffff81111561085557610854610cab565b5b6040519080825280602002602001820160405280156108835781602001602082028036833780820191505090505b50905060005b82811015610961578481815181106108a4576108a361132e565b5b60200260200101516040516020016108bc91906118b1565b6040516020818303038152906040526000815181106108de576108dd61132e565b5b602001015160f81c60f81b8282815181106108fc576108fb61132e565b5b60200260200101907effffffffffffffffffffffffffffffffffffffffffffffffffffffffffffff191690817effffffffffffffffffffffffffffffffffffffffffffffffffffffffffffff19168152505080806109599061145e565b915050610889565b508092505050919050565b600681036109c8573373ffffffffffffffffffffffffffffffffffffffff166108fc670de0b6b3a76400009081150290604051600060405180830381858888f193505050501580156109c2573d6000803e3d6000fd5b50610adb565b60058103610a24573373ffffffffffffffffffffffffffffffffffffffff166108fc670a688906bd8b00009081150290604051600060405180830381858888f19350505050158015610a1e573d6000803e3d6000fd5b50610ada565b60048103610a80573373ffffffffffffffffffffffffffffffffffffffff166108fc6703782dace9d900009081150290604051600060405180830381858888f19350505050158015610a7a573d6000803e3d6000fd5b50610ad9565b60038103610ad8573373ffffffffffffffffffffffffffffffffffffffff166108fc67016345785d8a00009081150290604051600060405180830381858888f19350505050158015610ad6573d6000803e3d6000fd5b505b5b5b5b50565b6000604051905090565b600080fd5b600080fd5b600080fd5b600080fd5b600080fd5b60008083601f840112610b1757610b16610af2565b5b8235905067ffffffffffffffff811115610b3457610b33610af7565b5b602083019150836020820283011115610b5057610b4f610afc565b5b9250929050565b60008060208385031215610b6e57610b6d610ae8565b5b600083013567ffffffffffffffff811115610b8c57610b8b610aed565b5b610b9885828601610b01565b92509250509250929050565b6000819050919050565b610bb781610ba4565b82525050565b6000602082019050610bd26000830184610bae565b92915050565b60007fff0000000000000000000000000000000000000000000000000000000000000082169050919050565b610c0d81610bd8565b8114610c1857600080fd5b50565b600081359050610c2a81610c04565b92915050565b60008060408385031215610c4757610c46610ae8565b5b6000610c5585828601610c1b565b9250506020610c6685828601610c1b565b9150509250929050565b610c7981610bd8565b82525050565b6000602082019050610c946000830184610c70565b92915050565b6000601f19601f8301169050919050565b7f4e487b7100000000000000000000000000000000000000000000000000000000600052604160045260246000fd5b610ce382610c9a565b810181811067ffffffffffffffff82111715610d0257610d01610cab565b5b80604052505050565b6000610d15610ade565b9050610d218282610cda565b919050565b600067ffffffffffffffff821115610d4157610d40610cab565b5b602082029050602081019050919050565b600080fd5b600067ffffffffffffffff821115610d7257610d71610cab565b5b610d7b82610c9a565b9050602081019050919050565b82818337600083830152505050565b6000610daa610da584610d57565b610d0b565b905082815260208101848484011115610dc657610dc5610d52565b5b610dd1848285610d88565b509392505050565b600082601f830112610dee57610ded610af2565b5b8135610dfe848260208601610d97565b91505092915050565b6000610e1a610e1584610d26565b610d0b565b90508083825260208201905060208402830185811115610e3d57610e3c610afc565b5b835b81811015610e8457803567ffffffffffffffff811115610e6257610e61610af2565b5b808601610e6f8982610dd9565b85526020850194505050602081019050610e3f565b5050509392505050565b600082601f830112610ea357610ea2610af2565b5b8135610eb3848260208601610e07565b91505092915050565b60008060008060008060c08789031215610ed957610ed8610ae8565b5b600087013567ffffffffffffffff811115610ef757610ef6610aed565b5b610f0389828a01610e8e565b965050602087013567ffffffffffffffff811115610f2457610f23610aed565b5b610f3089828a01610e8e565b955050604087013567ffffffffffffffff811115610f5157610f50610aed565b5b610f5d89828a01610e8e565b945050606087013567ffffffffffffffff811115610f7e57610f7d610aed565b5b610f8a89828a01610e8e565b935050608087013567ffffffffffffffff811115610fab57610faa610aed565b5b610fb789828a01610e8e565b92505060a087013567ffffffffffffffff811115610fd857610fd7610aed565b5b610fe489828a01610e8e565b9150509295509295509295565b60008083601f84011261100757611006610af2565b5b8235905067ffffffffffffffff81111561102457611023610af7565b5b6020830191508360018202830111156110405761103f610afc565b5b9250929050565b6000806000604084860312156110605761105f610ae8565b5b600084013567ffffffffffffffff81111561107e5761107d610aed565b5b61108a86828701610dd9565b935050602084013567ffffffffffffffff8111156110ab576110aa610aed565b5b6110b786828701610ff1565b92509250509250925092565b60008115159050919050565b6110d8816110c3565b82525050565b60006020820190506110f360008301846110cf565b92915050565b600067ffffffffffffffff82111561111457611113610cab565b5b602082029050602081019050919050565b6000611138611133846110f9565b610d0b565b9050808382526020820190506020840283018581111561115b5761115a610afc565b5b835b8181101561118457806111708882610c1b565b84526020840193505060208101905061115d565b5050509392505050565b600082601f8301126111a3576111a2610af2565b5b81356111b3848260208601611125565b91505092915050565b6000602082840312156111d2576111d1610ae8565b5b600082013567ffffffffffffffff8111156111f0576111ef610aed565b5b6111fc8482850161118e565b91505092915050565b60006020828403121561121b5761121a610ae8565b5b600082013567ffffffffffffffff81111561123957611238610aed565b5b61124584828501610e8e565b91505092915050565b600081519050919050565b600082825260208201905092915050565b6000819050602082019050919050565b61128381610bd8565b82525050565b6000611295838361127a565b60208301905092915050565b6000602082019050919050565b60006112b98261124e565b6112c38185611259565b93506112ce8361126a565b8060005b838110156112ff5781516112e68882611289565b97506112f1836112a1565b9250506001810190506112d2565b5085935050505092915050565b6000602082019050818103600083015261132681846112ae565b905092915050565b7f4e487b7100000000000000000000000000000000000000000000000000000000600052603260045260246000fd5b7f4e487b7100000000000000000000000000000000000000000000000000000000600052602260045260246000fd5b600060028204905060018216806113a457607f821691505b6020821081036113b7576113b661135d565b5b50919050565b600080fd5b600080fd5b600080fd5b600080833560016020038436030381126113e9576113e86113bd565b5b80840192508235915067ffffffffffffffff82111561140b5761140a6113c2565b5b602083019250600182023603831315611427576114266113c7565b5b509250929050565b7f4e487b7100000000000000000000000000000000000000000000000000000000600052601160045260246000fd5b600061146982610ba4565b91507fffffffffffffffffffffffffffffffffffffffffffffffffffffffffffffffff820361149b5761149a61142f565b5b600182019050919050565b600060ff82169050919050565b60006114be826114a6565b91506114c9836114a6565b9250828201905060ff8111156114e2576114e161142f565b5b92915050565b7f4e487b7100000000000000000000000000000000000000000000000000000000600052601260045260246000fd5b6000611522826114a6565b915061152d836114a6565b92508261153d5761153c6114e8565b5b828204905092915050565b6000819050919050565b61156361155e82610bd8565b611548565b82525050565b60006115758284611552565b60018201915081905092915050565b600081519050919050565b60008190508160005260206000209050919050565b60006020601f8301049050919050565b600082821b905092915050565b6000600883026115f17fffffffffffffffffffffffffffffffffffffffffffffffffffffffffffffffff826115b4565b6115fb86836115b4565b95508019841693508086168417925050509392505050565b6000819050919050565b600061163861163361162e84610ba4565b611613565b610ba4565b9050919050565b6000819050919050565b6116528361161d565b61166661165e8261163f565b8484546115c1565b825550505050565b600090565b61167b61166e565b611686818484611649565b505050565b5b818110156116aa5761169f600082611673565b60018101905061168c565b5050565b601f8211156116ef576116c08161158f565b6116c9846115a4565b810160208510156116d8578190505b6116ec6116e4856115a4565b83018261168b565b50505b505050565b600082821c905092915050565b6000611712600019846008026116f4565b1980831691505092915050565b600061172b8383611701565b9150826002028217905092915050565b61174482611584565b67ffffffffffffffff81111561175d5761175c610cab565b5b611767825461138c565b6117728282856116ae565b600060209050601f8311600181146117a55760008415611793578287015190505b61179d858261171f565b865550611805565b601f1984166117b38661158f565b60005b828110156117db578489015182556001820191506020850194506020810190506117b6565b868310156117f857848901516117f4601f891682611701565b8355505b6001600288020188555050505b505050505050565b600081905092915050565b6000611824838561180d565b9350611831838584610d88565b82840190509392505050565b600061184a828486611818565b91508190509392505050565b60005b83811015611874578082015181840152602081019050611859565b60008484015250505050565b600061188b82611584565b611895818561180d565b93506118a5818560208601611856565b80840191505092915050565b60006118bd8284611880565b915081905092915050565b60006118d382610ba4565b91506118de83610ba4565b92508282039050818111156118f6576118f561142f565b5b92915050565b600061190782610ba4565b915061191283610ba4565b925082820190508082111561192a5761192961142f565b5b92915050565b600061193b82610ba4565b915061194683610ba4565b925082611956576119556114e8565b5b828206905092915050565b600061196c82610ba4565b915061197783610ba4565b925082611987576119866114e8565b5b82820490509291505056fea264697066735822122058ca124609fd1d08510ed3c09183b85182c5bcf8e16f33425cc83c60be5311c964736f6c63430008120033",
					"opcodes": "PUSH1 0x80 PUSH1 0x40 MSTORE CALLVALUE DUP1 ISZERO PUSH2 0x10 JUMPI PUSH1 0x0 DUP1 REVERT JUMPDEST POP PUSH2 0x19C8 DUP1 PUSH2 0x20 PUSH1 0x0 CODECOPY PUSH1 0x0 RETURN INVALID PUSH1 0x80 PUSH1 0x40 MSTORE PUSH1 0x4 CALLDATASIZE LT PUSH2 0x70 JUMPI PUSH1 0x0 CALLDATALOAD PUSH1 0xE0 SHR DUP1 PUSH4 0x961D7D5A GT PUSH2 0x4E JUMPI DUP1 PUSH4 0x961D7D5A EQ PUSH2 0x10B JUMPI DUP1 PUSH4 0xA074DC3D EQ PUSH2 0x134 JUMPI DUP1 PUSH4 0xBD41A34F EQ PUSH2 0x171 JUMPI DUP1 PUSH4 0xD563B7F2 EQ PUSH2 0x1AE JUMPI PUSH2 0x70 JUMP JUMPDEST DUP1 PUSH4 0x68C47D19 EQ PUSH2 0x75 JUMPI DUP1 PUSH4 0x699BF15F EQ PUSH2 0xB2 JUMPI DUP1 PUSH4 0x8FAA222A EQ PUSH2 0xCE JUMPI JUMPDEST PUSH1 0x0 DUP1 REVERT JUMPDEST CALLVALUE DUP1 ISZERO PUSH2 0x81 JUMPI PUSH1 0x0 DUP1 REVERT JUMPDEST POP PUSH2 0x9C PUSH1 0x4 DUP1 CALLDATASIZE SUB DUP2 ADD SWAP1 PUSH2 0x97 SWAP2 SWAP1 PUSH2 0xB57 JUMP JUMPDEST PUSH2 0x1EB JUMP JUMPDEST PUSH1 0x40 MLOAD PUSH2 0xA9 SWAP2 SWAP1 PUSH2 0xBBD JUMP JUMPDEST PUSH1 0x40 MLOAD DUP1 SWAP2 SUB SWAP1 RETURN JUMPDEST PUSH2 0xCC PUSH1 0x4 DUP1 CALLDATASIZE SUB DUP2 ADD SWAP1 PUSH2 0xC7 SWAP2 SWAP1 PUSH2 0xB57 JUMP JUMPDEST PUSH2 0x2F7 JUMP JUMPDEST STOP JUMPDEST CALLVALUE DUP1 ISZERO PUSH2 0xDA JUMPI PUSH1 0x0 DUP1 REVERT JUMPDEST POP PUSH2 0xF5 PUSH1 0x4 DUP1 CALLDATASIZE SUB DUP2 ADD SWAP1 PUSH2 0xF0 SWAP2 SWAP1 PUSH2 0xC30 JUMP JUMPDEST PUSH2 0x326 JUMP JUMPDEST PUSH1 0x40 MLOAD PUSH2 0x102 SWAP2 SWAP1 PUSH2 0xC7F JUMP JUMPDEST PUSH1 0x40 MLOAD DUP1 SWAP2 SUB SWAP1 RETURN JUMPDEST CALLVALUE DUP1 ISZERO PUSH2 0x117 JUMPI PUSH1 0x0 DUP1 REVERT JUMPDEST POP PUSH2 0x132 PUSH1 0x4 DUP1 CALLDATASIZE SUB DUP2 ADD SWAP1 PUSH2 0x12D SWAP2 SWAP1 PUSH2 0xEBC JUMP JUMPDEST PUSH2 0x351 JUMP JUMPDEST STOP JUMPDEST CALLVALUE DUP1 ISZERO PUSH2 0x140 JUMPI PUSH1 0x0 DUP1 REVERT JUMPDEST POP PUSH2 0x15B PUSH1 0x4 DUP1 CALLDATASIZE SUB DUP2 ADD SWAP1 PUSH2 0x156 SWAP2 SWAP1 PUSH2 0x1047 JUMP JUMPDEST PUSH2 0x54A JUMP JUMPDEST PUSH1 0x40 MLOAD PUSH2 0x168 SWAP2 SWAP1 PUSH2 0x10DE JUMP JUMPDEST PUSH1 0x40 MLOAD DUP1 SWAP2 SUB SWAP1 RETURN JUMPDEST CALLVALUE DUP1 ISZERO PUSH2 0x17D JUMPI PUSH1 0x0 DUP1 REVERT JUMPDEST POP PUSH2 0x198 PUSH1 0x4 DUP1 CALLDATASIZE SUB DUP2 ADD SWAP1 PUSH2 0x193 SWAP2 SWAP1 PUSH2 0x11BC JUMP JUMPDEST PUSH2 0x5A6 JUMP JUMPDEST PUSH1 0x40 MLOAD PUSH2 0x1A5 SWAP2 SWAP1 PUSH2 0xC7F JUMP JUMPDEST PUSH1 0x40 MLOAD DUP1 SWAP2 SUB SWAP1 RETURN JUMPDEST CALLVALUE DUP1 ISZERO PUSH2 0x1BA JUMPI PUSH1 0x0 DUP1 REVERT JUMPDEST POP PUSH2 0x1D5 PUSH1 0x4 DUP1 CALLDATASIZE SUB DUP2 ADD SWAP1 PUSH2 0x1D0 SWAP2 SWAP1 PUSH2 0x1205 JUMP JUMPDEST PUSH2 0x831 JUMP JUMPDEST PUSH1 0x40 MLOAD PUSH2 0x1E2 SWAP2 SWAP1 PUSH2 0x130C JUMP JUMPDEST PUSH1 0x40 MLOAD DUP1 SWAP2 SUB SWAP1 RETURN JUMPDEST PUSH1 0x0 DUP1 PUSH1 0x0 JUMPDEST PUSH1 0x6 DUP2 LT ISZERO PUSH2 0x2EC JUMPI PUSH2 0x2C5 PUSH1 0x0 DUP3 PUSH1 0x6 DUP2 LT PUSH2 0x211 JUMPI PUSH2 0x210 PUSH2 0x132E JUMP JUMPDEST JUMPDEST ADD DUP1 SLOAD PUSH2 0x21D SWAP1 PUSH2 0x138C JUMP JUMPDEST DUP1 PUSH1 0x1F ADD PUSH1 0x20 DUP1 SWAP2 DIV MUL PUSH1 0x20 ADD PUSH1 0x40 MLOAD SWAP1 DUP2 ADD PUSH1 0x40 MSTORE DUP1 SWAP3 SWAP2 SWAP1 DUP2 DUP2 MSTORE PUSH1 0x20 ADD DUP3 DUP1 SLOAD PUSH2 0x249 SWAP1 PUSH2 0x138C JUMP JUMPDEST DUP1 ISZERO PUSH2 0x296 JUMPI DUP1 PUSH1 0x1F LT PUSH2 0x26B JUMPI PUSH2 0x100 DUP1 DUP4 SLOAD DIV MUL DUP4 MSTORE SWAP2 PUSH1 0x20 ADD SWAP2 PUSH2 0x296 JUMP JUMPDEST DUP3 ADD SWAP2 SWAP1 PUSH1 0x0 MSTORE PUSH1 0x20 PUSH1 0x0 KECCAK256 SWAP1 JUMPDEST DUP2 SLOAD DUP2 MSTORE SWAP1 PUSH1 0x1 ADD SWAP1 PUSH1 0x20 ADD DUP1 DUP4 GT PUSH2 0x279 JUMPI DUP3 SWAP1 SUB PUSH1 0x1F AND DUP3 ADD SWAP2 JUMPDEST POP POP POP POP POP DUP7 DUP7 DUP5 DUP2 DUP2 LT PUSH2 0x2AE JUMPI PUSH2 0x2AD PUSH2 0x132E JUMP JUMPDEST JUMPDEST SWAP1 POP PUSH1 0x20 MUL DUP2 ADD SWAP1 PUSH2 0x2C0 SWAP2 SWAP1 PUSH2 0x13CC JUMP JUMPDEST PUSH2 0x54A JUMP JUMPDEST ISZERO PUSH2 0x2D9 JUMPI DUP2 DUP1 PUSH2 0x2D5 SWAP1 PUSH2 0x145E JUMP JUMPDEST SWAP3 POP POP JUMPDEST DUP1 DUP1 PUSH2 0x2E4 SWAP1 PUSH2 0x145E JUMP JUMPDEST SWAP2 POP POP PUSH2 0x1F1 JUMP JUMPDEST POP DUP1 SWAP2 POP POP SWAP3 SWAP2 POP POP JUMP JUMPDEST PUSH7 0xB1A2BC2EC50000 CALLVALUE EQ PUSH2 0x30A JUMPI PUSH1 0x0 DUP1 REVERT JUMPDEST PUSH1 0x0 PUSH2 0x316 DUP4 DUP4 PUSH2 0x1EB JUMP JUMPDEST SWAP1 POP PUSH2 0x321 DUP2 PUSH2 0x96C JUMP JUMPDEST POP POP POP JUMP JUMPDEST PUSH1 0x0 PUSH1 0x2 DUP3 PUSH1 0xF8 SHR DUP5 PUSH1 0xF8 SHR PUSH2 0x33C SWAP2 SWAP1 PUSH2 0x14B3 JUMP JUMPDEST PUSH2 0x346 SWAP2 SWAP1 PUSH2 0x1517 JUMP JUMPDEST PUSH1 0xF8 SHL SWAP1 POP SWAP3 SWAP2 POP POP JUMP JUMPDEST PUSH2 0x362 PUSH2 0x35D DUP8 PUSH2 0x831 JUMP JUMPDEST PUSH2 0x5A6 JUMP JUMPDEST PUSH1 0x40 MLOAD PUSH1 0x20 ADD PUSH2 0x372 SWAP2 SWAP1 PUSH2 0x1569 JUMP JUMPDEST PUSH1 0x40 MLOAD PUSH1 0x20 DUP2 DUP4 SUB SUB DUP2 MSTORE SWAP1 PUSH1 0x40 MSTORE PUSH1 0x0 DUP1 PUSH1 0x6 DUP2 LT PUSH2 0x395 JUMPI PUSH2 0x394 PUSH2 0x132E JUMP JUMPDEST JUMPDEST ADD SWAP1 DUP2 PUSH2 0x3A2 SWAP2 SWAP1 PUSH2 0x173B JUMP JUMPDEST POP PUSH2 0x3B4 PUSH2 0x3AF DUP7 PUSH2 0x831 JUMP JUMPDEST PUSH2 0x5A6 JUMP JUMPDEST PUSH1 0x40 MLOAD PUSH1 0x20 ADD PUSH2 0x3C4 SWAP2 SWAP1 PUSH2 0x1569 JUMP JUMPDEST PUSH1 0x40 MLOAD PUSH1 0x20 DUP2 DUP4 SUB SUB DUP2 MSTORE SWAP1 PUSH1 0x40 MSTORE PUSH1 0x0 PUSH1 0x1 PUSH1 0x6 DUP2 LT PUSH2 0x3E8 JUMPI PUSH2 0x3E7 PUSH2 0x132E JUMP JUMPDEST JUMPDEST ADD SWAP1 DUP2 PUSH2 0x3F5 SWAP2 SWAP1 PUSH2 0x173B JUMP JUMPDEST POP PUSH2 0x407 PUSH2 0x402 DUP6 PUSH2 0x831 JUMP JUMPDEST PUSH2 0x5A6 JUMP JUMPDEST PUSH1 0x40 MLOAD PUSH1 0x20 ADD PUSH2 0x417 SWAP2 SWAP1 PUSH2 0x1569 JUMP JUMPDEST PUSH1 0x40 MLOAD PUSH1 0x20 DUP2 DUP4 SUB SUB DUP2 MSTORE SWAP1 PUSH1 0x40 MSTORE PUSH1 0x0 PUSH1 0x2 PUSH1 0x6 DUP2 LT PUSH2 0x43B JUMPI PUSH2 0x43A PUSH2 0x132E JUMP JUMPDEST JUMPDEST ADD SWAP1 DUP2 PUSH2 0x448 SWAP2 SWAP1 PUSH2 0x173B JUMP JUMPDEST POP PUSH2 0x45A PUSH2 0x455 DUP5 PUSH2 0x831 JUMP JUMPDEST PUSH2 0x5A6 JUMP JUMPDEST PUSH1 0x40 MLOAD PUSH1 0x20 ADD PUSH2 0x46A SWAP2 SWAP1 PUSH2 0x1569 JUMP JUMPDEST PUSH1 0x40 MLOAD PUSH1 0x20 DUP2 DUP4 SUB SUB DUP2 MSTORE SWAP1 PUSH1 0x40 MSTORE PUSH1 0x0 PUSH1 0x3 PUSH1 0x6 DUP2 LT PUSH2 0x48E JUMPI PUSH2 0x48D PUSH2 0x132E JUMP JUMPDEST JUMPDEST ADD SWAP1 DUP2 PUSH2 0x49B SWAP2 SWAP1 PUSH2 0x173B JUMP JUMPDEST POP PUSH2 0x4AD PUSH2 0x4A8 DUP4 PUSH2 0x831 JUMP JUMPDEST PUSH2 0x5A6 JUMP JUMPDEST PUSH1 0x40 MLOAD PUSH1 0x20 ADD PUSH2 0x4BD SWAP2 SWAP1 PUSH2 0x1569 JUMP JUMPDEST PUSH1 0x40 MLOAD PUSH1 0x20 DUP2 DUP4 SUB SUB DUP2 MSTORE SWAP1 PUSH1 0x40 MSTORE PUSH1 0x0 PUSH1 0x4 PUSH1 0x6 DUP2 LT PUSH2 0x4E1 JUMPI PUSH2 0x4E0 PUSH2 0x132E JUMP JUMPDEST JUMPDEST ADD SWAP1 DUP2 PUSH2 0x4EE SWAP2 SWAP1 PUSH2 0x173B JUMP JUMPDEST POP PUSH2 0x500 PUSH2 0x4FB DUP3 PUSH2 0x831 JUMP JUMPDEST PUSH2 0x5A6 JUMP JUMPDEST PUSH1 0x40 MLOAD PUSH1 0x20 ADD PUSH2 0x510 SWAP2 SWAP1 PUSH2 0x1569 JUMP JUMPDEST PUSH1 0x40 MLOAD PUSH1 0x20 DUP2 DUP4 SUB SUB DUP2 MSTORE SWAP1 PUSH1 0x40 MSTORE PUSH1 0x0 PUSH1 0x5 PUSH1 0x6 DUP2 LT PUSH2 0x534 JUMPI PUSH2 0x533 PUSH2 0x132E JUMP JUMPDEST JUMPDEST ADD SWAP1 DUP2 PUSH2 0x541 SWAP2 SWAP1 PUSH2 0x173B JUMP JUMPDEST POP POP POP POP POP POP POP JUMP JUMPDEST PUSH1 0x0 DUP3 DUP3 PUSH1 0x40 MLOAD PUSH1 0x20 ADD PUSH2 0x55F SWAP3 SWAP2 SWAP1 PUSH2 0x183D JUMP JUMPDEST PUSH1 0x40 MLOAD PUSH1 0x20 DUP2 DUP4 SUB SUB DUP2 MSTORE SWAP1 PUSH1 0x40 MSTORE DUP1 MLOAD SWAP1 PUSH1 0x20 ADD KECCAK256 DUP5 PUSH1 0x40 MLOAD PUSH1 0x20 ADD PUSH2 0x586 SWAP2 SWAP1 PUSH2 0x18B1 JUMP JUMPDEST PUSH1 0x40 MLOAD PUSH1 0x20 DUP2 DUP4 SUB SUB DUP2 MSTORE SWAP1 PUSH1 0x40 MSTORE DUP1 MLOAD SWAP1 PUSH1 0x20 ADD KECCAK256 EQ SWAP1 POP SWAP4 SWAP3 POP POP POP JUMP JUMPDEST PUSH1 0x0 DUP1 DUP3 MLOAD SWAP1 POP PUSH1 0x0 JUMPDEST PUSH1 0x1 DUP3 PUSH2 0x5BD SWAP2 SWAP1 PUSH2 0x18C8 JUMP JUMPDEST DUP2 LT ISZERO PUSH2 0x782 JUMPI PUSH1 0x0 PUSH1 0x1 DUP3 PUSH2 0x5D3 SWAP2 SWAP1 PUSH2 0x18FC JUMP JUMPDEST SWAP1 POP JUMPDEST DUP3 DUP2 LT ISZERO PUSH2 0x76E JUMPI DUP5 DUP2 DUP2 MLOAD DUP2 LT PUSH2 0x5F1 JUMPI PUSH2 0x5F0 PUSH2 0x132E JUMP JUMPDEST JUMPDEST PUSH1 0x20 MUL PUSH1 0x20 ADD ADD MLOAD PUSH31 0xFFFFFFFFFFFFFFFFFFFFFFFFFFFFFFFFFFFFFFFFFFFFFFFFFFFFFFFFFFFFFF NOT AND DUP6 DUP4 DUP2 MLOAD DUP2 LT PUSH2 0x62E JUMPI PUSH2 0x62D PUSH2 0x132E JUMP JUMPDEST JUMPDEST PUSH1 0x20 MUL PUSH1 0x20 ADD ADD MLOAD PUSH31 0xFFFFFFFFFFFFFFFFFFFFFFFFFFFFFFFFFFFFFFFFFFFFFFFFFFFFFFFFFFFFFF NOT AND LT ISZERO PUSH2 0x75B JUMPI DUP5 DUP2 DUP2 MLOAD DUP2 LT PUSH2 0x671 JUMPI PUSH2 0x670 PUSH2 0x132E JUMP JUMPDEST JUMPDEST PUSH1 0x20 MUL PUSH1 0x20 ADD ADD MLOAD DUP6 DUP4 DUP2 MLOAD DUP2 LT PUSH2 0x68C JUMPI PUSH2 0x68B PUSH2 0x132E JUMP JUMPDEST JUMPDEST PUSH1 0x20 MUL PUSH1 0x20 ADD ADD MLOAD DUP7 DUP5 DUP2 MLOAD DUP2 LT PUSH2 0x6A7 JUMPI PUSH2 0x6A6 PUSH2 0x132E JUMP JUMPDEST JUMPDEST PUSH1 0x20 MUL PUSH1 0x20 ADD ADD DUP8 DUP5 DUP2 MLOAD DUP2 LT PUSH2 0x6C1 JUMPI PUSH2 0x6C0 PUSH2 0x132E JUMP JUMPDEST JUMPDEST PUSH1 0x20 MUL PUSH1 0x20 ADD ADD DUP3 PUSH31 0xFFFFFFFFFFFFFFFFFFFFFFFFFFFFFFFFFFFFFFFFFFFFFFFFFFFFFFFFFFFFFF NOT AND PUSH31 0xFFFFFFFFFFFFFFFFFFFFFFFFFFFFFFFFFFFFFFFFFFFFFFFFFFFFFFFFFFFFFF NOT AND DUP2 MSTORE POP DUP3 PUSH31 0xFFFFFFFFFFFFFFFFFFFFFFFFFFFFFFFFFFFFFFFFFFFFFFFFFFFFFFFFFFFFFF NOT AND PUSH31 0xFFFFFFFFFFFFFFFFFFFFFFFFFFFFFFFFFFFFFFFFFFFFFFFFFFFFFFFFFFFFFF NOT AND DUP2 MSTORE POP POP POP JUMPDEST DUP1 DUP1 PUSH2 0x766 SWAP1 PUSH2 0x145E JUMP JUMPDEST SWAP2 POP POP PUSH2 0x5D6 JUMP JUMPDEST POP DUP1 DUP1 PUSH2 0x77A SWAP1 PUSH2 0x145E JUMP JUMPDEST SWAP2 POP POP PUSH2 0x5B0 JUMP JUMPDEST POP PUSH1 0x0 PUSH1 0x2 DUP3 PUSH2 0x792 SWAP2 SWAP1 PUSH2 0x1930 JUMP JUMPDEST SUB PUSH2 0x801 JUMPI PUSH2 0x7F9 DUP4 PUSH1 0x1 PUSH1 0x2 DUP5 PUSH2 0x7AA SWAP2 SWAP1 PUSH2 0x1961 JUMP JUMPDEST PUSH2 0x7B4 SWAP2 SWAP1 PUSH2 0x18C8 JUMP JUMPDEST DUP2 MLOAD DUP2 LT PUSH2 0x7C5 JUMPI PUSH2 0x7C4 PUSH2 0x132E JUMP JUMPDEST JUMPDEST PUSH1 0x20 MUL PUSH1 0x20 ADD ADD MLOAD DUP5 PUSH1 0x2 DUP5 PUSH2 0x7DB SWAP2 SWAP1 PUSH2 0x1961 JUMP JUMPDEST DUP2 MLOAD DUP2 LT PUSH2 0x7EC JUMPI PUSH2 0x7EB PUSH2 0x132E JUMP JUMPDEST JUMPDEST PUSH1 0x20 MUL PUSH1 0x20 ADD ADD MLOAD PUSH2 0x326 JUMP JUMPDEST SWAP2 POP POP PUSH2 0x82C JUMP JUMPDEST DUP3 PUSH1 0x2 DUP3 PUSH2 0x80F SWAP2 SWAP1 PUSH2 0x1961 JUMP JUMPDEST DUP2 MLOAD DUP2 LT PUSH2 0x820 JUMPI PUSH2 0x81F PUSH2 0x132E JUMP JUMPDEST JUMPDEST PUSH1 0x20 MUL PUSH1 0x20 ADD ADD MLOAD SWAP2 POP POP JUMPDEST SWAP2 SWAP1 POP JUMP JUMPDEST PUSH1 0x60 PUSH1 0x0 DUP3 MLOAD SWAP1 POP PUSH1 0x0 DUP2 PUSH8 0xFFFFFFFFFFFFFFFF DUP2 GT ISZERO PUSH2 0x855 JUMPI PUSH2 0x854 PUSH2 0xCAB JUMP JUMPDEST JUMPDEST PUSH1 0x40 MLOAD SWAP1 DUP1 DUP3 MSTORE DUP1 PUSH1 0x20 MUL PUSH1 0x20 ADD DUP3 ADD PUSH1 0x40 MSTORE DUP1 ISZERO PUSH2 0x883 JUMPI DUP2 PUSH1 0x20 ADD PUSH1 0x20 DUP3 MUL DUP1 CALLDATASIZE DUP4 CALLDATACOPY DUP1 DUP3 ADD SWAP2 POP POP SWAP1 POP JUMPDEST POP SWAP1 POP PUSH1 0x0 JUMPDEST DUP3 DUP2 LT ISZERO PUSH2 0x961 JUMPI DUP5 DUP2 DUP2 MLOAD DUP2 LT PUSH2 0x8A4 JUMPI PUSH2 0x8A3 PUSH2 0x132E JUMP JUMPDEST JUMPDEST PUSH1 0x20 MUL PUSH1 0x20 ADD ADD MLOAD PUSH1 0x40 MLOAD PUSH1 0x20 ADD PUSH2 0x8BC SWAP2 SWAP1 PUSH2 0x18B1 JUMP JUMPDEST PUSH1 0x40 MLOAD PUSH1 0x20 DUP2 DUP4 SUB SUB DUP2 MSTORE SWAP1 PUSH1 0x40 MSTORE PUSH1 0x0 DUP2 MLOAD DUP2 LT PUSH2 0x8DE JUMPI PUSH2 0x8DD PUSH2 0x132E JUMP JUMPDEST JUMPDEST PUSH1 0x20 ADD ADD MLOAD PUSH1 0xF8 SHR PUSH1 0xF8 SHL DUP3 DUP3 DUP2 MLOAD DUP2 LT PUSH2 0x8FC JUMPI PUSH2 0x8FB PUSH2 0x132E JUMP JUMPDEST JUMPDEST PUSH1 0x20 MUL PUSH1 0x20 ADD ADD SWAP1 PUSH31 0xFFFFFFFFFFFFFFFFFFFFFFFFFFFFFFFFFFFFFFFFFFFFFFFFFFFFFFFFFFFFFF NOT AND SWAP1 DUP2 PUSH31 0xFFFFFFFFFFFFFFFFFFFFFFFFFFFFFFFFFFFFFFFFFFFFFFFFFFFFFFFFFFFFFF NOT AND DUP2 MSTORE POP POP DUP1 DUP1 PUSH2 0x959 SWAP1 PUSH2 0x145E JUMP JUMPDEST SWAP2 POP POP PUSH2 0x889 JUMP JUMPDEST POP DUP1 SWAP3 POP POP POP SWAP2 SWAP1 POP JUMP JUMPDEST PUSH1 0x6 DUP2 SUB PUSH2 0x9C8 JUMPI CALLER PUSH20 0xFFFFFFFFFFFFFFFFFFFFFFFFFFFFFFFFFFFFFFFF AND PUSH2 0x8FC PUSH8 0xDE0B6B3A7640000 SWAP1 DUP2 ISZERO MUL SWAP1 PUSH1 0x40 MLOAD PUSH1 0x0 PUSH1 0x40 MLOAD DUP1 DUP4 SUB DUP2 DUP6 DUP9 DUP9 CALL SWAP4 POP POP POP POP ISZERO DUP1 ISZERO PUSH2 0x9C2 JUMPI RETURNDATASIZE PUSH1 0x0 DUP1 RETURNDATACOPY RETURNDATASIZE PUSH1 0x0 REVERT JUMPDEST POP PUSH2 0xADB JUMP JUMPDEST PUSH1 0x5 DUP2 SUB PUSH2 0xA24 JUMPI CALLER PUSH20 0xFFFFFFFFFFFFFFFFFFFFFFFFFFFFFFFFFFFFFFFF AND PUSH2 0x8FC PUSH8 0xA688906BD8B0000 SWAP1 DUP2 ISZERO MUL SWAP1 PUSH1 0x40 MLOAD PUSH1 0x0 PUSH1 0x40 MLOAD DUP1 DUP4 SUB DUP2 DUP6 DUP9 DUP9 CALL SWAP4 POP POP POP POP ISZERO DUP1 ISZERO PUSH2 0xA1E JUMPI RETURNDATASIZE PUSH1 0x0 DUP1 RETURNDATACOPY RETURNDATASIZE PUSH1 0x0 REVERT JUMPDEST POP PUSH2 0xADA JUMP JUMPDEST PUSH1 0x4 DUP2 SUB PUSH2 0xA80 JUMPI CALLER PUSH20 0xFFFFFFFFFFFFFFFFFFFFFFFFFFFFFFFFFFFFFFFF AND PUSH2 0x8FC PUSH8 0x3782DACE9D90000 SWAP1 DUP2 ISZERO MUL SWAP1 PUSH1 0x40 MLOAD PUSH1 0x0 PUSH1 0x40 MLOAD DUP1 DUP4 SUB DUP2 DUP6 DUP9 DUP9 CALL SWAP4 POP POP POP POP ISZERO DUP1 ISZERO PUSH2 0xA7A JUMPI RETURNDATASIZE PUSH1 0x0 DUP1 RETURNDATACOPY RETURNDATASIZE PUSH1 0x0 REVERT JUMPDEST POP PUSH2 0xAD9 JUMP JUMPDEST PUSH1 0x3 DUP2 SUB PUSH2 0xAD8 JUMPI CALLER PUSH20 0xFFFFFFFFFFFFFFFFFFFFFFFFFFFFFFFFFFFFFFFF AND PUSH2 0x8FC PUSH8 0x16345785D8A0000 SWAP1 DUP2 ISZERO MUL SWAP1 PUSH1 0x40 MLOAD PUSH1 0x0 PUSH1 0x40 MLOAD DUP1 DUP4 SUB DUP2 DUP6 DUP9 DUP9 CALL SWAP4 POP POP POP POP ISZERO DUP1 ISZERO PUSH2 0xAD6 JUMPI RETURNDATASIZE PUSH1 0x0 DUP1 RETURNDATACOPY RETURNDATASIZE PUSH1 0x0 REVERT JUMPDEST POP JUMPDEST JUMPDEST JUMPDEST JUMPDEST POP JUMP JUMPDEST PUSH1 0x0 PUSH1 0x40 MLOAD SWAP1 POP SWAP1 JUMP JUMPDEST PUSH1 0x0 DUP1 REVERT JUMPDEST PUSH1 0x0 DUP1 REVERT JUMPDEST PUSH1 0x0 DUP1 REVERT JUMPDEST PUSH1 0x0 DUP1 REVERT JUMPDEST PUSH1 0x0 DUP1 REVERT JUMPDEST PUSH1 0x0 DUP1 DUP4 PUSH1 0x1F DUP5 ADD SLT PUSH2 0xB17 JUMPI PUSH2 0xB16 PUSH2 0xAF2 JUMP JUMPDEST JUMPDEST DUP3 CALLDATALOAD SWAP1 POP PUSH8 0xFFFFFFFFFFFFFFFF DUP2 GT ISZERO PUSH2 0xB34 JUMPI PUSH2 0xB33 PUSH2 0xAF7 JUMP JUMPDEST JUMPDEST PUSH1 0x20 DUP4 ADD SWAP2 POP DUP4 PUSH1 0x20 DUP3 MUL DUP4 ADD GT ISZERO PUSH2 0xB50 JUMPI PUSH2 0xB4F PUSH2 0xAFC JUMP JUMPDEST JUMPDEST SWAP3 POP SWAP3 SWAP1 POP JUMP JUMPDEST PUSH1 0x0 DUP1 PUSH1 0x20 DUP4 DUP6 SUB SLT ISZERO PUSH2 0xB6E JUMPI PUSH2 0xB6D PUSH2 0xAE8 JUMP JUMPDEST JUMPDEST PUSH1 0x0 DUP4 ADD CALLDATALOAD PUSH8 0xFFFFFFFFFFFFFFFF DUP2 GT ISZERO PUSH2 0xB8C JUMPI PUSH2 0xB8B PUSH2 0xAED JUMP JUMPDEST JUMPDEST PUSH2 0xB98 DUP6 DUP3 DUP7 ADD PUSH2 0xB01 JUMP JUMPDEST SWAP3 POP SWAP3 POP POP SWAP3 POP SWAP3 SWAP1 POP JUMP JUMPDEST PUSH1 0x0 DUP2 SWAP1 POP SWAP2 SWAP1 POP JUMP JUMPDEST PUSH2 0xBB7 DUP2 PUSH2 0xBA4 JUMP JUMPDEST DUP3 MSTORE POP POP JUMP JUMPDEST PUSH1 0x0 PUSH1 0x20 DUP3 ADD SWAP1 POP PUSH2 0xBD2 PUSH1 0x0 DUP4 ADD DUP5 PUSH2 0xBAE JUMP JUMPDEST SWAP3 SWAP2 POP POP JUMP JUMPDEST PUSH1 0x0 PUSH32 0xFF00000000000000000000000000000000000000000000000000000000000000 DUP3 AND SWAP1 POP SWAP2 SWAP1 POP JUMP JUMPDEST PUSH2 0xC0D DUP2 PUSH2 0xBD8 JUMP JUMPDEST DUP2 EQ PUSH2 0xC18 JUMPI PUSH1 0x0 DUP1 REVERT JUMPDEST POP JUMP JUMPDEST PUSH1 0x0 DUP2 CALLDATALOAD SWAP1 POP PUSH2 0xC2A DUP2 PUSH2 0xC04 JUMP JUMPDEST SWAP3 SWAP2 POP POP JUMP JUMPDEST PUSH1 0x0 DUP1 PUSH1 0x40 DUP4 DUP6 SUB SLT ISZERO PUSH2 0xC47 JUMPI PUSH2 0xC46 PUSH2 0xAE8 JUMP JUMPDEST JUMPDEST PUSH1 0x0 PUSH2 0xC55 DUP6 DUP3 DUP7 ADD PUSH2 0xC1B JUMP JUMPDEST SWAP3 POP POP PUSH1 0x20 PUSH2 0xC66 DUP6 DUP3 DUP7 ADD PUSH2 0xC1B JUMP JUMPDEST SWAP2 POP POP SWAP3 POP SWAP3 SWAP1 POP JUMP JUMPDEST PUSH2 0xC79 DUP2 PUSH2 0xBD8 JUMP JUMPDEST DUP3 MSTORE POP POP JUMP JUMPDEST PUSH1 0x0 PUSH1 0x20 DUP3 ADD SWAP1 POP PUSH2 0xC94 PUSH1 0x0 DUP4 ADD DUP5 PUSH2 0xC70 JUMP JUMPDEST SWAP3 SWAP2 POP POP JUMP JUMPDEST PUSH1 0x0 PUSH1 0x1F NOT PUSH1 0x1F DUP4 ADD AND SWAP1 POP SWAP2 SWAP1 POP JUMP JUMPDEST PUSH32 0x4E487B7100000000000000000000000000000000000000000000000000000000 PUSH1 0x0 MSTORE PUSH1 0x41 PUSH1 0x4 MSTORE PUSH1 0x24 PUSH1 0x0 REVERT JUMPDEST PUSH2 0xCE3 DUP3 PUSH2 0xC9A JUMP JUMPDEST DUP2 ADD DUP2 DUP2 LT PUSH8 0xFFFFFFFFFFFFFFFF DUP3 GT OR ISZERO PUSH2 0xD02 JUMPI PUSH2 0xD01 PUSH2 0xCAB JUMP JUMPDEST JUMPDEST DUP1 PUSH1 0x40 MSTORE POP POP POP JUMP JUMPDEST PUSH1 0x0 PUSH2 0xD15 PUSH2 0xADE JUMP JUMPDEST SWAP1 POP PUSH2 0xD21 DUP3 DUP3 PUSH2 0xCDA JUMP JUMPDEST SWAP2 SWAP1 POP JUMP JUMPDEST PUSH1 0x0 PUSH8 0xFFFFFFFFFFFFFFFF DUP3 GT ISZERO PUSH2 0xD41 JUMPI PUSH2 0xD40 PUSH2 0xCAB JUMP JUMPDEST JUMPDEST PUSH1 0x20 DUP3 MUL SWAP1 POP PUSH1 0x20 DUP2 ADD SWAP1 POP SWAP2 SWAP1 POP JUMP JUMPDEST PUSH1 0x0 DUP1 REVERT JUMPDEST PUSH1 0x0 PUSH8 0xFFFFFFFFFFFFFFFF DUP3 GT ISZERO PUSH2 0xD72 JUMPI PUSH2 0xD71 PUSH2 0xCAB JUMP JUMPDEST JUMPDEST PUSH2 0xD7B DUP3 PUSH2 0xC9A JUMP JUMPDEST SWAP1 POP PUSH1 0x20 DUP2 ADD SWAP1 POP SWAP2 SWAP1 POP JUMP JUMPDEST DUP3 DUP2 DUP4 CALLDATACOPY PUSH1 0x0 DUP4 DUP4 ADD MSTORE POP POP POP JUMP JUMPDEST PUSH1 0x0 PUSH2 0xDAA PUSH2 0xDA5 DUP5 PUSH2 0xD57 JUMP JUMPDEST PUSH2 0xD0B JUMP JUMPDEST SWAP1 POP DUP3 DUP2 MSTORE PUSH1 0x20 DUP2 ADD DUP5 DUP5 DUP5 ADD GT ISZERO PUSH2 0xDC6 JUMPI PUSH2 0xDC5 PUSH2 0xD52 JUMP JUMPDEST JUMPDEST PUSH2 0xDD1 DUP5 DUP3 DUP6 PUSH2 0xD88 JUMP JUMPDEST POP SWAP4 SWAP3 POP POP POP JUMP JUMPDEST PUSH1 0x0 DUP3 PUSH1 0x1F DUP4 ADD SLT PUSH2 0xDEE JUMPI PUSH2 0xDED PUSH2 0xAF2 JUMP JUMPDEST JUMPDEST DUP2 CALLDATALOAD PUSH2 0xDFE DUP5 DUP3 PUSH1 0x20 DUP7 ADD PUSH2 0xD97 JUMP JUMPDEST SWAP2 POP POP SWAP3 SWAP2 POP POP JUMP JUMPDEST PUSH1 0x0 PUSH2 0xE1A PUSH2 0xE15 DUP5 PUSH2 0xD26 JUMP JUMPDEST PUSH2 0xD0B JUMP JUMPDEST SWAP1 POP DUP1 DUP4 DUP3 MSTORE PUSH1 0x20 DUP3 ADD SWAP1 POP PUSH1 0x20 DUP5 MUL DUP4 ADD DUP6 DUP2 GT ISZERO PUSH2 0xE3D JUMPI PUSH2 0xE3C PUSH2 0xAFC JUMP JUMPDEST JUMPDEST DUP4 JUMPDEST DUP2 DUP2 LT ISZERO PUSH2 0xE84 JUMPI DUP1 CALLDATALOAD PUSH8 0xFFFFFFFFFFFFFFFF DUP2 GT ISZERO PUSH2 0xE62 JUMPI PUSH2 0xE61 PUSH2 0xAF2 JUMP JUMPDEST JUMPDEST DUP1 DUP7 ADD PUSH2 0xE6F DUP10 DUP3 PUSH2 0xDD9 JUMP JUMPDEST DUP6 MSTORE PUSH1 0x20 DUP6 ADD SWAP5 POP POP POP PUSH1 0x20 DUP2 ADD SWAP1 POP PUSH2 0xE3F JUMP JUMPDEST POP POP POP SWAP4 SWAP3 POP POP POP JUMP JUMPDEST PUSH1 0x0 DUP3 PUSH1 0x1F DUP4 ADD SLT PUSH2 0xEA3 JUMPI PUSH2 0xEA2 PUSH2 0xAF2 JUMP JUMPDEST JUMPDEST DUP2 CALLDATALOAD PUSH2 0xEB3 DUP5 DUP3 PUSH1 0x20 DUP7 ADD PUSH2 0xE07 JUMP JUMPDEST SWAP2 POP POP SWAP3 SWAP2 POP POP JUMP JUMPDEST PUSH1 0x0 DUP1 PUSH1 0x0 DUP1 PUSH1 0x0 DUP1 PUSH1 0xC0 DUP8 DUP10 SUB SLT ISZERO PUSH2 0xED9 JUMPI PUSH2 0xED8 PUSH2 0xAE8 JUMP JUMPDEST JUMPDEST PUSH1 0x0 DUP8 ADD CALLDATALOAD PUSH8 0xFFFFFFFFFFFFFFFF DUP2 GT ISZERO PUSH2 0xEF7 JUMPI PUSH2 0xEF6 PUSH2 0xAED JUMP JUMPDEST JUMPDEST PUSH2 0xF03 DUP10 DUP3 DUP11 ADD PUSH2 0xE8E JUMP JUMPDEST SWAP7 POP POP PUSH1 0x20 DUP8 ADD CALLDATALOAD PUSH8 0xFFFFFFFFFFFFFFFF DUP2 GT ISZERO PUSH2 0xF24 JUMPI PUSH2 0xF23 PUSH2 0xAED JUMP JUMPDEST JUMPDEST PUSH2 0xF30 DUP10 DUP3 DUP11 ADD PUSH2 0xE8E JUMP JUMPDEST SWAP6 POP POP PUSH1 0x40 DUP8 ADD CALLDATALOAD PUSH8 0xFFFFFFFFFFFFFFFF DUP2 GT ISZERO PUSH2 0xF51 JUMPI PUSH2 0xF50 PUSH2 0xAED JUMP JUMPDEST JUMPDEST PUSH2 0xF5D DUP10 DUP3 DUP11 ADD PUSH2 0xE8E JUMP JUMPDEST SWAP5 POP POP PUSH1 0x60 DUP8 ADD CALLDATALOAD PUSH8 0xFFFFFFFFFFFFFFFF DUP2 GT ISZERO PUSH2 0xF7E JUMPI PUSH2 0xF7D PUSH2 0xAED JUMP JUMPDEST JUMPDEST PUSH2 0xF8A DUP10 DUP3 DUP11 ADD PUSH2 0xE8E JUMP JUMPDEST SWAP4 POP POP PUSH1 0x80 DUP8 ADD CALLDATALOAD PUSH8 0xFFFFFFFFFFFFFFFF DUP2 GT ISZERO PUSH2 0xFAB JUMPI PUSH2 0xFAA PUSH2 0xAED JUMP JUMPDEST JUMPDEST PUSH2 0xFB7 DUP10 DUP3 DUP11 ADD PUSH2 0xE8E JUMP JUMPDEST SWAP3 POP POP PUSH1 0xA0 DUP8 ADD CALLDATALOAD PUSH8 0xFFFFFFFFFFFFFFFF DUP2 GT ISZERO PUSH2 0xFD8 JUMPI PUSH2 0xFD7 PUSH2 0xAED JUMP JUMPDEST JUMPDEST PUSH2 0xFE4 DUP10 DUP3 DUP11 ADD PUSH2 0xE8E JUMP JUMPDEST SWAP2 POP POP SWAP3 SWAP6 POP SWAP3 SWAP6 POP SWAP3 SWAP6 JUMP JUMPDEST PUSH1 0x0 DUP1 DUP4 PUSH1 0x1F DUP5 ADD SLT PUSH2 0x1007 JUMPI PUSH2 0x1006 PUSH2 0xAF2 JUMP JUMPDEST JUMPDEST DUP3 CALLDATALOAD SWAP1 POP PUSH8 0xFFFFFFFFFFFFFFFF DUP2 GT ISZERO PUSH2 0x1024 JUMPI PUSH2 0x1023 PUSH2 0xAF7 JUMP JUMPDEST JUMPDEST PUSH1 0x20 DUP4 ADD SWAP2 POP DUP4 PUSH1 0x1 DUP3 MUL DUP4 ADD GT ISZERO PUSH2 0x1040 JUMPI PUSH2 0x103F PUSH2 0xAFC JUMP JUMPDEST JUMPDEST SWAP3 POP SWAP3 SWAP1 POP JUMP JUMPDEST PUSH1 0x0 DUP1 PUSH1 0x0 PUSH1 0x40 DUP5 DUP7 SUB SLT ISZERO PUSH2 0x1060 JUMPI PUSH2 0x105F PUSH2 0xAE8 JUMP JUMPDEST JUMPDEST PUSH1 0x0 DUP5 ADD CALLDATALOAD PUSH8 0xFFFFFFFFFFFFFFFF DUP2 GT ISZERO PUSH2 0x107E JUMPI PUSH2 0x107D PUSH2 0xAED JUMP JUMPDEST JUMPDEST PUSH2 0x108A DUP7 DUP3 DUP8 ADD PUSH2 0xDD9 JUMP JUMPDEST SWAP4 POP POP PUSH1 0x20 DUP5 ADD CALLDATALOAD PUSH8 0xFFFFFFFFFFFFFFFF DUP2 GT ISZERO PUSH2 0x10AB JUMPI PUSH2 0x10AA PUSH2 0xAED JUMP JUMPDEST JUMPDEST PUSH2 0x10B7 DUP7 DUP3 DUP8 ADD PUSH2 0xFF1 JUMP JUMPDEST SWAP3 POP SWAP3 POP POP SWAP3 POP SWAP3 POP SWAP3 JUMP JUMPDEST PUSH1 0x0 DUP2 ISZERO ISZERO SWAP1 POP SWAP2 SWAP1 POP JUMP JUMPDEST PUSH2 0x10D8 DUP2 PUSH2 0x10C3 JUMP JUMPDEST DUP3 MSTORE POP POP JUMP JUMPDEST PUSH1 0x0 PUSH1 0x20 DUP3 ADD SWAP1 POP PUSH2 0x10F3 PUSH1 0x0 DUP4 ADD DUP5 PUSH2 0x10CF JUMP JUMPDEST SWAP3 SWAP2 POP POP JUMP JUMPDEST PUSH1 0x0 PUSH8 0xFFFFFFFFFFFFFFFF DUP3 GT ISZERO PUSH2 0x1114 JUMPI PUSH2 0x1113 PUSH2 0xCAB JUMP JUMPDEST JUMPDEST PUSH1 0x20 DUP3 MUL SWAP1 POP PUSH1 0x20 DUP2 ADD SWAP1 POP SWAP2 SWAP1 POP JUMP JUMPDEST PUSH1 0x0 PUSH2 0x1138 PUSH2 0x1133 DUP5 PUSH2 0x10F9 JUMP JUMPDEST PUSH2 0xD0B JUMP JUMPDEST SWAP1 POP DUP1 DUP4 DUP3 MSTORE PUSH1 0x20 DUP3 ADD SWAP1 POP PUSH1 0x20 DUP5 MUL DUP4 ADD DUP6 DUP2 GT ISZERO PUSH2 0x115B JUMPI PUSH2 0x115A PUSH2 0xAFC JUMP JUMPDEST JUMPDEST DUP4 JUMPDEST DUP2 DUP2 LT ISZERO PUSH2 0x1184 JUMPI DUP1 PUSH2 0x1170 DUP9 DUP3 PUSH2 0xC1B JUMP JUMPDEST DUP5 MSTORE PUSH1 0x20 DUP5 ADD SWAP4 POP POP PUSH1 0x20 DUP2 ADD SWAP1 POP PUSH2 0x115D JUMP JUMPDEST POP POP POP SWAP4 SWAP3 POP POP POP JUMP JUMPDEST PUSH1 0x0 DUP3 PUSH1 0x1F DUP4 ADD SLT PUSH2 0x11A3 JUMPI PUSH2 0x11A2 PUSH2 0xAF2 JUMP JUMPDEST JUMPDEST DUP2 CALLDATALOAD PUSH2 0x11B3 DUP5 DUP3 PUSH1 0x20 DUP7 ADD PUSH2 0x1125 JUMP JUMPDEST SWAP2 POP POP SWAP3 SWAP2 POP POP JUMP JUMPDEST PUSH1 0x0 PUSH1 0x20 DUP3 DUP5 SUB SLT ISZERO PUSH2 0x11D2 JUMPI PUSH2 0x11D1 PUSH2 0xAE8 JUMP JUMPDEST JUMPDEST PUSH1 0x0 DUP3 ADD CALLDATALOAD PUSH8 0xFFFFFFFFFFFFFFFF DUP2 GT ISZERO PUSH2 0x11F0 JUMPI PUSH2 0x11EF PUSH2 0xAED JUMP JUMPDEST JUMPDEST PUSH2 0x11FC DUP5 DUP3 DUP6 ADD PUSH2 0x118E JUMP JUMPDEST SWAP2 POP POP SWAP3 SWAP2 POP POP JUMP JUMPDEST PUSH1 0x0 PUSH1 0x20 DUP3 DUP5 SUB SLT ISZERO PUSH2 0x121B JUMPI PUSH2 0x121A PUSH2 0xAE8 JUMP JUMPDEST JUMPDEST PUSH1 0x0 DUP3 ADD CALLDATALOAD PUSH8 0xFFFFFFFFFFFFFFFF DUP2 GT ISZERO PUSH2 0x1239 JUMPI PUSH2 0x1238 PUSH2 0xAED JUMP JUMPDEST JUMPDEST PUSH2 0x1245 DUP5 DUP3 DUP6 ADD PUSH2 0xE8E JUMP JUMPDEST SWAP2 POP POP SWAP3 SWAP2 POP POP JUMP JUMPDEST PUSH1 0x0 DUP2 MLOAD SWAP1 POP SWAP2 SWAP1 POP JUMP JUMPDEST PUSH1 0x0 DUP3 DUP3 MSTORE PUSH1 0x20 DUP3 ADD SWAP1 POP SWAP3 SWAP2 POP POP JUMP JUMPDEST PUSH1 0x0 DUP2 SWAP1 POP PUSH1 0x20 DUP3 ADD SWAP1 POP SWAP2 SWAP1 POP JUMP JUMPDEST PUSH2 0x1283 DUP2 PUSH2 0xBD8 JUMP JUMPDEST DUP3 MSTORE POP POP JUMP JUMPDEST PUSH1 0x0 PUSH2 0x1295 DUP4 DUP4 PUSH2 0x127A JUMP JUMPDEST PUSH1 0x20 DUP4 ADD SWAP1 POP SWAP3 SWAP2 POP POP JUMP JUMPDEST PUSH1 0x0 PUSH1 0x20 DUP3 ADD SWAP1 POP SWAP2 SWAP1 POP JUMP JUMPDEST PUSH1 0x0 PUSH2 0x12B9 DUP3 PUSH2 0x124E JUMP JUMPDEST PUSH2 0x12C3 DUP2 DUP6 PUSH2 0x1259 JUMP JUMPDEST SWAP4 POP PUSH2 0x12CE DUP4 PUSH2 0x126A JUMP JUMPDEST DUP1 PUSH1 0x0 JUMPDEST DUP4 DUP2 LT ISZERO PUSH2 0x12FF JUMPI DUP2 MLOAD PUSH2 0x12E6 DUP9 DUP3 PUSH2 0x1289 JUMP JUMPDEST SWAP8 POP PUSH2 0x12F1 DUP4 PUSH2 0x12A1 JUMP JUMPDEST SWAP3 POP POP PUSH1 0x1 DUP2 ADD SWAP1 POP PUSH2 0x12D2 JUMP JUMPDEST POP DUP6 SWAP4 POP POP POP POP SWAP3 SWAP2 POP POP JUMP JUMPDEST PUSH1 0x0 PUSH1 0x20 DUP3 ADD SWAP1 POP DUP2 DUP2 SUB PUSH1 0x0 DUP4 ADD MSTORE PUSH2 0x1326 DUP2 DUP5 PUSH2 0x12AE JUMP JUMPDEST SWAP1 POP SWAP3 SWAP2 POP POP JUMP JUMPDEST PUSH32 0x4E487B7100000000000000000000000000000000000000000000000000000000 PUSH1 0x0 MSTORE PUSH1 0x32 PUSH1 0x4 MSTORE PUSH1 0x24 PUSH1 0x0 REVERT JUMPDEST PUSH32 0x4E487B7100000000000000000000000000000000000000000000000000000000 PUSH1 0x0 MSTORE PUSH1 0x22 PUSH1 0x4 MSTORE PUSH1 0x24 PUSH1 0x0 REVERT JUMPDEST PUSH1 0x0 PUSH1 0x2 DUP3 DIV SWAP1 POP PUSH1 0x1 DUP3 AND DUP1 PUSH2 0x13A4 JUMPI PUSH1 0x7F DUP3 AND SWAP2 POP JUMPDEST PUSH1 0x20 DUP3 LT DUP2 SUB PUSH2 0x13B7 JUMPI PUSH2 0x13B6 PUSH2 0x135D JUMP JUMPDEST JUMPDEST POP SWAP2 SWAP1 POP JUMP JUMPDEST PUSH1 0x0 DUP1 REVERT JUMPDEST PUSH1 0x0 DUP1 REVERT JUMPDEST PUSH1 0x0 DUP1 REVERT JUMPDEST PUSH1 0x0 DUP1 DUP4 CALLDATALOAD PUSH1 0x1 PUSH1 0x20 SUB DUP5 CALLDATASIZE SUB SUB DUP2 SLT PUSH2 0x13E9 JUMPI PUSH2 0x13E8 PUSH2 0x13BD JUMP JUMPDEST JUMPDEST DUP1 DUP5 ADD SWAP3 POP DUP3 CALLDATALOAD SWAP2 POP PUSH8 0xFFFFFFFFFFFFFFFF DUP3 GT ISZERO PUSH2 0x140B JUMPI PUSH2 0x140A PUSH2 0x13C2 JUMP JUMPDEST JUMPDEST PUSH1 0x20 DUP4 ADD SWAP3 POP PUSH1 0x1 DUP3 MUL CALLDATASIZE SUB DUP4 SGT ISZERO PUSH2 0x1427 JUMPI PUSH2 0x1426 PUSH2 0x13C7 JUMP JUMPDEST JUMPDEST POP SWAP3 POP SWAP3 SWAP1 POP JUMP JUMPDEST PUSH32 0x4E487B7100000000000000000000000000000000000000000000000000000000 PUSH1 0x0 MSTORE PUSH1 0x11 PUSH1 0x4 MSTORE PUSH1 0x24 PUSH1 0x0 REVERT JUMPDEST PUSH1 0x0 PUSH2 0x1469 DUP3 PUSH2 0xBA4 JUMP JUMPDEST SWAP2 POP PUSH32 0xFFFFFFFFFFFFFFFFFFFFFFFFFFFFFFFFFFFFFFFFFFFFFFFFFFFFFFFFFFFFFFFF DUP3 SUB PUSH2 0x149B JUMPI PUSH2 0x149A PUSH2 0x142F JUMP JUMPDEST JUMPDEST PUSH1 0x1 DUP3 ADD SWAP1 POP SWAP2 SWAP1 POP JUMP JUMPDEST PUSH1 0x0 PUSH1 0xFF DUP3 AND SWAP1 POP SWAP2 SWAP1 POP JUMP JUMPDEST PUSH1 0x0 PUSH2 0x14BE DUP3 PUSH2 0x14A6 JUMP JUMPDEST SWAP2 POP PUSH2 0x14C9 DUP4 PUSH2 0x14A6 JUMP JUMPDEST SWAP3 POP DUP3 DUP3 ADD SWAP1 POP PUSH1 0xFF DUP2 GT ISZERO PUSH2 0x14E2 JUMPI PUSH2 0x14E1 PUSH2 0x142F JUMP JUMPDEST JUMPDEST SWAP3 SWAP2 POP POP JUMP JUMPDEST PUSH32 0x4E487B7100000000000000000000000000000000000000000000000000000000 PUSH1 0x0 MSTORE PUSH1 0x12 PUSH1 0x4 MSTORE PUSH1 0x24 PUSH1 0x0 REVERT JUMPDEST PUSH1 0x0 PUSH2 0x1522 DUP3 PUSH2 0x14A6 JUMP JUMPDEST SWAP2 POP PUSH2 0x152D DUP4 PUSH2 0x14A6 JUMP JUMPDEST SWAP3 POP DUP3 PUSH2 0x153D JUMPI PUSH2 0x153C PUSH2 0x14E8 JUMP JUMPDEST JUMPDEST DUP3 DUP3 DIV SWAP1 POP SWAP3 SWAP2 POP POP JUMP JUMPDEST PUSH1 0x0 DUP2 SWAP1 POP SWAP2 SWAP1 POP JUMP JUMPDEST PUSH2 0x1563 PUSH2 0x155E DUP3 PUSH2 0xBD8 JUMP JUMPDEST PUSH2 0x1548 JUMP JUMPDEST DUP3 MSTORE POP POP JUMP JUMPDEST PUSH1 0x0 PUSH2 0x1575 DUP3 DUP5 PUSH2 0x1552 JUMP JUMPDEST PUSH1 0x1 DUP3 ADD SWAP2 POP DUP2 SWAP1 POP SWAP3 SWAP2 POP POP JUMP JUMPDEST PUSH1 0x0 DUP2 MLOAD SWAP1 POP SWAP2 SWAP1 POP JUMP JUMPDEST PUSH1 0x0 DUP2 SWAP1 POP DUP2 PUSH1 0x0 MSTORE PUSH1 0x20 PUSH1 0x0 KECCAK256 SWAP1 POP SWAP2 SWAP1 POP JUMP JUMPDEST PUSH1 0x0 PUSH1 0x20 PUSH1 0x1F DUP4 ADD DIV SWAP1 POP SWAP2 SWAP1 POP JUMP JUMPDEST PUSH1 0x0 DUP3 DUP3 SHL SWAP1 POP SWAP3 SWAP2 POP POP JUMP JUMPDEST PUSH1 0x0 PUSH1 0x8 DUP4 MUL PUSH2 0x15F1 PUSH32 0xFFFFFFFFFFFFFFFFFFFFFFFFFFFFFFFFFFFFFFFFFFFFFFFFFFFFFFFFFFFFFFFF DUP3 PUSH2 0x15B4 JUMP JUMPDEST PUSH2 0x15FB DUP7 DUP4 PUSH2 0x15B4 JUMP JUMPDEST SWAP6 POP DUP1 NOT DUP5 AND SWAP4 POP DUP1 DUP7 AND DUP5 OR SWAP3 POP POP POP SWAP4 SWAP3 POP POP POP JUMP JUMPDEST PUSH1 0x0 DUP2 SWAP1 POP SWAP2 SWAP1 POP JUMP JUMPDEST PUSH1 0x0 PUSH2 0x1638 PUSH2 0x1633 PUSH2 0x162E DUP5 PUSH2 0xBA4 JUMP JUMPDEST PUSH2 0x1613 JUMP JUMPDEST PUSH2 0xBA4 JUMP JUMPDEST SWAP1 POP SWAP2 SWAP1 POP JUMP JUMPDEST PUSH1 0x0 DUP2 SWAP1 POP SWAP2 SWAP1 POP JUMP JUMPDEST PUSH2 0x1652 DUP4 PUSH2 0x161D JUMP JUMPDEST PUSH2 0x1666 PUSH2 0x165E DUP3 PUSH2 0x163F JUMP JUMPDEST DUP5 DUP5 SLOAD PUSH2 0x15C1 JUMP JUMPDEST DUP3 SSTORE POP POP POP POP JUMP JUMPDEST PUSH1 0x0 SWAP1 JUMP JUMPDEST PUSH2 0x167B PUSH2 0x166E JUMP JUMPDEST PUSH2 0x1686 DUP2 DUP5 DUP5 PUSH2 0x1649 JUMP JUMPDEST POP POP POP JUMP JUMPDEST JUMPDEST DUP2 DUP2 LT ISZERO PUSH2 0x16AA JUMPI PUSH2 0x169F PUSH1 0x0 DUP3 PUSH2 0x1673 JUMP JUMPDEST PUSH1 0x1 DUP2 ADD SWAP1 POP PUSH2 0x168C JUMP JUMPDEST POP POP JUMP JUMPDEST PUSH1 0x1F DUP3 GT ISZERO PUSH2 0x16EF JUMPI PUSH2 0x16C0 DUP2 PUSH2 0x158F JUMP JUMPDEST PUSH2 0x16C9 DUP5 PUSH2 0x15A4 JUMP JUMPDEST DUP2 ADD PUSH1 0x20 DUP6 LT ISZERO PUSH2 0x16D8 JUMPI DUP2 SWAP1 POP JUMPDEST PUSH2 0x16EC PUSH2 0x16E4 DUP6 PUSH2 0x15A4 JUMP JUMPDEST DUP4 ADD DUP3 PUSH2 0x168B JUMP JUMPDEST POP POP JUMPDEST POP POP POP JUMP JUMPDEST PUSH1 0x0 DUP3 DUP3 SHR SWAP1 POP SWAP3 SWAP2 POP POP JUMP JUMPDEST PUSH1 0x0 PUSH2 0x1712 PUSH1 0x0 NOT DUP5 PUSH1 0x8 MUL PUSH2 0x16F4 JUMP JUMPDEST NOT DUP1 DUP4 AND SWAP2 POP POP SWAP3 SWAP2 POP POP JUMP JUMPDEST PUSH1 0x0 PUSH2 0x172B DUP4 DUP4 PUSH2 0x1701 JUMP JUMPDEST SWAP2 POP DUP3 PUSH1 0x2 MUL DUP3 OR SWAP1 POP SWAP3 SWAP2 POP POP JUMP JUMPDEST PUSH2 0x1744 DUP3 PUSH2 0x1584 JUMP JUMPDEST PUSH8 0xFFFFFFFFFFFFFFFF DUP2 GT ISZERO PUSH2 0x175D JUMPI PUSH2 0x175C PUSH2 0xCAB JUMP JUMPDEST JUMPDEST PUSH2 0x1767 DUP3 SLOAD PUSH2 0x138C JUMP JUMPDEST PUSH2 0x1772 DUP3 DUP3 DUP6 PUSH2 0x16AE JUMP JUMPDEST PUSH1 0x0 PUSH1 0x20 SWAP1 POP PUSH1 0x1F DUP4 GT PUSH1 0x1 DUP2 EQ PUSH2 0x17A5 JUMPI PUSH1 0x0 DUP5 ISZERO PUSH2 0x1793 JUMPI DUP3 DUP8 ADD MLOAD SWAP1 POP JUMPDEST PUSH2 0x179D DUP6 DUP3 PUSH2 0x171F JUMP JUMPDEST DUP7 SSTORE POP PUSH2 0x1805 JUMP JUMPDEST PUSH1 0x1F NOT DUP5 AND PUSH2 0x17B3 DUP7 PUSH2 0x158F JUMP JUMPDEST PUSH1 0x0 JUMPDEST DUP3 DUP2 LT ISZERO PUSH2 0x17DB JUMPI DUP5 DUP10 ADD MLOAD DUP3 SSTORE PUSH1 0x1 DUP3 ADD SWAP2 POP PUSH1 0x20 DUP6 ADD SWAP5 POP PUSH1 0x20 DUP2 ADD SWAP1 POP PUSH2 0x17B6 JUMP JUMPDEST DUP7 DUP4 LT ISZERO PUSH2 0x17F8 JUMPI DUP5 DUP10 ADD MLOAD PUSH2 0x17F4 PUSH1 0x1F DUP10 AND DUP3 PUSH2 0x1701 JUMP JUMPDEST DUP4 SSTORE POP JUMPDEST PUSH1 0x1 PUSH1 0x2 DUP9 MUL ADD DUP9 SSTORE POP POP POP JUMPDEST POP POP POP POP POP POP JUMP JUMPDEST PUSH1 0x0 DUP2 SWAP1 POP SWAP3 SWAP2 POP POP JUMP JUMPDEST PUSH1 0x0 PUSH2 0x1824 DUP4 DUP6 PUSH2 0x180D JUMP JUMPDEST SWAP4 POP PUSH2 0x1831 DUP4 DUP6 DUP5 PUSH2 0xD88 JUMP JUMPDEST DUP3 DUP5 ADD SWAP1 POP SWAP4 SWAP3 POP POP POP JUMP JUMPDEST PUSH1 0x0 PUSH2 0x184A DUP3 DUP5 DUP7 PUSH2 0x1818 JUMP JUMPDEST SWAP2 POP DUP2 SWAP1 POP SWAP4 SWAP3 POP POP POP JUMP JUMPDEST PUSH1 0x0 JUMPDEST DUP4 DUP2 LT ISZERO PUSH2 0x1874 JUMPI DUP1 DUP3 ADD MLOAD DUP2 DUP5 ADD MSTORE PUSH1 0x20 DUP2 ADD SWAP1 POP PUSH2 0x1859 JUMP JUMPDEST PUSH1 0x0 DUP5 DUP5 ADD MSTORE POP POP POP POP JUMP JUMPDEST PUSH1 0x0 PUSH2 0x188B DUP3 PUSH2 0x1584 JUMP JUMPDEST PUSH2 0x1895 DUP2 DUP6 PUSH2 0x180D JUMP JUMPDEST SWAP4 POP PUSH2 0x18A5 DUP2 DUP6 PUSH1 0x20 DUP7 ADD PUSH2 0x1856 JUMP JUMPDEST DUP1 DUP5 ADD SWAP2 POP POP SWAP3 SWAP2 POP POP JUMP JUMPDEST PUSH1 0x0 PUSH2 0x18BD DUP3 DUP5 PUSH2 0x1880 JUMP JUMPDEST SWAP2 POP DUP2 SWAP1 POP SWAP3 SWAP2 POP POP JUMP JUMPDEST PUSH1 0x0 PUSH2 0x18D3 DUP3 PUSH2 0xBA4 JUMP JUMPDEST SWAP2 POP PUSH2 0x18DE DUP4 PUSH2 0xBA4 JUMP JUMPDEST SWAP3 POP DUP3 DUP3 SUB SWAP1 POP DUP2 DUP2 GT ISZERO PUSH2 0x18F6 JUMPI PUSH2 0x18F5 PUSH2 0x142F JUMP JUMPDEST JUMPDEST SWAP3 SWAP2 POP POP JUMP JUMPDEST PUSH1 0x0 PUSH2 0x1907 DUP3 PUSH2 0xBA4 JUMP JUMPDEST SWAP2 POP PUSH2 0x1912 DUP4 PUSH2 0xBA4 JUMP JUMPDEST SWAP3 POP DUP3 DUP3 ADD SWAP1 POP DUP1 DUP3 GT ISZERO PUSH2 0x192A JUMPI PUSH2 0x1929 PUSH2 0x142F JUMP JUMPDEST JUMPDEST SWAP3 SWAP2 POP POP JUMP JUMPDEST PUSH1 0x0 PUSH2 0x193B DUP3 PUSH2 0xBA4 JUMP JUMPDEST SWAP2 POP PUSH2 0x1946 DUP4 PUSH2 0xBA4 JUMP JUMPDEST SWAP3 POP DUP3 PUSH2 0x1956 JUMPI PUSH2 0x1955 PUSH2 0x14E8 JUMP JUMPDEST JUMPDEST DUP3 DUP3 MOD SWAP1 POP SWAP3 SWAP2 POP POP JUMP JUMPDEST PUSH1 0x0 PUSH2 0x196C DUP3 PUSH2 0xBA4 JUMP JUMPDEST SWAP2 POP PUSH2 0x1977 DUP4 PUSH2 0xBA4 JUMP JUMPDEST SWAP3 POP DUP3 PUSH2 0x1987 JUMPI PUSH2 0x1986 PUSH2 0x14E8 JUMP JUMPDEST JUMPDEST DUP3 DUP3 DIV SWAP1 POP SWAP3 SWAP2 POP POP JUMP INVALID LOG2 PUSH5 0x6970667358 0x22 SLT KECCAK256 PC 0xCA SLT CHAINID MULMOD REVERT SAR ADDMOD MLOAD 0xE 0xD3 0xC0 SWAP2 DUP4 0xB8 MLOAD DUP3 0xC5 0xBC 0xF8 0xE1 PUSH16 0x33425CC83C60BE5311C964736F6C6343 STOP ADDMOD SLT STOP CALLER "
				},
				"gasEstimates": {
					"creation": {
						"codeDepositCost": "1320000",
						"executionCost": "1376",
						"totalCost": "1321376"
					},
					"external": {
						"bytesAverage(bytes1,bytes1)": "infinite",
						"getMedian_Number(bytes1[])": "infinite",
						"isSameLetter(string[])": "infinite",
						"letterCompare(string,string)": "infinite",
						"setLotto(string[])": "infinite",
						"setLotto(string[],string[],string[],string[],string[],string[])": "infinite",
						"stringArrayToBytes1Array(string[])": "infinite"
					},
					"internal": {
						"getPrize(uint256)": "infinite"
					}
				},
				"methodIdentifiers": {
					"bytesAverage(bytes1,bytes1)": "8faa222a",
					"getMedian_Number(bytes1[])": "bd41a34f",
					"isSameLetter(string[])": "68c47d19",
					"letterCompare(string,string)": "a074dc3d",
					"setLotto(string[])": "699bf15f",
					"setLotto(string[],string[],string[],string[],string[],string[])": "961d7d5a",
					"stringArrayToBytes1Array(string[])": "d563b7f2"
				}
			},
			"storageLayout": {
				"storage": [
					{
						"astId": 1255,
						"contract": "contracts/0523/Quiz.sol:Q8_3",
						"label": "targetLetters",
						"offset": 0,
						"slot": "0",
						"type": "t_array(t_string_storage)6_storage"
					}
				],
				"types": {
					"t_array(t_string_storage)6_storage": {
						"base": "t_string_storage",
						"encoding": "inplace",
						"label": "string[6]",
						"numberOfBytes": "192"
					},
					"t_string_storage": {
						"encoding": "bytes",
						"label": "string",
						"numberOfBytes": "32"
					}
				}
			},
			"userdoc": {
				"kind": "user",
				"methods": {},
				"version": 1
			}
		}
	}
}