{
	"contracts/0517/Quiz.sol": {
		"WHILE": {
			"abi": [
				{
					"inputs": [
						{
							"internalType": "uint256",
							"name": "",
							"type": "uint256"
						}
					],
					"name": "a",
					"outputs": [
						{
							"internalType": "uint256",
							"name": "",
							"type": "uint256"
						}
					],
					"stateMutability": "view",
					"type": "function"
				},
				{
					"inputs": [
						{
							"internalType": "uint256",
							"name": "_n",
							"type": "uint256"
						}
					],
					"name": "while_1",
					"outputs": [
						{
							"internalType": "uint256",
							"name": "",
							"type": "uint256"
						}
					],
					"stateMutability": "pure",
					"type": "function"
				},
				{
					"inputs": [
						{
							"internalType": "uint256",
							"name": "_n",
							"type": "uint256"
						}
					],
					"name": "while_2",
					"outputs": [
						{
							"internalType": "uint256[]",
							"name": "",
							"type": "uint256[]"
						}
					],
					"stateMutability": "nonpayable",
					"type": "function"
				},
				{
					"inputs": [
						{
							"internalType": "uint256",
							"name": "_n",
							"type": "uint256"
						}
					],
					"name": "while_3",
					"outputs": [
						{
							"internalType": "uint256",
							"name": "",
							"type": "uint256"
						}
					],
					"stateMutability": "pure",
					"type": "function"
				}
			],
			"devdoc": {
				"kind": "dev",
				"methods": {},
				"version": 1
			},
			"evm": {
				"assembly": "    /* \"contracts/0517/Quiz.sol\":2558:3091  contract WHILE {... */\n  mstore(0x40, 0x80)\n  callvalue\n  dup1\n  iszero\n  tag_1\n  jumpi\n  0x00\n  dup1\n  revert\ntag_1:\n  pop\n  dataSize(sub_0)\n  dup1\n  dataOffset(sub_0)\n  0x00\n  codecopy\n  0x00\n  return\nstop\n\nsub_0: assembly {\n        /* \"contracts/0517/Quiz.sol\":2558:3091  contract WHILE {... */\n      mstore(0x40, 0x80)\n      callvalue\n      dup1\n      iszero\n      tag_1\n      jumpi\n      0x00\n      dup1\n      revert\n    tag_1:\n      pop\n      jumpi(tag_2, lt(calldatasize, 0x04))\n      shr(0xe0, calldataload(0x00))\n      dup1\n      0x0bee723a\n      eq\n      tag_3\n      jumpi\n      dup1\n      0x4425506b\n      eq\n      tag_4\n      jumpi\n      dup1\n      0x5b6d42c2\n      eq\n      tag_5\n      jumpi\n      dup1\n      0xf0fdf834\n      eq\n      tag_6\n      jumpi\n    tag_2:\n      0x00\n      dup1\n      revert\n        /* \"contracts/0517/Quiz.sol\":2928:3088  function while_3(uint _n) public pure returns(uint){... */\n    tag_3:\n      tag_7\n      0x04\n      dup1\n      calldatasize\n      sub\n      dup2\n      add\n      swap1\n      tag_8\n      swap2\n      swap1\n      tag_9\n      jump\t// in\n    tag_8:\n      tag_10\n      jump\t// in\n    tag_7:\n      mload(0x40)\n      tag_11\n      swap2\n      swap1\n      tag_12\n      jump\t// in\n    tag_11:\n      mload(0x40)\n      dup1\n      swap2\n      sub\n      swap1\n      return\n        /* \"contracts/0517/Quiz.sol\":2765:2920  function while_2(uint _n) public  returns(uint[] memory) {... */\n    tag_4:\n      tag_13\n      0x04\n      dup1\n      calldatasize\n      sub\n      dup2\n      add\n      swap1\n      tag_14\n      swap2\n      swap1\n      tag_9\n      jump\t// in\n    tag_14:\n      tag_15\n      jump\t// in\n    tag_13:\n      mload(0x40)\n      tag_16\n      swap2\n      swap1\n      tag_17\n      jump\t// in\n    tag_16:\n      mload(0x40)\n      dup1\n      swap2\n      sub\n      swap1\n      return\n        /* \"contracts/0517/Quiz.sol\":2580:2735  function while_1(uint _n) public pure returns(uint){... */\n    tag_5:\n      tag_18\n      0x04\n      dup1\n      calldatasize\n      sub\n      dup2\n      add\n      swap1\n      tag_19\n      swap2\n      swap1\n      tag_9\n      jump\t// in\n    tag_19:\n      tag_20\n      jump\t// in\n    tag_18:\n      mload(0x40)\n      tag_21\n      swap2\n      swap1\n      tag_12\n      jump\t// in\n    tag_21:\n      mload(0x40)\n      dup1\n      swap2\n      sub\n      swap1\n      return\n        /* \"contracts/0517/Quiz.sol\":2743:2758  uint[] public a */\n    tag_6:\n      tag_22\n      0x04\n      dup1\n      calldatasize\n      sub\n      dup2\n      add\n      swap1\n      tag_23\n      swap2\n      swap1\n      tag_9\n      jump\t// in\n    tag_23:\n      tag_24\n      jump\t// in\n    tag_22:\n      mload(0x40)\n      tag_25\n      swap2\n      swap1\n      tag_12\n      jump\t// in\n    tag_25:\n      mload(0x40)\n      dup1\n      swap2\n      sub\n      swap1\n      return\n        /* \"contracts/0517/Quiz.sol\":2928:3088  function while_3(uint _n) public pure returns(uint){... */\n    tag_10:\n        /* \"contracts/0517/Quiz.sol\":2974:2978  uint */\n      0x00\n        /* \"contracts/0517/Quiz.sol\":2990:2997  uint _a */\n      dup1\n        /* \"contracts/0517/Quiz.sol\":3008:3059  while(_n >= 10** _a){... */\n    tag_27:\n        /* \"contracts/0517/Quiz.sol\":3025:3027  _a */\n      dup1\n        /* \"contracts/0517/Quiz.sol\":3020:3022  10 */\n      0x0a\n        /* \"contracts/0517/Quiz.sol\":3020:3027  10** _a */\n      tag_29\n      swap2\n      swap1\n      tag_30\n      jump\t// in\n    tag_29:\n        /* \"contracts/0517/Quiz.sol\":3014:3016  _n */\n      dup4\n        /* \"contracts/0517/Quiz.sol\":3014:3027  _n >= 10** _a */\n      lt\n        /* \"contracts/0517/Quiz.sol\":3008:3059  while(_n >= 10** _a){... */\n      tag_28\n      jumpi\n        /* \"contracts/0517/Quiz.sol\":3043:3047  _a++ */\n      dup1\n      dup1\n      tag_31\n      swap1\n      tag_32\n      jump\t// in\n    tag_31:\n      swap2\n      pop\n      pop\n        /* \"contracts/0517/Quiz.sol\":3008:3059  while(_n >= 10** _a){... */\n      jump(tag_27)\n    tag_28:\n        /* \"contracts/0517/Quiz.sol\":3076:3078  _a */\n      dup1\n        /* \"contracts/0517/Quiz.sol\":3069:3078  return _a */\n      swap2\n      pop\n      pop\n        /* \"contracts/0517/Quiz.sol\":2928:3088  function while_3(uint _n) public pure returns(uint){... */\n      swap2\n      swap1\n      pop\n      jump\t// out\n        /* \"contracts/0517/Quiz.sol\":2765:2920  function while_2(uint _n) public  returns(uint[] memory) {... */\n    tag_15:\n        /* \"contracts/0517/Quiz.sol\":2807:2820  uint[] memory */\n      0x60\n        /* \"contracts/0517/Quiz.sol\":2833:2894  while(a.length<_n){... */\n    tag_34:\n        /* \"contracts/0517/Quiz.sol\":2848:2850  _n */\n      dup2\n        /* \"contracts/0517/Quiz.sol\":2839:2840  a */\n      0x00\n        /* \"contracts/0517/Quiz.sol\":2839:2847  a.length */\n      dup1\n      sload\n      swap1\n      pop\n        /* \"contracts/0517/Quiz.sol\":2839:2850  a.length<_n */\n      lt\n        /* \"contracts/0517/Quiz.sol\":2833:2894  while(a.length<_n){... */\n      iszero\n      tag_35\n      jumpi\n        /* \"contracts/0517/Quiz.sol\":2866:2867  a */\n      0x00\n        /* \"contracts/0517/Quiz.sol\":2873:2874  a */\n      dup1\n        /* \"contracts/0517/Quiz.sol\":2873:2881  a.length */\n      dup1\n      sload\n      swap1\n      pop\n        /* \"contracts/0517/Quiz.sol\":2866:2882  a.push(a.length) */\n      swap1\n      dup1\n      0x01\n      dup2\n      sload\n      add\n      dup1\n      dup3\n      sstore\n      dup1\n      swap2\n      pop\n      pop\n      0x01\n      swap1\n      sub\n      swap1\n      0x00\n      mstore\n      keccak256(0x00, 0x20)\n      add\n      0x00\n      swap1\n      swap2\n      swap1\n      swap2\n      swap1\n      swap2\n      pop\n      sstore\n        /* \"contracts/0517/Quiz.sol\":2833:2894  while(a.length<_n){... */\n      jump(tag_34)\n    tag_35:\n        /* \"contracts/0517/Quiz.sol\":2911:2912  a */\n      0x00\n        /* \"contracts/0517/Quiz.sol\":2904:2912  return a */\n      dup1\n      sload\n      dup1\n      0x20\n      mul\n      0x20\n      add\n      mload(0x40)\n      swap1\n      dup2\n      add\n      0x40\n      mstore\n      dup1\n      swap3\n      swap2\n      swap1\n      dup2\n      dup2\n      mstore\n      0x20\n      add\n      dup3\n      dup1\n      sload\n      dup1\n      iszero\n      tag_37\n      jumpi\n      0x20\n      mul\n      dup3\n      add\n      swap2\n      swap1\n      0x00\n      mstore\n      keccak256(0x00, 0x20)\n      swap1\n    tag_38:\n      dup2\n      sload\n      dup2\n      mstore\n      0x20\n      add\n      swap1\n      0x01\n      add\n      swap1\n      dup1\n      dup4\n      gt\n      tag_38\n      jumpi\n    tag_37:\n      pop\n      pop\n      pop\n      pop\n      pop\n      swap1\n      pop\n        /* \"contracts/0517/Quiz.sol\":2765:2920  function while_2(uint _n) public  returns(uint[] memory) {... */\n      swap2\n      swap1\n      pop\n      jump\t// out\n        /* \"contracts/0517/Quiz.sol\":2580:2735  function while_1(uint _n) public pure returns(uint){... */\n    tag_20:\n        /* \"contracts/0517/Quiz.sol\":2626:2630  uint */\n      0x00\n        /* \"contracts/0517/Quiz.sol\":2642:2648  uint b */\n      dup1\n        /* \"contracts/0517/Quiz.sol\":2659:2709  while(_n<b) {... */\n    tag_40:\n        /* \"contracts/0517/Quiz.sol\":2668:2669  b */\n      dup1\n        /* \"contracts/0517/Quiz.sol\":2665:2667  _n */\n      dup4\n        /* \"contracts/0517/Quiz.sol\":2665:2669  _n<b */\n      lt\n        /* \"contracts/0517/Quiz.sol\":2659:2709  while(_n<b) {... */\n      iszero\n      tag_41\n      jumpi\n        /* \"contracts/0517/Quiz.sol\":2686:2689  b++ */\n      dup1\n      dup1\n      tag_42\n      swap1\n      tag_32\n      jump\t// in\n    tag_42:\n      swap2\n      pop\n      pop\n        /* \"contracts/0517/Quiz.sol\":2659:2709  while(_n<b) {... */\n      jump(tag_40)\n    tag_41:\n        /* \"contracts/0517/Quiz.sol\":2726:2727  b */\n      dup1\n        /* \"contracts/0517/Quiz.sol\":2719:2727  return b */\n      swap2\n      pop\n      pop\n        /* \"contracts/0517/Quiz.sol\":2580:2735  function while_1(uint _n) public pure returns(uint){... */\n      swap2\n      swap1\n      pop\n      jump\t// out\n        /* \"contracts/0517/Quiz.sol\":2743:2758  uint[] public a */\n    tag_24:\n      0x00\n      dup2\n      dup2\n      sload\n      dup2\n      lt\n      tag_43\n      jumpi\n      0x00\n      dup1\n      revert\n    tag_43:\n      swap1\n      0x00\n      mstore\n      keccak256(0x00, 0x20)\n      add\n      0x00\n      swap2\n      pop\n      swap1\n      pop\n      sload\n      dup2\n      jump\t// out\n        /* \"#utility.yul\":88:205   */\n    tag_46:\n        /* \"#utility.yul\":197:198   */\n      0x00\n        /* \"#utility.yul\":194:195   */\n      dup1\n        /* \"#utility.yul\":187:199   */\n      revert\n        /* \"#utility.yul\":334:411   */\n    tag_48:\n        /* \"#utility.yul\":371:378   */\n      0x00\n        /* \"#utility.yul\":400:405   */\n      dup2\n        /* \"#utility.yul\":389:405   */\n      swap1\n      pop\n        /* \"#utility.yul\":334:411   */\n      swap2\n      swap1\n      pop\n      jump\t// out\n        /* \"#utility.yul\":417:539   */\n    tag_49:\n        /* \"#utility.yul\":490:514   */\n      tag_69\n        /* \"#utility.yul\":508:513   */\n      dup2\n        /* \"#utility.yul\":490:514   */\n      tag_48\n      jump\t// in\n    tag_69:\n        /* \"#utility.yul\":483:488   */\n      dup2\n        /* \"#utility.yul\":480:515   */\n      eq\n        /* \"#utility.yul\":470:533   */\n      tag_70\n      jumpi\n        /* \"#utility.yul\":529:530   */\n      0x00\n        /* \"#utility.yul\":526:527   */\n      dup1\n        /* \"#utility.yul\":519:531   */\n      revert\n        /* \"#utility.yul\":470:533   */\n    tag_70:\n        /* \"#utility.yul\":417:539   */\n      pop\n      jump\t// out\n        /* \"#utility.yul\":545:684   */\n    tag_50:\n        /* \"#utility.yul\":591:596   */\n      0x00\n        /* \"#utility.yul\":629:635   */\n      dup2\n        /* \"#utility.yul\":616:636   */\n      calldataload\n        /* \"#utility.yul\":607:636   */\n      swap1\n      pop\n        /* \"#utility.yul\":645:678   */\n      tag_72\n        /* \"#utility.yul\":672:677   */\n      dup2\n        /* \"#utility.yul\":645:678   */\n      tag_49\n      jump\t// in\n    tag_72:\n        /* \"#utility.yul\":545:684   */\n      swap3\n      swap2\n      pop\n      pop\n      jump\t// out\n        /* \"#utility.yul\":690:1019   */\n    tag_9:\n        /* \"#utility.yul\":749:755   */\n      0x00\n        /* \"#utility.yul\":798:800   */\n      0x20\n        /* \"#utility.yul\":786:795   */\n      dup3\n        /* \"#utility.yul\":777:784   */\n      dup5\n        /* \"#utility.yul\":773:796   */\n      sub\n        /* \"#utility.yul\":769:801   */\n      slt\n        /* \"#utility.yul\":766:885   */\n      iszero\n      tag_74\n      jumpi\n        /* \"#utility.yul\":804:883   */\n      tag_75\n      tag_46\n      jump\t// in\n    tag_75:\n        /* \"#utility.yul\":766:885   */\n    tag_74:\n        /* \"#utility.yul\":924:925   */\n      0x00\n        /* \"#utility.yul\":949:1002   */\n      tag_76\n        /* \"#utility.yul\":994:1001   */\n      dup5\n        /* \"#utility.yul\":985:991   */\n      dup3\n        /* \"#utility.yul\":974:983   */\n      dup6\n        /* \"#utility.yul\":970:992   */\n      add\n        /* \"#utility.yul\":949:1002   */\n      tag_50\n      jump\t// in\n    tag_76:\n        /* \"#utility.yul\":939:1002   */\n      swap2\n      pop\n        /* \"#utility.yul\":895:1012   */\n      pop\n        /* \"#utility.yul\":690:1019   */\n      swap3\n      swap2\n      pop\n      pop\n      jump\t// out\n        /* \"#utility.yul\":1025:1143   */\n    tag_51:\n        /* \"#utility.yul\":1112:1136   */\n      tag_78\n        /* \"#utility.yul\":1130:1135   */\n      dup2\n        /* \"#utility.yul\":1112:1136   */\n      tag_48\n      jump\t// in\n    tag_78:\n        /* \"#utility.yul\":1107:1110   */\n      dup3\n        /* \"#utility.yul\":1100:1137   */\n      mstore\n        /* \"#utility.yul\":1025:1143   */\n      pop\n      pop\n      jump\t// out\n        /* \"#utility.yul\":1149:1371   */\n    tag_12:\n        /* \"#utility.yul\":1242:1246   */\n      0x00\n        /* \"#utility.yul\":1280:1282   */\n      0x20\n        /* \"#utility.yul\":1269:1278   */\n      dup3\n        /* \"#utility.yul\":1265:1283   */\n      add\n        /* \"#utility.yul\":1257:1283   */\n      swap1\n      pop\n        /* \"#utility.yul\":1293:1364   */\n      tag_80\n        /* \"#utility.yul\":1361:1362   */\n      0x00\n        /* \"#utility.yul\":1350:1359   */\n      dup4\n        /* \"#utility.yul\":1346:1363   */\n      add\n        /* \"#utility.yul\":1337:1343   */\n      dup5\n        /* \"#utility.yul\":1293:1364   */\n      tag_51\n      jump\t// in\n    tag_80:\n        /* \"#utility.yul\":1149:1371   */\n      swap3\n      swap2\n      pop\n      pop\n      jump\t// out\n        /* \"#utility.yul\":1377:1491   */\n    tag_52:\n        /* \"#utility.yul\":1444:1450   */\n      0x00\n        /* \"#utility.yul\":1478:1483   */\n      dup2\n        /* \"#utility.yul\":1472:1484   */\n      mload\n        /* \"#utility.yul\":1462:1484   */\n      swap1\n      pop\n        /* \"#utility.yul\":1377:1491   */\n      swap2\n      swap1\n      pop\n      jump\t// out\n        /* \"#utility.yul\":1497:1681   */\n    tag_53:\n        /* \"#utility.yul\":1596:1607   */\n      0x00\n        /* \"#utility.yul\":1630:1636   */\n      dup3\n        /* \"#utility.yul\":1625:1628   */\n      dup3\n        /* \"#utility.yul\":1618:1637   */\n      mstore\n        /* \"#utility.yul\":1670:1674   */\n      0x20\n        /* \"#utility.yul\":1665:1668   */\n      dup3\n        /* \"#utility.yul\":1661:1675   */\n      add\n        /* \"#utility.yul\":1646:1675   */\n      swap1\n      pop\n        /* \"#utility.yul\":1497:1681   */\n      swap3\n      swap2\n      pop\n      pop\n      jump\t// out\n        /* \"#utility.yul\":1687:1819   */\n    tag_54:\n        /* \"#utility.yul\":1754:1758   */\n      0x00\n        /* \"#utility.yul\":1777:1780   */\n      dup2\n        /* \"#utility.yul\":1769:1780   */\n      swap1\n      pop\n        /* \"#utility.yul\":1807:1811   */\n      0x20\n        /* \"#utility.yul\":1802:1805   */\n      dup3\n        /* \"#utility.yul\":1798:1812   */\n      add\n        /* \"#utility.yul\":1790:1812   */\n      swap1\n      pop\n        /* \"#utility.yul\":1687:1819   */\n      swap2\n      swap1\n      pop\n      jump\t// out\n        /* \"#utility.yul\":1825:1933   */\n    tag_55:\n        /* \"#utility.yul\":1902:1926   */\n      tag_85\n        /* \"#utility.yul\":1920:1925   */\n      dup2\n        /* \"#utility.yul\":1902:1926   */\n      tag_48\n      jump\t// in\n    tag_85:\n        /* \"#utility.yul\":1897:1900   */\n      dup3\n        /* \"#utility.yul\":1890:1927   */\n      mstore\n        /* \"#utility.yul\":1825:1933   */\n      pop\n      pop\n      jump\t// out\n        /* \"#utility.yul\":1939:2118   */\n    tag_56:\n        /* \"#utility.yul\":2008:2018   */\n      0x00\n        /* \"#utility.yul\":2029:2075   */\n      tag_87\n        /* \"#utility.yul\":2071:2074   */\n      dup4\n        /* \"#utility.yul\":2063:2069   */\n      dup4\n        /* \"#utility.yul\":2029:2075   */\n      tag_55\n      jump\t// in\n    tag_87:\n        /* \"#utility.yul\":2107:2111   */\n      0x20\n        /* \"#utility.yul\":2102:2105   */\n      dup4\n        /* \"#utility.yul\":2098:2112   */\n      add\n        /* \"#utility.yul\":2084:2112   */\n      swap1\n      pop\n        /* \"#utility.yul\":1939:2118   */\n      swap3\n      swap2\n      pop\n      pop\n      jump\t// out\n        /* \"#utility.yul\":2124:2237   */\n    tag_57:\n        /* \"#utility.yul\":2194:2198   */\n      0x00\n        /* \"#utility.yul\":2226:2230   */\n      0x20\n        /* \"#utility.yul\":2221:2224   */\n      dup3\n        /* \"#utility.yul\":2217:2231   */\n      add\n        /* \"#utility.yul\":2209:2231   */\n      swap1\n      pop\n        /* \"#utility.yul\":2124:2237   */\n      swap2\n      swap1\n      pop\n      jump\t// out\n        /* \"#utility.yul\":2273:3005   */\n    tag_58:\n        /* \"#utility.yul\":2392:2395   */\n      0x00\n        /* \"#utility.yul\":2421:2475   */\n      tag_90\n        /* \"#utility.yul\":2469:2474   */\n      dup3\n        /* \"#utility.yul\":2421:2475   */\n      tag_52\n      jump\t// in\n    tag_90:\n        /* \"#utility.yul\":2491:2577   */\n      tag_91\n        /* \"#utility.yul\":2570:2576   */\n      dup2\n        /* \"#utility.yul\":2565:2568   */\n      dup6\n        /* \"#utility.yul\":2491:2577   */\n      tag_53\n      jump\t// in\n    tag_91:\n        /* \"#utility.yul\":2484:2577   */\n      swap4\n      pop\n        /* \"#utility.yul\":2601:2657   */\n      tag_92\n        /* \"#utility.yul\":2651:2656   */\n      dup4\n        /* \"#utility.yul\":2601:2657   */\n      tag_54\n      jump\t// in\n    tag_92:\n        /* \"#utility.yul\":2680:2687   */\n      dup1\n        /* \"#utility.yul\":2711:2712   */\n      0x00\n        /* \"#utility.yul\":2696:2980   */\n    tag_93:\n        /* \"#utility.yul\":2721:2727   */\n      dup4\n        /* \"#utility.yul\":2718:2719   */\n      dup2\n        /* \"#utility.yul\":2715:2728   */\n      lt\n        /* \"#utility.yul\":2696:2980   */\n      iszero\n      tag_95\n      jumpi\n        /* \"#utility.yul\":2797:2803   */\n      dup2\n        /* \"#utility.yul\":2791:2804   */\n      mload\n        /* \"#utility.yul\":2824:2887   */\n      tag_96\n        /* \"#utility.yul\":2883:2886   */\n      dup9\n        /* \"#utility.yul\":2868:2881   */\n      dup3\n        /* \"#utility.yul\":2824:2887   */\n      tag_56\n      jump\t// in\n    tag_96:\n        /* \"#utility.yul\":2817:2887   */\n      swap8\n      pop\n        /* \"#utility.yul\":2910:2970   */\n      tag_97\n        /* \"#utility.yul\":2963:2969   */\n      dup4\n        /* \"#utility.yul\":2910:2970   */\n      tag_57\n      jump\t// in\n    tag_97:\n        /* \"#utility.yul\":2900:2970   */\n      swap3\n      pop\n        /* \"#utility.yul\":2756:2980   */\n      pop\n        /* \"#utility.yul\":2743:2744   */\n      0x01\n        /* \"#utility.yul\":2740:2741   */\n      dup2\n        /* \"#utility.yul\":2736:2745   */\n      add\n        /* \"#utility.yul\":2731:2745   */\n      swap1\n      pop\n        /* \"#utility.yul\":2696:2980   */\n      jump(tag_93)\n    tag_95:\n        /* \"#utility.yul\":2700:2714   */\n      pop\n        /* \"#utility.yul\":2996:2999   */\n      dup6\n        /* \"#utility.yul\":2989:2999   */\n      swap4\n      pop\n        /* \"#utility.yul\":2397:3005   */\n      pop\n      pop\n      pop\n        /* \"#utility.yul\":2273:3005   */\n      swap3\n      swap2\n      pop\n      pop\n      jump\t// out\n        /* \"#utility.yul\":3011:3384   */\n    tag_17:\n        /* \"#utility.yul\":3154:3158   */\n      0x00\n        /* \"#utility.yul\":3192:3194   */\n      0x20\n        /* \"#utility.yul\":3181:3190   */\n      dup3\n        /* \"#utility.yul\":3177:3195   */\n      add\n        /* \"#utility.yul\":3169:3195   */\n      swap1\n      pop\n        /* \"#utility.yul\":3241:3250   */\n      dup2\n        /* \"#utility.yul\":3235:3239   */\n      dup2\n        /* \"#utility.yul\":3231:3251   */\n      sub\n        /* \"#utility.yul\":3227:3228   */\n      0x00\n        /* \"#utility.yul\":3216:3225   */\n      dup4\n        /* \"#utility.yul\":3212:3229   */\n      add\n        /* \"#utility.yul\":3205:3252   */\n      mstore\n        /* \"#utility.yul\":3269:3377   */\n      tag_99\n        /* \"#utility.yul\":3372:3376   */\n      dup2\n        /* \"#utility.yul\":3363:3369   */\n      dup5\n        /* \"#utility.yul\":3269:3377   */\n      tag_58\n      jump\t// in\n    tag_99:\n        /* \"#utility.yul\":3261:3377   */\n      swap1\n      pop\n        /* \"#utility.yul\":3011:3384   */\n      swap3\n      swap2\n      pop\n      pop\n      jump\t// out\n        /* \"#utility.yul\":3390:3570   */\n    tag_59:\n        /* \"#utility.yul\":3438:3515   */\n      0x4e487b7100000000000000000000000000000000000000000000000000000000\n        /* \"#utility.yul\":3435:3436   */\n      0x00\n        /* \"#utility.yul\":3428:3516   */\n      mstore\n        /* \"#utility.yul\":3535:3539   */\n      0x11\n        /* \"#utility.yul\":3532:3533   */\n      0x04\n        /* \"#utility.yul\":3525:3540   */\n      mstore\n        /* \"#utility.yul\":3559:3563   */\n      0x24\n        /* \"#utility.yul\":3556:3557   */\n      0x00\n        /* \"#utility.yul\":3549:3564   */\n      revert\n        /* \"#utility.yul\":3576:3678   */\n    tag_60:\n        /* \"#utility.yul\":3618:3626   */\n      0x00\n        /* \"#utility.yul\":3665:3670   */\n      dup2\n        /* \"#utility.yul\":3662:3663   */\n      0x01\n        /* \"#utility.yul\":3658:3671   */\n      shr\n        /* \"#utility.yul\":3637:3671   */\n      swap1\n      pop\n        /* \"#utility.yul\":3576:3678   */\n      swap2\n      swap1\n      pop\n      jump\t// out\n        /* \"#utility.yul\":3684:4532   */\n    tag_61:\n        /* \"#utility.yul\":3745:3750   */\n      0x00\n        /* \"#utility.yul\":3752:3756   */\n      dup1\n        /* \"#utility.yul\":3776:3782   */\n      dup3\n        /* \"#utility.yul\":3767:3782   */\n      swap2\n      pop\n        /* \"#utility.yul\":3800:3805   */\n      dup4\n        /* \"#utility.yul\":3791:3805   */\n      swap1\n      pop\n        /* \"#utility.yul\":3814:4526   */\n    tag_103:\n        /* \"#utility.yul\":3835:3836   */\n      0x01\n        /* \"#utility.yul\":3825:3833   */\n      dup6\n        /* \"#utility.yul\":3822:3837   */\n      gt\n        /* \"#utility.yul\":3814:4526   */\n      iszero\n      tag_105\n      jumpi\n        /* \"#utility.yul\":3930:3934   */\n      dup1\n        /* \"#utility.yul\":3925:3928   */\n      dup7\n        /* \"#utility.yul\":3921:3935   */\n      div\n        /* \"#utility.yul\":3915:3919   */\n      dup2\n        /* \"#utility.yul\":3912:3936   */\n      gt\n        /* \"#utility.yul\":3909:3959   */\n      iszero\n      tag_106\n      jumpi\n        /* \"#utility.yul\":3939:3957   */\n      tag_107\n      tag_59\n      jump\t// in\n    tag_107:\n        /* \"#utility.yul\":3909:3959   */\n    tag_106:\n        /* \"#utility.yul\":3989:3990   */\n      0x01\n        /* \"#utility.yul\":3979:3987   */\n      dup6\n        /* \"#utility.yul\":3975:3991   */\n      and\n        /* \"#utility.yul\":3972:4423   */\n      iszero\n      tag_108\n      jumpi\n        /* \"#utility.yul\":4404:4408   */\n      dup1\n        /* \"#utility.yul\":4397:4402   */\n      dup3\n        /* \"#utility.yul\":4393:4409   */\n      mul\n        /* \"#utility.yul\":4384:4409   */\n      swap2\n      pop\n        /* \"#utility.yul\":3972:4423   */\n    tag_108:\n        /* \"#utility.yul\":4454:4458   */\n      dup1\n        /* \"#utility.yul\":4448:4452   */\n      dup2\n        /* \"#utility.yul\":4444:4459   */\n      mul\n        /* \"#utility.yul\":4436:4459   */\n      swap1\n      pop\n        /* \"#utility.yul\":4484:4516   */\n      tag_109\n        /* \"#utility.yul\":4507:4515   */\n      dup6\n        /* \"#utility.yul\":4484:4516   */\n      tag_60\n      jump\t// in\n    tag_109:\n        /* \"#utility.yul\":4472:4516   */\n      swap5\n      pop\n        /* \"#utility.yul\":3814:4526   */\n      jump(tag_103)\n    tag_105:\n        /* \"#utility.yul\":3684:4532   */\n      swap5\n      pop\n      swap5\n      swap3\n      pop\n      pop\n      pop\n      jump\t// out\n        /* \"#utility.yul\":4538:5611   */\n    tag_62:\n        /* \"#utility.yul\":4592:4597   */\n      0x00\n        /* \"#utility.yul\":4783:4791   */\n      dup3\n        /* \"#utility.yul\":4773:4813   */\n      tag_111\n      jumpi\n        /* \"#utility.yul\":4804:4805   */\n      0x01\n        /* \"#utility.yul\":4795:4805   */\n      swap1\n      pop\n        /* \"#utility.yul\":4806:4811   */\n      jump(tag_110)\n        /* \"#utility.yul\":4773:4813   */\n    tag_111:\n        /* \"#utility.yul\":4832:4836   */\n      dup2\n        /* \"#utility.yul\":4822:4858   */\n      tag_112\n      jumpi\n        /* \"#utility.yul\":4849:4850   */\n      0x00\n        /* \"#utility.yul\":4840:4850   */\n      swap1\n      pop\n        /* \"#utility.yul\":4851:4856   */\n      jump(tag_110)\n        /* \"#utility.yul\":4822:4858   */\n    tag_112:\n        /* \"#utility.yul\":4918:4922   */\n      dup2\n        /* \"#utility.yul\":4966:4967   */\n      0x01\n        /* \"#utility.yul\":4961:4988   */\n      dup2\n      eq\n      tag_114\n      jumpi\n        /* \"#utility.yul\":5002:5003   */\n      0x02\n        /* \"#utility.yul\":4997:5188   */\n      dup2\n      eq\n      tag_115\n      jumpi\n        /* \"#utility.yul\":4911:5188   */\n      jump(tag_113)\n        /* \"#utility.yul\":4961:4988   */\n    tag_114:\n        /* \"#utility.yul\":4979:4980   */\n      0x01\n        /* \"#utility.yul\":4970:4980   */\n      swap2\n      pop\n        /* \"#utility.yul\":4981:4986   */\n      pop\n      jump(tag_110)\n        /* \"#utility.yul\":4997:5188   */\n    tag_115:\n        /* \"#utility.yul\":5042:5045   */\n      0xff\n        /* \"#utility.yul\":5032:5040   */\n      dup5\n        /* \"#utility.yul\":5029:5046   */\n      gt\n        /* \"#utility.yul\":5026:5069   */\n      iszero\n      tag_116\n      jumpi\n        /* \"#utility.yul\":5049:5067   */\n      tag_117\n      tag_59\n      jump\t// in\n    tag_117:\n        /* \"#utility.yul\":5026:5069   */\n    tag_116:\n        /* \"#utility.yul\":5098:5106   */\n      dup4\n        /* \"#utility.yul\":5095:5096   */\n      0x02\n        /* \"#utility.yul\":5091:5107   */\n      exp\n        /* \"#utility.yul\":5082:5107   */\n      swap2\n      pop\n        /* \"#utility.yul\":5133:5136   */\n      dup5\n        /* \"#utility.yul\":5126:5131   */\n      dup3\n        /* \"#utility.yul\":5123:5137   */\n      gt\n        /* \"#utility.yul\":5120:5160   */\n      iszero\n      tag_118\n      jumpi\n        /* \"#utility.yul\":5140:5158   */\n      tag_119\n      tag_59\n      jump\t// in\n    tag_119:\n        /* \"#utility.yul\":5120:5160   */\n    tag_118:\n        /* \"#utility.yul\":5173:5178   */\n      pop\n      jump(tag_110)\n        /* \"#utility.yul\":4911:5188   */\n    tag_113:\n      pop\n        /* \"#utility.yul\":5297:5299   */\n      0x20\n        /* \"#utility.yul\":5287:5295   */\n      dup4\n        /* \"#utility.yul\":5284:5300   */\n      lt\n        /* \"#utility.yul\":5278:5281   */\n      0x0133\n        /* \"#utility.yul\":5272:5276   */\n      dup4\n        /* \"#utility.yul\":5269:5282   */\n      lt\n        /* \"#utility.yul\":5265:5301   */\n      and\n        /* \"#utility.yul\":5247:5249   */\n      0x4e\n        /* \"#utility.yul\":5237:5245   */\n      dup5\n        /* \"#utility.yul\":5234:5250   */\n      lt\n        /* \"#utility.yul\":5229:5231   */\n      0x0b\n        /* \"#utility.yul\":5223:5227   */\n      dup5\n        /* \"#utility.yul\":5220:5232   */\n      lt\n        /* \"#utility.yul\":5216:5251   */\n      and\n        /* \"#utility.yul\":5200:5311   */\n      or\n        /* \"#utility.yul\":5197:5443   */\n      iszero\n      tag_120\n      jumpi\n        /* \"#utility.yul\":5353:5361   */\n      dup3\n        /* \"#utility.yul\":5347:5351   */\n      dup3\n        /* \"#utility.yul\":5343:5362   */\n      exp\n        /* \"#utility.yul\":5334:5362   */\n      swap1\n      pop\n        /* \"#utility.yul\":5388:5391   */\n      dup4\n        /* \"#utility.yul\":5381:5386   */\n      dup2\n        /* \"#utility.yul\":5378:5392   */\n      gt\n        /* \"#utility.yul\":5375:5415   */\n      iszero\n      tag_121\n      jumpi\n        /* \"#utility.yul\":5395:5413   */\n      tag_122\n      tag_59\n      jump\t// in\n    tag_122:\n        /* \"#utility.yul\":5375:5415   */\n    tag_121:\n        /* \"#utility.yul\":5428:5433   */\n      jump(tag_110)\n        /* \"#utility.yul\":5197:5443   */\n    tag_120:\n        /* \"#utility.yul\":5468:5510   */\n      tag_123\n        /* \"#utility.yul\":5506:5509   */\n      dup5\n        /* \"#utility.yul\":5496:5504   */\n      dup5\n        /* \"#utility.yul\":5490:5494   */\n      dup5\n        /* \"#utility.yul\":5487:5488   */\n      0x01\n        /* \"#utility.yul\":5468:5510   */\n      tag_61\n      jump\t// in\n    tag_123:\n        /* \"#utility.yul\":5453:5510   */\n      swap3\n      pop\n      swap1\n      pop\n        /* \"#utility.yul\":5542:5546   */\n      dup2\n        /* \"#utility.yul\":5537:5540   */\n      dup5\n        /* \"#utility.yul\":5533:5547   */\n      div\n        /* \"#utility.yul\":5526:5531   */\n      dup2\n        /* \"#utility.yul\":5523:5548   */\n      gt\n        /* \"#utility.yul\":5520:5571   */\n      iszero\n      tag_124\n      jumpi\n        /* \"#utility.yul\":5551:5569   */\n      tag_125\n      tag_59\n      jump\t// in\n    tag_125:\n        /* \"#utility.yul\":5520:5571   */\n    tag_124:\n        /* \"#utility.yul\":5600:5604   */\n      dup2\n        /* \"#utility.yul\":5593:5598   */\n      dup2\n        /* \"#utility.yul\":5589:5605   */\n      mul\n        /* \"#utility.yul\":5580:5605   */\n      swap1\n      pop\n        /* \"#utility.yul\":4538:5611   */\n    tag_110:\n      swap4\n      swap3\n      pop\n      pop\n      pop\n      jump\t// out\n        /* \"#utility.yul\":5617:5902   */\n    tag_30:\n        /* \"#utility.yul\":5677:5682   */\n      0x00\n        /* \"#utility.yul\":5701:5724   */\n      tag_127\n        /* \"#utility.yul\":5719:5723   */\n      dup3\n        /* \"#utility.yul\":5701:5724   */\n      tag_48\n      jump\t// in\n    tag_127:\n        /* \"#utility.yul\":5693:5724   */\n      swap2\n      pop\n        /* \"#utility.yul\":5745:5772   */\n      tag_128\n        /* \"#utility.yul\":5763:5771   */\n      dup4\n        /* \"#utility.yul\":5745:5772   */\n      tag_48\n      jump\t// in\n    tag_128:\n        /* \"#utility.yul\":5733:5772   */\n      swap3\n      pop\n        /* \"#utility.yul\":5791:5895   */\n      tag_129\n        /* \"#utility.yul\":5828:5894   */\n      0xffffffffffffffffffffffffffffffffffffffffffffffffffffffffffffffff\n        /* \"#utility.yul\":5818:5826   */\n      dup5\n        /* \"#utility.yul\":5812:5816   */\n      dup5\n        /* \"#utility.yul\":5791:5895   */\n      tag_62\n      jump\t// in\n    tag_129:\n        /* \"#utility.yul\":5782:5895   */\n      swap1\n      pop\n        /* \"#utility.yul\":5617:5902   */\n      swap3\n      swap2\n      pop\n      pop\n      jump\t// out\n        /* \"#utility.yul\":5908:6141   */\n    tag_32:\n        /* \"#utility.yul\":5947:5950   */\n      0x00\n        /* \"#utility.yul\":5970:5994   */\n      tag_131\n        /* \"#utility.yul\":5988:5993   */\n      dup3\n        /* \"#utility.yul\":5970:5994   */\n      tag_48\n      jump\t// in\n    tag_131:\n        /* \"#utility.yul\":5961:5994   */\n      swap2\n      pop\n        /* \"#utility.yul\":6016:6082   */\n      0xffffffffffffffffffffffffffffffffffffffffffffffffffffffffffffffff\n        /* \"#utility.yul\":6009:6014   */\n      dup3\n        /* \"#utility.yul\":6006:6083   */\n      sub\n        /* \"#utility.yul\":6003:6106   */\n      tag_132\n      jumpi\n        /* \"#utility.yul\":6086:6104   */\n      tag_133\n      tag_59\n      jump\t// in\n    tag_133:\n        /* \"#utility.yul\":6003:6106   */\n    tag_132:\n        /* \"#utility.yul\":6133:6134   */\n      0x01\n        /* \"#utility.yul\":6126:6131   */\n      dup3\n        /* \"#utility.yul\":6122:6135   */\n      add\n        /* \"#utility.yul\":6115:6135   */\n      swap1\n      pop\n        /* \"#utility.yul\":5908:6141   */\n      swap2\n      swap1\n      pop\n      jump\t// out\n\n    auxdata: 0xa26469706673582212204e21bb9946dcb9ac9050718f1b6845665bc7f21543c8e451b5e0016b82ac34a964736f6c63430008120033\n}\n",
				"bytecode": {
					"linkReferences": {},
					"object": "608060405234801561001057600080fd5b506105c7806100206000396000f3fe608060405234801561001057600080fd5b506004361061004c5760003560e01c80630bee723a146100515780634425506b146100815780635b6d42c2146100b1578063f0fdf834146100e1575b600080fd5b61006b60048036038101906100669190610265565b610111565b60405161007891906102a1565b60405180910390f35b61009b60048036038101906100969190610265565b610144565b6040516100a8919061037a565b60405180910390f35b6100cb60048036038101906100c69190610265565b6101de565b6040516100d891906102a1565b60405180910390f35b6100fb60048036038101906100f69190610265565b610206565b60405161010891906102a1565b60405180910390f35b6000805b80600a61012291906104fe565b831061013b57808061013390610549565b915050610115565b80915050919050565b60605b81600080549050101561018657600080805490509080600181540180825580915050600190039060005260206000200160009091909190915055610147565b60008054806020026020016040519081016040528092919081815260200182805480156101d257602002820191906000526020600020905b8154815260200190600101908083116101be575b50505050509050919050565b6000805b808310156101fd5780806101f590610549565b9150506101e2565b80915050919050565b6000818154811061021657600080fd5b906000526020600020016000915090505481565b600080fd5b6000819050919050565b6102428161022f565b811461024d57600080fd5b50565b60008135905061025f81610239565b92915050565b60006020828403121561027b5761027a61022a565b5b600061028984828501610250565b91505092915050565b61029b8161022f565b82525050565b60006020820190506102b66000830184610292565b92915050565b600081519050919050565b600082825260208201905092915050565b6000819050602082019050919050565b6102f18161022f565b82525050565b600061030383836102e8565b60208301905092915050565b6000602082019050919050565b6000610327826102bc565b61033181856102c7565b935061033c836102d8565b8060005b8381101561036d57815161035488826102f7565b975061035f8361030f565b925050600181019050610340565b5085935050505092915050565b60006020820190508181036000830152610394818461031c565b905092915050565b7f4e487b7100000000000000000000000000000000000000000000000000000000600052601160045260246000fd5b60008160011c9050919050565b6000808291508390505b6001851115610422578086048111156103fe576103fd61039c565b5b600185161561040d5780820291505b808102905061041b856103cb565b94506103e2565b94509492505050565b60008261043b57600190506104f7565b8161044957600090506104f7565b816001811461045f576002811461046957610498565b60019150506104f7565b60ff84111561047b5761047a61039c565b5b8360020a9150848211156104925761049161039c565b5b506104f7565b5060208310610133831016604e8410600b84101617156104cd5782820a9050838111156104c8576104c761039c565b5b6104f7565b6104da84848460016103d8565b925090508184048111156104f1576104f061039c565b5b81810290505b9392505050565b60006105098261022f565b91506105148361022f565b92506105417fffffffffffffffffffffffffffffffffffffffffffffffffffffffffffffffff848461042b565b905092915050565b60006105548261022f565b91507fffffffffffffffffffffffffffffffffffffffffffffffffffffffffffffffff82036105865761058561039c565b5b60018201905091905056fea26469706673582212204e21bb9946dcb9ac9050718f1b6845665bc7f21543c8e451b5e0016b82ac34a964736f6c63430008120033",
					"opcodes": "PUSH1 0x80 PUSH1 0x40 MSTORE CALLVALUE DUP1 ISZERO PUSH2 0x10 JUMPI PUSH1 0x0 DUP1 REVERT JUMPDEST POP PUSH2 0x5C7 DUP1 PUSH2 0x20 PUSH1 0x0 CODECOPY PUSH1 0x0 RETURN INVALID PUSH1 0x80 PUSH1 0x40 MSTORE CALLVALUE DUP1 ISZERO PUSH2 0x10 JUMPI PUSH1 0x0 DUP1 REVERT JUMPDEST POP PUSH1 0x4 CALLDATASIZE LT PUSH2 0x4C JUMPI PUSH1 0x0 CALLDATALOAD PUSH1 0xE0 SHR DUP1 PUSH4 0xBEE723A EQ PUSH2 0x51 JUMPI DUP1 PUSH4 0x4425506B EQ PUSH2 0x81 JUMPI DUP1 PUSH4 0x5B6D42C2 EQ PUSH2 0xB1 JUMPI DUP1 PUSH4 0xF0FDF834 EQ PUSH2 0xE1 JUMPI JUMPDEST PUSH1 0x0 DUP1 REVERT JUMPDEST PUSH2 0x6B PUSH1 0x4 DUP1 CALLDATASIZE SUB DUP2 ADD SWAP1 PUSH2 0x66 SWAP2 SWAP1 PUSH2 0x265 JUMP JUMPDEST PUSH2 0x111 JUMP JUMPDEST PUSH1 0x40 MLOAD PUSH2 0x78 SWAP2 SWAP1 PUSH2 0x2A1 JUMP JUMPDEST PUSH1 0x40 MLOAD DUP1 SWAP2 SUB SWAP1 RETURN JUMPDEST PUSH2 0x9B PUSH1 0x4 DUP1 CALLDATASIZE SUB DUP2 ADD SWAP1 PUSH2 0x96 SWAP2 SWAP1 PUSH2 0x265 JUMP JUMPDEST PUSH2 0x144 JUMP JUMPDEST PUSH1 0x40 MLOAD PUSH2 0xA8 SWAP2 SWAP1 PUSH2 0x37A JUMP JUMPDEST PUSH1 0x40 MLOAD DUP1 SWAP2 SUB SWAP1 RETURN JUMPDEST PUSH2 0xCB PUSH1 0x4 DUP1 CALLDATASIZE SUB DUP2 ADD SWAP1 PUSH2 0xC6 SWAP2 SWAP1 PUSH2 0x265 JUMP JUMPDEST PUSH2 0x1DE JUMP JUMPDEST PUSH1 0x40 MLOAD PUSH2 0xD8 SWAP2 SWAP1 PUSH2 0x2A1 JUMP JUMPDEST PUSH1 0x40 MLOAD DUP1 SWAP2 SUB SWAP1 RETURN JUMPDEST PUSH2 0xFB PUSH1 0x4 DUP1 CALLDATASIZE SUB DUP2 ADD SWAP1 PUSH2 0xF6 SWAP2 SWAP1 PUSH2 0x265 JUMP JUMPDEST PUSH2 0x206 JUMP JUMPDEST PUSH1 0x40 MLOAD PUSH2 0x108 SWAP2 SWAP1 PUSH2 0x2A1 JUMP JUMPDEST PUSH1 0x40 MLOAD DUP1 SWAP2 SUB SWAP1 RETURN JUMPDEST PUSH1 0x0 DUP1 JUMPDEST DUP1 PUSH1 0xA PUSH2 0x122 SWAP2 SWAP1 PUSH2 0x4FE JUMP JUMPDEST DUP4 LT PUSH2 0x13B JUMPI DUP1 DUP1 PUSH2 0x133 SWAP1 PUSH2 0x549 JUMP JUMPDEST SWAP2 POP POP PUSH2 0x115 JUMP JUMPDEST DUP1 SWAP2 POP POP SWAP2 SWAP1 POP JUMP JUMPDEST PUSH1 0x60 JUMPDEST DUP2 PUSH1 0x0 DUP1 SLOAD SWAP1 POP LT ISZERO PUSH2 0x186 JUMPI PUSH1 0x0 DUP1 DUP1 SLOAD SWAP1 POP SWAP1 DUP1 PUSH1 0x1 DUP2 SLOAD ADD DUP1 DUP3 SSTORE DUP1 SWAP2 POP POP PUSH1 0x1 SWAP1 SUB SWAP1 PUSH1 0x0 MSTORE PUSH1 0x20 PUSH1 0x0 KECCAK256 ADD PUSH1 0x0 SWAP1 SWAP2 SWAP1 SWAP2 SWAP1 SWAP2 POP SSTORE PUSH2 0x147 JUMP JUMPDEST PUSH1 0x0 DUP1 SLOAD DUP1 PUSH1 0x20 MUL PUSH1 0x20 ADD PUSH1 0x40 MLOAD SWAP1 DUP2 ADD PUSH1 0x40 MSTORE DUP1 SWAP3 SWAP2 SWAP1 DUP2 DUP2 MSTORE PUSH1 0x20 ADD DUP3 DUP1 SLOAD DUP1 ISZERO PUSH2 0x1D2 JUMPI PUSH1 0x20 MUL DUP3 ADD SWAP2 SWAP1 PUSH1 0x0 MSTORE PUSH1 0x20 PUSH1 0x0 KECCAK256 SWAP1 JUMPDEST DUP2 SLOAD DUP2 MSTORE PUSH1 0x20 ADD SWAP1 PUSH1 0x1 ADD SWAP1 DUP1 DUP4 GT PUSH2 0x1BE JUMPI JUMPDEST POP POP POP POP POP SWAP1 POP SWAP2 SWAP1 POP JUMP JUMPDEST PUSH1 0x0 DUP1 JUMPDEST DUP1 DUP4 LT ISZERO PUSH2 0x1FD JUMPI DUP1 DUP1 PUSH2 0x1F5 SWAP1 PUSH2 0x549 JUMP JUMPDEST SWAP2 POP POP PUSH2 0x1E2 JUMP JUMPDEST DUP1 SWAP2 POP POP SWAP2 SWAP1 POP JUMP JUMPDEST PUSH1 0x0 DUP2 DUP2 SLOAD DUP2 LT PUSH2 0x216 JUMPI PUSH1 0x0 DUP1 REVERT JUMPDEST SWAP1 PUSH1 0x0 MSTORE PUSH1 0x20 PUSH1 0x0 KECCAK256 ADD PUSH1 0x0 SWAP2 POP SWAP1 POP SLOAD DUP2 JUMP JUMPDEST PUSH1 0x0 DUP1 REVERT JUMPDEST PUSH1 0x0 DUP2 SWAP1 POP SWAP2 SWAP1 POP JUMP JUMPDEST PUSH2 0x242 DUP2 PUSH2 0x22F JUMP JUMPDEST DUP2 EQ PUSH2 0x24D JUMPI PUSH1 0x0 DUP1 REVERT JUMPDEST POP JUMP JUMPDEST PUSH1 0x0 DUP2 CALLDATALOAD SWAP1 POP PUSH2 0x25F DUP2 PUSH2 0x239 JUMP JUMPDEST SWAP3 SWAP2 POP POP JUMP JUMPDEST PUSH1 0x0 PUSH1 0x20 DUP3 DUP5 SUB SLT ISZERO PUSH2 0x27B JUMPI PUSH2 0x27A PUSH2 0x22A JUMP JUMPDEST JUMPDEST PUSH1 0x0 PUSH2 0x289 DUP5 DUP3 DUP6 ADD PUSH2 0x250 JUMP JUMPDEST SWAP2 POP POP SWAP3 SWAP2 POP POP JUMP JUMPDEST PUSH2 0x29B DUP2 PUSH2 0x22F JUMP JUMPDEST DUP3 MSTORE POP POP JUMP JUMPDEST PUSH1 0x0 PUSH1 0x20 DUP3 ADD SWAP1 POP PUSH2 0x2B6 PUSH1 0x0 DUP4 ADD DUP5 PUSH2 0x292 JUMP JUMPDEST SWAP3 SWAP2 POP POP JUMP JUMPDEST PUSH1 0x0 DUP2 MLOAD SWAP1 POP SWAP2 SWAP1 POP JUMP JUMPDEST PUSH1 0x0 DUP3 DUP3 MSTORE PUSH1 0x20 DUP3 ADD SWAP1 POP SWAP3 SWAP2 POP POP JUMP JUMPDEST PUSH1 0x0 DUP2 SWAP1 POP PUSH1 0x20 DUP3 ADD SWAP1 POP SWAP2 SWAP1 POP JUMP JUMPDEST PUSH2 0x2F1 DUP2 PUSH2 0x22F JUMP JUMPDEST DUP3 MSTORE POP POP JUMP JUMPDEST PUSH1 0x0 PUSH2 0x303 DUP4 DUP4 PUSH2 0x2E8 JUMP JUMPDEST PUSH1 0x20 DUP4 ADD SWAP1 POP SWAP3 SWAP2 POP POP JUMP JUMPDEST PUSH1 0x0 PUSH1 0x20 DUP3 ADD SWAP1 POP SWAP2 SWAP1 POP JUMP JUMPDEST PUSH1 0x0 PUSH2 0x327 DUP3 PUSH2 0x2BC JUMP JUMPDEST PUSH2 0x331 DUP2 DUP6 PUSH2 0x2C7 JUMP JUMPDEST SWAP4 POP PUSH2 0x33C DUP4 PUSH2 0x2D8 JUMP JUMPDEST DUP1 PUSH1 0x0 JUMPDEST DUP4 DUP2 LT ISZERO PUSH2 0x36D JUMPI DUP2 MLOAD PUSH2 0x354 DUP9 DUP3 PUSH2 0x2F7 JUMP JUMPDEST SWAP8 POP PUSH2 0x35F DUP4 PUSH2 0x30F JUMP JUMPDEST SWAP3 POP POP PUSH1 0x1 DUP2 ADD SWAP1 POP PUSH2 0x340 JUMP JUMPDEST POP DUP6 SWAP4 POP POP POP POP SWAP3 SWAP2 POP POP JUMP JUMPDEST PUSH1 0x0 PUSH1 0x20 DUP3 ADD SWAP1 POP DUP2 DUP2 SUB PUSH1 0x0 DUP4 ADD MSTORE PUSH2 0x394 DUP2 DUP5 PUSH2 0x31C JUMP JUMPDEST SWAP1 POP SWAP3 SWAP2 POP POP JUMP JUMPDEST PUSH32 0x4E487B7100000000000000000000000000000000000000000000000000000000 PUSH1 0x0 MSTORE PUSH1 0x11 PUSH1 0x4 MSTORE PUSH1 0x24 PUSH1 0x0 REVERT JUMPDEST PUSH1 0x0 DUP2 PUSH1 0x1 SHR SWAP1 POP SWAP2 SWAP1 POP JUMP JUMPDEST PUSH1 0x0 DUP1 DUP3 SWAP2 POP DUP4 SWAP1 POP JUMPDEST PUSH1 0x1 DUP6 GT ISZERO PUSH2 0x422 JUMPI DUP1 DUP7 DIV DUP2 GT ISZERO PUSH2 0x3FE JUMPI PUSH2 0x3FD PUSH2 0x39C JUMP JUMPDEST JUMPDEST PUSH1 0x1 DUP6 AND ISZERO PUSH2 0x40D JUMPI DUP1 DUP3 MUL SWAP2 POP JUMPDEST DUP1 DUP2 MUL SWAP1 POP PUSH2 0x41B DUP6 PUSH2 0x3CB JUMP JUMPDEST SWAP5 POP PUSH2 0x3E2 JUMP JUMPDEST SWAP5 POP SWAP5 SWAP3 POP POP POP JUMP JUMPDEST PUSH1 0x0 DUP3 PUSH2 0x43B JUMPI PUSH1 0x1 SWAP1 POP PUSH2 0x4F7 JUMP JUMPDEST DUP2 PUSH2 0x449 JUMPI PUSH1 0x0 SWAP1 POP PUSH2 0x4F7 JUMP JUMPDEST DUP2 PUSH1 0x1 DUP2 EQ PUSH2 0x45F JUMPI PUSH1 0x2 DUP2 EQ PUSH2 0x469 JUMPI PUSH2 0x498 JUMP JUMPDEST PUSH1 0x1 SWAP2 POP POP PUSH2 0x4F7 JUMP JUMPDEST PUSH1 0xFF DUP5 GT ISZERO PUSH2 0x47B JUMPI PUSH2 0x47A PUSH2 0x39C JUMP JUMPDEST JUMPDEST DUP4 PUSH1 0x2 EXP SWAP2 POP DUP5 DUP3 GT ISZERO PUSH2 0x492 JUMPI PUSH2 0x491 PUSH2 0x39C JUMP JUMPDEST JUMPDEST POP PUSH2 0x4F7 JUMP JUMPDEST POP PUSH1 0x20 DUP4 LT PUSH2 0x133 DUP4 LT AND PUSH1 0x4E DUP5 LT PUSH1 0xB DUP5 LT AND OR ISZERO PUSH2 0x4CD JUMPI DUP3 DUP3 EXP SWAP1 POP DUP4 DUP2 GT ISZERO PUSH2 0x4C8 JUMPI PUSH2 0x4C7 PUSH2 0x39C JUMP JUMPDEST JUMPDEST PUSH2 0x4F7 JUMP JUMPDEST PUSH2 0x4DA DUP5 DUP5 DUP5 PUSH1 0x1 PUSH2 0x3D8 JUMP JUMPDEST SWAP3 POP SWAP1 POP DUP2 DUP5 DIV DUP2 GT ISZERO PUSH2 0x4F1 JUMPI PUSH2 0x4F0 PUSH2 0x39C JUMP JUMPDEST JUMPDEST DUP2 DUP2 MUL SWAP1 POP JUMPDEST SWAP4 SWAP3 POP POP POP JUMP JUMPDEST PUSH1 0x0 PUSH2 0x509 DUP3 PUSH2 0x22F JUMP JUMPDEST SWAP2 POP PUSH2 0x514 DUP4 PUSH2 0x22F JUMP JUMPDEST SWAP3 POP PUSH2 0x541 PUSH32 0xFFFFFFFFFFFFFFFFFFFFFFFFFFFFFFFFFFFFFFFFFFFFFFFFFFFFFFFFFFFFFFFF DUP5 DUP5 PUSH2 0x42B JUMP JUMPDEST SWAP1 POP SWAP3 SWAP2 POP POP JUMP JUMPDEST PUSH1 0x0 PUSH2 0x554 DUP3 PUSH2 0x22F JUMP JUMPDEST SWAP2 POP PUSH32 0xFFFFFFFFFFFFFFFFFFFFFFFFFFFFFFFFFFFFFFFFFFFFFFFFFFFFFFFFFFFFFFFF DUP3 SUB PUSH2 0x586 JUMPI PUSH2 0x585 PUSH2 0x39C JUMP JUMPDEST JUMPDEST PUSH1 0x1 DUP3 ADD SWAP1 POP SWAP2 SWAP1 POP JUMP INVALID LOG2 PUSH5 0x6970667358 0x22 SLT KECCAK256 0x4E 0x21 0xBB SWAP10 CHAINID 0xDC 0xB9 0xAC SWAP1 POP PUSH18 0x8F1B6845665BC7F21543C8E451B5E0016B82 0xAC CALLVALUE 0xA9 PUSH5 0x736F6C6343 STOP ADDMOD SLT STOP CALLER "
				},
				"gasEstimates": {
					"creation": {
						"codeDepositCost": "295800",
						"executionCost": "337",
						"totalCost": "296137"
					},
					"external": {
						"a(uint256)": "infinite",
						"while_1(uint256)": "infinite",
						"while_2(uint256)": "infinite",
						"while_3(uint256)": "infinite"
					}
				},
				"methodIdentifiers": {
					"a(uint256)": "f0fdf834",
					"while_1(uint256)": "5b6d42c2",
					"while_2(uint256)": "4425506b",
					"while_3(uint256)": "0bee723a"
				}
			},
			"storageLayout": {
				"storage": [
					{
						"astId": 228,
						"contract": "contracts/0517/Quiz.sol:WHILE",
						"label": "a",
						"offset": 0,
						"slot": "0",
						"type": "t_array(t_uint256)dyn_storage"
					}
				],
				"types": {
					"t_array(t_uint256)dyn_storage": {
						"base": "t_uint256",
						"encoding": "dynamic_array",
						"label": "uint256[]",
						"numberOfBytes": "32"
					},
					"t_uint256": {
						"encoding": "inplace",
						"label": "uint256",
						"numberOfBytes": "32"
					}
				}
			},
			"userdoc": {
				"kind": "user",
				"methods": {},
				"version": 1
			}
		}
	}
}